{"abi":[{"type":"function","name":"generate","inputs":[{"name":"name","type":"string","internalType":"string"},{"name":"primaryColor","type":"string","internalType":"string"},{"name":"fontFamily","type":"string","internalType":"string"},{"name":"baseSize","type":"int256","internalType":"int256"},{"name":"mode","type":"string","internalType":"string"}],"outputs":[{"name":"result","type":"tuple","internalType":"struct CoifThemeScaffoldGen.GenerateOkResult","components":[{"name":"success","type":"bool","internalType":"bool"},{"name":"files","type":"bytes[]","internalType":"bytes[]"},{"name":"filesGenerated","type":"int256","internalType":"int256"}]}],"stateMutability":"nonpayable"},{"type":"function","name":"hasTheme","inputs":[{"name":"name","type":"string","internalType":"string"}],"outputs":[{"name":"","type":"bool","internalType":"bool"}],"stateMutability":"view"},{"type":"function","name":"preview","inputs":[{"name":"name","type":"string","internalType":"string"},{"name":"primaryColor","type":"string","internalType":"string"},{"name":"fontFamily","type":"string","internalType":"string"},{"name":"baseSize","type":"int256","internalType":"int256"},{"name":"mode","type":"string","internalType":"string"}],"outputs":[{"name":"result","type":"tuple","internalType":"struct CoifThemeScaffoldGen.PreviewOkResult","components":[{"name":"success","type":"bool","internalType":"bool"},{"name":"files","type":"bytes[]","internalType":"bytes[]"},{"name":"wouldWrite","type":"int256","internalType":"int256"},{"name":"wouldSkip","type":"int256","internalType":"int256"}]}],"stateMutability":"view"},{"type":"function","name":"register","inputs":[],"outputs":[{"name":"result","type":"tuple","internalType":"struct CoifThemeScaffoldGen.RegisterOkResult","components":[{"name":"success","type":"bool","internalType":"bool"},{"name":"name","type":"string","internalType":"string"},{"name":"inputKind","type":"string","internalType":"string"},{"name":"outputKind","type":"string","internalType":"string"},{"name":"capabilities","type":"string[]","internalType":"string[]"}]}],"stateMutability":"pure"},{"type":"function","name":"themeCount","inputs":[],"outputs":[{"name":"","type":"uint256","internalType":"uint256"}],"stateMutability":"view"},{"type":"event","name":"GenerateCompleted","inputs":[{"name":"variant","type":"string","indexed":false,"internalType":"string"},{"name":"files","type":"bytes[]","indexed":false,"internalType":"bytes[]"},{"name":"filesGenerated","type":"int256","indexed":false,"internalType":"int256"}],"anonymous":false},{"type":"event","name":"PreviewCompleted","inputs":[{"name":"variant","type":"string","indexed":false,"internalType":"string"},{"name":"files","type":"bytes[]","indexed":false,"internalType":"bytes[]"},{"name":"wouldWrite","type":"int256","indexed":false,"internalType":"int256"},{"name":"wouldSkip","type":"int256","indexed":false,"internalType":"int256"}],"anonymous":false},{"type":"event","name":"RegisterCompleted","inputs":[{"name":"variant","type":"string","indexed":false,"internalType":"string"},{"name":"capabilities","type":"string[]","indexed":false,"internalType":"string[]"}],"anonymous":false}],"bytecode":{"object":"0x608060405234801561000f575f80fd5b50611e7b8061001d5f395ff3fe608060405234801561000f575f80fd5b5060043610610055575f3560e01c80631aa3a008146100595780631eb709461461007757806327a9d626146100a7578063738a6643146100d7578063d8e1249a14610107575b5f80fd5b610061610125565b60405161006e9190610de1565b60405180910390f35b610091600480360381019061008c9190610f71565b61034c565b60405161009e91906111c1565b60405180910390f35b6100c160048036038101906100bc91906111e1565b61068a565b6040516100ce9190611237565b60405180910390f35b6100f160048036038101906100ec9190610f71565b6106d6565b6040516100fe91906112b0565b60405180910390f35b61010f610963565b60405161011c91906112e8565b60405180910390f35b61012d610b82565b5f600367ffffffffffffffff81111561014957610148610e1a565b5b60405190808252806020026020018201604052801561017c57816020015b60608152602001906001900390816101675790505b5090506040518060400160405280600e81526020017f7468656d652d73636166666f6c64000000000000000000000000000000000000815250815f815181106101c8576101c7611301565b5b60200260200101819052506040518060400160405280600c81526020017f636f6c6f722d746f6b656e7300000000000000000000000000000000000000008152508160018151811061021d5761021c611301565b5b60200260200101819052506040518060400160405280601181526020017f7479706f6772617068792d746f6b656e730000000000000000000000000000008152508160028151811061027257610271611301565b5b60200260200101819052506040518060a001604052806001151581526020016040518060400160405280601781526020017f636f69662d7468656d652d73636166666f6c642d67656e00000000000000000081525081526020016040518060400160405280600a81526020017f7468656d652d737065630000000000000000000000000000000000000000000081525081526020016040518060400160405280600e81526020017f73636166666f6c642d66696c657300000000000000000000000000000000000081525081526020018281525091505090565b610354610bb2565b5f865111610397576040517f08c379a000000000000000000000000000000000000000000000000000000000815260040161038e90611388565b60405180910390fd5b5f8551116103da576040517f08c379a00000000000000000000000000000000000000000000000000000000081526004016103d1906113f0565b60405180910390fd5b5f831361041c576040517f08c379a000000000000000000000000000000000000000000000000000000000815260040161041390611458565b60405180910390fd5b5f8660405160200161042e91906114b0565b6040516020818303038152906040528051906020012090505f600367ffffffffffffffff81111561046257610461610e1a565b5b60405190808252806020026020018201604052801561049557816020015b60608152602001906001900390816104805790505b5090508787856040516020016104ad939291906115a4565b604051602081830303815290604052815f815181106104cf576104ce611301565b5b602002602001018190525087866104e58761096f565b6040516020016104f7939291906116d3565b6040516020818303038152906040528160018151811061051a57610519611301565b5b602002602001018190525087848860405160200161053a9392919061176e565b6040516020818303038152906040528160028151811061055d5761055c611301565b5b602002602001018190525087878787874260405160200161058396959493929190611806565b6040516020818303038152906040525f808481526020019081526020015f2090816105ae9190611a7b565b5060015f8381526020019081526020015f205f9054906101000a900460ff16610620576001805f8481526020019081526020015f205f6101000a81548160ff021916908315150217905550600282908060018154018082558091505060019003905f5260205f20015f90919091909150555b5f6003905060405180606001604052806001151581526020018381526020018281525093507f48bda0bee7ff8852f440265af654a83c61da2283be561d3abff07f7ae4ae9e088282604051610676929190611c17565b60405180910390a150505095945050505050565b5f60015f8360405160200161069f91906114b0565b6040516020818303038152906040528051906020012081526020019081526020015f205f9054906101000a900460ff169050919050565b6106de610bd3565b5f865111610721576040517f08c379a000000000000000000000000000000000000000000000000000000000815260040161071890611388565b60405180910390fd5b5f855111610764576040517f08c379a000000000000000000000000000000000000000000000000000000000815260040161075b906113f0565b60405180910390fd5b5f83136107a6576040517f08c379a000000000000000000000000000000000000000000000000000000000815260040161079d90611458565b60405180910390fd5b5f866040516020016107b891906114b0565b6040516020818303038152906040528051906020012090505f600367ffffffffffffffff8111156107ec576107eb610e1a565b5b60405190808252806020026020018201604052801561081f57816020015b606081526020019060019003908161080a5790505b509050878785604051602001610837939291906115a4565b604051602081830303815290604052815f8151811061085957610858611301565b5b6020026020010181905250878661086f8761096f565b604051602001610881939291906116d3565b604051602081830303815290604052816001815181106108a4576108a3611301565b5b60200260200101819052508784886040516020016108c49392919061176e565b604051602081830303815290604052816002815181106108e7576108e6611301565b5b60200260200101819052505f60015f8481526020019081526020015f205f9054906101000a900460ff1661091b575f61091e565b60015b90505f81600361092e9190611c85565b905060405180608001604052806001151581526020018481526020018281526020018381525094505050505095945050505050565b5f600280549050905090565b60605f82036109b5576040518060400160405280600181526020017f30000000000000000000000000000000000000000000000000000000000000008152509050610b7d565b5f80831290505f816109c757836109d2565b836109d190611cc5565b5b90505f8190505f5b5f8214610a035780806109ec90611d0b565b915050600a826109fc9190611d7f565b91506109da565b5f84610a0f5781610a1d565b600182610a1c9190611daf565b5b67ffffffffffffffff811115610a3657610a35610e1a565b5b6040519080825280601f01601f191660200182016040528015610a685781602001600182028036833780820191505090505b5090508415610ad4577f2d00000000000000000000000000000000000000000000000000000000000000815f81518110610aa557610aa4611301565b5b60200101907effffffffffffffffffffffffffffffffffffffffffffffffffffffffffffff191690815f1a9053505b5b5f8414610b7457600182610ae99190611de2565b9150600a84610af89190611e15565b6030610b049190611daf565b60f81b8186610b135783610b21565b600184610b209190611daf565b5b81518110610b3257610b31611301565b5b60200101907effffffffffffffffffffffffffffffffffffffffffffffffffffffffffffff191690815f1a905350600a84610b6d9190611d7f565b9350610ad5565b80955050505050505b919050565b6040518060a001604052805f15158152602001606081526020016060815260200160608152602001606081525090565b60405180606001604052805f15158152602001606081526020015f81525090565b60405180608001604052805f15158152602001606081526020015f81526020015f81525090565b5f8115159050919050565b610c0e81610bfa565b82525050565b5f81519050919050565b5f82825260208201905092915050565b5f5b83811015610c4b578082015181840152602081019050610c30565b5f8484015250505050565b5f601f19601f8301169050919050565b5f610c7082610c14565b610c7a8185610c1e565b9350610c8a818560208601610c2e565b610c9381610c56565b840191505092915050565b5f81519050919050565b5f82825260208201905092915050565b5f819050602082019050919050565b5f610cd28383610c66565b905092915050565b5f602082019050919050565b5f610cf082610c9e565b610cfa8185610ca8565b935083602082028501610d0c85610cb8565b805f5b85811015610d475784840389528151610d288582610cc7565b9450610d3383610cda565b925060208a01995050600181019050610d0f565b50829750879550505050505092915050565b5f60a083015f830151610d6e5f860182610c05565b5060208301518482036020860152610d868282610c66565b91505060408301518482036040860152610da08282610c66565b91505060608301518482036060860152610dba8282610c66565b91505060808301518482036080860152610dd48282610ce6565b9150508091505092915050565b5f6020820190508181035f830152610df98184610d59565b905092915050565b5f604051905090565b5f80fd5b5f80fd5b5f80fd5b5f80fd5b7f4e487b71000000000000000000000000000000000000000000000000000000005f52604160045260245ffd5b610e5082610c56565b810181811067ffffffffffffffff82111715610e6f57610e6e610e1a565b5b80604052505050565b5f610e81610e01565b9050610e8d8282610e47565b919050565b5f67ffffffffffffffff821115610eac57610eab610e1a565b5b610eb582610c56565b9050602081019050919050565b828183375f83830152505050565b5f610ee2610edd84610e92565b610e78565b905082815260208101848484011115610efe57610efd610e16565b5b610f09848285610ec2565b509392505050565b5f82601f830112610f2557610f24610e12565b5b8135610f35848260208601610ed0565b91505092915050565b5f819050919050565b610f5081610f3e565b8114610f5a575f80fd5b50565b5f81359050610f6b81610f47565b92915050565b5f805f805f60a08688031215610f8a57610f89610e0a565b5b5f86013567ffffffffffffffff811115610fa757610fa6610e0e565b5b610fb388828901610f11565b955050602086013567ffffffffffffffff811115610fd457610fd3610e0e565b5b610fe088828901610f11565b945050604086013567ffffffffffffffff81111561100157611000610e0e565b5b61100d88828901610f11565b935050606061101e88828901610f5d565b925050608086013567ffffffffffffffff81111561103f5761103e610e0e565b5b61104b88828901610f11565b9150509295509295909350565b5f81519050919050565b5f82825260208201905092915050565b5f819050602082019050919050565b5f81519050919050565b5f82825260208201905092915050565b5f6110a582611081565b6110af818561108b565b93506110bf818560208601610c2e565b6110c881610c56565b840191505092915050565b5f6110de838361109b565b905092915050565b5f602082019050919050565b5f6110fc82611058565b6111068185611062565b93508360208202850161111885611072565b805f5b85811015611153578484038952815161113485826110d3565b945061113f836110e6565b925060208a0199505060018101905061111b565b50829750879550505050505092915050565b61116e81610f3e565b82525050565b5f606083015f8301516111895f860182610c05565b50602083015184820360208601526111a182826110f2565b91505060408301516111b66040860182611165565b508091505092915050565b5f6020820190508181035f8301526111d98184611174565b905092915050565b5f602082840312156111f6576111f5610e0a565b5b5f82013567ffffffffffffffff81111561121357611212610e0e565b5b61121f84828501610f11565b91505092915050565b61123181610bfa565b82525050565b5f60208201905061124a5f830184611228565b92915050565b5f608083015f8301516112655f860182610c05565b506020830151848203602086015261127d82826110f2565b91505060408301516112926040860182611165565b5060608301516112a56060860182611165565b508091505092915050565b5f6020820190508181035f8301526112c88184611250565b905092915050565b5f819050919050565b6112e2816112d0565b82525050565b5f6020820190506112fb5f8301846112d9565b92915050565b7f4e487b71000000000000000000000000000000000000000000000000000000005f52603260045260245ffd5b5f82825260208201905092915050565b7f5468656d65206e616d652063616e6e6f7420626520656d7074790000000000005f82015250565b5f611372601a8361132e565b915061137d8261133e565b602082019050919050565b5f6020820190508181035f83015261139f81611366565b9050919050565b7f5072696d61727920636f6c6f722063616e6e6f7420626520656d7074790000005f82015250565b5f6113da601d8361132e565b91506113e5826113a6565b602082019050919050565b5f6020820190508181035f830152611407816113ce565b9050919050565b7f426173652073697a65206d75737420626520706f7369746976650000000000005f82015250565b5f611442601a8361132e565b915061144d8261140e565b602082019050919050565b5f6020820190508181035f83015261146f81611436565b9050919050565b5f81905092915050565b5f61148a82610c14565b6114948185611476565b93506114a4818560208601610c2e565b80840191505092915050565b5f6114bb8284611480565b915081905092915050565b7f2f2f205468656d652073636166666f6c643a20000000000000000000000000005f82015250565b5f6114fa601383611476565b9150611505826114c6565b601382019050919050565b7f0a2f2f205072696d61727920636f6c6f723a20000000000000000000000000005f82015250565b5f611544601383611476565b915061154f82611510565b601382019050919050565b7f0a2f2f204d6f64653a20000000000000000000000000000000000000000000005f82015250565b5f61158e600a83611476565b91506115998261155a565b600a82019050919050565b5f6115ae826114ee565b91506115ba8286611480565b91506115c582611538565b91506115d18285611480565b91506115dc82611582565b91506115e88284611480565b9150819050949350505050565b7f2f2f205479706f6772617068792073636166666f6c643a2000000000000000005f82015250565b5f611629601883611476565b9150611634826115f5565b601882019050919050565b7f0a2f2f20466f6e742066616d696c793a200000000000000000000000000000005f82015250565b5f611673601183611476565b915061167e8261163f565b601182019050919050565b7f0a2f2f20426173652073697a653a2000000000000000000000000000000000005f82015250565b5f6116bd600f83611476565b91506116c882611689565b600f82019050919050565b5f6116dd8261161d565b91506116e98286611480565b91506116f482611667565b91506117008285611480565b915061170b826116b1565b91506117178284611480565b9150819050949350505050565b7f2f2f204d6f64652076617269616e742073636166666f6c643a200000000000005f82015250565b5f611758601a83611476565b915061176382611724565b601a82019050919050565b5f6117788261174c565b91506117848286611480565b915061178f82611582565b915061179b8285611480565b91506117a682611538565b91506117b28284611480565b9150819050949350505050565b5f6117c982610c14565b6117d3818561132e565b93506117e3818560208601610c2e565b6117ec81610c56565b840191505092915050565b61180081610f3e565b82525050565b5f60c0820190508181035f83015261181e81896117bf565b9050818103602083015261183281886117bf565b9050818103604083015261184681876117bf565b905061185560608301866117f7565b818103608083015261186781856117bf565b905061187660a08301846112d9565b979650505050505050565b7f4e487b71000000000000000000000000000000000000000000000000000000005f52602260045260245ffd5b5f60028204905060018216806118c557607f821691505b6020821081036118d8576118d7611881565b5b50919050565b5f819050815f5260205f209050919050565b5f6020601f8301049050919050565b5f82821b905092915050565b5f6008830261193a7fffffffffffffffffffffffffffffffffffffffffffffffffffffffffffffffff826118ff565b61194486836118ff565b95508019841693508086168417925050509392505050565b5f819050919050565b5f61197f61197a611975846112d0565b61195c565b6112d0565b9050919050565b5f819050919050565b61199883611965565b6119ac6119a482611986565b84845461190b565b825550505050565b5f90565b6119c06119b4565b6119cb81848461198f565b505050565b5b818110156119ee576119e35f826119b8565b6001810190506119d1565b5050565b601f821115611a3357611a04816118de565b611a0d846118f0565b81016020851015611a1c578190505b611a30611a28856118f0565b8301826119d0565b50505b505050565b5f82821c905092915050565b5f611a535f1984600802611a38565b1980831691505092915050565b5f611a6b8383611a44565b9150826002028217905092915050565b611a8482611081565b67ffffffffffffffff811115611a9d57611a9c610e1a565b5b611aa782546118ae565b611ab28282856119f2565b5f60209050601f831160018114611ae3575f8415611ad1578287015190505b611adb8582611a60565b865550611b42565b601f198416611af1866118de565b5f5b82811015611b1857848901518255600182019150602085019450602081019050611af3565b86831015611b355784890151611b31601f891682611a44565b8355505b6001600288020188555050505b505050505050565b7f6f6b0000000000000000000000000000000000000000000000000000000000005f82015250565b5f611b7e60028361132e565b9150611b8982611b4a565b602082019050919050565b5f82825260208201905092915050565b5f611bae82611058565b611bb88185611b94565b935083602082028501611bca85611072565b805f5b85811015611c055784840389528151611be685826110d3565b9450611bf1836110e6565b925060208a01995050600181019050611bcd565b50829750879550505050505092915050565b5f6060820190508181035f830152611c2e81611b72565b90508181036020830152611c428185611ba4565b9050611c5160408301846117f7565b9392505050565b7f4e487b71000000000000000000000000000000000000000000000000000000005f52601160045260245ffd5b5f611c8f82610f3e565b9150611c9a83610f3e565b925082820390508181125f8412168282135f851215161715611cbf57611cbe611c58565b5b92915050565b5f611ccf82610f3e565b91507f80000000000000000000000000000000000000000000000000000000000000008203611d0157611d00611c58565b5b815f039050919050565b5f611d15826112d0565b91507fffffffffffffffffffffffffffffffffffffffffffffffffffffffffffffffff8203611d4757611d46611c58565b5b600182019050919050565b7f4e487b71000000000000000000000000000000000000000000000000000000005f52601260045260245ffd5b5f611d89826112d0565b9150611d94836112d0565b925082611da457611da3611d52565b5b828204905092915050565b5f611db9826112d0565b9150611dc4836112d0565b9250828201905080821115611ddc57611ddb611c58565b5b92915050565b5f611dec826112d0565b9150611df7836112d0565b9250828203905081811115611e0f57611e0e611c58565b5b92915050565b5f611e1f826112d0565b9150611e2a836112d0565b925082611e3a57611e39611d52565b5b82820690509291505056fea2646970667358221220db9c7840571d17858d5e3e9eee48cbfd4fbd6cac5ed0d7093cc82f87bed8d8a564736f6c63430008140033","linkReferences":{}},"methodIdentifiers":{"generate(string,string,string,int256,string)":"1eb70946","hasTheme(string)":"27a9d626","preview(string,string,string,int256,string)":"738a6643","register()":"1aa3a008","themeCount()":"d8e1249a"},"id":20}