{"abi":[{"type":"function","name":"addContent","inputs":[{"name":"groupId","type":"bytes32","internalType":"bytes32"},{"name":"nodeId","type":"bytes32","internalType":"bytes32"}],"outputs":[],"stateMutability":"nonpayable"},{"type":"function","name":"addMember","inputs":[{"name":"groupId","type":"bytes32","internalType":"bytes32"},{"name":"userId","type":"bytes32","internalType":"bytes32"},{"name":"role","type":"bytes32","internalType":"bytes32"}],"outputs":[],"stateMutability":"nonpayable"},{"type":"function","name":"createGroup","inputs":[{"name":"groupId","type":"bytes32","internalType":"bytes32"},{"name":"name","type":"string","internalType":"string"},{"name":"groupType","type":"string","internalType":"string"}],"outputs":[],"stateMutability":"nonpayable"},{"type":"function","name":"getGroup","inputs":[{"name":"groupId","type":"bytes32","internalType":"bytes32"}],"outputs":[{"name":"","type":"tuple","internalType":"struct Group.GroupData","components":[{"name":"name","type":"string","internalType":"string"},{"name":"groupType","type":"string","internalType":"string"},{"name":"exists","type":"bool","internalType":"bool"}]}],"stateMutability":"view"},{"type":"function","name":"getMemberRole","inputs":[{"name":"groupId","type":"bytes32","internalType":"bytes32"},{"name":"userId","type":"bytes32","internalType":"bytes32"}],"outputs":[{"name":"","type":"bytes32","internalType":"bytes32"}],"stateMutability":"view"},{"type":"function","name":"isContent","inputs":[{"name":"groupId","type":"bytes32","internalType":"bytes32"},{"name":"nodeId","type":"bytes32","internalType":"bytes32"}],"outputs":[{"name":"","type":"bool","internalType":"bool"}],"stateMutability":"view"},{"type":"function","name":"isMember","inputs":[{"name":"groupId","type":"bytes32","internalType":"bytes32"},{"name":"userId","type":"bytes32","internalType":"bytes32"}],"outputs":[{"name":"","type":"bool","internalType":"bool"}],"stateMutability":"view"},{"type":"event","name":"ContentAdded","inputs":[{"name":"groupId","type":"bytes32","indexed":true,"internalType":"bytes32"},{"name":"nodeId","type":"bytes32","indexed":true,"internalType":"bytes32"}],"anonymous":false},{"type":"event","name":"GroupCreated","inputs":[{"name":"groupId","type":"bytes32","indexed":true,"internalType":"bytes32"}],"anonymous":false},{"type":"event","name":"MemberAdded","inputs":[{"name":"groupId","type":"bytes32","indexed":true,"internalType":"bytes32"},{"name":"userId","type":"bytes32","indexed":true,"internalType":"bytes32"}],"anonymous":false}],"bytecode":{"object":"0x608060405234801561000f575f80fd5b506114308061001d5f395ff3fe608060405234801561000f575f80fd5b506004361061007b575f3560e01c8063b567d4ba11610059578063b567d4ba146100e7578063d9439d4314610117578063e13c946c14610147578063e89d7c9d146101775761007b565b80637eab13e71461007f578063b1747003146100af578063b18ce4f7146100cb575b5f80fd5b61009960048036038101906100949190610a30565b610193565b6040516100a69190610a7d565b60405180910390f35b6100c960048036038101906100c49190610a30565b61022e565b005b6100e560048036038101906100e09190610a96565b6103a8565b005b61010160048036038101906100fc9190610ae6565b610585565b60405161010e9190610c09565b60405180910390f35b610131600480360381019061012c9190610a30565b610747565b60405161013e9190610c38565b60405180910390f35b610161600480360381019061015c9190610a30565b610780565b60405161016e9190610c38565b60405180910390f35b610191600480360381019061018c9190610cb2565b6107b6565b005b5f60015f8481526020019081526020015f205f8381526020019081526020015f206001015f9054906101000a900460ff16610203576040517f08c379a00000000000000000000000000000000000000000000000000000000081526004016101fa90610d9d565b60405180910390fd5b60015f8481526020019081526020015f205f8381526020019081526020015f205f0154905092915050565b5f808381526020019081526020015f206002015f9054906101000a900460ff1661028d576040517f08c379a000000000000000000000000000000000000000000000000000000000815260040161028490610e05565b60405180910390fd5b5f801b81036102d1576040517f08c379a00000000000000000000000000000000000000000000000000000000081526004016102c890610e6d565b60405180910390fd5b60035f8381526020019081526020015f205f8281526020019081526020015f205f9054906101000a900460ff161561033e576040517f08c379a000000000000000000000000000000000000000000000000000000000815260040161033590610ed5565b60405180910390fd5b600160035f8481526020019081526020015f205f8381526020019081526020015f205f6101000a81548160ff02191690831515021790555080827f851b67f82199a549a3baa85a0f382fd6052b9c63fad4bf9be6f4a8d4bca4c52a60405160405180910390a35050565b5f808481526020019081526020015f206002015f9054906101000a900460ff16610407576040517f08c379a00000000000000000000000000000000000000000000000000000000081526004016103fe90610e05565b60405180910390fd5b5f801b820361044b576040517f08c379a000000000000000000000000000000000000000000000000000000000815260040161044290610f3d565b60405180910390fd5b60015f8481526020019081526020015f205f8381526020019081526020015f206001015f9054906101000a900460ff16156104bb576040517f08c379a00000000000000000000000000000000000000000000000000000000081526004016104b290610fa5565b60405180910390fd5b60405180604001604052808281526020016001151581525060015f8581526020019081526020015f205f8481526020019081526020015f205f820151815f01556020820151816001015f6101000a81548160ff02191690831515021790555090505060025f8481526020019081526020015f2082908060018154018082558091505060019003905f5260205f20015f909190919091505581837f95f2c6778a97783858e2e08e96dd2f7a1d01c70f5a6375579c7aa7640d8aedc560405160405180910390a3505050565b61058d6109d3565b5f808381526020019081526020015f206002015f9054906101000a900460ff166105ec576040517f08c379a00000000000000000000000000000000000000000000000000000000081526004016105e390610e05565b60405180910390fd5b5f808381526020019081526020015f206040518060600160405290815f8201805461061690610ff0565b80601f016020809104026020016040519081016040528092919081815260200182805461064290610ff0565b801561068d5780601f106106645761010080835404028352916020019161068d565b820191905f5260205f20905b81548152906001019060200180831161067057829003601f168201915b505050505081526020016001820180546106a690610ff0565b80601f01602080910402602001604051908101604052809291908181526020018280546106d290610ff0565b801561071d5780601f106106f45761010080835404028352916020019161071d565b820191905f5260205f20905b81548152906001019060200180831161070057829003601f168201915b50505050508152602001600282015f9054906101000a900460ff1615151515815250509050919050565b5f60015f8481526020019081526020015f205f8381526020019081526020015f206001015f9054906101000a900460ff16905092915050565b5f60035f8481526020019081526020015f205f8381526020019081526020015f205f9054906101000a900460ff16905092915050565b5f801b85036107fa576040517f08c379a00000000000000000000000000000000000000000000000000000000081526004016107f19061106a565b60405180910390fd5b5f808681526020019081526020015f206002015f9054906101000a900460ff161561085a576040517f08c379a0000000000000000000000000000000000000000000000000000000008152600401610851906110d2565b60405180910390fd5b5f848490501161089f576040517f08c379a00000000000000000000000000000000000000000000000000000000081526004016108969061113a565b60405180910390fd5b604051806060016040528085858080601f0160208091040260200160405190810160405280939291908181526020018383808284375f81840152601f19601f82011690508083019250505050505050815260200183838080601f0160208091040260200160405190810160405280939291908181526020018383808284375f81840152601f19601f820116905080830192505050505050508152602001600115158152505f808781526020019081526020015f205f820151815f019081610966919061132b565b50602082015181600101908161097c919061132b565b506040820151816002015f6101000a81548160ff021916908315150217905550905050847f68f2001f3d21c00cd78cc99ed066e602521463b601394d6b4b0664ceed39461160405160405180910390a25050505050565b604051806060016040528060608152602001606081526020015f151581525090565b5f80fd5b5f80fd5b5f819050919050565b610a0f816109fd565b8114610a19575f80fd5b50565b5f81359050610a2a81610a06565b92915050565b5f8060408385031215610a4657610a456109f5565b5b5f610a5385828601610a1c565b9250506020610a6485828601610a1c565b9150509250929050565b610a77816109fd565b82525050565b5f602082019050610a905f830184610a6e565b92915050565b5f805f60608486031215610aad57610aac6109f5565b5b5f610aba86828701610a1c565b9350506020610acb86828701610a1c565b9250506040610adc86828701610a1c565b9150509250925092565b5f60208284031215610afb57610afa6109f5565b5b5f610b0884828501610a1c565b91505092915050565b5f81519050919050565b5f82825260208201905092915050565b5f5b83811015610b48578082015181840152602081019050610b2d565b5f8484015250505050565b5f601f19601f8301169050919050565b5f610b6d82610b11565b610b778185610b1b565b9350610b87818560208601610b2b565b610b9081610b53565b840191505092915050565b5f8115159050919050565b610baf81610b9b565b82525050565b5f606083015f8301518482035f860152610bcf8282610b63565b91505060208301518482036020860152610be98282610b63565b9150506040830151610bfe6040860182610ba6565b508091505092915050565b5f6020820190508181035f830152610c218184610bb5565b905092915050565b610c3281610b9b565b82525050565b5f602082019050610c4b5f830184610c29565b92915050565b5f80fd5b5f80fd5b5f80fd5b5f8083601f840112610c7257610c71610c51565b5b8235905067ffffffffffffffff811115610c8f57610c8e610c55565b5b602083019150836001820283011115610cab57610caa610c59565b5b9250929050565b5f805f805f60608688031215610ccb57610cca6109f5565b5b5f610cd888828901610a1c565b955050602086013567ffffffffffffffff811115610cf957610cf86109f9565b5b610d0588828901610c5d565b9450945050604086013567ffffffffffffffff811115610d2857610d276109f9565b5b610d3488828901610c5d565b92509250509295509295909350565b5f82825260208201905092915050565b7f4d656d626572206e6f7420666f756e64000000000000000000000000000000005f82015250565b5f610d87601083610d43565b9150610d9282610d53565b602082019050919050565b5f6020820190508181035f830152610db481610d7b565b9050919050565b7f47726f7570206e6f7420666f756e6400000000000000000000000000000000005f82015250565b5f610def600f83610d43565b9150610dfa82610dbb565b602082019050919050565b5f6020820190508181035f830152610e1c81610de3565b9050919050565b7f4e6f64652049442063616e6e6f74206265207a65726f000000000000000000005f82015250565b5f610e57601683610d43565b9150610e6282610e23565b602082019050919050565b5f6020820190508181035f830152610e8481610e4b565b9050919050565b7f436f6e74656e7420616c726561647920616464656400000000000000000000005f82015250565b5f610ebf601583610d43565b9150610eca82610e8b565b602082019050919050565b5f6020820190508181035f830152610eec81610eb3565b9050919050565b7f557365722049442063616e6e6f74206265207a65726f000000000000000000005f82015250565b5f610f27601683610d43565b9150610f3282610ef3565b602082019050919050565b5f6020820190508181035f830152610f5481610f1b565b9050919050565b7f4d656d62657220616c72656164792065786973747300000000000000000000005f82015250565b5f610f8f601583610d43565b9150610f9a82610f5b565b602082019050919050565b5f6020820190508181035f830152610fbc81610f83565b9050919050565b7f4e487b71000000000000000000000000000000000000000000000000000000005f52602260045260245ffd5b5f600282049050600182168061100757607f821691505b60208210810361101a57611019610fc3565b5b50919050565b7f47726f75702049442063616e6e6f74206265207a65726f0000000000000000005f82015250565b5f611054601783610d43565b915061105f82611020565b602082019050919050565b5f6020820190508181035f83015261108181611048565b9050919050565b7f47726f757020616c7265616479206578697374730000000000000000000000005f82015250565b5f6110bc601483610d43565b91506110c782611088565b602082019050919050565b5f6020820190508181035f8301526110e9816110b0565b9050919050565b7f4e616d652063616e6e6f7420626520656d7074790000000000000000000000005f82015250565b5f611124601483610d43565b915061112f826110f0565b602082019050919050565b5f6020820190508181035f83015261115181611118565b9050919050565b7f4e487b71000000000000000000000000000000000000000000000000000000005f52604160045260245ffd5b5f819050815f5260205f209050919050565b5f6020601f8301049050919050565b5f82821b905092915050565b5f600883026111e17fffffffffffffffffffffffffffffffffffffffffffffffffffffffffffffffff826111a6565b6111eb86836111a6565b95508019841693508086168417925050509392505050565b5f819050919050565b5f819050919050565b5f61122f61122a61122584611203565b61120c565b611203565b9050919050565b5f819050919050565b61124883611215565b61125c61125482611236565b8484546111b2565b825550505050565b5f90565b611270611264565b61127b81848461123f565b505050565b5b8181101561129e576112935f82611268565b600181019050611281565b5050565b601f8211156112e3576112b481611185565b6112bd84611197565b810160208510156112cc578190505b6112e06112d885611197565b830182611280565b50505b505050565b5f82821c905092915050565b5f6113035f19846008026112e8565b1980831691505092915050565b5f61131b83836112f4565b9150826002028217905092915050565b61133482610b11565b67ffffffffffffffff81111561134d5761134c611158565b5b6113578254610ff0565b6113628282856112a2565b5f60209050601f831160018114611393575f8415611381578287015190505b61138b8582611310565b8655506113f2565b601f1984166113a186611185565b5f5b828110156113c8578489015182556001820191506020850194506020810190506113a3565b868310156113e557848901516113e1601f8916826112f4565b8355505b6001600288020188555050505b50505050505056fea26469706673582212208d12a4f0e03529c030484cc424d0888fbbd745ae2d98e09a4928f05d3bc169bb64736f6c63430008140033","linkReferences":{}},"methodIdentifiers":{"addContent(bytes32,bytes32)":"b1747003","addMember(bytes32,bytes32,bytes32)":"b18ce4f7","createGroup(bytes32,string,string)":"e89d7c9d","getGroup(bytes32)":"b567d4ba","getMemberRole(bytes32,bytes32)":"7eab13e7","isContent(bytes32,bytes32)":"e13c946c","isMember(bytes32,bytes32)":"d9439d43"},"id":139}