{"abi":[{"type":"function","name":"generate","inputs":[{"name":"user","type":"bytes32","internalType":"bytes32"}],"outputs":[{"name":"token","type":"bytes32","internalType":"bytes32"}],"stateMutability":"nonpayable"},{"type":"function","name":"getToken","inputs":[{"name":"user","type":"bytes32","internalType":"bytes32"}],"outputs":[{"name":"hasToken","type":"bool","internalType":"bool"},{"name":"token","type":"bytes32","internalType":"bytes32"}],"stateMutability":"view"},{"type":"function","name":"revoke","inputs":[{"name":"user","type":"bytes32","internalType":"bytes32"}],"outputs":[],"stateMutability":"nonpayable"},{"type":"function","name":"verify","inputs":[{"name":"token","type":"bytes32","internalType":"bytes32"}],"outputs":[{"name":"valid","type":"bool","internalType":"bool"},{"name":"user","type":"bytes32","internalType":"bytes32"}],"stateMutability":"view"},{"type":"event","name":"TokenGenerated","inputs":[{"name":"user","type":"bytes32","indexed":true,"internalType":"bytes32"},{"name":"token","type":"bytes32","indexed":false,"internalType":"bytes32"}],"anonymous":false},{"type":"event","name":"TokenVerified","inputs":[{"name":"token","type":"bytes32","indexed":true,"internalType":"bytes32"},{"name":"valid","type":"bool","indexed":false,"internalType":"bool"},{"name":"user","type":"bytes32","indexed":false,"internalType":"bytes32"}],"anonymous":false}],"bytecode":{"object":"0x608060405234801561000f575f80fd5b506105bf8061001d5f395ff3fe608060405234801561000f575f80fd5b506004361061004a575f3560e01c806312a6f5f41461004e578063155bf4e21461007e57806375e36616146100af578063b75c7dc6146100e0575b5f80fd5b610068600480360381019061006391906103e7565b6100fc565b6040516100759190610421565b60405180910390f35b610098600480360381019061009391906103e7565b61025c565b6040516100a6929190610454565b60405180910390f35b6100c960048036038101906100c491906103e7565b6102ad565b6040516100d7929190610454565b60405180910390f35b6100fa60048036038101906100f591906103e7565b6102fb565b005b5f805f1b8203610141576040517f08c379a0000000000000000000000000000000000000000000000000000000008152600401610138906104d5565b60405180910390fd5b5f805f8481526020019081526020015f205490505f801b811461019b575f60025f8381526020019081526020015f205f6101000a81548160ff02191690831515021790555060015f8281526020019081526020015f205f90555b824243446040516020016101b2949392919061053c565b604051602081830303815290604052805190602001209150815f808581526020019081526020015f20819055508260015f8481526020019081526020015f2081905550600160025f8481526020019081526020015f205f6101000a81548160ff021916908315150217905550827f56d8665657c9f023c106f1c50345cda9fa9119b61c392e9a53ede49e997829358360405161024e9190610421565b60405180910390a250919050565b5f805f808481526020019081526020015f205490505f801b8103610287575f805f1b915091506102a8565b60025f8281526020019081526020015f205f9054906101000a900460ff1691505b915091565b5f8060025f8481526020019081526020015f205f9054906101000a900460ff166102de575f805f1b915091506102f6565b6001805f8581526020019081526020015f2054915091505b915091565b5f801b810361033f576040517f08c379a0000000000000000000000000000000000000000000000000000000008152600401610336906104d5565b60405180910390fd5b5f805f8381526020019081526020015f205490505f801b81146103ac575f60025f8381526020019081526020015f205f6101000a81548160ff02191690831515021790555060015f8281526020019081526020015f205f90555f808381526020019081526020015f205f90555b5050565b5f80fd5b5f819050919050565b6103c6816103b4565b81146103d0575f80fd5b50565b5f813590506103e1816103bd565b92915050565b5f602082840312156103fc576103fb6103b0565b5b5f610409848285016103d3565b91505092915050565b61041b816103b4565b82525050565b5f6020820190506104345f830184610412565b92915050565b5f8115159050919050565b61044e8161043a565b82525050565b5f6040820190506104675f830185610445565b6104746020830184610412565b9392505050565b5f82825260208201905092915050565b7f557365722049442063616e6e6f74206265207a65726f000000000000000000005f82015250565b5f6104bf60168361047b565b91506104ca8261048b565b602082019050919050565b5f6020820190508181035f8301526104ec816104b3565b9050919050565b5f819050919050565b61050d610508826103b4565b6104f3565b82525050565b5f819050919050565b5f819050919050565b61053661053182610513565b61051c565b82525050565b5f61054782876104fc565b6020820191506105578286610525565b6020820191506105678285610525565b6020820191506105778284610525565b6020820191508190509594505050505056fea26469706673582212203a0537bcc9a9ce4afeb0293308e838a9a5bc40fb74edb68360ae47167e45f59f64736f6c63430008140033","linkReferences":{}},"methodIdentifiers":{"generate(bytes32)":"12a6f5f4","getToken(bytes32)":"155bf4e2","revoke(bytes32)":"b75c7dc6","verify(bytes32)":"75e36616"},"id":153}