{"abi":[{"type":"function","name":"accessibilityAudit","inputs":[{"name":"widget","type":"bytes32","internalType":"bytes32"}],"outputs":[{"name":"","type":"tuple","internalType":"struct WidgetEntity.AccessibilityAuditOkResult","components":[{"name":"success","type":"bool","internalType":"bool"},{"name":"report","type":"string","internalType":"string"}]}],"stateMutability":"nonpayable"},{"type":"function","name":"findByAffordance","inputs":[{"name":"interactor","type":"string","internalType":"string"}],"outputs":[{"name":"","type":"tuple","internalType":"struct WidgetEntity.FindByAffordanceOkResult","components":[{"name":"success","type":"bool","internalType":"bool"},{"name":"widgets","type":"string","internalType":"string"}]}],"stateMutability":"nonpayable"},{"type":"function","name":"findComposedBy","inputs":[{"name":"widget","type":"bytes32","internalType":"bytes32"}],"outputs":[{"name":"","type":"tuple","internalType":"struct WidgetEntity.FindComposedByOkResult","components":[{"name":"success","type":"bool","internalType":"bool"},{"name":"children","type":"string","internalType":"string"}]}],"stateMutability":"nonpayable"},{"type":"function","name":"findComposing","inputs":[{"name":"widget","type":"bytes32","internalType":"bytes32"}],"outputs":[{"name":"","type":"tuple","internalType":"struct WidgetEntity.FindComposingOkResult","components":[{"name":"success","type":"bool","internalType":"bool"},{"name":"parents","type":"string","internalType":"string"}]}],"stateMutability":"nonpayable"},{"type":"function","name":"generatedComponents","inputs":[{"name":"widget","type":"bytes32","internalType":"bytes32"}],"outputs":[{"name":"","type":"tuple","internalType":"struct WidgetEntity.GeneratedComponentsOkResult","components":[{"name":"success","type":"bool","internalType":"bool"},{"name":"components","type":"string","internalType":"string"}]}],"stateMutability":"nonpayable"},{"type":"function","name":"get","inputs":[{"name":"name","type":"string","internalType":"string"}],"outputs":[{"name":"","type":"tuple","internalType":"struct WidgetEntity.GetOkResult","components":[{"name":"success","type":"bool","internalType":"bool"},{"name":"entity","type":"bytes32","internalType":"bytes32"}]}],"stateMutability":"nonpayable"},{"type":"function","name":"register","inputs":[{"name":"name","type":"string","internalType":"string"},{"name":"source","type":"string","internalType":"string"},{"name":"ast","type":"string","internalType":"string"}],"outputs":[{"name":"","type":"tuple","internalType":"struct WidgetEntity.RegisterOkResult","components":[{"name":"success","type":"bool","internalType":"bool"},{"name":"entity","type":"bytes32","internalType":"bytes32"}]}],"stateMutability":"nonpayable"},{"type":"function","name":"traceToConcept","inputs":[{"name":"widget","type":"bytes32","internalType":"bytes32"}],"outputs":[{"name":"","type":"tuple","internalType":"struct WidgetEntity.TraceToConceptOkResult","components":[{"name":"success","type":"bool","internalType":"bool"},{"name":"concepts","type":"string","internalType":"string"}]}],"stateMutability":"nonpayable"},{"type":"event","name":"AccessibilityAuditCompleted","inputs":[{"name":"variant","type":"string","indexed":false,"internalType":"string"}],"anonymous":false},{"type":"event","name":"FindByAffordanceCompleted","inputs":[{"name":"variant","type":"string","indexed":false,"internalType":"string"}],"anonymous":false},{"type":"event","name":"FindComposedByCompleted","inputs":[{"name":"variant","type":"string","indexed":false,"internalType":"string"}],"anonymous":false},{"type":"event","name":"FindComposingCompleted","inputs":[{"name":"variant","type":"string","indexed":false,"internalType":"string"}],"anonymous":false},{"type":"event","name":"GeneratedComponentsCompleted","inputs":[{"name":"variant","type":"string","indexed":false,"internalType":"string"}],"anonymous":false},{"type":"event","name":"GetCompleted","inputs":[{"name":"variant","type":"string","indexed":false,"internalType":"string"},{"name":"entity","type":"bytes32","indexed":false,"internalType":"bytes32"}],"anonymous":false},{"type":"event","name":"RegisterCompleted","inputs":[{"name":"variant","type":"string","indexed":false,"internalType":"string"},{"name":"entity","type":"bytes32","indexed":false,"internalType":"bytes32"},{"name":"existing","type":"bytes32","indexed":false,"internalType":"bytes32"}],"anonymous":false},{"type":"event","name":"TraceToConceptCompleted","inputs":[{"name":"variant","type":"string","indexed":false,"internalType":"string"}],"anonymous":false}],"bytecode":{"object":"0x608060405234801561000f575f80fd5b50611b848061001d5f395ff3fe608060405234801561000f575f80fd5b5060043610610086575f3560e01c8063693ec85e11610059578063693ec85e1461014a578063ad72a7e31461017a578063d50f7423146101aa578063e5df3fa1146101da57610086565b80632b073dae1461008a5780634cd08d03146100ba57806350201387146100ea57806366551cac1461011a575b5f80fd5b6100a4600480360381019061009f9190610d54565b61020a565b6040516100b19190610e5d565b60405180910390f35b6100d460048036038101906100cf9190610fa9565b6102ff565b6040516100e19190611089565b60405180910390f35b61010460048036038101906100ff91906110a2565b610568565b6040516101119190611123565b60405180910390f35b610134600480360381019061012f9190610d54565b6106a4565b604051610141919061117d565b60405180910390f35b610164600480360381019061015f91906110a2565b610824565b60405161017191906111ca565b60405180910390f35b610194600480360381019061018f9190610d54565b610922565b6040516101a1919061121d565b60405180910390f35b6101c460048036038101906101bf9190610d54565b610aa2565b6040516101d19190611277565b60405180910390f35b6101f460048036038101906101ef9190610d54565b610b6b565b60405161020191906112d1565b60405180910390f35b610212610c34565b5f808381526020019081526020015f206003015f9054906101000a900460ff16610271576040517f08c379a00000000000000000000000000000000000000000000000000000000081526004016102689061134b565b60405180910390fd5b5f805f8481526020019081526020015f2090505f815f0160405160200161029891906114f6565b60405160208183030381529060405290507f47268d4c0480b75f8050735b4dcc0031bc836ba2956227fd24caaffd2b9785326040516102d69061156c565b60405180910390a160405180604001604052806001151581526020018281525092505050919050565b610307610c4f565b5f84511161034a576040517f08c379a0000000000000000000000000000000000000000000000000000000008152600401610341906115d4565b60405180910390fd5b5f8460405160200161035c9190611622565b6040516020818303038152906040528051906020012090505f60025f8381526020019081526020015f205490505f808281526020019081526020015f206003015f9054906101000a900460ff161561040a577f95aa42045c9e7890b45a5e0d5b1d5c5e7a1690b14f1e0c18785efb0cd8465e2b5f801b826040516103e1929190611691565b60405180910390a160405180604001604052806001151581526020018281525092505050610561565b5f868660405160200161041e9291906116cb565b6040516020818303038152906040528051906020012090506040518060800160405280888152602001878152602001868152602001600115158152505f808381526020019081526020015f205f820151815f01908161047d9190611882565b5060208201518160010190816104939190611882565b5060408201518160020190816104a99190611882565b506060820151816003015f6101000a81548160ff021916908315150217905550905050600181908060018154018082558091505060019003905f5260205f20015f90919091909150558060025f8581526020019081526020015f20819055507f95aa42045c9e7890b45a5e0d5b1d5c5e7a1690b14f1e0c18785efb0cd8465e2b815f801b60405161053b929190611951565b60405180910390a160405180604001604052806001151581526020018281525093505050505b9392505050565b610570610c6c565b5f60405180602001604052805f81525090505f805b60018054905081101561064d575f805f600184815481106105a9576105a861198b565b5b905f5260205f20015481526020019081526020015f2090505f8160020180546105d1906113ea565b90501115610639575f83111561060457836040516020016105f29190611a02565b60405160208183030381529060405293505b83815f01604051602001610619929190611a23565b6040516020818303038152906040529350828061063590611a73565b9350505b50808061064590611a73565b915050610585565b507fd7d469f619f133182f23530bcdb97f57ca02ab11b3fab4f4b25895b4cbb98dfe60405161067b9061156c565b60405180910390a160405180604001604052806001151581526020018381525092505050919050565b6106ac610c87565b5f808381526020019081526020015f206003015f9054906101000a900460ff1661070b576040517f08c379a00000000000000000000000000000000000000000000000000000000081526004016107029061134b565b60405180910390fd5b5f60035f8481526020019081526020015f2090505f60405180602001604052805f81525090505f5b82805490508110156107cd575f81111561076a57816040516020016107589190611a02565b60405160208183030381529060405291505b815f808584815481106107805761077f61198b565b5b905f5260205f20015481526020019081526020015f205f016040516020016107a9929190611a23565b604051602081830303815290604052915080806107c590611a73565b915050610733565b507fd452e3b54200c4ddb814d4423374162d18a0276911d32810c0c9bc12f2a431516040516107fb9061156c565b60405180910390a160405180604001604052806001151581526020018281525092505050919050565b61082c610ca2565b5f8260405160200161083e9190611622565b6040516020818303038152906040528051906020012090505f60025f8381526020019081526020015f205490505f808281526020019081526020015f206003015f9054906101000a900460ff166108ca576040517f08c379a00000000000000000000000000000000000000000000000000000000081526004016108c190611b04565b60405180910390fd5b7fd45fe45dbfb310b00d5db432aa35f96282e16a8bb204b349e334de2cd5566f34816040516108f99190611b22565b60405180910390a160405180604001604052806001151581526020018281525092505050919050565b61092a610cbf565b5f808381526020019081526020015f206003015f9054906101000a900460ff16610989576040517f08c379a00000000000000000000000000000000000000000000000000000000081526004016109809061134b565b60405180910390fd5b5f60045f8481526020019081526020015f2090505f60405180602001604052805f81525090505f5b8280549050811015610a4b575f8111156109e857816040516020016109d69190611a02565b60405160208183030381529060405291505b815f808584815481106109fe576109fd61198b565b5b905f5260205f20015481526020019081526020015f205f01604051602001610a27929190611a23565b60405160208183030381529060405291508080610a4390611a73565b9150506109b1565b507f829ed2e84b29a9791b1477930fefd7273fe9b81d64f94afbab8581f875db3171604051610a799061156c565b60405180910390a160405180604001604052806001151581526020018281525092505050919050565b610aaa610cda565b5f808381526020019081526020015f206003015f9054906101000a900460ff16610b09576040517f08c379a0000000000000000000000000000000000000000000000000000000008152600401610b009061134b565b60405180910390fd5b7fa3f52935519f9a29dc2233558d6ce5b384aecff330df58e681b3fa7b8ec82560604051610b369061156c565b60405180910390a1604051806040016040528060011515815260200160405180602001604052805f8152508152509050919050565b610b73610cf5565b5f808381526020019081526020015f206003015f9054906101000a900460ff16610bd2576040517f08c379a0000000000000000000000000000000000000000000000000000000008152600401610bc99061134b565b60405180910390fd5b7fe8bc0daa2226ffe2c0827fb2db353d07909b7419957fe4bf19f6892e8951e42d604051610bff9061156c565b60405180910390a1604051806040016040528060011515815260200160405180602001604052805f8152508152509050919050565b60405180604001604052805f15158152602001606081525090565b60405180604001604052805f151581526020015f80191681525090565b60405180604001604052805f15158152602001606081525090565b60405180604001604052805f15158152602001606081525090565b60405180604001604052805f151581526020015f80191681525090565b60405180604001604052805f15158152602001606081525090565b60405180604001604052805f15158152602001606081525090565b60405180604001604052805f15158152602001606081525090565b5f604051905090565b5f80fd5b5f80fd5b5f819050919050565b610d3381610d21565b8114610d3d575f80fd5b50565b5f81359050610d4e81610d2a565b92915050565b5f60208284031215610d6957610d68610d19565b5b5f610d7684828501610d40565b91505092915050565b5f8115159050919050565b610d9381610d7f565b82525050565b5f81519050919050565b5f82825260208201905092915050565b5f5b83811015610dd0578082015181840152602081019050610db5565b5f8484015250505050565b5f601f19601f8301169050919050565b5f610df582610d99565b610dff8185610da3565b9350610e0f818560208601610db3565b610e1881610ddb565b840191505092915050565b5f604083015f830151610e385f860182610d8a565b5060208301518482036020860152610e508282610deb565b9150508091505092915050565b5f6020820190508181035f830152610e758184610e23565b905092915050565b5f80fd5b5f80fd5b7f4e487b71000000000000000000000000000000000000000000000000000000005f52604160045260245ffd5b610ebb82610ddb565b810181811067ffffffffffffffff82111715610eda57610ed9610e85565b5b80604052505050565b5f610eec610d10565b9050610ef88282610eb2565b919050565b5f67ffffffffffffffff821115610f1757610f16610e85565b5b610f2082610ddb565b9050602081019050919050565b828183375f83830152505050565b5f610f4d610f4884610efd565b610ee3565b905082815260208101848484011115610f6957610f68610e81565b5b610f74848285610f2d565b509392505050565b5f82601f830112610f9057610f8f610e7d565b5b8135610fa0848260208601610f3b565b91505092915050565b5f805f60608486031215610fc057610fbf610d19565b5b5f84013567ffffffffffffffff811115610fdd57610fdc610d1d565b5b610fe986828701610f7c565b935050602084013567ffffffffffffffff81111561100a57611009610d1d565b5b61101686828701610f7c565b925050604084013567ffffffffffffffff81111561103757611036610d1d565b5b61104386828701610f7c565b9150509250925092565b61105681610d21565b82525050565b604082015f8201516110705f850182610d8a565b506020820151611083602085018261104d565b50505050565b5f60408201905061109c5f83018461105c565b92915050565b5f602082840312156110b7576110b6610d19565b5b5f82013567ffffffffffffffff8111156110d4576110d3610d1d565b5b6110e084828501610f7c565b91505092915050565b5f604083015f8301516110fe5f860182610d8a565b50602083015184820360208601526111168282610deb565b9150508091505092915050565b5f6020820190508181035f83015261113b81846110e9565b905092915050565b5f604083015f8301516111585f860182610d8a565b50602083015184820360208601526111708282610deb565b9150508091505092915050565b5f6020820190508181035f8301526111958184611143565b905092915050565b604082015f8201516111b15f850182610d8a565b5060208201516111c4602085018261104d565b50505050565b5f6040820190506111dd5f83018461119d565b92915050565b5f604083015f8301516111f85f860182610d8a565b50602083015184820360208601526112108282610deb565b9150508091505092915050565b5f6020820190508181035f83015261123581846111e3565b905092915050565b5f604083015f8301516112525f860182610d8a565b506020830151848203602086015261126a8282610deb565b9150508091505092915050565b5f6020820190508181035f83015261128f818461123d565b905092915050565b5f604083015f8301516112ac5f860182610d8a565b50602083015184820360208601526112c48282610deb565b9150508091505092915050565b5f6020820190508181035f8301526112e98184611297565b905092915050565b5f82825260208201905092915050565b7f576964676574206e6f7420666f756e64000000000000000000000000000000005f82015250565b5f6113356010836112f1565b915061134082611301565b602082019050919050565b5f6020820190508181035f83015261136281611329565b9050919050565b5f81905092915050565b7f7769646765743a000000000000000000000000000000000000000000000000005f82015250565b5f6113a7600783611369565b91506113b282611373565b600782019050919050565b7f4e487b71000000000000000000000000000000000000000000000000000000005f52602260045260245ffd5b5f600282049050600182168061140157607f821691505b602082108103611414576114136113bd565b5b50919050565b5f819050815f5260205f209050919050565b5f8154611438816113ea565b6114428186611369565b9450600182165f811461145c5760018114611471576114a3565b60ff19831686528115158202860193506114a3565b61147a8561141a565b5f5b8381101561149b5781548189015260018201915060208101905061147c565b838801955050505b50505092915050565b7f2c7374617475733a7061737300000000000000000000000000000000000000005f82015250565b5f6114e0600c83611369565b91506114eb826114ac565b600c82019050919050565b5f6115008261139b565b915061150c828461142c565b9150611517826114d4565b915081905092915050565b7f6f6b0000000000000000000000000000000000000000000000000000000000005f82015250565b5f6115566002836112f1565b915061156182611522565b602082019050919050565b5f6020820190508181035f8301526115838161154a565b9050919050565b7f4e616d65206d757374206e6f7420626520656d707479000000000000000000005f82015250565b5f6115be6016836112f1565b91506115c98261158a565b602082019050919050565b5f6020820190508181035f8301526115eb816115b2565b9050919050565b5f6115fc82610d99565b6116068185611369565b9350611616818560208601610db3565b80840191505092915050565b5f61162d82846115f2565b915081905092915050565b7f616c7265616479526567697374657265640000000000000000000000000000005f82015250565b5f61166c6011836112f1565b915061167782611638565b602082019050919050565b61168b81610d21565b82525050565b5f6060820190508181035f8301526116a881611660565b90506116b76020830185611682565b6116c46040830184611682565b9392505050565b5f6116d682856115f2565b91506116e282846115f2565b91508190509392505050565b5f6020601f8301049050919050565b5f82821b905092915050565b5f600883026117387fffffffffffffffffffffffffffffffffffffffffffffffffffffffffffffffff826116fd565b61174286836116fd565b95508019841693508086168417925050509392505050565b5f819050919050565b5f819050919050565b5f61178661178161177c8461175a565b611763565b61175a565b9050919050565b5f819050919050565b61179f8361176c565b6117b36117ab8261178d565b848454611709565b825550505050565b5f90565b6117c76117bb565b6117d2818484611796565b505050565b5b818110156117f5576117ea5f826117bf565b6001810190506117d8565b5050565b601f82111561183a5761180b8161141a565b611814846116ee565b81016020851015611823578190505b61183761182f856116ee565b8301826117d7565b50505b505050565b5f82821c905092915050565b5f61185a5f198460080261183f565b1980831691505092915050565b5f611872838361184b565b9150826002028217905092915050565b61188b82610d99565b67ffffffffffffffff8111156118a4576118a3610e85565b5b6118ae82546113ea565b6118b98282856117f9565b5f60209050601f8311600181146118ea575f84156118d8578287015190505b6118e28582611867565b865550611949565b601f1984166118f88661141a565b5f5b8281101561191f578489015182556001820191506020850194506020810190506118fa565b8683101561193c5784890151611938601f89168261184b565b8355505b6001600288020188555050505b505050505050565b5f6060820190508181035f8301526119688161154a565b90506119776020830185611682565b6119846040830184611682565b9392505050565b7f4e487b71000000000000000000000000000000000000000000000000000000005f52603260045260245ffd5b7f2c000000000000000000000000000000000000000000000000000000000000005f82015250565b5f6119ec600183611369565b91506119f7826119b8565b600182019050919050565b5f611a0d82846115f2565b9150611a18826119e0565b915081905092915050565b5f611a2e82856115f2565b9150611a3a828461142c565b91508190509392505050565b7f4e487b71000000000000000000000000000000000000000000000000000000005f52601160045260245ffd5b5f611a7d8261175a565b91507fffffffffffffffffffffffffffffffffffffffffffffffffffffffffffffffff8203611aaf57611aae611a46565b5b600182019050919050565b7f57696467657420656e74697479206e6f7420666f756e640000000000000000005f82015250565b5f611aee6017836112f1565b9150611af982611aba565b602082019050919050565b5f6020820190508181035f830152611b1b81611ae2565b9050919050565b5f6040820190508181035f830152611b398161154a565b9050611b486020830184611682565b9291505056fea2646970667358221220cdbdb4896ae83bf84b0ea4defcae5a48d7adfb1ea61621517697c736496c79d464736f6c63430008140033","linkReferences":{}},"methodIdentifiers":{"accessibilityAudit(bytes32)":"2b073dae","findByAffordance(string)":"50201387","findComposedBy(bytes32)":"66551cac","findComposing(bytes32)":"ad72a7e3","generatedComponents(bytes32)":"d50f7423","get(string)":"693ec85e","register(string,string,string)":"4cd08d03","traceToConcept(bytes32)":"e5df3fa1"},"id":339}