{"abi":[{"type":"function","name":"getProvider","inputs":[{"name":"tokenType","type":"bytes32","internalType":"bytes32"}],"outputs":[{"name":"found","type":"bool","internalType":"bool"},{"name":"resolverConfig","type":"string","internalType":"string"}],"stateMutability":"view"},{"type":"function","name":"providerExists","inputs":[{"name":"tokenType","type":"bytes32","internalType":"bytes32"}],"outputs":[{"name":"","type":"bool","internalType":"bool"}],"stateMutability":"view"},{"type":"function","name":"registerProvider","inputs":[{"name":"tokenType","type":"bytes32","internalType":"bytes32"},{"name":"resolverConfig","type":"string","internalType":"string"}],"outputs":[],"stateMutability":"nonpayable"},{"type":"event","name":"ProviderRegistered","inputs":[{"name":"tokenType","type":"bytes32","indexed":true,"internalType":"bytes32"}],"anonymous":false}],"bytecode":{"object":"0x608060405234801561000f575f80fd5b506109378061001d5f395ff3fe608060405234801561000f575f80fd5b506004361061003f575f3560e01c80632298b16a1461004357806333c0950a1461005f5780638687951514610090575b5f80fd5b61005d600480360381019061005891906103bf565b6100c0565b005b6100796004803603810190610074919061041c565b61021c565b6040516100879291906104eb565b60405180910390f35b6100aa60048036038101906100a5919061041c565b6102fb565b6040516100b79190610519565b60405180910390f35b5f801b8303610104576040517f08c379a00000000000000000000000000000000000000000000000000000000081526004016100fb9061057c565b60405180910390fd5b5f8282905011610149576040517f08c379a0000000000000000000000000000000000000000000000000000000008152600401610140906105e4565b60405180910390fd5b604051806040016040528083838080601f0160208091040260200160405190810160405280939291908181526020018383808284375f81840152601f19601f820116905080830192505050505050508152602001600115158152505f808581526020019081526020015f205f820151815f0190816101c79190610832565b506020820151816001015f6101000a81548160ff021916908315150217905550905050827f32dfc590cafade73cbba6680180fc790a94eb0cfa92a3186559d6fb8864101dd60405160405180910390a2505050565b5f60605f805f8581526020019081526020015f209050806001015f9054906101000a900460ff16610261575f60405180602001604052805f81525092509250506102f6565b6001815f018080546102729061065c565b80601f016020809104026020016040519081016040528092919081815260200182805461029e9061065c565b80156102e95780601f106102c0576101008083540402835291602001916102e9565b820191905f5260205f20905b8154815290600101906020018083116102cc57829003601f168201915b5050505050905092509250505b915091565b5f805f8381526020019081526020015f206001015f9054906101000a900460ff169050919050565b5f80fd5b5f80fd5b5f819050919050565b61033d8161032b565b8114610347575f80fd5b50565b5f8135905061035881610334565b92915050565b5f80fd5b5f80fd5b5f80fd5b5f8083601f84011261037f5761037e61035e565b5b8235905067ffffffffffffffff81111561039c5761039b610362565b5b6020830191508360018202830111156103b8576103b7610366565b5b9250929050565b5f805f604084860312156103d6576103d5610323565b5b5f6103e38682870161034a565b935050602084013567ffffffffffffffff81111561040457610403610327565b5b6104108682870161036a565b92509250509250925092565b5f6020828403121561043157610430610323565b5b5f61043e8482850161034a565b91505092915050565b5f8115159050919050565b61045b81610447565b82525050565b5f81519050919050565b5f82825260208201905092915050565b5f5b8381101561049857808201518184015260208101905061047d565b5f8484015250505050565b5f601f19601f8301169050919050565b5f6104bd82610461565b6104c7818561046b565b93506104d781856020860161047b565b6104e0816104a3565b840191505092915050565b5f6040820190506104fe5f830185610452565b818103602083015261051081846104b3565b90509392505050565b5f60208201905061052c5f830184610452565b92915050565b7f546f6b656e20747970652063616e6e6f74206265207a65726f000000000000005f82015250565b5f61056660198361046b565b915061057182610532565b602082019050919050565b5f6020820190508181035f8301526105938161055a565b9050919050565b7f5265736f6c76657220636f6e6669672063616e6e6f7420626520656d707479005f82015250565b5f6105ce601f8361046b565b91506105d98261059a565b602082019050919050565b5f6020820190508181035f8301526105fb816105c2565b9050919050565b7f4e487b71000000000000000000000000000000000000000000000000000000005f52604160045260245ffd5b7f4e487b71000000000000000000000000000000000000000000000000000000005f52602260045260245ffd5b5f600282049050600182168061067357607f821691505b6020821081036106865761068561062f565b5b50919050565b5f819050815f5260205f209050919050565b5f6020601f8301049050919050565b5f82821b905092915050565b5f600883026106e87fffffffffffffffffffffffffffffffffffffffffffffffffffffffffffffffff826106ad565b6106f286836106ad565b95508019841693508086168417925050509392505050565b5f819050919050565b5f819050919050565b5f61073661073161072c8461070a565b610713565b61070a565b9050919050565b5f819050919050565b61074f8361071c565b61076361075b8261073d565b8484546106b9565b825550505050565b5f90565b61077761076b565b610782818484610746565b505050565b5b818110156107a55761079a5f8261076f565b600181019050610788565b5050565b601f8211156107ea576107bb8161068c565b6107c48461069e565b810160208510156107d3578190505b6107e76107df8561069e565b830182610787565b50505b505050565b5f82821c905092915050565b5f61080a5f19846008026107ef565b1980831691505092915050565b5f61082283836107fb565b9150826002028217905092915050565b61083b82610461565b67ffffffffffffffff81111561085457610853610602565b5b61085e825461065c565b6108698282856107a9565b5f60209050601f83116001811461089a575f8415610888578287015190505b6108928582610817565b8655506108f9565b601f1984166108a88661068c565b5f5b828110156108cf578489015182556001820191506020850194506020810190506108aa565b868310156108ec57848901516108e8601f8916826107fb565b8355505b6001600288020188555050505b50505050505056fea26469706673582212200eec5a4ef62a6a323a7acefec8224432c03ff527cbb0416defd2cfa89623e4bb64736f6c63430008140033","linkReferences":{}},"methodIdentifiers":{"getProvider(bytes32)":"33c0950a","providerExists(bytes32)":"86879515","registerProvider(bytes32,string)":"2298b16a"},"id":67}