{"abi":[{"type":"function","name":"drainConflicts","inputs":[],"outputs":[{"name":"result","type":"tuple","internalType":"struct SyncEngine.DrainConflictsOkResult","components":[{"name":"success","type":"bool","internalType":"bool"},{"name":"conflicts","type":"bytes[]","internalType":"bytes[]"}]}],"stateMutability":"nonpayable"},{"type":"function","name":"evaluateWhere","inputs":[{"name":"bindings","type":"bytes","internalType":"bytes"},{"name":"queries","type":"bytes[]","internalType":"bytes[]"}],"outputs":[{"name":"result","type":"tuple","internalType":"struct SyncEngine.EvaluateWhereOkResult","components":[{"name":"success","type":"bool","internalType":"bool"},{"name":"results","type":"bytes[]","internalType":"bytes[]"}]}],"stateMutability":"nonpayable"},{"type":"function","name":"onAvailabilityChange","inputs":[{"name":"conceptUri","type":"string","internalType":"string"},{"name":"available","type":"bool","internalType":"bool"}],"outputs":[{"name":"result","type":"tuple","internalType":"struct SyncEngine.OnAvailabilityChangeOkResult","components":[{"name":"success","type":"bool","internalType":"bool"},{"name":"drained","type":"bytes[]","internalType":"bytes[]"}]}],"stateMutability":"nonpayable"},{"type":"function","name":"onCompletion","inputs":[{"name":"completion","type":"bytes","internalType":"bytes"}],"outputs":[{"name":"result","type":"tuple","internalType":"struct SyncEngine.OnCompletionOkResult","components":[{"name":"success","type":"bool","internalType":"bool"},{"name":"invocations","type":"bytes[]","internalType":"bytes[]"}]}],"stateMutability":"nonpayable"},{"type":"function","name":"pendingFlowCount","inputs":[],"outputs":[{"name":"","type":"uint256","internalType":"uint256"}],"stateMutability":"view"},{"type":"function","name":"queueSync","inputs":[{"name":"sync","type":"bytes","internalType":"bytes"},{"name":"bindings","type":"bytes","internalType":"bytes"},{"name":"flow","type":"string","internalType":"string"}],"outputs":[{"name":"result","type":"tuple","internalType":"struct SyncEngine.QueueSyncOkResult","components":[{"name":"success","type":"bool","internalType":"bool"},{"name":"pendingId","type":"string","internalType":"string"}]}],"stateMutability":"nonpayable"},{"type":"function","name":"register","inputs":[],"outputs":[{"name":"metadata","type":"tuple","internalType":"struct SyncEngine.ProviderMetadata","components":[{"name":"name","type":"string","internalType":"string"},{"name":"category","type":"string","internalType":"string"}]}],"stateMutability":"pure"},{"type":"function","name":"registerSync","inputs":[{"name":"sync","type":"bytes","internalType":"bytes"}],"outputs":[{"name":"","type":"bool","internalType":"bool"}],"stateMutability":"nonpayable"},{"type":"function","name":"syncCount","inputs":[],"outputs":[{"name":"","type":"uint256","internalType":"uint256"}],"stateMutability":"view"},{"type":"event","name":"DrainConflictsCompleted","inputs":[{"name":"variant","type":"string","indexed":false,"internalType":"string"},{"name":"conflicts","type":"bytes[]","indexed":false,"internalType":"bytes[]"}],"anonymous":false},{"type":"event","name":"EvaluateWhereCompleted","inputs":[{"name":"variant","type":"string","indexed":false,"internalType":"string"},{"name":"results","type":"bytes[]","indexed":false,"internalType":"bytes[]"}],"anonymous":false},{"type":"event","name":"OnAvailabilityChangeCompleted","inputs":[{"name":"variant","type":"string","indexed":false,"internalType":"string"},{"name":"drained","type":"bytes[]","indexed":false,"internalType":"bytes[]"}],"anonymous":false},{"type":"event","name":"OnCompletionCompleted","inputs":[{"name":"variant","type":"string","indexed":false,"internalType":"string"},{"name":"invocations","type":"bytes[]","indexed":false,"internalType":"bytes[]"}],"anonymous":false},{"type":"event","name":"QueueSyncCompleted","inputs":[{"name":"variant","type":"string","indexed":false,"internalType":"string"}],"anonymous":false},{"type":"event","name":"RegisterSyncCompleted","inputs":[{"name":"variant","type":"string","indexed":false,"internalType":"string"}],"anonymous":false}],"bytecode":{"object":"0x608060405234801561000f575f80fd5b506127328061001d5f395ff3fe608060405234801561000f575f80fd5b5060043610610091575f3560e01c8063833ea96811610064578063833ea96814610131578063852a102114610161578063bd82900814610191578063c310291c146101c1578063d73f4748146101df57610091565b80631aa3a00814610095578063367dd041146100b35780634d2427af146100d15780635acd72d314610101575b5f80fd5b61009d6101fd565b6040516100aa9190611556565b60405180910390f35b6100bb610289565b6040516100c891906116d7565b60405180910390f35b6100eb60048036038101906100e691906117b5565b610415565b6040516100f8919061189f565b60405180910390f35b61011b600480360381019061011691906118e9565b6106da565b6040516101289190611980565b60405180910390f35b61014b600480360381019061014691906119a0565b610a4a565b60405161015891906119fa565b60405180910390f35b61017b600480360381019061017691906119a0565b610bf0565b6040516101889190611a4d565b60405180910390f35b6101ab60048036038101906101a69190611ac2565b610eae565b6040516101b89190611b7a565b60405180910390f35b6101c961105a565b6040516101d69190611bb2565b60405180910390f35b6101e7611066565b6040516101f49190611bb2565b60405180910390f35b61020561133e565b60405180604001604052806040518060400160405280600b81526020017f73796e632d656e67696e6500000000000000000000000000000000000000000081525081526020016040518060400160405280600681526020017f656e67696e650000000000000000000000000000000000000000000000000000815250815250905090565b610291611358565b5f60058054905090505f8167ffffffffffffffff8111156102b5576102b4611bcb565b5b6040519080825280602002602001820160405280156102e857816020015b60608152602001906001900390816102d35790505b5090505f5b828110156103b1576005818154811061030957610308611bf8565b5b905f5260205f2090600302015f01546005828154811061032c5761032b611bf8565b5b905f5260205f2090600302016001016005838154811061034f5761034e611bf8565b5b905f5260205f2090600302016002015460405160200161037193929190611d3d565b60405160208183030381529060405282828151811061039357610392611bf8565b5b602002602001018190525080806103a990611da6565b9150506102ed565b5060055f6103bf9190611373565b60405180604001604052806001151581526020018281525092507fcc73fe37aaa0ff62816800e748d5fd49c2234de8d5e21a7bb8472da3b0d9fb3d816040516104089190611eca565b60405180910390a1505090565b61041d611394565b5f8787905011610462576040517f08c379a000000000000000000000000000000000000000000000000000000000815260040161045990611f47565b60405180910390fd5b5f87878787878742600654604051602001610484989796959493929190611fef565b60405160208183030381529060405280519060200120905060065f8154809291906104ae90611da6565b91905055506040518060c0016040528089898080601f0160208091040260200160405190810160405280939291908181526020018383808284375f81840152601f19601f82011690508083019250505050505050815260200187878080601f0160208091040260200160405190810160405280939291908181526020018383808284375f81840152601f19601f82011690508083019250505050505050815260200185858080601f0160208091040260200160405190810160405280939291908181526020018383808284375f81840152601f19601f82011690508083019250505050505050815260200160405180602001604052805f81525081526020014281526020016001151581525060025f8381526020019081526020015f205f820151815f0190816105de91906121d2565b5060208201518160010190816105f491906121d2565b50604082015181600201908161060a91906122f9565b50606082015181600301908161062091906122f9565b506080820151816004015560a0820151816005015f6101000a81548160ff021916908315150217905550905050600381908060018154018082558091505060019003905f5260205f20015f90919091909150555f61067d82611072565b905060405180604001604052806001151581526020018281525092507ffb0bc5cde0ff5f4c10445f20b5c922543b01c8ff46f7030267ac2a4ea01baf2b6040516106c6906123c8565b60405180910390a150509695505050505050565b6106e26113af565b5f84846040516020016106f69291906123e6565b6040516020818303038152906040528051906020012090508260045f8381526020019081526020015f205f6101000a81548160ff0219169083151502179055506060831561099f575f8060038054905067ffffffffffffffff81111561075f5761075e611bcb565b5b60405190808252806020026020018201604052801561079257816020015b606081526020019060019003908161077d5790505b5090505f5b6003805490508110156108f0575f600382815481106107b9576107b8611bf8565b5b905f5260205f200154905060025f8281526020019081526020015f206005015f9054906101000a900460ff16156108dc5760025f8281526020019081526020015f205f01805461080890611c6a565b80601f016020809104026020016040519081016040528092919081815260200182805461083490611c6a565b801561087f5780601f106108565761010080835404028352916020019161087f565b820191905f5260205f20905b81548152906001019060200180831161086257829003601f168201915b505050505083858151811061089757610896611bf8565b5b60200260200101819052505f60025f8381526020019081526020015f206005015f6101000a81548160ff02191690831515021790555083806108d890611da6565b9450505b5080806108e890611da6565b915050610797565b508167ffffffffffffffff81111561090b5761090a611bcb565b5b60405190808252806020026020018201604052801561093e57816020015b60608152602001906001900390816109295790505b5092505f5b828110156109975781818151811061095e5761095d611bf8565b5b602002602001015184828151811061097957610978611bf8565b5b6020026020010181905250808061098f90611da6565b915050610943565b5050506109f0565b5f67ffffffffffffffff8111156109b9576109b8611bcb565b5b6040519080825280602002602001820160405280156109ec57816020015b60608152602001906001900390816109d75790505b5090505b60405180604001604052806001151581526020018281525092507f3ab62019e50856b25d3cf3fd45cac3f0bf64fc2537eb8a31f31f9bbe5543282081604051610a399190611eca565b60405180910390a150509392505050565b5f808383905011610a90576040517f08c379a0000000000000000000000000000000000000000000000000000000008152600401610a8790611f47565b60405180910390fd5b5f838342600654604051602001610aaa94939291906123fe565b60405160208183030381529060405280519060200120905060065f815480929190610ad490611da6565b9190505550604051806060016040528085858080601f0160208091040260200160405190810160405280939291908181526020018383808284375f81840152601f19601f820116905080830192505050505050508152602001428152602001600115158152505f808381526020019081526020015f205f820151815f019081610b5d91906121d2565b50602082015181600101556040820151816002015f6101000a81548160ff021916908315150217905550905050600181908060018154018082558091505060019003905f5260205f20015f90919091909150557fd3a212aee2a27d30ebdb7b4a6f14627bac594d017bf109844094cfb6e67ce69b604051610bdd906123c8565b60405180910390a1600191505092915050565b610bf86113ca565b5f8383905011610c3d576040517f08c379a0000000000000000000000000000000000000000000000000000000008152600401610c3490612482565b60405180910390fd5b5f60018054905011610c84576040517f08c379a0000000000000000000000000000000000000000000000000000000008152600401610c7b906124ea565b60405180910390fd5b5f60018054905067ffffffffffffffff811115610ca457610ca3611bcb565b5b604051908082528060200260200182016040528015610cd757816020015b6060815260200190600190039081610cc25790505b5090505f805b600180549050811015610dab575f8060018381548110610d0057610cff611bf8565b5b905f5260205f20015481526020019081526020015f206002015f9054906101000a900460ff1615610d985760018181548110610d3f57610d3e611bf8565b5b905f5260205f2001548686604051602001610d5c93929190612534565b604051602081830303815290604052838381518110610d7e57610d7d611bf8565b5b60200260200101819052508180610d9490611da6565b9250505b8080610da390611da6565b915050610cdd565b505f8167ffffffffffffffff811115610dc757610dc6611bcb565b5b604051908082528060200260200182016040528015610dfa57816020015b6060815260200190600190039081610de55790505b5090505f5b82811015610e5357838181518110610e1a57610e19611bf8565b5b6020026020010151828281518110610e3557610e34611bf8565b5b60200260200101819052508080610e4b90611da6565b915050610dff565b5060405180604001604052806001151581526020018281525093507f89bee313dc60d3cd1c21d47ebe62c46e303901048eac73c4c3b3687e822eecfa81604051610e9d9190611eca565b60405180910390a150505092915050565b610eb66113e5565b5f8585905011610efb576040517f08c379a0000000000000000000000000000000000000000000000000000000008152600401610ef2906125ae565b60405180910390fd5b5f8383905067ffffffffffffffff811115610f1957610f18611bcb565b5b604051908082528060200260200182016040528015610f4c57816020015b6060815260200190600190039081610f375790505b5090505f5b84849050811015610fff578686868684818110610f7157610f70611bf8565b5b9050602002810190610f8391906125d8565b604051602001610f96949392919061263a565b604051602081830303815290604052805190602001206001604051602001610fbf929190612661565b604051602081830303815290604052828281518110610fe157610fe0611bf8565b5b60200260200101819052508080610ff790611da6565b915050610f51565b5060405180604001604052806001151581526020018281525091507fccf625204a0bd47e8f5486a382add6e9bc044a03d9a1fd0e8aed12a3d0000e06816040516110499190611eca565b60405180910390a150949350505050565b5f600180549050905090565b5f600380549050905090565b60605f6040518060400160405280601081526020017f303132333435363738396162636465660000000000000000000000000000000081525090505f604267ffffffffffffffff8111156110c9576110c8611bcb565b5b6040519080825280601f01601f1916602001820160405280156110fb5781602001600182028036833780820191505090505b5090507f3000000000000000000000000000000000000000000000000000000000000000815f8151811061113257611131611bf8565b5b60200101907effffffffffffffffffffffffffffffffffffffffffffffffffffffffffffff191690815f1a9053507f78000000000000000000000000000000000000000000000000000000000000008160018151811061119557611194611bf8565b5b60200101907effffffffffffffffffffffffffffffffffffffffffffffffffffffffffffff191690815f1a9053505f5b6020811015611333578260048683602081106111e4576111e3611bf8565b5b1a60f81b7effffffffffffffffffffffffffffffffffffffffffffffffffffffffffffff1916901c60f81c60ff168151811061122357611222611bf8565b5b602001015160f81c60f81b8260028361123c9190612688565b600261124891906126c9565b8151811061125957611258611bf8565b5b60200101907effffffffffffffffffffffffffffffffffffffffffffffffffffffffffffff191690815f1a90535082600f60f81b8683602081106112a05761129f611bf8565b5b1a60f81b1660f81c60ff16815181106112bc576112bb611bf8565b5b602001015160f81c60f81b826002836112d59190612688565b60036112e191906126c9565b815181106112f2576112f1611bf8565b5b60200101907effffffffffffffffffffffffffffffffffffffffffffffffffffffffffffff191690815f1a905350808061132b90611da6565b9150506111c5565b508092505050919050565b604051806040016040528060608152602001606081525090565b60405180604001604052805f15158152602001606081525090565b5080545f8255600302905f5260205f20908101906113919190611400565b50565b60405180604001604052805f15158152602001606081525090565b60405180604001604052805f15158152602001606081525090565b60405180604001604052805f15158152602001606081525090565b60405180604001604052805f15158152602001606081525090565b5b8082111561142f575f8082015f9055600182015f61141f9190611433565b600282015f905550600301611401565b5090565b50805461143f90611c6a565b5f825580601f10611450575061146d565b601f0160209004905f5260205f209081019061146c9190611470565b5b50565b5b80821115611487575f815f905550600101611471565b5090565b5f81519050919050565b5f82825260208201905092915050565b5f5b838110156114c25780820151818401526020810190506114a7565b5f8484015250505050565b5f601f19601f8301169050919050565b5f6114e78261148b565b6114f18185611495565b93506115018185602086016114a5565b61150a816114cd565b840191505092915050565b5f604083015f8301518482035f86015261152f82826114dd565b9150506020830151848203602086015261154982826114dd565b9150508091505092915050565b5f6020820190508181035f83015261156e8184611515565b905092915050565b5f8115159050919050565b61158a81611576565b82525050565b5f81519050919050565b5f82825260208201905092915050565b5f819050602082019050919050565b5f81519050919050565b5f82825260208201905092915050565b5f6115dd826115b9565b6115e781856115c3565b93506115f78185602086016114a5565b611600816114cd565b840191505092915050565b5f61161683836115d3565b905092915050565b5f602082019050919050565b5f61163482611590565b61163e818561159a565b935083602082028501611650856115aa565b805f5b8581101561168b578484038952815161166c858261160b565b94506116778361161e565b925060208a01995050600181019050611653565b50829750879550505050505092915050565b5f604083015f8301516116b25f860182611581565b50602083015184820360208601526116ca828261162a565b9150508091505092915050565b5f6020820190508181035f8301526116ef818461169d565b905092915050565b5f80fd5b5f80fd5b5f80fd5b5f80fd5b5f80fd5b5f8083601f8401126117205761171f6116ff565b5b8235905067ffffffffffffffff81111561173d5761173c611703565b5b60208301915083600182028301111561175957611758611707565b5b9250929050565b5f8083601f840112611775576117746116ff565b5b8235905067ffffffffffffffff81111561179257611791611703565b5b6020830191508360018202830111156117ae576117ad611707565b5b9250929050565b5f805f805f80606087890312156117cf576117ce6116f7565b5b5f87013567ffffffffffffffff8111156117ec576117eb6116fb565b5b6117f889828a0161170b565b9650965050602087013567ffffffffffffffff81111561181b5761181a6116fb565b5b61182789828a0161170b565b9450945050604087013567ffffffffffffffff81111561184a576118496116fb565b5b61185689828a01611760565b92509250509295509295509295565b5f604083015f83015161187a5f860182611581565b506020830151848203602086015261189282826114dd565b9150508091505092915050565b5f6020820190508181035f8301526118b78184611865565b905092915050565b6118c881611576565b81146118d2575f80fd5b50565b5f813590506118e3816118bf565b92915050565b5f805f60408486031215611900576118ff6116f7565b5b5f84013567ffffffffffffffff81111561191d5761191c6116fb565b5b61192986828701611760565b9350935050602061193c868287016118d5565b9150509250925092565b5f604083015f83015161195b5f860182611581565b5060208301518482036020860152611973828261162a565b9150508091505092915050565b5f6020820190508181035f8301526119988184611946565b905092915050565b5f80602083850312156119b6576119b56116f7565b5b5f83013567ffffffffffffffff8111156119d3576119d26116fb565b5b6119df8582860161170b565b92509250509250929050565b6119f481611576565b82525050565b5f602082019050611a0d5f8301846119eb565b92915050565b5f604083015f830151611a285f860182611581565b5060208301518482036020860152611a40828261162a565b9150508091505092915050565b5f6020820190508181035f830152611a658184611a13565b905092915050565b5f8083601f840112611a8257611a816116ff565b5b8235905067ffffffffffffffff811115611a9f57611a9e611703565b5b602083019150836020820283011115611abb57611aba611707565b5b9250929050565b5f805f8060408587031215611ada57611ad96116f7565b5b5f85013567ffffffffffffffff811115611af757611af66116fb565b5b611b038782880161170b565b9450945050602085013567ffffffffffffffff811115611b2657611b256116fb565b5b611b3287828801611a6d565b925092505092959194509250565b5f604083015f830151611b555f860182611581565b5060208301518482036020860152611b6d828261162a565b9150508091505092915050565b5f6020820190508181035f830152611b928184611b40565b905092915050565b5f819050919050565b611bac81611b9a565b82525050565b5f602082019050611bc55f830184611ba3565b92915050565b7f4e487b71000000000000000000000000000000000000000000000000000000005f52604160045260245ffd5b7f4e487b71000000000000000000000000000000000000000000000000000000005f52603260045260245ffd5b5f819050919050565b611c3781611c25565b82525050565b7f4e487b71000000000000000000000000000000000000000000000000000000005f52602260045260245ffd5b5f6002820490506001821680611c8157607f821691505b602082108103611c9457611c93611c3d565b5b50919050565b5f82825260208201905092915050565b5f819050815f5260205f209050919050565b5f8154611cc881611c6a565b611cd28186611c9a565b9450600182165f8114611cec5760018114611d0257611d34565b60ff198316865281151560200286019350611d34565b611d0b85611caa565b5f5b83811015611d2c57815481890152600182019150602081019050611d0d565b808801955050505b50505092915050565b5f606082019050611d505f830186611c2e565b8181036020830152611d628185611cbc565b9050611d716040830184611ba3565b949350505050565b7f4e487b71000000000000000000000000000000000000000000000000000000005f52601160045260245ffd5b5f611db082611b9a565b91507fffffffffffffffffffffffffffffffffffffffffffffffffffffffffffffffff8203611de257611de1611d79565b5b600182019050919050565b5f82825260208201905092915050565b7f6f6b0000000000000000000000000000000000000000000000000000000000005f82015250565b5f611e31600283611ded565b9150611e3c82611dfd565b602082019050919050565b5f82825260208201905092915050565b5f611e6182611590565b611e6b8185611e47565b935083602082028501611e7d856115aa565b805f5b85811015611eb85784840389528151611e99858261160b565b9450611ea48361161e565b925060208a01995050600181019050611e80565b50829750879550505050505092915050565b5f6040820190508181035f830152611ee181611e25565b90508181036020830152611ef58184611e57565b905092915050565b7f53796e6320646174612063616e6e6f7420626520656d707479000000000000005f82015250565b5f611f31601983611ded565b9150611f3c82611efd565b602082019050919050565b5f6020820190508181035f830152611f5e81611f25565b9050919050565b5f81905092915050565b828183375f83830152505050565b5f611f888385611f65565b9350611f95838584611f6f565b82840190509392505050565b5f81905092915050565b5f611fb68385611fa1565b9350611fc3838584611f6f565b82840190509392505050565b5f819050919050565b611fe9611fe482611b9a565b611fcf565b82525050565b5f611ffb828a8c611f7d565b915061200882888a611f7d565b9150612015828688611fab565b91506120218285611fd8565b6020820191506120318284611fd8565b6020820191508190509998505050505050505050565b5f6020601f8301049050919050565b5f82821b905092915050565b5f600883026120917fffffffffffffffffffffffffffffffffffffffffffffffffffffffffffffffff82612056565b61209b8683612056565b95508019841693508086168417925050509392505050565b5f819050919050565b5f6120d66120d16120cc84611b9a565b6120b3565b611b9a565b9050919050565b5f819050919050565b6120ef836120bc565b6121036120fb826120dd565b848454612062565b825550505050565b5f90565b61211761210b565b6121228184846120e6565b505050565b5b818110156121455761213a5f8261210f565b600181019050612128565b5050565b601f82111561218a5761215b81611caa565b61216484612047565b81016020851015612173578190505b61218761217f85612047565b830182612127565b50505b505050565b5f82821c905092915050565b5f6121aa5f198460080261218f565b1980831691505092915050565b5f6121c2838361219b565b9150826002028217905092915050565b6121db826115b9565b67ffffffffffffffff8111156121f4576121f3611bcb565b5b6121fe8254611c6a565b612209828285612149565b5f60209050601f83116001811461223a575f8415612228578287015190505b61223285826121b7565b865550612299565b601f19841661224886611caa565b5f5b8281101561226f5784890151825560018201915060208501945060208101905061224a565b8683101561228c5784890151612288601f89168261219b565b8355505b6001600288020188555050505b505050505050565b5f819050815f5260205f209050919050565b601f8211156122f4576122c5816122a1565b6122ce84612047565b810160208510156122dd578190505b6122f16122e985612047565b830182612127565b50505b505050565b6123028261148b565b67ffffffffffffffff81111561231b5761231a611bcb565b5b6123258254611c6a565b6123308282856122b3565b5f60209050601f831160018114612361575f841561234f578287015190505b61235985826121b7565b8655506123c0565b601f19841661236f866122a1565b5f5b8281101561239657848901518255600182019150602085019450602081019050612371565b868310156123b357848901516123af601f89168261219b565b8355505b6001600288020188555050505b505050505050565b5f6020820190508181035f8301526123df81611e25565b9050919050565b5f6123f2828486611fab565b91508190509392505050565b5f61240a828688611f7d565b91506124168285611fd8565b6020820191506124268284611fd8565b60208201915081905095945050505050565b7f436f6d706c6574696f6e20646174612063616e6e6f7420626520656d707479005f82015250565b5f61246c601f83611ded565b915061247782612438565b602082019050919050565b5f6020820190508181035f83015261249981612460565b9050919050565b7f4e6f2073796e632072756c6573207265676973746572656400000000000000005f82015250565b5f6124d4601883611ded565b91506124df826124a0565b602082019050919050565b5f6020820190508181035f830152612501816124c8565b9050919050565b5f6125138385611c9a565b9350612520838584611f6f565b612529836114cd565b840190509392505050565b5f6040820190506125475f830186611c2e565b818103602083015261255a818486612508565b9050949350505050565b7f42696e64696e67732063616e6e6f7420626520656d70747900000000000000005f82015250565b5f612598601883611ded565b91506125a382612564565b602082019050919050565b5f6020820190508181035f8301526125c58161258c565b9050919050565b5f80fd5b5f80fd5b5f80fd5b5f80833560016020038436030381126125f4576125f36125cc565b5b80840192508235915067ffffffffffffffff821115612616576126156125d0565b5b602083019250600182023603831315612632576126316125d4565b5b509250929050565b5f612646828688611f7d565b9150612653828486611f7d565b915081905095945050505050565b5f6040820190506126745f830185611c2e565b61268160208301846119eb565b9392505050565b5f61269282611b9a565b915061269d83611b9a565b92508282026126ab81611b9a565b915082820484148315176126c2576126c1611d79565b5b5092915050565b5f6126d382611b9a565b91506126de83611b9a565b92508282019050808211156126f6576126f5611d79565b5b9291505056fea26469706673582212202e9b4afa2647ae1d52a2c07d7a76a1e6dbe84f667c650c83d56be55324ac696e64736f6c63430008140033","linkReferences":{}},"methodIdentifiers":{"drainConflicts()":"367dd041","evaluateWhere(bytes,bytes[])":"bd829008","onAvailabilityChange(string,bool)":"5acd72d3","onCompletion(bytes)":"852a1021","pendingFlowCount()":"d73f4748","queueSync(bytes,bytes,string)":"4d2427af","register()":"1aa3a008","registerSync(bytes)":"833ea968","syncCount()":"c310291c"},"id":270}