{"abi":[{"type":"function","name":"claim","inputs":[{"name":"itemId","type":"bytes32","internalType":"bytes32"}],"outputs":[],"stateMutability":"nonpayable"},{"type":"function","name":"deleteItem","inputs":[{"name":"itemId","type":"bytes32","internalType":"bytes32"}],"outputs":[],"stateMutability":"nonpayable"},{"type":"function","name":"enqueue","inputs":[{"name":"queueId","type":"bytes32","internalType":"bytes32"},{"name":"itemId","type":"bytes32","internalType":"bytes32"},{"name":"data","type":"string","internalType":"string"}],"outputs":[],"stateMutability":"nonpayable"},{"type":"function","name":"getItem","inputs":[{"name":"itemId","type":"bytes32","internalType":"bytes32"}],"outputs":[{"name":"","type":"tuple","internalType":"struct Queue.QueueItem","components":[{"name":"queueId","type":"bytes32","internalType":"bytes32"},{"name":"data","type":"string","internalType":"string"},{"name":"enqueuedAt","type":"uint256","internalType":"uint256"},{"name":"claimed","type":"bool","internalType":"bool"},{"name":"exists","type":"bool","internalType":"bool"}]}],"stateMutability":"view"},{"type":"function","name":"queueLength","inputs":[{"name":"queueId","type":"bytes32","internalType":"bytes32"}],"outputs":[{"name":"","type":"uint256","internalType":"uint256"}],"stateMutability":"view"},{"type":"function","name":"release","inputs":[{"name":"itemId","type":"bytes32","internalType":"bytes32"}],"outputs":[],"stateMutability":"nonpayable"},{"type":"event","name":"Claimed","inputs":[{"name":"itemId","type":"bytes32","indexed":true,"internalType":"bytes32"}],"anonymous":false},{"type":"event","name":"Enqueued","inputs":[{"name":"queueId","type":"bytes32","indexed":true,"internalType":"bytes32"},{"name":"itemId","type":"bytes32","indexed":true,"internalType":"bytes32"}],"anonymous":false},{"type":"event","name":"ItemDeleted","inputs":[{"name":"itemId","type":"bytes32","indexed":true,"internalType":"bytes32"}],"anonymous":false},{"type":"event","name":"Released","inputs":[{"name":"itemId","type":"bytes32","indexed":true,"internalType":"bytes32"}],"anonymous":false}],"bytecode":{"object":"0x608060405234801561000f575f80fd5b506110fc8061001d5f395ff3fe608060405234801561000f575f80fd5b5060043610610060575f3560e01c806367d42a8b14610064578063819deb691461008057806383343d801461009c578063aa0372e7146100b8578063bd66528a146100e8578063cf3d9ef614610104575b5f80fd5b61007e600480360381019061007991906108cd565b610134565b005b61009a60048036038101906100959190610959565b61024d565b005b6100b660048036038101906100b191906108cd565b610488565b005b6100d260048036038101906100cd91906108cd565b61056e565b6040516100df9190610b08565b60405180910390f35b61010260048036038101906100fd91906108cd565b6106d0565b005b61011e600480360381019061011991906108cd565b6107eb565b60405161012b9190610b37565b60405180910390f35b5f808281526020019081526020015f2060030160019054906101000a900460ff16610194576040517f08c379a000000000000000000000000000000000000000000000000000000000815260040161018b90610baa565b60405180910390fd5b5f808281526020019081526020015f206003015f9054906101000a900460ff166101f3576040517f08c379a00000000000000000000000000000000000000000000000000000000081526004016101ea90610c12565b60405180910390fd5b5f805f8381526020019081526020015f206003015f6101000a81548160ff021916908315150217905550807f6eec2dd2382427616d4ea7ef183b16091feac4e2e63c8b55f25215f132df8d1460405160405180910390a250565b5f801b8403610291576040517f08c379a000000000000000000000000000000000000000000000000000000000815260040161028890610c7a565b60405180910390fd5b5f801b83036102d5576040517f08c379a00000000000000000000000000000000000000000000000000000000081526004016102cc90610ce2565b60405180910390fd5b5f808481526020019081526020015f2060030160019054906101000a900460ff1615610336576040517f08c379a000000000000000000000000000000000000000000000000000000000815260040161032d90610d4a565b60405180910390fd5b6040518060a0016040528085815260200183838080601f0160208091040260200160405190810160405280939291908181526020018383808284375f81840152601f19601f8201169050808301925050505050505081526020014281526020015f15158152602001600115158152505f808581526020019081526020015f205f820151815f015560208201518160010190816103d29190610f8f565b50604082015181600201556060820151816003015f6101000a81548160ff02191690831515021790555060808201518160030160016101000a81548160ff02191690831515021790555090505060015f8581526020019081526020015f2083908060018154018082558091505060019003905f5260205f20015f909190919091505582847f9fcf39086f275b1a221d669b0ba4141d08ecb06a5914aaeb75163e80b588edf460405160405180910390a350505050565b5f808281526020019081526020015f2060030160019054906101000a900460ff166104e8576040517f08c379a00000000000000000000000000000000000000000000000000000000081526004016104df90610baa565b60405180910390fd5b5f808281526020019081526020015f205f8082015f9055600182015f61050e9190610808565b600282015f9055600382015f6101000a81549060ff02191690556003820160016101000a81549060ff02191690555050807fa26fed3526b5ab7c6b827642ab797e52fae618116ab022b5abf2c7340832323160405160405180910390a250565b610576610845565b5f808381526020019081526020015f2060030160019054906101000a900460ff166105d6576040517f08c379a00000000000000000000000000000000000000000000000000000000081526004016105cd90610baa565b60405180910390fd5b5f808381526020019081526020015f206040518060a00160405290815f820154815260200160018201805461060a90610dc2565b80601f016020809104026020016040519081016040528092919081815260200182805461063690610dc2565b80156106815780601f1061065857610100808354040283529160200191610681565b820191905f5260205f20905b81548152906001019060200180831161066457829003601f168201915b5050505050815260200160028201548152602001600382015f9054906101000a900460ff161515151581526020016003820160019054906101000a900460ff1615151515815250509050919050565b5f808281526020019081526020015f2060030160019054906101000a900460ff16610730576040517f08c379a000000000000000000000000000000000000000000000000000000000815260040161072790610baa565b60405180910390fd5b5f808281526020019081526020015f206003015f9054906101000a900460ff1615610790576040517f08c379a0000000000000000000000000000000000000000000000000000000008152600401610787906110a8565b60405180910390fd5b60015f808381526020019081526020015f206003015f6101000a81548160ff021916908315150217905550807feddf608ef698454af2fb41c1df7b7e5154ff0d46969f895e0f39c7dfe7e6380a60405160405180910390a250565b5f60015f8381526020019081526020015f20805490509050919050565b50805461081490610dc2565b5f825580601f106108255750610842565b601f0160209004905f5260205f20908101906108419190610877565b5b50565b6040518060a001604052805f8019168152602001606081526020015f81526020015f151581526020015f151581525090565b5b8082111561088e575f815f905550600101610878565b5090565b5f80fd5b5f80fd5b5f819050919050565b6108ac8161089a565b81146108b6575f80fd5b50565b5f813590506108c7816108a3565b92915050565b5f602082840312156108e2576108e1610892565b5b5f6108ef848285016108b9565b91505092915050565b5f80fd5b5f80fd5b5f80fd5b5f8083601f840112610919576109186108f8565b5b8235905067ffffffffffffffff811115610936576109356108fc565b5b60208301915083600182028301111561095257610951610900565b5b9250929050565b5f805f806060858703121561097157610970610892565b5b5f61097e878288016108b9565b945050602061098f878288016108b9565b935050604085013567ffffffffffffffff8111156109b0576109af610896565b5b6109bc87828801610904565b925092505092959194509250565b6109d38161089a565b82525050565b5f81519050919050565b5f82825260208201905092915050565b5f5b83811015610a105780820151818401526020810190506109f5565b5f8484015250505050565b5f601f19601f8301169050919050565b5f610a35826109d9565b610a3f81856109e3565b9350610a4f8185602086016109f3565b610a5881610a1b565b840191505092915050565b5f819050919050565b610a7581610a63565b82525050565b5f8115159050919050565b610a8f81610a7b565b82525050565b5f60a083015f830151610aaa5f8601826109ca565b5060208301518482036020860152610ac28282610a2b565b9150506040830151610ad76040860182610a6c565b506060830151610aea6060860182610a86565b506080830151610afd6080860182610a86565b508091505092915050565b5f6020820190508181035f830152610b208184610a95565b905092915050565b610b3181610a63565b82525050565b5f602082019050610b4a5f830184610b28565b92915050565b5f82825260208201905092915050565b7f4974656d206e6f7420666f756e640000000000000000000000000000000000005f82015250565b5f610b94600e83610b50565b9150610b9f82610b60565b602082019050919050565b5f6020820190508181035f830152610bc181610b88565b9050919050565b7f4974656d206e6f7420636c61696d6564000000000000000000000000000000005f82015250565b5f610bfc601083610b50565b9150610c0782610bc8565b602082019050919050565b5f6020820190508181035f830152610c2981610bf0565b9050919050565b7f51756575652049442063616e6e6f74206265207a65726f0000000000000000005f82015250565b5f610c64601783610b50565b9150610c6f82610c30565b602082019050919050565b5f6020820190508181035f830152610c9181610c58565b9050919050565b7f4974656d2049442063616e6e6f74206265207a65726f000000000000000000005f82015250565b5f610ccc601683610b50565b9150610cd782610c98565b602082019050919050565b5f6020820190508181035f830152610cf981610cc0565b9050919050565b7f4974656d20616c726561647920657869737473000000000000000000000000005f82015250565b5f610d34601383610b50565b9150610d3f82610d00565b602082019050919050565b5f6020820190508181035f830152610d6181610d28565b9050919050565b7f4e487b71000000000000000000000000000000000000000000000000000000005f52604160045260245ffd5b7f4e487b71000000000000000000000000000000000000000000000000000000005f52602260045260245ffd5b5f6002820490506001821680610dd957607f821691505b602082108103610dec57610deb610d95565b5b50919050565b5f819050815f5260205f209050919050565b5f6020601f8301049050919050565b5f82821b905092915050565b5f60088302610e4e7fffffffffffffffffffffffffffffffffffffffffffffffffffffffffffffffff82610e13565b610e588683610e13565b95508019841693508086168417925050509392505050565b5f819050919050565b5f610e93610e8e610e8984610a63565b610e70565b610a63565b9050919050565b5f819050919050565b610eac83610e79565b610ec0610eb882610e9a565b848454610e1f565b825550505050565b5f90565b610ed4610ec8565b610edf818484610ea3565b505050565b5b81811015610f0257610ef75f82610ecc565b600181019050610ee5565b5050565b601f821115610f4757610f1881610df2565b610f2184610e04565b81016020851015610f30578190505b610f44610f3c85610e04565b830182610ee4565b50505b505050565b5f82821c905092915050565b5f610f675f1984600802610f4c565b1980831691505092915050565b5f610f7f8383610f58565b9150826002028217905092915050565b610f98826109d9565b67ffffffffffffffff811115610fb157610fb0610d68565b5b610fbb8254610dc2565b610fc6828285610f06565b5f60209050601f831160018114610ff7575f8415610fe5578287015190505b610fef8582610f74565b865550611056565b601f19841661100586610df2565b5f5b8281101561102c57848901518255600182019150602085019450602081019050611007565b868310156110495784890151611045601f891682610f58565b8355505b6001600288020188555050505b505050505050565b7f4974656d20616c726561647920636c61696d65640000000000000000000000005f82015250565b5f611092601483610b50565b915061109d8261105e565b602082019050919050565b5f6020820190508181035f8301526110bf81611086565b905091905056fea2646970667358221220aa1ff2751e53a843dde7e0f706169f7d9f58c790128377a1bfbac5f652f80f1864736f6c63430008140033","linkReferences":{}},"methodIdentifiers":{"claim(bytes32)":"bd66528a","deleteItem(bytes32)":"83343d80","enqueue(bytes32,bytes32,string)":"819deb69","getItem(bytes32)":"aa0372e7","queueLength(bytes32)":"cf3d9ef6","release(bytes32)":"67d42a8b"},"id":208}