{"abi":[{"type":"function","name":"diff","inputs":[{"name":"locator","type":"string","internalType":"string"},{"name":"oldDigest","type":"string","internalType":"string"},{"name":"newDigest","type":"string","internalType":"string"}],"outputs":[{"name":"","type":"tuple","internalType":"struct Resource.DiffOkResult","components":[{"name":"success","type":"bool","internalType":"bool"},{"name":"changeType","type":"string","internalType":"string"}]}],"stateMutability":"nonpayable"},{"type":"function","name":"get","inputs":[{"name":"locator","type":"string","internalType":"string"}],"outputs":[{"name":"","type":"tuple","internalType":"struct Resource.GetOkResult","components":[{"name":"success","type":"bool","internalType":"bool"},{"name":"resource","type":"bytes32","internalType":"bytes32"},{"name":"kind","type":"string","internalType":"string"},{"name":"digest","type":"string","internalType":"string"}]}],"stateMutability":"nonpayable"},{"type":"function","name":"list","inputs":[{"name":"kind","type":"string","internalType":"string"}],"outputs":[{"name":"","type":"tuple","internalType":"struct Resource.ListOkResult","components":[{"name":"success","type":"bool","internalType":"bool"},{"name":"resources","type":"bytes[]","internalType":"bytes[]"}]}],"stateMutability":"nonpayable"},{"type":"function","name":"remove","inputs":[{"name":"locator","type":"string","internalType":"string"}],"outputs":[{"name":"","type":"tuple","internalType":"struct Resource.RemoveOkResult","components":[{"name":"success","type":"bool","internalType":"bool"},{"name":"resource","type":"bytes32","internalType":"bytes32"}]}],"stateMutability":"nonpayable"},{"type":"function","name":"upsert","inputs":[{"name":"locator","type":"string","internalType":"string"},{"name":"kind","type":"string","internalType":"string"},{"name":"digest","type":"string","internalType":"string"},{"name":"lastModified","type":"uint256","internalType":"uint256"},{"name":"size","type":"int256","internalType":"int256"}],"outputs":[{"name":"","type":"bool","internalType":"bool"}],"stateMutability":"nonpayable"},{"type":"event","name":"DiffCompleted","inputs":[{"name":"variant","type":"string","indexed":false,"internalType":"string"}],"anonymous":false},{"type":"event","name":"GetCompleted","inputs":[{"name":"variant","type":"string","indexed":false,"internalType":"string"},{"name":"resource","type":"bytes32","indexed":false,"internalType":"bytes32"}],"anonymous":false},{"type":"event","name":"ListCompleted","inputs":[{"name":"variant","type":"string","indexed":false,"internalType":"string"},{"name":"resources","type":"bytes[]","indexed":false,"internalType":"bytes[]"}],"anonymous":false},{"type":"event","name":"RemoveCompleted","inputs":[{"name":"variant","type":"string","indexed":false,"internalType":"string"},{"name":"resource","type":"bytes32","indexed":false,"internalType":"bytes32"}],"anonymous":false},{"type":"event","name":"UpsertCompleted","inputs":[{"name":"variant","type":"string","indexed":false,"internalType":"string"},{"name":"resource","type":"bytes32","indexed":false,"internalType":"bytes32"}],"anonymous":false}],"bytecode":{"object":"0x608060405234801561000f575f80fd5b50611dd28061001d5f395ff3fe608060405234801561000f575f80fd5b5060043610610055575f3560e01c80634fc2bf2714610059578063693ec85e146100895780637fec9b62146100b957806380599e4b146100e9578063fe42bf1a14610119575b5f80fd5b610073600480360381019061006e9190610da3565b610149565b6040516100809190610f15565b60405180910390f35b6100a3600480360381019061009e9190610f35565b6102db565b6040516100b09190610ffb565b60405180910390f35b6100d360048036038101906100ce9190611081565b6104f5565b6040516100e0919061115b565b60405180910390f35b61010360048036038101906100fe9190610f35565b610802565b60405161011091906111a1565b60405180910390f35b610133600480360381019061012e9190610f35565b61093a565b6040516101409190611301565b60405180910390f35b610151610bd8565b60605f845114801561016357505f8351115b156101a5576040518060400160405280600581526020017f61646465640000000000000000000000000000000000000000000000000000008152509050610284565b5f84511180156101b557505f8351145b156101f7576040518060400160405280600781526020017f64656c65746564000000000000000000000000000000000000000000000000008152509050610283565b8280519060200120848051906020012003610249576040518060400160405280600981526020017f756e6368616e67656400000000000000000000000000000000000000000000008152509050610282565b6040518060400160405280600881526020017f6d6f64696669656400000000000000000000000000000000000000000000000081525090505b5b5b7f35e7e91298712960f5c58ce6e590645dcc1c71b32c96d8bce3e768dc511071456040516102b19061137b565b60405180910390a16040518060400160405280600115158152602001828152509150509392505050565b6102e3610bf3565b5f826040516020016102f5919061141d565b60405160208183030381529060405280519060200120905060025f8281526020019081526020015f205f9054906101000a900460ff1661036a576040517f08c379a000000000000000000000000000000000000000000000000000000000815260040161036190611488565b60405180910390fd5b5f805f8381526020019081526020015f2090507fd45fe45dbfb310b00d5db432aa35f96282e16a8bb204b349e334de2cd5566f34826040516103ac91906114b5565b60405180910390a160405180608001604052806001151581526020018381526020018260010180546103dd9061150e565b80601f01602080910402602001604051908101604052809291908181526020018280546104099061150e565b80156104545780601f1061042b57610100808354040283529160200191610454565b820191905f5260205f20905b81548152906001019060200180831161043757829003601f168201915b5050505050815260200182600201805461046d9061150e565b80601f01602080910402602001604051908101604052809291908181526020018280546104999061150e565b80156104e45780601f106104bb576101008083540402835291602001916104e4565b820191905f5260205f20905b8154815290600101906020018083116104c757829003601f168201915b505050505081525092505050919050565b5f80865111610539576040517f08c379a000000000000000000000000000000000000000000000000000000000815260040161053090611588565b60405180910390fd5b5f8660405160200161054b919061141d565b60405160208183030381529060405280519060200120905060025f8281526020019081526020015f205f9054906101000a900460ff166106f5576040518060e0016040528088815260200187815260200186815260200185815260200184815260200160405180602001604052805f8152508152602001600115158152505f808381526020019081526020015f205f820151815f0190816105ec9190611743565b5060208201518160010190816106029190611743565b5060408201518160020190816106189190611743565b50606082015181600301556080820151816004015560a08201518160050190816106429190611743565b5060c0820151816006015f6101000a81548160ff021916908315150217905550905050600160025f8381526020019081526020015f205f6101000a81548160ff021916908315150217905550600181908060018154018082558091505060019003905f5260205f20015f90919091909150557ff5d7946789e3a9ad287608f1c717a2593a544c45baa73ae97f26ed5a01c69d7d816040516106e3919061185c565b60405180910390a160019150506107f9565b5f805f8381526020019081526020015f2090508580519060200120816002016040516107219190611924565b604051809103902003610770577ff5d7946789e3a9ad287608f1c717a2593a544c45baa73ae97f26ed5a01c69d7d8260405161075d9190611984565b60405180910390a16001925050506107f9565b8060020181600501908161078491906119d7565b50858160020190816107969190611743565b50868160010190816107a89190611743565b508481600301819055508381600401819055507ff5d7946789e3a9ad287608f1c717a2593a544c45baa73ae97f26ed5a01c69d7d826040516107ea9190611b06565b60405180910390a16001925050505b95945050505050565b61080a610c1e565b5f8260405160200161081c919061141d565b60405160208183030381529060405280519060200120905060025f8281526020019081526020015f205f9054906101000a900460ff16610891576040517f08c379a000000000000000000000000000000000000000000000000000000000815260040161088890611488565b60405180910390fd5b5f805f8381526020019081526020015f206006015f6101000a81548160ff0219169083151502179055505f60025f8381526020019081526020015f205f6101000a81548160ff0219169083151502179055507f29ecd025630c5051a08e7e5f7d72f6c3027ae1119dfb1ec63d9283914190822a8160405161091291906114b5565b60405180910390a1604051806040016040528060011515815260200182815250915050919050565b610942610c3b565b5f8083511190505f805b600180549050811015610a0c575f6001828154811061096e5761096d611b32565b5b905f5260205f200154905060025f8281526020019081526020015f205f9054906101000a900460ff166109a157506109f9565b83156109e9575f805f8381526020019081526020015f2090508680519060200120816001016040516109d39190611924565b6040518091039020146109e75750506109f9565b505b82806109f490611b8c565b935050505b8080610a0490611b8c565b91505061094c565b505f8167ffffffffffffffff811115610a2857610a27610c7f565b5b604051908082528060200260200182016040528015610a5b57816020015b6060815260200190600190039081610a465790505b5090505f805b600180549050811015610b7d575f60018281548110610a8357610a82611b32565b5b905f5260205f200154905060025f8281526020019081526020015f205f9054906101000a900460ff16610ab65750610b6a565b5f805f8381526020019081526020015f209050868015610af55750888051906020012081600101604051610aea9190611924565b604051809103902014155b15610b01575050610b6a565b81815f01826001018360020184600301548560040154604051602001610b2c96959493929190611c72565b604051602081830303815290604052858581518110610b4e57610b4d611b32565b5b60200260200101819052508380610b6490611b8c565b94505050505b8080610b7590611b8c565b915050610a61565b507fe9a193113c6af59a9c690a34f77f5f798aaa755136bfac9e35681b002a15b8bd82604051610bad9190611d69565b60405180910390a1604051806040016040528060011515815260200183815250945050505050919050565b60405180604001604052805f15158152602001606081525090565b60405180608001604052805f151581526020015f801916815260200160608152602001606081525090565b60405180604001604052805f151581526020015f80191681525090565b60405180604001604052805f15158152602001606081525090565b5f604051905090565b5f80fd5b5f80fd5b5f80fd5b5f80fd5b5f601f19601f8301169050919050565b7f4e487b71000000000000000000000000000000000000000000000000000000005f52604160045260245ffd5b610cb582610c6f565b810181811067ffffffffffffffff82111715610cd457610cd3610c7f565b5b80604052505050565b5f610ce6610c56565b9050610cf28282610cac565b919050565b5f67ffffffffffffffff821115610d1157610d10610c7f565b5b610d1a82610c6f565b9050602081019050919050565b828183375f83830152505050565b5f610d47610d4284610cf7565b610cdd565b905082815260208101848484011115610d6357610d62610c6b565b5b610d6e848285610d27565b509392505050565b5f82601f830112610d8a57610d89610c67565b5b8135610d9a848260208601610d35565b91505092915050565b5f805f60608486031215610dba57610db9610c5f565b5b5f84013567ffffffffffffffff811115610dd757610dd6610c63565b5b610de386828701610d76565b935050602084013567ffffffffffffffff811115610e0457610e03610c63565b5b610e1086828701610d76565b925050604084013567ffffffffffffffff811115610e3157610e30610c63565b5b610e3d86828701610d76565b9150509250925092565b5f8115159050919050565b610e5b81610e47565b82525050565b5f81519050919050565b5f82825260208201905092915050565b5f5b83811015610e98578082015181840152602081019050610e7d565b5f8484015250505050565b5f610ead82610e61565b610eb78185610e6b565b9350610ec7818560208601610e7b565b610ed081610c6f565b840191505092915050565b5f604083015f830151610ef05f860182610e52565b5060208301518482036020860152610f088282610ea3565b9150508091505092915050565b5f6020820190508181035f830152610f2d8184610edb565b905092915050565b5f60208284031215610f4a57610f49610c5f565b5b5f82013567ffffffffffffffff811115610f6757610f66610c63565b5b610f7384828501610d76565b91505092915050565b5f819050919050565b610f8e81610f7c565b82525050565b5f608083015f830151610fa95f860182610e52565b506020830151610fbc6020860182610f85565b5060408301518482036040860152610fd48282610ea3565b91505060608301518482036060860152610fee8282610ea3565b9150508091505092915050565b5f6020820190508181035f8301526110138184610f94565b905092915050565b5f819050919050565b61102d8161101b565b8114611037575f80fd5b50565b5f8135905061104881611024565b92915050565b5f819050919050565b6110608161104e565b811461106a575f80fd5b50565b5f8135905061107b81611057565b92915050565b5f805f805f60a0868803121561109a57611099610c5f565b5b5f86013567ffffffffffffffff8111156110b7576110b6610c63565b5b6110c388828901610d76565b955050602086013567ffffffffffffffff8111156110e4576110e3610c63565b5b6110f088828901610d76565b945050604086013567ffffffffffffffff81111561111157611110610c63565b5b61111d88828901610d76565b935050606061112e8882890161103a565b925050608061113f8882890161106d565b9150509295509295909350565b61115581610e47565b82525050565b5f60208201905061116e5f83018461114c565b92915050565b604082015f8201516111885f850182610e52565b50602082015161119b6020850182610f85565b50505050565b5f6040820190506111b45f830184611174565b92915050565b5f81519050919050565b5f82825260208201905092915050565b5f819050602082019050919050565b5f81519050919050565b5f82825260208201905092915050565b5f611207826111e3565b61121181856111ed565b9350611221818560208601610e7b565b61122a81610c6f565b840191505092915050565b5f61124083836111fd565b905092915050565b5f602082019050919050565b5f61125e826111ba565b61126881856111c4565b93508360208202850161127a856111d4565b805f5b858110156112b557848403895281516112968582611235565b94506112a183611248565b925060208a0199505060018101905061127d565b50829750879550505050505092915050565b5f604083015f8301516112dc5f860182610e52565b50602083015184820360208601526112f48282611254565b9150508091505092915050565b5f6020820190508181035f83015261131981846112c7565b905092915050565b5f82825260208201905092915050565b7f6f6b0000000000000000000000000000000000000000000000000000000000005f82015250565b5f611365600283611321565b915061137082611331565b602082019050919050565b5f6020820190508181035f83015261139281611359565b9050919050565b5f81905092915050565b7f7265736f757263653a00000000000000000000000000000000000000000000005f82015250565b5f6113d7600983611399565b91506113e2826113a3565b600982019050919050565b5f6113f782610e61565b6114018185611399565b9350611411818560208601610e7b565b80840191505092915050565b5f611427826113cb565b915061143382846113ed565b915081905092915050565b7f5265736f75726365206e6f7420666f756e6400000000000000000000000000005f82015250565b5f611472601283611321565b915061147d8261143e565b602082019050919050565b5f6020820190508181035f83015261149f81611466565b9050919050565b6114af81610f7c565b82525050565b5f6040820190508181035f8301526114cc81611359565b90506114db60208301846114a6565b92915050565b7f4e487b71000000000000000000000000000000000000000000000000000000005f52602260045260245ffd5b5f600282049050600182168061152557607f821691505b602082108103611538576115376114e1565b5b50919050565b7f4c6f6361746f72206d757374206e6f7420626520656d707479000000000000005f82015250565b5f611572601983611321565b915061157d8261153e565b602082019050919050565b5f6020820190508181035f83015261159f81611566565b9050919050565b5f819050815f5260205f209050919050565b5f6020601f8301049050919050565b5f82821b905092915050565b5f600883026116027fffffffffffffffffffffffffffffffffffffffffffffffffffffffffffffffff826115c7565b61160c86836115c7565b95508019841693508086168417925050509392505050565b5f819050919050565b5f61164761164261163d8461101b565b611624565b61101b565b9050919050565b5f819050919050565b6116608361162d565b61167461166c8261164e565b8484546115d3565b825550505050565b5f90565b61168861167c565b611693818484611657565b505050565b5b818110156116b6576116ab5f82611680565b600181019050611699565b5050565b601f8211156116fb576116cc816115a6565b6116d5846115b8565b810160208510156116e4578190505b6116f86116f0856115b8565b830182611698565b50505b505050565b5f82821c905092915050565b5f61171b5f1984600802611700565b1980831691505092915050565b5f611733838361170c565b9150826002028217905092915050565b61174c82610e61565b67ffffffffffffffff81111561176557611764610c7f565b5b61176f825461150e565b61177a8282856116ba565b5f60209050601f8311600181146117ab575f8415611799578287015190505b6117a38582611728565b86555061180a565b601f1984166117b9866115a6565b5f5b828110156117e0578489015182556001820191506020850194506020810190506117bb565b868310156117fd57848901516117f9601f89168261170c565b8355505b6001600288020188555050505b505050505050565b7f63726561746564000000000000000000000000000000000000000000000000005f82015250565b5f611846600783611321565b915061185182611812565b602082019050919050565b5f6040820190508181035f8301526118738161183a565b905061188260208301846114a6565b92915050565b5f81905092915050565b5f819050815f5260205f209050919050565b5f81546118b08161150e565b6118ba8186611888565b9450600182165f81146118d457600181146118e95761191b565b60ff198316865281151582028601935061191b565b6118f285611892565b5f5b83811015611913578154818901526001820191506020810190506118f4565b838801955050505b50505092915050565b5f61192f82846118a4565b915081905092915050565b7f756e6368616e67656400000000000000000000000000000000000000000000005f82015250565b5f61196e600983611321565b91506119798261193a565b602082019050919050565b5f6040820190508181035f83015261199b81611962565b90506119aa60208301846114a6565b92915050565b5f815490506119be8161150e565b9050919050565b5f819050815f5260205f209050919050565b8181036119e5575050611aba565b6119ee826119b0565b67ffffffffffffffff811115611a0757611a06610c7f565b5b611a11825461150e565b611a1c8282856116ba565b5f601f831160018114611a49575f8415611a37578287015490505b611a418582611728565b865550611ab3565b601f198416611a57876119c5565b9650611a62866115a6565b5f5b82811015611a8957848901548255600182019150600185019450602081019050611a64565b86831015611aa65784890154611aa2601f89168261170c565b8355505b6001600288020188555050505b5050505050505b565b7f6368616e676564000000000000000000000000000000000000000000000000005f82015250565b5f611af0600783611321565b9150611afb82611abc565b602082019050919050565b5f6040820190508181035f830152611b1d81611ae4565b9050611b2c60208301846114a6565b92915050565b7f4e487b71000000000000000000000000000000000000000000000000000000005f52603260045260245ffd5b7f4e487b71000000000000000000000000000000000000000000000000000000005f52601160045260245ffd5b5f611b968261101b565b91507fffffffffffffffffffffffffffffffffffffffffffffffffffffffffffffffff8203611bc857611bc7611b5f565b5b600182019050919050565b5f8154611bdf8161150e565b611be98186611321565b9450600182165f8114611c035760018114611c1957611c4b565b60ff198316865281151560200286019350611c4b565b611c22856115a6565b5f5b83811015611c4357815481890152600182019150602081019050611c24565b808801955050505b50505092915050565b611c5d8161101b565b82525050565b611c6c8161104e565b82525050565b5f60c082019050611c855f8301896114a6565b8181036020830152611c978188611bd3565b90508181036040830152611cab8187611bd3565b90508181036060830152611cbf8186611bd3565b9050611cce6080830185611c54565b611cdb60a0830184611c63565b979650505050505050565b5f82825260208201905092915050565b5f611d00826111ba565b611d0a8185611ce6565b935083602082028501611d1c856111d4565b805f5b85811015611d575784840389528151611d388582611235565b9450611d4383611248565b925060208a01995050600181019050611d1f565b50829750879550505050505092915050565b5f6040820190508181035f830152611d8081611359565b90508181036020830152611d948184611cf6565b90509291505056fea2646970667358221220e0090a2a1aa004f8995f85240a4e41268cceff2d7fb210e1b42ce26a12b4906864736f6c63430008140033","linkReferences":{}},"methodIdentifiers":{"diff(string,string,string)":"4fc2bf27","get(string)":"693ec85e","list(string)":"fe42bf1a","remove(string)":"80599e4b","upsert(string,string,string,uint256,int256)":"7fec9b62"},"id":219}