{"abi":[{"type":"function","name":"build","inputs":[{"name":"concept","type":"string","internalType":"string"},{"name":"source","type":"string","internalType":"string"},{"name":"language","type":"string","internalType":"string"},{"name":"platform","type":"string","internalType":"string"},{"name":"config","type":"bytes","internalType":"bytes"}],"outputs":[{"name":"","type":"tuple","internalType":"struct Builder.BuildOkResult","components":[{"name":"success","type":"bool","internalType":"bool"},{"name":"build","type":"bytes32","internalType":"bytes32"},{"name":"artifactHash","type":"string","internalType":"string"},{"name":"artifactLocation","type":"string","internalType":"string"},{"name":"duration","type":"int256","internalType":"int256"}]}],"stateMutability":"nonpayable"},{"type":"function","name":"buildAll","inputs":[{"name":"concepts","type":"string[]","internalType":"string[]"},{"name":"source","type":"string","internalType":"string"},{"name":"targets","type":"bytes[]","internalType":"bytes[]"},{"name":"config","type":"bytes","internalType":"bytes"}],"outputs":[{"name":"","type":"tuple","internalType":"struct Builder.BuildAllOkResult","components":[{"name":"success","type":"bool","internalType":"bool"},{"name":"results","type":"bytes[]","internalType":"bytes[]"}]}],"stateMutability":"nonpayable"},{"type":"function","name":"history","inputs":[{"name":"concept","type":"string","internalType":"string"},{"name":"language","type":"string","internalType":"string"}],"outputs":[{"name":"","type":"tuple","internalType":"struct Builder.HistoryOkResult","components":[{"name":"success","type":"bool","internalType":"bool"},{"name":"builds","type":"bytes[]","internalType":"bytes[]"}]}],"stateMutability":"nonpayable"},{"type":"function","name":"runTests","inputs":[{"name":"concept","type":"string","internalType":"string"},{"name":"language","type":"string","internalType":"string"},{"name":"platform","type":"string","internalType":"string"},{"name":"testFilter","type":"string[]","internalType":"string[]"},{"name":"testType","type":"string","internalType":"string"},{"name":"toolName","type":"string","internalType":"string"}],"outputs":[{"name":"","type":"tuple","internalType":"struct Builder.TestOkResult","components":[{"name":"success","type":"bool","internalType":"bool"},{"name":"passed","type":"int256","internalType":"int256"},{"name":"failed","type":"int256","internalType":"int256"},{"name":"skipped","type":"int256","internalType":"int256"},{"name":"duration","type":"int256","internalType":"int256"},{"name":"testType","type":"string","internalType":"string"}]}],"stateMutability":"nonpayable"},{"type":"function","name":"status","inputs":[{"name":"buildId","type":"bytes32","internalType":"bytes32"}],"outputs":[{"name":"","type":"tuple","internalType":"struct Builder.StatusOkResult","components":[{"name":"success","type":"bool","internalType":"bool"},{"name":"build","type":"bytes32","internalType":"bytes32"},{"name":"status","type":"string","internalType":"string"},{"name":"duration","type":"int256","internalType":"int256"}]}],"stateMutability":"nonpayable"},{"type":"event","name":"BuildAllCompleted","inputs":[{"name":"variant","type":"string","indexed":false,"internalType":"string"},{"name":"results","type":"bytes[]","indexed":false,"internalType":"bytes[]"},{"name":"completed","type":"bytes[]","indexed":false,"internalType":"bytes[]"},{"name":"failed","type":"bytes[]","indexed":false,"internalType":"bytes[]"}],"anonymous":false},{"type":"event","name":"BuildCompleted","inputs":[{"name":"variant","type":"string","indexed":false,"internalType":"string"},{"name":"build","type":"bytes32","indexed":false,"internalType":"bytes32"},{"name":"duration","type":"int256","indexed":false,"internalType":"int256"},{"name":"errors","type":"bytes[]","indexed":false,"internalType":"bytes[]"},{"name":"passed","type":"int256","indexed":false,"internalType":"int256"},{"name":"failed","type":"int256","indexed":false,"internalType":"int256"},{"name":"failures","type":"bytes[]","indexed":false,"internalType":"bytes[]"}],"anonymous":false},{"type":"event","name":"HistoryCompleted","inputs":[{"name":"variant","type":"string","indexed":false,"internalType":"string"},{"name":"builds","type":"bytes[]","indexed":false,"internalType":"bytes[]"}],"anonymous":false},{"type":"event","name":"StatusCompleted","inputs":[{"name":"variant","type":"string","indexed":false,"internalType":"string"},{"name":"build","type":"bytes32","indexed":false,"internalType":"bytes32"},{"name":"duration","type":"int256","indexed":false,"internalType":"int256"}],"anonymous":false},{"type":"event","name":"TestCompleted","inputs":[{"name":"variant","type":"string","indexed":false,"internalType":"string"},{"name":"passed","type":"int256","indexed":false,"internalType":"int256"},{"name":"failed","type":"int256","indexed":false,"internalType":"int256"},{"name":"skipped","type":"int256","indexed":false,"internalType":"int256"},{"name":"duration","type":"int256","indexed":false,"internalType":"int256"},{"name":"failures","type":"bytes[]","indexed":false,"internalType":"bytes[]"}],"anonymous":false}],"bytecode":{"object":"0x608060405234801561000f575f80fd5b506126478061001d5f395ff3fe608060405234801561000f575f80fd5b5060043610610055575f3560e01c80630e59a7fe14610059578063112411591461008957806320e9932d146100b957806352ad0d5e146100e957806357f3de8214610119575b5f80fd5b610073600480360381019061006e91906110d1565b610149565b6040516100809190611334565b60405180910390f35b6100a3600480360381019061009e91906113f2565b61033f565b6040516100b09190611587565b60405180910390f35b6100d360048036038101906100ce91906115a7565b6106dc565b6040516100e09190611764565b60405180910390f35b61010360048036038101906100fe91906117ae565b6108d1565b6040516101109190611839565b60405180910390f35b610133600480360381019061012e9190611937565b610a42565b6040516101409190611a45565b60405180910390f35b610151610dde565b5f875111610194576040517f08c379a000000000000000000000000000000000000000000000000000000000815260040161018b90611abf565b60405180910390fd5b5f8651116101d7576040517f08c379a00000000000000000000000000000000000000000000000000000000081526004016101ce90611b27565b60405180910390fd5b5f8787856040516020016101ed93929190611b7f565b6040516020818303038152906040528051906020012090505f600190505f805f6101f44261021b9190611be5565b90506040518060c001604052808581526020018481526020018381526020018281526020018981526020016001151581525060025f8781526020019081526020015f205f820151815f015560208201518160010155604082015181600201556060820151816003015560808201518160040190816102999190611e0f565b5060a0820151816005015f6101000a81548160ff02191690831515021790555090505060607ffd4468e64050d82dbb5b9e8c368d8171d787a33de2bb9b3190db053fb216441c85858585856040516102f5959493929190611fba565b60405180910390a16040518060c001604052806001151581526020018681526020018581526020018481526020018381526020018a81525096505050505050509695505050505050565b610347610e11565b5f86511161038a576040517f08c379a000000000000000000000000000000000000000000000000000000000815260040161038190611abf565b60405180910390fd5b5f8551116103cd576040517f08c379a00000000000000000000000000000000000000000000000000000000081526004016103c49061206f565b60405180910390fd5b5f845111610410576040517f08c379a000000000000000000000000000000000000000000000000000000000815260040161040790611b27565b60405180910390fd5b5f86868686424360405160200161042c969594939291906120ad565b6040516020818303038152906040528051906020012090505f81604051602001610456919061212c565b60405160208183030381529060405290505f878960405160200161047b929190612190565b60405160208183030381529060405290505f6103e84261049b9190611be5565b90506040518061014001604052808b81526020018a81526020018981526020018881526020018481526020018381526020016040518060400160405280600981526020017f636f6d706c6574656400000000000000000000000000000000000000000000008152508152602001828152602001428152602001600115158152505f808681526020019081526020015f205f820151815f01908161053e9190611e0f565b5060208201518160010190816105549190611e0f565b50604082015181600201908161056a9190611e0f565b5060608201518160030190816105809190611e0f565b5060808201518160040190816105969190611e0f565b5060a08201518160050190816105ac9190611e0f565b5060c08201518160060190816105c29190611e0f565b5060e082015181600701556101008201518160080155610120820151816009015f6101000a81548160ff0219169083151502179055509050505f8a8960405160200161060f9291906121be565b60405160208183030381529060405280519060200120905060015f8281526020019081526020015f2085908060018154018082558091505060019003905f5260205f20015f90919091909150556060807fc65db9ab2409798f5e1df798a6f20efa0c9c6fba19da2b4535a759370a8baf7d8785845f8086604051610698969594939291906121f0565b60405180910390a16040518060a001604052806001151581526020018881526020018781526020018681526020018581525097505050505050505095945050505050565b6106e4610e42565b5f835111610727576040517f08c379a000000000000000000000000000000000000000000000000000000000815260040161071e90611abf565b60405180910390fd5b5f838360405160200161073b9291906121be565b6040516020818303038152906040528051906020012090505f60015f8381526020019081526020015f2090505f818054905067ffffffffffffffff81111561078657610785610ecb565b5b6040519080825280602002602001820160405280156107b957816020015b60608152602001906001900390816107a45790505b5090505f5b8280549050811015610876575f805f8584815481106107e0576107df612270565b5b905f5260205f20015481526020019081526020015f20905083828154811061080b5761080a612270565b5b905f5260205f2001548160060182600701548360080154604051602001610835949392919061232d565b60405160208183030381529060405283838151811061085757610856612270565b5b602002602001018190525050808061086e906123a4565b9150506107be565b507f98836a079cf547ec8ec5e230c55813d1135c45ed6b1c603a18b3f8362504d923816040516108a691906123eb565b60405180910390a1604051806040016040528060011515815260200182815250935050505092915050565b6108d9610e5d565b5f808381526020019081526020015f206009015f9054906101000a900460ff16610938576040517f08c379a000000000000000000000000000000000000000000000000000000000815260040161092f90612468565b60405180910390fd5b5f805f8481526020019081526020015f2090507f71fd415a4679e67287dad8cd9fe08c3575a81c6cca75032378e3eaa6be452308838260070154604051610980929190612486565b60405180910390a160405180608001604052806001151581526020018481526020018260060180546109b190611c42565b80601f01602080910402602001604051908101604052809291908181526020018280546109dd90611c42565b8015610a285780601f106109ff57610100808354040283529160200191610a28565b820191905f5260205f20905b815481529060010190602001808311610a0b57829003601f168201915b505050505081526020018260070154815250915050919050565b610a4a610e87565b5f855111610a8d576040517f08c379a0000000000000000000000000000000000000000000000000000000008152600401610a849061250a565b60405180910390fd5b5f855167ffffffffffffffff811115610aa957610aa8610ecb565b5b604051908082528060200260200182016040528015610adc57816020015b6060815260200190600190039081610ac75790505b5090505f5b8651811015610d7a575f878281518110610afe57610afd612270565b5b602002602001015187424385604051602001610b1e959493929190612528565b6040516020818303038152906040528051906020012090505f6103e842610b459190611be5565b90506040518061014001604052808a8581518110610b6657610b65612270565b5b6020026020010151815260200189815260200160405180602001604052805f815250815260200160405180602001604052805f815250815260200160405180602001604052805f8152508152602001898b8681518110610bc957610bc8612270565b5b6020026020010151604051602001610be2929190612190565b60405160208183030381529060405281526020016040518060400160405280600981526020017f636f6d706c6574656400000000000000000000000000000000000000000000008152508152602001828152602001428152602001600115158152505f808481526020019081526020015f205f820151815f019081610c679190611e0f565b506020820151816001019081610c7d9190611e0f565b506040820151816002019081610c939190611e0f565b506060820151816003019081610ca99190611e0f565b506080820151816004019081610cbf9190611e0f565b5060a0820151816005019081610cd59190611e0f565b5060c0820151816006019081610ceb9190611e0f565b5060e082015181600701556101008201518160080155610120820151816009015f6101000a81548160ff021916908315150217905550905050816001604051602001610d3892919061258d565b604051602081830303815290604052848481518110610d5a57610d59612270565b5b602002602001018190525050508080610d72906123a4565b915050610ae1565b506060807f28cd62217bedd667142b013edd002714de1657d93ac6c79d022c8851ce300840838383604051610db1939291906125b4565b60405180910390a16040518060400160405280600115158152602001848152509350505050949350505050565b6040518060c001604052805f151581526020015f81526020015f81526020015f81526020015f8152602001606081525090565b6040518060a001604052805f151581526020015f801916815260200160608152602001606081526020015f81525090565b60405180604001604052805f15158152602001606081525090565b60405180608001604052805f151581526020015f8019168152602001606081526020015f81525090565b60405180604001604052805f15158152602001606081525090565b5f604051905090565b5f80fd5b5f80fd5b5f80fd5b5f80fd5b5f601f19601f8301169050919050565b7f4e487b71000000000000000000000000000000000000000000000000000000005f52604160045260245ffd5b610f0182610ebb565b810181811067ffffffffffffffff82111715610f2057610f1f610ecb565b5b80604052505050565b5f610f32610ea2565b9050610f3e8282610ef8565b919050565b5f67ffffffffffffffff821115610f5d57610f5c610ecb565b5b610f6682610ebb565b9050602081019050919050565b828183375f83830152505050565b5f610f93610f8e84610f43565b610f29565b905082815260208101848484011115610faf57610fae610eb7565b5b610fba848285610f73565b509392505050565b5f82601f830112610fd657610fd5610eb3565b5b8135610fe6848260208601610f81565b91505092915050565b5f67ffffffffffffffff82111561100957611008610ecb565b5b602082029050602081019050919050565b5f80fd5b5f61103061102b84610fef565b610f29565b905080838252602082019050602084028301858111156110535761105261101a565b5b835b8181101561109a57803567ffffffffffffffff81111561107857611077610eb3565b5b8086016110858982610fc2565b85526020850194505050602081019050611055565b5050509392505050565b5f82601f8301126110b8576110b7610eb3565b5b81356110c884826020860161101e565b91505092915050565b5f805f805f8060c087890312156110eb576110ea610eab565b5b5f87013567ffffffffffffffff81111561110857611107610eaf565b5b61111489828a01610fc2565b965050602087013567ffffffffffffffff81111561113557611134610eaf565b5b61114189828a01610fc2565b955050604087013567ffffffffffffffff81111561116257611161610eaf565b5b61116e89828a01610fc2565b945050606087013567ffffffffffffffff81111561118f5761118e610eaf565b5b61119b89828a016110a4565b935050608087013567ffffffffffffffff8111156111bc576111bb610eaf565b5b6111c889828a01610fc2565b92505060a087013567ffffffffffffffff8111156111e9576111e8610eaf565b5b6111f589828a01610fc2565b9150509295509295509295565b5f8115159050919050565b61121681611202565b82525050565b5f819050919050565b61122e8161121c565b82525050565b5f81519050919050565b5f82825260208201905092915050565b5f5b8381101561126b578082015181840152602081019050611250565b5f8484015250505050565b5f61128082611234565b61128a818561123e565b935061129a81856020860161124e565b6112a381610ebb565b840191505092915050565b5f60c083015f8301516112c35f86018261120d565b5060208301516112d66020860182611225565b5060408301516112e96040860182611225565b5060608301516112fc6060860182611225565b50608083015161130f6080860182611225565b5060a083015184820360a08601526113278282611276565b9150508091505092915050565b5f6020820190508181035f83015261134c81846112ae565b905092915050565b5f67ffffffffffffffff82111561136e5761136d610ecb565b5b61137782610ebb565b9050602081019050919050565b5f61139661139184611354565b610f29565b9050828152602081018484840111156113b2576113b1610eb7565b5b6113bd848285610f73565b509392505050565b5f82601f8301126113d9576113d8610eb3565b5b81356113e9848260208601611384565b91505092915050565b5f805f805f60a0868803121561140b5761140a610eab565b5b5f86013567ffffffffffffffff81111561142857611427610eaf565b5b61143488828901610fc2565b955050602086013567ffffffffffffffff81111561145557611454610eaf565b5b61146188828901610fc2565b945050604086013567ffffffffffffffff81111561148257611481610eaf565b5b61148e88828901610fc2565b935050606086013567ffffffffffffffff8111156114af576114ae610eaf565b5b6114bb88828901610fc2565b925050608086013567ffffffffffffffff8111156114dc576114db610eaf565b5b6114e8888289016113c5565b9150509295509295909350565b5f819050919050565b611507816114f5565b82525050565b5f60a083015f8301516115225f86018261120d565b50602083015161153560208601826114fe565b506040830151848203604086015261154d8282611276565b915050606083015184820360608601526115678282611276565b915050608083015161157c6080860182611225565b508091505092915050565b5f6020820190508181035f83015261159f818461150d565b905092915050565b5f80604083850312156115bd576115bc610eab565b5b5f83013567ffffffffffffffff8111156115da576115d9610eaf565b5b6115e685828601610fc2565b925050602083013567ffffffffffffffff81111561160757611606610eaf565b5b61161385828601610fc2565b9150509250929050565b5f81519050919050565b5f82825260208201905092915050565b5f819050602082019050919050565b5f81519050919050565b5f82825260208201905092915050565b5f61166a82611646565b6116748185611650565b935061168481856020860161124e565b61168d81610ebb565b840191505092915050565b5f6116a38383611660565b905092915050565b5f602082019050919050565b5f6116c18261161d565b6116cb8185611627565b9350836020820285016116dd85611637565b805f5b8581101561171857848403895281516116f98582611698565b9450611704836116ab565b925060208a019950506001810190506116e0565b50829750879550505050505092915050565b5f604083015f83015161173f5f86018261120d565b506020830151848203602086015261175782826116b7565b9150508091505092915050565b5f6020820190508181035f83015261177c818461172a565b905092915050565b61178d816114f5565b8114611797575f80fd5b50565b5f813590506117a881611784565b92915050565b5f602082840312156117c3576117c2610eab565b5b5f6117d08482850161179a565b91505092915050565b5f608083015f8301516117ee5f86018261120d565b50602083015161180160208601826114fe565b50604083015184820360408601526118198282611276565b915050606083015161182e6060860182611225565b508091505092915050565b5f6020820190508181035f83015261185181846117d9565b905092915050565b5f67ffffffffffffffff82111561187357611872610ecb565b5b602082029050602081019050919050565b5f61189661189184611859565b610f29565b905080838252602082019050602084028301858111156118b9576118b861101a565b5b835b8181101561190057803567ffffffffffffffff8111156118de576118dd610eb3565b5b8086016118eb89826113c5565b855260208501945050506020810190506118bb565b5050509392505050565b5f82601f83011261191e5761191d610eb3565b5b813561192e848260208601611884565b91505092915050565b5f805f806080858703121561194f5761194e610eab565b5b5f85013567ffffffffffffffff81111561196c5761196b610eaf565b5b611978878288016110a4565b945050602085013567ffffffffffffffff81111561199957611998610eaf565b5b6119a587828801610fc2565b935050604085013567ffffffffffffffff8111156119c6576119c5610eaf565b5b6119d28782880161190a565b925050606085013567ffffffffffffffff8111156119f3576119f2610eaf565b5b6119ff878288016113c5565b91505092959194509250565b5f604083015f830151611a205f86018261120d565b5060208301518482036020860152611a3882826116b7565b9150508091505092915050565b5f6020820190508181035f830152611a5d8184611a0b565b905092915050565b5f82825260208201905092915050565b7f436f6e63657074206d757374206e6f7420626520656d707479000000000000005f82015250565b5f611aa9601983611a65565b9150611ab482611a75565b602082019050919050565b5f6020820190508181035f830152611ad681611a9d565b9050919050565b7f4c616e6775616765206d757374206e6f7420626520656d7074790000000000005f82015250565b5f611b11601a83611a65565b9150611b1c82611add565b602082019050919050565b5f6020820190508181035f830152611b3e81611b05565b9050919050565b5f81905092915050565b5f611b5982611234565b611b638185611b45565b9350611b7381856020860161124e565b80840191505092915050565b5f611b8a8286611b4f565b9150611b968285611b4f565b9150611ba28284611b4f565b9150819050949350505050565b5f819050919050565b7f4e487b71000000000000000000000000000000000000000000000000000000005f52601260045260245ffd5b5f611bef82611baf565b9150611bfa83611baf565b925082611c0a57611c09611bb8565b5b828206905092915050565b7f4e487b71000000000000000000000000000000000000000000000000000000005f52602260045260245ffd5b5f6002820490506001821680611c5957607f821691505b602082108103611c6c57611c6b611c15565b5b50919050565b5f819050815f5260205f209050919050565b5f6020601f8301049050919050565b5f82821b905092915050565b5f60088302611cce7fffffffffffffffffffffffffffffffffffffffffffffffffffffffffffffffff82611c93565b611cd88683611c93565b95508019841693508086168417925050509392505050565b5f819050919050565b5f611d13611d0e611d0984611baf565b611cf0565b611baf565b9050919050565b5f819050919050565b611d2c83611cf9565b611d40611d3882611d1a565b848454611c9f565b825550505050565b5f90565b611d54611d48565b611d5f818484611d23565b505050565b5b81811015611d8257611d775f82611d4c565b600181019050611d65565b5050565b601f821115611dc757611d9881611c72565b611da184611c84565b81016020851015611db0578190505b611dc4611dbc85611c84565b830182611d64565b50505b505050565b5f82821c905092915050565b5f611de75f1984600802611dcc565b1980831691505092915050565b5f611dff8383611dd8565b9150826002028217905092915050565b611e1882611234565b67ffffffffffffffff811115611e3157611e30610ecb565b5b611e3b8254611c42565b611e46828285611d86565b5f60209050601f831160018114611e77575f8415611e65578287015190505b611e6f8582611df4565b865550611ed6565b601f198416611e8586611c72565b5f5b82811015611eac57848901518255600182019150602085019450602081019050611e87565b86831015611ec95784890151611ec5601f891682611dd8565b8355505b6001600288020188555050505b505050505050565b7f6f6b0000000000000000000000000000000000000000000000000000000000005f82015250565b5f611f12600283611a65565b9150611f1d82611ede565b602082019050919050565b611f318161121c565b82525050565b5f82825260208201905092915050565b5f611f518261161d565b611f5b8185611f37565b935083602082028501611f6d85611637565b805f5b85811015611fa85784840389528151611f898582611698565b9450611f94836116ab565b925060208a01995050600181019050611f70565b50829750879550505050505092915050565b5f60c0820190508181035f830152611fd181611f06565b9050611fe06020830188611f28565b611fed6040830187611f28565b611ffa6060830186611f28565b6120076080830185611f28565b81810360a08301526120198184611f47565b90509695505050505050565b7f536f75726365206d757374206e6f7420626520656d70747900000000000000005f82015250565b5f612059601883611a65565b915061206482612025565b602082019050919050565b5f6020820190508181035f8301526120868161204d565b9050919050565b5f819050919050565b6120a76120a282611baf565b61208d565b82525050565b5f6120b88289611b4f565b91506120c48288611b4f565b91506120d08287611b4f565b91506120dc8286611b4f565b91506120e88285612096565b6020820191506120f88284612096565b602082019150819050979650505050505050565b5f819050919050565b612126612121826114f5565b61210c565b82525050565b5f6121378284612115565b60208201915081905092915050565b7f2f6f75742f0000000000000000000000000000000000000000000000000000005f82015250565b5f61217a600583611b45565b915061218582612146565b600582019050919050565b5f61219b8285611b4f565b91506121a68261216e565b91506121b28284611b4f565b91508190509392505050565b5f6121c98285611b4f565b91506121d58284611b4f565b91508190509392505050565b6121ea816114f5565b82525050565b5f60e0820190508181035f83015261220781611f06565b905061221660208301896121e1565b6122236040830188611f28565b81810360608301526122358187611f47565b90506122446080830186611f28565b61225160a0830185611f28565b81810360c08301526122638184611f47565b9050979650505050505050565b7f4e487b71000000000000000000000000000000000000000000000000000000005f52603260045260245ffd5b5f81546122a981611c42565b6122b38186611a65565b9450600182165f81146122cd57600181146122e357612315565b60ff198316865281151560200286019350612315565b6122ec85611c72565b5f5b8381101561230d578154818901526001820191506020810190506122ee565b808801955050505b50505092915050565b61232781611baf565b82525050565b5f6080820190506123405f8301876121e1565b8181036020830152612352818661229d565b90506123616040830185611f28565b61236e606083018461231e565b95945050505050565b7f4e487b71000000000000000000000000000000000000000000000000000000005f52601160045260245ffd5b5f6123ae82611baf565b91507fffffffffffffffffffffffffffffffffffffffffffffffffffffffffffffffff82036123e0576123df612377565b5b600182019050919050565b5f6040820190508181035f83015261240281611f06565b905081810360208301526124168184611f47565b905092915050565b7f4275696c64206e6f7420666f756e6400000000000000000000000000000000005f82015250565b5f612452600f83611a65565b915061245d8261241e565b602082019050919050565b5f6020820190508181035f83015261247f81612446565b9050919050565b5f6060820190508181035f83015261249d81611f06565b90506124ac60208301856121e1565b6124b96040830184611f28565b9392505050565b7f436f6e6365707473206d757374206e6f7420626520656d7074790000000000005f82015250565b5f6124f4601a83611a65565b91506124ff826124c0565b602082019050919050565b5f6020820190508181035f830152612521816124e8565b9050919050565b5f6125338288611b4f565b915061253f8287611b4f565b915061254b8286612096565b60208201915061255b8285612096565b60208201915061256b8284612096565b6020820191508190509695505050505050565b61258781611202565b82525050565b5f6040820190506125a05f8301856121e1565b6125ad602083018461257e565b9392505050565b5f6080820190508181035f8301526125cb81611f06565b905081810360208301526125df8186611f47565b905081810360408301526125f38185611f47565b905081810360608301526126078184611f47565b905094935050505056fea26469706673582212208e00e184e340fedbfd54e80a292cf9599172e0db642e7ef0feffad1f55bc406164736f6c63430008140033","linkReferences":{}},"methodIdentifiers":{"build(string,string,string,string,bytes)":"11241159","buildAll(string[],string,bytes[],bytes)":"57f3de82","history(string,string)":"20e9932d","runTests(string,string,string,string[],string,string)":"0e59a7fe","status(bytes32)":"52ad0d5e"},"id":19}