{"abi":[{"type":"function","name":"addComment","inputs":[{"name":"commentId","type":"bytes32","internalType":"bytes32"},{"name":"hostNodeId","type":"bytes32","internalType":"bytes32"},{"name":"content","type":"string","internalType":"string"},{"name":"author","type":"bytes32","internalType":"bytes32"}],"outputs":[],"stateMutability":"nonpayable"},{"type":"function","name":"deleteComment","inputs":[{"name":"commentId","type":"bytes32","internalType":"bytes32"}],"outputs":[],"stateMutability":"nonpayable"},{"type":"function","name":"getComment","inputs":[{"name":"commentId","type":"bytes32","internalType":"bytes32"}],"outputs":[{"name":"","type":"tuple","internalType":"struct ThreadedComment.CommentData","components":[{"name":"hostNodeId","type":"bytes32","internalType":"bytes32"},{"name":"parentCommentId","type":"bytes32","internalType":"bytes32"},{"name":"content","type":"string","internalType":"string"},{"name":"author","type":"bytes32","internalType":"bytes32"},{"name":"createdAt","type":"uint256","internalType":"uint256"},{"name":"published","type":"bool","internalType":"bool"},{"name":"exists","type":"bool","internalType":"bool"}]}],"stateMutability":"view"},{"type":"function","name":"getHostComments","inputs":[{"name":"hostNodeId","type":"bytes32","internalType":"bytes32"}],"outputs":[{"name":"","type":"bytes32[]","internalType":"bytes32[]"}],"stateMutability":"view"},{"type":"function","name":"publish","inputs":[{"name":"commentId","type":"bytes32","internalType":"bytes32"}],"outputs":[],"stateMutability":"nonpayable"},{"type":"function","name":"reply","inputs":[{"name":"commentId","type":"bytes32","internalType":"bytes32"},{"name":"parentCommentId","type":"bytes32","internalType":"bytes32"},{"name":"content","type":"string","internalType":"string"},{"name":"author","type":"bytes32","internalType":"bytes32"}],"outputs":[],"stateMutability":"nonpayable"},{"type":"function","name":"unpublish","inputs":[{"name":"commentId","type":"bytes32","internalType":"bytes32"}],"outputs":[],"stateMutability":"nonpayable"},{"type":"event","name":"CommentAdded","inputs":[{"name":"commentId","type":"bytes32","indexed":true,"internalType":"bytes32"},{"name":"hostNodeId","type":"bytes32","indexed":true,"internalType":"bytes32"}],"anonymous":false},{"type":"event","name":"CommentDeleted","inputs":[{"name":"commentId","type":"bytes32","indexed":true,"internalType":"bytes32"}],"anonymous":false},{"type":"event","name":"Published","inputs":[{"name":"commentId","type":"bytes32","indexed":true,"internalType":"bytes32"}],"anonymous":false},{"type":"event","name":"Replied","inputs":[{"name":"commentId","type":"bytes32","indexed":true,"internalType":"bytes32"},{"name":"parentId","type":"bytes32","indexed":true,"internalType":"bytes32"}],"anonymous":false},{"type":"event","name":"Unpublished","inputs":[{"name":"commentId","type":"bytes32","indexed":true,"internalType":"bytes32"}],"anonymous":false}],"bytecode":{"object":"0x608060405234801561000f575f80fd5b5061154a8061001d5f395ff3fe608060405234801561000f575f80fd5b506004361061007b575f3560e01c80638b2e6dcf116100595780638b2e6dcf146100d35780638c20d587146100ef5780638d8ce71a1461011f578063bc90563d1461013b5761007b565b80633b31fcd11461007f57806358595ba41461009b578063829749c2146100b7575b5f80fd5b61009960048036038101906100949190610bda565b61016b565b005b6100b560048036038101906100b09190610bda565b610284565b005b6100d160048036038101906100cc9190610c66565b61033f565b005b6100ed60048036038101906100e89190610bda565b610604565b005b61010960048036038101906101049190610bda565b61071f565b6040516101169190610e4e565b60405180910390f35b61013960048036038101906101349190610c66565b610895565b005b61015560048036038101906101509190610bda565b610af4565b6040516101629190610f16565b60405180910390f35b5f808281526020019081526020015f2060050160019054906101000a900460ff166101cb576040517f08c379a00000000000000000000000000000000000000000000000000000000081526004016101c290610f90565b60405180910390fd5b5f808281526020019081526020015f206005015f9054906101000a900460ff1661022a576040517f08c379a000000000000000000000000000000000000000000000000000000000815260040161022190610ff8565b60405180910390fd5b5f805f8381526020019081526020015f206005015f6101000a81548160ff021916908315150217905550807f39753c0f915bc9fbbf453875e5da756dec9fb806cae14f85e4bf3b0ad43c077760405160405180910390a250565b5f808281526020019081526020015f2060050160019054906101000a900460ff166102e4576040517f08c379a00000000000000000000000000000000000000000000000000000000081526004016102db90610f90565b60405180910390fd5b5f805f8381526020019081526020015f2060050160016101000a81548160ff021916908315150217905550807f226c727d84dbadffb3c3981226b7ba364f15f19cea08b7c9f3b5bedae5a84a9560405160405180910390a250565b5f808681526020019081526020015f2060050160019054906101000a900460ff16156103a0576040517f08c379a000000000000000000000000000000000000000000000000000000000815260040161039790611060565b60405180910390fd5b5f808581526020019081526020015f2060050160019054906101000a900460ff16610400576040517f08c379a00000000000000000000000000000000000000000000000000000000081526004016103f7906110c8565b60405180910390fd5b5f8383905011610445576040517f08c379a000000000000000000000000000000000000000000000000000000000815260040161043c90611130565b60405180910390fd5b5f805f8681526020019081526020015f205f015490506040518060e0016040528082815260200186815260200185858080601f0160208091040260200160405190810160405280939291908181526020018383808284375f81840152601f19601f8201169050808301925050505050505081526020018381526020014281526020015f15158152602001600115158152505f808881526020019081526020015f205f820151815f015560208201518160010155604082015181600201908161050d9190611375565b50606082015181600301556080820151816004015560a0820151816005015f6101000a81548160ff02191690831515021790555060c08201518160050160016101000a81548160ff02191690831515021790555090505060025f8681526020019081526020015f2086908060018154018082558091505060019003905f5260205f20015f909190919091505560015f8281526020019081526020015f2086908060018154018082558091505060019003905f5260205f20015f909190919091505584867f7c4c98abc289dfbf7f09260eb956df5a6b1c7a32503bad740ccf892b185ff5c960405160405180910390a3505050505050565b5f808281526020019081526020015f2060050160019054906101000a900460ff16610664576040517f08c379a000000000000000000000000000000000000000000000000000000000815260040161065b90610f90565b60405180910390fd5b5f808281526020019081526020015f206005015f9054906101000a900460ff16156106c4576040517f08c379a00000000000000000000000000000000000000000000000000000000081526004016106bb9061148e565b60405180910390fd5b60015f808381526020019081526020015f206005015f6101000a81548160ff021916908315150217905550807f6ba4ebad9e770be7c47df3317f7620bcab64b348904444fa4fabddb6d92f6b1760405160405180910390a250565b610727610b5b565b5f808381526020019081526020015f2060050160019054906101000a900460ff16610787576040517f08c379a000000000000000000000000000000000000000000000000000000000815260040161077e90610f90565b60405180910390fd5b5f808381526020019081526020015f206040518060e00160405290815f8201548152602001600182015481526020016002820180546107c5906111a8565b80601f01602080910402602001604051908101604052809291908181526020018280546107f1906111a8565b801561083c5780601f106108135761010080835404028352916020019161083c565b820191905f5260205f20905b81548152906001019060200180831161081f57829003601f168201915b505050505081526020016003820154815260200160048201548152602001600582015f9054906101000a900460ff161515151581526020016005820160019054906101000a900460ff1615151515815250509050919050565b5f808681526020019081526020015f2060050160019054906101000a900460ff16156108f6576040517f08c379a00000000000000000000000000000000000000000000000000000000081526004016108ed90611060565b60405180910390fd5b5f801b840361093a576040517f08c379a0000000000000000000000000000000000000000000000000000000008152600401610931906114f6565b60405180910390fd5b5f838390501161097f576040517f08c379a000000000000000000000000000000000000000000000000000000000815260040161097690611130565b60405180910390fd5b6040518060e001604052808581526020015f801b815260200184848080601f0160208091040260200160405190810160405280939291908181526020018383808284375f81840152601f19601f8201169050808301925050505050505081526020018281526020014281526020015f15158152602001600115158152505f808781526020019081526020015f205f820151815f0155602082015181600101556040820151816002019081610a339190611375565b50606082015181600301556080820151816004015560a0820151816005015f6101000a81548160ff02191690831515021790555060c08201518160050160016101000a81548160ff02191690831515021790555090505060015f8581526020019081526020015f2085908060018154018082558091505060019003905f5260205f20015f909190919091505583857fb2da177ad213701ad601627cf00792d4ab06c33e27818f9fe8abcfecac477aba60405160405180910390a35050505050565b606060015f8381526020019081526020015f20805480602002602001604051908101604052809291908181526020018280548015610b4f57602002820191905f5260205f20905b815481526020019060010190808311610b3b575b50505050509050919050565b6040518060e001604052805f80191681526020015f8019168152602001606081526020015f80191681526020015f81526020015f151581526020015f151581525090565b5f80fd5b5f80fd5b5f819050919050565b610bb981610ba7565b8114610bc3575f80fd5b50565b5f81359050610bd481610bb0565b92915050565b5f60208284031215610bef57610bee610b9f565b5b5f610bfc84828501610bc6565b91505092915050565b5f80fd5b5f80fd5b5f80fd5b5f8083601f840112610c2657610c25610c05565b5b8235905067ffffffffffffffff811115610c4357610c42610c09565b5b602083019150836001820283011115610c5f57610c5e610c0d565b5b9250929050565b5f805f805f60808688031215610c7f57610c7e610b9f565b5b5f610c8c88828901610bc6565b9550506020610c9d88828901610bc6565b945050604086013567ffffffffffffffff811115610cbe57610cbd610ba3565b5b610cca88828901610c11565b93509350506060610cdd88828901610bc6565b9150509295509295909350565b610cf381610ba7565b82525050565b5f81519050919050565b5f82825260208201905092915050565b5f5b83811015610d30578082015181840152602081019050610d15565b5f8484015250505050565b5f601f19601f8301169050919050565b5f610d5582610cf9565b610d5f8185610d03565b9350610d6f818560208601610d13565b610d7881610d3b565b840191505092915050565b5f819050919050565b610d9581610d83565b82525050565b5f8115159050919050565b610daf81610d9b565b82525050565b5f60e083015f830151610dca5f860182610cea565b506020830151610ddd6020860182610cea565b5060408301518482036040860152610df58282610d4b565b9150506060830151610e0a6060860182610cea565b506080830151610e1d6080860182610d8c565b5060a0830151610e3060a0860182610da6565b5060c0830151610e4360c0860182610da6565b508091505092915050565b5f6020820190508181035f830152610e668184610db5565b905092915050565b5f81519050919050565b5f82825260208201905092915050565b5f819050602082019050919050565b5f610ea28383610cea565b60208301905092915050565b5f602082019050919050565b5f610ec482610e6e565b610ece8185610e78565b9350610ed983610e88565b805f5b83811015610f09578151610ef08882610e97565b9750610efb83610eae565b925050600181019050610edc565b5085935050505092915050565b5f6020820190508181035f830152610f2e8184610eba565b905092915050565b5f82825260208201905092915050565b7f436f6d6d656e7420646f6573206e6f74206578697374000000000000000000005f82015250565b5f610f7a601683610f36565b9150610f8582610f46565b602082019050919050565b5f6020820190508181035f830152610fa781610f6e565b9050919050565b7f416c726561647920756e7075626c6973686564000000000000000000000000005f82015250565b5f610fe2601383610f36565b9150610fed82610fae565b602082019050919050565b5f6020820190508181035f83015261100f81610fd6565b9050919050565b7f436f6d6d656e7420616c726561647920657869737473000000000000000000005f82015250565b5f61104a601683610f36565b915061105582611016565b602082019050919050565b5f6020820190508181035f8301526110778161103e565b9050919050565b7f506172656e7420636f6d6d656e7420646f6573206e6f742065786973740000005f82015250565b5f6110b2601d83610f36565b91506110bd8261107e565b602082019050919050565b5f6020820190508181035f8301526110df816110a6565b9050919050565b7f436f6e74656e742063616e6e6f7420626520656d7074790000000000000000005f82015250565b5f61111a601783610f36565b9150611125826110e6565b602082019050919050565b5f6020820190508181035f8301526111478161110e565b9050919050565b7f4e487b71000000000000000000000000000000000000000000000000000000005f52604160045260245ffd5b7f4e487b71000000000000000000000000000000000000000000000000000000005f52602260045260245ffd5b5f60028204905060018216806111bf57607f821691505b6020821081036111d2576111d161117b565b5b50919050565b5f819050815f5260205f209050919050565b5f6020601f8301049050919050565b5f82821b905092915050565b5f600883026112347fffffffffffffffffffffffffffffffffffffffffffffffffffffffffffffffff826111f9565b61123e86836111f9565b95508019841693508086168417925050509392505050565b5f819050919050565b5f61127961127461126f84610d83565b611256565b610d83565b9050919050565b5f819050919050565b6112928361125f565b6112a661129e82611280565b848454611205565b825550505050565b5f90565b6112ba6112ae565b6112c5818484611289565b505050565b5b818110156112e8576112dd5f826112b2565b6001810190506112cb565b5050565b601f82111561132d576112fe816111d8565b611307846111ea565b81016020851015611316578190505b61132a611322856111ea565b8301826112ca565b50505b505050565b5f82821c905092915050565b5f61134d5f1984600802611332565b1980831691505092915050565b5f611365838361133e565b9150826002028217905092915050565b61137e82610cf9565b67ffffffffffffffff8111156113975761139661114e565b5b6113a182546111a8565b6113ac8282856112ec565b5f60209050601f8311600181146113dd575f84156113cb578287015190505b6113d5858261135a565b86555061143c565b601f1984166113eb866111d8565b5f5b82811015611412578489015182556001820191506020850194506020810190506113ed565b8683101561142f578489015161142b601f89168261133e565b8355505b6001600288020188555050505b505050505050565b7f416c7265616479207075626c69736865640000000000000000000000000000005f82015250565b5f611478601183610f36565b915061148382611444565b602082019050919050565b5f6020820190508181035f8301526114a58161146c565b9050919050565b7f496e76616c696420686f7374206e6f64652049440000000000000000000000005f82015250565b5f6114e0601483610f36565b91506114eb826114ac565b602082019050919050565b5f6020820190508181035f83015261150d816114d4565b905091905056fea2646970667358221220eff5a57e716959b77e673428035f9ba96c892cf0ce3ee11153959da037531d2264736f6c63430008140033","linkReferences":{}},"methodIdentifiers":{"addComment(bytes32,bytes32,string,bytes32)":"8d8ce71a","deleteComment(bytes32)":"58595ba4","getComment(bytes32)":"8c20d587","getHostComments(bytes32)":"bc90563d","publish(bytes32)":"8b2e6dcf","reply(bytes32,bytes32,string,bytes32)":"829749c2","unpublish(bytes32)":"3b31fcd1"},"id":293}