{"abi":[{"type":"function","name":"applyOverride","inputs":[{"name":"schema","type":"bytes32","internalType":"bytes32"},{"name":"overrides","type":"string","internalType":"string"}],"outputs":[{"name":"","type":"tuple","internalType":"struct UISchema.OverrideOkResult","components":[{"name":"success","type":"bool","internalType":"bool"},{"name":"schema","type":"bytes32","internalType":"bytes32"}]}],"stateMutability":"nonpayable"},{"type":"function","name":"getElements","inputs":[{"name":"schema","type":"bytes32","internalType":"bytes32"}],"outputs":[{"name":"","type":"tuple","internalType":"struct UISchema.GetElementsOkResult","components":[{"name":"success","type":"bool","internalType":"bool"},{"name":"elements","type":"string","internalType":"string"}]}],"stateMutability":"nonpayable"},{"type":"function","name":"getSchema","inputs":[{"name":"schema","type":"bytes32","internalType":"bytes32"}],"outputs":[{"name":"","type":"tuple","internalType":"struct UISchema.GetSchemaOkResult","components":[{"name":"success","type":"bool","internalType":"bool"},{"name":"schema","type":"bytes32","internalType":"bytes32"},{"name":"uiSchema","type":"string","internalType":"string"}]}],"stateMutability":"nonpayable"},{"type":"function","name":"inspect","inputs":[{"name":"schema","type":"bytes32","internalType":"bytes32"},{"name":"conceptSpec","type":"string","internalType":"string"}],"outputs":[{"name":"","type":"tuple","internalType":"struct UISchema.InspectOkResult","components":[{"name":"success","type":"bool","internalType":"bool"},{"name":"schema","type":"bytes32","internalType":"bytes32"}]}],"stateMutability":"nonpayable"},{"type":"event","name":"GetElementsCompleted","inputs":[{"name":"variant","type":"string","indexed":false,"internalType":"string"}],"anonymous":false},{"type":"event","name":"GetSchemaCompleted","inputs":[{"name":"variant","type":"string","indexed":false,"internalType":"string"},{"name":"schema","type":"bytes32","indexed":true,"internalType":"bytes32"}],"anonymous":false},{"type":"event","name":"InspectCompleted","inputs":[{"name":"variant","type":"string","indexed":false,"internalType":"string"},{"name":"schema","type":"bytes32","indexed":true,"internalType":"bytes32"}],"anonymous":false},{"type":"event","name":"OverrideCompleted","inputs":[{"name":"variant","type":"string","indexed":false,"internalType":"string"},{"name":"schema","type":"bytes32","indexed":true,"internalType":"bytes32"}],"anonymous":false}],"bytecode":{"object":"0x608060405234801561000f575f80fd5b506113088061001d5f395ff3fe608060405234801561000f575f80fd5b506004361061004a575f3560e01c80634f64ea091461004e5780636b8030b11461007e578063799a6037146100ae578063a2ea7c6e146100de575b5f80fd5b61006860048036038101906100639190610829565b61010e565b6040516100759190610932565b60405180910390f35b61009860048036038101906100939190610a7e565b6102bf565b6040516100a59190610b14565b60405180910390f35b6100c860048036038101906100c39190610a7e565b610432565b6040516100d59190610b5a565b60405180910390f35b6100f860048036038101906100f39190610829565b610613565b6040516101059190610bc0565b60405180910390f35b61011661076c565b60015f8381526020019081526020015f205f9054906101000a900460ff16610173576040517f08c379a000000000000000000000000000000000000000000000000000000000815260040161016a90610c3a565b60405180910390fd5b5f808381526020019081526020015f206004015f9054906101000a900460ff166101d2576040517f08c379a00000000000000000000000000000000000000000000000000000000081526004016101c990610ca2565b60405180910390fd5b7f6e62356b64961ef45d485dac6aa9563ffaeff3a562ad935147733f074d003c986040516101ff90610d0a565b60405180910390a160405180604001604052806001151581526020015f808581526020019081526020015f20600301805461023990610d55565b80601f016020809104026020016040519081016040528092919081815260200182805461026590610d55565b80156102b05780601f10610287576101008083540402835291602001916102b0565b820191905f5260205f20905b81548152906001019060200180831161029357829003601f168201915b50505050508152509050919050565b6102c7610787565b60015f8481526020019081526020015f205f9054906101000a900460ff16610324576040517f08c379a000000000000000000000000000000000000000000000000000000000815260040161031b90610c3a565b60405180910390fd5b5f825111610367576040517f08c379a000000000000000000000000000000000000000000000000000000000815260040161035e90610dcf565b60405180910390fd5b815f808581526020019081526020015f2060010190816103879190610f93565b505f808481526020019081526020015f20600201826040516020016103ad929190611166565b6040516020818303038152906040525f808581526020019081526020015f2060020190816103db9190610f93565b50827f7fb28b1622cc7246fa8a631f1f93f40c6502e6861eae13b14a9f530de67d972860405161040a90610d0a565b60405180910390a2604051806040016040528060011515815260200184815250905092915050565b61043a6107a4565b5f82511161047d576040517f08c379a0000000000000000000000000000000000000000000000000000000008152600401610474906111de565b60405180910390fd5b5f8260405160200161048f9190611246565b60405160208183030381529060405290505f836040516020016104b291906112b1565b60405160208183030381529060405290506040518060c0016040528085815260200160405180602001604052805f8152508152602001838152602001828152602001600115158152602001428152505f808781526020019081526020015f205f820151815f0190816105249190610f93565b50602082015181600101908161053a9190610f93565b5060408201518160020190816105509190610f93565b5060608201518160030190816105669190610f93565b506080820151816004015f6101000a81548160ff02191690831515021790555060a082015181600501559050506001805f8781526020019081526020015f205f6101000a81548160ff021916908315150217905550847f80b28015a3d4c34e5230a9f455080a9792ca18b67630206363abb17a297247fc6040516105e990610d0a565b60405180910390a26040518060400160405280600115158152602001868152509250505092915050565b61061b6107c1565b60015f8381526020019081526020015f205f9054906101000a900460ff16610678576040517f08c379a000000000000000000000000000000000000000000000000000000000815260040161066f90610c3a565b60405180910390fd5b817f12e4d4a6334c79ec05c3511a3697ddd595344c69204d7833d277a6fddf63960f6040516106a690610d0a565b60405180910390a260405180606001604052806001151581526020018381526020015f808581526020019081526020015f2060020180546106e690610d55565b80601f016020809104026020016040519081016040528092919081815260200182805461071290610d55565b801561075d5780601f106107345761010080835404028352916020019161075d565b820191905f5260205f20905b81548152906001019060200180831161074057829003601f168201915b50505050508152509050919050565b60405180604001604052805f15158152602001606081525090565b60405180604001604052805f151581526020015f80191681525090565b60405180604001604052805f151581526020015f80191681525090565b60405180606001604052805f151581526020015f8019168152602001606081525090565b5f604051905090565b5f80fd5b5f80fd5b5f819050919050565b610808816107f6565b8114610812575f80fd5b50565b5f81359050610823816107ff565b92915050565b5f6020828403121561083e5761083d6107ee565b5b5f61084b84828501610815565b91505092915050565b5f8115159050919050565b61086881610854565b82525050565b5f81519050919050565b5f82825260208201905092915050565b5f5b838110156108a557808201518184015260208101905061088a565b5f8484015250505050565b5f601f19601f8301169050919050565b5f6108ca8261086e565b6108d48185610878565b93506108e4818560208601610888565b6108ed816108b0565b840191505092915050565b5f604083015f83015161090d5f86018261085f565b506020830151848203602086015261092582826108c0565b9150508091505092915050565b5f6020820190508181035f83015261094a81846108f8565b905092915050565b5f80fd5b5f80fd5b7f4e487b71000000000000000000000000000000000000000000000000000000005f52604160045260245ffd5b610990826108b0565b810181811067ffffffffffffffff821117156109af576109ae61095a565b5b80604052505050565b5f6109c16107e5565b90506109cd8282610987565b919050565b5f67ffffffffffffffff8211156109ec576109eb61095a565b5b6109f5826108b0565b9050602081019050919050565b828183375f83830152505050565b5f610a22610a1d846109d2565b6109b8565b905082815260208101848484011115610a3e57610a3d610956565b5b610a49848285610a02565b509392505050565b5f82601f830112610a6557610a64610952565b5b8135610a75848260208601610a10565b91505092915050565b5f8060408385031215610a9457610a936107ee565b5b5f610aa185828601610815565b925050602083013567ffffffffffffffff811115610ac257610ac16107f2565b5b610ace85828601610a51565b9150509250929050565b610ae1816107f6565b82525050565b604082015f820151610afb5f85018261085f565b506020820151610b0e6020850182610ad8565b50505050565b5f604082019050610b275f830184610ae7565b92915050565b604082015f820151610b415f85018261085f565b506020820151610b546020850182610ad8565b50505050565b5f604082019050610b6d5f830184610b2d565b92915050565b5f606083015f830151610b885f86018261085f565b506020830151610b9b6020860182610ad8565b5060408301518482036040860152610bb382826108c0565b9150508091505092915050565b5f6020820190508181035f830152610bd88184610b73565b905092915050565b5f82825260208201905092915050565b7f536368656d61206e6f7420666f756e64000000000000000000000000000000005f82015250565b5f610c24601083610be0565b9150610c2f82610bf0565b602082019050919050565b5f6020820190508181035f830152610c5181610c18565b9050919050565b7f536368656d61206e6f7420696e737065637465640000000000000000000000005f82015250565b5f610c8c601483610be0565b9150610c9782610c58565b602082019050919050565b5f6020820190508181035f830152610cb981610c80565b9050919050565b7f6f6b0000000000000000000000000000000000000000000000000000000000005f82015250565b5f610cf4600283610be0565b9150610cff82610cc0565b602082019050919050565b5f6020820190508181035f830152610d2181610ce8565b9050919050565b7f4e487b71000000000000000000000000000000000000000000000000000000005f52602260045260245ffd5b5f6002820490506001821680610d6c57607f821691505b602082108103610d7f57610d7e610d28565b5b50919050565b7f4f766572726964657320726571756972656400000000000000000000000000005f82015250565b5f610db9601283610be0565b9150610dc482610d85565b602082019050919050565b5f6020820190508181035f830152610de681610dad565b9050919050565b5f819050815f5260205f209050919050565b5f6020601f8301049050919050565b5f82821b905092915050565b5f60088302610e497fffffffffffffffffffffffffffffffffffffffffffffffffffffffffffffffff82610e0e565b610e538683610e0e565b95508019841693508086168417925050509392505050565b5f819050919050565b5f819050919050565b5f610e97610e92610e8d84610e6b565b610e74565b610e6b565b9050919050565b5f819050919050565b610eb083610e7d565b610ec4610ebc82610e9e565b848454610e1a565b825550505050565b5f90565b610ed8610ecc565b610ee3818484610ea7565b505050565b5b81811015610f0657610efb5f82610ed0565b600181019050610ee9565b5050565b601f821115610f4b57610f1c81610ded565b610f2584610dff565b81016020851015610f34578190505b610f48610f4085610dff565b830182610ee8565b50505b505050565b5f82821c905092915050565b5f610f6b5f1984600802610f50565b1980831691505092915050565b5f610f838383610f5c565b9150826002028217905092915050565b610f9c8261086e565b67ffffffffffffffff811115610fb557610fb461095a565b5b610fbf8254610d55565b610fca828285610f0a565b5f60209050601f831160018114610ffb575f8415610fe9578287015190505b610ff38582610f78565b86555061105a565b601f19841661100986610ded565b5f5b828110156110305784890151825560018201915060208501945060208101905061100b565b8683101561104d5784890151611049601f891682610f5c565b8355505b6001600288020188555050505b505050505050565b5f81905092915050565b5f815461107881610d55565b6110828186611062565b9450600182165f811461109c57600181146110b1576110e3565b60ff19831686528115158202860193506110e3565b6110ba85610ded565b5f5b838110156110db578154818901526001820191506020810190506110bc565b838801955050505b50505092915050565b7f2b6f76657272696465733a0000000000000000000000000000000000000000005f82015250565b5f611120600b83611062565b915061112b826110ec565b600b82019050919050565b5f6111408261086e565b61114a8185611062565b935061115a818560208601610888565b80840191505092915050565b5f611171828561106c565b915061117c82611114565b91506111888284611136565b91508190509392505050565b7f436f6e63657074207370656320726571756972656400000000000000000000005f82015250565b5f6111c8601583610be0565b91506111d382611194565b602082019050919050565b5f6020820190508181035f8301526111f5816111bc565b9050919050565b7f736368656d613a000000000000000000000000000000000000000000000000005f82015250565b5f611230600783611062565b915061123b826111fc565b600782019050919050565b5f61125082611224565b915061125c8284611136565b915081905092915050565b7f656c656d656e74733a00000000000000000000000000000000000000000000005f82015250565b5f61129b600983611062565b91506112a682611267565b600982019050919050565b5f6112bb8261128f565b91506112c78284611136565b91508190509291505056fea264697066735822122004a0efc22222fc85d766fc96dbaa179f29e878f6a2ceb7b372c562dc29b66f3a64736f6c63430008140033","linkReferences":{}},"methodIdentifiers":{"applyOverride(bytes32,string)":"6b8030b1","getElements(bytes32)":"4f64ea09","getSchema(bytes32)":"a2ea7c6e","inspect(bytes32,string)":"799a6037"},"id":318}