{"abi":[{"type":"function","name":"appendToBody","inputs":[{"name":"nodeId","type":"bytes32","internalType":"bytes32"},{"name":"childNodeId","type":"bytes32","internalType":"bytes32"}],"outputs":[],"stateMutability":"nonpayable"},{"type":"function","name":"attachToSchema","inputs":[{"name":"nodeId","type":"bytes32","internalType":"bytes32"},{"name":"schemaId","type":"bytes32","internalType":"bytes32"}],"outputs":[],"stateMutability":"nonpayable"},{"type":"function","name":"create","inputs":[{"name":"nodeId","type":"bytes32","internalType":"bytes32"}],"outputs":[],"stateMutability":"nonpayable"},{"type":"function","name":"detachFromSchema","inputs":[{"name":"nodeId","type":"bytes32","internalType":"bytes32"}],"outputs":[],"stateMutability":"nonpayable"},{"type":"function","name":"getBody","inputs":[{"name":"nodeId","type":"bytes32","internalType":"bytes32"}],"outputs":[{"name":"","type":"bytes32[]","internalType":"bytes32[]"}],"stateMutability":"view"},{"type":"function","name":"getProperty","inputs":[{"name":"nodeId","type":"bytes32","internalType":"bytes32"},{"name":"name","type":"string","internalType":"string"}],"outputs":[{"name":"","type":"string","internalType":"string"}],"stateMutability":"view"},{"type":"function","name":"getSchema","inputs":[{"name":"nodeId","type":"bytes32","internalType":"bytes32"}],"outputs":[{"name":"hasSchema","type":"bool","internalType":"bool"},{"name":"schemaId","type":"bytes32","internalType":"bytes32"}],"stateMutability":"view"},{"type":"function","name":"setProperty","inputs":[{"name":"nodeId","type":"bytes32","internalType":"bytes32"},{"name":"name","type":"string","internalType":"string"},{"name":"value","type":"string","internalType":"string"}],"outputs":[],"stateMutability":"nonpayable"},{"type":"event","name":"BodyAppended","inputs":[{"name":"nodeId","type":"bytes32","indexed":true,"internalType":"bytes32"},{"name":"childNodeId","type":"bytes32","indexed":false,"internalType":"bytes32"}],"anonymous":false},{"type":"event","name":"PropertySet","inputs":[{"name":"nodeId","type":"bytes32","indexed":true,"internalType":"bytes32"},{"name":"name","type":"string","indexed":false,"internalType":"string"}],"anonymous":false},{"type":"event","name":"SchemaAttached","inputs":[{"name":"nodeId","type":"bytes32","indexed":true,"internalType":"bytes32"},{"name":"schemaId","type":"bytes32","indexed":false,"internalType":"bytes32"}],"anonymous":false},{"type":"event","name":"SchemaDetached","inputs":[{"name":"nodeId","type":"bytes32","indexed":true,"internalType":"bytes32"}],"anonymous":false}],"bytecode":{"object":"0x608060405234801561000f575f80fd5b506113c68061001d5f395ff3fe608060405234801561000f575f80fd5b5060043610610086575f3560e01c8063a2ea7c6e11610059578063a2ea7c6e1461010e578063a4d6975e1461013f578063bc0f3d841461016f578063f27701e71461018b57610086565b8063247692131461008a578063351cb315146100ba5780636dfcde83146100d65780637368a8ce146100f2575b5f80fd5b6100a4600480360381019061009f91906109d5565b6101a7565b6040516100b19190610ab7565b60405180910390f35b6100d460048036038101906100cf9190610b38565b61026e565b005b6100f060048036038101906100eb9190610bc9565b61034e565b005b61010c600480360381019061010791906109d5565b610470565b005b610128600480360381019061012391906109d5565b610594565b604051610136929190610c30565b60405180910390f35b61015960048036038101906101549190610c57565b610632565b6040516101669190610d3e565b60405180910390f35b61018960048036038101906101849190610bc9565b610753565b005b6101a560048036038101906101a091906109d5565b610868565b005b60605f808381526020019081526020015f2060010160019054906101000a900460ff16610209576040517f08c379a000000000000000000000000000000000000000000000000000000000815260040161020090610da8565b60405180910390fd5b60025f8381526020019081526020015f2080548060200260200160405190810160405280929190818152602001828054801561026257602002820191905f5260205f20905b81548152602001906001019080831161024e575b50505050509050919050565b5f808681526020019081526020015f2060010160019054906101000a900460ff166102ce576040517f08c379a00000000000000000000000000000000000000000000000000000000081526004016102c590610da8565b60405180910390fd5b818160015f8881526020019081526020015f2086866040516102f1929190610e02565b9081526020016040518091039020918261030c929190611054565b50847fce854b3c0ffbb5ce5310beffba7e4a7855591f3e2437cfbcc7ed1d01aac58dba858560405161033f92919061114d565b60405180910390a25050505050565b5f808381526020019081526020015f2060010160019054906101000a900460ff166103ae576040517f08c379a00000000000000000000000000000000000000000000000000000000081526004016103a590610da8565b60405180910390fd5b5f801b81036103f2576040517f08c379a00000000000000000000000000000000000000000000000000000000081526004016103e9906111b9565b60405180910390fd5b805f808481526020019081526020015f205f018190555060015f808481526020019081526020015f206001015f6101000a81548160ff021916908315150217905550817f49672344fbc25f5f121f523569416761761d9bb4d425cf6c7478040837e051118260405161046491906111d7565b60405180910390a25050565b5f801b81036104b4576040517f08c379a00000000000000000000000000000000000000000000000000000000081526004016104ab9061123a565b60405180910390fd5b5f808281526020019081526020015f2060010160019054906101000a900460ff1615610515576040517f08c379a000000000000000000000000000000000000000000000000000000000815260040161050c906112a2565b60405180910390fd5b60405180606001604052805f801b81526020015f15158152602001600115158152505f808381526020019081526020015f205f820151815f01556020820151816001015f6101000a81548160ff02191690831515021790555060408201518160010160016101000a81548160ff02191690831515021790555090505050565b5f805f808481526020019081526020015f2060010160019054906101000a900460ff166105f6576040517f08c379a00000000000000000000000000000000000000000000000000000000081526004016105ed90610da8565b60405180910390fd5b5f808481526020019081526020015f206001015f9054906101000a900460ff165f808581526020019081526020015f205f015491509150915091565b60605f808581526020019081526020015f2060010160019054906101000a900460ff16610694576040517f08c379a000000000000000000000000000000000000000000000000000000000815260040161068b90610da8565b60405180910390fd5b60015f8581526020019081526020015f2083836040516106b5929190610e02565b908152602001604051809103902080546106ce90610e7e565b80601f01602080910402602001604051908101604052809291908181526020018280546106fa90610e7e565b80156107455780601f1061071c57610100808354040283529160200191610745565b820191905f5260205f20905b81548152906001019060200180831161072857829003601f168201915b505050505090509392505050565b5f808381526020019081526020015f2060010160019054906101000a900460ff166107b3576040517f08c379a00000000000000000000000000000000000000000000000000000000081526004016107aa90610da8565b60405180910390fd5b5f801b81036107f7576040517f08c379a00000000000000000000000000000000000000000000000000000000081526004016107ee9061130a565b60405180910390fd5b60025f8381526020019081526020015f2081908060018154018082558091505060019003905f5260205f20015f9091909190915055817f8724ee0ed26880ecaa6b5a329e89700e62f27e0cc6393de10889864d3b9a4e0a8260405161085c91906111d7565b60405180910390a25050565b5f808281526020019081526020015f2060010160019054906101000a900460ff166108c8576040517f08c379a00000000000000000000000000000000000000000000000000000000081526004016108bf90610da8565b60405180910390fd5b5f808281526020019081526020015f206001015f9054906101000a900460ff16610927576040517f08c379a000000000000000000000000000000000000000000000000000000000815260040161091e90611372565b60405180910390fd5b5f801b5f808381526020019081526020015f205f01819055505f805f8381526020019081526020015f206001015f6101000a81548160ff021916908315150217905550807fe0ffb71453c31e481d38c0cc3554ead1f2219c9f50fa94bfa13971f090c12e0d60405160405180910390a250565b5f80fd5b5f80fd5b5f819050919050565b6109b4816109a2565b81146109be575f80fd5b50565b5f813590506109cf816109ab565b92915050565b5f602082840312156109ea576109e961099a565b5b5f6109f7848285016109c1565b91505092915050565b5f81519050919050565b5f82825260208201905092915050565b5f819050602082019050919050565b610a32816109a2565b82525050565b5f610a438383610a29565b60208301905092915050565b5f602082019050919050565b5f610a6582610a00565b610a6f8185610a0a565b9350610a7a83610a1a565b805f5b83811015610aaa578151610a918882610a38565b9750610a9c83610a4f565b925050600181019050610a7d565b5085935050505092915050565b5f6020820190508181035f830152610acf8184610a5b565b905092915050565b5f80fd5b5f80fd5b5f80fd5b5f8083601f840112610af857610af7610ad7565b5b8235905067ffffffffffffffff811115610b1557610b14610adb565b5b602083019150836001820283011115610b3157610b30610adf565b5b9250929050565b5f805f805f60608688031215610b5157610b5061099a565b5b5f610b5e888289016109c1565b955050602086013567ffffffffffffffff811115610b7f57610b7e61099e565b5b610b8b88828901610ae3565b9450945050604086013567ffffffffffffffff811115610bae57610bad61099e565b5b610bba88828901610ae3565b92509250509295509295909350565b5f8060408385031215610bdf57610bde61099a565b5b5f610bec858286016109c1565b9250506020610bfd858286016109c1565b9150509250929050565b5f8115159050919050565b610c1b81610c07565b82525050565b610c2a816109a2565b82525050565b5f604082019050610c435f830185610c12565b610c506020830184610c21565b9392505050565b5f805f60408486031215610c6e57610c6d61099a565b5b5f610c7b868287016109c1565b935050602084013567ffffffffffffffff811115610c9c57610c9b61099e565b5b610ca886828701610ae3565b92509250509250925092565b5f81519050919050565b5f82825260208201905092915050565b5f5b83811015610ceb578082015181840152602081019050610cd0565b5f8484015250505050565b5f601f19601f8301169050919050565b5f610d1082610cb4565b610d1a8185610cbe565b9350610d2a818560208601610cce565b610d3381610cf6565b840191505092915050565b5f6020820190508181035f830152610d568184610d06565b905092915050565b7f50616765206e6f7420666f756e640000000000000000000000000000000000005f82015250565b5f610d92600e83610cbe565b9150610d9d82610d5e565b602082019050919050565b5f6020820190508181035f830152610dbf81610d86565b9050919050565b5f81905092915050565b828183375f83830152505050565b5f610de98385610dc6565b9350610df6838584610dd0565b82840190509392505050565b5f610e0e828486610dde565b91508190509392505050565b5f82905092915050565b7f4e487b71000000000000000000000000000000000000000000000000000000005f52604160045260245ffd5b7f4e487b71000000000000000000000000000000000000000000000000000000005f52602260045260245ffd5b5f6002820490506001821680610e9557607f821691505b602082108103610ea857610ea7610e51565b5b50919050565b5f819050815f5260205f209050919050565b5f6020601f8301049050919050565b5f82821b905092915050565b5f60088302610f0a7fffffffffffffffffffffffffffffffffffffffffffffffffffffffffffffffff82610ecf565b610f148683610ecf565b95508019841693508086168417925050509392505050565b5f819050919050565b5f819050919050565b5f610f58610f53610f4e84610f2c565b610f35565b610f2c565b9050919050565b5f819050919050565b610f7183610f3e565b610f85610f7d82610f5f565b848454610edb565b825550505050565b5f90565b610f99610f8d565b610fa4818484610f68565b505050565b5b81811015610fc757610fbc5f82610f91565b600181019050610faa565b5050565b601f82111561100c57610fdd81610eae565b610fe684610ec0565b81016020851015610ff5578190505b61100961100185610ec0565b830182610fa9565b50505b505050565b5f82821c905092915050565b5f61102c5f1984600802611011565b1980831691505092915050565b5f611044838361101d565b9150826002028217905092915050565b61105e8383610e1a565b67ffffffffffffffff81111561107757611076610e24565b5b6110818254610e7e565b61108c828285610fcb565b5f601f8311600181146110b9575f84156110a7578287013590505b6110b18582611039565b865550611118565b601f1984166110c786610eae565b5f5b828110156110ee578489013582556001820191506020850194506020810190506110c9565b8683101561110b5784890135611107601f89168261101d565b8355505b6001600288020188555050505b50505050505050565b5f61112c8385610cbe565b9350611139838584610dd0565b61114283610cf6565b840190509392505050565b5f6020820190508181035f830152611166818486611121565b90509392505050565b7f536368656d612049442063616e6e6f74206265207a65726f00000000000000005f82015250565b5f6111a3601883610cbe565b91506111ae8261116f565b602082019050919050565b5f6020820190508181035f8301526111d081611197565b9050919050565b5f6020820190506111ea5f830184610c21565b92915050565b7f4e6f64652049442063616e6e6f74206265207a65726f000000000000000000005f82015250565b5f611224601683610cbe565b915061122f826111f0565b602082019050919050565b5f6020820190508181035f83015261125181611218565b9050919050565b7f5061676520616c726561647920657869737473000000000000000000000000005f82015250565b5f61128c601383610cbe565b915061129782611258565b602082019050919050565b5f6020820190508181035f8301526112b981611280565b9050919050565b7f4368696c64206e6f64652049442063616e6e6f74206265207a65726f000000005f82015250565b5f6112f4601c83610cbe565b91506112ff826112c0565b602082019050919050565b5f6020820190508181035f830152611321816112e8565b9050919050565b7f4e6f20736368656d6120617474616368656400000000000000000000000000005f82015250565b5f61135c601283610cbe565b915061136782611328565b602082019050919050565b5f6020820190508181035f83015261138981611350565b905091905056fea2646970667358221220ab17ab562198783503bbfbb5cdbc5de436e63930fac520229b075731986dc00c64736f6c63430008140033","linkReferences":{}},"methodIdentifiers":{"appendToBody(bytes32,bytes32)":"bc0f3d84","attachToSchema(bytes32,bytes32)":"6dfcde83","create(bytes32)":"7368a8ce","detachFromSchema(bytes32)":"f27701e7","getBody(bytes32)":"24769213","getProperty(bytes32,string)":"a4d6975e","getSchema(bytes32)":"a2ea7c6e","setProperty(bytes32,string,string)":"351cb315"},"id":187}