{"abi":[{"type":"function","name":"attemptResolve","inputs":[{"name":"base","type":"bytes","internalType":"bytes"},{"name":"v1","type":"bytes","internalType":"bytes"},{"name":"v2","type":"bytes","internalType":"bytes"},{"name":"context","type":"bytes","internalType":"bytes"}],"outputs":[{"name":"resolved","type":"bool","internalType":"bool"},{"name":"result","type":"bytes","internalType":"bytes"}],"stateMutability":"pure"},{"type":"function","name":"register","inputs":[],"outputs":[{"name":"name","type":"string","internalType":"string"},{"name":"category","type":"string","internalType":"string"},{"name":"priority","type":"uint256","internalType":"uint256"}],"stateMutability":"pure"},{"type":"event","name":"CannotResolve","inputs":[],"anonymous":false},{"type":"event","name":"Registered","inputs":[{"name":"name","type":"string","indexed":false,"internalType":"string"},{"name":"category","type":"string","indexed":false,"internalType":"string"},{"name":"priority","type":"uint256","indexed":false,"internalType":"uint256"}],"anonymous":false}],"bytecode":{"object":"0x608060405234801561000f575f80fd5b5061042e8061001d5f395ff3fe608060405234801561000f575f80fd5b5060043610610034575f3560e01c80631aa3a00814610038578063418f6d7814610058575b5f80fd5b610040610089565b60405161004f939291906101ce565b60405180910390f35b610072600480360381019061006d919061027a565b610108565b6040516100809291906103ca565b60405180910390f35b6060805f60636040518060400160405280600681526020017f6d616e75616c0000000000000000000000000000000000000000000000000000815250906040518060400160405280601381526020017f636f6e666c6963742d7265736f6c7574696f6e0000000000000000000000000081525090925092509250909192565b5f60605f60405180602001604052805f815250915091509850989650505050505050565b5f81519050919050565b5f82825260208201905092915050565b5f5b83811015610163578082015181840152602081019050610148565b5f8484015250505050565b5f601f19601f8301169050919050565b5f6101888261012c565b6101928185610136565b93506101a2818560208601610146565b6101ab8161016e565b840191505092915050565b5f819050919050565b6101c8816101b6565b82525050565b5f6060820190508181035f8301526101e6818661017e565b905081810360208301526101fa818561017e565b905061020960408301846101bf565b949350505050565b5f80fd5b5f80fd5b5f80fd5b5f80fd5b5f80fd5b5f8083601f84011261023a57610239610219565b5b8235905067ffffffffffffffff8111156102575761025661021d565b5b60208301915083600182028301111561027357610272610221565b5b9250929050565b5f805f805f805f806080898b03121561029657610295610211565b5b5f89013567ffffffffffffffff8111156102b3576102b2610215565b5b6102bf8b828c01610225565b9850985050602089013567ffffffffffffffff8111156102e2576102e1610215565b5b6102ee8b828c01610225565b9650965050604089013567ffffffffffffffff81111561031157610310610215565b5b61031d8b828c01610225565b9450945050606089013567ffffffffffffffff8111156103405761033f610215565b5b61034c8b828c01610225565b92509250509295985092959890939650565b5f8115159050919050565b6103728161035e565b82525050565b5f81519050919050565b5f82825260208201905092915050565b5f61039c82610378565b6103a68185610382565b93506103b6818560208601610146565b6103bf8161016e565b840191505092915050565b5f6040820190506103dd5f830185610369565b81810360208301526103ef8184610392565b9050939250505056fea2646970667358221220d8d4e7d5277d1f3fd83d017a63e2cdc2acef9bf6b38f45e222bff6067d04da4364736f6c63430008140033","linkReferences":{}},"methodIdentifiers":{"attemptResolve(bytes,bytes,bytes,bytes)":"418f6d78","register()":"1aa3a008"},"id":166}