{"abi":[{"type":"function","name":"applyConfig","inputs":[{"name":"composeFile","type":"bytes32","internalType":"bytes32"}],"outputs":[{"name":"","type":"tuple","internalType":"struct DockerComposeIacProvider.ApplyOkResult","components":[{"name":"success","type":"bool","internalType":"bool"},{"name":"composeFile","type":"bytes32","internalType":"bytes32"},{"name":"created","type":"string[]","internalType":"string[]"},{"name":"updated","type":"string[]","internalType":"string[]"}]}],"stateMutability":"nonpayable"},{"type":"function","name":"generate","inputs":[{"name":"plan","type":"string","internalType":"string"}],"outputs":[{"name":"","type":"tuple","internalType":"struct DockerComposeIacProvider.GenerateOkResult","components":[{"name":"success","type":"bool","internalType":"bool"},{"name":"composeFile","type":"bytes32","internalType":"bytes32"},{"name":"files","type":"string[]","internalType":"string[]"}]}],"stateMutability":"nonpayable"},{"type":"function","name":"preview","inputs":[{"name":"composeFile","type":"bytes32","internalType":"bytes32"}],"outputs":[{"name":"","type":"tuple","internalType":"struct DockerComposeIacProvider.PreviewOkResult","components":[{"name":"success","type":"bool","internalType":"bool"},{"name":"composeFile","type":"bytes32","internalType":"bytes32"},{"name":"toCreate","type":"int256","internalType":"int256"},{"name":"toUpdate","type":"int256","internalType":"int256"},{"name":"toDelete","type":"int256","internalType":"int256"}]}],"stateMutability":"nonpayable"},{"type":"function","name":"register","inputs":[],"outputs":[{"name":"name","type":"string","internalType":"string"},{"name":"category","type":"string","internalType":"string"},{"name":"capabilities","type":"string[]","internalType":"string[]"}],"stateMutability":"pure"},{"type":"function","name":"teardown","inputs":[{"name":"composeFile","type":"bytes32","internalType":"bytes32"}],"outputs":[{"name":"","type":"tuple","internalType":"struct DockerComposeIacProvider.TeardownOkResult","components":[{"name":"success","type":"bool","internalType":"bool"},{"name":"composeFile","type":"bytes32","internalType":"bytes32"},{"name":"destroyed","type":"string[]","internalType":"string[]"}]}],"stateMutability":"nonpayable"},{"type":"event","name":"ApplyCompleted","inputs":[{"name":"variant","type":"string","indexed":false,"internalType":"string"},{"name":"composeFile","type":"bytes32","indexed":false,"internalType":"bytes32"},{"name":"created","type":"string[]","indexed":false,"internalType":"string[]"},{"name":"updated","type":"string[]","indexed":false,"internalType":"string[]"},{"name":"port","type":"int256","indexed":false,"internalType":"int256"}],"anonymous":false},{"type":"event","name":"GenerateCompleted","inputs":[{"name":"variant","type":"string","indexed":false,"internalType":"string"},{"name":"composeFile","type":"bytes32","indexed":false,"internalType":"bytes32"},{"name":"files","type":"string[]","indexed":false,"internalType":"string[]"}],"anonymous":false},{"type":"event","name":"PreviewCompleted","inputs":[{"name":"variant","type":"string","indexed":false,"internalType":"string"},{"name":"composeFile","type":"bytes32","indexed":false,"internalType":"bytes32"},{"name":"toCreate","type":"int256","indexed":false,"internalType":"int256"},{"name":"toUpdate","type":"int256","indexed":false,"internalType":"int256"},{"name":"toDelete","type":"int256","indexed":false,"internalType":"int256"}],"anonymous":false},{"type":"event","name":"TeardownCompleted","inputs":[{"name":"variant","type":"string","indexed":false,"internalType":"string"},{"name":"composeFile","type":"bytes32","indexed":false,"internalType":"bytes32"},{"name":"destroyed","type":"string[]","indexed":false,"internalType":"string[]"}],"anonymous":false}],"bytecode":{"object":"0x608060405234801561000f575f80fd5b506118b18061001d5f395ff3fe608060405234801561000f575f80fd5b5060043610610055575f3560e01c80631aa3a0081461005957806331a30ea01461007957806332752c85146100a95780637501d837146100d9578063c3d670fe14610109575b5f80fd5b610061610139565b60405161007093929190610c9d565b60405180910390f35b610093600480360381019061008e9190610d2b565b610357565b6040516100a09190610dfd565b60405180910390f35b6100c360048036038101906100be9190610d2b565b61042c565b6040516100d09190610ee6565b60405180910390f35b6100f360048036038101906100ee9190610d2b565b6105f8565b6040516101009190610f6d565b60405180910390f35b610123600480360381019061011e91906110b9565b6107e7565b604051610130919061114d565b60405180910390f35b60608060606040518060400160405280600e81526020017f646f636b65722d636f6d706f736500000000000000000000000000000000000081525092506040518060400160405280600381526020017f69616300000000000000000000000000000000000000000000000000000000008152509150600467ffffffffffffffff8111156101c9576101c8610f95565b5b6040519080825280602002602001820160405280156101fc57816020015b60608152602001906001900390816101e75790505b5090506040518060400160405280600881526020017f67656e6572617465000000000000000000000000000000000000000000000000815250815f815181106102485761024761116d565b5b60200260200101819052506040518060400160405280600781526020017f70726576696577000000000000000000000000000000000000000000000000008152508160018151811061029d5761029c61116d565b5b60200260200101819052506040518060400160405280600581526020017f6170706c79000000000000000000000000000000000000000000000000000000815250816002815181106102f2576102f161116d565b5b60200260200101819052506040518060400160405280600881526020017f74656172646f776e000000000000000000000000000000000000000000000000815250816003815181106103475761034661116d565b5b6020026020010181905250909192565b61035f610a16565b60015f8381526020019081526020015f205f9054906101000a900460ff166103bc576040517f08c379a00000000000000000000000000000000000000000000000000000000081526004016103b39061120a565b60405180910390fd5b7f6afb49f6679b902f52f349e5e13c22bab06e51020e3b76925d515efa017b3f0a8260015f806040516103f29493929190611290565b60405180910390a16040518060a00160405280600115158152602001838152602001600181526020015f81526020015f8152509050919050565b610434610a45565b60015f8381526020019081526020015f205f9054906101000a900460ff16610491576040517f08c379a000000000000000000000000000000000000000000000000000000000815260040161048890611330565b60405180910390fd5b5f600167ffffffffffffffff8111156104ad576104ac610f95565b5b6040519080825280602002602001820160405280156104e057816020015b60608152602001906001900390816104cb5790505b5090506040518060400160405280600b81526020017f6170702d73657276696365000000000000000000000000000000000000000000815250815f8151811061052c5761052b61116d565b5b60200260200101819052505f60015f8581526020019081526020015f205f6101000a81548160ff0219169083151502179055505f808481526020019081526020015f205f61057a9190610a69565b60035f8481526020019081526020015f205f6101000a81549060ff02191690557e6c8bc964aec81b5e6cfed49a4c2450aa85d712c84ac472fb04a6cec5bd076383826040516105ca92919061134e565b60405180910390a1604051806060016040528060011515815260200184815260200182815250915050919050565b610600610aa6565b60015f8381526020019081526020015f205f9054906101000a900460ff1661065d576040517f08c379a00000000000000000000000000000000000000000000000000000000081526004016106549061120a565b60405180910390fd5b600160035f8481526020019081526020015f205f6101000a81548160ff0219169083151502179055505f600167ffffffffffffffff8111156106a2576106a1610f95565b5b6040519080825280602002602001820160405280156106d557816020015b60608152602001906001900390816106c05790505b5090506040518060400160405280600b81526020017f6170702d73657276696365000000000000000000000000000000000000000000815250815f815181106107215761072061116d565b5b60200260200101819052505f8067ffffffffffffffff81111561074757610746610f95565b5b60405190808252806020026020018201604052801561077a57816020015b60608152602001906001900390816107655790505b5090507f6f45714c2a6ef44bc7436a4561bd56fc164949933544aec65e26cdb9ca3b582d8483835f6040516107b2949392919061138f565b60405180910390a160405180608001604052806001151581526020018581526020018381526020018281525092505050919050565b6107ef610ad1565b5f825111610832576040517f08c379a00000000000000000000000000000000000000000000000000000000081526004016108299061143d565b60405180910390fd5b5f82423360405160200161084893929190611533565b604051602081830303815290604052805190602001209050824260405160200161087392919061157a565b6040516020818303038152906040525f808381526020019081526020015f20908161089e91906117ac565b5060015f8281526020019081526020015f205f9054906101000a900460ff16610910576001805f8381526020019081526020015f205f6101000a81548160ff021916908315150217905550600281908060018154018082558091505060019003905f5260205f20015f90919091909150555b5f600167ffffffffffffffff81111561092c5761092b610f95565b5b60405190808252806020026020018201604052801561095f57816020015b606081526020019060019003908161094a5790505b5090506040518060400160405280601381526020017f646f636b65722d636f6d706f73652e79616d6c00000000000000000000000000815250815f815181106109ab576109aa61116d565b5b60200260200101819052507f0da97dbf1aebb3e58f3b32b67a8ac71e19e73bb343e3d7daac7c1a8a432f6d1b82826040516109e792919061134e565b60405180910390a160405180606001604052806001151581526020018381526020018281525092505050919050565b6040518060a001604052805f151581526020015f80191681526020015f81526020015f81526020015f81525090565b60405180606001604052805f151581526020015f8019168152602001606081525090565b508054610a75906115df565b5f825580601f10610a865750610aa3565b601f0160209004905f5260205f2090810190610aa29190610af5565b5b50565b60405180608001604052805f151581526020015f801916815260200160608152602001606081525090565b60405180606001604052805f151581526020015f8019168152602001606081525090565b5b80821115610b0c575f815f905550600101610af6565b5090565b5f81519050919050565b5f82825260208201905092915050565b5f5b83811015610b47578082015181840152602081019050610b2c565b5f8484015250505050565b5f601f19601f8301169050919050565b5f610b6c82610b10565b610b768185610b1a565b9350610b86818560208601610b2a565b610b8f81610b52565b840191505092915050565b5f81519050919050565b5f82825260208201905092915050565b5f819050602082019050919050565b5f82825260208201905092915050565b5f610bdd82610b10565b610be78185610bc3565b9350610bf7818560208601610b2a565b610c0081610b52565b840191505092915050565b5f610c168383610bd3565b905092915050565b5f602082019050919050565b5f610c3482610b9a565b610c3e8185610ba4565b935083602082028501610c5085610bb4565b805f5b85811015610c8b5784840389528151610c6c8582610c0b565b9450610c7783610c1e565b925060208a01995050600181019050610c53565b50829750879550505050505092915050565b5f6060820190508181035f830152610cb58186610b62565b90508181036020830152610cc98185610b62565b90508181036040830152610cdd8184610c2a565b9050949350505050565b5f604051905090565b5f80fd5b5f80fd5b5f819050919050565b610d0a81610cf8565b8114610d14575f80fd5b50565b5f81359050610d2581610d01565b92915050565b5f60208284031215610d4057610d3f610cf0565b5b5f610d4d84828501610d17565b91505092915050565b5f8115159050919050565b610d6a81610d56565b82525050565b610d7981610cf8565b82525050565b5f819050919050565b610d9181610d7f565b82525050565b60a082015f820151610dab5f850182610d61565b506020820151610dbe6020850182610d70565b506040820151610dd16040850182610d88565b506060820151610de46060850182610d88565b506080820151610df76080850182610d88565b50505050565b5f60a082019050610e105f830184610d97565b92915050565b5f82825260208201905092915050565b5f610e3082610b9a565b610e3a8185610e16565b935083602082028501610e4c85610bb4565b805f5b85811015610e875784840389528151610e688582610c0b565b9450610e7383610c1e565b925060208a01995050600181019050610e4f565b50829750879550505050505092915050565b5f606083015f830151610eae5f860182610d61565b506020830151610ec16020860182610d70565b5060408301518482036040860152610ed98282610e26565b9150508091505092915050565b5f6020820190508181035f830152610efe8184610e99565b905092915050565b5f608083015f830151610f1b5f860182610d61565b506020830151610f2e6020860182610d70565b5060408301518482036040860152610f468282610e26565b91505060608301518482036060860152610f608282610e26565b9150508091505092915050565b5f6020820190508181035f830152610f858184610f06565b905092915050565b5f80fd5b5f80fd5b7f4e487b71000000000000000000000000000000000000000000000000000000005f52604160045260245ffd5b610fcb82610b52565b810181811067ffffffffffffffff82111715610fea57610fe9610f95565b5b80604052505050565b5f610ffc610ce7565b90506110088282610fc2565b919050565b5f67ffffffffffffffff82111561102757611026610f95565b5b61103082610b52565b9050602081019050919050565b828183375f83830152505050565b5f61105d6110588461100d565b610ff3565b90508281526020810184848401111561107957611078610f91565b5b61108484828561103d565b509392505050565b5f82601f8301126110a05761109f610f8d565b5b81356110b084826020860161104b565b91505092915050565b5f602082840312156110ce576110cd610cf0565b5b5f82013567ffffffffffffffff8111156110eb576110ea610cf4565b5b6110f78482850161108c565b91505092915050565b5f606083015f8301516111155f860182610d61565b5060208301516111286020860182610d70565b50604083015184820360408601526111408282610e26565b9150508091505092915050565b5f6020820190508181035f8301526111658184611100565b905092915050565b7f4e487b71000000000000000000000000000000000000000000000000000000005f52603260045260245ffd5b7f436f6d706f73652066696c65206e6f7420666f756e64202d2067656e657261745f8201527f6520666972737400000000000000000000000000000000000000000000000000602082015250565b5f6111f4602783610b1a565b91506111ff8261119a565b604082019050919050565b5f6020820190508181035f830152611221816111e8565b9050919050565b7f6f6b0000000000000000000000000000000000000000000000000000000000005f82015250565b5f61125c600283610b1a565b915061126782611228565b602082019050919050565b61127b81610cf8565b82525050565b61128a81610d7f565b82525050565b5f60a0820190508181035f8301526112a781611250565b90506112b66020830187611272565b6112c36040830186611281565b6112d06060830185611281565b6112dd6080830184611281565b95945050505050565b7f436f6d706f73652066696c65206e6f7420666f756e64000000000000000000005f82015250565b5f61131a601683610b1a565b9150611325826112e6565b602082019050919050565b5f6020820190508181035f8301526113478161130e565b9050919050565b5f6060820190508181035f83015261136581611250565b90506113746020830185611272565b81810360408301526113868184610c2a565b90509392505050565b5f60a0820190508181035f8301526113a681611250565b90506113b56020830187611272565b81810360408301526113c78186610c2a565b905081810360608301526113db8185610c2a565b90506113ea6080830184611281565b95945050505050565b7f506c616e206d757374206e6f7420626520656d707479000000000000000000005f82015250565b5f611427601683610b1a565b9150611432826113f3565b602082019050919050565b5f6020820190508181035f8301526114548161141b565b9050919050565b5f81905092915050565b5f61146f82610b10565b611479818561145b565b9350611489818560208601610b2a565b80840191505092915050565b5f819050919050565b5f819050919050565b6114b86114b382611495565b61149e565b82525050565b5f73ffffffffffffffffffffffffffffffffffffffff82169050919050565b5f6114e7826114be565b9050919050565b5f8160601b9050919050565b5f611504826114ee565b9050919050565b5f611515826114fa565b9050919050565b61152d611528826114dd565b61150b565b82525050565b5f61153e8286611465565b915061154a82856114a7565b60208201915061155a828461151c565b601482019150819050949350505050565b61157481611495565b82525050565b5f6040820190508181035f8301526115928185610b62565b90506115a1602083018461156b565b9392505050565b5f81519050919050565b7f4e487b71000000000000000000000000000000000000000000000000000000005f52602260045260245ffd5b5f60028204905060018216806115f657607f821691505b602082108103611609576116086115b2565b5b50919050565b5f819050815f5260205f209050919050565b5f6020601f8301049050919050565b5f82821b905092915050565b5f6008830261166b7fffffffffffffffffffffffffffffffffffffffffffffffffffffffffffffffff82611630565b6116758683611630565b95508019841693508086168417925050509392505050565b5f819050919050565b5f6116b06116ab6116a684611495565b61168d565b611495565b9050919050565b5f819050919050565b6116c983611696565b6116dd6116d5826116b7565b84845461163c565b825550505050565b5f90565b6116f16116e5565b6116fc8184846116c0565b505050565b5b8181101561171f576117145f826116e9565b600181019050611702565b5050565b601f821115611764576117358161160f565b61173e84611621565b8101602085101561174d578190505b61176161175985611621565b830182611701565b50505b505050565b5f82821c905092915050565b5f6117845f1984600802611769565b1980831691505092915050565b5f61179c8383611775565b9150826002028217905092915050565b6117b5826115a8565b67ffffffffffffffff8111156117ce576117cd610f95565b5b6117d882546115df565b6117e3828285611723565b5f60209050601f831160018114611814575f8415611802578287015190505b61180c8582611791565b865550611873565b601f1984166118228661160f565b5f5b8281101561184957848901518255600182019150602085019450602081019050611824565b868310156118665784890151611862601f891682611775565b8355505b6001600288020188555050505b50505050505056fea2646970667358221220dd53da6242a8c6bdb71f345f60199ec8a7638a318984d429789b64701aa3b7ef64736f6c63430008140033","linkReferences":{}},"methodIdentifiers":{"applyConfig(bytes32)":"7501d837","generate(string)":"c3d670fe","preview(bytes32)":"31a30ea0","register()":"1aa3a008","teardown(bytes32)":"32752c85"},"id":102}