{"abi":[{"type":"function","name":"generate","inputs":[{"name":"projection","type":"string","internalType":"string"},{"name":"config","type":"string","internalType":"string"}],"outputs":[{"name":"","type":"tuple","internalType":"struct GoSdkTarget.GenerateOkResult","components":[{"name":"success","type":"bool","internalType":"bool"},{"name":"module","type":"bytes32","internalType":"bytes32"},{"name":"files","type":"string[]","internalType":"string[]"}]}],"stateMutability":"nonpayable"},{"type":"function","name":"register","inputs":[],"outputs":[{"name":"name","type":"string","internalType":"string"},{"name":"category","type":"string","internalType":"string"},{"name":"language","type":"string","internalType":"string"}],"stateMutability":"pure"},{"type":"event","name":"GenerateCompleted","inputs":[{"name":"variant","type":"string","indexed":false,"internalType":"string"},{"name":"module","type":"bytes32","indexed":false,"internalType":"bytes32"},{"name":"files","type":"string[]","indexed":false,"internalType":"string[]"}],"anonymous":false}],"bytecode":{"object":"0x608060405234801561000f575f80fd5b50610f148061001d5f395ff3fe608060405234801561000f575f80fd5b5060043610610034575f3560e01c80631aa3a00814610038578063632735ad14610058575b5f80fd5b610040610088565b60405161004f93929190610478565b60405180910390f35b610072600480360381019061006d91906105ff565b61013a565b60405161007f91906107f7565b60405180910390f35b60608060606040518060400160405280600681526020017f676f2d73646b000000000000000000000000000000000000000000000000000081525092506040518060400160405280600a81526020017f73646b2d7461726765740000000000000000000000000000000000000000000081525091506040518060400160405280600281526020017f676f0000000000000000000000000000000000000000000000000000000000008152509050909192565b6101426103ca565b5f835111610185576040517f08c379a000000000000000000000000000000000000000000000000000000000815260040161017c90610861565b60405180910390fd5b5f838360035460405160200161019d939291906108e2565b60405160208183030381529060405280519060200120905060035f8154809291906101c790610943565b91905055505f808281526020019081526020015f205f9054906101000a900460ff1661023c5760015f808381526020019081526020015f205f6101000a81548160ff021916908315150217905550600181908060018154018082558091505060019003905f5260205f20015f90919091909150555b8360025f8381526020019081526020015f20908161025a9190610b84565b505f600367ffffffffffffffff811115610277576102766104db565b5b6040519080825280602002602001820160405280156102aa57816020015b60608152602001906001900390816102955790505b509050846040516020016102be9190610c9d565b604051602081830303815290604052815f815181106102e0576102df610cbe565b5b6020026020010181905250846040516020016102fc9190610d35565b6040516020818303038152906040528160018151811061031f5761031e610cbe565b5b60200260200101819052508460405160200161033b9190610da0565b6040516020818303038152906040528160028151811061035e5761035d610cbe565b5b60200260200101819052507f0da97dbf1aebb3e58f3b32b67a8ac71e19e73bb343e3d7daac7c1a8a432f6d1b828260405161039a929190610e9d565b60405180910390a16040518060600160405280600115158152602001838152602001828152509250505092915050565b60405180606001604052805f151581526020015f8019168152602001606081525090565b5f81519050919050565b5f82825260208201905092915050565b5f5b8381101561042557808201518184015260208101905061040a565b5f8484015250505050565b5f601f19601f8301169050919050565b5f61044a826103ee565b61045481856103f8565b9350610464818560208601610408565b61046d81610430565b840191505092915050565b5f6060820190508181035f8301526104908186610440565b905081810360208301526104a48185610440565b905081810360408301526104b88184610440565b9050949350505050565b5f604051905090565b5f80fd5b5f80fd5b5f80fd5b5f80fd5b7f4e487b71000000000000000000000000000000000000000000000000000000005f52604160045260245ffd5b61051182610430565b810181811067ffffffffffffffff821117156105305761052f6104db565b5b80604052505050565b5f6105426104c2565b905061054e8282610508565b919050565b5f67ffffffffffffffff82111561056d5761056c6104db565b5b61057682610430565b9050602081019050919050565b828183375f83830152505050565b5f6105a361059e84610553565b610539565b9050828152602081018484840111156105bf576105be6104d7565b5b6105ca848285610583565b509392505050565b5f82601f8301126105e6576105e56104d3565b5b81356105f6848260208601610591565b91505092915050565b5f8060408385031215610615576106146104cb565b5b5f83013567ffffffffffffffff811115610632576106316104cf565b5b61063e858286016105d2565b925050602083013567ffffffffffffffff81111561065f5761065e6104cf565b5b61066b858286016105d2565b9150509250929050565b5f8115159050919050565b61068981610675565b82525050565b5f819050919050565b6106a18161068f565b82525050565b5f81519050919050565b5f82825260208201905092915050565b5f819050602082019050919050565b5f82825260208201905092915050565b5f6106ea826103ee565b6106f481856106d0565b9350610704818560208601610408565b61070d81610430565b840191505092915050565b5f61072383836106e0565b905092915050565b5f602082019050919050565b5f610741826106a7565b61074b81856106b1565b93508360208202850161075d856106c1565b805f5b8581101561079857848403895281516107798582610718565b94506107848361072b565b925060208a01995050600181019050610760565b50829750879550505050505092915050565b5f606083015f8301516107bf5f860182610680565b5060208301516107d26020860182610698565b50604083015184820360408601526107ea8282610737565b9150508091505092915050565b5f6020820190508181035f83015261080f81846107aa565b905092915050565b7f50726f6a656374696f6e2063616e6e6f7420626520656d7074790000000000005f82015250565b5f61084b601a836103f8565b915061085682610817565b602082019050919050565b5f6020820190508181035f8301526108788161083f565b9050919050565b5f81905092915050565b5f610893826103ee565b61089d818561087f565b93506108ad818560208601610408565b80840191505092915050565b5f819050919050565b5f819050919050565b6108dc6108d7826108b9565b6108c2565b82525050565b5f6108ed8286610889565b91506108f98285610889565b915061090582846108cb565b602082019150819050949350505050565b7f4e487b71000000000000000000000000000000000000000000000000000000005f52601160045260245ffd5b5f61094d826108b9565b91507fffffffffffffffffffffffffffffffffffffffffffffffffffffffffffffffff820361097f5761097e610916565b5b600182019050919050565b7f4e487b71000000000000000000000000000000000000000000000000000000005f52602260045260245ffd5b5f60028204905060018216806109ce57607f821691505b6020821081036109e1576109e061098a565b5b50919050565b5f819050815f5260205f209050919050565b5f6020601f8301049050919050565b5f82821b905092915050565b5f60088302610a437fffffffffffffffffffffffffffffffffffffffffffffffffffffffffffffffff82610a08565b610a4d8683610a08565b95508019841693508086168417925050509392505050565b5f819050919050565b5f610a88610a83610a7e846108b9565b610a65565b6108b9565b9050919050565b5f819050919050565b610aa183610a6e565b610ab5610aad82610a8f565b848454610a14565b825550505050565b5f90565b610ac9610abd565b610ad4818484610a98565b505050565b5b81811015610af757610aec5f82610ac1565b600181019050610ada565b5050565b601f821115610b3c57610b0d816109e7565b610b16846109f9565b81016020851015610b25578190505b610b39610b31856109f9565b830182610ad9565b50505b505050565b5f82821c905092915050565b5f610b5c5f1984600802610b41565b1980831691505092915050565b5f610b748383610b4d565b9150826002028217905092915050565b610b8d826103ee565b67ffffffffffffffff811115610ba657610ba56104db565b5b610bb082546109b7565b610bbb828285610afb565b5f60209050601f831160018114610bec575f8415610bda578287015190505b610be48582610b69565b865550610c4b565b601f198416610bfa866109e7565b5f5b82811015610c2157848901518255600182019150602085019450602081019050610bfc565b86831015610c3e5784890151610c3a601f891682610b4d565b8355505b6001600288020188555050505b505050505050565b7f2f636c69656e742e676f000000000000000000000000000000000000000000005f82015250565b5f610c87600a8361087f565b9150610c9282610c53565b600a82019050919050565b5f610ca88284610889565b9150610cb382610c7b565b915081905092915050565b7f4e487b71000000000000000000000000000000000000000000000000000000005f52603260045260245ffd5b7f2f74797065732e676f00000000000000000000000000000000000000000000005f82015250565b5f610d1f60098361087f565b9150610d2a82610ceb565b600982019050919050565b5f610d408284610889565b9150610d4b82610d13565b915081905092915050565b7f2f676f2e6d6f64000000000000000000000000000000000000000000000000005f82015250565b5f610d8a60078361087f565b9150610d9582610d56565b600782019050919050565b5f610dab8284610889565b9150610db682610d7e565b915081905092915050565b7f6f6b0000000000000000000000000000000000000000000000000000000000005f82015250565b5f610df56002836103f8565b9150610e0082610dc1565b602082019050919050565b610e148161068f565b82525050565b5f82825260208201905092915050565b5f610e34826106a7565b610e3e8185610e1a565b935083602082028501610e50856106c1565b805f5b85811015610e8b5784840389528151610e6c8582610718565b9450610e778361072b565b925060208a01995050600181019050610e53565b50829750879550505050505092915050565b5f6060820190508181035f830152610eb481610de9565b9050610ec36020830185610e0b565b8181036040830152610ed58184610e2a565b9050939250505056fea26469706673582212203b9ffb9ad4b5c0591efbac34a3feb8ab5879dd4e6d20b92450469c775ab1ec6964736f6c63430008140033","linkReferences":{}},"methodIdentifiers":{"generate(string,string)":"632735ad","register()":"1aa3a008"},"id":135}