{"abi":[{"type":"function","name":"fetch","inputs":[{"name":"secretId","type":"string","internalType":"string"},{"name":"versionStage","type":"string","internalType":"string"}],"outputs":[{"name":"","type":"tuple","internalType":"struct AwsSmProvider.FetchOkResult","components":[{"name":"success","type":"bool","internalType":"bool"},{"name":"value","type":"string","internalType":"string"},{"name":"versionId","type":"string","internalType":"string"},{"name":"arn","type":"string","internalType":"string"}]}],"stateMutability":"nonpayable"},{"type":"function","name":"register","inputs":[],"outputs":[{"name":"name","type":"string","internalType":"string"},{"name":"category","type":"string","internalType":"string"},{"name":"capabilities","type":"string[]","internalType":"string[]"}],"stateMutability":"pure"},{"type":"function","name":"rotate","inputs":[{"name":"secretId","type":"string","internalType":"string"}],"outputs":[{"name":"","type":"tuple","internalType":"struct AwsSmProvider.RotateOkResult","components":[{"name":"success","type":"bool","internalType":"bool"},{"name":"secretId","type":"string","internalType":"string"},{"name":"newVersionId","type":"string","internalType":"string"}]}],"stateMutability":"nonpayable"},{"type":"event","name":"FetchCompleted","inputs":[{"name":"variant","type":"string","indexed":false,"internalType":"string"}],"anonymous":false},{"type":"event","name":"RotateCompleted","inputs":[{"name":"variant","type":"string","indexed":false,"internalType":"string"}],"anonymous":false}],"bytecode":{"object":"0x608060405234801561000f575f80fd5b506113e38061001d5f395ff3fe608060405234801561000f575f80fd5b506004361061003f575f3560e01c80631aa3a008146100435780635a24152214610063578063e207bc0c14610093575b5f80fd5b61004b6100c3565b60405161005a93929190610907565b60405180910390f35b61007d60048036038101906100789190610a8e565b610237565b60405161008a9190610b43565b60405180910390f35b6100ad60048036038101906100a89190610b63565b6103c7565b6040516100ba9190610c47565b60405180910390f35b60608060606040518060400160405280600681526020017f6177732d736d000000000000000000000000000000000000000000000000000081525092506040518060400160405280600681526020017f73656372657400000000000000000000000000000000000000000000000000008152509150600267ffffffffffffffff8111156101535761015261096a565b5b60405190808252806020026020018201604052801561018657816020015b60608152602001906001900390816101715790505b5090506040518060400160405280600581526020017f6665746368000000000000000000000000000000000000000000000000000000815250815f815181106101d2576101d1610c67565b5b60200260200101819052506040518060400160405280600681526020017f726f7461746500000000000000000000000000000000000000000000000000008152508160018151811061022757610226610c67565b5b6020026020010181905250909192565b61023f61072f565b5f826040516020016102519190610cce565b60405160208183030381529060405280519060200120905060015f8281526020019081526020015f205f9054906101000a900460ff166102c6576040517f08c379a00000000000000000000000000000000000000000000000000000000081526004016102bd90610d2e565b60405180910390fd5b600160035f8381526020019081526020015f205f8282546102e79190610d82565b925050819055505f61030960035f8481526020019081526020015f20546105d6565b6040516020016103199190610dff565b604051602081830303815290604052905083814260405160200161033f93929190610e2f565b6040516020818303038152906040525f808481526020019081526020015f20908161036a9190611076565b507f64a0f5d1e9bdc96e4be4e7dceb4fae69c5740a774a88f9c964c39af6e37171a66040516103989061118f565b60405180910390a160405180606001604052806001151581526020018581526020018281525092505050919050565b6103cf610751565b5f835111610412576040517f08c379a0000000000000000000000000000000000000000000000000000000008152600401610409906111f7565b60405180910390fd5b5f836040516020016104249190610cce565b60405160208183030381529060405280519060200120905060015f8281526020019081526020015f205f9054906101000a900460ff16610505576001805f8381526020019081526020015f205f6101000a81548160ff021916908315150217905550600281908060018154018082558091505060019003905f5260205f20015f9091909190915055600160035f8381526020019081526020015f20819055508383426040516020016104d893929190610e2f565b6040516020818303038152906040525f808381526020019081526020015f2090816105039190611076565b505b5f61052060035f8481526020019081526020015f20546105d6565b6040516020016105309190610dff565b60405160208183030381529060405290505f856040516020016105539190611285565b60405160208183030381529060405290507f1d1ab172d474a1b75efa42e5c9b0a44ff06885185f7f51268df2f36f30ebbc306040516105919061118f565b60405180910390a1604051806080016040528060011515815260200160405180602001604052805f815250815260200183815260200182815250935050505092915050565b60605f820361061c576040518060400160405280600181526020017f3000000000000000000000000000000000000000000000000000000000000000815250905061072a565b5f8290505f5b5f821461064b578080610634906112a6565b915050600a82610644919061131a565b9150610622565b5f8167ffffffffffffffff8111156106665761066561096a565b5b6040519080825280601f01601f1916602001820160405280156106985781602001600182028036833780820191505090505b5090505b5f8514610723576001826106b0919061134a565b9150600a856106bf919061137d565b60306106cb9190610d82565b60f81b8183815181106106e1576106e0610c67565b5b60200101907effffffffffffffffffffffffffffffffffffffffffffffffffffffffffffff191690815f1a905350600a8561071c919061131a565b945061069c565b8093505050505b919050565b60405180606001604052805f1515815260200160608152602001606081525090565b60405180608001604052805f151581526020016060815260200160608152602001606081525090565b5f81519050919050565b5f82825260208201905092915050565b5f5b838110156107b1578082015181840152602081019050610796565b5f8484015250505050565b5f601f19601f8301169050919050565b5f6107d68261077a565b6107e08185610784565b93506107f0818560208601610794565b6107f9816107bc565b840191505092915050565b5f81519050919050565b5f82825260208201905092915050565b5f819050602082019050919050565b5f82825260208201905092915050565b5f6108478261077a565b610851818561082d565b9350610861818560208601610794565b61086a816107bc565b840191505092915050565b5f610880838361083d565b905092915050565b5f602082019050919050565b5f61089e82610804565b6108a8818561080e565b9350836020820285016108ba8561081e565b805f5b858110156108f557848403895281516108d68582610875565b94506108e183610888565b925060208a019950506001810190506108bd565b50829750879550505050505092915050565b5f6060820190508181035f83015261091f81866107cc565b9050818103602083015261093381856107cc565b905081810360408301526109478184610894565b9050949350505050565b5f604051905090565b5f80fd5b5f80fd5b5f80fd5b5f80fd5b7f4e487b71000000000000000000000000000000000000000000000000000000005f52604160045260245ffd5b6109a0826107bc565b810181811067ffffffffffffffff821117156109bf576109be61096a565b5b80604052505050565b5f6109d1610951565b90506109dd8282610997565b919050565b5f67ffffffffffffffff8211156109fc576109fb61096a565b5b610a05826107bc565b9050602081019050919050565b828183375f83830152505050565b5f610a32610a2d846109e2565b6109c8565b905082815260208101848484011115610a4e57610a4d610966565b5b610a59848285610a12565b509392505050565b5f82601f830112610a7557610a74610962565b5b8135610a85848260208601610a20565b91505092915050565b5f60208284031215610aa357610aa261095a565b5b5f82013567ffffffffffffffff811115610ac057610abf61095e565b5b610acc84828501610a61565b91505092915050565b5f8115159050919050565b610ae981610ad5565b82525050565b5f606083015f830151610b045f860182610ae0565b5060208301518482036020860152610b1c828261083d565b91505060408301518482036040860152610b36828261083d565b9150508091505092915050565b5f6020820190508181035f830152610b5b8184610aef565b905092915050565b5f8060408385031215610b7957610b7861095a565b5b5f83013567ffffffffffffffff811115610b9657610b9561095e565b5b610ba285828601610a61565b925050602083013567ffffffffffffffff811115610bc357610bc261095e565b5b610bcf85828601610a61565b9150509250929050565b5f608083015f830151610bee5f860182610ae0565b5060208301518482036020860152610c06828261083d565b91505060408301518482036040860152610c20828261083d565b91505060608301518482036060860152610c3a828261083d565b9150508091505092915050565b5f6020820190508181035f830152610c5f8184610bd9565b905092915050565b7f4e487b71000000000000000000000000000000000000000000000000000000005f52603260045260245ffd5b5f81905092915050565b5f610ca88261077a565b610cb28185610c94565b9350610cc2818560208601610794565b80840191505092915050565b5f610cd98284610c9e565b915081905092915050565b7f536563726574206e6f7420666f756e64202d20666574636820666972737400005f82015250565b5f610d18601e83610784565b9150610d2382610ce4565b602082019050919050565b5f6020820190508181035f830152610d4581610d0c565b9050919050565b5f819050919050565b7f4e487b71000000000000000000000000000000000000000000000000000000005f52601160045260245ffd5b5f610d8c82610d4c565b9150610d9783610d4c565b9250828201905080821115610daf57610dae610d55565b5b92915050565b7f76000000000000000000000000000000000000000000000000000000000000005f82015250565b5f610de9600183610c94565b9150610df482610db5565b600182019050919050565b5f610e0982610ddd565b9150610e158284610c9e565b915081905092915050565b610e2981610d4c565b82525050565b5f6060820190508181035f830152610e4781866107cc565b90508181036020830152610e5b81856107cc565b9050610e6a6040830184610e20565b949350505050565b5f81519050919050565b7f4e487b71000000000000000000000000000000000000000000000000000000005f52602260045260245ffd5b5f6002820490506001821680610ec057607f821691505b602082108103610ed357610ed2610e7c565b5b50919050565b5f819050815f5260205f209050919050565b5f6020601f8301049050919050565b5f82821b905092915050565b5f60088302610f357fffffffffffffffffffffffffffffffffffffffffffffffffffffffffffffffff82610efa565b610f3f8683610efa565b95508019841693508086168417925050509392505050565b5f819050919050565b5f610f7a610f75610f7084610d4c565b610f57565b610d4c565b9050919050565b5f819050919050565b610f9383610f60565b610fa7610f9f82610f81565b848454610f06565b825550505050565b5f90565b610fbb610faf565b610fc6818484610f8a565b505050565b5b81811015610fe957610fde5f82610fb3565b600181019050610fcc565b5050565b601f82111561102e57610fff81610ed9565b61100884610eeb565b81016020851015611017578190505b61102b61102385610eeb565b830182610fcb565b50505b505050565b5f82821c905092915050565b5f61104e5f1984600802611033565b1980831691505092915050565b5f611066838361103f565b9150826002028217905092915050565b61107f82610e72565b67ffffffffffffffff8111156110985761109761096a565b5b6110a28254610ea9565b6110ad828285610fed565b5f60209050601f8311600181146110de575f84156110cc578287015190505b6110d6858261105b565b86555061113d565b601f1984166110ec86610ed9565b5f5b82811015611113578489015182556001820191506020850194506020810190506110ee565b86831015611130578489015161112c601f89168261103f565b8355505b6001600288020188555050505b505050505050565b7f6f6b0000000000000000000000000000000000000000000000000000000000005f82015250565b5f611179600283610784565b915061118482611145565b602082019050919050565b5f6020820190508181035f8301526111a68161116d565b9050919050565b7f536563726574204944206d757374206e6f7420626520656d70747900000000005f82015250565b5f6111e1601b83610784565b91506111ec826111ad565b602082019050919050565b5f6020820190508181035f83015261120e816111d5565b9050919050565b7f61726e3a6177733a736563726574736d616e616765723a75732d656173742d315f8201527f3a3030303030303030303030303a7365637265743a0000000000000000000000602082015250565b5f61126f603583610c94565b915061127a82611215565b603582019050919050565b5f61128f82611263565b915061129b8284610c9e565b915081905092915050565b5f6112b082610d4c565b91507fffffffffffffffffffffffffffffffffffffffffffffffffffffffffffffffff82036112e2576112e1610d55565b5b600182019050919050565b7f4e487b71000000000000000000000000000000000000000000000000000000005f52601260045260245ffd5b5f61132482610d4c565b915061132f83610d4c565b92508261133f5761133e6112ed565b5b828204905092915050565b5f61135482610d4c565b915061135f83610d4c565b925082820390508181111561137757611376610d55565b5b92915050565b5f61138782610d4c565b915061139283610d4c565b9250826113a2576113a16112ed565b5b82820690509291505056fea2646970667358221220cf88782bf52a3c8b3a3096c15a629fb4d8eb68643fd9d36b1cb612f6409550c264736f6c63430008140033","linkReferences":{}},"methodIdentifiers":{"fetch(string,string)":"e207bc0c","register()":"1aa3a008","rotate(string)":"5a241522"},"id":39}