{"abi":[{"type":"function","name":"cacheResult","inputs":[{"name":"formulaId","type":"bytes32","internalType":"bytes32"},{"name":"result","type":"string","internalType":"string"}],"outputs":[],"stateMutability":"nonpayable"},{"type":"function","name":"formulaExists","inputs":[{"name":"formulaId","type":"bytes32","internalType":"bytes32"}],"outputs":[{"name":"","type":"bool","internalType":"bool"}],"stateMutability":"view"},{"type":"function","name":"getFormula","inputs":[{"name":"formulaId","type":"bytes32","internalType":"bytes32"}],"outputs":[{"name":"","type":"tuple","internalType":"struct Formula.FormulaData","components":[{"name":"expression","type":"string","internalType":"string"},{"name":"dependencies","type":"string","internalType":"string"},{"name":"cachedResult","type":"string","internalType":"string"},{"name":"lastEvaluated","type":"uint256","internalType":"uint256"},{"name":"exists","type":"bool","internalType":"bool"}]}],"stateMutability":"view"},{"type":"function","name":"invalidate","inputs":[{"name":"formulaId","type":"bytes32","internalType":"bytes32"}],"outputs":[],"stateMutability":"nonpayable"},{"type":"function","name":"setExpression","inputs":[{"name":"formulaId","type":"bytes32","internalType":"bytes32"},{"name":"expression","type":"string","internalType":"string"},{"name":"dependencies","type":"string","internalType":"string"}],"outputs":[],"stateMutability":"nonpayable"},{"type":"event","name":"FormulaEvaluated","inputs":[{"name":"formulaId","type":"bytes32","indexed":true,"internalType":"bytes32"}],"anonymous":false},{"type":"event","name":"FormulaInvalidated","inputs":[{"name":"formulaId","type":"bytes32","indexed":true,"internalType":"bytes32"}],"anonymous":false},{"type":"event","name":"FormulaSet","inputs":[{"name":"formulaId","type":"bytes32","indexed":true,"internalType":"bytes32"}],"anonymous":false}],"bytecode":{"object":"0x608060405234801561000f575f80fd5b50610fd48061001d5f395ff3fe608060405234801561000f575f80fd5b5060043610610055575f3560e01c80633372edcb146100595780633f9109711461008957806369ecc3cf146100b957806372d2231a146100d5578063fc003843146100f1575b5f80fd5b610073600480360381019061006e919061078a565b61010d565b60405161008091906107cf565b60405180910390f35b6100a3600480360381019061009e919061078a565b610135565b6040516100b0919061091a565b60405180910390f35b6100d360048036038101906100ce919061078a565b610391565b005b6100ef60048036038101906100ea919061099b565b610467565b005b61010b600480360381019061010691906109f8565b610529565b005b5f805f8381526020019081526020015f206004015f9054906101000a900460ff169050919050565b61013d610720565b5f808381526020019081526020015f206004015f9054906101000a900460ff1661019c576040517f08c379a000000000000000000000000000000000000000000000000000000000815260040161019390610ae3565b60405180910390fd5b5f808381526020019081526020015f206040518060a00160405290815f820180546101c690610b2e565b80601f01602080910402602001604051908101604052809291908181526020018280546101f290610b2e565b801561023d5780601f106102145761010080835404028352916020019161023d565b820191905f5260205f20905b81548152906001019060200180831161022057829003601f168201915b5050505050815260200160018201805461025690610b2e565b80601f016020809104026020016040519081016040528092919081815260200182805461028290610b2e565b80156102cd5780601f106102a4576101008083540402835291602001916102cd565b820191905f5260205f20905b8154815290600101906020018083116102b057829003601f168201915b505050505081526020016002820180546102e690610b2e565b80601f016020809104026020016040519081016040528092919081815260200182805461031290610b2e565b801561035d5780601f106103345761010080835404028352916020019161035d565b820191905f5260205f20905b81548152906001019060200180831161034057829003601f168201915b5050505050815260200160038201548152602001600482015f9054906101000a900460ff1615151515815250509050919050565b5f808281526020019081526020015f206004015f9054906101000a900460ff166103f0576040517f08c379a00000000000000000000000000000000000000000000000000000000081526004016103e790610ae3565b60405180910390fd5b60405180602001604052805f8152505f808381526020019081526020015f20600201908161041e9190610d28565b505f805f8381526020019081526020015f2060030181905550807fe9c8ee5be49f52b2a106c52dc2d6dcb5c93da662b1cfc1e13e12d2c53c6ddab960405160405180910390a250565b5f808481526020019081526020015f206004015f9054906101000a900460ff166104c6576040517f08c379a00000000000000000000000000000000000000000000000000000000081526004016104bd90610ae3565b60405180910390fd5b5f805f8581526020019081526020015f20905082828260020191826104ec929190610e01565b50428160030181905550837fdaf820fa2de398dfb451bc4a62aae2e39eee219304dc0e94599b86b7daf24a7960405160405180910390a250505050565b5f801b850361056d576040517f08c379a000000000000000000000000000000000000000000000000000000000815260040161056490610f18565b60405180910390fd5b5f84849050116105b2576040517f08c379a00000000000000000000000000000000000000000000000000000000081526004016105a990610f80565b60405180910390fd5b6040518060a0016040528085858080601f0160208091040260200160405190810160405280939291908181526020018383808284375f81840152601f19601f82011690508083019250505050505050815260200183838080601f0160208091040260200160405190810160405280939291908181526020018383808284375f81840152601f19601f82011690508083019250505050505050815260200160405180602001604052805f81525081526020015f8152602001600115158152505f808781526020019081526020015f205f820151815f0190816106939190610d28565b5060208201518160010190816106a99190610d28565b5060408201518160020190816106bf9190610d28565b50606082015181600301556080820151816004015f6101000a81548160ff021916908315150217905550905050847f6befcbca9f3ac7b18718ba2ba24fb811d0a6125b47c5be42e4e45594fa805f2560405160405180910390a25050505050565b6040518060a001604052806060815260200160608152602001606081526020015f81526020015f151581525090565b5f80fd5b5f80fd5b5f819050919050565b61076981610757565b8114610773575f80fd5b50565b5f8135905061078481610760565b92915050565b5f6020828403121561079f5761079e61074f565b5b5f6107ac84828501610776565b91505092915050565b5f8115159050919050565b6107c9816107b5565b82525050565b5f6020820190506107e25f8301846107c0565b92915050565b5f81519050919050565b5f82825260208201905092915050565b5f5b8381101561081f578082015181840152602081019050610804565b5f8484015250505050565b5f601f19601f8301169050919050565b5f610844826107e8565b61084e81856107f2565b935061085e818560208601610802565b6108678161082a565b840191505092915050565b5f819050919050565b61088481610872565b82525050565b610893816107b5565b82525050565b5f60a083015f8301518482035f8601526108b3828261083a565b915050602083015184820360208601526108cd828261083a565b915050604083015184820360408601526108e7828261083a565b91505060608301516108fc606086018261087b565b50608083015161090f608086018261088a565b508091505092915050565b5f6020820190508181035f8301526109328184610899565b905092915050565b5f80fd5b5f80fd5b5f80fd5b5f8083601f84011261095b5761095a61093a565b5b8235905067ffffffffffffffff8111156109785761097761093e565b5b60208301915083600182028301111561099457610993610942565b5b9250929050565b5f805f604084860312156109b2576109b161074f565b5b5f6109bf86828701610776565b935050602084013567ffffffffffffffff8111156109e0576109df610753565b5b6109ec86828701610946565b92509250509250925092565b5f805f805f60608688031215610a1157610a1061074f565b5b5f610a1e88828901610776565b955050602086013567ffffffffffffffff811115610a3f57610a3e610753565b5b610a4b88828901610946565b9450945050604086013567ffffffffffffffff811115610a6e57610a6d610753565b5b610a7a88828901610946565b92509250509295509295909350565b5f82825260208201905092915050565b7f466f726d756c61206e6f7420666f756e640000000000000000000000000000005f82015250565b5f610acd601183610a89565b9150610ad882610a99565b602082019050919050565b5f6020820190508181035f830152610afa81610ac1565b9050919050565b7f4e487b71000000000000000000000000000000000000000000000000000000005f52602260045260245ffd5b5f6002820490506001821680610b4557607f821691505b602082108103610b5857610b57610b01565b5b50919050565b7f4e487b71000000000000000000000000000000000000000000000000000000005f52604160045260245ffd5b5f819050815f5260205f209050919050565b5f6020601f8301049050919050565b5f82821b905092915050565b5f60088302610be77fffffffffffffffffffffffffffffffffffffffffffffffffffffffffffffffff82610bac565b610bf18683610bac565b95508019841693508086168417925050509392505050565b5f819050919050565b5f610c2c610c27610c2284610872565b610c09565b610872565b9050919050565b5f819050919050565b610c4583610c12565b610c59610c5182610c33565b848454610bb8565b825550505050565b5f90565b610c6d610c61565b610c78818484610c3c565b505050565b5b81811015610c9b57610c905f82610c65565b600181019050610c7e565b5050565b601f821115610ce057610cb181610b8b565b610cba84610b9d565b81016020851015610cc9578190505b610cdd610cd585610b9d565b830182610c7d565b50505b505050565b5f82821c905092915050565b5f610d005f1984600802610ce5565b1980831691505092915050565b5f610d188383610cf1565b9150826002028217905092915050565b610d31826107e8565b67ffffffffffffffff811115610d4a57610d49610b5e565b5b610d548254610b2e565b610d5f828285610c9f565b5f60209050601f831160018114610d90575f8415610d7e578287015190505b610d888582610d0d565b865550610def565b601f198416610d9e86610b8b565b5f5b82811015610dc557848901518255600182019150602085019450602081019050610da0565b86831015610de25784890151610dde601f891682610cf1565b8355505b6001600288020188555050505b505050505050565b5f82905092915050565b610e0b8383610df7565b67ffffffffffffffff811115610e2457610e23610b5e565b5b610e2e8254610b2e565b610e39828285610c9f565b5f601f831160018114610e66575f8415610e54578287013590505b610e5e8582610d0d565b865550610ec5565b601f198416610e7486610b8b565b5f5b82811015610e9b57848901358255600182019150602085019450602081019050610e76565b86831015610eb85784890135610eb4601f891682610cf1565b8355505b6001600288020188555050505b50505050505050565b7f466f726d756c612049442063616e6e6f74206265207a65726f000000000000005f82015250565b5f610f02601983610a89565b9150610f0d82610ece565b602082019050919050565b5f6020820190508181035f830152610f2f81610ef6565b9050919050565b7f45787072657373696f6e2063616e6e6f7420626520656d7074790000000000005f82015250565b5f610f6a601a83610a89565b9150610f7582610f36565b602082019050919050565b5f6020820190508181035f830152610f9781610f5e565b905091905056fea264697066735822122093f75ed6a3fc7ad691bb1a6d86852226f056515304823ee4539db775d391998864736f6c63430008140033","linkReferences":{}},"methodIdentifiers":{"cacheResult(bytes32,string)":"72d2231a","formulaExists(bytes32)":"3372edcb","getFormula(bytes32)":"3f910971","invalidate(bytes32)":"69ecc3cf","setExpression(bytes32,string,string)":"fc003843"},"id":127}