{"abi":[{"type":"function","name":"getNotification","inputs":[{"name":"notificationId","type":"bytes32","internalType":"bytes32"}],"outputs":[{"name":"","type":"tuple","internalType":"struct Notification.NotificationRecord","components":[{"name":"userId","type":"bytes32","internalType":"bytes32"},{"name":"eventType","type":"string","internalType":"string"},{"name":"context","type":"string","internalType":"string"},{"name":"timestamp","type":"uint256","internalType":"uint256"},{"name":"read","type":"bool","internalType":"bool"},{"name":"exists","type":"bool","internalType":"bool"}]}],"stateMutability":"view"},{"type":"function","name":"getUnreadCount","inputs":[{"name":"userId","type":"bytes32","internalType":"bytes32"}],"outputs":[{"name":"","type":"uint256","internalType":"uint256"}],"stateMutability":"view"},{"type":"function","name":"markRead","inputs":[{"name":"notificationId","type":"bytes32","internalType":"bytes32"}],"outputs":[],"stateMutability":"nonpayable"},{"type":"function","name":"notify","inputs":[{"name":"notificationId","type":"bytes32","internalType":"bytes32"},{"name":"userId","type":"bytes32","internalType":"bytes32"},{"name":"eventType","type":"string","internalType":"string"},{"name":"context","type":"string","internalType":"string"}],"outputs":[],"stateMutability":"nonpayable"},{"type":"function","name":"registerChannel","inputs":[{"name":"channelId","type":"bytes32","internalType":"bytes32"},{"name":"deliveryConfig","type":"string","internalType":"string"}],"outputs":[],"stateMutability":"nonpayable"},{"type":"event","name":"ChannelRegistered","inputs":[{"name":"channelId","type":"bytes32","indexed":true,"internalType":"bytes32"}],"anonymous":false},{"type":"event","name":"MarkedRead","inputs":[{"name":"notificationId","type":"bytes32","indexed":true,"internalType":"bytes32"}],"anonymous":false},{"type":"event","name":"Notified","inputs":[{"name":"notificationId","type":"bytes32","indexed":true,"internalType":"bytes32"},{"name":"userId","type":"bytes32","indexed":true,"internalType":"bytes32"}],"anonymous":false}],"bytecode":{"object":"0x608060405234801561000f575f80fd5b506113458061001d5f395ff3fe608060405234801561000f575f80fd5b5060043610610055575f3560e01c8063838280641461005957806392597bfa14610089578063b90b95e0146100a5578063ba6eb090146100c1578063c313ae55146100dd575b5f80fd5b610073600480360381019061006e9190610964565b61010d565b60405161008091906109a7565b60405180910390f35b6100a3600480360381019061009e9190610964565b6101e5565b005b6100bf60048036038101906100ba9190610a21565b610302565b005b6100db60048036038101906100d69190610a7e565b61045e565b005b6100f760048036038101906100f29190610964565b6106fc565b6040516101049190610c70565b60405180910390f35b5f8060025f8481526020019081526020015f2090505f805b82805490508110156101da5760015f84838154811061014757610146610c90565b5b905f5260205f20015481526020019081526020015f2060040160019054906101000a900460ff1680156101b3575060015f84838154811061018b5761018a610c90565b5b905f5260205f20015481526020019081526020015f206004015f9054906101000a900460ff16155b156101c75781806101c390610cea565b9250505b80806101d290610cea565b915050610125565b508092505050919050565b60015f8281526020019081526020015f2060040160019054906101000a900460ff16610246576040517f08c379a000000000000000000000000000000000000000000000000000000000815260040161023d90610d8b565b60405180910390fd5b60015f8281526020019081526020015f206004015f9054906101000a900460ff16156102a7576040517f08c379a000000000000000000000000000000000000000000000000000000000815260040161029e90610df3565b60405180910390fd5b6001805f8381526020019081526020015f206004015f6101000a81548160ff021916908315150217905550807fdc7dd422bf4b606c6d913c2892af8bd7b8b5a5f47f100204c54c3d2abfa05bf460405160405180910390a250565b5f801b8303610346576040517f08c379a000000000000000000000000000000000000000000000000000000000815260040161033d90610e5b565b60405180910390fd5b5f828290501161038b576040517f08c379a000000000000000000000000000000000000000000000000000000000815260040161038290610ec3565b60405180910390fd5b604051806040016040528083838080601f0160208091040260200160405190810160405280939291908181526020018383808284375f81840152601f19601f820116905080830192505050505050508152602001600115158152505f808581526020019081526020015f205f820151815f0190816104099190611108565b506020820151816001015f6101000a81548160ff021916908315150217905550905050827fab52bac2c4204c4626fc6ca16e2fbd96491940a836f07c5a994671203fa01cd060405160405180910390a2505050565b5f801b86036104a2576040517f08c379a000000000000000000000000000000000000000000000000000000000815260040161049990611221565b60405180910390fd5b60015f8781526020019081526020015f2060040160019054906101000a900460ff1615610504576040517f08c379a00000000000000000000000000000000000000000000000000000000081526004016104fb90611289565b60405180910390fd5b5f801b8503610548576040517f08c379a000000000000000000000000000000000000000000000000000000000815260040161053f906112f1565b60405180910390fd5b6040518060c0016040528086815260200185858080601f0160208091040260200160405190810160405280939291908181526020018383808284375f81840152601f19601f82011690508083019250505050505050815260200183838080601f0160208091040260200160405190810160405280939291908181526020018383808284375f81840152601f19601f8201169050808301925050505050505081526020014281526020015f151581526020016001151581525060015f8881526020019081526020015f205f820151815f0155602082015181600101908161062e9190611108565b5060408201518160020190816106449190611108565b50606082015181600301556080820151816004015f6101000a81548160ff02191690831515021790555060a08201518160040160016101000a81548160ff02191690831515021790555090505060025f8681526020019081526020015f2086908060018154018082558091505060019003905f5260205f20015f909190919091505584867f40aebe31fb993815c06a7c7e9a99d178154edd48945fd23a15487b0a2ea97c9960405160405180910390a3505050505050565b6107046108f0565b60015f8381526020019081526020015f2060040160019054906101000a900460ff16610765576040517f08c379a000000000000000000000000000000000000000000000000000000000815260040161075c90610d8b565b60405180910390fd5b60015f8381526020019081526020015f206040518060c00160405290815f820154815260200160018201805461079a90610f3b565b80601f01602080910402602001604051908101604052809291908181526020018280546107c690610f3b565b80156108115780601f106107e857610100808354040283529160200191610811565b820191905f5260205f20905b8154815290600101906020018083116107f457829003601f168201915b5050505050815260200160028201805461082a90610f3b565b80601f016020809104026020016040519081016040528092919081815260200182805461085690610f3b565b80156108a15780601f10610878576101008083540402835291602001916108a1565b820191905f5260205f20905b81548152906001019060200180831161088457829003601f168201915b5050505050815260200160038201548152602001600482015f9054906101000a900460ff161515151581526020016004820160019054906101000a900460ff1615151515815250509050919050565b6040518060c001604052805f801916815260200160608152602001606081526020015f81526020015f151581526020015f151581525090565b5f80fd5b5f80fd5b5f819050919050565b61094381610931565b811461094d575f80fd5b50565b5f8135905061095e8161093a565b92915050565b5f6020828403121561097957610978610929565b5b5f61098684828501610950565b91505092915050565b5f819050919050565b6109a18161098f565b82525050565b5f6020820190506109ba5f830184610998565b92915050565b5f80fd5b5f80fd5b5f80fd5b5f8083601f8401126109e1576109e06109c0565b5b8235905067ffffffffffffffff8111156109fe576109fd6109c4565b5b602083019150836001820283011115610a1a57610a196109c8565b5b9250929050565b5f805f60408486031215610a3857610a37610929565b5b5f610a4586828701610950565b935050602084013567ffffffffffffffff811115610a6657610a6561092d565b5b610a72868287016109cc565b92509250509250925092565b5f805f805f8060808789031215610a9857610a97610929565b5b5f610aa589828a01610950565b9650506020610ab689828a01610950565b955050604087013567ffffffffffffffff811115610ad757610ad661092d565b5b610ae389828a016109cc565b9450945050606087013567ffffffffffffffff811115610b0657610b0561092d565b5b610b1289828a016109cc565b92509250509295509295509295565b610b2a81610931565b82525050565b5f81519050919050565b5f82825260208201905092915050565b5f5b83811015610b67578082015181840152602081019050610b4c565b5f8484015250505050565b5f601f19601f8301169050919050565b5f610b8c82610b30565b610b968185610b3a565b9350610ba6818560208601610b4a565b610baf81610b72565b840191505092915050565b610bc38161098f565b82525050565b5f8115159050919050565b610bdd81610bc9565b82525050565b5f60c083015f830151610bf85f860182610b21565b5060208301518482036020860152610c108282610b82565b91505060408301518482036040860152610c2a8282610b82565b9150506060830151610c3f6060860182610bba565b506080830151610c526080860182610bd4565b5060a0830151610c6560a0860182610bd4565b508091505092915050565b5f6020820190508181035f830152610c888184610be3565b905092915050565b7f4e487b71000000000000000000000000000000000000000000000000000000005f52603260045260245ffd5b7f4e487b71000000000000000000000000000000000000000000000000000000005f52601160045260245ffd5b5f610cf48261098f565b91507fffffffffffffffffffffffffffffffffffffffffffffffffffffffffffffffff8203610d2657610d25610cbd565b5b600182019050919050565b5f82825260208201905092915050565b7f4e6f74696669636174696f6e206e6f7420666f756e64000000000000000000005f82015250565b5f610d75601683610d31565b9150610d8082610d41565b602082019050919050565b5f6020820190508181035f830152610da281610d69565b9050919050565b7f4e6f74696669636174696f6e20616c72656164792072656164000000000000005f82015250565b5f610ddd601983610d31565b9150610de882610da9565b602082019050919050565b5f6020820190508181035f830152610e0a81610dd1565b9050919050565b7f4368616e6e656c2049442063616e6e6f74206265207a65726f000000000000005f82015250565b5f610e45601983610d31565b9150610e5082610e11565b602082019050919050565b5f6020820190508181035f830152610e7281610e39565b9050919050565b7f44656c697665727920636f6e6669672063616e6e6f7420626520656d707479005f82015250565b5f610ead601f83610d31565b9150610eb882610e79565b602082019050919050565b5f6020820190508181035f830152610eda81610ea1565b9050919050565b7f4e487b71000000000000000000000000000000000000000000000000000000005f52604160045260245ffd5b7f4e487b71000000000000000000000000000000000000000000000000000000005f52602260045260245ffd5b5f6002820490506001821680610f5257607f821691505b602082108103610f6557610f64610f0e565b5b50919050565b5f819050815f5260205f209050919050565b5f6020601f8301049050919050565b5f82821b905092915050565b5f60088302610fc77fffffffffffffffffffffffffffffffffffffffffffffffffffffffffffffffff82610f8c565b610fd18683610f8c565b95508019841693508086168417925050509392505050565b5f819050919050565b5f61100c6110076110028461098f565b610fe9565b61098f565b9050919050565b5f819050919050565b61102583610ff2565b61103961103182611013565b848454610f98565b825550505050565b5f90565b61104d611041565b61105881848461101c565b505050565b5b8181101561107b576110705f82611045565b60018101905061105e565b5050565b601f8211156110c05761109181610f6b565b61109a84610f7d565b810160208510156110a9578190505b6110bd6110b585610f7d565b83018261105d565b50505b505050565b5f82821c905092915050565b5f6110e05f19846008026110c5565b1980831691505092915050565b5f6110f883836110d1565b9150826002028217905092915050565b61111182610b30565b67ffffffffffffffff81111561112a57611129610ee1565b5b6111348254610f3b565b61113f82828561107f565b5f60209050601f831160018114611170575f841561115e578287015190505b61116885826110ed565b8655506111cf565b601f19841661117e86610f6b565b5f5b828110156111a557848901518255600182019150602085019450602081019050611180565b868310156111c257848901516111be601f8916826110d1565b8355505b6001600288020188555050505b505050505050565b7f4e6f74696669636174696f6e2049442063616e6e6f74206265207a65726f00005f82015250565b5f61120b601e83610d31565b9150611216826111d7565b602082019050919050565b5f6020820190508181035f830152611238816111ff565b9050919050565b7f4e6f74696669636174696f6e20616c72656164792065786973747300000000005f82015250565b5f611273601b83610d31565b915061127e8261123f565b602082019050919050565b5f6020820190508181035f8301526112a081611267565b9050919050565b7f557365722049442063616e6e6f74206265207a65726f000000000000000000005f82015250565b5f6112db601683610d31565b91506112e6826112a7565b602082019050919050565b5f6020820190508181035f830152611308816112cf565b905091905056fea26469706673582212205b8bd13932035824a15a84bcd0b9d222d9507c879e1383ae9afaf112bfb9575f64736f6c63430008140033","linkReferences":{}},"methodIdentifiers":{"getNotification(bytes32)":"c313ae55","getUnreadCount(bytes32)":"83828064","markRead(bytes32)":"92597bfa","notify(bytes32,bytes32,string,string)":"ba6eb090","registerChannel(bytes32,string)":"b90b95e0"},"id":182}