{"abi":[{"type":"function","name":"audit","inputs":[{"name":"batchId","type":"bytes32","internalType":"bytes32"}],"outputs":[{"name":"recordCount","type":"uint256","internalType":"uint256"}],"stateMutability":"view"},{"type":"function","name":"getBatchRecords","inputs":[{"name":"batchId","type":"bytes32","internalType":"bytes32"}],"outputs":[{"name":"","type":"bytes32[]","internalType":"bytes32[]"}],"stateMutability":"view"},{"type":"function","name":"getLineage","inputs":[{"name":"entityId","type":"bytes32","internalType":"bytes32"}],"outputs":[{"name":"","type":"bytes32[]","internalType":"bytes32[]"}],"stateMutability":"view"},{"type":"function","name":"getRecord","inputs":[{"name":"recordId","type":"bytes32","internalType":"bytes32"}],"outputs":[{"name":"","type":"tuple","internalType":"struct Provenance.ProvenanceRecord","components":[{"name":"entity","type":"bytes32","internalType":"bytes32"},{"name":"activity","type":"string","internalType":"string"},{"name":"agent","type":"bytes32","internalType":"bytes32"},{"name":"timestamp","type":"uint256","internalType":"uint256"},{"name":"batchId","type":"bytes32","internalType":"bytes32"},{"name":"exists","type":"bool","internalType":"bool"}]}],"stateMutability":"view"},{"type":"function","name":"record","inputs":[{"name":"entity","type":"bytes32","internalType":"bytes32"},{"name":"activity","type":"string","internalType":"string"},{"name":"agent","type":"bytes32","internalType":"bytes32"},{"name":"batchId","type":"bytes32","internalType":"bytes32"}],"outputs":[{"name":"recordId","type":"bytes32","internalType":"bytes32"}],"stateMutability":"nonpayable"},{"type":"function","name":"recordExists","inputs":[{"name":"recordId","type":"bytes32","internalType":"bytes32"}],"outputs":[{"name":"","type":"bool","internalType":"bool"}],"stateMutability":"view"},{"type":"function","name":"rollback","inputs":[{"name":"batchId","type":"bytes32","internalType":"bytes32"}],"outputs":[],"stateMutability":"nonpayable"},{"type":"function","name":"trace","inputs":[{"name":"entityId","type":"bytes32","internalType":"bytes32"}],"outputs":[{"name":"chainLength","type":"uint256","internalType":"uint256"}],"stateMutability":"view"},{"type":"event","name":"BatchRolledBack","inputs":[{"name":"batchId","type":"bytes32","indexed":true,"internalType":"bytes32"},{"name":"recordCount","type":"uint256","indexed":false,"internalType":"uint256"}],"anonymous":false},{"type":"event","name":"ProvenanceRecorded","inputs":[{"name":"recordId","type":"bytes32","indexed":true,"internalType":"bytes32"},{"name":"entity","type":"bytes32","indexed":true,"internalType":"bytes32"},{"name":"batchId","type":"bytes32","indexed":false,"internalType":"bytes32"}],"anonymous":false}],"bytecode":{"object":"0x608060405234801561000f575f80fd5b506111948061001d5f395ff3fe608060405234801561000f575f80fd5b5060043610610086575f3560e01c8063c140635b11610059578063c140635b1461014a578063cfb139281461017a578063f3c50ad214610196578063f79fe538146101c657610086565b806311a9f7f71461008a578063213681cd146100ba57806349f2d22c146100ea57806364c43be41461011a575b5f80fd5b6100a4600480360381019061009f9190610807565b6101f6565b6040516100b191906108e9565b60405180910390f35b6100d460048036038101906100cf9190610807565b61025d565b6040516100e19190610a4b565b60405180910390f35b61010460048036038101906100ff9190610807565b6103b7565b60405161011191906108e9565b60405180910390f35b610134600480360381019061012f9190610acc565b61041e565b6040516101419190610b5f565b60405180910390f35b610164600480360381019061015f9190610807565b610640565b6040516101719190610b87565b60405180910390f35b610194600480360381019061018f9190610807565b61065d565b005b6101b060048036038101906101ab9190610807565b61074b565b6040516101bd9190610b87565b60405180910390f35b6101e060048036038101906101db9190610807565b610768565b6040516101ed9190610baf565b60405180910390f35b606060025f8381526020019081526020015f2080548060200260200160405190810160405280929190818152602001828054801561025157602002820191905f5260205f20905b81548152602001906001019080831161023d575b50505050509050919050565b610265610790565b5f808381526020019081526020015f206005015f9054906101000a900460ff166102c4576040517f08c379a00000000000000000000000000000000000000000000000000000000081526004016102bb90610c22565b60405180910390fd5b5f808381526020019081526020015f206040518060c00160405290815f82015481526020016001820180546102f890610c6d565b80601f016020809104026020016040519081016040528092919081815260200182805461032490610c6d565b801561036f5780601f106103465761010080835404028352916020019161036f565b820191905f5260205f20905b81548152906001019060200180831161035257829003601f168201915b50505050508152602001600282015481526020016003820154815260200160048201548152602001600582015f9054906101000a900460ff1615151515815250509050919050565b606060015f8381526020019081526020015f2080548060200260200160405190810160405280929190818152602001828054801561041257602002820191905f5260205f20905b8154815260200190600101908083116103fe575b50505050509050919050565b5f805f1b8603610463576040517f08c379a000000000000000000000000000000000000000000000000000000000815260040161045a90610ce7565b60405180910390fd5b60035f81548092919061047590610d32565b9190505550858360035460405160200161049193929190610db9565b6040516020818303038152906040528051906020012090506040518060c0016040528087815260200186868080601f0160208091040260200160405190810160405280939291908181526020018383808284375f81840152601f19601f820116905080830192505050505050508152602001848152602001428152602001838152602001600115158152505f808381526020019081526020015f205f820151815f015560208201518160010190816105499190610fbf565b5060408201518160020155606082015181600301556080820151816004015560a0820151816005015f6101000a81548160ff02191690831515021790555090505060015f8781526020019081526020015f2081908060018154018082558091505060019003905f5260205f20015f90919091909150555f801b82146105fe5760025f8381526020019081526020015f2081908060018154018082558091505060019003905f5260205f20015f90919091909150555b85817fe744aa3ad0d5d09e1da287b490a0dfc884aa3ab71beb7e9b9b1f94e77b78c6018460405161062f9190610b5f565b60405180910390a395945050505050565b5f60025f8381526020019081526020015f20805490509050919050565b5f801b81036106a1576040517f08c379a0000000000000000000000000000000000000000000000000000000008152600401610698906110d8565b60405180910390fd5b5f60025f8381526020019081526020015f2080549050116106f7576040517f08c379a00000000000000000000000000000000000000000000000000000000081526004016106ee90611140565b60405180910390fd5b5f60025f8381526020019081526020015f20805490509050817f2a33f0b7135b67a883b20d77299c07979fbebacc43f2a20d95aede8f4f2095958260405161073f9190610b87565b60405180910390a25050565b5f60015f8381526020019081526020015f20805490509050919050565b5f805f8381526020019081526020015f206005015f9054906101000a900460ff169050919050565b6040518060c001604052805f8019168152602001606081526020015f80191681526020015f81526020015f80191681526020015f151581525090565b5f80fd5b5f80fd5b5f819050919050565b6107e6816107d4565b81146107f0575f80fd5b50565b5f81359050610801816107dd565b92915050565b5f6020828403121561081c5761081b6107cc565b5b5f610829848285016107f3565b91505092915050565b5f81519050919050565b5f82825260208201905092915050565b5f819050602082019050919050565b610864816107d4565b82525050565b5f610875838361085b565b60208301905092915050565b5f602082019050919050565b5f61089782610832565b6108a1818561083c565b93506108ac8361084c565b805f5b838110156108dc5781516108c3888261086a565b97506108ce83610881565b9250506001810190506108af565b5085935050505092915050565b5f6020820190508181035f830152610901818461088d565b905092915050565b5f81519050919050565b5f82825260208201905092915050565b5f5b83811015610940578082015181840152602081019050610925565b5f8484015250505050565b5f601f19601f8301169050919050565b5f61096582610909565b61096f8185610913565b935061097f818560208601610923565b6109888161094b565b840191505092915050565b5f819050919050565b6109a581610993565b82525050565b5f8115159050919050565b6109bf816109ab565b82525050565b5f60c083015f8301516109da5f86018261085b565b50602083015184820360208601526109f2828261095b565b9150506040830151610a07604086018261085b565b506060830151610a1a606086018261099c565b506080830151610a2d608086018261085b565b5060a0830151610a4060a08601826109b6565b508091505092915050565b5f6020820190508181035f830152610a6381846109c5565b905092915050565b5f80fd5b5f80fd5b5f80fd5b5f8083601f840112610a8c57610a8b610a6b565b5b8235905067ffffffffffffffff811115610aa957610aa8610a6f565b5b602083019150836001820283011115610ac557610ac4610a73565b5b9250929050565b5f805f805f60808688031215610ae557610ae46107cc565b5b5f610af2888289016107f3565b955050602086013567ffffffffffffffff811115610b1357610b126107d0565b5b610b1f88828901610a77565b94509450506040610b32888289016107f3565b9250506060610b43888289016107f3565b9150509295509295909350565b610b59816107d4565b82525050565b5f602082019050610b725f830184610b50565b92915050565b610b8181610993565b82525050565b5f602082019050610b9a5f830184610b78565b92915050565b610ba9816109ab565b82525050565b5f602082019050610bc25f830184610ba0565b92915050565b5f82825260208201905092915050565b7f5265636f7264206e6f7420666f756e64000000000000000000000000000000005f82015250565b5f610c0c601083610bc8565b9150610c1782610bd8565b602082019050919050565b5f6020820190508181035f830152610c3981610c00565b9050919050565b7f4e487b71000000000000000000000000000000000000000000000000000000005f52602260045260245ffd5b5f6002820490506001821680610c8457607f821691505b602082108103610c9757610c96610c40565b5b50919050565b7f456e746974792063616e6e6f74206265207a65726f00000000000000000000005f82015250565b5f610cd1601583610bc8565b9150610cdc82610c9d565b602082019050919050565b5f6020820190508181035f830152610cfe81610cc5565b9050919050565b7f4e487b71000000000000000000000000000000000000000000000000000000005f52601160045260245ffd5b5f610d3c82610993565b91507fffffffffffffffffffffffffffffffffffffffffffffffffffffffffffffffff8203610d6e57610d6d610d05565b5b600182019050919050565b5f819050919050565b610d93610d8e826107d4565b610d79565b82525050565b5f819050919050565b610db3610dae82610993565b610d99565b82525050565b5f610dc48286610d82565b602082019150610dd48285610d82565b602082019150610de48284610da2565b602082019150819050949350505050565b7f4e487b71000000000000000000000000000000000000000000000000000000005f52604160045260245ffd5b5f819050815f5260205f209050919050565b5f6020601f8301049050919050565b5f82821b905092915050565b5f60088302610e7e7fffffffffffffffffffffffffffffffffffffffffffffffffffffffffffffffff82610e43565b610e888683610e43565b95508019841693508086168417925050509392505050565b5f819050919050565b5f610ec3610ebe610eb984610993565b610ea0565b610993565b9050919050565b5f819050919050565b610edc83610ea9565b610ef0610ee882610eca565b848454610e4f565b825550505050565b5f90565b610f04610ef8565b610f0f818484610ed3565b505050565b5b81811015610f3257610f275f82610efc565b600181019050610f15565b5050565b601f821115610f7757610f4881610e22565b610f5184610e34565b81016020851015610f60578190505b610f74610f6c85610e34565b830182610f14565b50505b505050565b5f82821c905092915050565b5f610f975f1984600802610f7c565b1980831691505092915050565b5f610faf8383610f88565b9150826002028217905092915050565b610fc882610909565b67ffffffffffffffff811115610fe157610fe0610df5565b5b610feb8254610c6d565b610ff6828285610f36565b5f60209050601f831160018114611027575f8415611015578287015190505b61101f8582610fa4565b865550611086565b601f19841661103586610e22565b5f5b8281101561105c57848901518255600182019150602085019450602081019050611037565b868310156110795784890151611075601f891682610f88565b8355505b6001600288020188555050505b505050505050565b7f42617463682049442063616e6e6f74206265207a65726f0000000000000000005f82015250565b5f6110c2601783610bc8565b91506110cd8261108e565b602082019050919050565b5f6020820190508181035f8301526110ef816110b6565b9050919050565b7f4261746368206e6f7420666f756e64206f7220656d70747900000000000000005f82015250565b5f61112a601883610bc8565b9150611135826110f6565b602082019050919050565b5f6020820190508181035f8301526111578161111e565b905091905056fea26469706673582212207eb692e5a9a35f562955d8c5584f44dfbd70d2c2f9c8a54e86fb7538529fd4ed64736f6c63430008140033","linkReferences":{}},"methodIdentifiers":{"audit(bytes32)":"c140635b","getBatchRecords(bytes32)":"11a9f7f7","getLineage(bytes32)":"49f2d22c","getRecord(bytes32)":"213681cd","record(bytes32,string,bytes32,bytes32)":"64c43be4","recordExists(bytes32)":"f79fe538","rollback(bytes32)":"cfb13928","trace(bytes32)":"f3c50ad2"},"id":204}