{"abi":[{"type":"function","name":"deploy","inputs":[{"name":"worker","type":"bytes32","internalType":"bytes32"},{"name":"scriptContent","type":"string","internalType":"string"}],"outputs":[{"name":"","type":"tuple","internalType":"struct CloudflareRuntime.DeployOkResult","components":[{"name":"success","type":"bool","internalType":"bool"},{"name":"worker","type":"bytes32","internalType":"bytes32"},{"name":"version","type":"string","internalType":"string"}]}],"stateMutability":"nonpayable"},{"type":"function","name":"destroy","inputs":[{"name":"worker","type":"bytes32","internalType":"bytes32"}],"outputs":[{"name":"","type":"tuple","internalType":"struct CloudflareRuntime.DestroyOkResult","components":[{"name":"success","type":"bool","internalType":"bool"},{"name":"worker","type":"bytes32","internalType":"bytes32"}]}],"stateMutability":"nonpayable"},{"type":"function","name":"provision","inputs":[{"name":"concept","type":"string","internalType":"string"},{"name":"accountId","type":"string","internalType":"string"},{"name":"routes","type":"string[]","internalType":"string[]"}],"outputs":[{"name":"","type":"tuple","internalType":"struct CloudflareRuntime.ProvisionOkResult","components":[{"name":"success","type":"bool","internalType":"bool"},{"name":"worker","type":"bytes32","internalType":"bytes32"},{"name":"scriptName","type":"string","internalType":"string"},{"name":"endpoint","type":"string","internalType":"string"}]}],"stateMutability":"nonpayable"},{"type":"function","name":"register","inputs":[],"outputs":[{"name":"name","type":"string","internalType":"string"},{"name":"category","type":"string","internalType":"string"},{"name":"capabilities","type":"string[]","internalType":"string[]"}],"stateMutability":"pure"},{"type":"function","name":"rollback","inputs":[{"name":"worker","type":"bytes32","internalType":"bytes32"},{"name":"targetVersion","type":"string","internalType":"string"}],"outputs":[{"name":"","type":"tuple","internalType":"struct CloudflareRuntime.RollbackOkResult","components":[{"name":"success","type":"bool","internalType":"bool"},{"name":"worker","type":"bytes32","internalType":"bytes32"},{"name":"restoredVersion","type":"string","internalType":"string"}]}],"stateMutability":"nonpayable"},{"type":"function","name":"setTrafficWeight","inputs":[{"name":"worker","type":"bytes32","internalType":"bytes32"},{"name":"weight","type":"int256","internalType":"int256"}],"outputs":[{"name":"","type":"tuple","internalType":"struct CloudflareRuntime.SetTrafficWeightOkResult","components":[{"name":"success","type":"bool","internalType":"bool"},{"name":"worker","type":"bytes32","internalType":"bytes32"}]}],"stateMutability":"nonpayable"},{"type":"event","name":"DeployCompleted","inputs":[{"name":"variant","type":"string","indexed":false,"internalType":"string"},{"name":"worker","type":"bytes32","indexed":false,"internalType":"bytes32"},{"name":"sizeBytes","type":"int256","indexed":false,"internalType":"int256"},{"name":"limitBytes","type":"int256","indexed":false,"internalType":"int256"}],"anonymous":false},{"type":"event","name":"DestroyCompleted","inputs":[{"name":"variant","type":"string","indexed":false,"internalType":"string"},{"name":"worker","type":"bytes32","indexed":false,"internalType":"bytes32"}],"anonymous":false},{"type":"event","name":"ProvisionCompleted","inputs":[{"name":"variant","type":"string","indexed":false,"internalType":"string"},{"name":"worker","type":"bytes32","indexed":false,"internalType":"bytes32"}],"anonymous":false},{"type":"event","name":"RollbackCompleted","inputs":[{"name":"variant","type":"string","indexed":false,"internalType":"string"},{"name":"worker","type":"bytes32","indexed":false,"internalType":"bytes32"}],"anonymous":false},{"type":"event","name":"SetTrafficWeightCompleted","inputs":[{"name":"variant","type":"string","indexed":false,"internalType":"string"},{"name":"worker","type":"bytes32","indexed":false,"internalType":"bytes32"}],"anonymous":false}],"bytecode":{"object":"0x608060405234801561000f575f80fd5b5061222d8061001d5f395ff3fe608060405234801561000f575f80fd5b5060043610610060575f3560e01c80631aa3a008146100645780636e0bd282146100845780637855131d146100b45780638388d229146100e4578063b5a788e514610114578063c416a8cf14610144575b5f80fd5b61006c610174565b60405161007b93929190610f9d565b60405180910390f35b61009e6004803603810190610099919061102b565b6103e7565b6040516100ab91906110ac565b60405180910390f35b6100ce60048036038101906100c991906111f1565b610515565b6040516100db9190611298565b60405180910390f35b6100fe60048036038101906100f991906112eb565b610639565b60405161010b9190611356565b60405180910390f35b61012e60048036038101906101299190611451565b61075b565b60405161013b919061155c565b60405180910390f35b61015e600480360381019061015991906111f1565b6109a3565b60405161016b91906115c9565b60405180910390f35b60608060606040518060400160405280600a81526020017f636c6f7564666c6172650000000000000000000000000000000000000000000081525092506040518060400160405280600781526020017f72756e74696d65000000000000000000000000000000000000000000000000008152509150600567ffffffffffffffff811115610204576102036110cd565b5b60405190808252806020026020018201604052801561023757816020015b60608152602001906001900390816102225790505b5090506040518060400160405280600981526020017f70726f766973696f6e0000000000000000000000000000000000000000000000815250815f81518110610283576102826115e9565b5b60200260200101819052506040518060400160405280600681526020017f6465706c6f790000000000000000000000000000000000000000000000000000815250816001815181106102d8576102d76115e9565b5b60200260200101819052506040518060400160405280601081526020017f73657454726166666963576569676874000000000000000000000000000000008152508160028151811061032d5761032c6115e9565b5b60200260200101819052506040518060400160405280600881526020017f726f6c6c6261636b00000000000000000000000000000000000000000000000081525081600381518110610382576103816115e9565b5b60200260200101819052506040518060400160405280600781526020017f64657374726f7900000000000000000000000000000000000000000000000000815250816004815181106103d7576103d66115e9565b5b6020026020010181905250909192565b6103ef610cce565b60015f8381526020019081526020015f205f9054906101000a900460ff1661044c576040517f08c379a000000000000000000000000000000000000000000000000000000000815260040161044390611660565b60405180910390fd5b5f60015f8481526020019081526020015f205f6101000a81548160ff0219169083151502179055505f808381526020019081526020015f205f61048f9190610ceb565b60035f8381526020019081526020015f205f6104ab9190610d28565b60045f8381526020019081526020015f205f90557f5f91d6f5b071e1c01422208aefdc94722551cb418c8c493cbd4fa563938bc5d0826040516104ee91906116d7565b60405180910390a16040518060400160405280600115158152602001838152509050919050565b61051d610d65565b60015f8481526020019081526020015f205f9054906101000a900460ff1661057a576040517f08c379a000000000000000000000000000000000000000000000000000000000815260040161057190611660565b60405180910390fd5b5f8251116105bd576040517f08c379a00000000000000000000000000000000000000000000000000000000081526004016105b49061174d565b60405180910390fd5b8160035f8581526020019081526020015f2090816105db919061196e565b507fd7216dc6f75dc5ba9c492a95dab64aa01aaf14ccb27b9a38cc0ea55b5980b34f8360405161060b91906116d7565b60405180910390a1604051806060016040528060011515815260200184815260200183815250905092915050565b610641610d89565b60015f8481526020019081526020015f205f9054906101000a900460ff1661069e576040517f08c379a000000000000000000000000000000000000000000000000000000000815260040161069590611660565b60405180910390fd5b5f82121580156106af575060648213155b6106ee576040517f08c379a00000000000000000000000000000000000000000000000000000000081526004016106e590611a87565b60405180910390fd5b8160045f8581526020019081526020015f20819055507fe3818c8f29f23fa7dae9a0884fe04d7bb4770020f95d48f6e3d93dc214eef7328360405161073391906116d7565b60405180910390a1604051806040016040528060011515815260200184815250905092915050565b610763610da6565b5f8451116107a6576040517f08c379a000000000000000000000000000000000000000000000000000000000815260040161079d90611aef565b60405180910390fd5b5f8351116107e9576040517f08c379a00000000000000000000000000000000000000000000000000000000081526004016107e090611b57565b60405180910390fd5b5f84846040516020016107fd929190611baf565b6040516020818303038152906040528051906020012090508484844260405160200161082c9493929190611be1565b6040516020818303038152906040525f808381526020019081526020015f2090816108579190611c9b565b5060015f8281526020019081526020015f205f9054906101000a900460ff166108f6576001805f8381526020019081526020015f205f6101000a81548160ff021916908315150217905550600281908060018154018082558091505060019003905f5260205f20015f90919091909150555f60055f8381526020019081526020015f2081905550606460045f8381526020019081526020015f20819055505b5f856040516020016109089190611db4565b60405160208183030381529060405290505f8660405160200161092b9190611e69565b60405160208183030381529060405290507fe7ba298fd4b65faaecaa247132b454d0c8aac6d7bffe755ede2830a2108f83188360405161096b91906116d7565b60405180910390a160405180608001604052806001151581526020018481526020018381526020018281525093505050509392505050565b6109ab610dd1565b60015f8481526020019081526020015f205f9054906101000a900460ff16610a08576040517f08c379a00000000000000000000000000000000000000000000000000000000081526004016109ff90611f05565b60405180910390fd5b5f825111610a4b576040517f08c379a0000000000000000000000000000000000000000000000000000000008152600401610a4290611f6d565b60405180910390fd5b600160055f8581526020019081526020015f205f828254610a6c9190611fb8565b925050819055505f610a8e60055f8681526020019081526020015f2054610b75565b604051602001610a9e9190612035565b60405160208183030381529060405290508060035f8681526020019081526020015f209081610acd919061196e565b50828142604051602001610ae393929190612056565b6040516020818303038152906040525f808681526020019081526020015f209081610b0e9190611c9b565b507f01ddb68a067ab34c1c7ad3083ced0ff3e09b9f7bfa678ef067d8922d39acad9d84845162100000604051610b46939291906120a8565b60405180910390a160405180606001604052806001151581526020018581526020018281525091505092915050565b60605f8203610bbb576040518060400160405280600181526020017f30000000000000000000000000000000000000000000000000000000000000008152509050610cc9565b5f8290505f5b5f8214610bea578080610bd3906120f0565b915050600a82610be39190612164565b9150610bc1565b5f8167ffffffffffffffff811115610c0557610c046110cd565b5b6040519080825280601f01601f191660200182016040528015610c375781602001600182028036833780820191505090505b5090505b5f8514610cc257600182610c4f9190612194565b9150600a85610c5e91906121c7565b6030610c6a9190611fb8565b60f81b818381518110610c8057610c7f6115e9565b5b60200101907effffffffffffffffffffffffffffffffffffffffffffffffffffffffffffff191690815f1a905350600a85610cbb9190612164565b9450610c3b565b8093505050505b919050565b60405180604001604052805f151581526020015f80191681525090565b508054610cf790611798565b5f825580601f10610d085750610d25565b601f0160209004905f5260205f2090810190610d249190610df5565b5b50565b508054610d3490611798565b5f825580601f10610d455750610d62565b601f0160209004905f5260205f2090810190610d619190610df5565b5b50565b60405180606001604052805f151581526020015f8019168152602001606081525090565b60405180604001604052805f151581526020015f80191681525090565b60405180608001604052805f151581526020015f801916815260200160608152602001606081525090565b60405180606001604052805f151581526020015f8019168152602001606081525090565b5b80821115610e0c575f815f905550600101610df6565b5090565b5f81519050919050565b5f82825260208201905092915050565b5f5b83811015610e47578082015181840152602081019050610e2c565b5f8484015250505050565b5f601f19601f8301169050919050565b5f610e6c82610e10565b610e768185610e1a565b9350610e86818560208601610e2a565b610e8f81610e52565b840191505092915050565b5f81519050919050565b5f82825260208201905092915050565b5f819050602082019050919050565b5f82825260208201905092915050565b5f610edd82610e10565b610ee78185610ec3565b9350610ef7818560208601610e2a565b610f0081610e52565b840191505092915050565b5f610f168383610ed3565b905092915050565b5f602082019050919050565b5f610f3482610e9a565b610f3e8185610ea4565b935083602082028501610f5085610eb4565b805f5b85811015610f8b5784840389528151610f6c8582610f0b565b9450610f7783610f1e565b925060208a01995050600181019050610f53565b50829750879550505050505092915050565b5f6060820190508181035f830152610fb58186610e62565b90508181036020830152610fc98185610e62565b90508181036040830152610fdd8184610f2a565b9050949350505050565b5f604051905090565b5f80fd5b5f80fd5b5f819050919050565b61100a81610ff8565b8114611014575f80fd5b50565b5f8135905061102581611001565b92915050565b5f602082840312156110405761103f610ff0565b5b5f61104d84828501611017565b91505092915050565b5f8115159050919050565b61106a81611056565b82525050565b61107981610ff8565b82525050565b604082015f8201516110935f850182611061565b5060208201516110a66020850182611070565b50505050565b5f6040820190506110bf5f83018461107f565b92915050565b5f80fd5b5f80fd5b7f4e487b71000000000000000000000000000000000000000000000000000000005f52604160045260245ffd5b61110382610e52565b810181811067ffffffffffffffff82111715611122576111216110cd565b5b80604052505050565b5f611134610fe7565b905061114082826110fa565b919050565b5f67ffffffffffffffff82111561115f5761115e6110cd565b5b61116882610e52565b9050602081019050919050565b828183375f83830152505050565b5f61119561119084611145565b61112b565b9050828152602081018484840111156111b1576111b06110c9565b5b6111bc848285611175565b509392505050565b5f82601f8301126111d8576111d76110c5565b5b81356111e8848260208601611183565b91505092915050565b5f806040838503121561120757611206610ff0565b5b5f61121485828601611017565b925050602083013567ffffffffffffffff81111561123557611234610ff4565b5b611241858286016111c4565b9150509250929050565b5f606083015f8301516112605f860182611061565b5060208301516112736020860182611070565b506040830151848203604086015261128b8282610ed3565b9150508091505092915050565b5f6020820190508181035f8301526112b0818461124b565b905092915050565b5f819050919050565b6112ca816112b8565b81146112d4575f80fd5b50565b5f813590506112e5816112c1565b92915050565b5f806040838503121561130157611300610ff0565b5b5f61130e85828601611017565b925050602061131f858286016112d7565b9150509250929050565b604082015f82015161133d5f850182611061565b5060208201516113506020850182611070565b50505050565b5f6040820190506113695f830184611329565b92915050565b5f67ffffffffffffffff821115611389576113886110cd565b5b602082029050602081019050919050565b5f80fd5b5f6113b06113ab8461136f565b61112b565b905080838252602082019050602084028301858111156113d3576113d261139a565b5b835b8181101561141a57803567ffffffffffffffff8111156113f8576113f76110c5565b5b80860161140589826111c4565b855260208501945050506020810190506113d5565b5050509392505050565b5f82601f830112611438576114376110c5565b5b813561144884826020860161139e565b91505092915050565b5f805f6060848603121561146857611467610ff0565b5b5f84013567ffffffffffffffff81111561148557611484610ff4565b5b611491868287016111c4565b935050602084013567ffffffffffffffff8111156114b2576114b1610ff4565b5b6114be868287016111c4565b925050604084013567ffffffffffffffff8111156114df576114de610ff4565b5b6114eb86828701611424565b9150509250925092565b5f608083015f83015161150a5f860182611061565b50602083015161151d6020860182611070565b50604083015184820360408601526115358282610ed3565b9150506060830151848203606086015261154f8282610ed3565b9150508091505092915050565b5f6020820190508181035f83015261157481846114f5565b905092915050565b5f606083015f8301516115915f860182611061565b5060208301516115a46020860182611070565b50604083015184820360408601526115bc8282610ed3565b9150508091505092915050565b5f6020820190508181035f8301526115e1818461157c565b905092915050565b7f4e487b71000000000000000000000000000000000000000000000000000000005f52603260045260245ffd5b7f576f726b6572206e6f7420666f756e64000000000000000000000000000000005f82015250565b5f61164a601083610e1a565b915061165582611616565b602082019050919050565b5f6020820190508181035f8301526116778161163e565b9050919050565b7f6f6b0000000000000000000000000000000000000000000000000000000000005f82015250565b5f6116b2600283610e1a565b91506116bd8261167e565b602082019050919050565b6116d181610ff8565b82525050565b5f6040820190508181035f8301526116ee816116a6565b90506116fd60208301846116c8565b92915050565b7f5461726765742076657273696f6e206d757374206e6f7420626520656d7074795f82015250565b5f611737602083610e1a565b915061174282611703565b602082019050919050565b5f6020820190508181035f8301526117648161172b565b9050919050565b7f4e487b71000000000000000000000000000000000000000000000000000000005f52602260045260245ffd5b5f60028204905060018216806117af57607f821691505b6020821081036117c2576117c161176b565b5b50919050565b5f819050815f5260205f209050919050565b5f6020601f8301049050919050565b5f82821b905092915050565b5f600883026118247fffffffffffffffffffffffffffffffffffffffffffffffffffffffffffffffff826117e9565b61182e86836117e9565b95508019841693508086168417925050509392505050565b5f819050919050565b5f819050919050565b5f61187261186d61186884611846565b61184f565b611846565b9050919050565b5f819050919050565b61188b83611858565b61189f61189782611879565b8484546117f5565b825550505050565b5f90565b6118b36118a7565b6118be818484611882565b505050565b5b818110156118e1576118d65f826118ab565b6001810190506118c4565b5050565b601f821115611926576118f7816117c8565b611900846117da565b8101602085101561190f578190505b61192361191b856117da565b8301826118c3565b50505b505050565b5f82821c905092915050565b5f6119465f198460080261192b565b1980831691505092915050565b5f61195e8383611937565b9150826002028217905092915050565b61197782610e10565b67ffffffffffffffff8111156119905761198f6110cd565b5b61199a8254611798565b6119a58282856118e5565b5f60209050601f8311600181146119d6575f84156119c4578287015190505b6119ce8582611953565b865550611a35565b601f1984166119e4866117c8565b5f5b82811015611a0b578489015182556001820191506020850194506020810190506119e6565b86831015611a285784890151611a24601f891682611937565b8355505b6001600288020188555050505b505050505050565b7f576569676874206d75737420626520302d3130300000000000000000000000005f82015250565b5f611a71601483610e1a565b9150611a7c82611a3d565b602082019050919050565b5f6020820190508181035f830152611a9e81611a65565b9050919050565b7f436f6e63657074206d757374206e6f7420626520656d707479000000000000005f82015250565b5f611ad9601983610e1a565b9150611ae482611aa5565b602082019050919050565b5f6020820190508181035f830152611b0681611acd565b9050919050565b7f4163636f756e74204944206d757374206e6f7420626520656d707479000000005f82015250565b5f611b41601c83610e1a565b9150611b4c82611b0d565b602082019050919050565b5f6020820190508181035f830152611b6e81611b35565b9050919050565b5f81905092915050565b5f611b8982610e10565b611b938185611b75565b9350611ba3818560208601610e2a565b80840191505092915050565b5f611bba8285611b7f565b9150611bc68284611b7f565b91508190509392505050565b611bdb81611846565b82525050565b5f6080820190508181035f830152611bf98187610e62565b90508181036020830152611c0d8186610e62565b90508181036040830152611c218185610f2a565b9050611c306060830184611bd2565b95945050505050565b5f81519050919050565b5f819050815f5260205f209050919050565b601f821115611c9657611c6781611c43565b611c70846117da565b81016020851015611c7f578190505b611c93611c8b856117da565b8301826118c3565b50505b505050565b611ca482611c39565b67ffffffffffffffff811115611cbd57611cbc6110cd565b5b611cc78254611798565b611cd2828285611c55565b5f60209050601f831160018114611d03575f8415611cf1578287015190505b611cfb8582611953565b865550611d62565b601f198416611d1186611c43565b5f5b82811015611d3857848901518255600182019150602085019450602081019050611d13565b86831015611d555784890151611d51601f891682611937565b8355505b6001600288020188555050505b505050505050565b7f2d776f726b6572000000000000000000000000000000000000000000000000005f82015250565b5f611d9e600783611b75565b9150611da982611d6a565b600782019050919050565b5f611dbf8284611b7f565b9150611dca82611d92565b915081905092915050565b7f68747470733a2f2f0000000000000000000000000000000000000000000000005f82015250565b5f611e09600883611b75565b9150611e1482611dd5565b600882019050919050565b7f2e776f726b6572732e64657600000000000000000000000000000000000000005f82015250565b5f611e53600c83611b75565b9150611e5e82611e1f565b600c82019050919050565b5f611e7382611dfd565b9150611e7f8284611b7f565b9150611e8a82611e47565b915081905092915050565b7f576f726b6572206e6f7420666f756e64202d2070726f766973696f6e206669725f8201527f7374000000000000000000000000000000000000000000000000000000000000602082015250565b5f611eef602283610e1a565b9150611efa82611e95565b604082019050919050565b5f6020820190508181035f830152611f1c81611ee3565b9050919050565b7f53637269707420636f6e74656e74206d757374206e6f7420626520656d7074795f82015250565b5f611f57602083610e1a565b9150611f6282611f23565b602082019050919050565b5f6020820190508181035f830152611f8481611f4b565b9050919050565b7f4e487b71000000000000000000000000000000000000000000000000000000005f52601160045260245ffd5b5f611fc282611846565b9150611fcd83611846565b9250828201905080821115611fe557611fe4611f8b565b5b92915050565b7f76000000000000000000000000000000000000000000000000000000000000005f82015250565b5f61201f600183611b75565b915061202a82611feb565b600182019050919050565b5f61203f82612013565b915061204b8284611b7f565b915081905092915050565b5f6060820190508181035f83015261206e8186610e62565b905081810360208301526120828185610e62565b90506120916040830184611bd2565b949350505050565b6120a2816112b8565b82525050565b5f6080820190508181035f8301526120bf816116a6565b90506120ce60208301866116c8565b6120db6040830185612099565b6120e86060830184612099565b949350505050565b5f6120fa82611846565b91507fffffffffffffffffffffffffffffffffffffffffffffffffffffffffffffffff820361212c5761212b611f8b565b5b600182019050919050565b7f4e487b71000000000000000000000000000000000000000000000000000000005f52601260045260245ffd5b5f61216e82611846565b915061217983611846565b92508261218957612188612137565b5b828204905092915050565b5f61219e82611846565b91506121a983611846565b92508282039050818111156121c1576121c0611f8b565b5b92915050565b5f6121d182611846565b91506121dc83611846565b9250826121ec576121eb612137565b5b82820690509291505056fea26469706673582212204c663bd9ec5c5ab557f10113abb26f05ba0e93d9e63cf3fea498876b6eb0a8ca64736f6c63430008140033","linkReferences":{}},"methodIdentifiers":{"deploy(bytes32,string)":"c416a8cf","destroy(bytes32)":"6e0bd282","provision(string,string,string[])":"b5a788e5","register()":"1aa3a008","rollback(bytes32,string)":"7855131d","setTrafficWeight(bytes32,int256)":"8388d229"},"id":58}