{"abi":[{"type":"function","name":"checkConcept","inputs":[{"name":"concept","type":"string","internalType":"string"},{"name":"runtime","type":"string","internalType":"string"}],"outputs":[{"name":"","type":"tuple","internalType":"struct Health.CheckConceptOkResult","components":[{"name":"success","type":"bool","internalType":"bool"},{"name":"check","type":"bytes32","internalType":"bytes32"},{"name":"latencyMs","type":"int256","internalType":"int256"}]}],"stateMutability":"nonpayable"},{"type":"function","name":"checkInvariant","inputs":[{"name":"concept","type":"string","internalType":"string"},{"name":"invariantName","type":"string","internalType":"string"}],"outputs":[{"name":"","type":"tuple","internalType":"struct Health.CheckInvariantOkResult","components":[{"name":"success","type":"bool","internalType":"bool"},{"name":"check","type":"bytes32","internalType":"bytes32"}]}],"stateMutability":"nonpayable"},{"type":"function","name":"checkKit","inputs":[{"name":"kit","type":"string","internalType":"string"},{"name":"environment","type":"string","internalType":"string"}],"outputs":[{"name":"","type":"tuple","internalType":"struct Health.CheckKitOkResult","components":[{"name":"success","type":"bool","internalType":"bool"},{"name":"check","type":"bytes32","internalType":"bytes32"},{"name":"conceptResults","type":"string[]","internalType":"string[]"},{"name":"syncResults","type":"string[]","internalType":"string[]"}]}],"stateMutability":"nonpayable"},{"type":"function","name":"checkSync","inputs":[{"name":"sync","type":"string","internalType":"string"},{"name":"concepts","type":"string[]","internalType":"string[]"}],"outputs":[{"name":"","type":"tuple","internalType":"struct Health.CheckSyncOkResult","components":[{"name":"success","type":"bool","internalType":"bool"},{"name":"check","type":"bytes32","internalType":"bytes32"},{"name":"roundTripMs","type":"int256","internalType":"int256"}]}],"stateMutability":"nonpayable"},{"type":"event","name":"CheckConceptCompleted","inputs":[{"name":"variant","type":"string","indexed":false,"internalType":"string"},{"name":"check","type":"bytes32","indexed":false,"internalType":"bytes32"},{"name":"latencyMs","type":"int256","indexed":false,"internalType":"int256"},{"name":"threshold","type":"int256","indexed":false,"internalType":"int256"}],"anonymous":false},{"type":"event","name":"CheckInvariantCompleted","inputs":[{"name":"variant","type":"string","indexed":false,"internalType":"string"},{"name":"check","type":"bytes32","indexed":false,"internalType":"bytes32"}],"anonymous":false},{"type":"event","name":"CheckKitCompleted","inputs":[{"name":"variant","type":"string","indexed":false,"internalType":"string"},{"name":"check","type":"bytes32","indexed":false,"internalType":"bytes32"},{"name":"conceptResults","type":"string[]","indexed":false,"internalType":"string[]"},{"name":"syncResults","type":"string[]","indexed":false,"internalType":"string[]"},{"name":"healthy","type":"string[]","indexed":false,"internalType":"string[]"},{"name":"degraded","type":"string[]","indexed":false,"internalType":"string[]"},{"name":"failed","type":"string[]","indexed":false,"internalType":"string[]"}],"anonymous":false},{"type":"event","name":"CheckSyncCompleted","inputs":[{"name":"variant","type":"string","indexed":false,"internalType":"string"},{"name":"check","type":"bytes32","indexed":false,"internalType":"bytes32"},{"name":"roundTripMs","type":"int256","indexed":false,"internalType":"int256"},{"name":"failed","type":"string[]","indexed":false,"internalType":"string[]"},{"name":"timeoutMs","type":"int256","indexed":false,"internalType":"int256"}],"anonymous":false}],"bytecode":{"object":"0x608060405234801561000f575f80fd5b506121678061001d5f395ff3fe608060405234801561000f575f80fd5b506004361061004a575f3560e01c80635303d38e1461004e578063ad96acd41461007e578063d1b3bd94146100ae578063f48b1280146100de575b5f80fd5b61006860048036038101906100639190610f91565b61010e565b60405161007591906111d5565b60405180910390f35b61009860048036038101906100939190610f91565b6104b0565b6040516100a59190611222565b60405180910390f35b6100c860048036038101906100c39190610f91565b610754565b6040516100d59190611293565b60405180910390f35b6100f860048036038101906100f3919061138e565b610afc565b6040516101059190611444565b60405180910390f35b610116610db6565b5f83834260405160200161012c9392919061150a565b6040516020818303038152906040528051906020012090505f60048054905067ffffffffffffffff81111561016457610163610e6d565b5b60405190808252806020026020018201604052801561019757816020015b60608152602001906001900390816101825790505b5090505f5b60048054905081101561022d575f60035f600484815481106101c1576101c0611549565b5b905f5260205f20015481526020019081526020015f209050805f016040516020016101ec91906116af565b60405160208183030381529060405283838151811061020e5761020d611549565b5b6020026020010181905250508080610225906116fd565b91505061019c565b505f8067ffffffffffffffff81111561024957610248610e6d565b5b60405190808252806020026020018201604052801561027c57816020015b60608152602001906001900390816102675790505b5090506040518060c001604052806040518060400160405280600381526020017f6b6974000000000000000000000000000000000000000000000000000000000081525081526020018781526020016040518060400160405280600781526020017f6865616c7468790000000000000000000000000000000000000000000000000081525081526020015f8152602001428152602001600115158152505f808581526020019081526020015f205f820151815f01908161033c91906118cf565b50602082015181600101908161035291906118cf565b50604082015181600201908161036891906118cf565b50606082015181600301556080820151816004015560a0820151816005015f6101000a81548160ff021916908315150217905550905050600160025f8581526020019081526020015f205f6101000a81548160ff021916908315150217905550600183908060018154018082558091505060019003905f5260205f20015f90919091909150555f8067ffffffffffffffff81111561040957610408610e6d565b5b60405190808252806020026020018201604052801561043c57816020015b60608152602001906001900390816104275790505b5090507f8c45aa24d0292e1ff4106cd158bec28c2a44602263febc73f5fc1cd7980278db84848484858660405161047896959493929190611a8a565b60405180910390a160405180608001604052806001151581526020018581526020018481526020018381525094505050505092915050565b6104b8610de1565b5f8351116104fb576040517f08c379a00000000000000000000000000000000000000000000000000000000081526004016104f290611b69565b60405180910390fd5b5f82511161053e576040517f08c379a000000000000000000000000000000000000000000000000000000000815260040161053590611bd1565b60405180910390fd5b5f83834260405160200161055493929190611c39565b6040516020818303038152906040528051906020012090506040518060c001604052806040518060400160405280600981526020017f696e76617269616e740000000000000000000000000000000000000000000000815250815260200185856040516020016105c5929190611cc2565b60405160208183030381529060405281526020016040518060400160405280600781526020017f6865616c7468790000000000000000000000000000000000000000000000000081525081526020015f8152602001428152602001600115158152505f808381526020019081526020015f205f820151815f01908161064a91906118cf565b50602082015181600101908161066091906118cf565b50604082015181600201908161067691906118cf565b50606082015181600301556080820151816004015560a0820151816005015f6101000a81548160ff021916908315150217905550905050600160025f8381526020019081526020015f205f6101000a81548160ff021916908315150217905550600181908060018154018082558091505060019003905f5260205f20015f90919091909150557fdf8e86302a02e409e5a0869af916be906075601762032680d5493cb9bd3ed6518160405161072b9190611cf0565b60405180910390a160405180604001604052806001151581526020018281525091505092915050565b61075c610dfe565b5f83834260405160200161077293929190611d66565b6040516020818303038152906040528051906020012090505f60016064866040516020016107a09190611da5565b604051602081830303815290604052805190602001205f1c6107c29190611de8565b6107cc9190611e18565b90506040518060c001604052806040518060400160405280600781526020017f636f6e636570740000000000000000000000000000000000000000000000000081525081526020018681526020016040518060400160405280600781526020017f6865616c746879000000000000000000000000000000000000000000000000008152508152602001828152602001428152602001600115158152505f808481526020019081526020015f205f820151815f01908161088b91906118cf565b5060208201518160010190816108a191906118cf565b5060408201518160020190816108b791906118cf565b50606082015181600301556080820151816004015560a0820151816005015f6101000a81548160ff021916908315150217905550905050600160025f8481526020019081526020015f205f6101000a81548160ff021916908315150217905550600182908060018154018082558091505060019003905f5260205f20015f90919091909150555f8560405160200161094f9190611ea3565b6040516020818303038152906040528051906020012090506040518060a001604052808781526020018681526020018381526020016001151581526020016001151581525060035f8381526020019081526020015f205f820151815f0190816109b891906118cf565b5060208201518160010190816109ce91906118cf565b50604082015181600201556060820151816003015f6101000a81548160ff02191690831515021790555060808201518160030160016101000a81548160ff0219169083151502179055509050505f805b600480549050811015610a6a578260048281548110610a4057610a3f611549565b5b905f5260205f20015403610a575760019150610a6a565b8080610a62906116fd565b915050610a1e565b5080610a9757600482908060018154018082558091505060019003905f5260205f20015f90919091909150555b7f071e4ec563e693efe0c709e0b539c935604e35e5972f0f89883a1b17e064c02c84845f604051610aca93929190611f0c565b60405180910390a160405180606001604052806001151581526020018581526020018481525094505050505092915050565b610b04610e21565b5f825111610b47576040517f08c379a0000000000000000000000000000000000000000000000000000000008152600401610b3e90611fc4565b60405180910390fd5b5f8342604051602001610b5b92919061202c565b6040516020818303038152906040528051906020012090505f6005600f8551610b84919061205e565b610b8e9190611e18565b90506040518060c001604052806040518060400160405280600481526020017f73796e630000000000000000000000000000000000000000000000000000000081525081526020018681526020016040518060400160405280600781526020017f6865616c746879000000000000000000000000000000000000000000000000008152508152602001828152602001428152602001600115158152505f808481526020019081526020015f205f820151815f019081610c4d91906118cf565b506020820151816001019081610c6391906118cf565b506040820151816002019081610c7991906118cf565b50606082015181600301556080820151816004015560a0820151816005015f6101000a81548160ff021916908315150217905550905050600160025f8481526020019081526020015f205f6101000a81548160ff021916908315150217905550600182908060018154018082558091505060019003905f5260205f20015f90919091909150555f8067ffffffffffffffff811115610d1a57610d19610e6d565b5b604051908082528060200260200182016040528015610d4d57816020015b6060815260200190600190039081610d385790505b5090507f098fbc3e13806ea70c29b1507bcabf630bbebe3ceee40804e6c2e459585436058383835f604051610d8594939291906120d4565b60405180910390a1604051806060016040528060011515815260200184815260200183815250935050505092915050565b60405180608001604052805f151581526020015f801916815260200160608152602001606081525090565b60405180604001604052805f151581526020015f80191681525090565b60405180606001604052805f151581526020015f80191681526020015f81525090565b60405180606001604052805f151581526020015f80191681526020015f81525090565b5f604051905090565b5f80fd5b5f80fd5b5f80fd5b5f80fd5b5f601f19601f8301169050919050565b7f4e487b71000000000000000000000000000000000000000000000000000000005f52604160045260245ffd5b610ea382610e5d565b810181811067ffffffffffffffff82111715610ec257610ec1610e6d565b5b80604052505050565b5f610ed4610e44565b9050610ee08282610e9a565b919050565b5f67ffffffffffffffff821115610eff57610efe610e6d565b5b610f0882610e5d565b9050602081019050919050565b828183375f83830152505050565b5f610f35610f3084610ee5565b610ecb565b905082815260208101848484011115610f5157610f50610e59565b5b610f5c848285610f15565b509392505050565b5f82601f830112610f7857610f77610e55565b5b8135610f88848260208601610f23565b91505092915050565b5f8060408385031215610fa757610fa6610e4d565b5b5f83013567ffffffffffffffff811115610fc457610fc3610e51565b5b610fd085828601610f64565b925050602083013567ffffffffffffffff811115610ff157610ff0610e51565b5b610ffd85828601610f64565b9150509250929050565b5f8115159050919050565b61101b81611007565b82525050565b5f819050919050565b61103381611021565b82525050565b5f81519050919050565b5f82825260208201905092915050565b5f819050602082019050919050565b5f81519050919050565b5f82825260208201905092915050565b5f5b8381101561109957808201518184015260208101905061107e565b5f8484015250505050565b5f6110ae82611062565b6110b8818561106c565b93506110c881856020860161107c565b6110d181610e5d565b840191505092915050565b5f6110e783836110a4565b905092915050565b5f602082019050919050565b5f61110582611039565b61110f8185611043565b93508360208202850161112185611053565b805f5b8581101561115c578484038952815161113d85826110dc565b9450611148836110ef565b925060208a01995050600181019050611124565b50829750879550505050505092915050565b5f608083015f8301516111835f860182611012565b506020830151611196602086018261102a565b50604083015184820360408601526111ae82826110fb565b915050606083015184820360608601526111c882826110fb565b9150508091505092915050565b5f6020820190508181035f8301526111ed818461116e565b905092915050565b604082015f8201516112095f850182611012565b50602082015161121c602085018261102a565b50505050565b5f6040820190506112355f8301846111f5565b92915050565b5f819050919050565b61124d8161123b565b82525050565b606082015f8201516112675f850182611012565b50602082015161127a602085018261102a565b50604082015161128d6040850182611244565b50505050565b5f6060820190506112a65f830184611253565b92915050565b5f67ffffffffffffffff8211156112c6576112c5610e6d565b5b602082029050602081019050919050565b5f80fd5b5f6112ed6112e8846112ac565b610ecb565b905080838252602082019050602084028301858111156113105761130f6112d7565b5b835b8181101561135757803567ffffffffffffffff81111561133557611334610e55565b5b8086016113428982610f64565b85526020850194505050602081019050611312565b5050509392505050565b5f82601f83011261137557611374610e55565b5b81356113858482602086016112db565b91505092915050565b5f80604083850312156113a4576113a3610e4d565b5b5f83013567ffffffffffffffff8111156113c1576113c0610e51565b5b6113cd85828601610f64565b925050602083013567ffffffffffffffff8111156113ee576113ed610e51565b5b6113fa85828601611361565b9150509250929050565b606082015f8201516114185f850182611012565b50602082015161142b602085018261102a565b50604082015161143e6040850182611244565b50505050565b5f6060820190506114575f830184611404565b92915050565b5f81905092915050565b7f6b69743a000000000000000000000000000000000000000000000000000000005f82015250565b5f61149b60048361145d565b91506114a682611467565b600482019050919050565b5f6114bb82611062565b6114c5818561145d565b93506114d581856020860161107c565b80840191505092915050565b5f819050919050565b5f819050919050565b6115046114ff826114e1565b6114ea565b82525050565b5f6115148261148f565b915061152082866114b1565b915061152c82856114b1565b915061153882846114f3565b602082019150819050949350505050565b7f4e487b71000000000000000000000000000000000000000000000000000000005f52603260045260245ffd5b7f4e487b71000000000000000000000000000000000000000000000000000000005f52602260045260245ffd5b5f60028204905060018216806115ba57607f821691505b6020821081036115cd576115cc611576565b5b50919050565b5f819050815f5260205f209050919050565b5f81546115f1816115a3565b6115fb818661145d565b9450600182165f8114611615576001811461162a5761165c565b60ff198316865281151582028601935061165c565b611633856115d3565b5f5b8381101561165457815481890152600182019150602081019050611635565b838801955050505b50505092915050565b7f3a6865616c7468790000000000000000000000000000000000000000000000005f82015250565b5f61169960088361145d565b91506116a482611665565b600882019050919050565b5f6116ba82846115e5565b91506116c58261168d565b915081905092915050565b7f4e487b71000000000000000000000000000000000000000000000000000000005f52601160045260245ffd5b5f611707826114e1565b91507fffffffffffffffffffffffffffffffffffffffffffffffffffffffffffffffff8203611739576117386116d0565b5b600182019050919050565b5f6020601f8301049050919050565b5f82821b905092915050565b5f6008830261178e7fffffffffffffffffffffffffffffffffffffffffffffffffffffffffffffffff82611753565b6117988683611753565b95508019841693508086168417925050509392505050565b5f819050919050565b5f6117d36117ce6117c9846114e1565b6117b0565b6114e1565b9050919050565b5f819050919050565b6117ec836117b9565b6118006117f8826117da565b84845461175f565b825550505050565b5f90565b611814611808565b61181f8184846117e3565b505050565b5b81811015611842576118375f8261180c565b600181019050611825565b5050565b601f82111561188757611858816115d3565b61186184611744565b81016020851015611870578190505b61188461187c85611744565b830182611824565b50505b505050565b5f82821c905092915050565b5f6118a75f198460080261188c565b1980831691505092915050565b5f6118bf8383611898565b9150826002028217905092915050565b6118d882611062565b67ffffffffffffffff8111156118f1576118f0610e6d565b5b6118fb82546115a3565b611906828285611846565b5f60209050601f831160018114611937575f8415611925578287015190505b61192f85826118b4565b865550611996565b601f198416611945866115d3565b5f5b8281101561196c57848901518255600182019150602085019450602081019050611947565b868310156119895784890151611985601f891682611898565b8355505b6001600288020188555050505b505050505050565b5f82825260208201905092915050565b7f6f6b0000000000000000000000000000000000000000000000000000000000005f82015250565b5f6119e260028361199e565b91506119ed826119ae565b602082019050919050565b611a0181611021565b82525050565b5f82825260208201905092915050565b5f611a2182611039565b611a2b8185611a07565b935083602082028501611a3d85611053565b805f5b85811015611a785784840389528151611a5985826110dc565b9450611a64836110ef565b925060208a01995050600181019050611a40565b50829750879550505050505092915050565b5f60e0820190508181035f830152611aa1816119d6565b9050611ab060208301896119f8565b8181036040830152611ac28188611a17565b90508181036060830152611ad68187611a17565b90508181036080830152611aea8186611a17565b905081810360a0830152611afe8185611a17565b905081810360c0830152611b128184611a17565b9050979650505050505050565b7f436f6e63657074206d757374206e6f7420626520656d707479000000000000005f82015250565b5f611b5360198361199e565b9150611b5e82611b1f565b602082019050919050565b5f6020820190508181035f830152611b8081611b47565b9050919050565b7f496e76617269616e74206d757374206e6f7420626520656d70747900000000005f82015250565b5f611bbb601b8361199e565b9150611bc682611b87565b602082019050919050565b5f6020820190508181035f830152611be881611baf565b9050919050565b7f696e76617269616e743a000000000000000000000000000000000000000000005f82015250565b5f611c23600a8361145d565b9150611c2e82611bef565b600a82019050919050565b5f611c4382611c17565b9150611c4f82866114b1565b9150611c5b82856114b1565b9150611c6782846114f3565b602082019150819050949350505050565b7f3a000000000000000000000000000000000000000000000000000000000000005f82015250565b5f611cac60018361145d565b9150611cb782611c78565b600182019050919050565b5f611ccd82856114b1565b9150611cd882611ca0565b9150611ce482846114b1565b91508190509392505050565b5f6040820190508181035f830152611d07816119d6565b9050611d1660208301846119f8565b92915050565b7f636f6e636570743a0000000000000000000000000000000000000000000000005f82015250565b5f611d5060088361145d565b9150611d5b82611d1c565b600882019050919050565b5f611d7082611d44565b9150611d7c82866114b1565b9150611d8882856114b1565b9150611d9482846114f3565b602082019150819050949350505050565b5f611db082846114b1565b915081905092915050565b7f4e487b71000000000000000000000000000000000000000000000000000000005f52601260045260245ffd5b5f611df2826114e1565b9150611dfd836114e1565b925082611e0d57611e0c611dbb565b5b828206905092915050565b5f611e228261123b565b9150611e2d8361123b565b92508282019050828112155f8312168382125f841215161715611e5357611e526116d0565b5b92915050565b7f63683a00000000000000000000000000000000000000000000000000000000005f82015250565b5f611e8d60038361145d565b9150611e9882611e59565b600382019050919050565b5f611ead82611e81565b9150611eb982846114b1565b915081905092915050565b611ecd8161123b565b82525050565b5f819050919050565b5f611ef6611ef1611eec84611ed3565b6117b0565b61123b565b9050919050565b611f0681611edc565b82525050565b5f6080820190508181035f830152611f23816119d6565b9050611f3260208301866119f8565b611f3f6040830185611ec4565b611f4c6060830184611efd565b949350505050565b7f4d7573742070726f76696465206174206c65617374206f6e6520636f6e6365705f8201527f7400000000000000000000000000000000000000000000000000000000000000602082015250565b5f611fae60218361199e565b9150611fb982611f54565b604082019050919050565b5f6020820190508181035f830152611fdb81611fa2565b9050919050565b7f73796e633a0000000000000000000000000000000000000000000000000000005f82015250565b5f61201660058361145d565b915061202182611fe2565b600582019050919050565b5f6120368261200a565b915061204282856114b1565b915061204e82846114f3565b6020820191508190509392505050565b5f6120688261123b565b91506120738361123b565b92508282026120818161123b565b91507f800000000000000000000000000000000000000000000000000000000000000084145f841216156120b8576120b76116d0565b5b82820584148315176120cd576120cc6116d0565b5b5092915050565b5f60a0820190508181035f8301526120eb816119d6565b90506120fa60208301876119f8565b6121076040830186611ec4565b81810360608301526121198185611a17565b90506121286080830184611efd565b9594505050505056fea2646970667358221220b9348a4c91055cf202ba57aee9f974aa13248dc17d8f24c6f03dc112666e870564736f6c63430008140033","linkReferences":{}},"methodIdentifiers":{"checkConcept(string,string)":"d1b3bd94","checkInvariant(string,string)":"ad96acd4","checkKit(string,string)":"5303d38e","checkSync(string,string[])":"f48b1280"},"id":143}