{"abi":[{"type":"function","name":"generateAlias","inputs":[{"name":"nodeId","type":"bytes32","internalType":"bytes32"},{"name":"title","type":"string","internalType":"string"}],"outputs":[],"stateMutability":"nonpayable"},{"type":"function","name":"getAlias","inputs":[{"name":"nodeId","type":"bytes32","internalType":"bytes32"}],"outputs":[{"name":"found","type":"bool","internalType":"bool"},{"name":"slug","type":"string","internalType":"string"}],"stateMutability":"view"},{"type":"function","name":"hasAlias","inputs":[{"name":"nodeId","type":"bytes32","internalType":"bytes32"}],"outputs":[{"name":"","type":"bool","internalType":"bool"}],"stateMutability":"view"},{"type":"event","name":"AliasGenerated","inputs":[{"name":"nodeId","type":"bytes32","indexed":true,"internalType":"bytes32"},{"name":"slug","type":"string","indexed":false,"internalType":"string"}],"anonymous":false}],"bytecode":{"object":"0x608060405234801561000f575f80fd5b50610f958061001d5f395ff3fe608060405234801561000f575f80fd5b506004361061003f575f3560e01c80631da438e114610043578063749dcdba14610074578063f9219b9014610090575b5f80fd5b61005d60048036038101906100589190610861565b6100c0565b60405161006b929190610930565b60405180910390f35b61008e600480360381019061008991906109bf565b6101a4565b005b6100aa60048036038101906100a59190610861565b610300565b6040516100b79190610a1c565b60405180910390f35b5f606060015f8481526020019081526020015f205f9054906101000a900460ff166100fe575f60405180602001604052805f8152509150915061019f565b60015f808581526020019081526020015f2080805461011c90610a62565b80601f016020809104026020016040519081016040528092919081815260200182805461014890610a62565b80156101935780601f1061016a57610100808354040283529160200191610193565b820191905f5260205f20905b81548152906001019060200180831161017657829003601f168201915b50505050509050915091505b915091565b5f801b83036101e8576040517f08c379a00000000000000000000000000000000000000000000000000000000081526004016101df90610adc565b60405180910390fd5b5f828290501161022d576040517f08c379a000000000000000000000000000000000000000000000000000000000815260040161022490610b44565b60405180910390fd5b5f61027a83838080601f0160208091040260200160405190810160405280939291908181526020018383808284375f81840152601f19601f82011690508083019250505050505050610326565b9050805f808681526020019081526020015f2090816102999190610d35565b506001805f8681526020019081526020015f205f6101000a81548160ff021916908315150217905550837f122d408b818c5d79336d799444035242e376bc1868725ce40b8fe492b470854a826040516102f29190610e04565b60405180910390a250505050565b5f60015f8381526020019081526020015f205f9054906101000a900460ff169050919050565b60605f8290505f815167ffffffffffffffff81111561034857610347610b62565b5b6040519080825280601f01601f19166020018201604052801561037a5781602001600182028036833780820191505090505b5090505f805b83518110156106db575f84828151811061039d5761039c610e24565b5b602001015160f81c60f81b9050602060f81b817effffffffffffffffffffffffffffffffffffffffffffffffffffffffffffff191603610494575f831180156104355750602d60f81b846001856103f49190610e7e565b8151811061040557610404610e24565b5b602001015160f81c60f81b7effffffffffffffffffffffffffffffffffffffffffffffffffffffffffffff191614155b1561048f57602d60f81b84848151811061045257610451610e24565b5b60200101907effffffffffffffffffffffffffffffffffffffffffffffffffffffffffffff191690815f1a905350828061048b90610eb1565b9350505b6106c7565b604160f81b817effffffffffffffffffffffffffffffffffffffffffffffffffffffffffffff1916101580156104f05750605a60f81b817effffffffffffffffffffffffffffffffffffffffffffffffffffffffffffff191611155b1561055c5760208160f81c6105059190610f04565b60f81b84848151811061051b5761051a610e24565b5b60200101907effffffffffffffffffffffffffffffffffffffffffffffffffffffffffffff191690815f1a905350828061055490610eb1565b9350506106c6565b606160f81b817effffffffffffffffffffffffffffffffffffffffffffffffffffffffffffff1916101580156105b85750607a60f81b817effffffffffffffffffffffffffffffffffffffffffffffffffffffffffffff191611155b1561061257808484815181106105d1576105d0610e24565b5b60200101907effffffffffffffffffffffffffffffffffffffffffffffffffffffffffffff191690815f1a905350828061060a90610eb1565b9350506106c5565b603060f81b817effffffffffffffffffffffffffffffffffffffffffffffffffffffffffffff19161015801561066e5750603960f81b817effffffffffffffffffffffffffffffffffffffffffffffffffffffffffffff191611155b156106c4578084848151811061068757610686610e24565b5b60200101907effffffffffffffffffffffffffffffffffffffffffffffffffffffffffffff191690815f1a90535082806106c090610eb1565b9350505b5b5b5b5080806106d390610eb1565b915050610380565b505f811180156107395750602d60f81b826001836106f99190610e7e565b8151811061070a57610709610e24565b5b602001015160f81c60f81b7effffffffffffffffffffffffffffffffffffffffffffffffffffffffffffff1916145b1561074d57808061074990610f38565b9150505b5f8167ffffffffffffffff81111561076857610767610b62565b5b6040519080825280601f01601f19166020018201604052801561079a5781602001600182028036833780820191505090505b5090505f5b82811015610819578381815181106107ba576107b9610e24565b5b602001015160f81c60f81b8282815181106107d8576107d7610e24565b5b60200101907effffffffffffffffffffffffffffffffffffffffffffffffffffffffffffff191690815f1a905350808061081190610eb1565b91505061079f565b5080945050505050919050565b5f80fd5b5f80fd5b5f819050919050565b6108408161082e565b811461084a575f80fd5b50565b5f8135905061085b81610837565b92915050565b5f6020828403121561087657610875610826565b5b5f6108838482850161084d565b91505092915050565b5f8115159050919050565b6108a08161088c565b82525050565b5f81519050919050565b5f82825260208201905092915050565b5f5b838110156108dd5780820151818401526020810190506108c2565b5f8484015250505050565b5f601f19601f8301169050919050565b5f610902826108a6565b61090c81856108b0565b935061091c8185602086016108c0565b610925816108e8565b840191505092915050565b5f6040820190506109435f830185610897565b818103602083015261095581846108f8565b90509392505050565b5f80fd5b5f80fd5b5f80fd5b5f8083601f84011261097f5761097e61095e565b5b8235905067ffffffffffffffff81111561099c5761099b610962565b5b6020830191508360018202830111156109b8576109b7610966565b5b9250929050565b5f805f604084860312156109d6576109d5610826565b5b5f6109e38682870161084d565b935050602084013567ffffffffffffffff811115610a0457610a0361082a565b5b610a108682870161096a565b92509250509250925092565b5f602082019050610a2f5f830184610897565b92915050565b7f4e487b71000000000000000000000000000000000000000000000000000000005f52602260045260245ffd5b5f6002820490506001821680610a7957607f821691505b602082108103610a8c57610a8b610a35565b5b50919050565b7f4e6f64652049442063616e6e6f74206265207a65726f000000000000000000005f82015250565b5f610ac66016836108b0565b9150610ad182610a92565b602082019050919050565b5f6020820190508181035f830152610af381610aba565b9050919050565b7f5469746c652063616e6e6f7420626520656d70747900000000000000000000005f82015250565b5f610b2e6015836108b0565b9150610b3982610afa565b602082019050919050565b5f6020820190508181035f830152610b5b81610b22565b9050919050565b7f4e487b71000000000000000000000000000000000000000000000000000000005f52604160045260245ffd5b5f819050815f5260205f209050919050565b5f6020601f8301049050919050565b5f82821b905092915050565b5f60088302610beb7fffffffffffffffffffffffffffffffffffffffffffffffffffffffffffffffff82610bb0565b610bf58683610bb0565b95508019841693508086168417925050509392505050565b5f819050919050565b5f819050919050565b5f610c39610c34610c2f84610c0d565b610c16565b610c0d565b9050919050565b5f819050919050565b610c5283610c1f565b610c66610c5e82610c40565b848454610bbc565b825550505050565b5f90565b610c7a610c6e565b610c85818484610c49565b505050565b5b81811015610ca857610c9d5f82610c72565b600181019050610c8b565b5050565b601f821115610ced57610cbe81610b8f565b610cc784610ba1565b81016020851015610cd6578190505b610cea610ce285610ba1565b830182610c8a565b50505b505050565b5f82821c905092915050565b5f610d0d5f1984600802610cf2565b1980831691505092915050565b5f610d258383610cfe565b9150826002028217905092915050565b610d3e826108a6565b67ffffffffffffffff811115610d5757610d56610b62565b5b610d618254610a62565b610d6c828285610cac565b5f60209050601f831160018114610d9d575f8415610d8b578287015190505b610d958582610d1a565b865550610dfc565b601f198416610dab86610b8f565b5f5b82811015610dd257848901518255600182019150602085019450602081019050610dad565b86831015610def5784890151610deb601f891682610cfe565b8355505b6001600288020188555050505b505050505050565b5f6020820190508181035f830152610e1c81846108f8565b905092915050565b7f4e487b71000000000000000000000000000000000000000000000000000000005f52603260045260245ffd5b7f4e487b71000000000000000000000000000000000000000000000000000000005f52601160045260245ffd5b5f610e8882610c0d565b9150610e9383610c0d565b9250828203905081811115610eab57610eaa610e51565b5b92915050565b5f610ebb82610c0d565b91507fffffffffffffffffffffffffffffffffffffffffffffffffffffffffffffffff8203610eed57610eec610e51565b5b600182019050919050565b5f60ff82169050919050565b5f610f0e82610ef8565b9150610f1983610ef8565b9250828201905060ff811115610f3257610f31610e51565b5b92915050565b5f610f4282610c0d565b91505f8203610f5457610f53610e51565b5b60018203905091905056fea2646970667358221220985be193a74449dfcb206a2c122c0247c658ae0f43b96049585d633ab3feae4c64736f6c63430008140033","linkReferences":{}},"methodIdentifiers":{"generateAlias(bytes32,string)":"749dcdba","getAlias(bytes32)":"1da438e1","hasAlias(bytes32)":"f9219b90"},"id":191}