{"abi":[{"type":"function","name":"findBoundToAction","inputs":[{"name":"action","type":"string","internalType":"string"}],"outputs":[{"name":"","type":"tuple","internalType":"struct AnatomyPartEntity.FindBoundToActionOkResult","components":[{"name":"success","type":"bool","internalType":"bool"},{"name":"parts","type":"string","internalType":"string"}]}],"stateMutability":"nonpayable"},{"type":"function","name":"findBoundToField","inputs":[{"name":"field","type":"string","internalType":"string"}],"outputs":[{"name":"","type":"tuple","internalType":"struct AnatomyPartEntity.FindBoundToFieldOkResult","components":[{"name":"success","type":"bool","internalType":"bool"},{"name":"parts","type":"string","internalType":"string"}]}],"stateMutability":"nonpayable"},{"type":"function","name":"findByRole","inputs":[{"name":"role","type":"string","internalType":"string"}],"outputs":[{"name":"","type":"tuple","internalType":"struct AnatomyPartEntity.FindByRoleOkResult","components":[{"name":"success","type":"bool","internalType":"bool"},{"name":"parts","type":"string","internalType":"string"}]}],"stateMutability":"nonpayable"},{"type":"function","name":"get","inputs":[{"name":"part","type":"bytes32","internalType":"bytes32"}],"outputs":[{"name":"","type":"tuple","internalType":"struct AnatomyPartEntity.GetOkResult","components":[{"name":"success","type":"bool","internalType":"bool"},{"name":"part","type":"bytes32","internalType":"bytes32"},{"name":"widget","type":"string","internalType":"string"},{"name":"name","type":"string","internalType":"string"},{"name":"semanticRole","type":"string","internalType":"string"},{"name":"required","type":"string","internalType":"string"}]}],"stateMutability":"nonpayable"},{"type":"function","name":"register","inputs":[{"name":"widget","type":"string","internalType":"string"},{"name":"name","type":"string","internalType":"string"},{"name":"role","type":"string","internalType":"string"},{"name":"required","type":"string","internalType":"string"}],"outputs":[{"name":"","type":"tuple","internalType":"struct AnatomyPartEntity.RegisterOkResult","components":[{"name":"success","type":"bool","internalType":"bool"},{"name":"part","type":"bytes32","internalType":"bytes32"}]}],"stateMutability":"nonpayable"},{"type":"event","name":"FindBoundToActionCompleted","inputs":[{"name":"variant","type":"string","indexed":false,"internalType":"string"}],"anonymous":false},{"type":"event","name":"FindBoundToFieldCompleted","inputs":[{"name":"variant","type":"string","indexed":false,"internalType":"string"}],"anonymous":false},{"type":"event","name":"FindByRoleCompleted","inputs":[{"name":"variant","type":"string","indexed":false,"internalType":"string"}],"anonymous":false},{"type":"event","name":"GetCompleted","inputs":[{"name":"variant","type":"string","indexed":false,"internalType":"string"},{"name":"part","type":"bytes32","indexed":false,"internalType":"bytes32"}],"anonymous":false},{"type":"event","name":"RegisterCompleted","inputs":[{"name":"variant","type":"string","indexed":false,"internalType":"string"},{"name":"part","type":"bytes32","indexed":false,"internalType":"bytes32"}],"anonymous":false}],"bytecode":{"object":"0x608060405234801561000f575f80fd5b50611a708061001d5f395ff3fe608060405234801561000f575f80fd5b5060043610610055575f3560e01c80630e24c52c146100595780633dc10dc2146100895780638eaa6ac0146100b9578063c706b20b146100e9578063dcf68c6514610119575b5f80fd5b610073600480360381019061006e9190610db0565b610149565b6040516100809190610ee3565b60405180910390f35b6100a3600480360381019061009e9190610efc565b610455565b6040516100b09190610ff7565b60405180910390f35b6100d360048036038101906100ce9190611041565b6105a2565b6040516100e09190611107565b60405180910390f35b61010360048036038101906100fe9190610efc565b6108b2565b6040516101109190611161565b60405180910390f35b610133600480360381019061012e9190610efc565b610a37565b60405161014091906111bb565b60405180910390f35b610151610bbc565b5f855111610194576040517f08c379a000000000000000000000000000000000000000000000000000000000815260040161018b90611235565b60405180910390fd5b5f8451116101d7576040517f08c379a00000000000000000000000000000000000000000000000000000000081526004016101ce9061129d565b60405180910390fd5b5f85856040516020016101eb9291906112f5565b6040516020818303038152906040528051906020012090505f808281526020019081526020015f206004015f9054906101000a900460ff1615610263576040517f08c379a000000000000000000000000000000000000000000000000000000000815260040161025a90611362565b60405180910390fd5b6040518060a00160405280878152602001868152602001858152602001848152602001600115158152505f808381526020019081526020015f205f820151815f0190816102b09190611583565b5060208201518160010190816102c69190611583565b5060408201518160020190816102dc9190611583565b5060608201518160030190816102f29190611583565b506080820151816004015f6101000a81548160ff021916908315150217905550905050600181908060018154018082558091505060019003905f5260205f20015f90919091909150555f8460405160200161034d9190611652565b60405160208183030381529060405280519060200120905060025f8281526020019081526020015f2082908060018154018082558091505060019003905f5260205f20015f90919091909150555f876040516020016103ac9190611652565b60405160208183030381529060405280519060200120905060035f8281526020019081526020015f2083908060018154018082558091505060019003905f5260205f20015f90919091909150557f0402c886f5c1bb50afb826d1767a153123631152c678fbec8089e9e8ee3e49bf8360405161042891906116c1565b60405180910390a16040518060400160405280600115158152602001848152509350505050949350505050565b61045d610bd9565b5f8260405160200161046f9190611652565b6040516020818303038152906040528051906020012090505f60025f8381526020019081526020015f2090505f60405180602001604052805f81525090505f5b828054905081101561054a575f8111156104e657816040516020016104d49190611737565b60405160208183030381529060405291505b815f808584815481106104fc576104fb611758565b5b905f5260205f20015481526020019081526020015f20600101604051602001610526929190611805565b6040516020818303038152906040529150808061054290611855565b9150506104af565b507f54d08c74934b5a3c480ff859ad503e86c164ebe57fb4a873bee1de8448017e996040516105789061189c565b60405180910390a16040518060400160405280600115158152602001828152509350505050919050565b6105aa610bf4565b5f808381526020019081526020015f206004015f9054906101000a900460ff16610609576040517f08c379a000000000000000000000000000000000000000000000000000000000815260040161060090611904565b60405180910390fd5b5f805f8481526020019081526020015f2090507fd45fe45dbfb310b00d5db432aa35f96282e16a8bb204b349e334de2cd5566f348360405161064b91906116c1565b60405180910390a16040518060c00160405280600115158152602001848152602001825f01805461067b906113ad565b80601f01602080910402602001604051908101604052809291908181526020018280546106a7906113ad565b80156106f25780601f106106c9576101008083540402835291602001916106f2565b820191905f5260205f20905b8154815290600101906020018083116106d557829003601f168201915b5050505050815260200182600101805461070b906113ad565b80601f0160208091040260200160405190810160405280929190818152602001828054610737906113ad565b80156107825780601f1061075957610100808354040283529160200191610782565b820191905f5260205f20905b81548152906001019060200180831161076557829003601f168201915b5050505050815260200182600201805461079b906113ad565b80601f01602080910402602001604051908101604052809291908181526020018280546107c7906113ad565b80156108125780601f106107e957610100808354040283529160200191610812565b820191905f5260205f20905b8154815290600101906020018083116107f557829003601f168201915b5050505050815260200182600301805461082b906113ad565b80601f0160208091040260200160405190810160405280929190818152602001828054610857906113ad565b80156108a25780601f10610879576101008083540402835291602001916108a2565b820191905f5260205f20905b81548152906001019060200180831161088557829003601f168201915b5050505050815250915050919050565b6108ba610c2d565b5f826040516020016108cc919061196c565b6040516020818303038152906040528051906020012090505f60405180602001604052805f81525090505f805b6001805490508110156109df575f805f6001848154811061091d5761091c611758565b5b905f5260205f20015481526020019081526020015f2090505f8160020160405160200161094a919061198d565b6040516020818303038152906040528051906020012090508581036109ca575f84111561099457846040516020016109829190611737565b60405160208183030381529060405294505b84826001016040516020016109aa929190611805565b604051602081830303815290604052945083806109c690611855565b9450505b505080806109d790611855565b9150506108f9565b507f58eff7819daf86020f7b974f25ebdee9da95873bdd68fd2f20d3b26ae6d5dc07604051610a0d9061189c565b60405180910390a16040518060400160405280600115158152602001838152509350505050919050565b610a3f610c48565b5f82604051602001610a5191906119f8565b6040516020818303038152906040528051906020012090505f60405180602001604052805f81525090505f805b600180549050811015610b64575f805f60018481548110610aa257610aa1611758565b5b905f5260205f20015481526020019081526020015f2090505f81600201604051602001610acf9190611a19565b604051602081830303815290604052805190602001209050858103610b4f575f841115610b195784604051602001610b079190611737565b60405160208183030381529060405294505b8482600101604051602001610b2f929190611805565b60405160208183030381529060405294508380610b4b90611855565b9450505b50508080610b5c90611855565b915050610a7e565b507fc8f2ad3c32e9968705fcb9df42ef03a51bfd9b8d7dd68f505a41b3f715f45c1d604051610b929061189c565b60405180910390a16040518060400160405280600115158152602001838152509350505050919050565b60405180604001604052805f151581526020015f80191681525090565b60405180604001604052805f15158152602001606081525090565b6040518060c001604052805f151581526020015f8019168152602001606081526020016060815260200160608152602001606081525090565b60405180604001604052805f15158152602001606081525090565b60405180604001604052805f15158152602001606081525090565b5f604051905090565b5f80fd5b5f80fd5b5f80fd5b5f80fd5b5f601f19601f8301169050919050565b7f4e487b71000000000000000000000000000000000000000000000000000000005f52604160045260245ffd5b610cc282610c7c565b810181811067ffffffffffffffff82111715610ce157610ce0610c8c565b5b80604052505050565b5f610cf3610c63565b9050610cff8282610cb9565b919050565b5f67ffffffffffffffff821115610d1e57610d1d610c8c565b5b610d2782610c7c565b9050602081019050919050565b828183375f83830152505050565b5f610d54610d4f84610d04565b610cea565b905082815260208101848484011115610d7057610d6f610c78565b5b610d7b848285610d34565b509392505050565b5f82601f830112610d9757610d96610c74565b5b8135610da7848260208601610d42565b91505092915050565b5f805f8060808587031215610dc857610dc7610c6c565b5b5f85013567ffffffffffffffff811115610de557610de4610c70565b5b610df187828801610d83565b945050602085013567ffffffffffffffff811115610e1257610e11610c70565b5b610e1e87828801610d83565b935050604085013567ffffffffffffffff811115610e3f57610e3e610c70565b5b610e4b87828801610d83565b925050606085013567ffffffffffffffff811115610e6c57610e6b610c70565b5b610e7887828801610d83565b91505092959194509250565b5f8115159050919050565b610e9881610e84565b82525050565b5f819050919050565b610eb081610e9e565b82525050565b604082015f820151610eca5f850182610e8f565b506020820151610edd6020850182610ea7565b50505050565b5f604082019050610ef65f830184610eb6565b92915050565b5f60208284031215610f1157610f10610c6c565b5b5f82013567ffffffffffffffff811115610f2e57610f2d610c70565b5b610f3a84828501610d83565b91505092915050565b5f81519050919050565b5f82825260208201905092915050565b5f5b83811015610f7a578082015181840152602081019050610f5f565b5f8484015250505050565b5f610f8f82610f43565b610f998185610f4d565b9350610fa9818560208601610f5d565b610fb281610c7c565b840191505092915050565b5f604083015f830151610fd25f860182610e8f565b5060208301518482036020860152610fea8282610f85565b9150508091505092915050565b5f6020820190508181035f83015261100f8184610fbd565b905092915050565b61102081610e9e565b811461102a575f80fd5b50565b5f8135905061103b81611017565b92915050565b5f6020828403121561105657611055610c6c565b5b5f6110638482850161102d565b91505092915050565b5f60c083015f8301516110815f860182610e8f565b5060208301516110946020860182610ea7565b50604083015184820360408601526110ac8282610f85565b915050606083015184820360608601526110c68282610f85565b915050608083015184820360808601526110e08282610f85565b91505060a083015184820360a08601526110fa8282610f85565b9150508091505092915050565b5f6020820190508181035f83015261111f818461106c565b905092915050565b5f604083015f83015161113c5f860182610e8f565b50602083015184820360208601526111548282610f85565b9150508091505092915050565b5f6020820190508181035f8301526111798184611127565b905092915050565b5f604083015f8301516111965f860182610e8f565b50602083015184820360208601526111ae8282610f85565b9150508091505092915050565b5f6020820190508181035f8301526111d38184611181565b905092915050565b5f82825260208201905092915050565b7f576964676574206d757374206e6f7420626520656d70747900000000000000005f82015250565b5f61121f6018836111db565b915061122a826111eb565b602082019050919050565b5f6020820190508181035f83015261124c81611213565b9050919050565b7f4e616d65206d757374206e6f7420626520656d707479000000000000000000005f82015250565b5f6112876016836111db565b915061129282611253565b602082019050919050565b5f6020820190508181035f8301526112b48161127b565b9050919050565b5f81905092915050565b5f6112cf82610f43565b6112d981856112bb565b93506112e9818560208601610f5d565b80840191505092915050565b5f61130082856112c5565b915061130c82846112c5565b91508190509392505050565b7f5061727420616c726561647920726567697374657265640000000000000000005f82015250565b5f61134c6017836111db565b915061135782611318565b602082019050919050565b5f6020820190508181035f83015261137981611340565b9050919050565b7f4e487b71000000000000000000000000000000000000000000000000000000005f52602260045260245ffd5b5f60028204905060018216806113c457607f821691505b6020821081036113d7576113d6611380565b5b50919050565b5f819050815f5260205f209050919050565b5f6020601f8301049050919050565b5f82821b905092915050565b5f600883026114397fffffffffffffffffffffffffffffffffffffffffffffffffffffffffffffffff826113fe565b61144386836113fe565b95508019841693508086168417925050509392505050565b5f819050919050565b5f819050919050565b5f61148761148261147d8461145b565b611464565b61145b565b9050919050565b5f819050919050565b6114a08361146d565b6114b46114ac8261148e565b84845461140a565b825550505050565b5f90565b6114c86114bc565b6114d3818484611497565b505050565b5b818110156114f6576114eb5f826114c0565b6001810190506114d9565b5050565b601f82111561153b5761150c816113dd565b611515846113ef565b81016020851015611524578190505b611538611530856113ef565b8301826114d8565b50505b505050565b5f82821c905092915050565b5f61155b5f1984600802611540565b1980831691505092915050565b5f611573838361154c565b9150826002028217905092915050565b61158c82610f43565b67ffffffffffffffff8111156115a5576115a4610c8c565b5b6115af82546113ad565b6115ba8282856114fa565b5f60209050601f8311600181146115eb575f84156115d9578287015190505b6115e38582611568565b86555061164a565b601f1984166115f9866113dd565b5f5b82811015611620578489015182556001820191506020850194506020810190506115fb565b8683101561163d5784890151611639601f89168261154c565b8355505b6001600288020188555050505b505050505050565b5f61165d82846112c5565b915081905092915050565b7f6f6b0000000000000000000000000000000000000000000000000000000000005f82015250565b5f61169c6002836111db565b91506116a782611668565b602082019050919050565b6116bb81610e9e565b82525050565b5f6040820190508181035f8301526116d881611690565b90506116e760208301846116b2565b92915050565b7f2c000000000000000000000000000000000000000000000000000000000000005f82015250565b5f6117216001836112bb565b915061172c826116ed565b600182019050919050565b5f61174282846112c5565b915061174d82611715565b915081905092915050565b7f4e487b71000000000000000000000000000000000000000000000000000000005f52603260045260245ffd5b5f8154611791816113ad565b61179b81866112bb565b9450600182165f81146117b557600181146117ca576117fc565b60ff19831686528115158202860193506117fc565b6117d3856113dd565b5f5b838110156117f4578154818901526001820191506020810190506117d5565b838801955050505b50505092915050565b5f61181082856112c5565b915061181c8284611785565b91508190509392505050565b7f4e487b71000000000000000000000000000000000000000000000000000000005f52601160045260245ffd5b5f61185f8261145b565b91507fffffffffffffffffffffffffffffffffffffffffffffffffffffffffffffffff820361189157611890611828565b5b600182019050919050565b5f6020820190508181035f8301526118b381611690565b9050919050565b7f50617274206e6f7420666f756e640000000000000000000000000000000000005f82015250565b5f6118ee600e836111db565b91506118f9826118ba565b602082019050919050565b5f6020820190508181035f83015261191b816118e2565b9050919050565b7f616374696f6e3a000000000000000000000000000000000000000000000000005f82015250565b5f6119566007836112bb565b915061196182611922565b600782019050919050565b5f6119768261194a565b915061198282846112c5565b915081905092915050565b5f6119978261194a565b91506119a38284611785565b915081905092915050565b7f6669656c643a00000000000000000000000000000000000000000000000000005f82015250565b5f6119e26006836112bb565b91506119ed826119ae565b600682019050919050565b5f611a02826119d6565b9150611a0e82846112c5565b915081905092915050565b5f611a23826119d6565b9150611a2f8284611785565b91508190509291505056fea26469706673582212208d20a6ba9b8130ec8a6794f840e1b0fe5c82b7d090c2f0d72b55e5fcd8c11ba864736f6c63430008140033","linkReferences":{}},"methodIdentifiers":{"findBoundToAction(string)":"c706b20b","findBoundToField(string)":"dcf68c65","findByRole(string)":"3dc10dc2","get(bytes32)":"8eaa6ac0","register(string,string,string,string)":"0e24c52c"},"id":27}