{"abi":[{"type":"function","name":"createPage","inputs":[{"name":"pageId","type":"bytes32","internalType":"bytes32"},{"name":"fullPath","type":"string","internalType":"string"},{"name":"parentId","type":"bytes32","internalType":"bytes32"}],"outputs":[],"stateMutability":"nonpayable"},{"type":"function","name":"getChildren","inputs":[{"name":"pageId","type":"bytes32","internalType":"bytes32"}],"outputs":[{"name":"","type":"bytes32[]","internalType":"bytes32[]"}],"stateMutability":"view"},{"type":"function","name":"getPage","inputs":[{"name":"pageId","type":"bytes32","internalType":"bytes32"}],"outputs":[{"name":"","type":"tuple","internalType":"struct Namespace.Page","components":[{"name":"fullPath","type":"string","internalType":"string"},{"name":"parentId","type":"bytes32","internalType":"bytes32"},{"name":"exists","type":"bool","internalType":"bool"}]}],"stateMutability":"view"},{"type":"function","name":"movePage","inputs":[{"name":"pageId","type":"bytes32","internalType":"bytes32"},{"name":"newParentId","type":"bytes32","internalType":"bytes32"}],"outputs":[],"stateMutability":"nonpayable"},{"type":"event","name":"PageCreated","inputs":[{"name":"pageId","type":"bytes32","indexed":true,"internalType":"bytes32"},{"name":"fullPath","type":"string","indexed":false,"internalType":"string"}],"anonymous":false},{"type":"event","name":"PageMoved","inputs":[{"name":"pageId","type":"bytes32","indexed":true,"internalType":"bytes32"},{"name":"newParentId","type":"bytes32","indexed":true,"internalType":"bytes32"}],"anonymous":false}],"bytecode":{"object":"0x608060405234801561000f575f80fd5b506111dd8061001d5f395ff3fe608060405234801561000f575f80fd5b506004361061004a575f3560e01c8063553155e11461004e5780635a1e95ff1461007e57806379388c671461009a578063d37684ff146100b6575b5f80fd5b610068600480360381019061006391906107a8565b6100e6565b60405161007591906108d3565b60405180910390f35b61009860048036038101906100939190610954565b610222565b005b6100b460048036038101906100af91906109c5565b610460565b005b6100d060048036038101906100cb91906107a8565b6106e2565b6040516100dd9190610aab565b60405180910390f35b6100ee610749565b5f808381526020019081526020015f206002015f9054906101000a900460ff1661014d576040517f08c379a000000000000000000000000000000000000000000000000000000000815260040161014490610b25565b60405180910390fd5b5f808381526020019081526020015f206040518060600160405290815f8201805461017790610b70565b80601f01602080910402602001604051908101604052809291908181526020018280546101a390610b70565b80156101ee5780601f106101c5576101008083540402835291602001916101ee565b820191905f5260205f20905b8154815290600101906020018083116101d157829003601f168201915b5050505050815260200160018201548152602001600282015f9054906101000a900460ff1615151515815250509050919050565b5f808581526020019081526020015f206002015f9054906101000a900460ff1615610282576040517f08c379a000000000000000000000000000000000000000000000000000000000815260040161027990610bea565b60405180910390fd5b5f83839050116102c7576040517f08c379a00000000000000000000000000000000000000000000000000000000081526004016102be90610c52565b60405180910390fd5b5f801b8114610330575f808281526020019081526020015f206002015f9054906101000a900460ff1661032f576040517f08c379a000000000000000000000000000000000000000000000000000000000815260040161032690610cba565b60405180910390fd5b5b604051806060016040528084848080601f0160208091040260200160405190810160405280939291908181526020018383808284375f81840152601f19601f820116905080830192505050505050508152602001828152602001600115158152505f808681526020019081526020015f205f820151815f0190816103b49190610eab565b50602082015181600101556040820151816002015f6101000a81548160ff0219169083151502179055509050505f801b81146104205760015f8281526020019081526020015f2084908060018154018082558091505060019003905f5260205f20015f90919091909150555b837f35eafe53c854fcf5a8d18a692d02adc976239b54c04aea23ff280946883b84948484604051610452929190610fb4565b60405180910390a250505050565b5f808381526020019081526020015f206002015f9054906101000a900460ff166104bf576040517f08c379a00000000000000000000000000000000000000000000000000000000081526004016104b690610b25565b60405180910390fd5b5f801b8114610528575f808281526020019081526020015f206002015f9054906101000a900460ff16610527576040517f08c379a000000000000000000000000000000000000000000000000000000000815260040161051e90611020565b60405180910390fd5b5b80820361056a576040517f08c379a000000000000000000000000000000000000000000000000000000000815260040161056190611088565b60405180910390fd5b5f805f8481526020019081526020015f206001015490505f801b8114610658575f60015f8381526020019081526020015f2090505f5b818054905081101561065557848282815481106105c0576105bf6110a6565b5b905f5260205f200154036106425781600183805490506105e09190611100565b815481106105f1576105f06110a6565b5b905f5260205f20015482828154811061060d5761060c6110a6565b5b905f5260205f2001819055508180548061062a57610629611133565b5b600190038181905f5260205f20015f90559055610655565b808061064d90611160565b9150506105a0565b50505b815f808581526020019081526020015f20600101819055505f801b82146106af5760015f8381526020019081526020015f2083908060018154018082558091505060019003905f5260205f20015f90919091909150555b81837f750fd0972e1d9ec37ec2aef9ddf127cb17a59914393e714d5c63499ea1a3f3f060405160405180910390a3505050565b606060015f8381526020019081526020015f2080548060200260200160405190810160405280929190818152602001828054801561073d57602002820191905f5260205f20905b815481526020019060010190808311610729575b50505050509050919050565b6040518060600160405280606081526020015f80191681526020015f151581525090565b5f80fd5b5f80fd5b5f819050919050565b61078781610775565b8114610791575f80fd5b50565b5f813590506107a28161077e565b92915050565b5f602082840312156107bd576107bc61076d565b5b5f6107ca84828501610794565b91505092915050565b5f81519050919050565b5f82825260208201905092915050565b5f5b8381101561080a5780820151818401526020810190506107ef565b5f8484015250505050565b5f601f19601f8301169050919050565b5f61082f826107d3565b61083981856107dd565b93506108498185602086016107ed565b61085281610815565b840191505092915050565b61086681610775565b82525050565b5f8115159050919050565b6108808161086c565b82525050565b5f606083015f8301518482035f8601526108a08282610825565b91505060208301516108b5602086018261085d565b5060408301516108c86040860182610877565b508091505092915050565b5f6020820190508181035f8301526108eb8184610886565b905092915050565b5f80fd5b5f80fd5b5f80fd5b5f8083601f840112610914576109136108f3565b5b8235905067ffffffffffffffff811115610931576109306108f7565b5b60208301915083600182028301111561094d5761094c6108fb565b5b9250929050565b5f805f806060858703121561096c5761096b61076d565b5b5f61097987828801610794565b945050602085013567ffffffffffffffff81111561099a57610999610771565b5b6109a6878288016108ff565b935093505060406109b987828801610794565b91505092959194509250565b5f80604083850312156109db576109da61076d565b5b5f6109e885828601610794565b92505060206109f985828601610794565b9150509250929050565b5f81519050919050565b5f82825260208201905092915050565b5f819050602082019050919050565b5f610a37838361085d565b60208301905092915050565b5f602082019050919050565b5f610a5982610a03565b610a638185610a0d565b9350610a6e83610a1d565b805f5b83811015610a9e578151610a858882610a2c565b9750610a9083610a43565b925050600181019050610a71565b5085935050505092915050565b5f6020820190508181035f830152610ac38184610a4f565b905092915050565b5f82825260208201905092915050565b7f5061676520646f6573206e6f74206578697374000000000000000000000000005f82015250565b5f610b0f601383610acb565b9150610b1a82610adb565b602082019050919050565b5f6020820190508181035f830152610b3c81610b03565b9050919050565b7f4e487b71000000000000000000000000000000000000000000000000000000005f52602260045260245ffd5b5f6002820490506001821680610b8757607f821691505b602082108103610b9a57610b99610b43565b5b50919050565b7f5061676520616c726561647920657869737473000000000000000000000000005f82015250565b5f610bd4601383610acb565b9150610bdf82610ba0565b602082019050919050565b5f6020820190508181035f830152610c0181610bc8565b9050919050565b7f506174682063616e6e6f7420626520656d7074790000000000000000000000005f82015250565b5f610c3c601483610acb565b9150610c4782610c08565b602082019050919050565b5f6020820190508181035f830152610c6981610c30565b9050919050565b7f506172656e74207061676520646f6573206e6f742065786973740000000000005f82015250565b5f610ca4601a83610acb565b9150610caf82610c70565b602082019050919050565b5f6020820190508181035f830152610cd181610c98565b9050919050565b7f4e487b71000000000000000000000000000000000000000000000000000000005f52604160045260245ffd5b5f819050815f5260205f209050919050565b5f6020601f8301049050919050565b5f82821b905092915050565b5f60088302610d617fffffffffffffffffffffffffffffffffffffffffffffffffffffffffffffffff82610d26565b610d6b8683610d26565b95508019841693508086168417925050509392505050565b5f819050919050565b5f819050919050565b5f610daf610daa610da584610d83565b610d8c565b610d83565b9050919050565b5f819050919050565b610dc883610d95565b610ddc610dd482610db6565b848454610d32565b825550505050565b5f90565b610df0610de4565b610dfb818484610dbf565b505050565b5b81811015610e1e57610e135f82610de8565b600181019050610e01565b5050565b601f821115610e6357610e3481610d05565b610e3d84610d17565b81016020851015610e4c578190505b610e60610e5885610d17565b830182610e00565b50505b505050565b5f82821c905092915050565b5f610e835f1984600802610e68565b1980831691505092915050565b5f610e9b8383610e74565b9150826002028217905092915050565b610eb4826107d3565b67ffffffffffffffff811115610ecd57610ecc610cd8565b5b610ed78254610b70565b610ee2828285610e22565b5f60209050601f831160018114610f13575f8415610f01578287015190505b610f0b8582610e90565b865550610f72565b601f198416610f2186610d05565b5f5b82811015610f4857848901518255600182019150602085019450602081019050610f23565b86831015610f655784890151610f61601f891682610e74565b8355505b6001600288020188555050505b505050505050565b828183375f83830152505050565b5f610f938385610acb565b9350610fa0838584610f7a565b610fa983610815565b840190509392505050565b5f6020820190508181035f830152610fcd818486610f88565b90509392505050565b7f4e657720706172656e7420646f6573206e6f74206578697374000000000000005f82015250565b5f61100a601983610acb565b915061101582610fd6565b602082019050919050565b5f6020820190508181035f83015261103781610ffe565b9050919050565b7f506167652063616e6e6f7420626520697473206f776e20706172656e740000005f82015250565b5f611072601d83610acb565b915061107d8261103e565b602082019050919050565b5f6020820190508181035f83015261109f81611066565b9050919050565b7f4e487b71000000000000000000000000000000000000000000000000000000005f52603260045260245ffd5b7f4e487b71000000000000000000000000000000000000000000000000000000005f52601160045260245ffd5b5f61110a82610d83565b915061111583610d83565b925082820390508181111561112d5761112c6110d3565b5b92915050565b7f4e487b71000000000000000000000000000000000000000000000000000000005f52603160045260245ffd5b5f61116a82610d83565b91507fffffffffffffffffffffffffffffffffffffffffffffffffffffffffffffffff820361119c5761119b6110d3565b5b60018201905091905056fea264697066735822122001caa51682a762f453e2f106d5d2de7c48726bd1329f73639c0d1fcd491e00c264736f6c63430008140033","linkReferences":{}},"methodIdentifiers":{"createPage(bytes32,string,bytes32)":"5a1e95ff","getChildren(bytes32)":"d37684ff","getPage(bytes32)":"553155e1","movePage(bytes32,bytes32)":"79388c67"},"id":176}