{"abi":[{"type":"function","name":"build","inputs":[{"name":"source","type":"string","internalType":"string"},{"name":"toolchainPath","type":"string","internalType":"string"},{"name":"platform","type":"string","internalType":"string"},{"name":"config","type":"bytes","internalType":"bytes"}],"outputs":[{"name":"","type":"tuple","internalType":"struct TypeScriptBuilder.BuildOkResult","components":[{"name":"success","type":"bool","internalType":"bool"},{"name":"build","type":"bytes32","internalType":"bytes32"},{"name":"artifactPath","type":"string","internalType":"string"},{"name":"artifactHash","type":"string","internalType":"string"}]}],"stateMutability":"nonpayable"},{"type":"function","name":"package","inputs":[{"name":"buildId","type":"bytes32","internalType":"bytes32"},{"name":"format","type":"string","internalType":"string"}],"outputs":[{"name":"","type":"tuple","internalType":"struct TypeScriptBuilder.PackageOkResult","components":[{"name":"success","type":"bool","internalType":"bool"},{"name":"artifactPath","type":"string","internalType":"string"},{"name":"artifactHash","type":"string","internalType":"string"}]}],"stateMutability":"nonpayable"},{"type":"function","name":"register","inputs":[],"outputs":[{"name":"","type":"tuple","internalType":"struct TypeScriptBuilder.RegisterOkResult","components":[{"name":"success","type":"bool","internalType":"bool"},{"name":"name","type":"string","internalType":"string"},{"name":"language","type":"string","internalType":"string"},{"name":"capabilities","type":"string[]","internalType":"string[]"}]}],"stateMutability":"pure"},{"type":"function","name":"runTests","inputs":[{"name":"buildId","type":"bytes32","internalType":"bytes32"},{"name":"toolchainPath","type":"string","internalType":"string"},{"name":"invocation","type":"bytes","internalType":"bytes"},{"name":"testType","type":"string","internalType":"string"}],"outputs":[{"name":"","type":"tuple","internalType":"struct TypeScriptBuilder.TestOkResult","components":[{"name":"success","type":"bool","internalType":"bool"},{"name":"passed","type":"int256","internalType":"int256"},{"name":"failed","type":"int256","internalType":"int256"},{"name":"skipped","type":"int256","internalType":"int256"},{"name":"duration","type":"int256","internalType":"int256"},{"name":"testType","type":"string","internalType":"string"}]}],"stateMutability":"nonpayable"},{"type":"event","name":"BuildCompleted","inputs":[{"name":"variant","type":"string","indexed":false,"internalType":"string"},{"name":"build","type":"bytes32","indexed":false,"internalType":"bytes32"},{"name":"errors","type":"bytes[]","indexed":false,"internalType":"bytes[]"}],"anonymous":false},{"type":"event","name":"PackageCompleted","inputs":[{"name":"variant","type":"string","indexed":false,"internalType":"string"}],"anonymous":false},{"type":"event","name":"RegisterCompleted","inputs":[{"name":"variant","type":"string","indexed":false,"internalType":"string"},{"name":"capabilities","type":"string[]","indexed":false,"internalType":"string[]"}],"anonymous":false},{"type":"event","name":"TestCompleted","inputs":[{"name":"variant","type":"string","indexed":false,"internalType":"string"},{"name":"passed","type":"int256","indexed":false,"internalType":"int256"},{"name":"failed","type":"int256","indexed":false,"internalType":"int256"},{"name":"skipped","type":"int256","indexed":false,"internalType":"int256"},{"name":"duration","type":"int256","indexed":false,"internalType":"int256"},{"name":"failures","type":"bytes[]","indexed":false,"internalType":"bytes[]"}],"anonymous":false}],"bytecode":{"object":"0x608060405234801561000f575f80fd5b50611b458061001d5f395ff3fe608060405234801561000f575f80fd5b506004361061004a575f3560e01c80631aa3a0081461004e578063c2a6a7421461006c578063ef4c84971461009c578063efb486cb146100cc575b5f80fd5b6100566100fc565b6040516100639190610b78565b60405180910390f35b61008660048036038101906100819190610d73565b6102e8565b6040516100939190610ec6565b60405180910390f35b6100b660048036038101906100b19190610f10565b6105b1565b6040516100c39190611066565b60405180910390f35b6100e660048036038101906100e19190611086565b6106b0565b6040516100f39190611134565b60405180910390f35b610104610902565b5f600367ffffffffffffffff8111156101205761011f610bb1565b5b60405190808252806020026020018201604052801561015357816020015b606081526020019060019003908161013e5790505b5090506040518060400160405280600381526020017f7473630000000000000000000000000000000000000000000000000000000000815250815f8151811061019f5761019e611154565b5b60200260200101819052506040518060400160405280600781526020017f65736275696c6400000000000000000000000000000000000000000000000000815250816001815181106101f4576101f3611154565b5b60200260200101819052506040518060400160405280600681526020017f76697465737400000000000000000000000000000000000000000000000000008152508160028151811061024957610248611154565b5b602002602001018190525060405180608001604052806001151581526020016040518060400160405280601281526020017f747970657363726970742d6275696c646572000000000000000000000000000081525081526020016040518060400160405280600a81526020017f747970657363726970740000000000000000000000000000000000000000000081525081526020018281525091505090565b6102f061092b565b5f855111610333576040517f08c379a000000000000000000000000000000000000000000000000000000000815260040161032a906111db565b60405180910390fd5b5f845111610376576040517f08c379a000000000000000000000000000000000000000000000000000000000815260040161036d90611243565b60405180910390fd5b5f85858542436040516020016103909594939291906112c4565b6040516020818303038152906040528051906020012090505f866040516020016103ba9190611360565b60405160208183030381529060405290505f826040516020016103dd91906113a1565b60405160208183030381529060405290506040518061010001604052808981526020018881526020018781526020018381526020018281526020016040518060400160405280600981526020017f636f6d706c6574656400000000000000000000000000000000000000000000008152508152602001428152602001600115158152505f808581526020019081526020015f205f820151815f01908161048391906115b5565b50602082015181600101908161049991906115b5565b5060408201518160020190816104af91906115b5565b5060608201518160030190816104c591906115b5565b5060808201518160040190816104db91906115b5565b5060a08201518160050190816104f191906115b5565b5060c0820151816006015560e0820151816007015f6101000a81548160ff021916908315150217905550905050600183908060018154018082558091505060019003905f5260205f20015f909190919091505560607f30d08aa4eb56f8d590596acab7ef5101e35e648bd03fc20c01723bbcf63a069784826040516105779291906117ea565b60405180910390a1604051806080016040528060011515815260200185815260200184815260200183815250945050505050949350505050565b6105b9610956565b5f808681526020019081526020015f206007015f9054906101000a900460ff16610618576040517f08c379a000000000000000000000000000000000000000000000000000000000815260040161060f90611875565b60405180910390fd5b5f600190505f805f6101f44261062e91906118c0565b905060607ffd4468e64050d82dbb5b9e8c368d8171d787a33de2bb9b3190db053fb216441c85858585856040516106699594939291906118ff565b60405180910390a16040518060c001604052806001151581526020018681526020018581526020018481526020018381526020018881525095505050505050949350505050565b6106b8610989565b5f808481526020019081526020015f206007015f9054906101000a900460ff16610717576040517f08c379a000000000000000000000000000000000000000000000000000000000815260040161070e90611875565b60405180910390fd5b5f82511161075a576040517f08c379a0000000000000000000000000000000000000000000000000000000008152600401610751906119b4565b60405180910390fd5b5f805f8581526020019081526020015f2090505f8160030184604051602001610784929190611a9c565b60405160208183030381529060405290505f85856040516020016107a9929190611aca565b604051602081830303815290604052805190602001206040516020016107cf91906113a1565b60405160208183030381529060405290505f86866040516020016107f4929190611aca565b60405160208183030381529060405280519060200120905060405180608001604052808481526020018381526020018781526020016001151581525060025f8381526020019081526020015f205f820151815f01908161085491906115b5565b50602082015181600101908161086a91906115b5565b50604082015181600201908161088091906115b5565b506060820151816003015f6101000a81548160ff0219169083151502179055509050507ff66672b8159d7c7065114756e78cdbcb26b06daed53cef146c6cade1bbad4ce16040516108d090611af1565b60405180910390a160405180606001604052806001151581526020018481526020018381525094505050505092915050565b60405180608001604052805f151581526020016060815260200160608152602001606081525090565b60405180608001604052805f151581526020015f801916815260200160608152602001606081525090565b6040518060c001604052805f151581526020015f81526020015f81526020015f81526020015f8152602001606081525090565b60405180606001604052805f1515815260200160608152602001606081525090565b5f8115159050919050565b6109bf816109ab565b82525050565b5f81519050919050565b5f82825260208201905092915050565b5f5b838110156109fc5780820151818401526020810190506109e1565b5f8484015250505050565b5f601f19601f8301169050919050565b5f610a21826109c5565b610a2b81856109cf565b9350610a3b8185602086016109df565b610a4481610a07565b840191505092915050565b5f81519050919050565b5f82825260208201905092915050565b5f819050602082019050919050565b5f610a838383610a17565b905092915050565b5f602082019050919050565b5f610aa182610a4f565b610aab8185610a59565b935083602082028501610abd85610a69565b805f5b85811015610af85784840389528151610ad98582610a78565b9450610ae483610a8b565b925060208a01995050600181019050610ac0565b50829750879550505050505092915050565b5f608083015f830151610b1f5f8601826109b6565b5060208301518482036020860152610b378282610a17565b91505060408301518482036040860152610b518282610a17565b91505060608301518482036060860152610b6b8282610a97565b9150508091505092915050565b5f6020820190508181035f830152610b908184610b0a565b905092915050565b5f604051905090565b5f80fd5b5f80fd5b5f80fd5b5f80fd5b7f4e487b71000000000000000000000000000000000000000000000000000000005f52604160045260245ffd5b610be782610a07565b810181811067ffffffffffffffff82111715610c0657610c05610bb1565b5b80604052505050565b5f610c18610b98565b9050610c248282610bde565b919050565b5f67ffffffffffffffff821115610c4357610c42610bb1565b5b610c4c82610a07565b9050602081019050919050565b828183375f83830152505050565b5f610c79610c7484610c29565b610c0f565b905082815260208101848484011115610c9557610c94610bad565b5b610ca0848285610c59565b509392505050565b5f82601f830112610cbc57610cbb610ba9565b5b8135610ccc848260208601610c67565b91505092915050565b5f67ffffffffffffffff821115610cef57610cee610bb1565b5b610cf882610a07565b9050602081019050919050565b5f610d17610d1284610cd5565b610c0f565b905082815260208101848484011115610d3357610d32610bad565b5b610d3e848285610c59565b509392505050565b5f82601f830112610d5a57610d59610ba9565b5b8135610d6a848260208601610d05565b91505092915050565b5f805f8060808587031215610d8b57610d8a610ba1565b5b5f85013567ffffffffffffffff811115610da857610da7610ba5565b5b610db487828801610ca8565b945050602085013567ffffffffffffffff811115610dd557610dd4610ba5565b5b610de187828801610ca8565b935050604085013567ffffffffffffffff811115610e0257610e01610ba5565b5b610e0e87828801610ca8565b925050606085013567ffffffffffffffff811115610e2f57610e2e610ba5565b5b610e3b87828801610d46565b91505092959194509250565b5f819050919050565b610e5981610e47565b82525050565b5f608083015f830151610e745f8601826109b6565b506020830151610e876020860182610e50565b5060408301518482036040860152610e9f8282610a17565b91505060608301518482036060860152610eb98282610a17565b9150508091505092915050565b5f6020820190508181035f830152610ede8184610e5f565b905092915050565b610eef81610e47565b8114610ef9575f80fd5b50565b5f81359050610f0a81610ee6565b92915050565b5f805f8060808587031215610f2857610f27610ba1565b5b5f610f3587828801610efc565b945050602085013567ffffffffffffffff811115610f5657610f55610ba5565b5b610f6287828801610ca8565b935050604085013567ffffffffffffffff811115610f8357610f82610ba5565b5b610f8f87828801610d46565b925050606085013567ffffffffffffffff811115610fb057610faf610ba5565b5b610fbc87828801610ca8565b91505092959194509250565b5f819050919050565b610fda81610fc8565b82525050565b5f60c083015f830151610ff55f8601826109b6565b5060208301516110086020860182610fd1565b50604083015161101b6040860182610fd1565b50606083015161102e6060860182610fd1565b5060808301516110416080860182610fd1565b5060a083015184820360a08601526110598282610a17565b9150508091505092915050565b5f6020820190508181035f83015261107e8184610fe0565b905092915050565b5f806040838503121561109c5761109b610ba1565b5b5f6110a985828601610efc565b925050602083013567ffffffffffffffff8111156110ca576110c9610ba5565b5b6110d685828601610ca8565b9150509250929050565b5f606083015f8301516110f55f8601826109b6565b506020830151848203602086015261110d8282610a17565b915050604083015184820360408601526111278282610a17565b9150508091505092915050565b5f6020820190508181035f83015261114c81846110e0565b905092915050565b7f4e487b71000000000000000000000000000000000000000000000000000000005f52603260045260245ffd5b5f82825260208201905092915050565b7f536f75726365206d757374206e6f7420626520656d70747900000000000000005f82015250565b5f6111c5601883611181565b91506111d082611191565b602082019050919050565b5f6020820190508181035f8301526111f2816111b9565b9050919050565b7f546f6f6c636861696e2070617468206d757374206e6f7420626520656d7074795f82015250565b5f61122d602083611181565b9150611238826111f9565b602082019050919050565b5f6020820190508181035f83015261125a81611221565b9050919050565b5f81905092915050565b5f611275826109c5565b61127f8185611261565b935061128f8185602086016109df565b80840191505092915050565b5f819050919050565b5f819050919050565b6112be6112b98261129b565b6112a4565b82525050565b5f6112cf828861126b565b91506112db828761126b565b91506112e7828661126b565b91506112f382856112ad565b60208201915061130382846112ad565b6020820191508190509695505050505050565b7f2f646973740000000000000000000000000000000000000000000000000000005f82015250565b5f61134a600583611261565b915061135582611316565b600582019050919050565b5f61136b828461126b565b91506113768261133e565b915081905092915050565b5f819050919050565b61139b61139682610e47565b611381565b82525050565b5f6113ac828461138a565b60208201915081905092915050565b7f4e487b71000000000000000000000000000000000000000000000000000000005f52602260045260245ffd5b5f60028204905060018216806113ff57607f821691505b602082108103611412576114116113bb565b5b50919050565b5f819050815f5260205f209050919050565b5f6020601f8301049050919050565b5f82821b905092915050565b5f600883026114747fffffffffffffffffffffffffffffffffffffffffffffffffffffffffffffffff82611439565b61147e8683611439565b95508019841693508086168417925050509392505050565b5f819050919050565b5f6114b96114b46114af8461129b565b611496565b61129b565b9050919050565b5f819050919050565b6114d28361149f565b6114e66114de826114c0565b848454611445565b825550505050565b5f90565b6114fa6114ee565b6115058184846114c9565b505050565b5b818110156115285761151d5f826114f2565b60018101905061150b565b5050565b601f82111561156d5761153e81611418565b6115478461142a565b81016020851015611556578190505b61156a6115628561142a565b83018261150a565b50505b505050565b5f82821c905092915050565b5f61158d5f1984600802611572565b1980831691505092915050565b5f6115a5838361157e565b9150826002028217905092915050565b6115be826109c5565b67ffffffffffffffff8111156115d7576115d6610bb1565b5b6115e182546113e8565b6115ec82828561152c565b5f60209050601f83116001811461161d575f841561160b578287015190505b611615858261159a565b86555061167c565b601f19841661162b86611418565b5f5b828110156116525784890151825560018201915060208501945060208101905061162d565b8683101561166f578489015161166b601f89168261157e565b8355505b6001600288020188555050505b505050505050565b7f6f6b0000000000000000000000000000000000000000000000000000000000005f82015250565b5f6116b8600283611181565b91506116c382611684565b602082019050919050565b6116d781610e47565b82525050565b5f81519050919050565b5f82825260208201905092915050565b5f819050602082019050919050565b5f81519050919050565b5f82825260208201905092915050565b5f61172a82611706565b6117348185611710565b93506117448185602086016109df565b61174d81610a07565b840191505092915050565b5f6117638383611720565b905092915050565b5f602082019050919050565b5f611781826116dd565b61178b81856116e7565b93508360208202850161179d856116f7565b805f5b858110156117d857848403895281516117b98582611758565b94506117c48361176b565b925060208a019950506001810190506117a0565b50829750879550505050505092915050565b5f6060820190508181035f830152611801816116ac565b905061181060208301856116ce565b81810360408301526118228184611777565b90509392505050565b7f4275696c64206e6f7420666f756e6400000000000000000000000000000000005f82015250565b5f61185f600f83611181565b915061186a8261182b565b602082019050919050565b5f6020820190508181035f83015261188c81611853565b9050919050565b7f4e487b71000000000000000000000000000000000000000000000000000000005f52601260045260245ffd5b5f6118ca8261129b565b91506118d58361129b565b9250826118e5576118e4611893565b5b828206905092915050565b6118f981610fc8565b82525050565b5f60c0820190508181035f830152611916816116ac565b905061192560208301886118f0565b61193260408301876118f0565b61193f60608301866118f0565b61194c60808301856118f0565b81810360a083015261195e8184611777565b90509695505050505050565b7f466f726d6174206d757374206e6f7420626520656d70747900000000000000005f82015250565b5f61199e601883611181565b91506119a98261196a565b602082019050919050565b5f6020820190508181035f8301526119cb81611992565b9050919050565b5f81546119de816113e8565b6119e88186611261565b9450600182165f8114611a025760018114611a1757611a49565b60ff1983168652811515820286019350611a49565b611a2085611418565b5f5b83811015611a4157815481890152600182019150602081019050611a22565b838801955050505b50505092915050565b7f2e000000000000000000000000000000000000000000000000000000000000005f82015250565b5f611a86600183611261565b9150611a9182611a52565b600182019050919050565b5f611aa782856119d2565b9150611ab282611a7a565b9150611abe828461126b565b91508190509392505050565b5f611ad5828561138a565b602082019150611ae5828461126b565b91508190509392505050565b5f6020820190508181035f830152611b08816116ac565b905091905056fea2646970667358221220a2238e17aa603a86c322e6e381aed2b286210502fef14d44c0beb16bbdb4290964736f6c63430008140033","linkReferences":{}},"methodIdentifiers":{"build(string,string,string,bytes)":"c2a6a742","package(bytes32,string)":"efb486cb","register()":"1aa3a008","runTests(bytes32,string,bytes,string)":"ef4c8497"},"id":25}