{"abi":[{"type":"function","name":"getFunction","inputs":[{"name":"languageId","type":"bytes32","internalType":"bytes32"},{"name":"funcNameHash","type":"bytes32","internalType":"bytes32"}],"outputs":[{"name":"","type":"tuple","internalType":"struct ExpressionLanguage.FunctionDef","components":[{"name":"signature","type":"string","internalType":"string"},{"name":"exists","type":"bool","internalType":"bool"}]}],"stateMutability":"view"},{"type":"function","name":"getLanguage","inputs":[{"name":"languageId","type":"bytes32","internalType":"bytes32"}],"outputs":[{"name":"","type":"tuple","internalType":"struct ExpressionLanguage.Language","components":[{"name":"grammar","type":"string","internalType":"string"},{"name":"exists","type":"bool","internalType":"bool"}]}],"stateMutability":"view"},{"type":"function","name":"languageExists","inputs":[{"name":"languageId","type":"bytes32","internalType":"bytes32"}],"outputs":[{"name":"","type":"bool","internalType":"bool"}],"stateMutability":"view"},{"type":"function","name":"registerFunction","inputs":[{"name":"languageId","type":"bytes32","internalType":"bytes32"},{"name":"funcNameHash","type":"bytes32","internalType":"bytes32"},{"name":"name","type":"string","internalType":"string"},{"name":"signature","type":"string","internalType":"string"}],"outputs":[],"stateMutability":"nonpayable"},{"type":"function","name":"registerLanguage","inputs":[{"name":"languageId","type":"bytes32","internalType":"bytes32"},{"name":"grammar","type":"string","internalType":"string"}],"outputs":[],"stateMutability":"nonpayable"},{"type":"event","name":"FunctionRegistered","inputs":[{"name":"languageId","type":"bytes32","indexed":true,"internalType":"bytes32"},{"name":"name","type":"string","indexed":false,"internalType":"string"}],"anonymous":false},{"type":"event","name":"LanguageRegistered","inputs":[{"name":"languageId","type":"bytes32","indexed":true,"internalType":"bytes32"}],"anonymous":false}],"bytecode":{"object":"0x608060405234801561000f575f80fd5b506110f78061001d5f395ff3fe608060405234801561000f575f80fd5b5060043610610055575f3560e01c806303a150ec14610059578063484c6b861461008957806350a88bdf146100b957806396c4dba9146100d5578063ef8793b114610105575b5f80fd5b610073600480360381019061006e9190610776565b610121565b6040516100809190610892565b60405180910390f35b6100a3600480360381019061009e91906108b2565b610274565b6040516100b09190610917565b60405180910390f35b6100d360048036038101906100ce9190610998565b6103a6565b005b6100ef60048036038101906100ea91906108b2565b610581565b6040516100fc9190610a4a565b60405180910390f35b61011f600480360381019061011a9190610a63565b6105a9565b005b610129610705565b60015f8481526020019081526020015f205f8381526020019081526020015f206001015f9054906101000a900460ff16610198576040517f08c379a000000000000000000000000000000000000000000000000000000000815260040161018f90610b1a565b60405180910390fd5b60015f8481526020019081526020015f205f8381526020019081526020015f206040518060400160405290815f820180546101d290610b65565b80601f01602080910402602001604051908101604052809291908181526020018280546101fe90610b65565b80156102495780601f1061022057610100808354040283529160200191610249565b820191905f5260205f20905b81548152906001019060200180831161022c57829003601f168201915b50505050508152602001600182015f9054906101000a900460ff161515151581525050905092915050565b61027c610720565b5f808381526020019081526020015f206001015f9054906101000a900460ff166102db576040517f08c379a00000000000000000000000000000000000000000000000000000000081526004016102d290610bdf565b60405180910390fd5b5f808381526020019081526020015f206040518060400160405290815f8201805461030590610b65565b80601f016020809104026020016040519081016040528092919081815260200182805461033190610b65565b801561037c5780601f106103535761010080835404028352916020019161037c565b820191905f5260205f20905b81548152906001019060200180831161035f57829003601f168201915b50505050508152602001600182015f9054906101000a900460ff1615151515815250509050919050565b5f808781526020019081526020015f206001015f9054906101000a900460ff16610405576040517f08c379a00000000000000000000000000000000000000000000000000000000081526004016103fc90610bdf565b60405180910390fd5b5f801b8503610449576040517f08c379a000000000000000000000000000000000000000000000000000000000815260040161044090610c6d565b60405180910390fd5b5f828290501161048e576040517f08c379a000000000000000000000000000000000000000000000000000000000815260040161048590610cd5565b60405180910390fd5b604051806040016040528083838080601f0160208091040260200160405190810160405280939291908181526020018383808284375f81840152601f19601f8201169050808301925050505050505081526020016001151581525060015f8881526020019081526020015f205f8781526020019081526020015f205f820151815f01908161051c9190610ec6565b506020820151816001015f6101000a81548160ff021916908315150217905550905050857fb5ba8f11f66bb3382cfde8477492501f49f37aa11da7ac5f07c2b1c2eb4f469d8585604051610571929190610fcf565b60405180910390a2505050505050565b5f805f8381526020019081526020015f206001015f9054906101000a900460ff169050919050565b5f801b83036105ed576040517f08c379a00000000000000000000000000000000000000000000000000000000081526004016105e49061103b565b60405180910390fd5b5f8282905011610632576040517f08c379a0000000000000000000000000000000000000000000000000000000008152600401610629906110a3565b60405180910390fd5b604051806040016040528083838080601f0160208091040260200160405190810160405280939291908181526020018383808284375f81840152601f19601f820116905080830192505050505050508152602001600115158152505f808581526020019081526020015f205f820151815f0190816106b09190610ec6565b506020820151816001015f6101000a81548160ff021916908315150217905550905050827f2d4a5ccb87ed30595a99d1078dfff0a73858720032719d4e079ebb53bde4f3fa60405160405180910390a2505050565b6040518060400160405280606081526020015f151581525090565b6040518060400160405280606081526020015f151581525090565b5f80fd5b5f80fd5b5f819050919050565b61075581610743565b811461075f575f80fd5b50565b5f813590506107708161074c565b92915050565b5f806040838503121561078c5761078b61073b565b5b5f61079985828601610762565b92505060206107aa85828601610762565b9150509250929050565b5f81519050919050565b5f82825260208201905092915050565b5f5b838110156107eb5780820151818401526020810190506107d0565b5f8484015250505050565b5f601f19601f8301169050919050565b5f610810826107b4565b61081a81856107be565b935061082a8185602086016107ce565b610833816107f6565b840191505092915050565b5f8115159050919050565b6108528161083e565b82525050565b5f604083015f8301518482035f8601526108728282610806565b91505060208301516108876020860182610849565b508091505092915050565b5f6020820190508181035f8301526108aa8184610858565b905092915050565b5f602082840312156108c7576108c661073b565b5b5f6108d484828501610762565b91505092915050565b5f604083015f8301518482035f8601526108f78282610806565b915050602083015161090c6020860182610849565b508091505092915050565b5f6020820190508181035f83015261092f81846108dd565b905092915050565b5f80fd5b5f80fd5b5f80fd5b5f8083601f84011261095857610957610937565b5b8235905067ffffffffffffffff8111156109755761097461093b565b5b6020830191508360018202830111156109915761099061093f565b5b9250929050565b5f805f805f80608087890312156109b2576109b161073b565b5b5f6109bf89828a01610762565b96505060206109d089828a01610762565b955050604087013567ffffffffffffffff8111156109f1576109f061073f565b5b6109fd89828a01610943565b9450945050606087013567ffffffffffffffff811115610a2057610a1f61073f565b5b610a2c89828a01610943565b92509250509295509295509295565b610a448161083e565b82525050565b5f602082019050610a5d5f830184610a3b565b92915050565b5f805f60408486031215610a7a57610a7961073b565b5b5f610a8786828701610762565b935050602084013567ffffffffffffffff811115610aa857610aa761073f565b5b610ab486828701610943565b92509250509250925092565b5f82825260208201905092915050565b7f46756e6374696f6e206e6f7420666f756e6400000000000000000000000000005f82015250565b5f610b04601283610ac0565b9150610b0f82610ad0565b602082019050919050565b5f6020820190508181035f830152610b3181610af8565b9050919050565b7f4e487b71000000000000000000000000000000000000000000000000000000005f52602260045260245ffd5b5f6002820490506001821680610b7c57607f821691505b602082108103610b8f57610b8e610b38565b5b50919050565b7f4c616e6775616765206e6f7420666f756e6400000000000000000000000000005f82015250565b5f610bc9601283610ac0565b9150610bd482610b95565b602082019050919050565b5f6020820190508181035f830152610bf681610bbd565b9050919050565b7f46756e6374696f6e206e616d6520686173682063616e6e6f74206265207a65725f8201527f6f00000000000000000000000000000000000000000000000000000000000000602082015250565b5f610c57602183610ac0565b9150610c6282610bfd565b604082019050919050565b5f6020820190508181035f830152610c8481610c4b565b9050919050565b7f5369676e61747572652063616e6e6f7420626520656d707479000000000000005f82015250565b5f610cbf601983610ac0565b9150610cca82610c8b565b602082019050919050565b5f6020820190508181035f830152610cec81610cb3565b9050919050565b7f4e487b71000000000000000000000000000000000000000000000000000000005f52604160045260245ffd5b5f819050815f5260205f209050919050565b5f6020601f8301049050919050565b5f82821b905092915050565b5f60088302610d7c7fffffffffffffffffffffffffffffffffffffffffffffffffffffffffffffffff82610d41565b610d868683610d41565b95508019841693508086168417925050509392505050565b5f819050919050565b5f819050919050565b5f610dca610dc5610dc084610d9e565b610da7565b610d9e565b9050919050565b5f819050919050565b610de383610db0565b610df7610def82610dd1565b848454610d4d565b825550505050565b5f90565b610e0b610dff565b610e16818484610dda565b505050565b5b81811015610e3957610e2e5f82610e03565b600181019050610e1c565b5050565b601f821115610e7e57610e4f81610d20565b610e5884610d32565b81016020851015610e67578190505b610e7b610e7385610d32565b830182610e1b565b50505b505050565b5f82821c905092915050565b5f610e9e5f1984600802610e83565b1980831691505092915050565b5f610eb68383610e8f565b9150826002028217905092915050565b610ecf826107b4565b67ffffffffffffffff811115610ee857610ee7610cf3565b5b610ef28254610b65565b610efd828285610e3d565b5f60209050601f831160018114610f2e575f8415610f1c578287015190505b610f268582610eab565b865550610f8d565b601f198416610f3c86610d20565b5f5b82811015610f6357848901518255600182019150602085019450602081019050610f3e565b86831015610f805784890151610f7c601f891682610e8f565b8355505b6001600288020188555050505b505050505050565b828183375f83830152505050565b5f610fae8385610ac0565b9350610fbb838584610f95565b610fc4836107f6565b840190509392505050565b5f6020820190508181035f830152610fe8818486610fa3565b90509392505050565b7f4c616e67756167652049442063616e6e6f74206265207a65726f0000000000005f82015250565b5f611025601a83610ac0565b915061103082610ff1565b602082019050919050565b5f6020820190508181035f83015261105281611019565b9050919050565b7f4772616d6d61722063616e6e6f7420626520656d7074790000000000000000005f82015250565b5f61108d601783610ac0565b915061109882611059565b602082019050919050565b5f6020820190508181035f8301526110ba81611081565b905091905056fea264697066735822122004a29568217f44414b99df20438645a316304ea51d532e0b6d2488dd751bb34d64736f6c63430008140033","linkReferences":{}},"methodIdentifiers":{"getFunction(bytes32,bytes32)":"03a150ec","getLanguage(bytes32)":"484c6b86","languageExists(bytes32)":"96c4dba9","registerFunction(bytes32,bytes32,string,string)":"50a88bdf","registerLanguage(bytes32,string)":"ef8793b1"},"id":117}