{"abi":[{"type":"function","name":"compute","inputs":[{"name":"criterion","type":"string","internalType":"string"},{"name":"direction","type":"string","internalType":"string"}],"outputs":[{"name":"","type":"tuple","internalType":"struct ProgramSlice.ComputeOkResult","components":[{"name":"success","type":"bool","internalType":"bool"},{"name":"slice","type":"bytes32","internalType":"bytes32"}]}],"stateMutability":"nonpayable"},{"type":"function","name":"filesInSlice","inputs":[{"name":"slice","type":"bytes32","internalType":"bytes32"}],"outputs":[{"name":"","type":"tuple","internalType":"struct ProgramSlice.FilesInSliceOkResult","components":[{"name":"success","type":"bool","internalType":"bool"},{"name":"files","type":"string","internalType":"string"}]}],"stateMutability":"nonpayable"},{"type":"function","name":"get","inputs":[{"name":"slice","type":"bytes32","internalType":"bytes32"}],"outputs":[{"name":"","type":"tuple","internalType":"struct ProgramSlice.GetOkResult","components":[{"name":"success","type":"bool","internalType":"bool"},{"name":"slice","type":"bytes32","internalType":"bytes32"},{"name":"criterionSymbol","type":"string","internalType":"string"},{"name":"direction","type":"string","internalType":"string"},{"name":"symbolCount","type":"int256","internalType":"int256"},{"name":"fileCount","type":"int256","internalType":"int256"},{"name":"edgeCount","type":"int256","internalType":"int256"}]}],"stateMutability":"nonpayable"},{"type":"function","name":"symbolsInSlice","inputs":[{"name":"slice","type":"bytes32","internalType":"bytes32"}],"outputs":[{"name":"","type":"tuple","internalType":"struct ProgramSlice.SymbolsInSliceOkResult","components":[{"name":"success","type":"bool","internalType":"bool"},{"name":"symbols","type":"string","internalType":"string"}]}],"stateMutability":"nonpayable"},{"type":"event","name":"ComputeCompleted","inputs":[{"name":"variant","type":"string","indexed":false,"internalType":"string"},{"name":"slice","type":"bytes32","indexed":false,"internalType":"bytes32"}],"anonymous":false},{"type":"event","name":"FilesInSliceCompleted","inputs":[{"name":"variant","type":"string","indexed":false,"internalType":"string"}],"anonymous":false},{"type":"event","name":"GetCompleted","inputs":[{"name":"variant","type":"string","indexed":false,"internalType":"string"},{"name":"slice","type":"bytes32","indexed":false,"internalType":"bytes32"},{"name":"symbolCount","type":"int256","indexed":false,"internalType":"int256"},{"name":"fileCount","type":"int256","indexed":false,"internalType":"int256"},{"name":"edgeCount","type":"int256","indexed":false,"internalType":"int256"}],"anonymous":false},{"type":"event","name":"SymbolsInSliceCompleted","inputs":[{"name":"variant","type":"string","indexed":false,"internalType":"string"}],"anonymous":false}],"bytecode":{"object":"0x608060405234801561000f575f80fd5b506113c28061001d5f395ff3fe608060405234801561000f575f80fd5b506004361061004a575f3560e01c8063262f37961461004e5780638eaa6ac01461007e578063d4a98e02146100ae578063d7986838146100de575b5f80fd5b61006860048036038101906100639190610a6d565b61010e565b6040516100759190610b42565b60405180910390f35b61009860048036038101906100939190610b85565b6103c8565b6040516100a59190610ce2565b60405180910390f35b6100c860048036038101906100c39190610b85565b6105e8565b6040516100d59190610d3c565b60405180910390f35b6100f860048036038101906100f39190610b85565b61073c565b6040516101059190610d96565b60405180910390f35b610116610890565b5f835111610159576040517f08c379a000000000000000000000000000000000000000000000000000000000815260040161015090610e10565b60405180910390fd5b6040518060400160405280600781526020017f666f72776172640000000000000000000000000000000000000000000000000081525080519060200120828051906020012014806101ec57506040518060400160405280600881526020017f6261636b77617264000000000000000000000000000000000000000000000000815250805190602001208280519060200120145b61022b576040517f08c379a000000000000000000000000000000000000000000000000000000000815260040161022290610e9e565b60405180910390fd5b5f83834260405160200161024193929190610f1f565b6040516020818303038152906040528051906020012090506040518061010001604052808581526020018481526020015f81526020015f81526020015f815260200160405180602001604052805f8152508152602001858152602001600115158152505f808381526020019081526020015f205f820151815f0190816102c7919061114d565b5060208201518160010190816102dd919061114d565b5060408201518160020155606082015181600301556080820151816004015560a0820151816005019081610311919061114d565b5060c0820151816006019081610327919061114d565b5060e0820151816007015f6101000a81548160ff021916908315150217905550905050600181908060018154018082558091505060019003905f5260205f20015f90919091909150557fb2780fe19a53d270ce611e3f27883713bfc3b47789c2231190ee5bbbfff3a2878160405161039f9190611275565b60405180910390a160405180604001604052806001151581526020018281525091505092915050565b6103d06108ad565b5f808381526020019081526020015f206007015f9054906101000a900460ff1661042f576040517f08c379a0000000000000000000000000000000000000000000000000000000008152600401610426906112eb565b60405180910390fd5b5f805f8481526020019081526020015f2090507ffe9e159e81a9481d2822633e6bde1113ab53acccb28079f96c102688efe406c5838260020154836003015484600401546040516104839493929190611318565b60405180910390a16040518060e00160405280600115158152602001848152602001825f0180546104b390610f80565b80601f01602080910402602001604051908101604052809291908181526020018280546104df90610f80565b801561052a5780601f106105015761010080835404028352916020019161052a565b820191905f5260205f20905b81548152906001019060200180831161050d57829003601f168201915b5050505050815260200182600101805461054390610f80565b80601f016020809104026020016040519081016040528092919081815260200182805461056f90610f80565b80156105ba5780601f10610591576101008083540402835291602001916105ba565b820191905f5260205f20905b81548152906001019060200180831161059d57829003601f168201915b5050505050815260200182600201548152602001826003015481526020018260040154815250915050919050565b6105f06108ea565b5f808381526020019081526020015f206007015f9054906101000a900460ff1661064f576040517f08c379a0000000000000000000000000000000000000000000000000000000008152600401610646906112eb565b60405180910390fd5b7f2a65a83a08bacdb9f91e1508a2a4d66aae9c447e226cc0846b77a1177bb01af460405161067c9061136e565b60405180910390a160405180604001604052806001151581526020015f808581526020019081526020015f2060050180546106b690610f80565b80601f01602080910402602001604051908101604052809291908181526020018280546106e290610f80565b801561072d5780601f106107045761010080835404028352916020019161072d565b820191905f5260205f20905b81548152906001019060200180831161071057829003601f168201915b50505050508152509050919050565b610744610905565b5f808381526020019081526020015f206007015f9054906101000a900460ff166107a3576040517f08c379a000000000000000000000000000000000000000000000000000000000815260040161079a906112eb565b60405180910390fd5b7f72e917a1e96135f8fae5558fd55304fd8cab87613787a850a6c4e6e19e0c1a176040516107d09061136e565b60405180910390a160405180604001604052806001151581526020015f808581526020019081526020015f20600601805461080a90610f80565b80601f016020809104026020016040519081016040528092919081815260200182805461083690610f80565b80156108815780601f1061085857610100808354040283529160200191610881565b820191905f5260205f20905b81548152906001019060200180831161086457829003601f168201915b50505050508152509050919050565b60405180604001604052805f151581526020015f80191681525090565b6040518060e001604052805f151581526020015f801916815260200160608152602001606081526020015f81526020015f81526020015f81525090565b60405180604001604052805f15158152602001606081525090565b60405180604001604052805f15158152602001606081525090565b5f604051905090565b5f80fd5b5f80fd5b5f80fd5b5f80fd5b5f601f19601f8301169050919050565b7f4e487b71000000000000000000000000000000000000000000000000000000005f52604160045260245ffd5b61097f82610939565b810181811067ffffffffffffffff8211171561099e5761099d610949565b5b80604052505050565b5f6109b0610920565b90506109bc8282610976565b919050565b5f67ffffffffffffffff8211156109db576109da610949565b5b6109e482610939565b9050602081019050919050565b828183375f83830152505050565b5f610a11610a0c846109c1565b6109a7565b905082815260208101848484011115610a2d57610a2c610935565b5b610a388482856109f1565b509392505050565b5f82601f830112610a5457610a53610931565b5b8135610a648482602086016109ff565b91505092915050565b5f8060408385031215610a8357610a82610929565b5b5f83013567ffffffffffffffff811115610aa057610a9f61092d565b5b610aac85828601610a40565b925050602083013567ffffffffffffffff811115610acd57610acc61092d565b5b610ad985828601610a40565b9150509250929050565b5f8115159050919050565b610af781610ae3565b82525050565b5f819050919050565b610b0f81610afd565b82525050565b604082015f820151610b295f850182610aee565b506020820151610b3c6020850182610b06565b50505050565b5f604082019050610b555f830184610b15565b92915050565b610b6481610afd565b8114610b6e575f80fd5b50565b5f81359050610b7f81610b5b565b92915050565b5f60208284031215610b9a57610b99610929565b5b5f610ba784828501610b71565b91505092915050565b5f81519050919050565b5f82825260208201905092915050565b5f5b83811015610be7578082015181840152602081019050610bcc565b5f8484015250505050565b5f610bfc82610bb0565b610c068185610bba565b9350610c16818560208601610bca565b610c1f81610939565b840191505092915050565b5f819050919050565b610c3c81610c2a565b82525050565b5f60e083015f830151610c575f860182610aee565b506020830151610c6a6020860182610b06565b5060408301518482036040860152610c828282610bf2565b91505060608301518482036060860152610c9c8282610bf2565b9150506080830151610cb16080860182610c33565b5060a0830151610cc460a0860182610c33565b5060c0830151610cd760c0860182610c33565b508091505092915050565b5f6020820190508181035f830152610cfa8184610c42565b905092915050565b5f604083015f830151610d175f860182610aee565b5060208301518482036020860152610d2f8282610bf2565b9150508091505092915050565b5f6020820190508181035f830152610d548184610d02565b905092915050565b5f604083015f830151610d715f860182610aee565b5060208301518482036020860152610d898282610bf2565b9150508091505092915050565b5f6020820190508181035f830152610dae8184610d5c565b905092915050565b5f82825260208201905092915050565b7f437269746572696f6e206d757374206e6f7420626520656d70747900000000005f82015250565b5f610dfa601b83610db6565b9150610e0582610dc6565b602082019050919050565b5f6020820190508181035f830152610e2781610dee565b9050919050565b7f446972656374696f6e206d7573742062652027666f727761726427206f7220275f8201527f6261636b77617264270000000000000000000000000000000000000000000000602082015250565b5f610e88602983610db6565b9150610e9382610e2e565b604082019050919050565b5f6020820190508181035f830152610eb581610e7c565b9050919050565b5f81905092915050565b5f610ed082610bb0565b610eda8185610ebc565b9350610eea818560208601610bca565b80840191505092915050565b5f819050919050565b5f819050919050565b610f19610f1482610ef6565b610eff565b82525050565b5f610f2a8286610ec6565b9150610f368285610ec6565b9150610f428284610f08565b602082019150819050949350505050565b7f4e487b71000000000000000000000000000000000000000000000000000000005f52602260045260245ffd5b5f6002820490506001821680610f9757607f821691505b602082108103610faa57610fa9610f53565b5b50919050565b5f819050815f5260205f209050919050565b5f6020601f8301049050919050565b5f82821b905092915050565b5f6008830261100c7fffffffffffffffffffffffffffffffffffffffffffffffffffffffffffffffff82610fd1565b6110168683610fd1565b95508019841693508086168417925050509392505050565b5f819050919050565b5f61105161104c61104784610ef6565b61102e565b610ef6565b9050919050565b5f819050919050565b61106a83611037565b61107e61107682611058565b848454610fdd565b825550505050565b5f90565b611092611086565b61109d818484611061565b505050565b5b818110156110c0576110b55f8261108a565b6001810190506110a3565b5050565b601f821115611105576110d681610fb0565b6110df84610fc2565b810160208510156110ee578190505b6111026110fa85610fc2565b8301826110a2565b50505b505050565b5f82821c905092915050565b5f6111255f198460080261110a565b1980831691505092915050565b5f61113d8383611116565b9150826002028217905092915050565b61115682610bb0565b67ffffffffffffffff81111561116f5761116e610949565b5b6111798254610f80565b6111848282856110c4565b5f60209050601f8311600181146111b5575f84156111a3578287015190505b6111ad8582611132565b865550611214565b601f1984166111c386610fb0565b5f5b828110156111ea578489015182556001820191506020850194506020810190506111c5565b868310156112075784890151611203601f891682611116565b8355505b6001600288020188555050505b505050505050565b7f6f6b0000000000000000000000000000000000000000000000000000000000005f82015250565b5f611250600283610db6565b915061125b8261121c565b602082019050919050565b61126f81610afd565b82525050565b5f6040820190508181035f83015261128c81611244565b905061129b6020830184611266565b92915050565b7f536c696365206e6f7420666f756e6400000000000000000000000000000000005f82015250565b5f6112d5600f83610db6565b91506112e0826112a1565b602082019050919050565b5f6020820190508181035f830152611302816112c9565b9050919050565b61131281610c2a565b82525050565b5f60a0820190508181035f83015261132f81611244565b905061133e6020830187611266565b61134b6040830186611309565b6113586060830185611309565b6113656080830184611309565b95945050505050565b5f6020820190508181035f83015261138581611244565b905091905056fea26469706673582212209c2df93c9f05ba5595c4afe95c673fe7a628695e36906580e2724de8bae8d6f464736f6c63430008140033","linkReferences":{}},"methodIdentifiers":{"compute(string,string)":"262f3796","filesInSlice(bytes32)":"d4a98e02","get(bytes32)":"8eaa6ac0","symbolsInSlice(bytes32)":"d7986838"},"id":199}