{"abi":[{"type":"function","name":"generate","inputs":[{"name":"name","type":"string","internalType":"string"},{"name":"targets","type":"string[]","internalType":"string[]"},{"name":"sdks","type":"string[]","internalType":"string[]"}],"outputs":[{"name":"result","type":"tuple","internalType":"struct InterfaceScaffoldGen.GenerateOkResult","components":[{"name":"success","type":"bool","internalType":"bool"},{"name":"files","type":"bytes[]","internalType":"bytes[]"},{"name":"filesGenerated","type":"int256","internalType":"int256"}]}],"stateMutability":"nonpayable"},{"type":"function","name":"getScaffold","inputs":[{"name":"scaffoldId","type":"bytes32","internalType":"bytes32"}],"outputs":[{"name":"name","type":"string","internalType":"string"},{"name":"filesGenerated","type":"int256","internalType":"int256"}],"stateMutability":"view"},{"type":"function","name":"preview","inputs":[{"name":"name","type":"string","internalType":"string"},{"name":"targets","type":"string[]","internalType":"string[]"},{"name":"sdks","type":"string[]","internalType":"string[]"}],"outputs":[{"name":"result","type":"tuple","internalType":"struct InterfaceScaffoldGen.PreviewOkResult","components":[{"name":"success","type":"bool","internalType":"bool"},{"name":"files","type":"bytes[]","internalType":"bytes[]"},{"name":"wouldWrite","type":"int256","internalType":"int256"},{"name":"wouldSkip","type":"int256","internalType":"int256"}]}],"stateMutability":"pure"},{"type":"function","name":"register","inputs":[],"outputs":[{"name":"result","type":"tuple","internalType":"struct InterfaceScaffoldGen.RegisterOkResult","components":[{"name":"success","type":"bool","internalType":"bool"},{"name":"name","type":"string","internalType":"string"},{"name":"inputKind","type":"string","internalType":"string"},{"name":"outputKind","type":"string","internalType":"string"},{"name":"capabilities","type":"string[]","internalType":"string[]"}]}],"stateMutability":"pure"},{"type":"function","name":"scaffoldExists","inputs":[{"name":"scaffoldId","type":"bytes32","internalType":"bytes32"}],"outputs":[{"name":"","type":"bool","internalType":"bool"}],"stateMutability":"view"},{"type":"event","name":"GenerateCompleted","inputs":[{"name":"variant","type":"string","indexed":false,"internalType":"string"},{"name":"files","type":"bytes[]","indexed":false,"internalType":"bytes[]"},{"name":"filesGenerated","type":"int256","indexed":false,"internalType":"int256"}],"anonymous":false},{"type":"event","name":"PreviewCompleted","inputs":[{"name":"variant","type":"string","indexed":false,"internalType":"string"},{"name":"files","type":"bytes[]","indexed":false,"internalType":"bytes[]"},{"name":"wouldWrite","type":"int256","indexed":false,"internalType":"int256"},{"name":"wouldSkip","type":"int256","indexed":false,"internalType":"int256"}],"anonymous":false},{"type":"event","name":"RegisterCompleted","inputs":[{"name":"variant","type":"string","indexed":false,"internalType":"string"},{"name":"capabilities","type":"string[]","indexed":false,"internalType":"string[]"}],"anonymous":false}],"bytecode":{"object":"0x608060405234801561000f575f80fd5b50611b978061001d5f395ff3fe608060405234801561000f575f80fd5b5060043610610055575f3560e01c80631aa3a008146100595780631ca67e3e146100775780634ec54c0b146100a75780634f191f55146100d857806391367b8b14610108575b5f80fd5b610061610138565b60405161006e9190610cef565b60405180910390f35b610091600480360381019061008c9190610f2e565b61030a565b60405161009e9190611157565b60405180910390f35b6100c160048036038101906100bc91906111aa565b6104b9565b6040516100cf92919061122c565b60405180910390f35b6100f260048036038101906100ed91906111aa565b6105ca565b6040516100ff9190611269565b60405180910390f35b610122600480360381019061011d9190610f2e565b6105f2565b60405161012f91906112cf565b60405180910390f35b610140610907565b5f600267ffffffffffffffff81111561015c5761015b610d28565b5b60405190808252806020026020018201604052801561018f57816020015b606081526020019060019003908161017a5790505b5090506040518060400160405280600981526020017f696e746572666163650000000000000000000000000000000000000000000000815250815f815181106101db576101da6112ef565b5b60200260200101819052506040518060400160405280600381526020017f73646b0000000000000000000000000000000000000000000000000000000000815250816001815181106102305761022f6112ef565b5b60200260200101819052506040518060a001604052806001151581526020016040518060400160405280601681526020017f696e746572666163652d73636166666f6c642d67656e0000000000000000000081525081526020016040518060400160405280600c81526020017f636f6e636570742d73706563000000000000000000000000000000000000000081525081526020016040518060400160405280601281526020017f696e746572666163652d73636166666f6c64000000000000000000000000000081525081526020018281525091505090565b610312610937565b5f845111610355576040517f08c379a000000000000000000000000000000000000000000000000000000000815260040161034c90611366565b60405180910390fd5b5f835111610398576040517f08c379a000000000000000000000000000000000000000000000000000000000815260040161038f906113ce565b60405180910390fd5b5f835167ffffffffffffffff8111156103b4576103b3610d28565b5b6040519080825280602002602001820160405280156103e757816020015b60608152602001906001900390816103d25790505b5090505f5b84518110156104625785858281518110610409576104086112ef565b5b60200260200101516040516020016104229291906114ba565b604051602081830303815290604052828281518110610444576104436112ef565b5b6020026020010181905250808061045a90611529565b9150506103ec565b505f845190505f8551855111610478575f610487565b855185516104869190611570565b5b905060405180608001604052806001151581526020018481526020018381526020018281525093505050509392505050565b60605f805f8481526020019081526020015f206006015f9054906101000a900460ff1661051b576040517f08c379a0000000000000000000000000000000000000000000000000000000008152600401610512906115ed565b60405180910390fd5b5f805f8581526020019081526020015f209050805f01816004015481805461054290611638565b80601f016020809104026020016040519081016040528092919081815260200182805461056e90611638565b80156105b95780601f10610590576101008083540402835291602001916105b9565b820191905f5260205f20905b81548152906001019060200180831161059c57829003601f168201915b505050505091509250925050915091565b5f805f8381526020019081526020015f206006015f9054906101000a900460ff169050919050565b6105fa61095e565b5f84511161063d576040517f08c379a000000000000000000000000000000000000000000000000000000000815260040161063490611366565b60405180910390fd5b5f835111610680576040517f08c379a0000000000000000000000000000000000000000000000000000000008152600401610677906113ce565b60405180910390fd5b5f835167ffffffffffffffff81111561069c5761069b610d28565b5b6040519080825280602002602001820160405280156106cf57816020015b60608152602001906001900390816106ba5790505b5090505f5b845181101561074a57858582815181106106f1576106f06112ef565b5b602002602001015160405160200161070a9291906114ba565b60405160208183030381529060405282828151811061072c5761072b6112ef565b5b6020026020010181905250808061074290611529565b9150506106d4565b505f845190505f864260025460405160200161076893929190611688565b60405160208183030381529060405280519060200120905060025f81548092919061079290611529565b91905055506040518060e00160405280888152602001878152602001868152602001848152602001838152602001428152602001600115158152505f808381526020019081526020015f205f820151815f0190816107f0919061185d565b50602082015181600101908051906020019061080d92919061097f565b50604082015181600201908051906020019061082a92919061097f565b5060608201518160030190805190602001906108479291906109d6565b506080820151816004015560a0820151816005015560c0820151816006015f6101000a81548160ff021916908315150217905550905050600181908060018154018082558091505060019003905f5260205f20015f909190919091505560405180606001604052806001151581526020018481526020018381525093507f48bda0bee7ff8852f440265af654a83c61da2283be561d3abff07f7ae4ae9e0883836040516108f59291906119f9565b60405180910390a15050509392505050565b6040518060a001604052805f15158152602001606081526020016060815260200160608152602001606081525090565b60405180608001604052805f15158152602001606081526020015f81526020015f81525090565b60405180606001604052805f15158152602001606081526020015f81525090565b828054828255905f5260205f209081019282156109c5579160200282015b828111156109c45782518290816109b4919061185d565b509160200191906001019061099d565b5b5090506109d29190610a2d565b5090565b828054828255905f5260205f20908101928215610a1c579160200282015b82811115610a1b578251829081610a0b9190611a92565b50916020019190600101906109f4565b5b509050610a299190610a50565b5090565b5b80821115610a4c575f8181610a439190610a73565b50600101610a2e565b5090565b5b80821115610a6f575f8181610a669190610ab0565b50600101610a51565b5090565b508054610a7f90611638565b5f825580601f10610a905750610aad565b601f0160209004905f5260205f2090810190610aac9190610aed565b5b50565b508054610abc90611638565b5f825580601f10610acd5750610aea565b601f0160209004905f5260205f2090810190610ae99190610aed565b5b50565b5b80821115610b04575f815f905550600101610aee565b5090565b5f8115159050919050565b610b1c81610b08565b82525050565b5f81519050919050565b5f82825260208201905092915050565b5f5b83811015610b59578082015181840152602081019050610b3e565b5f8484015250505050565b5f601f19601f8301169050919050565b5f610b7e82610b22565b610b888185610b2c565b9350610b98818560208601610b3c565b610ba181610b64565b840191505092915050565b5f81519050919050565b5f82825260208201905092915050565b5f819050602082019050919050565b5f610be08383610b74565b905092915050565b5f602082019050919050565b5f610bfe82610bac565b610c088185610bb6565b935083602082028501610c1a85610bc6565b805f5b85811015610c555784840389528151610c368582610bd5565b9450610c4183610be8565b925060208a01995050600181019050610c1d565b50829750879550505050505092915050565b5f60a083015f830151610c7c5f860182610b13565b5060208301518482036020860152610c948282610b74565b91505060408301518482036040860152610cae8282610b74565b91505060608301518482036060860152610cc88282610b74565b91505060808301518482036080860152610ce28282610bf4565b9150508091505092915050565b5f6020820190508181035f830152610d078184610c67565b905092915050565b5f604051905090565b5f80fd5b5f80fd5b5f80fd5b5f80fd5b7f4e487b71000000000000000000000000000000000000000000000000000000005f52604160045260245ffd5b610d5e82610b64565b810181811067ffffffffffffffff82111715610d7d57610d7c610d28565b5b80604052505050565b5f610d8f610d0f565b9050610d9b8282610d55565b919050565b5f67ffffffffffffffff821115610dba57610db9610d28565b5b610dc382610b64565b9050602081019050919050565b828183375f83830152505050565b5f610df0610deb84610da0565b610d86565b905082815260208101848484011115610e0c57610e0b610d24565b5b610e17848285610dd0565b509392505050565b5f82601f830112610e3357610e32610d20565b5b8135610e43848260208601610dde565b91505092915050565b5f67ffffffffffffffff821115610e6657610e65610d28565b5b602082029050602081019050919050565b5f80fd5b5f610e8d610e8884610e4c565b610d86565b90508083825260208201905060208402830185811115610eb057610eaf610e77565b5b835b81811015610ef757803567ffffffffffffffff811115610ed557610ed4610d20565b5b808601610ee28982610e1f565b85526020850194505050602081019050610eb2565b5050509392505050565b5f82601f830112610f1557610f14610d20565b5b8135610f25848260208601610e7b565b91505092915050565b5f805f60608486031215610f4557610f44610d18565b5b5f84013567ffffffffffffffff811115610f6257610f61610d1c565b5b610f6e86828701610e1f565b935050602084013567ffffffffffffffff811115610f8f57610f8e610d1c565b5b610f9b86828701610f01565b925050604084013567ffffffffffffffff811115610fbc57610fbb610d1c565b5b610fc886828701610f01565b9150509250925092565b5f81519050919050565b5f82825260208201905092915050565b5f819050602082019050919050565b5f81519050919050565b5f82825260208201905092915050565b5f61101f82610ffb565b6110298185611005565b9350611039818560208601610b3c565b61104281610b64565b840191505092915050565b5f6110588383611015565b905092915050565b5f602082019050919050565b5f61107682610fd2565b6110808185610fdc565b93508360208202850161109285610fec565b805f5b858110156110cd57848403895281516110ae858261104d565b94506110b983611060565b925060208a01995050600181019050611095565b50829750879550505050505092915050565b5f819050919050565b6110f1816110df565b82525050565b5f608083015f83015161110c5f860182610b13565b5060208301518482036020860152611124828261106c565b915050604083015161113960408601826110e8565b50606083015161114c60608601826110e8565b508091505092915050565b5f6020820190508181035f83015261116f81846110f7565b905092915050565b5f819050919050565b61118981611177565b8114611193575f80fd5b50565b5f813590506111a481611180565b92915050565b5f602082840312156111bf576111be610d18565b5b5f6111cc84828501611196565b91505092915050565b5f82825260208201905092915050565b5f6111ef82610b22565b6111f981856111d5565b9350611209818560208601610b3c565b61121281610b64565b840191505092915050565b611226816110df565b82525050565b5f6040820190508181035f83015261124481856111e5565b9050611253602083018461121d565b9392505050565b61126381610b08565b82525050565b5f60208201905061127c5f83018461125a565b92915050565b5f606083015f8301516112975f860182610b13565b50602083015184820360208601526112af828261106c565b91505060408301516112c460408601826110e8565b508091505092915050565b5f6020820190508181035f8301526112e78184611282565b905092915050565b7f4e487b71000000000000000000000000000000000000000000000000000000005f52603260045260245ffd5b7f4e616d652063616e6e6f7420626520656d7074790000000000000000000000005f82015250565b5f6113506014836111d5565b915061135b8261131c565b602082019050919050565b5f6020820190508181035f83015261137d81611344565b9050919050565b7f546172676574732063616e6e6f7420626520656d7074790000000000000000005f82015250565b5f6113b86017836111d5565b91506113c382611384565b602082019050919050565b5f6020820190508181035f8301526113e5816113ac565b9050919050565b5f81905092915050565b7f2f2f20496e746572666163652073636166666f6c643a200000000000000000005f82015250565b5f61142a6017836113ec565b9150611435826113f6565b601782019050919050565b5f61144a82610b22565b61145481856113ec565b9350611464818560208601610b3c565b80840191505092915050565b7f0a2f2f205461726765743a2000000000000000000000000000000000000000005f82015250565b5f6114a4600c836113ec565b91506114af82611470565b600c82019050919050565b5f6114c48261141e565b91506114d08285611440565b91506114db82611498565b91506114e78284611440565b91508190509392505050565b7f4e487b71000000000000000000000000000000000000000000000000000000005f52601160045260245ffd5b5f819050919050565b5f61153382611520565b91507fffffffffffffffffffffffffffffffffffffffffffffffffffffffffffffffff8203611565576115646114f3565b5b600182019050919050565b5f61157a82611520565b915061158583611520565b925082820390508181111561159d5761159c6114f3565b5b92915050565b7f53636166666f6c64206e6f7420666f756e6400000000000000000000000000005f82015250565b5f6115d76012836111d5565b91506115e2826115a3565b602082019050919050565b5f6020820190508181035f830152611604816115cb565b9050919050565b7f4e487b71000000000000000000000000000000000000000000000000000000005f52602260045260245ffd5b5f600282049050600182168061164f57607f821691505b6020821081036116625761166161160b565b5b50919050565b5f819050919050565b61168261167d82611520565b611668565b82525050565b5f6116938286611440565b915061169f8285611671565b6020820191506116af8284611671565b602082019150819050949350505050565b5f819050815f5260205f209050919050565b5f6020601f8301049050919050565b5f82821b905092915050565b5f6008830261171c7fffffffffffffffffffffffffffffffffffffffffffffffffffffffffffffffff826116e1565b61172686836116e1565b95508019841693508086168417925050509392505050565b5f819050919050565b5f61176161175c61175784611520565b61173e565b611520565b9050919050565b5f819050919050565b61177a83611747565b61178e61178682611768565b8484546116ed565b825550505050565b5f90565b6117a2611796565b6117ad818484611771565b505050565b5b818110156117d0576117c55f8261179a565b6001810190506117b3565b5050565b601f821115611815576117e6816116c0565b6117ef846116d2565b810160208510156117fe578190505b61181261180a856116d2565b8301826117b2565b50505b505050565b5f82821c905092915050565b5f6118355f198460080261181a565b1980831691505092915050565b5f61184d8383611826565b9150826002028217905092915050565b61186682610b22565b67ffffffffffffffff81111561187f5761187e610d28565b5b6118898254611638565b6118948282856117d4565b5f60209050601f8311600181146118c5575f84156118b3578287015190505b6118bd8582611842565b865550611924565b601f1984166118d3866116c0565b5f5b828110156118fa578489015182556001820191506020850194506020810190506118d5565b868310156119175784890151611913601f891682611826565b8355505b6001600288020188555050505b505050505050565b7f6f6b0000000000000000000000000000000000000000000000000000000000005f82015250565b5f6119606002836111d5565b915061196b8261192c565b602082019050919050565b5f82825260208201905092915050565b5f61199082610fd2565b61199a8185611976565b9350836020820285016119ac85610fec565b805f5b858110156119e757848403895281516119c8858261104d565b94506119d383611060565b925060208a019950506001810190506119af565b50829750879550505050505092915050565b5f6060820190508181035f830152611a1081611954565b90508181036020830152611a248185611986565b9050611a33604083018461121d565b9392505050565b5f819050815f5260205f209050919050565b601f821115611a8d57611a5e81611a3a565b611a67846116d2565b81016020851015611a76578190505b611a8a611a82856116d2565b8301826117b2565b50505b505050565b611a9b82610ffb565b67ffffffffffffffff811115611ab457611ab3610d28565b5b611abe8254611638565b611ac9828285611a4c565b5f60209050601f831160018114611afa575f8415611ae8578287015190505b611af28582611842565b865550611b59565b601f198416611b0886611a3a565b5f5b82811015611b2f57848901518255600182019150602085019450602081019050611b0a565b86831015611b4c5784890151611b48601f891682611826565b8355505b6001600288020188555050505b50505050505056fea2646970667358221220207983c74309717171653971d90d0d630d317e8325c3133b87a763d897516e6d64736f6c63430008140033","linkReferences":{}},"methodIdentifiers":{"generate(string,string[],string[])":"91367b8b","getScaffold(bytes32)":"4ec54c0b","preview(string,string[],string[])":"1ca67e3e","register()":"1aa3a008","scaffoldExists(bytes32)":"4f191f55"},"id":25}