{"abi":[{"type":"function","name":"deploy","inputs":[{"name":"fnId","type":"bytes32","internalType":"bytes32"},{"name":"artifactLocation","type":"string","internalType":"string"}],"outputs":[{"name":"","type":"tuple","internalType":"struct LambdaRuntime.DeployOkResult","components":[{"name":"success","type":"bool","internalType":"bool"},{"name":"fnId","type":"bytes32","internalType":"bytes32"},{"name":"version","type":"string","internalType":"string"}]}],"stateMutability":"nonpayable"},{"type":"function","name":"destroy","inputs":[{"name":"fnId","type":"bytes32","internalType":"bytes32"}],"outputs":[{"name":"","type":"tuple","internalType":"struct LambdaRuntime.DestroyOkResult","components":[{"name":"success","type":"bool","internalType":"bool"},{"name":"fnId","type":"bytes32","internalType":"bytes32"}]}],"stateMutability":"nonpayable"},{"type":"function","name":"provision","inputs":[{"name":"concept","type":"string","internalType":"string"},{"name":"memoryMb","type":"int256","internalType":"int256"},{"name":"timeout","type":"int256","internalType":"int256"},{"name":"region","type":"string","internalType":"string"}],"outputs":[{"name":"","type":"tuple","internalType":"struct LambdaRuntime.ProvisionOkResult","components":[{"name":"success","type":"bool","internalType":"bool"},{"name":"fnId","type":"bytes32","internalType":"bytes32"},{"name":"functionArn","type":"string","internalType":"string"},{"name":"endpoint","type":"string","internalType":"string"}]}],"stateMutability":"nonpayable"},{"type":"function","name":"register","inputs":[],"outputs":[{"name":"name","type":"string","internalType":"string"},{"name":"category","type":"string","internalType":"string"},{"name":"capabilities","type":"string[]","internalType":"string[]"}],"stateMutability":"pure"},{"type":"function","name":"rollback","inputs":[{"name":"fnId","type":"bytes32","internalType":"bytes32"},{"name":"targetVersion","type":"string","internalType":"string"}],"outputs":[{"name":"","type":"tuple","internalType":"struct LambdaRuntime.RollbackOkResult","components":[{"name":"success","type":"bool","internalType":"bool"},{"name":"fnId","type":"bytes32","internalType":"bytes32"},{"name":"restoredVersion","type":"string","internalType":"string"}]}],"stateMutability":"nonpayable"},{"type":"function","name":"setTrafficWeight","inputs":[{"name":"fnId","type":"bytes32","internalType":"bytes32"},{"name":"aliasWeight","type":"int256","internalType":"int256"}],"outputs":[{"name":"","type":"tuple","internalType":"struct LambdaRuntime.SetTrafficWeightOkResult","components":[{"name":"success","type":"bool","internalType":"bool"},{"name":"fnId","type":"bytes32","internalType":"bytes32"}]}],"stateMutability":"nonpayable"},{"type":"event","name":"DeployCompleted","inputs":[{"name":"variant","type":"string","indexed":false,"internalType":"string"},{"name":"fnId","type":"bytes32","indexed":false,"internalType":"bytes32"},{"name":"sizeBytes","type":"int256","indexed":false,"internalType":"int256"},{"name":"limitBytes","type":"int256","indexed":false,"internalType":"int256"}],"anonymous":false},{"type":"event","name":"DestroyCompleted","inputs":[{"name":"variant","type":"string","indexed":false,"internalType":"string"},{"name":"fnId","type":"bytes32","indexed":false,"internalType":"bytes32"},{"name":"dependents","type":"string[]","indexed":false,"internalType":"string[]"}],"anonymous":false},{"type":"event","name":"ProvisionCompleted","inputs":[{"name":"variant","type":"string","indexed":false,"internalType":"string"},{"name":"fnId","type":"bytes32","indexed":false,"internalType":"bytes32"}],"anonymous":false},{"type":"event","name":"RollbackCompleted","inputs":[{"name":"variant","type":"string","indexed":false,"internalType":"string"},{"name":"fnId","type":"bytes32","indexed":false,"internalType":"bytes32"}],"anonymous":false},{"type":"event","name":"SetTrafficWeightCompleted","inputs":[{"name":"variant","type":"string","indexed":false,"internalType":"string"},{"name":"fnId","type":"bytes32","indexed":false,"internalType":"bytes32"}],"anonymous":false}],"bytecode":{"object":"0x608060405234801561000f575f80fd5b506124248061001d5f395ff3fe608060405234801561000f575f80fd5b5060043610610060575f3560e01c80631aa3a008146100645780636e0bd282146100845780637855131d146100b45780638388d229146100e457806399e6378e14610114578063c416a8cf14610144575b5f80fd5b61006c610174565b60405161007b9392919061107c565b60405180910390f35b61009e6004803603810190610099919061110a565b6103e7565b6040516100ab919061118b565b60405180910390f35b6100ce60048036038101906100c991906112d0565b610569565b6040516100db9190611377565b60405180910390f35b6100fe60048036038101906100f991906113ca565b61068d565b60405161010b9190611435565b60405180910390f35b61012e6004803603810190610129919061144e565b6107af565b60405161013b9190611551565b60405180910390f35b61015e600480360381019061015991906112d0565b610a82565b60405161016b91906115be565b60405180910390f35b60608060606040518060400160405280600681526020017f6c616d626461000000000000000000000000000000000000000000000000000081525092506040518060400160405280600781526020017f72756e74696d65000000000000000000000000000000000000000000000000008152509150600567ffffffffffffffff811115610204576102036111ac565b5b60405190808252806020026020018201604052801561023757816020015b60608152602001906001900390816102225790505b5090506040518060400160405280600981526020017f70726f766973696f6e0000000000000000000000000000000000000000000000815250815f81518110610283576102826115de565b5b60200260200101819052506040518060400160405280600681526020017f6465706c6f790000000000000000000000000000000000000000000000000000815250816001815181106102d8576102d76115de565b5b60200260200101819052506040518060400160405280601081526020017f73657454726166666963576569676874000000000000000000000000000000008152508160028151811061032d5761032c6115de565b5b60200260200101819052506040518060400160405280600881526020017f726f6c6c6261636b00000000000000000000000000000000000000000000000081525081600381518110610382576103816115de565b5b60200260200101819052506040518060400160405280600781526020017f64657374726f7900000000000000000000000000000000000000000000000000815250816004815181106103d7576103d66115de565b5b6020026020010181905250909192565b6103ef610dad565b60015f8381526020019081526020015f205f9054906101000a900460ff1661044c576040517f08c379a000000000000000000000000000000000000000000000000000000000815260040161044390611655565b60405180910390fd5b5f60015f8481526020019081526020015f205f6101000a81548160ff0219169083151502179055505f808381526020019081526020015f205f61048f9190610dca565b60035f8381526020019081526020015f205f6104ab9190610e07565b60045f8381526020019081526020015f205f90555f8067ffffffffffffffff8111156104da576104d96111ac565b5b60405190808252806020026020018201604052801561050d57816020015b60608152602001906001900390816104f85790505b5090507ff17d3572763c335f011524178a69d13e6517510db451391eab8c860bf8ea80de83826040516105419291906116cc565b60405180910390a1604051806040016040528060011515815260200184815250915050919050565b610571610e44565b60015f8481526020019081526020015f205f9054906101000a900460ff166105ce576040517f08c379a00000000000000000000000000000000000000000000000000000000081526004016105c590611655565b60405180910390fd5b5f825111610611576040517f08c379a000000000000000000000000000000000000000000000000000000000815260040161060890611757565b60405180910390fd5b8160035f8581526020019081526020015f20908161062f9190611978565b507fd7216dc6f75dc5ba9c492a95dab64aa01aaf14ccb27b9a38cc0ea55b5980b34f8360405161065f9190611a47565b60405180910390a1604051806060016040528060011515815260200184815260200183815250905092915050565b610695610e68565b60015f8481526020019081526020015f205f9054906101000a900460ff166106f2576040517f08c379a00000000000000000000000000000000000000000000000000000000081526004016106e990611655565b60405180910390fd5b5f8212158015610703575060648213155b610742576040517f08c379a000000000000000000000000000000000000000000000000000000000815260040161073990611abd565b60405180910390fd5b8160045f8581526020019081526020015f20819055507fe3818c8f29f23fa7dae9a0884fe04d7bb4770020f95d48f6e3d93dc214eef732836040516107879190611a47565b60405180910390a1604051806040016040528060011515815260200184815250905092915050565b6107b7610e85565b5f8551116107fa576040517f08c379a00000000000000000000000000000000000000000000000000000000081526004016107f190611b25565b60405180910390fd5b5f82511161083d576040517f08c379a000000000000000000000000000000000000000000000000000000000815260040161083490611b8d565b60405180910390fd5b5f841361087f576040517f08c379a000000000000000000000000000000000000000000000000000000000815260040161087690611bf5565b60405180910390fd5b5f83136108c1576040517f08c379a00000000000000000000000000000000000000000000000000000000081526004016108b890611c5d565b60405180910390fd5b5f85836040516020016108d5929190611cb5565b6040516020818303038152906040528051906020012090508585858542604051602001610906959493929190611cf6565b6040516020818303038152906040525f808381526020019081526020015f2090816109319190611db7565b5060015f8281526020019081526020015f205f9054906101000a900460ff166109d0576001805f8381526020019081526020015f205f6101000a81548160ff021916908315150217905550600281908060018154018082558091505060019003905f5260205f20015f90919091909150555f60055f8381526020019081526020015f2081905550606460045f8381526020019081526020015f20819055505b5f83876040516020016109e4929190611f1a565b60405160208183030381529060405290505f8785604051602001610a09929190612031565b60405160208183030381529060405290507fe7ba298fd4b65faaecaa247132b454d0c8aac6d7bffe755ede2830a2108f831883604051610a499190611a47565b60405180910390a16040518060800160405280600115158152602001848152602001838152602001828152509350505050949350505050565b610a8a610eb0565b60015f8481526020019081526020015f205f9054906101000a900460ff16610ae7576040517f08c379a0000000000000000000000000000000000000000000000000000000008152600401610ade906120e5565b60405180910390fd5b5f825111610b2a576040517f08c379a0000000000000000000000000000000000000000000000000000000008152600401610b2190612173565b60405180910390fd5b600160055f8581526020019081526020015f205f828254610b4b91906121be565b925050819055505f610b6d60055f8681526020019081526020015f2054610c54565b604051602001610b7d919061223b565b60405160208183030381529060405290508060035f8681526020019081526020015f209081610bac9190611978565b50828142604051602001610bc29392919061225c565b6040516020818303038152906040525f808681526020019081526020015f209081610bed9190611db7565b507f01ddb68a067ab34c1c7ad3083ced0ff3e09b9f7bfa678ef067d8922d39acad9d845f630fa00000604051610c259392919061229f565b60405180910390a160405180606001604052806001151581526020018581526020018281525091505092915050565b60605f8203610c9a576040518060400160405280600181526020017f30000000000000000000000000000000000000000000000000000000000000008152509050610da8565b5f8290505f5b5f8214610cc9578080610cb2906122e7565b915050600a82610cc2919061235b565b9150610ca0565b5f8167ffffffffffffffff811115610ce457610ce36111ac565b5b6040519080825280601f01601f191660200182016040528015610d165781602001600182028036833780820191505090505b5090505b5f8514610da157600182610d2e919061238b565b9150600a85610d3d91906123be565b6030610d4991906121be565b60f81b818381518110610d5f57610d5e6115de565b5b60200101907effffffffffffffffffffffffffffffffffffffffffffffffffffffffffffff191690815f1a905350600a85610d9a919061235b565b9450610d1a565b8093505050505b919050565b60405180604001604052805f151581526020015f80191681525090565b508054610dd6906117a2565b5f825580601f10610de75750610e04565b601f0160209004905f5260205f2090810190610e039190610ed4565b5b50565b508054610e13906117a2565b5f825580601f10610e245750610e41565b601f0160209004905f5260205f2090810190610e409190610ed4565b5b50565b60405180606001604052805f151581526020015f8019168152602001606081525090565b60405180604001604052805f151581526020015f80191681525090565b60405180608001604052805f151581526020015f801916815260200160608152602001606081525090565b60405180606001604052805f151581526020015f8019168152602001606081525090565b5b80821115610eeb575f815f905550600101610ed5565b5090565b5f81519050919050565b5f82825260208201905092915050565b5f5b83811015610f26578082015181840152602081019050610f0b565b5f8484015250505050565b5f601f19601f8301169050919050565b5f610f4b82610eef565b610f558185610ef9565b9350610f65818560208601610f09565b610f6e81610f31565b840191505092915050565b5f81519050919050565b5f82825260208201905092915050565b5f819050602082019050919050565b5f82825260208201905092915050565b5f610fbc82610eef565b610fc68185610fa2565b9350610fd6818560208601610f09565b610fdf81610f31565b840191505092915050565b5f610ff58383610fb2565b905092915050565b5f602082019050919050565b5f61101382610f79565b61101d8185610f83565b93508360208202850161102f85610f93565b805f5b8581101561106a578484038952815161104b8582610fea565b945061105683610ffd565b925060208a01995050600181019050611032565b50829750879550505050505092915050565b5f6060820190508181035f8301526110948186610f41565b905081810360208301526110a88185610f41565b905081810360408301526110bc8184611009565b9050949350505050565b5f604051905090565b5f80fd5b5f80fd5b5f819050919050565b6110e9816110d7565b81146110f3575f80fd5b50565b5f81359050611104816110e0565b92915050565b5f6020828403121561111f5761111e6110cf565b5b5f61112c848285016110f6565b91505092915050565b5f8115159050919050565b61114981611135565b82525050565b611158816110d7565b82525050565b604082015f8201516111725f850182611140565b506020820151611185602085018261114f565b50505050565b5f60408201905061119e5f83018461115e565b92915050565b5f80fd5b5f80fd5b7f4e487b71000000000000000000000000000000000000000000000000000000005f52604160045260245ffd5b6111e282610f31565b810181811067ffffffffffffffff82111715611201576112006111ac565b5b80604052505050565b5f6112136110c6565b905061121f82826111d9565b919050565b5f67ffffffffffffffff82111561123e5761123d6111ac565b5b61124782610f31565b9050602081019050919050565b828183375f83830152505050565b5f61127461126f84611224565b61120a565b9050828152602081018484840111156112905761128f6111a8565b5b61129b848285611254565b509392505050565b5f82601f8301126112b7576112b66111a4565b5b81356112c7848260208601611262565b91505092915050565b5f80604083850312156112e6576112e56110cf565b5b5f6112f3858286016110f6565b925050602083013567ffffffffffffffff811115611314576113136110d3565b5b611320858286016112a3565b9150509250929050565b5f606083015f83015161133f5f860182611140565b506020830151611352602086018261114f565b506040830151848203604086015261136a8282610fb2565b9150508091505092915050565b5f6020820190508181035f83015261138f818461132a565b905092915050565b5f819050919050565b6113a981611397565b81146113b3575f80fd5b50565b5f813590506113c4816113a0565b92915050565b5f80604083850312156113e0576113df6110cf565b5b5f6113ed858286016110f6565b92505060206113fe858286016113b6565b9150509250929050565b604082015f82015161141c5f850182611140565b50602082015161142f602085018261114f565b50505050565b5f6040820190506114485f830184611408565b92915050565b5f805f8060808587031215611466576114656110cf565b5b5f85013567ffffffffffffffff811115611483576114826110d3565b5b61148f878288016112a3565b94505060206114a0878288016113b6565b93505060406114b1878288016113b6565b925050606085013567ffffffffffffffff8111156114d2576114d16110d3565b5b6114de878288016112a3565b91505092959194509250565b5f608083015f8301516114ff5f860182611140565b506020830151611512602086018261114f565b506040830151848203604086015261152a8282610fb2565b915050606083015184820360608601526115448282610fb2565b9150508091505092915050565b5f6020820190508181035f83015261156981846114ea565b905092915050565b5f606083015f8301516115865f860182611140565b506020830151611599602086018261114f565b50604083015184820360408601526115b18282610fb2565b9150508091505092915050565b5f6020820190508181035f8301526115d68184611571565b905092915050565b7f4e487b71000000000000000000000000000000000000000000000000000000005f52603260045260245ffd5b7f46756e6374696f6e206e6f7420666f756e6400000000000000000000000000005f82015250565b5f61163f601283610ef9565b915061164a8261160b565b602082019050919050565b5f6020820190508181035f83015261166c81611633565b9050919050565b7f6f6b0000000000000000000000000000000000000000000000000000000000005f82015250565b5f6116a7600283610ef9565b91506116b282611673565b602082019050919050565b6116c6816110d7565b82525050565b5f6060820190508181035f8301526116e38161169b565b90506116f260208301856116bd565b81810360408301526117048184611009565b90509392505050565b7f5461726765742076657273696f6e206d757374206e6f7420626520656d7074795f82015250565b5f611741602083610ef9565b915061174c8261170d565b602082019050919050565b5f6020820190508181035f83015261176e81611735565b9050919050565b7f4e487b71000000000000000000000000000000000000000000000000000000005f52602260045260245ffd5b5f60028204905060018216806117b957607f821691505b6020821081036117cc576117cb611775565b5b50919050565b5f819050815f5260205f209050919050565b5f6020601f8301049050919050565b5f82821b905092915050565b5f6008830261182e7fffffffffffffffffffffffffffffffffffffffffffffffffffffffffffffffff826117f3565b61183886836117f3565b95508019841693508086168417925050509392505050565b5f819050919050565b5f819050919050565b5f61187c61187761187284611850565b611859565b611850565b9050919050565b5f819050919050565b61189583611862565b6118a96118a182611883565b8484546117ff565b825550505050565b5f90565b6118bd6118b1565b6118c881848461188c565b505050565b5b818110156118eb576118e05f826118b5565b6001810190506118ce565b5050565b601f82111561193057611901816117d2565b61190a846117e4565b81016020851015611919578190505b61192d611925856117e4565b8301826118cd565b50505b505050565b5f82821c905092915050565b5f6119505f1984600802611935565b1980831691505092915050565b5f6119688383611941565b9150826002028217905092915050565b61198182610eef565b67ffffffffffffffff81111561199a576119996111ac565b5b6119a482546117a2565b6119af8282856118ef565b5f60209050601f8311600181146119e0575f84156119ce578287015190505b6119d8858261195d565b865550611a3f565b601f1984166119ee866117d2565b5f5b82811015611a15578489015182556001820191506020850194506020810190506119f0565b86831015611a325784890151611a2e601f891682611941565b8355505b6001600288020188555050505b505050505050565b5f6040820190508181035f830152611a5e8161169b565b9050611a6d60208301846116bd565b92915050565b7f416c69617320776569676874206d75737420626520302d3130300000000000005f82015250565b5f611aa7601a83610ef9565b9150611ab282611a73565b602082019050919050565b5f6020820190508181035f830152611ad481611a9b565b9050919050565b7f436f6e63657074206d757374206e6f7420626520656d707479000000000000005f82015250565b5f611b0f601983610ef9565b9150611b1a82611adb565b602082019050919050565b5f6020820190508181035f830152611b3c81611b03565b9050919050565b7f526567696f6e206d757374206e6f7420626520656d70747900000000000000005f82015250565b5f611b77601883610ef9565b9150611b8282611b43565b602082019050919050565b5f6020820190508181035f830152611ba481611b6b565b9050919050565b7f4d656d6f7279206d75737420626520706f7369746976650000000000000000005f82015250565b5f611bdf601783610ef9565b9150611bea82611bab565b602082019050919050565b5f6020820190508181035f830152611c0c81611bd3565b9050919050565b7f54696d656f7574206d75737420626520706f73697469766500000000000000005f82015250565b5f611c47601883610ef9565b9150611c5282611c13565b602082019050919050565b5f6020820190508181035f830152611c7481611c3b565b9050919050565b5f81905092915050565b5f611c8f82610eef565b611c998185611c7b565b9350611ca9818560208601610f09565b80840191505092915050565b5f611cc08285611c85565b9150611ccc8284611c85565b91508190509392505050565b611ce181611397565b82525050565b611cf081611850565b82525050565b5f60a0820190508181035f830152611d0e8188610f41565b9050611d1d6020830187611cd8565b611d2a6040830186611cd8565b8181036060830152611d3c8185610f41565b9050611d4b6080830184611ce7565b9695505050505050565b5f81519050919050565b5f819050815f5260205f209050919050565b601f821115611db257611d8381611d5f565b611d8c846117e4565b81016020851015611d9b578190505b611daf611da7856117e4565b8301826118cd565b50505b505050565b611dc082611d55565b67ffffffffffffffff811115611dd957611dd86111ac565b5b611de382546117a2565b611dee828285611d71565b5f60209050601f831160018114611e1f575f8415611e0d578287015190505b611e17858261195d565b865550611e7e565b601f198416611e2d86611d5f565b5f5b82811015611e5457848901518255600182019150602085019450602081019050611e2f565b86831015611e715784890151611e6d601f891682611941565b8355505b6001600288020188555050505b505050505050565b7f61726e3a6177733a6c616d6264613a00000000000000000000000000000000005f82015250565b5f611eba600f83611c7b565b9150611ec582611e86565b600f82019050919050565b7f3a3030303030303030303030303a66756e6374696f6e3a0000000000000000005f82015250565b5f611f04601783611c7b565b9150611f0f82611ed0565b601782019050919050565b5f611f2482611eae565b9150611f308285611c85565b9150611f3b82611ef8565b9150611f478284611c85565b91508190509392505050565b7f68747470733a2f2f0000000000000000000000000000000000000000000000005f82015250565b5f611f87600883611c7b565b9150611f9282611f53565b600882019050919050565b7f2e6c616d6264612d75726c2e00000000000000000000000000000000000000005f82015250565b5f611fd1600c83611c7b565b9150611fdc82611f9d565b600c82019050919050565b7f2e6f6e2e617773000000000000000000000000000000000000000000000000005f82015250565b5f61201b600783611c7b565b915061202682611fe7565b600782019050919050565b5f61203b82611f7b565b91506120478285611c85565b915061205282611fc5565b915061205e8284611c85565b91506120698261200f565b91508190509392505050565b7f46756e6374696f6e206e6f7420666f756e64202d2070726f766973696f6e20665f8201527f6972737400000000000000000000000000000000000000000000000000000000602082015250565b5f6120cf602483610ef9565b91506120da82612075565b604082019050919050565b5f6020820190508181035f8301526120fc816120c3565b9050919050565b7f4172746966616374206c6f636174696f6e206d757374206e6f7420626520656d5f8201527f7074790000000000000000000000000000000000000000000000000000000000602082015250565b5f61215d602383610ef9565b915061216882612103565b604082019050919050565b5f6020820190508181035f83015261218a81612151565b9050919050565b7f4e487b71000000000000000000000000000000000000000000000000000000005f52601160045260245ffd5b5f6121c882611850565b91506121d383611850565b92508282019050808211156121eb576121ea612191565b5b92915050565b7f76000000000000000000000000000000000000000000000000000000000000005f82015250565b5f612225600183611c7b565b9150612230826121f1565b600182019050919050565b5f61224582612219565b91506122518284611c85565b915081905092915050565b5f6060820190508181035f8301526122748186610f41565b905081810360208301526122888185610f41565b90506122976040830184611ce7565b949350505050565b5f6080820190508181035f8301526122b68161169b565b90506122c560208301866116bd565b6122d26040830185611cd8565b6122df6060830184611cd8565b949350505050565b5f6122f182611850565b91507fffffffffffffffffffffffffffffffffffffffffffffffffffffffffffffffff820361232357612322612191565b5b600182019050919050565b7f4e487b71000000000000000000000000000000000000000000000000000000005f52601260045260245ffd5b5f61236582611850565b915061237083611850565b9250826123805761237f61232e565b5b828204905092915050565b5f61239582611850565b91506123a083611850565b92508282039050818111156123b8576123b7612191565b5b92915050565b5f6123c882611850565b91506123d383611850565b9250826123e3576123e261232e565b5b82820690509291505056fea2646970667358221220fc9269f1bece37737e1f7053ceffe201ceca2e37066981eabb1eb68411d4c72264736f6c63430008140033","linkReferences":{}},"methodIdentifiers":{"deploy(bytes32,string)":"c416a8cf","destroy(bytes32)":"6e0bd282","provision(string,int256,int256,string)":"99e6378e","register()":"1aa3a008","rollback(bytes32,string)":"7855131d","setTrafficWeight(bytes32,int256)":"8388d229"},"id":160}