{"abi":[{"type":"function","name":"clear","inputs":[{"name":"slot","type":"bytes32","internalType":"bytes32"}],"outputs":[{"name":"","type":"tuple","internalType":"struct Slot.ClearOkResult","components":[{"name":"success","type":"bool","internalType":"bool"},{"name":"slot","type":"bytes32","internalType":"bytes32"}]}],"stateMutability":"nonpayable"},{"type":"function","name":"defineSlot","inputs":[{"name":"slot","type":"bytes32","internalType":"bytes32"},{"name":"name","type":"string","internalType":"string"},{"name":"host","type":"string","internalType":"string"},{"name":"position","type":"string","internalType":"string"},{"name":"fallbackContent","type":"string","internalType":"string"}],"outputs":[{"name":"","type":"tuple","internalType":"struct Slot.DefineOkResult","components":[{"name":"success","type":"bool","internalType":"bool"},{"name":"slot","type":"bytes32","internalType":"bytes32"}]}],"stateMutability":"nonpayable"},{"type":"function","name":"fill","inputs":[{"name":"slot","type":"bytes32","internalType":"bytes32"},{"name":"content","type":"string","internalType":"string"}],"outputs":[{"name":"","type":"tuple","internalType":"struct Slot.FillOkResult","components":[{"name":"success","type":"bool","internalType":"bool"},{"name":"slot","type":"bytes32","internalType":"bytes32"}]}],"stateMutability":"nonpayable"},{"type":"event","name":"ClearCompleted","inputs":[{"name":"variant","type":"string","indexed":false,"internalType":"string"},{"name":"slot","type":"bytes32","indexed":true,"internalType":"bytes32"}],"anonymous":false},{"type":"event","name":"DefineCompleted","inputs":[{"name":"variant","type":"string","indexed":false,"internalType":"string"},{"name":"slot","type":"bytes32","indexed":true,"internalType":"bytes32"}],"anonymous":false},{"type":"event","name":"FillCompleted","inputs":[{"name":"variant","type":"string","indexed":false,"internalType":"string"},{"name":"slot","type":"bytes32","indexed":true,"internalType":"bytes32"}],"anonymous":false}],"bytecode":{"object":"0x608060405234801561000f575f80fd5b50610e028061001d5f395ff3fe608060405234801561000f575f80fd5b506004361061003f575f3560e01c806321ba64331461004357806397040a4514610073578063f9a17c23146100a3575b5f80fd5b61005d600480360381019061005891906106d9565b6100d3565b60405161006a9190610789565b60405180910390f35b61008d600480360381019061008891906107a2565b6101da565b60405161009a91906107fa565b60405180910390f35b6100bd60048036038101906100b89190610813565b6102ed565b6040516100ca9190610927565b60405180910390f35b6100db610502565b60015f8481526020019081526020015f205f9054906101000a900460ff16610138576040517f08c379a000000000000000000000000000000000000000000000000000000000815260040161012f9061099a565b60405180910390fd5b815f808581526020019081526020015f2060040190816101589190610bc5565b5060015f808581526020019081526020015f206005015f6101000a81548160ff021916908315150217905550827fbf67cb4a525575de5ae0e618842eead58bdcdfac0d8ae633ee540409dd6ae0486040516101b290610cde565b60405180910390a2604051806040016040528060011515815260200184815250905092915050565b6101e261051f565b60015f8381526020019081526020015f205f9054906101000a900460ff1661023f576040517f08c379a00000000000000000000000000000000000000000000000000000000081526004016102369061099a565b60405180910390fd5b60405180602001604052805f8152505f808481526020019081526020015f20600401908161026d9190610bc5565b505f805f8481526020019081526020015f206005015f6101000a81548160ff021916908315150217905550817fb6391b960a793df1b6ff98312578cd8e7eee80dbc185b8f8cbeb0a55c864011d6040516102c690610cde565b60405180910390a26040518060400160405280600115158152602001838152509050919050565b6102f561053c565b60015f8781526020019081526020015f205f9054906101000a900460ff1615610353576040517f08c379a000000000000000000000000000000000000000000000000000000000815260040161034a90610d46565b60405180910390fd5b5f855111610396576040517f08c379a000000000000000000000000000000000000000000000000000000000815260040161038d90610dae565b60405180910390fd5b6040518060e0016040528086815260200185815260200184815260200183815260200160405180602001604052805f81525081526020015f15158152602001428152505f808881526020019081526020015f205f820151815f0190816103fc9190610bc5565b5060208201518160010190816104129190610bc5565b5060408201518160020190816104289190610bc5565b50606082015181600301908161043e9190610bc5565b5060808201518160040190816104549190610bc5565b5060a0820151816005015f6101000a81548160ff02191690831515021790555060c082015181600601559050506001805f8881526020019081526020015f205f6101000a81548160ff021916908315150217905550857f0aee5310641eaf2eaf388fe3fda83de498f247bde5dd3f7477b273447e8b16296040516104d790610cde565b60405180910390a2604051806040016040528060011515815260200187815250905095945050505050565b60405180604001604052805f151581526020015f80191681525090565b60405180604001604052805f151581526020015f80191681525090565b60405180604001604052805f151581526020015f80191681525090565b5f604051905090565b5f80fd5b5f80fd5b5f819050919050565b61057c8161056a565b8114610586575f80fd5b50565b5f8135905061059781610573565b92915050565b5f80fd5b5f80fd5b5f601f19601f8301169050919050565b7f4e487b71000000000000000000000000000000000000000000000000000000005f52604160045260245ffd5b6105eb826105a5565b810181811067ffffffffffffffff8211171561060a576106096105b5565b5b80604052505050565b5f61061c610559565b905061062882826105e2565b919050565b5f67ffffffffffffffff821115610647576106466105b5565b5b610650826105a5565b9050602081019050919050565b828183375f83830152505050565b5f61067d6106788461062d565b610613565b905082815260208101848484011115610699576106986105a1565b5b6106a484828561065d565b509392505050565b5f82601f8301126106c0576106bf61059d565b5b81356106d084826020860161066b565b91505092915050565b5f80604083850312156106ef576106ee610562565b5b5f6106fc85828601610589565b925050602083013567ffffffffffffffff81111561071d5761071c610566565b5b610729858286016106ac565b9150509250929050565b5f8115159050919050565b61074781610733565b82525050565b6107568161056a565b82525050565b604082015f8201516107705f85018261073e565b506020820151610783602085018261074d565b50505050565b5f60408201905061079c5f83018461075c565b92915050565b5f602082840312156107b7576107b6610562565b5b5f6107c484828501610589565b91505092915050565b604082015f8201516107e15f85018261073e565b5060208201516107f4602085018261074d565b50505050565b5f60408201905061080d5f8301846107cd565b92915050565b5f805f805f60a0868803121561082c5761082b610562565b5b5f61083988828901610589565b955050602086013567ffffffffffffffff81111561085a57610859610566565b5b610866888289016106ac565b945050604086013567ffffffffffffffff81111561088757610886610566565b5b610893888289016106ac565b935050606086013567ffffffffffffffff8111156108b4576108b3610566565b5b6108c0888289016106ac565b925050608086013567ffffffffffffffff8111156108e1576108e0610566565b5b6108ed888289016106ac565b9150509295509295909350565b604082015f82015161090e5f85018261073e565b506020820151610921602085018261074d565b50505050565b5f60408201905061093a5f8301846108fa565b92915050565b5f82825260208201905092915050565b7f536c6f74206e6f7420666f756e640000000000000000000000000000000000005f82015250565b5f610984600e83610940565b915061098f82610950565b602082019050919050565b5f6020820190508181035f8301526109b181610978565b9050919050565b5f81519050919050565b7f4e487b71000000000000000000000000000000000000000000000000000000005f52602260045260245ffd5b5f6002820490506001821680610a0657607f821691505b602082108103610a1957610a186109c2565b5b50919050565b5f819050815f5260205f209050919050565b5f6020601f8301049050919050565b5f82821b905092915050565b5f60088302610a7b7fffffffffffffffffffffffffffffffffffffffffffffffffffffffffffffffff82610a40565b610a858683610a40565b95508019841693508086168417925050509392505050565b5f819050919050565b5f819050919050565b5f610ac9610ac4610abf84610a9d565b610aa6565b610a9d565b9050919050565b5f819050919050565b610ae283610aaf565b610af6610aee82610ad0565b848454610a4c565b825550505050565b5f90565b610b0a610afe565b610b15818484610ad9565b505050565b5b81811015610b3857610b2d5f82610b02565b600181019050610b1b565b5050565b601f821115610b7d57610b4e81610a1f565b610b5784610a31565b81016020851015610b66578190505b610b7a610b7285610a31565b830182610b1a565b50505b505050565b5f82821c905092915050565b5f610b9d5f1984600802610b82565b1980831691505092915050565b5f610bb58383610b8e565b9150826002028217905092915050565b610bce826109b8565b67ffffffffffffffff811115610be757610be66105b5565b5b610bf182546109ef565b610bfc828285610b3c565b5f60209050601f831160018114610c2d575f8415610c1b578287015190505b610c258582610baa565b865550610c8c565b601f198416610c3b86610a1f565b5f5b82811015610c6257848901518255600182019150602085019450602081019050610c3d565b86831015610c7f5784890151610c7b601f891682610b8e565b8355505b6001600288020188555050505b505050505050565b7f6f6b0000000000000000000000000000000000000000000000000000000000005f82015250565b5f610cc8600283610940565b9150610cd382610c94565b602082019050919050565b5f6020820190508181035f830152610cf581610cbc565b9050919050565b7f536c6f7420616c726561647920646566696e65640000000000000000000000005f82015250565b5f610d30601483610940565b9150610d3b82610cfc565b602082019050919050565b5f6020820190508181035f830152610d5d81610d24565b9050919050565b7f4e616d65207265717569726564000000000000000000000000000000000000005f82015250565b5f610d98600d83610940565b9150610da382610d64565b602082019050919050565b5f6020820190508181035f830152610dc581610d8c565b905091905056fea2646970667358221220ec405a8cad149e06d88b9403c538f829daca3ccc9fc1ea3bede8370ea3f7ec0264736f6c63430008140033","linkReferences":{}},"methodIdentifiers":{"clear(bytes32)":"97040a45","defineSlot(bytes32,string,string,string,string)":"f9a17c23","fill(bytes32,string)":"21ba6433"},"id":245}