{"abi":[{"type":"function","name":"accept","inputs":[{"name":"enrichmentId","type":"bytes32","internalType":"bytes32"}],"outputs":[],"stateMutability":"nonpayable"},{"type":"function","name":"enrich","inputs":[{"name":"itemId","type":"bytes32","internalType":"bytes32"},{"name":"enricherId","type":"bytes32","internalType":"bytes32"}],"outputs":[{"name":"enrichmentId","type":"bytes32","internalType":"bytes32"}],"stateMutability":"nonpayable"},{"type":"function","name":"enrichmentExists","inputs":[{"name":"enrichmentId","type":"bytes32","internalType":"bytes32"}],"outputs":[{"name":"","type":"bool","internalType":"bool"}],"stateMutability":"view"},{"type":"function","name":"getEnrichment","inputs":[{"name":"enrichmentId","type":"bytes32","internalType":"bytes32"}],"outputs":[{"name":"","type":"tuple","internalType":"struct Enricher.Enrichment","components":[{"name":"itemId","type":"bytes32","internalType":"bytes32"},{"name":"pluginId","type":"bytes32","internalType":"bytes32"},{"name":"result","type":"string","internalType":"string"},{"name":"confidence","type":"uint256","internalType":"uint256"},{"name":"status","type":"string","internalType":"string"},{"name":"exists","type":"bool","internalType":"bool"}]}],"stateMutability":"view"},{"type":"function","name":"getTrigger","inputs":[{"name":"triggerId","type":"bytes32","internalType":"bytes32"}],"outputs":[{"name":"","type":"tuple","internalType":"struct Enricher.Trigger","components":[{"name":"enricherId","type":"bytes32","internalType":"bytes32"},{"name":"pluginId","type":"bytes32","internalType":"bytes32"},{"name":"config","type":"string","internalType":"string"},{"name":"exists","type":"bool","internalType":"bool"}]}],"stateMutability":"view"},{"type":"function","name":"registerTrigger","inputs":[{"name":"triggerId","type":"bytes32","internalType":"bytes32"},{"name":"enricherId","type":"bytes32","internalType":"bytes32"},{"name":"pluginId","type":"bytes32","internalType":"bytes32"},{"name":"config","type":"string","internalType":"string"}],"outputs":[],"stateMutability":"nonpayable"},{"type":"function","name":"reject","inputs":[{"name":"enrichmentId","type":"bytes32","internalType":"bytes32"}],"outputs":[],"stateMutability":"nonpayable"},{"type":"event","name":"EnrichmentAccepted","inputs":[{"name":"enrichmentId","type":"bytes32","indexed":true,"internalType":"bytes32"}],"anonymous":false},{"type":"event","name":"EnrichmentRejected","inputs":[{"name":"enrichmentId","type":"bytes32","indexed":true,"internalType":"bytes32"}],"anonymous":false},{"type":"event","name":"ItemEnriched","inputs":[{"name":"enrichmentId","type":"bytes32","indexed":true,"internalType":"bytes32"},{"name":"itemId","type":"bytes32","indexed":true,"internalType":"bytes32"},{"name":"pluginId","type":"bytes32","indexed":false,"internalType":"bytes32"}],"anonymous":false},{"type":"event","name":"TriggerRegistered","inputs":[{"name":"triggerId","type":"bytes32","indexed":true,"internalType":"bytes32"},{"name":"enricherId","type":"bytes32","indexed":true,"internalType":"bytes32"}],"anonymous":false}],"bytecode":{"object":"0x608060405234801561000f575f80fd5b5061146c8061001d5f395ff3fe608060405234801561000f575f80fd5b506004361061007b575f3560e01c8063cabd734f11610059578063cabd734f1461010f578063e4725ba11461012b578063f2191f0014610147578063f959fdf5146101775761007b565b806315f116fe1461007f5780638813b670146100af578063bf335bba146100df575b5f80fd5b61009960048036038101906100949190610aa2565b610193565b6040516100a69190610c25565b60405180910390f35b6100c960048036038101906100c49190610aa2565b610373565b6040516100d69190610c54565b60405180910390f35b6100f960048036038101906100f49190610aa2565b61039b565b6040516101069190610ccd565b60405180910390f35b61012960048036038101906101249190610aa2565b6104e3565b005b61014560048036038101906101409190610aa2565b6105c8565b005b610161600480360381019061015c9190610ced565b6106ad565b60405161016e9190610d3a565b60405180910390f35b610191600480360381019061018c9190610db4565b610864565b005b61019b610a00565b5f808381526020019081526020015f206005015f9054906101000a900460ff166101fa576040517f08c379a00000000000000000000000000000000000000000000000000000000081526004016101f190610e92565b60405180910390fd5b5f808381526020019081526020015f206040518060c00160405290815f82015481526020016001820154815260200160028201805461023890610edd565b80601f016020809104026020016040519081016040528092919081815260200182805461026490610edd565b80156102af5780601f10610286576101008083540402835291602001916102af565b820191905f5260205f20905b81548152906001019060200180831161029257829003601f168201915b50505050508152602001600382015481526020016004820180546102d290610edd565b80601f01602080910402602001604051908101604052809291908181526020018280546102fe90610edd565b80156103495780601f1061032057610100808354040283529160200191610349565b820191905f5260205f20905b81548152906001019060200180831161032c57829003601f168201915b50505050508152602001600582015f9054906101000a900460ff1615151515815250509050919050565b5f805f8381526020019081526020015f206005015f9054906101000a900460ff169050919050565b6103a3610a3a565b60015f8381526020019081526020015f206003015f9054906101000a900460ff16610403576040517f08c379a00000000000000000000000000000000000000000000000000000000081526004016103fa90610f57565b60405180910390fd5b60015f8381526020019081526020015f206040518060800160405290815f82015481526020016001820154815260200160028201805461044290610edd565b80601f016020809104026020016040519081016040528092919081815260200182805461046e90610edd565b80156104b95780601f10610490576101008083540402835291602001916104b9565b820191905f5260205f20905b81548152906001019060200180831161049c57829003601f168201915b50505050508152602001600382015f9054906101000a900460ff1615151515815250509050919050565b5f808281526020019081526020015f206005015f9054906101000a900460ff16610542576040517f08c379a000000000000000000000000000000000000000000000000000000000815260040161053990610e92565b60405180910390fd5b6040518060400160405280600881526020017f72656a65637465640000000000000000000000000000000000000000000000008152505f808381526020019081526020015f206004019081610597919061113f565b50807f756977d0125954649a452477eea35272fe784e2b6068d9127005e4b460a672e860405160405180910390a250565b5f808281526020019081526020015f206005015f9054906101000a900460ff16610627576040517f08c379a000000000000000000000000000000000000000000000000000000000815260040161061e90610e92565b60405180910390fd5b6040518060400160405280600881526020017f61636365707465640000000000000000000000000000000000000000000000008152505f808381526020019081526020015f20600401908161067c919061113f565b50807f585f00091fa267fe16a7480dffd071e58c1bb54e3390d6bb9e909623e1dab26d60405160405180910390a250565b5f805f1b83036106f2576040517f08c379a00000000000000000000000000000000000000000000000000000000081526004016106e990611258565b60405180910390fd5b60025f815480929190610704906112a3565b919050555082826002546040516020016107209392919061132a565b6040516020818303038152906040528051906020012090506040518060c0016040528084815260200183815260200160405180602001604052805f81525081526020015f81526020016040518060400160405280600781526020017f70656e64696e67000000000000000000000000000000000000000000000000008152508152602001600115158152505f808381526020019081526020015f205f820151815f01556020820151816001015560408201518160020190816107e2919061113f565b50606082015181600301556080820151816004019081610802919061113f565b5060a0820151816005015f6101000a81548160ff02191690831515021790555090505082817f4059c934b66b9b7a5b2e410b83a26c2759b01bb9dd9c887faa5b47be988f925a846040516108569190610d3a565b60405180910390a392915050565b5f801b85036108a8576040517f08c379a000000000000000000000000000000000000000000000000000000000815260040161089f906113b0565b60405180910390fd5b60015f8681526020019081526020015f206003015f9054906101000a900460ff1615610909576040517f08c379a000000000000000000000000000000000000000000000000000000000815260040161090090611418565b60405180910390fd5b604051806080016040528085815260200184815260200183838080601f0160208091040260200160405190810160405280939291908181526020018383808284375f81840152601f19601f8201169050808301925050505050505081526020016001151581525060015f8781526020019081526020015f205f820151815f01556020820151816001015560408201518160020190816109a8919061113f565b506060820151816003015f6101000a81548160ff02191690831515021790555090505083857f41cb3fb02d16d8f220b1afdf64bccedf4507d8e6529a3a1239b1ba2566629ca160405160405180910390a35050505050565b6040518060c001604052805f80191681526020015f8019168152602001606081526020015f8152602001606081526020015f151581525090565b60405180608001604052805f80191681526020015f8019168152602001606081526020015f151581525090565b5f80fd5b5f80fd5b5f819050919050565b610a8181610a6f565b8114610a8b575f80fd5b50565b5f81359050610a9c81610a78565b92915050565b5f60208284031215610ab757610ab6610a67565b5b5f610ac484828501610a8e565b91505092915050565b610ad681610a6f565b82525050565b5f81519050919050565b5f82825260208201905092915050565b5f5b83811015610b13578082015181840152602081019050610af8565b5f8484015250505050565b5f601f19601f8301169050919050565b5f610b3882610adc565b610b428185610ae6565b9350610b52818560208601610af6565b610b5b81610b1e565b840191505092915050565b5f819050919050565b610b7881610b66565b82525050565b5f8115159050919050565b610b9281610b7e565b82525050565b5f60c083015f830151610bad5f860182610acd565b506020830151610bc06020860182610acd565b5060408301518482036040860152610bd88282610b2e565b9150506060830151610bed6060860182610b6f565b5060808301518482036080860152610c058282610b2e565b91505060a0830151610c1a60a0860182610b89565b508091505092915050565b5f6020820190508181035f830152610c3d8184610b98565b905092915050565b610c4e81610b7e565b82525050565b5f602082019050610c675f830184610c45565b92915050565b5f608083015f830151610c825f860182610acd565b506020830151610c956020860182610acd565b5060408301518482036040860152610cad8282610b2e565b9150506060830151610cc26060860182610b89565b508091505092915050565b5f6020820190508181035f830152610ce58184610c6d565b905092915050565b5f8060408385031215610d0357610d02610a67565b5b5f610d1085828601610a8e565b9250506020610d2185828601610a8e565b9150509250929050565b610d3481610a6f565b82525050565b5f602082019050610d4d5f830184610d2b565b92915050565b5f80fd5b5f80fd5b5f80fd5b5f8083601f840112610d7457610d73610d53565b5b8235905067ffffffffffffffff811115610d9157610d90610d57565b5b602083019150836001820283011115610dad57610dac610d5b565b5b9250929050565b5f805f805f60808688031215610dcd57610dcc610a67565b5b5f610dda88828901610a8e565b9550506020610deb88828901610a8e565b9450506040610dfc88828901610a8e565b935050606086013567ffffffffffffffff811115610e1d57610e1c610a6b565b5b610e2988828901610d5f565b92509250509295509295909350565b5f82825260208201905092915050565b7f456e726963686d656e74206e6f7420666f756e640000000000000000000000005f82015250565b5f610e7c601483610e38565b9150610e8782610e48565b602082019050919050565b5f6020820190508181035f830152610ea981610e70565b9050919050565b7f4e487b71000000000000000000000000000000000000000000000000000000005f52602260045260245ffd5b5f6002820490506001821680610ef457607f821691505b602082108103610f0757610f06610eb0565b5b50919050565b7f54726967676572206e6f7420666f756e640000000000000000000000000000005f82015250565b5f610f41601183610e38565b9150610f4c82610f0d565b602082019050919050565b5f6020820190508181035f830152610f6e81610f35565b9050919050565b7f4e487b71000000000000000000000000000000000000000000000000000000005f52604160045260245ffd5b5f819050815f5260205f209050919050565b5f6020601f8301049050919050565b5f82821b905092915050565b5f60088302610ffe7fffffffffffffffffffffffffffffffffffffffffffffffffffffffffffffffff82610fc3565b6110088683610fc3565b95508019841693508086168417925050509392505050565b5f819050919050565b5f61104361103e61103984610b66565b611020565b610b66565b9050919050565b5f819050919050565b61105c83611029565b6110706110688261104a565b848454610fcf565b825550505050565b5f90565b611084611078565b61108f818484611053565b505050565b5b818110156110b2576110a75f8261107c565b600181019050611095565b5050565b601f8211156110f7576110c881610fa2565b6110d184610fb4565b810160208510156110e0578190505b6110f46110ec85610fb4565b830182611094565b50505b505050565b5f82821c905092915050565b5f6111175f19846008026110fc565b1980831691505092915050565b5f61112f8383611108565b9150826002028217905092915050565b61114882610adc565b67ffffffffffffffff81111561116157611160610f75565b5b61116b8254610edd565b6111768282856110b6565b5f60209050601f8311600181146111a7575f8415611195578287015190505b61119f8582611124565b865550611206565b601f1984166111b586610fa2565b5f5b828110156111dc578489015182556001820191506020850194506020810190506111b7565b868310156111f957848901516111f5601f891682611108565b8355505b6001600288020188555050505b505050505050565b7f4974656d2049442063616e6e6f74206265207a65726f000000000000000000005f82015250565b5f611242601683610e38565b915061124d8261120e565b602082019050919050565b5f6020820190508181035f83015261126f81611236565b9050919050565b7f4e487b71000000000000000000000000000000000000000000000000000000005f52601160045260245ffd5b5f6112ad82610b66565b91507fffffffffffffffffffffffffffffffffffffffffffffffffffffffffffffffff82036112df576112de611276565b5b600182019050919050565b5f819050919050565b6113046112ff82610a6f565b6112ea565b82525050565b5f819050919050565b61132461131f82610b66565b61130a565b82525050565b5f61133582866112f3565b60208201915061134582856112f3565b6020820191506113558284611313565b602082019150819050949350505050565b7f547269676765722049442063616e6e6f74206265207a65726f000000000000005f82015250565b5f61139a601983610e38565b91506113a582611366565b602082019050919050565b5f6020820190508181035f8301526113c78161138e565b9050919050565b7f5472696767657220616c726561647920657869737473000000000000000000005f82015250565b5f611402601683610e38565b915061140d826113ce565b602082019050919050565b5f6020820190508181035f83015261142f816113f6565b905091905056fea2646970667358221220c03d1790dd5e380491959a922f9268a69a16c60c4bd1626c8663ecc1ad42528264736f6c63430008140033","linkReferences":{}},"methodIdentifiers":{"accept(bytes32)":"e4725ba1","enrich(bytes32,bytes32)":"f2191f00","enrichmentExists(bytes32)":"8813b670","getEnrichment(bytes32)":"15f116fe","getTrigger(bytes32)":"bf335bba","registerTrigger(bytes32,bytes32,bytes32,string)":"f959fdf5","reject(bytes32)":"cabd734f"},"id":110}