{"abi":[{"type":"function","name":"componentCount","inputs":[],"outputs":[{"name":"","type":"uint256","internalType":"uint256"}],"stateMutability":"view"},{"type":"function","name":"generate","inputs":[{"name":"name","type":"string","internalType":"string"},{"name":"parts","type":"string[]","internalType":"string[]"},{"name":"states","type":"string[]","internalType":"string[]"},{"name":"events","type":"string[]","internalType":"string[]"}],"outputs":[{"name":"result","type":"tuple","internalType":"struct CoifComponentScaffoldGen.GenerateOkResult","components":[{"name":"success","type":"bool","internalType":"bool"},{"name":"files","type":"bytes[]","internalType":"bytes[]"},{"name":"filesGenerated","type":"int256","internalType":"int256"}]}],"stateMutability":"nonpayable"},{"type":"function","name":"hasComponent","inputs":[{"name":"name","type":"string","internalType":"string"}],"outputs":[{"name":"","type":"bool","internalType":"bool"}],"stateMutability":"view"},{"type":"function","name":"preview","inputs":[{"name":"name","type":"string","internalType":"string"},{"name":"parts","type":"string[]","internalType":"string[]"},{"name":"states","type":"string[]","internalType":"string[]"},{"name":"events","type":"string[]","internalType":"string[]"}],"outputs":[{"name":"result","type":"tuple","internalType":"struct CoifComponentScaffoldGen.PreviewOkResult","components":[{"name":"success","type":"bool","internalType":"bool"},{"name":"files","type":"bytes[]","internalType":"bytes[]"},{"name":"wouldWrite","type":"int256","internalType":"int256"},{"name":"wouldSkip","type":"int256","internalType":"int256"}]}],"stateMutability":"view"},{"type":"function","name":"register","inputs":[],"outputs":[{"name":"result","type":"tuple","internalType":"struct CoifComponentScaffoldGen.RegisterOkResult","components":[{"name":"success","type":"bool","internalType":"bool"},{"name":"name","type":"string","internalType":"string"},{"name":"inputKind","type":"string","internalType":"string"},{"name":"outputKind","type":"string","internalType":"string"},{"name":"capabilities","type":"string[]","internalType":"string[]"}]}],"stateMutability":"pure"},{"type":"event","name":"GenerateCompleted","inputs":[{"name":"variant","type":"string","indexed":false,"internalType":"string"},{"name":"files","type":"bytes[]","indexed":false,"internalType":"bytes[]"},{"name":"filesGenerated","type":"int256","indexed":false,"internalType":"int256"}],"anonymous":false},{"type":"event","name":"PreviewCompleted","inputs":[{"name":"variant","type":"string","indexed":false,"internalType":"string"},{"name":"files","type":"bytes[]","indexed":false,"internalType":"bytes[]"},{"name":"wouldWrite","type":"int256","indexed":false,"internalType":"int256"},{"name":"wouldSkip","type":"int256","indexed":false,"internalType":"int256"}],"anonymous":false},{"type":"event","name":"RegisterCompleted","inputs":[{"name":"variant","type":"string","indexed":false,"internalType":"string"},{"name":"capabilities","type":"string[]","indexed":false,"internalType":"string[]"}],"anonymous":false}],"bytecode":{"object":"0x608060405234801561000f575f80fd5b50611bca8061001d5f395ff3fe608060405234801561000f575f80fd5b5060043610610055575f3560e01c80631aa3a008146100595780631fe26e9d146100775780634d9d3c8b1461009557806390e5f1f9146100c5578063c8b677aa146100f5575b5f80fd5b610061610125565b60405161006e9190610c5f565b60405180910390f35b61007f61034c565b60405161008c9190610c97565b60405180910390f35b6100af60048036038101906100aa9190610ecf565b610358565b6040516100bc9190611128565b60405180910390f35b6100df60048036038101906100da9190610ecf565b610583565b6040516100ec9190611195565b60405180910390f35b61010f600480360381019061010a91906111b5565b61085b565b60405161011c919061120b565b60405180910390f35b61012d610a00565b5f600367ffffffffffffffff81111561014957610148610cc9565b5b60405190808252806020026020018201604052801561017c57816020015b60608152602001906001900390816101675790505b5090506040518060400160405280601281526020017f636f6d706f6e656e742d73636166666f6c640000000000000000000000000000815250815f815181106101c8576101c7611224565b5b60200260200101819052506040518060400160405280601081526020017f70617274732d67656e65726174696f6e000000000000000000000000000000008152508160018151811061021d5761021c611224565b5b60200260200101819052506040518060400160405280600c81526020017f6576656e742d776972696e6700000000000000000000000000000000000000008152508160028151811061027257610271611224565b5b60200260200101819052506040518060a001604052806001151581526020016040518060400160405280601b81526020017f636f69662d636f6d706f6e656e742d73636166666f6c642d67656e000000000081525081526020016040518060400160405280600e81526020017f636f6d706f6e656e742d7370656300000000000000000000000000000000000081525081526020016040518060400160405280600e81526020017f73636166666f6c642d66696c657300000000000000000000000000000000000081525081526020018281525091505090565b5f600280549050905090565b610360610a30565b5f8551116103a3576040517f08c379a000000000000000000000000000000000000000000000000000000000815260040161039a906112ab565b60405180910390fd5b5f856040516020016103b59190611303565b6040516020818303038152906040528051906020012090505f855160016103dc9190611346565b90505f8167ffffffffffffffff8111156103f9576103f8610cc9565b5b60405190808252806020026020018201604052801561042c57816020015b60608152602001906001900390816104175790505b5090508761043a88516108a7565b61044488516108a7565b61044e88516108a7565b60405160200161046194939291906114a1565b604051602081830303815290604052815f8151811061048357610482611224565b5b60200260200101819052505f5b8751811015610512578781815181106104ac576104ab611224565b5b6020026020010151896040516020016104c692919061159e565b604051602081830303815290604052826001836104e39190611346565b815181106104f4576104f3611224565b5b6020026020010181905250808061050a906115d7565b915050610490565b505f60015f8581526020019081526020015f205f9054906101000a900460ff1661053c575f61053f565b60015b90505f818461054e919061161e565b905060405180608001604052806001151581526020018481526020018281526020018381525095505050505050949350505050565b61058b610a57565b5f8551116105ce576040517f08c379a00000000000000000000000000000000000000000000000000000000081526004016105c5906112ab565b60405180910390fd5b5f856040516020016105e09190611303565b6040516020818303038152906040528051906020012090505f855160016106079190611346565b90505f8167ffffffffffffffff81111561062457610623610cc9565b5b60405190808252806020026020018201604052801561065757816020015b60608152602001906001900390816106425790505b5090508761066588516108a7565b61066f88516108a7565b61067988516108a7565b60405160200161068c94939291906114a1565b604051602081830303815290604052815f815181106106ae576106ad611224565b5b60200260200101819052505f5b875181101561073d578781815181106106d7576106d6611224565b5b6020026020010151896040516020016106f192919061159e565b6040516020818303038152906040528260018361070e9190611346565b8151811061071f5761071e611224565b5b60200260200101819052508080610735906115d7565b9150506106bb565b50878751875187514260405160200161075a959493929190611696565b6040516020818303038152906040525f808581526020019081526020015f20908161078591906118e8565b5060015f8481526020019081526020015f205f9054906101000a900460ff166107f7576001805f8581526020019081526020015f205f6101000a81548160ff021916908315150217905550600283908060018154018082558091505060019003905f5260205f20015f90919091909150555b60405180606001604052806001151581526020018281526020018381525093507f48bda0bee7ff8852f440265af654a83c61da2283be561d3abff07f7ae4ae9e088183604051610848929190611a93565b60405180910390a1505050949350505050565b5f60015f836040516020016108709190611303565b6040516020818303038152906040528051906020012081526020019081526020015f205f9054906101000a900460ff169050919050565b60605f82036108ed576040518060400160405280600181526020017f300000000000000000000000000000000000000000000000000000000000000081525090506109fb565b5f8290505f5b5f821461091c578080610905906115d7565b915050600a826109159190611b01565b91506108f3565b5f8167ffffffffffffffff81111561093757610936610cc9565b5b6040519080825280601f01601f1916602001820160405280156109695781602001600182028036833780820191505090505b5090505b5f85146109f4576001826109819190611b31565b9150600a856109909190611b64565b603061099c9190611346565b60f81b8183815181106109b2576109b1611224565b5b60200101907effffffffffffffffffffffffffffffffffffffffffffffffffffffffffffff191690815f1a905350600a856109ed9190611b01565b945061096d565b8093505050505b919050565b6040518060a001604052805f15158152602001606081526020016060815260200160608152602001606081525090565b60405180608001604052805f15158152602001606081526020015f81526020015f81525090565b60405180606001604052805f15158152602001606081526020015f81525090565b5f8115159050919050565b610a8c81610a78565b82525050565b5f81519050919050565b5f82825260208201905092915050565b5f5b83811015610ac9578082015181840152602081019050610aae565b5f8484015250505050565b5f601f19601f8301169050919050565b5f610aee82610a92565b610af88185610a9c565b9350610b08818560208601610aac565b610b1181610ad4565b840191505092915050565b5f81519050919050565b5f82825260208201905092915050565b5f819050602082019050919050565b5f610b508383610ae4565b905092915050565b5f602082019050919050565b5f610b6e82610b1c565b610b788185610b26565b935083602082028501610b8a85610b36565b805f5b85811015610bc55784840389528151610ba68582610b45565b9450610bb183610b58565b925060208a01995050600181019050610b8d565b50829750879550505050505092915050565b5f60a083015f830151610bec5f860182610a83565b5060208301518482036020860152610c048282610ae4565b91505060408301518482036040860152610c1e8282610ae4565b91505060608301518482036060860152610c388282610ae4565b91505060808301518482036080860152610c528282610b64565b9150508091505092915050565b5f6020820190508181035f830152610c778184610bd7565b905092915050565b5f819050919050565b610c9181610c7f565b82525050565b5f602082019050610caa5f830184610c88565b92915050565b5f604051905090565b5f80fd5b5f80fd5b5f80fd5b5f80fd5b7f4e487b71000000000000000000000000000000000000000000000000000000005f52604160045260245ffd5b610cff82610ad4565b810181811067ffffffffffffffff82111715610d1e57610d1d610cc9565b5b80604052505050565b5f610d30610cb0565b9050610d3c8282610cf6565b919050565b5f67ffffffffffffffff821115610d5b57610d5a610cc9565b5b610d6482610ad4565b9050602081019050919050565b828183375f83830152505050565b5f610d91610d8c84610d41565b610d27565b905082815260208101848484011115610dad57610dac610cc5565b5b610db8848285610d71565b509392505050565b5f82601f830112610dd457610dd3610cc1565b5b8135610de4848260208601610d7f565b91505092915050565b5f67ffffffffffffffff821115610e0757610e06610cc9565b5b602082029050602081019050919050565b5f80fd5b5f610e2e610e2984610ded565b610d27565b90508083825260208201905060208402830185811115610e5157610e50610e18565b5b835b81811015610e9857803567ffffffffffffffff811115610e7657610e75610cc1565b5b808601610e838982610dc0565b85526020850194505050602081019050610e53565b5050509392505050565b5f82601f830112610eb657610eb5610cc1565b5b8135610ec6848260208601610e1c565b91505092915050565b5f805f8060808587031215610ee757610ee6610cb9565b5b5f85013567ffffffffffffffff811115610f0457610f03610cbd565b5b610f1087828801610dc0565b945050602085013567ffffffffffffffff811115610f3157610f30610cbd565b5b610f3d87828801610ea2565b935050604085013567ffffffffffffffff811115610f5e57610f5d610cbd565b5b610f6a87828801610ea2565b925050606085013567ffffffffffffffff811115610f8b57610f8a610cbd565b5b610f9787828801610ea2565b91505092959194509250565b5f81519050919050565b5f82825260208201905092915050565b5f819050602082019050919050565b5f81519050919050565b5f82825260208201905092915050565b5f610ff082610fcc565b610ffa8185610fd6565b935061100a818560208601610aac565b61101381610ad4565b840191505092915050565b5f6110298383610fe6565b905092915050565b5f602082019050919050565b5f61104782610fa3565b6110518185610fad565b93508360208202850161106385610fbd565b805f5b8581101561109e578484038952815161107f858261101e565b945061108a83611031565b925060208a01995050600181019050611066565b50829750879550505050505092915050565b5f819050919050565b6110c2816110b0565b82525050565b5f608083015f8301516110dd5f860182610a83565b50602083015184820360208601526110f5828261103d565b915050604083015161110a60408601826110b9565b50606083015161111d60608601826110b9565b508091505092915050565b5f6020820190508181035f83015261114081846110c8565b905092915050565b5f606083015f83015161115d5f860182610a83565b5060208301518482036020860152611175828261103d565b915050604083015161118a60408601826110b9565b508091505092915050565b5f6020820190508181035f8301526111ad8184611148565b905092915050565b5f602082840312156111ca576111c9610cb9565b5b5f82013567ffffffffffffffff8111156111e7576111e6610cbd565b5b6111f384828501610dc0565b91505092915050565b61120581610a78565b82525050565b5f60208201905061121e5f8301846111fc565b92915050565b7f4e487b71000000000000000000000000000000000000000000000000000000005f52603260045260245ffd5b5f82825260208201905092915050565b7f436f6d706f6e656e74206e616d652063616e6e6f7420626520656d70747900005f82015250565b5f611295601e83611251565b91506112a082611261565b602082019050919050565b5f6020820190508181035f8301526112c281611289565b9050919050565b5f81905092915050565b5f6112dd82610a92565b6112e781856112c9565b93506112f7818560208601610aac565b80840191505092915050565b5f61130e82846112d3565b915081905092915050565b7f4e487b71000000000000000000000000000000000000000000000000000000005f52601160045260245ffd5b5f61135082610c7f565b915061135b83610c7f565b925082820190508082111561137357611372611319565b5b92915050565b7f2f2f20436f6d706f6e656e742073636166666f6c643a200000000000000000005f82015250565b5f6113ad6017836112c9565b91506113b882611379565b601782019050919050565b7f0a2f2f2050617274733a200000000000000000000000000000000000000000005f82015250565b5f6113f7600b836112c9565b9150611402826113c3565b600b82019050919050565b7f0a2f2f205374617465733a2000000000000000000000000000000000000000005f82015250565b5f611441600c836112c9565b915061144c8261140d565b600c82019050919050565b7f0a2f2f204576656e74733a2000000000000000000000000000000000000000005f82015250565b5f61148b600c836112c9565b915061149682611457565b600c82019050919050565b5f6114ab826113a1565b91506114b782876112d3565b91506114c2826113eb565b91506114ce82866112d3565b91506114d982611435565b91506114e582856112d3565b91506114f08261147f565b91506114fc82846112d3565b915081905095945050505050565b7f2f2f20506172742073636166666f6c643a2000000000000000000000000000005f82015250565b5f61153e6012836112c9565b91506115498261150a565b601282019050919050565b7f0a2f2f20506172656e7420636f6d706f6e656e743a20000000000000000000005f82015250565b5f6115886016836112c9565b915061159382611554565b601682019050919050565b5f6115a882611532565b91506115b482856112d3565b91506115bf8261157c565b91506115cb82846112d3565b91508190509392505050565b5f6115e182610c7f565b91507fffffffffffffffffffffffffffffffffffffffffffffffffffffffffffffffff820361161357611612611319565b5b600182019050919050565b5f611628826110b0565b9150611633836110b0565b925082820390508181125f8412168282135f85121516171561165857611657611319565b5b92915050565b5f61166882610a92565b6116728185611251565b9350611682818560208601610aac565b61168b81610ad4565b840191505092915050565b5f60a0820190508181035f8301526116ae818861165e565b90506116bd6020830187610c88565b6116ca6040830186610c88565b6116d76060830185610c88565b6116e46080830184610c88565b9695505050505050565b7f4e487b71000000000000000000000000000000000000000000000000000000005f52602260045260245ffd5b5f600282049050600182168061173257607f821691505b602082108103611745576117446116ee565b5b50919050565b5f819050815f5260205f209050919050565b5f6020601f8301049050919050565b5f82821b905092915050565b5f600883026117a77fffffffffffffffffffffffffffffffffffffffffffffffffffffffffffffffff8261176c565b6117b1868361176c565b95508019841693508086168417925050509392505050565b5f819050919050565b5f6117ec6117e76117e284610c7f565b6117c9565b610c7f565b9050919050565b5f819050919050565b611805836117d2565b611819611811826117f3565b848454611778565b825550505050565b5f90565b61182d611821565b6118388184846117fc565b505050565b5b8181101561185b576118505f82611825565b60018101905061183e565b5050565b601f8211156118a0576118718161174b565b61187a8461175d565b81016020851015611889578190505b61189d6118958561175d565b83018261183d565b50505b505050565b5f82821c905092915050565b5f6118c05f19846008026118a5565b1980831691505092915050565b5f6118d883836118b1565b9150826002028217905092915050565b6118f182610fcc565b67ffffffffffffffff81111561190a57611909610cc9565b5b611914825461171b565b61191f82828561185f565b5f60209050601f831160018114611950575f841561193e578287015190505b61194885826118cd565b8655506119af565b601f19841661195e8661174b565b5f5b8281101561198557848901518255600182019150602085019450602081019050611960565b868310156119a2578489015161199e601f8916826118b1565b8355505b6001600288020188555050505b505050505050565b7f6f6b0000000000000000000000000000000000000000000000000000000000005f82015250565b5f6119eb600283611251565b91506119f6826119b7565b602082019050919050565b5f82825260208201905092915050565b5f611a1b82610fa3565b611a258185611a01565b935083602082028501611a3785610fbd565b805f5b85811015611a725784840389528151611a53858261101e565b9450611a5e83611031565b925060208a01995050600181019050611a3a565b50829750879550505050505092915050565b611a8d816110b0565b82525050565b5f6060820190508181035f830152611aaa816119df565b90508181036020830152611abe8185611a11565b9050611acd6040830184611a84565b9392505050565b7f4e487b71000000000000000000000000000000000000000000000000000000005f52601260045260245ffd5b5f611b0b82610c7f565b9150611b1683610c7f565b925082611b2657611b25611ad4565b5b828204905092915050565b5f611b3b82610c7f565b9150611b4683610c7f565b9250828203905081811115611b5e57611b5d611319565b5b92915050565b5f611b6e82610c7f565b9150611b7983610c7f565b925082611b8957611b88611ad4565b5b82820690509291505056fea26469706673582212206a890864d38c1f797eeaf1cad7e4e86e4daf85deb48787a4d5503ca2ea4451f164736f6c63430008140033","linkReferences":{}},"methodIdentifiers":{"componentCount()":"1fe26e9d","generate(string,string[],string[],string[])":"90e5f1f9","hasComponent(string)":"c8b677aa","preview(string,string[],string[],string[])":"4d9d3c8b","register()":"1aa3a008"},"id":19}