{"abi":[{"type":"function","name":"deploy","inputs":[{"name":"service","type":"bytes32","internalType":"bytes32"},{"name":"imageUri","type":"string","internalType":"string"}],"outputs":[{"name":"","type":"tuple","internalType":"struct CloudRunRuntime.DeployOkResult","components":[{"name":"success","type":"bool","internalType":"bool"},{"name":"service","type":"bytes32","internalType":"bytes32"},{"name":"revision","type":"string","internalType":"string"}]}],"stateMutability":"nonpayable"},{"type":"function","name":"destroy","inputs":[{"name":"service","type":"bytes32","internalType":"bytes32"}],"outputs":[{"name":"","type":"tuple","internalType":"struct CloudRunRuntime.DestroyOkResult","components":[{"name":"success","type":"bool","internalType":"bool"},{"name":"service","type":"bytes32","internalType":"bytes32"}]}],"stateMutability":"nonpayable"},{"type":"function","name":"provision","inputs":[{"name":"concept","type":"string","internalType":"string"},{"name":"projectId","type":"string","internalType":"string"},{"name":"region","type":"string","internalType":"string"},{"name":"cpu","type":"int256","internalType":"int256"},{"name":"memoryMb","type":"int256","internalType":"int256"}],"outputs":[{"name":"","type":"tuple","internalType":"struct CloudRunRuntime.ProvisionOkResult","components":[{"name":"success","type":"bool","internalType":"bool"},{"name":"service","type":"bytes32","internalType":"bytes32"},{"name":"serviceUrl","type":"string","internalType":"string"},{"name":"endpoint","type":"string","internalType":"string"}]}],"stateMutability":"nonpayable"},{"type":"function","name":"register","inputs":[],"outputs":[{"name":"name","type":"string","internalType":"string"},{"name":"category","type":"string","internalType":"string"},{"name":"capabilities","type":"string[]","internalType":"string[]"}],"stateMutability":"pure"},{"type":"function","name":"rollback","inputs":[{"name":"service","type":"bytes32","internalType":"bytes32"},{"name":"targetRevision","type":"string","internalType":"string"}],"outputs":[{"name":"","type":"tuple","internalType":"struct CloudRunRuntime.RollbackOkResult","components":[{"name":"success","type":"bool","internalType":"bool"},{"name":"service","type":"bytes32","internalType":"bytes32"},{"name":"restoredRevision","type":"string","internalType":"string"}]}],"stateMutability":"nonpayable"},{"type":"function","name":"setTrafficWeight","inputs":[{"name":"service","type":"bytes32","internalType":"bytes32"},{"name":"weight","type":"int256","internalType":"int256"}],"outputs":[{"name":"","type":"tuple","internalType":"struct CloudRunRuntime.SetTrafficWeightOkResult","components":[{"name":"success","type":"bool","internalType":"bool"},{"name":"service","type":"bytes32","internalType":"bytes32"}]}],"stateMutability":"nonpayable"},{"type":"event","name":"DeployCompleted","inputs":[{"name":"variant","type":"string","indexed":false,"internalType":"string"},{"name":"service","type":"bytes32","indexed":false,"internalType":"bytes32"}],"anonymous":false},{"type":"event","name":"DestroyCompleted","inputs":[{"name":"variant","type":"string","indexed":false,"internalType":"string"},{"name":"service","type":"bytes32","indexed":false,"internalType":"bytes32"}],"anonymous":false},{"type":"event","name":"ProvisionCompleted","inputs":[{"name":"variant","type":"string","indexed":false,"internalType":"string"},{"name":"service","type":"bytes32","indexed":false,"internalType":"bytes32"}],"anonymous":false},{"type":"event","name":"RollbackCompleted","inputs":[{"name":"variant","type":"string","indexed":false,"internalType":"string"},{"name":"service","type":"bytes32","indexed":false,"internalType":"bytes32"}],"anonymous":false},{"type":"event","name":"SetTrafficWeightCompleted","inputs":[{"name":"variant","type":"string","indexed":false,"internalType":"string"},{"name":"service","type":"bytes32","indexed":false,"internalType":"bytes32"}],"anonymous":false}],"bytecode":{"object":"0x608060405234801561000f575f80fd5b506121538061001d5f395ff3fe608060405234801561000f575f80fd5b5060043610610060575f3560e01c80631aa3a008146100645780636e0bd282146100845780637855131d146100b45780638388d229146100e45780639defa79814610114578063c416a8cf14610144575b5f80fd5b61006c610174565b60405161007b93929190610f80565b60405180910390f35b61009e6004803603810190610099919061100e565b6103e7565b6040516100ab919061108f565b60405180910390f35b6100ce60048036038101906100c991906111d4565b610515565b6040516100db919061127b565b60405180910390f35b6100fe60048036038101906100f991906112ce565b610639565b60405161010b9190611339565b60405180910390f35b61012e60048036038101906101299190611352565b61075b565b60405161013b9190611484565b60405180910390f35b61015e600480360381019061015991906111d4565b61098e565b60405161016b91906114f1565b60405180910390f35b60608060606040518060400160405280600981526020017f636c6f75642d72756e000000000000000000000000000000000000000000000081525092506040518060400160405280600781526020017f72756e74696d65000000000000000000000000000000000000000000000000008152509150600567ffffffffffffffff811115610204576102036110b0565b5b60405190808252806020026020018201604052801561023757816020015b60608152602001906001900390816102225790505b5090506040518060400160405280600981526020017f70726f766973696f6e0000000000000000000000000000000000000000000000815250815f8151811061028357610282611511565b5b60200260200101819052506040518060400160405280600681526020017f6465706c6f790000000000000000000000000000000000000000000000000000815250816001815181106102d8576102d7611511565b5b60200260200101819052506040518060400160405280601081526020017f73657454726166666963576569676874000000000000000000000000000000008152508160028151811061032d5761032c611511565b5b60200260200101819052506040518060400160405280600881526020017f726f6c6c6261636b0000000000000000000000000000000000000000000000008152508160038151811061038257610381611511565b5b60200260200101819052506040518060400160405280600781526020017f64657374726f7900000000000000000000000000000000000000000000000000815250816004815181106103d7576103d6611511565b5b6020026020010181905250909192565b6103ef610cb1565b60015f8381526020019081526020015f205f9054906101000a900460ff1661044c576040517f08c379a000000000000000000000000000000000000000000000000000000000815260040161044390611588565b60405180910390fd5b5f60015f8481526020019081526020015f205f6101000a81548160ff0219169083151502179055505f808381526020019081526020015f205f61048f9190610cce565b60035f8381526020019081526020015f205f6104ab9190610d0b565b60045f8381526020019081526020015f205f90557f5f91d6f5b071e1c01422208aefdc94722551cb418c8c493cbd4fa563938bc5d0826040516104ee91906115ff565b60405180910390a16040518060400160405280600115158152602001838152509050919050565b61051d610d48565b60015f8481526020019081526020015f205f9054906101000a900460ff1661057a576040517f08c379a000000000000000000000000000000000000000000000000000000000815260040161057190611588565b60405180910390fd5b5f8251116105bd576040517f08c379a00000000000000000000000000000000000000000000000000000000081526004016105b49061169b565b60405180910390fd5b8160035f8581526020019081526020015f2090816105db91906118bc565b507fd7216dc6f75dc5ba9c492a95dab64aa01aaf14ccb27b9a38cc0ea55b5980b34f8360405161060b91906115ff565b60405180910390a1604051806060016040528060011515815260200184815260200183815250905092915050565b610641610d6c565b60015f8481526020019081526020015f205f9054906101000a900460ff1661069e576040517f08c379a000000000000000000000000000000000000000000000000000000000815260040161069590611588565b60405180910390fd5b5f82121580156106af575060648213155b6106ee576040517f08c379a00000000000000000000000000000000000000000000000000000000081526004016106e5906119d5565b60405180910390fd5b8160045f8581526020019081526020015f20819055507fe3818c8f29f23fa7dae9a0884fe04d7bb4770020f95d48f6e3d93dc214eef7328360405161073391906115ff565b60405180910390a1604051806040016040528060011515815260200184815250905092915050565b610763610d89565b5f8651116107a6576040517f08c379a000000000000000000000000000000000000000000000000000000000815260040161079d90611a3d565b60405180910390fd5b5f8551116107e9576040517f08c379a00000000000000000000000000000000000000000000000000000000081526004016107e090611aa5565b60405180910390fd5b5f8686866040516020016107ff93929190611afd565b60405160208183030381529060405280519060200120905086868686864260405160200161083296959493929190611b4b565b6040516020818303038152906040525f808381526020019081526020015f20908161085d9190611c21565b5060015f8281526020019081526020015f205f9054906101000a900460ff166108fc576001805f8381526020019081526020015f205f6101000a81548160ff021916908315150217905550600281908060018154018082558091505060019003905f5260205f20015f90919091909150555f60055f8381526020019081526020015f2081905550606460045f8381526020019081526020015f20819055505b5f8786604051602001610910929190611dce565b60405160208183030381529060405290505f8190507fe7ba298fd4b65faaecaa247132b454d0c8aac6d7bffe755ede2830a2108f83188360405161095491906115ff565b60405180910390a1604051806080016040528060011515815260200184815260200183815260200182815250935050505095945050505050565b610996610db4565b60015f8481526020019081526020015f205f9054906101000a900460ff166109f3576040517f08c379a00000000000000000000000000000000000000000000000000000000081526004016109ea90611e82565b60405180910390fd5b5f825111610a36576040517f08c379a0000000000000000000000000000000000000000000000000000000008152600401610a2d90611eea565b60405180910390fd5b600160055f8581526020019081526020015f205f828254610a579190611f35565b925050819055505f610a7960055f8681526020019081526020015f2054610b58565b604051602001610a899190611fb2565b60405160208183030381529060405290508060035f8681526020019081526020015f209081610ab891906118bc565b50828142604051602001610ace93929190611fd3565b6040516020818303038152906040525f808681526020019081526020015f209081610af99190611c21565b507fa2bcee769063b8cbe84c66b7e22189704d1631b14aa84ae063df981ef674ebd084604051610b2991906115ff565b60405180910390a160405180606001604052806001151581526020018581526020018281525091505092915050565b60605f8203610b9e576040518060400160405280600181526020017f30000000000000000000000000000000000000000000000000000000000000008152509050610cac565b5f8290505f5b5f8214610bcd578080610bb690612016565b915050600a82610bc6919061208a565b9150610ba4565b5f8167ffffffffffffffff811115610be857610be76110b0565b5b6040519080825280601f01601f191660200182016040528015610c1a5781602001600182028036833780820191505090505b5090505b5f8514610ca557600182610c3291906120ba565b9150600a85610c4191906120ed565b6030610c4d9190611f35565b60f81b818381518110610c6357610c62611511565b5b60200101907effffffffffffffffffffffffffffffffffffffffffffffffffffffffffffff191690815f1a905350600a85610c9e919061208a565b9450610c1e565b8093505050505b919050565b60405180604001604052805f151581526020015f80191681525090565b508054610cda906116e6565b5f825580601f10610ceb5750610d08565b601f0160209004905f5260205f2090810190610d079190610dd8565b5b50565b508054610d17906116e6565b5f825580601f10610d285750610d45565b601f0160209004905f5260205f2090810190610d449190610dd8565b5b50565b60405180606001604052805f151581526020015f8019168152602001606081525090565b60405180604001604052805f151581526020015f80191681525090565b60405180608001604052805f151581526020015f801916815260200160608152602001606081525090565b60405180606001604052805f151581526020015f8019168152602001606081525090565b5b80821115610def575f815f905550600101610dd9565b5090565b5f81519050919050565b5f82825260208201905092915050565b5f5b83811015610e2a578082015181840152602081019050610e0f565b5f8484015250505050565b5f601f19601f8301169050919050565b5f610e4f82610df3565b610e598185610dfd565b9350610e69818560208601610e0d565b610e7281610e35565b840191505092915050565b5f81519050919050565b5f82825260208201905092915050565b5f819050602082019050919050565b5f82825260208201905092915050565b5f610ec082610df3565b610eca8185610ea6565b9350610eda818560208601610e0d565b610ee381610e35565b840191505092915050565b5f610ef98383610eb6565b905092915050565b5f602082019050919050565b5f610f1782610e7d565b610f218185610e87565b935083602082028501610f3385610e97565b805f5b85811015610f6e5784840389528151610f4f8582610eee565b9450610f5a83610f01565b925060208a01995050600181019050610f36565b50829750879550505050505092915050565b5f6060820190508181035f830152610f988186610e45565b90508181036020830152610fac8185610e45565b90508181036040830152610fc08184610f0d565b9050949350505050565b5f604051905090565b5f80fd5b5f80fd5b5f819050919050565b610fed81610fdb565b8114610ff7575f80fd5b50565b5f8135905061100881610fe4565b92915050565b5f6020828403121561102357611022610fd3565b5b5f61103084828501610ffa565b91505092915050565b5f8115159050919050565b61104d81611039565b82525050565b61105c81610fdb565b82525050565b604082015f8201516110765f850182611044565b5060208201516110896020850182611053565b50505050565b5f6040820190506110a25f830184611062565b92915050565b5f80fd5b5f80fd5b7f4e487b71000000000000000000000000000000000000000000000000000000005f52604160045260245ffd5b6110e682610e35565b810181811067ffffffffffffffff82111715611105576111046110b0565b5b80604052505050565b5f611117610fca565b905061112382826110dd565b919050565b5f67ffffffffffffffff821115611142576111416110b0565b5b61114b82610e35565b9050602081019050919050565b828183375f83830152505050565b5f61117861117384611128565b61110e565b905082815260208101848484011115611194576111936110ac565b5b61119f848285611158565b509392505050565b5f82601f8301126111bb576111ba6110a8565b5b81356111cb848260208601611166565b91505092915050565b5f80604083850312156111ea576111e9610fd3565b5b5f6111f785828601610ffa565b925050602083013567ffffffffffffffff81111561121857611217610fd7565b5b611224858286016111a7565b9150509250929050565b5f606083015f8301516112435f860182611044565b5060208301516112566020860182611053565b506040830151848203604086015261126e8282610eb6565b9150508091505092915050565b5f6020820190508181035f830152611293818461122e565b905092915050565b5f819050919050565b6112ad8161129b565b81146112b7575f80fd5b50565b5f813590506112c8816112a4565b92915050565b5f80604083850312156112e4576112e3610fd3565b5b5f6112f185828601610ffa565b9250506020611302858286016112ba565b9150509250929050565b604082015f8201516113205f850182611044565b5060208201516113336020850182611053565b50505050565b5f60408201905061134c5f83018461130c565b92915050565b5f805f805f60a0868803121561136b5761136a610fd3565b5b5f86013567ffffffffffffffff81111561138857611387610fd7565b5b611394888289016111a7565b955050602086013567ffffffffffffffff8111156113b5576113b4610fd7565b5b6113c1888289016111a7565b945050604086013567ffffffffffffffff8111156113e2576113e1610fd7565b5b6113ee888289016111a7565b93505060606113ff888289016112ba565b9250506080611410888289016112ba565b9150509295509295909350565b5f608083015f8301516114325f860182611044565b5060208301516114456020860182611053565b506040830151848203604086015261145d8282610eb6565b915050606083015184820360608601526114778282610eb6565b9150508091505092915050565b5f6020820190508181035f83015261149c818461141d565b905092915050565b5f606083015f8301516114b95f860182611044565b5060208301516114cc6020860182611053565b50604083015184820360408601526114e48282610eb6565b9150508091505092915050565b5f6020820190508181035f83015261150981846114a4565b905092915050565b7f4e487b71000000000000000000000000000000000000000000000000000000005f52603260045260245ffd5b7f53657276696365206e6f7420666f756e640000000000000000000000000000005f82015250565b5f611572601183610dfd565b915061157d8261153e565b602082019050919050565b5f6020820190508181035f83015261159f81611566565b9050919050565b7f6f6b0000000000000000000000000000000000000000000000000000000000005f82015250565b5f6115da600283610dfd565b91506115e5826115a6565b602082019050919050565b6115f981610fdb565b82525050565b5f6040820190508181035f830152611616816115ce565b905061162560208301846115f0565b92915050565b7f546172676574207265766973696f6e206d757374206e6f7420626520656d70745f8201527f7900000000000000000000000000000000000000000000000000000000000000602082015250565b5f611685602183610dfd565b91506116908261162b565b604082019050919050565b5f6020820190508181035f8301526116b281611679565b9050919050565b7f4e487b71000000000000000000000000000000000000000000000000000000005f52602260045260245ffd5b5f60028204905060018216806116fd57607f821691505b6020821081036117105761170f6116b9565b5b50919050565b5f819050815f5260205f209050919050565b5f6020601f8301049050919050565b5f82821b905092915050565b5f600883026117727fffffffffffffffffffffffffffffffffffffffffffffffffffffffffffffffff82611737565b61177c8683611737565b95508019841693508086168417925050509392505050565b5f819050919050565b5f819050919050565b5f6117c06117bb6117b684611794565b61179d565b611794565b9050919050565b5f819050919050565b6117d9836117a6565b6117ed6117e5826117c7565b848454611743565b825550505050565b5f90565b6118016117f5565b61180c8184846117d0565b505050565b5b8181101561182f576118245f826117f9565b600181019050611812565b5050565b601f8211156118745761184581611716565b61184e84611728565b8101602085101561185d578190505b61187161186985611728565b830182611811565b50505b505050565b5f82821c905092915050565b5f6118945f1984600802611879565b1980831691505092915050565b5f6118ac8383611885565b9150826002028217905092915050565b6118c582610df3565b67ffffffffffffffff8111156118de576118dd6110b0565b5b6118e882546116e6565b6118f3828285611833565b5f60209050601f831160018114611924575f8415611912578287015190505b61191c85826118a1565b865550611983565b601f19841661193286611716565b5f5b8281101561195957848901518255600182019150602085019450602081019050611934565b868310156119765784890151611972601f891682611885565b8355505b6001600288020188555050505b505050505050565b7f576569676874206d75737420626520302d3130300000000000000000000000005f82015250565b5f6119bf601483610dfd565b91506119ca8261198b565b602082019050919050565b5f6020820190508181035f8301526119ec816119b3565b9050919050565b7f436f6e63657074206d757374206e6f7420626520656d707479000000000000005f82015250565b5f611a27601983610dfd565b9150611a32826119f3565b602082019050919050565b5f6020820190508181035f830152611a5481611a1b565b9050919050565b7f50726f6a656374204944206d757374206e6f7420626520656d707479000000005f82015250565b5f611a8f601c83610dfd565b9150611a9a82611a5b565b602082019050919050565b5f6020820190508181035f830152611abc81611a83565b9050919050565b5f81905092915050565b5f611ad782610df3565b611ae18185611ac3565b9350611af1818560208601610e0d565b80840191505092915050565b5f611b088286611acd565b9150611b148285611acd565b9150611b208284611acd565b9150819050949350505050565b611b368161129b565b82525050565b611b4581611794565b82525050565b5f60c0820190508181035f830152611b638189610e45565b90508181036020830152611b778188610e45565b90508181036040830152611b8b8187610e45565b9050611b9a6060830186611b2d565b611ba76080830185611b2d565b611bb460a0830184611b3c565b979650505050505050565b5f81519050919050565b5f819050815f5260205f209050919050565b601f821115611c1c57611bed81611bc9565b611bf684611728565b81016020851015611c05578190505b611c19611c1185611728565b830182611811565b50505b505050565b611c2a82611bbf565b67ffffffffffffffff811115611c4357611c426110b0565b5b611c4d82546116e6565b611c58828285611bdb565b5f60209050601f831160018114611c89575f8415611c77578287015190505b611c8185826118a1565b865550611ce8565b601f198416611c9786611bc9565b5f5b82811015611cbe57848901518255600182019150602085019450602081019050611c99565b86831015611cdb5784890151611cd7601f891682611885565b8355505b6001600288020188555050505b505050505050565b7f68747470733a2f2f0000000000000000000000000000000000000000000000005f82015250565b5f611d24600883611ac3565b9150611d2f82611cf0565b600882019050919050565b7f2d000000000000000000000000000000000000000000000000000000000000005f82015250565b5f611d6e600183611ac3565b9150611d7982611d3a565b600182019050919050565b7f2e72756e2e6170700000000000000000000000000000000000000000000000005f82015250565b5f611db8600883611ac3565b9150611dc382611d84565b600882019050919050565b5f611dd882611d18565b9150611de48285611acd565b9150611def82611d62565b9150611dfb8284611acd565b9150611e0682611dac565b91508190509392505050565b7f53657276696365206e6f7420666f756e64202d2070726f766973696f6e2066695f8201527f7273740000000000000000000000000000000000000000000000000000000000602082015250565b5f611e6c602383610dfd565b9150611e7782611e12565b604082019050919050565b5f6020820190508181035f830152611e9981611e60565b9050919050565b7f496d61676520555249206d757374206e6f7420626520656d70747900000000005f82015250565b5f611ed4601b83610dfd565b9150611edf82611ea0565b602082019050919050565b5f6020820190508181035f830152611f0181611ec8565b9050919050565b7f4e487b71000000000000000000000000000000000000000000000000000000005f52601160045260245ffd5b5f611f3f82611794565b9150611f4a83611794565b9250828201905080821115611f6257611f61611f08565b5b92915050565b7f7265762d000000000000000000000000000000000000000000000000000000005f82015250565b5f611f9c600483611ac3565b9150611fa782611f68565b600482019050919050565b5f611fbc82611f90565b9150611fc88284611acd565b915081905092915050565b5f6060820190508181035f830152611feb8186610e45565b90508181036020830152611fff8185610e45565b905061200e6040830184611b3c565b949350505050565b5f61202082611794565b91507fffffffffffffffffffffffffffffffffffffffffffffffffffffffffffffffff820361205257612051611f08565b5b600182019050919050565b7f4e487b71000000000000000000000000000000000000000000000000000000005f52601260045260245ffd5b5f61209482611794565b915061209f83611794565b9250826120af576120ae61205d565b5b828204905092915050565b5f6120c482611794565b91506120cf83611794565b92508282039050818111156120e7576120e6611f08565b5b92915050565b5f6120f782611794565b915061210283611794565b9250826121125761211161205d565b5b82820690509291505056fea26469706673582212201db4395ab9c9ede4511631ea700d4e76f0e67429e53354ca0f5773083cabfc6a64736f6c63430008140033","linkReferences":{}},"methodIdentifiers":{"deploy(bytes32,string)":"c416a8cf","destroy(bytes32)":"6e0bd282","provision(string,string,string,int256,int256)":"9defa798","register()":"1aa3a008","rollback(bytes32,string)":"7855131d","setTrafficWeight(bytes32,int256)":"8388d229"},"id":57}