{"abi":[{"type":"function","name":"addField","inputs":[{"name":"schemaId","type":"bytes32","internalType":"bytes32"},{"name":"fieldDef","type":"string","internalType":"string"}],"outputs":[],"stateMutability":"nonpayable"},{"type":"function","name":"applyTo","inputs":[{"name":"nodeId","type":"bytes32","internalType":"bytes32"},{"name":"schemaId","type":"bytes32","internalType":"bytes32"}],"outputs":[],"stateMutability":"nonpayable"},{"type":"function","name":"defineSchema","inputs":[{"name":"schemaId","type":"bytes32","internalType":"bytes32"},{"name":"name","type":"string","internalType":"string"},{"name":"fields","type":"string","internalType":"string"}],"outputs":[],"stateMutability":"nonpayable"},{"type":"function","name":"extendSchema","inputs":[{"name":"childId","type":"bytes32","internalType":"bytes32"},{"name":"parentId","type":"bytes32","internalType":"bytes32"}],"outputs":[],"stateMutability":"nonpayable"},{"type":"function","name":"getNodeSchema","inputs":[{"name":"nodeId","type":"bytes32","internalType":"bytes32"}],"outputs":[{"name":"hasSchema","type":"bool","internalType":"bool"},{"name":"schemaId","type":"bytes32","internalType":"bytes32"}],"stateMutability":"view"},{"type":"function","name":"getSchema","inputs":[{"name":"schemaId","type":"bytes32","internalType":"bytes32"}],"outputs":[{"name":"","type":"tuple","internalType":"struct Schema.SchemaData","components":[{"name":"name","type":"string","internalType":"string"},{"name":"fields","type":"string","internalType":"string"},{"name":"parentId","type":"bytes32","internalType":"bytes32"},{"name":"exists","type":"bool","internalType":"bool"}]}],"stateMutability":"view"},{"type":"function","name":"removeFrom","inputs":[{"name":"nodeId","type":"bytes32","internalType":"bytes32"}],"outputs":[],"stateMutability":"nonpayable"},{"type":"event","name":"FieldAdded","inputs":[{"name":"schemaId","type":"bytes32","indexed":true,"internalType":"bytes32"}],"anonymous":false},{"type":"event","name":"SchemaApplied","inputs":[{"name":"nodeId","type":"bytes32","indexed":true,"internalType":"bytes32"},{"name":"schemaId","type":"bytes32","indexed":true,"internalType":"bytes32"}],"anonymous":false},{"type":"event","name":"SchemaDefined","inputs":[{"name":"schemaId","type":"bytes32","indexed":true,"internalType":"bytes32"},{"name":"name","type":"string","indexed":false,"internalType":"string"}],"anonymous":false},{"type":"event","name":"SchemaExtended","inputs":[{"name":"childId","type":"bytes32","indexed":true,"internalType":"bytes32"},{"name":"parentId","type":"bytes32","indexed":true,"internalType":"bytes32"}],"anonymous":false},{"type":"event","name":"SchemaRemoved","inputs":[{"name":"nodeId","type":"bytes32","indexed":true,"internalType":"bytes32"}],"anonymous":false}],"bytecode":{"object":"0x608060405234801561000f575f80fd5b5061151f8061001d5f395ff3fe608060405234801561000f575f80fd5b506004361061007b575f3560e01c8063a2ea7c6e11610059578063a2ea7c6e146100e8578063af3a732914610118578063cdf9b18e14610134578063f3249099146101505761007b565b806325d2dee61461007f57806330072ae3146100b057806330493b69146100cc575b5f80fd5b610099600480360381019061009491906109df565b61016c565b6040516100a7929190610a33565b60405180910390f35b6100ca60048036038101906100c59190610abb565b6101a7565b005b6100e660048036038101906100e19190610b4c565b61039f565b005b61010260048036038101906100fd91906109df565b610486565b60405161010f9190610cb8565b60405180910390f35b610132600480360381019061012d91906109df565b610652565b005b61014e60048036038101906101499190610cd8565b61071b565b005b61016a60048036038101906101659190610cd8565b61082f565b005b5f8060025f8481526020019081526020015f205f9054906101000a900460ff1660015f8581526020019081526020015f205491509150915091565b5f808681526020019081526020015f206003015f9054906101000a900460ff1615610207576040517f08c379a00000000000000000000000000000000000000000000000000000000081526004016101fe90610d70565b60405180910390fd5b5f848490501161024c576040517f08c379a000000000000000000000000000000000000000000000000000000000815260040161024390610dd8565b60405180910390fd5b604051806080016040528085858080601f0160208091040260200160405190810160405280939291908181526020018383808284375f81840152601f19601f82011690508083019250505050505050815260200183838080601f0160208091040260200160405190810160405280939291908181526020018383808284375f81840152601f19601f8201169050808301925050505050505081526020015f801b8152602001600115158152505f808781526020019081526020015f205f820151815f01908161031b9190611026565b5060208201518160010190816103319190611026565b50604082015181600201556060820151816003015f6101000a81548160ff021916908315150217905550905050847fd94b6558fe802e7237f2e10b431ffa20beb877e81d88515121215cb64967ae80858560405161039092919061112f565b60405180910390a25050505050565b5f808481526020019081526020015f206003015f9054906101000a900460ff166103fe576040517f08c379a00000000000000000000000000000000000000000000000000000000081526004016103f59061119b565b60405180910390fd5b5f808481526020019081526020015f206001018282604051602001610425939291906112b1565b6040516020818303038152906040525f808581526020019081526020015f2060010190816104539190611026565b50827fb6a050017877160cbfab4fea7c7d852602bc9ce4e16afadb6426c77b615934ef60405160405180910390a2505050565b61048e610979565b5f808381526020019081526020015f206003015f9054906101000a900460ff166104ed576040517f08c379a00000000000000000000000000000000000000000000000000000000081526004016104e49061119b565b60405180910390fd5b5f808381526020019081526020015f206040518060800160405290815f8201805461051790610e50565b80601f016020809104026020016040519081016040528092919081815260200182805461054390610e50565b801561058e5780601f106105655761010080835404028352916020019161058e565b820191905f5260205f20905b81548152906001019060200180831161057157829003601f168201915b505050505081526020016001820180546105a790610e50565b80601f01602080910402602001604051908101604052809291908181526020018280546105d390610e50565b801561061e5780601f106105f55761010080835404028352916020019161061e565b820191905f5260205f20905b81548152906001019060200180831161060157829003601f168201915b5050505050815260200160028201548152602001600382015f9054906101000a900460ff1615151515815250509050919050565b60025f8281526020019081526020015f205f9054906101000a900460ff166106af576040517f08c379a00000000000000000000000000000000000000000000000000000000081526004016106a69061132b565b60405180910390fd5b60015f8281526020019081526020015f205f90555f60025f8381526020019081526020015f205f6101000a81548160ff021916908315150217905550807fe87a0fc50530a272fc053d8ff2acf1813930be6f2f7258102811f4dfd697e73860405160405180910390a250565b5f808281526020019081526020015f206003015f9054906101000a900460ff1661077a576040517f08c379a00000000000000000000000000000000000000000000000000000000081526004016107719061119b565b60405180910390fd5b5f801b82036107be576040517f08c379a00000000000000000000000000000000000000000000000000000000081526004016107b590611393565b60405180910390fd5b8060015f8481526020019081526020015f2081905550600160025f8481526020019081526020015f205f6101000a81548160ff02191690831515021790555080827f20070180e2d33338ef3d5d39ca31047d86dd6a465bd1ba8e9dded8252067f19560405160405180910390a35050565b5f808381526020019081526020015f206003015f9054906101000a900460ff1661088e576040517f08c379a0000000000000000000000000000000000000000000000000000000008152600401610885906113fb565b60405180910390fd5b5f808281526020019081526020015f206003015f9054906101000a900460ff166108ed576040517f08c379a00000000000000000000000000000000000000000000000000000000081526004016108e490611463565b60405180910390fd5b80820361092f576040517f08c379a0000000000000000000000000000000000000000000000000000000008152600401610926906114cb565b60405180910390fd5b805f808481526020019081526020015f206002018190555080827f7aa83f4aa137b9dd5bb5d9a406460baf032a3db21e9b60e354f531fe2c72f58560405160405180910390a35050565b604051806080016040528060608152602001606081526020015f80191681526020015f151581525090565b5f80fd5b5f80fd5b5f819050919050565b6109be816109ac565b81146109c8575f80fd5b50565b5f813590506109d9816109b5565b92915050565b5f602082840312156109f4576109f36109a4565b5b5f610a01848285016109cb565b91505092915050565b5f8115159050919050565b610a1e81610a0a565b82525050565b610a2d816109ac565b82525050565b5f604082019050610a465f830185610a15565b610a536020830184610a24565b9392505050565b5f80fd5b5f80fd5b5f80fd5b5f8083601f840112610a7b57610a7a610a5a565b5b8235905067ffffffffffffffff811115610a9857610a97610a5e565b5b602083019150836001820283011115610ab457610ab3610a62565b5b9250929050565b5f805f805f60608688031215610ad457610ad36109a4565b5b5f610ae1888289016109cb565b955050602086013567ffffffffffffffff811115610b0257610b016109a8565b5b610b0e88828901610a66565b9450945050604086013567ffffffffffffffff811115610b3157610b306109a8565b5b610b3d88828901610a66565b92509250509295509295909350565b5f805f60408486031215610b6357610b626109a4565b5b5f610b70868287016109cb565b935050602084013567ffffffffffffffff811115610b9157610b906109a8565b5b610b9d86828701610a66565b92509250509250925092565b5f81519050919050565b5f82825260208201905092915050565b5f5b83811015610be0578082015181840152602081019050610bc5565b5f8484015250505050565b5f601f19601f8301169050919050565b5f610c0582610ba9565b610c0f8185610bb3565b9350610c1f818560208601610bc3565b610c2881610beb565b840191505092915050565b610c3c816109ac565b82525050565b610c4b81610a0a565b82525050565b5f608083015f8301518482035f860152610c6b8282610bfb565b91505060208301518482036020860152610c858282610bfb565b9150506040830151610c9a6040860182610c33565b506060830151610cad6060860182610c42565b508091505092915050565b5f6020820190508181035f830152610cd08184610c51565b905092915050565b5f8060408385031215610cee57610ced6109a4565b5b5f610cfb858286016109cb565b9250506020610d0c858286016109cb565b9150509250929050565b5f82825260208201905092915050565b7f536368656d6120616c72656164792065786973747300000000000000000000005f82015250565b5f610d5a601583610d16565b9150610d6582610d26565b602082019050919050565b5f6020820190508181035f830152610d8781610d4e565b9050919050565b7f4e616d652063616e6e6f7420626520656d7074790000000000000000000000005f82015250565b5f610dc2601483610d16565b9150610dcd82610d8e565b602082019050919050565b5f6020820190508181035f830152610def81610db6565b9050919050565b7f4e487b71000000000000000000000000000000000000000000000000000000005f52604160045260245ffd5b7f4e487b71000000000000000000000000000000000000000000000000000000005f52602260045260245ffd5b5f6002820490506001821680610e6757607f821691505b602082108103610e7a57610e79610e23565b5b50919050565b5f819050815f5260205f209050919050565b5f6020601f8301049050919050565b5f82821b905092915050565b5f60088302610edc7fffffffffffffffffffffffffffffffffffffffffffffffffffffffffffffffff82610ea1565b610ee68683610ea1565b95508019841693508086168417925050509392505050565b5f819050919050565b5f819050919050565b5f610f2a610f25610f2084610efe565b610f07565b610efe565b9050919050565b5f819050919050565b610f4383610f10565b610f57610f4f82610f31565b848454610ead565b825550505050565b5f90565b610f6b610f5f565b610f76818484610f3a565b505050565b5b81811015610f9957610f8e5f82610f63565b600181019050610f7c565b5050565b601f821115610fde57610faf81610e80565b610fb884610e92565b81016020851015610fc7578190505b610fdb610fd385610e92565b830182610f7b565b50505b505050565b5f82821c905092915050565b5f610ffe5f1984600802610fe3565b1980831691505092915050565b5f6110168383610fef565b9150826002028217905092915050565b61102f82610ba9565b67ffffffffffffffff81111561104857611047610df6565b5b6110528254610e50565b61105d828285610f9d565b5f60209050601f83116001811461108e575f841561107c578287015190505b611086858261100b565b8655506110ed565b601f19841661109c86610e80565b5f5b828110156110c35784890151825560018201915060208501945060208101905061109e565b868310156110e057848901516110dc601f891682610fef565b8355505b6001600288020188555050505b505050505050565b828183375f83830152505050565b5f61110e8385610d16565b935061111b8385846110f5565b61112483610beb565b840190509392505050565b5f6020820190508181035f830152611148818486611103565b90509392505050565b7f536368656d6120646f6573206e6f7420657869737400000000000000000000005f82015250565b5f611185601583610d16565b915061119082611151565b602082019050919050565b5f6020820190508181035f8301526111b281611179565b9050919050565b5f81905092915050565b5f81546111cf81610e50565b6111d981866111b9565b9450600182165f81146111f357600181146112085761123a565b60ff198316865281151582028601935061123a565b61121185610e80565b5f5b8381101561123257815481890152600182019150602081019050611213565b838801955050505b50505092915050565b7f2c000000000000000000000000000000000000000000000000000000000000005f82015250565b5f6112776001836111b9565b915061128282611243565b600182019050919050565b5f61129883856111b9565b93506112a58385846110f5565b82840190509392505050565b5f6112bc82866111c3565b91506112c78261126b565b91506112d482848661128d565b9150819050949350505050565b7f4e6f646520686173206e6f20736368656d6100000000000000000000000000005f82015250565b5f611315601283610d16565b9150611320826112e1565b602082019050919050565b5f6020820190508181035f83015261134281611309565b9050919050565b7f496e76616c6964206e6f646520494400000000000000000000000000000000005f82015250565b5f61137d600f83610d16565b915061138882611349565b602082019050919050565b5f6020820190508181035f8301526113aa81611371565b9050919050565b7f4368696c6420736368656d6120646f6573206e6f7420657869737400000000005f82015250565b5f6113e5601b83610d16565b91506113f0826113b1565b602082019050919050565b5f6020820190508181035f830152611412816113d9565b9050919050565b7f506172656e7420736368656d6120646f6573206e6f74206578697374000000005f82015250565b5f61144d601c83610d16565b915061145882611419565b602082019050919050565b5f6020820190508181035f83015261147a81611441565b9050919050565b7f536368656d612063616e6e6f7420657874656e6420697473656c6600000000005f82015250565b5f6114b5601b83610d16565b91506114c082611481565b602082019050919050565b5f6020820190508181035f8301526114e2816114a9565b905091905056fea26469706673582212201396292871057444f402c504b539ca929afe2f197e4108b41ae3b091c7ee435c64736f6c63430008140033","linkReferences":{}},"methodIdentifiers":{"addField(bytes32,string)":"30493b69","applyTo(bytes32,bytes32)":"cdf9b18e","defineSchema(bytes32,string,string)":"30072ae3","extendSchema(bytes32,bytes32)":"f3249099","getNodeSchema(bytes32)":"25d2dee6","getSchema(bytes32)":"a2ea7c6e","removeFrom(bytes32)":"af3a7329"},"id":230}