{"abi":[{"type":"function","name":"getSync","inputs":[{"name":"syncId","type":"bytes32","internalType":"bytes32"}],"outputs":[{"name":"","type":"tuple","internalType":"struct SyncParser.ParsedSync","components":[{"name":"ast","type":"bytes","internalType":"bytes"},{"name":"source","type":"string","internalType":"string"},{"name":"manifestCount","type":"uint256","internalType":"uint256"},{"name":"timestamp","type":"uint256","internalType":"uint256"},{"name":"exists","type":"bool","internalType":"bool"}]}],"stateMutability":"view"},{"type":"function","name":"listSyncs","inputs":[],"outputs":[{"name":"","type":"bytes32[]","internalType":"bytes32[]"}],"stateMutability":"view"},{"type":"function","name":"parse","inputs":[{"name":"source","type":"string","internalType":"string"},{"name":"manifests","type":"bytes[]","internalType":"bytes[]"}],"outputs":[{"name":"result","type":"tuple","internalType":"struct SyncParser.ParseOkResult","components":[{"name":"success","type":"bool","internalType":"bool"},{"name":"sync","type":"bytes32","internalType":"bytes32"},{"name":"ast","type":"bytes","internalType":"bytes"}]}],"stateMutability":"nonpayable"},{"type":"function","name":"register","inputs":[],"outputs":[{"name":"metadata","type":"tuple","internalType":"struct SyncParser.ProviderMetadata","components":[{"name":"name","type":"string","internalType":"string"},{"name":"category","type":"string","internalType":"string"}]}],"stateMutability":"pure"},{"type":"function","name":"syncExists","inputs":[{"name":"syncId","type":"bytes32","internalType":"bytes32"}],"outputs":[{"name":"","type":"bool","internalType":"bool"}],"stateMutability":"view"},{"type":"event","name":"ParseCompleted","inputs":[{"name":"variant","type":"string","indexed":false,"internalType":"string"},{"name":"sync","type":"bytes32","indexed":false,"internalType":"bytes32"},{"name":"ast","type":"bytes","indexed":false,"internalType":"bytes"},{"name":"line","type":"int256","indexed":false,"internalType":"int256"}],"anonymous":false}],"bytecode":{"object":"0x608060405234801561000f575f80fd5b506113a78061001d5f395ff3fe608060405234801561000f575f80fd5b5060043610610055575f3560e01c80631aa3a008146100595780631c584547146100775780635c19b2fc146100a75780635df36cbe146100d75780638581fcc114610107575b5f80fd5b610061610125565b60405161006e9190610791565b60405180910390f35b610091600480360381019061008c91906107ec565b6101b1565b60405161009e9190610831565b60405180910390f35b6100c160048036038101906100bc91906107ec565b6101d9565b6040516100ce919061093d565b60405180910390f35b6100f160048036038101906100ec9190610a13565b6103af565b6040516100fe9190610aed565b60405180910390f35b61010f610604565b60405161011c9190610bb5565b60405180910390f35b61012d61065a565b60405180604001604052806040518060400160405280600b81526020017f73796e632d70617273657200000000000000000000000000000000000000000081525081526020016040518060400160405280600681526020017f7061727365720000000000000000000000000000000000000000000000000000815250815250905090565b5f805f8381526020019081526020015f206004015f9054906101000a900460ff169050919050565b6101e1610674565b5f808381526020019081526020015f206004015f9054906101000a900460ff16610240576040517f08c379a000000000000000000000000000000000000000000000000000000000815260040161023790610c2f565b60405180910390fd5b5f808381526020019081526020015f206040518060a00160405290815f8201805461026a90610c7a565b80601f016020809104026020016040519081016040528092919081815260200182805461029690610c7a565b80156102e15780601f106102b8576101008083540402835291602001916102e1565b820191905f5260205f20905b8154815290600101906020018083116102c457829003601f168201915b505050505081526020016001820180546102fa90610c7a565b80601f016020809104026020016040519081016040528092919081815260200182805461032690610c7a565b80156103715780601f1061034857610100808354040283529160200191610371565b820191905f5260205f20905b81548152906001019060200180831161035457829003601f168201915b505050505081526020016002820154815260200160038201548152602001600482015f9054906101000a900460ff1615151515815250509050919050565b6103b76106a2565b5f85859050116103fc576040517f08c379a00000000000000000000000000000000000000000000000000000000081526004016103f390610cf4565b60405180910390fd5b5f8585858590504260025460405160200161041b959493929190610d6e565b60405160208183030381529060405280519060200120905060025f81548092919061044590610de6565b91905055505f818787905086869050426040516020016104689493929190610e4b565b60405160208183030381529060405290506040518060a0016040528082815260200188888080601f0160208091040260200160405190810160405280939291908181526020018383808284375f81840152601f19601f820116905080830192505050505050508152602001868690508152602001428152602001600115158152505f808481526020019081526020015f205f820151815f01908161050c9190611058565b506020820151816001019081610522919061117f565b5060408201518160020155606082015181600301556080820151816004015f6101000a81548160ff021916908315150217905550905050600182908060018154018082558091505060019003905f5260205f20015f909190919091505560405180606001604052806001151581526020018381526020018281525092507f6bb26c9dc13951c7891cc511bfae9c506673b50169026fc77d4f1f936834f8ce82827fffffffffffffffffffffffffffffffffffffffffffffffffffffffffffffffff6040516105f293929190611322565b60405180910390a15050949350505050565b6060600180548060200260200160405190810160405280929190818152602001828054801561065057602002820191905f5260205f20905b81548152602001906001019080831161063c575b5050505050905090565b604051806040016040528060608152602001606081525090565b6040518060a0016040528060608152602001606081526020015f81526020015f81526020015f151581525090565b60405180606001604052805f151581526020015f8019168152602001606081525090565b5f81519050919050565b5f82825260208201905092915050565b5f5b838110156106fd5780820151818401526020810190506106e2565b5f8484015250505050565b5f601f19601f8301169050919050565b5f610722826106c6565b61072c81856106d0565b935061073c8185602086016106e0565b61074581610708565b840191505092915050565b5f604083015f8301518482035f86015261076a8282610718565b915050602083015184820360208601526107848282610718565b9150508091505092915050565b5f6020820190508181035f8301526107a98184610750565b905092915050565b5f80fd5b5f80fd5b5f819050919050565b6107cb816107b9565b81146107d5575f80fd5b50565b5f813590506107e6816107c2565b92915050565b5f60208284031215610801576108006107b1565b5b5f61080e848285016107d8565b91505092915050565b5f8115159050919050565b61082b81610817565b82525050565b5f6020820190506108445f830184610822565b92915050565b5f81519050919050565b5f82825260208201905092915050565b5f61086e8261084a565b6108788185610854565b93506108888185602086016106e0565b61089181610708565b840191505092915050565b5f819050919050565b6108ae8161089c565b82525050565b6108bd81610817565b82525050565b5f60a083015f8301518482035f8601526108dd8282610864565b915050602083015184820360208601526108f78282610718565b915050604083015161090c60408601826108a5565b50606083015161091f60608601826108a5565b50608083015161093260808601826108b4565b508091505092915050565b5f6020820190508181035f83015261095581846108c3565b905092915050565b5f80fd5b5f80fd5b5f80fd5b5f8083601f84011261097e5761097d61095d565b5b8235905067ffffffffffffffff81111561099b5761099a610961565b5b6020830191508360018202830111156109b7576109b6610965565b5b9250929050565b5f8083601f8401126109d3576109d261095d565b5b8235905067ffffffffffffffff8111156109f0576109ef610961565b5b602083019150836020820283011115610a0c57610a0b610965565b5b9250929050565b5f805f8060408587031215610a2b57610a2a6107b1565b5b5f85013567ffffffffffffffff811115610a4857610a476107b5565b5b610a5487828801610969565b9450945050602085013567ffffffffffffffff811115610a7757610a766107b5565b5b610a83878288016109be565b925092505092959194509250565b610a9a816107b9565b82525050565b5f606083015f830151610ab55f8601826108b4565b506020830151610ac86020860182610a91565b5060408301518482036040860152610ae08282610864565b9150508091505092915050565b5f6020820190508181035f830152610b058184610aa0565b905092915050565b5f81519050919050565b5f82825260208201905092915050565b5f819050602082019050919050565b5f610b418383610a91565b60208301905092915050565b5f602082019050919050565b5f610b6382610b0d565b610b6d8185610b17565b9350610b7883610b27565b805f5b83811015610ba8578151610b8f8882610b36565b9750610b9a83610b4d565b925050600181019050610b7b565b5085935050505092915050565b5f6020820190508181035f830152610bcd8184610b59565b905092915050565b5f82825260208201905092915050565b7f53796e63206e6f7420666f756e640000000000000000000000000000000000005f82015250565b5f610c19600e83610bd5565b9150610c2482610be5565b602082019050919050565b5f6020820190508181035f830152610c4681610c0d565b9050919050565b7f4e487b71000000000000000000000000000000000000000000000000000000005f52602260045260245ffd5b5f6002820490506001821680610c9157607f821691505b602082108103610ca457610ca3610c4d565b5b50919050565b7f536f757263652063616e6e6f7420626520656d707479000000000000000000005f82015250565b5f610cde601683610bd5565b9150610ce982610caa565b602082019050919050565b5f6020820190508181035f830152610d0b81610cd2565b9050919050565b5f81905092915050565b828183375f83830152505050565b5f610d358385610d12565b9350610d42838584610d1c565b82840190509392505050565b5f819050919050565b610d68610d638261089c565b610d4e565b82525050565b5f610d7a828789610d2a565b9150610d868286610d57565b602082019150610d968285610d57565b602082019150610da68284610d57565b6020820191508190509695505050505050565b7f4e487b71000000000000000000000000000000000000000000000000000000005f52601160045260245ffd5b5f610df08261089c565b91507fffffffffffffffffffffffffffffffffffffffffffffffffffffffffffffffff8203610e2257610e21610db9565b5b600182019050919050565b610e36816107b9565b82525050565b610e458161089c565b82525050565b5f608082019050610e5e5f830187610e2d565b610e6b6020830186610e3c565b610e786040830185610e3c565b610e856060830184610e3c565b95945050505050565b7f4e487b71000000000000000000000000000000000000000000000000000000005f52604160045260245ffd5b5f819050815f5260205f209050919050565b5f6020601f8301049050919050565b5f82821b905092915050565b5f60088302610f177fffffffffffffffffffffffffffffffffffffffffffffffffffffffffffffffff82610edc565b610f218683610edc565b95508019841693508086168417925050509392505050565b5f819050919050565b5f610f5c610f57610f528461089c565b610f39565b61089c565b9050919050565b5f819050919050565b610f7583610f42565b610f89610f8182610f63565b848454610ee8565b825550505050565b5f90565b610f9d610f91565b610fa8818484610f6c565b505050565b5b81811015610fcb57610fc05f82610f95565b600181019050610fae565b5050565b601f82111561101057610fe181610ebb565b610fea84610ecd565b81016020851015610ff9578190505b61100d61100585610ecd565b830182610fad565b50505b505050565b5f82821c905092915050565b5f6110305f1984600802611015565b1980831691505092915050565b5f6110488383611021565b9150826002028217905092915050565b6110618261084a565b67ffffffffffffffff81111561107a57611079610e8e565b5b6110848254610c7a565b61108f828285610fcf565b5f60209050601f8311600181146110c0575f84156110ae578287015190505b6110b8858261103d565b86555061111f565b601f1984166110ce86610ebb565b5f5b828110156110f5578489015182556001820191506020850194506020810190506110d0565b86831015611112578489015161110e601f891682611021565b8355505b6001600288020188555050505b505050505050565b5f819050815f5260205f209050919050565b601f82111561117a5761114b81611127565b61115484610ecd565b81016020851015611163578190505b61117761116f85610ecd565b830182610fad565b50505b505050565b611188826106c6565b67ffffffffffffffff8111156111a1576111a0610e8e565b5b6111ab8254610c7a565b6111b6828285611139565b5f60209050601f8311600181146111e7575f84156111d5578287015190505b6111df858261103d565b865550611246565b601f1984166111f586611127565b5f5b8281101561121c578489015182556001820191506020850194506020810190506111f7565b868310156112395784890151611235601f891682611021565b8355505b6001600288020188555050505b505050505050565b7f6f6b0000000000000000000000000000000000000000000000000000000000005f82015250565b5f611282600283610bd5565b915061128d8261124e565b602082019050919050565b5f82825260208201905092915050565b5f6112b28261084a565b6112bc8185611298565b93506112cc8185602086016106e0565b6112d581610708565b840191505092915050565b5f819050919050565b5f819050919050565b5f61130c611307611302846112e0565b610f39565b6112e9565b9050919050565b61131c816112f2565b82525050565b5f6080820190508181035f83015261133981611276565b90506113486020830186610e2d565b818103604083015261135a81856112a8565b90506113696060830184611313565b94935050505056fea264697066735822122060275e560a95e08dc37ca4aeb3ddd1f5fbf9aa9c3dd9cb6916ada39c151ddbee64736f6c63430008140033","linkReferences":{}},"methodIdentifiers":{"getSync(bytes32)":"5c19b2fc","listSyncs()":"8581fcc1","parse(string,bytes[])":"5df36cbe","register()":"1aa3a008","syncExists(bytes32)":"1c584547"},"id":273}