{"abi":[{"type":"function","name":"approve","inputs":[{"name":"path","type":"string","internalType":"string"},{"name":"approver","type":"string","internalType":"string"}],"outputs":[{"name":"snapshotId","type":"bytes32","internalType":"bytes32"}],"stateMutability":"nonpayable"},{"type":"function","name":"approveAll","inputs":[{"name":"paths","type":"string[]","internalType":"string[]"}],"outputs":[{"name":"approved","type":"int256","internalType":"int256"}],"stateMutability":"nonpayable"},{"type":"function","name":"clean","inputs":[{"name":"outputDir","type":"string","internalType":"string"}],"outputs":[{"name":"removed","type":"uint256","internalType":"uint256"}],"stateMutability":"nonpayable"},{"type":"function","name":"compare","inputs":[{"name":"outputPath","type":"string","internalType":"string"},{"name":"currentContent","type":"string","internalType":"string"}],"outputs":[{"name":"snapshotId","type":"bytes32","internalType":"bytes32"},{"name":"variant","type":"string","internalType":"string"}],"stateMutability":"nonpayable"},{"type":"function","name":"diff","inputs":[{"name":"path","type":"string","internalType":"string"}],"outputs":[{"name":"diffStr","type":"string","internalType":"string"},{"name":"linesAdded","type":"int256","internalType":"int256"},{"name":"linesRemoved","type":"int256","internalType":"int256"}],"stateMutability":"view"},{"type":"function","name":"getSnapshot","inputs":[{"name":"path","type":"string","internalType":"string"}],"outputs":[{"name":"contentHash","type":"string","internalType":"string"},{"name":"statusVal","type":"uint8","internalType":"uint8"}],"stateMutability":"view"},{"type":"function","name":"reject","inputs":[{"name":"path","type":"string","internalType":"string"}],"outputs":[{"name":"snapshotId","type":"bytes32","internalType":"bytes32"}],"stateMutability":"nonpayable"},{"type":"function","name":"status","inputs":[{"name":"paths","type":"string[]","internalType":"string[]"}],"outputs":[{"name":"count","type":"uint256","internalType":"uint256"}],"stateMutability":"view"},{"type":"event","name":"ApproveAllCompleted","inputs":[{"name":"variant","type":"string","indexed":false,"internalType":"string"},{"name":"approved","type":"int256","indexed":false,"internalType":"int256"}],"anonymous":false},{"type":"event","name":"ApproveCompleted","inputs":[{"name":"variant","type":"string","indexed":false,"internalType":"string"},{"name":"snapshot","type":"bytes32","indexed":false,"internalType":"bytes32"}],"anonymous":false},{"type":"event","name":"CleanCompleted","inputs":[{"name":"variant","type":"string","indexed":false,"internalType":"string"},{"name":"removed","type":"uint256","indexed":false,"internalType":"uint256"}],"anonymous":false},{"type":"event","name":"CompareCompleted","inputs":[{"name":"variant","type":"string","indexed":false,"internalType":"string"},{"name":"snapshot","type":"bytes32","indexed":false,"internalType":"bytes32"},{"name":"linesAdded","type":"int256","indexed":false,"internalType":"int256"},{"name":"linesRemoved","type":"int256","indexed":false,"internalType":"int256"}],"anonymous":false},{"type":"event","name":"DiffCompleted","inputs":[{"name":"variant","type":"string","indexed":false,"internalType":"string"},{"name":"linesAdded","type":"int256","indexed":false,"internalType":"int256"},{"name":"linesRemoved","type":"int256","indexed":false,"internalType":"int256"}],"anonymous":false},{"type":"event","name":"RejectCompleted","inputs":[{"name":"variant","type":"string","indexed":false,"internalType":"string"},{"name":"snapshot","type":"bytes32","indexed":false,"internalType":"bytes32"}],"anonymous":false},{"type":"event","name":"StatusCompleted","inputs":[{"name":"variant","type":"string","indexed":false,"internalType":"string"}],"anonymous":false}],"bytecode":{"object":"0x608060405234801561000f575f80fd5b50612c418061001d5f395ff3fe608060405234801561000f575f80fd5b5060043610610086575f3560e01c806382f6d1b91161005957806382f6d1b91461014b578063c4c083601461017b578063d5b29ad9146101ac578063f6cd3437146101dc57610086565b8063201c5cc11461008a5780633a96fdd7146100ba57806349bcd2ef146100eb578063778f3de01461011b575b5f80fd5b6100a4600480360381019061009f9190611bc2565b61020e565b6040516100b19190611c21565b60405180910390f35b6100d460048036038101906100cf9190611c3a565b61041f565b6040516100e2929190611d2a565b60405180910390f35b61010560048036038101906101009190611bc2565b610a80565b6040516101129190611d70565b60405180910390f35b61013560048036038101906101309190611c3a565b610d36565b6040516101429190611c21565b60405180910390f35b61016560048036038101906101609190611e6b565b611004565b6040516101729190611eca565b60405180910390f35b61019560048036038101906101909190611bc2565b61127f565b6040516101a3929190611efe565b60405180910390f35b6101c660048036038101906101c19190611e6b565b611408565b6040516101d39190611d70565b60405180910390f35b6101f660048036038101906101f19190611bc2565b6114ca565b60405161020593929190611f2c565b60405180910390f35b5f80825111610252576040517f08c379a000000000000000000000000000000000000000000000000000000000815260040161024990611fb2565b60405180910390fd5b5f82604051602001610264919061200a565b60405160208183030381529060405280519060200120905060025f8281526020019081526020015f205491505f801b82141580156102be57505f808381526020019081526020015f206009015f9054906101000a900460ff165b6102fd576040517f08c379a00000000000000000000000000000000000000000000000000000000081526004016102f49061206a565b60405180910390fd5b60045f808481526020019081526020015f206006015f6101000a81548160ff0219169083600481111561033357610332612088565b5b02179055505f808381526020019081526020015f206001015f808481526020019081526020015f20600201908161036a91906122d6565b5060405180602001604052805f8152505f808481526020019081526020015f20600301908161039991906123bb565b505f805f8481526020019081526020015f20600401819055505f805f8481526020019081526020015f2060050181905550425f808481526020019081526020015f20600801819055507f8640a719c06cacd858ca1064d989f69ecaae7da4bb0122088a25301cba611c9f8260405161041191906124d4565b60405180910390a150919050565b5f60605f845111610465576040517f08c379a000000000000000000000000000000000000000000000000000000000815260040161045c9061254a565b60405180910390fd5b5f84604051602001610477919061200a565b6040516020818303038152906040528051906020012090505f6104bf856040516020016104a4919061200a565b60405160208183030381529060405280519060200120611678565b90505f60025f8481526020019081526020015f205490505f801b811415801561050457505f808281526020019081526020015f206009015f9054906101000a900460ff165b156108365780945081805190602001205f808781526020019081526020015f206001016040516105349190612604565b60405180910390200361068b575f805f8781526020019081526020015f206006015f6101000a81548160ff0219169083600481111561057657610575612088565b5b0217905550815f808781526020019081526020015f20600201908161059b91906123bb565b5060405180602001604052805f8152505f808781526020019081526020015f2060030190816105ca91906123bb565b505f805f8781526020019081526020015f20600401819055505f805f8781526020019081526020015f2060050181905550425f808781526020019081526020015f20600801819055506040518060400160405280600981526020017f756e6368616e676564000000000000000000000000000000000000000000000081525093507ffad1c65850539e311ee362d25c398950346d65986b6ad90c07f2ebfd95f9ece5855f8060405161067e9392919061269d565b60405180910390a1610831565b5f60016028885161069c919061273f565b6106a6919061276f565b90505f60285f808981526020019081526020015f2060010180546106c9906120e2565b90506106d5919061273f565b905060015f808981526020019081526020015f206006015f6101000a81548160ff0219169083600481111561070d5761070c612088565b5b0217905550835f808981526020019081526020015f20600201908161073291906123bb565b508860405160200161074491906127fa565b6040516020818303038152906040525f808981526020019081526020015f20600301908161077291906123bb565b50815f808981526020019081526020015f2060040181905550805f808981526020019081526020015f2060050181905550425f808981526020019081526020015f20600801819055506040518060400160405280600781526020017f6368616e6765640000000000000000000000000000000000000000000000000081525095507ffad1c65850539e311ee362d25c398950346d65986b6ad90c07f2ebfd95f9ece587838360405161082693929190612865565b60405180910390a150505b610a76565b86426040516020016108499291906128cd565b60405160208183030381529060405280519060200120945060405180610140016040528088815260200183815260200183815260200160405180602001604052805f81525081526020015f81526020015f8152602001600260048111156108b3576108b2612088565b5b815260200160405180602001604052805f8152508152602001428152602001600115158152505f808781526020019081526020015f205f820151815f0190816108fc91906123bb565b50602082015181600101908161091291906123bb565b50604082015181600201908161092891906123bb565b50606082015181600301908161093e91906123bb565b506080820151816004015560a0820151816005015560c0820151816006015f6101000a81548160ff0219169083600481111561097d5761097c612088565b5b021790555060e082015181600701908161099791906123bb565b506101008201518160080155610120820151816009015f6101000a81548160ff0219169083151502179055509050508460025f8581526020019081526020015f2081905550600185908060018154018082558091505060019003905f5260205f20015f90919091909150556040518060400160405280600381526020017f6e6577000000000000000000000000000000000000000000000000000000000081525093507ffad1c65850539e311ee362d25c398950346d65986b6ad90c07f2ebfd95f9ece5855f80604051610a6d9392919061293e565b60405180910390a15b5050509250929050565b5f80825111610ac4576040517f08c379a0000000000000000000000000000000000000000000000000000000008152600401610abb906129d0565b60405180910390fd5b5f90505f82604051602001610ad9919061200a565b6040516020818303038152906040528051906020012090505f5b600180549050811015610cf8575f60018281548110610b1557610b146129ee565b5b905f5260205f20015490505f808281526020019081526020015f206009015f9054906101000a900460ff1615610ce457610be75f808381526020019081526020015f205f018054610b65906120e2565b80601f0160208091040260200160405190810160405280929190818152602001828054610b91906120e2565b8015610bdc5780601f10610bb357610100808354040283529160200191610bdc565b820191905f5260205f20905b815481529060010190602001808311610bbf57829003601f168201915b505050505086611944565b15610ce3575f805f8381526020019081526020015f205f01604051602001610c0f9190612a9b565b60405160208183030381529060405280519060200120905060025f8281526020019081526020015f205f90555f808381526020019081526020015f205f8082015f610c5a9190611a1d565b600182015f610c699190611a1d565b600282015f610c789190611a1d565b600382015f610c879190611a1d565b600482015f9055600582015f9055600682015f6101000a81549060ff0219169055600782015f610cb79190611a1d565b600882015f9055600982015f6101000a81549060ff021916905550508480610cde90612ab1565b955050505b5b508080610cf090612ab1565b915050610af3565b507f30ce8b613c024e87bc89670ea5bb572a3414a5778bf63fdac70092b8f82f322582604051610d289190612af8565b60405180910390a150919050565b5f80835111610d7a576040517f08c379a0000000000000000000000000000000000000000000000000000000008152600401610d7190611fb2565b60405180910390fd5b5f83604051602001610d8c919061200a565b60405160208183030381529060405280519060200120905060025f8281526020019081526020015f205491505f801b8214158015610de657505f808381526020019081526020015f206009015f9054906101000a900460ff165b610e25576040517f08c379a0000000000000000000000000000000000000000000000000000000008152600401610e1c9061206a565b60405180910390fd5b60016004811115610e3957610e38612088565b5b5f808481526020019081526020015f206006015f9054906101000a900460ff166004811115610e6b57610e6a612088565b5b1480610eba575060026004811115610e8657610e85612088565b5b5f808481526020019081526020015f206006015f9054906101000a900460ff166004811115610eb857610eb7612088565b5b145b15610fc6575f808381526020019081526020015f206002015f808481526020019081526020015f206001019081610ef191906122d6565b5060035f808481526020019081526020015f206006015f6101000a81548160ff02191690836004811115610f2857610f27612088565b5b0217905550825f808481526020019081526020015f206007019081610f4d91906123bb565b5060405180602001604052805f8152505f808481526020019081526020015f206003019081610f7c91906123bb565b505f805f8481526020019081526020015f20600401819055505f805f8481526020019081526020015f2060050181905550425f808481526020019081526020015f20600801819055505b7f8f3dd675437f38c75533646fa14f43e4d18343b6a23ea15266a31f639050adf482604051610ff591906124d4565b60405180910390a15092915050565b5f805b8251811015611242575f838281518110611024576110236129ee565b5b602002602001015160405160200161103c919061200a565b6040516020818303038152906040528051906020012090505f60025f8381526020019081526020015f205490505f801b811415801561109757505f808281526020019081526020015f206009015f9054906101000a900460ff165b80156111345750600160048111156110b2576110b1612088565b5b5f808381526020019081526020015f206006015f9054906101000a900460ff1660048111156110e4576110e3612088565b5b14806111335750600260048111156110ff576110fe612088565b5b5f808381526020019081526020015f206006015f9054906101000a900460ff16600481111561113157611130612088565b5b145b5b1561122d575f808281526020019081526020015f206002015f808381526020019081526020015f20600101908161116b91906122d6565b5060035f808381526020019081526020015f206006015f6101000a81548160ff021916908360048111156111a2576111a1612088565b5b021790555060405180602001604052805f8152505f808381526020019081526020015f2060030190816111d591906123bb565b505f805f8381526020019081526020015f20600401819055505f805f8381526020019081526020015f2060050181905550425f808381526020019081526020015f2060080181905550838061122990612b24565b9450505b5050808061123a90612ab1565b915050611007565b507f0fd602f0f11d66d6665a30f632cc076d6143385853a1636037ab1af10c6e6e2c816040516112729190612b6b565b60405180910390a1919050565b60605f8083604051602001611294919061200a565b6040516020818303038152906040528051906020012090505f60025f8381526020019081526020015f205490505f801b81141580156112ef57505f808281526020019081526020015f206009015f9054906101000a900460ff165b61132e576040517f08c379a00000000000000000000000000000000000000000000000000000000081526004016113259061206a565b60405180910390fd5b5f808281526020019081526020015f206001015f808381526020019081526020015f206006015f9054906101000a900460ff16600481111561137357611372612088565b5b81805461137f906120e2565b80601f01602080910402602001604051908101604052809291908181526020018280546113ab906120e2565b80156113f65780601f106113cd576101008083540402835291602001916113f6565b820191905f5260205f20905b8154815290600101906020018083116113d957829003601f168201915b50505050509150935093505050915091565b5f805b82518110156114c4575f838281518110611428576114276129ee565b5b6020026020010151604051602001611440919061200a565b6040516020818303038152906040528051906020012090505f60025f8381526020019081526020015f205490505f801b811415801561149b57505f808281526020019081526020015f206009015f9054906101000a900460ff165b156114af5783806114ab90612ab1565b9450505b505080806114bc90612ab1565b91505061140b565b50919050565b60605f805f845111611511576040517f08c379a000000000000000000000000000000000000000000000000000000000815260040161150890611fb2565b60405180910390fd5b5f84604051602001611523919061200a565b6040516020818303038152906040528051906020012090505f60025f8381526020019081526020015f205490505f801b811415801561157e57505f808281526020019081526020015f206009015f9054906101000a900460ff165b6115bd576040517f08c379a00000000000000000000000000000000000000000000000000000000081526004016115b49061206a565b60405180910390fd5b5f805f8381526020019081526020015f20905080600301816004015482600501548280546115ea906120e2565b80601f0160208091040260200160405190810160405280929190818152602001828054611616906120e2565b80156116615780601f1061163857610100808354040283529160200191611661565b820191905f5260205f20905b81548152906001019060200180831161164457829003601f168201915b505050505092509550955095505050509193909250565b60605f6040518060400160405280601081526020017f303132333435363738396162636465660000000000000000000000000000000081525090505f604267ffffffffffffffff8111156116cf576116ce611a9e565b5b6040519080825280601f01601f1916602001820160405280156117015781602001600182028036833780820191505090505b5090507f3000000000000000000000000000000000000000000000000000000000000000815f81518110611738576117376129ee565b5b60200101907effffffffffffffffffffffffffffffffffffffffffffffffffffffffffffff191690815f1a9053507f78000000000000000000000000000000000000000000000000000000000000008160018151811061179b5761179a6129ee565b5b60200101907effffffffffffffffffffffffffffffffffffffffffffffffffffffffffffff191690815f1a9053505f5b6020811015611939578260048683602081106117ea576117e96129ee565b5b1a60f81b7effffffffffffffffffffffffffffffffffffffffffffffffffffffffffffff1916901c60f81c60ff1681518110611829576118286129ee565b5b602001015160f81c60f81b826002836118429190612b97565b600261184e9190612bd8565b8151811061185f5761185e6129ee565b5b60200101907effffffffffffffffffffffffffffffffffffffffffffffffffffffffffffff191690815f1a90535082600f60f81b8683602081106118a6576118a56129ee565b5b1a60f81b1660f81c60ff16815181106118c2576118c16129ee565b5b602001015160f81c60f81b826002836118db9190612b97565b60036118e79190612bd8565b815181106118f8576118f76129ee565b5b60200101907effffffffffffffffffffffffffffffffffffffffffffffffffffffffffffff191690815f1a905350808061193190612ab1565b9150506117cb565b508092505050919050565b5f808390505f839050815181511115611961575f92505050611a17565b5f5b8151811015611a0f5781818151811061197f5761197e6129ee565b5b602001015160f81c60f81b7effffffffffffffffffffffffffffffffffffffffffffffffffffffffffffff19168382815181106119bf576119be6129ee565b5b602001015160f81c60f81b7effffffffffffffffffffffffffffffffffffffffffffffffffffffffffffff1916146119fc575f9350505050611a17565b8080611a0790612ab1565b915050611963565b506001925050505b92915050565b508054611a29906120e2565b5f825580601f10611a3a5750611a57565b601f0160209004905f5260205f2090810190611a569190611a5a565b5b50565b5b80821115611a71575f815f905550600101611a5b565b5090565b5f604051905090565b5f80fd5b5f80fd5b5f80fd5b5f80fd5b5f601f19601f8301169050919050565b7f4e487b71000000000000000000000000000000000000000000000000000000005f52604160045260245ffd5b611ad482611a8e565b810181811067ffffffffffffffff82111715611af357611af2611a9e565b5b80604052505050565b5f611b05611a75565b9050611b118282611acb565b919050565b5f67ffffffffffffffff821115611b3057611b2f611a9e565b5b611b3982611a8e565b9050602081019050919050565b828183375f83830152505050565b5f611b66611b6184611b16565b611afc565b905082815260208101848484011115611b8257611b81611a8a565b5b611b8d848285611b46565b509392505050565b5f82601f830112611ba957611ba8611a86565b5b8135611bb9848260208601611b54565b91505092915050565b5f60208284031215611bd757611bd6611a7e565b5b5f82013567ffffffffffffffff811115611bf457611bf3611a82565b5b611c0084828501611b95565b91505092915050565b5f819050919050565b611c1b81611c09565b82525050565b5f602082019050611c345f830184611c12565b92915050565b5f8060408385031215611c5057611c4f611a7e565b5b5f83013567ffffffffffffffff811115611c6d57611c6c611a82565b5b611c7985828601611b95565b925050602083013567ffffffffffffffff811115611c9a57611c99611a82565b5b611ca685828601611b95565b9150509250929050565b5f81519050919050565b5f82825260208201905092915050565b5f5b83811015611ce7578082015181840152602081019050611ccc565b5f8484015250505050565b5f611cfc82611cb0565b611d068185611cba565b9350611d16818560208601611cca565b611d1f81611a8e565b840191505092915050565b5f604082019050611d3d5f830185611c12565b8181036020830152611d4f8184611cf2565b90509392505050565b5f819050919050565b611d6a81611d58565b82525050565b5f602082019050611d835f830184611d61565b92915050565b5f67ffffffffffffffff821115611da357611da2611a9e565b5b602082029050602081019050919050565b5f80fd5b5f611dca611dc584611d89565b611afc565b90508083825260208201905060208402830185811115611ded57611dec611db4565b5b835b81811015611e3457803567ffffffffffffffff811115611e1257611e11611a86565b5b808601611e1f8982611b95565b85526020850194505050602081019050611def565b5050509392505050565b5f82601f830112611e5257611e51611a86565b5b8135611e62848260208601611db8565b91505092915050565b5f60208284031215611e8057611e7f611a7e565b5b5f82013567ffffffffffffffff811115611e9d57611e9c611a82565b5b611ea984828501611e3e565b91505092915050565b5f819050919050565b611ec481611eb2565b82525050565b5f602082019050611edd5f830184611ebb565b92915050565b5f60ff82169050919050565b611ef881611ee3565b82525050565b5f6040820190508181035f830152611f168185611cf2565b9050611f256020830184611eef565b9392505050565b5f6060820190508181035f830152611f448186611cf2565b9050611f536020830185611ebb565b611f606040830184611ebb565b949350505050565b7f506174682063616e6e6f7420626520656d7074790000000000000000000000005f82015250565b5f611f9c601483611cba565b9150611fa782611f68565b602082019050919050565b5f6020820190508181035f830152611fc981611f90565b9050919050565b5f81905092915050565b5f611fe482611cb0565b611fee8185611fd0565b9350611ffe818560208601611cca565b80840191505092915050565b5f6120158284611fda565b915081905092915050565b7f536e617073686f74206e6f7420666f756e6400000000000000000000000000005f82015250565b5f612054601283611cba565b915061205f82612020565b602082019050919050565b5f6020820190508181035f83015261208181612048565b9050919050565b7f4e487b71000000000000000000000000000000000000000000000000000000005f52602160045260245ffd5b7f4e487b71000000000000000000000000000000000000000000000000000000005f52602260045260245ffd5b5f60028204905060018216806120f957607f821691505b60208210810361210c5761210b6120b5565b5b50919050565b5f81549050612120816120e2565b9050919050565b5f819050815f5260205f209050919050565b5f819050815f5260205f209050919050565b5f6020601f8301049050919050565b5f82821b905092915050565b5f600883026121957fffffffffffffffffffffffffffffffffffffffffffffffffffffffffffffffff8261215a565b61219f868361215a565b95508019841693508086168417925050509392505050565b5f819050919050565b5f6121da6121d56121d084611d58565b6121b7565b611d58565b9050919050565b5f819050919050565b6121f3836121c0565b6122076121ff826121e1565b848454612166565b825550505050565b5f90565b61221b61220f565b6122268184846121ea565b505050565b5b818110156122495761223e5f82612213565b60018101905061222c565b5050565b601f82111561228e5761225f81612127565b6122688461214b565b81016020851015612277578190505b61228b6122838561214b565b83018261222b565b50505b505050565b5f82821c905092915050565b5f6122ae5f1984600802612293565b1980831691505092915050565b5f6122c6838361229f565b9150826002028217905092915050565b8181036122e45750506123b9565b6122ed82612112565b67ffffffffffffffff81111561230657612305611a9e565b5b61231082546120e2565b61231b82828561224d565b5f601f831160018114612348575f8415612336578287015490505b61234085826122bb565b8655506123b2565b601f19841661235687612139565b965061236186612127565b5f5b8281101561238857848901548255600182019150600185019450602081019050612363565b868310156123a557848901546123a1601f89168261229f565b8355505b6001600288020188555050505b5050505050505b565b6123c482611cb0565b67ffffffffffffffff8111156123dd576123dc611a9e565b5b6123e782546120e2565b6123f282828561224d565b5f60209050601f831160018114612423575f8415612411578287015190505b61241b85826122bb565b865550612482565b601f19841661243186612127565b5f5b8281101561245857848901518255600182019150602085019450602081019050612433565b868310156124755784890151612471601f89168261229f565b8355505b6001600288020188555050505b505050505050565b7f6f6b0000000000000000000000000000000000000000000000000000000000005f82015250565b5f6124be600283611cba565b91506124c98261248a565b602082019050919050565b5f6040820190508181035f8301526124eb816124b2565b90506124fa6020830184611c12565b92915050565b7f4f757470757420706174682063616e6e6f7420626520656d70747900000000005f82015250565b5f612534601b83611cba565b915061253f82612500565b602082019050919050565b5f6020820190508181035f83015261256181612528565b9050919050565b5f81905092915050565b5f819050815f5260205f209050919050565b5f8154612590816120e2565b61259a8186612568565b9450600182165f81146125b457600181146125c9576125fb565b60ff19831686528115158202860193506125fb565b6125d285612572565b5f5b838110156125f3578154818901526001820191506020810190506125d4565b838801955050505b50505092915050565b5f61260f8284612584565b915081905092915050565b7f756e6368616e67656400000000000000000000000000000000000000000000005f82015250565b5f61264e600983611cba565b91506126598261261a565b602082019050919050565b5f819050919050565b5f61268761268261267d84612664565b6121b7565b611eb2565b9050919050565b6126978161266d565b82525050565b5f6080820190508181035f8301526126b481612642565b90506126c36020830186611c12565b6126d0604083018561268e565b6126dd606083018461268e565b949350505050565b7f4e487b71000000000000000000000000000000000000000000000000000000005f52601260045260245ffd5b7f4e487b71000000000000000000000000000000000000000000000000000000005f52601160045260245ffd5b5f61274982611d58565b915061275483611d58565b925082612764576127636126e5565b5b828204905092915050565b5f61277982611eb2565b915061278483611eb2565b92508282019050828112155f8312168382125f8412151617156127aa576127a9612712565b5b92915050565b7f636f6e74656e745f6368616e6765643a000000000000000000000000000000005f82015250565b5f6127e4601083611fd0565b91506127ef826127b0565b601082019050919050565b5f612804826127d8565b91506128108284611fda565b915081905092915050565b7f6368616e676564000000000000000000000000000000000000000000000000005f82015250565b5f61284f600783611cba565b915061285a8261281b565b602082019050919050565b5f6080820190508181035f83015261287c81612843565b905061288b6020830186611c12565b6128986040830185611ebb565b6128a56060830184611ebb565b949350505050565b5f819050919050565b6128c76128c282611d58565b6128ad565b82525050565b5f6128d88285611fda565b91506128e482846128b6565b6020820191508190509392505050565b7f6e657700000000000000000000000000000000000000000000000000000000005f82015250565b5f612928600383611cba565b9150612933826128f4565b602082019050919050565b5f6080820190508181035f8301526129558161291c565b90506129646020830186611c12565b612971604083018561268e565b61297e606083018461268e565b949350505050565b7f4f7574707574206469726563746f72792063616e6e6f7420626520656d7074795f82015250565b5f6129ba602083611cba565b91506129c582612986565b602082019050919050565b5f6020820190508181035f8301526129e7816129ae565b9050919050565b7f4e487b71000000000000000000000000000000000000000000000000000000005f52603260045260245ffd5b5f8154612a27816120e2565b612a318186611fd0565b9450600182165f8114612a4b5760018114612a6057612a92565b60ff1983168652811515820286019350612a92565b612a6985612127565b5f5b83811015612a8a57815481890152600182019150602081019050612a6b565b838801955050505b50505092915050565b5f612aa68284612a1b565b915081905092915050565b5f612abb82611d58565b91507fffffffffffffffffffffffffffffffffffffffffffffffffffffffffffffffff8203612aed57612aec612712565b5b600182019050919050565b5f6040820190508181035f830152612b0f816124b2565b9050612b1e6020830184611d61565b92915050565b5f612b2e82611eb2565b91507f7fffffffffffffffffffffffffffffffffffffffffffffffffffffffffffffff8203612b6057612b5f612712565b5b600182019050919050565b5f6040820190508181035f830152612b82816124b2565b9050612b916020830184611ebb565b92915050565b5f612ba182611d58565b9150612bac83611d58565b9250828202612bba81611d58565b91508282048414831517612bd157612bd0612712565b5b5092915050565b5f612be282611d58565b9150612bed83611d58565b9250828201905080821115612c0557612c04612712565b5b9291505056fea2646970667358221220296cb2952de4ac68acb9f45bb249b5e1efa4d4a7a65b960d755fb28383d3f04064736f6c63430008140033","linkReferences":{}},"methodIdentifiers":{"approve(string,string)":"778f3de0","approveAll(string[])":"82f6d1b9","clean(string)":"49bcd2ef","compare(string,string)":"3a96fdd7","diff(string)":"f6cd3437","getSnapshot(string)":"c4c08360","reject(string)":"201c5cc1","status(string[])":"d5b29ad9"},"id":246}