{"abi":[{"type":"function","name":"errorHotspots","inputs":[{"name":"since","type":"string","internalType":"string"},{"name":"topN","type":"int256","internalType":"int256"}],"outputs":[{"name":"","type":"tuple","internalType":"struct ErrorCorrelation.ErrorHotspotsOkResult","components":[{"name":"success","type":"bool","internalType":"bool"},{"name":"hotspots","type":"string","internalType":"string"}]}],"stateMutability":"nonpayable"},{"type":"function","name":"findByEntity","inputs":[{"name":"symbol","type":"string","internalType":"string"},{"name":"since","type":"string","internalType":"string"}],"outputs":[{"name":"","type":"tuple","internalType":"struct ErrorCorrelation.FindByEntityOkResult","components":[{"name":"success","type":"bool","internalType":"bool"},{"name":"errors","type":"string","internalType":"string"}]}],"stateMutability":"nonpayable"},{"type":"function","name":"findByKind","inputs":[{"name":"errorKind","type":"string","internalType":"string"},{"name":"since","type":"string","internalType":"string"}],"outputs":[{"name":"","type":"tuple","internalType":"struct ErrorCorrelation.FindByKindOkResult","components":[{"name":"success","type":"bool","internalType":"bool"},{"name":"errors","type":"string","internalType":"string"}]}],"stateMutability":"nonpayable"},{"type":"function","name":"get","inputs":[{"name":"error","type":"bytes32","internalType":"bytes32"}],"outputs":[{"name":"","type":"tuple","internalType":"struct ErrorCorrelation.GetOkResult","components":[{"name":"success","type":"bool","internalType":"bool"},{"name":"error","type":"bytes32","internalType":"bytes32"},{"name":"flowId","type":"string","internalType":"string"},{"name":"errorKind","type":"string","internalType":"string"},{"name":"errorMessage","type":"string","internalType":"string"},{"name":"timestamp","type":"string","internalType":"string"}]}],"stateMutability":"nonpayable"},{"type":"function","name":"record","inputs":[{"name":"flowId","type":"string","internalType":"string"},{"name":"errorKind","type":"string","internalType":"string"},{"name":"message","type":"string","internalType":"string"},{"name":"rawEvent","type":"string","internalType":"string"}],"outputs":[{"name":"","type":"tuple","internalType":"struct ErrorCorrelation.RecordOkResult","components":[{"name":"success","type":"bool","internalType":"bool"},{"name":"error","type":"bytes32","internalType":"bytes32"}]}],"stateMutability":"nonpayable"},{"type":"function","name":"rootCause","inputs":[{"name":"error","type":"bytes32","internalType":"bytes32"}],"outputs":[{"name":"","type":"tuple","internalType":"struct ErrorCorrelation.RootCauseOkResult","components":[{"name":"success","type":"bool","internalType":"bool"},{"name":"chain","type":"string","internalType":"string"},{"name":"likelyCause","type":"string","internalType":"string"},{"name":"source","type":"string","internalType":"string"}]}],"stateMutability":"nonpayable"},{"type":"event","name":"ErrorHotspotsCompleted","inputs":[{"name":"variant","type":"string","indexed":false,"internalType":"string"}],"anonymous":false},{"type":"event","name":"FindByEntityCompleted","inputs":[{"name":"variant","type":"string","indexed":false,"internalType":"string"}],"anonymous":false},{"type":"event","name":"FindByKindCompleted","inputs":[{"name":"variant","type":"string","indexed":false,"internalType":"string"}],"anonymous":false},{"type":"event","name":"GetCompleted","inputs":[{"name":"variant","type":"string","indexed":false,"internalType":"string"},{"name":"error","type":"bytes32","indexed":false,"internalType":"bytes32"}],"anonymous":false},{"type":"event","name":"RecordCompleted","inputs":[{"name":"variant","type":"string","indexed":false,"internalType":"string"},{"name":"error","type":"bytes32","indexed":false,"internalType":"bytes32"}],"anonymous":false},{"type":"event","name":"RootCauseCompleted","inputs":[{"name":"variant","type":"string","indexed":false,"internalType":"string"}],"anonymous":false}],"bytecode":{"object":"0x608060405234801561000f575f80fd5b506122468061001d5f395ff3fe608060405234801561000f575f80fd5b5060043610610060575f3560e01c806307c1b09814610064578063603c7c9d1461009457806361a838ba146100c45780638eaa6ac0146100f4578063b08cc54114610124578063ba30fa7514610154575b5f80fd5b61007e6004803603810190610079919061131d565b610184565b60405161008b9190611450565b60405180910390f35b6100ae60048036038101906100a99190611469565b61045d565b6040516100bb9190611593565b60405180910390f35b6100de60048036038101906100d991906115dd565b6105e7565b6040516100eb9190611676565b60405180910390f35b61010e600480360381019061010991906115dd565b610a47565b60405161011b9190611731565b60405180910390f35b61013e60048036038101906101399190611784565b610cd9565b60405161014b9190611818565b60405180910390f35b61016e60048036038101906101699190611469565b610e50565b60405161017b9190611872565b60405180910390f35b61018c611100565b5f8551116101cf576040517f08c379a00000000000000000000000000000000000000000000000000000000081526004016101c6906118ec565b60405180910390fd5b5f845111610212576040517f08c379a000000000000000000000000000000000000000000000000000000000815260040161020990611954565b60405180910390fd5b60045f815480929190610224906119a8565b91905055505f8585856004546040516020016102439493929190611a49565b6040516020818303038152906040528051906020012090506040518060c00160405280878152602001868152602001858152602001848152602001428152602001600115158152505f808381526020019081526020015f205f820151815f0190816102ae9190611c84565b5060208201518160010190816102c49190611c84565b5060408201518160020190816102da9190611c84565b5060608201518160030190816102f09190611c84565b506080820151816004015560a0820151816005015f6101000a81548160ff021916908315150217905550905050600181908060018154018082558091505060019003905f5260205f20015f90919091909150555f856040516020016103559190611d53565b60405160208183030381529060405280519060200120905060025f8281526020019081526020015f2082908060018154018082558091505060019003905f5260205f20015f90919091909150555f876040516020016103b49190611d53565b60405160208183030381529060405280519060200120905060035f8281526020019081526020015f2083908060018154018082558091505060019003905f5260205f20015f90919091909150557fcda516a6893ae355416ffc0c96e5d3732914ae2678fb2a1e76e147944d3a2e39836040516104309190611dc2565b60405180910390a16040518060400160405280600115158152602001848152509350505050949350505050565b61046561111d565b5f836040516020016104779190611d53565b6040516020818303038152906040528051906020012090505f60405180602001604052805f81525090505f805b60018054905081101561058e575f805f600184815481106104c8576104c7611dee565b5b905f5260205f20015481526020019081526020015f2090505f815f016040516020016104f49190611e9b565b604051602081830303815290604052805190602001209050858103610579575f84111561053e578460405160200161052c9190611efb565b60405160208183030381529060405294505b84826001018360020160405160200161055993929190611f66565b60405160208183030381529060405294508380610575906119a8565b9450505b50508080610586906119a8565b9150506104a4565b507f06ec59ad84bcf71fa9bbb64e8541587898ec6d3662f6acc4b47d2838a3d8c59c6040516105bc90611fa1565b60405180910390a1604051806040016040528060011515815260200183815250935050505092915050565b6105ef611138565b5f808381526020019081526020015f206005015f9054906101000a900460ff1661064e576040517f08c379a000000000000000000000000000000000000000000000000000000000815260040161064590612009565b60405180910390fd5b5f805f8481526020019081526020015f2090505f815f016040516020016106759190611e9b565b6040516020818303038152906040528051906020012090505f60035f8381526020019081526020015f2090505f60405180602001604052805f81525090505f8460020180546106c390611ab7565b80601f01602080910402602001604051908101604052809291908181526020018280546106ef90611ab7565b801561073a5780601f106107115761010080835404028352916020019161073a565b820191905f5260205f20905b81548152906001019060200180831161071d57829003601f168201915b505050505090505f855f01805461075090611ab7565b80601f016020809104026020016040519081016040528092919081815260200182805461077c90611ab7565b80156107c75780601f1061079e576101008083540402835291602001916107c7565b820191905f5260205f20905b8154815290600101906020018083116107aa57829003601f168201915b505050505090505f5b84805490508110156109e0575f81111561080757836040516020016107f59190612071565b60405160208183030381529060405293505b835f8087848154811061081d5761081c611dee565b5b905f5260205f20015481526020019081526020015f20600101604051602001610847929190612092565b60405160208183030381529060405293505f81036109cd575f8086838154811061087457610873611dee565b5b905f5260205f20015481526020019081526020015f20600201805461089890611ab7565b80601f01602080910402602001604051908101604052809291908181526020018280546108c490611ab7565b801561090f5780601f106108e65761010080835404028352916020019161090f565b820191905f5260205f20905b8154815290600101906020018083116108f257829003601f168201915b505050505092505f8086838154811061092b5761092a611dee565b5b905f5260205f20015481526020019081526020015f205f01805461094e90611ab7565b80601f016020809104026020016040519081016040528092919081815260200182805461097a90611ab7565b80156109c55780601f1061099c576101008083540402835291602001916109c5565b820191905f5260205f20905b8154815290600101906020018083116109a857829003601f168201915b505050505091505b80806109d8906119a8565b9150506107d0565b507f0ba751fa2d73de558a4263c75a614d84ff7040cbeefa35c64a44f842cdc4ffda604051610a0e90611fa1565b60405180910390a16040518060800160405280600115158152602001848152602001838152602001828152509650505050505050919050565b610a4f611161565b5f808381526020019081526020015f206005015f9054906101000a900460ff16610aae576040517f08c379a0000000000000000000000000000000000000000000000000000000008152600401610aa590612009565b60405180910390fd5b5f805f8481526020019081526020015f2090507fd45fe45dbfb310b00d5db432aa35f96282e16a8bb204b349e334de2cd5566f3483604051610af09190611dc2565b60405180910390a16040518060c00160405280600115158152602001848152602001825f018054610b2090611ab7565b80601f0160208091040260200160405190810160405280929190818152602001828054610b4c90611ab7565b8015610b975780601f10610b6e57610100808354040283529160200191610b97565b820191905f5260205f20905b815481529060010190602001808311610b7a57829003601f168201915b50505050508152602001826001018054610bb090611ab7565b80601f0160208091040260200160405190810160405280929190818152602001828054610bdc90611ab7565b8015610c275780601f10610bfe57610100808354040283529160200191610c27565b820191905f5260205f20905b815481529060010190602001808311610c0a57829003601f168201915b50505050508152602001826002018054610c4090611ab7565b80601f0160208091040260200160405190810160405280929190818152602001828054610c6c90611ab7565b8015610cb75780601f10610c8e57610100808354040283529160200191610cb7565b820191905f5260205f20905b815481529060010190602001808311610c9a57829003601f168201915b50505050508152602001610cce8360040154610fa7565b815250915050919050565b610ce161119a565b5f8213610d23576040517f08c379a0000000000000000000000000000000000000000000000000000000008152600401610d1a906120ff565b60405180910390fd5b5f60405180602001604052805f81525090505f808490505f5b60018054905081108015610d4f57508183105b15610df7575f805f60018481548110610d6b57610d6a611dee565b5b905f5260205f20015481526020019081526020015f2090505f841115610dae5784604051602001610d9c9190611efb565b60405160208183030381529060405294505b8481600101604051602001610dc4929190612092565b60405160208183030381529060405294508380610de0906119a8565b945050508080610def906119a8565b915050610d3c565b507fd86c97485a37512829a4df9fd67e8ebb7a41cb49cd9b70050657a5dd761ac245604051610e2590611fa1565b60405180910390a1604051806040016040528060011515815260200184815250935050505092915050565b610e586111b5565b5f83604051602001610e6a9190611d53565b6040516020818303038152906040528051906020012090505f60025f8381526020019081526020015f2090505f60405180602001604052805f81525090505f5b8280549050811015610f4e575f811115610ee15781604051602001610ecf9190611efb565b60405160208183030381529060405291505b5f805f858481548110610ef757610ef6611dee565b5b905f5260205f20015481526020019081526020015f20905082815f0182600201604051602001610f2993929190611f66565b6040516020818303038152906040529250508080610f46906119a8565b915050610eaa565b507fc780e9b779666f64786b4eb5fa5154caa4bf5b07175e1bd91ed6557d5925c5fc604051610f7c90611fa1565b60405180910390a1604051806040016040528060011515815260200182815250935050505092915050565b60605f8203610fed576040518060400160405280600181526020017f300000000000000000000000000000000000000000000000000000000000000081525090506110fb565b5f8290505f5b5f821461101c578080611005906119a8565b915050600a82611015919061214a565b9150610ff3565b5f8167ffffffffffffffff811115611037576110366111f9565b5b6040519080825280601f01601f1916602001820160405280156110695781602001600182028036833780820191505090505b5090505b5f85146110f457600182611081919061217a565b9150600a8561109091906121ad565b603061109c91906121dd565b60f81b8183815181106110b2576110b1611dee565b5b60200101907effffffffffffffffffffffffffffffffffffffffffffffffffffffffffffff191690815f1a905350600a856110ed919061214a565b945061106d565b8093505050505b919050565b60405180604001604052805f151581526020015f80191681525090565b60405180604001604052805f15158152602001606081525090565b60405180608001604052805f151581526020016060815260200160608152602001606081525090565b6040518060c001604052805f151581526020015f8019168152602001606081526020016060815260200160608152602001606081525090565b60405180604001604052805f15158152602001606081525090565b60405180604001604052805f15158152602001606081525090565b5f604051905090565b5f80fd5b5f80fd5b5f80fd5b5f80fd5b5f601f19601f8301169050919050565b7f4e487b71000000000000000000000000000000000000000000000000000000005f52604160045260245ffd5b61122f826111e9565b810181811067ffffffffffffffff8211171561124e5761124d6111f9565b5b80604052505050565b5f6112606111d0565b905061126c8282611226565b919050565b5f67ffffffffffffffff82111561128b5761128a6111f9565b5b611294826111e9565b9050602081019050919050565b828183375f83830152505050565b5f6112c16112bc84611271565b611257565b9050828152602081018484840111156112dd576112dc6111e5565b5b6112e88482856112a1565b509392505050565b5f82601f830112611304576113036111e1565b5b81356113148482602086016112af565b91505092915050565b5f805f8060808587031215611335576113346111d9565b5b5f85013567ffffffffffffffff811115611352576113516111dd565b5b61135e878288016112f0565b945050602085013567ffffffffffffffff81111561137f5761137e6111dd565b5b61138b878288016112f0565b935050604085013567ffffffffffffffff8111156113ac576113ab6111dd565b5b6113b8878288016112f0565b925050606085013567ffffffffffffffff8111156113d9576113d86111dd565b5b6113e5878288016112f0565b91505092959194509250565b5f8115159050919050565b611405816113f1565b82525050565b5f819050919050565b61141d8161140b565b82525050565b604082015f8201516114375f8501826113fc565b50602082015161144a6020850182611414565b50505050565b5f6040820190506114635f830184611423565b92915050565b5f806040838503121561147f5761147e6111d9565b5b5f83013567ffffffffffffffff81111561149c5761149b6111dd565b5b6114a8858286016112f0565b925050602083013567ffffffffffffffff8111156114c9576114c86111dd565b5b6114d5858286016112f0565b9150509250929050565b5f81519050919050565b5f82825260208201905092915050565b5f5b838110156115165780820151818401526020810190506114fb565b5f8484015250505050565b5f61152b826114df565b61153581856114e9565b93506115458185602086016114f9565b61154e816111e9565b840191505092915050565b5f604083015f83015161156e5f8601826113fc565b50602083015184820360208601526115868282611521565b9150508091505092915050565b5f6020820190508181035f8301526115ab8184611559565b905092915050565b6115bc8161140b565b81146115c6575f80fd5b50565b5f813590506115d7816115b3565b92915050565b5f602082840312156115f2576115f16111d9565b5b5f6115ff848285016115c9565b91505092915050565b5f608083015f83015161161d5f8601826113fc565b50602083015184820360208601526116358282611521565b9150506040830151848203604086015261164f8282611521565b915050606083015184820360608601526116698282611521565b9150508091505092915050565b5f6020820190508181035f83015261168e8184611608565b905092915050565b5f60c083015f8301516116ab5f8601826113fc565b5060208301516116be6020860182611414565b50604083015184820360408601526116d68282611521565b915050606083015184820360608601526116f08282611521565b9150506080830151848203608086015261170a8282611521565b91505060a083015184820360a08601526117248282611521565b9150508091505092915050565b5f6020820190508181035f8301526117498184611696565b905092915050565b5f819050919050565b61176381611751565b811461176d575f80fd5b50565b5f8135905061177e8161175a565b92915050565b5f806040838503121561179a576117996111d9565b5b5f83013567ffffffffffffffff8111156117b7576117b66111dd565b5b6117c3858286016112f0565b92505060206117d485828601611770565b9150509250929050565b5f604083015f8301516117f35f8601826113fc565b506020830151848203602086015261180b8282611521565b9150508091505092915050565b5f6020820190508181035f83015261183081846117de565b905092915050565b5f604083015f83015161184d5f8601826113fc565b50602083015184820360208601526118658282611521565b9150508091505092915050565b5f6020820190508181035f83015261188a8184611838565b905092915050565b5f82825260208201905092915050565b7f466c6f77204944206d757374206e6f7420626520656d707479000000000000005f82015250565b5f6118d6601983611892565b91506118e1826118a2565b602082019050919050565b5f6020820190508181035f830152611903816118ca565b9050919050565b7f4572726f72206b696e64206d757374206e6f7420626520656d707479000000005f82015250565b5f61193e601c83611892565b91506119498261190a565b602082019050919050565b5f6020820190508181035f83015261196b81611932565b9050919050565b7f4e487b71000000000000000000000000000000000000000000000000000000005f52601160045260245ffd5b5f819050919050565b5f6119b28261199f565b91507fffffffffffffffffffffffffffffffffffffffffffffffffffffffffffffffff82036119e4576119e3611972565b5b600182019050919050565b5f81905092915050565b5f611a03826114df565b611a0d81856119ef565b9350611a1d8185602086016114f9565b80840191505092915050565b5f819050919050565b611a43611a3e8261199f565b611a29565b82525050565b5f611a5482876119f9565b9150611a6082866119f9565b9150611a6c82856119f9565b9150611a788284611a32565b60208201915081905095945050505050565b7f4e487b71000000000000000000000000000000000000000000000000000000005f52602260045260245ffd5b5f6002820490506001821680611ace57607f821691505b602082108103611ae157611ae0611a8a565b5b50919050565b5f819050815f5260205f209050919050565b5f6020601f8301049050919050565b5f82821b905092915050565b5f60088302611b437fffffffffffffffffffffffffffffffffffffffffffffffffffffffffffffffff82611b08565b611b4d8683611b08565b95508019841693508086168417925050509392505050565b5f819050919050565b5f611b88611b83611b7e8461199f565b611b65565b61199f565b9050919050565b5f819050919050565b611ba183611b6e565b611bb5611bad82611b8f565b848454611b14565b825550505050565b5f90565b611bc9611bbd565b611bd4818484611b98565b505050565b5b81811015611bf757611bec5f82611bc1565b600181019050611bda565b5050565b601f821115611c3c57611c0d81611ae7565b611c1684611af9565b81016020851015611c25578190505b611c39611c3185611af9565b830182611bd9565b50505b505050565b5f82821c905092915050565b5f611c5c5f1984600802611c41565b1980831691505092915050565b5f611c748383611c4d565b9150826002028217905092915050565b611c8d826114df565b67ffffffffffffffff811115611ca657611ca56111f9565b5b611cb08254611ab7565b611cbb828285611bfb565b5f60209050601f831160018114611cec575f8415611cda578287015190505b611ce48582611c69565b865550611d4b565b601f198416611cfa86611ae7565b5f5b82811015611d2157848901518255600182019150602085019450602081019050611cfc565b86831015611d3e5784890151611d3a601f891682611c4d565b8355505b6001600288020188555050505b505050505050565b5f611d5e82846119f9565b915081905092915050565b7f6f6b0000000000000000000000000000000000000000000000000000000000005f82015250565b5f611d9d600283611892565b9150611da882611d69565b602082019050919050565b611dbc8161140b565b82525050565b5f6040820190508181035f830152611dd981611d91565b9050611de86020830184611db3565b92915050565b7f4e487b71000000000000000000000000000000000000000000000000000000005f52603260045260245ffd5b5f8154611e2781611ab7565b611e3181866119ef565b9450600182165f8114611e4b5760018114611e6057611e92565b60ff1983168652811515820286019350611e92565b611e6985611ae7565b5f5b83811015611e8a57815481890152600182019150602081019050611e6b565b838801955050505b50505092915050565b5f611ea68284611e1b565b915081905092915050565b7f2c000000000000000000000000000000000000000000000000000000000000005f82015250565b5f611ee56001836119ef565b9150611ef082611eb1565b600182019050919050565b5f611f0682846119f9565b9150611f1182611ed9565b915081905092915050565b7f3a000000000000000000000000000000000000000000000000000000000000005f82015250565b5f611f506001836119ef565b9150611f5b82611f1c565b600182019050919050565b5f611f7182866119f9565b9150611f7d8285611e1b565b9150611f8882611f44565b9150611f948284611e1b565b9150819050949350505050565b5f6020820190508181035f830152611fb881611d91565b9050919050565b7f4572726f72206e6f7420666f756e6400000000000000000000000000000000005f82015250565b5f611ff3600f83611892565b9150611ffe82611fbf565b602082019050919050565b5f6020820190508181035f83015261202081611fe7565b9050919050565b7f202d3e20000000000000000000000000000000000000000000000000000000005f82015250565b5f61205b6004836119ef565b915061206682612027565b600482019050919050565b5f61207c82846119f9565b91506120878261204f565b915081905092915050565b5f61209d82856119f9565b91506120a98284611e1b565b91508190509392505050565b7f746f704e206d75737420626520706f73697469766500000000000000000000005f82015250565b5f6120e9601583611892565b91506120f4826120b5565b602082019050919050565b5f6020820190508181035f830152612116816120dd565b9050919050565b7f4e487b71000000000000000000000000000000000000000000000000000000005f52601260045260245ffd5b5f6121548261199f565b915061215f8361199f565b92508261216f5761216e61211d565b5b828204905092915050565b5f6121848261199f565b915061218f8361199f565b92508282039050818111156121a7576121a6611972565b5b92915050565b5f6121b78261199f565b91506121c28361199f565b9250826121d2576121d161211d565b5b828206905092915050565b5f6121e78261199f565b91506121f28361199f565b925082820190508082111561220a57612209611972565b5b9291505056fea2646970667358221220598d14023efcacd42abd34b1f10518aa1ead7262a731594f8fc9bb6d6febdbe764736f6c63430008140033","linkReferences":{}},"methodIdentifiers":{"errorHotspots(string,int256)":"b08cc541","findByEntity(string,string)":"603c7c9d","findByKind(string,string)":"ba30fa75","get(bytes32)":"8eaa6ac0","record(string,string,string,string)":"07c1b098","rootCause(bytes32)":"61a838ba"},"id":114}