{"abi":[{"type":"function","name":"register","inputs":[],"outputs":[{"name":"","type":"tuple","internalType":"struct RustToolchain.RegisterOkResult","components":[{"name":"success","type":"bool","internalType":"bool"},{"name":"name","type":"string","internalType":"string"},{"name":"language","type":"string","internalType":"string"},{"name":"capabilities","type":"string[]","internalType":"string[]"}]}],"stateMutability":"pure"},{"type":"function","name":"resolve","inputs":[{"name":"platform","type":"string","internalType":"string"},{"name":"versionConstraint","type":"string","internalType":"string"}],"outputs":[{"name":"","type":"tuple","internalType":"struct RustToolchain.ResolveOkResult","components":[{"name":"success","type":"bool","internalType":"bool"},{"name":"toolchain","type":"bytes32","internalType":"bytes32"},{"name":"rustcPath","type":"string","internalType":"string"},{"name":"version","type":"string","internalType":"string"},{"name":"capabilities","type":"string[]","internalType":"string[]"}]}],"stateMutability":"nonpayable"},{"type":"event","name":"RegisterCompleted","inputs":[{"name":"variant","type":"string","indexed":false,"internalType":"string"},{"name":"capabilities","type":"string[]","indexed":false,"internalType":"string[]"}],"anonymous":false},{"type":"event","name":"ResolveCompleted","inputs":[{"name":"variant","type":"string","indexed":false,"internalType":"string"},{"name":"toolchain","type":"bytes32","indexed":false,"internalType":"bytes32"},{"name":"capabilities","type":"string[]","indexed":false,"internalType":"string[]"}],"anonymous":false}],"bytecode":{"object":"0x608060405234801561000f575f80fd5b5061146b8061001d5f395ff3fe608060405234801561000f575f80fd5b5060043610610034575f3560e01c80631aa3a0081461003857806398d7a7c614610056575b5f80fd5b610040610086565b60405161004d9190610ba8565b60405180910390f35b610070600480360381019061006b9190610d05565b6102c7565b60405161007d9190610e14565b60405180910390f35b61008e6108ae565b5f600467ffffffffffffffff8111156100aa576100a9610be1565b5b6040519080825280602002602001820160405280156100dd57816020015b60608152602001906001900390816100c85790505b5090506040518060400160405280600581526020017f7275737463000000000000000000000000000000000000000000000000000000815250815f8151811061012957610128610e34565b5b60200260200101819052506040518060400160405280600581526020017f636172676f0000000000000000000000000000000000000000000000000000008152508160018151811061017e5761017d610e34565b5b60200260200101819052506040518060400160405280600781526020017f72757374666d7400000000000000000000000000000000000000000000000000815250816002815181106101d3576101d2610e34565b5b60200260200101819052506040518060400160405280600681526020017f636c6970707900000000000000000000000000000000000000000000000000008152508160038151811061022857610227610e34565b5b602002602001018190525060405180608001604052806001151581526020016040518060400160405280600e81526020017f727573742d746f6f6c636861696e00000000000000000000000000000000000081525081526020016040518060400160405280600481526020017f727573740000000000000000000000000000000000000000000000000000000081525081526020018281525091505090565b6102cf6108d7565b5f835111610312576040517f08c379a000000000000000000000000000000000000000000000000000000000815260040161030990610ebb565b60405180910390fd5b5f8383604051602001610326929190610f5d565b6040516020818303038152906040528051906020012090505f808281526020019081526020015f206006015f9054906101000a900460ff16610649575f600467ffffffffffffffff81111561037e5761037d610be1565b5b6040519080825280602002602001820160405280156103b157816020015b606081526020019060019003908161039c5790505b5090506040518060400160405280600581526020017f7275737463000000000000000000000000000000000000000000000000000000815250815f815181106103fd576103fc610e34565b5b60200260200101819052506040518060400160405280600581526020017f636172676f0000000000000000000000000000000000000000000000000000008152508160018151811061045257610451610e34565b5b60200260200101819052506040518060400160405280600781526020017f72757374666d7400000000000000000000000000000000000000000000000000815250816002815181106104a7576104a6610e34565b5b60200260200101819052506040518060400160405280600681526020017f636c697070790000000000000000000000000000000000000000000000000000815250816003815181106104fc576104fb610e34565b5b60200260200101819052506040518060e001604052808681526020018581526020016040518060400160405280601481526020017f2f7573722f6c6f63616c2f62696e2f72757374630000000000000000000000008152508152602001858152602001828152602001428152602001600115158152505f808481526020019081526020015f205f820151815f019081610595919061118e565b5060208201518160010190816105ab919061118e565b5060408201518160020190816105c1919061118e565b5060608201518160030190816105d7919061118e565b5060808201518160040190805190602001906105f4929190610909565b5060a0820151816005015560c0820151816006015f6101000a81548160ff021916908315150217905550905050600182908060018154018082558091505060019003905f5260205f20015f9091909190915055505b5f805f8381526020019081526020015f2090507fa421c3e34612215bb5a529ff84d7e5c38a06166f84bbc19bc6119a488d9d984e82826004016040516106909291906113f4565b60405180910390a16040518060a001604052806001151581526020018381526020018260020180546106c190610fb8565b80601f01602080910402602001604051908101604052809291908181526020018280546106ed90610fb8565b80156107385780601f1061070f57610100808354040283529160200191610738565b820191905f5260205f20905b81548152906001019060200180831161071b57829003601f168201915b5050505050815260200182600301805461075190610fb8565b80601f016020809104026020016040519081016040528092919081815260200182805461077d90610fb8565b80156107c85780601f1061079f576101008083540402835291602001916107c8565b820191905f5260205f20905b8154815290600101906020018083116107ab57829003601f168201915b5050505050815260200182600401805480602002602001604051908101604052809291908181526020015f905b8282101561089d578382905f5260205f2001805461081290610fb8565b80601f016020809104026020016040519081016040528092919081815260200182805461083e90610fb8565b80156108895780601f1061086057610100808354040283529160200191610889565b820191905f5260205f20905b81548152906001019060200180831161086c57829003601f168201915b5050505050815260200190600101906107f5565b505050508152509250505092915050565b60405180608001604052805f151581526020016060815260200160608152602001606081525090565b6040518060a001604052805f151581526020015f80191681526020016060815260200160608152602001606081525090565b828054828255905f5260205f2090810192821561094f579160200282015b8281111561094e57825182908161093e919061118e565b5091602001919060010190610927565b5b50905061095c9190610960565b5090565b5b8082111561097f575f81816109769190610983565b50600101610961565b5090565b50805461098f90610fb8565b5f825580601f106109a057506109bd565b601f0160209004905f5260205f20908101906109bc91906109c0565b5b50565b5b808211156109d7575f815f9055506001016109c1565b5090565b5f8115159050919050565b6109ef816109db565b82525050565b5f81519050919050565b5f82825260208201905092915050565b5f5b83811015610a2c578082015181840152602081019050610a11565b5f8484015250505050565b5f601f19601f8301169050919050565b5f610a51826109f5565b610a5b81856109ff565b9350610a6b818560208601610a0f565b610a7481610a37565b840191505092915050565b5f81519050919050565b5f82825260208201905092915050565b5f819050602082019050919050565b5f610ab38383610a47565b905092915050565b5f602082019050919050565b5f610ad182610a7f565b610adb8185610a89565b935083602082028501610aed85610a99565b805f5b85811015610b285784840389528151610b098582610aa8565b9450610b1483610abb565b925060208a01995050600181019050610af0565b50829750879550505050505092915050565b5f608083015f830151610b4f5f8601826109e6565b5060208301518482036020860152610b678282610a47565b91505060408301518482036040860152610b818282610a47565b91505060608301518482036060860152610b9b8282610ac7565b9150508091505092915050565b5f6020820190508181035f830152610bc08184610b3a565b905092915050565b5f604051905090565b5f80fd5b5f80fd5b5f80fd5b5f80fd5b7f4e487b71000000000000000000000000000000000000000000000000000000005f52604160045260245ffd5b610c1782610a37565b810181811067ffffffffffffffff82111715610c3657610c35610be1565b5b80604052505050565b5f610c48610bc8565b9050610c548282610c0e565b919050565b5f67ffffffffffffffff821115610c7357610c72610be1565b5b610c7c82610a37565b9050602081019050919050565b828183375f83830152505050565b5f610ca9610ca484610c59565b610c3f565b905082815260208101848484011115610cc557610cc4610bdd565b5b610cd0848285610c89565b509392505050565b5f82601f830112610cec57610ceb610bd9565b5b8135610cfc848260208601610c97565b91505092915050565b5f8060408385031215610d1b57610d1a610bd1565b5b5f83013567ffffffffffffffff811115610d3857610d37610bd5565b5b610d4485828601610cd8565b925050602083013567ffffffffffffffff811115610d6557610d64610bd5565b5b610d7185828601610cd8565b9150509250929050565b5f819050919050565b610d8d81610d7b565b82525050565b5f60a083015f830151610da85f8601826109e6565b506020830151610dbb6020860182610d84565b5060408301518482036040860152610dd38282610a47565b91505060608301518482036060860152610ded8282610a47565b91505060808301518482036080860152610e078282610ac7565b9150508091505092915050565b5f6020820190508181035f830152610e2c8184610d93565b905092915050565b7f4e487b71000000000000000000000000000000000000000000000000000000005f52603260045260245ffd5b5f82825260208201905092915050565b7f506c6174666f726d206d757374206e6f7420626520656d7074790000000000005f82015250565b5f610ea5601a83610e61565b9150610eb082610e71565b602082019050919050565b5f6020820190508181035f830152610ed281610e99565b9050919050565b5f81905092915050565b7f72757374000000000000000000000000000000000000000000000000000000005f82015250565b5f610f17600483610ed9565b9150610f2282610ee3565b600482019050919050565b5f610f37826109f5565b610f418185610ed9565b9350610f51818560208601610a0f565b80840191505092915050565b5f610f6782610f0b565b9150610f738285610f2d565b9150610f7f8284610f2d565b91508190509392505050565b7f4e487b71000000000000000000000000000000000000000000000000000000005f52602260045260245ffd5b5f6002820490506001821680610fcf57607f821691505b602082108103610fe257610fe1610f8b565b5b50919050565b5f819050815f5260205f209050919050565b5f6020601f8301049050919050565b5f82821b905092915050565b5f600883026110447fffffffffffffffffffffffffffffffffffffffffffffffffffffffffffffffff82611009565b61104e8683611009565b95508019841693508086168417925050509392505050565b5f819050919050565b5f819050919050565b5f61109261108d61108884611066565b61106f565b611066565b9050919050565b5f819050919050565b6110ab83611078565b6110bf6110b782611099565b848454611015565b825550505050565b5f90565b6110d36110c7565b6110de8184846110a2565b505050565b5b81811015611101576110f65f826110cb565b6001810190506110e4565b5050565b601f8211156111465761111781610fe8565b61112084610ffa565b8101602085101561112f578190505b61114361113b85610ffa565b8301826110e3565b50505b505050565b5f82821c905092915050565b5f6111665f198460080261114b565b1980831691505092915050565b5f61117e8383611157565b9150826002028217905092915050565b611197826109f5565b67ffffffffffffffff8111156111b0576111af610be1565b5b6111ba8254610fb8565b6111c5828285611105565b5f60209050601f8311600181146111f6575f84156111e4578287015190505b6111ee8582611173565b865550611255565b601f19841661120486610fe8565b5f5b8281101561122b57848901518255600182019150602085019450602081019050611206565b868310156112485784890151611244601f891682611157565b8355505b6001600288020188555050505b505050505050565b7f6f6b0000000000000000000000000000000000000000000000000000000000005f82015250565b5f611291600283610e61565b915061129c8261125d565b602082019050919050565b6112b081610d7b565b82525050565b5f81549050919050565b5f82825260208201905092915050565b5f819050815f5260205f209050919050565b5f81546112ee81610fb8565b6112f881866109ff565b9450600182165f811461131257600181146113285761135a565b60ff19831686528115156020028601935061135a565b61133185610fe8565b5f5b8381101561135257815481890152600182019150602081019050611333565b808801955050505b50505092915050565b5f61136e83836112e2565b905092915050565b5f600182019050919050565b5f61138c826112b6565b61139681856112c0565b9350836020820285016113a8856112d0565b805f5b858110156113e2578484038952816113c38582611363565b94506113ce83611376565b925060208a019950506001810190506113ab565b50829750879550505050505092915050565b5f6060820190508181035f83015261140b81611285565b905061141a60208301856112a7565b818103604083015261142c8184611382565b9050939250505056fea2646970667358221220ad7e20806d058fb4b4d83d2e395d1b24f603ef20ef6b43c9f4e34552c6237d5d64736f6c63430008140033","linkReferences":{}},"methodIdentifiers":{"register()":"1aa3a008","resolve(string,string)":"98d7a7c6"},"id":229}