{"abi":[{"type":"function","name":"createIndex","inputs":[{"name":"indexId","type":"bytes32","internalType":"bytes32"},{"name":"config","type":"string","internalType":"string"}],"outputs":[],"stateMutability":"nonpayable"},{"type":"function","name":"indexItem","inputs":[{"name":"indexId","type":"bytes32","internalType":"bytes32"},{"name":"nodeId","type":"bytes32","internalType":"bytes32"}],"outputs":[],"stateMutability":"nonpayable"},{"type":"function","name":"isIndexed","inputs":[{"name":"indexId","type":"bytes32","internalType":"bytes32"},{"name":"nodeId","type":"bytes32","internalType":"bytes32"}],"outputs":[{"name":"","type":"bool","internalType":"bool"}],"stateMutability":"view"},{"type":"function","name":"itemCount","inputs":[{"name":"indexId","type":"bytes32","internalType":"bytes32"}],"outputs":[{"name":"","type":"uint256","internalType":"uint256"}],"stateMutability":"view"},{"type":"function","name":"removeItem","inputs":[{"name":"indexId","type":"bytes32","internalType":"bytes32"},{"name":"nodeId","type":"bytes32","internalType":"bytes32"}],"outputs":[],"stateMutability":"nonpayable"},{"type":"event","name":"IndexCreated","inputs":[{"name":"indexId","type":"bytes32","indexed":true,"internalType":"bytes32"}],"anonymous":false},{"type":"event","name":"ItemIndexed","inputs":[{"name":"indexId","type":"bytes32","indexed":true,"internalType":"bytes32"},{"name":"nodeId","type":"bytes32","indexed":true,"internalType":"bytes32"}],"anonymous":false},{"type":"event","name":"ItemRemoved","inputs":[{"name":"indexId","type":"bytes32","indexed":true,"internalType":"bytes32"},{"name":"nodeId","type":"bytes32","indexed":true,"internalType":"bytes32"}],"anonymous":false}],"bytecode":{"object":"0x608060405234801561000f575f80fd5b50610cea8061001d5f395ff3fe608060405234801561000f575f80fd5b5060043610610054575f3560e01c8062b7c608146100585780638bd1421114610074578063a60ce8de146100a4578063bbe7a5b2146100c0578063f18b12c3146100f0575b5f80fd5b610072600480360381019061006d91906105de565b61010c565b005b61008e600480360381019061008991906105de565b610266565b60405161009b9190610636565b60405180910390f35b6100be60048036038101906100b991906106b0565b61029c565b005b6100da60048036038101906100d5919061070d565b6103cf565b6040516100e79190610750565b60405180910390f35b61010a600480360381019061010591906105de565b610448565b005b5f808381526020019081526020015f206001015f9054906101000a900460ff1661016b576040517f08c379a0000000000000000000000000000000000000000000000000000000008152600401610162906107c3565b60405180910390fd5b60015f8381526020019081526020015f205f8281526020019081526020015f205f9054906101000a900460ff166101d7576040517f08c379a00000000000000000000000000000000000000000000000000000000081526004016101ce9061082b565b60405180910390fd5b5f60015f8481526020019081526020015f205f8381526020019081526020015f205f6101000a81548160ff02191690831515021790555060025f8381526020019081526020015f205f81548092919061022f90610876565b919050555080827f3f0a619b1a7def67f259e68110c2329d725af03a9c9d1e7e732c807a4f702ca860405160405180910390a35050565b5f60015f8481526020019081526020015f205f8381526020019081526020015f205f9054906101000a900460ff16905092915050565b5f808481526020019081526020015f206001015f9054906101000a900460ff16156102fc576040517f08c379a00000000000000000000000000000000000000000000000000000000081526004016102f3906108e7565b60405180910390fd5b604051806040016040528083838080601f0160208091040260200160405190810160405280939291908181526020018383808284375f81840152601f19601f820116905080830192505050505050508152602001600115158152505f808581526020019081526020015f205f820151815f01908161037a9190610b36565b506020820151816001015f6101000a81548160ff021916908315150217905550905050827f5612015667a82da5bf99b878614ab5369bbcaa60c29fa71a1959797babf61e6460405160405180910390a2505050565b5f805f8381526020019081526020015f206001015f9054906101000a900460ff1661042f576040517f08c379a0000000000000000000000000000000000000000000000000000000008152600401610426906107c3565b60405180910390fd5b60025f8381526020019081526020015f20549050919050565b5f808381526020019081526020015f206001015f9054906101000a900460ff166104a7576040517f08c379a000000000000000000000000000000000000000000000000000000000815260040161049e906107c3565b60405180910390fd5b60015f8381526020019081526020015f205f8281526020019081526020015f205f9054906101000a900460ff1615610514576040517f08c379a000000000000000000000000000000000000000000000000000000000815260040161050b90610c4f565b60405180910390fd5b6001805f8481526020019081526020015f205f8381526020019081526020015f205f6101000a81548160ff02191690831515021790555060025f8381526020019081526020015f205f81548092919061056c90610c6d565b919050555080827f4cf0f16e522cf61cb64b8cce7b38867100a7ce9da0562b3bb12e6e69eee124b860405160405180910390a35050565b5f80fd5b5f80fd5b5f819050919050565b6105bd816105ab565b81146105c7575f80fd5b50565b5f813590506105d8816105b4565b92915050565b5f80604083850312156105f4576105f36105a3565b5b5f610601858286016105ca565b9250506020610612858286016105ca565b9150509250929050565b5f8115159050919050565b6106308161061c565b82525050565b5f6020820190506106495f830184610627565b92915050565b5f80fd5b5f80fd5b5f80fd5b5f8083601f8401126106705761066f61064f565b5b8235905067ffffffffffffffff81111561068d5761068c610653565b5b6020830191508360018202830111156106a9576106a8610657565b5b9250929050565b5f805f604084860312156106c7576106c66105a3565b5b5f6106d4868287016105ca565b935050602084013567ffffffffffffffff8111156106f5576106f46105a7565b5b6107018682870161065b565b92509250509250925092565b5f60208284031215610722576107216105a3565b5b5f61072f848285016105ca565b91505092915050565b5f819050919050565b61074a81610738565b82525050565b5f6020820190506107635f830184610741565b92915050565b5f82825260208201905092915050565b7f496e64657820646f6573206e6f742065786973740000000000000000000000005f82015250565b5f6107ad601483610769565b91506107b882610779565b602082019050919050565b5f6020820190508181035f8301526107da816107a1565b9050919050565b7f4974656d206e6f7420696e6465786564000000000000000000000000000000005f82015250565b5f610815601083610769565b9150610820826107e1565b602082019050919050565b5f6020820190508181035f83015261084281610809565b9050919050565b7f4e487b71000000000000000000000000000000000000000000000000000000005f52601160045260245ffd5b5f61088082610738565b91505f820361089257610891610849565b5b600182039050919050565b7f496e64657820616c7265616479206578697374730000000000000000000000005f82015250565b5f6108d1601483610769565b91506108dc8261089d565b602082019050919050565b5f6020820190508181035f8301526108fe816108c5565b9050919050565b5f81519050919050565b7f4e487b71000000000000000000000000000000000000000000000000000000005f52604160045260245ffd5b7f4e487b71000000000000000000000000000000000000000000000000000000005f52602260045260245ffd5b5f600282049050600182168061098057607f821691505b6020821081036109935761099261093c565b5b50919050565b5f819050815f5260205f209050919050565b5f6020601f8301049050919050565b5f82821b905092915050565b5f600883026109f57fffffffffffffffffffffffffffffffffffffffffffffffffffffffffffffffff826109ba565b6109ff86836109ba565b95508019841693508086168417925050509392505050565b5f819050919050565b5f610a3a610a35610a3084610738565b610a17565b610738565b9050919050565b5f819050919050565b610a5383610a20565b610a67610a5f82610a41565b8484546109c6565b825550505050565b5f90565b610a7b610a6f565b610a86818484610a4a565b505050565b5b81811015610aa957610a9e5f82610a73565b600181019050610a8c565b5050565b601f821115610aee57610abf81610999565b610ac8846109ab565b81016020851015610ad7578190505b610aeb610ae3856109ab565b830182610a8b565b50505b505050565b5f82821c905092915050565b5f610b0e5f1984600802610af3565b1980831691505092915050565b5f610b268383610aff565b9150826002028217905092915050565b610b3f82610905565b67ffffffffffffffff811115610b5857610b5761090f565b5b610b628254610969565b610b6d828285610aad565b5f60209050601f831160018114610b9e575f8415610b8c578287015190505b610b968582610b1b565b865550610bfd565b601f198416610bac86610999565b5f5b82811015610bd357848901518255600182019150602085019450602081019050610bae565b86831015610bf05784890151610bec601f891682610aff565b8355505b6001600288020188555050505b505050505050565b7f4974656d20616c726561647920696e64657865640000000000000000000000005f82015250565b5f610c39601483610769565b9150610c4482610c05565b602082019050919050565b5f6020820190508181035f830152610c6681610c2d565b9050919050565b5f610c7782610738565b91507fffffffffffffffffffffffffffffffffffffffffffffffffffffffffffffffff8203610ca957610ca8610849565b5b60018201905091905056fea2646970667358221220e89d151856688899a6b4efbd2c0acf0a29364de4eb930974ed6c852e66d2f92764736f6c63430008140033","linkReferences":{}},"methodIdentifiers":{"createIndex(bytes32,string)":"a60ce8de","indexItem(bytes32,bytes32)":"f18b12c3","isIndexed(bytes32,bytes32)":"8bd14211","itemCount(bytes32)":"bbe7a5b2","removeItem(bytes32,bytes32)":"00b7c608"},"id":236}