{"abi":[{"type":"function","name":"generate","inputs":[{"name":"appName","type":"string","internalType":"string"},{"name":"runtimes","type":"bytes[]","internalType":"bytes[]"},{"name":"concepts","type":"bytes[]","internalType":"bytes[]"}],"outputs":[{"name":"result","type":"tuple","internalType":"struct DeployScaffoldGen.GenerateOkResult","components":[{"name":"success","type":"bool","internalType":"bool"},{"name":"files","type":"bytes[]","internalType":"bytes[]"},{"name":"filesGenerated","type":"int256","internalType":"int256"}]}],"stateMutability":"nonpayable"},{"type":"function","name":"hasManifest","inputs":[{"name":"appName","type":"string","internalType":"string"}],"outputs":[{"name":"","type":"bool","internalType":"bool"}],"stateMutability":"view"},{"type":"function","name":"manifestCount","inputs":[],"outputs":[{"name":"","type":"uint256","internalType":"uint256"}],"stateMutability":"view"},{"type":"function","name":"preview","inputs":[{"name":"appName","type":"string","internalType":"string"},{"name":"runtimes","type":"bytes[]","internalType":"bytes[]"},{"name":"concepts","type":"bytes[]","internalType":"bytes[]"}],"outputs":[{"name":"result","type":"tuple","internalType":"struct DeployScaffoldGen.PreviewOkResult","components":[{"name":"success","type":"bool","internalType":"bool"},{"name":"files","type":"bytes[]","internalType":"bytes[]"},{"name":"wouldWrite","type":"int256","internalType":"int256"},{"name":"wouldSkip","type":"int256","internalType":"int256"}]}],"stateMutability":"view"},{"type":"function","name":"register","inputs":[],"outputs":[{"name":"result","type":"tuple","internalType":"struct DeployScaffoldGen.RegisterOkResult","components":[{"name":"success","type":"bool","internalType":"bool"},{"name":"name","type":"string","internalType":"string"},{"name":"inputKind","type":"string","internalType":"string"},{"name":"outputKind","type":"string","internalType":"string"},{"name":"capabilities","type":"string[]","internalType":"string[]"}]}],"stateMutability":"pure"},{"type":"event","name":"GenerateCompleted","inputs":[{"name":"variant","type":"string","indexed":false,"internalType":"string"},{"name":"files","type":"bytes[]","indexed":false,"internalType":"bytes[]"},{"name":"filesGenerated","type":"int256","indexed":false,"internalType":"int256"}],"anonymous":false},{"type":"event","name":"PreviewCompleted","inputs":[{"name":"variant","type":"string","indexed":false,"internalType":"string"},{"name":"files","type":"bytes[]","indexed":false,"internalType":"bytes[]"},{"name":"wouldWrite","type":"int256","indexed":false,"internalType":"int256"},{"name":"wouldSkip","type":"int256","indexed":false,"internalType":"int256"}],"anonymous":false},{"type":"event","name":"RegisterCompleted","inputs":[{"name":"variant","type":"string","indexed":false,"internalType":"string"},{"name":"capabilities","type":"string[]","indexed":false,"internalType":"string[]"}],"anonymous":false}],"bytecode":{"object":"0x608060405234801561000f575f80fd5b50611d288061001d5f395ff3fe608060405234801561000f575f80fd5b5060043610610055575f3560e01c80630f6782b2146100595780631aa3a0081461007757806338f82fb0146100955780637c44acdf146100c5578063cfbd7cf4146100f5575b5f80fd5b610061610125565b60405161006e9190610b26565b60405180910390f35b61007f610131565b60405161008c9190610d26565b60405180910390f35b6100af60048036038101906100aa9190610e83565b610358565b6040516100bc9190610ed9565b60405180910390f35b6100df60048036038101906100da9190611072565b6103a4565b6040516100ec9190611288565b60405180910390f35b61010f600480360381019061010a9190611072565b6106c8565b60405161011c9190611308565b60405180910390f35b5f600280549050905090565b610139610a96565b5f600367ffffffffffffffff81111561015557610154610d5f565b5b60405190808252806020026020018201604052801561018857816020015b60608152602001906001900390816101735790505b5090506040518060400160405280600f81526020017f6465706c6f792d6d616e69666573740000000000000000000000000000000000815250815f815181106101d4576101d3611328565b5b60200260200101819052506040518060400160405280600e81526020017f72756e74696d652d636f6e6669670000000000000000000000000000000000008152508160018151811061022957610228611328565b5b60200260200101819052506040518060400160405280600f81526020017f636f6e636570742d62696e64696e6700000000000000000000000000000000008152508160028151811061027e5761027d611328565b5b60200260200101819052506040518060a001604052806001151581526020016040518060400160405280601381526020017f6465706c6f792d73636166666f6c642d67656e0000000000000000000000000081525081526020016040518060400160405280600b81526020017f6465706c6f792d7370656300000000000000000000000000000000000000000081525081526020016040518060400160405280600e81526020017f73636166666f6c642d66696c657300000000000000000000000000000000000081525081526020018281525091505090565b5f60015f8360405160200161036d919061138f565b6040516020818303038152906040528051906020012081526020019081526020015f205f9054906101000a900460ff169050919050565b6103ac610ac6565b5f8451116103ef576040517f08c379a00000000000000000000000000000000000000000000000000000000081526004016103e6906113ff565b60405180910390fd5b5f835111610432576040517f08c379a000000000000000000000000000000000000000000000000000000000815260040161042990611467565b60405180910390fd5b5f84604051602001610444919061138f565b6040516020818303038152906040528051906020012090505f8451600161046b91906114b2565b90505f8167ffffffffffffffff81111561048857610487610d5f565b5b6040519080825280602002602001820160405280156104bb57816020015b60608152602001906001900390816104a65790505b509050866104c9875161093d565b6104d3875161093d565b6040516020016104e5939291906115c3565b604051602081830303815290604052815f8151811061050757610506611328565b5b60200260200101819052505f5b86518110156105a9576105268161093d565b8861054b89848151811061053d5761053c611328565b5b60200260200101515161093d565b60405160200161055d939291906116f2565b6040516020818303038152906040528260018361057a91906114b2565b8151811061058b5761058a611328565b5b602002602001018190525080806105a190611743565b915050610514565b508686518651426040516020016105c394939291906117c2565b6040516020818303038152906040525f808581526020019081526020015f2090816105ee9190611a06565b5060015f8481526020019081526020015f205f9054906101000a900460ff16610660576001805f8581526020019081526020015f205f6101000a81548160ff021916908315150217905550600283908060018154018082558091505060019003905f5260205f20015f90919091909150555b5f82905060405180606001604052806001151581526020018381526020018281525094507f48bda0bee7ff8852f440265af654a83c61da2283be561d3abff07f7ae4ae9e0882826040516106b5929190611bb1565b60405180910390a1505050509392505050565b6106d0610ae7565b5f845111610713576040517f08c379a000000000000000000000000000000000000000000000000000000000815260040161070a906113ff565b60405180910390fd5b5f835111610756576040517f08c379a000000000000000000000000000000000000000000000000000000000815260040161074d90611467565b60405180910390fd5b5f84604051602001610768919061138f565b6040516020818303038152906040528051906020012090505f8451600161078f91906114b2565b90505f8167ffffffffffffffff8111156107ac576107ab610d5f565b5b6040519080825280602002602001820160405280156107df57816020015b60608152602001906001900390816107ca5790505b509050866107ed875161093d565b6107f7875161093d565b604051602001610809939291906115c3565b604051602081830303815290604052815f8151811061082b5761082a611328565b5b60200260200101819052505f5b86518110156108cd5761084a8161093d565b8861086f89848151811061086157610860611328565b5b60200260200101515161093d565b604051602001610881939291906116f2565b6040516020818303038152906040528260018361089e91906114b2565b815181106108af576108ae611328565b5b602002602001018190525080806108c590611743565b915050610838565b505f60015f8581526020019081526020015f205f9054906101000a900460ff166108f7575f6108fa565b60015b90505f81846109099190611bf2565b9050604051806080016040528060011515815260200184815260200182815260200183815250955050505050509392505050565b60605f8203610983576040518060400160405280600181526020017f30000000000000000000000000000000000000000000000000000000000000008152509050610a91565b5f8290505f5b5f82146109b257808061099b90611743565b915050600a826109ab9190611c5f565b9150610989565b5f8167ffffffffffffffff8111156109cd576109cc610d5f565b5b6040519080825280601f01601f1916602001820160405280156109ff5781602001600182028036833780820191505090505b5090505b5f8514610a8a57600182610a179190611c8f565b9150600a85610a269190611cc2565b6030610a3291906114b2565b60f81b818381518110610a4857610a47611328565b5b60200101907effffffffffffffffffffffffffffffffffffffffffffffffffffffffffffff191690815f1a905350600a85610a839190611c5f565b9450610a03565b8093505050505b919050565b6040518060a001604052805f15158152602001606081526020016060815260200160608152602001606081525090565b60405180606001604052805f15158152602001606081526020015f81525090565b60405180608001604052805f15158152602001606081526020015f81526020015f81525090565b5f819050919050565b610b2081610b0e565b82525050565b5f602082019050610b395f830184610b17565b92915050565b5f8115159050919050565b610b5381610b3f565b82525050565b5f81519050919050565b5f82825260208201905092915050565b5f5b83811015610b90578082015181840152602081019050610b75565b5f8484015250505050565b5f601f19601f8301169050919050565b5f610bb582610b59565b610bbf8185610b63565b9350610bcf818560208601610b73565b610bd881610b9b565b840191505092915050565b5f81519050919050565b5f82825260208201905092915050565b5f819050602082019050919050565b5f610c178383610bab565b905092915050565b5f602082019050919050565b5f610c3582610be3565b610c3f8185610bed565b935083602082028501610c5185610bfd565b805f5b85811015610c8c5784840389528151610c6d8582610c0c565b9450610c7883610c1f565b925060208a01995050600181019050610c54565b50829750879550505050505092915050565b5f60a083015f830151610cb35f860182610b4a565b5060208301518482036020860152610ccb8282610bab565b91505060408301518482036040860152610ce58282610bab565b91505060608301518482036060860152610cff8282610bab565b91505060808301518482036080860152610d198282610c2b565b9150508091505092915050565b5f6020820190508181035f830152610d3e8184610c9e565b905092915050565b5f604051905090565b5f80fd5b5f80fd5b5f80fd5b5f80fd5b7f4e487b71000000000000000000000000000000000000000000000000000000005f52604160045260245ffd5b610d9582610b9b565b810181811067ffffffffffffffff82111715610db457610db3610d5f565b5b80604052505050565b5f610dc6610d46565b9050610dd28282610d8c565b919050565b5f67ffffffffffffffff821115610df157610df0610d5f565b5b610dfa82610b9b565b9050602081019050919050565b828183375f83830152505050565b5f610e27610e2284610dd7565b610dbd565b905082815260208101848484011115610e4357610e42610d5b565b5b610e4e848285610e07565b509392505050565b5f82601f830112610e6a57610e69610d57565b5b8135610e7a848260208601610e15565b91505092915050565b5f60208284031215610e9857610e97610d4f565b5b5f82013567ffffffffffffffff811115610eb557610eb4610d53565b5b610ec184828501610e56565b91505092915050565b610ed381610b3f565b82525050565b5f602082019050610eec5f830184610eca565b92915050565b5f67ffffffffffffffff821115610f0c57610f0b610d5f565b5b602082029050602081019050919050565b5f80fd5b5f67ffffffffffffffff821115610f3b57610f3a610d5f565b5b610f4482610b9b565b9050602081019050919050565b5f610f63610f5e84610f21565b610dbd565b905082815260208101848484011115610f7f57610f7e610d5b565b5b610f8a848285610e07565b509392505050565b5f82601f830112610fa657610fa5610d57565b5b8135610fb6848260208601610f51565b91505092915050565b5f610fd1610fcc84610ef2565b610dbd565b90508083825260208201905060208402830185811115610ff457610ff3610f1d565b5b835b8181101561103b57803567ffffffffffffffff81111561101957611018610d57565b5b8086016110268982610f92565b85526020850194505050602081019050610ff6565b5050509392505050565b5f82601f83011261105957611058610d57565b5b8135611069848260208601610fbf565b91505092915050565b5f805f6060848603121561108957611088610d4f565b5b5f84013567ffffffffffffffff8111156110a6576110a5610d53565b5b6110b286828701610e56565b935050602084013567ffffffffffffffff8111156110d3576110d2610d53565b5b6110df86828701611045565b925050604084013567ffffffffffffffff811115611100576110ff610d53565b5b61110c86828701611045565b9150509250925092565b5f81519050919050565b5f82825260208201905092915050565b5f819050602082019050919050565b5f81519050919050565b5f82825260208201905092915050565b5f6111638261113f565b61116d8185611149565b935061117d818560208601610b73565b61118681610b9b565b840191505092915050565b5f61119c8383611159565b905092915050565b5f602082019050919050565b5f6111ba82611116565b6111c48185611120565b9350836020820285016111d685611130565b805f5b8581101561121157848403895281516111f28582611191565b94506111fd836111a4565b925060208a019950506001810190506111d9565b50829750879550505050505092915050565b5f819050919050565b61123581611223565b82525050565b5f606083015f8301516112505f860182610b4a565b506020830151848203602086015261126882826111b0565b915050604083015161127d604086018261122c565b508091505092915050565b5f6020820190508181035f8301526112a0818461123b565b905092915050565b5f608083015f8301516112bd5f860182610b4a565b50602083015184820360208601526112d582826111b0565b91505060408301516112ea604086018261122c565b5060608301516112fd606086018261122c565b508091505092915050565b5f6020820190508181035f83015261132081846112a8565b905092915050565b7f4e487b71000000000000000000000000000000000000000000000000000000005f52603260045260245ffd5b5f81905092915050565b5f61136982610b59565b6113738185611355565b9350611383818560208601610b73565b80840191505092915050565b5f61139a828461135f565b915081905092915050565b5f82825260208201905092915050565b7f417070206e616d652063616e6e6f7420626520656d70747900000000000000005f82015250565b5f6113e96018836113a5565b91506113f4826113b5565b602082019050919050565b5f6020820190508181035f830152611416816113dd565b9050919050565b7f4174206c65617374206f6e652072756e74696d652069732072657175697265645f82015250565b5f6114516020836113a5565b915061145c8261141d565b602082019050919050565b5f6020820190508181035f83015261147e81611445565b9050919050565b7f4e487b71000000000000000000000000000000000000000000000000000000005f52601160045260245ffd5b5f6114bc82610b0e565b91506114c783610b0e565b92508282019050808211156114df576114de611485565b5b92915050565b7f2f2f204465706c6f792073636166666f6c643a200000000000000000000000005f82015250565b5f611519601483611355565b9150611524826114e5565b601482019050919050565b7f0a2f2f2052756e74696d65733a200000000000000000000000000000000000005f82015250565b5f611563600e83611355565b915061156e8261152f565b600e82019050919050565b7f0a2f2f20436f6e63657074733a200000000000000000000000000000000000005f82015250565b5f6115ad600e83611355565b91506115b882611579565b600e82019050919050565b5f6115cd8261150d565b91506115d9828661135f565b91506115e482611557565b91506115f0828561135f565b91506115fb826115a1565b9150611607828461135f565b9150819050949350505050565b7f2f2f2052756e74696d6520636f6e6669672073636166666f6c643a20000000005f82015250565b5f611648601c83611355565b915061165382611614565b601c82019050919050565b7f0a2f2f204170703a2000000000000000000000000000000000000000000000005f82015250565b5f611692600983611355565b915061169d8261165e565b600982019050919050565b7f0a2f2f2052756e74696d6520646174612073697a653a200000000000000000005f82015250565b5f6116dc601783611355565b91506116e7826116a8565b601782019050919050565b5f6116fc8261163c565b9150611708828661135f565b915061171382611686565b915061171f828561135f565b915061172a826116d0565b9150611736828461135f565b9150819050949350505050565b5f61174d82610b0e565b91507fffffffffffffffffffffffffffffffffffffffffffffffffffffffffffffffff820361177f5761177e611485565b5b600182019050919050565b5f61179482610b59565b61179e81856113a5565b93506117ae818560208601610b73565b6117b781610b9b565b840191505092915050565b5f6080820190508181035f8301526117da818761178a565b90506117e96020830186610b17565b6117f66040830185610b17565b6118036060830184610b17565b95945050505050565b7f4e487b71000000000000000000000000000000000000000000000000000000005f52602260045260245ffd5b5f600282049050600182168061185057607f821691505b6020821081036118635761186261180c565b5b50919050565b5f819050815f5260205f209050919050565b5f6020601f8301049050919050565b5f82821b905092915050565b5f600883026118c57fffffffffffffffffffffffffffffffffffffffffffffffffffffffffffffffff8261188a565b6118cf868361188a565b95508019841693508086168417925050509392505050565b5f819050919050565b5f61190a61190561190084610b0e565b6118e7565b610b0e565b9050919050565b5f819050919050565b611923836118f0565b61193761192f82611911565b848454611896565b825550505050565b5f90565b61194b61193f565b61195681848461191a565b505050565b5b818110156119795761196e5f82611943565b60018101905061195c565b5050565b601f8211156119be5761198f81611869565b6119988461187b565b810160208510156119a7578190505b6119bb6119b38561187b565b83018261195b565b50505b505050565b5f82821c905092915050565b5f6119de5f19846008026119c3565b1980831691505092915050565b5f6119f683836119cf565b9150826002028217905092915050565b611a0f8261113f565b67ffffffffffffffff811115611a2857611a27610d5f565b5b611a328254611839565b611a3d82828561197d565b5f60209050601f831160018114611a6e575f8415611a5c578287015190505b611a6685826119eb565b865550611acd565b601f198416611a7c86611869565b5f5b82811015611aa357848901518255600182019150602085019450602081019050611a7e565b86831015611ac05784890151611abc601f8916826119cf565b8355505b6001600288020188555050505b505050505050565b7f6f6b0000000000000000000000000000000000000000000000000000000000005f82015250565b5f611b096002836113a5565b9150611b1482611ad5565b602082019050919050565b5f82825260208201905092915050565b5f611b3982611116565b611b438185611b1f565b935083602082028501611b5585611130565b805f5b85811015611b905784840389528151611b718582611191565b9450611b7c836111a4565b925060208a01995050600181019050611b58565b50829750879550505050505092915050565b611bab81611223565b82525050565b5f6060820190508181035f830152611bc881611afd565b90508181036020830152611bdc8185611b2f565b9050611beb6040830184611ba2565b9392505050565b5f611bfc82611223565b9150611c0783611223565b925082820390508181125f8412168282135f851215161715611c2c57611c2b611485565b5b92915050565b7f4e487b71000000000000000000000000000000000000000000000000000000005f52601260045260245ffd5b5f611c6982610b0e565b9150611c7483610b0e565b925082611c8457611c83611c32565b5b828204905092915050565b5f611c9982610b0e565b9150611ca483610b0e565b9250828203905081811115611cbc57611cbb611485565b5b92915050565b5f611ccc82610b0e565b9150611cd783610b0e565b925082611ce757611ce6611c32565b5b82820690509291505056fea2646970667358221220a36fa9ba868746f6f583df5f1855d7d3a440ffe194d3a2ec924d879b4667cb7d64736f6c63430008140033","linkReferences":{}},"methodIdentifiers":{"generate(string,bytes[],bytes[])":"7c44acdf","hasManifest(string)":"38f82fb0","manifestCount()":"0f6782b2","preview(string,bytes[],bytes[])":"cfbd7cf4","register()":"1aa3a008"},"id":22}