{"abi":[{"type":"function","name":"defineRule","inputs":[{"name":"ruleId","type":"bytes32","internalType":"bytes32"},{"name":"trigger","type":"string","internalType":"string"},{"name":"conditions","type":"string","internalType":"string"},{"name":"actions","type":"string","internalType":"string"}],"outputs":[],"stateMutability":"nonpayable"},{"type":"function","name":"disable","inputs":[{"name":"ruleId","type":"bytes32","internalType":"bytes32"}],"outputs":[],"stateMutability":"nonpayable"},{"type":"function","name":"enable","inputs":[{"name":"ruleId","type":"bytes32","internalType":"bytes32"}],"outputs":[],"stateMutability":"nonpayable"},{"type":"function","name":"getRule","inputs":[{"name":"ruleId","type":"bytes32","internalType":"bytes32"}],"outputs":[{"name":"","type":"tuple","internalType":"struct AutomationRule.Rule","components":[{"name":"trigger","type":"string","internalType":"string"},{"name":"conditions","type":"string","internalType":"string"},{"name":"actions","type":"string","internalType":"string"},{"name":"enabled","type":"bool","internalType":"bool"},{"name":"exists","type":"bool","internalType":"bool"}]}],"stateMutability":"view"},{"type":"function","name":"isEnabled","inputs":[{"name":"ruleId","type":"bytes32","internalType":"bytes32"}],"outputs":[{"name":"","type":"bool","internalType":"bool"}],"stateMutability":"view"},{"type":"event","name":"RuleDefined","inputs":[{"name":"ruleId","type":"bytes32","indexed":true,"internalType":"bytes32"}],"anonymous":false},{"type":"event","name":"RuleDisabled","inputs":[{"name":"ruleId","type":"bytes32","indexed":true,"internalType":"bytes32"}],"anonymous":false},{"type":"event","name":"RuleEnabled","inputs":[{"name":"ruleId","type":"bytes32","indexed":true,"internalType":"bytes32"}],"anonymous":false}],"bytecode":{"object":"0x608060405234801561000f575f80fd5b506111a08061001d5f395ff3fe608060405234801561000f575f80fd5b5060043610610055575f3560e01c80630610e037146100595780631059171e1461008957806336b48a4d146100a5578063cf751d81146100c1578063f7cab847146100dd575b5f80fd5b610073600480360381019061006e919061092e565b61010d565b6040516100809190610973565b60405180910390f35b6100a3600480360381019061009e919061092e565b610195565b005b6100bf60048036038101906100ba91906109ed565b6102b0565b005b6100db60048036038101906100d6919061092e565b61053b565b005b6100f760048036038101906100f2919061092e565b610654565b6040516101049190610bcb565b60405180910390f35b5f805f8381526020019081526020015f2060030160019054906101000a900460ff1661016e576040517f08c379a000000000000000000000000000000000000000000000000000000000815260040161016590610c45565b60405180910390fd5b5f808381526020019081526020015f206003015f9054906101000a900460ff169050919050565b5f808281526020019081526020015f2060030160019054906101000a900460ff166101f5576040517f08c379a00000000000000000000000000000000000000000000000000000000081526004016101ec90610c45565b60405180910390fd5b5f808281526020019081526020015f206003015f9054906101000a900460ff1615610255576040517f08c379a000000000000000000000000000000000000000000000000000000000815260040161024c90610cad565b60405180910390fd5b60015f808381526020019081526020015f206003015f6101000a81548160ff021916908315150217905550807f2e290671ab083174df36945cf8f0d69e3731fd74b1d8266967b262dc3c7cc84060405160405180910390a250565b5f801b87036102f4576040517f08c379a00000000000000000000000000000000000000000000000000000000081526004016102eb90610d15565b60405180910390fd5b5f8686905011610339576040517f08c379a000000000000000000000000000000000000000000000000000000000815260040161033090610d7d565b60405180910390fd5b5f828290501161037e576040517f08c379a000000000000000000000000000000000000000000000000000000000815260040161037590610de5565b60405180910390fd5b6040518060a0016040528087878080601f0160208091040260200160405190810160405280939291908181526020018383808284375f81840152601f19601f82011690508083019250505050505050815260200185858080601f0160208091040260200160405190810160405280939291908181526020018383808284375f81840152601f19601f82011690508083019250505050505050815260200183838080601f0160208091040260200160405190810160405280939291908181526020018383808284375f81840152601f19601f8201169050808301925050505050505081526020015f15158152602001600115158152505f808981526020019081526020015f205f820151815f0190816104969190611033565b5060208201518160010190816104ac9190611033565b5060408201518160020190816104c29190611033565b506060820151816003015f6101000a81548160ff02191690831515021790555060808201518160030160016101000a81548160ff021916908315150217905550905050867f9d9b886f9e3c420858a3ab94c1b2bd22fb9d7bda18c25c8ddaa1f02431ce915d60405160405180910390a250505050505050565b5f808281526020019081526020015f2060030160019054906101000a900460ff1661059b576040517f08c379a000000000000000000000000000000000000000000000000000000000815260040161059290610c45565b60405180910390fd5b5f808281526020019081526020015f206003015f9054906101000a900460ff166105fa576040517f08c379a00000000000000000000000000000000000000000000000000000000081526004016105f19061114c565b60405180910390fd5b5f805f8381526020019081526020015f206003015f6101000a81548160ff021916908315150217905550807f836befde5b8fa385437e2db8fca7bec0d11e8bae35d68b180a9331cb4920203b60405160405180910390a250565b61065c6108c2565b5f808381526020019081526020015f2060030160019054906101000a900460ff166106bc576040517f08c379a00000000000000000000000000000000000000000000000000000000081526004016106b390610c45565b60405180910390fd5b5f808381526020019081526020015f206040518060a00160405290815f820180546106e690610e5d565b80601f016020809104026020016040519081016040528092919081815260200182805461071290610e5d565b801561075d5780601f106107345761010080835404028352916020019161075d565b820191905f5260205f20905b81548152906001019060200180831161074057829003601f168201915b5050505050815260200160018201805461077690610e5d565b80601f01602080910402602001604051908101604052809291908181526020018280546107a290610e5d565b80156107ed5780601f106107c4576101008083540402835291602001916107ed565b820191905f5260205f20905b8154815290600101906020018083116107d057829003601f168201915b5050505050815260200160028201805461080690610e5d565b80601f016020809104026020016040519081016040528092919081815260200182805461083290610e5d565b801561087d5780601f106108545761010080835404028352916020019161087d565b820191905f5260205f20905b81548152906001019060200180831161086057829003601f168201915b50505050508152602001600382015f9054906101000a900460ff161515151581526020016003820160019054906101000a900460ff1615151515815250509050919050565b6040518060a001604052806060815260200160608152602001606081526020015f151581526020015f151581525090565b5f80fd5b5f80fd5b5f819050919050565b61090d816108fb565b8114610917575f80fd5b50565b5f8135905061092881610904565b92915050565b5f60208284031215610943576109426108f3565b5b5f6109508482850161091a565b91505092915050565b5f8115159050919050565b61096d81610959565b82525050565b5f6020820190506109865f830184610964565b92915050565b5f80fd5b5f80fd5b5f80fd5b5f8083601f8401126109ad576109ac61098c565b5b8235905067ffffffffffffffff8111156109ca576109c9610990565b5b6020830191508360018202830111156109e6576109e5610994565b5b9250929050565b5f805f805f805f6080888a031215610a0857610a076108f3565b5b5f610a158a828b0161091a565b975050602088013567ffffffffffffffff811115610a3657610a356108f7565b5b610a428a828b01610998565b9650965050604088013567ffffffffffffffff811115610a6557610a646108f7565b5b610a718a828b01610998565b9450945050606088013567ffffffffffffffff811115610a9457610a936108f7565b5b610aa08a828b01610998565b925092505092959891949750929550565b5f81519050919050565b5f82825260208201905092915050565b5f5b83811015610ae8578082015181840152602081019050610acd565b5f8484015250505050565b5f601f19601f8301169050919050565b5f610b0d82610ab1565b610b178185610abb565b9350610b27818560208601610acb565b610b3081610af3565b840191505092915050565b610b4481610959565b82525050565b5f60a083015f8301518482035f860152610b648282610b03565b91505060208301518482036020860152610b7e8282610b03565b91505060408301518482036040860152610b988282610b03565b9150506060830151610bad6060860182610b3b565b506080830151610bc06080860182610b3b565b508091505092915050565b5f6020820190508181035f830152610be38184610b4a565b905092915050565b5f82825260208201905092915050565b7f52756c65206e6f7420666f756e640000000000000000000000000000000000005f82015250565b5f610c2f600e83610beb565b9150610c3a82610bfb565b602082019050919050565b5f6020820190508181035f830152610c5c81610c23565b9050919050565b7f52756c6520616c726561647920656e61626c65640000000000000000000000005f82015250565b5f610c97601483610beb565b9150610ca282610c63565b602082019050919050565b5f6020820190508181035f830152610cc481610c8b565b9050919050565b7f52756c652049442063616e6e6f74206265207a65726f000000000000000000005f82015250565b5f610cff601683610beb565b9150610d0a82610ccb565b602082019050919050565b5f6020820190508181035f830152610d2c81610cf3565b9050919050565b7f547269676765722063616e6e6f7420626520656d7074790000000000000000005f82015250565b5f610d67601783610beb565b9150610d7282610d33565b602082019050919050565b5f6020820190508181035f830152610d9481610d5b565b9050919050565b7f416374696f6e732063616e6e6f7420626520656d7074790000000000000000005f82015250565b5f610dcf601783610beb565b9150610dda82610d9b565b602082019050919050565b5f6020820190508181035f830152610dfc81610dc3565b9050919050565b7f4e487b71000000000000000000000000000000000000000000000000000000005f52604160045260245ffd5b7f4e487b71000000000000000000000000000000000000000000000000000000005f52602260045260245ffd5b5f6002820490506001821680610e7457607f821691505b602082108103610e8757610e86610e30565b5b50919050565b5f819050815f5260205f209050919050565b5f6020601f8301049050919050565b5f82821b905092915050565b5f60088302610ee97fffffffffffffffffffffffffffffffffffffffffffffffffffffffffffffffff82610eae565b610ef38683610eae565b95508019841693508086168417925050509392505050565b5f819050919050565b5f819050919050565b5f610f37610f32610f2d84610f0b565b610f14565b610f0b565b9050919050565b5f819050919050565b610f5083610f1d565b610f64610f5c82610f3e565b848454610eba565b825550505050565b5f90565b610f78610f6c565b610f83818484610f47565b505050565b5b81811015610fa657610f9b5f82610f70565b600181019050610f89565b5050565b601f821115610feb57610fbc81610e8d565b610fc584610e9f565b81016020851015610fd4578190505b610fe8610fe085610e9f565b830182610f88565b50505b505050565b5f82821c905092915050565b5f61100b5f1984600802610ff0565b1980831691505092915050565b5f6110238383610ffc565b9150826002028217905092915050565b61103c82610ab1565b67ffffffffffffffff81111561105557611054610e03565b5b61105f8254610e5d565b61106a828285610faa565b5f60209050601f83116001811461109b575f8415611089578287015190505b6110938582611018565b8655506110fa565b601f1984166110a986610e8d565b5f5b828110156110d0578489015182556001820191506020850194506020810190506110ab565b868310156110ed57848901516110e9601f891682610ffc565b8355505b6001600288020188555050505b505050505050565b7f52756c6520616c72656164792064697361626c656400000000000000000000005f82015250565b5f611136601583610beb565b915061114182611102565b602082019050919050565b5f6020820190508181035f8301526111638161112a565b905091905056fea26469706673582212206fca80ebb82736d1ec42a26c2f1bf1a4b9d885b5b9229ee3153809626139d07364736f6c63430008140033","linkReferences":{}},"methodIdentifiers":{"defineRule(bytes32,string,string,string)":"36b48a4d","disable(bytes32)":"cf751d81","enable(bytes32)":"1059171e","getRule(bytes32)":"f7cab847","isEnabled(bytes32)":"0610e037"},"id":38}