{"abi":[{"type":"function","name":"createFlagType","inputs":[{"name":"flagType","type":"bytes32","internalType":"bytes32"},{"name":"name","type":"string","internalType":"string"},{"name":"description","type":"string","internalType":"string"}],"outputs":[],"stateMutability":"nonpayable"},{"type":"function","name":"flag","inputs":[{"name":"flagType","type":"bytes32","internalType":"bytes32"},{"name":"userId","type":"bytes32","internalType":"bytes32"},{"name":"entityId","type":"bytes32","internalType":"bytes32"}],"outputs":[],"stateMutability":"nonpayable"},{"type":"function","name":"getCount","inputs":[{"name":"flagType","type":"bytes32","internalType":"bytes32"},{"name":"entityId","type":"bytes32","internalType":"bytes32"}],"outputs":[{"name":"","type":"uint256","internalType":"uint256"}],"stateMutability":"view"},{"type":"function","name":"isFlagged","inputs":[{"name":"flagType","type":"bytes32","internalType":"bytes32"},{"name":"userId","type":"bytes32","internalType":"bytes32"},{"name":"entityId","type":"bytes32","internalType":"bytes32"}],"outputs":[{"name":"","type":"bool","internalType":"bool"}],"stateMutability":"view"},{"type":"function","name":"unflag","inputs":[{"name":"flagType","type":"bytes32","internalType":"bytes32"},{"name":"userId","type":"bytes32","internalType":"bytes32"},{"name":"entityId","type":"bytes32","internalType":"bytes32"}],"outputs":[],"stateMutability":"nonpayable"},{"type":"event","name":"FlagTypeCreated","inputs":[{"name":"flagType","type":"bytes32","indexed":true,"internalType":"bytes32"}],"anonymous":false},{"type":"event","name":"Flagged","inputs":[{"name":"flagType","type":"bytes32","indexed":true,"internalType":"bytes32"},{"name":"userId","type":"bytes32","indexed":true,"internalType":"bytes32"},{"name":"entityId","type":"bytes32","indexed":true,"internalType":"bytes32"}],"anonymous":false},{"type":"event","name":"Unflagged","inputs":[{"name":"flagType","type":"bytes32","indexed":true,"internalType":"bytes32"},{"name":"userId","type":"bytes32","indexed":true,"internalType":"bytes32"},{"name":"entityId","type":"bytes32","indexed":true,"internalType":"bytes32"}],"anonymous":false}],"bytecode":{"object":"0x608060405234801561000f575f80fd5b506110758061001d5f395ff3fe608060405234801561000f575f80fd5b5060043610610055575f3560e01c806324f819d9146100595780635901d7e814610075578063b0fbecba146100a5578063b358da02146100d5578063fa9cde62146100f1575b5f80fd5b610073600480360381019061006e91906107d1565b61010d565b005b61008f600480360381019061008a9190610862565b61032a565b60405161009c91906108b8565b60405180910390f35b6100bf60048036038101906100ba91906108d1565b610354565b6040516100cc919061093b565b60405180910390f35b6100ef60048036038101906100ea91906108d1565b61039a565b005b61010b600480360381019061010691906108d1565b6105ac565b005b5f801b8503610151576040517f08c379a0000000000000000000000000000000000000000000000000000000008152600401610148906109ae565b60405180910390fd5b5f808681526020019081526020015f206002015f9054906101000a900460ff16156101b1576040517f08c379a00000000000000000000000000000000000000000000000000000000081526004016101a890610a16565b60405180910390fd5b5f84849050116101f6576040517f08c379a00000000000000000000000000000000000000000000000000000000081526004016101ed90610a7e565b60405180910390fd5b604051806060016040528085858080601f0160208091040260200160405190810160405280939291908181526020018383808284375f81840152601f19601f82011690508083019250505050505050815260200183838080601f0160208091040260200160405190810160405280939291908181526020018383808284375f81840152601f19601f820116905080830192505050505050508152602001600115158152505f808781526020019081526020015f205f820151815f0190816102bd9190610ccd565b5060208201518160010190816102d39190610ccd565b506040820151816002015f6101000a81548160ff021916908315150217905550905050847f3fb968a712c974837ace99f3161920e3d9da15ee55740f63414eeb4d0f6b571260405160405180910390a25050505050565b5f60025f8481526020019081526020015f205f8381526020019081526020015f2054905092915050565b5f60015f8581526020019081526020015f205f8481526020019081526020015f205f8381526020019081526020015f205f9054906101000a900460ff1690509392505050565b5f808481526020019081526020015f206002015f9054906101000a900460ff166103f9576040517f08c379a00000000000000000000000000000000000000000000000000000000081526004016103f090610de6565b60405180910390fd5b5f801b820361043d576040517f08c379a000000000000000000000000000000000000000000000000000000000815260040161043490610e4e565b60405180910390fd5b5f801b8103610481576040517f08c379a000000000000000000000000000000000000000000000000000000000815260040161047890610eb6565b60405180910390fd5b60015f8481526020019081526020015f205f8381526020019081526020015f205f8281526020019081526020015f205f9054906101000a900460ff16156104fd576040517f08c379a00000000000000000000000000000000000000000000000000000000081526004016104f490610f1e565b60405180910390fd5b6001805f8581526020019081526020015f205f8481526020019081526020015f205f8381526020019081526020015f205f6101000a81548160ff02191690831515021790555060025f8481526020019081526020015f205f8281526020019081526020015f205f81548092919061057390610f69565b91905055508082847f37616c1ddb23a8b3d4a686478894371800109604b25b7022afe04e1a89b7f96a60405160405180910390a4505050565b5f808481526020019081526020015f206002015f9054906101000a900460ff1661060b576040517f08c379a000000000000000000000000000000000000000000000000000000000815260040161060290610de6565b60405180910390fd5b60015f8481526020019081526020015f205f8381526020019081526020015f205f8281526020019081526020015f205f9054906101000a900460ff16610686576040517f08c379a000000000000000000000000000000000000000000000000000000000815260040161067d90610ffa565b60405180910390fd5b5f60015f8581526020019081526020015f205f8481526020019081526020015f205f8381526020019081526020015f205f6101000a81548160ff02191690831515021790555060025f8481526020019081526020015f205f8281526020019081526020015f205f8154809291906106fc90611018565b91905055508082847ff55cfec0634fef70e39c8237f18f259c035fdf524ab4c39075cb2b7503314e9660405160405180910390a4505050565b5f80fd5b5f80fd5b5f819050919050565b61074f8161073d565b8114610759575f80fd5b50565b5f8135905061076a81610746565b92915050565b5f80fd5b5f80fd5b5f80fd5b5f8083601f84011261079157610790610770565b5b8235905067ffffffffffffffff8111156107ae576107ad610774565b5b6020830191508360018202830111156107ca576107c9610778565b5b9250929050565b5f805f805f606086880312156107ea576107e9610735565b5b5f6107f78882890161075c565b955050602086013567ffffffffffffffff81111561081857610817610739565b5b6108248882890161077c565b9450945050604086013567ffffffffffffffff81111561084757610846610739565b5b6108538882890161077c565b92509250509295509295909350565b5f806040838503121561087857610877610735565b5b5f6108858582860161075c565b92505060206108968582860161075c565b9150509250929050565b5f819050919050565b6108b2816108a0565b82525050565b5f6020820190506108cb5f8301846108a9565b92915050565b5f805f606084860312156108e8576108e7610735565b5b5f6108f58682870161075c565b93505060206109068682870161075c565b92505060406109178682870161075c565b9150509250925092565b5f8115159050919050565b61093581610921565b82525050565b5f60208201905061094e5f83018461092c565b92915050565b5f82825260208201905092915050565b7f466c616720747970652063616e6e6f74206265207a65726f00000000000000005f82015250565b5f610998601883610954565b91506109a382610964565b602082019050919050565b5f6020820190508181035f8301526109c58161098c565b9050919050565b7f466c6167207479706520616c72656164792065786973747300000000000000005f82015250565b5f610a00601883610954565b9150610a0b826109cc565b602082019050919050565b5f6020820190508181035f830152610a2d816109f4565b9050919050565b7f4e616d652063616e6e6f7420626520656d7074790000000000000000000000005f82015250565b5f610a68601483610954565b9150610a7382610a34565b602082019050919050565b5f6020820190508181035f830152610a9581610a5c565b9050919050565b5f81519050919050565b7f4e487b71000000000000000000000000000000000000000000000000000000005f52604160045260245ffd5b7f4e487b71000000000000000000000000000000000000000000000000000000005f52602260045260245ffd5b5f6002820490506001821680610b1757607f821691505b602082108103610b2a57610b29610ad3565b5b50919050565b5f819050815f5260205f209050919050565b5f6020601f8301049050919050565b5f82821b905092915050565b5f60088302610b8c7fffffffffffffffffffffffffffffffffffffffffffffffffffffffffffffffff82610b51565b610b968683610b51565b95508019841693508086168417925050509392505050565b5f819050919050565b5f610bd1610bcc610bc7846108a0565b610bae565b6108a0565b9050919050565b5f819050919050565b610bea83610bb7565b610bfe610bf682610bd8565b848454610b5d565b825550505050565b5f90565b610c12610c06565b610c1d818484610be1565b505050565b5b81811015610c4057610c355f82610c0a565b600181019050610c23565b5050565b601f821115610c8557610c5681610b30565b610c5f84610b42565b81016020851015610c6e578190505b610c82610c7a85610b42565b830182610c22565b50505b505050565b5f82821c905092915050565b5f610ca55f1984600802610c8a565b1980831691505092915050565b5f610cbd8383610c96565b9150826002028217905092915050565b610cd682610a9c565b67ffffffffffffffff811115610cef57610cee610aa6565b5b610cf98254610b00565b610d04828285610c44565b5f60209050601f831160018114610d35575f8415610d23578287015190505b610d2d8582610cb2565b865550610d94565b601f198416610d4386610b30565b5f5b82811015610d6a57848901518255600182019150602085019450602081019050610d45565b86831015610d875784890151610d83601f891682610c96565b8355505b6001600288020188555050505b505050505050565b7f466c61672074797065206e6f7420666f756e64000000000000000000000000005f82015250565b5f610dd0601383610954565b9150610ddb82610d9c565b602082019050919050565b5f6020820190508181035f830152610dfd81610dc4565b9050919050565b7f557365722049442063616e6e6f74206265207a65726f000000000000000000005f82015250565b5f610e38601683610954565b9150610e4382610e04565b602082019050919050565b5f6020820190508181035f830152610e6581610e2c565b9050919050565b7f456e746974792049442063616e6e6f74206265207a65726f00000000000000005f82015250565b5f610ea0601883610954565b9150610eab82610e6c565b602082019050919050565b5f6020820190508181035f830152610ecd81610e94565b9050919050565b7f416c726561647920666c616767656400000000000000000000000000000000005f82015250565b5f610f08600f83610954565b9150610f1382610ed4565b602082019050919050565b5f6020820190508181035f830152610f3581610efc565b9050919050565b7f4e487b71000000000000000000000000000000000000000000000000000000005f52601160045260245ffd5b5f610f73826108a0565b91507fffffffffffffffffffffffffffffffffffffffffffffffffffffffffffffffff8203610fa557610fa4610f3c565b5b600182019050919050565b7f4e6f7420666c61676765640000000000000000000000000000000000000000005f82015250565b5f610fe4600b83610954565b9150610fef82610fb0565b602082019050919050565b5f6020820190508181035f83015261101181610fd8565b9050919050565b5f611022826108a0565b91505f820361103457611033610f3c565b5b60018203905091905056fea2646970667358221220e08a7b68c3a4759e3e2aa244fcbb2c89b90514fe7703301c0918cacd94784c7964736f6c63430008140033","linkReferences":{}},"methodIdentifiers":{"createFlagType(bytes32,string,string)":"24f819d9","flag(bytes32,bytes32,bytes32)":"b358da02","getCount(bytes32,bytes32)":"5901d7e8","isFlagged(bytes32,bytes32,bytes32)":"b0fbecba","unflag(bytes32,bytes32,bytes32)":"fa9cde62"},"id":62}