{"abi":[{"type":"function","name":"compute","inputs":[{"name":"unit","type":"string","internalType":"string"},{"name":"algorithm","type":"string","internalType":"string"}],"outputs":[{"name":"digestId","type":"bytes32","internalType":"bytes32"}],"stateMutability":"nonpayable"},{"type":"function","name":"equivalent","inputs":[{"name":"a","type":"string","internalType":"string"},{"name":"b","type":"string","internalType":"string"}],"outputs":[{"name":"","type":"bool","internalType":"bool"}],"stateMutability":"pure"},{"type":"function","name":"getDigest","inputs":[{"name":"digestId","type":"bytes32","internalType":"bytes32"}],"outputs":[{"name":"unit","type":"string","internalType":"string"},{"name":"algorithm","type":"string","internalType":"string"}],"stateMutability":"view"},{"type":"function","name":"lookup","inputs":[{"name":"hash","type":"string","internalType":"string"}],"outputs":[{"name":"units","type":"string","internalType":"string"}],"stateMutability":"view"},{"type":"event","name":"ComputeCompleted","inputs":[{"name":"variant","type":"string","indexed":false,"internalType":"string"},{"name":"digest","type":"bytes32","indexed":false,"internalType":"bytes32"}],"anonymous":false},{"type":"event","name":"EquivalentCompleted","inputs":[{"name":"variant","type":"string","indexed":false,"internalType":"string"}],"anonymous":false},{"type":"event","name":"LookupCompleted","inputs":[{"name":"variant","type":"string","indexed":false,"internalType":"string"}],"anonymous":false}],"bytecode":{"object":"0x608060405234801561000f575f80fd5b506112b18061001d5f395ff3fe608060405234801561000f575f80fd5b506004361061004a575f3560e01c8063262f37961461004e57806332b8c4101461007e578063f67187ac146100ae578063f9613ab2146100de575b5f80fd5b61006860048036038101906100639190610805565b61010f565b6040516100759190610893565b60405180910390f35b61009860048036038101906100939190610805565b6102ef565b6040516100a591906108c6565b60405180910390f35b6100c860048036038101906100c391906108df565b610347565b6040516100d591906109a0565b60405180910390f35b6100f860048036038101906100f391906109ea565b61051e565b604051610106929190610a15565b60405180910390f35b5f80835111610153576040517f08c379a000000000000000000000000000000000000000000000000000000000815260040161014a90610a94565b60405180910390fd5b5f825111610196576040517f08c379a000000000000000000000000000000000000000000000000000000000815260040161018d90610afc565b60405180910390fd5b82826040516020016101a9929190610b54565b6040516020818303038152906040528051906020012090506040518060800160405280848152602001838152602001428152602001600115158152505f808381526020019081526020015f205f820151815f0190816102089190610d7a565b50602082015181600101908161021e9190610d7a565b50604082015181600201556060820151816003015f6101000a81548160ff0219169083151502179055509050505f8360405160200161025d9190610e49565b6040516020818303038152906040528051906020012090508160025f8381526020019081526020015f2081905550600182908060018154018082558091505060019003905f5260205f20015f90919091909150557fb2780fe19a53d270ce611e3f27883713bfc3b47789c2231190ee5bbbfff3a287826040516102e09190610ea9565b60405180910390a15092915050565b5f816040516020016103019190610e49565b60405160208183030381529060405280519060200120836040516020016103289190610e49565b6040516020818303038152906040528051906020012014905092915050565b60605f82511161038c576040517f08c379a000000000000000000000000000000000000000000000000000000000815260040161038390610f1f565b60405180910390fd5b5f8260405160200161039e9190610e49565b60405160208183030381529060405280519060200120905060605f805b6001805490508110156104f3575f600182815481106103dd576103dc610f3d565b5b905f5260205f20015490505f808281526020019081526020015f206003015f9054906101000a900460ff16156104df575f805f8381526020019081526020015f205f015f808481526020019081526020015f20600101604051602001610444929190610fea565b6040516020818303038152906040528051906020012090508581148061046957508582145b156104dd575f8411156104995784604051602001610487919061109b565b60405160208183030381529060405294505b845f808481526020019081526020015f205f016040516020016104bd9291906110bc565b604051602081830303815290604052945083806104d99061110c565b9450505b505b5080806104eb9061110c565b9150506103bb565b508160405160200161050591906111e7565b6040516020818303038152906040529350505050919050565b6060805f808481526020019081526020015f206003015f9054906101000a900460ff16610580576040517f08c379a00000000000000000000000000000000000000000000000000000000081526004016105779061125d565b60405180910390fd5b5f805f8581526020019081526020015f209050805f01816001018180546105a690610ba4565b80601f01602080910402602001604051908101604052809291908181526020018280546105d290610ba4565b801561061d5780601f106105f45761010080835404028352916020019161061d565b820191905f5260205f20905b81548152906001019060200180831161060057829003601f168201915b5050505050915080805461063090610ba4565b80601f016020809104026020016040519081016040528092919081815260200182805461065c90610ba4565b80156106a75780601f1061067e576101008083540402835291602001916106a7565b820191905f5260205f20905b81548152906001019060200180831161068a57829003601f168201915b505050505090509250925050915091565b5f604051905090565b5f80fd5b5f80fd5b5f80fd5b5f80fd5b5f601f19601f8301169050919050565b7f4e487b71000000000000000000000000000000000000000000000000000000005f52604160045260245ffd5b610717826106d1565b810181811067ffffffffffffffff82111715610736576107356106e1565b5b80604052505050565b5f6107486106b8565b9050610754828261070e565b919050565b5f67ffffffffffffffff821115610773576107726106e1565b5b61077c826106d1565b9050602081019050919050565b828183375f83830152505050565b5f6107a96107a484610759565b61073f565b9050828152602081018484840111156107c5576107c46106cd565b5b6107d0848285610789565b509392505050565b5f82601f8301126107ec576107eb6106c9565b5b81356107fc848260208601610797565b91505092915050565b5f806040838503121561081b5761081a6106c1565b5b5f83013567ffffffffffffffff811115610838576108376106c5565b5b610844858286016107d8565b925050602083013567ffffffffffffffff811115610865576108646106c5565b5b610871858286016107d8565b9150509250929050565b5f819050919050565b61088d8161087b565b82525050565b5f6020820190506108a65f830184610884565b92915050565b5f8115159050919050565b6108c0816108ac565b82525050565b5f6020820190506108d95f8301846108b7565b92915050565b5f602082840312156108f4576108f36106c1565b5b5f82013567ffffffffffffffff811115610911576109106106c5565b5b61091d848285016107d8565b91505092915050565b5f81519050919050565b5f82825260208201905092915050565b5f5b8381101561095d578082015181840152602081019050610942565b5f8484015250505050565b5f61097282610926565b61097c8185610930565b935061098c818560208601610940565b610995816106d1565b840191505092915050565b5f6020820190508181035f8301526109b88184610968565b905092915050565b6109c98161087b565b81146109d3575f80fd5b50565b5f813590506109e4816109c0565b92915050565b5f602082840312156109ff576109fe6106c1565b5b5f610a0c848285016109d6565b91505092915050565b5f6040820190508181035f830152610a2d8185610968565b90508181036020830152610a418184610968565b90509392505050565b7f556e69742063616e6e6f7420626520656d7074790000000000000000000000005f82015250565b5f610a7e601483610930565b9150610a8982610a4a565b602082019050919050565b5f6020820190508181035f830152610aab81610a72565b9050919050565b7f416c676f726974686d2063616e6e6f7420626520656d707479000000000000005f82015250565b5f610ae6601983610930565b9150610af182610ab2565b602082019050919050565b5f6020820190508181035f830152610b1381610ada565b9050919050565b5f81905092915050565b5f610b2e82610926565b610b388185610b1a565b9350610b48818560208601610940565b80840191505092915050565b5f610b5f8285610b24565b9150610b6b8284610b24565b91508190509392505050565b7f4e487b71000000000000000000000000000000000000000000000000000000005f52602260045260245ffd5b5f6002820490506001821680610bbb57607f821691505b602082108103610bce57610bcd610b77565b5b50919050565b5f819050815f5260205f209050919050565b5f6020601f8301049050919050565b5f82821b905092915050565b5f60088302610c307fffffffffffffffffffffffffffffffffffffffffffffffffffffffffffffffff82610bf5565b610c3a8683610bf5565b95508019841693508086168417925050509392505050565b5f819050919050565b5f819050919050565b5f610c7e610c79610c7484610c52565b610c5b565b610c52565b9050919050565b5f819050919050565b610c9783610c64565b610cab610ca382610c85565b848454610c01565b825550505050565b5f90565b610cbf610cb3565b610cca818484610c8e565b505050565b5b81811015610ced57610ce25f82610cb7565b600181019050610cd0565b5050565b601f821115610d3257610d0381610bd4565b610d0c84610be6565b81016020851015610d1b578190505b610d2f610d2785610be6565b830182610ccf565b50505b505050565b5f82821c905092915050565b5f610d525f1984600802610d37565b1980831691505092915050565b5f610d6a8383610d43565b9150826002028217905092915050565b610d8382610926565b67ffffffffffffffff811115610d9c57610d9b6106e1565b5b610da68254610ba4565b610db1828285610cf1565b5f60209050601f831160018114610de2575f8415610dd0578287015190505b610dda8582610d5f565b865550610e41565b601f198416610df086610bd4565b5f5b82811015610e1757848901518255600182019150602085019450602081019050610df2565b86831015610e345784890151610e30601f891682610d43565b8355505b6001600288020188555050505b505050505050565b5f610e548284610b24565b915081905092915050565b7f6f6b0000000000000000000000000000000000000000000000000000000000005f82015250565b5f610e93600283610930565b9150610e9e82610e5f565b602082019050919050565b5f6040820190508181035f830152610ec081610e87565b9050610ecf6020830184610884565b92915050565b7f486173682063616e6e6f7420626520656d7074790000000000000000000000005f82015250565b5f610f09601483610930565b9150610f1482610ed5565b602082019050919050565b5f6020820190508181035f830152610f3681610efd565b9050919050565b7f4e487b71000000000000000000000000000000000000000000000000000000005f52603260045260245ffd5b5f8154610f7681610ba4565b610f808186610b1a565b9450600182165f8114610f9a5760018114610faf57610fe1565b60ff1983168652811515820286019350610fe1565b610fb885610bd4565b5f5b83811015610fd957815481890152600182019150602081019050610fba565b838801955050505b50505092915050565b5f610ff58285610f6a565b91506110018284610f6a565b91508190509392505050565b5f81519050919050565b5f81905092915050565b5f61102b8261100d565b6110358185611017565b9350611045818560208601610940565b80840191505092915050565b7f2c000000000000000000000000000000000000000000000000000000000000005f82015250565b5f611085600183610b1a565b915061109082611051565b600182019050919050565b5f6110a68284611021565b91506110b182611079565b915081905092915050565b5f6110c78285611021565b91506110d38284610f6a565b91508190509392505050565b7f4e487b71000000000000000000000000000000000000000000000000000000005f52601160045260245ffd5b5f61111682610c52565b91507fffffffffffffffffffffffffffffffffffffffffffffffffffffffffffffffff8203611148576111476110df565b5b600182019050919050565b7f5b000000000000000000000000000000000000000000000000000000000000005f82015250565b5f611187600183610b1a565b915061119282611153565b600182019050919050565b7f5d000000000000000000000000000000000000000000000000000000000000005f82015250565b5f6111d1600183610b1a565b91506111dc8261119d565b600182019050919050565b5f6111f18261117b565b91506111fd8284611021565b9150611208826111c5565b915081905092915050565b7f446967657374206e6f7420666f756e64000000000000000000000000000000005f82015250565b5f611247601083610930565b915061125282611213565b602082019050919050565b5f6020820190508181035f8301526112748161123b565b905091905056fea2646970667358221220ab6892f2ffab684383fd9c1ad014852520d876c14c9bbe6b085ada9b1956381a64736f6c63430008140033","linkReferences":{}},"methodIdentifiers":{"compute(string,string)":"262f3796","equivalent(string,string)":"32b8c410","getDigest(bytes32)":"f9613ab2","lookup(string)":"f67187ac"},"id":77}