{"abi":[{"type":"function","name":"applyStack","inputs":[{"name":"stack","type":"bytes32","internalType":"bytes32"}],"outputs":[{"name":"","type":"tuple","internalType":"struct CloudFormationProvider.ApplyOkResult","components":[{"name":"success","type":"bool","internalType":"bool"},{"name":"stack","type":"bytes32","internalType":"bytes32"},{"name":"stackId","type":"string","internalType":"string"},{"name":"created","type":"string[]","internalType":"string[]"},{"name":"updated","type":"string[]","internalType":"string[]"}]}],"stateMutability":"nonpayable"},{"type":"function","name":"generate","inputs":[{"name":"plan","type":"string","internalType":"string"}],"outputs":[{"name":"","type":"tuple","internalType":"struct CloudFormationProvider.GenerateOkResult","components":[{"name":"success","type":"bool","internalType":"bool"},{"name":"stack","type":"bytes32","internalType":"bytes32"},{"name":"files","type":"string[]","internalType":"string[]"}]}],"stateMutability":"nonpayable"},{"type":"function","name":"preview","inputs":[{"name":"stack","type":"bytes32","internalType":"bytes32"}],"outputs":[{"name":"","type":"tuple","internalType":"struct CloudFormationProvider.PreviewOkResult","components":[{"name":"success","type":"bool","internalType":"bool"},{"name":"stack","type":"bytes32","internalType":"bytes32"},{"name":"changeSetId","type":"string","internalType":"string"},{"name":"toCreate","type":"int256","internalType":"int256"},{"name":"toUpdate","type":"int256","internalType":"int256"},{"name":"toDelete","type":"int256","internalType":"int256"}]}],"stateMutability":"nonpayable"},{"type":"function","name":"register","inputs":[],"outputs":[{"name":"name","type":"string","internalType":"string"},{"name":"category","type":"string","internalType":"string"},{"name":"capabilities","type":"string[]","internalType":"string[]"}],"stateMutability":"pure"},{"type":"function","name":"teardown","inputs":[{"name":"stack","type":"bytes32","internalType":"bytes32"}],"outputs":[{"name":"","type":"tuple","internalType":"struct CloudFormationProvider.TeardownOkResult","components":[{"name":"success","type":"bool","internalType":"bool"},{"name":"stack","type":"bytes32","internalType":"bytes32"},{"name":"destroyed","type":"string[]","internalType":"string[]"}]}],"stateMutability":"nonpayable"},{"type":"event","name":"ApplyCompleted","inputs":[{"name":"variant","type":"string","indexed":false,"internalType":"string"},{"name":"stack","type":"bytes32","indexed":false,"internalType":"bytes32"},{"name":"created","type":"string[]","indexed":false,"internalType":"string[]"},{"name":"updated","type":"string[]","indexed":false,"internalType":"string[]"},{"name":"failed","type":"string[]","indexed":false,"internalType":"string[]"},{"name":"required","type":"string[]","indexed":false,"internalType":"string[]"}],"anonymous":false},{"type":"event","name":"GenerateCompleted","inputs":[{"name":"variant","type":"string","indexed":false,"internalType":"string"},{"name":"stack","type":"bytes32","indexed":false,"internalType":"bytes32"},{"name":"files","type":"string[]","indexed":false,"internalType":"string[]"}],"anonymous":false},{"type":"event","name":"PreviewCompleted","inputs":[{"name":"variant","type":"string","indexed":false,"internalType":"string"},{"name":"stack","type":"bytes32","indexed":false,"internalType":"bytes32"},{"name":"toCreate","type":"int256","indexed":false,"internalType":"int256"},{"name":"toUpdate","type":"int256","indexed":false,"internalType":"int256"},{"name":"toDelete","type":"int256","indexed":false,"internalType":"int256"}],"anonymous":false},{"type":"event","name":"TeardownCompleted","inputs":[{"name":"variant","type":"string","indexed":false,"internalType":"string"},{"name":"stack","type":"bytes32","indexed":false,"internalType":"bytes32"},{"name":"destroyed","type":"string[]","indexed":false,"internalType":"string[]"}],"anonymous":false}],"bytecode":{"object":"0x608060405234801561000f575f80fd5b50611f5f8061001d5f395ff3fe608060405234801561000f575f80fd5b5060043610610055575f3560e01c80631aa3a0081461005957806331a30ea01461007957806332752c85146100a957806349cd8061146100d9578063c3d670fe14610109575b5f80fd5b610061610139565b60405161007093929190611009565b60405180910390f35b610093600480360381019061008e9190611097565b610357565b6040516100a09190611189565b60405180910390f35b6100c360048036038101906100be9190611097565b61045e565b6040516100d09190611279565b60405180910390f35b6100f360048036038101906100ee9190611097565b610646565b604051610100919061131a565b60405180910390f35b610123600480360381019061011e9190611466565b6108da565b60405161013091906114fa565b60405180910390f35b60608060606040518060400160405280600e81526020017f636c6f7564666f726d6174696f6e00000000000000000000000000000000000081525092506040518060400160405280600381526020017f69616300000000000000000000000000000000000000000000000000000000008152509150600467ffffffffffffffff8111156101c9576101c8611342565b5b6040519080825280602002602001820160405280156101fc57816020015b60608152602001906001900390816101e75790505b5090506040518060400160405280600881526020017f67656e6572617465000000000000000000000000000000000000000000000000815250815f815181106102485761024761151a565b5b60200260200101819052506040518060400160405280600781526020017f70726576696577000000000000000000000000000000000000000000000000008152508160018151811061029d5761029c61151a565b5b60200260200101819052506040518060400160405280600581526020017f6170706c79000000000000000000000000000000000000000000000000000000815250816002815181106102f2576102f161151a565b5b60200260200101819052506040518060400160405280600881526020017f74656172646f776e000000000000000000000000000000000000000000000000815250816003815181106103475761034661151a565b5b6020026020010181905250909192565b61035f610d37565b60015f8381526020019081526020015f205f9054906101000a900460ff166103bc576040517f08c379a00000000000000000000000000000000000000000000000000000000081526004016103b390611591565b60405180910390fd5b5f6103c683610b5e565b6040516020016103d69190611633565b60405160208183030381529060405290507f6afb49f6679b902f52f349e5e13c22bab06e51020e3b76925d515efa017b3f0a8360015f8060405161041d94939291906116bc565b60405180910390a16040518060c00160405280600115158152602001848152602001828152602001600181526020015f81526020015f815250915050919050565b610466610d6d565b60015f8381526020019081526020015f205f9054906101000a900460ff166104c3576040517f08c379a00000000000000000000000000000000000000000000000000000000081526004016104ba9061175c565b60405180910390fd5b5f600167ffffffffffffffff8111156104df576104de611342565b5b60405190808252806020026020018201604052801561051257816020015b60608152602001906001900390816104fd5790505b5090506040518060400160405280601581526020017f4157533a3a4c616d6264613a3a46756e6374696f6e0000000000000000000000815250815f8151811061055e5761055d61151a565b5b60200260200101819052505f60015f8581526020019081526020015f205f6101000a81548160ff0219169083151502179055505f808481526020019081526020015f205f6105ac9190610d91565b60035f8481526020019081526020015f205f6101000a81549060ff021916905560045f8481526020019081526020015f205f6105e89190610dce565b7e6c8bc964aec81b5e6cfed49a4c2450aa85d712c84ac472fb04a6cec5bd0763838260405161061892919061177a565b60405180910390a1604051806060016040528060011515815260200184815260200182815250915050919050565b61064e610e0b565b60015f8381526020019081526020015f205f9054906101000a900460ff166106ab576040517f08c379a00000000000000000000000000000000000000000000000000000000081526004016106a290611591565b60405180910390fd5b600160035f8481526020019081526020015f205f6101000a81548160ff0219169083151502179055505f6106de83610b5e565b6040516020016106ee919061182b565b60405160208183030381529060405290508060045f8581526020019081526020015f20908161071d9190611a4f565b505f600167ffffffffffffffff81111561073a57610739611342565b5b60405190808252806020026020018201604052801561076d57816020015b60608152602001906001900390816107585790505b5090506040518060400160405280601581526020017f4157533a3a4c616d6264613a3a46756e6374696f6e0000000000000000000000815250815f815181106107b9576107b861151a565b5b60200260200101819052505f8067ffffffffffffffff8111156107df576107de611342565b5b60405190808252806020026020018201604052801561081257816020015b60608152602001906001900390816107fd5790505b5090505f8067ffffffffffffffff8111156108305761082f611342565b5b60405190808252806020026020018201604052801561086357816020015b606081526020019060019003908161084e5790505b5090507f0fbe444e044cd8372c708ea10261bfb372cdf04ac577e721b31790e84c29b6f7868484848560405161089d959493929190611b1e565b60405180910390a16040518060a0016040528060011515815260200187815260200185815260200184815260200183815250945050505050919050565b6108e2610e3d565b5f825111610925576040517f08c379a000000000000000000000000000000000000000000000000000000000815260040161091c90611be8565b60405180910390fd5b5f82423360405160200161093b93929190611c9b565b6040516020818303038152906040528051906020012090508242604051602001610966929190611ce2565b6040516020818303038152906040525f808381526020019081526020015f2090816109919190611d72565b5060015f8281526020019081526020015f205f9054906101000a900460ff16610a03576001805f8381526020019081526020015f205f6101000a81548160ff021916908315150217905550600281908060018154018082558091505060019003905f5260205f20015f90919091909150555b5f600267ffffffffffffffff811115610a1f57610a1e611342565b5b604051908082528060200260200182016040528015610a5257816020015b6060815260200190600190039081610a3d5790505b5090506040518060400160405280600d81526020017f74656d706c6174652e79616d6c00000000000000000000000000000000000000815250815f81518110610a9e57610a9d61151a565b5b60200260200101819052506040518060400160405280600f81526020017f706172616d65746572732e6a736f6e000000000000000000000000000000000081525081600181518110610af357610af261151a565b5b60200260200101819052507f0da97dbf1aebb3e58f3b32b67a8ac71e19e73bb343e3d7daac7c1a8a432f6d1b8282604051610b2f92919061177a565b60405180910390a160405180606001604052806001151581526020018381526020018281525092505050919050565b60605f6040518060400160405280601081526020017f303132333435363738396162636465660000000000000000000000000000000081525090505f600867ffffffffffffffff811115610bb557610bb4611342565b5b6040519080825280601f01601f191660200182016040528015610be75781602001600182028036833780820191505090505b5090505f5b6004811015610d2c57826004868360208110610c0b57610c0a61151a565b5b1a60f81b60f81c60ff16901c60ff1681518110610c2b57610c2a61151a565b5b602001015160f81c60f81b82600283610c449190611e6e565b81518110610c5557610c5461151a565b5b60200101907effffffffffffffffffffffffffffffffffffffffffffffffffffffffffffff191690815f1a90535082600f868360208110610c9957610c9861151a565b5b1a60f81b60f81c1660ff1681518110610cb557610cb461151a565b5b602001015160f81c60f81b826001600284610cd09190611e6e565b610cda9190611eaf565b81518110610ceb57610cea61151a565b5b60200101907effffffffffffffffffffffffffffffffffffffffffffffffffffffffffffff191690815f1a9053508080610d2490611ee2565b915050610bec565b508092505050919050565b6040518060c001604052805f151581526020015f8019168152602001606081526020015f81526020015f81526020015f81525090565b60405180606001604052805f151581526020015f8019168152602001606081525090565b508054610d9d90611879565b5f825580601f10610dae5750610dcb565b601f0160209004905f5260205f2090810190610dca9190610e61565b5b50565b508054610dda90611879565b5f825580601f10610deb5750610e08565b601f0160209004905f5260205f2090810190610e079190610e61565b5b50565b6040518060a001604052805f151581526020015f80191681526020016060815260200160608152602001606081525090565b60405180606001604052805f151581526020015f8019168152602001606081525090565b5b80821115610e78575f815f905550600101610e62565b5090565b5f81519050919050565b5f82825260208201905092915050565b5f5b83811015610eb3578082015181840152602081019050610e98565b5f8484015250505050565b5f601f19601f8301169050919050565b5f610ed882610e7c565b610ee28185610e86565b9350610ef2818560208601610e96565b610efb81610ebe565b840191505092915050565b5f81519050919050565b5f82825260208201905092915050565b5f819050602082019050919050565b5f82825260208201905092915050565b5f610f4982610e7c565b610f538185610f2f565b9350610f63818560208601610e96565b610f6c81610ebe565b840191505092915050565b5f610f828383610f3f565b905092915050565b5f602082019050919050565b5f610fa082610f06565b610faa8185610f10565b935083602082028501610fbc85610f20565b805f5b85811015610ff75784840389528151610fd88582610f77565b9450610fe383610f8a565b925060208a01995050600181019050610fbf565b50829750879550505050505092915050565b5f6060820190508181035f8301526110218186610ece565b905081810360208301526110358185610ece565b905081810360408301526110498184610f96565b9050949350505050565b5f604051905090565b5f80fd5b5f80fd5b5f819050919050565b61107681611064565b8114611080575f80fd5b50565b5f813590506110918161106d565b92915050565b5f602082840312156110ac576110ab61105c565b5b5f6110b984828501611083565b91505092915050565b5f8115159050919050565b6110d6816110c2565b82525050565b6110e581611064565b82525050565b5f819050919050565b6110fd816110eb565b82525050565b5f60c083015f8301516111185f8601826110cd565b50602083015161112b60208601826110dc565b50604083015184820360408601526111438282610f3f565b915050606083015161115860608601826110f4565b50608083015161116b60808601826110f4565b5060a083015161117e60a08601826110f4565b508091505092915050565b5f6020820190508181035f8301526111a18184611103565b905092915050565b5f82825260208201905092915050565b5f6111c382610f06565b6111cd81856111a9565b9350836020820285016111df85610f20565b805f5b8581101561121a57848403895281516111fb8582610f77565b945061120683610f8a565b925060208a019950506001810190506111e2565b50829750879550505050505092915050565b5f606083015f8301516112415f8601826110cd565b50602083015161125460208601826110dc565b506040830151848203604086015261126c82826111b9565b9150508091505092915050565b5f6020820190508181035f830152611291818461122c565b905092915050565b5f60a083015f8301516112ae5f8601826110cd565b5060208301516112c160208601826110dc565b50604083015184820360408601526112d98282610f3f565b915050606083015184820360608601526112f382826111b9565b9150506080830151848203608086015261130d82826111b9565b9150508091505092915050565b5f6020820190508181035f8301526113328184611299565b905092915050565b5f80fd5b5f80fd5b7f4e487b71000000000000000000000000000000000000000000000000000000005f52604160045260245ffd5b61137882610ebe565b810181811067ffffffffffffffff8211171561139757611396611342565b5b80604052505050565b5f6113a9611053565b90506113b5828261136f565b919050565b5f67ffffffffffffffff8211156113d4576113d3611342565b5b6113dd82610ebe565b9050602081019050919050565b828183375f83830152505050565b5f61140a611405846113ba565b6113a0565b9050828152602081018484840111156114265761142561133e565b5b6114318482856113ea565b509392505050565b5f82601f83011261144d5761144c61133a565b5b813561145d8482602086016113f8565b91505092915050565b5f6020828403121561147b5761147a61105c565b5b5f82013567ffffffffffffffff81111561149857611497611060565b5b6114a484828501611439565b91505092915050565b5f606083015f8301516114c25f8601826110cd565b5060208301516114d560208601826110dc565b50604083015184820360408601526114ed82826111b9565b9150508091505092915050565b5f6020820190508181035f83015261151281846114ad565b905092915050565b7f4e487b71000000000000000000000000000000000000000000000000000000005f52603260045260245ffd5b7f537461636b206e6f7420666f756e64202d2067656e65726174652066697273745f82015250565b5f61157b602083610e86565b915061158682611547565b602082019050919050565b5f6020820190508181035f8301526115a88161156f565b9050919050565b5f81905092915050565b7f63732d00000000000000000000000000000000000000000000000000000000005f82015250565b5f6115ed6003836115af565b91506115f8826115b9565b600382019050919050565b5f61160d82610e7c565b61161781856115af565b9350611627818560208601610e96565b80840191505092915050565b5f61163d826115e1565b91506116498284611603565b915081905092915050565b7f6f6b0000000000000000000000000000000000000000000000000000000000005f82015250565b5f611688600283610e86565b915061169382611654565b602082019050919050565b6116a781611064565b82525050565b6116b6816110eb565b82525050565b5f60a0820190508181035f8301526116d38161167c565b90506116e2602083018761169e565b6116ef60408301866116ad565b6116fc60608301856116ad565b61170960808301846116ad565b95945050505050565b7f537461636b206e6f7420666f756e6400000000000000000000000000000000005f82015250565b5f611746600f83610e86565b915061175182611712565b602082019050919050565b5f6020820190508181035f8301526117738161173a565b9050919050565b5f6060820190508181035f8301526117918161167c565b90506117a0602083018561169e565b81810360408301526117b28184610f96565b90509392505050565b7f61726e3a6177733a636c6f7564666f726d6174696f6e3a75732d656173742d315f8201527f3a3030303030303030303030303a737461636b2f000000000000000000000000602082015250565b5f6118156034836115af565b9150611820826117bb565b603482019050919050565b5f61183582611809565b91506118418284611603565b915081905092915050565b7f4e487b71000000000000000000000000000000000000000000000000000000005f52602260045260245ffd5b5f600282049050600182168061189057607f821691505b6020821081036118a3576118a261184c565b5b50919050565b5f819050815f5260205f209050919050565b5f6020601f8301049050919050565b5f82821b905092915050565b5f600883026119057fffffffffffffffffffffffffffffffffffffffffffffffffffffffffffffffff826118ca565b61190f86836118ca565b95508019841693508086168417925050509392505050565b5f819050919050565b5f819050919050565b5f61195361194e61194984611927565b611930565b611927565b9050919050565b5f819050919050565b61196c83611939565b6119806119788261195a565b8484546118d6565b825550505050565b5f90565b611994611988565b61199f818484611963565b505050565b5b818110156119c2576119b75f8261198c565b6001810190506119a5565b5050565b601f821115611a07576119d8816118a9565b6119e1846118bb565b810160208510156119f0578190505b611a046119fc856118bb565b8301826119a4565b50505b505050565b5f82821c905092915050565b5f611a275f1984600802611a0c565b1980831691505092915050565b5f611a3f8383611a18565b9150826002028217905092915050565b611a5882610e7c565b67ffffffffffffffff811115611a7157611a70611342565b5b611a7b8254611879565b611a868282856119c6565b5f60209050601f831160018114611ab7575f8415611aa5578287015190505b611aaf8582611a34565b865550611b16565b601f198416611ac5866118a9565b5f5b82811015611aec57848901518255600182019150602085019450602081019050611ac7565b86831015611b095784890151611b05601f891682611a18565b8355505b6001600288020188555050505b505050505050565b5f60c0820190508181035f830152611b358161167c565b9050611b44602083018861169e565b8181036040830152611b568187610f96565b90508181036060830152611b6a8186610f96565b90508181036080830152611b7e8185610f96565b905081810360a0830152611b928184610f96565b90509695505050505050565b7f506c616e206d757374206e6f7420626520656d707479000000000000000000005f82015250565b5f611bd2601683610e86565b9150611bdd82611b9e565b602082019050919050565b5f6020820190508181035f830152611bff81611bc6565b9050919050565b5f819050919050565b611c20611c1b82611927565b611c06565b82525050565b5f73ffffffffffffffffffffffffffffffffffffffff82169050919050565b5f611c4f82611c26565b9050919050565b5f8160601b9050919050565b5f611c6c82611c56565b9050919050565b5f611c7d82611c62565b9050919050565b611c95611c9082611c45565b611c73565b82525050565b5f611ca68286611603565b9150611cb28285611c0f565b602082019150611cc28284611c84565b601482019150819050949350505050565b611cdc81611927565b82525050565b5f6040820190508181035f830152611cfa8185610ece565b9050611d096020830184611cd3565b9392505050565b5f81519050919050565b5f819050815f5260205f209050919050565b601f821115611d6d57611d3e81611d1a565b611d47846118bb565b81016020851015611d56578190505b611d6a611d62856118bb565b8301826119a4565b50505b505050565b611d7b82611d10565b67ffffffffffffffff811115611d9457611d93611342565b5b611d9e8254611879565b611da9828285611d2c565b5f60209050601f831160018114611dda575f8415611dc8578287015190505b611dd28582611a34565b865550611e39565b601f198416611de886611d1a565b5f5b82811015611e0f57848901518255600182019150602085019450602081019050611dea565b86831015611e2c5784890151611e28601f891682611a18565b8355505b6001600288020188555050505b505050505050565b7f4e487b71000000000000000000000000000000000000000000000000000000005f52601160045260245ffd5b5f611e7882611927565b9150611e8383611927565b9250828202611e9181611927565b91508282048414831517611ea857611ea7611e41565b5b5092915050565b5f611eb982611927565b9150611ec483611927565b9250828201905080821115611edc57611edb611e41565b5b92915050565b5f611eec82611927565b91507fffffffffffffffffffffffffffffffffffffffffffffffffffffffffffffffff8203611f1e57611f1d611e41565b5b60018201905091905056fea2646970667358221220d745b124a36147f7506d358403461361aa396bad16272ae3648fe21241fa3d1a64736f6c63430008140033","linkReferences":{}},"methodIdentifiers":{"applyStack(bytes32)":"49cd8061","generate(string)":"c3d670fe","preview(bytes32)":"31a30ea0","register()":"1aa3a008","teardown(bytes32)":"32752c85"},"id":56}