{"abi":[{"type":"function","name":"findByConcept","inputs":[{"name":"concept","type":"string","internalType":"string"}],"outputs":[{"name":"","type":"tuple","internalType":"struct ActionEntity.FindByConceptOkResult","components":[{"name":"success","type":"bool","internalType":"bool"},{"name":"actions","type":"string","internalType":"string"}]}],"stateMutability":"nonpayable"},{"type":"function","name":"get","inputs":[{"name":"action","type":"bytes32","internalType":"bytes32"}],"outputs":[{"name":"","type":"tuple","internalType":"struct ActionEntity.GetOkResult","components":[{"name":"success","type":"bool","internalType":"bool"},{"name":"action","type":"bytes32","internalType":"bytes32"},{"name":"concept","type":"string","internalType":"string"},{"name":"name","type":"string","internalType":"string"},{"name":"params","type":"string","internalType":"string"},{"name":"variantCount","type":"int256","internalType":"int256"}]}],"stateMutability":"nonpayable"},{"type":"function","name":"implementations","inputs":[{"name":"action","type":"bytes32","internalType":"bytes32"}],"outputs":[{"name":"","type":"tuple","internalType":"struct ActionEntity.ImplementationsOkResult","components":[{"name":"success","type":"bool","internalType":"bool"},{"name":"symbols","type":"string","internalType":"string"}]}],"stateMutability":"nonpayable"},{"type":"function","name":"interfaceExposures","inputs":[{"name":"action","type":"bytes32","internalType":"bytes32"}],"outputs":[{"name":"","type":"tuple","internalType":"struct ActionEntity.InterfaceExposuresOkResult","components":[{"name":"success","type":"bool","internalType":"bool"},{"name":"exposures","type":"string","internalType":"string"}]}],"stateMutability":"nonpayable"},{"type":"function","name":"invokingSyncs","inputs":[{"name":"action","type":"bytes32","internalType":"bytes32"}],"outputs":[{"name":"","type":"tuple","internalType":"struct ActionEntity.InvokingSyncsOkResult","components":[{"name":"success","type":"bool","internalType":"bool"},{"name":"syncs","type":"string","internalType":"string"}]}],"stateMutability":"nonpayable"},{"type":"function","name":"register","inputs":[{"name":"concept","type":"string","internalType":"string"},{"name":"name","type":"string","internalType":"string"},{"name":"params","type":"string","internalType":"string"},{"name":"variantRefs","type":"string","internalType":"string"}],"outputs":[{"name":"","type":"tuple","internalType":"struct ActionEntity.RegisterOkResult","components":[{"name":"success","type":"bool","internalType":"bool"},{"name":"action","type":"bytes32","internalType":"bytes32"}]}],"stateMutability":"nonpayable"},{"type":"function","name":"triggeringSyncs","inputs":[{"name":"action","type":"bytes32","internalType":"bytes32"}],"outputs":[{"name":"","type":"tuple","internalType":"struct ActionEntity.TriggeringSyncsOkResult","components":[{"name":"success","type":"bool","internalType":"bool"},{"name":"syncs","type":"string","internalType":"string"}]}],"stateMutability":"nonpayable"},{"type":"event","name":"FindByConceptCompleted","inputs":[{"name":"variant","type":"string","indexed":false,"internalType":"string"}],"anonymous":false},{"type":"event","name":"GetCompleted","inputs":[{"name":"variant","type":"string","indexed":false,"internalType":"string"},{"name":"action","type":"bytes32","indexed":false,"internalType":"bytes32"},{"name":"variantCount","type":"int256","indexed":false,"internalType":"int256"}],"anonymous":false},{"type":"event","name":"ImplementationsCompleted","inputs":[{"name":"variant","type":"string","indexed":false,"internalType":"string"}],"anonymous":false},{"type":"event","name":"InterfaceExposuresCompleted","inputs":[{"name":"variant","type":"string","indexed":false,"internalType":"string"}],"anonymous":false},{"type":"event","name":"InvokingSyncsCompleted","inputs":[{"name":"variant","type":"string","indexed":false,"internalType":"string"}],"anonymous":false},{"type":"event","name":"RegisterCompleted","inputs":[{"name":"variant","type":"string","indexed":false,"internalType":"string"},{"name":"action","type":"bytes32","indexed":false,"internalType":"bytes32"}],"anonymous":false},{"type":"event","name":"TriggeringSyncsCompleted","inputs":[{"name":"variant","type":"string","indexed":false,"internalType":"string"}],"anonymous":false}],"bytecode":{"object":"0x608060405234801561000f575f80fd5b50611ba48061001d5f395ff3fe608060405234801561000f575f80fd5b506004361061007b575f3560e01c80634cee8c1d116100595780634cee8c1d1461010f5780636531db351461013f5780638bab65581461016f5780638eaa6ac01461019f5761007b565b806302cfeaca1461007f5780630e24c52c146100af57806338013712146100df575b5f80fd5b61009960048036038101906100949190610de5565b6101cf565b6040516100a69190610eee565b60405180910390f35b6100c960048036038101906100c4919061103a565b610298565b6040516100d6919061114a565b60405180910390f35b6100f960048036038101906100f49190610de5565b610544565b604051610106919061119d565b60405180910390f35b610129600480360381019061012491906111bd565b61060d565b604051610136919061123e565b60405180910390f35b61015960048036038101906101549190610de5565b61075a565b6040516101669190611298565b60405180910390f35b61018960048036038101906101849190610de5565b610823565b60405161019691906112f2565b60405180910390f35b6101b960048036038101906101b49190610de5565b6108ec565b6040516101c691906113be565b60405180910390f35b6101d7610cc5565b5f808381526020019081526020015f206004015f9054906101000a900460ff16610236576040517f08c379a000000000000000000000000000000000000000000000000000000000815260040161022d90611438565b60405180910390fd5b7f0add4813be6b1aab502fe3ac4b007a3f5a3bdde9f4a136a80b965734684cd3eb604051610263906114a0565b60405180910390a1604051806040016040528060011515815260200160405180602001604052805f8152508152509050919050565b6102a0610ce0565b5f85856040516020016102b49291906114f8565b6040516020818303038152906040528051906020012090505f808281526020019081526020015f206004015f9054906101000a900460ff161561032c576040517f08c379a000000000000000000000000000000000000000000000000000000000815260040161032390611565565b60405180910390fd5b5f86511161036f576040517f08c379a0000000000000000000000000000000000000000000000000000000008152600401610366906115cd565b60405180910390fd5b5f8551116103b2576040517f08c379a00000000000000000000000000000000000000000000000000000000081526004016103a990611635565b60405180910390fd5b6040518060a00160405280878152602001868152602001858152602001848152602001600115158152505f808381526020019081526020015f205f820151815f0190816103ff9190611856565b5060208201518160010190816104159190611856565b50604082015181600201908161042b9190611856565b5060608201518160030190816104419190611856565b506080820151816004015f6101000a81548160ff021916908315150217905550905050600181908060018154018082558091505060019003905f5260205f20015f90919091909150555f8660405160200161049c9190611925565b60405160208183030381529060405280519060200120905060025f8281526020019081526020015f2082908060018154018082558091505060019003905f5260205f20015f90919091909150557f0402c886f5c1bb50afb826d1767a153123631152c678fbec8089e9e8ee3e49bf82604051610518919061194a565b60405180910390a160405180604001604052806001151581526020018381525092505050949350505050565b61054c610cfd565b5f808381526020019081526020015f206004015f9054906101000a900460ff166105ab576040517f08c379a00000000000000000000000000000000000000000000000000000000081526004016105a290611438565b60405180910390fd5b7ff8bf85f3c3c0a58b07d85ced6fc98d3aa916a82fb244d1bd274d033f17421b096040516105d8906114a0565b60405180910390a1604051806040016040528060011515815260200160405180602001604052805f8152508152509050919050565b610615610d18565b5f826040516020016106279190611925565b6040516020818303038152906040528051906020012090505f60025f8381526020019081526020015f2090505f60405180602001604052805f81525090505f5b8280549050811015610702575f81111561069e578160405160200161068c91906119c0565b60405160208183030381529060405291505b815f808584815481106106b4576106b36119e1565b5b905f5260205f20015481526020019081526020015f206001016040516020016106de929190611a8e565b604051602081830303815290604052915080806106fa90611ade565b915050610667565b507fe887d6b5d8c07462a42849880d72e3312fa3f7def1fc3329adf287f8de45d8bd604051610730906114a0565b60405180910390a16040518060400160405280600115158152602001828152509350505050919050565b610762610d33565b5f808381526020019081526020015f206004015f9054906101000a900460ff166107c1576040517f08c379a00000000000000000000000000000000000000000000000000000000081526004016107b890611438565b60405180910390fd5b7f1807bc661e01f385bda0ff507bb694d5cad2daa4a1a8d4e27616bd9188a2c8a26040516107ee906114a0565b60405180910390a1604051806040016040528060011515815260200160405180602001604052805f8152508152509050919050565b61082b610d4e565b5f808381526020019081526020015f206004015f9054906101000a900460ff1661088a576040517f08c379a000000000000000000000000000000000000000000000000000000000815260040161088190611438565b60405180910390fd5b7faca3be5b96d8fb3d03a224562f926a136ce38810f9ba3571a7e57bc239b248916040516108b7906114a0565b60405180910390a1604051806040016040528060011515815260200160405180602001604052805f8152508152509050919050565b6108f4610d69565b5f808381526020019081526020015f206004015f9054906101000a900460ff16610953576040517f08c379a000000000000000000000000000000000000000000000000000000000815260040161094a90611438565b60405180910390fd5b5f805f8481526020019081526020015f2090505f6109fa82600301805461097990611680565b80601f01602080910402602001604051908101604052809291908181526020018280546109a590611680565b80156109f05780601f106109c7576101008083540402835291602001916109f0565b820191905f5260205f20905b8154815290600101906020018083116109d357829003601f168201915b5050505050610c0b565b90507f439aedebcdc35c8170cb744de81edb1979218095c66392eb713f5486de2b508a8482604051610a2d929190611b34565b60405180910390a16040518060c00160405280600115158152602001858152602001835f018054610a5d90611680565b80601f0160208091040260200160405190810160405280929190818152602001828054610a8990611680565b8015610ad45780601f10610aab57610100808354040283529160200191610ad4565b820191905f5260205f20905b815481529060010190602001808311610ab757829003601f168201915b50505050508152602001836001018054610aed90611680565b80601f0160208091040260200160405190810160405280929190818152602001828054610b1990611680565b8015610b645780601f10610b3b57610100808354040283529160200191610b64565b820191905f5260205f20905b815481529060010190602001808311610b4757829003601f168201915b50505050508152602001836002018054610b7d90611680565b80601f0160208091040260200160405190810160405280929190818152602001828054610ba990611680565b8015610bf45780601f10610bcb57610100808354040283529160200191610bf4565b820191905f5260205f20905b815481529060010190602001808311610bd757829003601f168201915b505050505081526020018281525092505050919050565b5f808290505f815103610c21575f915050610cc0565b5f600190505f5b8251811015610cb9577f2c00000000000000000000000000000000000000000000000000000000000000838281518110610c6557610c646119e1565b5b602001015160f81c60f81b7effffffffffffffffffffffffffffffffffffffffffffffffffffffffffffff191603610ca6578180610ca290611ade565b9250505b8080610cb190611ade565b915050610c28565b5080925050505b919050565b60405180604001604052805f15158152602001606081525090565b60405180604001604052805f151581526020015f80191681525090565b60405180604001604052805f15158152602001606081525090565b60405180604001604052805f15158152602001606081525090565b60405180604001604052805f15158152602001606081525090565b60405180604001604052805f15158152602001606081525090565b6040518060c001604052805f151581526020015f80191681526020016060815260200160608152602001606081526020015f81525090565b5f604051905090565b5f80fd5b5f80fd5b5f819050919050565b610dc481610db2565b8114610dce575f80fd5b50565b5f81359050610ddf81610dbb565b92915050565b5f60208284031215610dfa57610df9610daa565b5b5f610e0784828501610dd1565b91505092915050565b5f8115159050919050565b610e2481610e10565b82525050565b5f81519050919050565b5f82825260208201905092915050565b5f5b83811015610e61578082015181840152602081019050610e46565b5f8484015250505050565b5f601f19601f8301169050919050565b5f610e8682610e2a565b610e908185610e34565b9350610ea0818560208601610e44565b610ea981610e6c565b840191505092915050565b5f604083015f830151610ec95f860182610e1b565b5060208301518482036020860152610ee18282610e7c565b9150508091505092915050565b5f6020820190508181035f830152610f068184610eb4565b905092915050565b5f80fd5b5f80fd5b7f4e487b71000000000000000000000000000000000000000000000000000000005f52604160045260245ffd5b610f4c82610e6c565b810181811067ffffffffffffffff82111715610f6b57610f6a610f16565b5b80604052505050565b5f610f7d610da1565b9050610f898282610f43565b919050565b5f67ffffffffffffffff821115610fa857610fa7610f16565b5b610fb182610e6c565b9050602081019050919050565b828183375f83830152505050565b5f610fde610fd984610f8e565b610f74565b905082815260208101848484011115610ffa57610ff9610f12565b5b611005848285610fbe565b509392505050565b5f82601f83011261102157611020610f0e565b5b8135611031848260208601610fcc565b91505092915050565b5f805f806080858703121561105257611051610daa565b5b5f85013567ffffffffffffffff81111561106f5761106e610dae565b5b61107b8782880161100d565b945050602085013567ffffffffffffffff81111561109c5761109b610dae565b5b6110a88782880161100d565b935050604085013567ffffffffffffffff8111156110c9576110c8610dae565b5b6110d58782880161100d565b925050606085013567ffffffffffffffff8111156110f6576110f5610dae565b5b6111028782880161100d565b91505092959194509250565b61111781610db2565b82525050565b604082015f8201516111315f850182610e1b565b506020820151611144602085018261110e565b50505050565b5f60408201905061115d5f83018461111d565b92915050565b5f604083015f8301516111785f860182610e1b565b50602083015184820360208601526111908282610e7c565b9150508091505092915050565b5f6020820190508181035f8301526111b58184611163565b905092915050565b5f602082840312156111d2576111d1610daa565b5b5f82013567ffffffffffffffff8111156111ef576111ee610dae565b5b6111fb8482850161100d565b91505092915050565b5f604083015f8301516112195f860182610e1b565b50602083015184820360208601526112318282610e7c565b9150508091505092915050565b5f6020820190508181035f8301526112568184611204565b905092915050565b5f604083015f8301516112735f860182610e1b565b506020830151848203602086015261128b8282610e7c565b9150508091505092915050565b5f6020820190508181035f8301526112b0818461125e565b905092915050565b5f604083015f8301516112cd5f860182610e1b565b50602083015184820360208601526112e58282610e7c565b9150508091505092915050565b5f6020820190508181035f83015261130a81846112b8565b905092915050565b5f819050919050565b61132481611312565b82525050565b5f60c083015f83015161133f5f860182610e1b565b506020830151611352602086018261110e565b506040830151848203604086015261136a8282610e7c565b915050606083015184820360608601526113848282610e7c565b9150506080830151848203608086015261139e8282610e7c565b91505060a08301516113b360a086018261131b565b508091505092915050565b5f6020820190508181035f8301526113d6818461132a565b905092915050565b5f82825260208201905092915050565b7f416374696f6e206e6f7420666f756e64000000000000000000000000000000005f82015250565b5f6114226010836113de565b915061142d826113ee565b602082019050919050565b5f6020820190508181035f83015261144f81611416565b9050919050565b7f6f6b0000000000000000000000000000000000000000000000000000000000005f82015250565b5f61148a6002836113de565b915061149582611456565b602082019050919050565b5f6020820190508181035f8301526114b78161147e565b9050919050565b5f81905092915050565b5f6114d282610e2a565b6114dc81856114be565b93506114ec818560208601610e44565b80840191505092915050565b5f61150382856114c8565b915061150f82846114c8565b91508190509392505050565b7f416374696f6e20616c72656164792072656769737465726564000000000000005f82015250565b5f61154f6019836113de565b915061155a8261151b565b602082019050919050565b5f6020820190508181035f83015261157c81611543565b9050919050565b7f436f6e63657074206d757374206e6f7420626520656d707479000000000000005f82015250565b5f6115b76019836113de565b91506115c282611583565b602082019050919050565b5f6020820190508181035f8301526115e4816115ab565b9050919050565b7f4e616d65206d757374206e6f7420626520656d707479000000000000000000005f82015250565b5f61161f6016836113de565b915061162a826115eb565b602082019050919050565b5f6020820190508181035f83015261164c81611613565b9050919050565b7f4e487b71000000000000000000000000000000000000000000000000000000005f52602260045260245ffd5b5f600282049050600182168061169757607f821691505b6020821081036116aa576116a9611653565b5b50919050565b5f819050815f5260205f209050919050565b5f6020601f8301049050919050565b5f82821b905092915050565b5f6008830261170c7fffffffffffffffffffffffffffffffffffffffffffffffffffffffffffffffff826116d1565b61171686836116d1565b95508019841693508086168417925050509392505050565b5f819050919050565b5f819050919050565b5f61175a6117556117508461172e565b611737565b61172e565b9050919050565b5f819050919050565b61177383611740565b61178761177f82611761565b8484546116dd565b825550505050565b5f90565b61179b61178f565b6117a681848461176a565b505050565b5b818110156117c9576117be5f82611793565b6001810190506117ac565b5050565b601f82111561180e576117df816116b0565b6117e8846116c2565b810160208510156117f7578190505b61180b611803856116c2565b8301826117ab565b50505b505050565b5f82821c905092915050565b5f61182e5f1984600802611813565b1980831691505092915050565b5f611846838361181f565b9150826002028217905092915050565b61185f82610e2a565b67ffffffffffffffff81111561187857611877610f16565b5b6118828254611680565b61188d8282856117cd565b5f60209050601f8311600181146118be575f84156118ac578287015190505b6118b6858261183b565b86555061191d565b601f1984166118cc866116b0565b5f5b828110156118f3578489015182556001820191506020850194506020810190506118ce565b86831015611910578489015161190c601f89168261181f565b8355505b6001600288020188555050505b505050505050565b5f61193082846114c8565b915081905092915050565b61194481610db2565b82525050565b5f6040820190508181035f8301526119618161147e565b9050611970602083018461193b565b92915050565b7f2c000000000000000000000000000000000000000000000000000000000000005f82015250565b5f6119aa6001836114be565b91506119b582611976565b600182019050919050565b5f6119cb82846114c8565b91506119d68261199e565b915081905092915050565b7f4e487b71000000000000000000000000000000000000000000000000000000005f52603260045260245ffd5b5f8154611a1a81611680565b611a2481866114be565b9450600182165f8114611a3e5760018114611a5357611a85565b60ff1983168652811515820286019350611a85565b611a5c856116b0565b5f5b83811015611a7d57815481890152600182019150602081019050611a5e565b838801955050505b50505092915050565b5f611a9982856114c8565b9150611aa58284611a0e565b91508190509392505050565b7f4e487b71000000000000000000000000000000000000000000000000000000005f52601160045260245ffd5b5f611ae88261172e565b91507fffffffffffffffffffffffffffffffffffffffffffffffffffffffffffffffff8203611b1a57611b19611ab1565b5b600182019050919050565b611b2e81611312565b82525050565b5f6060820190508181035f830152611b4b8161147e565b9050611b5a602083018561193b565b611b676040830184611b25565b939250505056fea2646970667358221220c699402af2b1d873803e8af6bab1a6319c7e8176e278f813c322a61b222638ff64736f6c63430008140033","linkReferences":{}},"methodIdentifiers":{"findByConcept(string)":"4cee8c1d","get(bytes32)":"8eaa6ac0","implementations(bytes32)":"02cfeaca","interfaceExposures(bytes32)":"6531db35","invokingSyncs(bytes32)":"8bab6558","register(string,string,string,string)":"0e24c52c","triggeringSyncs(bytes32)":"38013712"},"id":20}