{"abi":[{"type":"function","name":"createMedia","inputs":[{"name":"mediaId","type":"bytes32","internalType":"bytes32"},{"name":"mediaType","type":"string","internalType":"string"},{"name":"source","type":"string","internalType":"string"},{"name":"metadata","type":"string","internalType":"string"}],"outputs":[],"stateMutability":"nonpayable"},{"type":"function","name":"getMedia","inputs":[{"name":"mediaId","type":"bytes32","internalType":"bytes32"}],"outputs":[{"name":"","type":"tuple","internalType":"struct MediaAsset.Media","components":[{"name":"mediaType","type":"string","internalType":"string"},{"name":"source","type":"string","internalType":"string"},{"name":"metadata","type":"string","internalType":"string"},{"name":"thumbnailUri","type":"string","internalType":"string"},{"name":"createdAt","type":"uint256","internalType":"uint256"},{"name":"exists","type":"bool","internalType":"bool"}]}],"stateMutability":"view"},{"type":"function","name":"mediaExists","inputs":[{"name":"mediaId","type":"bytes32","internalType":"bytes32"}],"outputs":[{"name":"","type":"bool","internalType":"bool"}],"stateMutability":"view"},{"type":"function","name":"setMetadata","inputs":[{"name":"mediaId","type":"bytes32","internalType":"bytes32"},{"name":"metadata","type":"string","internalType":"string"}],"outputs":[],"stateMutability":"nonpayable"},{"type":"function","name":"setThumbnail","inputs":[{"name":"mediaId","type":"bytes32","internalType":"bytes32"},{"name":"thumbnailUri","type":"string","internalType":"string"}],"outputs":[],"stateMutability":"nonpayable"},{"type":"event","name":"MediaCreated","inputs":[{"name":"mediaId","type":"bytes32","indexed":true,"internalType":"bytes32"},{"name":"mediaType","type":"string","indexed":false,"internalType":"string"}],"anonymous":false},{"type":"event","name":"MetadataExtracted","inputs":[{"name":"mediaId","type":"bytes32","indexed":true,"internalType":"bytes32"}],"anonymous":false},{"type":"event","name":"ThumbnailGenerated","inputs":[{"name":"mediaId","type":"bytes32","indexed":true,"internalType":"bytes32"}],"anonymous":false}],"bytecode":{"object":"0x608060405234801561000f575f80fd5b506113748061001d5f395ff3fe608060405234801561000f575f80fd5b5060043610610055575f3560e01c80630c49549f146100595780635ce14632146100755780636c694e47146100a557806375fd85e2146100d5578063942e46a4146100f1575b5f80fd5b610073600480360381019061006e91906109aa565b61010d565b005b61008f600480360381019061008a9190610a07565b6101c1565b60405161009c9190610a4c565b60405180910390f35b6100bf60048036038101906100ba9190610a07565b6101e9565b6040516100cc9190610bb1565b60405180910390f35b6100ef60048036038101906100ea9190610bd1565b6104d5565b005b61010b600480360381019061010691906109aa565b6107df565b005b5f808481526020019081526020015f206005015f9054906101000a900460ff1661016c576040517f08c379a000000000000000000000000000000000000000000000000000000000815260040161016390610cef565b60405180910390fd5b81815f808681526020019081526020015f20600201918261018e929190610f3e565b50827f15d62a212bd8e8d37f278b660b83a96cb101366192f875ba24f65c63ea85525d60405160405180910390a2505050565b5f805f8381526020019081526020015f206005015f9054906101000a900460ff169050919050565b6101f16108d8565b5f808381526020019081526020015f206005015f9054906101000a900460ff16610250576040517f08c379a000000000000000000000000000000000000000000000000000000000815260040161024790610cef565b60405180910390fd5b5f808381526020019081526020015f206040518060c00160405290815f8201805461027a90610d71565b80601f01602080910402602001604051908101604052809291908181526020018280546102a690610d71565b80156102f15780601f106102c8576101008083540402835291602001916102f1565b820191905f5260205f20905b8154815290600101906020018083116102d457829003601f168201915b5050505050815260200160018201805461030a90610d71565b80601f016020809104026020016040519081016040528092919081815260200182805461033690610d71565b80156103815780601f1061035857610100808354040283529160200191610381565b820191905f5260205f20905b81548152906001019060200180831161036457829003601f168201915b5050505050815260200160028201805461039a90610d71565b80601f01602080910402602001604051908101604052809291908181526020018280546103c690610d71565b80156104115780601f106103e857610100808354040283529160200191610411565b820191905f5260205f20905b8154815290600101906020018083116103f457829003601f168201915b5050505050815260200160038201805461042a90610d71565b80601f016020809104026020016040519081016040528092919081815260200182805461045690610d71565b80156104a15780601f10610478576101008083540402835291602001916104a1565b820191905f5260205f20905b81548152906001019060200180831161048457829003601f168201915b5050505050815260200160048201548152602001600582015f9054906101000a900460ff1615151515815250509050919050565b5f801b8703610519576040517f08c379a000000000000000000000000000000000000000000000000000000000815260040161051090611055565b60405180910390fd5b5f808881526020019081526020015f206005015f9054906101000a900460ff1615610579576040517f08c379a0000000000000000000000000000000000000000000000000000000008152600401610570906110bd565b60405180910390fd5b5f86869050116105be576040517f08c379a00000000000000000000000000000000000000000000000000000000081526004016105b590611125565b60405180910390fd5b5f8484905011610603576040517f08c379a00000000000000000000000000000000000000000000000000000000081526004016105fa9061118d565b60405180910390fd5b6040518060c0016040528087878080601f0160208091040260200160405190810160405280939291908181526020018383808284375f81840152601f19601f82011690508083019250505050505050815260200185858080601f0160208091040260200160405190810160405280939291908181526020018383808284375f81840152601f19601f82011690508083019250505050505050815260200183838080601f0160208091040260200160405190810160405280939291908181526020018383808284375f81840152601f19601f82011690508083019250505050505050815260200160405180602001604052805f8152508152602001428152602001600115158152505f808981526020019081526020015f205f820151815f01908161072d91906111ab565b50602082015181600101908161074391906111ab565b50604082015181600201908161075991906111ab565b50606082015181600301908161076f91906111ab565b506080820151816004015560a0820151816005015f6101000a81548160ff021916908315150217905550905050867fe2a8aaea97a64497beb575e8fcd834740055f07064801c4762a6e1bf7b3e0c7987876040516107ce9291906112b4565b60405180910390a250505050505050565b5f808481526020019081526020015f206005015f9054906101000a900460ff1661083e576040517f08c379a000000000000000000000000000000000000000000000000000000000815260040161083590610cef565b60405180910390fd5b5f8282905011610883576040517f08c379a000000000000000000000000000000000000000000000000000000000815260040161087a90611320565b60405180910390fd5b81815f808681526020019081526020015f2060030191826108a5929190610f3e565b50827f5417217c0ddab77e7866d5874a20668e6860eca3a2882423275b36195ee7a72360405160405180910390a2505050565b6040518060c00160405280606081526020016060815260200160608152602001606081526020015f81526020015f151581525090565b5f80fd5b5f80fd5b5f819050919050565b61092881610916565b8114610932575f80fd5b50565b5f813590506109438161091f565b92915050565b5f80fd5b5f80fd5b5f80fd5b5f8083601f84011261096a57610969610949565b5b8235905067ffffffffffffffff8111156109875761098661094d565b5b6020830191508360018202830111156109a3576109a2610951565b5b9250929050565b5f805f604084860312156109c1576109c061090e565b5b5f6109ce86828701610935565b935050602084013567ffffffffffffffff8111156109ef576109ee610912565b5b6109fb86828701610955565b92509250509250925092565b5f60208284031215610a1c57610a1b61090e565b5b5f610a2984828501610935565b91505092915050565b5f8115159050919050565b610a4681610a32565b82525050565b5f602082019050610a5f5f830184610a3d565b92915050565b5f81519050919050565b5f82825260208201905092915050565b5f5b83811015610a9c578082015181840152602081019050610a81565b5f8484015250505050565b5f601f19601f8301169050919050565b5f610ac182610a65565b610acb8185610a6f565b9350610adb818560208601610a7f565b610ae481610aa7565b840191505092915050565b5f819050919050565b610b0181610aef565b82525050565b610b1081610a32565b82525050565b5f60c083015f8301518482035f860152610b308282610ab7565b91505060208301518482036020860152610b4a8282610ab7565b91505060408301518482036040860152610b648282610ab7565b91505060608301518482036060860152610b7e8282610ab7565b9150506080830151610b936080860182610af8565b5060a0830151610ba660a0860182610b07565b508091505092915050565b5f6020820190508181035f830152610bc98184610b16565b905092915050565b5f805f805f805f6080888a031215610bec57610beb61090e565b5b5f610bf98a828b01610935565b975050602088013567ffffffffffffffff811115610c1a57610c19610912565b5b610c268a828b01610955565b9650965050604088013567ffffffffffffffff811115610c4957610c48610912565b5b610c558a828b01610955565b9450945050606088013567ffffffffffffffff811115610c7857610c77610912565b5b610c848a828b01610955565b925092505092959891949750929550565b5f82825260208201905092915050565b7f4d65646961206e6f7420666f756e6400000000000000000000000000000000005f82015250565b5f610cd9600f83610c95565b9150610ce482610ca5565b602082019050919050565b5f6020820190508181035f830152610d0681610ccd565b9050919050565b5f82905092915050565b7f4e487b71000000000000000000000000000000000000000000000000000000005f52604160045260245ffd5b7f4e487b71000000000000000000000000000000000000000000000000000000005f52602260045260245ffd5b5f6002820490506001821680610d8857607f821691505b602082108103610d9b57610d9a610d44565b5b50919050565b5f819050815f5260205f209050919050565b5f6020601f8301049050919050565b5f82821b905092915050565b5f60088302610dfd7fffffffffffffffffffffffffffffffffffffffffffffffffffffffffffffffff82610dc2565b610e078683610dc2565b95508019841693508086168417925050509392505050565b5f819050919050565b5f610e42610e3d610e3884610aef565b610e1f565b610aef565b9050919050565b5f819050919050565b610e5b83610e28565b610e6f610e6782610e49565b848454610dce565b825550505050565b5f90565b610e83610e77565b610e8e818484610e52565b505050565b5b81811015610eb157610ea65f82610e7b565b600181019050610e94565b5050565b601f821115610ef657610ec781610da1565b610ed084610db3565b81016020851015610edf578190505b610ef3610eeb85610db3565b830182610e93565b50505b505050565b5f82821c905092915050565b5f610f165f1984600802610efb565b1980831691505092915050565b5f610f2e8383610f07565b9150826002028217905092915050565b610f488383610d0d565b67ffffffffffffffff811115610f6157610f60610d17565b5b610f6b8254610d71565b610f76828285610eb5565b5f601f831160018114610fa3575f8415610f91578287013590505b610f9b8582610f23565b865550611002565b601f198416610fb186610da1565b5f5b82811015610fd857848901358255600182019150602085019450602081019050610fb3565b86831015610ff55784890135610ff1601f891682610f07565b8355505b6001600288020188555050505b50505050505050565b7f4d656469612049442063616e6e6f74206265207a65726f0000000000000000005f82015250565b5f61103f601783610c95565b915061104a8261100b565b602082019050919050565b5f6020820190508181035f83015261106c81611033565b9050919050565b7f4d6564696120616c7265616479206578697374730000000000000000000000005f82015250565b5f6110a7601483610c95565b91506110b282611073565b602082019050919050565b5f6020820190508181035f8301526110d48161109b565b9050919050565b7f4d6564696120747970652063616e6e6f7420626520656d7074790000000000005f82015250565b5f61110f601a83610c95565b915061111a826110db565b602082019050919050565b5f6020820190508181035f83015261113c81611103565b9050919050565b7f536f757263652063616e6e6f7420626520656d707479000000000000000000005f82015250565b5f611177601683610c95565b915061118282611143565b602082019050919050565b5f6020820190508181035f8301526111a48161116b565b9050919050565b6111b482610a65565b67ffffffffffffffff8111156111cd576111cc610d17565b5b6111d78254610d71565b6111e2828285610eb5565b5f60209050601f831160018114611213575f8415611201578287015190505b61120b8582610f23565b865550611272565b601f19841661122186610da1565b5f5b8281101561124857848901518255600182019150602085019450602081019050611223565b868310156112655784890151611261601f891682610f07565b8355505b6001600288020188555050505b505050505050565b828183375f83830152505050565b5f6112938385610c95565b93506112a083858461127a565b6112a983610aa7565b840190509392505050565b5f6020820190508181035f8301526112cd818486611288565b90509392505050565b7f5468756d626e61696c205552492063616e6e6f7420626520656d7074790000005f82015250565b5f61130a601d83610c95565b9150611315826112d6565b602082019050919050565b5f6020820190508181035f830152611337816112fe565b905091905056fea2646970667358221220e315bf79b3a0ebcf4a628ce6bda3e94733398fd30ecacf27b89617bdc458139964736f6c63430008140033","linkReferences":{}},"methodIdentifiers":{"createMedia(bytes32,string,string,string)":"75fd85e2","getMedia(bytes32)":"6c694e47","mediaExists(bytes32)":"5ce14632","setMetadata(bytes32,string)":"0c49549f","setThumbnail(bytes32,string)":"942e46a4"},"id":168}