{"abi":[{"type":"function","name":"diff","inputs":[{"name":"contentA","type":"bytes","internalType":"bytes"},{"name":"contentB","type":"bytes","internalType":"bytes"},{"name":"algorithm","type":"bytes32","internalType":"bytes32"}],"outputs":[{"name":"isIdentical","type":"bool","internalType":"bool"},{"name":"distance","type":"uint256","internalType":"uint256"}],"stateMutability":"nonpayable"},{"type":"function","name":"getProvider","inputs":[{"name":"providerId","type":"bytes32","internalType":"bytes32"}],"outputs":[{"name":"","type":"tuple","internalType":"struct Diff.Provider","components":[{"name":"name","type":"string","internalType":"string"},{"name":"exists","type":"bool","internalType":"bool"}]}],"stateMutability":"view"},{"type":"function","name":"patch","inputs":[{"name":"content","type":"bytes","internalType":"bytes"},{"name":"editScript","type":"bytes","internalType":"bytes"}],"outputs":[],"stateMutability":"nonpayable"},{"type":"function","name":"registerProvider","inputs":[{"name":"name","type":"string","internalType":"string"},{"name":"contentTypes","type":"string[]","internalType":"string[]"}],"outputs":[{"name":"providerId","type":"bytes32","internalType":"bytes32"}],"stateMutability":"nonpayable"},{"type":"event","name":"Diffed","inputs":[{"name":"contentHashA","type":"bytes32","indexed":true,"internalType":"bytes32"},{"name":"contentHashB","type":"bytes32","indexed":true,"internalType":"bytes32"},{"name":"distance","type":"uint256","indexed":false,"internalType":"uint256"}],"anonymous":false},{"type":"event","name":"Identical","inputs":[{"name":"contentHashA","type":"bytes32","indexed":true,"internalType":"bytes32"},{"name":"contentHashB","type":"bytes32","indexed":true,"internalType":"bytes32"}],"anonymous":false},{"type":"event","name":"PatchRequested","inputs":[{"name":"contentHash","type":"bytes32","indexed":true,"internalType":"bytes32"},{"name":"editScript","type":"bytes","indexed":false,"internalType":"bytes"}],"anonymous":false},{"type":"event","name":"ProviderRegistered","inputs":[{"name":"providerId","type":"bytes32","indexed":true,"internalType":"bytes32"},{"name":"name","type":"string","indexed":false,"internalType":"string"}],"anonymous":false}],"bytecode":{"object":"0x608060405234801561000f575f80fd5b506111a88061001d5f395ff3fe608060405234801561000f575f80fd5b506004361061004a575f3560e01c806333c0950a1461004e5780633ba519291461007e5780636f62cdc1146100ae578063b6dd8155146100ca575b5f80fd5b61006860048036038101906100639190610644565b6100fb565b604051610075919061074d565b60405180910390f35b61009860048036038101906100939190610823565b61022d565b6040516100a591906108b0565b60405180910390f35b6100c860048036038101906100c3919061091e565b610408565b005b6100e460048036038101906100df919061099c565b610464565b6040516100f2929190610a54565b60405180910390f35b6101036105ee565b5f808381526020019081526020015f206001015f9054906101000a900460ff16610162576040517f08c379a000000000000000000000000000000000000000000000000000000000815260040161015990610ad5565b60405180910390fd5b5f808381526020019081526020015f206040518060400160405290815f8201805461018c90610b20565b80601f01602080910402602001604051908101604052809291908181526020018280546101b890610b20565b80156102035780601f106101da57610100808354040283529160200191610203565b820191905f5260205f20905b8154815290600101906020018083116101e657829003601f168201915b50505050508152602001600182015f9054906101000a900460ff1615151515815250509050919050565b5f808585604051602001610242929190610b8c565b60405160208183030381529060405280519060200120905060015f8281526020019081526020015f205f9054906101000a900460ff16156102b8576040517f08c379a00000000000000000000000000000000000000000000000000000000081526004016102af90610bee565b60405180910390fd5b85854260025f8154809291906102cd90610c39565b919050556040516020016102e49493929190610ca0565b604051602081830303815290604052805190602001209150604051806040016040528087878080601f0160208091040260200160405190810160405280939291908181526020018383808284375f81840152601f19601f820116905080830192505050505050508152602001600115158152505f808481526020019081526020015f205f820151815f01908161037a9190610ea4565b506020820151816001015f6101000a81548160ff0219169083151502179055509050506001805f8381526020019081526020015f205f6101000a81548160ff021916908315150217905550817f4b78c7777e57e43e69792c23d8f6db97ecee8b7e6dcd6f9e5778172859e8985687876040516103f7929190610f9f565b60405180910390a250949350505050565b5f8484604051610419929190610fef565b60405180910390209050807f6037e1176017334c71a061f39399a2d1ba0cd591d1f09586ede2c3354133bb5e8484604051610455929190611043565b60405180910390a25050505050565b5f805f808481526020019081526020015f206001015f9054906101000a900460ff166104c5576040517f08c379a00000000000000000000000000000000000000000000000000000000081526004016104bc906110d5565b60405180910390fd5b5f87876040516104d6929190610fef565b604051809103902090505f86866040516104f1929190610fef565b6040518091039020905080820361053e5780827f2f677a991920fff8ca84e3dfbc5f4f6f1cb243b429558e3c126012ed702dd05060405160405180910390a360015f9350935050506105e4565b6001925086869050898990501115610575576001878790508a8a905061056491906110f3565b61056e9190611126565b92506105a5565b888890508787905011156105a4576001898990508888905061059791906110f3565b6105a19190611126565b92505b5b80827f71e40422b36c392219e079307a22ecf74decc516b0eb63281e83f8107dd04ec9856040516105d69190611159565b60405180910390a35f935050505b9550959350505050565b6040518060400160405280606081526020015f151581525090565b5f80fd5b5f80fd5b5f819050919050565b61062381610611565b811461062d575f80fd5b50565b5f8135905061063e8161061a565b92915050565b5f6020828403121561065957610658610609565b5b5f61066684828501610630565b91505092915050565b5f81519050919050565b5f82825260208201905092915050565b5f5b838110156106a657808201518184015260208101905061068b565b5f8484015250505050565b5f601f19601f8301169050919050565b5f6106cb8261066f565b6106d58185610679565b93506106e5818560208601610689565b6106ee816106b1565b840191505092915050565b5f8115159050919050565b61070d816106f9565b82525050565b5f604083015f8301518482035f86015261072d82826106c1565b91505060208301516107426020860182610704565b508091505092915050565b5f6020820190508181035f8301526107658184610713565b905092915050565b5f80fd5b5f80fd5b5f80fd5b5f8083601f84011261078e5761078d61076d565b5b8235905067ffffffffffffffff8111156107ab576107aa610771565b5b6020830191508360018202830111156107c7576107c6610775565b5b9250929050565b5f8083601f8401126107e3576107e261076d565b5b8235905067ffffffffffffffff811115610800576107ff610771565b5b60208301915083602082028301111561081c5761081b610775565b5b9250929050565b5f805f806040858703121561083b5761083a610609565b5b5f85013567ffffffffffffffff8111156108585761085761060d565b5b61086487828801610779565b9450945050602085013567ffffffffffffffff8111156108875761088661060d565b5b610893878288016107ce565b925092505092959194509250565b6108aa81610611565b82525050565b5f6020820190506108c35f8301846108a1565b92915050565b5f8083601f8401126108de576108dd61076d565b5b8235905067ffffffffffffffff8111156108fb576108fa610771565b5b60208301915083600182028301111561091757610916610775565b5b9250929050565b5f805f806040858703121561093657610935610609565b5b5f85013567ffffffffffffffff8111156109535761095261060d565b5b61095f878288016108c9565b9450945050602085013567ffffffffffffffff8111156109825761098161060d565b5b61098e878288016108c9565b925092505092959194509250565b5f805f805f606086880312156109b5576109b4610609565b5b5f86013567ffffffffffffffff8111156109d2576109d161060d565b5b6109de888289016108c9565b9550955050602086013567ffffffffffffffff811115610a0157610a0061060d565b5b610a0d888289016108c9565b93509350506040610a2088828901610630565b9150509295509295909350565b610a36816106f9565b82525050565b5f819050919050565b610a4e81610a3c565b82525050565b5f604082019050610a675f830185610a2d565b610a746020830184610a45565b9392505050565b5f82825260208201905092915050565b7f50726f766964657220646f6573206e6f742065786973740000000000000000005f82015250565b5f610abf601783610a7b565b9150610aca82610a8b565b602082019050919050565b5f6020820190508181035f830152610aec81610ab3565b9050919050565b7f4e487b71000000000000000000000000000000000000000000000000000000005f52602260045260245ffd5b5f6002820490506001821680610b3757607f821691505b602082108103610b4a57610b49610af3565b5b50919050565b5f81905092915050565b828183375f83830152505050565b5f610b738385610b50565b9350610b80838584610b5a565b82840190509392505050565b5f610b98828486610b68565b91508190509392505050565b7f50726f7669646572206e616d6520616c726561647920726567697374657265645f82015250565b5f610bd8602083610a7b565b9150610be382610ba4565b602082019050919050565b5f6020820190508181035f830152610c0581610bcc565b9050919050565b7f4e487b71000000000000000000000000000000000000000000000000000000005f52601160045260245ffd5b5f610c4382610a3c565b91507fffffffffffffffffffffffffffffffffffffffffffffffffffffffffffffffff8203610c7557610c74610c0c565b5b600182019050919050565b5f819050919050565b610c9a610c9582610a3c565b610c80565b82525050565b5f610cac828688610b68565b9150610cb88285610c89565b602082019150610cc88284610c89565b60208201915081905095945050505050565b7f4e487b71000000000000000000000000000000000000000000000000000000005f52604160045260245ffd5b5f819050815f5260205f209050919050565b5f6020601f8301049050919050565b5f82821b905092915050565b5f60088302610d637fffffffffffffffffffffffffffffffffffffffffffffffffffffffffffffffff82610d28565b610d6d8683610d28565b95508019841693508086168417925050509392505050565b5f819050919050565b5f610da8610da3610d9e84610a3c565b610d85565b610a3c565b9050919050565b5f819050919050565b610dc183610d8e565b610dd5610dcd82610daf565b848454610d34565b825550505050565b5f90565b610de9610ddd565b610df4818484610db8565b505050565b5b81811015610e1757610e0c5f82610de1565b600181019050610dfa565b5050565b601f821115610e5c57610e2d81610d07565b610e3684610d19565b81016020851015610e45578190505b610e59610e5185610d19565b830182610df9565b50505b505050565b5f82821c905092915050565b5f610e7c5f1984600802610e61565b1980831691505092915050565b5f610e948383610e6d565b9150826002028217905092915050565b610ead8261066f565b67ffffffffffffffff811115610ec657610ec5610cda565b5b610ed08254610b20565b610edb828285610e1b565b5f60209050601f831160018114610f0c575f8415610efa578287015190505b610f048582610e89565b865550610f6b565b601f198416610f1a86610d07565b5f5b82811015610f4157848901518255600182019150602085019450602081019050610f1c565b86831015610f5e5784890151610f5a601f891682610e6d565b8355505b6001600288020188555050505b505050505050565b5f610f7e8385610a7b565b9350610f8b838584610b5a565b610f94836106b1565b840190509392505050565b5f6020820190508181035f830152610fb8818486610f73565b90509392505050565b5f81905092915050565b5f610fd68385610fc1565b9350610fe3838584610b5a565b82840190509392505050565b5f610ffb828486610fcb565b91508190509392505050565b5f82825260208201905092915050565b5f6110228385611007565b935061102f838584610b5a565b611038836106b1565b840190509392505050565b5f6020820190508181035f83015261105c818486611017565b90509392505050565b7f4e6f2070726f7669646572207265676973746572656420666f7220616c676f725f8201527f6974686d00000000000000000000000000000000000000000000000000000000602082015250565b5f6110bf602483610a7b565b91506110ca82611065565b604082019050919050565b5f6020820190508181035f8301526110ec816110b3565b9050919050565b5f6110fd82610a3c565b915061110883610a3c565b92508282039050818111156111205761111f610c0c565b5b92915050565b5f61113082610a3c565b915061113b83610a3c565b925082820190508082111561115357611152610c0c565b5b92915050565b5f60208201905061116c5f830184610a45565b9291505056fea264697066735822122013eba94d8f574d4893a7379eb5d53e936cec2e059fdb6cdafc9a8732d508ac5764736f6c63430008140033","linkReferences":{}},"methodIdentifiers":{"diff(bytes,bytes,bytes32)":"b6dd8155","getProvider(bytes32)":"33c0950a","patch(bytes,bytes)":"6f62cdc1","registerProvider(string,string[])":"3ba51929"},"id":100}