{"abi":[{"type":"function","name":"createRuleset","inputs":[{"name":"rulesetId","type":"bytes32","internalType":"bytes32"},{"name":"name","type":"string","internalType":"string"}],"outputs":[],"stateMutability":"nonpayable"},{"type":"function","name":"getQualityScore","inputs":[{"name":"itemId","type":"bytes32","internalType":"bytes32"},{"name":"rulesetId","type":"bytes32","internalType":"bytes32"}],"outputs":[{"name":"","type":"tuple","internalType":"struct DataQuality.QualityScore","components":[{"name":"itemId","type":"bytes32","internalType":"bytes32"},{"name":"rulesetId","type":"bytes32","internalType":"bytes32"},{"name":"valid","type":"bool","internalType":"bool"},{"name":"score","type":"uint256","internalType":"uint256"},{"name":"exists","type":"bool","internalType":"bool"}]}],"stateMutability":"view"},{"type":"function","name":"getQuarantinedItem","inputs":[{"name":"itemId","type":"bytes32","internalType":"bytes32"}],"outputs":[{"name":"","type":"tuple","internalType":"struct DataQuality.QuarantinedItem","components":[{"name":"itemId","type":"bytes32","internalType":"bytes32"},{"name":"reason","type":"string","internalType":"string"},{"name":"released","type":"bool","internalType":"bool"},{"name":"exists","type":"bool","internalType":"bool"}]}],"stateMutability":"view"},{"type":"function","name":"getRuleset","inputs":[{"name":"rulesetId","type":"bytes32","internalType":"bytes32"}],"outputs":[{"name":"","type":"tuple","internalType":"struct DataQuality.Ruleset","components":[{"name":"name","type":"string","internalType":"string"},{"name":"exists","type":"bool","internalType":"bool"}]}],"stateMutability":"view"},{"type":"function","name":"isQuarantined","inputs":[{"name":"itemId","type":"bytes32","internalType":"bytes32"}],"outputs":[{"name":"","type":"bool","internalType":"bool"}],"stateMutability":"view"},{"type":"function","name":"quarantine","inputs":[{"name":"itemId","type":"bytes32","internalType":"bytes32"},{"name":"reason","type":"string","internalType":"string"}],"outputs":[],"stateMutability":"nonpayable"},{"type":"function","name":"release","inputs":[{"name":"itemId","type":"bytes32","internalType":"bytes32"}],"outputs":[],"stateMutability":"nonpayable"},{"type":"function","name":"rulesetExists","inputs":[{"name":"rulesetId","type":"bytes32","internalType":"bytes32"}],"outputs":[{"name":"","type":"bool","internalType":"bool"}],"stateMutability":"view"},{"type":"function","name":"validate","inputs":[{"name":"itemId","type":"bytes32","internalType":"bytes32"},{"name":"rulesetId","type":"bytes32","internalType":"bytes32"}],"outputs":[{"name":"valid","type":"bool","internalType":"bool"},{"name":"score","type":"uint256","internalType":"uint256"}],"stateMutability":"nonpayable"},{"type":"event","name":"ItemQuarantined","inputs":[{"name":"itemId","type":"bytes32","indexed":true,"internalType":"bytes32"},{"name":"reason","type":"string","indexed":false,"internalType":"string"}],"anonymous":false},{"type":"event","name":"ItemReleased","inputs":[{"name":"itemId","type":"bytes32","indexed":true,"internalType":"bytes32"}],"anonymous":false},{"type":"event","name":"ItemValidated","inputs":[{"name":"itemId","type":"bytes32","indexed":true,"internalType":"bytes32"},{"name":"rulesetId","type":"bytes32","indexed":true,"internalType":"bytes32"},{"name":"valid","type":"bool","indexed":false,"internalType":"bool"},{"name":"score","type":"uint256","indexed":false,"internalType":"uint256"}],"anonymous":false},{"type":"event","name":"RulesetCreated","inputs":[{"name":"rulesetId","type":"bytes32","indexed":true,"internalType":"bytes32"},{"name":"name","type":"string","indexed":false,"internalType":"string"}],"anonymous":false}],"bytecode":{"object":"0x608060405234801561000f575f80fd5b506117e98061001d5f395ff3fe608060405234801561000f575f80fd5b5060043610610091575f3560e01c80635af11d65116100645780635af11d65146101565780635ef34c641461018657806367d42a8b146101b6578063b8f23ee8146101d2578063cafb4449146101ee57610091565b806316dff57d1461009557806319fc27ec146100c55780631f738c1d146100f557806341f23c4714610125575b5f80fd5b6100af60048036038101906100aa9190610d00565b61020a565b6040516100bc9190610e3e565b60405180910390f35b6100df60048036038101906100da9190610d00565b610364565b6040516100ec9190610e98565b60405180910390f35b61010f600480360381019061010a9190610eb8565b610496565b60405161011c9190610f74565b60405180910390f35b61013f600480360381019061013a9190610eb8565b610591565b60405161014d929190610fab565b60405180910390f35b610170600480360381019061016b9190610d00565b610729565b60405161017d9190610fd2565b60405180910390f35b6101a0600480360381019061019b9190610d00565b61077d565b6040516101ad9190610fd2565b60405180910390f35b6101d060048036038101906101cb9190610d00565b6107a5565b005b6101ec60048036038101906101e7919061104c565b6108c2565b005b6102086004803603810190610203919061104c565b610a81565b005b610212610c4a565b60015f8381526020019081526020015f2060020160019054906101000a900460ff16610273576040517f08c379a000000000000000000000000000000000000000000000000000000000815260040161026a90611103565b60405180910390fd5b60015f8381526020019081526020015f206040518060800160405290815f82015481526020016001820180546102a89061114e565b80601f01602080910402602001604051908101604052809291908181526020018280546102d49061114e565b801561031f5780601f106102f65761010080835404028352916020019161031f565b820191905f5260205f20905b81548152906001019060200180831161030257829003601f168201915b50505050508152602001600282015f9054906101000a900460ff161515151581526020016002820160019054906101000a900460ff1615151515815250509050919050565b61036c610c76565b5f808381526020019081526020015f206001015f9054906101000a900460ff166103cb576040517f08c379a00000000000000000000000000000000000000000000000000000000081526004016103c2906111c8565b60405180910390fd5b5f808381526020019081526020015f206040518060400160405290815f820180546103f59061114e565b80601f01602080910402602001604051908101604052809291908181526020018280546104219061114e565b801561046c5780601f106104435761010080835404028352916020019161046c565b820191905f5260205f20905b81548152906001019060200180831161044f57829003601f168201915b50505050508152602001600182015f9054906101000a900460ff1615151515815250509050919050565b61049e610c91565b60025f8481526020019081526020015f205f8381526020019081526020015f206004015f9054906101000a900460ff1661050d576040517f08c379a000000000000000000000000000000000000000000000000000000000815260040161050490611230565b60405180910390fd5b60025f8481526020019081526020015f205f8381526020019081526020015f206040518060a00160405290815f820154815260200160018201548152602001600282015f9054906101000a900460ff1615151515815260200160038201548152602001600482015f9054906101000a900460ff161515151581525050905092915050565b5f805f801b84036105d7576040517f08c379a00000000000000000000000000000000000000000000000000000000081526004016105ce90611298565b60405180910390fd5b5f808481526020019081526020015f206001015f9054906101000a900460ff16610636576040517f08c379a000000000000000000000000000000000000000000000000000000000815260040161062d906111c8565b60405180910390fd5b60019150606490506040518060a0016040528085815260200184815260200183151581526020018281526020016001151581525060025f8681526020019081526020015f205f8581526020019081526020015f205f820151815f0155602082015181600101556040820151816002015f6101000a81548160ff021916908315150217905550606082015181600301556080820151816004015f6101000a81548160ff02191690831515021790555090505082847f9f0e624b5686e972b82bc52ce69c67c58ed1b9d16c32bfc60b11c8bd38da5661848460405161071a929190610fab565b60405180910390a39250929050565b5f60015f8381526020019081526020015f2060020160019054906101000a900460ff168015610776575060015f8381526020019081526020015f206002015f9054906101000a900460ff16155b9050919050565b5f805f8381526020019081526020015f206001015f9054906101000a900460ff169050919050565b60015f8281526020019081526020015f2060020160019054906101000a900460ff16610806576040517f08c379a00000000000000000000000000000000000000000000000000000000081526004016107fd90611103565b60405180910390fd5b60015f8281526020019081526020015f206002015f9054906101000a900460ff1615610867576040517f08c379a000000000000000000000000000000000000000000000000000000000815260040161085e90611300565b60405180910390fd5b6001805f8381526020019081526020015f206002015f6101000a81548160ff021916908315150217905550807f59dfacd9d7efed5e104f00577a3f9a5c7694cdf9652a7ce662edb1ad5dca4e1260405160405180910390a250565b5f801b8303610906576040517f08c379a00000000000000000000000000000000000000000000000000000000081526004016108fd90611298565b60405180910390fd5b60015f8481526020019081526020015f2060020160019054906101000a900460ff1615610968576040517f08c379a000000000000000000000000000000000000000000000000000000000815260040161095f90611368565b60405180910390fd5b604051806080016040528084815260200183838080601f0160208091040260200160405190810160405280939291908181526020018383808284375f81840152601f19601f8201169050808301925050505050505081526020015f151581526020016001151581525060015f8581526020019081526020015f205f820151815f015560208201518160010190816109ff9190611550565b506040820151816002015f6101000a81548160ff02191690831515021790555060608201518160020160016101000a81548160ff021916908315150217905550905050827fcd5a5b192cac45a354e4010f8ac8348423d7f63ffe8710e8b720f363762e00938383604051610a74929190611659565b60405180910390a2505050565b5f801b8303610ac5576040517f08c379a0000000000000000000000000000000000000000000000000000000008152600401610abc906116c5565b60405180910390fd5b5f808481526020019081526020015f206001015f9054906101000a900460ff1615610b25576040517f08c379a0000000000000000000000000000000000000000000000000000000008152600401610b1c9061172d565b60405180910390fd5b5f8282905011610b6a576040517f08c379a0000000000000000000000000000000000000000000000000000000008152600401610b6190611795565b60405180910390fd5b604051806040016040528083838080601f0160208091040260200160405190810160405280939291908181526020018383808284375f81840152601f19601f820116905080830192505050505050508152602001600115158152505f808581526020019081526020015f205f820151815f019081610be89190611550565b506020820151816001015f6101000a81548160ff021916908315150217905550905050827f7e923cabb412dcd29e35d3f047c04b0abac4789d0a4560a5eded8dc9c5c4df888383604051610c3d929190611659565b60405180910390a2505050565b60405180608001604052805f8019168152602001606081526020015f151581526020015f151581525090565b6040518060400160405280606081526020015f151581525090565b6040518060a001604052805f80191681526020015f80191681526020015f151581526020015f81526020015f151581525090565b5f80fd5b5f80fd5b5f819050919050565b610cdf81610ccd565b8114610ce9575f80fd5b50565b5f81359050610cfa81610cd6565b92915050565b5f60208284031215610d1557610d14610cc5565b5b5f610d2284828501610cec565b91505092915050565b610d3481610ccd565b82525050565b5f81519050919050565b5f82825260208201905092915050565b5f5b83811015610d71578082015181840152602081019050610d56565b5f8484015250505050565b5f601f19601f8301169050919050565b5f610d9682610d3a565b610da08185610d44565b9350610db0818560208601610d54565b610db981610d7c565b840191505092915050565b5f8115159050919050565b610dd881610dc4565b82525050565b5f608083015f830151610df35f860182610d2b565b5060208301518482036020860152610e0b8282610d8c565b9150506040830151610e206040860182610dcf565b506060830151610e336060860182610dcf565b508091505092915050565b5f6020820190508181035f830152610e568184610dde565b905092915050565b5f604083015f8301518482035f860152610e788282610d8c565b9150506020830151610e8d6020860182610dcf565b508091505092915050565b5f6020820190508181035f830152610eb08184610e5e565b905092915050565b5f8060408385031215610ece57610ecd610cc5565b5b5f610edb85828601610cec565b9250506020610eec85828601610cec565b9150509250929050565b5f819050919050565b610f0881610ef6565b82525050565b60a082015f820151610f225f850182610d2b565b506020820151610f356020850182610d2b565b506040820151610f486040850182610dcf565b506060820151610f5b6060850182610eff565b506080820151610f6e6080850182610dcf565b50505050565b5f60a082019050610f875f830184610f0e565b92915050565b610f9681610dc4565b82525050565b610fa581610ef6565b82525050565b5f604082019050610fbe5f830185610f8d565b610fcb6020830184610f9c565b9392505050565b5f602082019050610fe55f830184610f8d565b92915050565b5f80fd5b5f80fd5b5f80fd5b5f8083601f84011261100c5761100b610feb565b5b8235905067ffffffffffffffff81111561102957611028610fef565b5b60208301915083600182028301111561104557611044610ff3565b5b9250929050565b5f805f6040848603121561106357611062610cc5565b5b5f61107086828701610cec565b935050602084013567ffffffffffffffff81111561109157611090610cc9565b5b61109d86828701610ff7565b92509250509250925092565b5f82825260208201905092915050565b7f4974656d206e6f742071756172616e74696e65640000000000000000000000005f82015250565b5f6110ed6014836110a9565b91506110f8826110b9565b602082019050919050565b5f6020820190508181035f83015261111a816110e1565b9050919050565b7f4e487b71000000000000000000000000000000000000000000000000000000005f52602260045260245ffd5b5f600282049050600182168061116557607f821691505b60208210810361117857611177611121565b5b50919050565b7f52756c65736574206e6f7420666f756e640000000000000000000000000000005f82015250565b5f6111b26011836110a9565b91506111bd8261117e565b602082019050919050565b5f6020820190508181035f8301526111df816111a6565b9050919050565b7f5175616c6974792073636f7265206e6f7420666f756e640000000000000000005f82015250565b5f61121a6017836110a9565b9150611225826111e6565b602082019050919050565b5f6020820190508181035f8301526112478161120e565b9050919050565b7f4974656d2049442063616e6e6f74206265207a65726f000000000000000000005f82015250565b5f6112826016836110a9565b915061128d8261124e565b602082019050919050565b5f6020820190508181035f8301526112af81611276565b9050919050565b7f4974656d20616c72656164792072656c656173656400000000000000000000005f82015250565b5f6112ea6015836110a9565b91506112f5826112b6565b602082019050919050565b5f6020820190508181035f830152611317816112de565b9050919050565b7f4974656d20616c72656164792071756172616e74696e656400000000000000005f82015250565b5f6113526018836110a9565b915061135d8261131e565b602082019050919050565b5f6020820190508181035f83015261137f81611346565b9050919050565b7f4e487b71000000000000000000000000000000000000000000000000000000005f52604160045260245ffd5b5f819050815f5260205f209050919050565b5f6020601f8301049050919050565b5f82821b905092915050565b5f6008830261140f7fffffffffffffffffffffffffffffffffffffffffffffffffffffffffffffffff826113d4565b61141986836113d4565b95508019841693508086168417925050509392505050565b5f819050919050565b5f61145461144f61144a84610ef6565b611431565b610ef6565b9050919050565b5f819050919050565b61146d8361143a565b6114816114798261145b565b8484546113e0565b825550505050565b5f90565b611495611489565b6114a0818484611464565b505050565b5b818110156114c3576114b85f8261148d565b6001810190506114a6565b5050565b601f821115611508576114d9816113b3565b6114e2846113c5565b810160208510156114f1578190505b6115056114fd856113c5565b8301826114a5565b50505b505050565b5f82821c905092915050565b5f6115285f198460080261150d565b1980831691505092915050565b5f6115408383611519565b9150826002028217905092915050565b61155982610d3a565b67ffffffffffffffff81111561157257611571611386565b5b61157c825461114e565b6115878282856114c7565b5f60209050601f8311600181146115b8575f84156115a6578287015190505b6115b08582611535565b865550611617565b601f1984166115c6866113b3565b5f5b828110156115ed578489015182556001820191506020850194506020810190506115c8565b8683101561160a5784890151611606601f891682611519565b8355505b6001600288020188555050505b505050505050565b828183375f83830152505050565b5f61163883856110a9565b935061164583858461161f565b61164e83610d7c565b840190509392505050565b5f6020820190508181035f83015261167281848661162d565b90509392505050565b7f52756c657365742049442063616e6e6f74206265207a65726f000000000000005f82015250565b5f6116af6019836110a9565b91506116ba8261167b565b602082019050919050565b5f6020820190508181035f8301526116dc816116a3565b9050919050565b7f52756c6573657420616c726561647920657869737473000000000000000000005f82015250565b5f6117176016836110a9565b9150611722826116e3565b602082019050919050565b5f6020820190508181035f8301526117448161170b565b9050919050565b7f4e616d652063616e6e6f7420626520656d7074790000000000000000000000005f82015250565b5f61177f6014836110a9565b915061178a8261174b565b602082019050919050565b5f6020820190508181035f8301526117ac81611773565b905091905056fea2646970667358221220af6f5aaea2a806323e460a9a91da35a7e0953677ac77e7a6078bf18a3f5b86ce64736f6c63430008140033","linkReferences":{}},"methodIdentifiers":{"createRuleset(bytes32,string)":"cafb4449","getQualityScore(bytes32,bytes32)":"1f738c1d","getQuarantinedItem(bytes32)":"16dff57d","getRuleset(bytes32)":"19fc27ec","isQuarantined(bytes32)":"5af11d65","quarantine(bytes32,string)":"b8f23ee8","release(bytes32)":"67d42a8b","rulesetExists(bytes32)":"5ef34c64","validate(bytes32,bytes32)":"41f23c47"},"id":88}