{"abi":[{"type":"function","name":"fetch","inputs":[{"name":"secretId","type":"string","internalType":"string"},{"name":"version","type":"string","internalType":"string"}],"outputs":[{"name":"","type":"tuple","internalType":"struct GcpSmProvider.FetchOkResult","components":[{"name":"success","type":"bool","internalType":"bool"},{"name":"value","type":"string","internalType":"string"},{"name":"versionId","type":"string","internalType":"string"},{"name":"projectId","type":"string","internalType":"string"}]}],"stateMutability":"nonpayable"},{"type":"function","name":"register","inputs":[],"outputs":[{"name":"name","type":"string","internalType":"string"},{"name":"category","type":"string","internalType":"string"},{"name":"capabilities","type":"string[]","internalType":"string[]"}],"stateMutability":"pure"},{"type":"function","name":"rotate","inputs":[{"name":"secretId","type":"string","internalType":"string"}],"outputs":[{"name":"","type":"tuple","internalType":"struct GcpSmProvider.RotateOkResult","components":[{"name":"success","type":"bool","internalType":"bool"},{"name":"secretId","type":"string","internalType":"string"},{"name":"newVersionId","type":"string","internalType":"string"}]}],"stateMutability":"nonpayable"},{"type":"event","name":"FetchCompleted","inputs":[{"name":"variant","type":"string","indexed":false,"internalType":"string"}],"anonymous":false},{"type":"event","name":"RotateCompleted","inputs":[{"name":"variant","type":"string","indexed":false,"internalType":"string"}],"anonymous":false}],"bytecode":{"object":"0x608060405234801561000f575f80fd5b506113638061001d5f395ff3fe608060405234801561000f575f80fd5b506004361061003f575f3560e01c80631aa3a008146100435780635a24152214610063578063e207bc0c14610093575b5f80fd5b61004b6100c3565b60405161005a93929190610918565b60405180910390f35b61007d60048036038101906100789190610a9f565b610237565b60405161008a9190610b54565b60405180910390f35b6100ad60048036038101906100a89190610b74565b6103c7565b6040516100ba9190610c58565b60405180910390f35b60608060606040518060400160405280600681526020017f6763702d736d000000000000000000000000000000000000000000000000000081525092506040518060400160405280600681526020017f73656372657400000000000000000000000000000000000000000000000000008152509150600267ffffffffffffffff8111156101535761015261097b565b5b60405190808252806020026020018201604052801561018657816020015b60608152602001906001900390816101715790505b5090506040518060400160405280600581526020017f6665746368000000000000000000000000000000000000000000000000000000815250815f815181106101d2576101d1610c78565b5b60200260200101819052506040518060400160405280600681526020017f726f7461746500000000000000000000000000000000000000000000000000008152508160018151811061022757610226610c78565b5b6020026020010181905250909192565b61023f610740565b5f826040516020016102519190610cdf565b60405160208183030381529060405280519060200120905060015f8281526020019081526020015f205f9054906101000a900460ff166102c6576040517f08c379a00000000000000000000000000000000000000000000000000000000081526004016102bd90610d3f565b60405180910390fd5b600160035f8381526020019081526020015f205f8282546102e79190610d93565b925050819055505f61030960035f8481526020019081526020015f20546105e7565b6040516020016103199190610e10565b604051602081830303815290604052905083814260405160200161033f93929190610e40565b6040516020818303038152906040525f808481526020019081526020015f20908161036a9190611087565b507f64a0f5d1e9bdc96e4be4e7dceb4fae69c5740a774a88f9c964c39af6e37171a6604051610398906111a0565b60405180910390a160405180606001604052806001151581526020018581526020018281525092505050919050565b6103cf610762565b5f835111610412576040517f08c379a000000000000000000000000000000000000000000000000000000000815260040161040990611208565b60405180910390fd5b5f836040516020016104249190610cdf565b60405160208183030381529060405280519060200120905060015f8281526020019081526020015f205f9054906101000a900460ff166104c4576001805f8381526020019081526020015f205f6101000a81548160ff021916908315150217905550600281908060018154018082558091505060019003905f5260205f20015f9091909190915055600160035f8381526020019081526020015f20819055505b8383426040516020016104d993929190610e40565b6040516020818303038152906040525f808381526020019081526020015f2090816105049190611087565b505f61052060035f8481526020019081526020015f20546105e7565b6040516020016105309190610e10565b60405160208183030381529060405290507f1d1ab172d474a1b75efa42e5c9b0a44ff06885185f7f51268df2f36f30ebbc3060405161056e906111a0565b60405180910390a1604051806080016040528060011515815260200160405180602001604052805f81525081526020018281526020016040518060400160405280600b81526020017f6763702d70726f6a6563740000000000000000000000000000000000000000008152508152509250505092915050565b60605f820361062d576040518060400160405280600181526020017f3000000000000000000000000000000000000000000000000000000000000000815250905061073b565b5f8290505f5b5f821461065c57808061064590611226565b915050600a82610655919061129a565b9150610633565b5f8167ffffffffffffffff8111156106775761067661097b565b5b6040519080825280601f01601f1916602001820160405280156106a95781602001600182028036833780820191505090505b5090505b5f8514610734576001826106c191906112ca565b9150600a856106d091906112fd565b60306106dc9190610d93565b60f81b8183815181106106f2576106f1610c78565b5b60200101907effffffffffffffffffffffffffffffffffffffffffffffffffffffffffffff191690815f1a905350600a8561072d919061129a565b94506106ad565b8093505050505b919050565b60405180606001604052805f1515815260200160608152602001606081525090565b60405180608001604052805f151581526020016060815260200160608152602001606081525090565b5f81519050919050565b5f82825260208201905092915050565b5f5b838110156107c25780820151818401526020810190506107a7565b5f8484015250505050565b5f601f19601f8301169050919050565b5f6107e78261078b565b6107f18185610795565b93506108018185602086016107a5565b61080a816107cd565b840191505092915050565b5f81519050919050565b5f82825260208201905092915050565b5f819050602082019050919050565b5f82825260208201905092915050565b5f6108588261078b565b610862818561083e565b93506108728185602086016107a5565b61087b816107cd565b840191505092915050565b5f610891838361084e565b905092915050565b5f602082019050919050565b5f6108af82610815565b6108b9818561081f565b9350836020820285016108cb8561082f565b805f5b8581101561090657848403895281516108e78582610886565b94506108f283610899565b925060208a019950506001810190506108ce565b50829750879550505050505092915050565b5f6060820190508181035f83015261093081866107dd565b9050818103602083015261094481856107dd565b9050818103604083015261095881846108a5565b9050949350505050565b5f604051905090565b5f80fd5b5f80fd5b5f80fd5b5f80fd5b7f4e487b71000000000000000000000000000000000000000000000000000000005f52604160045260245ffd5b6109b1826107cd565b810181811067ffffffffffffffff821117156109d0576109cf61097b565b5b80604052505050565b5f6109e2610962565b90506109ee82826109a8565b919050565b5f67ffffffffffffffff821115610a0d57610a0c61097b565b5b610a16826107cd565b9050602081019050919050565b828183375f83830152505050565b5f610a43610a3e846109f3565b6109d9565b905082815260208101848484011115610a5f57610a5e610977565b5b610a6a848285610a23565b509392505050565b5f82601f830112610a8657610a85610973565b5b8135610a96848260208601610a31565b91505092915050565b5f60208284031215610ab457610ab361096b565b5b5f82013567ffffffffffffffff811115610ad157610ad061096f565b5b610add84828501610a72565b91505092915050565b5f8115159050919050565b610afa81610ae6565b82525050565b5f606083015f830151610b155f860182610af1565b5060208301518482036020860152610b2d828261084e565b91505060408301518482036040860152610b47828261084e565b9150508091505092915050565b5f6020820190508181035f830152610b6c8184610b00565b905092915050565b5f8060408385031215610b8a57610b8961096b565b5b5f83013567ffffffffffffffff811115610ba757610ba661096f565b5b610bb385828601610a72565b925050602083013567ffffffffffffffff811115610bd457610bd361096f565b5b610be085828601610a72565b9150509250929050565b5f608083015f830151610bff5f860182610af1565b5060208301518482036020860152610c17828261084e565b91505060408301518482036040860152610c31828261084e565b91505060608301518482036060860152610c4b828261084e565b9150508091505092915050565b5f6020820190508181035f830152610c708184610bea565b905092915050565b7f4e487b71000000000000000000000000000000000000000000000000000000005f52603260045260245ffd5b5f81905092915050565b5f610cb98261078b565b610cc38185610ca5565b9350610cd38185602086016107a5565b80840191505092915050565b5f610cea8284610caf565b915081905092915050565b7f536563726574206e6f7420666f756e64202d20666574636820666972737400005f82015250565b5f610d29601e83610795565b9150610d3482610cf5565b602082019050919050565b5f6020820190508181035f830152610d5681610d1d565b9050919050565b5f819050919050565b7f4e487b71000000000000000000000000000000000000000000000000000000005f52601160045260245ffd5b5f610d9d82610d5d565b9150610da883610d5d565b9250828201905080821115610dc057610dbf610d66565b5b92915050565b7f76000000000000000000000000000000000000000000000000000000000000005f82015250565b5f610dfa600183610ca5565b9150610e0582610dc6565b600182019050919050565b5f610e1a82610dee565b9150610e268284610caf565b915081905092915050565b610e3a81610d5d565b82525050565b5f6060820190508181035f830152610e5881866107dd565b90508181036020830152610e6c81856107dd565b9050610e7b6040830184610e31565b949350505050565b5f81519050919050565b7f4e487b71000000000000000000000000000000000000000000000000000000005f52602260045260245ffd5b5f6002820490506001821680610ed157607f821691505b602082108103610ee457610ee3610e8d565b5b50919050565b5f819050815f5260205f209050919050565b5f6020601f8301049050919050565b5f82821b905092915050565b5f60088302610f467fffffffffffffffffffffffffffffffffffffffffffffffffffffffffffffffff82610f0b565b610f508683610f0b565b95508019841693508086168417925050509392505050565b5f819050919050565b5f610f8b610f86610f8184610d5d565b610f68565b610d5d565b9050919050565b5f819050919050565b610fa483610f71565b610fb8610fb082610f92565b848454610f17565b825550505050565b5f90565b610fcc610fc0565b610fd7818484610f9b565b505050565b5b81811015610ffa57610fef5f82610fc4565b600181019050610fdd565b5050565b601f82111561103f5761101081610eea565b61101984610efc565b81016020851015611028578190505b61103c61103485610efc565b830182610fdc565b50505b505050565b5f82821c905092915050565b5f61105f5f1984600802611044565b1980831691505092915050565b5f6110778383611050565b9150826002028217905092915050565b61109082610e83565b67ffffffffffffffff8111156110a9576110a861097b565b5b6110b38254610eba565b6110be828285610ffe565b5f60209050601f8311600181146110ef575f84156110dd578287015190505b6110e7858261106c565b86555061114e565b601f1984166110fd86610eea565b5f5b82811015611124578489015182556001820191506020850194506020810190506110ff565b86831015611141578489015161113d601f891682611050565b8355505b6001600288020188555050505b505050505050565b7f6f6b0000000000000000000000000000000000000000000000000000000000005f82015250565b5f61118a600283610795565b915061119582611156565b602082019050919050565b5f6020820190508181035f8301526111b78161117e565b9050919050565b7f536563726574204944206d757374206e6f7420626520656d70747900000000005f82015250565b5f6111f2601b83610795565b91506111fd826111be565b602082019050919050565b5f6020820190508181035f83015261121f816111e6565b9050919050565b5f61123082610d5d565b91507fffffffffffffffffffffffffffffffffffffffffffffffffffffffffffffffff820361126257611261610d66565b5b600182019050919050565b7f4e487b71000000000000000000000000000000000000000000000000000000005f52601260045260245ffd5b5f6112a482610d5d565b91506112af83610d5d565b9250826112bf576112be61126d565b5b828204905092915050565b5f6112d482610d5d565b91506112df83610d5d565b92508282039050818111156112f7576112f6610d66565b5b92915050565b5f61130782610d5d565b915061131283610d5d565b9250826113225761132161126d565b5b82820690509291505056fea2646970667358221220f5028588925abb0f1a39729e7eb331ad2b9a522f0e64af719f9d4d054edc17ae64736f6c63430008140033","linkReferences":{}},"methodIdentifiers":{"fetch(string,string)":"e207bc0c","register()":"1aa3a008","rotate(string)":"5a241522"},"id":131}