{"abi":[{"type":"function","name":"generate","inputs":[{"name":"name","type":"string","internalType":"string"},{"name":"trigger","type":"bytes","internalType":"bytes"},{"name":"effects","type":"bytes[]","internalType":"bytes[]"}],"outputs":[{"name":"result","type":"tuple","internalType":"struct SyncScaffoldGen.GenerateOkResult","components":[{"name":"success","type":"bool","internalType":"bool"},{"name":"files","type":"bytes[]","internalType":"bytes[]"},{"name":"filesGenerated","type":"int256","internalType":"int256"}]}],"stateMutability":"nonpayable"},{"type":"function","name":"hasSpec","inputs":[{"name":"name","type":"string","internalType":"string"}],"outputs":[{"name":"","type":"bool","internalType":"bool"}],"stateMutability":"view"},{"type":"function","name":"preview","inputs":[{"name":"name","type":"string","internalType":"string"},{"name":"trigger","type":"bytes","internalType":"bytes"},{"name":"effects","type":"bytes[]","internalType":"bytes[]"}],"outputs":[{"name":"result","type":"tuple","internalType":"struct SyncScaffoldGen.PreviewOkResult","components":[{"name":"success","type":"bool","internalType":"bool"},{"name":"files","type":"bytes[]","internalType":"bytes[]"},{"name":"wouldWrite","type":"int256","internalType":"int256"},{"name":"wouldSkip","type":"int256","internalType":"int256"}]}],"stateMutability":"view"},{"type":"function","name":"register","inputs":[],"outputs":[{"name":"result","type":"tuple","internalType":"struct SyncScaffoldGen.RegisterOkResult","components":[{"name":"success","type":"bool","internalType":"bool"},{"name":"name","type":"string","internalType":"string"},{"name":"inputKind","type":"string","internalType":"string"},{"name":"outputKind","type":"string","internalType":"string"},{"name":"capabilities","type":"string[]","internalType":"string[]"}]}],"stateMutability":"pure"},{"type":"function","name":"specCount","inputs":[],"outputs":[{"name":"","type":"uint256","internalType":"uint256"}],"stateMutability":"view"},{"type":"event","name":"GenerateCompleted","inputs":[{"name":"variant","type":"string","indexed":false,"internalType":"string"},{"name":"files","type":"bytes[]","indexed":false,"internalType":"bytes[]"},{"name":"filesGenerated","type":"int256","indexed":false,"internalType":"int256"}],"anonymous":false},{"type":"event","name":"PreviewCompleted","inputs":[{"name":"variant","type":"string","indexed":false,"internalType":"string"},{"name":"files","type":"bytes[]","indexed":false,"internalType":"bytes[]"},{"name":"wouldWrite","type":"int256","indexed":false,"internalType":"int256"},{"name":"wouldSkip","type":"int256","indexed":false,"internalType":"int256"}],"anonymous":false},{"type":"event","name":"RegisterCompleted","inputs":[{"name":"variant","type":"string","indexed":false,"internalType":"string"},{"name":"capabilities","type":"string[]","indexed":false,"internalType":"string[]"}],"anonymous":false}],"bytecode":{"object":"0x608060405234801561000f575f80fd5b50611c0a8061001d5f395ff3fe608060405234801561000f575f80fd5b5060043610610055575f3560e01c80630481c559146100595780631aa3a008146100895780633bdd6efe146100a7578063aa4fe9ff146100d7578063d99629a014610107575b5f80fd5b610073600480360381019061006e9190610d1f565b610125565b6040516100809190610f8a565b60405180910390f35b61009161033c565b60405161009e919061113f565b60405180910390f35b6100c160048036038101906100bc919061115f565b610563565b6040516100ce91906111b5565b60405180910390f35b6100f160048036038101906100ec9190610d1f565b6105af565b6040516100fe919061121b565b60405180910390f35b61010f610875565b60405161011c9190611253565b60405180910390f35b61012d6109da565b5f845111610170576040517f08c379a0000000000000000000000000000000000000000000000000000000008152600401610167906112c6565b60405180910390fd5b5f8351116101b3576040517f08c379a00000000000000000000000000000000000000000000000000000000081526004016101aa9061132e565b60405180910390fd5b5f846040516020016101c59190611386565b6040516020818303038152906040528051906020012090505f600267ffffffffffffffff8111156101f9576101f8610a7b565b5b60405190808252806020026020018201604052801561022c57816020015b60608152602001906001900390816102175790505b5090508561023a8651610881565b6102448651610881565b6040516020016102569392919061147a565b604051602081830303815290604052815f81518110610278576102776114cb565b5b60200260200101819052508561028e8551610881565b60405160200161029f92919061158c565b604051602081830303815290604052816001815181106102c2576102c16114cb565b5b60200260200101819052505f60015f8481526020019081526020015f205f9054906101000a900460ff166102f6575f6102f9565b60015b90505f81600261030991906115f2565b90506040518060800160405280600115158152602001848152602001828152602001838152509450505050509392505050565b610344610a01565b5f600367ffffffffffffffff8111156103605761035f610a7b565b5b60405190808252806020026020018201604052801561039357816020015b606081526020019060019003908161037e5790505b5090506040518060400160405280600d81526020017f73796e632d73636166666f6c6400000000000000000000000000000000000000815250815f815181106103df576103de6114cb565b5b60200260200101819052506040518060400160405280601281526020017f747269676765722d646566696e6974696f6e000000000000000000000000000081525081600181518110610434576104336114cb565b5b60200260200101819052506040518060400160405280600d81526020017f6566666563742d776972696e670000000000000000000000000000000000000081525081600281518110610489576104886114cb565b5b60200260200101819052506040518060a001604052806001151581526020016040518060400160405280601181526020017f73796e632d73636166666f6c642d67656e00000000000000000000000000000081525081526020016040518060400160405280600981526020017f73796e632d73706563000000000000000000000000000000000000000000000081525081526020016040518060400160405280600e81526020017f73636166666f6c642d66696c657300000000000000000000000000000000000081525081526020018281525091505090565b5f60015f836040516020016105789190611386565b6040516020818303038152906040528051906020012081526020019081526020015f205f9054906101000a900460ff169050919050565b6105b7610a31565b5f8451116105fa576040517f08c379a00000000000000000000000000000000000000000000000000000000081526004016105f1906112c6565b60405180910390fd5b5f83511161063d576040517f08c379a00000000000000000000000000000000000000000000000000000000081526004016106349061132e565b60405180910390fd5b5f8460405160200161064f9190611386565b6040516020818303038152906040528051906020012090505f600267ffffffffffffffff81111561068357610682610a7b565b5b6040519080825280602002602001820160405280156106b657816020015b60608152602001906001900390816106a15790505b509050856106c48651610881565b6106ce8651610881565b6040516020016106e09392919061147a565b604051602081830303815290604052815f81518110610702576107016114cb565b5b6020026020010181905250856107188551610881565b60405160200161072992919061158c565b6040516020818303038152906040528160018151811061074c5761074b6114cb565b5b6020026020010181905250858551855142604051602001610770949392919061166a565b6040516020818303038152906040525f808481526020019081526020015f20908161079b91906118ae565b5060015f8381526020019081526020015f205f9054906101000a900460ff1661080d576001805f8481526020019081526020015f205f6101000a81548160ff021916908315150217905550600282908060018154018082558091505060019003905f5260205f20015f90919091909150555b5f6002905060405180606001604052806001151581526020018381526020018281525093507f48bda0bee7ff8852f440265af654a83c61da2283be561d3abff07f7ae4ae9e088282604051610863929190611a59565b60405180910390a15050509392505050565b5f600280549050905090565b60605f82036108c7576040518060400160405280600181526020017f300000000000000000000000000000000000000000000000000000000000000081525090506109d5565b5f8290505f5b5f82146108f65780806108df90611a9a565b915050600a826108ef9190611b0e565b91506108cd565b5f8167ffffffffffffffff81111561091157610910610a7b565b5b6040519080825280601f01601f1916602001820160405280156109435781602001600182028036833780820191505090505b5090505b5f85146109ce5760018261095b9190611b3e565b9150600a8561096a9190611b71565b60306109769190611ba1565b60f81b81838151811061098c5761098b6114cb565b5b60200101907effffffffffffffffffffffffffffffffffffffffffffffffffffffffffffff191690815f1a905350600a856109c79190611b0e565b9450610947565b8093505050505b919050565b60405180608001604052805f15158152602001606081526020015f81526020015f81525090565b6040518060a001604052805f15158152602001606081526020016060815260200160608152602001606081525090565b60405180606001604052805f15158152602001606081526020015f81525090565b5f604051905090565b5f80fd5b5f80fd5b5f80fd5b5f80fd5b5f601f19601f8301169050919050565b7f4e487b71000000000000000000000000000000000000000000000000000000005f52604160045260245ffd5b610ab182610a6b565b810181811067ffffffffffffffff82111715610ad057610acf610a7b565b5b80604052505050565b5f610ae2610a52565b9050610aee8282610aa8565b919050565b5f67ffffffffffffffff821115610b0d57610b0c610a7b565b5b610b1682610a6b565b9050602081019050919050565b828183375f83830152505050565b5f610b43610b3e84610af3565b610ad9565b905082815260208101848484011115610b5f57610b5e610a67565b5b610b6a848285610b23565b509392505050565b5f82601f830112610b8657610b85610a63565b5b8135610b96848260208601610b31565b91505092915050565b5f67ffffffffffffffff821115610bb957610bb8610a7b565b5b610bc282610a6b565b9050602081019050919050565b5f610be1610bdc84610b9f565b610ad9565b905082815260208101848484011115610bfd57610bfc610a67565b5b610c08848285610b23565b509392505050565b5f82601f830112610c2457610c23610a63565b5b8135610c34848260208601610bcf565b91505092915050565b5f67ffffffffffffffff821115610c5757610c56610a7b565b5b602082029050602081019050919050565b5f80fd5b5f610c7e610c7984610c3d565b610ad9565b90508083825260208201905060208402830185811115610ca157610ca0610c68565b5b835b81811015610ce857803567ffffffffffffffff811115610cc657610cc5610a63565b5b808601610cd38982610c10565b85526020850194505050602081019050610ca3565b5050509392505050565b5f82601f830112610d0657610d05610a63565b5b8135610d16848260208601610c6c565b91505092915050565b5f805f60608486031215610d3657610d35610a5b565b5b5f84013567ffffffffffffffff811115610d5357610d52610a5f565b5b610d5f86828701610b72565b935050602084013567ffffffffffffffff811115610d8057610d7f610a5f565b5b610d8c86828701610c10565b925050604084013567ffffffffffffffff811115610dad57610dac610a5f565b5b610db986828701610cf2565b9150509250925092565b5f8115159050919050565b610dd781610dc3565b82525050565b5f81519050919050565b5f82825260208201905092915050565b5f819050602082019050919050565b5f81519050919050565b5f82825260208201905092915050565b5f5b83811015610e3d578082015181840152602081019050610e22565b5f8484015250505050565b5f610e5282610e06565b610e5c8185610e10565b9350610e6c818560208601610e20565b610e7581610a6b565b840191505092915050565b5f610e8b8383610e48565b905092915050565b5f602082019050919050565b5f610ea982610ddd565b610eb38185610de7565b935083602082028501610ec585610df7565b805f5b85811015610f005784840389528151610ee18582610e80565b9450610eec83610e93565b925060208a01995050600181019050610ec8565b50829750879550505050505092915050565b5f819050919050565b610f2481610f12565b82525050565b5f608083015f830151610f3f5f860182610dce565b5060208301518482036020860152610f578282610e9f565b9150506040830151610f6c6040860182610f1b565b506060830151610f7f6060860182610f1b565b508091505092915050565b5f6020820190508181035f830152610fa28184610f2a565b905092915050565b5f81519050919050565b5f82825260208201905092915050565b5f610fce82610faa565b610fd88185610fb4565b9350610fe8818560208601610e20565b610ff181610a6b565b840191505092915050565b5f81519050919050565b5f82825260208201905092915050565b5f819050602082019050919050565b5f6110308383610fc4565b905092915050565b5f602082019050919050565b5f61104e82610ffc565b6110588185611006565b93508360208202850161106a85611016565b805f5b858110156110a557848403895281516110868582611025565b945061109183611038565b925060208a0199505060018101905061106d565b50829750879550505050505092915050565b5f60a083015f8301516110cc5f860182610dce565b50602083015184820360208601526110e48282610fc4565b915050604083015184820360408601526110fe8282610fc4565b915050606083015184820360608601526111188282610fc4565b915050608083015184820360808601526111328282611044565b9150508091505092915050565b5f6020820190508181035f83015261115781846110b7565b905092915050565b5f6020828403121561117457611173610a5b565b5b5f82013567ffffffffffffffff81111561119157611190610a5f565b5b61119d84828501610b72565b91505092915050565b6111af81610dc3565b82525050565b5f6020820190506111c85f8301846111a6565b92915050565b5f606083015f8301516111e35f860182610dce565b50602083015184820360208601526111fb8282610e9f565b91505060408301516112106040860182610f1b565b508091505092915050565b5f6020820190508181035f83015261123381846111ce565b905092915050565b5f819050919050565b61124d8161123b565b82525050565b5f6020820190506112665f830184611244565b92915050565b5f82825260208201905092915050565b7f53796e63206e616d652063616e6e6f7420626520656d707479000000000000005f82015250565b5f6112b060198361126c565b91506112bb8261127c565b602082019050919050565b5f6020820190508181035f8301526112dd816112a4565b9050919050565b7f547269676765722063616e6e6f7420626520656d7074790000000000000000005f82015250565b5f61131860178361126c565b9150611323826112e4565b602082019050919050565b5f6020820190508181035f8301526113458161130c565b9050919050565b5f81905092915050565b5f61136082610faa565b61136a818561134c565b935061137a818560208601610e20565b80840191505092915050565b5f6113918284611356565b915081905092915050565b7f2f2f2053796e632073636166666f6c643a2000000000000000000000000000005f82015250565b5f6113d060128361134c565b91506113db8261139c565b601282019050919050565b7f0a2f2f20547269676765722073697a653a2000000000000000000000000000005f82015250565b5f61141a60128361134c565b9150611425826113e6565b601282019050919050565b7f0a2f2f20456666656374733a20000000000000000000000000000000000000005f82015250565b5f611464600d8361134c565b915061146f82611430565b600d82019050919050565b5f611484826113c4565b91506114908286611356565b915061149b8261140e565b91506114a78285611356565b91506114b282611458565b91506114be8284611356565b9150819050949350505050565b7f4e487b71000000000000000000000000000000000000000000000000000000005f52603260045260245ffd5b7f2f2f2053796e632068616e646c65722073636166666f6c643a200000000000005f82015250565b5f61152c601a8361134c565b9150611537826114f8565b601a82019050919050565b7f0a2f2f204566666563742068616e646c6572733a2000000000000000000000005f82015250565b5f61157660158361134c565b915061158182611542565b601582019050919050565b5f61159682611520565b91506115a28285611356565b91506115ad8261156a565b91506115b98284611356565b91508190509392505050565b7f4e487b71000000000000000000000000000000000000000000000000000000005f52601160045260245ffd5b5f6115fc82610f12565b915061160783610f12565b925082820390508181125f8412168282135f85121516171561162c5761162b6115c5565b5b92915050565b5f61163c82610faa565b611646818561126c565b9350611656818560208601610e20565b61165f81610a6b565b840191505092915050565b5f6080820190508181035f8301526116828187611632565b90506116916020830186611244565b61169e6040830185611244565b6116ab6060830184611244565b95945050505050565b7f4e487b71000000000000000000000000000000000000000000000000000000005f52602260045260245ffd5b5f60028204905060018216806116f857607f821691505b60208210810361170b5761170a6116b4565b5b50919050565b5f819050815f5260205f209050919050565b5f6020601f8301049050919050565b5f82821b905092915050565b5f6008830261176d7fffffffffffffffffffffffffffffffffffffffffffffffffffffffffffffffff82611732565b6117778683611732565b95508019841693508086168417925050509392505050565b5f819050919050565b5f6117b26117ad6117a88461123b565b61178f565b61123b565b9050919050565b5f819050919050565b6117cb83611798565b6117df6117d7826117b9565b84845461173e565b825550505050565b5f90565b6117f36117e7565b6117fe8184846117c2565b505050565b5b81811015611821576118165f826117eb565b600181019050611804565b5050565b601f8211156118665761183781611711565b61184084611723565b8101602085101561184f578190505b61186361185b85611723565b830182611803565b50505b505050565b5f82821c905092915050565b5f6118865f198460080261186b565b1980831691505092915050565b5f61189e8383611877565b9150826002028217905092915050565b6118b782610e06565b67ffffffffffffffff8111156118d0576118cf610a7b565b5b6118da82546116e1565b6118e5828285611825565b5f60209050601f831160018114611916575f8415611904578287015190505b61190e8582611893565b865550611975565b601f19841661192486611711565b5f5b8281101561194b57848901518255600182019150602085019450602081019050611926565b868310156119685784890151611964601f891682611877565b8355505b6001600288020188555050505b505050505050565b7f6f6b0000000000000000000000000000000000000000000000000000000000005f82015250565b5f6119b160028361126c565b91506119bc8261197d565b602082019050919050565b5f82825260208201905092915050565b5f6119e182610ddd565b6119eb81856119c7565b9350836020820285016119fd85610df7565b805f5b85811015611a385784840389528151611a198582610e80565b9450611a2483610e93565b925060208a01995050600181019050611a00565b50829750879550505050505092915050565b611a5381610f12565b82525050565b5f6060820190508181035f830152611a70816119a5565b90508181036020830152611a8481856119d7565b9050611a936040830184611a4a565b9392505050565b5f611aa48261123b565b91507fffffffffffffffffffffffffffffffffffffffffffffffffffffffffffffffff8203611ad657611ad56115c5565b5b600182019050919050565b7f4e487b71000000000000000000000000000000000000000000000000000000005f52601260045260245ffd5b5f611b188261123b565b9150611b238361123b565b925082611b3357611b32611ae1565b5b828204905092915050565b5f611b488261123b565b9150611b538361123b565b9250828203905081811115611b6b57611b6a6115c5565b5b92915050565b5f611b7b8261123b565b9150611b868361123b565b925082611b9657611b95611ae1565b5b828206905092915050565b5f611bab8261123b565b9150611bb68361123b565b9250828201905080821115611bce57611bcd6115c5565b5b9291505056fea2646970667358221220d3c30a47c0a820b18086b6848c1c8de1d356b584217fab87a60f32511feef61264736f6c63430008140033","linkReferences":{}},"methodIdentifiers":{"generate(string,bytes,bytes[])":"aa4fe9ff","hasSpec(string)":"3bdd6efe","preview(string,bytes,bytes[])":"0481c559","register()":"1aa3a008","specCount()":"d99629a0"},"id":31}