{"abi":[{"type":"function","name":"generate","inputs":[{"name":"concept","type":"string","internalType":"string"},{"name":"specPath","type":"string","internalType":"string"}],"outputs":[{"name":"","type":"tuple","internalType":"struct Conformance.GenerateOkResult","components":[{"name":"success","type":"bool","internalType":"bool"},{"name":"suite","type":"bytes32","internalType":"bytes32"},{"name":"testVectors","type":"bytes[]","internalType":"bytes[]"}]}],"stateMutability":"nonpayable"},{"type":"function","name":"matrix","inputs":[{"name":"concepts","type":"string[]","internalType":"string[]"}],"outputs":[{"name":"","type":"tuple","internalType":"struct Conformance.MatrixOkResult","components":[{"name":"success","type":"bool","internalType":"bool"},{"name":"matrix","type":"bytes[]","internalType":"bytes[]"}]}],"stateMutability":"nonpayable"},{"type":"function","name":"registerDeviation","inputs":[{"name":"concept","type":"string","internalType":"string"},{"name":"language","type":"string","internalType":"string"},{"name":"requirement","type":"string","internalType":"string"},{"name":"reason","type":"string","internalType":"string"}],"outputs":[{"name":"","type":"tuple","internalType":"struct Conformance.RegisterDeviationOkResult","components":[{"name":"success","type":"bool","internalType":"bool"},{"name":"suite","type":"bytes32","internalType":"bytes32"}]}],"stateMutability":"nonpayable"},{"type":"function","name":"traceability","inputs":[{"name":"concept","type":"string","internalType":"string"}],"outputs":[{"name":"","type":"tuple","internalType":"struct Conformance.TraceabilityOkResult","components":[{"name":"success","type":"bool","internalType":"bool"},{"name":"requirements","type":"bytes[]","internalType":"bytes[]"}]}],"stateMutability":"nonpayable"},{"type":"function","name":"verify","inputs":[{"name":"suite","type":"bytes32","internalType":"bytes32"},{"name":"language","type":"string","internalType":"string"},{"name":"artifactLocation","type":"string","internalType":"string"}],"outputs":[{"name":"","type":"tuple","internalType":"struct Conformance.VerifyOkResult","components":[{"name":"success","type":"bool","internalType":"bool"},{"name":"passed","type":"int256","internalType":"int256"},{"name":"total","type":"int256","internalType":"int256"},{"name":"coveredRequirements","type":"string[]","internalType":"string[]"}]}],"stateMutability":"nonpayable"},{"type":"event","name":"GenerateCompleted","inputs":[{"name":"variant","type":"string","indexed":false,"internalType":"string"},{"name":"suite","type":"bytes32","indexed":false,"internalType":"bytes32"},{"name":"testVectors","type":"bytes[]","indexed":false,"internalType":"bytes[]"}],"anonymous":false},{"type":"event","name":"MatrixCompleted","inputs":[{"name":"variant","type":"string","indexed":false,"internalType":"string"},{"name":"matrix","type":"bytes[]","indexed":false,"internalType":"bytes[]"}],"anonymous":false},{"type":"event","name":"RegisterDeviationCompleted","inputs":[{"name":"variant","type":"string","indexed":false,"internalType":"string"},{"name":"suite","type":"bytes32","indexed":false,"internalType":"bytes32"}],"anonymous":false},{"type":"event","name":"TraceabilityCompleted","inputs":[{"name":"variant","type":"string","indexed":false,"internalType":"string"},{"name":"requirements","type":"bytes[]","indexed":false,"internalType":"bytes[]"}],"anonymous":false},{"type":"event","name":"VerifyCompleted","inputs":[{"name":"variant","type":"string","indexed":false,"internalType":"string"},{"name":"passed","type":"int256","indexed":false,"internalType":"int256"},{"name":"total","type":"int256","indexed":false,"internalType":"int256"},{"name":"coveredRequirements","type":"string[]","indexed":false,"internalType":"string[]"},{"name":"failed","type":"int256","indexed":false,"internalType":"int256"},{"name":"failures","type":"bytes[]","indexed":false,"internalType":"bytes[]"}],"anonymous":false}],"bytecode":{"object":"0x608060405234801561000f575f80fd5b50612e9a8061001d5f395ff3fe608060405234801561000f575f80fd5b5060043610610055575f3560e01c80630ec1b057146100595780632f4ef52c14610089578063433e0c58146100b9578063632735ad146100e957806377e2bf6814610119575b5f80fd5b610073600480360381019061006e91906115d0565b610149565b604051610080919061181f565b60405180910390f35b6100a3600480360381019061009e919061183f565b61048d565b6040516100b0919061194f565b60405180910390f35b6100d360048036038101906100ce9190611968565b6106c0565b6040516100e09190611af6565b60405180910390f35b61010360048036038101906100fe9190611b16565b61099c565b6040516101109190611bd9565b60405180910390f35b610133600480360381019061012e9190611cdb565b610d41565b6040516101409190611d5c565b60405180910390f35b610151611229565b60025f8581526020019081526020015f205f9054906101000a900460ff166101ae576040517f08c379a00000000000000000000000000000000000000000000000000000000081526004016101a590611dd6565b60405180910390fd5b5f805f8681526020019081526020015f2090505f816002018054905090505f8190505f8267ffffffffffffffff8111156101eb576101ea6114ac565b5b60405190808252806020026020018201604052801561021e57816020015b60608152602001906001900390816102095790505b5090505f5b8381101561028857845f01610237826110d1565b604051602001610248929190611f67565b60405160208183030381529060405282828151811061026a57610269611f95565b5b6020026020010181905250808061028090611ff8565b915050610223565b505f888888426040516020016102a1949392919061207f565b6040516020818303038152906040528051906020012090506040518060e001604052808a81526020018981526020018481526020018581526020018381526020014281526020016001151581525060035f8381526020019081526020015f205f820151815f0155602082015181600101908161031d919061224f565b506040820151816002015560608201518160030155608082015181600401908051906020019061034e929190611250565b5060a0820151816005015560c0820151816006015f6101000a81548160ff021916908315150217905550905050600160055f8381526020019081526020015f205f6101000a81548160ff021916908315150217905550600481908060018154018082558091505060019003905f5260205f20015f90919091909150555f8067ffffffffffffffff8111156103e5576103e46114ac565b5b60405190808252806020026020018201604052801561041857816020015b60608152602001906001900390816104035790505b5090507ff599494043b12dcc31b53ce6b858e2852c103268cdc193d3d619a33e4836c96f8486855f856040516104529594939291906124b6565b60405180910390a160405180608001604052806001151581526020018581526020018681526020018481525096505050505050509392505050565b6104956112a7565b5f8551116104d8576040517f08c379a00000000000000000000000000000000000000000000000000000000081526004016104cf90612572565b60405180910390fd5b5f8585856040516020016104ee93929190612590565b6040516020818303038152906040528051906020012090505f86604051602001610518919061260a565b6040516020818303038152906040528051906020012090506040518060c001604052808881526020018781526020018681526020018581526020014281526020016001151581525060065f8481526020019081526020015f205f820151815f019081610584919061224f565b50602082015181600101908161059a919061224f565b5060408201518160020190816105b0919061224f565b5060608201518160030190816105c6919061224f565b506080820151816004015560a0820151816005015f6101000a81548160ff02191690831515021790555090505060085f8381526020019081526020015f205f9054906101000a900460ff1661066557600160085f8481526020019081526020015f205f6101000a81548160ff021916908315150217905550600782908060018154018082558091505060019003905f5260205f20015f90919091909150555b7f4e6baaaa712562e595d76b6a4c733238f37b108aa65d060309c83bef0540b6d981604051610694919061263a565b60405180910390a160405180604001604052806001151581526020018281525092505050949350505050565b6106c86112c4565b5f82511161070b576040517f08c379a000000000000000000000000000000000000000000000000000000000815260040161070290612572565b60405180910390fd5b5f8260405160200161071d919061260a565b6040516020818303038152906040528051906020012090505f60025f8381526020019081526020015f205f9054906101000a900460ff1615610773575f808381526020019081526020015f206002018054905090505b5f8167ffffffffffffffff81111561078e5761078d6114ac565b5b6040519080825280602002602001820160405280156107c157816020015b60608152602001906001900390816107ac5790505b5090505f5b82811015610942575f866107d9836110d1565b6040516020016107ea929190612666565b60405160208183030381529060405290505f805b6007805490508110156108e95760085f6007838154811061082257610821611f95565b5b905f5260205f20015481526020019081526020015f205f9054906101000a900460ff16156108d6575f60065f6007848154811061086257610861611f95565b5b905f5260205f20015481526020019081526020015f2090508980519060200120815f016040516108929190612730565b60405180910390201480156108c557508380519060200120816002016040516108bb9190612730565b6040518091039020145b156108d45760019250506108e9565b505b80806108e190611ff8565b9150506107fe565b50816001826040516020016109009392919061278d565b60405160208183030381529060405284848151811061092257610921611f95565b5b60200260200101819052505050808061093a90611ff8565b9150506107c6565b507f411cd7fe63b9b98371fa86eefaf83abccfeb9deee3da60cf0ed2d1e4310273b48160405161097291906127c9565b60405180910390a16040518060400160405280600115158152602001828152509350505050919050565b6109a46112df565b5f8351116109e7576040517f08c379a00000000000000000000000000000000000000000000000000000000081526004016109de90612572565b60405180910390fd5b5f825111610a2a576040517f08c379a0000000000000000000000000000000000000000000000000000000008152600401610a2190612846565b60405180910390fd5b5f8383604051602001610a3e929190612864565b6040516020818303038152906040528051906020012090505f600367ffffffffffffffff811115610a7257610a716114ac565b5b604051908082528060200260200182016040528015610aa557816020015b6060815260200190600190039081610a905790505b50905084604051602001610ab991906128dc565b604051602081830303815290604052604051602001610ad89190612947565b604051602081830303815290604052815f81518110610afa57610af9611f95565b5b602002602001018190525084604051602001610b1691906129c4565b604051602081830303815290604052604051602001610b359190612a2f565b60405160208183030381529060405281600181518110610b5857610b57611f95565b5b602002602001018190525084604051602001610b749190612aac565b604051602081830303815290604052604051602001610b939190612b17565b60405160208183030381529060405281600281518110610bb657610bb5611f95565b5b60200260200101819052506040518060a00160405280868152602001858152602001828152602001428152602001600115158152505f808481526020019081526020015f205f820151815f019081610c0e919061224f565b506020820151816001019081610c24919061224f565b506040820151816002019080519060200190610c41929190611303565b50606082015181600301556080820151816004015f6101000a81548160ff02191690831515021790555090505060025f8381526020019081526020015f205f9054906101000a900460ff16610ce057600160025f8481526020019081526020015f205f6101000a81548160ff021916908315150217905550600182908060018154018082558091505060019003905f5260205f20015f90919091909150555b7f3ad7d322cf3c45595d0556157760f00b3c9750a26848dd9a4b44ed46fe783d968282604051610d11929190612b4a565b60405180910390a16040518060600160405280600115158152602001838152602001828152509250505092915050565b610d4961135a565b5f805b8351811015610e83575f5b600480549050811015610e6f5760055f60048381548110610d7b57610d7a611f95565b5b905f5260205f20015481526020019081526020015f205f9054906101000a900460ff1615610e5c575f60035f60048481548110610dbb57610dba611f95565b5b905f5260205f20015481526020019081526020015f2090505f868481518110610de757610de6611f95565b5b6020026020010151604051602001610dff919061260a565b60405160208183030381529060405280519060200120905080825f01541480610e45575060025f835f015481526020019081526020015f205f9054906101000a900460ff165b15610e59578480610e5590611ff8565b9550505b50505b8080610e6790611ff8565b915050610d57565b508080610e7b90611ff8565b915050610d4c565b505f60048054905067ffffffffffffffff811115610ea457610ea36114ac565b5b604051908082528060200260200182016040528015610ed757816020015b6060815260200190600190039081610ec25790505b5090505f805b600480549050811015610fce5760055f60048381548110610f0157610f00611f95565b5b905f5260205f20015481526020019081526020015f205f9054906101000a900460ff1615610fbb575f60035f60048481548110610f4157610f40611f95565b5b905f5260205f20015481526020019081526020015f209050805f01548160010182600201548360030154604051602001610f7e9493929190612c0c565b604051602081830303815290604052848481518110610fa057610f9f611f95565b5b60200260200101819052508280610fb690611ff8565b935050505b8080610fc690611ff8565b915050610edd565b505f8167ffffffffffffffff811115610fea57610fe96114ac565b5b60405190808252806020026020018201604052801561101d57816020015b60608152602001906001900390816110085790505b5090505f5b828110156110765783818151811061103d5761103c611f95565b5b602002602001015182828151811061105857611057611f95565b5b6020026020010181905250808061106e90611ff8565b915050611022565b507fd8d20e2e64602c2bb310fd1f14d61986a0e0bbbd563eb4d7365448671636b4d7816040516110a691906127c9565b60405180910390a1604051806040016040528060011515815260200182815250945050505050919050565b60605f8203611117576040518060400160405280600181526020017f30000000000000000000000000000000000000000000000000000000000000008152509050611224565b5f8290505f5b5f821461114657808061112f90611ff8565b915050600a8261113f9190612c83565b915061111d565b5f8167ffffffffffffffff811115611161576111606114ac565b5b6040519080825280601f01601f1916602001820160405280156111935781602001600182028036833780820191505090505b5090505b5f851461121d5781806111a990612cb3565b925050600a856111b99190612cda565b60306111c59190612d0a565b60f81b8183815181106111db576111da611f95565b5b60200101907effffffffffffffffffffffffffffffffffffffffffffffffffffffffffffff191690815f1a905350600a856112169190612c83565b9450611197565b8093505050505b919050565b60405180608001604052805f151581526020015f81526020015f8152602001606081525090565b828054828255905f5260205f20908101928215611296579160200282015b82811115611295578251829081611285919061224f565b509160200191906001019061126e565b5b5090506112a39190611375565b5090565b60405180604001604052805f151581526020015f80191681525090565b60405180604001604052805f15158152602001606081525090565b60405180606001604052805f151581526020015f8019168152602001606081525090565b828054828255905f5260205f20908101928215611349579160200282015b828111156113485782518290816113389190612d95565b5091602001919060010190611321565b5b5090506113569190611398565b5090565b60405180604001604052805f15158152602001606081525090565b5b80821115611394575f818161138b91906113bb565b50600101611376565b5090565b5b808211156113b7575f81816113ae91906113f8565b50600101611399565b5090565b5080546113c790611e21565b5f825580601f106113d857506113f5565b601f0160209004905f5260205f20908101906113f49190611435565b5b50565b50805461140490611e21565b5f825580601f106114155750611432565b601f0160209004905f5260205f20908101906114319190611435565b5b50565b5b8082111561144c575f815f905550600101611436565b5090565b5f604051905090565b5f80fd5b5f80fd5b5f819050919050565b61147381611461565b811461147d575f80fd5b50565b5f8135905061148e8161146a565b92915050565b5f80fd5b5f80fd5b5f601f19601f8301169050919050565b7f4e487b71000000000000000000000000000000000000000000000000000000005f52604160045260245ffd5b6114e28261149c565b810181811067ffffffffffffffff82111715611501576115006114ac565b5b80604052505050565b5f611513611450565b905061151f82826114d9565b919050565b5f67ffffffffffffffff82111561153e5761153d6114ac565b5b6115478261149c565b9050602081019050919050565b828183375f83830152505050565b5f61157461156f84611524565b61150a565b9050828152602081018484840111156115905761158f611498565b5b61159b848285611554565b509392505050565b5f82601f8301126115b7576115b6611494565b5b81356115c7848260208601611562565b91505092915050565b5f805f606084860312156115e7576115e6611459565b5b5f6115f486828701611480565b935050602084013567ffffffffffffffff8111156116155761161461145d565b5b611621868287016115a3565b925050604084013567ffffffffffffffff8111156116425761164161145d565b5b61164e868287016115a3565b9150509250925092565b5f8115159050919050565b61166c81611658565b82525050565b5f819050919050565b61168481611672565b82525050565b5f81519050919050565b5f82825260208201905092915050565b5f819050602082019050919050565b5f81519050919050565b5f82825260208201905092915050565b5f5b838110156116ea5780820151818401526020810190506116cf565b5f8484015250505050565b5f6116ff826116b3565b61170981856116bd565b93506117198185602086016116cd565b6117228161149c565b840191505092915050565b5f61173883836116f5565b905092915050565b5f602082019050919050565b5f6117568261168a565b6117608185611694565b935083602082028501611772856116a4565b805f5b858110156117ad578484038952815161178e858261172d565b945061179983611740565b925060208a01995050600181019050611775565b50829750879550505050505092915050565b5f608083015f8301516117d45f860182611663565b5060208301516117e7602086018261167b565b5060408301516117fa604086018261167b565b5060608301518482036060860152611812828261174c565b9150508091505092915050565b5f6020820190508181035f83015261183781846117bf565b905092915050565b5f805f806080858703121561185757611856611459565b5b5f85013567ffffffffffffffff8111156118745761187361145d565b5b611880878288016115a3565b945050602085013567ffffffffffffffff8111156118a1576118a061145d565b5b6118ad878288016115a3565b935050604085013567ffffffffffffffff8111156118ce576118cd61145d565b5b6118da878288016115a3565b925050606085013567ffffffffffffffff8111156118fb576118fa61145d565b5b611907878288016115a3565b91505092959194509250565b61191c81611461565b82525050565b604082015f8201516119365f850182611663565b5060208201516119496020850182611913565b50505050565b5f6040820190506119625f830184611922565b92915050565b5f6020828403121561197d5761197c611459565b5b5f82013567ffffffffffffffff81111561199a5761199961145d565b5b6119a6848285016115a3565b91505092915050565b5f81519050919050565b5f82825260208201905092915050565b5f819050602082019050919050565b5f81519050919050565b5f82825260208201905092915050565b5f6119fc826119d8565b611a0681856119e2565b9350611a168185602086016116cd565b611a1f8161149c565b840191505092915050565b5f611a3583836119f2565b905092915050565b5f602082019050919050565b5f611a53826119af565b611a5d81856119b9565b935083602082028501611a6f856119c9565b805f5b85811015611aaa5784840389528151611a8b8582611a2a565b9450611a9683611a3d565b925060208a01995050600181019050611a72565b50829750879550505050505092915050565b5f604083015f830151611ad15f860182611663565b5060208301518482036020860152611ae98282611a49565b9150508091505092915050565b5f6020820190508181035f830152611b0e8184611abc565b905092915050565b5f8060408385031215611b2c57611b2b611459565b5b5f83013567ffffffffffffffff811115611b4957611b4861145d565b5b611b55858286016115a3565b925050602083013567ffffffffffffffff811115611b7657611b7561145d565b5b611b82858286016115a3565b9150509250929050565b5f606083015f830151611ba15f860182611663565b506020830151611bb46020860182611913565b5060408301518482036040860152611bcc8282611a49565b9150508091505092915050565b5f6020820190508181035f830152611bf18184611b8c565b905092915050565b5f67ffffffffffffffff821115611c1357611c126114ac565b5b602082029050602081019050919050565b5f80fd5b5f611c3a611c3584611bf9565b61150a565b90508083825260208201905060208402830185811115611c5d57611c5c611c24565b5b835b81811015611ca457803567ffffffffffffffff811115611c8257611c81611494565b5b808601611c8f89826115a3565b85526020850194505050602081019050611c5f565b5050509392505050565b5f82601f830112611cc257611cc1611494565b5b8135611cd2848260208601611c28565b91505092915050565b5f60208284031215611cf057611cef611459565b5b5f82013567ffffffffffffffff811115611d0d57611d0c61145d565b5b611d1984828501611cae565b91505092915050565b5f604083015f830151611d375f860182611663565b5060208301518482036020860152611d4f8282611a49565b9150508091505092915050565b5f6020820190508181035f830152611d748184611d22565b905092915050565b5f82825260208201905092915050565b7f5375697465206e6f7420666f756e6400000000000000000000000000000000005f82015250565b5f611dc0600f83611d7c565b9150611dcb82611d8c565b602082019050919050565b5f6020820190508181035f830152611ded81611db4565b9050919050565b7f4e487b71000000000000000000000000000000000000000000000000000000005f52602260045260245ffd5b5f6002820490506001821680611e3857607f821691505b602082108103611e4b57611e4a611df4565b5b50919050565b5f81905092915050565b5f819050815f5260205f209050919050565b5f8154611e7981611e21565b611e838186611e51565b9450600182165f8114611e9d5760018114611eb257611ee4565b60ff1983168652811515820286019350611ee4565b611ebb85611e5b565b5f5b83811015611edc57815481890152600182019150602081019050611ebd565b838801955050505b50505092915050565b7f3a7265715f0000000000000000000000000000000000000000000000000000005f82015250565b5f611f21600583611e51565b9150611f2c82611eed565b600582019050919050565b5f611f41826116b3565b611f4b8185611e51565b9350611f5b8185602086016116cd565b80840191505092915050565b5f611f728285611e6d565b9150611f7d82611f15565b9150611f898284611f37565b91508190509392505050565b7f4e487b71000000000000000000000000000000000000000000000000000000005f52603260045260245ffd5b7f4e487b71000000000000000000000000000000000000000000000000000000005f52601160045260245ffd5b5f819050919050565b5f61200282611fef565b91507fffffffffffffffffffffffffffffffffffffffffffffffffffffffffffffffff820361203457612033611fc2565b5b600182019050919050565b5f819050919050565b61205961205482611461565b61203f565b82525050565b5f819050919050565b61207961207482611fef565b61205f565b82525050565b5f61208a8287612048565b60208201915061209a8286611f37565b91506120a68285611f37565b91506120b28284612068565b60208201915081905095945050505050565b5f6020601f8301049050919050565b5f82821b905092915050565b5f6008830261210e7fffffffffffffffffffffffffffffffffffffffffffffffffffffffffffffffff826120d3565b61211886836120d3565b95508019841693508086168417925050509392505050565b5f819050919050565b5f61215361214e61214984611fef565b612130565b611fef565b9050919050565b5f819050919050565b61216c83612139565b6121806121788261215a565b8484546120df565b825550505050565b5f90565b612194612188565b61219f818484612163565b505050565b5b818110156121c2576121b75f8261218c565b6001810190506121a5565b5050565b601f821115612207576121d881611e5b565b6121e1846120c4565b810160208510156121f0578190505b6122046121fc856120c4565b8301826121a4565b50505b505050565b5f82821c905092915050565b5f6122275f198460080261220c565b1980831691505092915050565b5f61223f8383612218565b9150826002028217905092915050565b612258826116b3565b67ffffffffffffffff811115612271576122706114ac565b5b61227b8254611e21565b6122868282856121c6565b5f60209050601f8311600181146122b7575f84156122a5578287015190505b6122af8582612234565b865550612316565b601f1984166122c586611e5b565b5f5b828110156122ec578489015182556001820191506020850194506020810190506122c7565b868310156123095784890151612305601f891682612218565b8355505b6001600288020188555050505b505050505050565b7f6f6b0000000000000000000000000000000000000000000000000000000000005f82015250565b5f612352600283611d7c565b915061235d8261231e565b602082019050919050565b61237181611672565b82525050565b5f82825260208201905092915050565b5f6123918261168a565b61239b8185612377565b9350836020820285016123ad856116a4565b805f5b858110156123e857848403895281516123c9858261172d565b94506123d483611740565b925060208a019950506001810190506123b0565b50829750879550505050505092915050565b5f819050919050565b5f61241d612418612413846123fa565b612130565b611672565b9050919050565b61242d81612403565b82525050565b5f82825260208201905092915050565b5f61244d826119af565b6124578185612433565b935083602082028501612469856119c9565b805f5b858110156124a457848403895281516124858582611a2a565b945061249083611a3d565b925060208a0199505060018101905061246c565b50829750879550505050505092915050565b5f60c0820190508181035f8301526124cd81612346565b90506124dc6020830188612368565b6124e96040830187612368565b81810360608301526124fb8186612387565b905061250a6080830185612424565b81810360a083015261251c8184612443565b90509695505050505050565b7f436f6e63657074206d757374206e6f7420626520656d707479000000000000005f82015250565b5f61255c601983611d7c565b915061256782612528565b602082019050919050565b5f6020820190508181035f83015261258981612550565b9050919050565b5f61259b8286611f37565b91506125a78285611f37565b91506125b38284611f37565b9150819050949350505050565b7f73756974653a00000000000000000000000000000000000000000000000000005f82015250565b5f6125f4600683611e51565b91506125ff826125c0565b600682019050919050565b5f612614826125e8565b91506126208284611f37565b915081905092915050565b61263481611461565b82525050565b5f6040820190508181035f83015261265181612346565b9050612660602083018461262b565b92915050565b5f6126718285611f37565b915061267c82611f15565b91506126888284611f37565b91508190509392505050565b5f81905092915050565b5f819050815f5260205f209050919050565b5f81546126bc81611e21565b6126c68186612694565b9450600182165f81146126e057600181146126f557612727565b60ff1983168652811515820286019350612727565b6126fe8561269e565b5f5b8381101561271f57815481890152600182019150602081019050612700565b838801955050505b50505092915050565b5f61273b82846126b0565b915081905092915050565b5f612750826116b3565b61275a8185611d7c565b935061276a8185602086016116cd565b6127738161149c565b840191505092915050565b61278781611658565b82525050565b5f6060820190508181035f8301526127a58186612746565b90506127b4602083018561277e565b6127c1604083018461277e565b949350505050565b5f6040820190508181035f8301526127e081612346565b905081810360208301526127f48184612443565b905092915050565b7f537065632070617468206d757374206e6f7420626520656d70747900000000005f82015250565b5f612830601b83611d7c565b915061283b826127fc565b602082019050919050565b5f6020820190508181035f83015261285d81612824565b9050919050565b5f61286e826125e8565b915061287a8285611f37565b91506128868284611f37565b91508190509392505050565b7f3a637265617465000000000000000000000000000000000000000000000000005f82015250565b5f6128c6600783611e51565b91506128d182612892565b600782019050919050565b5f6128e78284611f37565b91506128f2826128ba565b915081905092915050565b7f63726561746520616374696f6e2076616c69646174657320696e7075740000005f82015250565b5f612931601d83611d7c565b915061293c826128fd565b602082019050919050565b5f6040820190508181035f83015261295f8184612746565b9050818103602083015261297281612925565b905092915050565b7f3a726561640000000000000000000000000000000000000000000000000000005f82015250565b5f6129ae600583611e51565b91506129b98261297a565b600582019050919050565b5f6129cf8284611f37565b91506129da826129a2565b915081905092915050565b7f7265616420616374696f6e2072657475726e732073746f7265642064617461005f82015250565b5f612a19601f83611d7c565b9150612a24826129e5565b602082019050919050565b5f6040820190508181035f830152612a478184612746565b90508181036020830152612a5a81612a0d565b905092915050565b7f3a696e76617269616e74000000000000000000000000000000000000000000005f82015250565b5f612a96600a83611e51565b9150612aa182612a62565b600a82019050919050565b5f612ab78284611f37565b9150612ac282612a8a565b915081905092915050565b7f696e76617269616e747320686f6c64206166746572206d75746174696f6e73005f82015250565b5f612b01601f83611d7c565b9150612b0c82612acd565b602082019050919050565b5f6040820190508181035f830152612b2f8184612746565b90508181036020830152612b4281612af5565b905092915050565b5f6060820190508181035f830152612b6181612346565b9050612b70602083018561262b565b8181036040830152612b828184612443565b90509392505050565b5f8154612b9781611e21565b612ba18186611d7c565b9450600182165f8114612bbb5760018114612bd157612c03565b60ff198316865281151560200286019350612c03565b612bda85611e5b565b5f5b83811015612bfb57815481890152600182019150602081019050612bdc565b808801955050505b50505092915050565b5f608082019050612c1f5f83018761262b565b8181036020830152612c318186612b8b565b9050612c406040830185612368565b612c4d6060830184612368565b95945050505050565b7f4e487b71000000000000000000000000000000000000000000000000000000005f52601260045260245ffd5b5f612c8d82611fef565b9150612c9883611fef565b925082612ca857612ca7612c56565b5b828204905092915050565b5f612cbd82611fef565b91505f8203612ccf57612cce611fc2565b5b600182039050919050565b5f612ce482611fef565b9150612cef83611fef565b925082612cff57612cfe612c56565b5b828206905092915050565b5f612d1482611fef565b9150612d1f83611fef565b9250828201905080821115612d3757612d36611fc2565b5b92915050565b5f819050815f5260205f209050919050565b601f821115612d9057612d6181612d3d565b612d6a846120c4565b81016020851015612d79578190505b612d8d612d85856120c4565b8301826121a4565b50505b505050565b612d9e826119d8565b67ffffffffffffffff811115612db757612db66114ac565b5b612dc18254611e21565b612dcc828285612d4f565b5f60209050601f831160018114612dfd575f8415612deb578287015190505b612df58582612234565b865550612e5c565b601f198416612e0b86612d3d565b5f5b82811015612e3257848901518255600182019150602085019450602081019050612e0d565b86831015612e4f5784890151612e4b601f891682612218565b8355505b6001600288020188555050505b50505050505056fea2646970667358221220bb44c2889f35ab29497eb9066bce9347f8dbf5b17b15e9e3b5e178821f2f6d2764736f6c63430008140033","linkReferences":{}},"methodIdentifiers":{"generate(string,string)":"632735ad","matrix(string[])":"77e2bf68","registerDeviation(string,string,string,string)":"2f4ef52c","traceability(string)":"433e0c58","verify(bytes32,string,string)":"0ec1b057"},"id":75}