{"abi":[{"type":"function","name":"normalize","inputs":[{"name":"adapter","type":"bytes32","internalType":"bytes32"},{"name":"props","type":"string","internalType":"string"}],"outputs":[{"name":"","type":"tuple","internalType":"struct ComposeAdapter.NormalizeOkResult","components":[{"name":"success","type":"bool","internalType":"bool"},{"name":"adapter","type":"bytes32","internalType":"bytes32"},{"name":"normalized","type":"string","internalType":"string"}]}],"stateMutability":"nonpayable"},{"type":"function","name":"register","inputs":[],"outputs":[{"name":"name","type":"string","internalType":"string"},{"name":"category","type":"string","internalType":"string"},{"name":"framework","type":"string","internalType":"string"}],"stateMutability":"pure"},{"type":"event","name":"NormalizeCompleted","inputs":[{"name":"variant","type":"string","indexed":false,"internalType":"string"},{"name":"adapter","type":"bytes32","indexed":false,"internalType":"bytes32"}],"anonymous":false}],"bytecode":{"object":"0x608060405234801561000f575f80fd5b50610aa78061001d5f395ff3fe608060405234801561000f575f80fd5b5060043610610034575f3560e01c80631aa3a008146100385780636e51dada14610058575b5f80fd5b610040610088565b60405161004f939291906102f1565b60405180910390f35b610072600480360381019061006d91906104ab565b61013a565b60405161007f91906105c3565b60405180910390f35b60608060606040518060400160405280600781526020017f636f6d706f73650000000000000000000000000000000000000000000000000081525092506040518060400160405280600e81526020017f72656e6465722d6164617074657200000000000000000000000000000000000081525091506040518060400160405280600f81526020017f6a65747061636b2d636f6d706f736500000000000000000000000000000000008152509050909192565b610142610243565b5f825111610185576040517f08c379a000000000000000000000000000000000000000000000000000000000815260040161017c9061062d565b60405180910390fd5b5f8260405160200161019791906106cf565b6040516020818303038152906040529050806040516020016101b991906106f0565b6040516020818303038152906040525f808681526020019081526020015f2090816101e4919061091d565b507fcb07f16626061bb6a951d93d5b90697ef340830b87e235b28643e80e735eaee3846040516102149190610a45565b60405180910390a160405180606001604052806001151581526020018581526020018281525091505092915050565b60405180606001604052805f151581526020015f8019168152602001606081525090565b5f81519050919050565b5f82825260208201905092915050565b5f5b8381101561029e578082015181840152602081019050610283565b5f8484015250505050565b5f601f19601f8301169050919050565b5f6102c382610267565b6102cd8185610271565b93506102dd818560208601610281565b6102e6816102a9565b840191505092915050565b5f6060820190508181035f83015261030981866102b9565b9050818103602083015261031d81856102b9565b9050818103604083015261033181846102b9565b9050949350505050565b5f604051905090565b5f80fd5b5f80fd5b5f819050919050565b61035e8161034c565b8114610368575f80fd5b50565b5f8135905061037981610355565b92915050565b5f80fd5b5f80fd5b7f4e487b71000000000000000000000000000000000000000000000000000000005f52604160045260245ffd5b6103bd826102a9565b810181811067ffffffffffffffff821117156103dc576103db610387565b5b80604052505050565b5f6103ee61033b565b90506103fa82826103b4565b919050565b5f67ffffffffffffffff82111561041957610418610387565b5b610422826102a9565b9050602081019050919050565b828183375f83830152505050565b5f61044f61044a846103ff565b6103e5565b90508281526020810184848401111561046b5761046a610383565b5b61047684828561042f565b509392505050565b5f82601f8301126104925761049161037f565b5b81356104a284826020860161043d565b91505092915050565b5f80604083850312156104c1576104c0610344565b5b5f6104ce8582860161036b565b925050602083013567ffffffffffffffff8111156104ef576104ee610348565b5b6104fb8582860161047e565b9150509250929050565b5f8115159050919050565b61051981610505565b82525050565b6105288161034c565b82525050565b5f82825260208201905092915050565b5f61054882610267565b610552818561052e565b9350610562818560208601610281565b61056b816102a9565b840191505092915050565b5f606083015f83015161058b5f860182610510565b50602083015161059e602086018261051f565b50604083015184820360408601526105b6828261053e565b9150508091505092915050565b5f6020820190508181035f8301526105db8184610576565b905092915050565b7f50726f7073206d757374206e6f7420626520656d7074790000000000000000005f82015250565b5f610617601783610271565b9150610622826105e3565b602082019050919050565b5f6020820190508181035f8301526106448161060b565b9050919050565b5f81905092915050565b7f6a65747061636b2d636f6d706f73653a000000000000000000000000000000005f82015250565b5f61068960108361064b565b915061069482610655565b601082019050919050565b5f6106a982610267565b6106b3818561064b565b93506106c3818560208601610281565b80840191505092915050565b5f6106d98261067d565b91506106e5828461069f565b915081905092915050565b5f6020820190508181035f83015261070881846102b9565b905092915050565b5f81519050919050565b7f4e487b71000000000000000000000000000000000000000000000000000000005f52602260045260245ffd5b5f600282049050600182168061075e57607f821691505b6020821081036107715761077061071a565b5b50919050565b5f819050815f5260205f209050919050565b5f6020601f8301049050919050565b5f82821b905092915050565b5f600883026107d37fffffffffffffffffffffffffffffffffffffffffffffffffffffffffffffffff82610798565b6107dd8683610798565b95508019841693508086168417925050509392505050565b5f819050919050565b5f819050919050565b5f61082161081c610817846107f5565b6107fe565b6107f5565b9050919050565b5f819050919050565b61083a83610807565b61084e61084682610828565b8484546107a4565b825550505050565b5f90565b610862610856565b61086d818484610831565b505050565b5b81811015610890576108855f8261085a565b600181019050610873565b5050565b601f8211156108d5576108a681610777565b6108af84610789565b810160208510156108be578190505b6108d26108ca85610789565b830182610872565b50505b505050565b5f82821c905092915050565b5f6108f55f19846008026108da565b1980831691505092915050565b5f61090d83836108e6565b9150826002028217905092915050565b61092682610710565b67ffffffffffffffff81111561093f5761093e610387565b5b6109498254610747565b610954828285610894565b5f60209050601f831160018114610985575f8415610973578287015190505b61097d8582610902565b8655506109e4565b601f19841661099386610777565b5f5b828110156109ba57848901518255600182019150602085019450602081019050610995565b868310156109d757848901516109d3601f8916826108e6565b8355505b6001600288020188555050505b505050505050565b7f6f6b0000000000000000000000000000000000000000000000000000000000005f82015250565b5f610a20600283610271565b9150610a2b826109ec565b602082019050919050565b610a3f8161034c565b82525050565b5f6040820190508181035f830152610a5c81610a14565b9050610a6b6020830184610a36565b9291505056fea264697066735822122022af1b0d3d902990fc9a722895b82a0907705b963ccc072ec3bd938bd764a84c64736f6c63430008140033","linkReferences":{}},"methodIdentifiers":{"normalize(bytes32,string)":"6e51dada","register()":"1aa3a008"},"id":66}