{"abi":[{"type":"function","name":"clip","inputs":[{"name":"itemId","type":"bytes32","internalType":"bytes32"},{"name":"url","type":"string","internalType":"string"},{"name":"mode","type":"string","internalType":"string"},{"name":"metadata","type":"string","internalType":"string"}],"outputs":[],"stateMutability":"nonpayable"},{"type":"function","name":"detectChanges","inputs":[{"name":"subscriptionId","type":"bytes32","internalType":"bytes32"}],"outputs":[],"stateMutability":"nonpayable"},{"type":"function","name":"getItem","inputs":[{"name":"itemId","type":"bytes32","internalType":"bytes32"}],"outputs":[{"name":"","type":"tuple","internalType":"struct Capture.CaptureItem","components":[{"name":"content","type":"string","internalType":"string"},{"name":"sourceUrl","type":"string","internalType":"string"},{"name":"mode","type":"string","internalType":"string"},{"name":"status","type":"string","internalType":"string"},{"name":"metadata","type":"string","internalType":"string"},{"name":"exists","type":"bool","internalType":"bool"}]}],"stateMutability":"view"},{"type":"function","name":"getSubscription","inputs":[{"name":"subscriptionId","type":"bytes32","internalType":"bytes32"}],"outputs":[{"name":"","type":"tuple","internalType":"struct Capture.Subscription","components":[{"name":"sourceId","type":"bytes32","internalType":"bytes32"},{"name":"schedule","type":"string","internalType":"string"},{"name":"mode","type":"string","internalType":"string"},{"name":"active","type":"bool","internalType":"bool"},{"name":"exists","type":"bool","internalType":"bool"}]}],"stateMutability":"view"},{"type":"function","name":"importFile","inputs":[{"name":"itemId","type":"bytes32","internalType":"bytes32"},{"name":"file","type":"string","internalType":"string"},{"name":"options","type":"string","internalType":"string"}],"outputs":[],"stateMutability":"nonpayable"},{"type":"function","name":"itemExists","inputs":[{"name":"itemId","type":"bytes32","internalType":"bytes32"}],"outputs":[{"name":"","type":"bool","internalType":"bool"}],"stateMutability":"view"},{"type":"function","name":"markReady","inputs":[{"name":"itemId","type":"bytes32","internalType":"bytes32"}],"outputs":[],"stateMutability":"nonpayable"},{"type":"function","name":"subscribe","inputs":[{"name":"subscriptionId","type":"bytes32","internalType":"bytes32"},{"name":"sourceId","type":"bytes32","internalType":"bytes32"},{"name":"schedule","type":"string","internalType":"string"},{"name":"mode","type":"string","internalType":"string"}],"outputs":[],"stateMutability":"nonpayable"},{"type":"event","name":"ChangesDetected","inputs":[{"name":"subscriptionId","type":"bytes32","indexed":true,"internalType":"bytes32"}],"anonymous":false},{"type":"event","name":"ItemCaptured","inputs":[{"name":"itemId","type":"bytes32","indexed":true,"internalType":"bytes32"},{"name":"sourceUrl","type":"string","indexed":false,"internalType":"string"}],"anonymous":false},{"type":"event","name":"ItemReady","inputs":[{"name":"itemId","type":"bytes32","indexed":true,"internalType":"bytes32"}],"anonymous":false},{"type":"event","name":"SubscriptionCreated","inputs":[{"name":"subscriptionId","type":"bytes32","indexed":true,"internalType":"bytes32"},{"name":"sourceId","type":"bytes32","indexed":true,"internalType":"bytes32"}],"anonymous":false}],"bytecode":{"object":"0x608060405234801561000f575f80fd5b50611d4b8061001d5f395ff3fe608060405234801561000f575f80fd5b5060043610610086575f3560e01c806389ff30791161005957806389ff30791461010e578063aa0372e71461012a578063ddb9abf51461015a578063ef78ad9a1461017657610086565b806317fbaa2a1461008a5780631f32768e146100a65780637365611e146100d65780637f0f34c0146100f2575b5f80fd5b6100a4600480360381019061009f919061116e565b6101a6565b005b6100c060048036038101906100bb919061116e565b610297565b6040516100cd91906112c6565b60405180910390f35b6100f060048036038101906100eb9190611347565b610481565b005b61010c6004803603810190610107919061140b565b610787565b005b6101286004803603810190610123919061116e565b61099d565b005b610144600480360381019061013f919061116e565b610a82565b6040516101519190611550565b60405180910390f35b610174600480360381019061016f9190611570565b610df4565b005b610190600480360381019061018b919061116e565b6110a1565b60405161019d9190611610565b60405180910390f35b60015f8281526020019081526020015f2060030160019054906101000a900460ff16610207576040517f08c379a00000000000000000000000000000000000000000000000000000000081526004016101fe90611683565b60405180910390fd5b60015f8281526020019081526020015f206003015f9054906101000a900460ff16610267576040517f08c379a000000000000000000000000000000000000000000000000000000000815260040161025e906116eb565b60405180910390fd5b807fff7cb527b45d563f5f7dced4f793077051481047a75c25502cb240bf25f721dc60405160405180910390a250565b61029f6110c9565b60015f8381526020019081526020015f2060030160019054906101000a900460ff16610300576040517f08c379a00000000000000000000000000000000000000000000000000000000081526004016102f790611683565b60405180910390fd5b60015f8381526020019081526020015f206040518060a00160405290815f820154815260200160018201805461033590611736565b80601f016020809104026020016040519081016040528092919081815260200182805461036190611736565b80156103ac5780601f10610383576101008083540402835291602001916103ac565b820191905f5260205f20905b81548152906001019060200180831161038f57829003601f168201915b505050505081526020016002820180546103c590611736565b80601f01602080910402602001604051908101604052809291908181526020018280546103f190611736565b801561043c5780601f106104135761010080835404028352916020019161043c565b820191905f5260205f20905b81548152906001019060200180831161041f57829003601f168201915b50505050508152602001600382015f9054906101000a900460ff161515151581526020016003820160019054906101000a900460ff1615151515815250509050919050565b5f801b87036104c5576040517f08c379a00000000000000000000000000000000000000000000000000000000081526004016104bc906117b0565b60405180910390fd5b5f808881526020019081526020015f206005015f9054906101000a900460ff1615610525576040517f08c379a000000000000000000000000000000000000000000000000000000000815260040161051c90611818565b60405180910390fd5b5f868690501161056a576040517f08c379a000000000000000000000000000000000000000000000000000000000815260040161056190611880565b60405180910390fd5b6040518060c0016040528060405180602001604052805f815250815260200187878080601f0160208091040260200160405190810160405280939291908181526020018383808284375f81840152601f19601f82011690508083019250505050505050815260200185858080601f0160208091040260200160405190810160405280939291908181526020018383808284375f81840152601f19601f8201169050808301925050505050505081526020016040518060400160405280600881526020017f6361707475726564000000000000000000000000000000000000000000000000815250815260200183838080601f0160208091040260200160405190810160405280939291908181526020018383808284375f81840152601f19601f820116905080830192505050505050508152602001600115158152505f808981526020019081526020015f205f820151815f0190816106c99190611a71565b5060208201518160010190816106df9190611a71565b5060408201518160020190816106f59190611a71565b50606082015181600301908161070b9190611a71565b5060808201518160040190816107219190611a71565b5060a0820151816005015f6101000a81548160ff021916908315150217905550905050867fd294c905f8ad1458cf61ec7d237364b650c4b0ad4f0f5d681b0308cf9a918d4a8787604051610776929190611b7a565b60405180910390a250505050505050565b5f801b86036107cb576040517f08c379a00000000000000000000000000000000000000000000000000000000081526004016107c290611be6565b60405180910390fd5b60015f8781526020019081526020015f2060030160019054906101000a900460ff161561082d576040517f08c379a000000000000000000000000000000000000000000000000000000000815260040161082490611c4e565b60405180910390fd5b6040518060a0016040528086815260200185858080601f0160208091040260200160405190810160405280939291908181526020018383808284375f81840152601f19601f82011690508083019250505050505050815260200183838080601f0160208091040260200160405190810160405280939291908181526020018383808284375f81840152601f19601f8201169050808301925050505050505081526020016001151581526020016001151581525060015f8881526020019081526020015f205f820151815f0155602082015181600101908161090e9190611a71565b5060408201518160020190816109249190611a71565b506060820151816003015f6101000a81548160ff02191690831515021790555060808201518160030160016101000a81548160ff02191690831515021790555090505084867f50b7569e3b80e6aae7a2e325748e2b94df3c205ac0467d58d31f15d50229155a60405160405180910390a3505050505050565b5f808281526020019081526020015f206005015f9054906101000a900460ff166109fc576040517f08c379a00000000000000000000000000000000000000000000000000000000081526004016109f390611cb6565b60405180910390fd5b6040518060400160405280600581526020017f72656164790000000000000000000000000000000000000000000000000000008152505f808381526020019081526020015f206003019081610a519190611a71565b50807f0e0839e456c439f102119a07099b1fca2889b64b37b18ecfc0af01834fab7c7c60405160405180910390a250565b610a8a6110fc565b5f808381526020019081526020015f206005015f9054906101000a900460ff16610ae9576040517f08c379a0000000000000000000000000000000000000000000000000000000008152600401610ae090611cb6565b60405180910390fd5b5f808381526020019081526020015f206040518060c00160405290815f82018054610b1390611736565b80601f0160208091040260200160405190810160405280929190818152602001828054610b3f90611736565b8015610b8a5780601f10610b6157610100808354040283529160200191610b8a565b820191905f5260205f20905b815481529060010190602001808311610b6d57829003601f168201915b50505050508152602001600182018054610ba390611736565b80601f0160208091040260200160405190810160405280929190818152602001828054610bcf90611736565b8015610c1a5780601f10610bf157610100808354040283529160200191610c1a565b820191905f5260205f20905b815481529060010190602001808311610bfd57829003601f168201915b50505050508152602001600282018054610c3390611736565b80601f0160208091040260200160405190810160405280929190818152602001828054610c5f90611736565b8015610caa5780601f10610c8157610100808354040283529160200191610caa565b820191905f5260205f20905b815481529060010190602001808311610c8d57829003601f168201915b50505050508152602001600382018054610cc390611736565b80601f0160208091040260200160405190810160405280929190818152602001828054610cef90611736565b8015610d3a5780601f10610d1157610100808354040283529160200191610d3a565b820191905f5260205f20905b815481529060010190602001808311610d1d57829003601f168201915b50505050508152602001600482018054610d5390611736565b80601f0160208091040260200160405190810160405280929190818152602001828054610d7f90611736565b8015610dca5780601f10610da157610100808354040283529160200191610dca565b820191905f5260205f20905b815481529060010190602001808311610dad57829003601f168201915b50505050508152602001600582015f9054906101000a900460ff1615151515815250509050919050565b5f801b8503610e38576040517f08c379a0000000000000000000000000000000000000000000000000000000008152600401610e2f906117b0565b60405180910390fd5b5f808681526020019081526020015f206005015f9054906101000a900460ff1615610e98576040517f08c379a0000000000000000000000000000000000000000000000000000000008152600401610e8f90611818565b60405180910390fd5b6040518060c0016040528085858080601f0160208091040260200160405190810160405280939291908181526020018383808284375f81840152601f19601f82011690508083019250505050505050815260200160405180602001604052805f81525081526020016040518060400160405280600681526020017f696d706f7274000000000000000000000000000000000000000000000000000081525081526020016040518060400160405280600881526020017f6361707475726564000000000000000000000000000000000000000000000000815250815260200183838080601f0160208091040260200160405190810160405280939291908181526020018383808284375f81840152601f19601f820116905080830192505050505050508152602001600115158152505f808781526020019081526020015f205f820151815f019081610fe99190611a71565b506020820151816001019081610fff9190611a71565b5060408201518160020190816110159190611a71565b50606082015181600301908161102b9190611a71565b5060808201518160040190816110419190611a71565b5060a0820151816005015f6101000a81548160ff021916908315150217905550905050847fd294c905f8ad1458cf61ec7d237364b650c4b0ad4f0f5d681b0308cf9a918d4a60405161109290611cf7565b60405180910390a25050505050565b5f805f8381526020019081526020015f206005015f9054906101000a900460ff169050919050565b6040518060a001604052805f801916815260200160608152602001606081526020015f151581526020015f151581525090565b6040518060c0016040528060608152602001606081526020016060815260200160608152602001606081526020015f151581525090565b5f80fd5b5f80fd5b5f819050919050565b61114d8161113b565b8114611157575f80fd5b50565b5f8135905061116881611144565b92915050565b5f6020828403121561118357611182611133565b5b5f6111908482850161115a565b91505092915050565b6111a28161113b565b82525050565b5f81519050919050565b5f82825260208201905092915050565b5f5b838110156111df5780820151818401526020810190506111c4565b5f8484015250505050565b5f601f19601f8301169050919050565b5f611204826111a8565b61120e81856111b2565b935061121e8185602086016111c2565b611227816111ea565b840191505092915050565b5f8115159050919050565b61124681611232565b82525050565b5f60a083015f8301516112615f860182611199565b506020830151848203602086015261127982826111fa565b9150506040830151848203604086015261129382826111fa565b91505060608301516112a8606086018261123d565b5060808301516112bb608086018261123d565b508091505092915050565b5f6020820190508181035f8301526112de818461124c565b905092915050565b5f80fd5b5f80fd5b5f80fd5b5f8083601f840112611307576113066112e6565b5b8235905067ffffffffffffffff811115611324576113236112ea565b5b6020830191508360018202830111156113405761133f6112ee565b5b9250929050565b5f805f805f805f6080888a03121561136257611361611133565b5b5f61136f8a828b0161115a565b975050602088013567ffffffffffffffff8111156113905761138f611137565b5b61139c8a828b016112f2565b9650965050604088013567ffffffffffffffff8111156113bf576113be611137565b5b6113cb8a828b016112f2565b9450945050606088013567ffffffffffffffff8111156113ee576113ed611137565b5b6113fa8a828b016112f2565b925092505092959891949750929550565b5f805f805f806080878903121561142557611424611133565b5b5f61143289828a0161115a565b965050602061144389828a0161115a565b955050604087013567ffffffffffffffff81111561146457611463611137565b5b61147089828a016112f2565b9450945050606087013567ffffffffffffffff81111561149357611492611137565b5b61149f89828a016112f2565b92509250509295509295509295565b5f60c083015f8301518482035f8601526114c882826111fa565b915050602083015184820360208601526114e282826111fa565b915050604083015184820360408601526114fc82826111fa565b9150506060830151848203606086015261151682826111fa565b9150506080830151848203608086015261153082826111fa565b91505060a083015161154560a086018261123d565b508091505092915050565b5f6020820190508181035f83015261156881846114ae565b905092915050565b5f805f805f6060868803121561158957611588611133565b5b5f6115968882890161115a565b955050602086013567ffffffffffffffff8111156115b7576115b6611137565b5b6115c3888289016112f2565b9450945050604086013567ffffffffffffffff8111156115e6576115e5611137565b5b6115f2888289016112f2565b92509250509295509295909350565b61160a81611232565b82525050565b5f6020820190506116235f830184611601565b92915050565b5f82825260208201905092915050565b7f537562736372697074696f6e206e6f7420666f756e64000000000000000000005f82015250565b5f61166d601683611629565b915061167882611639565b602082019050919050565b5f6020820190508181035f83015261169a81611661565b9050919050565b7f537562736372697074696f6e20697320696e61637469766500000000000000005f82015250565b5f6116d5601883611629565b91506116e0826116a1565b602082019050919050565b5f6020820190508181035f830152611702816116c9565b9050919050565b7f4e487b71000000000000000000000000000000000000000000000000000000005f52602260045260245ffd5b5f600282049050600182168061174d57607f821691505b6020821081036117605761175f611709565b5b50919050565b7f4974656d2049442063616e6e6f74206265207a65726f000000000000000000005f82015250565b5f61179a601683611629565b91506117a582611766565b602082019050919050565b5f6020820190508181035f8301526117c78161178e565b9050919050565b7f4974656d20616c726561647920657869737473000000000000000000000000005f82015250565b5f611802601383611629565b915061180d826117ce565b602082019050919050565b5f6020820190508181035f83015261182f816117f6565b9050919050565b7f55524c2063616e6e6f7420626520656d707479000000000000000000000000005f82015250565b5f61186a601383611629565b915061187582611836565b602082019050919050565b5f6020820190508181035f8301526118978161185e565b9050919050565b7f4e487b71000000000000000000000000000000000000000000000000000000005f52604160045260245ffd5b5f819050815f5260205f209050919050565b5f6020601f8301049050919050565b5f82821b905092915050565b5f600883026119277fffffffffffffffffffffffffffffffffffffffffffffffffffffffffffffffff826118ec565b61193186836118ec565b95508019841693508086168417925050509392505050565b5f819050919050565b5f819050919050565b5f61197561197061196b84611949565b611952565b611949565b9050919050565b5f819050919050565b61198e8361195b565b6119a261199a8261197c565b8484546118f8565b825550505050565b5f90565b6119b66119aa565b6119c1818484611985565b505050565b5b818110156119e4576119d95f826119ae565b6001810190506119c7565b5050565b601f821115611a29576119fa816118cb565b611a03846118dd565b81016020851015611a12578190505b611a26611a1e856118dd565b8301826119c6565b50505b505050565b5f82821c905092915050565b5f611a495f1984600802611a2e565b1980831691505092915050565b5f611a618383611a3a565b9150826002028217905092915050565b611a7a826111a8565b67ffffffffffffffff811115611a9357611a9261189e565b5b611a9d8254611736565b611aa88282856119e8565b5f60209050601f831160018114611ad9575f8415611ac7578287015190505b611ad18582611a56565b865550611b38565b601f198416611ae7866118cb565b5f5b82811015611b0e57848901518255600182019150602085019450602081019050611ae9565b86831015611b2b5784890151611b27601f891682611a3a565b8355505b6001600288020188555050505b505050505050565b828183375f83830152505050565b5f611b598385611629565b9350611b66838584611b40565b611b6f836111ea565b840190509392505050565b5f6020820190508181035f830152611b93818486611b4e565b90509392505050565b7f537562736372697074696f6e2049442063616e6e6f74206265207a65726f00005f82015250565b5f611bd0601e83611629565b9150611bdb82611b9c565b602082019050919050565b5f6020820190508181035f830152611bfd81611bc4565b9050919050565b7f537562736372697074696f6e20616c72656164792065786973747300000000005f82015250565b5f611c38601b83611629565b9150611c4382611c04565b602082019050919050565b5f6020820190508181035f830152611c6581611c2c565b9050919050565b7f4974656d206e6f7420666f756e640000000000000000000000000000000000005f82015250565b5f611ca0600e83611629565b9150611cab82611c6c565b602082019050919050565b5f6020820190508181035f830152611ccd81611c94565b9050919050565b50565b5f611ce25f83611629565b9150611ced82611cd4565b5f82019050919050565b5f6020820190508181035f830152611d0e81611cd7565b905091905056fea264697066735822122099acfdf4a81265857de4bff15afc0d0d2d9b0fb56b4ce6a496c3cbd9a99e384364736f6c63430008140033","linkReferences":{}},"methodIdentifiers":{"clip(bytes32,string,string,string)":"7365611e","detectChanges(bytes32)":"17fbaa2a","getItem(bytes32)":"aa0372e7","getSubscription(bytes32)":"1f32768e","importFile(bytes32,string,string)":"ddb9abf5","itemExists(bytes32)":"ef78ad9a","markReady(bytes32)":"89ff3079","subscribe(bytes32,bytes32,string,string)":"7f0f34c0"},"id":49}