{"abi":[{"type":"function","name":"addDeclaration","inputs":[{"name":"graph","type":"bytes32","internalType":"bytes32"},{"name":"scope","type":"string","internalType":"string"},{"name":"name","type":"string","internalType":"string"}],"outputs":[],"stateMutability":"nonpayable"},{"type":"function","name":"addUnresolvedRef","inputs":[{"name":"graph","type":"bytes32","internalType":"bytes32"},{"name":"name","type":"string","internalType":"string"},{"name":"scope","type":"string","internalType":"string"}],"outputs":[],"stateMutability":"nonpayable"},{"type":"function","name":"build","inputs":[{"name":"file","type":"string","internalType":"string"},{"name":"tree","type":"string","internalType":"string"}],"outputs":[{"name":"","type":"tuple","internalType":"struct ScopeGraph.BuildOkResult","components":[{"name":"success","type":"bool","internalType":"bool"},{"name":"graph","type":"bytes32","internalType":"bytes32"}]}],"stateMutability":"nonpayable"},{"type":"function","name":"get","inputs":[{"name":"graph","type":"bytes32","internalType":"bytes32"}],"outputs":[{"name":"","type":"tuple","internalType":"struct ScopeGraph.GetOkResult","components":[{"name":"success","type":"bool","internalType":"bool"},{"name":"graph","type":"bytes32","internalType":"bytes32"},{"name":"file","type":"string","internalType":"string"},{"name":"scopeCount","type":"int256","internalType":"int256"},{"name":"declarationCount","type":"int256","internalType":"int256"},{"name":"unresolvedCount","type":"int256","internalType":"int256"}]}],"stateMutability":"nonpayable"},{"type":"function","name":"graphExists","inputs":[{"name":"graph","type":"bytes32","internalType":"bytes32"}],"outputs":[{"name":"","type":"bool","internalType":"bool"}],"stateMutability":"view"},{"type":"function","name":"resolveCrossFile","inputs":[{"name":"graph","type":"bytes32","internalType":"bytes32"}],"outputs":[{"name":"","type":"tuple","internalType":"struct ScopeGraph.ResolveCrossFileOkResult","components":[{"name":"success","type":"bool","internalType":"bool"},{"name":"resolvedCount","type":"int256","internalType":"int256"}]}],"stateMutability":"nonpayable"},{"type":"function","name":"resolveReference","inputs":[{"name":"graph","type":"bytes32","internalType":"bytes32"},{"name":"scope","type":"string","internalType":"string"},{"name":"name","type":"string","internalType":"string"}],"outputs":[{"name":"","type":"tuple","internalType":"struct ScopeGraph.ResolveReferenceOkResult","components":[{"name":"success","type":"bool","internalType":"bool"},{"name":"symbol","type":"string","internalType":"string"}]}],"stateMutability":"nonpayable"},{"type":"function","name":"visibleSymbols","inputs":[{"name":"graph","type":"bytes32","internalType":"bytes32"},{"name":"scope","type":"string","internalType":"string"}],"outputs":[{"name":"","type":"tuple","internalType":"struct ScopeGraph.VisibleSymbolsOkResult","components":[{"name":"success","type":"bool","internalType":"bool"},{"name":"symbols","type":"string","internalType":"string"}]}],"stateMutability":"nonpayable"},{"type":"event","name":"BuildCompleted","inputs":[{"name":"variant","type":"string","indexed":false,"internalType":"string"},{"name":"graph","type":"bytes32","indexed":false,"internalType":"bytes32"}],"anonymous":false},{"type":"event","name":"GetCompleted","inputs":[{"name":"variant","type":"string","indexed":false,"internalType":"string"},{"name":"graph","type":"bytes32","indexed":false,"internalType":"bytes32"},{"name":"scopeCount","type":"int256","indexed":false,"internalType":"int256"},{"name":"declarationCount","type":"int256","indexed":false,"internalType":"int256"},{"name":"unresolvedCount","type":"int256","indexed":false,"internalType":"int256"}],"anonymous":false},{"type":"event","name":"ResolveCrossFileCompleted","inputs":[{"name":"variant","type":"string","indexed":false,"internalType":"string"},{"name":"resolvedCount","type":"int256","indexed":false,"internalType":"int256"}],"anonymous":false},{"type":"event","name":"ResolveReferenceCompleted","inputs":[{"name":"variant","type":"string","indexed":false,"internalType":"string"}],"anonymous":false},{"type":"event","name":"VisibleSymbolsCompleted","inputs":[{"name":"variant","type":"string","indexed":false,"internalType":"string"}],"anonymous":false}],"bytecode":{"object":"0x608060405234801561000f575f80fd5b5061282c8061001d5f395ff3fe608060405234801561000f575f80fd5b5060043610610086575f3560e01c80638eaa6ac0116100595780638eaa6ac014610136578063d1007ccc14610166578063d6990c4014610196578063edc34fb6146101c657610086565b8063144356b51461008a57806354c73522146100a657806366a36328146100d65780638d0e509e14610106575b5f80fd5b6100a4600480360381019061009f91906117a1565b6101e2565b005b6100c060048036038101906100bb919061196a565b610527565b6040516100cd9190611a36565b60405180910390f35b6100f060048036038101906100eb9190611a4f565b610748565b6040516100fd9190611b8b565b60405180910390f35b610120600480360381019061011b9190611bab565b610c68565b60405161012d9190611be5565b60405180910390f35b610150600480360381019061014b9190611bab565b610c90565b60405161015d9190611c9c565b60405180910390f35b610180600480360381019061017b9190611cbc565b610ee3565b60405161018d9190611d50565b60405180910390f35b6101b060048036038101906101ab9190611bab565b611138565b6040516101bd9190611d9d565b60405180910390f35b6101e060048036038101906101db91906117a1565b611483565b005b5f808681526020019081526020015f206002015f9054906101000a900460ff16610241576040517f08c379a000000000000000000000000000000000000000000000000000000000815260040161023890611e10565b60405180910390fd5b5f8282905011610286576040517f08c379a000000000000000000000000000000000000000000000000000000000815260040161027d90611e78565b60405180910390fd5b5f848460405160200161029a929190611ec4565b60405160208183030381529060405280519060200120905060085f8781526020019081526020015f205f8281526020019081526020015f205f9054906101000a900460ff1661034257600160085f8881526020019081526020015f205f8381526020019081526020015f205f6101000a81548160ff02191690831515021790555060075f8781526020019081526020015f205f81548092919061033c90611f12565b91905055505b5f60035f8881526020019081526020015f205f8381526020019081526020015f20549050838360045f8a81526020019081526020015f205f8581526020019081526020015f205f8481526020019081526020015f2091826103a492919061215d565b506001816103b2919061222a565b60035f8981526020019081526020015f205f8481526020019081526020015f20819055505f60025f8981526020019081526020015f20549050604051806060016040528086868080601f0160208091040260200160405190810160405280939291908181526020018383808284375f81840152601f19601f82011690508083019250505050505050815260200188888080601f0160208091040260200160405190810160405280939291908181526020018383808284375f81840152601f19601f8201169050808301925050505050505081526020016001151581525060015f8a81526020019081526020015f205f8381526020019081526020015f205f820151815f0190816104c2919061225d565b5060208201518160010190816104d8919061225d565b506040820151816002015f6101000a81548160ff021916908315150217905550905050600181610508919061222a565b60025f8a81526020019081526020015f20819055505050505050505050565b61052f611659565b5f835111610572576040517f08c379a000000000000000000000000000000000000000000000000000000000815260040161056990612376565b60405180910390fd5b5f8251116105b5576040517f08c379a00000000000000000000000000000000000000000000000000000000081526004016105ac906123de565b60405180910390fd5b60095f8154809291906105c790611f12565b91905055505f8383600954426040516020016105e6949392919061244c565b6040516020818303038152906040528051906020012090506040518060600160405280858152602001848152602001600115158152505f808381526020019081526020015f205f820151815f01908161063f919061225d565b506020820151816001019081610655919061225d565b506040820151816002015f6101000a81548160ff0219169083151502179055509050505f604051602001610688906124db565b604051602081830303815290604052805190602001209050600160085f8481526020019081526020015f205f8381526020019081526020015f205f6101000a81548160ff021916908315150217905550600160075f8481526020019081526020015f20819055507f0ee48fb2e656a1d7da1e77b0eb64b4ae66ab48107acc43391ee1c6b4aec5bffb8260405161071e9190612548565b60405180910390a16040518060400160405280600115158152602001838152509250505092915050565b610750611676565b5f808581526020019081526020015f206002015f9054906101000a900460ff166107af576040517f08c379a00000000000000000000000000000000000000000000000000000000081526004016107a690611e10565b60405180910390fd5b5f8251116107f2576040517f08c379a00000000000000000000000000000000000000000000000000000000081526004016107e990611e78565b60405180910390fd5b5f836040516020016108049190612574565b6040516020818303038152906040528051906020012090505f60035f8781526020019081526020015f205f8381526020019081526020015f205490505f60405180602001604052805f81525090505f805b838110156109b8578660405160200161086e9190612574565b6040516020818303038152906040528051906020012060045f8b81526020019081526020015f205f8781526020019081526020015f205f8381526020019081526020015f206040516020016108c3919061260a565b60405160208183030381529060405280519060200120036109a55760045f8a81526020019081526020015f205f8681526020019081526020015f205f8281526020019081526020015f20805461091890611f90565b80601f016020809104026020016040519081016040528092919081815260200182805461094490611f90565b801561098f5780601f106109665761010080835404028352916020019161098f565b820191905f5260205f20905b81548152906001019060200180831161097257829003601f168201915b5050505050925081806109a190611f12565b9250505b80806109b090611f12565b915050610855565b505f81148015610a1257506040516020016109d2906124db565b60405160208183030381529060405280519060200120876040516020016109f99190612574565b6040516020818303038152906040528051906020012014155b15610bcc575f604051602001610a27906124db565b6040516020818303038152906040528051906020012090505f60035f8b81526020019081526020015f205f8381526020019081526020015f205490505f5b81811015610bc85788604051602001610a7e9190612574565b6040516020818303038152906040528051906020012060045f8d81526020019081526020015f205f8581526020019081526020015f205f8381526020019081526020015f20604051602001610ad3919061260a565b6040516020818303038152906040528051906020012003610bb55760045f8c81526020019081526020015f205f8481526020019081526020015f205f8281526020019081526020015f208054610b2890611f90565b80601f0160208091040260200160405190810160405280929190818152602001828054610b5490611f90565b8015610b9f5780601f10610b7657610100808354040283529160200191610b9f565b820191905f5260205f20905b815481529060010190602001808311610b8257829003601f168201915b505050505094508380610bb190611f12565b9450505b8080610bc090611f12565b915050610a65565b5050505b5f8111610c0e576040517f08c379a0000000000000000000000000000000000000000000000000000000008152600401610c059061266a565b60405180910390fd5b7f42e6351dd1c808aa4e4551d7fa6df798c704e941ac591716c1adf825ababa2e6604051610c3b90612688565b60405180910390a16040518060400160405280600115158152602001838152509450505050509392505050565b5f805f8381526020019081526020015f206002015f9054906101000a900460ff169050919050565b610c98611691565b5f808381526020019081526020015f206002015f9054906101000a900460ff16610cf7576040517f08c379a0000000000000000000000000000000000000000000000000000000008152600401610cee90611e10565b60405180910390fd5b5f60075f8481526020019081526020015f205490505f60025f8581526020019081526020015f205490505f60065f8681526020019081526020015f205490505f805b82811015610dd25760055f8881526020019081526020015f205f8281526020019081526020015f2060020160019054906101000a900460ff168015610dab575060055f8881526020019081526020015f205f8281526020019081526020015f206002015f9054906101000a900460ff16155b15610dbf578180610dbb906126a6565b9250505b8080610dca90611f12565b915050610d39565b507ffe9e159e81a9481d2822633e6bde1113ab53acccb28079f96c102688efe406c586858584604051610e0894939291906126fc565b60405180910390a16040518060c001604052806001151581526020018781526020015f808981526020019081526020015f205f018054610e4790611f90565b80601f0160208091040260200160405190810160405280929190818152602001828054610e7390611f90565b8015610ebe5780601f10610e9557610100808354040283529160200191610ebe565b820191905f5260205f20905b815481529060010190602001808311610ea157829003601f168201915b5050505050815260200185815260200184815260200182815250945050505050919050565b610eeb6116c7565b5f808481526020019081526020015f206002015f9054906101000a900460ff16610f4a576040517f08c379a0000000000000000000000000000000000000000000000000000000008152600401610f4190611e10565b60405180910390fd5b5f82604051602001610f5c9190612574565b6040516020818303038152906040528051906020012090505f60035f8681526020019081526020015f205f8381526020019081526020015f205490505f60405180602001604052805f81525090505f5b828110156110df575f811115611013578160045f8981526020019081526020015f205f8681526020019081526020015f205f8381526020019081526020015f20604051602001610ffd92919061279c565b60405160208183030381529060405291506110cc565b60045f8881526020019081526020015f205f8581526020019081526020015f205f8281526020019081526020015f20805461104d90611f90565b80601f016020809104026020016040519081016040528092919081815260200182805461107990611f90565b80156110c45780601f1061109b576101008083540402835291602001916110c4565b820191905f5260205f20905b8154815290600101906020018083116110a757829003601f168201915b505050505091505b80806110d790611f12565b915050610fac565b507f4b655da8a5956450257847bacc40b3f0fb1256a96caa2dd219cd11346caa721960405161110d90612688565b60405180910390a1604051806040016040528060011515815260200182815250935050505092915050565b6111406116e2565b5f808381526020019081526020015f206002015f9054906101000a900460ff1661119f576040517f08c379a000000000000000000000000000000000000000000000000000000000815260040161119690611e10565b60405180910390fd5b5f60065f8481526020019081526020015f205490505f805b8281101561142a5760055f8681526020019081526020015f205f8281526020019081526020015f2060020160019054906101000a900460ff168015611229575060055f8681526020019081526020015f205f8281526020019081526020015f206002015f9054906101000a900460ff16155b15611417575f60055f8781526020019081526020015f205f8381526020019081526020015f205f01805461125c90611f90565b80601f016020809104026020016040519081016040528092919081815260200182805461128890611f90565b80156112d35780601f106112aa576101008083540402835291602001916112d3565b820191905f5260205f20905b8154815290600101906020018083116112b657829003601f168201915b505050505090505f6040516020016112ea906124db565b6040516020818303038152906040528051906020012090505f60035f8981526020019081526020015f205f8381526020019081526020015f205490505f5b8181101561141257836040516020016113419190612574565b6040516020818303038152906040528051906020012060045f8b81526020019081526020015f205f8581526020019081526020015f205f8381526020019081526020015f20604051602001611396919061260a565b60405160208183030381529060405280519060200120036113ff57600160055f8b81526020019081526020015f205f8781526020019081526020015f206002015f6101000a81548160ff02191690831515021790555085806113f7906126a6565b965050611412565b808061140a90611f12565b915050611328565b505050505b808061142290611f12565b9150506111b7565b507f79a2b3ab87a72f5186321fbbf69928969e7eb7274b42e55b0a21023a29d2a4e78160405161145a91906127ca565b60405180910390a160405180604001604052806001151581526020018281525092505050919050565b5f808681526020019081526020015f206002015f9054906101000a900460ff166114e2576040517f08c379a00000000000000000000000000000000000000000000000000000000081526004016114d990611e10565b60405180910390fd5b5f60065f8781526020019081526020015f20549050604051806080016040528086868080601f0160208091040260200160405190810160405280939291908181526020018383808284375f81840152601f19601f82011690508083019250505050505050815260200184848080601f0160208091040260200160405190810160405280939291908181526020018383808284375f81840152601f19601f8201169050808301925050505050505081526020015f151581526020016001151581525060055f8881526020019081526020015f205f8381526020019081526020015f205f820151815f0190816115d6919061225d565b5060208201518160010190816115ec919061225d565b506040820151816002015f6101000a81548160ff02191690831515021790555060608201518160020160016101000a81548160ff02191690831515021790555090505060018161163c919061222a565b60065f8881526020019081526020015f2081905550505050505050565b60405180604001604052805f151581526020015f80191681525090565b60405180604001604052805f15158152602001606081525090565b6040518060c001604052805f151581526020015f8019168152602001606081526020015f81526020015f81526020015f81525090565b60405180604001604052805f15158152602001606081525090565b60405180604001604052805f151581526020015f81525090565b5f604051905090565b5f80fd5b5f80fd5b5f819050919050565b61171f8161170d565b8114611729575f80fd5b50565b5f8135905061173a81611716565b92915050565b5f80fd5b5f80fd5b5f80fd5b5f8083601f84011261176157611760611740565b5b8235905067ffffffffffffffff81111561177e5761177d611744565b5b60208301915083600182028301111561179a57611799611748565b5b9250929050565b5f805f805f606086880312156117ba576117b9611705565b5b5f6117c78882890161172c565b955050602086013567ffffffffffffffff8111156117e8576117e7611709565b5b6117f48882890161174c565b9450945050604086013567ffffffffffffffff81111561181757611816611709565b5b6118238882890161174c565b92509250509295509295909350565b5f80fd5b5f601f19601f8301169050919050565b7f4e487b71000000000000000000000000000000000000000000000000000000005f52604160045260245ffd5b61187c82611836565b810181811067ffffffffffffffff8211171561189b5761189a611846565b5b80604052505050565b5f6118ad6116fc565b90506118b98282611873565b919050565b5f67ffffffffffffffff8211156118d8576118d7611846565b5b6118e182611836565b9050602081019050919050565b828183375f83830152505050565b5f61190e611909846118be565b6118a4565b90508281526020810184848401111561192a57611929611832565b5b6119358482856118ee565b509392505050565b5f82601f83011261195157611950611740565b5b81356119618482602086016118fc565b91505092915050565b5f80604083850312156119805761197f611705565b5b5f83013567ffffffffffffffff81111561199d5761199c611709565b5b6119a98582860161193d565b925050602083013567ffffffffffffffff8111156119ca576119c9611709565b5b6119d68582860161193d565b9150509250929050565b5f8115159050919050565b6119f4816119e0565b82525050565b611a038161170d565b82525050565b604082015f820151611a1d5f8501826119eb565b506020820151611a3060208501826119fa565b50505050565b5f604082019050611a495f830184611a09565b92915050565b5f805f60608486031215611a6657611a65611705565b5b5f611a738682870161172c565b935050602084013567ffffffffffffffff811115611a9457611a93611709565b5b611aa08682870161193d565b925050604084013567ffffffffffffffff811115611ac157611ac0611709565b5b611acd8682870161193d565b9150509250925092565b5f81519050919050565b5f82825260208201905092915050565b5f5b83811015611b0e578082015181840152602081019050611af3565b5f8484015250505050565b5f611b2382611ad7565b611b2d8185611ae1565b9350611b3d818560208601611af1565b611b4681611836565b840191505092915050565b5f604083015f830151611b665f8601826119eb565b5060208301518482036020860152611b7e8282611b19565b9150508091505092915050565b5f6020820190508181035f830152611ba38184611b51565b905092915050565b5f60208284031215611bc057611bbf611705565b5b5f611bcd8482850161172c565b91505092915050565b611bdf816119e0565b82525050565b5f602082019050611bf85f830184611bd6565b92915050565b5f819050919050565b611c1081611bfe565b82525050565b5f60c083015f830151611c2b5f8601826119eb565b506020830151611c3e60208601826119fa565b5060408301518482036040860152611c568282611b19565b9150506060830151611c6b6060860182611c07565b506080830151611c7e6080860182611c07565b5060a0830151611c9160a0860182611c07565b508091505092915050565b5f6020820190508181035f830152611cb48184611c16565b905092915050565b5f8060408385031215611cd257611cd1611705565b5b5f611cdf8582860161172c565b925050602083013567ffffffffffffffff811115611d0057611cff611709565b5b611d0c8582860161193d565b9150509250929050565b5f604083015f830151611d2b5f8601826119eb565b5060208301518482036020860152611d438282611b19565b9150508091505092915050565b5f6020820190508181035f830152611d688184611d16565b905092915050565b604082015f820151611d845f8501826119eb565b506020820151611d976020850182611c07565b50505050565b5f604082019050611db05f830184611d70565b92915050565b5f82825260208201905092915050565b7f4772617068206e6f7420666f756e6400000000000000000000000000000000005f82015250565b5f611dfa600f83611db6565b9150611e0582611dc6565b602082019050919050565b5f6020820190508181035f830152611e2781611dee565b9050919050565b7f4e616d652063616e6e6f7420626520656d7074790000000000000000000000005f82015250565b5f611e62601483611db6565b9150611e6d82611e2e565b602082019050919050565b5f6020820190508181035f830152611e8f81611e56565b9050919050565b5f81905092915050565b5f611eab8385611e96565b9350611eb88385846118ee565b82840190509392505050565b5f611ed0828486611ea0565b91508190509392505050565b7f4e487b71000000000000000000000000000000000000000000000000000000005f52601160045260245ffd5b5f819050919050565b5f611f1c82611f09565b91507fffffffffffffffffffffffffffffffffffffffffffffffffffffffffffffffff8203611f4e57611f4d611edc565b5b600182019050919050565b5f82905092915050565b7f4e487b71000000000000000000000000000000000000000000000000000000005f52602260045260245ffd5b5f6002820490506001821680611fa757607f821691505b602082108103611fba57611fb9611f63565b5b50919050565b5f819050815f5260205f209050919050565b5f6020601f8301049050919050565b5f82821b905092915050565b5f6008830261201c7fffffffffffffffffffffffffffffffffffffffffffffffffffffffffffffffff82611fe1565b6120268683611fe1565b95508019841693508086168417925050509392505050565b5f819050919050565b5f61206161205c61205784611f09565b61203e565b611f09565b9050919050565b5f819050919050565b61207a83612047565b61208e61208682612068565b848454611fed565b825550505050565b5f90565b6120a2612096565b6120ad818484612071565b505050565b5b818110156120d0576120c55f8261209a565b6001810190506120b3565b5050565b601f821115612115576120e681611fc0565b6120ef84611fd2565b810160208510156120fe578190505b61211261210a85611fd2565b8301826120b2565b50505b505050565b5f82821c905092915050565b5f6121355f198460080261211a565b1980831691505092915050565b5f61214d8383612126565b9150826002028217905092915050565b6121678383611f59565b67ffffffffffffffff8111156121805761217f611846565b5b61218a8254611f90565b6121958282856120d4565b5f601f8311600181146121c2575f84156121b0578287013590505b6121ba8582612142565b865550612221565b601f1984166121d086611fc0565b5f5b828110156121f7578489013582556001820191506020850194506020810190506121d2565b868310156122145784890135612210601f891682612126565b8355505b6001600288020188555050505b50505050505050565b5f61223482611f09565b915061223f83611f09565b925082820190508082111561225757612256611edc565b5b92915050565b61226682611ad7565b67ffffffffffffffff81111561227f5761227e611846565b5b6122898254611f90565b6122948282856120d4565b5f60209050601f8311600181146122c5575f84156122b3578287015190505b6122bd8582612142565b865550612324565b601f1984166122d386611fc0565b5f5b828110156122fa578489015182556001820191506020850194506020810190506122d5565b868310156123175784890151612313601f891682612126565b8355505b6001600288020188555050505b505050505050565b7f46696c652063616e6e6f7420626520656d7074790000000000000000000000005f82015250565b5f612360601483611db6565b915061236b8261232c565b602082019050919050565b5f6020820190508181035f83015261238d81612354565b9050919050565b7f547265652063616e6e6f7420626520656d7074790000000000000000000000005f82015250565b5f6123c8601483611db6565b91506123d382612394565b602082019050919050565b5f6020820190508181035f8301526123f5816123bc565b9050919050565b5f61240682611ad7565b6124108185611e96565b9350612420818560208601611af1565b80840191505092915050565b5f819050919050565b61244661244182611f09565b61242c565b82525050565b5f61245782876123fc565b915061246382866123fc565b915061246f8285612435565b60208201915061247f8284612435565b60208201915081905095945050505050565b7f676c6f62616c00000000000000000000000000000000000000000000000000005f82015250565b5f6124c5600683611e96565b91506124d082612491565b600682019050919050565b5f6124e5826124b9565b9150819050919050565b7f6f6b0000000000000000000000000000000000000000000000000000000000005f82015250565b5f612523600283611db6565b915061252e826124ef565b602082019050919050565b6125428161170d565b82525050565b5f6040820190508181035f83015261255f81612517565b905061256e6020830184612539565b92915050565b5f61257f82846123fc565b915081905092915050565b5f815461259681611f90565b6125a08186611e96565b9450600182165f81146125ba57600181146125cf57612601565b60ff1983168652811515820286019350612601565b6125d885611fc0565b5f5b838110156125f9578154818901526001820191506020810190506125da565b838801955050505b50505092915050565b5f612615828461258a565b915081905092915050565b7f53796d626f6c206e6f7420666f756e64000000000000000000000000000000005f82015250565b5f612654601083611db6565b915061265f82612620565b602082019050919050565b5f6020820190508181035f83015261268181612648565b9050919050565b5f6020820190508181035f83015261269f81612517565b9050919050565b5f6126b082611bfe565b91507f7fffffffffffffffffffffffffffffffffffffffffffffffffffffffffffffff82036126e2576126e1611edc565b5b600182019050919050565b6126f681611bfe565b82525050565b5f60a0820190508181035f83015261271381612517565b90506127226020830187612539565b61272f60408301866126ed565b61273c60608301856126ed565b61274960808301846126ed565b95945050505050565b7f2c000000000000000000000000000000000000000000000000000000000000005f82015250565b5f612786600183611e96565b915061279182612752565b600182019050919050565b5f6127a782856123fc565b91506127b28261277a565b91506127be828461258a565b91508190509392505050565b5f6040820190508181035f8301526127e181612517565b90506127f060208301846126ed565b9291505056fea264697066735822122093557ed1d079b155bb588c2aa20ce2dfc98a3caba2e4e9706e6711c8bb78885664736f6c63430008140033","linkReferences":{}},"methodIdentifiers":{"addDeclaration(bytes32,string,string)":"144356b5","addUnresolvedRef(bytes32,string,string)":"edc34fb6","build(string,string)":"54c73522","get(bytes32)":"8eaa6ac0","graphExists(bytes32)":"8d0e509e","resolveCrossFile(bytes32)":"d6990c40","resolveReference(bytes32,string,string)":"66a36328","visibleSymbols(bytes32,string)":"d1007ccc"},"id":233}