{"abi":[{"type":"function","name":"addRule","inputs":[{"name":"mappingId","type":"bytes32","internalType":"bytes32"},{"name":"sourceField","type":"string","internalType":"string"},{"name":"destField","type":"string","internalType":"string"},{"name":"transform","type":"string","internalType":"string"}],"outputs":[],"stateMutability":"nonpayable"},{"type":"function","name":"applyMapping","inputs":[{"name":"mappingId","type":"bytes32","internalType":"bytes32"},{"name":"record","type":"string","internalType":"string"}],"outputs":[{"name":"mapped","type":"string","internalType":"string"}],"stateMutability":"nonpayable"},{"type":"function","name":"createMapping","inputs":[{"name":"mappingId","type":"bytes32","internalType":"bytes32"},{"name":"name","type":"string","internalType":"string"},{"name":"sourceSchema","type":"string","internalType":"string"},{"name":"destSchema","type":"string","internalType":"string"}],"outputs":[],"stateMutability":"nonpayable"},{"type":"function","name":"getMapping","inputs":[{"name":"mappingId","type":"bytes32","internalType":"bytes32"}],"outputs":[{"name":"","type":"tuple","internalType":"struct FieldMapping.MappingEntry","components":[{"name":"name","type":"string","internalType":"string"},{"name":"sourceSchema","type":"string","internalType":"string"},{"name":"destSchema","type":"string","internalType":"string"},{"name":"ruleCount","type":"uint256","internalType":"uint256"},{"name":"exists","type":"bool","internalType":"bool"}]}],"stateMutability":"view"},{"type":"function","name":"getRule","inputs":[{"name":"mappingId","type":"bytes32","internalType":"bytes32"},{"name":"index","type":"uint256","internalType":"uint256"}],"outputs":[{"name":"","type":"tuple","internalType":"struct FieldMapping.Rule","components":[{"name":"sourceField","type":"string","internalType":"string"},{"name":"destField","type":"string","internalType":"string"},{"name":"transform","type":"string","internalType":"string"},{"name":"exists","type":"bool","internalType":"bool"}]}],"stateMutability":"view"},{"type":"function","name":"mappingExists","inputs":[{"name":"mappingId","type":"bytes32","internalType":"bytes32"}],"outputs":[{"name":"","type":"bool","internalType":"bool"}],"stateMutability":"view"},{"type":"function","name":"validate","inputs":[{"name":"mappingId","type":"bytes32","internalType":"bytes32"}],"outputs":[{"name":"valid","type":"bool","internalType":"bool"}],"stateMutability":"view"},{"type":"event","name":"MappingApplied","inputs":[{"name":"mappingId","type":"bytes32","indexed":true,"internalType":"bytes32"}],"anonymous":false},{"type":"event","name":"MappingCreated","inputs":[{"name":"mappingId","type":"bytes32","indexed":true,"internalType":"bytes32"},{"name":"name","type":"string","indexed":false,"internalType":"string"}],"anonymous":false},{"type":"event","name":"RuleAdded","inputs":[{"name":"mappingId","type":"bytes32","indexed":true,"internalType":"bytes32"},{"name":"sourceField","type":"string","indexed":false,"internalType":"string"},{"name":"destField","type":"string","indexed":false,"internalType":"string"}],"anonymous":false}],"bytecode":{"object":"0x608060405234801561000f575f80fd5b506118eb8061001d5f395ff3fe608060405234801561000f575f80fd5b506004361061007b575f3560e01c8063458afe0311610059578063458afe031461010f578063492a04ae1461012b5780634f2e3c4614610147578063e2c14bdd146101775761007b565b8063164dbe491461007f5780632e012698146100af5780633a94ba70146100df575b5f80fd5b61009960048036038101906100949190610dca565b6101a7565b6040516100a69190610e0f565b60405180910390f35b6100c960048036038101906100c49190610dca565b6101cf565b6040516100d69190610e0f565b60405180910390f35b6100f960048036038101906100f49190610e5b565b61024c565b6040516101069190610fa0565b60405180910390f35b61012960048036038101906101249190611021565b6104bf565b005b61014560048036038101906101409190611021565b610710565b005b610161600480360381019061015c91906110e5565b6109ab565b60405161016e919061118a565b60405180910390f35b610191600480360381019061018c9190610dca565b610adb565b60405161019e919061123a565b60405180910390f35b5f805f8381526020019081526020015f206004015f9054906101000a900460ff169050919050565b5f805f8381526020019081526020015f206004015f9054906101000a900460ff1661022f576040517f08c379a0000000000000000000000000000000000000000000000000000000008152600401610226906112a4565b60405180910390fd5b5f805f8481526020019081526020015f2060030154119050919050565b610254610d37565b60015f8481526020019081526020015f205f8381526020019081526020015f206003015f9054906101000a900460ff166102c3576040517f08c379a00000000000000000000000000000000000000000000000000000000081526004016102ba9061130c565b60405180910390fd5b60015f8481526020019081526020015f205f8381526020019081526020015f206040518060800160405290815f820180546102fd90611357565b80601f016020809104026020016040519081016040528092919081815260200182805461032990611357565b80156103745780601f1061034b57610100808354040283529160200191610374565b820191905f5260205f20905b81548152906001019060200180831161035757829003601f168201915b5050505050815260200160018201805461038d90611357565b80601f01602080910402602001604051908101604052809291908181526020018280546103b990611357565b80156104045780601f106103db57610100808354040283529160200191610404565b820191905f5260205f20905b8154815290600101906020018083116103e757829003601f168201915b5050505050815260200160028201805461041d90611357565b80601f016020809104026020016040519081016040528092919081815260200182805461044990611357565b80156104945780601f1061046b57610100808354040283529160200191610494565b820191905f5260205f20905b81548152906001019060200180831161047757829003601f168201915b50505050508152602001600382015f9054906101000a900460ff161515151581525050905092915050565b5f808881526020019081526020015f206004015f9054906101000a900460ff1661051e576040517f08c379a0000000000000000000000000000000000000000000000000000000008152600401610515906112a4565b60405180910390fd5b5f805f8981526020019081526020015f20600301549050604051806080016040528088888080601f0160208091040260200160405190810160405280939291908181526020018383808284375f81840152601f19601f82011690508083019250505050505050815260200186868080601f0160208091040260200160405190810160405280939291908181526020018383808284375f81840152601f19601f82011690508083019250505050505050815260200184848080601f0160208091040260200160405190810160405280939291908181526020018383808284375f81840152601f19601f8201169050808301925050505050505081526020016001151581525060015f8a81526020019081526020015f205f8381526020019081526020015f205f820151815f0190816106559190611551565b50602082015181600101908161066b9190611551565b5060408201518160020190816106819190611551565b506060820151816003015f6101000a81548160ff0219169083151502179055509050506001816106b1919061164d565b5f808a81526020019081526020015f2060030181905550877f4fb896158a646545ac12372f0e78c87976cc48ac7e628b819f36bcfe481de151888888886040516106fe94939291906116ba565b60405180910390a25050505050505050565b5f801b8703610754576040517f08c379a000000000000000000000000000000000000000000000000000000000815260040161074b9061173d565b60405180910390fd5b5f808881526020019081526020015f206004015f9054906101000a900460ff16156107b4576040517f08c379a00000000000000000000000000000000000000000000000000000000081526004016107ab906117a5565b60405180910390fd5b5f86869050116107f9576040517f08c379a00000000000000000000000000000000000000000000000000000000081526004016107f09061180d565b60405180910390fd5b6040518060a0016040528087878080601f0160208091040260200160405190810160405280939291908181526020018383808284375f81840152601f19601f82011690508083019250505050505050815260200185858080601f0160208091040260200160405190810160405280939291908181526020018383808284375f81840152601f19601f82011690508083019250505050505050815260200183838080601f0160208091040260200160405190810160405280939291908181526020018383808284375f81840152601f19601f8201169050808301925050505050505081526020015f8152602001600115158152505f808981526020019081526020015f205f820151815f01908161090f9190611551565b5060208201518160010190816109259190611551565b50604082015181600201908161093b9190611551565b50606082015181600301556080820151816004015f6101000a81548160ff021916908315150217905550905050867f0a807b91e97d5bb312fae436b47a9e0c89846e0ef166c6167bdcfc0f2f9d52ce878760405161099a92919061182b565b60405180910390a250505050505050565b60605f808581526020019081526020015f206004015f9054906101000a900460ff16610a0c576040517f08c379a0000000000000000000000000000000000000000000000000000000008152600401610a03906112a4565b60405180910390fd5b5f805f8681526020019081526020015f206003015411610a61576040517f08c379a0000000000000000000000000000000000000000000000000000000008152600401610a5890611897565b60405180910390fd5b837f3d7dbabe2af2ef677cc7612816be923b98c86cce0219c1752ee8701e9c03cd3060405160405180910390a282828080601f0160208091040260200160405190810160405280939291908181526020018383808284375f81840152601f19601f8201169050808301925050505050505090509392505050565b610ae3610d60565b5f808381526020019081526020015f206004015f9054906101000a900460ff16610b42576040517f08c379a0000000000000000000000000000000000000000000000000000000008152600401610b39906112a4565b60405180910390fd5b5f808381526020019081526020015f206040518060a00160405290815f82018054610b6c90611357565b80601f0160208091040260200160405190810160405280929190818152602001828054610b9890611357565b8015610be35780601f10610bba57610100808354040283529160200191610be3565b820191905f5260205f20905b815481529060010190602001808311610bc657829003601f168201915b50505050508152602001600182018054610bfc90611357565b80601f0160208091040260200160405190810160405280929190818152602001828054610c2890611357565b8015610c735780601f10610c4a57610100808354040283529160200191610c73565b820191905f5260205f20905b815481529060010190602001808311610c5657829003601f168201915b50505050508152602001600282018054610c8c90611357565b80601f0160208091040260200160405190810160405280929190818152602001828054610cb890611357565b8015610d035780601f10610cda57610100808354040283529160200191610d03565b820191905f5260205f20905b815481529060010190602001808311610ce657829003601f168201915b5050505050815260200160038201548152602001600482015f9054906101000a900460ff1615151515815250509050919050565b60405180608001604052806060815260200160608152602001606081526020015f151581525090565b6040518060a001604052806060815260200160608152602001606081526020015f81526020015f151581525090565b5f80fd5b5f80fd5b5f819050919050565b610da981610d97565b8114610db3575f80fd5b50565b5f81359050610dc481610da0565b92915050565b5f60208284031215610ddf57610dde610d8f565b5b5f610dec84828501610db6565b91505092915050565b5f8115159050919050565b610e0981610df5565b82525050565b5f602082019050610e225f830184610e00565b92915050565b5f819050919050565b610e3a81610e28565b8114610e44575f80fd5b50565b5f81359050610e5581610e31565b92915050565b5f8060408385031215610e7157610e70610d8f565b5b5f610e7e85828601610db6565b9250506020610e8f85828601610e47565b9150509250929050565b5f81519050919050565b5f82825260208201905092915050565b5f5b83811015610ed0578082015181840152602081019050610eb5565b5f8484015250505050565b5f601f19601f8301169050919050565b5f610ef582610e99565b610eff8185610ea3565b9350610f0f818560208601610eb3565b610f1881610edb565b840191505092915050565b610f2c81610df5565b82525050565b5f608083015f8301518482035f860152610f4c8282610eeb565b91505060208301518482036020860152610f668282610eeb565b91505060408301518482036040860152610f808282610eeb565b9150506060830151610f956060860182610f23565b508091505092915050565b5f6020820190508181035f830152610fb88184610f32565b905092915050565b5f80fd5b5f80fd5b5f80fd5b5f8083601f840112610fe157610fe0610fc0565b5b8235905067ffffffffffffffff811115610ffe57610ffd610fc4565b5b60208301915083600182028301111561101a57611019610fc8565b5b9250929050565b5f805f805f805f6080888a03121561103c5761103b610d8f565b5b5f6110498a828b01610db6565b975050602088013567ffffffffffffffff81111561106a57611069610d93565b5b6110768a828b01610fcc565b9650965050604088013567ffffffffffffffff81111561109957611098610d93565b5b6110a58a828b01610fcc565b9450945050606088013567ffffffffffffffff8111156110c8576110c7610d93565b5b6110d48a828b01610fcc565b925092505092959891949750929550565b5f805f604084860312156110fc576110fb610d8f565b5b5f61110986828701610db6565b935050602084013567ffffffffffffffff81111561112a57611129610d93565b5b61113686828701610fcc565b92509250509250925092565b5f82825260208201905092915050565b5f61115c82610e99565b6111668185611142565b9350611176818560208601610eb3565b61117f81610edb565b840191505092915050565b5f6020820190508181035f8301526111a28184611152565b905092915050565b6111b381610e28565b82525050565b5f60a083015f8301518482035f8601526111d38282610eeb565b915050602083015184820360208601526111ed8282610eeb565b915050604083015184820360408601526112078282610eeb565b915050606083015161121c60608601826111aa565b50608083015161122f6080860182610f23565b508091505092915050565b5f6020820190508181035f83015261125281846111b9565b905092915050565b7f4d617070696e67206e6f7420666f756e640000000000000000000000000000005f82015250565b5f61128e601183611142565b91506112998261125a565b602082019050919050565b5f6020820190508181035f8301526112bb81611282565b9050919050565b7f52756c65206e6f7420666f756e640000000000000000000000000000000000005f82015250565b5f6112f6600e83611142565b9150611301826112c2565b602082019050919050565b5f6020820190508181035f830152611323816112ea565b9050919050565b7f4e487b71000000000000000000000000000000000000000000000000000000005f52602260045260245ffd5b5f600282049050600182168061136e57607f821691505b6020821081036113815761138061132a565b5b50919050565b7f4e487b71000000000000000000000000000000000000000000000000000000005f52604160045260245ffd5b5f819050815f5260205f209050919050565b5f6020601f8301049050919050565b5f82821b905092915050565b5f600883026114107fffffffffffffffffffffffffffffffffffffffffffffffffffffffffffffffff826113d5565b61141a86836113d5565b95508019841693508086168417925050509392505050565b5f819050919050565b5f61145561145061144b84610e28565b611432565b610e28565b9050919050565b5f819050919050565b61146e8361143b565b61148261147a8261145c565b8484546113e1565b825550505050565b5f90565b61149661148a565b6114a1818484611465565b505050565b5b818110156114c4576114b95f8261148e565b6001810190506114a7565b5050565b601f821115611509576114da816113b4565b6114e3846113c6565b810160208510156114f2578190505b6115066114fe856113c6565b8301826114a6565b50505b505050565b5f82821c905092915050565b5f6115295f198460080261150e565b1980831691505092915050565b5f611541838361151a565b9150826002028217905092915050565b61155a82610e99565b67ffffffffffffffff81111561157357611572611387565b5b61157d8254611357565b6115888282856114c8565b5f60209050601f8311600181146115b9575f84156115a7578287015190505b6115b18582611536565b865550611618565b601f1984166115c7866113b4565b5f5b828110156115ee578489015182556001820191506020850194506020810190506115c9565b8683101561160b5784890151611607601f89168261151a565b8355505b6001600288020188555050505b505050505050565b7f4e487b71000000000000000000000000000000000000000000000000000000005f52601160045260245ffd5b5f61165782610e28565b915061166283610e28565b925082820190508082111561167a57611679611620565b5b92915050565b828183375f83830152505050565b5f6116998385611142565b93506116a6838584611680565b6116af83610edb565b840190509392505050565b5f6040820190508181035f8301526116d381868861168e565b905081810360208301526116e881848661168e565b905095945050505050565b7f4d617070696e672049442063616e6e6f74206265207a65726f000000000000005f82015250565b5f611727601983611142565b9150611732826116f3565b602082019050919050565b5f6020820190508181035f8301526117548161171b565b9050919050565b7f4d617070696e6720616c726561647920657869737473000000000000000000005f82015250565b5f61178f601683611142565b915061179a8261175b565b602082019050919050565b5f6020820190508181035f8301526117bc81611783565b9050919050565b7f4e616d652063616e6e6f7420626520656d7074790000000000000000000000005f82015250565b5f6117f7601483611142565b9150611802826117c3565b602082019050919050565b5f6020820190508181035f830152611824816117eb565b9050919050565b5f6020820190508181035f83015261184481848661168e565b90509392505050565b7f4d617070696e6720686173206e6f2072756c65730000000000000000000000005f82015250565b5f611881601483611142565b915061188c8261184d565b602082019050919050565b5f6020820190508181035f8301526118ae81611875565b905091905056fea26469706673582212206c4be6902fd608f0eb336bfe6aa22a128e80a3a211baf89a7c74d186b781894464736f6c63430008140033","linkReferences":{}},"methodIdentifiers":{"addRule(bytes32,string,string,string)":"458afe03","applyMapping(bytes32,string)":"4f2e3c46","createMapping(bytes32,string,string,string)":"492a04ae","getMapping(bytes32)":"e2c14bdd","getRule(bytes32,uint256)":"3a94ba70","mappingExists(bytes32)":"164dbe49","validate(bytes32)":"2e012698"},"id":119}