{"abi":[{"type":"function","name":"addTrustedSigner","inputs":[{"name":"identity","type":"bytes32","internalType":"bytes32"}],"outputs":[],"stateMutability":"nonpayable"},{"type":"function","name":"getSignature","inputs":[{"name":"signatureId","type":"bytes32","internalType":"bytes32"}],"outputs":[{"name":"","type":"tuple","internalType":"struct Signature.SignatureRecord","components":[{"name":"contentHash","type":"bytes32","internalType":"bytes32"},{"name":"signer","type":"bytes32","internalType":"bytes32"},{"name":"certificate","type":"bytes","internalType":"bytes"},{"name":"timestamp","type":"uint256","internalType":"uint256"},{"name":"valid","type":"bool","internalType":"bool"},{"name":"exists","type":"bool","internalType":"bool"}]}],"stateMutability":"view"},{"type":"function","name":"getTrustedSigners","inputs":[],"outputs":[{"name":"","type":"bytes32[]","internalType":"bytes32[]"}],"stateMutability":"view"},{"type":"function","name":"isTrustedSigner","inputs":[{"name":"identity","type":"bytes32","internalType":"bytes32"}],"outputs":[{"name":"","type":"bool","internalType":"bool"}],"stateMutability":"view"},{"type":"function","name":"sign","inputs":[{"name":"contentHash","type":"bytes32","internalType":"bytes32"},{"name":"identity","type":"bytes32","internalType":"bytes32"}],"outputs":[{"name":"signatureId","type":"bytes32","internalType":"bytes32"}],"stateMutability":"nonpayable"},{"type":"function","name":"verify","inputs":[{"name":"contentHash","type":"bytes32","internalType":"bytes32"},{"name":"signatureId","type":"bytes32","internalType":"bytes32"}],"outputs":[{"name":"identity","type":"bytes32","internalType":"bytes32"},{"name":"timestamp","type":"uint256","internalType":"uint256"}],"stateMutability":"view"},{"type":"event","name":"Signed","inputs":[{"name":"signatureId","type":"bytes32","indexed":true,"internalType":"bytes32"},{"name":"contentHash","type":"bytes32","indexed":true,"internalType":"bytes32"},{"name":"signer","type":"bytes32","indexed":true,"internalType":"bytes32"}],"anonymous":false},{"type":"event","name":"TrustedSignerAdded","inputs":[{"name":"identity","type":"bytes32","indexed":true,"internalType":"bytes32"}],"anonymous":false},{"type":"event","name":"Verified","inputs":[{"name":"signatureId","type":"bytes32","indexed":true,"internalType":"bytes32"},{"name":"identity","type":"bytes32","indexed":false,"internalType":"bytes32"},{"name":"timestamp","type":"uint256","indexed":false,"internalType":"uint256"}],"anonymous":false}],"bytecode":{"object":"0x608060405234801561000f575f80fd5b506113848061001d5f395ff3fe608060405234801561000f575f80fd5b5060043610610060575f3560e01c80631d9c68c3146100645780634e8fee00146100825780636e4a2621146100b357806386f57635146100e3578063c4b14e0b14610113578063dcea948e14610143575b5f80fd5b61006c61015f565b6040516100799190610942565b60405180910390f35b61009c60048036038101906100979190610990565b6101b5565b6040516100aa9291906109f5565b60405180910390f35b6100cd60048036038101906100c89190610a1c565b61036d565b6040516100da9190610a61565b60405180910390f35b6100fd60048036038101906100f89190610990565b610393565b60405161010a9190610a7a565b60405180910390f35b61012d60048036038101906101289190610a1c565b6105bb565b60405161013a9190610bc1565b60405180910390f35b61015d60048036038101906101589190610a1c565b610727565b005b606060028054806020026020016040519081016040528092919081815260200182805480156101ab57602002820191905f5260205f20905b815481526020019060010190808311610197575b5050505050905090565b5f805f808481526020019081526020015f2060040160019054906101000a900460ff16610217576040517f08c379a000000000000000000000000000000000000000000000000000000000815260040161020e90610c3b565b60405180910390fd5b5f808481526020019081526020015f206004015f9054906101000a900460ff16610276576040517f08c379a000000000000000000000000000000000000000000000000000000000815260040161026d90610ca3565b60405180910390fd5b835f808581526020019081526020015f205f0154146102ca576040517f08c379a00000000000000000000000000000000000000000000000000000000081526004016102c190610d0b565b60405180910390fd5b60015f805f8681526020019081526020015f206001015481526020019081526020015f205f9054906101000a900460ff1661033a576040517f08c379a000000000000000000000000000000000000000000000000000000000815260040161033190610d73565b60405180910390fd5b5f808481526020019081526020015f206001015491505f808481526020019081526020015f206003015490509250929050565b5f60015f8381526020019081526020015f205f9054906101000a900460ff169050919050565b5f805f1b83036103d8576040517f08c379a00000000000000000000000000000000000000000000000000000000081526004016103cf90610ddb565b60405180910390fd5b5f801b820361041c576040517f08c379a000000000000000000000000000000000000000000000000000000000815260040161041390610e43565b60405180910390fd5b60015f8381526020019081526020015f205f9054906101000a900460ff16610479576040517f08c379a000000000000000000000000000000000000000000000000000000000815260040161047090610ed1565b60405180910390fd5b8282426003546040516020016104929493929190610f2f565b60405160208183030381529060405280519060200120905060035f8154809291906104bc90610fa9565b91905055506040518060c0016040528084815260200183815260200160405180602001604052805f8152508152602001428152602001600115158152602001600115158152505f808381526020019081526020015f205f820151815f01556020820151816001015560408201518160020190816105399190611217565b50606082015181600301556080820151816004015f6101000a81548160ff02191690831515021790555060a08201518160040160016101000a81548160ff0219169083151502179055509050508183827fd4f619e3a55dd2d3434ac6ba025238f2c836f4a54537cf26b27e7a988c57307a60405160405180910390a492915050565b6105c3610847565b5f808381526020019081526020015f2060040160019054906101000a900460ff16610623576040517f08c379a000000000000000000000000000000000000000000000000000000000815260040161061a90610c3b565b60405180910390fd5b5f808381526020019081526020015f206040518060c00160405290815f8201548152602001600182015481526020016002820180546106619061104a565b80601f016020809104026020016040519081016040528092919081815260200182805461068d9061104a565b80156106d85780601f106106af576101008083540402835291602001916106d8565b820191905f5260205f20905b8154815290600101906020018083116106bb57829003601f168201915b5050505050815260200160038201548152602001600482015f9054906101000a900460ff161515151581526020016004820160019054906101000a900460ff1615151515815250509050919050565b5f801b810361076b576040517f08c379a000000000000000000000000000000000000000000000000000000000815260040161076290610e43565b60405180910390fd5b60015f8281526020019081526020015f205f9054906101000a900460ff16156107c9576040517f08c379a00000000000000000000000000000000000000000000000000000000081526004016107c090611330565b60405180910390fd5b6001805f8381526020019081526020015f205f6101000a81548160ff021916908315150217905550600281908060018154018082558091505060019003905f5260205f20015f9091909190915055807f8725965262777ce7c6f5c2b4c1a7fe66a224fa093f4f0655828020c06e1be6ed60405160405180910390a250565b6040518060c001604052805f80191681526020015f8019168152602001606081526020015f81526020015f151581526020015f151581525090565b5f81519050919050565b5f82825260208201905092915050565b5f819050602082019050919050565b5f819050919050565b6108bd816108ab565b82525050565b5f6108ce83836108b4565b60208301905092915050565b5f602082019050919050565b5f6108f082610882565b6108fa818561088c565b93506109058361089c565b805f5b8381101561093557815161091c88826108c3565b9750610927836108da565b925050600181019050610908565b5085935050505092915050565b5f6020820190508181035f83015261095a81846108e6565b905092915050565b5f80fd5b61096f816108ab565b8114610979575f80fd5b50565b5f8135905061098a81610966565b92915050565b5f80604083850312156109a6576109a5610962565b5b5f6109b38582860161097c565b92505060206109c48582860161097c565b9150509250929050565b6109d7816108ab565b82525050565b5f819050919050565b6109ef816109dd565b82525050565b5f604082019050610a085f8301856109ce565b610a1560208301846109e6565b9392505050565b5f60208284031215610a3157610a30610962565b5b5f610a3e8482850161097c565b91505092915050565b5f8115159050919050565b610a5b81610a47565b82525050565b5f602082019050610a745f830184610a52565b92915050565b5f602082019050610a8d5f8301846109ce565b92915050565b5f81519050919050565b5f82825260208201905092915050565b5f5b83811015610aca578082015181840152602081019050610aaf565b5f8484015250505050565b5f601f19601f8301169050919050565b5f610aef82610a93565b610af98185610a9d565b9350610b09818560208601610aad565b610b1281610ad5565b840191505092915050565b610b26816109dd565b82525050565b610b3581610a47565b82525050565b5f60c083015f830151610b505f8601826108b4565b506020830151610b6360208601826108b4565b5060408301518482036040860152610b7b8282610ae5565b9150506060830151610b906060860182610b1d565b506080830151610ba36080860182610b2c565b5060a0830151610bb660a0860182610b2c565b508091505092915050565b5f6020820190508181035f830152610bd98184610b3b565b905092915050565b5f82825260208201905092915050565b7f5369676e6174757265206e6f7420666f756e64000000000000000000000000005f82015250565b5f610c25601383610be1565b9150610c3082610bf1565b602082019050919050565b5f6020820190508181035f830152610c5281610c19565b9050919050565b7f5369676e617475726520697320696e76616c69640000000000000000000000005f82015250565b5f610c8d601483610be1565b9150610c9882610c59565b602082019050919050565b5f6020820190508181035f830152610cba81610c81565b9050919050565b7f436f6e74656e742068617368206d69736d6174636800000000000000000000005f82015250565b5f610cf5601583610be1565b9150610d0082610cc1565b602082019050919050565b5f6020820190508181035f830152610d2281610ce9565b9050919050565b7f5369676e6572206973206e6f206c6f6e676572207472757374656400000000005f82015250565b5f610d5d601b83610be1565b9150610d6882610d29565b602082019050919050565b5f6020820190508181035f830152610d8a81610d51565b9050919050565b7f436f6e74656e7420686173682063616e6e6f74206265207a65726f00000000005f82015250565b5f610dc5601b83610be1565b9150610dd082610d91565b602082019050919050565b5f6020820190508181035f830152610df281610db9565b9050919050565b7f4964656e746974792063616e6e6f74206265207a65726f0000000000000000005f82015250565b5f610e2d601783610be1565b9150610e3882610df9565b602082019050919050565b5f6020820190508181035f830152610e5a81610e21565b9050919050565b7f556e6b6e6f776e206964656e746974793a207369676e6572206973206e6f74205f8201527f7472757374656400000000000000000000000000000000000000000000000000602082015250565b5f610ebb602783610be1565b9150610ec682610e61565b604082019050919050565b5f6020820190508181035f830152610ee881610eaf565b9050919050565b5f819050919050565b610f09610f04826108ab565b610eef565b82525050565b5f819050919050565b610f29610f24826109dd565b610f0f565b82525050565b5f610f3a8287610ef8565b602082019150610f4a8286610ef8565b602082019150610f5a8285610f18565b602082019150610f6a8284610f18565b60208201915081905095945050505050565b7f4e487b71000000000000000000000000000000000000000000000000000000005f52601160045260245ffd5b5f610fb3826109dd565b91507fffffffffffffffffffffffffffffffffffffffffffffffffffffffffffffffff8203610fe557610fe4610f7c565b5b600182019050919050565b7f4e487b71000000000000000000000000000000000000000000000000000000005f52604160045260245ffd5b7f4e487b71000000000000000000000000000000000000000000000000000000005f52602260045260245ffd5b5f600282049050600182168061106157607f821691505b6020821081036110745761107361101d565b5b50919050565b5f819050815f5260205f209050919050565b5f6020601f8301049050919050565b5f82821b905092915050565b5f600883026110d67fffffffffffffffffffffffffffffffffffffffffffffffffffffffffffffffff8261109b565b6110e0868361109b565b95508019841693508086168417925050509392505050565b5f819050919050565b5f61111b611116611111846109dd565b6110f8565b6109dd565b9050919050565b5f819050919050565b61113483611101565b61114861114082611122565b8484546110a7565b825550505050565b5f90565b61115c611150565b61116781848461112b565b505050565b5b8181101561118a5761117f5f82611154565b60018101905061116d565b5050565b601f8211156111cf576111a08161107a565b6111a98461108c565b810160208510156111b8578190505b6111cc6111c48561108c565b83018261116c565b50505b505050565b5f82821c905092915050565b5f6111ef5f19846008026111d4565b1980831691505092915050565b5f61120783836111e0565b9150826002028217905092915050565b61122082610a93565b67ffffffffffffffff81111561123957611238610ff0565b5b611243825461104a565b61124e82828561118e565b5f60209050601f83116001811461127f575f841561126d578287015190505b61127785826111fc565b8655506112de565b601f19841661128d8661107a565b5f5b828110156112b45784890151825560018201915060208501945060208101905061128f565b868310156112d157848901516112cd601f8916826111e0565b8355505b6001600288020188555050505b505050505050565b7f5369676e657220616c72656164792074727573746564000000000000000000005f82015250565b5f61131a601683610be1565b9150611325826112e6565b602082019050919050565b5f6020820190508181035f8301526113478161130e565b905091905056fea26469706673582212205cde502ebbf26e60738ad04450d3504b93b8b6b090da5eb21b24c19fb0d5934a64736f6c63430008140033","linkReferences":{}},"methodIdentifiers":{"addTrustedSigner(bytes32)":"dcea948e","getSignature(bytes32)":"c4b14e0b","getTrustedSigners()":"1d9c68c3","isTrustedSigner(bytes32)":"6e4a2621","sign(bytes32,bytes32)":"86f57635","verify(bytes32,bytes32)":"4e8fee00"},"id":244}