{"abi":[{"type":"function","name":"execute","inputs":[{"name":"base","type":"bytes","internalType":"bytes"},{"name":"ours","type":"bytes","internalType":"bytes"},{"name":"theirs","type":"bytes","internalType":"bytes"}],"outputs":[{"name":"result","type":"bytes","internalType":"bytes"},{"name":"clean","type":"bool","internalType":"bool"}],"stateMutability":"nonpayable"},{"type":"function","name":"register","inputs":[],"outputs":[{"name":"name","type":"string","internalType":"string"},{"name":"category","type":"string","internalType":"string"},{"name":"contentTypes","type":"string[]","internalType":"string[]"}],"stateMutability":"pure"},{"type":"event","name":"MergeClean","inputs":[{"name":"resultHash","type":"bytes32","indexed":true,"internalType":"bytes32"}],"anonymous":false},{"type":"event","name":"MergeConflicts","inputs":[{"name":"conflictCount","type":"uint256","indexed":false,"internalType":"uint256"}],"anonymous":false}],"bytecode":{"object":"0x608060405234801561000f575f80fd5b50610a458061001d5f395ff3fe608060405234801561000f575f80fd5b5060043610610034575f3560e01c80631aa3a00814610038578063dc6ab7d414610058575b5f80fd5b610040610089565b60405161004f93929190610698565b60405180910390f35b610072600480360381019061006d919061074b565b6102a7565b604051610080929190610867565b60405180910390f35b60608060606040518060400160405280600881526020017f73656d616e74696300000000000000000000000000000000000000000000000081525092506040518060400160405280600581526020017f6d657267650000000000000000000000000000000000000000000000000000008152509150600467ffffffffffffffff81111561011957610118610895565b5b60405190808252806020026020018201604052801561014c57816020015b60608152602001906001900390816101375790505b5090506040518060400160405280600d81526020017f746578742f782d707974686f6e00000000000000000000000000000000000000815250815f81518110610198576101976108c2565b5b60200260200101819052506040518060400160405280600f81526020017f746578742f747970657363726970740000000000000000000000000000000000815250816001815181106101ed576101ec6108c2565b5b60200260200101819052506040518060400160405280600f81526020017f746578742f6a617661736372697074000000000000000000000000000000000081525081600281518110610242576102416108c2565b5b60200260200101819052506040518060400160405280600b81526020017f746578742f782d6a61766100000000000000000000000000000000000000000081525081600381518110610297576102966108c2565b5b6020026020010181905250909192565b60605f8088886040516102bb92919061092b565b604051809103902090505f87876040516102d692919061092b565b604051809103902090505f86866040516102f192919061092b565b604051809103902090508282036103815786868080601f0160208091040260200160405190810160405280939291908181526020018383808284375f81840152601f19601f82011690508083019250505050505050945060019350807f4498d66cbf34eccf4a18e0a78c9498bc001becc5a421689d8b070d10c724103260405160405180910390a2505050610500565b8281036104075788888080601f0160208091040260200160405190810160405280939291908181526020018383808284375f81840152601f19601f82011690508083019250505050505050945060019350817f4498d66cbf34eccf4a18e0a78c9498bc001becc5a421689d8b070d10c724103260405160405180910390a2505050610500565b80820361048d5788888080601f0160208091040260200160405190810160405280939291908181526020018383808284375f81840152601f19601f82011690508083019250505050505050945060019350817f4498d66cbf34eccf4a18e0a78c9498bc001becc5a421689d8b070d10c724103260405160405180910390a2505050610500565b7fba6a1bafa7eeb7d9270ad00f25874bed27b3927b401414e6aed0c569329cf75160016040516104bd919061098e565b60405180910390a16040517f08c379a00000000000000000000000000000000000000000000000000000000081526004016104f7906109f1565b60405180910390fd5b965096945050505050565b5f81519050919050565b5f82825260208201905092915050565b5f5b83811015610542578082015181840152602081019050610527565b5f8484015250505050565b5f601f19601f8301169050919050565b5f6105678261050b565b6105718185610515565b9350610581818560208601610525565b61058a8161054d565b840191505092915050565b5f81519050919050565b5f82825260208201905092915050565b5f819050602082019050919050565b5f82825260208201905092915050565b5f6105d88261050b565b6105e281856105be565b93506105f2818560208601610525565b6105fb8161054d565b840191505092915050565b5f61061183836105ce565b905092915050565b5f602082019050919050565b5f61062f82610595565b610639818561059f565b93508360208202850161064b856105af565b805f5b8581101561068657848403895281516106678582610606565b945061067283610619565b925060208a0199505060018101905061064e565b50829750879550505050505092915050565b5f6060820190508181035f8301526106b0818661055d565b905081810360208301526106c4818561055d565b905081810360408301526106d88184610625565b9050949350505050565b5f80fd5b5f80fd5b5f80fd5b5f80fd5b5f80fd5b5f8083601f84011261070b5761070a6106ea565b5b8235905067ffffffffffffffff811115610728576107276106ee565b5b602083019150836001820283011115610744576107436106f2565b5b9250929050565b5f805f805f8060608789031215610765576107646106e2565b5b5f87013567ffffffffffffffff811115610782576107816106e6565b5b61078e89828a016106f6565b9650965050602087013567ffffffffffffffff8111156107b1576107b06106e6565b5b6107bd89828a016106f6565b9450945050604087013567ffffffffffffffff8111156107e0576107df6106e6565b5b6107ec89828a016106f6565b92509250509295509295509295565b5f81519050919050565b5f82825260208201905092915050565b5f61081f826107fb565b6108298185610805565b9350610839818560208601610525565b6108428161054d565b840191505092915050565b5f8115159050919050565b6108618161084d565b82525050565b5f6040820190508181035f83015261087f8185610815565b905061088e6020830184610858565b9392505050565b7f4e487b71000000000000000000000000000000000000000000000000000000005f52604160045260245ffd5b7f4e487b71000000000000000000000000000000000000000000000000000000005f52603260045260245ffd5b5f81905092915050565b828183375f83830152505050565b5f61091283856108ef565b935061091f8385846108f9565b82840190509392505050565b5f610937828486610907565b91508190509392505050565b5f819050919050565b5f819050919050565b5f819050919050565b5f61097861097361096e84610943565b610955565b61094c565b9050919050565b6109888161095e565b82525050565b5f6020820190506109a15f83018461097f565b92915050565b7f4d6572676520636f6e666c6963747320646574656374656400000000000000005f82015250565b5f6109db601883610515565b91506109e6826109a7565b602082019050919050565b5f6020820190508181035f830152610a08816109cf565b905091905056fea26469706673582212202fb0f1518ebe51cff5254ea002bfafbaec0063c657fc323cbf79437f1c53822d64736f6c63430008140033","linkReferences":{}},"methodIdentifiers":{"execute(bytes,bytes,bytes)":"dc6ab7d4","register()":"1aa3a008"},"id":240}