{"abi":[{"type":"function","name":"get","inputs":[{"name":"widget","type":"bytes32","internalType":"bytes32"}],"outputs":[{"name":"","type":"tuple","internalType":"struct Widget.GetOkResult","components":[{"name":"success","type":"bool","internalType":"bool"},{"name":"widget","type":"bytes32","internalType":"bytes32"},{"name":"ast","type":"string","internalType":"string"},{"name":"name","type":"string","internalType":"string"}]}],"stateMutability":"nonpayable"},{"type":"function","name":"list","inputs":[{"name":"category","type":"string","internalType":"string"}],"outputs":[{"name":"","type":"tuple","internalType":"struct Widget.ListOkResult","components":[{"name":"success","type":"bool","internalType":"bool"},{"name":"widgets","type":"string","internalType":"string"}]}],"stateMutability":"nonpayable"},{"type":"function","name":"register","inputs":[{"name":"widget","type":"bytes32","internalType":"bytes32"},{"name":"name","type":"string","internalType":"string"},{"name":"ast","type":"string","internalType":"string"},{"name":"category","type":"string","internalType":"string"}],"outputs":[{"name":"","type":"tuple","internalType":"struct Widget.RegisterOkResult","components":[{"name":"success","type":"bool","internalType":"bool"},{"name":"widget","type":"bytes32","internalType":"bytes32"}]}],"stateMutability":"nonpayable"},{"type":"function","name":"unregister","inputs":[{"name":"widget","type":"bytes32","internalType":"bytes32"}],"outputs":[{"name":"","type":"tuple","internalType":"struct Widget.UnregisterOkResult","components":[{"name":"success","type":"bool","internalType":"bool"},{"name":"widget","type":"bytes32","internalType":"bytes32"}]}],"stateMutability":"nonpayable"},{"type":"event","name":"GetCompleted","inputs":[{"name":"variant","type":"string","indexed":false,"internalType":"string"},{"name":"widget","type":"bytes32","indexed":true,"internalType":"bytes32"}],"anonymous":false},{"type":"event","name":"ListCompleted","inputs":[{"name":"variant","type":"string","indexed":false,"internalType":"string"}],"anonymous":false},{"type":"event","name":"RegisterCompleted","inputs":[{"name":"variant","type":"string","indexed":false,"internalType":"string"},{"name":"widget","type":"bytes32","indexed":true,"internalType":"bytes32"}],"anonymous":false},{"type":"event","name":"UnregisterCompleted","inputs":[{"name":"variant","type":"string","indexed":false,"internalType":"string"},{"name":"widget","type":"bytes32","indexed":true,"internalType":"bytes32"}],"anonymous":false}],"bytecode":{"object":"0x608060405234801561000f575f80fd5b5061146a8061001d5f395ff3fe608060405234801561000f575f80fd5b506004361061004a575f3560e01c80631a0919dc1461004e5780635774bc421461007e5780638eaa6ac0146100ae578063fe42bf1a146100de575b5f80fd5b610068600480360381019061006391906108a1565b61010e565b6040516100759190610922565b60405180910390f35b61009860048036038101906100939190610a77565b610236565b6040516100a59190610b5c565b60405180910390f35b6100c860048036038101906100c391906108a1565b610403565b6040516100d59190610c56565b60405180910390f35b6100f860048036038101906100f39190610c76565b6105f0565b6040516101059190610cf7565b60405180910390f35b610116610785565b60015f8381526020019081526020015f205f9054906101000a900460ff16610173576040517f08c379a000000000000000000000000000000000000000000000000000000000815260040161016a90610d71565b60405180910390fd5b5f808381526020019081526020015f205f8082015f61019291906107a2565b600182015f6101a191906107a2565b600282015f6101b091906107a2565b600382015f905550505f60015f8481526020019081526020015f205f6101000a81548160ff021916908315150217905550817f1f1fb3ad08f4cc27772cd91b616c353f6be6b729e331cf6294487d4d9633dc8660405161020f90610dd9565b60405180910390a26040518060400160405280600115158152602001838152509050919050565b61023e6107df565b60015f8681526020019081526020015f205f9054906101000a900460ff161561029c576040517f08c379a000000000000000000000000000000000000000000000000000000000815260040161029390610e41565b60405180910390fd5b5f8451116102df576040517f08c379a00000000000000000000000000000000000000000000000000000000081526004016102d690610ea9565b60405180910390fd5b6040518060800160405280858152602001848152602001838152602001428152505f808781526020019081526020015f205f820151815f01908161032391906110ca565b50602082015181600101908161033991906110ca565b50604082015181600201908161034f91906110ca565b50606082015181600301559050506001805f8781526020019081526020015f205f6101000a81548160ff021916908315150217905550600285908060018154018082558091505060019003905f5260205f20015f9091909190915055847f0402c886f5c1bb50afb826d1767a153123631152c678fbec8089e9e8ee3e49bf6040516103d990610dd9565b60405180910390a26040518060400160405280600115158152602001868152509050949350505050565b61040b6107fc565b60015f8381526020019081526020015f205f9054906101000a900460ff16610468576040517f08c379a000000000000000000000000000000000000000000000000000000000815260040161045f90610d71565b60405180910390fd5b5f805f8481526020019081526020015f209050827fd45fe45dbfb310b00d5db432aa35f96282e16a8bb204b349e334de2cd5566f346040516104a990610dd9565b60405180910390a260405180608001604052806001151581526020018481526020018260010180546104da90610ef4565b80601f016020809104026020016040519081016040528092919081815260200182805461050690610ef4565b80156105515780601f1061052857610100808354040283529160200191610551565b820191905f5260205f20905b81548152906001019060200180831161053457829003601f168201915b50505050508152602001825f01805461056990610ef4565b80601f016020809104026020016040519081016040528092919081815260200182805461059590610ef4565b80156105e05780601f106105b7576101008083540402835291602001916105e0565b820191905f5260205f20905b8154815290600101906020018083116105c357829003601f168201915b5050505050815250915050919050565b6105f8610827565b5f60405180602001604052805f81525090505f600190505f848051906020012090505f8086511190505f5b60028054905081101561072c575f6002828154811061064557610644611199565b5b905f5260205f200154905060015f8281526020019081526020015f205f9054906101000a900460ff166106785750610719565b8280156106ac5750835f808381526020019081526020015f206002016040516106a19190611262565b604051809103902014155b156106b75750610719565b846106df57856040516020016106cd91906112fc565b60405160208183030381529060405295505b855f808381526020019081526020015f205f0160405160200161070392919061139d565b60405160208183030381529060405295505f9450505b8080610724906113ed565b915050610623565b507f84f539fe291ca432b55c0e0628d8a7ae8d2897119d793329eb14e61e99bd79d360405161075a90610dd9565b60405180910390a1604051806040016040528060011515815260200185815250945050505050919050565b60405180604001604052805f151581526020015f80191681525090565b5080546107ae90610ef4565b5f825580601f106107bf57506107dc565b601f0160209004905f5260205f20908101906107db9190610842565b5b50565b60405180604001604052805f151581526020015f80191681525090565b60405180608001604052805f151581526020015f801916815260200160608152602001606081525090565b60405180604001604052805f15158152602001606081525090565b5b80821115610859575f815f905550600101610843565b5090565b5f604051905090565b5f80fd5b5f80fd5b5f819050919050565b6108808161086e565b811461088a575f80fd5b50565b5f8135905061089b81610877565b92915050565b5f602082840312156108b6576108b5610866565b5b5f6108c38482850161088d565b91505092915050565b5f8115159050919050565b6108e0816108cc565b82525050565b6108ef8161086e565b82525050565b604082015f8201516109095f8501826108d7565b50602082015161091c60208501826108e6565b50505050565b5f6040820190506109355f8301846108f5565b92915050565b5f80fd5b5f80fd5b5f601f19601f8301169050919050565b7f4e487b71000000000000000000000000000000000000000000000000000000005f52604160045260245ffd5b61098982610943565b810181811067ffffffffffffffff821117156109a8576109a7610953565b5b80604052505050565b5f6109ba61085d565b90506109c68282610980565b919050565b5f67ffffffffffffffff8211156109e5576109e4610953565b5b6109ee82610943565b9050602081019050919050565b828183375f83830152505050565b5f610a1b610a16846109cb565b6109b1565b905082815260208101848484011115610a3757610a3661093f565b5b610a428482856109fb565b509392505050565b5f82601f830112610a5e57610a5d61093b565b5b8135610a6e848260208601610a09565b91505092915050565b5f805f8060808587031215610a8f57610a8e610866565b5b5f610a9c8782880161088d565b945050602085013567ffffffffffffffff811115610abd57610abc61086a565b5b610ac987828801610a4a565b935050604085013567ffffffffffffffff811115610aea57610ae961086a565b5b610af687828801610a4a565b925050606085013567ffffffffffffffff811115610b1757610b1661086a565b5b610b2387828801610a4a565b91505092959194509250565b604082015f820151610b435f8501826108d7565b506020820151610b5660208501826108e6565b50505050565b5f604082019050610b6f5f830184610b2f565b92915050565b5f81519050919050565b5f82825260208201905092915050565b5f5b83811015610bac578082015181840152602081019050610b91565b5f8484015250505050565b5f610bc182610b75565b610bcb8185610b7f565b9350610bdb818560208601610b8f565b610be481610943565b840191505092915050565b5f608083015f830151610c045f8601826108d7565b506020830151610c1760208601826108e6565b5060408301518482036040860152610c2f8282610bb7565b91505060608301518482036060860152610c498282610bb7565b9150508091505092915050565b5f6020820190508181035f830152610c6e8184610bef565b905092915050565b5f60208284031215610c8b57610c8a610866565b5b5f82013567ffffffffffffffff811115610ca857610ca761086a565b5b610cb484828501610a4a565b91505092915050565b5f604083015f830151610cd25f8601826108d7565b5060208301518482036020860152610cea8282610bb7565b9150508091505092915050565b5f6020820190508181035f830152610d0f8184610cbd565b905092915050565b5f82825260208201905092915050565b7f576964676574206e6f7420666f756e64000000000000000000000000000000005f82015250565b5f610d5b601083610d17565b9150610d6682610d27565b602082019050919050565b5f6020820190508181035f830152610d8881610d4f565b9050919050565b7f6f6b0000000000000000000000000000000000000000000000000000000000005f82015250565b5f610dc3600283610d17565b9150610dce82610d8f565b602082019050919050565b5f6020820190508181035f830152610df081610db7565b9050919050565b7f57696467657420616c72656164792072656769737465726564000000000000005f82015250565b5f610e2b601983610d17565b9150610e3682610df7565b602082019050919050565b5f6020820190508181035f830152610e5881610e1f565b9050919050565b7f4e616d65207265717569726564000000000000000000000000000000000000005f82015250565b5f610e93600d83610d17565b9150610e9e82610e5f565b602082019050919050565b5f6020820190508181035f830152610ec081610e87565b9050919050565b7f4e487b71000000000000000000000000000000000000000000000000000000005f52602260045260245ffd5b5f6002820490506001821680610f0b57607f821691505b602082108103610f1e57610f1d610ec7565b5b50919050565b5f819050815f5260205f209050919050565b5f6020601f8301049050919050565b5f82821b905092915050565b5f60088302610f807fffffffffffffffffffffffffffffffffffffffffffffffffffffffffffffffff82610f45565b610f8a8683610f45565b95508019841693508086168417925050509392505050565b5f819050919050565b5f819050919050565b5f610fce610fc9610fc484610fa2565b610fab565b610fa2565b9050919050565b5f819050919050565b610fe783610fb4565b610ffb610ff382610fd5565b848454610f51565b825550505050565b5f90565b61100f611003565b61101a818484610fde565b505050565b5b8181101561103d576110325f82611007565b600181019050611020565b5050565b601f8211156110825761105381610f24565b61105c84610f36565b8101602085101561106b578190505b61107f61107785610f36565b83018261101f565b50505b505050565b5f82821c905092915050565b5f6110a25f1984600802611087565b1980831691505092915050565b5f6110ba8383611093565b9150826002028217905092915050565b6110d382610b75565b67ffffffffffffffff8111156110ec576110eb610953565b5b6110f68254610ef4565b611101828285611041565b5f60209050601f831160018114611132575f8415611120578287015190505b61112a85826110af565b865550611191565b601f19841661114086610f24565b5f5b8281101561116757848901518255600182019150602085019450602081019050611142565b868310156111845784890151611180601f891682611093565b8355505b6001600288020188555050505b505050505050565b7f4e487b71000000000000000000000000000000000000000000000000000000005f52603260045260245ffd5b5f81905092915050565b5f819050815f5260205f209050919050565b5f81546111ee81610ef4565b6111f881866111c6565b9450600182165f8114611212576001811461122757611259565b60ff1983168652811515820286019350611259565b611230856111d0565b5f5b8381101561125157815481890152600182019150602081019050611232565b838801955050505b50505092915050565b5f61126d82846111e2565b915081905092915050565b5f81905092915050565b5f61128c82610b75565b6112968185611278565b93506112a6818560208601610b8f565b80840191505092915050565b7f2c000000000000000000000000000000000000000000000000000000000000005f82015250565b5f6112e6600183611278565b91506112f1826112b2565b600182019050919050565b5f6113078284611282565b9150611312826112da565b915081905092915050565b5f815461132981610ef4565b6113338186611278565b9450600182165f811461134d576001811461136257611394565b60ff1983168652811515820286019350611394565b61136b85610f24565b5f5b8381101561138c5781548189015260018201915060208101905061136d565b838801955050505b50505092915050565b5f6113a88285611282565b91506113b4828461131d565b91508190509392505050565b7f4e487b71000000000000000000000000000000000000000000000000000000005f52601160045260245ffd5b5f6113f782610fa2565b91507fffffffffffffffffffffffffffffffffffffffffffffffffffffffffffffffff8203611429576114286113c0565b5b60018201905091905056fea264697066735822122053487d5342d2e5b0033810dc62a6bf1fdd48d3094efb31f080a20f0ffb625a3164736f6c63430008140033","linkReferences":{}},"methodIdentifiers":{"get(bytes32)":"8eaa6ac0","list(string)":"fe42bf1a","register(bytes32,string,string,string)":"5774bc42","unregister(bytes32)":"1a0919dc"},"id":337}