{"abi":[{"type":"function","name":"generate","inputs":[{"name":"projection","type":"string","internalType":"string"},{"name":"config","type":"string","internalType":"string"}],"outputs":[{"name":"","type":"tuple","internalType":"struct GraphqlTarget.GenerateOkResult","components":[{"name":"success","type":"bool","internalType":"bool"},{"name":"types","type":"string[]","internalType":"string[]"},{"name":"files","type":"string[]","internalType":"string[]"}]}],"stateMutability":"nonpayable"},{"type":"function","name":"listOperations","inputs":[{"name":"concept","type":"string","internalType":"string"}],"outputs":[{"name":"","type":"tuple","internalType":"struct GraphqlTarget.ListOperationsOkResult","components":[{"name":"success","type":"bool","internalType":"bool"},{"name":"queries","type":"string[]","internalType":"string[]"},{"name":"mutations","type":"string[]","internalType":"string[]"},{"name":"subscriptions","type":"string[]","internalType":"string[]"}]}],"stateMutability":"nonpayable"},{"type":"function","name":"register","inputs":[],"outputs":[{"name":"name","type":"string","internalType":"string"},{"name":"category","type":"string","internalType":"string"},{"name":"formats","type":"string[]","internalType":"string[]"}],"stateMutability":"pure"},{"type":"function","name":"validate","inputs":[{"name":"typeHash","type":"bytes32","internalType":"bytes32"}],"outputs":[{"name":"","type":"tuple","internalType":"struct GraphqlTarget.ValidateOkResult","components":[{"name":"success","type":"bool","internalType":"bool"},{"name":"typeHash","type":"bytes32","internalType":"bytes32"}]}],"stateMutability":"nonpayable"},{"type":"event","name":"GenerateCompleted","inputs":[{"name":"variant","type":"string","indexed":false,"internalType":"string"},{"name":"types","type":"string[]","indexed":false,"internalType":"string[]"},{"name":"files","type":"string[]","indexed":false,"internalType":"string[]"}],"anonymous":false},{"type":"event","name":"ListOperationsCompleted","inputs":[{"name":"variant","type":"string","indexed":false,"internalType":"string"},{"name":"queries","type":"string[]","indexed":false,"internalType":"string[]"},{"name":"mutations","type":"string[]","indexed":false,"internalType":"string[]"},{"name":"subscriptions","type":"string[]","indexed":false,"internalType":"string[]"}],"anonymous":false},{"type":"event","name":"ValidateCompleted","inputs":[{"name":"variant","type":"string","indexed":false,"internalType":"string"},{"name":"typeHash","type":"bytes32","indexed":false,"internalType":"bytes32"},{"name":"cycle","type":"string[]","indexed":false,"internalType":"string[]"}],"anonymous":false}],"bytecode":{"object":"0x608060405234801561000f575f80fd5b50611ce08061001d5f395ff3fe608060405234801561000f575f80fd5b506004361061004a575f3560e01c80631aa3a0081461004e5780632e0126981461006e578063632735ad1461009e578063e9c31c10146100ce575b5f80fd5b6100566100fe565b60405161006593929190610f8f565b60405180910390f35b6100886004803603810190610083919061101d565b610272565b604051610095919061109e565b60405180910390f35b6100b860048036038101906100b391906111e3565b610380565b6040516100c59190611330565b60405180910390f35b6100e860048036038101906100e39190611350565b610896565b6040516100f59190611405565b60405180910390f35b60608060606040518060400160405280600781526020017f6772617068716c0000000000000000000000000000000000000000000000000081525092506040518060400160405280601081526020017f696e746572666163652d746172676574000000000000000000000000000000008152509150600267ffffffffffffffff81111561018e5761018d6110bf565b5b6040519080825280602002602001820160405280156101c157816020015b60608152602001906001900390816101ac5790505b5090506040518060400160405280600381526020017f73646c0000000000000000000000000000000000000000000000000000000000815250815f8151811061020d5761020c611425565b5b60200260200101819052506040518060400160405280600a81526020017f74797065736372697074000000000000000000000000000000000000000000008152508160018151811061026257610261611425565b5b6020026020010181905250909192565b61027a610cc8565b5f808381526020019081526020015f205f9054906101000a900460ff166102d6576040517f08c379a00000000000000000000000000000000000000000000000000000000081526004016102cd9061149c565b60405180910390fd5b5f8067ffffffffffffffff8111156102f1576102f06110bf565b5b60405190808252806020026020018201604052801561032457816020015b606081526020019060019003908161030f5790505b5090507fcb7115e2f04936f42c4c3a9f9c24867c4719f91611e62e434e90720f447ada028382604051610358929190611513565b60405180910390a1604051806040016040528060011515815260200184815250915050919050565b610388610ce5565b5f8351116103cb576040517f08c379a00000000000000000000000000000000000000000000000000000000081526004016103c29061159e565b60405180910390fd5b5f836006546040516020016103e192919061161f565b60405160208183030381529060405280519060200120905060065f81548092919061040b90611673565b91905055505f8490505f808381526020019081526020015f205f9054906101000a900460ff166104845760015f808481526020019081526020015f205f6101000a81548160ff021916908315150217905550600182908060018154018082558091505060019003905f5260205f20015f90919091909150555b8060025f8481526020019081526020015f2090816104a291906118b4565b505f600167ffffffffffffffff8111156104bf576104be6110bf565b5b6040519080825280602002602001820160405280156104f257816020015b60608152602001906001900390816104dd5790505b50905081815f8151811061050957610508611425565b5b60200260200101819052505f600267ffffffffffffffff8111156105305761052f6110bf565b5b60405190808252806020026020018201604052801561056357816020015b606081526020019060019003908161054e5790505b5090508660405160200161057791906119cd565b604051602081830303815290604052815f8151811061059957610598611425565b5b6020026020010181905250866040516020016105b59190611a38565b604051602081830303815290604052816001815181106105d8576105d7611425565b5b60200260200101819052505f876040516020016105f59190611a59565b6040516020818303038152906040528051906020012090505f600167ffffffffffffffff811115610629576106286110bf565b5b60405190808252806020026020018201604052801561065c57816020015b60608152602001906001900390816106475790505b509050886040516020016106709190611ab9565b604051602081830303815290604052815f8151811061069257610691611425565b5b60200260200101819052505f600167ffffffffffffffff8111156106b9576106b86110bf565b5b6040519080825280602002602001820160405280156106ec57816020015b60608152602001906001900390816106d75790505b509050896040516020016107009190611b24565b604051602081830303815290604052815f8151811061072257610721611425565b5b60200260200101819052505f600167ffffffffffffffff811115610749576107486110bf565b5b60405190808252806020026020018201604052801561077c57816020015b60608152602001906001900390816107675790505b5090508a6040516020016107909190611bd9565b604051602081830303815290604052815f815181106107b2576107b1611425565b5b60200260200101819052508260035f8681526020019081526020015f2090805190602001906107e2929190610d07565b508160045f8681526020019081526020015f209080519060200190610808929190610d07565b508060055f8681526020019081526020015f20908051906020019061082e929190610d07565b507f98e8722e367033a30eb92cae27f6bd707bbffe334ce250eed26515f1a97b81ee8686604051610860929190611c05565b60405180910390a16040518060600160405280600115158152602001878152602001868152509850505050505050505092915050565b61089e610d5e565b5f826040516020016108b09190611a59565b6040516020818303038152906040528051906020012090505f60035f8381526020019081526020015f20805480602002602001604051908101604052809291908181526020015f905b828210156109a1578382905f5260205f20018054610916906116e7565b80601f0160208091040260200160405190810160405280929190818152602001828054610942906116e7565b801561098d5780601f106109645761010080835404028352916020019161098d565b820191905f5260205f20905b81548152906001019060200180831161097057829003601f168201915b5050505050815260200190600101906108f9565b5050505090505f60045f8481526020019081526020015f20805480602002602001604051908101604052809291908181526020015f905b82821015610a80578382905f5260205f200180546109f5906116e7565b80601f0160208091040260200160405190810160405280929190818152602001828054610a21906116e7565b8015610a6c5780601f10610a4357610100808354040283529160200191610a6c565b820191905f5260205f20905b815481529060010190602001808311610a4f57829003601f168201915b5050505050815260200190600101906109d8565b5050505090505f60055f8581526020019081526020015f20805480602002602001604051908101604052809291908181526020015f905b82821015610b5f578382905f5260205f20018054610ad4906116e7565b80601f0160208091040260200160405190810160405280929190818152602001828054610b00906116e7565b8015610b4b5780601f10610b2257610100808354040283529160200191610b4b565b820191905f5260205f20905b815481529060010190602001808311610b2e57829003601f168201915b505050505081526020019060010190610ab7565b5050505090505f835103610c5e575f67ffffffffffffffff811115610b8757610b866110bf565b5b604051908082528060200260200182016040528015610bba57816020015b6060815260200190600190039081610ba55790505b5092505f67ffffffffffffffff811115610bd757610bd66110bf565b5b604051908082528060200260200182016040528015610c0a57816020015b6060815260200190600190039081610bf55790505b5091505f67ffffffffffffffff811115610c2757610c266110bf565b5b604051908082528060200260200182016040528015610c5a57816020015b6060815260200190600190039081610c455790505b5090505b7fe7ab4db277f9952c4701aa1d76bf89b14a1917a959cd763cd1a354a617f8f3f3838383604051610c9193929190611c4d565b60405180910390a1604051806080016040528060011515815260200184815260200183815260200182815250945050505050919050565b60405180604001604052805f151581526020015f80191681525090565b60405180606001604052805f1515815260200160608152602001606081525090565b828054828255905f5260205f20908101928215610d4d579160200282015b82811115610d4c578251829081610d3c91906118b4565b5091602001919060010190610d25565b5b509050610d5a9190610d87565b5090565b60405180608001604052805f151581526020016060815260200160608152602001606081525090565b5b80821115610da6575f8181610d9d9190610daa565b50600101610d88565b5090565b508054610db6906116e7565b5f825580601f10610dc75750610de4565b601f0160209004905f5260205f2090810190610de39190610de7565b5b50565b5b80821115610dfe575f815f905550600101610de8565b5090565b5f81519050919050565b5f82825260208201905092915050565b5f5b83811015610e39578082015181840152602081019050610e1e565b5f8484015250505050565b5f601f19601f8301169050919050565b5f610e5e82610e02565b610e688185610e0c565b9350610e78818560208601610e1c565b610e8181610e44565b840191505092915050565b5f81519050919050565b5f82825260208201905092915050565b5f819050602082019050919050565b5f82825260208201905092915050565b5f610ecf82610e02565b610ed98185610eb5565b9350610ee9818560208601610e1c565b610ef281610e44565b840191505092915050565b5f610f088383610ec5565b905092915050565b5f602082019050919050565b5f610f2682610e8c565b610f308185610e96565b935083602082028501610f4285610ea6565b805f5b85811015610f7d5784840389528151610f5e8582610efd565b9450610f6983610f10565b925060208a01995050600181019050610f45565b50829750879550505050505092915050565b5f6060820190508181035f830152610fa78186610e54565b90508181036020830152610fbb8185610e54565b90508181036040830152610fcf8184610f1c565b9050949350505050565b5f604051905090565b5f80fd5b5f80fd5b5f819050919050565b610ffc81610fea565b8114611006575f80fd5b50565b5f8135905061101781610ff3565b92915050565b5f6020828403121561103257611031610fe2565b5b5f61103f84828501611009565b91505092915050565b5f8115159050919050565b61105c81611048565b82525050565b61106b81610fea565b82525050565b604082015f8201516110855f850182611053565b5060208201516110986020850182611062565b50505050565b5f6040820190506110b15f830184611071565b92915050565b5f80fd5b5f80fd5b7f4e487b71000000000000000000000000000000000000000000000000000000005f52604160045260245ffd5b6110f582610e44565b810181811067ffffffffffffffff82111715611114576111136110bf565b5b80604052505050565b5f611126610fd9565b905061113282826110ec565b919050565b5f67ffffffffffffffff821115611151576111506110bf565b5b61115a82610e44565b9050602081019050919050565b828183375f83830152505050565b5f61118761118284611137565b61111d565b9050828152602081018484840111156111a3576111a26110bb565b5b6111ae848285611167565b509392505050565b5f82601f8301126111ca576111c96110b7565b5b81356111da848260208601611175565b91505092915050565b5f80604083850312156111f9576111f8610fe2565b5b5f83013567ffffffffffffffff81111561121657611215610fe6565b5b611222858286016111b6565b925050602083013567ffffffffffffffff81111561124357611242610fe6565b5b61124f858286016111b6565b9150509250929050565b5f82825260208201905092915050565b5f61127382610e8c565b61127d8185611259565b93508360208202850161128f85610ea6565b805f5b858110156112ca57848403895281516112ab8582610efd565b94506112b683610f10565b925060208a01995050600181019050611292565b50829750879550505050505092915050565b5f606083015f8301516112f15f860182611053565b50602083015184820360208601526113098282611269565b915050604083015184820360408601526113238282611269565b9150508091505092915050565b5f6020820190508181035f83015261134881846112dc565b905092915050565b5f6020828403121561136557611364610fe2565b5b5f82013567ffffffffffffffff81111561138257611381610fe6565b5b61138e848285016111b6565b91505092915050565b5f608083015f8301516113ac5f860182611053565b50602083015184820360208601526113c48282611269565b915050604083015184820360408601526113de8282611269565b915050606083015184820360608601526113f88282611269565b9150508091505092915050565b5f6020820190508181035f83015261141d8184611397565b905092915050565b7f4e487b71000000000000000000000000000000000000000000000000000000005f52603260045260245ffd5b7f54797065206e6f7420666f756e640000000000000000000000000000000000005f82015250565b5f611486600e83610e0c565b915061149182611452565b602082019050919050565b5f6020820190508181035f8301526114b38161147a565b9050919050565b7f6f6b0000000000000000000000000000000000000000000000000000000000005f82015250565b5f6114ee600283610e0c565b91506114f9826114ba565b602082019050919050565b61150d81610fea565b82525050565b5f6060820190508181035f83015261152a816114e2565b90506115396020830185611504565b818103604083015261154b8184610f1c565b90509392505050565b7f50726f6a656374696f6e2063616e6e6f7420626520656d7074790000000000005f82015250565b5f611588601a83610e0c565b915061159382611554565b602082019050919050565b5f6020820190508181035f8301526115b58161157c565b9050919050565b5f81905092915050565b5f6115d082610e02565b6115da81856115bc565b93506115ea818560208601610e1c565b80840191505092915050565b5f819050919050565b5f819050919050565b611619611614826115f6565b6115ff565b82525050565b5f61162a82856115c6565b91506116368284611608565b6020820191508190509392505050565b7f4e487b71000000000000000000000000000000000000000000000000000000005f52601160045260245ffd5b5f61167d826115f6565b91507fffffffffffffffffffffffffffffffffffffffffffffffffffffffffffffffff82036116af576116ae611646565b5b600182019050919050565b7f4e487b71000000000000000000000000000000000000000000000000000000005f52602260045260245ffd5b5f60028204905060018216806116fe57607f821691505b602082108103611711576117106116ba565b5b50919050565b5f819050815f5260205f209050919050565b5f6020601f8301049050919050565b5f82821b905092915050565b5f600883026117737fffffffffffffffffffffffffffffffffffffffffffffffffffffffffffffffff82611738565b61177d8683611738565b95508019841693508086168417925050509392505050565b5f819050919050565b5f6117b86117b36117ae846115f6565b611795565b6115f6565b9050919050565b5f819050919050565b6117d18361179e565b6117e56117dd826117bf565b848454611744565b825550505050565b5f90565b6117f96117ed565b6118048184846117c8565b505050565b5b818110156118275761181c5f826117f1565b60018101905061180a565b5050565b601f82111561186c5761183d81611717565b61184684611729565b81016020851015611855578190505b61186961186185611729565b830182611809565b50505b505050565b5f82821c905092915050565b5f61188c5f1984600802611871565b1980831691505092915050565b5f6118a4838361187d565b9150826002028217905092915050565b6118bd82610e02565b67ffffffffffffffff8111156118d6576118d56110bf565b5b6118e082546116e7565b6118eb82828561182b565b5f60209050601f83116001811461191c575f841561190a578287015190505b6119148582611899565b86555061197b565b601f19841661192a86611717565b5f5b828110156119515784890151825560018201915060208501945060208101905061192c565b8683101561196e578489015161196a601f89168261187d565b8355505b6001600288020188555050505b505050505050565b7f2e736368656d612e6772617068716c00000000000000000000000000000000005f82015250565b5f6119b7600f836115bc565b91506119c282611983565b600f82019050919050565b5f6119d882846115c6565b91506119e3826119ab565b915081905092915050565b7f2e7265736f6c766572732e7473000000000000000000000000000000000000005f82015250565b5f611a22600d836115bc565b9150611a2d826119ee565b600d82019050919050565b5f611a4382846115c6565b9150611a4e82611a16565b915081905092915050565b5f611a6482846115c6565b915081905092915050565b7f67657400000000000000000000000000000000000000000000000000000000005f82015250565b5f611aa36003836115bc565b9150611aae82611a6f565b600382019050919050565b5f611ac382611a97565b9150611acf82846115c6565b915081905092915050565b7f75706461746500000000000000000000000000000000000000000000000000005f82015250565b5f611b0e6006836115bc565b9150611b1982611ada565b600682019050919050565b5f611b2e82611b02565b9150611b3a82846115c6565b915081905092915050565b7f6f6e0000000000000000000000000000000000000000000000000000000000005f82015250565b5f611b796002836115bc565b9150611b8482611b45565b600282019050919050565b7f4368616e676564000000000000000000000000000000000000000000000000005f82015250565b5f611bc36007836115bc565b9150611bce82611b8f565b600782019050919050565b5f611be382611b6d565b9150611bef82846115c6565b9150611bfa82611bb7565b915081905092915050565b5f6060820190508181035f830152611c1c816114e2565b90508181036020830152611c308185610f1c565b90508181036040830152611c448184610f1c565b90509392505050565b5f6080820190508181035f830152611c64816114e2565b90508181036020830152611c788186610f1c565b90508181036040830152611c8c8185610f1c565b90508181036060830152611ca08184610f1c565b905094935050505056fea2646970667358221220f6900e65d43d0da0633c26f25b956d11287af9a60bbe377a5183ffdeb10bcdd364736f6c63430008140033","linkReferences":{}},"methodIdentifiers":{"generate(string,string)":"632735ad","listOperations(string)":"e9c31c10","register()":"1aa3a008","validate(bytes32)":"2e012698"},"id":138}