{"abi":[{"type":"function","name":"get","inputs":[{"name":"user","type":"bytes32","internalType":"bytes32"}],"outputs":[{"name":"found","type":"bool","internalType":"bool"},{"name":"bio","type":"string","internalType":"string"},{"name":"image","type":"string","internalType":"string"}],"stateMutability":"view"},{"type":"function","name":"update","inputs":[{"name":"user","type":"bytes32","internalType":"bytes32"},{"name":"bio","type":"string","internalType":"string"},{"name":"image","type":"string","internalType":"string"}],"outputs":[],"stateMutability":"nonpayable"},{"type":"event","name":"ProfileUpdated","inputs":[{"name":"user","type":"bytes32","indexed":true,"internalType":"bytes32"},{"name":"bio","type":"string","indexed":false,"internalType":"string"},{"name":"image","type":"string","indexed":false,"internalType":"string"}],"anonymous":false}],"bytecode":{"object":"0x608060405234801561000f575f80fd5b506109658061001d5f395ff3fe608060405234801561000f575f80fd5b5060043610610034575f3560e01c8063305d6617146100385780638eaa6ac014610054575b5f80fd5b610052600480360381019061004d91906103aa565b610086565b005b61006e6004803603810190610069919061043b565b610179565b60405161007d9392919061050a565b60405180910390f35b5f801b85036100ca576040517f08c379a00000000000000000000000000000000000000000000000000000000081526004016100c190610597565b60405180910390fd5b83835f808881526020019081526020015f2091826100e99291906107ef565b50818160015f8881526020019081526020015f20918261010a9291906107ef565b50600160025f8781526020019081526020015f205f6101000a81548160ff021916908315150217905550847f8c8d0817c8cd5a6d6581731706187f0bbadc4ea80d563046905906f6b8131f018585858560405161016a94939291906108f6565b60405180910390a25050505050565b5f60608060025f8581526020019081526020015f205f9054906101000a900460ff166101c9575f60405180602001604052805f81525060405180602001604052805f815250925092509250610307565b60015f808681526020019081526020015f2060015f8781526020019081526020015f208180546101f890610619565b80601f016020809104026020016040519081016040528092919081815260200182805461022490610619565b801561026f5780601f106102465761010080835404028352916020019161026f565b820191905f5260205f20905b81548152906001019060200180831161025257829003601f168201915b5050505050915080805461028290610619565b80601f01602080910402602001604051908101604052809291908181526020018280546102ae90610619565b80156102f95780601f106102d0576101008083540402835291602001916102f9565b820191905f5260205f20905b8154815290600101906020018083116102dc57829003601f168201915b505050505090509250925092505b9193909250565b5f80fd5b5f80fd5b5f819050919050565b61032881610316565b8114610332575f80fd5b50565b5f813590506103438161031f565b92915050565b5f80fd5b5f80fd5b5f80fd5b5f8083601f84011261036a57610369610349565b5b8235905067ffffffffffffffff8111156103875761038661034d565b5b6020830191508360018202830111156103a3576103a2610351565b5b9250929050565b5f805f805f606086880312156103c3576103c261030e565b5b5f6103d088828901610335565b955050602086013567ffffffffffffffff8111156103f1576103f0610312565b5b6103fd88828901610355565b9450945050604086013567ffffffffffffffff8111156104205761041f610312565b5b61042c88828901610355565b92509250509295509295909350565b5f602082840312156104505761044f61030e565b5b5f61045d84828501610335565b91505092915050565b5f8115159050919050565b61047a81610466565b82525050565b5f81519050919050565b5f82825260208201905092915050565b5f5b838110156104b757808201518184015260208101905061049c565b5f8484015250505050565b5f601f19601f8301169050919050565b5f6104dc82610480565b6104e6818561048a565b93506104f681856020860161049a565b6104ff816104c2565b840191505092915050565b5f60608201905061051d5f830186610471565b818103602083015261052f81856104d2565b9050818103604083015261054381846104d2565b9050949350505050565b7f557365722049442063616e6e6f74206265207a65726f000000000000000000005f82015250565b5f61058160168361048a565b915061058c8261054d565b602082019050919050565b5f6020820190508181035f8301526105ae81610575565b9050919050565b5f82905092915050565b7f4e487b71000000000000000000000000000000000000000000000000000000005f52604160045260245ffd5b7f4e487b71000000000000000000000000000000000000000000000000000000005f52602260045260245ffd5b5f600282049050600182168061063057607f821691505b602082108103610643576106426105ec565b5b50919050565b5f819050815f5260205f209050919050565b5f6020601f8301049050919050565b5f82821b905092915050565b5f600883026106a57fffffffffffffffffffffffffffffffffffffffffffffffffffffffffffffffff8261066a565b6106af868361066a565b95508019841693508086168417925050509392505050565b5f819050919050565b5f819050919050565b5f6106f36106ee6106e9846106c7565b6106d0565b6106c7565b9050919050565b5f819050919050565b61070c836106d9565b610720610718826106fa565b848454610676565b825550505050565b5f90565b610734610728565b61073f818484610703565b505050565b5b81811015610762576107575f8261072c565b600181019050610745565b5050565b601f8211156107a75761077881610649565b6107818461065b565b81016020851015610790578190505b6107a461079c8561065b565b830182610744565b50505b505050565b5f82821c905092915050565b5f6107c75f19846008026107ac565b1980831691505092915050565b5f6107df83836107b8565b9150826002028217905092915050565b6107f983836105b5565b67ffffffffffffffff811115610812576108116105bf565b5b61081c8254610619565b610827828285610766565b5f601f831160018114610854575f8415610842578287013590505b61084c85826107d4565b8655506108b3565b601f19841661086286610649565b5f5b8281101561088957848901358255600182019150602085019450602081019050610864565b868310156108a657848901356108a2601f8916826107b8565b8355505b6001600288020188555050505b50505050505050565b828183375f83830152505050565b5f6108d5838561048a565b93506108e28385846108bc565b6108eb836104c2565b840190509392505050565b5f6040820190508181035f83015261090f8186886108ca565b905081810360208301526109248184866108ca565b90509594505050505056fea2646970667358221220de5b220b7bf4c4c3f868c08864d69af368843f4ebe71e2cd9fb4f55ed0eb434e64736f6c63430008140033","linkReferences":{}},"methodIdentifiers":{"get(bytes32)":"8eaa6ac0","update(bytes32,string,string)":"305d6617"},"id":198}