{"abi":[{"type":"function","name":"addAlias","inputs":[{"name":"entityId","type":"bytes32","internalType":"bytes32"},{"name":"aliasName","type":"string","internalType":"string"}],"outputs":[],"stateMutability":"nonpayable"},{"type":"function","name":"removeAlias","inputs":[{"name":"entityId","type":"bytes32","internalType":"bytes32"},{"name":"aliasName","type":"string","internalType":"string"}],"outputs":[],"stateMutability":"nonpayable"},{"type":"function","name":"resolve","inputs":[{"name":"name","type":"string","internalType":"string"}],"outputs":[{"name":"found","type":"bool","internalType":"bool"},{"name":"entityId","type":"bytes32","internalType":"bytes32"}],"stateMutability":"view"},{"type":"event","name":"AliasAdded","inputs":[{"name":"entityId","type":"bytes32","indexed":true,"internalType":"bytes32"},{"name":"aliasName","type":"string","indexed":false,"internalType":"string"}],"anonymous":false},{"type":"event","name":"AliasRemoved","inputs":[{"name":"entityId","type":"bytes32","indexed":true,"internalType":"bytes32"},{"name":"aliasName","type":"string","indexed":false,"internalType":"string"}],"anonymous":false}],"bytecode":{"object":"0x608060405234801561000f575f80fd5b5061108c8061001d5f395ff3fe608060405234801561000f575f80fd5b506004361061003f575f3560e01c80633f12af1814610043578063461a44781461005f5780638622e8a514610090575b5f80fd5b61005d6004803603810190610058919061066c565b6100ac565b005b610079600480360381019061007491906106c9565b61032f565b60405161008792919061073d565b60405180910390f35b6100aa60048036038101906100a5919061066c565b61039d565b005b600282826040516100be9291906107a0565b90815260200160405180910390205f9054906101000a900460ff16610118576040517f08c379a000000000000000000000000000000000000000000000000000000000815260040161010f90610812565b60405180910390fd5b826001838360405161012b9291906107a0565b9081526020016040518091039020541461017a576040517f08c379a0000000000000000000000000000000000000000000000000000000008152600401610171906108a0565b60405180910390fd5b5f6002838360405161018d9291906107a0565b90815260200160405180910390205f6101000a81548160ff021916908315150217905550600182826040516101c39291906107a0565b90815260200160405180910390205f90555f805f8581526020019081526020015f2090505f818054905090505f5b818110156102ed5784846040516102099291906108ec565b604051809103902083828154811061022457610223610904565b5b905f5260205f20016040516102399190610a20565b6040518091039020036102da576001826102539190610a6c565b81146102a957826001836102679190610a6c565b8154811061027857610277610904565b5b905f5260205f200183828154811061029357610292610904565b5b905f5260205f200190816102a79190610c90565b505b828054806102ba576102b9610d75565b5b600190038181905f5260205f20015f6102d39190610578565b90556102ed565b80806102e590610da2565b9150506101f1565b50847fe4eae085f2a9d2cf14de8d0620be3716a73aa27d1cf566a1535c8ccefe92370c8585604051610320929190610e25565b60405180910390a25050505050565b5f80600284846040516103439291906107a0565b90815260200160405180910390205f9054906101000a900460ff1661036f575f805f1b91509150610396565b60018085856040516103829291906107a0565b908152602001604051809103902054915091505b9250929050565b5f801b83036103e1576040517f08c379a00000000000000000000000000000000000000000000000000000000081526004016103d890610e91565b60405180910390fd5b5f8282905011610426576040517f08c379a000000000000000000000000000000000000000000000000000000000815260040161041d90610ef9565b60405180910390fd5b600282826040516104389291906107a0565b90815260200160405180910390205f9054906101000a900460ff1615610493576040517f08c379a000000000000000000000000000000000000000000000000000000000815260040161048a90610f61565b60405180910390fd5b6001600283836040516104a79291906107a0565b90815260200160405180910390205f6101000a81548160ff02191690831515021790555082600183836040516104de9291906107a0565b9081526020016040518091039020819055505f808481526020019081526020015f20828290918060018154018082558091505060019003905f5260205f20015f909192909192909192909192509182610538929190610f89565b50827fe043971bba7c04302b47756dc000c883eb156a5f113ed02558e879824e7a0429838360405161056b929190610e25565b60405180910390a2505050565b5080546105849061095e565b5f825580601f1061059557506105b2565b601f0160209004905f5260205f20908101906105b191906105b5565b5b50565b5b808211156105cc575f815f9055506001016105b6565b5090565b5f80fd5b5f80fd5b5f819050919050565b6105ea816105d8565b81146105f4575f80fd5b50565b5f81359050610605816105e1565b92915050565b5f80fd5b5f80fd5b5f80fd5b5f8083601f84011261062c5761062b61060b565b5b8235905067ffffffffffffffff8111156106495761064861060f565b5b60208301915083600182028301111561066557610664610613565b5b9250929050565b5f805f60408486031215610683576106826105d0565b5b5f610690868287016105f7565b935050602084013567ffffffffffffffff8111156106b1576106b06105d4565b5b6106bd86828701610617565b92509250509250925092565b5f80602083850312156106df576106de6105d0565b5b5f83013567ffffffffffffffff8111156106fc576106fb6105d4565b5b61070885828601610617565b92509250509250929050565b5f8115159050919050565b61072881610714565b82525050565b610737816105d8565b82525050565b5f6040820190506107505f83018561071f565b61075d602083018461072e565b9392505050565b5f81905092915050565b828183375f83830152505050565b5f6107878385610764565b935061079483858461076e565b82840190509392505050565b5f6107ac82848661077c565b91508190509392505050565b5f82825260208201905092915050565b7f416c696173206e6f7420666f756e6400000000000000000000000000000000005f82015250565b5f6107fc600f836107b8565b9150610807826107c8565b602082019050919050565b5f6020820190508181035f830152610829816107f0565b9050919050565b7f416c69617320646f6573206e6f742062656c6f6e6720746f207468697320656e5f8201527f7469747900000000000000000000000000000000000000000000000000000000602082015250565b5f61088a6024836107b8565b915061089582610830565b604082019050919050565b5f6020820190508181035f8301526108b78161087e565b9050919050565b5f81905092915050565b5f6108d383856108be565b93506108e083858461076e565b82840190509392505050565b5f6108f88284866108c8565b91508190509392505050565b7f4e487b71000000000000000000000000000000000000000000000000000000005f52603260045260245ffd5b7f4e487b71000000000000000000000000000000000000000000000000000000005f52602260045260245ffd5b5f600282049050600182168061097557607f821691505b60208210810361098857610987610931565b5b50919050565b5f819050815f5260205f209050919050565b5f81546109ac8161095e565b6109b681866108be565b9450600182165f81146109d057600181146109e557610a17565b60ff1983168652811515820286019350610a17565b6109ee8561098e565b5f5b83811015610a0f578154818901526001820191506020810190506109f0565b838801955050505b50505092915050565b5f610a2b82846109a0565b915081905092915050565b5f819050919050565b7f4e487b71000000000000000000000000000000000000000000000000000000005f52601160045260245ffd5b5f610a7682610a36565b9150610a8183610a36565b9250828203905081811115610a9957610a98610a3f565b5b92915050565b5f81549050610aad8161095e565b9050919050565b7f4e487b71000000000000000000000000000000000000000000000000000000005f52604160045260245ffd5b5f819050815f5260205f209050919050565b5f819050815f5260205f209050919050565b5f6020601f8301049050919050565b5f82821b905092915050565b5f60088302610b4f7fffffffffffffffffffffffffffffffffffffffffffffffffffffffffffffffff82610b14565b610b598683610b14565b95508019841693508086168417925050509392505050565b5f819050919050565b5f610b94610b8f610b8a84610a36565b610b71565b610a36565b9050919050565b5f819050919050565b610bad83610b7a565b610bc1610bb982610b9b565b848454610b20565b825550505050565b5f90565b610bd5610bc9565b610be0818484610ba4565b505050565b5b81811015610c0357610bf85f82610bcd565b600181019050610be6565b5050565b601f821115610c4857610c1981610ae1565b610c2284610b05565b81016020851015610c31578190505b610c45610c3d85610b05565b830182610be5565b50505b505050565b5f82821c905092915050565b5f610c685f1984600802610c4d565b1980831691505092915050565b5f610c808383610c59565b9150826002028217905092915050565b818103610c9e575050610d73565b610ca782610a9f565b67ffffffffffffffff811115610cc057610cbf610ab4565b5b610cca825461095e565b610cd5828285610c07565b5f601f831160018114610d02575f8415610cf0578287015490505b610cfa8582610c75565b865550610d6c565b601f198416610d1087610af3565b9650610d1b86610ae1565b5f5b82811015610d4257848901548255600182019150600185019450602081019050610d1d565b86831015610d5f5784890154610d5b601f891682610c59565b8355505b6001600288020188555050505b5050505050505b565b7f4e487b71000000000000000000000000000000000000000000000000000000005f52603160045260245ffd5b5f610dac82610a36565b91507fffffffffffffffffffffffffffffffffffffffffffffffffffffffffffffffff8203610dde57610ddd610a3f565b5b600182019050919050565b5f601f19601f8301169050919050565b5f610e0483856107b8565b9350610e1183858461076e565b610e1a83610de9565b840190509392505050565b5f6020820190508181035f830152610e3e818486610df9565b90509392505050565b7f456e746974792049442063616e6e6f74206265207a65726f00000000000000005f82015250565b5f610e7b6018836107b8565b9150610e8682610e47565b602082019050919050565b5f6020820190508181035f830152610ea881610e6f565b9050919050565b7f416c696173206e616d652063616e6e6f7420626520656d7074790000000000005f82015250565b5f610ee3601a836107b8565b9150610eee82610eaf565b602082019050919050565b5f6020820190508181035f830152610f1081610ed7565b9050919050565b7f416c69617320616c72656164792074616b656e000000000000000000000000005f82015250565b5f610f4b6013836107b8565b9150610f5682610f17565b602082019050919050565b5f6020820190508181035f830152610f7881610f3f565b9050919050565b5f82905092915050565b610f938383610f7f565b67ffffffffffffffff811115610fac57610fab610ab4565b5b610fb6825461095e565b610fc1828285610c07565b5f601f831160018114610fee575f8415610fdc578287013590505b610fe68582610c75565b86555061104d565b601f198416610ffc86610ae1565b5f5b8281101561102357848901358255600182019150602085019450602081019050610ffe565b86831015611040578489013561103c601f891682610c59565b8355505b6001600288020188555050505b5050505050505056fea2646970667358221220208cc87bca7f2abf5202d0d191064707fa79a1d28e331c77ddb3c3961bd7f4be64736f6c63430008140033","linkReferences":{}},"methodIdentifiers":{"addAlias(bytes32,string)":"8622e8a5","removeAlias(bytes32,string)":"3f12af18","resolve(string)":"461a4478"},"id":25}