{"abi":[{"type":"function","name":"contentCount","inputs":[],"outputs":[{"name":"count","type":"uint256","internalType":"uint256"}],"stateMutability":"view"},{"type":"function","name":"getMetadata","inputs":[{"name":"cid","type":"bytes32","internalType":"bytes32"}],"outputs":[{"name":"exists","type":"bool","internalType":"bool"},{"name":"name","type":"string","internalType":"string"},{"name":"contentType","type":"string","internalType":"string"},{"name":"size","type":"uint256","internalType":"uint256"},{"name":"pinned","type":"bool","internalType":"bool"}],"stateMutability":"view"},{"type":"function","name":"pin","inputs":[{"name":"cid","type":"bytes32","internalType":"bytes32"}],"outputs":[],"stateMutability":"nonpayable"},{"type":"function","name":"resolve","inputs":[{"name":"cid","type":"bytes32","internalType":"bytes32"}],"outputs":[{"name":"data","type":"bytes","internalType":"bytes"},{"name":"contentType","type":"string","internalType":"string"},{"name":"size","type":"uint256","internalType":"uint256"}],"stateMutability":"view"},{"type":"function","name":"store","inputs":[{"name":"data","type":"bytes","internalType":"bytes"},{"name":"name","type":"string","internalType":"string"},{"name":"contentType","type":"string","internalType":"string"}],"outputs":[{"name":"cid","type":"bytes32","internalType":"bytes32"},{"name":"size","type":"uint256","internalType":"uint256"}],"stateMutability":"nonpayable"},{"type":"function","name":"unpin","inputs":[{"name":"cid","type":"bytes32","internalType":"bytes32"}],"outputs":[],"stateMutability":"nonpayable"},{"type":"event","name":"Pinned","inputs":[{"name":"cid","type":"bytes32","indexed":true,"internalType":"bytes32"}],"anonymous":false},{"type":"event","name":"Stored","inputs":[{"name":"cid","type":"bytes32","indexed":true,"internalType":"bytes32"},{"name":"name","type":"string","indexed":false,"internalType":"string"},{"name":"size","type":"uint256","indexed":false,"internalType":"uint256"}],"anonymous":false},{"type":"event","name":"Unpinned","inputs":[{"name":"cid","type":"bytes32","indexed":true,"internalType":"bytes32"}],"anonymous":false}],"bytecode":{"object":"0x608060405234801561000f575f80fd5b506116058061001d5f395ff3fe608060405234801561000f575f80fd5b5060043610610060575f3560e01c80635c1a2c99146100645780635c23bdf514610080578063a5961b4c146100b2578063cc459696146100e6578063d3930f8514610104578063eb6b005c14610120575b5f80fd5b61007e60048036038101906100799190610a74565b610151565b005b61009a60048036038101906100959190610a74565b61026a565b6040516100a993929190610b93565b60405180910390f35b6100cc60048036038101906100c79190610a74565b61040f565b6040516100dd959493929190610bf0565b60405180910390f35b6100ee6105bc565b6040516100fb9190610c4f565b60405180910390f35b61011e60048036038101906101199190610a74565b6105c8565b005b61013a60048036038101906101359190610d1e565b6106e3565b604051610148929190610ddd565b60405180910390f35b5f808281526020019081526020015f2060040160019054906101000a900460ff166101b1576040517f08c379a00000000000000000000000000000000000000000000000000000000081526004016101a890610e4e565b60405180910390fd5b5f808281526020019081526020015f206004015f9054906101000a900460ff16610210576040517f08c379a000000000000000000000000000000000000000000000000000000000815260040161020790610eb6565b60405180910390fd5b5f805f8381526020019081526020015f206004015f6101000a81548160ff021916908315150217905550807fbbcd3318f8839528e11d466a25ef123f06364c3645e84abfd4e2a4a6aa2e90d060405160405180910390a250565b6060805f805f8581526020019081526020015f2060040160019054906101000a900460ff166102ce576040517f08c379a00000000000000000000000000000000000000000000000000000000081526004016102c590610e4e565b60405180910390fd5b5f805f8681526020019081526020015f209050805f018160020182600301548280546102f990610f01565b80601f016020809104026020016040519081016040528092919081815260200182805461032590610f01565b80156103705780601f1061034757610100808354040283529160200191610370565b820191905f5260205f20905b81548152906001019060200180831161035357829003601f168201915b5050505050925081805461038390610f01565b80601f01602080910402602001604051908101604052809291908181526020018280546103af90610f01565b80156103fa5780601f106103d1576101008083540402835291602001916103fa565b820191905f5260205f20905b8154815290600101906020018083116103dd57829003601f168201915b50505050509150935093509350509193909250565b5f6060805f805f805f8881526020019081526020015f2090508060040160019054906101000a900460ff16610473575f805f60405180602001604052805f815250919060405180602001604052805f815250919095509550955095509550506105b3565b600181600101826002018360030154846004015f9054906101000a900460ff1683805461049f90610f01565b80601f01602080910402602001604051908101604052809291908181526020018280546104cb90610f01565b80156105165780601f106104ed57610100808354040283529160200191610516565b820191905f5260205f20905b8154815290600101906020018083116104f957829003601f168201915b5050505050935082805461052990610f01565b80601f016020809104026020016040519081016040528092919081815260200182805461055590610f01565b80156105a05780601f10610577576101008083540402835291602001916105a0565b820191905f5260205f20905b81548152906001019060200180831161058357829003601f168201915b5050505050925095509550955095509550505b91939590929450565b5f600180549050905090565b5f808281526020019081526020015f2060040160019054906101000a900460ff16610628576040517f08c379a000000000000000000000000000000000000000000000000000000000815260040161061f90610e4e565b60405180910390fd5b5f808281526020019081526020015f206004015f9054906101000a900460ff1615610688576040517f08c379a000000000000000000000000000000000000000000000000000000000815260040161067f90610f7b565b60405180910390fd5b60015f808381526020019081526020015f206004015f6101000a81548160ff021916908315150217905550807f9251034cb3f404a336f019835aec836e03f4e57f3be019018e7d68fd1a45c9a760405160405180910390a250565b5f805f888890501161072a576040517f08c379a000000000000000000000000000000000000000000000000000000000815260040161072190610fe3565b60405180910390fd5b5f868690501161076f576040517f08c379a00000000000000000000000000000000000000000000000000000000081526004016107669061104b565b60405180910390fd5b5f84849050116107b4576040517f08c379a00000000000000000000000000000000000000000000000000000000081526004016107ab906110b3565b60405180910390fd5b87876040516107c492919061110d565b604051809103902091508787905090505f808381526020019081526020015f2060040160019054906101000a900460ff1615610835576040517f08c379a000000000000000000000000000000000000000000000000000000000815260040161082c90611195565b60405180910390fd5b6040518060c0016040528089898080601f0160208091040260200160405190810160405280939291908181526020018383808284375f81840152601f19601f82011690508083019250505050505050815260200187878080601f0160208091040260200160405190810160405280939291908181526020018383808284375f81840152601f19601f82011690508083019250505050505050815260200185858080601f0160208091040260200160405190810160405280939291908181526020018383808284375f81840152601f19601f8201169050808301925050505050505081526020018281526020015f15158152602001600115158152505f808481526020019081526020015f205f820151815f019081610953919061137d565b50602082015181600101908161096991906114a4565b50604082015181600201908161097f91906114a4565b50606082015181600301556080820151816004015f6101000a81548160ff02191690831515021790555060a08201518160040160016101000a81548160ff021916908315150217905550905050600182908060018154018082558091505060019003905f5260205f20015f9091909190915055817fa32b801e0ed8219462254e571bb319842b1adb6fdbe5ff05db0bcfe6a5751c41878784604051610a269392919061159f565b60405180910390a2965096945050505050565b5f80fd5b5f80fd5b5f819050919050565b610a5381610a41565b8114610a5d575f80fd5b50565b5f81359050610a6e81610a4a565b92915050565b5f60208284031215610a8957610a88610a39565b5b5f610a9684828501610a60565b91505092915050565b5f81519050919050565b5f82825260208201905092915050565b5f5b83811015610ad6578082015181840152602081019050610abb565b5f8484015250505050565b5f601f19601f8301169050919050565b5f610afb82610a9f565b610b058185610aa9565b9350610b15818560208601610ab9565b610b1e81610ae1565b840191505092915050565b5f81519050919050565b5f82825260208201905092915050565b5f610b4d82610b29565b610b578185610b33565b9350610b67818560208601610ab9565b610b7081610ae1565b840191505092915050565b5f819050919050565b610b8d81610b7b565b82525050565b5f6060820190508181035f830152610bab8186610af1565b90508181036020830152610bbf8185610b43565b9050610bce6040830184610b84565b949350505050565b5f8115159050919050565b610bea81610bd6565b82525050565b5f60a082019050610c035f830188610be1565b8181036020830152610c158187610b43565b90508181036040830152610c298186610b43565b9050610c386060830185610b84565b610c456080830184610be1565b9695505050505050565b5f602082019050610c625f830184610b84565b92915050565b5f80fd5b5f80fd5b5f80fd5b5f8083601f840112610c8957610c88610c68565b5b8235905067ffffffffffffffff811115610ca657610ca5610c6c565b5b602083019150836001820283011115610cc257610cc1610c70565b5b9250929050565b5f8083601f840112610cde57610cdd610c68565b5b8235905067ffffffffffffffff811115610cfb57610cfa610c6c565b5b602083019150836001820283011115610d1757610d16610c70565b5b9250929050565b5f805f805f8060608789031215610d3857610d37610a39565b5b5f87013567ffffffffffffffff811115610d5557610d54610a3d565b5b610d6189828a01610c74565b9650965050602087013567ffffffffffffffff811115610d8457610d83610a3d565b5b610d9089828a01610cc9565b9450945050604087013567ffffffffffffffff811115610db357610db2610a3d565b5b610dbf89828a01610cc9565b92509250509295509295509295565b610dd781610a41565b82525050565b5f604082019050610df05f830185610dce565b610dfd6020830184610b84565b9392505050565b7f436f6e74656e74206e6f7420666f756e640000000000000000000000000000005f82015250565b5f610e38601183610b33565b9150610e4382610e04565b602082019050919050565b5f6020820190508181035f830152610e6581610e2c565b9050919050565b7f436f6e74656e74206e6f742070696e6e656400000000000000000000000000005f82015250565b5f610ea0601283610b33565b9150610eab82610e6c565b602082019050919050565b5f6020820190508181035f830152610ecd81610e94565b9050919050565b7f4e487b71000000000000000000000000000000000000000000000000000000005f52602260045260245ffd5b5f6002820490506001821680610f1857607f821691505b602082108103610f2b57610f2a610ed4565b5b50919050565b7f436f6e74656e7420616c72656164792070696e6e6564000000000000000000005f82015250565b5f610f65601683610b33565b9150610f7082610f31565b602082019050919050565b5f6020820190508181035f830152610f9281610f59565b9050919050565b7f446174612063616e6e6f7420626520656d7074790000000000000000000000005f82015250565b5f610fcd601483610b33565b9150610fd882610f99565b602082019050919050565b5f6020820190508181035f830152610ffa81610fc1565b9050919050565b7f4e616d652063616e6e6f7420626520656d7074790000000000000000000000005f82015250565b5f611035601483610b33565b915061104082611001565b602082019050919050565b5f6020820190508181035f83015261106281611029565b9050919050565b7f436f6e74656e7420747970652063616e6e6f7420626520656d707479000000005f82015250565b5f61109d601c83610b33565b91506110a882611069565b602082019050919050565b5f6020820190508181035f8301526110ca81611091565b9050919050565b5f81905092915050565b828183375f83830152505050565b5f6110f483856110d1565b93506111018385846110db565b82840190509392505050565b5f6111198284866110e9565b91508190509392505050565b7f436f6e74656e74207769746820746869732043494420616c72656164792065785f8201527f6973747300000000000000000000000000000000000000000000000000000000602082015250565b5f61117f602483610b33565b915061118a82611125565b604082019050919050565b5f6020820190508181035f8301526111ac81611173565b9050919050565b7f4e487b71000000000000000000000000000000000000000000000000000000005f52604160045260245ffd5b5f819050815f5260205f209050919050565b5f6020601f8301049050919050565b5f82821b905092915050565b5f6008830261123c7fffffffffffffffffffffffffffffffffffffffffffffffffffffffffffffffff82611201565b6112468683611201565b95508019841693508086168417925050509392505050565b5f819050919050565b5f61128161127c61127784610b7b565b61125e565b610b7b565b9050919050565b5f819050919050565b61129a83611267565b6112ae6112a682611288565b84845461120d565b825550505050565b5f90565b6112c26112b6565b6112cd818484611291565b505050565b5b818110156112f0576112e55f826112ba565b6001810190506112d3565b5050565b601f82111561133557611306816111e0565b61130f846111f2565b8101602085101561131e578190505b61133261132a856111f2565b8301826112d2565b50505b505050565b5f82821c905092915050565b5f6113555f198460080261133a565b1980831691505092915050565b5f61136d8383611346565b9150826002028217905092915050565b61138682610a9f565b67ffffffffffffffff81111561139f5761139e6111b3565b5b6113a98254610f01565b6113b48282856112f4565b5f60209050601f8311600181146113e5575f84156113d3578287015190505b6113dd8582611362565b865550611444565b601f1984166113f3866111e0565b5f5b8281101561141a578489015182556001820191506020850194506020810190506113f5565b868310156114375784890151611433601f891682611346565b8355505b6001600288020188555050505b505050505050565b5f819050815f5260205f209050919050565b601f82111561149f576114708161144c565b611479846111f2565b81016020851015611488578190505b61149c611494856111f2565b8301826112d2565b50505b505050565b6114ad82610b29565b67ffffffffffffffff8111156114c6576114c56111b3565b5b6114d08254610f01565b6114db82828561145e565b5f60209050601f83116001811461150c575f84156114fa578287015190505b6115048582611362565b86555061156b565b601f19841661151a8661144c565b5f5b828110156115415784890151825560018201915060208501945060208101905061151c565b8683101561155e578489015161155a601f891682611346565b8355505b6001600288020188555050505b505050505050565b5f61157e8385610b33565b935061158b8385846110db565b61159483610ae1565b840190509392505050565b5f6040820190508181035f8301526115b8818587611573565b90506115c76020830184610b84565b94935050505056fea26469706673582212201a6d1a45a4d26eee29aacc65fb431bd00b087d2c19fd4b2637ddc72f84c14b7f64736f6c63430008140033","linkReferences":{}},"methodIdentifiers":{"contentCount()":"cc459696","getMetadata(bytes32)":"a5961b4c","pin(bytes32)":"d3930f85","resolve(bytes32)":"5c23bdf5","store(bytes,string,string)":"eb6b005c","unpin(bytes32)":"5c1a2c99"},"id":336}