{"abi":[{"type":"function","name":"compose","inputs":[{"name":"kit","type":"string","internalType":"string"},{"name":"target","type":"string","internalType":"string"},{"name":"outputs","type":"string[]","internalType":"string[]"}],"outputs":[{"name":"","type":"tuple","internalType":"struct ApiSurface.ComposeOkResult","components":[{"name":"success","type":"bool","internalType":"bool"},{"name":"surface","type":"bytes32","internalType":"bytes32"},{"name":"entrypoint","type":"string","internalType":"string"},{"name":"conceptCount","type":"int256","internalType":"int256"}]}],"stateMutability":"nonpayable"},{"type":"function","name":"entrypoint","inputs":[{"name":"surface","type":"bytes32","internalType":"bytes32"}],"outputs":[{"name":"","type":"tuple","internalType":"struct ApiSurface.EntrypointOkResult","components":[{"name":"success","type":"bool","internalType":"bool"},{"name":"content","type":"string","internalType":"string"}]}],"stateMutability":"nonpayable"},{"type":"event","name":"ComposeCompleted","inputs":[{"name":"variant","type":"string","indexed":false,"internalType":"string"},{"name":"surface","type":"bytes32","indexed":false,"internalType":"bytes32"},{"name":"conceptCount","type":"int256","indexed":false,"internalType":"int256"},{"name":"conflicts","type":"string[]","indexed":false,"internalType":"string[]"},{"name":"cycle","type":"string[]","indexed":false,"internalType":"string[]"}],"anonymous":false},{"type":"event","name":"EntrypointCompleted","inputs":[{"name":"variant","type":"string","indexed":false,"internalType":"string"}],"anonymous":false}],"bytecode":{"object":"0x608060405234801561000f575f80fd5b5061141e8061001d5f395ff3fe608060405234801561000f575f80fd5b5060043610610034575f3560e01c80630588a0701461003857806307b2360f14610068575b5f80fd5b610052600480360381019061004d9190610732565b610098565b60405161005f919061083b565b60405180910390f35b610082600480360381019061007d9190610a69565b6101ec565b60405161008f9190610b94565b60405180910390f35b6100a06105d7565b5f808381526020019081526020015f206005015f9054906101000a900460ff166100ff576040517f08c379a00000000000000000000000000000000000000000000000000000000081526004016100f690610c0e565b60405180910390fd5b7fa719f0d8dd641056dc529853cef352edaf0acbf5b194ff26ea2406940b65066760405161012c90610c76565b60405180910390a160405180604001604052806001151581526020015f808581526020019081526020015f20600301805461016690610cc1565b80601f016020809104026020016040519081016040528092919081815260200182805461019290610cc1565b80156101dd5780601f106101b4576101008083540402835291602001916101dd565b820191905f5260205f20905b8154815290600101906020018083116101c057829003601f168201915b50505050508152509050919050565b6101f46105f2565b5f845111610237576040517f08c379a000000000000000000000000000000000000000000000000000000000815260040161022e90610d3b565b60405180910390fd5b5f83511161027a576040517f08c379a000000000000000000000000000000000000000000000000000000000815260040161027190610da3565b60405180910390fd5b5f8251116102bd576040517f08c379a00000000000000000000000000000000000000000000000000000000081526004016102b490610e0b565b60405180910390fd5b5f84844260025f8154809291906102d390610e5f565b919050556040516020016102ea9493929190610f00565b6040516020818303038152906040528051906020012090505f8585604051602001610316929190610fd9565b60405160208183030381529060405290505f845167ffffffffffffffff81111561034357610342610863565b5b60405190808252806020026020018201604052801561037657816020015b60608152602001906001900390816103615790505b5090505f5b85518110156103d05785818151811061039757610396611012565b5b60200260200101518282815181106103b2576103b1611012565b5b602002602001018190525080806103c890610e5f565b91505061037b565b506040518060c00160405280888152602001878152602001828152602001838152602001428152602001600115158152505f808581526020019081526020015f205f820151815f01908161042491906111dc565b50602082015181600101908161043a91906111dc565b50604082015181600201908051906020019061045792919061061c565b50606082015181600301908161046d91906111dc565b506080820151816004015560a0820151816005015f6101000a81548160ff021916908315150217905550905050600183908060018154018082558091505060019003905f5260205f20015f90919091909150555f855190505f8067ffffffffffffffff8111156104e0576104df610863565b5b60405190808252806020026020018201604052801561051357816020015b60608152602001906001900390816104fe5790505b5090505f8067ffffffffffffffff81111561053157610530610863565b5b60405190808252806020026020018201604052801561056457816020015b606081526020019060019003908161054f5790505b5090507f0e7a1aaac1e2f742971c031162b96e8e9835a38cdeb0b8bd862df46838f2311d8684848460405161059c9493929190611384565b60405180910390a160405180608001604052806001151581526020018781526020018681526020018481525096505050505050509392505050565b60405180604001604052805f15158152602001606081525090565b60405180608001604052805f151581526020015f8019168152602001606081526020015f81525090565b828054828255905f5260205f20908101928215610662579160200282015b8281111561066157825182908161065191906111dc565b509160200191906001019061063a565b5b50905061066f9190610673565b5090565b5b80821115610692575f81816106899190610696565b50600101610674565b5090565b5080546106a290610cc1565b5f825580601f106106b357506106d0565b601f0160209004905f5260205f20908101906106cf91906106d3565b5b50565b5b808211156106ea575f815f9055506001016106d4565b5090565b5f604051905090565b5f80fd5b5f80fd5b5f819050919050565b610711816106ff565b811461071b575f80fd5b50565b5f8135905061072c81610708565b92915050565b5f60208284031215610747576107466106f7565b5b5f6107548482850161071e565b91505092915050565b5f8115159050919050565b6107718161075d565b82525050565b5f81519050919050565b5f82825260208201905092915050565b5f5b838110156107ae578082015181840152602081019050610793565b5f8484015250505050565b5f601f19601f8301169050919050565b5f6107d382610777565b6107dd8185610781565b93506107ed818560208601610791565b6107f6816107b9565b840191505092915050565b5f604083015f8301516108165f860182610768565b506020830151848203602086015261082e82826107c9565b9150508091505092915050565b5f6020820190508181035f8301526108538184610801565b905092915050565b5f80fd5b5f80fd5b7f4e487b71000000000000000000000000000000000000000000000000000000005f52604160045260245ffd5b610899826107b9565b810181811067ffffffffffffffff821117156108b8576108b7610863565b5b80604052505050565b5f6108ca6106ee565b90506108d68282610890565b919050565b5f67ffffffffffffffff8211156108f5576108f4610863565b5b6108fe826107b9565b9050602081019050919050565b828183375f83830152505050565b5f61092b610926846108db565b6108c1565b9050828152602081018484840111156109475761094661085f565b5b61095284828561090b565b509392505050565b5f82601f83011261096e5761096d61085b565b5b813561097e848260208601610919565b91505092915050565b5f67ffffffffffffffff8211156109a1576109a0610863565b5b602082029050602081019050919050565b5f80fd5b5f6109c86109c384610987565b6108c1565b905080838252602082019050602084028301858111156109eb576109ea6109b2565b5b835b81811015610a3257803567ffffffffffffffff811115610a1057610a0f61085b565b5b808601610a1d898261095a565b855260208501945050506020810190506109ed565b5050509392505050565b5f82601f830112610a5057610a4f61085b565b5b8135610a608482602086016109b6565b91505092915050565b5f805f60608486031215610a8057610a7f6106f7565b5b5f84013567ffffffffffffffff811115610a9d57610a9c6106fb565b5b610aa98682870161095a565b935050602084013567ffffffffffffffff811115610aca57610ac96106fb565b5b610ad68682870161095a565b925050604084013567ffffffffffffffff811115610af757610af66106fb565b5b610b0386828701610a3c565b9150509250925092565b610b16816106ff565b82525050565b5f819050919050565b610b2e81610b1c565b82525050565b5f608083015f830151610b495f860182610768565b506020830151610b5c6020860182610b0d565b5060408301518482036040860152610b7482826107c9565b9150506060830151610b896060860182610b25565b508091505092915050565b5f6020820190508181035f830152610bac8184610b34565b905092915050565b5f82825260208201905092915050565b7f5375726661636520646f6573206e6f74206578697374000000000000000000005f82015250565b5f610bf8601683610bb4565b9150610c0382610bc4565b602082019050919050565b5f6020820190508181035f830152610c2581610bec565b9050919050565b7f6f6b0000000000000000000000000000000000000000000000000000000000005f82015250565b5f610c60600283610bb4565b9150610c6b82610c2c565b602082019050919050565b5f6020820190508181035f830152610c8d81610c54565b9050919050565b7f4e487b71000000000000000000000000000000000000000000000000000000005f52602260045260245ffd5b5f6002820490506001821680610cd857607f821691505b602082108103610ceb57610cea610c94565b5b50919050565b7f4b6974206d757374206e6f7420626520656d70747900000000000000000000005f82015250565b5f610d25601583610bb4565b9150610d3082610cf1565b602082019050919050565b5f6020820190508181035f830152610d5281610d19565b9050919050565b7f546172676574206d757374206e6f7420626520656d70747900000000000000005f82015250565b5f610d8d601883610bb4565b9150610d9882610d59565b602082019050919050565b5f6020820190508181035f830152610dba81610d81565b9050919050565b7f4f757470757473206d757374206e6f7420626520656d707479000000000000005f82015250565b5f610df5601983610bb4565b9150610e0082610dc1565b602082019050919050565b5f6020820190508181035f830152610e2281610de9565b9050919050565b7f4e487b71000000000000000000000000000000000000000000000000000000005f52601160045260245ffd5b5f819050919050565b5f610e6982610e56565b91507fffffffffffffffffffffffffffffffffffffffffffffffffffffffffffffffff8203610e9b57610e9a610e29565b5b600182019050919050565b5f81905092915050565b5f610eba82610777565b610ec48185610ea6565b9350610ed4818560208601610791565b80840191505092915050565b5f819050919050565b610efa610ef582610e56565b610ee0565b82525050565b5f610f0b8287610eb0565b9150610f178286610eb0565b9150610f238285610ee9565b602082019150610f338284610ee9565b60208201915081905095945050505050565b7f2f2f20456e747279706f696e7420666f722000000000000000000000000000005f82015250565b5f610f79601283610ea6565b9150610f8482610f45565b601282019050919050565b7f202d3e20000000000000000000000000000000000000000000000000000000005f82015250565b5f610fc3600483610ea6565b9150610fce82610f8f565b600482019050919050565b5f610fe382610f6d565b9150610fef8285610eb0565b9150610ffa82610fb7565b91506110068284610eb0565b91508190509392505050565b7f4e487b71000000000000000000000000000000000000000000000000000000005f52603260045260245ffd5b5f819050815f5260205f209050919050565b5f6020601f8301049050919050565b5f82821b905092915050565b5f6008830261109b7fffffffffffffffffffffffffffffffffffffffffffffffffffffffffffffffff82611060565b6110a58683611060565b95508019841693508086168417925050509392505050565b5f819050919050565b5f6110e06110db6110d684610e56565b6110bd565b610e56565b9050919050565b5f819050919050565b6110f9836110c6565b61110d611105826110e7565b84845461106c565b825550505050565b5f90565b611121611115565b61112c8184846110f0565b505050565b5b8181101561114f576111445f82611119565b600181019050611132565b5050565b601f821115611194576111658161103f565b61116e84611051565b8101602085101561117d578190505b61119161118985611051565b830182611131565b50505b505050565b5f82821c905092915050565b5f6111b45f1984600802611199565b1980831691505092915050565b5f6111cc83836111a5565b9150826002028217905092915050565b6111e582610777565b67ffffffffffffffff8111156111fe576111fd610863565b5b6112088254610cc1565b611213828285611153565b5f60209050601f831160018114611244575f8415611232578287015190505b61123c85826111c1565b8655506112a3565b601f1984166112528661103f565b5f5b8281101561127957848901518255600182019150602085019450602081019050611254565b868310156112965784890151611292601f8916826111a5565b8355505b6001600288020188555050505b505050505050565b6112b4816106ff565b82525050565b6112c381610b1c565b82525050565b5f81519050919050565b5f82825260208201905092915050565b5f819050602082019050919050565b5f6112fd83836107c9565b905092915050565b5f602082019050919050565b5f61131b826112c9565b61132581856112d3565b935083602082028501611337856112e3565b805f5b85811015611372578484038952815161135385826112f2565b945061135e83611305565b925060208a0199505060018101905061133a565b50829750879550505050505092915050565b5f60a0820190508181035f83015261139b81610c54565b90506113aa60208301876112ab565b6113b760408301866112ba565b81810360608301526113c98185611311565b905081810360808301526113dd8184611311565b90509594505050505056fea26469706673582212209b777995cef3f8892085c793fa41a41465a2efbba85f4ae2d252c6778be8438464736f6c63430008140033","linkReferences":{}},"methodIdentifiers":{"compose(string,string,string[])":"07b2360f","entrypoint(bytes32)":"0588a070"},"id":29}