{"abi":[{"type":"function","name":"compute","inputs":[{"name":"scopeRef","type":"string","internalType":"string"}],"outputs":[{"name":"","type":"tuple","internalType":"struct DependenceGraph.ComputeOkResult","components":[{"name":"success","type":"bool","internalType":"bool"},{"name":"graph","type":"bytes32","internalType":"bytes32"}]}],"stateMutability":"nonpayable"},{"type":"function","name":"get","inputs":[{"name":"graph","type":"bytes32","internalType":"bytes32"}],"outputs":[{"name":"","type":"tuple","internalType":"struct DependenceGraph.GetOkResult","components":[{"name":"success","type":"bool","internalType":"bool"},{"name":"graph","type":"bytes32","internalType":"bytes32"},{"name":"scope","type":"string","internalType":"string"},{"name":"nodeCount","type":"int256","internalType":"int256"},{"name":"edgeCount","type":"int256","internalType":"int256"}]}],"stateMutability":"nonpayable"},{"type":"function","name":"impactAnalysis","inputs":[{"name":"changed","type":"string","internalType":"string"}],"outputs":[{"name":"","type":"tuple","internalType":"struct DependenceGraph.ImpactAnalysisOkResult","components":[{"name":"success","type":"bool","internalType":"bool"},{"name":"affected","type":"string","internalType":"string"},{"name":"paths","type":"string","internalType":"string"}]}],"stateMutability":"nonpayable"},{"type":"function","name":"queryDependencies","inputs":[{"name":"symbol","type":"string","internalType":"string"},{"name":"edgeKinds","type":"string","internalType":"string"}],"outputs":[{"name":"","type":"tuple","internalType":"struct DependenceGraph.QueryDependenciesOkResult","components":[{"name":"success","type":"bool","internalType":"bool"},{"name":"dependencies","type":"string","internalType":"string"}]}],"stateMutability":"nonpayable"},{"type":"function","name":"queryDependents","inputs":[{"name":"symbol","type":"string","internalType":"string"},{"name":"edgeKinds","type":"string","internalType":"string"}],"outputs":[{"name":"","type":"tuple","internalType":"struct DependenceGraph.QueryDependentsOkResult","components":[{"name":"success","type":"bool","internalType":"bool"},{"name":"dependents","type":"string","internalType":"string"}]}],"stateMutability":"nonpayable"},{"type":"function","name":"sliceBackward","inputs":[{"name":"criterion","type":"string","internalType":"string"}],"outputs":[{"name":"","type":"tuple","internalType":"struct DependenceGraph.SliceBackwardOkResult","components":[{"name":"success","type":"bool","internalType":"bool"},{"name":"slice","type":"string","internalType":"string"},{"name":"edges","type":"string","internalType":"string"}]}],"stateMutability":"nonpayable"},{"type":"function","name":"sliceForward","inputs":[{"name":"criterion","type":"string","internalType":"string"}],"outputs":[{"name":"","type":"tuple","internalType":"struct DependenceGraph.SliceForwardOkResult","components":[{"name":"success","type":"bool","internalType":"bool"},{"name":"slice","type":"string","internalType":"string"},{"name":"edges","type":"string","internalType":"string"}]}],"stateMutability":"nonpayable"},{"type":"event","name":"ComputeCompleted","inputs":[{"name":"variant","type":"string","indexed":false,"internalType":"string"},{"name":"graph","type":"bytes32","indexed":false,"internalType":"bytes32"}],"anonymous":false},{"type":"event","name":"GetCompleted","inputs":[{"name":"variant","type":"string","indexed":false,"internalType":"string"},{"name":"graph","type":"bytes32","indexed":false,"internalType":"bytes32"},{"name":"nodeCount","type":"int256","indexed":false,"internalType":"int256"},{"name":"edgeCount","type":"int256","indexed":false,"internalType":"int256"}],"anonymous":false},{"type":"event","name":"ImpactAnalysisCompleted","inputs":[{"name":"variant","type":"string","indexed":false,"internalType":"string"}],"anonymous":false},{"type":"event","name":"QueryDependenciesCompleted","inputs":[{"name":"variant","type":"string","indexed":false,"internalType":"string"}],"anonymous":false},{"type":"event","name":"QueryDependentsCompleted","inputs":[{"name":"variant","type":"string","indexed":false,"internalType":"string"}],"anonymous":false},{"type":"event","name":"SliceBackwardCompleted","inputs":[{"name":"variant","type":"string","indexed":false,"internalType":"string"}],"anonymous":false},{"type":"event","name":"SliceForwardCompleted","inputs":[{"name":"variant","type":"string","indexed":false,"internalType":"string"}],"anonymous":false}],"bytecode":{"object":"0x608060405234801561000f575f80fd5b506119ea8061001d5f395ff3fe608060405234801561000f575f80fd5b506004361061007b575f3560e01c8063bcdfd0bb11610059578063bcdfd0bb1461010f578063cad46d841461013f578063d0249aa61461016f578063d0ca40351461019f5761007b565b80638eaa6ac01461007f57806390113d3c146100af5780639e57a390146100df575b5f80fd5b61009960048036038101906100949190610c91565b6101cf565b6040516100a69190610dfa565b60405180910390f35b6100c960048036038101906100c49190610f46565b61034f565b6040516100d69190610fe1565b60405180910390f35b6100f960048036038101906100f49190610f46565b6104a9565b604051610106919061102e565b60405180910390f35b61012960048036038101906101249190611047565b610622565b60405161013691906110f7565b60405180910390f35b61015960048036038101906101549190611047565b610769565b6040516101669190611151565b60405180910390f35b61018960048036038101906101849190610f46565b6108b0565b60405161019691906111c5565b60405180910390f35b6101b960048036038101906101b49190610f46565b610a0a565b6040516101c69190611239565b60405180910390f35b6101d7610b64565b5f808381526020019081526020015f206003015f9054906101000a900460ff16610236576040517f08c379a000000000000000000000000000000000000000000000000000000000815260040161022d906112b3565b60405180910390fd5b5f805f8481526020019081526020015f2090507f354b8a609d2969833a5a12b6b453ee78f2268600b371291884e569b334090dcb838260010154836002015460405161028493929190611339565b60405180910390a16040518060a00160405280600115158152602001848152602001825f0180546102b4906113ae565b80601f01602080910402602001604051908101604052809291908181526020018280546102e0906113ae565b801561032b5780601f106103025761010080835404028352916020019161032b565b820191905f5260205f20905b81548152906001019060200180831161030e57829003601f168201915b50505050508152602001826001015481526020018260020154815250915050919050565b610357610b94565b5f82511161039a576040517f08c379a000000000000000000000000000000000000000000000000000000000815260040161039190611428565b60405180910390fd5b5f801b600454036103e0576040517f08c379a00000000000000000000000000000000000000000000000000000000081526004016103d790611490565b60405180910390fd5b5f8060045481526020019081526020015f206003015f9054906101000a900460ff16610441576040517f08c379a0000000000000000000000000000000000000000000000000000000008152600401610438906114f8565b60405180910390fd5b7fa0b46e1f85df43e74c7da3b5201a3845ff69303b6c8715f52539f972eb3e221760405161046e90611516565b60405180910390a1604051806060016040528060011515815260200183815260200160405180602001604052805f8152508152509050919050565b6104b1610bb6565b5f8251116104f4576040517f08c379a00000000000000000000000000000000000000000000000000000000081526004016104eb906115a4565b60405180910390fd5b5f8242604051602001610508929190611625565b60405160208183030381529060405280519060200120905060405180608001604052808481526020015f81526020015f8152602001600115158152505f808381526020019081526020015f205f820151815f01908161056791906117e9565b5060208201518160010155604082015181600201556060820151816003015f6101000a81548160ff021916908315150217905550905050600181908060018154018082558091505060019003905f5260205f20015f9091909190915055806004819055507fb2780fe19a53d270ce611e3f27883713bfc3b47789c2231190ee5bbbfff3a287816040516105fa91906118b8565b60405180910390a1604051806040016040528060011515815260200182815250915050919050565b61062a610bd3565b5f83511161066d576040517f08c379a00000000000000000000000000000000000000000000000000000000081526004016106649061192e565b60405180910390fd5b5f801b600454036106b3576040517f08c379a00000000000000000000000000000000000000000000000000000000081526004016106aa90611490565b60405180910390fd5b5f8060045481526020019081526020015f206003015f9054906101000a900460ff16610714576040517f08c379a000000000000000000000000000000000000000000000000000000000815260040161070b906114f8565b60405180910390fd5b7f82bb8214239b27d618dab3e3cdc5ab660969b374120ca16d35985833a35c12ae60405161074190611516565b60405180910390a1604051806040016040528060011515815260200184815250905092915050565b610771610bee565b5f8351116107b4576040517f08c379a00000000000000000000000000000000000000000000000000000000081526004016107ab9061192e565b60405180910390fd5b5f801b600454036107fa576040517f08c379a00000000000000000000000000000000000000000000000000000000081526004016107f190611490565b60405180910390fd5b5f8060045481526020019081526020015f206003015f9054906101000a900460ff1661085b576040517f08c379a0000000000000000000000000000000000000000000000000000000008152600401610852906114f8565b60405180910390fd5b7f932c558936ac6a72309b270c1e61bd433fd97479e460e608a212d3f111197f6260405161088890611516565b60405180910390a1604051806040016040528060011515815260200184815250905092915050565b6108b8610c09565b5f8251116108fb576040517f08c379a00000000000000000000000000000000000000000000000000000000081526004016108f290611996565b60405180910390fd5b5f801b60045403610941576040517f08c379a000000000000000000000000000000000000000000000000000000000815260040161093890611490565b60405180910390fd5b5f8060045481526020019081526020015f206003015f9054906101000a900460ff166109a2576040517f08c379a0000000000000000000000000000000000000000000000000000000008152600401610999906114f8565b60405180910390fd5b7f04e630084a842cd2957e2f4e054d204e2d9ad1684341539407e0f029a89610c56040516109cf90611516565b60405180910390a1604051806060016040528060011515815260200183815260200160405180602001604052805f8152508152509050919050565b610a12610c2b565b5f825111610a55576040517f08c379a0000000000000000000000000000000000000000000000000000000008152600401610a4c90611996565b60405180910390fd5b5f801b60045403610a9b576040517f08c379a0000000000000000000000000000000000000000000000000000000008152600401610a9290611490565b60405180910390fd5b5f8060045481526020019081526020015f206003015f9054906101000a900460ff16610afc576040517f08c379a0000000000000000000000000000000000000000000000000000000008152600401610af3906114f8565b60405180910390fd5b7f7bf5b4216a4cd65db538a9dfe04185e8c706d673e323dc472a2169da44301ee6604051610b2990611516565b60405180910390a1604051806060016040528060011515815260200183815260200160405180602001604052805f8152508152509050919050565b6040518060a001604052805f151581526020015f8019168152602001606081526020015f81526020015f81525090565b60405180606001604052805f1515815260200160608152602001606081525090565b60405180604001604052805f151581526020015f80191681525090565b60405180604001604052805f15158152602001606081525090565b60405180604001604052805f15158152602001606081525090565b60405180606001604052805f1515815260200160608152602001606081525090565b60405180606001604052805f1515815260200160608152602001606081525090565b5f604051905090565b5f80fd5b5f80fd5b5f819050919050565b610c7081610c5e565b8114610c7a575f80fd5b50565b5f81359050610c8b81610c67565b92915050565b5f60208284031215610ca657610ca5610c56565b5b5f610cb384828501610c7d565b91505092915050565b5f8115159050919050565b610cd081610cbc565b82525050565b610cdf81610c5e565b82525050565b5f81519050919050565b5f82825260208201905092915050565b5f5b83811015610d1c578082015181840152602081019050610d01565b5f8484015250505050565b5f601f19601f8301169050919050565b5f610d4182610ce5565b610d4b8185610cef565b9350610d5b818560208601610cff565b610d6481610d27565b840191505092915050565b5f819050919050565b610d8181610d6f565b82525050565b5f60a083015f830151610d9c5f860182610cc7565b506020830151610daf6020860182610cd6565b5060408301518482036040860152610dc78282610d37565b9150506060830151610ddc6060860182610d78565b506080830151610def6080860182610d78565b508091505092915050565b5f6020820190508181035f830152610e128184610d87565b905092915050565b5f80fd5b5f80fd5b7f4e487b71000000000000000000000000000000000000000000000000000000005f52604160045260245ffd5b610e5882610d27565b810181811067ffffffffffffffff82111715610e7757610e76610e22565b5b80604052505050565b5f610e89610c4d565b9050610e958282610e4f565b919050565b5f67ffffffffffffffff821115610eb457610eb3610e22565b5b610ebd82610d27565b9050602081019050919050565b828183375f83830152505050565b5f610eea610ee584610e9a565b610e80565b905082815260208101848484011115610f0657610f05610e1e565b5b610f11848285610eca565b509392505050565b5f82601f830112610f2d57610f2c610e1a565b5b8135610f3d848260208601610ed8565b91505092915050565b5f60208284031215610f5b57610f5a610c56565b5b5f82013567ffffffffffffffff811115610f7857610f77610c5a565b5b610f8484828501610f19565b91505092915050565b5f606083015f830151610fa25f860182610cc7565b5060208301518482036020860152610fba8282610d37565b91505060408301518482036040860152610fd48282610d37565b9150508091505092915050565b5f6020820190508181035f830152610ff98184610f8d565b905092915050565b604082015f8201516110155f850182610cc7565b5060208201516110286020850182610cd6565b50505050565b5f6040820190506110415f830184611001565b92915050565b5f806040838503121561105d5761105c610c56565b5b5f83013567ffffffffffffffff81111561107a57611079610c5a565b5b61108685828601610f19565b925050602083013567ffffffffffffffff8111156110a7576110a6610c5a565b5b6110b385828601610f19565b9150509250929050565b5f604083015f8301516110d25f860182610cc7565b50602083015184820360208601526110ea8282610d37565b9150508091505092915050565b5f6020820190508181035f83015261110f81846110bd565b905092915050565b5f604083015f83015161112c5f860182610cc7565b50602083015184820360208601526111448282610d37565b9150508091505092915050565b5f6020820190508181035f8301526111698184611117565b905092915050565b5f606083015f8301516111865f860182610cc7565b506020830151848203602086015261119e8282610d37565b915050604083015184820360408601526111b88282610d37565b9150508091505092915050565b5f6020820190508181035f8301526111dd8184611171565b905092915050565b5f606083015f8301516111fa5f860182610cc7565b50602083015184820360208601526112128282610d37565b9150506040830151848203604086015261122c8282610d37565b9150508091505092915050565b5f6020820190508181035f83015261125181846111e5565b905092915050565b5f82825260208201905092915050565b7f4772617068206e6f7420666f756e6400000000000000000000000000000000005f82015250565b5f61129d600f83611259565b91506112a882611269565b602082019050919050565b5f6020820190508181035f8301526112ca81611291565b9050919050565b7f6f6b0000000000000000000000000000000000000000000000000000000000005f82015250565b5f611305600283611259565b9150611310826112d1565b602082019050919050565b61132481610c5e565b82525050565b61133381610d6f565b82525050565b5f6080820190508181035f830152611350816112f9565b905061135f602083018661131b565b61136c604083018561132a565b611379606083018461132a565b949350505050565b7f4e487b71000000000000000000000000000000000000000000000000000000005f52602260045260245ffd5b5f60028204905060018216806113c557607f821691505b6020821081036113d8576113d7611381565b5b50919050565b7f4368616e6765642073796d626f6c206d757374206e6f7420626520656d7074795f82015250565b5f611412602083611259565b915061141d826113de565b602082019050919050565b5f6020820190508181035f83015261143f81611406565b9050919050565b7f4e6f2061637469766520677261706800000000000000000000000000000000005f82015250565b5f61147a600f83611259565b915061148582611446565b602082019050919050565b5f6020820190508181035f8301526114a78161146e565b9050919050565b7f416374697665206772617068206e6f7420666f756e64000000000000000000005f82015250565b5f6114e2601683611259565b91506114ed826114ae565b602082019050919050565b5f6020820190508181035f83015261150f816114d6565b9050919050565b5f6020820190508181035f83015261152d816112f9565b9050919050565b7f53636f7065207265666572656e6365206d757374206e6f7420626520656d70745f8201527f7900000000000000000000000000000000000000000000000000000000000000602082015250565b5f61158e602183611259565b915061159982611534565b604082019050919050565b5f6020820190508181035f8301526115bb81611582565b9050919050565b5f81905092915050565b5f6115d682610ce5565b6115e081856115c2565b93506115f0818560208601610cff565b80840191505092915050565b5f819050919050565b5f819050919050565b61161f61161a826115fc565b611605565b82525050565b5f61163082856115cc565b915061163c828461160e565b6020820191508190509392505050565b5f819050815f5260205f209050919050565b5f6020601f8301049050919050565b5f82821b905092915050565b5f600883026116a87fffffffffffffffffffffffffffffffffffffffffffffffffffffffffffffffff8261166d565b6116b2868361166d565b95508019841693508086168417925050509392505050565b5f819050919050565b5f6116ed6116e86116e3846115fc565b6116ca565b6115fc565b9050919050565b5f819050919050565b611706836116d3565b61171a611712826116f4565b848454611679565b825550505050565b5f90565b61172e611722565b6117398184846116fd565b505050565b5b8181101561175c576117515f82611726565b60018101905061173f565b5050565b601f8211156117a1576117728161164c565b61177b8461165e565b8101602085101561178a578190505b61179e6117968561165e565b83018261173e565b50505b505050565b5f82821c905092915050565b5f6117c15f19846008026117a6565b1980831691505092915050565b5f6117d983836117b2565b9150826002028217905092915050565b6117f282610ce5565b67ffffffffffffffff81111561180b5761180a610e22565b5b61181582546113ae565b611820828285611760565b5f60209050601f831160018114611851575f841561183f578287015190505b61184985826117ce565b8655506118b0565b601f19841661185f8661164c565b5f5b8281101561188657848901518255600182019150602085019450602081019050611861565b868310156118a3578489015161189f601f8916826117b2565b8355505b6001600288020188555050505b505050505050565b5f6040820190508181035f8301526118cf816112f9565b90506118de602083018461131b565b92915050565b7f53796d626f6c206d757374206e6f7420626520656d70747900000000000000005f82015250565b5f611918601883611259565b9150611923826118e4565b602082019050919050565b5f6020820190508181035f8301526119458161190c565b9050919050565b7f437269746572696f6e206d757374206e6f7420626520656d70747900000000005f82015250565b5f611980601b83611259565b915061198b8261194c565b602082019050919050565b5f6020820190508181035f8301526119ad81611974565b905091905056fea264697066735822122007b0fb72e3ac3e14ab0cdebb7e7130fd98e1aeac4d2251cc393899be2c95b74f64736f6c63430008140033","linkReferences":{}},"methodIdentifiers":{"compute(string)":"9e57a390","get(bytes32)":"8eaa6ac0","impactAnalysis(string)":"90113d3c","queryDependencies(string,string)":"bcdfd0bb","queryDependents(string,string)":"cad46d84","sliceBackward(string)":"d0249aa6","sliceForward(string)":"d0ca4035"},"id":93}