{"abi":[{"type":"function","name":"listHandlers","inputs":[{"name":"format","type":"string","internalType":"string"}],"outputs":[{"name":"","type":"tuple","internalType":"struct EnrichmentRenderer.ListHandlersOkResult","components":[{"name":"success","type":"bool","internalType":"bool"},{"name":"handlers","type":"string[]","internalType":"string[]"},{"name":"count","type":"int256","internalType":"int256"}]}],"stateMutability":"nonpayable"},{"type":"function","name":"listPatterns","inputs":[],"outputs":[{"name":"","type":"tuple","internalType":"struct EnrichmentRenderer.ListPatternsOkResult","components":[{"name":"success","type":"bool","internalType":"bool"},{"name":"patterns","type":"string[]","internalType":"string[]"}]}],"stateMutability":"nonpayable"},{"type":"function","name":"register","inputs":[{"name":"key","type":"string","internalType":"string"},{"name":"format","type":"string","internalType":"string"},{"name":"order","type":"int256","internalType":"int256"},{"name":"pattern","type":"string","internalType":"string"},{"name":"template","type":"string","internalType":"string"}],"outputs":[{"name":"","type":"tuple","internalType":"struct EnrichmentRenderer.RegisterOkResult","components":[{"name":"success","type":"bool","internalType":"bool"},{"name":"handler","type":"bytes32","internalType":"bytes32"}]}],"stateMutability":"nonpayable"},{"type":"function","name":"render","inputs":[{"name":"content","type":"string","internalType":"string"},{"name":"format","type":"string","internalType":"string"}],"outputs":[{"name":"","type":"tuple","internalType":"struct EnrichmentRenderer.RenderOkResult","components":[{"name":"success","type":"bool","internalType":"bool"},{"name":"output","type":"string","internalType":"string"},{"name":"sectionCount","type":"int256","internalType":"int256"},{"name":"unhandledKeys","type":"string[]","internalType":"string[]"}]}],"stateMutability":"nonpayable"},{"type":"event","name":"ListHandlersCompleted","inputs":[{"name":"variant","type":"string","indexed":false,"internalType":"string"},{"name":"handlers","type":"string[]","indexed":false,"internalType":"string[]"},{"name":"count","type":"int256","indexed":false,"internalType":"int256"}],"anonymous":false},{"type":"event","name":"ListPatternsCompleted","inputs":[{"name":"variant","type":"string","indexed":false,"internalType":"string"},{"name":"patterns","type":"string[]","indexed":false,"internalType":"string[]"}],"anonymous":false},{"type":"event","name":"RegisterCompleted","inputs":[{"name":"variant","type":"string","indexed":false,"internalType":"string"},{"name":"handler","type":"bytes32","indexed":false,"internalType":"bytes32"}],"anonymous":false},{"type":"event","name":"RenderCompleted","inputs":[{"name":"variant","type":"string","indexed":false,"internalType":"string"},{"name":"sectionCount","type":"int256","indexed":false,"internalType":"int256"},{"name":"unhandledKeys","type":"string[]","indexed":false,"internalType":"string[]"}],"anonymous":false}],"bytecode":{"object":"0x608060405234801561000f575f80fd5b506119c88061001d5f395ff3fe608060405234801561000f575f80fd5b506004361061004a575f3560e01c8063042ae3e71461004e57806355590a6d1461006c578063581eebf61461009c5780636e1daa59146100cc575b5f80fd5b6100566100fc565b6040516100639190610bc3565b60405180910390f35b61008660048036038101906100819190610d53565b610225565b6040516100939190610e7f565b60405180910390f35b6100b660048036038101906100b19190610e98565b6105da565b6040516100c39190610f84565b60405180910390f35b6100e660048036038101906100e19190610fa4565b61076d565b6040516100f39190611038565b60405180910390f35b6101046109a9565b7f78da917cd9d5e36ea62de841ee0c83f31e8d5c856419f74eeea613532b7fc8046003604051610134919061125f565b60405180910390a160405180604001604052806001151581526020016003805480602002602001604051908101604052809291908181526020015f905b82821015610219578382905f5260205f2001805461018e9061110b565b80601f01602080910402602001604051908101604052809291908181526020018280546101ba9061110b565b80156102055780601f106101dc57610100808354040283529160200191610205565b820191905f5260205f20905b8154815290600101906020018083116101e857829003601f168201915b505050505081526020019060010190610171565b50505050815250905090565b61022d6109c4565b5f865111610270576040517f08c379a0000000000000000000000000000000000000000000000000000000008152600401610267906112dc565b60405180910390fd5b5f8551116102b3576040517f08c379a00000000000000000000000000000000000000000000000000000000081526004016102aa90611344565b60405180910390fd5b5f8351116102f6576040517f08c379a00000000000000000000000000000000000000000000000000000000081526004016102ed906113ac565b60405180910390fd5b5f825111610339576040517f08c379a000000000000000000000000000000000000000000000000000000000815260040161033090611414565b60405180910390fd5b5f86864260055f81548092919061034f90611468565b919050556040516020016103669493929190611509565b6040516020818303038152906040528051906020012090506040518060e00160405280888152602001878152602001868152602001858152602001848152602001428152602001600115158152505f808381526020019081526020015f205f820151815f0190816103d791906116d9565b5060208201518160010190816103ed91906116d9565b5060408201518160020155606082015181600301908161040d91906116d9565b50608082015181600401908161042391906116d9565b5060a0820151816005015560c0820151816006015f6101000a81548160ff021916908315150217905550905050600181908060018154018082558091505060019003905f5260205f20015f90919091909150555f8660405160200161048891906117a8565b60405160208183030381529060405280519060200120905060025f8281526020019081526020015f2082908060018154018082558091505060019003905f5260205f20015f90919091909150555f856040516020016104e791906117a8565b60405160208183030381529060405280519060200120905060045f8281526020019081526020015f205f9054906101000a900460ff1661057d57600160045f8381526020019081526020015f205f6101000a81548160ff021916908315150217905550600386908060018154018082558091505060019003905f5260205f20015f90919091909150908161057b91906116d9565b505b7f0402c886f5c1bb50afb826d1767a153123631152c678fbec8089e9e8ee3e49bf836040516105ac91906117cd565b60405180910390a1604051806040016040528060011515815260200184815250935050505095945050505050565b6105e26109e1565b5f835111610625576040517f08c379a000000000000000000000000000000000000000000000000000000000815260040161061c90611843565b60405180910390fd5b5f825111610668576040517f08c379a000000000000000000000000000000000000000000000000000000000815260040161065f90611344565b60405180910390fd5b5f8260405160200161067a91906117a8565b6040516020818303038152906040528051906020012090505f60025f8381526020019081526020015f2090505f8590505f828054905090505f8067ffffffffffffffff8111156106cd576106cc610bfc565b5b60405190808252806020026020018201604052801561070057816020015b60608152602001906001900390816106eb5790505b5090507f1cf85745a3e7fe69bca8f3ba20c42bd8045e210d8951588964b378aaba8ef23e82826040516107349291906118e3565b60405180910390a16040518060800160405280600115158152602001848152602001838152602001828152509550505050505092915050565b610775610a09565b5f8251116107b8576040517f08c379a00000000000000000000000000000000000000000000000000000000081526004016107af90611344565b60405180910390fd5b5f826040516020016107ca91906117a8565b6040516020818303038152906040528051906020012090505f60025f8381526020019081526020015f2090505f818054905067ffffffffffffffff81111561081557610814610bfc565b5b60405190808252806020026020018201604052801561084857816020015b60608152602001906001900390816108335790505b5090505f5b828054905081101561093e575f8084838154811061086e5761086d611924565b5b905f5260205f20015481526020019081526020015f205f0180546108919061110b565b80601f01602080910402602001604051908101604052809291908181526020018280546108bd9061110b565b80156109085780601f106108df57610100808354040283529160200191610908565b820191905f5260205f20905b8154815290600101906020018083116108eb57829003601f168201915b50505050508282815181106109205761091f611924565b5b6020026020010181905250808061093690611468565b91505061084d565b505f828054905090507fc4e637460d65ff2f7e0254b148bb84b102db4674ad06d45795961da5cf1730518282604051610978929190611951565b60405180910390a1604051806060016040528060011515815260200183815260200182815250945050505050919050565b60405180604001604052805f15158152602001606081525090565b60405180604001604052805f151581526020015f80191681525090565b60405180608001604052805f15158152602001606081526020015f8152602001606081525090565b60405180606001604052805f15158152602001606081526020015f81525090565b5f8115159050919050565b610a3e81610a2a565b82525050565b5f81519050919050565b5f82825260208201905092915050565b5f819050602082019050919050565b5f81519050919050565b5f82825260208201905092915050565b5f5b83811015610aa4578082015181840152602081019050610a89565b5f8484015250505050565b5f601f19601f8301169050919050565b5f610ac982610a6d565b610ad38185610a77565b9350610ae3818560208601610a87565b610aec81610aaf565b840191505092915050565b5f610b028383610abf565b905092915050565b5f602082019050919050565b5f610b2082610a44565b610b2a8185610a4e565b935083602082028501610b3c85610a5e565b805f5b85811015610b775784840389528151610b588582610af7565b9450610b6383610b0a565b925060208a01995050600181019050610b3f565b50829750879550505050505092915050565b5f604083015f830151610b9e5f860182610a35565b5060208301518482036020860152610bb68282610b16565b9150508091505092915050565b5f6020820190508181035f830152610bdb8184610b89565b905092915050565b5f604051905090565b5f80fd5b5f80fd5b5f80fd5b5f80fd5b7f4e487b71000000000000000000000000000000000000000000000000000000005f52604160045260245ffd5b610c3282610aaf565b810181811067ffffffffffffffff82111715610c5157610c50610bfc565b5b80604052505050565b5f610c63610be3565b9050610c6f8282610c29565b919050565b5f67ffffffffffffffff821115610c8e57610c8d610bfc565b5b610c9782610aaf565b9050602081019050919050565b828183375f83830152505050565b5f610cc4610cbf84610c74565b610c5a565b905082815260208101848484011115610ce057610cdf610bf8565b5b610ceb848285610ca4565b509392505050565b5f82601f830112610d0757610d06610bf4565b5b8135610d17848260208601610cb2565b91505092915050565b5f819050919050565b610d3281610d20565b8114610d3c575f80fd5b50565b5f81359050610d4d81610d29565b92915050565b5f805f805f60a08688031215610d6c57610d6b610bec565b5b5f86013567ffffffffffffffff811115610d8957610d88610bf0565b5b610d9588828901610cf3565b955050602086013567ffffffffffffffff811115610db657610db5610bf0565b5b610dc288828901610cf3565b9450506040610dd388828901610d3f565b935050606086013567ffffffffffffffff811115610df457610df3610bf0565b5b610e0088828901610cf3565b925050608086013567ffffffffffffffff811115610e2157610e20610bf0565b5b610e2d88828901610cf3565b9150509295509295909350565b5f819050919050565b610e4c81610e3a565b82525050565b604082015f820151610e665f850182610a35565b506020820151610e796020850182610e43565b50505050565b5f604082019050610e925f830184610e52565b92915050565b5f8060408385031215610eae57610ead610bec565b5b5f83013567ffffffffffffffff811115610ecb57610eca610bf0565b5b610ed785828601610cf3565b925050602083013567ffffffffffffffff811115610ef857610ef7610bf0565b5b610f0485828601610cf3565b9150509250929050565b610f1781610d20565b82525050565b5f608083015f830151610f325f860182610a35565b5060208301518482036020860152610f4a8282610abf565b9150506040830151610f5f6040860182610f0e565b5060608301518482036060860152610f778282610b16565b9150508091505092915050565b5f6020820190508181035f830152610f9c8184610f1d565b905092915050565b5f60208284031215610fb957610fb8610bec565b5b5f82013567ffffffffffffffff811115610fd657610fd5610bf0565b5b610fe284828501610cf3565b91505092915050565b5f606083015f8301516110005f860182610a35565b50602083015184820360208601526110188282610b16565b915050604083015161102d6040860182610f0e565b508091505092915050565b5f6020820190508181035f8301526110508184610feb565b905092915050565b5f82825260208201905092915050565b7f6f6b0000000000000000000000000000000000000000000000000000000000005f82015250565b5f61109c600283611058565b91506110a782611068565b602082019050919050565b5f81549050919050565b5f82825260208201905092915050565b5f819050815f5260205f209050919050565b7f4e487b71000000000000000000000000000000000000000000000000000000005f52602260045260245ffd5b5f600282049050600182168061112257607f821691505b602082108103611135576111346110de565b5b50919050565b5f819050815f5260205f209050919050565b5f81546111598161110b565b6111638186610a77565b9450600182165f811461117d5760018114611193576111c5565b60ff1983168652811515602002860193506111c5565b61119c8561113b565b5f5b838110156111bd5781548189015260018201915060208101905061119e565b808801955050505b50505092915050565b5f6111d9838361114d565b905092915050565b5f600182019050919050565b5f6111f7826110b2565b61120181856110bc565b935083602082028501611213856110cc565b805f5b8581101561124d5784840389528161122e85826111ce565b9450611239836111e1565b925060208a01995050600181019050611216565b50829750879550505050505092915050565b5f6040820190508181035f83015261127681611090565b9050818103602083015261128a81846111ed565b905092915050565b7f4b6579206d757374206e6f7420626520656d70747900000000000000000000005f82015250565b5f6112c6601583611058565b91506112d182611292565b602082019050919050565b5f6020820190508181035f8301526112f3816112ba565b9050919050565b7f466f726d6174206d757374206e6f7420626520656d70747900000000000000005f82015250565b5f61132e601883611058565b9150611339826112fa565b602082019050919050565b5f6020820190508181035f83015261135b81611322565b9050919050565b7f5061747465726e206d757374206e6f7420626520656d707479000000000000005f82015250565b5f611396601983611058565b91506113a182611362565b602082019050919050565b5f6020820190508181035f8301526113c38161138a565b9050919050565b7f54656d706c617465206d757374206e6f7420626520656d7074790000000000005f82015250565b5f6113fe601a83611058565b9150611409826113ca565b602082019050919050565b5f6020820190508181035f83015261142b816113f2565b9050919050565b7f4e487b71000000000000000000000000000000000000000000000000000000005f52601160045260245ffd5b5f819050919050565b5f6114728261145f565b91507fffffffffffffffffffffffffffffffffffffffffffffffffffffffffffffffff82036114a4576114a3611432565b5b600182019050919050565b5f81905092915050565b5f6114c382610a6d565b6114cd81856114af565b93506114dd818560208601610a87565b80840191505092915050565b5f819050919050565b6115036114fe8261145f565b6114e9565b82525050565b5f61151482876114b9565b915061152082866114b9565b915061152c82856114f2565b60208201915061153c82846114f2565b60208201915081905095945050505050565b5f6020601f8301049050919050565b5f82821b905092915050565b5f600883026115987fffffffffffffffffffffffffffffffffffffffffffffffffffffffffffffffff8261155d565b6115a2868361155d565b95508019841693508086168417925050509392505050565b5f819050919050565b5f6115dd6115d86115d38461145f565b6115ba565b61145f565b9050919050565b5f819050919050565b6115f6836115c3565b61160a611602826115e4565b848454611569565b825550505050565b5f90565b61161e611612565b6116298184846115ed565b505050565b5b8181101561164c576116415f82611616565b60018101905061162f565b5050565b601f821115611691576116628161113b565b61166b8461154e565b8101602085101561167a578190505b61168e6116868561154e565b83018261162e565b50505b505050565b5f82821c905092915050565b5f6116b15f1984600802611696565b1980831691505092915050565b5f6116c983836116a2565b9150826002028217905092915050565b6116e282610a6d565b67ffffffffffffffff8111156116fb576116fa610bfc565b5b611705825461110b565b611710828285611650565b5f60209050601f831160018114611741575f841561172f578287015190505b61173985826116be565b8655506117a0565b601f19841661174f8661113b565b5f5b8281101561177657848901518255600182019150602085019450602081019050611751565b86831015611793578489015161178f601f8916826116a2565b8355505b6001600288020188555050505b505050505050565b5f6117b382846114b9565b915081905092915050565b6117c781610e3a565b82525050565b5f6040820190508181035f8301526117e481611090565b90506117f360208301846117be565b92915050565b7f436f6e74656e74206d757374206e6f7420626520656d707479000000000000005f82015250565b5f61182d601983611058565b9150611838826117f9565b602082019050919050565b5f6020820190508181035f83015261185a81611821565b9050919050565b61186a81610d20565b82525050565b5f61187a82610a44565b61188481856110bc565b93508360208202850161189685610a5e565b805f5b858110156118d157848403895281516118b28582610af7565b94506118bd83610b0a565b925060208a01995050600181019050611899565b50829750879550505050505092915050565b5f6060820190508181035f8301526118fa81611090565b90506119096020830185611861565b818103604083015261191b8184611870565b90509392505050565b7f4e487b71000000000000000000000000000000000000000000000000000000005f52603260045260245ffd5b5f6060820190508181035f83015261196881611090565b9050818103602083015261197c8185611870565b905061198b6040830184611861565b939250505056fea264697066735822122034dce0121169685ac9477c8e0892a954a3ca707253e2de4754ce5823aa60282764736f6c63430008140033","linkReferences":{}},"methodIdentifiers":{"listHandlers(string)":"6e1daa59","listPatterns()":"042ae3e7","register(string,string,int256,string,string)":"55590a6d","render(string,string)":"581eebf6"},"id":111}