{"abi":[{"type":"function","name":"changeLayout","inputs":[{"name":"viewId","type":"bytes32","internalType":"bytes32"},{"name":"layout","type":"string","internalType":"string"}],"outputs":[],"stateMutability":"nonpayable"},{"type":"function","name":"create","inputs":[{"name":"viewId","type":"bytes32","internalType":"bytes32"},{"name":"name","type":"string","internalType":"string"},{"name":"dataSource","type":"string","internalType":"string"},{"name":"layout","type":"string","internalType":"string"}],"outputs":[],"stateMutability":"nonpayable"},{"type":"function","name":"getView","inputs":[{"name":"viewId","type":"bytes32","internalType":"bytes32"}],"outputs":[{"name":"","type":"tuple","internalType":"struct View.ViewData","components":[{"name":"name","type":"string","internalType":"string"},{"name":"dataSource","type":"string","internalType":"string"},{"name":"layout","type":"string","internalType":"string"},{"name":"filters","type":"string","internalType":"string"},{"name":"sorts","type":"string","internalType":"string"},{"name":"groupField","type":"string","internalType":"string"},{"name":"visibleFields","type":"string","internalType":"string"},{"name":"exists","type":"bool","internalType":"bool"}]}],"stateMutability":"view"},{"type":"function","name":"setFilter","inputs":[{"name":"viewId","type":"bytes32","internalType":"bytes32"},{"name":"rules","type":"string","internalType":"string"}],"outputs":[],"stateMutability":"nonpayable"},{"type":"function","name":"setGroup","inputs":[{"name":"viewId","type":"bytes32","internalType":"bytes32"},{"name":"field","type":"string","internalType":"string"}],"outputs":[],"stateMutability":"nonpayable"},{"type":"function","name":"setSort","inputs":[{"name":"viewId","type":"bytes32","internalType":"bytes32"},{"name":"rules","type":"string","internalType":"string"}],"outputs":[],"stateMutability":"nonpayable"},{"type":"function","name":"setVisibleFields","inputs":[{"name":"viewId","type":"bytes32","internalType":"bytes32"},{"name":"fieldIds","type":"string","internalType":"string"}],"outputs":[],"stateMutability":"nonpayable"},{"type":"event","name":"ViewCreated","inputs":[{"name":"viewId","type":"bytes32","indexed":true,"internalType":"bytes32"}],"anonymous":false},{"type":"event","name":"ViewDuplicated","inputs":[{"name":"originalId","type":"bytes32","indexed":true,"internalType":"bytes32"},{"name":"newId","type":"bytes32","indexed":true,"internalType":"bytes32"}],"anonymous":false},{"type":"event","name":"ViewUpdated","inputs":[{"name":"viewId","type":"bytes32","indexed":true,"internalType":"bytes32"}],"anonymous":false}],"bytecode":{"object":"0x608060405234801561000f575f80fd5b506115f98061001d5f395ff3fe608060405234801561000f575f80fd5b506004361061007b575f3560e01c8063784084e611610059578063784084e6146100e7578063d7579f6f14610103578063d7bff3c41461011f578063e0c34dc01461013b5761007b565b80632b478dfe1461007f578063514b95e11461009b5780635e15cd92146100cb575b5f80fd5b61009960048036038101906100949190610d4a565b610157565b005b6100b560048036038101906100b09190610e0e565b610451565b6040516100c29190610fb4565b60405180910390f35b6100e560048036038101906100e09190610fd4565b6108e4565b005b61010160048036038101906100fc9190610fd4565b610998565b005b61011d60048036038101906101189190610fd4565b610a4c565b005b61013960048036038101906101349190610fd4565b610b00565b005b61015560048036038101906101509190610fd4565b610bb4565b005b5f808881526020019081526020015f206007015f9054906101000a900460ff16156101b7576040517f08c379a00000000000000000000000000000000000000000000000000000000081526004016101ae9061108b565b60405180910390fd5b5f86869050116101fc576040517f08c379a00000000000000000000000000000000000000000000000000000000081526004016101f3906110f3565b60405180910390fd5b60405180610100016040528087878080601f0160208091040260200160405190810160405280939291908181526020018383808284375f81840152601f19601f82011690508083019250505050505050815260200185858080601f0160208091040260200160405190810160405280939291908181526020018383808284375f81840152601f19601f82011690508083019250505050505050815260200183838080601f0160208091040260200160405190810160405280939291908181526020018383808284375f81840152601f19601f82011690508083019250505050505050815260200160405180602001604052805f815250815260200160405180602001604052805f815250815260200160405180602001604052805f815250815260200160405180602001604052805f8152508152602001600115158152505f808981526020019081526020015f205f820151815f01908161035d9190611341565b5060208201518160010190816103739190611341565b5060408201518160020190816103899190611341565b50606082015181600301908161039f9190611341565b5060808201518160040190816103b59190611341565b5060a08201518160050190816103cb9190611341565b5060c08201518160060190816103e19190611341565b5060e0820151816007015f6101000a81548160ff02191690831515021790555090505060015f8154809291906104169061143d565b9190505550867f4cf5cbc9fc593ddf79bc476f63505aaf5378618fe7db9551bb1564dd10a7d4d160405160405180910390a250505050505050565b610459610c68565b5f808381526020019081526020015f206007015f9054906101000a900460ff166104b8576040517f08c379a00000000000000000000000000000000000000000000000000000000081526004016104af906114ce565b60405180910390fd5b5f808381526020019081526020015f20604051806101000160405290815f820180546104e39061116b565b80601f016020809104026020016040519081016040528092919081815260200182805461050f9061116b565b801561055a5780601f106105315761010080835404028352916020019161055a565b820191905f5260205f20905b81548152906001019060200180831161053d57829003601f168201915b505050505081526020016001820180546105739061116b565b80601f016020809104026020016040519081016040528092919081815260200182805461059f9061116b565b80156105ea5780601f106105c1576101008083540402835291602001916105ea565b820191905f5260205f20905b8154815290600101906020018083116105cd57829003601f168201915b505050505081526020016002820180546106039061116b565b80601f016020809104026020016040519081016040528092919081815260200182805461062f9061116b565b801561067a5780601f106106515761010080835404028352916020019161067a565b820191905f5260205f20905b81548152906001019060200180831161065d57829003601f168201915b505050505081526020016003820180546106939061116b565b80601f01602080910402602001604051908101604052809291908181526020018280546106bf9061116b565b801561070a5780601f106106e15761010080835404028352916020019161070a565b820191905f5260205f20905b8154815290600101906020018083116106ed57829003601f168201915b505050505081526020016004820180546107239061116b565b80601f016020809104026020016040519081016040528092919081815260200182805461074f9061116b565b801561079a5780601f106107715761010080835404028352916020019161079a565b820191905f5260205f20905b81548152906001019060200180831161077d57829003601f168201915b505050505081526020016005820180546107b39061116b565b80601f01602080910402602001604051908101604052809291908181526020018280546107df9061116b565b801561082a5780601f106108015761010080835404028352916020019161082a565b820191905f5260205f20905b81548152906001019060200180831161080d57829003601f168201915b505050505081526020016006820180546108439061116b565b80601f016020809104026020016040519081016040528092919081815260200182805461086f9061116b565b80156108ba5780601f10610891576101008083540402835291602001916108ba565b820191905f5260205f20905b81548152906001019060200180831161089d57829003601f168201915b50505050508152602001600782015f9054906101000a900460ff1615151515815250509050919050565b5f808481526020019081526020015f206007015f9054906101000a900460ff16610943576040517f08c379a000000000000000000000000000000000000000000000000000000000815260040161093a906114ce565b60405180910390fd5b81815f808681526020019081526020015f2060050191826109659291906114f6565b50827f22ae2dcf3fee87f6b3fbe004530670d1dfa258c5387123b7a97e844992ee639b60405160405180910390a2505050565b5f808481526020019081526020015f206007015f9054906101000a900460ff166109f7576040517f08c379a00000000000000000000000000000000000000000000000000000000081526004016109ee906114ce565b60405180910390fd5b81815f808681526020019081526020015f206006019182610a199291906114f6565b50827f22ae2dcf3fee87f6b3fbe004530670d1dfa258c5387123b7a97e844992ee639b60405160405180910390a2505050565b5f808481526020019081526020015f206007015f9054906101000a900460ff16610aab576040517f08c379a0000000000000000000000000000000000000000000000000000000008152600401610aa2906114ce565b60405180910390fd5b81815f808681526020019081526020015f206003019182610acd9291906114f6565b50827f22ae2dcf3fee87f6b3fbe004530670d1dfa258c5387123b7a97e844992ee639b60405160405180910390a2505050565b5f808481526020019081526020015f206007015f9054906101000a900460ff16610b5f576040517f08c379a0000000000000000000000000000000000000000000000000000000008152600401610b56906114ce565b60405180910390fd5b81815f808681526020019081526020015f206004019182610b819291906114f6565b50827f22ae2dcf3fee87f6b3fbe004530670d1dfa258c5387123b7a97e844992ee639b60405160405180910390a2505050565b5f808481526020019081526020015f206007015f9054906101000a900460ff16610c13576040517f08c379a0000000000000000000000000000000000000000000000000000000008152600401610c0a906114ce565b60405180910390fd5b81815f808681526020019081526020015f206002019182610c359291906114f6565b50827f22ae2dcf3fee87f6b3fbe004530670d1dfa258c5387123b7a97e844992ee639b60405160405180910390a2505050565b604051806101000160405280606081526020016060815260200160608152602001606081526020016060815260200160608152602001606081526020015f151581525090565b5f80fd5b5f80fd5b5f819050919050565b610cc881610cb6565b8114610cd2575f80fd5b50565b5f81359050610ce381610cbf565b92915050565b5f80fd5b5f80fd5b5f80fd5b5f8083601f840112610d0a57610d09610ce9565b5b8235905067ffffffffffffffff811115610d2757610d26610ced565b5b602083019150836001820283011115610d4357610d42610cf1565b5b9250929050565b5f805f805f805f6080888a031215610d6557610d64610cae565b5b5f610d728a828b01610cd5565b975050602088013567ffffffffffffffff811115610d9357610d92610cb2565b5b610d9f8a828b01610cf5565b9650965050604088013567ffffffffffffffff811115610dc257610dc1610cb2565b5b610dce8a828b01610cf5565b9450945050606088013567ffffffffffffffff811115610df157610df0610cb2565b5b610dfd8a828b01610cf5565b925092505092959891949750929550565b5f60208284031215610e2357610e22610cae565b5b5f610e3084828501610cd5565b91505092915050565b5f81519050919050565b5f82825260208201905092915050565b5f5b83811015610e70578082015181840152602081019050610e55565b5f8484015250505050565b5f601f19601f8301169050919050565b5f610e9582610e39565b610e9f8185610e43565b9350610eaf818560208601610e53565b610eb881610e7b565b840191505092915050565b5f8115159050919050565b610ed781610ec3565b82525050565b5f61010083015f8301518482035f860152610ef88282610e8b565b91505060208301518482036020860152610f128282610e8b565b91505060408301518482036040860152610f2c8282610e8b565b91505060608301518482036060860152610f468282610e8b565b91505060808301518482036080860152610f608282610e8b565b91505060a083015184820360a0860152610f7a8282610e8b565b91505060c083015184820360c0860152610f948282610e8b565b91505060e0830151610fa960e0860182610ece565b508091505092915050565b5f6020820190508181035f830152610fcc8184610edd565b905092915050565b5f805f60408486031215610feb57610fea610cae565b5b5f610ff886828701610cd5565b935050602084013567ffffffffffffffff81111561101957611018610cb2565b5b61102586828701610cf5565b92509250509250925092565b5f82825260208201905092915050565b7f5669657720616c726561647920657869737473000000000000000000000000005f82015250565b5f611075601383611031565b915061108082611041565b602082019050919050565b5f6020820190508181035f8301526110a281611069565b9050919050565b7f4e616d652063616e6e6f7420626520656d7074790000000000000000000000005f82015250565b5f6110dd601483611031565b91506110e8826110a9565b602082019050919050565b5f6020820190508181035f83015261110a816110d1565b9050919050565b7f4e487b71000000000000000000000000000000000000000000000000000000005f52604160045260245ffd5b7f4e487b71000000000000000000000000000000000000000000000000000000005f52602260045260245ffd5b5f600282049050600182168061118257607f821691505b6020821081036111955761119461113e565b5b50919050565b5f819050815f5260205f209050919050565b5f6020601f8301049050919050565b5f82821b905092915050565b5f600883026111f77fffffffffffffffffffffffffffffffffffffffffffffffffffffffffffffffff826111bc565b61120186836111bc565b95508019841693508086168417925050509392505050565b5f819050919050565b5f819050919050565b5f61124561124061123b84611219565b611222565b611219565b9050919050565b5f819050919050565b61125e8361122b565b61127261126a8261124c565b8484546111c8565b825550505050565b5f90565b61128661127a565b611291818484611255565b505050565b5b818110156112b4576112a95f8261127e565b600181019050611297565b5050565b601f8211156112f9576112ca8161119b565b6112d3846111ad565b810160208510156112e2578190505b6112f66112ee856111ad565b830182611296565b50505b505050565b5f82821c905092915050565b5f6113195f19846008026112fe565b1980831691505092915050565b5f611331838361130a565b9150826002028217905092915050565b61134a82610e39565b67ffffffffffffffff81111561136357611362611111565b5b61136d825461116b565b6113788282856112b8565b5f60209050601f8311600181146113a9575f8415611397578287015190505b6113a18582611326565b865550611408565b601f1984166113b78661119b565b5f5b828110156113de578489015182556001820191506020850194506020810190506113b9565b868310156113fb57848901516113f7601f89168261130a565b8355505b6001600288020188555050505b505050505050565b7f4e487b71000000000000000000000000000000000000000000000000000000005f52601160045260245ffd5b5f61144782611219565b91507fffffffffffffffffffffffffffffffffffffffffffffffffffffffffffffffff820361147957611478611410565b5b600182019050919050565b7f5669657720646f6573206e6f74206578697374000000000000000000000000005f82015250565b5f6114b8601383611031565b91506114c382611484565b602082019050919050565b5f6020820190508181035f8301526114e5816114ac565b9050919050565b5f82905092915050565b61150083836114ec565b67ffffffffffffffff81111561151957611518611111565b5b611523825461116b565b61152e8282856112b8565b5f601f83116001811461155b575f8415611549578287013590505b6115538582611326565b8655506115ba565b601f1984166115698661119b565b5f5b828110156115905784890135825560018201915060208501945060208101905061156b565b868310156115ad57848901356115a9601f89168261130a565b8355505b6001600288020188555050505b5050505050505056fea26469706673582212200df5e114f778e2dfe875522a6597f30a91eab107c4044ce0fd7b0036fe67ae1e64736f6c63430008140033","linkReferences":{}},"methodIdentifiers":{"changeLayout(bytes32,string)":"e0c34dc0","create(bytes32,string,string,string)":"2b478dfe","getView(bytes32)":"514b95e1","setFilter(bytes32,string)":"d7579f6f","setGroup(bytes32,string)":"5e15cd92","setSort(bytes32,string)":"d7bff3c4","setVisibleFields(bytes32,string)":"784084e6"},"id":328}