{"abi":[{"type":"function","name":"addTag","inputs":[{"name":"nodeId","type":"bytes32","internalType":"bytes32"},{"name":"tagName","type":"string","internalType":"string"}],"outputs":[],"stateMutability":"nonpayable"},{"type":"function","name":"getByTag","inputs":[{"name":"tagName","type":"string","internalType":"string"}],"outputs":[{"name":"","type":"bytes32[]","internalType":"bytes32[]"}],"stateMutability":"view"},{"type":"function","name":"hasTag","inputs":[{"name":"nodeId","type":"bytes32","internalType":"bytes32"},{"name":"tagName","type":"string","internalType":"string"}],"outputs":[{"name":"","type":"bool","internalType":"bool"}],"stateMutability":"view"},{"type":"function","name":"removeTag","inputs":[{"name":"nodeId","type":"bytes32","internalType":"bytes32"},{"name":"tagName","type":"string","internalType":"string"}],"outputs":[],"stateMutability":"nonpayable"},{"type":"function","name":"rename","inputs":[{"name":"oldTag","type":"string","internalType":"string"},{"name":"newTag","type":"string","internalType":"string"}],"outputs":[],"stateMutability":"nonpayable"},{"type":"event","name":"TagAdded","inputs":[{"name":"nodeId","type":"bytes32","indexed":true,"internalType":"bytes32"},{"name":"tagName","type":"string","indexed":false,"internalType":"string"}],"anonymous":false},{"type":"event","name":"TagRemoved","inputs":[{"name":"nodeId","type":"bytes32","indexed":true,"internalType":"bytes32"},{"name":"tagName","type":"string","indexed":false,"internalType":"string"}],"anonymous":false},{"type":"event","name":"TagRenamed","inputs":[{"name":"oldTag","type":"string","indexed":false,"internalType":"string"},{"name":"newTag","type":"string","indexed":false,"internalType":"string"}],"anonymous":false}],"bytecode":{"object":"0x608060405234801561000f575f80fd5b506111408061001d5f395ff3fe608060405234801561000f575f80fd5b5060043610610055575f3560e01c806327e169cd146100595780633e6be57a146100895780637b0b2128146100a55780639c7c722b146100d5578063af4cb108146100f1575b5f80fd5b610073600480360381019061006e91906109fd565b61010d565b6040516100809190610a74565b60405180910390f35b6100a3600480360381019061009e91906109fd565b610152565b005b6100bf60048036038101906100ba9190610a8d565b610357565b6040516100cc9190610b8f565b60405180910390f35b6100ef60048036038101906100ea9190610baf565b6103ce565b005b61010b600480360381019061010691906109fd565b610700565b005b5f805f8581526020019081526020015f20838360405161012e929190610c69565b90815260200160405180910390205f9054906101000a900460ff1690509392505050565b5f801b8303610196576040517f08c379a000000000000000000000000000000000000000000000000000000000815260040161018d90610cdb565b60405180910390fd5b5f82829050116101db576040517f08c379a00000000000000000000000000000000000000000000000000000000081526004016101d290610d43565b60405180910390fd5b5f808481526020019081526020015f2082826040516101fb929190610c69565b90815260200160405180910390205f9054906101000a900460ff1615610256576040517f08c379a000000000000000000000000000000000000000000000000000000000815260040161024d90610dab565b60405180910390fd5b60015f808581526020019081526020015f208383604051610278929190610c69565b90815260200160405180910390205f6101000a81548160ff021916908315150217905550600182826040516102ae929190610c69565b908152602001604051809103902083908060018154018082558091505060019003905f5260205f20015f90919091909150556001600283836040516102f4929190610c69565b90815260200160405180910390205f6101000a81548160ff021916908315150217905550827fba307c71bdc2b3b93244e1da56d186723538832ebc5ec1548667b3fffa439fcb838360405161034a929190610e05565b60405180910390a2505050565b60606001838360405161036b929190610c69565b90815260200160405180910390208054806020026020016040519081016040528092919081815260200182805480156103c157602002820191905f5260205f20905b8154815260200190600101908083116103ad575b5050505050905092915050565b600284846040516103e0929190610c69565b90815260200160405180910390205f9054906101000a900460ff1661043a576040517f08c379a000000000000000000000000000000000000000000000000000000000815260040161043190610e71565b60405180910390fd5b6002828260405161044c929190610c69565b90815260200160405180910390205f9054906101000a900460ff16156104a7576040517f08c379a000000000000000000000000000000000000000000000000000000000815260040161049e90610ed9565b60405180910390fd5b5f82829050116104ec576040517f08c379a00000000000000000000000000000000000000000000000000000000081526004016104e390610f41565b60405180910390fd5b5f600185856040516104ff929190610c69565b908152602001604051809103902090505f5b81805490508110156105f1575f805f84848154811061053357610532610f5f565b5b905f5260205f20015481526020019081526020015f208787604051610559929190610c69565b90815260200160405180910390205f6101000a81548160ff02191690831515021790555060015f8084848154811061059457610593610f5f565b5b905f5260205f20015481526020019081526020015f2085856040516105ba929190610c69565b90815260200160405180910390205f6101000a81548160ff02191690831515021790555080806105e990610fc2565b915050610511565b508060018484604051610605929190610c69565b90815260200160405180910390209080546106219291906108da565b5060018585604051610634929190610c69565b90815260200160405180910390205f61064d9190610928565b600160028484604051610661929190610c69565b90815260200160405180910390205f6101000a81548160ff0219169083151502179055505f60028686604051610698929190610c69565b90815260200160405180910390205f6101000a81548160ff0219169083151502179055507f9f82623772d855bb6ab9d96df49be052815123c7a4975f2a3ea9a058d2c0d918858585856040516106f19493929190611009565b60405180910390a15050505050565b5f808481526020019081526020015f208282604051610720929190610c69565b90815260200160405180910390205f9054906101000a900460ff1661077a576040517f08c379a00000000000000000000000000000000000000000000000000000000081526004016107719061108c565b60405180910390fd5b5f805f8581526020019081526020015f20838360405161079b929190610c69565b90815260200160405180910390205f6101000a81548160ff0219169083151502179055505f600183836040516107d2929190610c69565b908152602001604051809103902090505f5b8180549050811015610899578482828154811061080457610803610f5f565b5b905f5260205f2001540361088657816001838054905061082491906110aa565b8154811061083557610834610f5f565b5b905f5260205f20015482828154811061085157610850610f5f565b5b905f5260205f2001819055508180548061086e5761086d6110dd565b5b600190038181905f5260205f20015f90559055610899565b808061089190610fc2565b9150506107e4565b50837f432f192760947950e83b7e3309e04a2ce577e434e5a45e7f13a6fea61e8a49d084846040516108cc929190610e05565b60405180910390a250505050565b828054828255905f5260205f20908101928215610917575f5260205f209182015b828111156109165782548255916001019190600101906108fb565b5b5090506109249190610946565b5090565b5080545f8255905f5260205f20908101906109439190610946565b50565b5b8082111561095d575f815f905550600101610947565b5090565b5f80fd5b5f80fd5b5f819050919050565b61097b81610969565b8114610985575f80fd5b50565b5f8135905061099681610972565b92915050565b5f80fd5b5f80fd5b5f80fd5b5f8083601f8401126109bd576109bc61099c565b5b8235905067ffffffffffffffff8111156109da576109d96109a0565b5b6020830191508360018202830111156109f6576109f56109a4565b5b9250929050565b5f805f60408486031215610a1457610a13610961565b5b5f610a2186828701610988565b935050602084013567ffffffffffffffff811115610a4257610a41610965565b5b610a4e868287016109a8565b92509250509250925092565b5f8115159050919050565b610a6e81610a5a565b82525050565b5f602082019050610a875f830184610a65565b92915050565b5f8060208385031215610aa357610aa2610961565b5b5f83013567ffffffffffffffff811115610ac057610abf610965565b5b610acc858286016109a8565b92509250509250929050565b5f81519050919050565b5f82825260208201905092915050565b5f819050602082019050919050565b610b0a81610969565b82525050565b5f610b1b8383610b01565b60208301905092915050565b5f602082019050919050565b5f610b3d82610ad8565b610b478185610ae2565b9350610b5283610af2565b805f5b83811015610b82578151610b698882610b10565b9750610b7483610b27565b925050600181019050610b55565b5085935050505092915050565b5f6020820190508181035f830152610ba78184610b33565b905092915050565b5f805f8060408587031215610bc757610bc6610961565b5b5f85013567ffffffffffffffff811115610be457610be3610965565b5b610bf0878288016109a8565b9450945050602085013567ffffffffffffffff811115610c1357610c12610965565b5b610c1f878288016109a8565b925092505092959194509250565b5f81905092915050565b828183375f83830152505050565b5f610c508385610c2d565b9350610c5d838584610c37565b82840190509392505050565b5f610c75828486610c45565b91508190509392505050565b5f82825260208201905092915050565b7f496e76616c6964206e6f646520494400000000000000000000000000000000005f82015250565b5f610cc5600f83610c81565b9150610cd082610c91565b602082019050919050565b5f6020820190508181035f830152610cf281610cb9565b9050919050565b7f546167206e616d652063616e6e6f7420626520656d70747900000000000000005f82015250565b5f610d2d601883610c81565b9150610d3882610cf9565b602082019050919050565b5f6020820190508181035f830152610d5a81610d21565b9050919050565b7f54616720616c72656164792061737369676e656420746f206e6f6465000000005f82015250565b5f610d95601c83610c81565b9150610da082610d61565b602082019050919050565b5f6020820190508181035f830152610dc281610d89565b9050919050565b5f601f19601f8301169050919050565b5f610de48385610c81565b9350610df1838584610c37565b610dfa83610dc9565b840190509392505050565b5f6020820190508181035f830152610e1e818486610dd9565b90509392505050565b7f4f6c642074616720646f6573206e6f74206578697374000000000000000000005f82015250565b5f610e5b601683610c81565b9150610e6682610e27565b602082019050919050565b5f6020820190508181035f830152610e8881610e4f565b9050919050565b7f4e65772074616720616c726561647920657869737473000000000000000000005f82015250565b5f610ec3601683610c81565b9150610ece82610e8f565b602082019050919050565b5f6020820190508181035f830152610ef081610eb7565b9050919050565b7f4e657720746167206e616d652063616e6e6f7420626520656d707479000000005f82015250565b5f610f2b601c83610c81565b9150610f3682610ef7565b602082019050919050565b5f6020820190508181035f830152610f5881610f1f565b9050919050565b7f4e487b71000000000000000000000000000000000000000000000000000000005f52603260045260245ffd5b7f4e487b71000000000000000000000000000000000000000000000000000000005f52601160045260245ffd5b5f819050919050565b5f610fcc82610fb9565b91507fffffffffffffffffffffffffffffffffffffffffffffffffffffffffffffffff8203610ffe57610ffd610f8c565b5b600182019050919050565b5f6040820190508181035f830152611022818688610dd9565b90508181036020830152611037818486610dd9565b905095945050505050565b7f546167206e6f742061737369676e656420746f206e6f646500000000000000005f82015250565b5f611076601883610c81565b915061108182611042565b602082019050919050565b5f6020820190508181035f8301526110a38161106a565b9050919050565b5f6110b482610fb9565b91506110bf83610fb9565b92508282039050818111156110d7576110d6610f8c565b5b92915050565b7f4e487b71000000000000000000000000000000000000000000000000000000005f52603160045260245ffdfea2646970667358221220ad09df6d2a82750fe98ad1979480eed6497b95b2d8f7ccff41b550d0bf01429564736f6c63430008140033","linkReferences":{}},"methodIdentifiers":{"addTag(bytes32,string)":"3e6be57a","getByTag(string)":"7b0b2128","hasTag(bytes32,string)":"27e169cd","removeTag(bytes32,string)":"af4cb108","rename(string,string)":"9c7c722b"},"id":53}