{"abi":[{"type":"function","name":"findByWidget","inputs":[{"name":"widget","type":"string","internalType":"string"}],"outputs":[{"name":"","type":"tuple","internalType":"struct WidgetStateEntity.FindByWidgetOkResult","components":[{"name":"success","type":"bool","internalType":"bool"},{"name":"states","type":"string","internalType":"string"}]}],"stateMutability":"nonpayable"},{"type":"function","name":"get","inputs":[{"name":"widgetState","type":"bytes32","internalType":"bytes32"}],"outputs":[{"name":"","type":"tuple","internalType":"struct WidgetStateEntity.GetOkResult","components":[{"name":"success","type":"bool","internalType":"bool"},{"name":"widgetState","type":"bytes32","internalType":"bytes32"},{"name":"widget","type":"string","internalType":"string"},{"name":"name","type":"string","internalType":"string"},{"name":"initial","type":"string","internalType":"string"},{"name":"transitionCount","type":"int256","internalType":"int256"}]}],"stateMutability":"nonpayable"},{"type":"function","name":"reachableFrom","inputs":[{"name":"widgetState","type":"bytes32","internalType":"bytes32"}],"outputs":[{"name":"","type":"tuple","internalType":"struct WidgetStateEntity.ReachableFromOkResult","components":[{"name":"success","type":"bool","internalType":"bool"},{"name":"reachable","type":"string","internalType":"string"},{"name":"via","type":"string","internalType":"string"}]}],"stateMutability":"nonpayable"},{"type":"function","name":"register","inputs":[{"name":"widget","type":"string","internalType":"string"},{"name":"name","type":"string","internalType":"string"},{"name":"initial","type":"string","internalType":"string"}],"outputs":[{"name":"","type":"tuple","internalType":"struct WidgetStateEntity.RegisterOkResult","components":[{"name":"success","type":"bool","internalType":"bool"},{"name":"widgetState","type":"bytes32","internalType":"bytes32"}]}],"stateMutability":"nonpayable"},{"type":"function","name":"traceEvent","inputs":[{"name":"widget","type":"string","internalType":"string"},{"name":"event_","type":"string","internalType":"string"}],"outputs":[{"name":"","type":"tuple","internalType":"struct WidgetStateEntity.TraceEventOkResult","components":[{"name":"success","type":"bool","internalType":"bool"},{"name":"paths","type":"string","internalType":"string"}]}],"stateMutability":"nonpayable"},{"type":"function","name":"unreachableStates","inputs":[{"name":"widget","type":"string","internalType":"string"}],"outputs":[{"name":"","type":"tuple","internalType":"struct WidgetStateEntity.UnreachableStatesOkResult","components":[{"name":"success","type":"bool","internalType":"bool"},{"name":"unreachable","type":"string","internalType":"string"}]}],"stateMutability":"nonpayable"},{"type":"event","name":"FindByWidgetCompleted","inputs":[{"name":"variant","type":"string","indexed":false,"internalType":"string"}],"anonymous":false},{"type":"event","name":"GetCompleted","inputs":[{"name":"variant","type":"string","indexed":false,"internalType":"string"},{"name":"widgetState","type":"bytes32","indexed":false,"internalType":"bytes32"},{"name":"transitionCount","type":"int256","indexed":false,"internalType":"int256"}],"anonymous":false},{"type":"event","name":"ReachableFromCompleted","inputs":[{"name":"variant","type":"string","indexed":false,"internalType":"string"}],"anonymous":false},{"type":"event","name":"RegisterCompleted","inputs":[{"name":"variant","type":"string","indexed":false,"internalType":"string"},{"name":"widgetState","type":"bytes32","indexed":false,"internalType":"bytes32"}],"anonymous":false},{"type":"event","name":"TraceEventCompleted","inputs":[{"name":"variant","type":"string","indexed":false,"internalType":"string"}],"anonymous":false},{"type":"event","name":"UnreachableStatesCompleted","inputs":[{"name":"variant","type":"string","indexed":false,"internalType":"string"}],"anonymous":false}],"bytecode":{"object":"0x608060405234801561000f575f80fd5b50611d1e8061001d5f395ff3fe608060405234801561000f575f80fd5b5060043610610060575f3560e01c8063327103d9146100645780634cd08d031461009457806367def142146100c45780638eaa6ac0146100f4578063962fbf5014610124578063db1c8b5014610154575b5f80fd5b61007e60048036038101906100799190610fe1565b610184565b60405161008b91906110f6565b60405180910390f35b6100ae60048036038101906100a99190611116565b6102d1565b6040516100bb91906111ff565b60405180910390f35b6100de60048036038101906100d99190611242565b610570565b6040516100eb91906112c1565b60405180910390f35b61010e60048036038101906101099190611242565b61074e565b60405161011b919061138d565b60405180910390f35b61013e600480360381019061013991906113ad565b6109de565b60405161014b919061145d565b60405180910390f35b61016e60048036038101906101699190610fe1565b610b2e565b60405161017b91906114b7565b60405180910390f35b61018c610dcc565b5f8260405160200161019e9190611511565b6040516020818303038152906040528051906020012090505f60025f8381526020019081526020015f2090505f60405180602001604052805f81525090505f5b8280549050811015610279575f81111561021557816040516020016102039190611571565b60405160208183030381529060405291505b815f8085848154811061022b5761022a611592565b5b905f5260205f20015481526020019081526020015f206001016040516020016102559291906116ae565b6040516020818303038152906040529150808061027190611707565b9150506101de565b507ff9fe4c06ae47abc538773e695e3ab4e248be3271daf243f1856feb8ff0c592fc6040516102a7906117a8565b60405180910390a16040518060400160405280600115158152602001828152509350505050919050565b6102d9610de7565b5f84511161031c576040517f08c379a000000000000000000000000000000000000000000000000000000000815260040161031390611810565b60405180910390fd5b5f83511161035f576040517f08c379a000000000000000000000000000000000000000000000000000000000815260040161035690611878565b60405180910390fd5b5f8484604051602001610373929190611896565b6040516020818303038152906040528051906020012090505f808281526020019081526020015f206004015f9054906101000a900460ff16156103eb576040517f08c379a00000000000000000000000000000000000000000000000000000000081526004016103e290611903565b60405180910390fd5b6040518060a001604052808681526020018581526020018481526020015f8152602001600115158152505f808381526020019081526020015f205f820151815f0190816104389190611aac565b50602082015181600101908161044e9190611aac565b5060408201518160020190816104649190611aac565b50606082015181600301556080820151816004015f6101000a81548160ff021916908315150217905550905050600181908060018154018082558091505060019003905f5260205f20015f90919091909150555f856040516020016104c99190611511565b60405160208183030381529060405280519060200120905060025f8281526020019081526020015f2082908060018154018082558091505060019003905f5260205f20015f90919091909150557f0402c886f5c1bb50afb826d1767a153123631152c678fbec8089e9e8ee3e49bf826040516105459190611b8a565b60405180910390a1604051806040016040528060011515815260200183815250925050509392505050565b610578610e04565b5f808381526020019081526020015f206004015f9054906101000a900460ff166105d7576040517f08c379a00000000000000000000000000000000000000000000000000000000081526004016105ce90611c00565b60405180910390fd5b5f60035f8481526020019081526020015f2090505f60405180602001604052805f81525090505f60405180602001604052805f81525090505f5b83805490508110156106f0575f81111561066a57826040516020016106369190611571565b6040516020818303038152906040529250816040516020016106589190611571565b60405160208183030381529060405291505b825f808684815481106106805761067f611592565b5b905f5260205f20015481526020019081526020015f206001016040516020016106aa9291906116ae565b6040516020818303038152906040529250816040516020016106cc9190611c68565b604051602081830303815290604052915080806106e890611707565b915050610611565b507fef9f64070c5c94fc344991c94cb7f5820c1fb8c9fa448e69a4be734288a1644460405161071e906117a8565b60405180910390a16040518060600160405280600115158152602001838152602001828152509350505050919050565b610756610e26565b5f808381526020019081526020015f206004015f9054906101000a900460ff166107b5576040517f08c379a00000000000000000000000000000000000000000000000000000000081526004016107ac90611c00565b60405180910390fd5b5f805f8481526020019081526020015f2090507f439aedebcdc35c8170cb744de81edb1979218095c66392eb713f5486de2b508a8382600301546040516107fd929190611c98565b60405180910390a16040518060c00160405280600115158152602001848152602001825f01805461082d906115ec565b80601f0160208091040260200160405190810160405280929190818152602001828054610859906115ec565b80156108a45780601f1061087b576101008083540402835291602001916108a4565b820191905f5260205f20905b81548152906001019060200180831161088757829003601f168201915b505050505081526020018260010180546108bd906115ec565b80601f01602080910402602001604051908101604052809291908181526020018280546108e9906115ec565b80156109345780601f1061090b57610100808354040283529160200191610934565b820191905f5260205f20905b81548152906001019060200180831161091757829003601f168201915b5050505050815260200182600201805461094d906115ec565b80601f0160208091040260200160405190810160405280929190818152602001828054610979906115ec565b80156109c45780601f1061099b576101008083540402835291602001916109c4565b820191905f5260205f20905b8154815290600101906020018083116109a757829003601f168201915b505050505081526020018260030154815250915050919050565b6109e6610e5e565b5f83836040516020016109fa929190611896565b6040516020818303038152906040528051906020012090505f60045f8381526020019081526020015f2090505f60405180602001604052805f81525090505f5b8280549050811015610ad5575f811115610a715781604051602001610a5f9190611571565b60405160208183030381529060405291505b815f80858481548110610a8757610a86611592565b5b905f5260205f20015481526020019081526020015f20600101604051602001610ab19291906116ae565b60405160208183030381529060405291508080610acd90611707565b915050610a3a565b507fae413620ab5ea638127be3b90b62231e19ed9f1455a8a8967865a6d975ea8428604051610b03906117a8565b60405180910390a1604051806040016040528060011515815260200182815250935050505092915050565b610b36610e79565b5f82604051602001610b489190611511565b6040516020818303038152906040528051906020012090505f60025f8381526020019081526020015f2090505f60405180602001604052805f81525090505f805b8380549050811015610d73575f805f868481548110610bab57610baa611592565b5b905f5260205f20015481526020019081526020015f2090505f8082600201604051602001610bd99190611cd2565b6040516020818303038152906040528051906020012090505f83600101604051602001610c069190611cd2565b604051602081830303815290604052805190602001209050808203610c2a57600192505b82610cf6575f5b8880549050811015610cf4575f60035f8b8481548110610c5457610c53611592565b5b905f5260205f20015481526020019081526020015f2090505f5b8180549050811015610cd3578a8881548110610c8d57610c8c611592565b5b905f5260205f200154828281548110610ca957610ca8611592565b5b905f5260205f20015403610cc05760019550610cd3565b8080610ccb90611707565b915050610c6e565b508415610ce05750610cf4565b508080610cec90611707565b915050610c31565b505b82610d5c575f861115610d265786604051602001610d149190611571565b60405160208183030381529060405296505b8684600101604051602001610d3c9291906116ae565b60405160208183030381529060405296508580610d5890611707565b9650505b505050508080610d6b90611707565b915050610b89565b507f540c0aa1dd65d269b467c444d5f43784d1981142678c0029b29f344c56c0f09b604051610da1906117a8565b60405180910390a1604051806040016040528060011515815260200183815250945050505050919050565b60405180604001604052805f15158152602001606081525090565b60405180604001604052805f151581526020015f80191681525090565b60405180606001604052805f1515815260200160608152602001606081525090565b6040518060c001604052805f151581526020015f80191681526020016060815260200160608152602001606081526020015f81525090565b60405180604001604052805f15158152602001606081525090565b60405180604001604052805f15158152602001606081525090565b5f604051905090565b5f80fd5b5f80fd5b5f80fd5b5f80fd5b5f601f19601f8301169050919050565b7f4e487b71000000000000000000000000000000000000000000000000000000005f52604160045260245ffd5b610ef382610ead565b810181811067ffffffffffffffff82111715610f1257610f11610ebd565b5b80604052505050565b5f610f24610e94565b9050610f308282610eea565b919050565b5f67ffffffffffffffff821115610f4f57610f4e610ebd565b5b610f5882610ead565b9050602081019050919050565b828183375f83830152505050565b5f610f85610f8084610f35565b610f1b565b905082815260208101848484011115610fa157610fa0610ea9565b5b610fac848285610f65565b509392505050565b5f82601f830112610fc857610fc7610ea5565b5b8135610fd8848260208601610f73565b91505092915050565b5f60208284031215610ff657610ff5610e9d565b5b5f82013567ffffffffffffffff81111561101357611012610ea1565b5b61101f84828501610fb4565b91505092915050565b5f8115159050919050565b61103c81611028565b82525050565b5f81519050919050565b5f82825260208201905092915050565b5f5b8381101561107957808201518184015260208101905061105e565b5f8484015250505050565b5f61108e82611042565b611098818561104c565b93506110a881856020860161105c565b6110b181610ead565b840191505092915050565b5f604083015f8301516110d15f860182611033565b50602083015184820360208601526110e98282611084565b9150508091505092915050565b5f6020820190508181035f83015261110e81846110bc565b905092915050565b5f805f6060848603121561112d5761112c610e9d565b5b5f84013567ffffffffffffffff81111561114a57611149610ea1565b5b61115686828701610fb4565b935050602084013567ffffffffffffffff81111561117757611176610ea1565b5b61118386828701610fb4565b925050604084013567ffffffffffffffff8111156111a4576111a3610ea1565b5b6111b086828701610fb4565b9150509250925092565b5f819050919050565b6111cc816111ba565b82525050565b604082015f8201516111e65f850182611033565b5060208201516111f960208501826111c3565b50505050565b5f6040820190506112125f8301846111d2565b92915050565b611221816111ba565b811461122b575f80fd5b50565b5f8135905061123c81611218565b92915050565b5f6020828403121561125757611256610e9d565b5b5f6112648482850161122e565b91505092915050565b5f606083015f8301516112825f860182611033565b506020830151848203602086015261129a8282611084565b915050604083015184820360408601526112b48282611084565b9150508091505092915050565b5f6020820190508181035f8301526112d9818461126d565b905092915050565b5f819050919050565b6112f3816112e1565b82525050565b5f60c083015f83015161130e5f860182611033565b50602083015161132160208601826111c3565b50604083015184820360408601526113398282611084565b915050606083015184820360608601526113538282611084565b9150506080830151848203608086015261136d8282611084565b91505060a083015161138260a08601826112ea565b508091505092915050565b5f6020820190508181035f8301526113a581846112f9565b905092915050565b5f80604083850312156113c3576113c2610e9d565b5b5f83013567ffffffffffffffff8111156113e0576113df610ea1565b5b6113ec85828601610fb4565b925050602083013567ffffffffffffffff81111561140d5761140c610ea1565b5b61141985828601610fb4565b9150509250929050565b5f604083015f8301516114385f860182611033565b50602083015184820360208601526114508282611084565b9150508091505092915050565b5f6020820190508181035f8301526114758184611423565b905092915050565b5f604083015f8301516114925f860182611033565b50602083015184820360208601526114aa8282611084565b9150508091505092915050565b5f6020820190508181035f8301526114cf818461147d565b905092915050565b5f81905092915050565b5f6114eb82611042565b6114f581856114d7565b935061150581856020860161105c565b80840191505092915050565b5f61151c82846114e1565b915081905092915050565b7f2c000000000000000000000000000000000000000000000000000000000000005f82015250565b5f61155b6001836114d7565b915061156682611527565b600182019050919050565b5f61157c82846114e1565b91506115878261154f565b915081905092915050565b7f4e487b71000000000000000000000000000000000000000000000000000000005f52603260045260245ffd5b7f4e487b71000000000000000000000000000000000000000000000000000000005f52602260045260245ffd5b5f600282049050600182168061160357607f821691505b602082108103611616576116156115bf565b5b50919050565b5f819050815f5260205f209050919050565b5f815461163a816115ec565b61164481866114d7565b9450600182165f811461165e5760018114611673576116a5565b60ff19831686528115158202860193506116a5565b61167c8561161c565b5f5b8381101561169d5781548189015260018201915060208101905061167e565b838801955050505b50505092915050565b5f6116b982856114e1565b91506116c5828461162e565b91508190509392505050565b7f4e487b71000000000000000000000000000000000000000000000000000000005f52601160045260245ffd5b5f819050919050565b5f611711826116fe565b91507fffffffffffffffffffffffffffffffffffffffffffffffffffffffffffffffff8203611743576117426116d1565b5b600182019050919050565b5f82825260208201905092915050565b7f6f6b0000000000000000000000000000000000000000000000000000000000005f82015250565b5f61179260028361174e565b915061179d8261175e565b602082019050919050565b5f6020820190508181035f8301526117bf81611786565b9050919050565b7f576964676574206d757374206e6f7420626520656d70747900000000000000005f82015250565b5f6117fa60188361174e565b9150611805826117c6565b602082019050919050565b5f6020820190508181035f830152611827816117ee565b9050919050565b7f4e616d65206d757374206e6f7420626520656d707479000000000000000000005f82015250565b5f61186260168361174e565b915061186d8261182e565b602082019050919050565b5f6020820190508181035f83015261188f81611856565b9050919050565b5f6118a182856114e1565b91506118ad82846114e1565b91508190509392505050565b7f57696467657420737461746520616c72656164792072656769737465726564005f82015250565b5f6118ed601f8361174e565b91506118f8826118b9565b602082019050919050565b5f6020820190508181035f83015261191a816118e1565b9050919050565b5f6020601f8301049050919050565b5f82821b905092915050565b5f6008830261196b7fffffffffffffffffffffffffffffffffffffffffffffffffffffffffffffffff82611930565b6119758683611930565b95508019841693508086168417925050509392505050565b5f819050919050565b5f6119b06119ab6119a6846116fe565b61198d565b6116fe565b9050919050565b5f819050919050565b6119c983611996565b6119dd6119d5826119b7565b84845461193c565b825550505050565b5f90565b6119f16119e5565b6119fc8184846119c0565b505050565b5b81811015611a1f57611a145f826119e9565b600181019050611a02565b5050565b601f821115611a6457611a358161161c565b611a3e84611921565b81016020851015611a4d578190505b611a61611a5985611921565b830182611a01565b50505b505050565b5f82821c905092915050565b5f611a845f1984600802611a69565b1980831691505092915050565b5f611a9c8383611a75565b9150826002028217905092915050565b611ab582611042565b67ffffffffffffffff811115611ace57611acd610ebd565b5b611ad882546115ec565b611ae3828285611a23565b5f60209050601f831160018114611b14575f8415611b02578287015190505b611b0c8582611a91565b865550611b73565b601f198416611b228661161c565b5f5b82811015611b4957848901518255600182019150602085019450602081019050611b24565b86831015611b665784890151611b62601f891682611a75565b8355505b6001600288020188555050505b505050505050565b611b84816111ba565b82525050565b5f6040820190508181035f830152611ba181611786565b9050611bb06020830184611b7b565b92915050565b7f576964676574207374617465206e6f7420666f756e64000000000000000000005f82015250565b5f611bea60168361174e565b9150611bf582611bb6565b602082019050919050565b5f6020820190508181035f830152611c1781611bde565b9050919050565b7f7472616e736974696f6e000000000000000000000000000000000000000000005f82015250565b5f611c52600a836114d7565b9150611c5d82611c1e565b600a82019050919050565b5f611c7382846114e1565b9150611c7e82611c46565b915081905092915050565b611c92816112e1565b82525050565b5f6060820190508181035f830152611caf81611786565b9050611cbe6020830185611b7b565b611ccb6040830184611c89565b9392505050565b5f611cdd828461162e565b91508190509291505056fea2646970667358221220597f22b821a987361573977a1f922343b2c6f45b4d5dde1451e976520cc7ef6264736f6c63430008140033","linkReferences":{}},"methodIdentifiers":{"findByWidget(string)":"327103d9","get(bytes32)":"8eaa6ac0","reachableFrom(bytes32)":"67def142","register(string,string,string)":"4cd08d03","traceEvent(string,string)":"962fbf50","unreachableStates(string)":"db1c8b50"},"id":344}