{"abi":[{"type":"function","name":"emitManifests","inputs":[{"name":"plan","type":"string","internalType":"string"},{"name":"repo","type":"string","internalType":"string"},{"name":"path","type":"string","internalType":"string"}],"outputs":[{"name":"","type":"tuple","internalType":"struct ArgoCDProvider.EmitOkResult","components":[{"name":"success","type":"bool","internalType":"bool"},{"name":"application","type":"bytes32","internalType":"bytes32"},{"name":"files","type":"string[]","internalType":"string[]"}]}],"stateMutability":"nonpayable"},{"type":"function","name":"reconciliationStatus","inputs":[{"name":"application","type":"bytes32","internalType":"bytes32"}],"outputs":[{"name":"","type":"tuple","internalType":"struct ArgoCDProvider.ReconciliationStatusOkResult","components":[{"name":"success","type":"bool","internalType":"bool"},{"name":"application","type":"bytes32","internalType":"bytes32"},{"name":"syncStatus","type":"string","internalType":"string"},{"name":"healthStatus","type":"string","internalType":"string"},{"name":"reconciledAt","type":"uint256","internalType":"uint256"}]}],"stateMutability":"nonpayable"},{"type":"function","name":"register","inputs":[],"outputs":[{"name":"name","type":"string","internalType":"string"},{"name":"category","type":"string","internalType":"string"},{"name":"capabilities","type":"string[]","internalType":"string[]"}],"stateMutability":"pure"},{"type":"function","name":"syncWave","inputs":[{"name":"application","type":"bytes32","internalType":"bytes32"},{"name":"wave","type":"int256","internalType":"int256"}],"outputs":[{"name":"","type":"tuple","internalType":"struct ArgoCDProvider.SyncWaveOkResult","components":[{"name":"success","type":"bool","internalType":"bool"},{"name":"application","type":"bytes32","internalType":"bytes32"}]}],"stateMutability":"nonpayable"},{"type":"event","name":"EmitCompleted","inputs":[{"name":"variant","type":"string","indexed":false,"internalType":"string"},{"name":"application","type":"bytes32","indexed":false,"internalType":"bytes32"},{"name":"files","type":"string[]","indexed":false,"internalType":"string[]"}],"anonymous":false},{"type":"event","name":"ReconciliationStatusCompleted","inputs":[{"name":"variant","type":"string","indexed":false,"internalType":"string"},{"name":"application","type":"bytes32","indexed":false,"internalType":"bytes32"},{"name":"reconciledAt","type":"uint256","indexed":false,"internalType":"uint256"},{"name":"waitingOn","type":"string[]","indexed":false,"internalType":"string[]"},{"name":"unhealthyResources","type":"string[]","indexed":false,"internalType":"string[]"}],"anonymous":false},{"type":"event","name":"SyncWaveCompleted","inputs":[{"name":"variant","type":"string","indexed":false,"internalType":"string"},{"name":"application","type":"bytes32","indexed":false,"internalType":"bytes32"}],"anonymous":false}],"bytecode":{"object":"0x608060405234801561000f575f80fd5b506116128061001d5f395ff3fe608060405234801561000f575f80fd5b506004361061004a575f3560e01c80631aa3a0081461004e5780634b8bd9e11461006e578063bcd7d46e1461009e578063cd4d54f2146100ce575b5f80fd5b6100566100fe565b604051610065939291906109c8565b60405180910390f35b61008860048036038101906100839190610a56565b6102c7565b6040516100959190610b3c565b60405180910390f35b6100b860048036038101906100b39190610c88565b610456565b6040516100c59190610dfc565b60405180910390f35b6100e860048036038101906100e39190610e4f565b6106f7565b6040516100f59190610eba565b60405180910390f35b60608060606040518060400160405280600681526020017f6172676f6364000000000000000000000000000000000000000000000000000081525092506040518060400160405280600681526020017f6769746f707300000000000000000000000000000000000000000000000000008152509150600367ffffffffffffffff81111561018e5761018d610b64565b5b6040519080825280602002602001820160405280156101c157816020015b60608152602001906001900390816101ac5790505b5090506040518060400160405280600481526020017f656d697400000000000000000000000000000000000000000000000000000000815250815f8151811061020d5761020c610ed3565b5b60200260200101819052506040518060400160405280601481526020017f7265636f6e63696c696174696f6e5374617475730000000000000000000000008152508160018151811061026257610261610ed3565b5b60200260200101819052506040518060400160405280600881526020017f73796e6357617665000000000000000000000000000000000000000000000000815250816002815181106102b7576102b6610ed3565b5b6020026020010181905250909192565b6102cf6107c9565b60015f8381526020019081526020015f205f9054906101000a900460ff1661032c576040517f08c379a000000000000000000000000000000000000000000000000000000000815260040161032390610f4a565b60405180910390fd5b5f8067ffffffffffffffff81111561034757610346610b64565b5b60405190808252806020026020018201604052801561037a57816020015b60608152602001906001900390816103655790505b5090507f2f72ec37ac1035c35873ba84fc549b2222df33852c5c1d1ebe54910affe8b934834283846040516103b29493929190610fd0565b60405180910390a16040518060a001604052806001151581526020018481526020016040518060400160405280600681526020017f53796e636564000000000000000000000000000000000000000000000000000081525081526020016040518060400160405280600781526020017f4865616c74687900000000000000000000000000000000000000000000000000815250815260200142815250915050919050565b61045e6107fa565b5f8451116104a1576040517f08c379a00000000000000000000000000000000000000000000000000000000081526004016104989061107e565b60405180910390fd5b5f8351116104e4576040517f08c379a00000000000000000000000000000000000000000000000000000000081526004016104db906110e6565b60405180910390fd5b5f8484846040516020016104fa9392919061113e565b60405160208183030381529060405280519060200120905084848442604051602001610529949392919061116e565b6040516020818303038152906040525f808381526020019081526020015f20908161055491906113ca565b5060015f8281526020019081526020015f205f9054906101000a900460ff166105c6576001805f8381526020019081526020015f205f6101000a81548160ff021916908315150217905550600281908060018154018082558091505060019003905f5260205f20015f90919091909150555b5f600267ffffffffffffffff8111156105e2576105e1610b64565b5b60405190808252806020026020018201604052801561061557816020015b60608152602001906001900390816106005790505b5090508360405160200161062991906114e3565b604051602081830303815290604052815f8151811061064b5761064a610ed3565b5b602002602001018190525083604051602001610667919061154e565b6040516020818303038152906040528160018151811061068a57610689610ed3565b5b60200260200101819052507fce30f66e6f64f7356dddc8155992ed0be062c00d5c543b668ee829db6e114e8c82826040516106c692919061156f565b60405180910390a1604051806060016040528060011515815260200183815260200182815250925050509392505050565b6106ff61081e565b60015f8481526020019081526020015f205f9054906101000a900460ff1661075c576040517f08c379a000000000000000000000000000000000000000000000000000000000815260040161075390610f4a565b60405180910390fd5b8160035f8581526020019081526020015f20819055507f78b6444f69c71cb6b9b3465b5c001fb427645b616923f4835ccf434cfb592eb7836040516107a191906115b0565b60405180910390a1604051806040016040528060011515815260200184815250905092915050565b6040518060a001604052805f151581526020015f801916815260200160608152602001606081526020015f81525090565b60405180606001604052805f151581526020015f8019168152602001606081525090565b60405180604001604052805f151581526020015f80191681525090565b5f81519050919050565b5f82825260208201905092915050565b5f5b83811015610872578082015181840152602081019050610857565b5f8484015250505050565b5f601f19601f8301169050919050565b5f6108978261083b565b6108a18185610845565b93506108b1818560208601610855565b6108ba8161087d565b840191505092915050565b5f81519050919050565b5f82825260208201905092915050565b5f819050602082019050919050565b5f82825260208201905092915050565b5f6109088261083b565b61091281856108ee565b9350610922818560208601610855565b61092b8161087d565b840191505092915050565b5f61094183836108fe565b905092915050565b5f602082019050919050565b5f61095f826108c5565b61096981856108cf565b93508360208202850161097b856108df565b805f5b858110156109b657848403895281516109978582610936565b94506109a283610949565b925060208a0199505060018101905061097e565b50829750879550505050505092915050565b5f6060820190508181035f8301526109e0818661088d565b905081810360208301526109f4818561088d565b90508181036040830152610a088184610955565b9050949350505050565b5f604051905090565b5f80fd5b5f80fd5b5f819050919050565b610a3581610a23565b8114610a3f575f80fd5b50565b5f81359050610a5081610a2c565b92915050565b5f60208284031215610a6b57610a6a610a1b565b5b5f610a7884828501610a42565b91505092915050565b5f8115159050919050565b610a9581610a81565b82525050565b610aa481610a23565b82525050565b5f819050919050565b610abc81610aaa565b82525050565b5f60a083015f830151610ad75f860182610a8c565b506020830151610aea6020860182610a9b565b5060408301518482036040860152610b0282826108fe565b91505060608301518482036060860152610b1c82826108fe565b9150506080830151610b316080860182610ab3565b508091505092915050565b5f6020820190508181035f830152610b548184610ac2565b905092915050565b5f80fd5b5f80fd5b7f4e487b71000000000000000000000000000000000000000000000000000000005f52604160045260245ffd5b610b9a8261087d565b810181811067ffffffffffffffff82111715610bb957610bb8610b64565b5b80604052505050565b5f610bcb610a12565b9050610bd78282610b91565b919050565b5f67ffffffffffffffff821115610bf657610bf5610b64565b5b610bff8261087d565b9050602081019050919050565b828183375f83830152505050565b5f610c2c610c2784610bdc565b610bc2565b905082815260208101848484011115610c4857610c47610b60565b5b610c53848285610c0c565b509392505050565b5f82601f830112610c6f57610c6e610b5c565b5b8135610c7f848260208601610c1a565b91505092915050565b5f805f60608486031215610c9f57610c9e610a1b565b5b5f84013567ffffffffffffffff811115610cbc57610cbb610a1f565b5b610cc886828701610c5b565b935050602084013567ffffffffffffffff811115610ce957610ce8610a1f565b5b610cf586828701610c5b565b925050604084013567ffffffffffffffff811115610d1657610d15610a1f565b5b610d2286828701610c5b565b9150509250925092565b5f82825260208201905092915050565b5f610d46826108c5565b610d508185610d2c565b935083602082028501610d62856108df565b805f5b85811015610d9d5784840389528151610d7e8582610936565b9450610d8983610949565b925060208a01995050600181019050610d65565b50829750879550505050505092915050565b5f606083015f830151610dc45f860182610a8c565b506020830151610dd76020860182610a9b565b5060408301518482036040860152610def8282610d3c565b9150508091505092915050565b5f6020820190508181035f830152610e148184610daf565b905092915050565b5f819050919050565b610e2e81610e1c565b8114610e38575f80fd5b50565b5f81359050610e4981610e25565b92915050565b5f8060408385031215610e6557610e64610a1b565b5b5f610e7285828601610a42565b9250506020610e8385828601610e3b565b9150509250929050565b604082015f820151610ea15f850182610a8c565b506020820151610eb46020850182610a9b565b50505050565b5f604082019050610ecd5f830184610e8d565b92915050565b7f4e487b71000000000000000000000000000000000000000000000000000000005f52603260045260245ffd5b7f4170706c69636174696f6e206e6f7420666f756e6400000000000000000000005f82015250565b5f610f34601583610845565b9150610f3f82610f00565b602082019050919050565b5f6020820190508181035f830152610f6181610f28565b9050919050565b7f6f6b0000000000000000000000000000000000000000000000000000000000005f82015250565b5f610f9c600283610845565b9150610fa782610f68565b602082019050919050565b610fbb81610a23565b82525050565b610fca81610aaa565b82525050565b5f60a0820190508181035f830152610fe781610f90565b9050610ff66020830187610fb2565b6110036040830186610fc1565b81810360608301526110158185610955565b905081810360808301526110298184610955565b905095945050505050565b7f506c616e206d757374206e6f7420626520656d707479000000000000000000005f82015250565b5f611068601683610845565b915061107382611034565b602082019050919050565b5f6020820190508181035f8301526110958161105c565b9050919050565b7f5265706f206d757374206e6f7420626520656d707479000000000000000000005f82015250565b5f6110d0601683610845565b91506110db8261109c565b602082019050919050565b5f6020820190508181035f8301526110fd816110c4565b9050919050565b5f81905092915050565b5f6111188261083b565b6111228185611104565b9350611132818560208601610855565b80840191505092915050565b5f611149828661110e565b9150611155828561110e565b9150611161828461110e565b9150819050949350505050565b5f6080820190508181035f830152611186818761088d565b9050818103602083015261119a818661088d565b905081810360408301526111ae818561088d565b90506111bd6060830184610fc1565b95945050505050565b5f81519050919050565b7f4e487b71000000000000000000000000000000000000000000000000000000005f52602260045260245ffd5b5f600282049050600182168061121457607f821691505b602082108103611227576112266111d0565b5b50919050565b5f819050815f5260205f209050919050565b5f6020601f8301049050919050565b5f82821b905092915050565b5f600883026112897fffffffffffffffffffffffffffffffffffffffffffffffffffffffffffffffff8261124e565b611293868361124e565b95508019841693508086168417925050509392505050565b5f819050919050565b5f6112ce6112c96112c484610aaa565b6112ab565b610aaa565b9050919050565b5f819050919050565b6112e7836112b4565b6112fb6112f3826112d5565b84845461125a565b825550505050565b5f90565b61130f611303565b61131a8184846112de565b505050565b5b8181101561133d576113325f82611307565b600181019050611320565b5050565b601f821115611382576113538161122d565b61135c8461123f565b8101602085101561136b578190505b61137f6113778561123f565b83018261131f565b50505b505050565b5f82821c905092915050565b5f6113a25f1984600802611387565b1980831691505092915050565b5f6113ba8383611393565b9150826002028217905092915050565b6113d3826111c6565b67ffffffffffffffff8111156113ec576113eb610b64565b5b6113f682546111fd565b611401828285611341565b5f60209050601f831160018114611432575f8415611420578287015190505b61142a85826113af565b865550611491565b601f1984166114408661122d565b5f5b8281101561146757848901518255600182019150602085019450602081019050611442565b868310156114845784890151611480601f891682611393565b8355505b6001600288020188555050505b505050505050565b7f2f6170706c69636174696f6e2e79616d6c0000000000000000000000000000005f82015250565b5f6114cd601183611104565b91506114d882611499565b601182019050919050565b5f6114ee828461110e565b91506114f9826114c1565b915081905092915050565b7f2f6b7573746f6d697a6174696f6e2e79616d6c000000000000000000000000005f82015250565b5f611538601383611104565b915061154382611504565b601382019050919050565b5f611559828461110e565b91506115648261152c565b915081905092915050565b5f6060820190508181035f83015261158681610f90565b90506115956020830185610fb2565b81810360408301526115a78184610955565b90509392505050565b5f6040820190508181035f8301526115c781610f90565b90506115d66020830184610fb2565b9291505056fea2646970667358221220476cef819f8bd5077664996d273cf295e01a4ba69b3c9a6c63680e6f7511426e64736f6c63430008140033","linkReferences":{}},"methodIdentifiers":{"emitManifests(string,string,string)":"bcd7d46e","reconciliationStatus(bytes32)":"4b8bd9e1","register()":"1aa3a008","syncWave(bytes32,int256)":"cd4d54f2"},"id":31}