{"abi":[{"type":"function","name":"acceptSuggestion","inputs":[{"name":"itemId","type":"bytes32","internalType":"bytes32"},{"name":"suggestionId","type":"bytes32","internalType":"bytes32"}],"outputs":[],"stateMutability":"nonpayable"},{"type":"function","name":"captureFreeform","inputs":[{"name":"content","type":"string","internalType":"string"}],"outputs":[{"name":"itemId","type":"bytes32","internalType":"bytes32"}],"stateMutability":"nonpayable"},{"type":"function","name":"detectStructure","inputs":[{"name":"itemId","type":"bytes32","internalType":"bytes32"}],"outputs":[{"name":"count","type":"uint256","internalType":"uint256"}],"stateMutability":"nonpayable"},{"type":"function","name":"getItem","inputs":[{"name":"itemId","type":"bytes32","internalType":"bytes32"}],"outputs":[{"name":"","type":"tuple","internalType":"struct ProgressiveSchema.SchemaItem","components":[{"name":"content","type":"string","internalType":"string"},{"name":"formality","type":"uint8","internalType":"uint8"},{"name":"schema","type":"string","internalType":"string"},{"name":"suggestionCount","type":"uint256","internalType":"uint256"},{"name":"exists","type":"bool","internalType":"bool"}]}],"stateMutability":"view"},{"type":"function","name":"getSuggestion","inputs":[{"name":"itemId","type":"bytes32","internalType":"bytes32"},{"name":"suggestionId","type":"bytes32","internalType":"bytes32"}],"outputs":[{"name":"","type":"tuple","internalType":"struct ProgressiveSchema.Suggestion","components":[{"name":"itemId","type":"bytes32","internalType":"bytes32"},{"name":"detectedSchema","type":"string","internalType":"string"},{"name":"fieldMapping","type":"string","internalType":"string"},{"name":"accepted","type":"bool","internalType":"bool"},{"name":"rejected","type":"bool","internalType":"bool"},{"name":"exists","type":"bool","internalType":"bool"}]}],"stateMutability":"view"},{"type":"function","name":"itemExists","inputs":[{"name":"itemId","type":"bytes32","internalType":"bytes32"}],"outputs":[{"name":"","type":"bool","internalType":"bool"}],"stateMutability":"view"},{"type":"function","name":"promote","inputs":[{"name":"itemId","type":"bytes32","internalType":"bytes32"},{"name":"targetSchema","type":"string","internalType":"string"}],"outputs":[],"stateMutability":"nonpayable"},{"type":"function","name":"rejectSuggestion","inputs":[{"name":"itemId","type":"bytes32","internalType":"bytes32"},{"name":"suggestionId","type":"bytes32","internalType":"bytes32"}],"outputs":[],"stateMutability":"nonpayable"},{"type":"event","name":"FreeformCaptured","inputs":[{"name":"itemId","type":"bytes32","indexed":true,"internalType":"bytes32"}],"anonymous":false},{"type":"event","name":"ItemPromoted","inputs":[{"name":"itemId","type":"bytes32","indexed":true,"internalType":"bytes32"},{"name":"targetSchema","type":"string","indexed":false,"internalType":"string"}],"anonymous":false},{"type":"event","name":"StructureDetected","inputs":[{"name":"itemId","type":"bytes32","indexed":true,"internalType":"bytes32"},{"name":"suggestionCount","type":"uint256","indexed":false,"internalType":"uint256"}],"anonymous":false},{"type":"event","name":"SuggestionAccepted","inputs":[{"name":"itemId","type":"bytes32","indexed":true,"internalType":"bytes32"},{"name":"suggestionId","type":"bytes32","indexed":true,"internalType":"bytes32"}],"anonymous":false},{"type":"event","name":"SuggestionRejected","inputs":[{"name":"itemId","type":"bytes32","indexed":true,"internalType":"bytes32"},{"name":"suggestionId","type":"bytes32","indexed":true,"internalType":"bytes32"}],"anonymous":false}],"bytecode":{"object":"0x608060405234801561000f575f80fd5b50611c568061001d5f395ff3fe608060405234801561000f575f80fd5b5060043610610086575f3560e01c8063aa0372e711610059578063aa0372e71461010e578063b5133ad11461013e578063ef78ad9a1461016e578063f67fca581461019e57610086565b80630dd5d4bf1461008a57806338829180146100ba5780634e99ad57146100d65780638a89c551146100f2575b5f80fd5b6100a4600480360381019061009f919061102a565b6101ce565b6040516100b1919061106d565b60405180910390f35b6100d460048036038101906100cf9190611086565b6103f5565b005b6100f060048036038101906100eb9190611086565b61063d565b005b61010c60048036038101906101079190611125565b61085a565b005b6101286004803603810190610123919061102a565b61098c565b60405161013591906112ca565b60405180910390f35b61015860048036038101906101539190611086565b610b74565b6040516101659190611386565b60405180910390f35b6101886004803603810190610183919061102a565b610d98565b60405161019591906113b5565b60405180910390f35b6101b860048036038101906101b391906113ce565b610dc0565b6040516101c59190611428565b60405180910390f35b5f805f8381526020019081526020015f206004015f9054906101000a900460ff1661022e576040517f08c379a00000000000000000000000000000000000000000000000000000000081526004016102259061149b565b60405180910390fd5b5f808381526020019081526020015f206003015f815480929190610251906114e6565b91905055505f808381526020019081526020015f2060030154905060035f81548092919061027e906114e6565b91905055505f8260035460405160200161029992919061156d565b6040516020818303038152906040528051906020012090506040518060c0016040528084815260200160405180602001604052805f815250815260200160405180602001604052805f81525081526020015f151581526020015f151581526020016001151581525060015f8581526020019081526020015f205f8381526020019081526020015f205f820151815f0155602082015181600101908161033e91906117bf565b50604082015181600201908161035491906117bf565b506060820151816003015f6101000a81548160ff02191690831515021790555060808201518160030160016101000a81548160ff02191690831515021790555060a08201518160030160026101000a81548160ff021916908315150217905550905050827fd88889e07eca4d59353bca164787845bf8571e7a749909492c8d156597e679c3836040516103e7919061106d565b60405180910390a250919050565b5f808381526020019081526020015f206004015f9054906101000a900460ff16610454576040517f08c379a000000000000000000000000000000000000000000000000000000000815260040161044b9061149b565b60405180910390fd5b60015f8381526020019081526020015f205f8281526020019081526020015f2060030160029054906101000a900460ff166104c4576040517f08c379a00000000000000000000000000000000000000000000000000000000081526004016104bb906118d8565b60405180910390fd5b60015f8381526020019081526020015f205f8281526020019081526020015f206003015f9054906101000a900460ff1615610534576040517f08c379a000000000000000000000000000000000000000000000000000000000815260040161052b90611940565b60405180910390fd5b60015f8381526020019081526020015f205f8281526020019081526020015f2060030160019054906101000a900460ff16156105a5576040517f08c379a000000000000000000000000000000000000000000000000000000000815260040161059c906119a8565b60405180910390fd5b6001805f8481526020019081526020015f205f8381526020019081526020015f206003015f6101000a81548160ff02191690831515021790555060015f808481526020019081526020015f206001015f6101000a81548160ff021916908360ff16021790555080827f614d96c75f30cd6e4a34808e7e7b15a8b20bff5cc27509886976d3209394238a60405160405180910390a35050565b5f808381526020019081526020015f206004015f9054906101000a900460ff1661069c576040517f08c379a00000000000000000000000000000000000000000000000000000000081526004016106939061149b565b60405180910390fd5b60015f8381526020019081526020015f205f8281526020019081526020015f2060030160029054906101000a900460ff1661070c576040517f08c379a0000000000000000000000000000000000000000000000000000000008152600401610703906118d8565b60405180910390fd5b60015f8381526020019081526020015f205f8281526020019081526020015f206003015f9054906101000a900460ff161561077c576040517f08c379a000000000000000000000000000000000000000000000000000000000815260040161077390611940565b60405180910390fd5b60015f8381526020019081526020015f205f8281526020019081526020015f2060030160019054906101000a900460ff16156107ed576040517f08c379a00000000000000000000000000000000000000000000000000000000081526004016107e4906119a8565b60405180910390fd5b6001805f8481526020019081526020015f205f8381526020019081526020015f2060030160016101000a81548160ff02191690831515021790555080827f10177a2def5075c7e403b728ab554f88ef2efda2fd41662c3cd7a00acd2b9c3560405160405180910390a35050565b5f808481526020019081526020015f206004015f9054906101000a900460ff166108b9576040517f08c379a00000000000000000000000000000000000000000000000000000000081526004016108b09061149b565b60405180910390fd5b5f82829050116108fe576040517f08c379a00000000000000000000000000000000000000000000000000000000081526004016108f590611a10565b60405180910390fd5b81815f808681526020019081526020015f206002019182610920929190611a38565b5060025f808581526020019081526020015f206001015f6101000a81548160ff021916908360ff160217905550827fc3cf8f5e3da21c0ec6de4bfc0455e883b1e08eda963fc73f650040098d186894838360405161097f929190611b3f565b60405180910390a2505050565b610994610f83565b5f808381526020019081526020015f206004015f9054906101000a900460ff166109f3576040517f08c379a00000000000000000000000000000000000000000000000000000000081526004016109ea9061149b565b60405180910390fd5b5f808381526020019081526020015f206040518060a00160405290815f82018054610a1d906115f2565b80601f0160208091040260200160405190810160405280929190818152602001828054610a49906115f2565b8015610a945780601f10610a6b57610100808354040283529160200191610a94565b820191905f5260205f20905b815481529060010190602001808311610a7757829003601f168201915b50505050508152602001600182015f9054906101000a900460ff1660ff1660ff168152602001600282018054610ac9906115f2565b80601f0160208091040260200160405190810160405280929190818152602001828054610af5906115f2565b8015610b405780601f10610b1757610100808354040283529160200191610b40565b820191905f5260205f20905b815481529060010190602001808311610b2357829003601f168201915b5050505050815260200160038201548152602001600482015f9054906101000a900460ff1615151515815250509050919050565b610b7c610fb4565b60015f8481526020019081526020015f205f8381526020019081526020015f2060030160029054906101000a900460ff16610bec576040517f08c379a0000000000000000000000000000000000000000000000000000000008152600401610be3906118d8565b60405180910390fd5b60015f8481526020019081526020015f205f8381526020019081526020015f206040518060c00160405290815f8201548152602001600182018054610c30906115f2565b80601f0160208091040260200160405190810160405280929190818152602001828054610c5c906115f2565b8015610ca75780601f10610c7e57610100808354040283529160200191610ca7565b820191905f5260205f20905b815481529060010190602001808311610c8a57829003601f168201915b50505050508152602001600282018054610cc0906115f2565b80601f0160208091040260200160405190810160405280929190818152602001828054610cec906115f2565b8015610d375780601f10610d0e57610100808354040283529160200191610d37565b820191905f5260205f20905b815481529060010190602001808311610d1a57829003601f168201915b50505050508152602001600382015f9054906101000a900460ff161515151581526020016003820160019054906101000a900460ff161515151581526020016003820160029054906101000a900460ff161515151581525050905092915050565b5f805f8381526020019081526020015f206004015f9054906101000a900460ff169050919050565b5f808383905011610e06576040517f08c379a0000000000000000000000000000000000000000000000000000000008152600401610dfd90611bab565b60405180910390fd5b60025f815480929190610e18906114e6565b91905055508282600254604051602001610e3493929190611bf7565b6040516020818303038152906040528051906020012090506040518060a0016040528084848080601f0160208091040260200160405190810160405280939291908181526020018383808284375f81840152601f19601f8201169050808301925050505050505081526020015f60ff16815260200160405180602001604052805f81525081526020015f8152602001600115158152505f808381526020019081526020015f205f820151815f019081610eed91906117bf565b506020820151816001015f6101000a81548160ff021916908360ff1602179055506040820151816002019081610f2391906117bf565b50606082015181600301556080820151816004015f6101000a81548160ff021916908315150217905550905050807f50f7157db203062270a01d00ca8fdbd0c28b284737b2cccaa3175a925dcc827b60405160405180910390a292915050565b6040518060a00160405280606081526020015f60ff168152602001606081526020015f81526020015f151581525090565b6040518060c001604052805f801916815260200160608152602001606081526020015f151581526020015f151581526020015f151581525090565b5f80fd5b5f80fd5b5f819050919050565b61100981610ff7565b8114611013575f80fd5b50565b5f8135905061102481611000565b92915050565b5f6020828403121561103f5761103e610fef565b5b5f61104c84828501611016565b91505092915050565b5f819050919050565b61106781611055565b82525050565b5f6020820190506110805f83018461105e565b92915050565b5f806040838503121561109c5761109b610fef565b5b5f6110a985828601611016565b92505060206110ba85828601611016565b9150509250929050565b5f80fd5b5f80fd5b5f80fd5b5f8083601f8401126110e5576110e46110c4565b5b8235905067ffffffffffffffff811115611102576111016110c8565b5b60208301915083600182028301111561111e5761111d6110cc565b5b9250929050565b5f805f6040848603121561113c5761113b610fef565b5b5f61114986828701611016565b935050602084013567ffffffffffffffff81111561116a57611169610ff3565b5b611176868287016110d0565b92509250509250925092565b5f81519050919050565b5f82825260208201905092915050565b5f5b838110156111b957808201518184015260208101905061119e565b5f8484015250505050565b5f601f19601f8301169050919050565b5f6111de82611182565b6111e8818561118c565b93506111f881856020860161119c565b611201816111c4565b840191505092915050565b5f60ff82169050919050565b6112218161120c565b82525050565b61123081611055565b82525050565b5f8115159050919050565b61124a81611236565b82525050565b5f60a083015f8301518482035f86015261126a82826111d4565b915050602083015161127f6020860182611218565b506040830151848203604086015261129782826111d4565b91505060608301516112ac6060860182611227565b5060808301516112bf6080860182611241565b508091505092915050565b5f6020820190508181035f8301526112e28184611250565b905092915050565b6112f381610ff7565b82525050565b5f60c083015f83015161130e5f8601826112ea565b506020830151848203602086015261132682826111d4565b9150506040830151848203604086015261134082826111d4565b91505060608301516113556060860182611241565b5060808301516113686080860182611241565b5060a083015161137b60a0860182611241565b508091505092915050565b5f6020820190508181035f83015261139e81846112f9565b905092915050565b6113af81611236565b82525050565b5f6020820190506113c85f8301846113a6565b92915050565b5f80602083850312156113e4576113e3610fef565b5b5f83013567ffffffffffffffff81111561140157611400610ff3565b5b61140d858286016110d0565b92509250509250929050565b61142281610ff7565b82525050565b5f60208201905061143b5f830184611419565b92915050565b5f82825260208201905092915050565b7f4974656d206e6f7420666f756e640000000000000000000000000000000000005f82015250565b5f611485600e83611441565b915061149082611451565b602082019050919050565b5f6020820190508181035f8301526114b281611479565b9050919050565b7f4e487b71000000000000000000000000000000000000000000000000000000005f52601160045260245ffd5b5f6114f082611055565b91507fffffffffffffffffffffffffffffffffffffffffffffffffffffffffffffffff8203611522576115216114b9565b5b600182019050919050565b5f819050919050565b61154761154282610ff7565b61152d565b82525050565b5f819050919050565b61156761156282611055565b61154d565b82525050565b5f6115788285611536565b6020820191506115888284611556565b6020820191508190509392505050565b7f4e487b71000000000000000000000000000000000000000000000000000000005f52604160045260245ffd5b7f4e487b71000000000000000000000000000000000000000000000000000000005f52602260045260245ffd5b5f600282049050600182168061160957607f821691505b60208210810361161c5761161b6115c5565b5b50919050565b5f819050815f5260205f209050919050565b5f6020601f8301049050919050565b5f82821b905092915050565b5f6008830261167e7fffffffffffffffffffffffffffffffffffffffffffffffffffffffffffffffff82611643565b6116888683611643565b95508019841693508086168417925050509392505050565b5f819050919050565b5f6116c36116be6116b984611055565b6116a0565b611055565b9050919050565b5f819050919050565b6116dc836116a9565b6116f06116e8826116ca565b84845461164f565b825550505050565b5f90565b6117046116f8565b61170f8184846116d3565b505050565b5b81811015611732576117275f826116fc565b600181019050611715565b5050565b601f8211156117775761174881611622565b61175184611634565b81016020851015611760578190505b61177461176c85611634565b830182611714565b50505b505050565b5f82821c905092915050565b5f6117975f198460080261177c565b1980831691505092915050565b5f6117af8383611788565b9150826002028217905092915050565b6117c882611182565b67ffffffffffffffff8111156117e1576117e0611598565b5b6117eb82546115f2565b6117f6828285611736565b5f60209050601f831160018114611827575f8415611815578287015190505b61181f85826117a4565b865550611886565b601f19841661183586611622565b5f5b8281101561185c57848901518255600182019150602085019450602081019050611837565b868310156118795784890151611875601f891682611788565b8355505b6001600288020188555050505b505050505050565b7f53756767657374696f6e206e6f7420666f756e640000000000000000000000005f82015250565b5f6118c2601483611441565b91506118cd8261188e565b602082019050919050565b5f6020820190508181035f8301526118ef816118b6565b9050919050565b7f53756767657374696f6e20616c726561647920616363657074656400000000005f82015250565b5f61192a601b83611441565b9150611935826118f6565b602082019050919050565b5f6020820190508181035f8301526119578161191e565b9050919050565b7f53756767657374696f6e20616c72656164792072656a656374656400000000005f82015250565b5f611992601b83611441565b915061199d8261195e565b602082019050919050565b5f6020820190508181035f8301526119bf81611986565b9050919050565b7f54617267657420736368656d612063616e6e6f7420626520656d7074790000005f82015250565b5f6119fa601d83611441565b9150611a05826119c6565b602082019050919050565b5f6020820190508181035f830152611a27816119ee565b9050919050565b5f82905092915050565b611a428383611a2e565b67ffffffffffffffff811115611a5b57611a5a611598565b5b611a6582546115f2565b611a70828285611736565b5f601f831160018114611a9d575f8415611a8b578287013590505b611a9585826117a4565b865550611afc565b601f198416611aab86611622565b5f5b82811015611ad257848901358255600182019150602085019450602081019050611aad565b86831015611aef5784890135611aeb601f891682611788565b8355505b6001600288020188555050505b50505050505050565b828183375f83830152505050565b5f611b1e8385611441565b9350611b2b838584611b05565b611b34836111c4565b840190509392505050565b5f6020820190508181035f830152611b58818486611b13565b90509392505050565b7f436f6e74656e742063616e6e6f7420626520656d7074790000000000000000005f82015250565b5f611b95601783611441565b9150611ba082611b61565b602082019050919050565b5f6020820190508181035f830152611bc281611b89565b9050919050565b5f81905092915050565b5f611bde8385611bc9565b9350611beb838584611b05565b82840190509392505050565b5f611c03828587611bd3565b9150611c0f8284611556565b60208201915081905094935050505056fea26469706673582212200c946c0b1ee66fec0c0017f64cb39c006edfebe49c5ef6df100a12b6d347ef9064736f6c63430008140033","linkReferences":{}},"methodIdentifiers":{"acceptSuggestion(bytes32,bytes32)":"38829180","captureFreeform(string)":"f67fca58","detectStructure(bytes32)":"0dd5d4bf","getItem(bytes32)":"aa0372e7","getSuggestion(bytes32,bytes32)":"b5133ad1","itemExists(bytes32)":"ef78ad9a","promote(bytes32,string)":"8a89c551","rejectSuggestion(bytes32,bytes32)":"4e99ad57"},"id":200}