{"abi":[{"type":"function","name":"fetch","inputs":[{"name":"name","type":"string","internalType":"string"}],"outputs":[{"name":"","type":"tuple","internalType":"struct EnvProvider.FetchOkResult","components":[{"name":"success","type":"bool","internalType":"bool"},{"name":"value","type":"string","internalType":"string"}]}],"stateMutability":"nonpayable"},{"type":"function","name":"register","inputs":[],"outputs":[{"name":"name","type":"string","internalType":"string"},{"name":"category","type":"string","internalType":"string"},{"name":"capabilities","type":"string[]","internalType":"string[]"}],"stateMutability":"pure"},{"type":"event","name":"FetchCompleted","inputs":[{"name":"variant","type":"string","indexed":false,"internalType":"string"}],"anonymous":false}],"bytecode":{"object":"0x608060405234801561000f575f80fd5b50610bb58061001d5f395ff3fe608060405234801561000f575f80fd5b5060043610610034575f3560e01c80631aa3a00814610038578063d246d0b914610058575b5f80fd5b610040610088565b60405161004f939291906104d7565b60405180910390f35b610072600480360381019061006d919061065e565b6101a7565b60405161007f91906106f9565b60405180910390f35b60608060606040518060400160405280600c81526020017f656e762d70726f7669646572000000000000000000000000000000000000000081525092506040518060400160405280600381526020017f656e7600000000000000000000000000000000000000000000000000000000008152509150600167ffffffffffffffff8111156101185761011761053a565b5b60405190808252806020026020018201604052801561014b57816020015b60608152602001906001900390816101365790505b5090506040518060400160405280600581526020017f6665746368000000000000000000000000000000000000000000000000000000815250815f8151811061019757610196610719565b5b6020026020010181905250909192565b6101af61032f565b5f8251116101f2576040517f08c379a00000000000000000000000000000000000000000000000000000000081526004016101e990610790565b60405180910390fd5b5f8260405160200161020491906107e8565b604051602081830303815290604052805190602001209050824260405160200161022f929190610816565b6040516020818303038152906040525f808381526020019081526020015f20908161025a9190610a48565b5060015f8281526020019081526020015f205f9054906101000a900460ff166102cc576001805f8381526020019081526020015f205f6101000a81548160ff021916908315150217905550600281908060018154018082558091505060019003905f5260205f20015f90919091909150555b7f1d1ab172d474a1b75efa42e5c9b0a44ff06885185f7f51268df2f36f30ebbc306040516102f990610b61565b60405180910390a1604051806040016040528060011515815260200160405180602001604052805f815250815250915050919050565b60405180604001604052805f15158152602001606081525090565b5f81519050919050565b5f82825260208201905092915050565b5f5b83811015610381578082015181840152602081019050610366565b5f8484015250505050565b5f601f19601f8301169050919050565b5f6103a68261034a565b6103b08185610354565b93506103c0818560208601610364565b6103c98161038c565b840191505092915050565b5f81519050919050565b5f82825260208201905092915050565b5f819050602082019050919050565b5f82825260208201905092915050565b5f6104178261034a565b61042181856103fd565b9350610431818560208601610364565b61043a8161038c565b840191505092915050565b5f610450838361040d565b905092915050565b5f602082019050919050565b5f61046e826103d4565b61047881856103de565b93508360208202850161048a856103ee565b805f5b858110156104c557848403895281516104a68582610445565b94506104b183610458565b925060208a0199505060018101905061048d565b50829750879550505050505092915050565b5f6060820190508181035f8301526104ef818661039c565b90508181036020830152610503818561039c565b905081810360408301526105178184610464565b9050949350505050565b5f604051905090565b5f80fd5b5f80fd5b5f80fd5b5f80fd5b7f4e487b71000000000000000000000000000000000000000000000000000000005f52604160045260245ffd5b6105708261038c565b810181811067ffffffffffffffff8211171561058f5761058e61053a565b5b80604052505050565b5f6105a1610521565b90506105ad8282610567565b919050565b5f67ffffffffffffffff8211156105cc576105cb61053a565b5b6105d58261038c565b9050602081019050919050565b828183375f83830152505050565b5f6106026105fd846105b2565b610598565b90508281526020810184848401111561061e5761061d610536565b5b6106298482856105e2565b509392505050565b5f82601f83011261064557610644610532565b5b81356106558482602086016105f0565b91505092915050565b5f602082840312156106735761067261052a565b5b5f82013567ffffffffffffffff8111156106905761068f61052e565b5b61069c84828501610631565b91505092915050565b5f8115159050919050565b6106b9816106a5565b82525050565b5f604083015f8301516106d45f8601826106b0565b50602083015184820360208601526106ec828261040d565b9150508091505092915050565b5f6020820190508181035f83015261071181846106bf565b905092915050565b7f4e487b71000000000000000000000000000000000000000000000000000000005f52603260045260245ffd5b7f5661726961626c65206e616d65206d757374206e6f7420626520656d707479005f82015250565b5f61077a601f83610354565b915061078582610746565b602082019050919050565b5f6020820190508181035f8301526107a78161076e565b9050919050565b5f81905092915050565b5f6107c28261034a565b6107cc81856107ae565b93506107dc818560208601610364565b80840191505092915050565b5f6107f382846107b8565b915081905092915050565b5f819050919050565b610810816107fe565b82525050565b5f6040820190508181035f83015261082e818561039c565b905061083d6020830184610807565b9392505050565b5f81519050919050565b7f4e487b71000000000000000000000000000000000000000000000000000000005f52602260045260245ffd5b5f600282049050600182168061089257607f821691505b6020821081036108a5576108a461084e565b5b50919050565b5f819050815f5260205f209050919050565b5f6020601f8301049050919050565b5f82821b905092915050565b5f600883026109077fffffffffffffffffffffffffffffffffffffffffffffffffffffffffffffffff826108cc565b61091186836108cc565b95508019841693508086168417925050509392505050565b5f819050919050565b5f61094c610947610942846107fe565b610929565b6107fe565b9050919050565b5f819050919050565b61096583610932565b61097961097182610953565b8484546108d8565b825550505050565b5f90565b61098d610981565b61099881848461095c565b505050565b5b818110156109bb576109b05f82610985565b60018101905061099e565b5050565b601f821115610a00576109d1816108ab565b6109da846108bd565b810160208510156109e9578190505b6109fd6109f5856108bd565b83018261099d565b50505b505050565b5f82821c905092915050565b5f610a205f1984600802610a05565b1980831691505092915050565b5f610a388383610a11565b9150826002028217905092915050565b610a5182610844565b67ffffffffffffffff811115610a6a57610a6961053a565b5b610a74825461087b565b610a7f8282856109bf565b5f60209050601f831160018114610ab0575f8415610a9e578287015190505b610aa88582610a2d565b865550610b0f565b601f198416610abe866108ab565b5f5b82811015610ae557848901518255600182019150602085019450602081019050610ac0565b86831015610b025784890151610afe601f891682610a11565b8355505b6001600288020188555050505b505050505050565b7f6f6b0000000000000000000000000000000000000000000000000000000000005f82015250565b5f610b4b600283610354565b9150610b5682610b17565b602082019050919050565b5f6020820190508181035f830152610b7881610b3f565b905091905056fea26469706673582212201206668b59b62758f0f22ad2262dfd517fcaa95462fbccbfc69e1909b0bc4a4e64736f6c63430008140033","linkReferences":{}},"methodIdentifiers":{"fetch(string)":"d246d0b9","register()":"1aa3a008"},"id":113}