{"abi":[{"type":"function","name":"controlExists","inputs":[{"name":"controlId","type":"bytes32","internalType":"bytes32"}],"outputs":[{"name":"","type":"bool","internalType":"bool"}],"stateMutability":"view"},{"type":"function","name":"create","inputs":[{"name":"controlId","type":"bytes32","internalType":"bytes32"},{"name":"controlType","type":"string","internalType":"string"},{"name":"label","type":"string","internalType":"string"},{"name":"value","type":"string","internalType":"string"},{"name":"binding","type":"string","internalType":"string"},{"name":"action","type":"string","internalType":"string"}],"outputs":[],"stateMutability":"nonpayable"},{"type":"function","name":"getControl","inputs":[{"name":"controlId","type":"bytes32","internalType":"bytes32"}],"outputs":[{"name":"","type":"tuple","internalType":"struct Control.ControlData","components":[{"name":"controlType","type":"string","internalType":"string"},{"name":"label","type":"string","internalType":"string"},{"name":"value","type":"string","internalType":"string"},{"name":"binding","type":"string","internalType":"string"},{"name":"action","type":"string","internalType":"string"},{"name":"exists","type":"bool","internalType":"bool"}]}],"stateMutability":"view"},{"type":"function","name":"getValue","inputs":[{"name":"controlId","type":"bytes32","internalType":"bytes32"}],"outputs":[{"name":"","type":"string","internalType":"string"}],"stateMutability":"view"},{"type":"function","name":"setValue","inputs":[{"name":"controlId","type":"bytes32","internalType":"bytes32"},{"name":"value","type":"string","internalType":"string"}],"outputs":[],"stateMutability":"nonpayable"},{"type":"event","name":"ControlCreated","inputs":[{"name":"controlId","type":"bytes32","indexed":true,"internalType":"bytes32"}],"anonymous":false},{"type":"event","name":"Interacted","inputs":[{"name":"controlId","type":"bytes32","indexed":true,"internalType":"bytes32"}],"anonymous":false},{"type":"event","name":"ValueSet","inputs":[{"name":"controlId","type":"bytes32","indexed":true,"internalType":"bytes32"},{"name":"value","type":"string","indexed":false,"internalType":"string"}],"anonymous":false}],"bytecode":{"object":"0x608060405234801561000f575f80fd5b5061146e8061001d5f395ff3fe608060405234801561000f575f80fd5b5060043610610055575f3560e01c80636984394014610059578063bd7765df14610089578063c77525bf146100b9578063c7bfebd6146100d5578063eff4187a146100f1575b5f80fd5b610073600480360381019061006e9190610a5d565b610121565b6040516100809190610b12565b60405180910390f35b6100a3600480360381019061009e9190610a5d565b610223565b6040516100b09190610c36565b60405180910390f35b6100d360048036038101906100ce9190610cb7565b610595565b005b6100ef60048036038101906100ea9190610de1565b6108d5565b005b61010b60048036038101906101069190610a5d565b6109c3565b6040516101189190610e4d565b60405180910390f35b60605f808381526020019081526020015f206005015f9054906101000a900460ff16610182576040517f08c379a000000000000000000000000000000000000000000000000000000000815260040161017990610eb0565b60405180910390fd5b5f808381526020019081526020015f2060020180546101a090610efb565b80601f01602080910402602001604051908101604052809291908181526020018280546101cc90610efb565b80156102175780601f106101ee57610100808354040283529160200191610217565b820191905f5260205f20905b8154815290600101906020018083116101fa57829003601f168201915b50505050509050919050565b61022b6109eb565b5f808381526020019081526020015f206005015f9054906101000a900460ff1661028a576040517f08c379a000000000000000000000000000000000000000000000000000000000815260040161028190610eb0565b60405180910390fd5b5f808381526020019081526020015f206040518060c00160405290815f820180546102b490610efb565b80601f01602080910402602001604051908101604052809291908181526020018280546102e090610efb565b801561032b5780601f106103025761010080835404028352916020019161032b565b820191905f5260205f20905b81548152906001019060200180831161030e57829003601f168201915b5050505050815260200160018201805461034490610efb565b80601f016020809104026020016040519081016040528092919081815260200182805461037090610efb565b80156103bb5780601f10610392576101008083540402835291602001916103bb565b820191905f5260205f20905b81548152906001019060200180831161039e57829003601f168201915b505050505081526020016002820180546103d490610efb565b80601f016020809104026020016040519081016040528092919081815260200182805461040090610efb565b801561044b5780601f106104225761010080835404028352916020019161044b565b820191905f5260205f20905b81548152906001019060200180831161042e57829003601f168201915b5050505050815260200160038201805461046490610efb565b80601f016020809104026020016040519081016040528092919081815260200182805461049090610efb565b80156104db5780601f106104b2576101008083540402835291602001916104db565b820191905f5260205f20905b8154815290600101906020018083116104be57829003601f168201915b505050505081526020016004820180546104f490610efb565b80601f016020809104026020016040519081016040528092919081815260200182805461052090610efb565b801561056b5780601f106105425761010080835404028352916020019161056b565b820191905f5260205f20905b81548152906001019060200180831161054e57829003601f168201915b50505050508152602001600582015f9054906101000a900460ff1615151515815250509050919050565b5f801b8b036105d9576040517f08c379a00000000000000000000000000000000000000000000000000000000081526004016105d090610f75565b60405180910390fd5b5f808c81526020019081526020015f206005015f9054906101000a900460ff1615610639576040517f08c379a000000000000000000000000000000000000000000000000000000000815260040161063090610fdd565b60405180910390fd5b5f8a8a90501161067e576040517f08c379a000000000000000000000000000000000000000000000000000000000815260040161067590611045565b60405180910390fd5b6040518060c001604052808b8b8080601f0160208091040260200160405190810160405280939291908181526020018383808284375f81840152601f19601f82011690508083019250505050505050815260200189898080601f0160208091040260200160405190810160405280939291908181526020018383808284375f81840152601f19601f82011690508083019250505050505050815260200187878080601f0160208091040260200160405190810160405280939291908181526020018383808284375f81840152601f19601f82011690508083019250505050505050815260200185858080601f0160208091040260200160405190810160405280939291908181526020018383808284375f81840152601f19601f82011690508083019250505050505050815260200183838080601f0160208091040260200160405190810160405280939291908181526020018383808284375f81840152601f19601f820116905080830192505050505050508152602001600115158152505f808d81526020019081526020015f205f820151815f0190816108209190611236565b5060208201518160010190816108369190611236565b50604082015181600201908161084c9190611236565b5060608201518160030190816108629190611236565b5060808201518160040190816108789190611236565b5060a0820151816005015f6101000a81548160ff0219169083151502179055509050508a7f5206b3999cdf35cb31a9de5b704744f72ec10b1c69510170b8f17230651d285b60405160405180910390a25050505050505050505050565b5f808481526020019081526020015f206005015f9054906101000a900460ff16610934576040517f08c379a000000000000000000000000000000000000000000000000000000000815260040161092b90610eb0565b60405180910390fd5b81815f808681526020019081526020015f20600201918261095692919061130f565b50827fad15371a09c57b76351d9a453dd654cddb9fa8751833d38dfb5014052cba66bd8383604051610989929190611416565b60405180910390a2827fe58f8283a4576bfc139109369704e60dca0b9525b71d485ccf98c8ebebc2e19860405160405180910390a2505050565b5f805f8381526020019081526020015f206005015f9054906101000a900460ff169050919050565b6040518060c0016040528060608152602001606081526020016060815260200160608152602001606081526020015f151581525090565b5f80fd5b5f80fd5b5f819050919050565b610a3c81610a2a565b8114610a46575f80fd5b50565b5f81359050610a5781610a33565b92915050565b5f60208284031215610a7257610a71610a22565b5b5f610a7f84828501610a49565b91505092915050565b5f81519050919050565b5f82825260208201905092915050565b5f5b83811015610abf578082015181840152602081019050610aa4565b5f8484015250505050565b5f601f19601f8301169050919050565b5f610ae482610a88565b610aee8185610a92565b9350610afe818560208601610aa2565b610b0781610aca565b840191505092915050565b5f6020820190508181035f830152610b2a8184610ada565b905092915050565b5f82825260208201905092915050565b5f610b4c82610a88565b610b568185610b32565b9350610b66818560208601610aa2565b610b6f81610aca565b840191505092915050565b5f8115159050919050565b610b8e81610b7a565b82525050565b5f60c083015f8301518482035f860152610bae8282610b42565b91505060208301518482036020860152610bc88282610b42565b91505060408301518482036040860152610be28282610b42565b91505060608301518482036060860152610bfc8282610b42565b91505060808301518482036080860152610c168282610b42565b91505060a0830151610c2b60a0860182610b85565b508091505092915050565b5f6020820190508181035f830152610c4e8184610b94565b905092915050565b5f80fd5b5f80fd5b5f80fd5b5f8083601f840112610c7757610c76610c56565b5b8235905067ffffffffffffffff811115610c9457610c93610c5a565b5b602083019150836001820283011115610cb057610caf610c5e565b5b9250929050565b5f805f805f805f805f805f60c08c8e031215610cd657610cd5610a22565b5b5f610ce38e828f01610a49565b9b505060208c013567ffffffffffffffff811115610d0457610d03610a26565b5b610d108e828f01610c62565b9a509a505060408c013567ffffffffffffffff811115610d3357610d32610a26565b5b610d3f8e828f01610c62565b985098505060608c013567ffffffffffffffff811115610d6257610d61610a26565b5b610d6e8e828f01610c62565b965096505060808c013567ffffffffffffffff811115610d9157610d90610a26565b5b610d9d8e828f01610c62565b945094505060a08c013567ffffffffffffffff811115610dc057610dbf610a26565b5b610dcc8e828f01610c62565b92509250509295989b509295989b9093969950565b5f805f60408486031215610df857610df7610a22565b5b5f610e0586828701610a49565b935050602084013567ffffffffffffffff811115610e2657610e25610a26565b5b610e3286828701610c62565b92509250509250925092565b610e4781610b7a565b82525050565b5f602082019050610e605f830184610e3e565b92915050565b7f436f6e74726f6c206e6f7420666f756e640000000000000000000000000000005f82015250565b5f610e9a601183610a92565b9150610ea582610e66565b602082019050919050565b5f6020820190508181035f830152610ec781610e8e565b9050919050565b7f4e487b71000000000000000000000000000000000000000000000000000000005f52602260045260245ffd5b5f6002820490506001821680610f1257607f821691505b602082108103610f2557610f24610ece565b5b50919050565b7f436f6e74726f6c2049442063616e6e6f74206265207a65726f000000000000005f82015250565b5f610f5f601983610a92565b9150610f6a82610f2b565b602082019050919050565b5f6020820190508181035f830152610f8c81610f53565b9050919050565b7f436f6e74726f6c20616c726561647920657869737473000000000000000000005f82015250565b5f610fc7601683610a92565b9150610fd282610f93565b602082019050919050565b5f6020820190508181035f830152610ff481610fbb565b9050919050565b7f436f6e74726f6c20747970652063616e6e6f7420626520656d707479000000005f82015250565b5f61102f601c83610a92565b915061103a82610ffb565b602082019050919050565b5f6020820190508181035f83015261105c81611023565b9050919050565b7f4e487b71000000000000000000000000000000000000000000000000000000005f52604160045260245ffd5b5f819050815f5260205f209050919050565b5f6020601f8301049050919050565b5f82821b905092915050565b5f600883026110ec7fffffffffffffffffffffffffffffffffffffffffffffffffffffffffffffffff826110b1565b6110f686836110b1565b95508019841693508086168417925050509392505050565b5f819050919050565b5f819050919050565b5f61113a6111356111308461110e565b611117565b61110e565b9050919050565b5f819050919050565b61115383611120565b61116761115f82611141565b8484546110bd565b825550505050565b5f90565b61117b61116f565b61118681848461114a565b505050565b5b818110156111a95761119e5f82611173565b60018101905061118c565b5050565b601f8211156111ee576111bf81611090565b6111c8846110a2565b810160208510156111d7578190505b6111eb6111e3856110a2565b83018261118b565b50505b505050565b5f82821c905092915050565b5f61120e5f19846008026111f3565b1980831691505092915050565b5f61122683836111ff565b9150826002028217905092915050565b61123f82610a88565b67ffffffffffffffff81111561125857611257611063565b5b6112628254610efb565b61126d8282856111ad565b5f60209050601f83116001811461129e575f841561128c578287015190505b611296858261121b565b8655506112fd565b601f1984166112ac86611090565b5f5b828110156112d3578489015182556001820191506020850194506020810190506112ae565b868310156112f057848901516112ec601f8916826111ff565b8355505b6001600288020188555050505b505050505050565b5f82905092915050565b6113198383611305565b67ffffffffffffffff81111561133257611331611063565b5b61133c8254610efb565b6113478282856111ad565b5f601f831160018114611374575f8415611362578287013590505b61136c858261121b565b8655506113d3565b601f19841661138286611090565b5f5b828110156113a957848901358255600182019150602085019450602081019050611384565b868310156113c657848901356113c2601f8916826111ff565b8355505b6001600288020188555050505b50505050505050565b828183375f83830152505050565b5f6113f58385610a92565b93506114028385846113dc565b61140b83610aca565b840190509392505050565b5f6020820190508181035f83015261142f8184866113ea565b9050939250505056fea2646970667358221220b22f225f1bfa938c4e8847d1439ed37336ad2d97a7eff0b37e4d1f0fdbfdf87c64736f6c63430008140033","linkReferences":{}},"methodIdentifiers":{"controlExists(bytes32)":"eff4187a","create(bytes32,string,string,string,string,string)":"c77525bf","getControl(bytes32)":"bd7765df","getValue(bytes32)":"69843940","setValue(bytes32,string)":"c7bfebd6"},"id":83}