{"abi":[{"type":"function","name":"generate","inputs":[{"name":"projections","type":"string[]","internalType":"string[]"},{"name":"config","type":"string","internalType":"string"}],"outputs":[{"name":"","type":"tuple","internalType":"struct OpenApiTarget.GenerateOkResult","components":[{"name":"success","type":"bool","internalType":"bool"},{"name":"spec","type":"bytes32","internalType":"bytes32"},{"name":"content","type":"string","internalType":"string"}]}],"stateMutability":"nonpayable"},{"type":"function","name":"register","inputs":[],"outputs":[{"name":"name","type":"string","internalType":"string"},{"name":"category","type":"string","internalType":"string"},{"name":"formats","type":"string[]","internalType":"string[]"}],"stateMutability":"pure"},{"type":"event","name":"GenerateCompleted","inputs":[{"name":"variant","type":"string","indexed":false,"internalType":"string"},{"name":"spec","type":"bytes32","indexed":false,"internalType":"bytes32"}],"anonymous":false}],"bytecode":{"object":"0x608060405234801561000f575f80fd5b5061124f8061001d5f395ff3fe608060405234801561000f575f80fd5b5060043610610034575f3560e01c80631aa3a00814610038578063f7ebb40814610058575b5f80fd5b610040610088565b60405161004f939291906106d4565b60405180910390f35b610072600480360381019061006d919061093d565b6101fc565b60405161007f9190610a32565b60405180910390f35b60608060606040518060400160405280600781526020017f6f70656e6170690000000000000000000000000000000000000000000000000081525092506040518060400160405280600b81526020017f737065632d7461726765740000000000000000000000000000000000000000008152509150600267ffffffffffffffff81111561011857610117610733565b5b60405190808252806020026020018201604052801561014b57816020015b60608152602001906001900390816101365790505b5090506040518060400160405280600481526020017f79616d6c00000000000000000000000000000000000000000000000000000000815250815f8151811061019757610196610a52565b5b60200260200101819052506040518060400160405280600481526020017f6a736f6e00000000000000000000000000000000000000000000000000000000815250816001815181106101ec576101eb610a52565b5b6020026020010181905250909192565b610204610523565b5f835111610247576040517f08c379a000000000000000000000000000000000000000000000000000000000815260040161023e90610ac9565b60405180910390fd5b5f838360405160200161025b929190610ae7565b6040516020818303038152906040528051906020012090505f61027e85516103cb565b60405160200161028e9190610bea565b60405160208183030381529060405290505f808381526020019081526020015f205f9054906101000a900460ff1661030f5760015f808481526020019081526020015f205f6101000a81548160ff021916908315150217905550600182908060018154018082558091505060019003905f5260205f20015f90919091909150555b8060025f8481526020019081526020015f20908161032d9190610e19565b508460405160200161033f9190610ee8565b60405160208183030381529060405260035f8481526020019081526020015f20908161036b9190610f6a565b507f0fd47883588af6121dd6816123cbebc8a6652dcbf34f3cbccbcf5c0743dca4b38260405161039b9190611092565b60405180910390a16040518060600160405280600115158152602001838152602001828152509250505092915050565b60605f8203610411576040518060400160405280600181526020017f3000000000000000000000000000000000000000000000000000000000000000815250905061051e565b5f8290505f5b5f8214610440578080610429906110eb565b915050600a82610439919061115f565b9150610417565b5f8167ffffffffffffffff81111561045b5761045a610733565b5b6040519080825280601f01601f19166020018201604052801561048d5781602001600182028036833780820191505090505b5090505b5f85146105175781806104a39061118f565b925050600a856104b391906111b6565b60306104bf91906111e6565b60f81b8183815181106104d5576104d4610a52565b5b60200101907effffffffffffffffffffffffffffffffffffffffffffffffffffffffffffff191690815f1a905350600a85610510919061115f565b9450610491565b8093505050505b919050565b60405180606001604052805f151581526020015f8019168152602001606081525090565b5f81519050919050565b5f82825260208201905092915050565b5f5b8381101561057e578082015181840152602081019050610563565b5f8484015250505050565b5f601f19601f8301169050919050565b5f6105a382610547565b6105ad8185610551565b93506105bd818560208601610561565b6105c681610589565b840191505092915050565b5f81519050919050565b5f82825260208201905092915050565b5f819050602082019050919050565b5f82825260208201905092915050565b5f61061482610547565b61061e81856105fa565b935061062e818560208601610561565b61063781610589565b840191505092915050565b5f61064d838361060a565b905092915050565b5f602082019050919050565b5f61066b826105d1565b61067581856105db565b935083602082028501610687856105eb565b805f5b858110156106c257848403895281516106a38582610642565b94506106ae83610655565b925060208a0199505060018101905061068a565b50829750879550505050505092915050565b5f6060820190508181035f8301526106ec8186610599565b905081810360208301526107008185610599565b905081810360408301526107148184610661565b9050949350505050565b5f604051905090565b5f80fd5b5f80fd5b5f80fd5b7f4e487b71000000000000000000000000000000000000000000000000000000005f52604160045260245ffd5b61076982610589565b810181811067ffffffffffffffff8211171561078857610787610733565b5b80604052505050565b5f61079a61071e565b90506107a68282610760565b919050565b5f67ffffffffffffffff8211156107c5576107c4610733565b5b602082029050602081019050919050565b5f80fd5b5f80fd5b5f67ffffffffffffffff8211156107f8576107f7610733565b5b61080182610589565b9050602081019050919050565b828183375f83830152505050565b5f61082e610829846107de565b610791565b90508281526020810184848401111561084a576108496107da565b5b61085584828561080e565b509392505050565b5f82601f8301126108715761087061072f565b5b813561088184826020860161081c565b91505092915050565b5f61089c610897846107ab565b610791565b905080838252602082019050602084028301858111156108bf576108be6107d6565b5b835b8181101561090657803567ffffffffffffffff8111156108e4576108e361072f565b5b8086016108f1898261085d565b855260208501945050506020810190506108c1565b5050509392505050565b5f82601f8301126109245761092361072f565b5b813561093484826020860161088a565b91505092915050565b5f806040838503121561095357610952610727565b5b5f83013567ffffffffffffffff8111156109705761096f61072b565b5b61097c85828601610910565b925050602083013567ffffffffffffffff81111561099d5761099c61072b565b5b6109a98582860161085d565b9150509250929050565b5f8115159050919050565b6109c7816109b3565b82525050565b5f819050919050565b6109df816109cd565b82525050565b5f606083015f8301516109fa5f8601826109be565b506020830151610a0d60208601826109d6565b5060408301518482036040860152610a25828261060a565b9150508091505092915050565b5f6020820190508181035f830152610a4a81846109e5565b905092915050565b7f4e487b71000000000000000000000000000000000000000000000000000000005f52603260045260245ffd5b7f4174206c65617374206f6e652070726f6a656374696f6e2072657175697265645f82015250565b5f610ab3602083610551565b9150610abe82610a7f565b602082019050919050565b5f6020820190508181035f830152610ae081610aa7565b9050919050565b5f6040820190508181035f830152610aff8185610661565b90508181036020830152610b138184610599565b90509392505050565b5f81905092915050565b7f7b226f70656e617069223a22332e302e33222c227061746873223a00000000005f82015250565b5f610b5a601b83610b1c565b9150610b6582610b26565b601b82019050919050565b5f610b7a82610547565b610b848185610b1c565b9350610b94818560208601610561565b80840191505092915050565b7f7d000000000000000000000000000000000000000000000000000000000000005f82015250565b5f610bd4600183610b1c565b9150610bdf82610ba0565b600182019050919050565b5f610bf482610b4e565b9150610c008284610b70565b9150610c0b82610bc8565b915081905092915050565b7f4e487b71000000000000000000000000000000000000000000000000000000005f52602260045260245ffd5b5f6002820490506001821680610c5a57607f821691505b602082108103610c6d57610c6c610c16565b5b50919050565b5f819050815f5260205f209050919050565b5f6020601f8301049050919050565b5f82821b905092915050565b5f60088302610ccf7fffffffffffffffffffffffffffffffffffffffffffffffffffffffffffffffff82610c94565b610cd98683610c94565b95508019841693508086168417925050509392505050565b5f819050919050565b5f819050919050565b5f610d1d610d18610d1384610cf1565b610cfa565b610cf1565b9050919050565b5f819050919050565b610d3683610d03565b610d4a610d4282610d24565b848454610ca0565b825550505050565b5f90565b610d5e610d52565b610d69818484610d2d565b505050565b5b81811015610d8c57610d815f82610d56565b600181019050610d6f565b5050565b601f821115610dd157610da281610c73565b610dab84610c85565b81016020851015610dba578190505b610dce610dc685610c85565b830182610d6e565b50505b505050565b5f82821c905092915050565b5f610df15f1984600802610dd6565b1980831691505092915050565b5f610e098383610de2565b9150826002028217905092915050565b610e2282610547565b67ffffffffffffffff811115610e3b57610e3a610733565b5b610e458254610c43565b610e50828285610d90565b5f60209050601f831160018114610e81575f8415610e6f578287015190505b610e798582610dfe565b865550610ee0565b601f198416610e8f86610c73565b5f5b82811015610eb657848901518255600182019150602085019450602081019050610e91565b86831015610ed35784890151610ecf601f891682610de2565b8355505b6001600288020188555050505b505050505050565b5f6020820190508181035f830152610f008184610661565b905092915050565b5f81519050919050565b5f819050815f5260205f209050919050565b601f821115610f6557610f3681610f12565b610f3f84610c85565b81016020851015610f4e578190505b610f62610f5a85610c85565b830182610d6e565b50505b505050565b610f7382610f08565b67ffffffffffffffff811115610f8c57610f8b610733565b5b610f968254610c43565b610fa1828285610f24565b5f60209050601f831160018114610fd2575f8415610fc0578287015190505b610fca8582610dfe565b865550611031565b601f198416610fe086610f12565b5f5b8281101561100757848901518255600182019150602085019450602081019050610fe2565b868310156110245784890151611020601f891682610de2565b8355505b6001600288020188555050505b505050505050565b7f6f6b0000000000000000000000000000000000000000000000000000000000005f82015250565b5f61106d600283610551565b915061107882611039565b602082019050919050565b61108c816109cd565b82525050565b5f6040820190508181035f8301526110a981611061565b90506110b86020830184611083565b92915050565b7f4e487b71000000000000000000000000000000000000000000000000000000005f52601160045260245ffd5b5f6110f582610cf1565b91507fffffffffffffffffffffffffffffffffffffffffffffffffffffffffffffffff8203611127576111266110be565b5b600182019050919050565b7f4e487b71000000000000000000000000000000000000000000000000000000005f52601260045260245ffd5b5f61116982610cf1565b915061117483610cf1565b92508261118457611183611132565b5b828204905092915050565b5f61119982610cf1565b91505f82036111ab576111aa6110be565b5b600182039050919050565b5f6111c082610cf1565b91506111cb83610cf1565b9250826111db576111da611132565b5b828206905092915050565b5f6111f082610cf1565b91506111fb83610cf1565b9250828201905080821115611213576112126110be565b5b9291505056fea26469706673582212207244ff3f0ab5469666f0612a0faffa2d02b00f1f19c356512210dfb939d49e0a64736f6c63430008140033","linkReferences":{}},"methodIdentifiers":{"generate(string[],string)":"f7ebb408","register()":"1aa3a008"},"id":184}