{"abi":[{"type":"function","name":"generate","inputs":[{"name":"name","type":"string","internalType":"string"},{"name":"description","type":"string","internalType":"string"},{"name":"concepts","type":"string[]","internalType":"string[]"}],"outputs":[{"name":"result","type":"tuple","internalType":"struct KitScaffoldGen.GenerateOkResult","components":[{"name":"success","type":"bool","internalType":"bool"},{"name":"files","type":"bytes[]","internalType":"bytes[]"},{"name":"filesGenerated","type":"int256","internalType":"int256"}]}],"stateMutability":"nonpayable"},{"type":"function","name":"hasKit","inputs":[{"name":"name","type":"string","internalType":"string"}],"outputs":[{"name":"","type":"bool","internalType":"bool"}],"stateMutability":"view"},{"type":"function","name":"kitCount","inputs":[],"outputs":[{"name":"","type":"uint256","internalType":"uint256"}],"stateMutability":"view"},{"type":"function","name":"preview","inputs":[{"name":"name","type":"string","internalType":"string"},{"name":"description","type":"string","internalType":"string"},{"name":"concepts","type":"string[]","internalType":"string[]"}],"outputs":[{"name":"result","type":"tuple","internalType":"struct KitScaffoldGen.PreviewOkResult","components":[{"name":"success","type":"bool","internalType":"bool"},{"name":"files","type":"bytes[]","internalType":"bytes[]"},{"name":"wouldWrite","type":"int256","internalType":"int256"},{"name":"wouldSkip","type":"int256","internalType":"int256"}]}],"stateMutability":"view"},{"type":"function","name":"register","inputs":[],"outputs":[{"name":"result","type":"tuple","internalType":"struct KitScaffoldGen.RegisterOkResult","components":[{"name":"success","type":"bool","internalType":"bool"},{"name":"name","type":"string","internalType":"string"},{"name":"inputKind","type":"string","internalType":"string"},{"name":"outputKind","type":"string","internalType":"string"},{"name":"capabilities","type":"string[]","internalType":"string[]"}]}],"stateMutability":"pure"},{"type":"event","name":"GenerateCompleted","inputs":[{"name":"variant","type":"string","indexed":false,"internalType":"string"},{"name":"files","type":"bytes[]","indexed":false,"internalType":"bytes[]"},{"name":"filesGenerated","type":"int256","indexed":false,"internalType":"int256"}],"anonymous":false},{"type":"event","name":"PreviewCompleted","inputs":[{"name":"variant","type":"string","indexed":false,"internalType":"string"},{"name":"files","type":"bytes[]","indexed":false,"internalType":"bytes[]"},{"name":"wouldWrite","type":"int256","indexed":false,"internalType":"int256"},{"name":"wouldSkip","type":"int256","indexed":false,"internalType":"int256"}],"anonymous":false},{"type":"event","name":"RegisterCompleted","inputs":[{"name":"variant","type":"string","indexed":false,"internalType":"string"},{"name":"capabilities","type":"string[]","indexed":false,"internalType":"string[]"}],"anonymous":false}],"bytecode":{"object":"0x608060405234801561000f575f80fd5b50611b608061001d5f395ff3fe608060405234801561000f575f80fd5b5060043610610055575f3560e01c80631aa3a008146100595780637506ab54146100775780637d1fa9f514610095578063bdc2af20146100c5578063c9d68abe146100f5575b5f80fd5b610061610125565b60405161006e9190610c26565b60405180910390f35b61007f61034c565b60405161008c9190610c5e565b60405180910390f35b6100af60048036038101906100aa9190610db4565b610358565b6040516100bc9190610e0a565b60405180910390f35b6100df60048036038101906100da9190610f05565b6103a4565b6040516100ec919061112e565b60405180910390f35b61010f600480360381019061010a9190610f05565b6105b2565b60405161011c919061119b565b60405180910390f35b61012d6109c7565b5f600367ffffffffffffffff81111561014957610148610c90565b5b60405190808252806020026020018201604052801561017c57816020015b60608152602001906001900390816101675790505b5090506040518060400160405280600e81526020017f73756974652d73636166666f6c64000000000000000000000000000000000000815250815f815181106101c8576101c76111bb565b5b60200260200101819052506040518060400160405280600e81526020017f73756974652d6d616e69666573740000000000000000000000000000000000008152508160018151811061021d5761021c6111bb565b5b60200260200101819052506040518060400160405280600f81526020017f636f6e636570742d6c697374696e67000000000000000000000000000000000081525081600281518110610272576102716111bb565b5b60200260200101819052506040518060a001604052806001151581526020016040518060400160405280601081526020017f6b69742d73636166666f6c642d67656e0000000000000000000000000000000081525081526020016040518060400160405280600e81526020017f6b69742d646566696e6974696f6e00000000000000000000000000000000000081525081526020016040518060400160405280600e81526020017f73636166666f6c642d66696c657300000000000000000000000000000000000081525081526020018281525091505090565b5f600280549050905090565b5f60015f8360405160200161036d9190611222565b6040516020818303038152906040528051906020012081526020019081526020015f205f9054906101000a900460ff169050919050565b6103ac6109f7565b5f8451116103ef576040517f08c379a00000000000000000000000000000000000000000000000000000000081526004016103e690611292565b60405180910390fd5b5f835111610432576040517f08c379a0000000000000000000000000000000000000000000000000000000008152600401610429906112fa565b60405180910390fd5b5f846040516020016104449190611222565b6040516020818303038152906040528051906020012090505f600267ffffffffffffffff81111561047857610477610c90565b5b6040519080825280602002602001820160405280156104ab57816020015b60608152602001906001900390816104965790505b50905085856104ba865161086e565b6040516020016104cc939291906113f6565b604051602081830303815290604052815f815181106104ee576104ed6111bb565b5b602002602001018190525085610504855161086e565b6040516020016105159291906114db565b60405160208183030381529060405281600181518110610538576105376111bb565b5b60200260200101819052505f60015f8481526020019081526020015f205f9054906101000a900460ff1661056c575f61056f565b60015b90505f81600261057f9190611541565b90506040518060800160405280600115158152602001848152602001828152602001838152509450505050509392505050565b6105ba610a1e565b5f8451116105fd576040517f08c379a00000000000000000000000000000000000000000000000000000000081526004016105f490611292565b60405180910390fd5b5f835111610640576040517f08c379a0000000000000000000000000000000000000000000000000000000008152600401610637906112fa565b60405180910390fd5b5f846040516020016106529190611222565b6040516020818303038152906040528051906020012090505f600267ffffffffffffffff81111561068657610685610c90565b5b6040519080825280602002602001820160405280156106b957816020015b60608152602001906001900390816106a45790505b50905085856106c8865161086e565b6040516020016106da939291906113f6565b604051602081830303815290604052815f815181106106fc576106fb6111bb565b5b602002602001018190525085610712855161086e565b6040516020016107239291906114db565b60405160208183030381529060405281600181518110610746576107456111bb565b5b6020026020010181905250858585514260405160200161076994939291906115b9565b6040516020818303038152906040525f808481526020019081526020015f2090816107949190611804565b5060015f8381526020019081526020015f205f9054906101000a900460ff16610806576001805f8481526020019081526020015f205f6101000a81548160ff021916908315150217905550600282908060018154018082558091505060019003905f5260205f20015f90919091909150555b5f6002905060405180606001604052806001151581526020018381526020018281525093507f48bda0bee7ff8852f440265af654a83c61da2283be561d3abff07f7ae4ae9e08828260405161085c9291906119af565b60405180910390a15050509392505050565b60605f82036108b4576040518060400160405280600181526020017f300000000000000000000000000000000000000000000000000000000000000081525090506109c2565b5f8290505f5b5f82146108e35780806108cc906119f0565b915050600a826108dc9190611a64565b91506108ba565b5f8167ffffffffffffffff8111156108fe576108fd610c90565b5b6040519080825280601f01601f1916602001820160405280156109305781602001600182028036833780820191505090505b5090505b5f85146109bb576001826109489190611a94565b9150600a856109579190611ac7565b60306109639190611af7565b60f81b818381518110610979576109786111bb565b5b60200101907effffffffffffffffffffffffffffffffffffffffffffffffffffffffffffff191690815f1a905350600a856109b49190611a64565b9450610934565b8093505050505b919050565b6040518060a001604052805f15158152602001606081526020016060815260200160608152602001606081525090565b60405180608001604052805f15158152602001606081526020015f81526020015f81525090565b60405180606001604052805f15158152602001606081526020015f81525090565b5f8115159050919050565b610a5381610a3f565b82525050565b5f81519050919050565b5f82825260208201905092915050565b5f5b83811015610a90578082015181840152602081019050610a75565b5f8484015250505050565b5f601f19601f8301169050919050565b5f610ab582610a59565b610abf8185610a63565b9350610acf818560208601610a73565b610ad881610a9b565b840191505092915050565b5f81519050919050565b5f82825260208201905092915050565b5f819050602082019050919050565b5f610b178383610aab565b905092915050565b5f602082019050919050565b5f610b3582610ae3565b610b3f8185610aed565b935083602082028501610b5185610afd565b805f5b85811015610b8c5784840389528151610b6d8582610b0c565b9450610b7883610b1f565b925060208a01995050600181019050610b54565b50829750879550505050505092915050565b5f60a083015f830151610bb35f860182610a4a565b5060208301518482036020860152610bcb8282610aab565b91505060408301518482036040860152610be58282610aab565b91505060608301518482036060860152610bff8282610aab565b91505060808301518482036080860152610c198282610b2b565b9150508091505092915050565b5f6020820190508181035f830152610c3e8184610b9e565b905092915050565b5f819050919050565b610c5881610c46565b82525050565b5f602082019050610c715f830184610c4f565b92915050565b5f604051905090565b5f80fd5b5f80fd5b5f80fd5b5f80fd5b7f4e487b71000000000000000000000000000000000000000000000000000000005f52604160045260245ffd5b610cc682610a9b565b810181811067ffffffffffffffff82111715610ce557610ce4610c90565b5b80604052505050565b5f610cf7610c77565b9050610d038282610cbd565b919050565b5f67ffffffffffffffff821115610d2257610d21610c90565b5b610d2b82610a9b565b9050602081019050919050565b828183375f83830152505050565b5f610d58610d5384610d08565b610cee565b905082815260208101848484011115610d7457610d73610c8c565b5b610d7f848285610d38565b509392505050565b5f82601f830112610d9b57610d9a610c88565b5b8135610dab848260208601610d46565b91505092915050565b5f60208284031215610dc957610dc8610c80565b5b5f82013567ffffffffffffffff811115610de657610de5610c84565b5b610df284828501610d87565b91505092915050565b610e0481610a3f565b82525050565b5f602082019050610e1d5f830184610dfb565b92915050565b5f67ffffffffffffffff821115610e3d57610e3c610c90565b5b602082029050602081019050919050565b5f80fd5b5f610e64610e5f84610e23565b610cee565b90508083825260208201905060208402830185811115610e8757610e86610e4e565b5b835b81811015610ece57803567ffffffffffffffff811115610eac57610eab610c88565b5b808601610eb98982610d87565b85526020850194505050602081019050610e89565b5050509392505050565b5f82601f830112610eec57610eeb610c88565b5b8135610efc848260208601610e52565b91505092915050565b5f805f60608486031215610f1c57610f1b610c80565b5b5f84013567ffffffffffffffff811115610f3957610f38610c84565b5b610f4586828701610d87565b935050602084013567ffffffffffffffff811115610f6657610f65610c84565b5b610f7286828701610d87565b925050604084013567ffffffffffffffff811115610f9357610f92610c84565b5b610f9f86828701610ed8565b9150509250925092565b5f81519050919050565b5f82825260208201905092915050565b5f819050602082019050919050565b5f81519050919050565b5f82825260208201905092915050565b5f610ff682610fd2565b6110008185610fdc565b9350611010818560208601610a73565b61101981610a9b565b840191505092915050565b5f61102f8383610fec565b905092915050565b5f602082019050919050565b5f61104d82610fa9565b6110578185610fb3565b93508360208202850161106985610fc3565b805f5b858110156110a457848403895281516110858582611024565b945061109083611037565b925060208a0199505060018101905061106c565b50829750879550505050505092915050565b5f819050919050565b6110c8816110b6565b82525050565b5f608083015f8301516110e35f860182610a4a565b50602083015184820360208601526110fb8282611043565b915050604083015161111060408601826110bf565b50606083015161112360608601826110bf565b508091505092915050565b5f6020820190508181035f83015261114681846110ce565b905092915050565b5f606083015f8301516111635f860182610a4a565b506020830151848203602086015261117b8282611043565b915050604083015161119060408601826110bf565b508091505092915050565b5f6020820190508181035f8301526111b3818461114e565b905092915050565b7f4e487b71000000000000000000000000000000000000000000000000000000005f52603260045260245ffd5b5f81905092915050565b5f6111fc82610a59565b61120681856111e8565b9350611216818560208601610a73565b80840191505092915050565b5f61122d82846111f2565b915081905092915050565b5f82825260208201905092915050565b7f4b6974206e616d652063616e6e6f7420626520656d70747900000000000000005f82015250565b5f61127c601883611238565b915061128782611248565b602082019050919050565b5f6020820190508181035f8301526112a981611270565b9050919050565b7f4465736372697074696f6e2063616e6e6f7420626520656d70747900000000005f82015250565b5f6112e4601b83611238565b91506112ef826112b0565b602082019050919050565b5f6020820190508181035f830152611311816112d8565b9050919050565b7f2f2f2053756974652073636166666f6c643a20000000000000000000000000005f82015250565b5f61134c6013836111e8565b915061135782611318565b601382019050919050565b7f0a2f2f204465736372697074696f6e3a200000000000000000000000000000005f82015250565b5f6113966011836111e8565b91506113a182611362565b601182019050919050565b7f0a2f2f20436f6e63657074733a200000000000000000000000000000000000005f82015250565b5f6113e0600e836111e8565b91506113eb826113ac565b600e82019050919050565b5f61140082611340565b915061140c82866111f2565b91506114178261138a565b915061142382856111f2565b915061142e826113d4565b915061143a82846111f2565b9150819050949350505050565b7f2f2f205375697465206469726563746f72792073636166666f6c643a200000005f82015250565b5f61147b601d836111e8565b915061148682611447565b601d82019050919050565b7f0a2f2f20436f6e6365707420656e74726965733a2000000000000000000000005f82015250565b5f6114c56015836111e8565b91506114d082611491565b601582019050919050565b5f6114e58261146f565b91506114f182856111f2565b91506114fc826114b9565b915061150882846111f2565b91508190509392505050565b7f4e487b71000000000000000000000000000000000000000000000000000000005f52601160045260245ffd5b5f61154b826110b6565b9150611556836110b6565b925082820390508181125f8412168282135f85121516171561157b5761157a611514565b5b92915050565b5f61158b82610a59565b6115958185611238565b93506115a5818560208601610a73565b6115ae81610a9b565b840191505092915050565b5f6080820190508181035f8301526115d18187611581565b905081810360208301526115e58186611581565b90506115f46040830185610c4f565b6116016060830184610c4f565b95945050505050565b7f4e487b71000000000000000000000000000000000000000000000000000000005f52602260045260245ffd5b5f600282049050600182168061164e57607f821691505b6020821081036116615761166061160a565b5b50919050565b5f819050815f5260205f209050919050565b5f6020601f8301049050919050565b5f82821b905092915050565b5f600883026116c37fffffffffffffffffffffffffffffffffffffffffffffffffffffffffffffffff82611688565b6116cd8683611688565b95508019841693508086168417925050509392505050565b5f819050919050565b5f6117086117036116fe84610c46565b6116e5565b610c46565b9050919050565b5f819050919050565b611721836116ee565b61173561172d8261170f565b848454611694565b825550505050565b5f90565b61174961173d565b611754818484611718565b505050565b5b818110156117775761176c5f82611741565b60018101905061175a565b5050565b601f8211156117bc5761178d81611667565b61179684611679565b810160208510156117a5578190505b6117b96117b185611679565b830182611759565b50505b505050565b5f82821c905092915050565b5f6117dc5f19846008026117c1565b1980831691505092915050565b5f6117f483836117cd565b9150826002028217905092915050565b61180d82610fd2565b67ffffffffffffffff81111561182657611825610c90565b5b6118308254611637565b61183b82828561177b565b5f60209050601f83116001811461186c575f841561185a578287015190505b61186485826117e9565b8655506118cb565b601f19841661187a86611667565b5f5b828110156118a15784890151825560018201915060208501945060208101905061187c565b868310156118be57848901516118ba601f8916826117cd565b8355505b6001600288020188555050505b505050505050565b7f6f6b0000000000000000000000000000000000000000000000000000000000005f82015250565b5f611907600283611238565b9150611912826118d3565b602082019050919050565b5f82825260208201905092915050565b5f61193782610fa9565b611941818561191d565b93508360208202850161195385610fc3565b805f5b8581101561198e578484038952815161196f8582611024565b945061197a83611037565b925060208a01995050600181019050611956565b50829750879550505050505092915050565b6119a9816110b6565b82525050565b5f6060820190508181035f8301526119c6816118fb565b905081810360208301526119da818561192d565b90506119e960408301846119a0565b9392505050565b5f6119fa82610c46565b91507fffffffffffffffffffffffffffffffffffffffffffffffffffffffffffffffff8203611a2c57611a2b611514565b5b600182019050919050565b7f4e487b71000000000000000000000000000000000000000000000000000000005f52601260045260245ffd5b5f611a6e82610c46565b9150611a7983610c46565b925082611a8957611a88611a37565b5b828204905092915050565b5f611a9e82610c46565b9150611aa983610c46565b9250828203905081811115611ac157611ac0611514565b5b92915050565b5f611ad182610c46565b9150611adc83610c46565b925082611aec57611aeb611a37565b5b828206905092915050565b5f611b0182610c46565b9150611b0c83610c46565b9250828201905080821115611b2457611b23611514565b5b9291505056fea26469706673582212209c837a804b58be25a52fcd9455c341a9acf4d7a800b5648a096575fc854baf1d64736f6c63430008140033","linkReferences":{}},"methodIdentifiers":{"generate(string,string,string[])":"c9d68abe","hasKit(string)":"7d1fa9f5","kitCount()":"7506ab54","preview(string,string,string[])":"bdc2af20","register()":"1aa3a008"},"id":27}