{"abi":[{"type":"function","name":"compare","inputs":[{"name":"eventA","type":"bytes32","internalType":"bytes32"},{"name":"eventB","type":"bytes32","internalType":"bytes32"}],"outputs":[{"name":"","type":"uint8","internalType":"enum CausalClock.Ordering"}],"stateMutability":"view"},{"type":"function","name":"dominates","inputs":[{"name":"eventA","type":"bytes32","internalType":"bytes32"},{"name":"eventB","type":"bytes32","internalType":"bytes32"}],"outputs":[{"name":"","type":"bool","internalType":"bool"}],"stateMutability":"view"},{"type":"function","name":"getClock","inputs":[{"name":"replicaId","type":"bytes32","internalType":"bytes32"}],"outputs":[{"name":"","type":"uint256[]","internalType":"uint256[]"}],"stateMutability":"view"},{"type":"function","name":"getEventClock","inputs":[{"name":"eventId","type":"bytes32","internalType":"bytes32"}],"outputs":[{"name":"","type":"uint256[]","internalType":"uint256[]"}],"stateMutability":"view"},{"type":"function","name":"getReplicaCount","inputs":[],"outputs":[{"name":"","type":"uint256","internalType":"uint256"}],"stateMutability":"view"},{"type":"function","name":"merge","inputs":[{"name":"replicaA","type":"bytes32","internalType":"bytes32"},{"name":"replicaB","type":"bytes32","internalType":"bytes32"}],"outputs":[{"name":"merged","type":"uint256[]","internalType":"uint256[]"}],"stateMutability":"nonpayable"},{"type":"function","name":"registerReplica","inputs":[{"name":"replicaId","type":"bytes32","internalType":"bytes32"}],"outputs":[],"stateMutability":"nonpayable"},{"type":"function","name":"tick","inputs":[{"name":"replicaId","type":"bytes32","internalType":"bytes32"}],"outputs":[{"name":"eventId","type":"bytes32","internalType":"bytes32"},{"name":"clock","type":"uint256[]","internalType":"uint256[]"}],"stateMutability":"nonpayable"},{"type":"event","name":"Merged","inputs":[{"name":"replicaA","type":"bytes32","indexed":true,"internalType":"bytes32"},{"name":"replicaB","type":"bytes32","indexed":true,"internalType":"bytes32"}],"anonymous":false},{"type":"event","name":"ReplicaRegistered","inputs":[{"name":"replicaId","type":"bytes32","indexed":true,"internalType":"bytes32"},{"name":"index","type":"uint256","indexed":false,"internalType":"uint256"}],"anonymous":false},{"type":"event","name":"Ticked","inputs":[{"name":"replicaId","type":"bytes32","indexed":true,"internalType":"bytes32"},{"name":"eventId","type":"bytes32","indexed":true,"internalType":"bytes32"}],"anonymous":false}],"bytecode":{"object":"0x608060405234801561000f575f80fd5b5061161a8061001d5f395ff3fe608060405234801561000f575f80fd5b5060043610610086575f3560e01c8063b5af7ed911610059578063b5af7ed914610137578063b7d1fa8614610155578063f13a164414610185578063fcb68d66146101b557610086565b806328602ab21461008a5780632f175cc5146100ba578063626e4a36146100d6578063909e631614610107575b5f80fd5b6100a4600480360381019061009f9190610edd565b6101e5565b6040516100b19190610f8e565b60405180910390f35b6100d460048036038101906100cf9190610fa7565b610408565b005b6100f060048036038101906100eb9190610fa7565b6105b1565b6040516100fe9291906110a1565b60405180910390f35b610121600480360381019061011c9190610fa7565b6107a8565b60405161012e91906110cf565b60405180910390f35b61013f61086c565b60405161014c91906110fe565b60405180910390f35b61016f600480360381019061016a9190610edd565b610875565b60405161017c91906110cf565b60405180910390f35b61019f600480360381019061019a9190610fa7565b610a8e565b6040516101ac91906110cf565b60405180910390f35b6101cf60048036038101906101ca9190610edd565b610b51565b6040516101dc9190611131565b60405180910390f35b5f60065f8481526020019081526020015f205f9054906101000a900460ff16610243576040517f08c379a000000000000000000000000000000000000000000000000000000000815260040161023a906111a4565b60405180910390fd5b60065f8381526020019081526020015f205f9054906101000a900460ff166102a0576040517f08c379a00000000000000000000000000000000000000000000000000000000081526004016102979061120c565b60405180910390fd5b5f60045f8581526020019081526020015f2090505f60045f8581526020019081526020015f2090505f600190505f600190505f805f85805490508780549050116102ee5785805490506102f4565b86805490505b90505f5b81811015610397575f88805490508210610312575f61032f565b8882815481106103255761032461122a565b5b905f5260205f2001545b90505f88805490508310610343575f610360565b8883815481106103565761035561122a565b5b905f5260205f2001545b905080821115610372575f9750600194505b80821015610382575f9650600195505b5050808061038f90611284565b9150506102f8565b50821580156103a4575081155b156103b9576003975050505050505050610402565b8480156103c35750825b156103d7575f975050505050505050610402565b8380156103e15750815b156103f6576001975050505050505050610402565b60029750505050505050505b92915050565b5f801b810361044c576040517f08c379a000000000000000000000000000000000000000000000000000000000815260040161044390611315565b60405180910390fd5b60025f8281526020019081526020015f205f9054906101000a900460ff16156104aa576040517f08c379a00000000000000000000000000000000000000000000000000000000081526004016104a19061137d565b60405180910390fd5b5f60035490508060015f8481526020019081526020015f2081905550600160025f8481526020019081526020015f205f6101000a81548160ff02191690831515021790555060035f81548092919061050190611284565b919050555060035467ffffffffffffffff8111156105225761052161139b565b5b6040519080825280602002602001820160405280156105505781602001602082028036833780820191505090505b505f808481526020019081526020015f209080519060200190610574929190610e40565b50817fc8262e5cea93bebebdf23308ad004b0e77f226d5c1d64b68a187f2fae80aceae826040516105a591906110fe565b60405180910390a25050565b5f606060025f8481526020019081526020015f205f9054906101000a900460ff16610611576040517f08c379a000000000000000000000000000000000000000000000000000000000815260040161060890611412565b60405180910390fd5b61061a83610d0b565b5f60015f8581526020019081526020015f205490505f808581526020019081526020015f2081815481106106515761065061122a565b5b905f5260205f20015f81548092919061066990611284565b919050555060075f81548092919061068090611284565b9190505550835f808681526020019081526020015f2082815481106106a8576106a761122a565b5b905f5260205f2001546007546040516020016106c693929190611470565b6040516020818303038152906040528051906020012092506106f65f808681526020019081526020015f20610d88565b60045f8581526020019081526020015f20908051906020019061071a929190610e40565b508360055f8581526020019081526020015f2081905550600160065f8581526020019081526020015f205f6101000a81548160ff0219169083151502179055506107725f808681526020019081526020015f20610d88565b915082847f8c09bf9376a3e397f35d8360179cebff5842f062cb9b216765aabf1ef779c6f860405160405180910390a350915091565b606060065f8381526020019081526020015f205f9054906101000a900460ff16610807576040517f08c379a00000000000000000000000000000000000000000000000000000000081526004016107fe906114f6565b60405180910390fd5b60045f8381526020019081526020015f2080548060200260200160405190810160405280929190818152602001828054801561086057602002820191905f5260205f20905b81548152602001906001019080831161084c575b50505050509050919050565b5f600354905090565b606060025f8481526020019081526020015f205f9054906101000a900460ff166108d4576040517f08c379a00000000000000000000000000000000000000000000000000000000081526004016108cb9061155e565b60405180910390fd5b60025f8381526020019081526020015f205f9054906101000a900460ff16610931576040517f08c379a0000000000000000000000000000000000000000000000000000000008152600401610928906115c6565b60405180910390fd5b61093a83610d0b565b61094382610d0b565b5f60035490505f5b81811015610a3e575f805f8781526020019081526020015f20805490508210610974575f6109a0565b5f808781526020019081526020015f2082815481106109965761099561122a565b5b905f5260205f2001545b90505f805f8781526020019081526020015f208054905083106109c3575f6109ef565b5f808781526020019081526020015f2083815481106109e5576109e461122a565b5b905f5260205f2001545b905081811115610a2957805f808981526020019081526020015f208481548110610a1c57610a1b61122a565b5b905f5260205f2001819055505b50508080610a3690611284565b91505061094b565b50610a575f808681526020019081526020015f20610d88565b915082847f72b50597145599e4288d411331c925b40b33b0fa3cccadc1f57d2a1ab973553a60405160405180910390a35092915050565b606060025f8381526020019081526020015f205f9054906101000a900460ff16610aed576040517f08c379a0000000000000000000000000000000000000000000000000000000008152600401610ae490611412565b60405180910390fd5b5f808381526020019081526020015f20805480602002602001604051908101604052809291908181526020018280548015610b4557602002820191905f5260205f20905b815481526020019060010190808311610b31575b50505050509050919050565b5f60065f8481526020019081526020015f205f9054906101000a900460ff16610baf576040517f08c379a0000000000000000000000000000000000000000000000000000000008152600401610ba6906111a4565b60405180910390fd5b60065f8381526020019081526020015f205f9054906101000a900460ff16610c0c576040517f08c379a0000000000000000000000000000000000000000000000000000000008152600401610c039061120c565b60405180910390fd5b5f60045f8581526020019081526020015f2090505f60045f8581526020019081526020015f2090505f808280549050848054905011610c4f578280549050610c55565b83805490505b90505f5b81811015610cfc575f85805490508210610c73575f610c90565b858281548110610c8657610c8561122a565b5b905f5260205f2001545b90505f85805490508310610ca4575f610cc1565b858381548110610cb757610cb661122a565b5b905f5260205f2001545b905080821015610cda575f975050505050505050610d05565b80821115610ce757600194505b50508080610cf490611284565b915050610c59565b50819450505050505b92915050565b5f805f8381526020019081526020015f20805490509050600354811015610d84575f8190505b600354811015610d82575f808481526020019081526020015f205f908060018154018082558091505060019003905f5260205f20015f90919091909150558080610d7a90611284565b915050610d31565b505b5050565b60605f828054905067ffffffffffffffff811115610da957610da861139b565b5b604051908082528060200260200182016040528015610dd75781602001602082028036833780820191505090505b5090505f5b8380549050811015610e3657838181548110610dfb57610dfa61122a565b5b905f5260205f200154828281518110610e1757610e1661122a565b5b6020026020010181815250508080610e2e90611284565b915050610ddc565b5080915050919050565b828054828255905f5260205f20908101928215610e7a579160200282015b82811115610e79578251825591602001919060010190610e5e565b5b509050610e879190610e8b565b5090565b5b80821115610ea2575f815f905550600101610e8c565b5090565b5f80fd5b5f819050919050565b610ebc81610eaa565b8114610ec6575f80fd5b50565b5f81359050610ed781610eb3565b92915050565b5f8060408385031215610ef357610ef2610ea6565b5b5f610f0085828601610ec9565b9250506020610f1185828601610ec9565b9150509250929050565b7f4e487b71000000000000000000000000000000000000000000000000000000005f52602160045260245ffd5b60048110610f5957610f58610f1b565b5b50565b5f819050610f6982610f48565b919050565b5f610f7882610f5c565b9050919050565b610f8881610f6e565b82525050565b5f602082019050610fa15f830184610f7f565b92915050565b5f60208284031215610fbc57610fbb610ea6565b5b5f610fc984828501610ec9565b91505092915050565b610fdb81610eaa565b82525050565b5f81519050919050565b5f82825260208201905092915050565b5f819050602082019050919050565b5f819050919050565b61101c8161100a565b82525050565b5f61102d8383611013565b60208301905092915050565b5f602082019050919050565b5f61104f82610fe1565b6110598185610feb565b935061106483610ffb565b805f5b8381101561109457815161107b8882611022565b975061108683611039565b925050600181019050611067565b5085935050505092915050565b5f6040820190506110b45f830185610fd2565b81810360208301526110c68184611045565b90509392505050565b5f6020820190508181035f8301526110e78184611045565b905092915050565b6110f88161100a565b82525050565b5f6020820190506111115f8301846110ef565b92915050565b5f8115159050919050565b61112b81611117565b82525050565b5f6020820190506111445f830184611122565b92915050565b5f82825260208201905092915050565b7f4576656e74204120646f6573206e6f74206578697374000000000000000000005f82015250565b5f61118e60168361114a565b91506111998261115a565b602082019050919050565b5f6020820190508181035f8301526111bb81611182565b9050919050565b7f4576656e74204220646f6573206e6f74206578697374000000000000000000005f82015250565b5f6111f660168361114a565b9150611201826111c2565b602082019050919050565b5f6020820190508181035f830152611223816111ea565b9050919050565b7f4e487b71000000000000000000000000000000000000000000000000000000005f52603260045260245ffd5b7f4e487b71000000000000000000000000000000000000000000000000000000005f52601160045260245ffd5b5f61128e8261100a565b91507fffffffffffffffffffffffffffffffffffffffffffffffffffffffffffffffff82036112c0576112bf611257565b5b600182019050919050565b7f5265706c6963612049442063616e6e6f74206265207a65726f000000000000005f82015250565b5f6112ff60198361114a565b915061130a826112cb565b602082019050919050565b5f6020820190508181035f83015261132c816112f3565b9050919050565b7f5265706c69636120616c726561647920726567697374657265640000000000005f82015250565b5f611367601a8361114a565b915061137282611333565b602082019050919050565b5f6020820190508181035f8301526113948161135b565b9050919050565b7f4e487b71000000000000000000000000000000000000000000000000000000005f52604160045260245ffd5b7f5265706c696361206e6f742072656769737465726564000000000000000000005f82015250565b5f6113fc60168361114a565b9150611407826113c8565b602082019050919050565b5f6020820190508181035f830152611429816113f0565b9050919050565b5f819050919050565b61144a61144582610eaa565b611430565b82525050565b5f819050919050565b61146a6114658261100a565b611450565b82525050565b5f61147b8286611439565b60208201915061148b8285611459565b60208201915061149b8284611459565b602082019150819050949350505050565b7f4576656e7420646f6573206e6f742065786973740000000000000000000000005f82015250565b5f6114e060148361114a565b91506114eb826114ac565b602082019050919050565b5f6020820190508181035f83015261150d816114d4565b9050919050565b7f5265706c6963612041206e6f74207265676973746572656400000000000000005f82015250565b5f61154860188361114a565b915061155382611514565b602082019050919050565b5f6020820190508181035f8301526115758161153c565b9050919050565b7f5265706c6963612042206e6f74207265676973746572656400000000000000005f82015250565b5f6115b060188361114a565b91506115bb8261157c565b602082019050919050565b5f6020820190508181035f8301526115dd816115a4565b905091905056fea26469706673582212205fc72c23c3a037300ea8ca1b1f2baad65cc75c91f2ab47f65b634352e575290564736f6c63430008140033","linkReferences":{}},"methodIdentifiers":{"compare(bytes32,bytes32)":"28602ab2","dominates(bytes32,bytes32)":"fcb68d66","getClock(bytes32)":"f13a1644","getEventClock(bytes32)":"909e6316","getReplicaCount()":"b5af7ed9","merge(bytes32,bytes32)":"b7d1fa86","registerReplica(bytes32)":"2f175cc5","tick(bytes32)":"626e4a36"},"id":50}