{"abi":[{"type":"function","name":"mount","inputs":[{"name":"renderer","type":"bytes32","internalType":"bytes32"},{"name":"machine","type":"string","internalType":"string"},{"name":"target","type":"string","internalType":"string"}],"outputs":[{"name":"","type":"tuple","internalType":"struct FrameworkAdapter.MountOkResult","components":[{"name":"success","type":"bool","internalType":"bool"},{"name":"renderer","type":"bytes32","internalType":"bytes32"}]}],"stateMutability":"nonpayable"},{"type":"function","name":"normalize","inputs":[{"name":"renderer","type":"bytes32","internalType":"bytes32"},{"name":"props","type":"string","internalType":"string"}],"outputs":[{"name":"","type":"tuple","internalType":"struct FrameworkAdapter.NormalizeOkResult","components":[{"name":"success","type":"bool","internalType":"bool"},{"name":"normalized","type":"string","internalType":"string"}]}],"stateMutability":"nonpayable"},{"type":"function","name":"register","inputs":[{"name":"renderer","type":"bytes32","internalType":"bytes32"},{"name":"framework","type":"string","internalType":"string"},{"name":"version","type":"string","internalType":"string"},{"name":"normalizer","type":"string","internalType":"string"},{"name":"mountFn","type":"string","internalType":"string"}],"outputs":[{"name":"","type":"tuple","internalType":"struct FrameworkAdapter.RegisterOkResult","components":[{"name":"success","type":"bool","internalType":"bool"},{"name":"renderer","type":"bytes32","internalType":"bytes32"}]}],"stateMutability":"nonpayable"},{"type":"function","name":"render","inputs":[{"name":"adapter","type":"bytes32","internalType":"bytes32"},{"name":"props","type":"string","internalType":"string"}],"outputs":[{"name":"","type":"tuple","internalType":"struct FrameworkAdapter.RenderOkResult","components":[{"name":"success","type":"bool","internalType":"bool"},{"name":"adapter","type":"bytes32","internalType":"bytes32"}]}],"stateMutability":"nonpayable"},{"type":"function","name":"unmount","inputs":[{"name":"renderer","type":"bytes32","internalType":"bytes32"},{"name":"target","type":"string","internalType":"string"}],"outputs":[{"name":"","type":"tuple","internalType":"struct FrameworkAdapter.UnmountOkResult","components":[{"name":"success","type":"bool","internalType":"bool"},{"name":"renderer","type":"bytes32","internalType":"bytes32"}]}],"stateMutability":"nonpayable"},{"type":"event","name":"MountCompleted","inputs":[{"name":"variant","type":"string","indexed":false,"internalType":"string"},{"name":"renderer","type":"bytes32","indexed":false,"internalType":"bytes32"}],"anonymous":false},{"type":"event","name":"NormalizeCompleted","inputs":[{"name":"variant","type":"string","indexed":false,"internalType":"string"}],"anonymous":false},{"type":"event","name":"RegisterCompleted","inputs":[{"name":"variant","type":"string","indexed":false,"internalType":"string"},{"name":"renderer","type":"bytes32","indexed":false,"internalType":"bytes32"}],"anonymous":false},{"type":"event","name":"RenderCompleted","inputs":[{"name":"variant","type":"string","indexed":false,"internalType":"string"},{"name":"adapter","type":"bytes32","indexed":false,"internalType":"bytes32"}],"anonymous":false},{"type":"event","name":"UnmountCompleted","inputs":[{"name":"variant","type":"string","indexed":false,"internalType":"string"},{"name":"renderer","type":"bytes32","indexed":false,"internalType":"bytes32"}],"anonymous":false}],"bytecode":{"object":"0x608060405234801561000f575f80fd5b5061188e8061001d5f395ff3fe608060405234801561000f575f80fd5b5060043610610055575f3560e01c80635c59f60814610059578063672b5d5a146100895780636e51dada146100b9578063a3ab6c45146100e9578063fac49a3c14610119575b5f80fd5b610073600480360381019061006e9190610aa1565b610149565b6040516100809190610b51565b60405180910390f35b6100a3600480360381019061009e9190610aa1565b6102b7565b6040516100b09190610b97565b60405180910390f35b6100d360048036038101906100ce9190610aa1565b610397565b6040516100e09190610c64565b60405180910390f35b61010360048036038101906100fe9190610c84565b610570565b6040516101109190610d39565b60405180910390f35b610133600480360381019061012e9190610d52565b610767565b6040516101409190610e66565b60405180910390f35b610151610892565b60015f8481526020019081526020015f205f9054906101000a900460ff166101ae576040517f08c379a00000000000000000000000000000000000000000000000000000000081526004016101a590610ed9565b60405180910390fd5b5f83836040516020016101c2929190610f51565b60405160208183030381529060405280519060200120905060025f8281526020019081526020015f205f9054906101000a900460ff16610237576040517f08c379a000000000000000000000000000000000000000000000000000000000815260040161022e90610fc2565b60405180910390fd5b5f60025f8381526020019081526020015f205f6101000a81548160ff0219169083151502179055507fd9e2556004c3ff5999a14b0647cee3957b7fb312874054f371cefdd2034aa8cd8460405161028e9190611039565b60405180910390a160405180604001604052806001151581526020018581525091505092915050565b6102bf6108af565b5f825111610302576040517f08c379a00000000000000000000000000000000000000000000000000000000081526004016102f9906110af565b60405180910390fd5b816040516020016103139190611105565b60405160208183030381529060405260035f8581526020019081526020015f20908161033f9190611332565b507fe40bcf50db2bbd301301e17d3259245dd8bb88c7db9eb889bb4c7aef6982b7b98360405161036f9190611039565b60405180910390a1604051806040016040528060011515815260200184815250905092915050565b61039f6108cc565b60015f8481526020019081526020015f205f9054906101000a900460ff166103fc576040517f08c379a00000000000000000000000000000000000000000000000000000000081526004016103f39061144b565b60405180910390fd5b5f82511161043f576040517f08c379a0000000000000000000000000000000000000000000000000000000008152600401610436906110af565b60405180910390fd5b5f805f808681526020019081526020015f20805461045c9061115c565b80601f01602080910402602001604051908101604052809291908181526020018280546104889061115c565b80156104d35780601f106104aa576101008083540402835291602001916104d3565b820191905f5260205f20905b8154815290600101906020018083116104b657829003601f168201915b50505050508060200190518101906104eb91906114d7565b5092505091505f828286604051602001610507939291906115f5565b60405160208183030381529060405290507f68d1de535016e4fd47ec2ac86f2988028e0aeb94256d9489aacaf4f17b96bc426040516105459061163b565b60405180910390a1604051806040016040528060011515815260200182815250935050505092915050565b6105786108e7565b60015f8581526020019081526020015f205f9054906101000a900460ff166105d5576040517f08c379a00000000000000000000000000000000000000000000000000000000081526004016105cc90610ed9565b60405180910390fd5b5f825111610618576040517f08c379a000000000000000000000000000000000000000000000000000000000815260040161060f906116a3565b60405180910390fd5b5f83511161065b576040517f08c379a00000000000000000000000000000000000000000000000000000000081526004016106529061170b565b60405180910390fd5b5f848360405160200161066f929190610f51565b60405160208183030381529060405280519060200120905060025f8281526020019081526020015f205f9054906101000a900460ff16156106e5576040517f08c379a00000000000000000000000000000000000000000000000000000000081526004016106dc90611773565b60405180910390fd5b600160025f8381526020019081526020015f205f6101000a81548160ff0219169083151502179055507fe1fae02c456ba8f92240cc025b75fe6ebe6bc92d38c8bd94dda7cffff62c51b78560405161073d9190611039565b60405180910390a16040518060400160405280600115158152602001868152509150509392505050565b61076f610904565b60015f8781526020019081526020015f205f9054906101000a900460ff16156107cd576040517f08c379a00000000000000000000000000000000000000000000000000000000081526004016107c4906117db565b60405180910390fd5b848484846040516020016107e494939291906117f9565b6040516020818303038152906040525f808881526020019081526020015f20908161080f9190611332565b506001805f8881526020019081526020015f205f6101000a81548160ff0219169083151502179055507f0402c886f5c1bb50afb826d1767a153123631152c678fbec8089e9e8ee3e49bf866040516108679190611039565b60405180910390a1604051806040016040528060011515815260200187815250905095945050505050565b60405180604001604052805f151581526020015f80191681525090565b60405180604001604052805f151581526020015f80191681525090565b60405180604001604052805f15158152602001606081525090565b60405180604001604052805f151581526020015f80191681525090565b60405180604001604052805f151581526020015f80191681525090565b5f604051905090565b5f80fd5b5f80fd5b5f819050919050565b61094481610932565b811461094e575f80fd5b50565b5f8135905061095f8161093b565b92915050565b5f80fd5b5f80fd5b5f601f19601f8301169050919050565b7f4e487b71000000000000000000000000000000000000000000000000000000005f52604160045260245ffd5b6109b38261096d565b810181811067ffffffffffffffff821117156109d2576109d161097d565b5b80604052505050565b5f6109e4610921565b90506109f082826109aa565b919050565b5f67ffffffffffffffff821115610a0f57610a0e61097d565b5b610a188261096d565b9050602081019050919050565b828183375f83830152505050565b5f610a45610a40846109f5565b6109db565b905082815260208101848484011115610a6157610a60610969565b5b610a6c848285610a25565b509392505050565b5f82601f830112610a8857610a87610965565b5b8135610a98848260208601610a33565b91505092915050565b5f8060408385031215610ab757610ab661092a565b5b5f610ac485828601610951565b925050602083013567ffffffffffffffff811115610ae557610ae461092e565b5b610af185828601610a74565b9150509250929050565b5f8115159050919050565b610b0f81610afb565b82525050565b610b1e81610932565b82525050565b604082015f820151610b385f850182610b06565b506020820151610b4b6020850182610b15565b50505050565b5f604082019050610b645f830184610b24565b92915050565b604082015f820151610b7e5f850182610b06565b506020820151610b916020850182610b15565b50505050565b5f604082019050610baa5f830184610b6a565b92915050565b5f81519050919050565b5f82825260208201905092915050565b5f5b83811015610be7578082015181840152602081019050610bcc565b5f8484015250505050565b5f610bfc82610bb0565b610c068185610bba565b9350610c16818560208601610bca565b610c1f8161096d565b840191505092915050565b5f604083015f830151610c3f5f860182610b06565b5060208301518482036020860152610c578282610bf2565b9150508091505092915050565b5f6020820190508181035f830152610c7c8184610c2a565b905092915050565b5f805f60608486031215610c9b57610c9a61092a565b5b5f610ca886828701610951565b935050602084013567ffffffffffffffff811115610cc957610cc861092e565b5b610cd586828701610a74565b925050604084013567ffffffffffffffff811115610cf657610cf561092e565b5b610d0286828701610a74565b9150509250925092565b604082015f820151610d205f850182610b06565b506020820151610d336020850182610b15565b50505050565b5f604082019050610d4c5f830184610d0c565b92915050565b5f805f805f60a08688031215610d6b57610d6a61092a565b5b5f610d7888828901610951565b955050602086013567ffffffffffffffff811115610d9957610d9861092e565b5b610da588828901610a74565b945050604086013567ffffffffffffffff811115610dc657610dc561092e565b5b610dd288828901610a74565b935050606086013567ffffffffffffffff811115610df357610df261092e565b5b610dff88828901610a74565b925050608086013567ffffffffffffffff811115610e2057610e1f61092e565b5b610e2c88828901610a74565b9150509295509295909350565b604082015f820151610e4d5f850182610b06565b506020820151610e606020850182610b15565b50505050565b5f604082019050610e795f830184610e39565b92915050565b5f82825260208201905092915050565b7f52656e6465726572206e6f7420726567697374657265640000000000000000005f82015250565b5f610ec3601783610e7f565b9150610ece82610e8f565b602082019050919050565b5f6020820190508181035f830152610ef081610eb7565b9050919050565b5f819050919050565b610f11610f0c82610932565b610ef7565b82525050565b5f81905092915050565b5f610f2b82610bb0565b610f358185610f17565b9350610f45818560208601610bca565b80840191505092915050565b5f610f5c8285610f00565b602082019150610f6c8284610f21565b91508190509392505050565b7f546172676574206e6f74206d6f756e74656400000000000000000000000000005f82015250565b5f610fac601283610e7f565b9150610fb782610f78565b602082019050919050565b5f6020820190508181035f830152610fd981610fa0565b9050919050565b7f6f6b0000000000000000000000000000000000000000000000000000000000005f82015250565b5f611014600283610e7f565b915061101f82610fe0565b602082019050919050565b61103381610932565b82525050565b5f6040820190508181035f83015261105081611008565b905061105f602083018461102a565b92915050565b7f50726f7073206d757374206e6f7420626520656d7074790000000000000000005f82015250565b5f611099601783610e7f565b91506110a482611065565b602082019050919050565b5f6020820190508181035f8301526110c68161108d565b9050919050565b5f6110d782610bb0565b6110e18185610e7f565b93506110f1818560208601610bca565b6110fa8161096d565b840191505092915050565b5f6020820190508181035f83015261111d81846110cd565b905092915050565b5f81519050919050565b7f4e487b71000000000000000000000000000000000000000000000000000000005f52602260045260245ffd5b5f600282049050600182168061117357607f821691505b6020821081036111865761118561112f565b5b50919050565b5f819050815f5260205f209050919050565b5f6020601f8301049050919050565b5f82821b905092915050565b5f600883026111e87fffffffffffffffffffffffffffffffffffffffffffffffffffffffffffffffff826111ad565b6111f286836111ad565b95508019841693508086168417925050509392505050565b5f819050919050565b5f819050919050565b5f61123661123161122c8461120a565b611213565b61120a565b9050919050565b5f819050919050565b61124f8361121c565b61126361125b8261123d565b8484546111b9565b825550505050565b5f90565b61127761126b565b611282818484611246565b505050565b5b818110156112a55761129a5f8261126f565b600181019050611288565b5050565b601f8211156112ea576112bb8161118c565b6112c48461119e565b810160208510156112d3578190505b6112e76112df8561119e565b830182611287565b50505b505050565b5f82821c905092915050565b5f61130a5f19846008026112ef565b1980831691505092915050565b5f61132283836112fb565b9150826002028217905092915050565b61133b82611125565b67ffffffffffffffff8111156113545761135361097d565b5b61135e825461115c565b6113698282856112a9565b5f60209050601f83116001811461139a575f8415611388578287015190505b6113928582611317565b8655506113f9565b601f1984166113a88661118c565b5f5b828110156113cf578489015182556001820191506020850194506020810190506113aa565b868310156113ec57848901516113e8601f8916826112fb565b8355505b6001600288020188555050505b505050505050565b7f52656e6465726572206e6f7420666f756e6400000000000000000000000000005f82015250565b5f611435601283610e7f565b915061144082611401565b602082019050919050565b5f6020820190508181035f83015261146281611429565b9050919050565b5f61147b611476846109f5565b6109db565b90508281526020810184848401111561149757611496610969565b5b6114a2848285610bca565b509392505050565b5f82601f8301126114be576114bd610965565b5b81516114ce848260208601611469565b91505092915050565b5f805f80608085870312156114ef576114ee61092a565b5b5f85015167ffffffffffffffff81111561150c5761150b61092e565b5b611518878288016114aa565b945050602085015167ffffffffffffffff8111156115395761153861092e565b5b611545878288016114aa565b935050604085015167ffffffffffffffff8111156115665761156561092e565b5b611572878288016114aa565b925050606085015167ffffffffffffffff8111156115935761159261092e565b5b61159f878288016114aa565b91505092959194509250565b7f3a000000000000000000000000000000000000000000000000000000000000005f82015250565b5f6115df600183610f17565b91506115ea826115ab565b600182019050919050565b5f6116008286610f21565b915061160b826115d3565b91506116178285610f21565b9150611622826115d3565b915061162e8284610f21565b9150819050949350505050565b5f6020820190508181035f83015261165281611008565b9050919050565b7f546172676574206d757374206e6f7420626520656d70747900000000000000005f82015250565b5f61168d601883610e7f565b915061169882611659565b602082019050919050565b5f6020820190508181035f8301526116ba81611681565b9050919050565b7f4d616368696e65206d757374206e6f7420626520656d707479000000000000005f82015250565b5f6116f5601983610e7f565b9150611700826116c1565b602082019050919050565b5f6020820190508181035f830152611722816116e9565b9050919050565b7f54617267657420616c7265616479206d6f756e746564000000000000000000005f82015250565b5f61175d601683610e7f565b915061176882611729565b602082019050919050565b5f6020820190508181035f83015261178a81611751565b9050919050565b7f52656e646572657220616c7265616479207265676973746572656400000000005f82015250565b5f6117c5601b83610e7f565b91506117d082611791565b602082019050919050565b5f6020820190508181035f8301526117f2816117b9565b9050919050565b5f6080820190508181035f83015261181181876110cd565b9050818103602083015261182581866110cd565b9050818103604083015261183981856110cd565b9050818103606083015261184d81846110cd565b90509594505050505056fea2646970667358221220deaadcf18c9defaed079eba740a37af56533478a8dd20ffeac9c9c5623d3cddc64736f6c63430008140033","linkReferences":{}},"methodIdentifiers":{"mount(bytes32,string,string)":"a3ab6c45","normalize(bytes32,string)":"6e51dada","register(bytes32,string,string,string,string)":"fac49a3c","render(bytes32,string)":"672b5d5a","unmount(bytes32,string)":"5c59f608"},"id":128}