{"abi":[{"type":"function","name":"attach","inputs":[{"name":"surface","type":"bytes32","internalType":"bytes32"},{"name":"renderer","type":"string","internalType":"string"}],"outputs":[{"name":"","type":"tuple","internalType":"struct Surface.AttachOkResult","components":[{"name":"success","type":"bool","internalType":"bool"},{"name":"surface","type":"bytes32","internalType":"bytes32"}]}],"stateMutability":"nonpayable"},{"type":"function","name":"create","inputs":[{"name":"surface","type":"bytes32","internalType":"bytes32"},{"name":"kind","type":"string","internalType":"string"},{"name":"mountPoint","type":"string","internalType":"string"}],"outputs":[{"name":"","type":"tuple","internalType":"struct Surface.CreateOkResult","components":[{"name":"success","type":"bool","internalType":"bool"},{"name":"surface","type":"bytes32","internalType":"bytes32"}]}],"stateMutability":"nonpayable"},{"type":"function","name":"destroy","inputs":[{"name":"surface","type":"bytes32","internalType":"bytes32"}],"outputs":[{"name":"","type":"tuple","internalType":"struct Surface.DestroyOkResult","components":[{"name":"success","type":"bool","internalType":"bool"},{"name":"surface","type":"bytes32","internalType":"bytes32"}]}],"stateMutability":"nonpayable"},{"type":"function","name":"mount","inputs":[{"name":"surface","type":"bytes32","internalType":"bytes32"},{"name":"tree","type":"string","internalType":"string"},{"name":"zone","type":"string","internalType":"string"}],"outputs":[{"name":"","type":"tuple","internalType":"struct Surface.MountOkResult","components":[{"name":"success","type":"bool","internalType":"bool"},{"name":"surface","type":"bytes32","internalType":"bytes32"}]}],"stateMutability":"nonpayable"},{"type":"function","name":"resize","inputs":[{"name":"surface","type":"bytes32","internalType":"bytes32"},{"name":"width","type":"int256","internalType":"int256"},{"name":"height","type":"int256","internalType":"int256"}],"outputs":[{"name":"","type":"tuple","internalType":"struct Surface.ResizeOkResult","components":[{"name":"success","type":"bool","internalType":"bool"},{"name":"surface","type":"bytes32","internalType":"bytes32"}]}],"stateMutability":"nonpayable"},{"type":"function","name":"unmount","inputs":[{"name":"surface","type":"bytes32","internalType":"bytes32"},{"name":"zone","type":"string","internalType":"string"}],"outputs":[{"name":"","type":"tuple","internalType":"struct Surface.UnmountOkResult","components":[{"name":"success","type":"bool","internalType":"bool"},{"name":"surface","type":"bytes32","internalType":"bytes32"}]}],"stateMutability":"nonpayable"},{"type":"event","name":"AttachCompleted","inputs":[{"name":"variant","type":"string","indexed":false,"internalType":"string"},{"name":"surface","type":"bytes32","indexed":true,"internalType":"bytes32"}],"anonymous":false},{"type":"event","name":"CreateCompleted","inputs":[{"name":"variant","type":"string","indexed":false,"internalType":"string"},{"name":"surface","type":"bytes32","indexed":true,"internalType":"bytes32"}],"anonymous":false},{"type":"event","name":"DestroyCompleted","inputs":[{"name":"variant","type":"string","indexed":false,"internalType":"string"},{"name":"surface","type":"bytes32","indexed":true,"internalType":"bytes32"}],"anonymous":false},{"type":"event","name":"MountCompleted","inputs":[{"name":"variant","type":"string","indexed":false,"internalType":"string"},{"name":"surface","type":"bytes32","indexed":true,"internalType":"bytes32"}],"anonymous":false},{"type":"event","name":"ResizeCompleted","inputs":[{"name":"variant","type":"string","indexed":false,"internalType":"string"},{"name":"surface","type":"bytes32","indexed":true,"internalType":"bytes32"}],"anonymous":false},{"type":"event","name":"UnmountCompleted","inputs":[{"name":"variant","type":"string","indexed":false,"internalType":"string"},{"name":"surface","type":"bytes32","indexed":true,"internalType":"bytes32"}],"anonymous":false}],"bytecode":{"object":"0x608060405234801561000f575f80fd5b506116678061001d5f395ff3fe608060405234801561000f575f80fd5b5060043610610060575f3560e01c80635c59f6081461006457806365447d1e146100945780636e0bd282146100c4578063882a3848146100f4578063a3ab6c4514610124578063e501fe3c14610154575b5f80fd5b61007e60048036038101906100799190610d00565b610184565b60405161008b9190610db0565b60405180910390f35b6100ae60048036038101906100a99190610d00565b610338565b6040516100bb9190610df6565b60405180910390f35b6100de60048036038101906100d99190610e0f565b610473565b6040516100eb9190610e67565b60405180910390f35b61010e60048036038101906101099190610eb3565b6105e6565b60405161011b9190610f30565b60405180910390f35b61013e60048036038101906101399190610f49565b6106d2565b60405161014b9190610ffe565b60405180910390f35b61016e60048036038101906101699190610f49565b61087e565b60405161017b9190611044565b60405180910390f35b61018c610a7a565b60015f8481526020019081526020015f205f9054906101000a900460ff166101e9576040517f08c379a00000000000000000000000000000000000000000000000000000000081526004016101e0906110b7565b60405180910390fd5b5f826040516020016101fb9190611141565b60405160208183030381529060405280519060200120905060035f8581526020019081526020015f205f8281526020019081526020015f205f9054906101000a900460ff1661027f576040517f08c379a0000000000000000000000000000000000000000000000000000000008152600401610276906111a1565b60405180910390fd5b60025f8581526020019081526020015f205f8281526020019081526020015f205f6102aa9190610a97565b5f60035f8681526020019081526020015f205f8381526020019081526020015f205f6101000a81548160ff021916908315150217905550837fd9e2556004c3ff5999a14b0647cee3957b7fb312874054f371cefdd2034aa8cd60405161030f90611209565b60405180910390a260405180604001604052806001151581526020018581525091505092915050565b610340610ad4565b60015f8481526020019081526020015f205f9054906101000a900460ff1661039d576040517f08c379a0000000000000000000000000000000000000000000000000000000008152600401610394906110b7565b60405180910390fd5b5f808481526020019081526020015f206005015f9054906101000a900460ff166103fc576040517f08c379a00000000000000000000000000000000000000000000000000000000081526004016103f390611271565b60405180910390fd5b815f808581526020019081526020015f20600201908161041c9190611492565b50827f771207ed752a4b807015b9dc5a2e3d2ea6158c8a6d24fa4f4af59f4cc4c98da960405161044b90611209565b60405180910390a2604051806040016040528060011515815260200184815250905092915050565b61047b610af1565b60015f8381526020019081526020015f205f9054906101000a900460ff166104d8576040517f08c379a00000000000000000000000000000000000000000000000000000000081526004016104cf906110b7565b60405180910390fd5b5f805f8481526020019081526020015f206005015f6101000a81548160ff0219169083151502179055505f808381526020019081526020015f205f8082015f6105219190610a97565b600182015f6105309190610a97565b600282015f61053f9190610a97565b600382015f9055600482015f9055600582015f6101000a81549060ff0219169055600682015f905550505f60015f8481526020019081526020015f205f6101000a81548160ff021916908315150217905550817f5f91d6f5b071e1c01422208aefdc94722551cb418c8c493cbd4fa563938bc5d06040516105bf90611209565b60405180910390a26040518060400160405280600115158152602001838152509050919050565b6105ee610b0e565b60015f8581526020019081526020015f205f9054906101000a900460ff1661064b576040517f08c379a0000000000000000000000000000000000000000000000000000000008152600401610642906110b7565b60405180910390fd5b825f808681526020019081526020015f2060030181905550815f808681526020019081526020015f2060040181905550837fe1632a1fc36739c9e63a14b894287601c6aaaefd43e87ffe718505215aa623396040516106a990611209565b60405180910390a260405180604001604052806001151581526020018581525090509392505050565b6106da610b2b565b60015f8581526020019081526020015f205f9054906101000a900460ff16610737576040517f08c379a000000000000000000000000000000000000000000000000000000000815260040161072e906110b7565b60405180910390fd5b5f808581526020019081526020015f206005015f9054906101000a900460ff16610796576040517f08c379a000000000000000000000000000000000000000000000000000000000815260040161078d90611271565b60405180910390fd5b5f826040516020016107a89190611141565b6040516020818303038152906040528051906020012090508360025f8781526020019081526020015f205f8381526020019081526020015f2090816107ed9190611492565b50600160035f8781526020019081526020015f205f8381526020019081526020015f205f6101000a81548160ff021916908315150217905550847fe1fae02c456ba8f92240cc025b75fe6ebe6bc92d38c8bd94dda7cffff62c51b760405161085490611209565b60405180910390a26040518060400160405280600115158152602001868152509150509392505050565b610886610b48565b60015f8581526020019081526020015f205f9054906101000a900460ff16156108e4576040517f08c379a00000000000000000000000000000000000000000000000000000000081526004016108db906115ab565b60405180910390fd5b5f835111610927576040517f08c379a000000000000000000000000000000000000000000000000000000000815260040161091e90611613565b60405180910390fd5b6040518060e0016040528084815260200183815260200160405180602001604052805f81525081526020015f81526020015f8152602001600115158152602001428152505f808681526020019081526020015f205f820151815f01908161098e9190611492565b5060208201518160010190816109a49190611492565b5060408201518160020190816109ba9190611492565b50606082015181600301556080820151816004015560a0820151816005015f6101000a81548160ff02191690831515021790555060c082015181600601559050506001805f8681526020019081526020015f205f6101000a81548160ff021916908315150217905550837f1c7208edfeacc49bb82962da7eeb2b2b4e4f5ba1dedc0499662f37cb87039d90604051610a5190611209565b60405180910390a260405180604001604052806001151581526020018581525090509392505050565b60405180604001604052805f151581526020015f80191681525090565b508054610aa3906112bc565b5f825580601f10610ab45750610ad1565b601f0160209004905f5260205f2090810190610ad09190610b65565b5b50565b60405180604001604052805f151581526020015f80191681525090565b60405180604001604052805f151581526020015f80191681525090565b60405180604001604052805f151581526020015f80191681525090565b60405180604001604052805f151581526020015f80191681525090565b60405180604001604052805f151581526020015f80191681525090565b5b80821115610b7c575f815f905550600101610b66565b5090565b5f604051905090565b5f80fd5b5f80fd5b5f819050919050565b610ba381610b91565b8114610bad575f80fd5b50565b5f81359050610bbe81610b9a565b92915050565b5f80fd5b5f80fd5b5f601f19601f8301169050919050565b7f4e487b71000000000000000000000000000000000000000000000000000000005f52604160045260245ffd5b610c1282610bcc565b810181811067ffffffffffffffff82111715610c3157610c30610bdc565b5b80604052505050565b5f610c43610b80565b9050610c4f8282610c09565b919050565b5f67ffffffffffffffff821115610c6e57610c6d610bdc565b5b610c7782610bcc565b9050602081019050919050565b828183375f83830152505050565b5f610ca4610c9f84610c54565b610c3a565b905082815260208101848484011115610cc057610cbf610bc8565b5b610ccb848285610c84565b509392505050565b5f82601f830112610ce757610ce6610bc4565b5b8135610cf7848260208601610c92565b91505092915050565b5f8060408385031215610d1657610d15610b89565b5b5f610d2385828601610bb0565b925050602083013567ffffffffffffffff811115610d4457610d43610b8d565b5b610d5085828601610cd3565b9150509250929050565b5f8115159050919050565b610d6e81610d5a565b82525050565b610d7d81610b91565b82525050565b604082015f820151610d975f850182610d65565b506020820151610daa6020850182610d74565b50505050565b5f604082019050610dc35f830184610d83565b92915050565b604082015f820151610ddd5f850182610d65565b506020820151610df06020850182610d74565b50505050565b5f604082019050610e095f830184610dc9565b92915050565b5f60208284031215610e2457610e23610b89565b5b5f610e3184828501610bb0565b91505092915050565b604082015f820151610e4e5f850182610d65565b506020820151610e616020850182610d74565b50505050565b5f604082019050610e7a5f830184610e3a565b92915050565b5f819050919050565b610e9281610e80565b8114610e9c575f80fd5b50565b5f81359050610ead81610e89565b92915050565b5f805f60608486031215610eca57610ec9610b89565b5b5f610ed786828701610bb0565b9350506020610ee886828701610e9f565b9250506040610ef986828701610e9f565b9150509250925092565b604082015f820151610f175f850182610d65565b506020820151610f2a6020850182610d74565b50505050565b5f604082019050610f435f830184610f03565b92915050565b5f805f60608486031215610f6057610f5f610b89565b5b5f610f6d86828701610bb0565b935050602084013567ffffffffffffffff811115610f8e57610f8d610b8d565b5b610f9a86828701610cd3565b925050604084013567ffffffffffffffff811115610fbb57610fba610b8d565b5b610fc786828701610cd3565b9150509250925092565b604082015f820151610fe55f850182610d65565b506020820151610ff86020850182610d74565b50505050565b5f6040820190506110115f830184610fd1565b92915050565b604082015f82015161102b5f850182610d65565b50602082015161103e6020850182610d74565b50505050565b5f6040820190506110575f830184611017565b92915050565b5f82825260208201905092915050565b7f53757266616365206e6f7420666f756e640000000000000000000000000000005f82015250565b5f6110a160118361105d565b91506110ac8261106d565b602082019050919050565b5f6020820190508181035f8301526110ce81611095565b9050919050565b5f81519050919050565b5f81905092915050565b5f5b838110156111065780820151818401526020810190506110eb565b5f8484015250505050565b5f61111b826110d5565b61112581856110df565b93506111358185602086016110e9565b80840191505092915050565b5f61114c8284611111565b915081905092915050565b7f5a6f6e65206e6f74206d6f756e746564000000000000000000000000000000005f82015250565b5f61118b60108361105d565b915061119682611157565b602082019050919050565b5f6020820190508181035f8301526111b88161117f565b9050919050565b7f6f6b0000000000000000000000000000000000000000000000000000000000005f82015250565b5f6111f360028361105d565b91506111fe826111bf565b602082019050919050565b5f6020820190508181035f830152611220816111e7565b9050919050565b7f53757266616365206e6f742061637469766500000000000000000000000000005f82015250565b5f61125b60128361105d565b915061126682611227565b602082019050919050565b5f6020820190508181035f8301526112888161124f565b9050919050565b7f4e487b71000000000000000000000000000000000000000000000000000000005f52602260045260245ffd5b5f60028204905060018216806112d357607f821691505b6020821081036112e6576112e561128f565b5b50919050565b5f819050815f5260205f209050919050565b5f6020601f8301049050919050565b5f82821b905092915050565b5f600883026113487fffffffffffffffffffffffffffffffffffffffffffffffffffffffffffffffff8261130d565b611352868361130d565b95508019841693508086168417925050509392505050565b5f819050919050565b5f819050919050565b5f61139661139161138c8461136a565b611373565b61136a565b9050919050565b5f819050919050565b6113af8361137c565b6113c36113bb8261139d565b848454611319565b825550505050565b5f90565b6113d76113cb565b6113e28184846113a6565b505050565b5b81811015611405576113fa5f826113cf565b6001810190506113e8565b5050565b601f82111561144a5761141b816112ec565b611424846112fe565b81016020851015611433578190505b61144761143f856112fe565b8301826113e7565b50505b505050565b5f82821c905092915050565b5f61146a5f198460080261144f565b1980831691505092915050565b5f611482838361145b565b9150826002028217905092915050565b61149b826110d5565b67ffffffffffffffff8111156114b4576114b3610bdc565b5b6114be82546112bc565b6114c9828285611409565b5f60209050601f8311600181146114fa575f84156114e8578287015190505b6114f28582611477565b865550611559565b601f198416611508866112ec565b5f5b8281101561152f5784890151825560018201915060208501945060208101905061150a565b8683101561154c5784890151611548601f89168261145b565b8355505b6001600288020188555050505b505050505050565b7f5375726661636520616c726561647920657869737473000000000000000000005f82015250565b5f61159560168361105d565b91506115a082611561565b602082019050919050565b5f6020820190508181035f8301526115c281611589565b9050919050565b7f4b696e64207265717569726564000000000000000000000000000000000000005f82015250565b5f6115fd600d8361105d565b9150611608826115c9565b602082019050919050565b5f6020820190508181035f83015261162a816115f1565b905091905056fea2646970667358221220a00e6be0dd0bc1e17741572de0a44decd6aada032610c742fb258266eaf9b10d64736f6c63430008140033","linkReferences":{}},"methodIdentifiers":{"attach(bytes32,string)":"65447d1e","create(bytes32,string,string)":"e501fe3c","destroy(bytes32)":"6e0bd282","mount(bytes32,string,string)":"a3ab6c45","resize(bytes32,int256,int256)":"882a3848","unmount(bytes32,string)":"5c59f608"},"id":257}