{"abi":[{"type":"function","name":"changeType","inputs":[{"name":"id","type":"bytes32","internalType":"bytes32"},{"name":"newType","type":"string","internalType":"string"}],"outputs":[],"stateMutability":"nonpayable"},{"type":"function","name":"create","inputs":[{"name":"id","type":"bytes32","internalType":"bytes32"},{"name":"nodeType","type":"string","internalType":"string"},{"name":"content","type":"string","internalType":"string"}],"outputs":[],"stateMutability":"nonpayable"},{"type":"function","name":"deleteNode","inputs":[{"name":"id","type":"bytes32","internalType":"bytes32"}],"outputs":[],"stateMutability":"nonpayable"},{"type":"function","name":"exists","inputs":[{"name":"id","type":"bytes32","internalType":"bytes32"}],"outputs":[{"name":"","type":"bool","internalType":"bool"}],"stateMutability":"view"},{"type":"function","name":"get","inputs":[{"name":"id","type":"bytes32","internalType":"bytes32"}],"outputs":[{"name":"","type":"tuple","internalType":"struct ContentNode.NodeData","components":[{"name":"nodeType","type":"string","internalType":"string"},{"name":"content","type":"string","internalType":"string"},{"name":"metadata","type":"string","internalType":"string"},{"name":"createdAt","type":"uint256","internalType":"uint256"},{"name":"updatedAt","type":"uint256","internalType":"uint256"},{"name":"exists","type":"bool","internalType":"bool"}]}],"stateMutability":"view"},{"type":"function","name":"getMetadata","inputs":[{"name":"id","type":"bytes32","internalType":"bytes32"},{"name":"key","type":"string","internalType":"string"}],"outputs":[{"name":"","type":"string","internalType":"string"}],"stateMutability":"view"},{"type":"function","name":"setMetadata","inputs":[{"name":"id","type":"bytes32","internalType":"bytes32"},{"name":"key","type":"string","internalType":"string"},{"name":"value","type":"string","internalType":"string"}],"outputs":[],"stateMutability":"nonpayable"},{"type":"function","name":"update","inputs":[{"name":"id","type":"bytes32","internalType":"bytes32"},{"name":"content","type":"string","internalType":"string"}],"outputs":[],"stateMutability":"nonpayable"},{"type":"event","name":"Created","inputs":[{"name":"id","type":"bytes32","indexed":true,"internalType":"bytes32"},{"name":"nodeType","type":"string","indexed":false,"internalType":"string"}],"anonymous":false},{"type":"event","name":"Deleted","inputs":[{"name":"id","type":"bytes32","indexed":true,"internalType":"bytes32"}],"anonymous":false},{"type":"event","name":"MetadataSet","inputs":[{"name":"id","type":"bytes32","indexed":true,"internalType":"bytes32"},{"name":"key","type":"string","indexed":false,"internalType":"string"}],"anonymous":false},{"type":"event","name":"TypeChanged","inputs":[{"name":"id","type":"bytes32","indexed":true,"internalType":"bytes32"},{"name":"newType","type":"string","indexed":false,"internalType":"string"}],"anonymous":false},{"type":"event","name":"Updated","inputs":[{"name":"id","type":"bytes32","indexed":true,"internalType":"bytes32"}],"anonymous":false}],"bytecode":{"object":"0x608060405234801561000f575f80fd5b50611b378061001d5f395ff3fe608060405234801561000f575f80fd5b5060043610610086575f3560e01c8063dd5b64de11610059578063dd5b64de14610136578063e501fe3c14610152578063f12a796b1461016e578063fdee09861461018a57610086565b80630e1ae91b1461008a57806338a699a4146100ba578063396c8458146100ea5780638eaa6ac014610106575b5f80fd5b6100a4600480360381019061009f9190610fd1565b6101a6565b6040516100b191906110b8565b60405180910390f35b6100d460048036038101906100cf91906110d8565b610673565b6040516100e1919061111d565b60405180910390f35b61010460048036038101906100ff9190611136565b61069b565b005b610120600480360381019061011b91906110d8565b610794565b60405161012d91906112ca565b60405180910390f35b610150600480360381019061014b9190610fd1565b6109fa565b005b61016c60048036038101906101679190611136565b610abc565b005b610188600480360381019061018391906110d8565b610ceb565b005b6101a4600480360381019061019f9190610fd1565b610dda565b005b60605f808581526020019081526020015f206005015f9054906101000a900460ff16610207576040517f08c379a00000000000000000000000000000000000000000000000000000000081526004016101fe90611334565b60405180910390fd5b5f805f8681526020019081526020015f2060020180546102269061137f565b80601f01602080910402602001604051908101604052809291908181526020018280546102529061137f565b801561029d5780601f106102745761010080835404028352916020019161029d565b820191905f5260205f20905b81548152906001019060200180831161028057829003601f168201915b505050505090505f84848080601f0160208091040260200160405190810160405280939291908181526020018383808284375f81840152601f19601f8201169050808301925050505050505090505f85856040516020016102ff929190611435565b60405160208183030381529060405290505f815190505f845114806103245750835181115b156103435760405180602001604052805f81525094505050505061066c565b5f7fffffffffffffffffffffffffffffffffffffffffffffffffffffffffffffffff90505f5b8286516103769190611485565b81116104ca575f600190505f821180156103df5750603b60f81b8760018461039e9190611485565b815181106103af576103ae6114b8565b5b602001015160f81c60f81b7effffffffffffffffffffffffffffffffffffffffffffffffffffffffffffff191614155b156103ea57506104b7565b5f5b8481101561049f57858181518110610407576104066114b8565b5b602001015160f81c60f81b7effffffffffffffffffffffffffffffffffffffffffffffffffffffffffffff191688828561044191906114e5565b81518110610452576104516114b8565b5b602001015160f81c60f81b7effffffffffffffffffffffffffffffffffffffffffffffffffffffffffffff19161461048c575f915061049f565b808061049790611518565b9150506103ec565b5080156104b55783826104b291906114e5565b92505b505b80806104c290611518565b915050610369565b507fffffffffffffffffffffffffffffffffffffffffffffffffffffffffffffffff810361050d5760405180602001604052805f8152509550505050505061066c565b5f8190505b8551811080156105655750603b60f81b868281518110610535576105346114b8565b5b602001015160f81c60f81b7effffffffffffffffffffffffffffffffffffffffffffffffffffffffffffff191614155b1561057d57808061057590611518565b915050610512565b5f828261058a9190611485565b67ffffffffffffffff8111156105a3576105a261155f565b5b6040519080825280601f01601f1916602001820160405280156105d55781602001600182028036833780820191505090505b5090505f5b8151811015610660578781856105f091906114e5565b81518110610601576106006114b8565b5b602001015160f81c60f81b82828151811061061f5761061e6114b8565b5b60200101907effffffffffffffffffffffffffffffffffffffffffffffffffffffffffffff191690815f1a905350808061065890611518565b9150506105da565b50809750505050505050505b9392505050565b5f805f8381526020019081526020015f206005015f9054906101000a900460ff169050919050565b5f808681526020019081526020015f206005015f9054906101000a900460ff166106fa576040517f08c379a00000000000000000000000000000000000000000000000000000000081526004016106f190611334565b60405180910390fd5b5f805f8781526020019081526020015f2090508060020185858585604051602001610729959493929190611668565b604051602081830303815290604052816002019081610748919061183d565b50428160040181905550857f82fabd1f87f48aa8db0fa2cf2bafc86f35529549027c782941b8ce8970bc381e8686604051610784929190611938565b60405180910390a2505050505050565b61079c610ea8565b5f808381526020019081526020015f206005015f9054906101000a900460ff166107fb576040517f08c379a00000000000000000000000000000000000000000000000000000000081526004016107f290611334565b60405180910390fd5b5f808381526020019081526020015f206040518060c00160405290815f820180546108259061137f565b80601f01602080910402602001604051908101604052809291908181526020018280546108519061137f565b801561089c5780601f106108735761010080835404028352916020019161089c565b820191905f5260205f20905b81548152906001019060200180831161087f57829003601f168201915b505050505081526020016001820180546108b59061137f565b80601f01602080910402602001604051908101604052809291908181526020018280546108e19061137f565b801561092c5780601f106109035761010080835404028352916020019161092c565b820191905f5260205f20905b81548152906001019060200180831161090f57829003601f168201915b505050505081526020016002820180546109459061137f565b80601f01602080910402602001604051908101604052809291908181526020018280546109719061137f565b80156109bc5780601f10610993576101008083540402835291602001916109bc565b820191905f5260205f20905b81548152906001019060200180831161099f57829003601f168201915b505050505081526020016003820154815260200160048201548152602001600582015f9054906101000a900460ff1615151515815250509050919050565b5f808481526020019081526020015f206005015f9054906101000a900460ff16610a59576040517f08c379a0000000000000000000000000000000000000000000000000000000008152600401610a5090611334565b60405180910390fd5b5f805f8581526020019081526020015f2090508282826001019182610a7f929190611964565b50428160040181905550837fae7f59c2ef152eb4d4f56fcc655f53926d60b7e58e08ec8c79387e25adbf333160405160405180910390a250505050565b5f801b8503610b00576040517f08c379a0000000000000000000000000000000000000000000000000000000008152600401610af790611a7b565b60405180910390fd5b5f808681526020019081526020015f206005015f9054906101000a900460ff1615610b60576040517f08c379a0000000000000000000000000000000000000000000000000000000008152600401610b5790611ae3565b60405180910390fd5b6040518060c0016040528085858080601f0160208091040260200160405190810160405280939291908181526020018383808284375f81840152601f19601f82011690508083019250505050505050815260200183838080601f0160208091040260200160405190810160405280939291908181526020018383808284375f81840152601f19601f82011690508083019250505050505050815260200160405180602001604052805f8152508152602001428152602001428152602001600115158152505f808781526020019081526020015f205f820151815f019081610c47919061183d565b506020820151816001019081610c5d919061183d565b506040820151816002019081610c73919061183d565b50606082015181600301556080820151816004015560a0820151816005015f6101000a81548160ff021916908315150217905550905050847f1bab1c8aea6e1ac04624c752c1cda66c57881ef3b101a1e3d256138ad860866d8585604051610cdc929190611938565b60405180910390a25050505050565b5f808281526020019081526020015f206005015f9054906101000a900460ff16610d4a576040517f08c379a0000000000000000000000000000000000000000000000000000000008152600401610d4190611334565b60405180910390fd5b5f808281526020019081526020015f205f8082015f610d699190610edd565b600182015f610d789190610edd565b600282015f610d879190610edd565b600382015f9055600482015f9055600582015f6101000a81549060ff02191690555050807f5c098fc6091f34b53be138bd13af35c3082d14080fd720c188e0db7a5082047360405160405180910390a250565b5f808481526020019081526020015f206005015f9054906101000a900460ff16610e39576040517f08c379a0000000000000000000000000000000000000000000000000000000008152600401610e3090611334565b60405180910390fd5b5f805f8581526020019081526020015f2090508282825f019182610e5e929190611964565b50428160040181905550837f92c504420377c1ff4d58549e4fd7f5887d4593cd4a46e537b694692b01e302d88484604051610e9a929190611938565b60405180910390a250505050565b6040518060c001604052806060815260200160608152602001606081526020015f81526020015f81526020015f151581525090565b508054610ee99061137f565b5f825580601f10610efa5750610f17565b601f0160209004905f5260205f2090810190610f169190610f1a565b5b50565b5b80821115610f31575f815f905550600101610f1b565b5090565b5f80fd5b5f80fd5b5f819050919050565b610f4f81610f3d565b8114610f59575f80fd5b50565b5f81359050610f6a81610f46565b92915050565b5f80fd5b5f80fd5b5f80fd5b5f8083601f840112610f9157610f90610f70565b5b8235905067ffffffffffffffff811115610fae57610fad610f74565b5b602083019150836001820283011115610fca57610fc9610f78565b5b9250929050565b5f805f60408486031215610fe857610fe7610f35565b5b5f610ff586828701610f5c565b935050602084013567ffffffffffffffff81111561101657611015610f39565b5b61102286828701610f7c565b92509250509250925092565b5f81519050919050565b5f82825260208201905092915050565b5f5b8381101561106557808201518184015260208101905061104a565b5f8484015250505050565b5f601f19601f8301169050919050565b5f61108a8261102e565b6110948185611038565b93506110a4818560208601611048565b6110ad81611070565b840191505092915050565b5f6020820190508181035f8301526110d08184611080565b905092915050565b5f602082840312156110ed576110ec610f35565b5b5f6110fa84828501610f5c565b91505092915050565b5f8115159050919050565b61111781611103565b82525050565b5f6020820190506111305f83018461110e565b92915050565b5f805f805f6060868803121561114f5761114e610f35565b5b5f61115c88828901610f5c565b955050602086013567ffffffffffffffff81111561117d5761117c610f39565b5b61118988828901610f7c565b9450945050604086013567ffffffffffffffff8111156111ac576111ab610f39565b5b6111b888828901610f7c565b92509250509295509295909350565b5f82825260208201905092915050565b5f6111e18261102e565b6111eb81856111c7565b93506111fb818560208601611048565b61120481611070565b840191505092915050565b5f819050919050565b6112218161120f565b82525050565b61123081611103565b82525050565b5f60c083015f8301518482035f86015261125082826111d7565b9150506020830151848203602086015261126a82826111d7565b9150506040830151848203604086015261128482826111d7565b91505060608301516112996060860182611218565b5060808301516112ac6080860182611218565b5060a08301516112bf60a0860182611227565b508091505092915050565b5f6020820190508181035f8301526112e28184611236565b905092915050565b7f4e6f6465206e6f7420666f756e640000000000000000000000000000000000005f82015250565b5f61131e600e83611038565b9150611329826112ea565b602082019050919050565b5f6020820190508181035f83015261134b81611312565b9050919050565b7f4e487b71000000000000000000000000000000000000000000000000000000005f52602260045260245ffd5b5f600282049050600182168061139657607f821691505b6020821081036113a9576113a8611352565b5b50919050565b5f81905092915050565b828183375f83830152505050565b5f6113d283856113af565b93506113df8385846113b9565b82840190509392505050565b7f3d000000000000000000000000000000000000000000000000000000000000005f82015250565b5f61141f6001836113af565b915061142a826113eb565b600182019050919050565b5f6114418284866113c7565b915061144c82611413565b91508190509392505050565b7f4e487b71000000000000000000000000000000000000000000000000000000005f52601160045260245ffd5b5f61148f8261120f565b915061149a8361120f565b92508282039050818111156114b2576114b1611458565b5b92915050565b7f4e487b71000000000000000000000000000000000000000000000000000000005f52603260045260245ffd5b5f6114ef8261120f565b91506114fa8361120f565b925082820190508082111561151257611511611458565b5b92915050565b5f6115228261120f565b91507fffffffffffffffffffffffffffffffffffffffffffffffffffffffffffffffff820361155457611553611458565b5b600182019050919050565b7f4e487b71000000000000000000000000000000000000000000000000000000005f52604160045260245ffd5b5f819050815f5260205f209050919050565b5f81546115aa8161137f565b6115b481866113af565b9450600182165f81146115ce57600181146115e357611615565b60ff1983168652811515820286019350611615565b6115ec8561158c565b5f5b8381101561160d578154818901526001820191506020810190506115ee565b838801955050505b50505092915050565b7f3b000000000000000000000000000000000000000000000000000000000000005f82015250565b5f6116526001836113af565b915061165d8261161e565b600182019050919050565b5f611673828861159e565b91506116808286886113c7565b915061168b82611413565b91506116988284866113c7565b91506116a382611646565b91508190509695505050505050565b5f6020601f8301049050919050565b5f82821b905092915050565b5f600883026116fc7fffffffffffffffffffffffffffffffffffffffffffffffffffffffffffffffff826116c1565b61170686836116c1565b95508019841693508086168417925050509392505050565b5f819050919050565b5f61174161173c6117378461120f565b61171e565b61120f565b9050919050565b5f819050919050565b61175a83611727565b61176e61176682611748565b8484546116cd565b825550505050565b5f90565b611782611776565b61178d818484611751565b505050565b5b818110156117b0576117a55f8261177a565b600181019050611793565b5050565b601f8211156117f5576117c68161158c565b6117cf846116b2565b810160208510156117de578190505b6117f26117ea856116b2565b830182611792565b50505b505050565b5f82821c905092915050565b5f6118155f19846008026117fa565b1980831691505092915050565b5f61182d8383611806565b9150826002028217905092915050565b6118468261102e565b67ffffffffffffffff81111561185f5761185e61155f565b5b611869825461137f565b6118748282856117b4565b5f60209050601f8311600181146118a5575f8415611893578287015190505b61189d8582611822565b865550611904565b601f1984166118b38661158c565b5f5b828110156118da578489015182556001820191506020850194506020810190506118b5565b868310156118f757848901516118f3601f891682611806565b8355505b6001600288020188555050505b505050505050565b5f6119178385611038565b93506119248385846113b9565b61192d83611070565b840190509392505050565b5f6020820190508181035f83015261195181848661190c565b90509392505050565b5f82905092915050565b61196e838361195a565b67ffffffffffffffff8111156119875761198661155f565b5b611991825461137f565b61199c8282856117b4565b5f601f8311600181146119c9575f84156119b7578287013590505b6119c18582611822565b865550611a28565b601f1984166119d78661158c565b5f5b828110156119fe578489013582556001820191506020850194506020810190506119d9565b86831015611a1b5784890135611a17601f891682611806565b8355505b6001600288020188555050505b50505050505050565b7f4e6f64652049442063616e6e6f74206265207a65726f000000000000000000005f82015250565b5f611a65601683611038565b9150611a7082611a31565b602082019050919050565b5f6020820190508181035f830152611a9281611a59565b9050919050565b7f4e6f646520616c726561647920657869737473000000000000000000000000005f82015250565b5f611acd601383611038565b9150611ad882611a99565b602082019050919050565b5f6020820190508181035f830152611afa81611ac1565b905091905056fea2646970667358221220a7b6deb248ced2b79132a426ecd28d7e0de34414d29fc3ca8d656c9608dbb12564736f6c63430008140033","linkReferences":{}},"methodIdentifiers":{"changeType(bytes32,string)":"fdee0986","create(bytes32,string,string)":"e501fe3c","deleteNode(bytes32)":"f12a796b","exists(bytes32)":"38a699a4","get(bytes32)":"8eaa6ac0","getMetadata(bytes32,string)":"0e1ae91b","setMetadata(bytes32,string,string)":"396c8458","update(bytes32,string)":"dd5b64de"},"id":79}