{"abi":[{"type":"function","name":"findAtPosition","inputs":[{"name":"file","type":"string","internalType":"string"},{"name":"row","type":"int256","internalType":"int256"},{"name":"col","type":"int256","internalType":"int256"}],"outputs":[{"name":"","type":"tuple","internalType":"struct SymbolOccurrence.FindAtPositionOkResult","components":[{"name":"success","type":"bool","internalType":"bool"},{"name":"occurrence","type":"bytes32","internalType":"bytes32"},{"name":"symbol","type":"string","internalType":"string"}]}],"stateMutability":"nonpayable"},{"type":"function","name":"findDefinitions","inputs":[{"name":"symbol","type":"string","internalType":"string"}],"outputs":[{"name":"","type":"tuple","internalType":"struct SymbolOccurrence.FindDefinitionsOkResult","components":[{"name":"success","type":"bool","internalType":"bool"},{"name":"occurrences","type":"string","internalType":"string"}]}],"stateMutability":"nonpayable"},{"type":"function","name":"findInFile","inputs":[{"name":"file","type":"string","internalType":"string"}],"outputs":[{"name":"","type":"tuple","internalType":"struct SymbolOccurrence.FindInFileOkResult","components":[{"name":"success","type":"bool","internalType":"bool"},{"name":"occurrences","type":"string","internalType":"string"}]}],"stateMutability":"nonpayable"},{"type":"function","name":"findReferences","inputs":[{"name":"symbol","type":"string","internalType":"string"},{"name":"roleFilter","type":"string","internalType":"string"}],"outputs":[{"name":"","type":"tuple","internalType":"struct SymbolOccurrence.FindReferencesOkResult","components":[{"name":"success","type":"bool","internalType":"bool"},{"name":"occurrences","type":"string","internalType":"string"}]}],"stateMutability":"nonpayable"},{"type":"function","name":"occurrenceCount","inputs":[],"outputs":[{"name":"","type":"uint256","internalType":"uint256"}],"stateMutability":"view"},{"type":"function","name":"occurrenceExists","inputs":[{"name":"occurrence","type":"bytes32","internalType":"bytes32"}],"outputs":[{"name":"","type":"bool","internalType":"bool"}],"stateMutability":"view"},{"type":"function","name":"record","inputs":[{"name":"symbol","type":"string","internalType":"string"},{"name":"file","type":"string","internalType":"string"},{"name":"startRow","type":"int256","internalType":"int256"},{"name":"startCol","type":"int256","internalType":"int256"},{"name":"endRow","type":"int256","internalType":"int256"},{"name":"endCol","type":"int256","internalType":"int256"},{"name":"startByte","type":"int256","internalType":"int256"},{"name":"endByte","type":"int256","internalType":"int256"},{"name":"role","type":"string","internalType":"string"}],"outputs":[{"name":"","type":"tuple","internalType":"struct SymbolOccurrence.RecordOkResult","components":[{"name":"success","type":"bool","internalType":"bool"},{"name":"occurrence","type":"bytes32","internalType":"bytes32"}]}],"stateMutability":"nonpayable"},{"type":"event","name":"FindAtPositionCompleted","inputs":[{"name":"variant","type":"string","indexed":false,"internalType":"string"},{"name":"occurrence","type":"bytes32","indexed":false,"internalType":"bytes32"}],"anonymous":false},{"type":"event","name":"FindDefinitionsCompleted","inputs":[{"name":"variant","type":"string","indexed":false,"internalType":"string"}],"anonymous":false},{"type":"event","name":"FindInFileCompleted","inputs":[{"name":"variant","type":"string","indexed":false,"internalType":"string"}],"anonymous":false},{"type":"event","name":"FindReferencesCompleted","inputs":[{"name":"variant","type":"string","indexed":false,"internalType":"string"}],"anonymous":false},{"type":"event","name":"RecordCompleted","inputs":[{"name":"variant","type":"string","indexed":false,"internalType":"string"},{"name":"occurrence","type":"bytes32","indexed":false,"internalType":"bytes32"}],"anonymous":false}],"bytecode":{"object":"0x608060405234801561000f575f80fd5b50611e0d8061001d5f395ff3fe608060405234801561000f575f80fd5b506004361061007b575f3560e01c8063a54a9ab911610059578063a54a9ab91461010f578063e6964c4b1461013f578063ea138c671461015d578063f1c448551461018d5761007b565b806341ec09791461007f5780637ae9430d146100af5780638d327413146100df575b5f80fd5b6100996004803603810190610094919061100b565b6101bd565b6040516100a6919061114f565b60405180910390f35b6100c960048036038101906100c491906111a2565b61040f565b6040516100d691906112ff565b60405180910390f35b6100f960048036038101906100f49190611318565b6106a9565b6040516101069190611399565b60405180910390f35b610129600480360381019061012491906113e3565b6108ea565b604051610136919061141d565b60405180910390f35b610147610912565b604051610154919061144e565b60405180910390f35b61017760048036038101906101729190611318565b61091e565b60405161018491906114a1565b60405180910390f35b6101a760048036038101906101a291906114c1565b610b57565b6040516101b4919061157a565b60405180910390f35b6101c5610e2c565b5f835111610208576040517f08c379a00000000000000000000000000000000000000000000000000000000081526004016101ff906115f4565b60405180910390fd5b5f8360405160200161021a919061164c565b6040516020818303038152906040528051906020012090505f8084511190505f8460405160200161024b919061164c565b6040516020818303038152906040528051906020012090505f60405180602001604052805f81525090505f600190505f5b6001805490508110156103b4575f805f600184815481106102a05761029f611662565b5b905f5260205f20015481526020019081526020015f209050806009015f9054906101000a900460ff1680156102fc575086815f016040516020016102e4919061177e565b60405160208183030381529060405280519060200120145b1561039f578580156103375750848160080160405160200161031e919061177e565b6040516020818303038152906040528051906020012014155b1561034257506103a1565b5f81600101604051602001610357919061177e565b6040516020818303038152906040529050836103965784816040516020016103809291906117de565b604051602081830303815290604052945061039d565b8094505f93505b505b505b80806103ac90611839565b91505061027c565b507fb433e9482e5063a4a8a18660974e11ba18fd759aa26455bc60a14591633e2cd26040516103e2906118ca565b60405180910390a16040518060400160405280600115158152602001838152509550505050505092915050565b610417610e47565b5f8a511161045a576040517f08c379a0000000000000000000000000000000000000000000000000000000008152600401610451906115f4565b60405180910390fd5b5f89511161049d576040517f08c379a000000000000000000000000000000000000000000000000000000000815260040161049490611932565b60405180910390fd5b5f8251116104e0576040517f08c379a00000000000000000000000000000000000000000000000000000000081526004016104d79061199a565b60405180910390fd5b60025f8154809291906104f290611839565b91905055505f8a8a8a8a6002546040516020016105139594939291906119f8565b6040516020818303038152906040528051906020012090506040518061014001604052808c81526020018b81526020018a8152602001898152602001888152602001878152602001868152602001858152602001848152602001600115158152505f808381526020019081526020015f205f820151815f0190816105979190611bd9565b5060208201518160010190816105ad9190611bd9565b5060408201518160020155606082015181600301556080820151816004015560a0820151816005015560c0820151816006015560e082015181600701556101008201518160080190816106009190611bd9565b50610120820151816009015f6101000a81548160ff021916908315150217905550905050600181908060018154018082558091505060019003905f5260205f20015f90919091909150557fcda516a6893ae355416ffc0c96e5d3732914ae2678fb2a1e76e147944d3a2e39816040516106799190611cb7565b60405180910390a16040518060400160405280600115158152602001828152509150509998505050505050505050565b6106b1610e64565b5f8251116106f4576040517f08c379a00000000000000000000000000000000000000000000000000000000081526004016106eb90611932565b60405180910390fd5b5f82604051602001610706919061164c565b6040516020818303038152906040528051906020012090505f60405180602001604052805f81525090505f600190505f5b600180549050811015610892575f805f6001848154811061075b5761075a611662565b5b905f5260205f20015481526020019081526020015f209050806009015f9054906101000a900460ff1680156107b8575084816001016040516020016107a0919061177e565b60405160208183030381529060405280519060200120145b1561087e57826107ed5783815f016040516020016107d7929190611ce3565b604051602081830303815290604052935061087d565b805f0180546107fb906116bc565b80601f0160208091040260200160405190810160405280929190818152602001828054610827906116bc565b80156108725780601f1061084957610100808354040283529160200191610872565b820191905f5260205f20905b81548152906001019060200180831161085557829003601f168201915b505050505093505f92505b5b50808061088a90611839565b915050610737565b507fe2edd29f51f548d9ed24f13cb49811b030acadf6c34e068267242260412375d66040516108c0906118ca565b60405180910390a16040518060400160405280600115158152602001838152509350505050919050565b5f805f8381526020019081526020015f206009015f9054906101000a900460ff169050919050565b5f600180549050905090565b610926610e7f565b5f825111610969576040517f08c379a0000000000000000000000000000000000000000000000000000000008152600401610960906115f4565b60405180910390fd5b5f8260405160200161097b919061164c565b6040516020818303038152906040528051906020012090505f6040516020016109a390611d5b565b6040516020818303038152906040528051906020012090505f60405180602001604052805f81525090505f600190505f5b600180549050811015610afe575f805f600184815481106109f8576109f7611662565b5b905f5260205f20015481526020019081526020015f209050806009015f9054906101000a900460ff168015610a54575085815f01604051602001610a3c919061177e565b60405160208183030381529060405280519060200120145b8015610a8857508481600801604051602001610a70919061177e565b60405160208183030381529060405280519060200120145b15610aea575f81600101604051602001610aa2919061177e565b604051602081830303815290604052905083610ae1578481604051602001610acb9291906117de565b6040516020818303038152906040529450610ae8565b8094505f93505b505b508080610af690611839565b9150506109d4565b507f7cf40d953a0b5dd2e8102a49a103eb80725731fe167b1d22b509e308b75cbddd604051610b2c906118ca565b60405180910390a1604051806040016040528060011515815260200183815250945050505050919050565b610b5f610e9a565b5f845111610ba2576040517f08c379a0000000000000000000000000000000000000000000000000000000008152600401610b9990611932565b60405180910390fd5b5f84604051602001610bb4919061164c565b6040516020818303038152906040528051906020012090505f5b600180549050811015610de9575f805f60018481548110610bf257610bf1611662565b5b905f5260205f20015481526020019081526020015f209050806009015f9054906101000a900460ff168015610c4f57508281600101604051602001610c37919061177e565b60405160208183030381529060405280519060200120145b15610dd45780600201548612158015610c6c575080600401548613155b15610dd357806002015486148015610c875750806003015485125b15610c925750610dd6565b806004015486148015610ca85750806005015485135b15610cb35750610dd6565b7f6e2fc0da79b8426cbe344c931b170c55de4c86ebaba8bf70fae908590c7554a960018381548110610ce857610ce7611662565b5b905f5260205f200154604051610cfe9190611cb7565b60405180910390a1604051806060016040528060011515815260200160018481548110610d2e57610d2d611662565b5b905f5260205f2001548152602001825f018054610d4a906116bc565b80601f0160208091040260200160405190810160405280929190818152602001828054610d76906116bc565b8015610dc15780601f10610d9857610100808354040283529160200191610dc1565b820191905f5260205f20905b815481529060010190602001808311610da457829003601f168201915b50505050508152509350505050610e25565b5b505b8080610de190611839565b915050610bce565b506040517f08c379a0000000000000000000000000000000000000000000000000000000008152600401610e1c90611db9565b60405180910390fd5b9392505050565b60405180604001604052805f15158152602001606081525090565b60405180604001604052805f151581526020015f80191681525090565b60405180604001604052805f15158152602001606081525090565b60405180604001604052805f15158152602001606081525090565b60405180606001604052805f151581526020015f8019168152602001606081525090565b5f604051905090565b5f80fd5b5f80fd5b5f80fd5b5f80fd5b5f601f19601f8301169050919050565b7f4e487b71000000000000000000000000000000000000000000000000000000005f52604160045260245ffd5b610f1d82610ed7565b810181811067ffffffffffffffff82111715610f3c57610f3b610ee7565b5b80604052505050565b5f610f4e610ebe565b9050610f5a8282610f14565b919050565b5f67ffffffffffffffff821115610f7957610f78610ee7565b5b610f8282610ed7565b9050602081019050919050565b828183375f83830152505050565b5f610faf610faa84610f5f565b610f45565b905082815260208101848484011115610fcb57610fca610ed3565b5b610fd6848285610f8f565b509392505050565b5f82601f830112610ff257610ff1610ecf565b5b8135611002848260208601610f9d565b91505092915050565b5f806040838503121561102157611020610ec7565b5b5f83013567ffffffffffffffff81111561103e5761103d610ecb565b5b61104a85828601610fde565b925050602083013567ffffffffffffffff81111561106b5761106a610ecb565b5b61107785828601610fde565b9150509250929050565b5f8115159050919050565b61109581611081565b82525050565b5f81519050919050565b5f82825260208201905092915050565b5f5b838110156110d25780820151818401526020810190506110b7565b5f8484015250505050565b5f6110e78261109b565b6110f181856110a5565b93506111018185602086016110b5565b61110a81610ed7565b840191505092915050565b5f604083015f83015161112a5f86018261108c565b506020830151848203602086015261114282826110dd565b9150508091505092915050565b5f6020820190508181035f8301526111678184611115565b905092915050565b5f819050919050565b6111818161116f565b811461118b575f80fd5b50565b5f8135905061119c81611178565b92915050565b5f805f805f805f805f6101208a8c0312156111c0576111bf610ec7565b5b5f8a013567ffffffffffffffff8111156111dd576111dc610ecb565b5b6111e98c828d01610fde565b99505060208a013567ffffffffffffffff81111561120a57611209610ecb565b5b6112168c828d01610fde565b98505060406112278c828d0161118e565b97505060606112388c828d0161118e565b96505060806112498c828d0161118e565b95505060a061125a8c828d0161118e565b94505060c061126b8c828d0161118e565b93505060e061127c8c828d0161118e565b9250506101008a013567ffffffffffffffff81111561129e5761129d610ecb565b5b6112aa8c828d01610fde565b9150509295985092959850929598565b5f819050919050565b6112cc816112ba565b82525050565b604082015f8201516112e65f85018261108c565b5060208201516112f960208501826112c3565b50505050565b5f6040820190506113125f8301846112d2565b92915050565b5f6020828403121561132d5761132c610ec7565b5b5f82013567ffffffffffffffff81111561134a57611349610ecb565b5b61135684828501610fde565b91505092915050565b5f604083015f8301516113745f86018261108c565b506020830151848203602086015261138c82826110dd565b9150508091505092915050565b5f6020820190508181035f8301526113b1818461135f565b905092915050565b6113c2816112ba565b81146113cc575f80fd5b50565b5f813590506113dd816113b9565b92915050565b5f602082840312156113f8576113f7610ec7565b5b5f611405848285016113cf565b91505092915050565b61141781611081565b82525050565b5f6020820190506114305f83018461140e565b92915050565b5f819050919050565b61144881611436565b82525050565b5f6020820190506114615f83018461143f565b92915050565b5f604083015f83015161147c5f86018261108c565b506020830151848203602086015261149482826110dd565b9150508091505092915050565b5f6020820190508181035f8301526114b98184611467565b905092915050565b5f805f606084860312156114d8576114d7610ec7565b5b5f84013567ffffffffffffffff8111156114f5576114f4610ecb565b5b61150186828701610fde565b93505060206115128682870161118e565b92505060406115238682870161118e565b9150509250925092565b5f606083015f8301516115425f86018261108c565b50602083015161155560208601826112c3565b506040830151848203604086015261156d82826110dd565b9150508091505092915050565b5f6020820190508181035f830152611592818461152d565b905092915050565b5f82825260208201905092915050565b7f53796d626f6c2063616e6e6f7420626520656d707479000000000000000000005f82015250565b5f6115de60168361159a565b91506115e9826115aa565b602082019050919050565b5f6020820190508181035f83015261160b816115d2565b9050919050565b5f81905092915050565b5f6116268261109b565b6116308185611612565b93506116408185602086016110b5565b80840191505092915050565b5f611657828461161c565b915081905092915050565b7f4e487b71000000000000000000000000000000000000000000000000000000005f52603260045260245ffd5b7f4e487b71000000000000000000000000000000000000000000000000000000005f52602260045260245ffd5b5f60028204905060018216806116d357607f821691505b6020821081036116e6576116e561168f565b5b50919050565b5f819050815f5260205f209050919050565b5f815461170a816116bc565b6117148186611612565b9450600182165f811461172e576001811461174357611775565b60ff1983168652811515820286019350611775565b61174c856116ec565b5f5b8381101561176d5781548189015260018201915060208101905061174e565b838801955050505b50505092915050565b5f61178982846116fe565b915081905092915050565b7f2c000000000000000000000000000000000000000000000000000000000000005f82015250565b5f6117c8600183611612565b91506117d382611794565b600182019050919050565b5f6117e9828561161c565b91506117f4826117bc565b9150611800828461161c565b91508190509392505050565b7f4e487b71000000000000000000000000000000000000000000000000000000005f52601160045260245ffd5b5f61184382611436565b91507fffffffffffffffffffffffffffffffffffffffffffffffffffffffffffffffff82036118755761187461180c565b5b600182019050919050565b7f6f6b0000000000000000000000000000000000000000000000000000000000005f82015250565b5f6118b460028361159a565b91506118bf82611880565b602082019050919050565b5f6020820190508181035f8301526118e1816118a8565b9050919050565b7f46696c652063616e6e6f7420626520656d7074790000000000000000000000005f82015250565b5f61191c60148361159a565b9150611927826118e8565b602082019050919050565b5f6020820190508181035f83015261194981611910565b9050919050565b7f526f6c652063616e6e6f7420626520656d7074790000000000000000000000005f82015250565b5f61198460148361159a565b915061198f82611950565b602082019050919050565b5f6020820190508181035f8301526119b181611978565b9050919050565b5f819050919050565b6119d26119cd8261116f565b6119b8565b82525050565b5f819050919050565b6119f26119ed82611436565b6119d8565b82525050565b5f611a03828861161c565b9150611a0f828761161c565b9150611a1b82866119c1565b602082019150611a2b82856119c1565b602082019150611a3b82846119e1565b6020820191508190509695505050505050565b5f6020601f8301049050919050565b5f82821b905092915050565b5f60088302611a987fffffffffffffffffffffffffffffffffffffffffffffffffffffffffffffffff82611a5d565b611aa28683611a5d565b95508019841693508086168417925050509392505050565b5f819050919050565b5f611add611ad8611ad384611436565b611aba565b611436565b9050919050565b5f819050919050565b611af683611ac3565b611b0a611b0282611ae4565b848454611a69565b825550505050565b5f90565b611b1e611b12565b611b29818484611aed565b505050565b5b81811015611b4c57611b415f82611b16565b600181019050611b2f565b5050565b601f821115611b9157611b62816116ec565b611b6b84611a4e565b81016020851015611b7a578190505b611b8e611b8685611a4e565b830182611b2e565b50505b505050565b5f82821c905092915050565b5f611bb15f1984600802611b96565b1980831691505092915050565b5f611bc98383611ba2565b9150826002028217905092915050565b611be28261109b565b67ffffffffffffffff811115611bfb57611bfa610ee7565b5b611c0582546116bc565b611c10828285611b50565b5f60209050601f831160018114611c41575f8415611c2f578287015190505b611c398582611bbe565b865550611ca0565b601f198416611c4f866116ec565b5f5b82811015611c7657848901518255600182019150602085019450602081019050611c51565b86831015611c935784890151611c8f601f891682611ba2565b8355505b6001600288020188555050505b505050505050565b611cb1816112ba565b82525050565b5f6040820190508181035f830152611cce816118a8565b9050611cdd6020830184611ca8565b92915050565b5f611cee828561161c565b9150611cf9826117bc565b9150611d0582846116fe565b91508190509392505050565b7f646566696e6974696f6e000000000000000000000000000000000000000000005f82015250565b5f611d45600a83611612565b9150611d5082611d11565b600a82019050919050565b5f611d6582611d39565b9150819050919050565b7f4e6f206f6363757272656e636520617420706f736974696f6e000000000000005f82015250565b5f611da360198361159a565b9150611dae82611d6f565b602082019050919050565b5f6020820190508181035f830152611dd081611d97565b905091905056fea2646970667358221220a4632b81c0503a2f6a6bb3c86d8470a9096bf1c02c59308ffbd5b2c9a588e18664736f6c63430008140033","linkReferences":{}},"methodIdentifiers":{"findAtPosition(string,int256,int256)":"f1c44855","findDefinitions(string)":"ea138c67","findInFile(string)":"8d327413","findReferences(string,string)":"41ec0979","occurrenceCount()":"e6964c4b","occurrenceExists(bytes32)":"a54a9ab9","record(string,string,int256,int256,int256,int256,int256,int256,string)":"7ae9430d"},"id":266}