{"abi":[{"type":"function","name":"generate","inputs":[{"name":"projection","type":"string","internalType":"string"},{"name":"config","type":"string","internalType":"string"}],"outputs":[{"name":"","type":"tuple","internalType":"struct GrpcTarget.GenerateOkResult","components":[{"name":"success","type":"bool","internalType":"bool"},{"name":"services","type":"string[]","internalType":"string[]"},{"name":"files","type":"string[]","internalType":"string[]"}]}],"stateMutability":"nonpayable"},{"type":"function","name":"listRpcs","inputs":[{"name":"concept","type":"string","internalType":"string"}],"outputs":[{"name":"","type":"tuple","internalType":"struct GrpcTarget.ListRpcsOkResult","components":[{"name":"success","type":"bool","internalType":"bool"},{"name":"rpcs","type":"string[]","internalType":"string[]"},{"name":"streamingModes","type":"string[]","internalType":"string[]"}]}],"stateMutability":"nonpayable"},{"type":"function","name":"register","inputs":[],"outputs":[{"name":"name","type":"string","internalType":"string"},{"name":"category","type":"string","internalType":"string"},{"name":"formats","type":"string[]","internalType":"string[]"}],"stateMutability":"pure"},{"type":"function","name":"validate","inputs":[{"name":"service","type":"bytes32","internalType":"bytes32"}],"outputs":[{"name":"","type":"tuple","internalType":"struct GrpcTarget.ValidateOkResult","components":[{"name":"success","type":"bool","internalType":"bool"},{"name":"service","type":"bytes32","internalType":"bytes32"}]}],"stateMutability":"nonpayable"},{"type":"event","name":"GenerateCompleted","inputs":[{"name":"variant","type":"string","indexed":false,"internalType":"string"},{"name":"services","type":"string[]","indexed":false,"internalType":"string[]"},{"name":"files","type":"string[]","indexed":false,"internalType":"string[]"}],"anonymous":false},{"type":"event","name":"ListRpcsCompleted","inputs":[{"name":"variant","type":"string","indexed":false,"internalType":"string"},{"name":"rpcs","type":"string[]","indexed":false,"internalType":"string[]"},{"name":"streamingModes","type":"string[]","indexed":false,"internalType":"string[]"}],"anonymous":false},{"type":"event","name":"ValidateCompleted","inputs":[{"name":"variant","type":"string","indexed":false,"internalType":"string"},{"name":"service","type":"bytes32","indexed":false,"internalType":"bytes32"}],"anonymous":false}],"bytecode":{"object":"0x608060405234801561000f575f80fd5b50611a7e8061001d5f395ff3fe608060405234801561000f575f80fd5b506004361061004a575f3560e01c80631aa3a0081461004e5780632e0126981461006e578063632735ad1461009e5780637e025cd9146100ce575b5f80fd5b6100566100fe565b60405161006593929190610e0e565b60405180910390f35b61008860048036038101906100839190610e9c565b610272565b6040516100959190610f1d565b60405180910390f35b6100b860048036038101906100b39190611062565b61032c565b6040516100c591906111af565b60405180910390f35b6100e860048036038101906100e391906111cf565b610854565b6040516100f5919061126a565b60405180910390f35b60608060606040518060400160405280600481526020017f677270630000000000000000000000000000000000000000000000000000000081525092506040518060400160405280601081526020017f696e746572666163652d746172676574000000000000000000000000000000008152509150600267ffffffffffffffff81111561018e5761018d610f3e565b5b6040519080825280602002602001820160405280156101c157816020015b60608152602001906001900390816101ac5790505b5090506040518060400160405280600581526020017f70726f746f000000000000000000000000000000000000000000000000000000815250815f8151811061020d5761020c61128a565b5b60200260200101819052506040518060400160405280600a81526020017f7479706573637269707400000000000000000000000000000000000000000000815250816001815181106102625761026161128a565b5b6020026020010181905250909192565b61027a610b4e565b5f808381526020019081526020015f205f9054906101000a900460ff166102d6576040517f08c379a00000000000000000000000000000000000000000000000000000000081526004016102cd90611301565b60405180910390fd5b7f431666eceddcbdcb27849a50bf6a540ef06c02dc0175e9f28d845a1d7c009012826040516103059190611378565b60405180910390a16040518060400160405280600115158152602001838152509050919050565b610334610b6b565b5f835111610377576040517f08c379a000000000000000000000000000000000000000000000000000000000815260040161036e906113ee565b60405180910390fd5b5f8360055460405160200161038d92919061146f565b60405160208183030381529060405280519060200120905060055f8154809291906103b7906114c3565b91905055505f846040516020016103ce9190611554565b60405160208183030381529060405290505f808381526020019081526020015f205f9054906101000a900460ff1661044f5760015f808481526020019081526020015f205f6101000a81548160ff021916908315150217905550600182908060018154018082558091505060019003905f5260205f20015f90919091909150555b8060025f8481526020019081526020015f20908161046d919061176f565b505f600167ffffffffffffffff81111561048a57610489610f3e565b5b6040519080825280602002602001820160405280156104bd57816020015b60608152602001906001900390816104a85790505b50905081815f815181106104d4576104d361128a565b5b60200260200101819052505f600267ffffffffffffffff8111156104fb576104fa610f3e565b5b60405190808252806020026020018201604052801561052e57816020015b60608152602001906001900390816105195790505b509050866040516020016105429190611888565b604051602081830303815290604052815f815181106105645761056361128a565b5b60200260200101819052508660405160200161058091906118f3565b604051602081830303815290604052816001815181106105a3576105a261128a565b5b60200260200101819052505f876040516020016105c09190611914565b6040516020818303038152906040528051906020012090505f600267ffffffffffffffff8111156105f4576105f3610f3e565b5b60405190808252806020026020018201604052801561062757816020015b60608152602001906001900390816106125790505b5090508860405160200161063b9190611974565b604051602081830303815290604052815f8151811061065d5761065c61128a565b5b60200260200101819052508860405160200161067991906119df565b6040516020818303038152906040528160018151811061069c5761069b61128a565b5b60200260200101819052505f600267ffffffffffffffff8111156106c3576106c2610f3e565b5b6040519080825280602002602001820160405280156106f657816020015b60608152602001906001900390816106e15790505b5090506040518060400160405280600581526020017f756e617279000000000000000000000000000000000000000000000000000000815250815f815181106107425761074161128a565b5b60200260200101819052506040518060400160405280600581526020017f756e617279000000000000000000000000000000000000000000000000000000815250816001815181106107975761079661128a565b5b60200260200101819052508160035f8581526020019081526020015f2090805190602001906107c7929190610b8d565b508060045f8581526020019081526020015f2090805190602001906107ed929190610b8d565b507f98e8722e367033a30eb92cae27f6bd707bbffe334ce250eed26515f1a97b81ee858560405161081f929190611a00565b60405180910390a160405180606001604052806001151581526020018681526020018581525097505050505050505092915050565b61085c610be4565b5f8260405160200161086e9190611914565b6040516020818303038152906040528051906020012090505f60035f8381526020019081526020015f20805480602002602001604051908101604052809291908181526020015f905b8282101561095f578382905f5260205f200180546108d4906115a2565b80601f0160208091040260200160405190810160405280929190818152602001828054610900906115a2565b801561094b5780601f106109225761010080835404028352916020019161094b565b820191905f5260205f20905b81548152906001019060200180831161092e57829003601f168201915b5050505050815260200190600101906108b7565b5050505090505f60045f8481526020019081526020015f20805480602002602001604051908101604052809291908181526020015f905b82821015610a3e578382905f5260205f200180546109b3906115a2565b80601f01602080910402602001604051908101604052809291908181526020018280546109df906115a2565b8015610a2a5780601f10610a0157610100808354040283529160200191610a2a565b820191905f5260205f20905b815481529060010190602001808311610a0d57829003601f168201915b505050505081526020019060010190610996565b5050505090505f825103610aed575f67ffffffffffffffff811115610a6657610a65610f3e565b5b604051908082528060200260200182016040528015610a9957816020015b6060815260200190600190039081610a845790505b5091505f67ffffffffffffffff811115610ab657610ab5610f3e565b5b604051908082528060200260200182016040528015610ae957816020015b6060815260200190600190039081610ad45790505b5090505b7f5fa7bd099c479cbc40538475ba612dd4eeef231d543d731ccb1ea9e7ec88c3cf8282604051610b1e929190611a00565b60405180910390a16040518060600160405280600115158152602001838152602001828152509350505050919050565b60405180604001604052805f151581526020015f80191681525090565b60405180606001604052805f1515815260200160608152602001606081525090565b828054828255905f5260205f20908101928215610bd3579160200282015b82811115610bd2578251829081610bc2919061176f565b5091602001919060010190610bab565b5b509050610be09190610c06565b5090565b60405180606001604052805f1515815260200160608152602001606081525090565b5b80821115610c25575f8181610c1c9190610c29565b50600101610c07565b5090565b508054610c35906115a2565b5f825580601f10610c465750610c63565b601f0160209004905f5260205f2090810190610c629190610c66565b5b50565b5b80821115610c7d575f815f905550600101610c67565b5090565b5f81519050919050565b5f82825260208201905092915050565b5f5b83811015610cb8578082015181840152602081019050610c9d565b5f8484015250505050565b5f601f19601f8301169050919050565b5f610cdd82610c81565b610ce78185610c8b565b9350610cf7818560208601610c9b565b610d0081610cc3565b840191505092915050565b5f81519050919050565b5f82825260208201905092915050565b5f819050602082019050919050565b5f82825260208201905092915050565b5f610d4e82610c81565b610d588185610d34565b9350610d68818560208601610c9b565b610d7181610cc3565b840191505092915050565b5f610d878383610d44565b905092915050565b5f602082019050919050565b5f610da582610d0b565b610daf8185610d15565b935083602082028501610dc185610d25565b805f5b85811015610dfc5784840389528151610ddd8582610d7c565b9450610de883610d8f565b925060208a01995050600181019050610dc4565b50829750879550505050505092915050565b5f6060820190508181035f830152610e268186610cd3565b90508181036020830152610e3a8185610cd3565b90508181036040830152610e4e8184610d9b565b9050949350505050565b5f604051905090565b5f80fd5b5f80fd5b5f819050919050565b610e7b81610e69565b8114610e85575f80fd5b50565b5f81359050610e9681610e72565b92915050565b5f60208284031215610eb157610eb0610e61565b5b5f610ebe84828501610e88565b91505092915050565b5f8115159050919050565b610edb81610ec7565b82525050565b610eea81610e69565b82525050565b604082015f820151610f045f850182610ed2565b506020820151610f176020850182610ee1565b50505050565b5f604082019050610f305f830184610ef0565b92915050565b5f80fd5b5f80fd5b7f4e487b71000000000000000000000000000000000000000000000000000000005f52604160045260245ffd5b610f7482610cc3565b810181811067ffffffffffffffff82111715610f9357610f92610f3e565b5b80604052505050565b5f610fa5610e58565b9050610fb18282610f6b565b919050565b5f67ffffffffffffffff821115610fd057610fcf610f3e565b5b610fd982610cc3565b9050602081019050919050565b828183375f83830152505050565b5f61100661100184610fb6565b610f9c565b90508281526020810184848401111561102257611021610f3a565b5b61102d848285610fe6565b509392505050565b5f82601f83011261104957611048610f36565b5b8135611059848260208601610ff4565b91505092915050565b5f806040838503121561107857611077610e61565b5b5f83013567ffffffffffffffff81111561109557611094610e65565b5b6110a185828601611035565b925050602083013567ffffffffffffffff8111156110c2576110c1610e65565b5b6110ce85828601611035565b9150509250929050565b5f82825260208201905092915050565b5f6110f282610d0b565b6110fc81856110d8565b93508360208202850161110e85610d25565b805f5b85811015611149578484038952815161112a8582610d7c565b945061113583610d8f565b925060208a01995050600181019050611111565b50829750879550505050505092915050565b5f606083015f8301516111705f860182610ed2565b506020830151848203602086015261118882826110e8565b915050604083015184820360408601526111a282826110e8565b9150508091505092915050565b5f6020820190508181035f8301526111c7818461115b565b905092915050565b5f602082840312156111e4576111e3610e61565b5b5f82013567ffffffffffffffff81111561120157611200610e65565b5b61120d84828501611035565b91505092915050565b5f606083015f83015161122b5f860182610ed2565b506020830151848203602086015261124382826110e8565b9150506040830151848203604086015261125d82826110e8565b9150508091505092915050565b5f6020820190508181035f8301526112828184611216565b905092915050565b7f4e487b71000000000000000000000000000000000000000000000000000000005f52603260045260245ffd5b7f53657276696365206e6f7420666f756e640000000000000000000000000000005f82015250565b5f6112eb601183610c8b565b91506112f6826112b7565b602082019050919050565b5f6020820190508181035f830152611318816112df565b9050919050565b7f6f6b0000000000000000000000000000000000000000000000000000000000005f82015250565b5f611353600283610c8b565b915061135e8261131f565b602082019050919050565b61137281610e69565b82525050565b5f6040820190508181035f83015261138f81611347565b905061139e6020830184611369565b92915050565b7f50726f6a656374696f6e2063616e6e6f7420626520656d7074790000000000005f82015250565b5f6113d8601a83610c8b565b91506113e3826113a4565b602082019050919050565b5f6020820190508181035f830152611405816113cc565b9050919050565b5f81905092915050565b5f61142082610c81565b61142a818561140c565b935061143a818560208601610c9b565b80840191505092915050565b5f819050919050565b5f819050919050565b61146961146482611446565b61144f565b82525050565b5f61147a8285611416565b91506114868284611458565b6020820191508190509392505050565b7f4e487b71000000000000000000000000000000000000000000000000000000005f52601160045260245ffd5b5f6114cd82611446565b91507fffffffffffffffffffffffffffffffffffffffffffffffffffffffffffffffff82036114ff576114fe611496565b5b600182019050919050565b7f53657276696365000000000000000000000000000000000000000000000000005f82015250565b5f61153e60078361140c565b91506115498261150a565b600782019050919050565b5f61155f8284611416565b915061156a82611532565b915081905092915050565b7f4e487b71000000000000000000000000000000000000000000000000000000005f52602260045260245ffd5b5f60028204905060018216806115b957607f821691505b6020821081036115cc576115cb611575565b5b50919050565b5f819050815f5260205f209050919050565b5f6020601f8301049050919050565b5f82821b905092915050565b5f6008830261162e7fffffffffffffffffffffffffffffffffffffffffffffffffffffffffffffffff826115f3565b61163886836115f3565b95508019841693508086168417925050509392505050565b5f819050919050565b5f61167361166e61166984611446565b611650565b611446565b9050919050565b5f819050919050565b61168c83611659565b6116a06116988261167a565b8484546115ff565b825550505050565b5f90565b6116b46116a8565b6116bf818484611683565b505050565b5b818110156116e2576116d75f826116ac565b6001810190506116c5565b5050565b601f821115611727576116f8816115d2565b611701846115e4565b81016020851015611710578190505b61172461171c856115e4565b8301826116c4565b50505b505050565b5f82821c905092915050565b5f6117475f198460080261172c565b1980831691505092915050565b5f61175f8383611738565b9150826002028217905092915050565b61177882610c81565b67ffffffffffffffff81111561179157611790610f3e565b5b61179b82546115a2565b6117a68282856116e6565b5f60209050601f8311600181146117d7575f84156117c5578287015190505b6117cf8582611754565b865550611836565b601f1984166117e5866115d2565b5f5b8281101561180c578489015182556001820191506020850194506020810190506117e7565b868310156118295784890151611825601f891682611738565b8355505b6001600288020188555050505b505050505050565b7f2e70726f746f00000000000000000000000000000000000000000000000000005f82015250565b5f61187260068361140c565b915061187d8261183e565b600682019050919050565b5f6118938284611416565b915061189e82611866565b915081905092915050565b7f2e677270632e74730000000000000000000000000000000000000000000000005f82015250565b5f6118dd60088361140c565b91506118e8826118a9565b600882019050919050565b5f6118fe8284611416565b9150611909826118d1565b915081905092915050565b5f61191f8284611416565b915081905092915050565b7f47657400000000000000000000000000000000000000000000000000000000005f82015250565b5f61195e60038361140c565b91506119698261192a565b600382019050919050565b5f61197e82611952565b915061198a8284611416565b915081905092915050565b7f55706461746500000000000000000000000000000000000000000000000000005f82015250565b5f6119c960068361140c565b91506119d482611995565b600682019050919050565b5f6119e9826119bd565b91506119f58284611416565b915081905092915050565b5f6060820190508181035f830152611a1781611347565b90508181036020830152611a2b8185610d9b565b90508181036040830152611a3f8184610d9b565b9050939250505056fea2646970667358221220226fcd0a996ff2b9c1ff68fc830b555cf91fad3bc03d05257efd7c5cdb2d32b764736f6c63430008140033","linkReferences":{}},"methodIdentifiers":{"generate(string,string)":"632735ad","listRpcs(string)":"7e025cd9","register()":"1aa3a008","validate(bytes32)":"2e012698"},"id":141}