{"abi":[{"type":"function","name":"connect","inputs":[{"name":"machine","type":"bytes32","internalType":"bytes32"}],"outputs":[{"name":"","type":"tuple","internalType":"struct Machine.ConnectOkResult","components":[{"name":"success","type":"bool","internalType":"bool"},{"name":"machine","type":"bytes32","internalType":"bytes32"},{"name":"props","type":"string","internalType":"string"}]}],"stateMutability":"nonpayable"},{"type":"function","name":"destroy","inputs":[{"name":"machine","type":"bytes32","internalType":"bytes32"}],"outputs":[{"name":"","type":"tuple","internalType":"struct Machine.DestroyOkResult","components":[{"name":"success","type":"bool","internalType":"bool"},{"name":"machine","type":"bytes32","internalType":"bytes32"}]}],"stateMutability":"nonpayable"},{"type":"function","name":"send","inputs":[{"name":"machine","type":"bytes32","internalType":"bytes32"},{"name":"machineEvent","type":"string","internalType":"string"}],"outputs":[{"name":"","type":"tuple","internalType":"struct Machine.SendOkResult","components":[{"name":"success","type":"bool","internalType":"bool"},{"name":"machine","type":"bytes32","internalType":"bytes32"},{"name":"state","type":"string","internalType":"string"}]}],"stateMutability":"nonpayable"},{"type":"function","name":"spawn","inputs":[{"name":"machine","type":"bytes32","internalType":"bytes32"},{"name":"widget","type":"string","internalType":"string"},{"name":"context","type":"string","internalType":"string"}],"outputs":[{"name":"","type":"tuple","internalType":"struct Machine.SpawnOkResult","components":[{"name":"success","type":"bool","internalType":"bool"},{"name":"machine","type":"bytes32","internalType":"bytes32"}]}],"stateMutability":"nonpayable"},{"type":"event","name":"ConnectCompleted","inputs":[{"name":"variant","type":"string","indexed":false,"internalType":"string"},{"name":"machine","type":"bytes32","indexed":true,"internalType":"bytes32"}],"anonymous":false},{"type":"event","name":"DestroyCompleted","inputs":[{"name":"variant","type":"string","indexed":false,"internalType":"string"},{"name":"machine","type":"bytes32","indexed":true,"internalType":"bytes32"}],"anonymous":false},{"type":"event","name":"SendCompleted","inputs":[{"name":"variant","type":"string","indexed":false,"internalType":"string"},{"name":"machine","type":"bytes32","indexed":true,"internalType":"bytes32"}],"anonymous":false},{"type":"event","name":"SpawnCompleted","inputs":[{"name":"variant","type":"string","indexed":false,"internalType":"string"},{"name":"machine","type":"bytes32","indexed":true,"internalType":"bytes32"}],"anonymous":false}],"bytecode":{"object":"0x608060405234801561000f575f80fd5b5061140a8061001d5f395ff3fe608060405234801561000f575f80fd5b506004361061004a575f3560e01c8063408f62be1461004e5780636e0bd2821461007e5780637a508409146100ae5780639f1c82bd146100de575b5f80fd5b61006860048036038101906100639190610b22565b61010e565b6040516100759190610c00565b60405180910390f35b61009860048036038101906100939190610c19565b610362565b6040516100a59190610c71565b60405180910390f35b6100c860048036038101906100c39190610c19565b6104d6565b6040516100d59190610d51565b60405180910390f35b6100f860048036038101906100f39190610d71565b61062f565b6040516101059190610e18565b60405180910390f35b6101166108c8565b60015f8581526020019081526020015f205f9054906101000a900460ff1615610174576040517f08c379a000000000000000000000000000000000000000000000000000000000815260040161016b90610e92565b60405180910390fd5b5f8351116101b7576040517f08c379a00000000000000000000000000000000000000000000000000000000081526004016101ae90610efa565b60405180910390fd5b6040518060c001604052808481526020018381526020016040518060400160405280600781526020017f696e697469616c0000000000000000000000000000000000000000000000000081525081526020016040518060400160405280600281526020017f7b7d0000000000000000000000000000000000000000000000000000000000008152508152602001600115158152602001428152505f808681526020019081526020015f205f820151815f019081610274919061111b565b50602082015181600101908161028a919061111b565b5060408201518160020190816102a0919061111b565b5060608201518160030190816102b6919061111b565b506080820151816004015f6101000a81548160ff02191690831515021790555060a082015181600501559050506001805f8681526020019081526020015f205f6101000a81548160ff021916908315150217905550837f4ce30f1bdc1568e8d5b0995e993ef8c6b2854365dc8d05bb5fb845f7b941d35b60405161033990611234565b60405180910390a260405180604001604052806001151581526020018581525090509392505050565b61036a6108e5565b60015f8381526020019081526020015f205f9054906101000a900460ff166103c7576040517f08c379a00000000000000000000000000000000000000000000000000000000081526004016103be9061129c565b60405180910390fd5b5f805f8481526020019081526020015f206004015f6101000a81548160ff0219169083151502179055505f808381526020019081526020015f205f8082015f6104109190610902565b600182015f61041f9190610902565b600282015f61042e9190610902565b600382015f61043d9190610902565b600482015f6101000a81549060ff0219169055600582015f905550505f60015f8481526020019081526020015f205f6101000a81548160ff021916908315150217905550817f5f91d6f5b071e1c01422208aefdc94722551cb418c8c493cbd4fa563938bc5d06040516104af90611234565b60405180910390a26040518060400160405280600115158152602001838152509050919050565b6104de61093f565b60015f8381526020019081526020015f205f9054906101000a900460ff1661053b576040517f08c379a00000000000000000000000000000000000000000000000000000000081526004016105329061129c565b60405180910390fd5b817fd092c6a81419fcaed32ab948a5954240c366c6e5e3bc4573ebe55b9cfab893ba60405161056990611234565b60405180910390a260405180606001604052806001151581526020018381526020015f808581526020019081526020015f2060030180546105a990610f45565b80601f01602080910402602001604051908101604052809291908181526020018280546105d590610f45565b80156106205780601f106105f757610100808354040283529160200191610620565b820191905f5260205f20905b81548152906001019060200180831161060357829003601f168201915b50505050508152509050919050565b610637610963565b60015f8481526020019081526020015f205f9054906101000a900460ff16610694576040517f08c379a000000000000000000000000000000000000000000000000000000000815260040161068b9061129c565b60405180910390fd5b5f808481526020019081526020015f206004015f9054906101000a900460ff166106f3576040517f08c379a00000000000000000000000000000000000000000000000000000000081526004016106ea90611304565b60405180910390fd5b5f805f8581526020019081526020015f20600201805461071290610f45565b80601f016020809104026020016040519081016040528092919081815260200182805461073e90610f45565b80156107895780601f1061076057610100808354040283529160200191610789565b820191905f5260205f20905b81548152906001019060200180831161076c57829003601f168201915b5050505050905080836040516020016107a39291906113a6565b6040516020818303038152906040525f808681526020019081526020015f2060020190816107d1919061111b565b50837f7c2c341d8035b1d40e90b1712d350be575aae5bda4e6198d311817ad3467c68a60405161080090611234565b60405180910390a260405180606001604052806001151581526020018581526020015f808781526020019081526020015f20600201805461084090610f45565b80601f016020809104026020016040519081016040528092919081815260200182805461086c90610f45565b80156108b75780601f1061088e576101008083540402835291602001916108b7565b820191905f5260205f20905b81548152906001019060200180831161089a57829003601f168201915b505050505081525091505092915050565b60405180604001604052805f151581526020015f80191681525090565b60405180604001604052805f151581526020015f80191681525090565b50805461090e90610f45565b5f825580601f1061091f575061093c565b601f0160209004905f5260205f209081019061093b9190610987565b5b50565b60405180606001604052805f151581526020015f8019168152602001606081525090565b60405180606001604052805f151581526020015f8019168152602001606081525090565b5b8082111561099e575f815f905550600101610988565b5090565b5f604051905090565b5f80fd5b5f80fd5b5f819050919050565b6109c5816109b3565b81146109cf575f80fd5b50565b5f813590506109e0816109bc565b92915050565b5f80fd5b5f80fd5b5f601f19601f8301169050919050565b7f4e487b71000000000000000000000000000000000000000000000000000000005f52604160045260245ffd5b610a34826109ee565b810181811067ffffffffffffffff82111715610a5357610a526109fe565b5b80604052505050565b5f610a656109a2565b9050610a718282610a2b565b919050565b5f67ffffffffffffffff821115610a9057610a8f6109fe565b5b610a99826109ee565b9050602081019050919050565b828183375f83830152505050565b5f610ac6610ac184610a76565b610a5c565b905082815260208101848484011115610ae257610ae16109ea565b5b610aed848285610aa6565b509392505050565b5f82601f830112610b0957610b086109e6565b5b8135610b19848260208601610ab4565b91505092915050565b5f805f60608486031215610b3957610b386109ab565b5b5f610b46868287016109d2565b935050602084013567ffffffffffffffff811115610b6757610b666109af565b5b610b7386828701610af5565b925050604084013567ffffffffffffffff811115610b9457610b936109af565b5b610ba086828701610af5565b9150509250925092565b5f8115159050919050565b610bbe81610baa565b82525050565b610bcd816109b3565b82525050565b604082015f820151610be75f850182610bb5565b506020820151610bfa6020850182610bc4565b50505050565b5f604082019050610c135f830184610bd3565b92915050565b5f60208284031215610c2e57610c2d6109ab565b5b5f610c3b848285016109d2565b91505092915050565b604082015f820151610c585f850182610bb5565b506020820151610c6b6020850182610bc4565b50505050565b5f604082019050610c845f830184610c44565b92915050565b5f81519050919050565b5f82825260208201905092915050565b5f5b83811015610cc1578082015181840152602081019050610ca6565b5f8484015250505050565b5f610cd682610c8a565b610ce08185610c94565b9350610cf0818560208601610ca4565b610cf9816109ee565b840191505092915050565b5f606083015f830151610d195f860182610bb5565b506020830151610d2c6020860182610bc4565b5060408301518482036040860152610d448282610ccc565b9150508091505092915050565b5f6020820190508181035f830152610d698184610d04565b905092915050565b5f8060408385031215610d8757610d866109ab565b5b5f610d94858286016109d2565b925050602083013567ffffffffffffffff811115610db557610db46109af565b5b610dc185828601610af5565b9150509250929050565b5f606083015f830151610de05f860182610bb5565b506020830151610df36020860182610bc4565b5060408301518482036040860152610e0b8282610ccc565b9150508091505092915050565b5f6020820190508181035f830152610e308184610dcb565b905092915050565b5f82825260208201905092915050565b7f4d616368696e6520616c726561647920657869737473000000000000000000005f82015250565b5f610e7c601683610e38565b9150610e8782610e48565b602082019050919050565b5f6020820190508181035f830152610ea981610e70565b9050919050565b7f57696467657420726571756972656400000000000000000000000000000000005f82015250565b5f610ee4600f83610e38565b9150610eef82610eb0565b602082019050919050565b5f6020820190508181035f830152610f1181610ed8565b9050919050565b7f4e487b71000000000000000000000000000000000000000000000000000000005f52602260045260245ffd5b5f6002820490506001821680610f5c57607f821691505b602082108103610f6f57610f6e610f18565b5b50919050565b5f819050815f5260205f209050919050565b5f6020601f8301049050919050565b5f82821b905092915050565b5f60088302610fd17fffffffffffffffffffffffffffffffffffffffffffffffffffffffffffffffff82610f96565b610fdb8683610f96565b95508019841693508086168417925050509392505050565b5f819050919050565b5f819050919050565b5f61101f61101a61101584610ff3565b610ffc565b610ff3565b9050919050565b5f819050919050565b61103883611005565b61104c61104482611026565b848454610fa2565b825550505050565b5f90565b611060611054565b61106b81848461102f565b505050565b5b8181101561108e576110835f82611058565b600181019050611071565b5050565b601f8211156110d3576110a481610f75565b6110ad84610f87565b810160208510156110bc578190505b6110d06110c885610f87565b830182611070565b50505b505050565b5f82821c905092915050565b5f6110f35f19846008026110d8565b1980831691505092915050565b5f61110b83836110e4565b9150826002028217905092915050565b61112482610c8a565b67ffffffffffffffff81111561113d5761113c6109fe565b5b6111478254610f45565b611152828285611092565b5f60209050601f831160018114611183575f8415611171578287015190505b61117b8582611100565b8655506111e2565b601f19841661119186610f75565b5f5b828110156111b857848901518255600182019150602085019450602081019050611193565b868310156111d557848901516111d1601f8916826110e4565b8355505b6001600288020188555050505b505050505050565b7f6f6b0000000000000000000000000000000000000000000000000000000000005f82015250565b5f61121e600283610e38565b9150611229826111ea565b602082019050919050565b5f6020820190508181035f83015261124b81611212565b9050919050565b7f4d616368696e65206e6f7420666f756e640000000000000000000000000000005f82015250565b5f611286601183610e38565b915061129182611252565b602082019050919050565b5f6020820190508181035f8301526112b38161127a565b9050919050565b7f4d616368696e65206e6f742061637469766500000000000000000000000000005f82015250565b5f6112ee601283610e38565b91506112f9826112ba565b602082019050919050565b5f6020820190508181035f83015261131b816112e2565b9050919050565b5f81905092915050565b5f61133682610c8a565b6113408185611322565b9350611350818560208601610ca4565b80840191505092915050565b7f2d3e0000000000000000000000000000000000000000000000000000000000005f82015250565b5f611390600283611322565b915061139b8261135c565b600282019050919050565b5f6113b1828561132c565b91506113bc82611384565b91506113c8828461132c565b9150819050939250505056fea2646970667358221220b9c6a8407f63b654aa0d6b3c19e300a1b57b9ab2d6990a58040d48ab90c8996764736f6c63430008140033","linkReferences":{}},"methodIdentifiers":{"connect(bytes32)":"7a508409","destroy(bytes32)":"6e0bd282","send(bytes32,string)":"9f1c82bd","spawn(bytes32,string,string)":"408f62be"},"id":165}