{"abi":[{"type":"function","name":"classify","inputs":[{"name":"actionName","type":"string","internalType":"string"}],"outputs":[{"name":"","type":"tuple","internalType":"struct Grouping.ClassifyOkResult","components":[{"name":"success","type":"bool","internalType":"bool"},{"name":"crudRole","type":"string","internalType":"string"},{"name":"intent","type":"string","internalType":"string"},{"name":"eventProducing","type":"bool","internalType":"bool"},{"name":"eventVerb","type":"string","internalType":"string"},{"name":"mcpType","type":"string","internalType":"string"}]}],"stateMutability":"nonpayable"},{"type":"function","name":"group","inputs":[{"name":"items","type":"string[]","internalType":"string[]"},{"name":"config","type":"string","internalType":"string"}],"outputs":[{"name":"","type":"tuple","internalType":"struct Grouping.GroupOkResult","components":[{"name":"success","type":"bool","internalType":"bool"},{"name":"grouping","type":"bytes32","internalType":"bytes32"},{"name":"groups","type":"string[]","internalType":"string[]"},{"name":"groupCount","type":"int256","internalType":"int256"}]}],"stateMutability":"nonpayable"},{"type":"event","name":"ClassifyCompleted","inputs":[{"name":"variant","type":"string","indexed":false,"internalType":"string"},{"name":"eventProducing","type":"bool","indexed":false,"internalType":"bool"}],"anonymous":false},{"type":"event","name":"GroupCompleted","inputs":[{"name":"variant","type":"string","indexed":false,"internalType":"string"},{"name":"grouping","type":"bytes32","indexed":false,"internalType":"bytes32"},{"name":"groups","type":"string[]","indexed":false,"internalType":"string[]"},{"name":"groupCount","type":"int256","indexed":false,"internalType":"int256"}],"anonymous":false}],"bytecode":{"object":"0x608060405234801561000f575f80fd5b50611ee58061001d5f395ff3fe608060405234801561000f575f80fd5b5060043610610034575f3560e01c806367df395d146100385780636c073c3114610068575b5f80fd5b610052600480360381019061004d9190610e5a565b610098565b60405161005f9190610fd0565b60405180910390f35b610082600480360381019061007d91906110d2565b61086a565b60405161008f9190611293565b60405180910390f35b6100a0610bd9565b5f8251116100e3576040517f08c379a00000000000000000000000000000000000000000000000000000000081526004016100da9061130d565b60405180910390fd5b5f826040516020016100f59190611365565b6040516020818303038152906040528051906020012090506060805f606080604051602001610123906113c5565b60405160208183030381529060405280519060200120861480610169575060405160200161015090611423565b6040516020818303038152906040528051906020012086145b80610197575060405160200161017e90611481565b6040516020818303038152906040528051906020012086145b806101c557506040516020016101ac906114df565b6040516020818303038152906040528051906020012086145b156102b3576040518060400160405280600681526020017f637265617465000000000000000000000000000000000000000000000000000081525094506040518060400160405280600881526020017f6d75746174696f6e0000000000000000000000000000000000000000000000008152509350600192506040518060400160405280600781526020017f437265617465640000000000000000000000000000000000000000000000000081525091506040518060400160405280600481526020017f746f6f6c0000000000000000000000000000000000000000000000000000000081525090506107f4565b6040516020016102c29061153d565b6040516020818303038152906040528051906020012086148061030857506040516020016102ef9061159b565b6040516020818303038152906040528051906020012086145b80610336575060405160200161031d906115f9565b6040516020818303038152906040528051906020012086145b80610364575060405160200161034b90611657565b6040516020818303038152906040528051906020012086145b806103925750604051602001610379906116b5565b6040516020818303038152906040528051906020012086145b15610458576040518060400160405280600481526020017f726561640000000000000000000000000000000000000000000000000000000081525094506040518060400160405280600581526020017f717565727900000000000000000000000000000000000000000000000000000081525093505f925060405180602001604052805f81525091506040518060400160405280600881526020017f7265736f7572636500000000000000000000000000000000000000000000000081525090506107f3565b60405160200161046790611713565b604051602081830303815290604052805190602001208614806104ad575060405160200161049490611771565b6040516020818303038152906040528051906020012086145b806104db57506040516020016104c2906117cf565b6040516020818303038152906040528051906020012086145b156105c9576040518060400160405280600681526020017f757064617465000000000000000000000000000000000000000000000000000081525094506040518060400160405280600881526020017f6d75746174696f6e0000000000000000000000000000000000000000000000008152509350600192506040518060400160405280600781526020017f557064617465640000000000000000000000000000000000000000000000000081525091506040518060400160405280600481526020017f746f6f6c0000000000000000000000000000000000000000000000000000000081525090506107f2565b6040516020016105d89061182d565b6040516020818303038152906040528051906020012086148061061e57506040516020016106059061188b565b6040516020818303038152906040528051906020012086145b1561070c576040518060400160405280600681526020017f64656c657465000000000000000000000000000000000000000000000000000081525094506040518060400160405280600881526020017f6d75746174696f6e0000000000000000000000000000000000000000000000008152509350600192506040518060400160405280600781526020017f44656c657465640000000000000000000000000000000000000000000000000081525091506040518060400160405280600481526020017f746f6f6c0000000000000000000000000000000000000000000000000000000081525090506107f1565b6040518060400160405280600681526020017f616374696f6e000000000000000000000000000000000000000000000000000081525094506040518060400160405280600781526020017f636f6d6d616e64000000000000000000000000000000000000000000000000008152509350600192506040518060400160405280600881526020017f457865637574656400000000000000000000000000000000000000000000000081525091506040518060400160405280600481526020017f746f6f6c0000000000000000000000000000000000000000000000000000000081525090505b5b5b5b7fe86dc52f781278269bc7b6ce5093099b739cb3caee4c43708ad63b5295f092058360405161082391906118f8565b60405180910390a16040518060c001604052806001151581526020018681526020018581526020018415158152602001838152602001828152509650505050505050919050565b610872610c11565b5f8351116108b5576040517f08c379a00000000000000000000000000000000000000000000000000000000081526004016108ac9061196e565b60405180910390fd5b5f8251116108f8576040517f08c379a00000000000000000000000000000000000000000000000000000000081526004016108ef906119d6565b60405180910390fd5b5f824260025f81548092919061090d90611a2a565b9190505560405160200161092393929190611a91565b6040516020818303038152906040528051906020012090505f845167ffffffffffffffff81111561095757610956610d36565b5b60405190808252806020026020018201604052801561098a57816020015b60608152602001906001900390816109755790505b5090505f5b85518110156109e4578581815181106109ab576109aa611ac9565b5b60200260200101518282815181106109c6576109c5611ac9565b5b602002602001018190525080806109dc90611a2a565b91505061098f565b505f855167ffffffffffffffff811115610a0157610a00610d36565b5b604051908082528060200260200182016040528015610a3457816020015b6060815260200190600190039081610a1f5790505b5090505f5b8651811015610a8e57868181518110610a5557610a54611ac9565b5b6020026020010151828281518110610a7057610a6f611ac9565b5b60200260200101819052508080610a8690611a2a565b915050610a39565b506040518060a00160405280828152602001868152602001838152602001428152602001600115158152505f808581526020019081526020015f205f820151815f019080519060200190610ae3929190610c3b565b506020820151816001019081610af99190611cf0565b506040820151816002019080519060200190610b16929190610c3b565b50606082015181600301556080820151816004015f6101000a81548160ff021916908315150217905550905050600183908060018154018082558091505060019003905f5260205f20015f90919091909150555f825190507f757f3058bfa92824d91a942dce0c5b4c5a584724d4ff328e2ea4b7b5f771f99a848483604051610ba193929190611e60565b60405180910390a160405180608001604052806001151581526020018581526020018481526020018281525094505050505092915050565b6040518060c001604052805f1515815260200160608152602001606081526020015f1515815260200160608152602001606081525090565b60405180608001604052805f151581526020015f8019168152602001606081526020015f81525090565b828054828255905f5260205f20908101928215610c81579160200282015b82811115610c80578251829081610c709190611cf0565b5091602001919060010190610c59565b5b509050610c8e9190610c92565b5090565b5b80821115610cb1575f8181610ca89190610cb5565b50600101610c93565b5090565b508054610cc190611b23565b5f825580601f10610cd25750610cef565b601f0160209004905f5260205f2090810190610cee9190610cf2565b5b50565b5b80821115610d09575f815f905550600101610cf3565b5090565b5f604051905090565b5f80fd5b5f80fd5b5f80fd5b5f80fd5b5f601f19601f8301169050919050565b7f4e487b71000000000000000000000000000000000000000000000000000000005f52604160045260245ffd5b610d6c82610d26565b810181811067ffffffffffffffff82111715610d8b57610d8a610d36565b5b80604052505050565b5f610d9d610d0d565b9050610da98282610d63565b919050565b5f67ffffffffffffffff821115610dc857610dc7610d36565b5b610dd182610d26565b9050602081019050919050565b828183375f83830152505050565b5f610dfe610df984610dae565b610d94565b905082815260208101848484011115610e1a57610e19610d22565b5b610e25848285610dde565b509392505050565b5f82601f830112610e4157610e40610d1e565b5b8135610e51848260208601610dec565b91505092915050565b5f60208284031215610e6f57610e6e610d16565b5b5f82013567ffffffffffffffff811115610e8c57610e8b610d1a565b5b610e9884828501610e2d565b91505092915050565b5f8115159050919050565b610eb581610ea1565b82525050565b5f81519050919050565b5f82825260208201905092915050565b5f5b83811015610ef2578082015181840152602081019050610ed7565b5f8484015250505050565b5f610f0782610ebb565b610f118185610ec5565b9350610f21818560208601610ed5565b610f2a81610d26565b840191505092915050565b5f60c083015f830151610f4a5f860182610eac565b5060208301518482036020860152610f628282610efd565b91505060408301518482036040860152610f7c8282610efd565b9150506060830151610f916060860182610eac565b5060808301518482036080860152610fa98282610efd565b91505060a083015184820360a0860152610fc38282610efd565b9150508091505092915050565b5f6020820190508181035f830152610fe88184610f35565b905092915050565b5f67ffffffffffffffff82111561100a57611009610d36565b5b602082029050602081019050919050565b5f80fd5b5f61103161102c84610ff0565b610d94565b905080838252602082019050602084028301858111156110545761105361101b565b5b835b8181101561109b57803567ffffffffffffffff81111561107957611078610d1e565b5b8086016110868982610e2d565b85526020850194505050602081019050611056565b5050509392505050565b5f82601f8301126110b9576110b8610d1e565b5b81356110c984826020860161101f565b91505092915050565b5f80604083850312156110e8576110e7610d16565b5b5f83013567ffffffffffffffff81111561110557611104610d1a565b5b611111858286016110a5565b925050602083013567ffffffffffffffff81111561113257611131610d1a565b5b61113e85828601610e2d565b9150509250929050565b5f819050919050565b61115a81611148565b82525050565b5f81519050919050565b5f82825260208201905092915050565b5f819050602082019050919050565b5f6111948383610efd565b905092915050565b5f602082019050919050565b5f6111b282611160565b6111bc818561116a565b9350836020820285016111ce8561117a565b805f5b8581101561120957848403895281516111ea8582611189565b94506111f58361119c565b925060208a019950506001810190506111d1565b50829750879550505050505092915050565b5f819050919050565b61122d8161121b565b82525050565b5f608083015f8301516112485f860182610eac565b50602083015161125b6020860182611151565b506040830151848203604086015261127382826111a8565b91505060608301516112886060860182611224565b508091505092915050565b5f6020820190508181035f8301526112ab8184611233565b905092915050565b5f82825260208201905092915050565b7f416374696f6e206e616d65206d757374206e6f7420626520656d7074790000005f82015250565b5f6112f7601d836112b3565b9150611302826112c3565b602082019050919050565b5f6020820190508181035f830152611324816112eb565b9050919050565b5f81905092915050565b5f61133f82610ebb565b611349818561132b565b9350611359818560208601610ed5565b80840191505092915050565b5f6113708284611335565b915081905092915050565b7f63726561746500000000000000000000000000000000000000000000000000005f82015250565b5f6113af60068361132b565b91506113ba8261137b565b600682019050919050565b5f6113cf826113a3565b9150819050919050565b7f61646400000000000000000000000000000000000000000000000000000000005f82015250565b5f61140d60038361132b565b9150611418826113d9565b600382019050919050565b5f61142d82611401565b9150819050919050565b7f72656769737465720000000000000000000000000000000000000000000000005f82015250565b5f61146b60088361132b565b915061147682611437565b600882019050919050565b5f61148b8261145f565b9150819050919050565b7f646566696e6500000000000000000000000000000000000000000000000000005f82015250565b5f6114c960068361132b565b91506114d482611495565b600682019050919050565b5f6114e9826114bd565b9150819050919050565b7f67657400000000000000000000000000000000000000000000000000000000005f82015250565b5f61152760038361132b565b9150611532826114f3565b600382019050919050565b5f6115478261151b565b9150819050919050565b7f72656164000000000000000000000000000000000000000000000000000000005f82015250565b5f61158560048361132b565b915061159082611551565b600482019050919050565b5f6115a582611579565b9150819050919050565b7f6c697374000000000000000000000000000000000000000000000000000000005f82015250565b5f6115e360048361132b565b91506115ee826115af565b600482019050919050565b5f611603826115d7565b9150819050919050565b7f7265736f6c7665000000000000000000000000000000000000000000000000005f82015250565b5f61164160078361132b565b915061164c8261160d565b600782019050919050565b5f61166182611635565b9150819050919050565b7f72657472696576650000000000000000000000000000000000000000000000005f82015250565b5f61169f60088361132b565b91506116aa8261166b565b600882019050919050565b5f6116bf82611693565b9150819050919050565b7f75706461746500000000000000000000000000000000000000000000000000005f82015250565b5f6116fd60068361132b565b9150611708826116c9565b600682019050919050565b5f61171d826116f1565b9150819050919050565b7f6d6f6469667900000000000000000000000000000000000000000000000000005f82015250565b5f61175b60068361132b565b915061176682611727565b600682019050919050565b5f61177b8261174f565b9150819050919050565b7f65646974000000000000000000000000000000000000000000000000000000005f82015250565b5f6117b960048361132b565b91506117c482611785565b600482019050919050565b5f6117d9826117ad565b9150819050919050565b7f64656c65746500000000000000000000000000000000000000000000000000005f82015250565b5f61181760068361132b565b9150611822826117e3565b600682019050919050565b5f6118378261180b565b9150819050919050565b7f72656d6f766500000000000000000000000000000000000000000000000000005f82015250565b5f61187560068361132b565b915061188082611841565b600682019050919050565b5f61189582611869565b9150819050919050565b7f6f6b0000000000000000000000000000000000000000000000000000000000005f82015250565b5f6118d36002836112b3565b91506118de8261189f565b602082019050919050565b6118f281610ea1565b82525050565b5f6040820190508181035f83015261190f816118c7565b905061191e60208301846118e9565b92915050565b7f4974656d73206d757374206e6f7420626520656d7074790000000000000000005f82015250565b5f6119586017836112b3565b915061196382611924565b602082019050919050565b5f6020820190508181035f8301526119858161194c565b9050919050565b7f436f6e666967206d757374206e6f7420626520656d70747900000000000000005f82015250565b5f6119c06018836112b3565b91506119cb8261198c565b602082019050919050565b5f6020820190508181035f8301526119ed816119b4565b9050919050565b7f4e487b71000000000000000000000000000000000000000000000000000000005f52601160045260245ffd5b5f819050919050565b5f611a3482611a21565b91507fffffffffffffffffffffffffffffffffffffffffffffffffffffffffffffffff8203611a6657611a656119f4565b5b600182019050919050565b5f819050919050565b611a8b611a8682611a21565b611a71565b82525050565b5f611a9c8286611335565b9150611aa88285611a7a565b602082019150611ab88284611a7a565b602082019150819050949350505050565b7f4e487b71000000000000000000000000000000000000000000000000000000005f52603260045260245ffd5b7f4e487b71000000000000000000000000000000000000000000000000000000005f52602260045260245ffd5b5f6002820490506001821680611b3a57607f821691505b602082108103611b4d57611b4c611af6565b5b50919050565b5f819050815f5260205f209050919050565b5f6020601f8301049050919050565b5f82821b905092915050565b5f60088302611baf7fffffffffffffffffffffffffffffffffffffffffffffffffffffffffffffffff82611b74565b611bb98683611b74565b95508019841693508086168417925050509392505050565b5f819050919050565b5f611bf4611bef611bea84611a21565b611bd1565b611a21565b9050919050565b5f819050919050565b611c0d83611bda565b611c21611c1982611bfb565b848454611b80565b825550505050565b5f90565b611c35611c29565b611c40818484611c04565b505050565b5b81811015611c6357611c585f82611c2d565b600181019050611c46565b5050565b601f821115611ca857611c7981611b53565b611c8284611b65565b81016020851015611c91578190505b611ca5611c9d85611b65565b830182611c45565b50505b505050565b5f82821c905092915050565b5f611cc85f1984600802611cad565b1980831691505092915050565b5f611ce08383611cb9565b9150826002028217905092915050565b611cf982610ebb565b67ffffffffffffffff811115611d1257611d11610d36565b5b611d1c8254611b23565b611d27828285611c67565b5f60209050601f831160018114611d58575f8415611d46578287015190505b611d508582611cd5565b865550611db7565b601f198416611d6686611b53565b5f5b82811015611d8d57848901518255600182019150602085019450602081019050611d68565b86831015611daa5784890151611da6601f891682611cb9565b8355505b6001600288020188555050505b505050505050565b611dc881611148565b82525050565b5f82825260208201905092915050565b5f611de882611160565b611df28185611dce565b935083602082028501611e048561117a565b805f5b85811015611e3f5784840389528151611e208582611189565b9450611e2b8361119c565b925060208a01995050600181019050611e07565b50829750879550505050505092915050565b611e5a8161121b565b82525050565b5f6080820190508181035f830152611e77816118c7565b9050611e866020830186611dbf565b8181036040830152611e988185611dde565b9050611ea76060830184611e51565b94935050505056fea264697066735822122076ec55906df0064bba9953b5b7eb7afccdab605bb2e1a7251c1d6c2e40d6e86464736f6c63430008140033","linkReferences":{}},"methodIdentifiers":{"classify(string)":"67df395d","group(string[],string)":"6c073c31"},"id":140}