{"abi":[{"type":"function","name":"diff","inputs":[{"name":"outputId","type":"bytes32","internalType":"bytes32"}],"outputs":[{"name":"","type":"tuple","internalType":"struct Target.DiffOkResult","components":[{"name":"success","type":"bool","internalType":"bool"},{"name":"output","type":"bytes32","internalType":"bytes32"},{"name":"added","type":"string[]","internalType":"string[]"},{"name":"removed","type":"string[]","internalType":"string[]"},{"name":"changed","type":"string[]","internalType":"string[]"}]}],"stateMutability":"nonpayable"},{"type":"function","name":"generate","inputs":[{"name":"projection","type":"string","internalType":"string"},{"name":"targetType","type":"string","internalType":"string"},{"name":"config","type":"string","internalType":"string"}],"outputs":[{"name":"","type":"tuple","internalType":"struct Target.GenerateOkResult","components":[{"name":"success","type":"bool","internalType":"bool"},{"name":"output","type":"bytes32","internalType":"bytes32"},{"name":"files","type":"string[]","internalType":"string[]"}]}],"stateMutability":"nonpayable"},{"type":"event","name":"DiffCompleted","inputs":[{"name":"variant","type":"string","indexed":false,"internalType":"string"},{"name":"output","type":"bytes32","indexed":false,"internalType":"bytes32"},{"name":"added","type":"string[]","indexed":false,"internalType":"string[]"},{"name":"removed","type":"string[]","indexed":false,"internalType":"string[]"},{"name":"changed","type":"string[]","indexed":false,"internalType":"string[]"}],"anonymous":false},{"type":"event","name":"GenerateCompleted","inputs":[{"name":"variant","type":"string","indexed":false,"internalType":"string"},{"name":"output","type":"bytes32","indexed":false,"internalType":"bytes32"},{"name":"files","type":"string[]","indexed":false,"internalType":"string[]"}],"anonymous":false}],"bytecode":{"object":"0x608060405234801561000f575f80fd5b506117898061001d5f395ff3fe608060405234801561000f575f80fd5b5060043610610034575f3560e01c80630b09f14d14610038578063987b393914610068575b5f80fd5b610052600480360381019061004d91906109d2565b610098565b60405161005f9190610bec565b60405180910390f35b610082600480360381019061007d9190610d38565b6104ba565b60405161008f9190610e29565b60405180910390f35b6100a0610866565b5f808381526020019081526020015f206007015f9054906101000a900460ff166100ff576040517f08c379a00000000000000000000000000000000000000000000000000000000081526004016100f690610ea3565b60405180910390fd5b5f805f8481526020019081526020015f209050806005015f9054906101000a900460ff166102bb575f81600301805480602002602001604051908101604052809291908181526020015f905b828210156101f3578382905f5260205f2001805461016890610eee565b80601f016020809104026020016040519081016040528092919081815260200182805461019490610eee565b80156101df5780601f106101b6576101008083540402835291602001916101df565b820191905f5260205f20905b8154815290600101906020018083116101c257829003601f168201915b50505050508152602001906001019061014b565b5050505090505f8067ffffffffffffffff81111561021457610213610c14565b5b60405190808252806020026020018201604052801561024757816020015b60608152602001906001900390816102325790505b5090507f1febac69d6680041e4cd45a149642b39cce8fb1351f1a105b830387f5fb1afa18583838460405161027f9493929190610ffa565b60405180910390a16040518060a001604052806001151581526020018681526020018381526020018281526020018281525093505050506104b5565b5f805f836004015481526020019081526020015f2090505f8067ffffffffffffffff8111156102ed576102ec610c14565b5b60405190808252806020026020018201604052801561032057816020015b606081526020019060019003908161030b5790505b5090505f8067ffffffffffffffff81111561033e5761033d610c14565b5b60405190808252806020026020018201604052801561037157816020015b606081526020019060019003908161035c5790505b5090505f84600301805480602002602001604051908101604052809291908181526020015f905b82821015610440578382905f5260205f200180546103b590610eee565b80601f01602080910402602001604051908101604052809291908181526020018280546103e190610eee565b801561042c5780601f106104035761010080835404028352916020019161042c565b820191905f5260205f20905b81548152906001019060200180831161040f57829003601f168201915b505050505081526020019060010190610398565b5050505090507f1febac69d6680041e4cd45a149642b39cce8fb1351f1a105b830387f5fb1afa18784848460405161047b94939291906110af565b60405180910390a16040518060a0016040528060011515815260200188815260200184815260200183815260200182815250955050505050505b919050565b6104c2610898565b5f845111610505576040517f08c379a00000000000000000000000000000000000000000000000000000000081526004016104fc90611164565b60405180910390fd5b5f835111610548576040517f08c379a000000000000000000000000000000000000000000000000000000000815260040161053f906111cc565b60405180910390fd5b5f84844260035f81548092919061055e90611220565b9190505560405160200161057594939291906112c1565b6040516020818303038152906040528051906020012090505f600267ffffffffffffffff8111156105a9576105a8610c14565b5b6040519080825280602002602001820160405280156105dc57816020015b60608152602001906001900390816105c75790505b50905085856040516020016105f292919061139a565b604051602081830303815290604052815f81518110610614576106136113d3565b5b6020026020010181905250858560405160200161063292919061144a565b60405160208183030381529060405281600181518110610655576106546113d3565b5b60200260200101819052505f8686604051602001610674929190611483565b6040516020818303038152906040528051906020012090505f60025f8381526020019081526020015f205490505f805f8381526020019081526020015f206007015f9054906101000a900460ff1690506040518061010001604052808a81526020018981526020018881526020018581526020018381526020018215158152602001428152602001600115158152505f808781526020019081526020015f205f820151815f0190816107269190611643565b50602082015181600101908161073c9190611643565b5060408201518160020190816107529190611643565b50606082015181600301908051906020019061076f9291906108bc565b506080820151816004015560a0820151816005015f6101000a81548160ff02191690831515021790555060c0820151816006015560e0820151816007015f6101000a81548160ff021916908315150217905550905050600185908060018154018082558091505060019003905f5260205f20015f90919091909150558460025f8581526020019081526020015f20819055507f0da97dbf1aebb3e58f3b32b67a8ac71e19e73bb343e3d7daac7c1a8a432f6d1b8585604051610832929190611712565b60405180910390a1604051806060016040528060011515815260200186815260200185815250955050505050509392505050565b6040518060a001604052805f151581526020015f80191681526020016060815260200160608152602001606081525090565b60405180606001604052805f151581526020015f8019168152602001606081525090565b828054828255905f5260205f20908101928215610902579160200282015b828111156109015782518290816108f19190611643565b50916020019190600101906108da565b5b50905061090f9190610913565b5090565b5b80821115610932575f81816109299190610936565b50600101610914565b5090565b50805461094290610eee565b5f825580601f106109535750610970565b601f0160209004905f5260205f209081019061096f9190610973565b5b50565b5b8082111561098a575f815f905550600101610974565b5090565b5f604051905090565b5f80fd5b5f80fd5b5f819050919050565b6109b18161099f565b81146109bb575f80fd5b50565b5f813590506109cc816109a8565b92915050565b5f602082840312156109e7576109e6610997565b5b5f6109f4848285016109be565b91505092915050565b5f8115159050919050565b610a11816109fd565b82525050565b610a208161099f565b82525050565b5f81519050919050565b5f82825260208201905092915050565b5f819050602082019050919050565b5f81519050919050565b5f82825260208201905092915050565b5f5b83811015610a86578082015181840152602081019050610a6b565b5f8484015250505050565b5f601f19601f8301169050919050565b5f610aab82610a4f565b610ab58185610a59565b9350610ac5818560208601610a69565b610ace81610a91565b840191505092915050565b5f610ae48383610aa1565b905092915050565b5f602082019050919050565b5f610b0282610a26565b610b0c8185610a30565b935083602082028501610b1e85610a40565b805f5b85811015610b595784840389528151610b3a8582610ad9565b9450610b4583610aec565b925060208a01995050600181019050610b21565b50829750879550505050505092915050565b5f60a083015f830151610b805f860182610a08565b506020830151610b936020860182610a17565b5060408301518482036040860152610bab8282610af8565b91505060608301518482036060860152610bc58282610af8565b91505060808301518482036080860152610bdf8282610af8565b9150508091505092915050565b5f6020820190508181035f830152610c048184610b6b565b905092915050565b5f80fd5b5f80fd5b7f4e487b71000000000000000000000000000000000000000000000000000000005f52604160045260245ffd5b610c4a82610a91565b810181811067ffffffffffffffff82111715610c6957610c68610c14565b5b80604052505050565b5f610c7b61098e565b9050610c878282610c41565b919050565b5f67ffffffffffffffff821115610ca657610ca5610c14565b5b610caf82610a91565b9050602081019050919050565b828183375f83830152505050565b5f610cdc610cd784610c8c565b610c72565b905082815260208101848484011115610cf857610cf7610c10565b5b610d03848285610cbc565b509392505050565b5f82601f830112610d1f57610d1e610c0c565b5b8135610d2f848260208601610cca565b91505092915050565b5f805f60608486031215610d4f57610d4e610997565b5b5f84013567ffffffffffffffff811115610d6c57610d6b61099b565b5b610d7886828701610d0b565b935050602084013567ffffffffffffffff811115610d9957610d9861099b565b5b610da586828701610d0b565b925050604084013567ffffffffffffffff811115610dc657610dc561099b565b5b610dd286828701610d0b565b9150509250925092565b5f606083015f830151610df15f860182610a08565b506020830151610e046020860182610a17565b5060408301518482036040860152610e1c8282610af8565b9150508091505092915050565b5f6020820190508181035f830152610e418184610ddc565b905092915050565b5f82825260208201905092915050565b7f4f757470757420646f6573206e6f7420657869737400000000000000000000005f82015250565b5f610e8d601583610e49565b9150610e9882610e59565b602082019050919050565b5f6020820190508181035f830152610eba81610e81565b9050919050565b7f4e487b71000000000000000000000000000000000000000000000000000000005f52602260045260245ffd5b5f6002820490506001821680610f0557607f821691505b602082108103610f1857610f17610ec1565b5b50919050565b7f6e6f50726576696f7573000000000000000000000000000000000000000000005f82015250565b5f610f52600a83610e49565b9150610f5d82610f1e565b602082019050919050565b610f718161099f565b82525050565b5f82825260208201905092915050565b5f610f9182610a26565b610f9b8185610f77565b935083602082028501610fad85610a40565b805f5b85811015610fe85784840389528151610fc98582610ad9565b9450610fd483610aec565b925060208a01995050600181019050610fb0565b50829750879550505050505092915050565b5f60a0820190508181035f83015261101181610f46565b90506110206020830187610f68565b81810360408301526110328186610f87565b905081810360608301526110468185610f87565b9050818103608083015261105a8184610f87565b905095945050505050565b7f6f6b0000000000000000000000000000000000000000000000000000000000005f82015250565b5f611099600283610e49565b91506110a482611065565b602082019050919050565b5f60a0820190508181035f8301526110c68161108d565b90506110d56020830187610f68565b81810360408301526110e78186610f87565b905081810360608301526110fb8185610f87565b9050818103608083015261110f8184610f87565b905095945050505050565b7f50726f6a656374696f6e206d757374206e6f7420626520656d707479000000005f82015250565b5f61114e601c83610e49565b91506111598261111a565b602082019050919050565b5f6020820190508181035f83015261117b81611142565b9050919050565b7f5461726765742074797065206d757374206e6f7420626520656d7074790000005f82015250565b5f6111b6601d83610e49565b91506111c182611182565b602082019050919050565b5f6020820190508181035f8301526111e3816111aa565b9050919050565b7f4e487b71000000000000000000000000000000000000000000000000000000005f52601160045260245ffd5b5f819050919050565b5f61122a82611217565b91507fffffffffffffffffffffffffffffffffffffffffffffffffffffffffffffffff820361125c5761125b6111ea565b5b600182019050919050565b5f81905092915050565b5f61127b82610a4f565b6112858185611267565b9350611295818560208601610a69565b80840191505092915050565b5f819050919050565b6112bb6112b682611217565b6112a1565b82525050565b5f6112cc8287611271565b91506112d88286611271565b91506112e482856112aa565b6020820191506112f482846112aa565b60208201915081905095945050505050565b7f2e000000000000000000000000000000000000000000000000000000000000005f82015250565b5f61133a600183611267565b915061134582611306565b600182019050919050565b7f2e747300000000000000000000000000000000000000000000000000000000005f82015250565b5f611384600383611267565b915061138f82611350565b600382019050919050565b5f6113a58285611271565b91506113b08261132e565b91506113bc8284611271565b91506113c782611378565b91508190509392505050565b7f4e487b71000000000000000000000000000000000000000000000000000000005f52603260045260245ffd5b7f2e74797065732e747300000000000000000000000000000000000000000000005f82015250565b5f611434600983611267565b915061143f82611400565b600982019050919050565b5f6114558285611271565b91506114608261132e565b915061146c8284611271565b915061147782611428565b91508190509392505050565b5f61148e8285611271565b915061149a8284611271565b91508190509392505050565b5f819050815f5260205f209050919050565b5f6020601f8301049050919050565b5f82821b905092915050565b5f600883026115027fffffffffffffffffffffffffffffffffffffffffffffffffffffffffffffffff826114c7565b61150c86836114c7565b95508019841693508086168417925050509392505050565b5f819050919050565b5f61154761154261153d84611217565b611524565b611217565b9050919050565b5f819050919050565b6115608361152d565b61157461156c8261154e565b8484546114d3565b825550505050565b5f90565b61158861157c565b611593818484611557565b505050565b5b818110156115b6576115ab5f82611580565b600181019050611599565b5050565b601f8211156115fb576115cc816114a6565b6115d5846114b8565b810160208510156115e4578190505b6115f86115f0856114b8565b830182611598565b50505b505050565b5f82821c905092915050565b5f61161b5f1984600802611600565b1980831691505092915050565b5f611633838361160c565b9150826002028217905092915050565b61164c82610a4f565b67ffffffffffffffff81111561166557611664610c14565b5b61166f8254610eee565b61167a8282856115ba565b5f60209050601f8311600181146116ab575f8415611699578287015190505b6116a38582611628565b86555061170a565b601f1984166116b9866114a6565b5f5b828110156116e0578489015182556001820191506020850194506020810190506116bb565b868310156116fd57848901516116f9601f89168261160c565b8355505b6001600288020188555050505b505050505050565b5f6060820190508181035f8301526117298161108d565b90506117386020830185610f68565b818103604083015261174a8184610f87565b9050939250505056fea26469706673582212201295f67413a362c3a7d288b3b6847b35fac4b9a96e0f4ba056411c814ea061b864736f6c63430008140033","linkReferences":{}},"methodIdentifiers":{"diff(bytes32)":"0b09f14d","generate(string,string,string)":"987b3939"},"id":280}