{"abi":[{"type":"function","name":"chainFrom","inputs":[{"name":"action","type":"string","internalType":"string"},{"name":"variant","type":"string","internalType":"string"},{"name":"depth","type":"int256","internalType":"int256"}],"outputs":[{"name":"","type":"tuple","internalType":"struct SyncEntity.ChainFromOkResult","components":[{"name":"success","type":"bool","internalType":"bool"},{"name":"chain","type":"string","internalType":"string"}]}],"stateMutability":"nonpayable"},{"type":"function","name":"findByConcept","inputs":[{"name":"concept","type":"string","internalType":"string"}],"outputs":[{"name":"","type":"tuple","internalType":"struct SyncEntity.FindByConceptOkResult","components":[{"name":"success","type":"bool","internalType":"bool"},{"name":"syncs","type":"string","internalType":"string"}]}],"stateMutability":"nonpayable"},{"type":"function","name":"findDeadEnds","inputs":[],"outputs":[{"name":"","type":"tuple","internalType":"struct SyncEntity.FindDeadEndsOkResult","components":[{"name":"success","type":"bool","internalType":"bool"},{"name":"deadEnds","type":"string","internalType":"string"}]}],"stateMutability":"nonpayable"},{"type":"function","name":"findOrphanVariants","inputs":[],"outputs":[{"name":"","type":"tuple","internalType":"struct SyncEntity.FindOrphanVariantsOkResult","components":[{"name":"success","type":"bool","internalType":"bool"},{"name":"orphans","type":"string","internalType":"string"}]}],"stateMutability":"nonpayable"},{"type":"function","name":"findTriggerableBy","inputs":[{"name":"action","type":"string","internalType":"string"},{"name":"variant","type":"string","internalType":"string"}],"outputs":[{"name":"","type":"tuple","internalType":"struct SyncEntity.FindTriggerableByOkResult","components":[{"name":"success","type":"bool","internalType":"bool"},{"name":"syncs","type":"string","internalType":"string"}]}],"stateMutability":"nonpayable"},{"type":"function","name":"get","inputs":[{"name":"sync","type":"bytes32","internalType":"bytes32"}],"outputs":[{"name":"","type":"tuple","internalType":"struct SyncEntity.GetOkResult","components":[{"name":"success","type":"bool","internalType":"bool"},{"name":"sync","type":"bytes32","internalType":"bytes32"},{"name":"name","type":"string","internalType":"string"},{"name":"annotations","type":"string","internalType":"string"},{"name":"tier","type":"string","internalType":"string"},{"name":"whenPatternCount","type":"int256","internalType":"int256"},{"name":"thenActionCount","type":"int256","internalType":"int256"}]}],"stateMutability":"nonpayable"},{"type":"function","name":"register","inputs":[{"name":"name","type":"string","internalType":"string"},{"name":"source","type":"string","internalType":"string"},{"name":"compiled","type":"string","internalType":"string"}],"outputs":[{"name":"","type":"tuple","internalType":"struct SyncEntity.RegisterOkResult","components":[{"name":"success","type":"bool","internalType":"bool"},{"name":"sync","type":"bytes32","internalType":"bytes32"}]}],"stateMutability":"nonpayable"},{"type":"event","name":"ChainFromCompleted","inputs":[{"name":"variant","type":"string","indexed":false,"internalType":"string"}],"anonymous":false},{"type":"event","name":"FindByConceptCompleted","inputs":[{"name":"variant","type":"string","indexed":false,"internalType":"string"}],"anonymous":false},{"type":"event","name":"FindDeadEndsCompleted","inputs":[{"name":"variant","type":"string","indexed":false,"internalType":"string"}],"anonymous":false},{"type":"event","name":"FindOrphanVariantsCompleted","inputs":[{"name":"variant","type":"string","indexed":false,"internalType":"string"}],"anonymous":false},{"type":"event","name":"FindTriggerableByCompleted","inputs":[{"name":"variant","type":"string","indexed":false,"internalType":"string"}],"anonymous":false},{"type":"event","name":"GetCompleted","inputs":[{"name":"variant","type":"string","indexed":false,"internalType":"string"},{"name":"sync","type":"bytes32","indexed":false,"internalType":"bytes32"},{"name":"whenPatternCount","type":"int256","indexed":false,"internalType":"int256"},{"name":"thenActionCount","type":"int256","indexed":false,"internalType":"int256"}],"anonymous":false},{"type":"event","name":"RegisterCompleted","inputs":[{"name":"variant","type":"string","indexed":false,"internalType":"string"},{"name":"sync","type":"bytes32","indexed":false,"internalType":"bytes32"},{"name":"existing","type":"bytes32","indexed":false,"internalType":"bytes32"}],"anonymous":false}],"bytecode":{"object":"0x608060405234801561000f575f80fd5b50611e6b8061001d5f395ff3fe608060405234801561000f575f80fd5b506004361061007b575f3560e01c806352ddcde31161005957806352ddcde3146100fd5780638eaa6ac01461012d578063b10b52811461015d578063e6f8ac771461018d5761007b565b8063333a6fcc1461007f5780634cd08d031461009d5780634cee8c1d146100cd575b5f80fd5b6100876101ab565b6040516100949190610f98565b60405180910390f35b6100b760048036038101906100b291906110f5565b6102d8565b6040516100c491906111de565b60405180910390f35b6100e760048036038101906100e291906111f7565b6105dd565b6040516100f49190611278565b60405180910390f35b61011760048036038101906101129190611298565b610729565b6040516101249190611348565b60405180910390f35b61014760048036038101906101429190611392565b610878565b604051610154919061147c565b60405180910390f35b610177600480360381019061017291906114c6565b610b18565b6040516101849190611588565b60405180910390f35b610195610cab565b6040516101a291906115e2565b60405180910390f35b6101b3610dd8565b5f60405180602001604052805f81525090505f805b600180549050811015610283575f805f600184815481106101ec576101eb611602565b5b905f5260205f20015481526020019081526020015f2090505f81600601540361026f575f83111561023a578360405160200161022891906116b3565b60405160208183030381529060405293505b83815f0160405160200161024f9291906117c3565b6040516020818303038152906040529350828061026b9061181c565b9350505b50808061027b9061181c565b9150506101c8565b507fd484cd0e00822017bc0a716866d7e62376c66de8149fc0083d1b010a0ffc5b136040516102b1906118bd565b60405180910390a16040518060400160405280600115158152602001838152509250505090565b6102e0610df3565b5f845111610323576040517f08c379a000000000000000000000000000000000000000000000000000000000815260040161031a90611925565b60405180910390fd5b5f846040516020016103359190611943565b6040516020818303038152906040528051906020012090505f60025f8381526020019081526020015f205490505f808281526020019081526020015f206007015f9054906101000a900460ff16156103e3577f95aa42045c9e7890b45a5e0d5b1d5c5e7a1690b14f1e0c18785efb0cd8465e2b5f801b826040516103ba9291906119b2565b60405180910390a1604051806040016040528060011515815260200182815250925050506105d6565b5f86866040516020016103f79291906119ec565b60405160208183030381529060405280519060200120905060405180610100016040528088815260200187815260200186815260200160405180602001604052805f81525081526020016040518060400160405280600781526020017f64656661756c740000000000000000000000000000000000000000000000000081525081526020015f81526020015f8152602001600115158152505f808381526020019081526020015f205f820151815f0190816104b29190611b9a565b5060208201518160010190816104c89190611b9a565b5060408201518160020190816104de9190611b9a565b5060608201518160030190816104f49190611b9a565b50608082015181600401908161050a9190611b9a565b5060a0820151816005015560c0820151816006015560e0820151816007015f6101000a81548160ff021916908315150217905550905050600181908060018154018082558091505060019003905f5260205f20015f90919091909150558060025f8581526020019081526020015f20819055507f95aa42045c9e7890b45a5e0d5b1d5c5e7a1690b14f1e0c18785efb0cd8465e2b815f801b6040516105b0929190611c69565b60405180910390a160405180604001604052806001151581526020018281525093505050505b9392505050565b6105e5610e10565b5f826040516020016105f79190611943565b6040516020818303038152906040528051906020012090505f60035f8381526020019081526020015f2090505f60405180602001604052805f81525090505f5b82805490508110156106d1575f81111561066e578160405160200161065c91906116b3565b60405160208183030381529060405291505b815f8085848154811061068457610683611602565b5b905f5260205f20015481526020019081526020015f205f016040516020016106ad9291906117c3565b604051602081830303815290604052915080806106c99061181c565b915050610637565b507fe887d6b5d8c07462a42849880d72e3312fa3f7def1fc3329adf287f8de45d8bd6040516106ff906118bd565b60405180910390a16040518060400160405280600115158152602001828152509350505050919050565b610731610e2b565b5f83836040516020016107459291906119ec565b6040516020818303038152906040528051906020012090505f60045f8381526020019081526020015f2090505f60405180602001604052805f81525090505f5b828054905081101561081f575f8111156107bc57816040516020016107aa91906116b3565b60405160208183030381529060405291505b815f808584815481106107d2576107d1611602565b5b905f5260205f20015481526020019081526020015f205f016040516020016107fb9291906117c3565b604051602081830303815290604052915080806108179061181c565b915050610785565b507f27d2fe52d443b4618b47cc6095fdd78e67c36a55650860c26f7ed3a67a7a6d8760405161084d906118bd565b60405180910390a1604051806040016040528060011515815260200182815250935050505092915050565b610880610e46565b5f808381526020019081526020015f206007015f9054906101000a900460ff166108df576040517f08c379a00000000000000000000000000000000000000000000000000000000081526004016108d690611ced565b60405180910390fd5b5f805f8481526020019081526020015f2090507f354b8a609d2969833a5a12b6b453ee78f2268600b371291884e569b334090dcb838260050154836006015460405161092d93929190611d1a565b60405180910390a16040518060e00160405280600115158152602001848152602001825f01805461095d90611701565b80601f016020809104026020016040519081016040528092919081815260200182805461098990611701565b80156109d45780601f106109ab576101008083540402835291602001916109d4565b820191905f5260205f20905b8154815290600101906020018083116109b757829003601f168201915b505050505081526020018260030180546109ed90611701565b80601f0160208091040260200160405190810160405280929190818152602001828054610a1990611701565b8015610a645780601f10610a3b57610100808354040283529160200191610a64565b820191905f5260205f20905b815481529060010190602001808311610a4757829003601f168201915b50505050508152602001826004018054610a7d90611701565b80601f0160208091040260200160405190810160405280929190818152602001828054610aa990611701565b8015610af45780601f10610acb57610100808354040283529160200191610af4565b820191905f5260205f20905b815481529060010190602001808311610ad757829003601f168201915b50505050508152602001826005015481526020018260060154815250915050919050565b610b20610e84565b5f821215610b63576040517f08c379a0000000000000000000000000000000000000000000000000000000008152600401610b5a90611dac565b60405180910390fd5b5f8484604051602001610b779291906119ec565b6040516020818303038152906040528051906020012090505f60045f8381526020019081526020015f2090505f60405180602001604052805f81525090505f5b8280549050811015610c51575f811115610bee5781604051602001610bdc9190611e14565b60405160208183030381529060405291505b815f80858481548110610c0457610c03611602565b5b905f5260205f20015481526020019081526020015f205f01604051602001610c2d9291906117c3565b60405160208183030381529060405291508080610c499061181c565b915050610bb7565b507fe1186639d32ca5a1637c91704aa2d793aeefa63f9bb1b493f41c9b2445ecd489604051610c7f906118bd565b60405180910390a160405180604001604052806001151581526020018281525093505050509392505050565b610cb3610e9f565b5f60405180602001604052805f81525090505f805b600180549050811015610d83575f805f60018481548110610cec57610ceb611602565b5b905f5260205f20015481526020019081526020015f2090505f816005015403610d6f575f831115610d3a5783604051602001610d2891906116b3565b60405160208183030381529060405293505b83815f01604051602001610d4f9291906117c3565b60405160208183030381529060405293508280610d6b9061181c565b9350505b508080610d7b9061181c565b915050610cc8565b507f4aae6732135f20d77ce092d2830445aeb9432b4bdec0111833ce5ce1e32eb48b604051610db1906118bd565b60405180910390a16040518060400160405280600115158152602001838152509250505090565b60405180604001604052805f15158152602001606081525090565b60405180604001604052805f151581526020015f80191681525090565b60405180604001604052805f15158152602001606081525090565b60405180604001604052805f15158152602001606081525090565b6040518060e001604052805f151581526020015f80191681526020016060815260200160608152602001606081526020015f81526020015f81525090565b60405180604001604052805f15158152602001606081525090565b60405180604001604052805f15158152602001606081525090565b5f8115159050919050565b610ece81610eba565b82525050565b5f81519050919050565b5f82825260208201905092915050565b5f5b83811015610f0b578082015181840152602081019050610ef0565b5f8484015250505050565b5f601f19601f8301169050919050565b5f610f3082610ed4565b610f3a8185610ede565b9350610f4a818560208601610eee565b610f5381610f16565b840191505092915050565b5f604083015f830151610f735f860182610ec5565b5060208301518482036020860152610f8b8282610f26565b9150508091505092915050565b5f6020820190508181035f830152610fb08184610f5e565b905092915050565b5f604051905090565b5f80fd5b5f80fd5b5f80fd5b5f80fd5b7f4e487b71000000000000000000000000000000000000000000000000000000005f52604160045260245ffd5b61100782610f16565b810181811067ffffffffffffffff8211171561102657611025610fd1565b5b80604052505050565b5f611038610fb8565b90506110448282610ffe565b919050565b5f67ffffffffffffffff82111561106357611062610fd1565b5b61106c82610f16565b9050602081019050919050565b828183375f83830152505050565b5f61109961109484611049565b61102f565b9050828152602081018484840111156110b5576110b4610fcd565b5b6110c0848285611079565b509392505050565b5f82601f8301126110dc576110db610fc9565b5b81356110ec848260208601611087565b91505092915050565b5f805f6060848603121561110c5761110b610fc1565b5b5f84013567ffffffffffffffff81111561112957611128610fc5565b5b611135868287016110c8565b935050602084013567ffffffffffffffff81111561115657611155610fc5565b5b611162868287016110c8565b925050604084013567ffffffffffffffff81111561118357611182610fc5565b5b61118f868287016110c8565b9150509250925092565b5f819050919050565b6111ab81611199565b82525050565b604082015f8201516111c55f850182610ec5565b5060208201516111d860208501826111a2565b50505050565b5f6040820190506111f15f8301846111b1565b92915050565b5f6020828403121561120c5761120b610fc1565b5b5f82013567ffffffffffffffff81111561122957611228610fc5565b5b611235848285016110c8565b91505092915050565b5f604083015f8301516112535f860182610ec5565b506020830151848203602086015261126b8282610f26565b9150508091505092915050565b5f6020820190508181035f830152611290818461123e565b905092915050565b5f80604083850312156112ae576112ad610fc1565b5b5f83013567ffffffffffffffff8111156112cb576112ca610fc5565b5b6112d7858286016110c8565b925050602083013567ffffffffffffffff8111156112f8576112f7610fc5565b5b611304858286016110c8565b9150509250929050565b5f604083015f8301516113235f860182610ec5565b506020830151848203602086015261133b8282610f26565b9150508091505092915050565b5f6020820190508181035f830152611360818461130e565b905092915050565b61137181611199565b811461137b575f80fd5b50565b5f8135905061138c81611368565b92915050565b5f602082840312156113a7576113a6610fc1565b5b5f6113b48482850161137e565b91505092915050565b5f819050919050565b6113cf816113bd565b82525050565b5f60e083015f8301516113ea5f860182610ec5565b5060208301516113fd60208601826111a2565b50604083015184820360408601526114158282610f26565b9150506060830151848203606086015261142f8282610f26565b915050608083015184820360808601526114498282610f26565b91505060a083015161145e60a08601826113c6565b5060c083015161147160c08601826113c6565b508091505092915050565b5f6020820190508181035f83015261149481846113d5565b905092915050565b6114a5816113bd565b81146114af575f80fd5b50565b5f813590506114c08161149c565b92915050565b5f805f606084860312156114dd576114dc610fc1565b5b5f84013567ffffffffffffffff8111156114fa576114f9610fc5565b5b611506868287016110c8565b935050602084013567ffffffffffffffff81111561152757611526610fc5565b5b611533868287016110c8565b9250506040611544868287016114b2565b9150509250925092565b5f604083015f8301516115635f860182610ec5565b506020830151848203602086015261157b8282610f26565b9150508091505092915050565b5f6020820190508181035f8301526115a0818461154e565b905092915050565b5f604083015f8301516115bd5f860182610ec5565b50602083015184820360208601526115d58282610f26565b9150508091505092915050565b5f6020820190508181035f8301526115fa81846115a8565b905092915050565b7f4e487b71000000000000000000000000000000000000000000000000000000005f52603260045260245ffd5b5f81905092915050565b5f61164382610ed4565b61164d818561162f565b935061165d818560208601610eee565b80840191505092915050565b7f2c000000000000000000000000000000000000000000000000000000000000005f82015250565b5f61169d60018361162f565b91506116a882611669565b600182019050919050565b5f6116be8284611639565b91506116c982611691565b915081905092915050565b7f4e487b71000000000000000000000000000000000000000000000000000000005f52602260045260245ffd5b5f600282049050600182168061171857607f821691505b60208210810361172b5761172a6116d4565b5b50919050565b5f819050815f5260205f209050919050565b5f815461174f81611701565b611759818661162f565b9450600182165f81146117735760018114611788576117ba565b60ff19831686528115158202860193506117ba565b61179185611731565b5f5b838110156117b257815481890152600182019150602081019050611793565b838801955050505b50505092915050565b5f6117ce8285611639565b91506117da8284611743565b91508190509392505050565b7f4e487b71000000000000000000000000000000000000000000000000000000005f52601160045260245ffd5b5f819050919050565b5f61182682611813565b91507fffffffffffffffffffffffffffffffffffffffffffffffffffffffffffffffff8203611858576118576117e6565b5b600182019050919050565b5f82825260208201905092915050565b7f6f6b0000000000000000000000000000000000000000000000000000000000005f82015250565b5f6118a7600283611863565b91506118b282611873565b602082019050919050565b5f6020820190508181035f8301526118d48161189b565b9050919050565b7f4e616d65206d757374206e6f7420626520656d707479000000000000000000005f82015250565b5f61190f601683611863565b915061191a826118db565b602082019050919050565b5f6020820190508181035f83015261193c81611903565b9050919050565b5f61194e8284611639565b915081905092915050565b7f616c7265616479526567697374657265640000000000000000000000000000005f82015250565b5f61198d601183611863565b915061199882611959565b602082019050919050565b6119ac81611199565b82525050565b5f6060820190508181035f8301526119c981611981565b90506119d860208301856119a3565b6119e560408301846119a3565b9392505050565b5f6119f78285611639565b9150611a038284611639565b91508190509392505050565b5f6020601f8301049050919050565b5f82821b905092915050565b5f60088302611a597fffffffffffffffffffffffffffffffffffffffffffffffffffffffffffffffff82611a1e565b611a638683611a1e565b95508019841693508086168417925050509392505050565b5f819050919050565b5f611a9e611a99611a9484611813565b611a7b565b611813565b9050919050565b5f819050919050565b611ab783611a84565b611acb611ac382611aa5565b848454611a2a565b825550505050565b5f90565b611adf611ad3565b611aea818484611aae565b505050565b5b81811015611b0d57611b025f82611ad7565b600181019050611af0565b5050565b601f821115611b5257611b2381611731565b611b2c84611a0f565b81016020851015611b3b578190505b611b4f611b4785611a0f565b830182611aef565b50505b505050565b5f82821c905092915050565b5f611b725f1984600802611b57565b1980831691505092915050565b5f611b8a8383611b63565b9150826002028217905092915050565b611ba382610ed4565b67ffffffffffffffff811115611bbc57611bbb610fd1565b5b611bc68254611701565b611bd1828285611b11565b5f60209050601f831160018114611c02575f8415611bf0578287015190505b611bfa8582611b7f565b865550611c61565b601f198416611c1086611731565b5f5b82811015611c3757848901518255600182019150602085019450602081019050611c12565b86831015611c545784890151611c50601f891682611b63565b8355505b6001600288020188555050505b505050505050565b5f6060820190508181035f830152611c808161189b565b9050611c8f60208301856119a3565b611c9c60408301846119a3565b9392505050565b7f53796e63206e6f7420666f756e640000000000000000000000000000000000005f82015250565b5f611cd7600e83611863565b9150611ce282611ca3565b602082019050919050565b5f6020820190508181035f830152611d0481611ccb565b9050919050565b611d14816113bd565b82525050565b5f6080820190508181035f830152611d318161189b565b9050611d4060208301866119a3565b611d4d6040830185611d0b565b611d5a6060830184611d0b565b949350505050565b7f4465707468206d757374206265206e6f6e2d6e656761746976650000000000005f82015250565b5f611d96601a83611863565b9150611da182611d62565b602082019050919050565b5f6020820190508181035f830152611dc381611d8a565b9050919050565b7f202d3e20000000000000000000000000000000000000000000000000000000005f82015250565b5f611dfe60048361162f565b9150611e0982611dca565b600482019050919050565b5f611e1f8284611639565b9150611e2a82611df2565b91508190509291505056fea2646970667358221220b68cab3ae69fff5f47c8e7029198d132241d15bf96c6e62214fa8d9d07565ebf64736f6c63430008140033","linkReferences":{}},"methodIdentifiers":{"chainFrom(string,string,int256)":"b10b5281","findByConcept(string)":"4cee8c1d","findDeadEnds()":"333a6fcc","findOrphanVariants()":"e6f8ac77","findTriggerableBy(string,string)":"52ddcde3","get(bytes32)":"8eaa6ac0","register(string,string,string)":"4cd08d03"},"id":271}