{"abi":[{"type":"function","name":"defineDuration","inputs":[{"name":"motion","type":"bytes32","internalType":"bytes32"},{"name":"name","type":"string","internalType":"string"},{"name":"ms","type":"int256","internalType":"int256"}],"outputs":[{"name":"","type":"tuple","internalType":"struct Motion.DefineDurationOkResult","components":[{"name":"success","type":"bool","internalType":"bool"},{"name":"motion","type":"bytes32","internalType":"bytes32"}]}],"stateMutability":"nonpayable"},{"type":"function","name":"defineEasing","inputs":[{"name":"motion","type":"bytes32","internalType":"bytes32"},{"name":"name","type":"string","internalType":"string"},{"name":"value","type":"string","internalType":"string"}],"outputs":[{"name":"","type":"tuple","internalType":"struct Motion.DefineEasingOkResult","components":[{"name":"success","type":"bool","internalType":"bool"},{"name":"motion","type":"bytes32","internalType":"bytes32"}]}],"stateMutability":"nonpayable"},{"type":"function","name":"defineTransition","inputs":[{"name":"motion","type":"bytes32","internalType":"bytes32"},{"name":"name","type":"string","internalType":"string"},{"name":"config","type":"string","internalType":"string"}],"outputs":[{"name":"","type":"tuple","internalType":"struct Motion.DefineTransitionOkResult","components":[{"name":"success","type":"bool","internalType":"bool"},{"name":"motion","type":"bytes32","internalType":"bytes32"}]}],"stateMutability":"nonpayable"},{"type":"event","name":"DefineDurationCompleted","inputs":[{"name":"variant","type":"string","indexed":false,"internalType":"string"},{"name":"motion","type":"bytes32","indexed":true,"internalType":"bytes32"}],"anonymous":false},{"type":"event","name":"DefineEasingCompleted","inputs":[{"name":"variant","type":"string","indexed":false,"internalType":"string"},{"name":"motion","type":"bytes32","indexed":true,"internalType":"bytes32"}],"anonymous":false},{"type":"event","name":"DefineTransitionCompleted","inputs":[{"name":"variant","type":"string","indexed":false,"internalType":"string"},{"name":"motion","type":"bytes32","indexed":true,"internalType":"bytes32"}],"anonymous":false}],"bytecode":{"object":"0x608060405234801561000f575f80fd5b5061108d8061001d5f395ff3fe608060405234801561000f575f80fd5b506004361061003f575f3560e01c8063375bf28e146100435780633e4f1d891461007357806340bfe5e0146100a3575b5f80fd5b61005d60048036038101906100589190610809565b6100d3565b60405161006a91906108e7565b60405180910390f35b61008d60048036038101906100889190610933565b6102a2565b60405161009a91906109cc565b60405180910390f35b6100bd60048036038101906100b89190610809565b610463565b6040516100ca9190610a12565b60405180910390f35b6100db610632565b60055f8581526020019081526020015f205f9054906101000a900460ff1615610139576040517f08c379a000000000000000000000000000000000000000000000000000000000815260040161013090610a85565b60405180910390fd5b5f83511161017c576040517f08c379a000000000000000000000000000000000000000000000000000000000815260040161017390610aed565b60405180910390fd5b5f8251116101bf576040517f08c379a00000000000000000000000000000000000000000000000000000000081526004016101b690610b55565b60405180910390fd5b60405180606001604052808481526020018381526020014281525060045f8681526020019081526020015f205f820151815f0190816101fe9190610d80565b5060208201518160010190816102149190610d80565b5060408201518160020155905050600160055f8681526020019081526020015f205f6101000a81548160ff021916908315150217905550837fccaf2f381303d0f949b02f343807b5dc32a053797d48d0b7f4a366c142f570b560405161027990610e99565b60405180910390a260405180604001604052806001151581526020018581525090509392505050565b6102aa61064f565b60015f8581526020019081526020015f205f9054906101000a900460ff1615610308576040517f08c379a00000000000000000000000000000000000000000000000000000000081526004016102ff90610f01565b60405180910390fd5b5f83511161034b576040517f08c379a000000000000000000000000000000000000000000000000000000000815260040161034290610aed565b60405180910390fd5b5f82121561038e576040517f08c379a000000000000000000000000000000000000000000000000000000000815260040161038590610f69565b60405180910390fd5b6040518060600160405280848152602001838152602001428152505f808681526020019081526020015f205f820151815f0190816103cc9190610d80565b5060208201518160010155604082015181600201559050506001805f8681526020019081526020015f205f6101000a81548160ff021916908315150217905550837f23af3a0df5921d26d17d436fae21ccba36576a53028f1f2b7330312102d1acf760405161043a90610e99565b60405180910390a260405180604001604052806001151581526020018581525090509392505050565b61046b61066c565b60035f8581526020019081526020015f205f9054906101000a900460ff16156104c9576040517f08c379a00000000000000000000000000000000000000000000000000000000081526004016104c090610fd1565b60405180910390fd5b5f83511161050c576040517f08c379a000000000000000000000000000000000000000000000000000000000815260040161050390610aed565b60405180910390fd5b5f82511161054f576040517f08c379a000000000000000000000000000000000000000000000000000000000815260040161054690611039565b60405180910390fd5b60405180606001604052808481526020018381526020014281525060025f8681526020019081526020015f205f820151815f01908161058e9190610d80565b5060208201518160010190816105a49190610d80565b5060408201518160020155905050600160035f8681526020019081526020015f205f6101000a81548160ff021916908315150217905550837f37ea9e1b255af3e7eeb32939f7c4ccacd1d80607a5780e962c810bc75185258160405161060990610e99565b60405180910390a260405180604001604052806001151581526020018581525090509392505050565b60405180604001604052805f151581526020015f80191681525090565b60405180604001604052805f151581526020015f80191681525090565b60405180604001604052805f151581526020015f80191681525090565b5f604051905090565b5f80fd5b5f80fd5b5f819050919050565b6106ac8161069a565b81146106b6575f80fd5b50565b5f813590506106c7816106a3565b92915050565b5f80fd5b5f80fd5b5f601f19601f8301169050919050565b7f4e487b71000000000000000000000000000000000000000000000000000000005f52604160045260245ffd5b61071b826106d5565b810181811067ffffffffffffffff8211171561073a576107396106e5565b5b80604052505050565b5f61074c610689565b90506107588282610712565b919050565b5f67ffffffffffffffff821115610777576107766106e5565b5b610780826106d5565b9050602081019050919050565b828183375f83830152505050565b5f6107ad6107a88461075d565b610743565b9050828152602081018484840111156107c9576107c86106d1565b5b6107d484828561078d565b509392505050565b5f82601f8301126107f0576107ef6106cd565b5b813561080084826020860161079b565b91505092915050565b5f805f606084860312156108205761081f610692565b5b5f61082d868287016106b9565b935050602084013567ffffffffffffffff81111561084e5761084d610696565b5b61085a868287016107dc565b925050604084013567ffffffffffffffff81111561087b5761087a610696565b5b610887868287016107dc565b9150509250925092565b5f8115159050919050565b6108a581610891565b82525050565b6108b48161069a565b82525050565b604082015f8201516108ce5f85018261089c565b5060208201516108e160208501826108ab565b50505050565b5f6040820190506108fa5f8301846108ba565b92915050565b5f819050919050565b61091281610900565b811461091c575f80fd5b50565b5f8135905061092d81610909565b92915050565b5f805f6060848603121561094a57610949610692565b5b5f610957868287016106b9565b935050602084013567ffffffffffffffff81111561097857610977610696565b5b610984868287016107dc565b92505060406109958682870161091f565b9150509250925092565b604082015f8201516109b35f85018261089c565b5060208201516109c660208501826108ab565b50505050565b5f6040820190506109df5f83018461099f565b92915050565b604082015f8201516109f95f85018261089c565b506020820151610a0c60208501826108ab565b50505050565b5f604082019050610a255f8301846109e5565b92915050565b5f82825260208201905092915050565b7f5472616e736974696f6e20616c726561647920646566696e65640000000000005f82015250565b5f610a6f601a83610a2b565b9150610a7a82610a3b565b602082019050919050565b5f6020820190508181035f830152610a9c81610a63565b9050919050565b7f4e616d65207265717569726564000000000000000000000000000000000000005f82015250565b5f610ad7600d83610a2b565b9150610ae282610aa3565b602082019050919050565b5f6020820190508181035f830152610b0481610acb565b9050919050565b7f436f6e66696720726571756972656400000000000000000000000000000000005f82015250565b5f610b3f600f83610a2b565b9150610b4a82610b0b565b602082019050919050565b5f6020820190508181035f830152610b6c81610b33565b9050919050565b5f81519050919050565b7f4e487b71000000000000000000000000000000000000000000000000000000005f52602260045260245ffd5b5f6002820490506001821680610bc157607f821691505b602082108103610bd457610bd3610b7d565b5b50919050565b5f819050815f5260205f209050919050565b5f6020601f8301049050919050565b5f82821b905092915050565b5f60088302610c367fffffffffffffffffffffffffffffffffffffffffffffffffffffffffffffffff82610bfb565b610c408683610bfb565b95508019841693508086168417925050509392505050565b5f819050919050565b5f819050919050565b5f610c84610c7f610c7a84610c58565b610c61565b610c58565b9050919050565b5f819050919050565b610c9d83610c6a565b610cb1610ca982610c8b565b848454610c07565b825550505050565b5f90565b610cc5610cb9565b610cd0818484610c94565b505050565b5b81811015610cf357610ce85f82610cbd565b600181019050610cd6565b5050565b601f821115610d3857610d0981610bda565b610d1284610bec565b81016020851015610d21578190505b610d35610d2d85610bec565b830182610cd5565b50505b505050565b5f82821c905092915050565b5f610d585f1984600802610d3d565b1980831691505092915050565b5f610d708383610d49565b9150826002028217905092915050565b610d8982610b73565b67ffffffffffffffff811115610da257610da16106e5565b5b610dac8254610baa565b610db7828285610cf7565b5f60209050601f831160018114610de8575f8415610dd6578287015190505b610de08582610d65565b865550610e47565b601f198416610df686610bda565b5f5b82811015610e1d57848901518255600182019150602085019450602081019050610df8565b86831015610e3a5784890151610e36601f891682610d49565b8355505b6001600288020188555050505b505050505050565b7f6f6b0000000000000000000000000000000000000000000000000000000000005f82015250565b5f610e83600283610a2b565b9150610e8e82610e4f565b602082019050919050565b5f6020820190508181035f830152610eb081610e77565b9050919050565b7f4475726174696f6e20616c726561647920646566696e656400000000000000005f82015250565b5f610eeb601883610a2b565b9150610ef682610eb7565b602082019050919050565b5f6020820190508181035f830152610f1881610edf565b9050919050565b7f4475726174696f6e206d757374206265206e6f6e2d6e656761746976650000005f82015250565b5f610f53601d83610a2b565b9150610f5e82610f1f565b602082019050919050565b5f6020820190508181035f830152610f8081610f47565b9050919050565b7f456173696e6720616c726561647920646566696e6564000000000000000000005f82015250565b5f610fbb601683610a2b565b9150610fc682610f87565b602082019050919050565b5f6020820190508181035f830152610fe881610faf565b9050919050565b7f56616c75652072657175697265640000000000000000000000000000000000005f82015250565b5f611023600e83610a2b565b915061102e82610fef565b602082019050919050565b5f6020820190508181035f83015261105081611017565b905091905056fea2646970667358221220db4e2ef4f86e2925dbf65121a909890695ad4e2ee549cd7b26a75fce8729a4c664736f6c63430008140033","linkReferences":{}},"methodIdentifiers":{"defineDuration(bytes32,string,int256)":"3e4f1d89","defineEasing(bytes32,string,string)":"40bfe5e0","defineTransition(bytes32,string,string)":"375bf28e"},"id":173}