{"abi":[{"type":"function","name":"emitManifest","inputs":[{"name":"plan","type":"string","internalType":"string"},{"name":"controller","type":"string","internalType":"string"},{"name":"repo","type":"string","internalType":"string"},{"name":"path","type":"string","internalType":"string"}],"outputs":[{"name":"","type":"tuple","internalType":"struct GitOps.EmitOkResult","components":[{"name":"success","type":"bool","internalType":"bool"},{"name":"manifest","type":"bytes32","internalType":"bytes32"},{"name":"files","type":"string[]","internalType":"string[]"}]}],"stateMutability":"nonpayable"},{"type":"function","name":"reconciliationStatus","inputs":[{"name":"manifest","type":"bytes32","internalType":"bytes32"}],"outputs":[{"name":"","type":"tuple","internalType":"struct GitOps.ReconciliationStatusOkResult","components":[{"name":"success","type":"bool","internalType":"bool"},{"name":"manifest","type":"bytes32","internalType":"bytes32"},{"name":"status","type":"string","internalType":"string"},{"name":"reconciledAt","type":"uint256","internalType":"uint256"}]}],"stateMutability":"nonpayable"},{"type":"event","name":"EmitCompleted","inputs":[{"name":"variant","type":"string","indexed":false,"internalType":"string"},{"name":"manifest","type":"bytes32","indexed":false,"internalType":"bytes32"},{"name":"files","type":"string[]","indexed":false,"internalType":"string[]"}],"anonymous":false},{"type":"event","name":"ReconciliationStatusCompleted","inputs":[{"name":"variant","type":"string","indexed":false,"internalType":"string"},{"name":"manifest","type":"bytes32","indexed":false,"internalType":"bytes32"},{"name":"reconciledAt","type":"uint256","indexed":false,"internalType":"uint256"},{"name":"waitingOn","type":"string[]","indexed":false,"internalType":"string[]"}],"anonymous":false}],"bytecode":{"object":"0x608060405234801561000f575f80fd5b506114b08061001d5f395ff3fe608060405234801561000f575f80fd5b5060043610610034575f3560e01c80634b8bd9e114610038578063b79b199b14610068575b5f80fd5b610052600480360381019061004d91906107f3565b610098565b60405161005f9190610949565b60405180910390f35b610082600480360381019061007d9190610a95565b610317565b60405161008f9190610c71565b60405180910390f35b6100a061068f565b60025f8381526020019081526020015f205f9054906101000a900460ff166100fd576040517f08c379a00000000000000000000000000000000000000000000000000000000081526004016100f490610ceb565b60405180910390fd5b5f805f8481526020019081526020015f2090506040518060400160405280600781526020017f70656e64696e6700000000000000000000000000000000000000000000000000815250805190602001208160050160405161015e9190610e02565b604051809103902014801561017657505f8160060154145b156101cc576040518060400160405280600681526020017f73796e63656400000000000000000000000000000000000000000000000000008152508160050190816101c19190610fb5565b504281600601819055505b5f8067ffffffffffffffff8111156101e7576101e6610971565b5b60405190808252806020026020018201604052801561021a57816020015b60608152602001906001900390816102055790505b5090507f2eec95e46edc9517db4493e6e1a078b43e5d52cd0b07ff324aa3e63a112db9a7848360060154836040516102549392919061116f565b60405180910390a1604051806080016040528060011515815260200185815260200183600501805461028590610d36565b80601f01602080910402602001604051908101604052809291908181526020018280546102b190610d36565b80156102fc5780601f106102d3576101008083540402835291602001916102fc565b820191905f5260205f20905b8154815290600101906020018083116102df57829003601f168201915b50505050508152602001836006015481525092505050919050565b61031f6106b9565b5f855111610362576040517f08c379a000000000000000000000000000000000000000000000000000000000815260040161035990611208565b60405180910390fd5b5f8451116103a5576040517f08c379a000000000000000000000000000000000000000000000000000000000815260040161039c90611270565b60405180910390fd5b5f85858585426040516020016103bf9594939291906112e8565b6040516020818303038152906040528051906020012090505f600267ffffffffffffffff8111156103f3576103f2610971565b5b60405190808252806020026020018201604052801561042657816020015b60608152602001906001900390816104115790505b5090508360405160200161043a9190611380565b604051602081830303815290604052815f8151811061045c5761045b6113a1565b5b6020026020010181905250836040516020016104789190611418565b6040516020818303038152906040528160018151811061049b5761049a6113a1565b5b60200260200101819052506040518061010001604052808881526020018781526020018681526020018581526020018281526020016040518060400160405280600781526020017f70656e64696e670000000000000000000000000000000000000000000000000081525081526020015f8152602001600115158152505f808481526020019081526020015f205f820151815f01908161053b9190610fb5565b5060208201518160010190816105519190610fb5565b5060408201518160020190816105679190610fb5565b50606082015181600301908161057d9190610fb5565b50608082015181600401908051906020019061059a9291906106dd565b5060a08201518160050190816105b09190610fb5565b5060c0820151816006015560e0820151816007015f6101000a81548160ff021916908315150217905550905050600160025f8481526020019081526020015f205f6101000a81548160ff021916908315150217905550600182908060018154018082558091505060019003905f5260205f20015f90919091909150557fce30f66e6f64f7356dddc8155992ed0be062c00d5c543b668ee829db6e114e8c828260405161065d929190611439565b60405180910390a160405180606001604052806001151581526020018381526020018281525092505050949350505050565b60405180608001604052805f151581526020015f8019168152602001606081526020015f81525090565b60405180606001604052805f151581526020015f8019168152602001606081525090565b828054828255905f5260205f20908101928215610723579160200282015b828111156107225782518290816107129190610fb5565b50916020019190600101906106fb565b5b5090506107309190610734565b5090565b5b80821115610753575f818161074a9190610757565b50600101610735565b5090565b50805461076390610d36565b5f825580601f106107745750610791565b601f0160209004905f5260205f20908101906107909190610794565b5b50565b5b808211156107ab575f815f905550600101610795565b5090565b5f604051905090565b5f80fd5b5f80fd5b5f819050919050565b6107d2816107c0565b81146107dc575f80fd5b50565b5f813590506107ed816107c9565b92915050565b5f60208284031215610808576108076107b8565b5b5f610815848285016107df565b91505092915050565b5f8115159050919050565b6108328161081e565b82525050565b610841816107c0565b82525050565b5f81519050919050565b5f82825260208201905092915050565b5f5b8381101561087e578082015181840152602081019050610863565b5f8484015250505050565b5f601f19601f8301169050919050565b5f6108a382610847565b6108ad8185610851565b93506108bd818560208601610861565b6108c681610889565b840191505092915050565b5f819050919050565b6108e3816108d1565b82525050565b5f608083015f8301516108fe5f860182610829565b5060208301516109116020860182610838565b50604083015184820360408601526109298282610899565b915050606083015161093e60608601826108da565b508091505092915050565b5f6020820190508181035f83015261096181846108e9565b905092915050565b5f80fd5b5f80fd5b7f4e487b71000000000000000000000000000000000000000000000000000000005f52604160045260245ffd5b6109a782610889565b810181811067ffffffffffffffff821117156109c6576109c5610971565b5b80604052505050565b5f6109d86107af565b90506109e4828261099e565b919050565b5f67ffffffffffffffff821115610a0357610a02610971565b5b610a0c82610889565b9050602081019050919050565b828183375f83830152505050565b5f610a39610a34846109e9565b6109cf565b905082815260208101848484011115610a5557610a5461096d565b5b610a60848285610a19565b509392505050565b5f82601f830112610a7c57610a7b610969565b5b8135610a8c848260208601610a27565b91505092915050565b5f805f8060808587031215610aad57610aac6107b8565b5b5f85013567ffffffffffffffff811115610aca57610ac96107bc565b5b610ad687828801610a68565b945050602085013567ffffffffffffffff811115610af757610af66107bc565b5b610b0387828801610a68565b935050604085013567ffffffffffffffff811115610b2457610b236107bc565b5b610b3087828801610a68565b925050606085013567ffffffffffffffff811115610b5157610b506107bc565b5b610b5d87828801610a68565b91505092959194509250565b5f81519050919050565b5f82825260208201905092915050565b5f819050602082019050919050565b5f610b9d8383610899565b905092915050565b5f602082019050919050565b5f610bbb82610b69565b610bc58185610b73565b935083602082028501610bd785610b83565b805f5b85811015610c125784840389528151610bf38582610b92565b9450610bfe83610ba5565b925060208a01995050600181019050610bda565b50829750879550505050505092915050565b5f606083015f830151610c395f860182610829565b506020830151610c4c6020860182610838565b5060408301518482036040860152610c648282610bb1565b9150508091505092915050565b5f6020820190508181035f830152610c898184610c24565b905092915050565b5f82825260208201905092915050565b7f4d616e6966657374206e6f7420666f756e6400000000000000000000000000005f82015250565b5f610cd5601283610c91565b9150610ce082610ca1565b602082019050919050565b5f6020820190508181035f830152610d0281610cc9565b9050919050565b7f4e487b71000000000000000000000000000000000000000000000000000000005f52602260045260245ffd5b5f6002820490506001821680610d4d57607f821691505b602082108103610d6057610d5f610d09565b5b50919050565b5f81905092915050565b5f819050815f5260205f209050919050565b5f8154610d8e81610d36565b610d988186610d66565b9450600182165f8114610db25760018114610dc757610df9565b60ff1983168652811515820286019350610df9565b610dd085610d70565b5f5b83811015610df157815481890152600182019150602081019050610dd2565b838801955050505b50505092915050565b5f610e0d8284610d82565b915081905092915050565b5f819050815f5260205f209050919050565b5f6020601f8301049050919050565b5f82821b905092915050565b5f60088302610e747fffffffffffffffffffffffffffffffffffffffffffffffffffffffffffffffff82610e39565b610e7e8683610e39565b95508019841693508086168417925050509392505050565b5f819050919050565b5f610eb9610eb4610eaf846108d1565b610e96565b6108d1565b9050919050565b5f819050919050565b610ed283610e9f565b610ee6610ede82610ec0565b848454610e45565b825550505050565b5f90565b610efa610eee565b610f05818484610ec9565b505050565b5b81811015610f2857610f1d5f82610ef2565b600181019050610f0b565b5050565b601f821115610f6d57610f3e81610e18565b610f4784610e2a565b81016020851015610f56578190505b610f6a610f6285610e2a565b830182610f0a565b50505b505050565b5f82821c905092915050565b5f610f8d5f1984600802610f72565b1980831691505092915050565b5f610fa58383610f7e565b9150826002028217905092915050565b610fbe82610847565b67ffffffffffffffff811115610fd757610fd6610971565b5b610fe18254610d36565b610fec828285610f2c565b5f60209050601f83116001811461101d575f841561100b578287015190505b6110158582610f9a565b86555061107c565b601f19841661102b86610e18565b5f5b828110156110525784890151825560018201915060208501945060208101905061102d565b8683101561106f578489015161106b601f891682610f7e565b8355505b6001600288020188555050505b505050505050565b7f6f6b0000000000000000000000000000000000000000000000000000000000005f82015250565b5f6110b8600283610c91565b91506110c382611084565b602082019050919050565b6110d7816107c0565b82525050565b6110e6816108d1565b82525050565b5f82825260208201905092915050565b5f61110682610b69565b61111081856110ec565b93508360208202850161112285610b83565b805f5b8581101561115d578484038952815161113e8582610b92565b945061114983610ba5565b925060208a01995050600181019050611125565b50829750879550505050505092915050565b5f6080820190508181035f830152611186816110ac565b905061119560208301866110ce565b6111a260408301856110dd565b81810360608301526111b481846110fc565b9050949350505050565b7f506c616e206d757374206e6f7420626520656d707479000000000000000000005f82015250565b5f6111f2601683610c91565b91506111fd826111be565b602082019050919050565b5f6020820190508181035f83015261121f816111e6565b9050919050565b7f436f6e74726f6c6c6572206d757374206e6f7420626520656d707479000000005f82015250565b5f61125a601c83610c91565b915061126582611226565b602082019050919050565b5f6020820190508181035f8301526112878161124e565b9050919050565b5f81905092915050565b5f6112a282610847565b6112ac818561128e565b93506112bc818560208601610861565b80840191505092915050565b5f819050919050565b6112e26112dd826108d1565b6112c8565b82525050565b5f6112f38288611298565b91506112ff8287611298565b915061130b8286611298565b91506113178285611298565b915061132382846112d1565b6020820191508190509695505050505050565b7f2f6465706c6f796d656e742e79616d6c000000000000000000000000000000005f82015250565b5f61136a60108361128e565b915061137582611336565b601082019050919050565b5f61138b8284611298565b91506113968261135e565b915081905092915050565b7f4e487b71000000000000000000000000000000000000000000000000000000005f52603260045260245ffd5b7f2f736572766963652e79616d6c000000000000000000000000000000000000005f82015250565b5f611402600d8361128e565b915061140d826113ce565b600d82019050919050565b5f6114238284611298565b915061142e826113f6565b915081905092915050565b5f6060820190508181035f830152611450816110ac565b905061145f60208301856110ce565b818103604083015261147181846110fc565b9050939250505056fea2646970667358221220166c59d7160ae69820f832305e06b0077cea067d76e215e460076f97b09c09da64736f6c63430008140033","linkReferences":{}},"methodIdentifiers":{"emitManifest(string,string,string,string)":"b79b199b","reconciliationStatus(bytes32)":"4b8bd9e1"},"id":134}