{"abi":[{"type":"function","name":"addUsage","inputs":[{"name":"fileId","type":"bytes32","internalType":"bytes32"},{"name":"entityId","type":"bytes32","internalType":"bytes32"}],"outputs":[],"stateMutability":"nonpayable"},{"type":"function","name":"fileExists","inputs":[{"name":"fileId","type":"bytes32","internalType":"bytes32"}],"outputs":[{"name":"","type":"bool","internalType":"bool"}],"stateMutability":"view"},{"type":"function","name":"getFile","inputs":[{"name":"fileId","type":"bytes32","internalType":"bytes32"}],"outputs":[{"name":"","type":"tuple","internalType":"struct FileManagement.FileRecord","components":[{"name":"destination","type":"string","internalType":"string"},{"name":"metadata","type":"string","internalType":"string"},{"name":"uploadedAt","type":"uint256","internalType":"uint256"},{"name":"permanent","type":"bool","internalType":"bool"},{"name":"exists","type":"bool","internalType":"bool"}]}],"stateMutability":"view"},{"type":"function","name":"removeUsage","inputs":[{"name":"fileId","type":"bytes32","internalType":"bytes32"},{"name":"entityId","type":"bytes32","internalType":"bytes32"}],"outputs":[],"stateMutability":"nonpayable"},{"type":"function","name":"upload","inputs":[{"name":"fileId","type":"bytes32","internalType":"bytes32"},{"name":"destination","type":"string","internalType":"string"},{"name":"metadata","type":"string","internalType":"string"}],"outputs":[],"stateMutability":"nonpayable"},{"type":"function","name":"usageCount","inputs":[{"name":"fileId","type":"bytes32","internalType":"bytes32"}],"outputs":[{"name":"","type":"uint256","internalType":"uint256"}],"stateMutability":"view"},{"type":"event","name":"GarbageCollected","inputs":[{"name":"fileId","type":"bytes32","indexed":true,"internalType":"bytes32"}],"anonymous":false},{"type":"event","name":"Uploaded","inputs":[{"name":"fileId","type":"bytes32","indexed":true,"internalType":"bytes32"}],"anonymous":false},{"type":"event","name":"UsageAdded","inputs":[{"name":"fileId","type":"bytes32","indexed":true,"internalType":"bytes32"},{"name":"entityId","type":"bytes32","indexed":true,"internalType":"bytes32"}],"anonymous":false},{"type":"event","name":"UsageRemoved","inputs":[{"name":"fileId","type":"bytes32","indexed":true,"internalType":"bytes32"},{"name":"entityId","type":"bytes32","indexed":true,"internalType":"bytes32"}],"anonymous":false}],"bytecode":{"object":"0x608060405234801561000f575f80fd5b506114608061001d5f395ff3fe608060405234801561000f575f80fd5b5060043610610060575f3560e01c80630cec5f62146100645780632c1ce59514610094578063473aa2a5146100b057806376326807146100e0578063abed62cf14610110578063bd70e31f1461012c575b5f80fd5b61007e60048036038101906100799190610a4a565b610148565b60405161008b9190610a8f565b60405180910390f35b6100ae60048036038101906100a99190610b09565b610171565b005b6100ca60048036038101906100c59190610a4a565b6103c7565b6040516100d79190610cc5565b60405180910390f35b6100fa60048036038101906100f59190610a4a565b6105af565b6040516101079190610cf4565b60405180910390f35b61012a60048036038101906101259190610d0d565b6105cc565b005b61014660048036038101906101419190610d0d565b6107a7565b005b5f805f8381526020019081526020015f2060030160019054906101000a900460ff169050919050565b5f801b85036101b5576040517f08c379a00000000000000000000000000000000000000000000000000000000081526004016101ac90610da5565b60405180910390fd5b5f808681526020019081526020015f2060030160019054906101000a900460ff1615610216576040517f08c379a000000000000000000000000000000000000000000000000000000000815260040161020d90610e0d565b60405180910390fd5b5f848490501161025b576040517f08c379a000000000000000000000000000000000000000000000000000000000815260040161025290610e75565b60405180910390fd5b6040518060a0016040528085858080601f0160208091040260200160405190810160405280939291908181526020018383808284375f81840152601f19601f82011690508083019250505050505050815260200183838080601f0160208091040260200160405190810160405280939291908181526020018383808284375f81840152601f19601f8201169050808301925050505050505081526020014281526020015f15158152602001600115158152505f808781526020019081526020015f205f820151815f01908161033091906110ba565b50602082015181600101908161034691906110ba565b50604082015181600201556060820151816003015f6101000a81548160ff02191690831515021790555060808201518160030160016101000a81548160ff021916908315150217905550905050847f7080f73f708f979d6c13ada08bfdf2cfa06453010353fbe2603c483f118782d760405160405180910390a25050505050565b6103cf6109df565b5f808381526020019081526020015f2060030160019054906101000a900460ff1661042f576040517f08c379a0000000000000000000000000000000000000000000000000000000008152600401610426906111d3565b60405180910390fd5b5f808381526020019081526020015f206040518060a00160405290815f8201805461045990610eed565b80601f016020809104026020016040519081016040528092919081815260200182805461048590610eed565b80156104d05780601f106104a7576101008083540402835291602001916104d0565b820191905f5260205f20905b8154815290600101906020018083116104b357829003601f168201915b505050505081526020016001820180546104e990610eed565b80601f016020809104026020016040519081016040528092919081815260200182805461051590610eed565b80156105605780601f1061053757610100808354040283529160200191610560565b820191905f5260205f20905b81548152906001019060200180831161054357829003601f168201915b5050505050815260200160028201548152602001600382015f9054906101000a900460ff161515151581526020016003820160019054906101000a900460ff1615151515815250509050919050565b5f60015f8381526020019081526020015f20805490509050919050565b5f808381526020019081526020015f2060030160019054906101000a900460ff1661062c576040517f08c379a0000000000000000000000000000000000000000000000000000000008152600401610623906111d3565b60405180910390fd5b5f801b8103610670576040517f08c379a00000000000000000000000000000000000000000000000000000000081526004016106679061123b565b60405180910390fd5b60025f8381526020019081526020015f205f8281526020019081526020015f205f9054906101000a900460ff16156106dd576040517f08c379a00000000000000000000000000000000000000000000000000000000081526004016106d4906112a3565b60405180910390fd5b60015f8381526020019081526020015f2081908060018154018082558091505060019003905f5260205f20015f9091909190915055600160025f8481526020019081526020015f205f8381526020019081526020015f205f6101000a81548160ff02191690831515021790555060015f808481526020019081526020015f206003015f6101000a81548160ff02191690831515021790555080827f6f96e639d28cb425110945ae079b0e0c9109d34ddb677a518ec472d1a5e3816160405160405180910390a35050565b5f808381526020019081526020015f2060030160019054906101000a900460ff16610807576040517f08c379a00000000000000000000000000000000000000000000000000000000081526004016107fe906111d3565b60405180910390fd5b60025f8381526020019081526020015f205f8281526020019081526020015f205f9054906101000a900460ff16610873576040517f08c379a000000000000000000000000000000000000000000000000000000000815260040161086a9061130b565b60405180910390fd5b5f60025f8481526020019081526020015f205f8381526020019081526020015f205f6101000a81548160ff0219169083151502179055505f60015f8481526020019081526020015f2090505f5b818054905081101561097557828282815481106108e0576108df611329565b5b905f5260205f200154036109625781600183805490506109009190611383565b8154811061091157610910611329565b5b905f5260205f20015482828154811061092d5761092c611329565b5b905f5260205f2001819055508180548061094a576109496113b6565b5b600190038181905f5260205f20015f90559055610975565b808061096d906113e3565b9150506108c0565b505f8180549050036109ac575f805f8581526020019081526020015f206003015f6101000a81548160ff0219169083151502179055505b81837f3366f5180967021d7b980e08354f463ec474b5d5c4b7da5b04dbc2132835b5b560405160405180910390a3505050565b6040518060a0016040528060608152602001606081526020015f81526020015f151581526020015f151581525090565b5f80fd5b5f80fd5b5f819050919050565b610a2981610a17565b8114610a33575f80fd5b50565b5f81359050610a4481610a20565b92915050565b5f60208284031215610a5f57610a5e610a0f565b5b5f610a6c84828501610a36565b91505092915050565b5f8115159050919050565b610a8981610a75565b82525050565b5f602082019050610aa25f830184610a80565b92915050565b5f80fd5b5f80fd5b5f80fd5b5f8083601f840112610ac957610ac8610aa8565b5b8235905067ffffffffffffffff811115610ae657610ae5610aac565b5b602083019150836001820283011115610b0257610b01610ab0565b5b9250929050565b5f805f805f60608688031215610b2257610b21610a0f565b5b5f610b2f88828901610a36565b955050602086013567ffffffffffffffff811115610b5057610b4f610a13565b5b610b5c88828901610ab4565b9450945050604086013567ffffffffffffffff811115610b7f57610b7e610a13565b5b610b8b88828901610ab4565b92509250509295509295909350565b5f81519050919050565b5f82825260208201905092915050565b5f5b83811015610bd1578082015181840152602081019050610bb6565b5f8484015250505050565b5f601f19601f8301169050919050565b5f610bf682610b9a565b610c008185610ba4565b9350610c10818560208601610bb4565b610c1981610bdc565b840191505092915050565b5f819050919050565b610c3681610c24565b82525050565b610c4581610a75565b82525050565b5f60a083015f8301518482035f860152610c658282610bec565b91505060208301518482036020860152610c7f8282610bec565b9150506040830151610c946040860182610c2d565b506060830151610ca76060860182610c3c565b506080830151610cba6080860182610c3c565b508091505092915050565b5f6020820190508181035f830152610cdd8184610c4b565b905092915050565b610cee81610c24565b82525050565b5f602082019050610d075f830184610ce5565b92915050565b5f8060408385031215610d2357610d22610a0f565b5b5f610d3085828601610a36565b9250506020610d4185828601610a36565b9150509250929050565b5f82825260208201905092915050565b7f46696c652049442063616e6e6f74206265207a65726f000000000000000000005f82015250565b5f610d8f601683610d4b565b9150610d9a82610d5b565b602082019050919050565b5f6020820190508181035f830152610dbc81610d83565b9050919050565b7f46696c6520616c726561647920657869737473000000000000000000000000005f82015250565b5f610df7601383610d4b565b9150610e0282610dc3565b602082019050919050565b5f6020820190508181035f830152610e2481610deb565b9050919050565b7f44657374696e6174696f6e2063616e6e6f7420626520656d70747900000000005f82015250565b5f610e5f601b83610d4b565b9150610e6a82610e2b565b602082019050919050565b5f6020820190508181035f830152610e8c81610e53565b9050919050565b7f4e487b71000000000000000000000000000000000000000000000000000000005f52604160045260245ffd5b7f4e487b71000000000000000000000000000000000000000000000000000000005f52602260045260245ffd5b5f6002820490506001821680610f0457607f821691505b602082108103610f1757610f16610ec0565b5b50919050565b5f819050815f5260205f209050919050565b5f6020601f8301049050919050565b5f82821b905092915050565b5f60088302610f797fffffffffffffffffffffffffffffffffffffffffffffffffffffffffffffffff82610f3e565b610f838683610f3e565b95508019841693508086168417925050509392505050565b5f819050919050565b5f610fbe610fb9610fb484610c24565b610f9b565b610c24565b9050919050565b5f819050919050565b610fd783610fa4565b610feb610fe382610fc5565b848454610f4a565b825550505050565b5f90565b610fff610ff3565b61100a818484610fce565b505050565b5b8181101561102d576110225f82610ff7565b600181019050611010565b5050565b601f8211156110725761104381610f1d565b61104c84610f2f565b8101602085101561105b578190505b61106f61106785610f2f565b83018261100f565b50505b505050565b5f82821c905092915050565b5f6110925f1984600802611077565b1980831691505092915050565b5f6110aa8383611083565b9150826002028217905092915050565b6110c382610b9a565b67ffffffffffffffff8111156110dc576110db610e93565b5b6110e68254610eed565b6110f1828285611031565b5f60209050601f831160018114611122575f8415611110578287015190505b61111a858261109f565b865550611181565b601f19841661113086610f1d565b5f5b8281101561115757848901518255600182019150602085019450602081019050611132565b868310156111745784890151611170601f891682611083565b8355505b6001600288020188555050505b505050505050565b7f46696c65206e6f7420666f756e640000000000000000000000000000000000005f82015250565b5f6111bd600e83610d4b565b91506111c882611189565b602082019050919050565b5f6020820190508181035f8301526111ea816111b1565b9050919050565b7f456e746974792049442063616e6e6f74206265207a65726f00000000000000005f82015250565b5f611225601883610d4b565b9150611230826111f1565b602082019050919050565b5f6020820190508181035f83015261125281611219565b9050919050565b7f557361676520616c7265616479206578697374730000000000000000000000005f82015250565b5f61128d601483610d4b565b915061129882611259565b602082019050919050565b5f6020820190508181035f8301526112ba81611281565b9050919050565b7f5573616765206e6f7420666f756e6400000000000000000000000000000000005f82015250565b5f6112f5600f83610d4b565b9150611300826112c1565b602082019050919050565b5f6020820190508181035f830152611322816112e9565b9050919050565b7f4e487b71000000000000000000000000000000000000000000000000000000005f52603260045260245ffd5b7f4e487b71000000000000000000000000000000000000000000000000000000005f52601160045260245ffd5b5f61138d82610c24565b915061139883610c24565b92508282039050818111156113b0576113af611356565b5b92915050565b7f4e487b71000000000000000000000000000000000000000000000000000000005f52603160045260245ffd5b5f6113ed82610c24565b91507fffffffffffffffffffffffffffffffffffffffffffffffffffffffffffffffff820361141f5761141e611356565b5b60018201905091905056fea2646970667358221220f8f91c6889322eb05e726002b905f4b565adb66aa2eb948fcb50064ad79ff95264736f6c63430008140033","linkReferences":{}},"methodIdentifiers":{"addUsage(bytes32,bytes32)":"abed62cf","fileExists(bytes32)":"0cec5f62","getFile(bytes32)":"473aa2a5","removeUsage(bytes32,bytes32)":"bd70e31f","upload(bytes32,string,string)":"2c1ce595","usageCount(bytes32)":"76326807"},"id":121}