{"abi":[{"type":"function","name":"build","inputs":[{"name":"flowId","type":"string","internalType":"string"}],"outputs":[{"name":"result","type":"tuple","internalType":"struct FlowTrace.BuildOkResult","components":[{"name":"success","type":"bool","internalType":"bool"},{"name":"trace","type":"bytes32","internalType":"bytes32"},{"name":"tree","type":"bytes","internalType":"bytes"}]}],"stateMutability":"nonpayable"},{"type":"function","name":"end","inputs":[{"name":"traceId","type":"bytes32","internalType":"bytes32"}],"outputs":[],"stateMutability":"nonpayable"},{"type":"function","name":"get","inputs":[{"name":"traceId","type":"bytes32","internalType":"bytes32"}],"outputs":[{"name":"","type":"tuple","internalType":"struct FlowTrace.TraceEntry","components":[{"name":"flowId","type":"string","internalType":"string"},{"name":"tree","type":"bytes","internalType":"bytes"},{"name":"stepCount","type":"uint256","internalType":"uint256"},{"name":"startTimestamp","type":"uint256","internalType":"uint256"},{"name":"endTimestamp","type":"uint256","internalType":"uint256"},{"name":"completed","type":"bool","internalType":"bool"},{"name":"exists","type":"bool","internalType":"bool"}]}],"stateMutability":"view"},{"type":"function","name":"getStep","inputs":[{"name":"traceId","type":"bytes32","internalType":"bytes32"},{"name":"index","type":"uint256","internalType":"uint256"}],"outputs":[{"name":"","type":"tuple","internalType":"struct FlowTrace.Step","components":[{"name":"label","type":"string","internalType":"string"},{"name":"data","type":"bytes","internalType":"bytes"},{"name":"timestamp","type":"uint256","internalType":"uint256"},{"name":"exists","type":"bool","internalType":"bool"}]}],"stateMutability":"view"},{"type":"function","name":"render","inputs":[{"name":"traceId","type":"bytes32","internalType":"bytes32"},{"name":"options","type":"bytes","internalType":"bytes"}],"outputs":[{"name":"result","type":"tuple","internalType":"struct FlowTrace.RenderOkResult","components":[{"name":"success","type":"bool","internalType":"bool"},{"name":"output","type":"string","internalType":"string"}]}],"stateMutability":"nonpayable"},{"type":"function","name":"step","inputs":[{"name":"traceId","type":"bytes32","internalType":"bytes32"},{"name":"label","type":"string","internalType":"string"},{"name":"data","type":"bytes","internalType":"bytes"}],"outputs":[{"name":"stepIndex","type":"uint256","internalType":"uint256"}],"stateMutability":"nonpayable"},{"type":"function","name":"traceExists","inputs":[{"name":"traceId","type":"bytes32","internalType":"bytes32"}],"outputs":[{"name":"","type":"bool","internalType":"bool"}],"stateMutability":"view"},{"type":"event","name":"BuildCompleted","inputs":[{"name":"variant","type":"string","indexed":false,"internalType":"string"},{"name":"trace","type":"bytes32","indexed":false,"internalType":"bytes32"},{"name":"tree","type":"bytes","indexed":false,"internalType":"bytes"}],"anonymous":false},{"type":"event","name":"RenderCompleted","inputs":[{"name":"variant","type":"string","indexed":false,"internalType":"string"}],"anonymous":false},{"type":"event","name":"StepRecorded","inputs":[{"name":"trace","type":"bytes32","indexed":true,"internalType":"bytes32"},{"name":"stepIndex","type":"uint256","indexed":false,"internalType":"uint256"},{"name":"label","type":"string","indexed":false,"internalType":"string"}],"anonymous":false},{"type":"event","name":"TraceEnded","inputs":[{"name":"trace","type":"bytes32","indexed":true,"internalType":"bytes32"},{"name":"totalSteps","type":"uint256","indexed":false,"internalType":"uint256"}],"anonymous":false}],"bytecode":{"object":"0x608060405234801561000f575f80fd5b506122828061001d5f395ff3fe608060405234801561000f575f80fd5b506004361061007b575f3560e01c80638ef6e7fe116100595780638ef6e7fe146100fb57806395d5b5281461012b578063a2787bd01461015b578063a645d3711461018b5761007b565b806309567f381461007f5780637015913c146100af5780638eaa6ac0146100cb575b5f80fd5b61009960048036038101906100949190611030565b6101bb565b6040516100a69190611075565b60405180910390f35b6100c960048036038101906100c49190611030565b6101e4565b005b6100e560048036038101906100e09190611030565b610335565b6040516100f29190611231565b60405180910390f35b610115600480360381019061011091906112b2565b610531565b6040516101229190611359565b60405180910390f35b610145600480360381019061014091906113ce565b61078a565b604051610152919061146e565b60405180910390f35b610175600480360381019061017091906114b1565b610a65565b6040516101829190611556565b60405180910390f35b6101a560048036038101906101a09190611576565b610c52565b6040516101b2919061160d565b60405180910390f35b5f805f8381526020019081526020015f2060050160019054906101000a900460ff169050919050565b5f808281526020019081526020015f2060050160019054906101000a900460ff16610244576040517f08c379a000000000000000000000000000000000000000000000000000000000815260040161023b90611687565b60405180910390fd5b5f808281526020019081526020015f206005015f9054906101000a900460ff16156102a4576040517f08c379a000000000000000000000000000000000000000000000000000000000815260040161029b906116ef565b60405180910390fd5b60015f808381526020019081526020015f206005015f6101000a81548160ff021916908315150217905550425f808381526020019081526020015f2060040181905550807f5ac148515baa2939aef99cb59cd5b4885989b268ccb59c5ae934358b4ec8a0a75f808481526020019081526020015f206002015460405161032a919061146e565b60405180910390a250565b61033d610f52565b5f808381526020019081526020015f2060050160019054906101000a900460ff1661039d576040517f08c379a000000000000000000000000000000000000000000000000000000000815260040161039490611687565b60405180910390fd5b5f808381526020019081526020015f206040518060e00160405290815f820180546103c79061173a565b80601f01602080910402602001604051908101604052809291908181526020018280546103f39061173a565b801561043e5780601f106104155761010080835404028352916020019161043e565b820191905f5260205f20905b81548152906001019060200180831161042157829003601f168201915b505050505081526020016001820180546104579061173a565b80601f01602080910402602001604051908101604052809291908181526020018280546104839061173a565b80156104ce5780601f106104a5576101008083540402835291602001916104ce565b820191905f5260205f20905b8154815290600101906020018083116104b157829003601f168201915b50505050508152602001600282015481526020016003820154815260200160048201548152602001600582015f9054906101000a900460ff161515151581526020016005820160019054906101000a900460ff1615151515815250509050919050565b610539610f8e565b5f838390501161057e576040517f08c379a0000000000000000000000000000000000000000000000000000000008152600401610575906117b4565b60405180910390fd5b5f838342600354604051602001610598949392919061182e565b60405160208183030381529060405280519060200120905060035f8154809291906105c290611895565b91905055505f8484426040516020016105dd93929190611908565b60405160208183030381529060405290506040518060e0016040528086868080601f0160208091040260200160405190810160405280939291908181526020018383808284375f81840152601f19601f8201169050808301925050505050505081526020018281526020015f81526020014281526020015f81526020015f15158152602001600115158152505f808481526020019081526020015f205f820151815f01908161068c9190611b02565b5060208201518160010190816106a29190611c29565b5060408201518160020155606082015181600301556080820151816004015560a0820151816005015f6101000a81548160ff02191690831515021790555060c08201518160050160016101000a81548160ff021916908315150217905550905050600282908060018154018082558091505060019003905f5260205f20015f909190919091505560405180606001604052806001151581526020018381526020018281525092507f91345e514c92b950a57ee2b21a9af54f72fab4509e0a87bb0174a9ebcb72e7dd828260405161077a929190611d99565b60405180910390a1505092915050565b5f805f8781526020019081526020015f2060050160019054906101000a900460ff166107eb576040517f08c379a00000000000000000000000000000000000000000000000000000000081526004016107e290611687565b60405180910390fd5b5f808781526020019081526020015f206005015f9054906101000a900460ff161561084b576040517f08c379a0000000000000000000000000000000000000000000000000000000008152600401610842906116ef565b60405180910390fd5b5f808781526020019081526020015f20600201549050604051806080016040528086868080601f0160208091040260200160405190810160405280939291908181526020018383808284375f81840152601f19601f82011690508083019250505050505050815260200184848080601f0160208091040260200160405190810160405280939291908181526020018383808284375f81840152601f19601f8201169050808301925050505050505081526020014281526020016001151581525060015f8881526020019081526020015f205f8381526020019081526020015f205f820151815f01908161093e9190611b02565b5060208201518160010190816109549190611c29565b50604082015181600201556060820151816003015f6101000a81548160ff02191690831515021790555090505060018161098e9190611dda565b5f808881526020019081526020015f20600201819055505f808781526020019081526020015f205f015f808881526020019081526020015f20600301545f808981526020019081526020015f20600201546040516020016109f193929190611e8e565b6040516020818303038152906040525f808881526020019081526020015f206001019081610a1f9190611c29565b50857f13cc27dfb4994453428ef2a2203b201586ceca3febeabab31e352bc026521c09828787604051610a5493929190611eca565b60405180910390a295945050505050565b610a6d610fb2565b60015f8481526020019081526020015f205f8381526020019081526020015f206003015f9054906101000a900460ff16610adc576040517f08c379a0000000000000000000000000000000000000000000000000000000008152600401610ad390611f44565b60405180910390fd5b60015f8481526020019081526020015f205f8381526020019081526020015f206040518060800160405290815f82018054610b169061173a565b80601f0160208091040260200160405190810160405280929190818152602001828054610b429061173a565b8015610b8d5780601f10610b6457610100808354040283529160200191610b8d565b820191905f5260205f20905b815481529060010190602001808311610b7057829003601f168201915b50505050508152602001600182018054610ba69061173a565b80601f0160208091040260200160405190810160405280929190818152602001828054610bd29061173a565b8015610c1d5780601f10610bf457610100808354040283529160200191610c1d565b820191905f5260205f20905b815481529060010190602001808311610c0057829003601f168201915b5050505050815260200160028201548152602001600382015f9054906101000a900460ff161515151581525050905092915050565b610c5a610fda565b5f808581526020019081526020015f2060050160019054906101000a900460ff16610cba576040517f08c379a0000000000000000000000000000000000000000000000000000000008152600401610cb190611687565b60405180910390fd5b5f805f8681526020019081526020015f205f01610ce95f808881526020019081526020015f2060020154610df9565b5f808881526020019081526020015f206005015f9054906101000a900460ff16610d48576040518060400160405280600581526020017f66616c7365000000000000000000000000000000000000000000000000000000815250610d7f565b6040518060400160405280600481526020017f74727565000000000000000000000000000000000000000000000000000000008152505b604051602001610d91939291906120f0565b604051602081830303815290604052905060405180604001604052806001151581526020018281525091507ffabb89b27db015524cb9f88ed56778992b9045ee0c07415720148a6d5818901e604051610de990612141565b60405180910390a1509392505050565b60605f8203610e3f576040518060400160405280600181526020017f30000000000000000000000000000000000000000000000000000000000000008152509050610f4d565b5f8290505f5b5f8214610e6e578080610e5790611895565b915050600a82610e67919061218c565b9150610e45565b5f8167ffffffffffffffff811115610e8957610e88611938565b5b6040519080825280601f01601f191660200182016040528015610ebb5781602001600182028036833780820191505090505b5090505b5f8514610f4657600182610ed391906121bc565b9150600a85610ee291906121ef565b6030610eee9190611dda565b60f81b818381518110610f0457610f0361221f565b5b60200101907effffffffffffffffffffffffffffffffffffffffffffffffffffffffffffff191690815f1a905350600a85610f3f919061218c565b9450610ebf565b8093505050505b919050565b6040518060e0016040528060608152602001606081526020015f81526020015f81526020015f81526020015f151581526020015f151581525090565b60405180606001604052805f151581526020015f8019168152602001606081525090565b604051806080016040528060608152602001606081526020015f81526020015f151581525090565b60405180604001604052805f15158152602001606081525090565b5f80fd5b5f80fd5b5f819050919050565b61100f81610ffd565b8114611019575f80fd5b50565b5f8135905061102a81611006565b92915050565b5f6020828403121561104557611044610ff5565b5b5f6110528482850161101c565b91505092915050565b5f8115159050919050565b61106f8161105b565b82525050565b5f6020820190506110885f830184611066565b92915050565b5f81519050919050565b5f82825260208201905092915050565b5f5b838110156110c55780820151818401526020810190506110aa565b5f8484015250505050565b5f601f19601f8301169050919050565b5f6110ea8261108e565b6110f48185611098565b93506111048185602086016110a8565b61110d816110d0565b840191505092915050565b5f81519050919050565b5f82825260208201905092915050565b5f61113c82611118565b6111468185611122565b93506111568185602086016110a8565b61115f816110d0565b840191505092915050565b5f819050919050565b61117c8161116a565b82525050565b61118b8161105b565b82525050565b5f60e083015f8301518482035f8601526111ab82826110e0565b915050602083015184820360208601526111c58282611132565b91505060408301516111da6040860182611173565b5060608301516111ed6060860182611173565b5060808301516112006080860182611173565b5060a083015161121360a0860182611182565b5060c083015161122660c0860182611182565b508091505092915050565b5f6020820190508181035f8301526112498184611191565b905092915050565b5f80fd5b5f80fd5b5f80fd5b5f8083601f84011261127257611271611251565b5b8235905067ffffffffffffffff81111561128f5761128e611255565b5b6020830191508360018202830111156112ab576112aa611259565b5b9250929050565b5f80602083850312156112c8576112c7610ff5565b5b5f83013567ffffffffffffffff8111156112e5576112e4610ff9565b5b6112f18582860161125d565b92509250509250929050565b61130681610ffd565b82525050565b5f606083015f8301516113215f860182611182565b50602083015161133460208601826112fd565b506040830151848203604086015261134c8282611132565b9150508091505092915050565b5f6020820190508181035f830152611371818461130c565b905092915050565b5f8083601f84011261138e5761138d611251565b5b8235905067ffffffffffffffff8111156113ab576113aa611255565b5b6020830191508360018202830111156113c7576113c6611259565b5b9250929050565b5f805f805f606086880312156113e7576113e6610ff5565b5b5f6113f48882890161101c565b955050602086013567ffffffffffffffff81111561141557611414610ff9565b5b6114218882890161125d565b9450945050604086013567ffffffffffffffff81111561144457611443610ff9565b5b61145088828901611379565b92509250509295509295909350565b6114688161116a565b82525050565b5f6020820190506114815f83018461145f565b92915050565b6114908161116a565b811461149a575f80fd5b50565b5f813590506114ab81611487565b92915050565b5f80604083850312156114c7576114c6610ff5565b5b5f6114d48582860161101c565b92505060206114e58582860161149d565b9150509250929050565b5f608083015f8301518482035f86015261150982826110e0565b915050602083015184820360208601526115238282611132565b91505060408301516115386040860182611173565b50606083015161154b6060860182611182565b508091505092915050565b5f6020820190508181035f83015261156e81846114ef565b905092915050565b5f805f6040848603121561158d5761158c610ff5565b5b5f61159a8682870161101c565b935050602084013567ffffffffffffffff8111156115bb576115ba610ff9565b5b6115c786828701611379565b92509250509250925092565b5f604083015f8301516115e85f860182611182565b506020830151848203602086015261160082826110e0565b9150508091505092915050565b5f6020820190508181035f83015261162581846115d3565b905092915050565b5f82825260208201905092915050565b7f5472616365206e6f7420666f756e6400000000000000000000000000000000005f82015250565b5f611671600f8361162d565b915061167c8261163d565b602082019050919050565b5f6020820190508181035f83015261169e81611665565b9050919050565b7f547261636520616c726561647920636f6d706c657465640000000000000000005f82015250565b5f6116d960178361162d565b91506116e4826116a5565b602082019050919050565b5f6020820190508181035f830152611706816116cd565b9050919050565b7f4e487b71000000000000000000000000000000000000000000000000000000005f52602260045260245ffd5b5f600282049050600182168061175157607f821691505b6020821081036117645761176361170d565b5b50919050565b7f466c6f772049442063616e6e6f7420626520656d7074790000000000000000005f82015250565b5f61179e60178361162d565b91506117a98261176a565b602082019050919050565b5f6020820190508181035f8301526117cb81611792565b9050919050565b5f81905092915050565b828183375f83830152505050565b5f6117f583856117d2565b93506118028385846117dc565b82840190509392505050565b5f819050919050565b6118286118238261116a565b61180e565b82525050565b5f61183a8286886117ea565b91506118468285611817565b6020820191506118568284611817565b60208201915081905095945050505050565b7f4e487b71000000000000000000000000000000000000000000000000000000005f52601160045260245ffd5b5f61189f8261116a565b91507fffffffffffffffffffffffffffffffffffffffffffffffffffffffffffffffff82036118d1576118d0611868565b5b600182019050919050565b5f6118e7838561162d565b93506118f48385846117dc565b6118fd836110d0565b840190509392505050565b5f6040820190508181035f8301526119218185876118dc565b9050611930602083018461145f565b949350505050565b7f4e487b71000000000000000000000000000000000000000000000000000000005f52604160045260245ffd5b5f819050815f5260205f209050919050565b5f6020601f8301049050919050565b5f82821b905092915050565b5f600883026119c17fffffffffffffffffffffffffffffffffffffffffffffffffffffffffffffffff82611986565b6119cb8683611986565b95508019841693508086168417925050509392505050565b5f819050919050565b5f611a06611a016119fc8461116a565b6119e3565b61116a565b9050919050565b5f819050919050565b611a1f836119ec565b611a33611a2b82611a0d565b848454611992565b825550505050565b5f90565b611a47611a3b565b611a52818484611a16565b505050565b5b81811015611a7557611a6a5f82611a3f565b600181019050611a58565b5050565b601f821115611aba57611a8b81611965565b611a9484611977565b81016020851015611aa3578190505b611ab7611aaf85611977565b830182611a57565b50505b505050565b5f82821c905092915050565b5f611ada5f1984600802611abf565b1980831691505092915050565b5f611af28383611acb565b9150826002028217905092915050565b611b0b8261108e565b67ffffffffffffffff811115611b2457611b23611938565b5b611b2e825461173a565b611b39828285611a79565b5f60209050601f831160018114611b6a575f8415611b58578287015190505b611b628582611ae7565b865550611bc9565b601f198416611b7886611965565b5f5b82811015611b9f57848901518255600182019150602085019450602081019050611b7a565b86831015611bbc5784890151611bb8601f891682611acb565b8355505b6001600288020188555050505b505050505050565b5f819050815f5260205f209050919050565b601f821115611c2457611bf581611bd1565b611bfe84611977565b81016020851015611c0d578190505b611c21611c1985611977565b830182611a57565b50505b505050565b611c3282611118565b67ffffffffffffffff811115611c4b57611c4a611938565b5b611c55825461173a565b611c60828285611be3565b5f60209050601f831160018114611c91575f8415611c7f578287015190505b611c898582611ae7565b865550611cf0565b601f198416611c9f86611bd1565b5f5b82811015611cc657848901518255600182019150602085019450602081019050611ca1565b86831015611ce35784890151611cdf601f891682611acb565b8355505b6001600288020188555050505b505050505050565b7f6f6b0000000000000000000000000000000000000000000000000000000000005f82015250565b5f611d2c60028361162d565b9150611d3782611cf8565b602082019050919050565b611d4b81610ffd565b82525050565b5f82825260208201905092915050565b5f611d6b82611118565b611d758185611d51565b9350611d858185602086016110a8565b611d8e816110d0565b840191505092915050565b5f6060820190508181035f830152611db081611d20565b9050611dbf6020830185611d42565b8181036040830152611dd18184611d61565b90509392505050565b5f611de48261116a565b9150611def8361116a565b9250828201905080821115611e0757611e06611868565b5b92915050565b5f8154611e198161173a565b611e23818661162d565b9450600182165f8114611e3d5760018114611e5357611e85565b60ff198316865281151560200286019350611e85565b611e5c85611965565b5f5b83811015611e7d57815481890152600182019150602081019050611e5e565b808801955050505b50505092915050565b5f6060820190508181035f830152611ea68186611e0d565b9050611eb5602083018561145f565b611ec2604083018461145f565b949350505050565b5f604082019050611edd5f83018661145f565b8181036020830152611ef08184866118dc565b9050949350505050565b7f53746570206e6f7420666f756e640000000000000000000000000000000000005f82015250565b5f611f2e600e8361162d565b9150611f3982611efa565b602082019050919050565b5f6020820190508181035f830152611f5b81611f22565b9050919050565b7f54726163653a20000000000000000000000000000000000000000000000000005f82015250565b5f611f966007836117d2565b9150611fa182611f62565b600782019050919050565b5f8154611fb88161173a565b611fc281866117d2565b9450600182165f8114611fdc5760018114611ff157612023565b60ff1983168652811515820286019350612023565b611ffa85611965565b5f5b8381101561201b57815481890152600182019150602081019050611ffc565b838801955050505b50505092915050565b7f207c2053746570733a20000000000000000000000000000000000000000000005f82015250565b5f612060600a836117d2565b915061206b8261202c565b600a82019050919050565b5f6120808261108e565b61208a81856117d2565b935061209a8185602086016110a8565b80840191505092915050565b7f207c20436f6d706c657465643a200000000000000000000000000000000000005f82015250565b5f6120da600e836117d2565b91506120e5826120a6565b600e82019050919050565b5f6120fa82611f8a565b91506121068286611fac565b915061211182612054565b915061211d8285612076565b9150612128826120ce565b91506121348284612076565b9150819050949350505050565b5f6020820190508181035f83015261215881611d20565b9050919050565b7f4e487b71000000000000000000000000000000000000000000000000000000005f52601260045260245ffd5b5f6121968261116a565b91506121a18361116a565b9250826121b1576121b061215f565b5b828204905092915050565b5f6121c68261116a565b91506121d18361116a565b92508282039050818111156121e9576121e8611868565b5b92915050565b5f6121f98261116a565b91506122048361116a565b9250826122145761221361215f565b5b828206905092915050565b7f4e487b71000000000000000000000000000000000000000000000000000000005f52603260045260245ffdfea26469706673582212208f640a2d49bf41b75bf92e277b375f94f9ce4c1c1338fef7441048a752c335df64736f6c63430008140033","linkReferences":{}},"methodIdentifiers":{"build(string)":"8ef6e7fe","end(bytes32)":"7015913c","get(bytes32)":"8eaa6ac0","getStep(bytes32,uint256)":"a2787bd0","render(bytes32,bytes)":"a645d371","step(bytes32,string,bytes)":"95d5b528","traceExists(bytes32)":"09567f38"},"id":123}