{"abi":[{"type":"function","name":"activeHoldCount","inputs":[],"outputs":[{"name":"","type":"uint256","internalType":"uint256"}],"stateMutability":"view"},{"type":"function","name":"applyHold","inputs":[{"name":"name","type":"string","internalType":"string"},{"name":"scope","type":"string","internalType":"string"},{"name":"reason","type":"string","internalType":"string"},{"name":"issuer","type":"bytes32","internalType":"bytes32"}],"outputs":[{"name":"holdId","type":"bytes32","internalType":"bytes32"}],"stateMutability":"nonpayable"},{"type":"function","name":"checkDisposition","inputs":[{"name":"record","type":"bytes32","internalType":"bytes32"}],"outputs":[{"name":"status","type":"uint256","internalType":"uint256"}],"stateMutability":"view"},{"type":"function","name":"dispose","inputs":[{"name":"record","type":"bytes32","internalType":"bytes32"},{"name":"disposedBy","type":"bytes32","internalType":"bytes32"}],"outputs":[],"stateMutability":"nonpayable"},{"type":"function","name":"getHold","inputs":[{"name":"holdId","type":"bytes32","internalType":"bytes32"}],"outputs":[{"name":"","type":"tuple","internalType":"struct RetentionPolicy.Hold","components":[{"name":"name","type":"string","internalType":"string"},{"name":"scope","type":"string","internalType":"string"},{"name":"reason","type":"string","internalType":"string"},{"name":"issuer","type":"bytes32","internalType":"bytes32"},{"name":"issued","type":"uint256","internalType":"uint256"},{"name":"released","type":"bool","internalType":"bool"},{"name":"exists","type":"bool","internalType":"bool"}]}],"stateMutability":"view"},{"type":"function","name":"getPolicy","inputs":[{"name":"policyId","type":"bytes32","internalType":"bytes32"}],"outputs":[{"name":"","type":"tuple","internalType":"struct RetentionPolicy.Policy","components":[{"name":"recordType","type":"string","internalType":"string"},{"name":"period","type":"uint256","internalType":"uint256"},{"name":"unit","type":"string","internalType":"string"},{"name":"dispositionAction","type":"string","internalType":"string"},{"name":"exists","type":"bool","internalType":"bool"}]}],"stateMutability":"view"},{"type":"function","name":"releaseHold","inputs":[{"name":"holdId","type":"bytes32","internalType":"bytes32"},{"name":"releasedBy","type":"bytes32","internalType":"bytes32"},{"name":"reason","type":"string","internalType":"string"}],"outputs":[],"stateMutability":"nonpayable"},{"type":"function","name":"setRetention","inputs":[{"name":"recordType","type":"string","internalType":"string"},{"name":"period","type":"uint256","internalType":"uint256"},{"name":"unit","type":"string","internalType":"string"},{"name":"dispositionAction","type":"string","internalType":"string"}],"outputs":[{"name":"policyId","type":"bytes32","internalType":"bytes32"}],"stateMutability":"nonpayable"},{"type":"event","name":"HoldApplied","inputs":[{"name":"holdId","type":"bytes32","indexed":true,"internalType":"bytes32"},{"name":"name","type":"string","indexed":false,"internalType":"string"},{"name":"issuer","type":"bytes32","indexed":true,"internalType":"bytes32"}],"anonymous":false},{"type":"event","name":"HoldReleased","inputs":[{"name":"holdId","type":"bytes32","indexed":true,"internalType":"bytes32"},{"name":"releasedBy","type":"bytes32","indexed":true,"internalType":"bytes32"}],"anonymous":false},{"type":"event","name":"RecordDisposed","inputs":[{"name":"record","type":"bytes32","indexed":true,"internalType":"bytes32"},{"name":"disposedBy","type":"bytes32","indexed":true,"internalType":"bytes32"}],"anonymous":false},{"type":"event","name":"RetentionSet","inputs":[{"name":"policyId","type":"bytes32","indexed":true,"internalType":"bytes32"},{"name":"recordType","type":"string","indexed":false,"internalType":"string"}],"anonymous":false}],"bytecode":{"object":"0x608060405234801561000f575f80fd5b50611adb8061001d5f395ff3fe608060405234801561000f575f80fd5b5060043610610086575f3560e01c80638c5a1293116100595780638c5a129314610124578063a3f685f914610140578063e30e6ba314610170578063f06ace13146101a057610086565b806318c076481461008a57806326b99c35146100a85780632f00bf67146100d85780636b5b10f6146100f4575b5f80fd5b6100926101d0565b60405161009f9190610e48565b60405180910390f35b6100c260048036038101906100bd9190610e9c565b6101dc565b6040516100cf9190610e48565b60405180910390f35b6100f260048036038101906100ed9190610ec7565b6101fc565b005b61010e60048036038101906101099190610f90565b610275565b60405161011b9190611063565b60405180910390f35b61013e6004803603810190610139919061107c565b6104c1565b005b61015a60048036038101906101559190610e9c565b610686565b6040516101679190611221565b60405180910390f35b61018a60048036038101906101859190611241565b6108e2565b6040516101979190611063565b60405180910390f35b6101ba60048036038101906101b59190610e9c565b610b3d565b6040516101c791906113bb565b60405180910390f35b5f600380549050905090565b5f8060038054905011156101f357600290506101f7565b5f90505b919050565b5f60038054905014610243576040517f08c379a000000000000000000000000000000000000000000000000000000000815260040161023a90611435565b60405180910390fd5b80827fd4afbba7aab861ebdc9fed6bd50c636498b8971e4c05028bf323094da602a4b960405160405180910390a35050565b5f878760045f81548092919061028a90611480565b919050556040516020016102a093929190611523565b6040516020818303038152906040528051906020012090506040518060a0016040528089898080601f0160208091040260200160405190810160405280939291908181526020018383808284375f81840152601f19601f82011690508083019250505050505050815260200187815260200186868080601f0160208091040260200160405190810160405280939291908181526020018383808284375f81840152601f19601f82011690508083019250505050505050815260200184848080601f0160208091040260200160405190810160405280939291908181526020018383808284375f81840152601f19601f820116905080830192505050505050508152602001600115158152505f808381526020019081526020015f205f820151815f0190816103ce9190611773565b506020820151816001015560408201518160020190816103ee9190611773565b5060608201518160030190816104049190611773565b506080820151816004015f6101000a81548160ff0219169083151502179055509050505f888860405160200161043b929190611842565b6040516020818303038152906040528051906020012090506001805f8381526020019081526020015f205f6101000a81548160ff021916908315150217905550817f65b182b8e63cfe45628f523f77998977c55bc72391033d371dca75cc49c21ec78a8a6040516104ad929190611886565b60405180910390a250979650505050505050565b5f60025f8681526020019081526020015f2090508060050160019054906101000a900460ff16610526576040517f08c379a000000000000000000000000000000000000000000000000000000000815260040161051d906118f2565b60405180910390fd5b806005015f9054906101000a900460ff1615610577576040517f08c379a000000000000000000000000000000000000000000000000000000000815260040161056e9061195a565b60405180910390fd5b6001816005015f6101000a81548160ff0219169083151502179055505f5b6003805490508110156106505785600382815481106105b7576105b6611978565b5b905f5260205f2001540361063d57600360016003805490506105d991906119a5565b815481106105ea576105e9611978565b5b905f5260205f2001546003828154811061060757610606611978565b5b905f5260205f2001819055506003805480610625576106246119d8565b5b600190038181905f5260205f20015f90559055610650565b808061064890611480565b915050610595565b5083857f4837208655e54078c13ddefca57e55c24336a1f7d48034dd422657e5d3f5e47860405160405180910390a35050505050565b61068e610dc1565b5f808381526020019081526020015f206004015f9054906101000a900460ff166106ed576040517f08c379a00000000000000000000000000000000000000000000000000000000081526004016106e490611a4f565b60405180910390fd5b5f808381526020019081526020015f206040518060a00160405290815f82018054610717906115a6565b80601f0160208091040260200160405190810160405280929190818152602001828054610743906115a6565b801561078e5780601f106107655761010080835404028352916020019161078e565b820191905f5260205f20905b81548152906001019060200180831161077157829003601f168201915b50505050508152602001600182015481526020016002820180546107b1906115a6565b80601f01602080910402602001604051908101604052809291908181526020018280546107dd906115a6565b80156108285780601f106107ff57610100808354040283529160200191610828565b820191905f5260205f20905b81548152906001019060200180831161080b57829003601f168201915b50505050508152602001600382018054610841906115a6565b80601f016020809104026020016040519081016040528092919081815260200182805461086d906115a6565b80156108b85780601f1061088f576101008083540402835291602001916108b8565b820191905f5260205f20905b81548152906001019060200180831161089b57829003601f168201915b50505050508152602001600482015f9054906101000a900460ff1615151515815250509050919050565b5f8787878760055f8154809291906108f990611480565b91905055604051602001610911959493929190611a6d565b6040516020818303038152906040528051906020012090506040518060e0016040528089898080601f0160208091040260200160405190810160405280939291908181526020018383808284375f81840152601f19601f82011690508083019250505050505050815260200187878080601f0160208091040260200160405190810160405280939291908181526020018383808284375f81840152601f19601f82011690508083019250505050505050815260200185858080601f0160208091040260200160405190810160405280939291908181526020018383808284375f81840152601f19601f8201169050808301925050505050505081526020018381526020014281526020015f151581526020016001151581525060025f8381526020019081526020015f205f820151815f019081610a4e9190611773565b506020820151816001019081610a649190611773565b506040820151816002019081610a7a9190611773565b50606082015181600301556080820151816004015560a0820151816005015f6101000a81548160ff02191690831515021790555060c08201518160050160016101000a81548160ff021916908315150217905550905050600381908060018154018082558091505060019003905f5260205f20015f909190919091505581817f6f1218c2e99554243ebd5ef0578854cc43ae4d7b4d9b09d230b2adac94bca3e58a8a604051610b2a929190611886565b60405180910390a3979650505050505050565b610b45610df0565b60025f8381526020019081526020015f2060050160019054906101000a900460ff16610ba6576040517f08c379a0000000000000000000000000000000000000000000000000000000008152600401610b9d906118f2565b60405180910390fd5b60025f8381526020019081526020015f206040518060e00160405290815f82018054610bd1906115a6565b80601f0160208091040260200160405190810160405280929190818152602001828054610bfd906115a6565b8015610c485780601f10610c1f57610100808354040283529160200191610c48565b820191905f5260205f20905b815481529060010190602001808311610c2b57829003601f168201915b50505050508152602001600182018054610c61906115a6565b80601f0160208091040260200160405190810160405280929190818152602001828054610c8d906115a6565b8015610cd85780601f10610caf57610100808354040283529160200191610cd8565b820191905f5260205f20905b815481529060010190602001808311610cbb57829003601f168201915b50505050508152602001600282018054610cf1906115a6565b80601f0160208091040260200160405190810160405280929190818152602001828054610d1d906115a6565b8015610d685780601f10610d3f57610100808354040283529160200191610d68565b820191905f5260205f20905b815481529060010190602001808311610d4b57829003601f168201915b505050505081526020016003820154815260200160048201548152602001600582015f9054906101000a900460ff161515151581526020016005820160019054906101000a900460ff1615151515815250509050919050565b6040518060a00160405280606081526020015f815260200160608152602001606081526020015f151581525090565b6040518060e001604052806060815260200160608152602001606081526020015f80191681526020015f81526020015f151581526020015f151581525090565b5f819050919050565b610e4281610e30565b82525050565b5f602082019050610e5b5f830184610e39565b92915050565b5f80fd5b5f80fd5b5f819050919050565b610e7b81610e69565b8114610e85575f80fd5b50565b5f81359050610e9681610e72565b92915050565b5f60208284031215610eb157610eb0610e61565b5b5f610ebe84828501610e88565b91505092915050565b5f8060408385031215610edd57610edc610e61565b5b5f610eea85828601610e88565b9250506020610efb85828601610e88565b9150509250929050565b5f80fd5b5f80fd5b5f80fd5b5f8083601f840112610f2657610f25610f05565b5b8235905067ffffffffffffffff811115610f4357610f42610f09565b5b602083019150836001820283011115610f5f57610f5e610f0d565b5b9250929050565b610f6f81610e30565b8114610f79575f80fd5b50565b5f81359050610f8a81610f66565b92915050565b5f805f805f805f6080888a031215610fab57610faa610e61565b5b5f88013567ffffffffffffffff811115610fc857610fc7610e65565b5b610fd48a828b01610f11565b97509750506020610fe78a828b01610f7c565b955050604088013567ffffffffffffffff81111561100857611007610e65565b5b6110148a828b01610f11565b9450945050606088013567ffffffffffffffff81111561103757611036610e65565b5b6110438a828b01610f11565b925092505092959891949750929550565b61105d81610e69565b82525050565b5f6020820190506110765f830184611054565b92915050565b5f805f806060858703121561109457611093610e61565b5b5f6110a187828801610e88565b94505060206110b287828801610e88565b935050604085013567ffffffffffffffff8111156110d3576110d2610e65565b5b6110df87828801610f11565b925092505092959194509250565b5f81519050919050565b5f82825260208201905092915050565b5f5b83811015611124578082015181840152602081019050611109565b5f8484015250505050565b5f601f19601f8301169050919050565b5f611149826110ed565b61115381856110f7565b9350611163818560208601611107565b61116c8161112f565b840191505092915050565b61118081610e30565b82525050565b5f8115159050919050565b61119a81611186565b82525050565b5f60a083015f8301518482035f8601526111ba828261113f565b91505060208301516111cf6020860182611177565b50604083015184820360408601526111e7828261113f565b91505060608301518482036060860152611201828261113f565b91505060808301516112166080860182611191565b508091505092915050565b5f6020820190508181035f83015261123981846111a0565b905092915050565b5f805f805f805f6080888a03121561125c5761125b610e61565b5b5f88013567ffffffffffffffff81111561127957611278610e65565b5b6112858a828b01610f11565b9750975050602088013567ffffffffffffffff8111156112a8576112a7610e65565b5b6112b48a828b01610f11565b9550955050604088013567ffffffffffffffff8111156112d7576112d6610e65565b5b6112e38a828b01610f11565b935093505060606112f68a828b01610e88565b91505092959891949750929550565b61130e81610e69565b82525050565b5f60e083015f8301518482035f86015261132e828261113f565b91505060208301518482036020860152611348828261113f565b91505060408301518482036040860152611362828261113f565b91505060608301516113776060860182611305565b50608083015161138a6080860182611177565b5060a083015161139d60a0860182611191565b5060c08301516113b060c0860182611191565b508091505092915050565b5f6020820190508181035f8301526113d38184611314565b905092915050565b5f82825260208201905092915050565b7f5265636f726420697320756e6465722061637469766520686f6c6400000000005f82015250565b5f61141f601b836113db565b915061142a826113eb565b602082019050919050565b5f6020820190508181035f83015261144c81611413565b9050919050565b7f4e487b71000000000000000000000000000000000000000000000000000000005f52601160045260245ffd5b5f61148a82610e30565b91507fffffffffffffffffffffffffffffffffffffffffffffffffffffffffffffffff82036114bc576114bb611453565b5b600182019050919050565b5f81905092915050565b828183375f83830152505050565b5f6114ea83856114c7565b93506114f78385846114d1565b82840190509392505050565b5f819050919050565b61151d61151882610e30565b611503565b82525050565b5f61152f8285876114df565b915061153b828461150c565b602082019150819050949350505050565b7f4e487b71000000000000000000000000000000000000000000000000000000005f52604160045260245ffd5b7f4e487b71000000000000000000000000000000000000000000000000000000005f52602260045260245ffd5b5f60028204905060018216806115bd57607f821691505b6020821081036115d0576115cf611579565b5b50919050565b5f819050815f5260205f209050919050565b5f6020601f8301049050919050565b5f82821b905092915050565b5f600883026116327fffffffffffffffffffffffffffffffffffffffffffffffffffffffffffffffff826115f7565b61163c86836115f7565b95508019841693508086168417925050509392505050565b5f819050919050565b5f61167761167261166d84610e30565b611654565b610e30565b9050919050565b5f819050919050565b6116908361165d565b6116a461169c8261167e565b848454611603565b825550505050565b5f90565b6116b86116ac565b6116c3818484611687565b505050565b5b818110156116e6576116db5f826116b0565b6001810190506116c9565b5050565b601f82111561172b576116fc816115d6565b611705846115e8565b81016020851015611714578190505b611728611720856115e8565b8301826116c8565b50505b505050565b5f82821c905092915050565b5f61174b5f1984600802611730565b1980831691505092915050565b5f611763838361173c565b9150826002028217905092915050565b61177c826110ed565b67ffffffffffffffff8111156117955761179461154c565b5b61179f82546115a6565b6117aa8282856116ea565b5f60209050601f8311600181146117db575f84156117c9578287015190505b6117d38582611758565b86555061183a565b601f1984166117e9866115d6565b5f5b82811015611810578489015182556001820191506020850194506020810190506117eb565b8683101561182d5784890151611829601f89168261173c565b8355505b6001600288020188555050505b505050505050565b5f61184e8284866114df565b91508190509392505050565b5f61186583856113db565b93506118728385846114d1565b61187b8361112f565b840190509392505050565b5f6020820190508181035f83015261189f81848661185a565b90509392505050565b7f486f6c64206e6f7420666f756e640000000000000000000000000000000000005f82015250565b5f6118dc600e836113db565b91506118e7826118a8565b602082019050919050565b5f6020820190508181035f830152611909816118d0565b9050919050565b7f486f6c6420616c72656164792072656c656173656400000000000000000000005f82015250565b5f6119446015836113db565b915061194f82611910565b602082019050919050565b5f6020820190508181035f83015261197181611938565b9050919050565b7f4e487b71000000000000000000000000000000000000000000000000000000005f52603260045260245ffd5b5f6119af82610e30565b91506119ba83610e30565b92508282039050818111156119d2576119d1611453565b5b92915050565b7f4e487b71000000000000000000000000000000000000000000000000000000005f52603160045260245ffd5b7f506f6c696379206e6f7420666f756e64000000000000000000000000000000005f82015250565b5f611a396010836113db565b9150611a4482611a05565b602082019050919050565b5f6020820190508181035f830152611a6681611a2d565b9050919050565b5f611a798287896114df565b9150611a868285876114df565b9150611a92828461150c565b602082019150819050969550505050505056fea26469706673582212209523ba34617aab3b2370877e13842c9dc5b2fd4403881e6ade29e0b3e9ed8d0664736f6c63430008140033","linkReferences":{}},"methodIdentifiers":{"activeHoldCount()":"18c07648","applyHold(string,string,string,bytes32)":"e30e6ba3","checkDisposition(bytes32)":"26b99c35","dispose(bytes32,bytes32)":"2f00bf67","getHold(bytes32)":"f06ace13","getPolicy(bytes32)":"a3f685f9","releaseHold(bytes32,bytes32,string)":"8c5a1293","setRetention(string,uint256,string,string)":"6b5b10f6"},"id":221}