{"abi":[{"type":"function","name":"defineLevel","inputs":[{"name":"elevation","type":"bytes32","internalType":"bytes32"},{"name":"level","type":"int256","internalType":"int256"},{"name":"shadow","type":"string","internalType":"string"}],"outputs":[{"name":"","type":"tuple","internalType":"struct Elevation.DefineOkResult","components":[{"name":"success","type":"bool","internalType":"bool"},{"name":"elevation","type":"bytes32","internalType":"bytes32"}]}],"stateMutability":"nonpayable"},{"type":"function","name":"generateScale","inputs":[{"name":"baseColor","type":"string","internalType":"string"}],"outputs":[{"name":"","type":"tuple","internalType":"struct Elevation.GenerateScaleOkResult","components":[{"name":"success","type":"bool","internalType":"bool"},{"name":"shadows","type":"string","internalType":"string"}]}],"stateMutability":"nonpayable"},{"type":"function","name":"get","inputs":[{"name":"elevation","type":"bytes32","internalType":"bytes32"}],"outputs":[{"name":"","type":"tuple","internalType":"struct Elevation.GetOkResult","components":[{"name":"success","type":"bool","internalType":"bool"},{"name":"elevation","type":"bytes32","internalType":"bytes32"},{"name":"shadow","type":"string","internalType":"string"}]}],"stateMutability":"nonpayable"},{"type":"event","name":"DefineCompleted","inputs":[{"name":"variant","type":"string","indexed":false,"internalType":"string"},{"name":"elevation","type":"bytes32","indexed":true,"internalType":"bytes32"}],"anonymous":false},{"type":"event","name":"GenerateScaleCompleted","inputs":[{"name":"variant","type":"string","indexed":false,"internalType":"string"}],"anonymous":false},{"type":"event","name":"GetCompleted","inputs":[{"name":"variant","type":"string","indexed":false,"internalType":"string"},{"name":"elevation","type":"bytes32","indexed":true,"internalType":"bytes32"}],"anonymous":false}],"bytecode":{"object":"0x608060405234801561000f575f80fd5b506111938061001d5f395ff3fe608060405234801561000f575f80fd5b506004361061003f575f3560e01c8063097f2053146100435780638eaa6ac01461007357806397c56550146100a3575b5f80fd5b61005d600480360381019061005891906106fb565b6100d3565b60405161006a91906107bd565b60405180910390f35b61008d600480360381019061008891906107d6565b6102c8565b60405161009a91906108c8565b60405180910390f35b6100bd60048036038101906100b891906108e8565b610421565b6040516100ca9190610969565b60405180910390f35b6100db6104ec565b60015f8581526020019081526020015f205f9054906101000a900460ff1615610139576040517f08c379a0000000000000000000000000000000000000000000000000000000008152600401610130906109e3565b60405180910390fd5b5f831215801561014a575060058313155b610189576040517f08c379a000000000000000000000000000000000000000000000000000000000815260040161018090610a4b565b60405180910390fd5b60028251116101cd576040517f08c379a00000000000000000000000000000000000000000000000000000000081526004016101c490610ab3565b60405180910390fd5b6040518060600160405280848152602001838152602001428152505f808681526020019081526020015f205f820151815f015560208201518160010190816102159190610cd4565b50604082015181600201559050506001805f8681526020019081526020015f205f6101000a81548160ff021916908315150217905550600284908060018154018082558091505060019003905f5260205f20015f9091909190915055837f0aee5310641eaf2eaf388fe3fda83de498f247bde5dd3f7477b273447e8b162960405161029f90610ded565b60405180910390a260405180604001604052806001151581526020018581525090509392505050565b6102d0610509565b60015f8381526020019081526020015f205f9054906101000a900460ff1661032d576040517f08c379a000000000000000000000000000000000000000000000000000000000815260040161032490610e55565b60405180910390fd5b817fd45fe45dbfb310b00d5db432aa35f96282e16a8bb204b349e334de2cd5566f3460405161035b90610ded565b60405180910390a260405180606001604052806001151581526020018381526020015f808581526020019081526020015f20600101805461039b90610afe565b80601f01602080910402602001604051908101604052809291908181526020018280546103c790610afe565b80156104125780601f106103e957610100808354040283529160200191610412565b820191905f5260205f20905b8154815290600101906020018083116103f557829003601f168201915b50505050508152509050919050565b61042961052d565b5f82511161046c576040517f08c379a000000000000000000000000000000000000000000000000000000000815260040161046390610ebd565b60405180910390fd5b5f82838485866040516020016104869594939291906110d1565b60405160208183030381529060405290507f4ce100cda31d6277e0afc56211bcdbc06445c2ce275a920a4020d49f865f6b136040516104c490610ded565b60405180910390a1604051806040016040528060011515815260200182815250915050919050565b60405180604001604052805f151581526020015f80191681525090565b60405180606001604052805f151581526020015f8019168152602001606081525090565b60405180604001604052805f15158152602001606081525090565b5f604051905090565b5f80fd5b5f80fd5b5f819050919050565b61056b81610559565b8114610575575f80fd5b50565b5f8135905061058681610562565b92915050565b5f819050919050565b61059e8161058c565b81146105a8575f80fd5b50565b5f813590506105b981610595565b92915050565b5f80fd5b5f80fd5b5f601f19601f8301169050919050565b7f4e487b71000000000000000000000000000000000000000000000000000000005f52604160045260245ffd5b61060d826105c7565b810181811067ffffffffffffffff8211171561062c5761062b6105d7565b5b80604052505050565b5f61063e610548565b905061064a8282610604565b919050565b5f67ffffffffffffffff821115610669576106686105d7565b5b610672826105c7565b9050602081019050919050565b828183375f83830152505050565b5f61069f61069a8461064f565b610635565b9050828152602081018484840111156106bb576106ba6105c3565b5b6106c684828561067f565b509392505050565b5f82601f8301126106e2576106e16105bf565b5b81356106f284826020860161068d565b91505092915050565b5f805f6060848603121561071257610711610551565b5b5f61071f86828701610578565b9350506020610730868287016105ab565b925050604084013567ffffffffffffffff81111561075157610750610555565b5b61075d868287016106ce565b9150509250925092565b5f8115159050919050565b61077b81610767565b82525050565b61078a81610559565b82525050565b604082015f8201516107a45f850182610772565b5060208201516107b76020850182610781565b50505050565b5f6040820190506107d05f830184610790565b92915050565b5f602082840312156107eb576107ea610551565b5b5f6107f884828501610578565b91505092915050565b5f81519050919050565b5f82825260208201905092915050565b5f5b8381101561083857808201518184015260208101905061081d565b5f8484015250505050565b5f61084d82610801565b610857818561080b565b935061086781856020860161081b565b610870816105c7565b840191505092915050565b5f606083015f8301516108905f860182610772565b5060208301516108a36020860182610781565b50604083015184820360408601526108bb8282610843565b9150508091505092915050565b5f6020820190508181035f8301526108e0818461087b565b905092915050565b5f602082840312156108fd576108fc610551565b5b5f82013567ffffffffffffffff81111561091a57610919610555565b5b610926848285016106ce565b91505092915050565b5f604083015f8301516109445f860182610772565b506020830151848203602086015261095c8282610843565b9150508091505092915050565b5f6020820190508181035f830152610981818461092f565b905092915050565b5f82825260208201905092915050565b7f456c65766174696f6e20616c726561647920646566696e6564000000000000005f82015250565b5f6109cd601983610989565b91506109d882610999565b602082019050919050565b5f6020820190508181035f8301526109fa816109c1565b9050919050565b7f4c6576656c206d75737420626520302d350000000000000000000000000000005f82015250565b5f610a35601183610989565b9150610a4082610a01565b602082019050919050565b5f6020820190508181035f830152610a6281610a29565b9050919050565b7f536861646f7720737065632072657175697265640000000000000000000000005f82015250565b5f610a9d601483610989565b9150610aa882610a69565b602082019050919050565b5f6020820190508181035f830152610aca81610a91565b9050919050565b7f4e487b71000000000000000000000000000000000000000000000000000000005f52602260045260245ffd5b5f6002820490506001821680610b1557607f821691505b602082108103610b2857610b27610ad1565b5b50919050565b5f819050815f5260205f209050919050565b5f6020601f8301049050919050565b5f82821b905092915050565b5f60088302610b8a7fffffffffffffffffffffffffffffffffffffffffffffffffffffffffffffffff82610b4f565b610b948683610b4f565b95508019841693508086168417925050509392505050565b5f819050919050565b5f819050919050565b5f610bd8610bd3610bce84610bac565b610bb5565b610bac565b9050919050565b5f819050919050565b610bf183610bbe565b610c05610bfd82610bdf565b848454610b5b565b825550505050565b5f90565b610c19610c0d565b610c24818484610be8565b505050565b5b81811015610c4757610c3c5f82610c11565b600181019050610c2a565b5050565b601f821115610c8c57610c5d81610b2e565b610c6684610b40565b81016020851015610c75578190505b610c89610c8185610b40565b830182610c29565b50505b505050565b5f82821c905092915050565b5f610cac5f1984600802610c91565b1980831691505092915050565b5f610cc48383610c9d565b9150826002028217905092915050565b610cdd82610801565b67ffffffffffffffff811115610cf657610cf56105d7565b5b610d008254610afe565b610d0b828285610c4b565b5f60209050601f831160018114610d3c575f8415610d2a578287015190505b610d348582610cb9565b865550610d9b565b601f198416610d4a86610b2e565b5f5b82811015610d7157848901518255600182019150602085019450602081019050610d4c565b86831015610d8e5784890151610d8a601f891682610c9d565b8355505b6001600288020188555050505b505050505050565b7f6f6b0000000000000000000000000000000000000000000000000000000000005f82015250565b5f610dd7600283610989565b9150610de282610da3565b602082019050919050565b5f6020820190508181035f830152610e0481610dcb565b9050919050565b7f456c65766174696f6e206e6f7420666f756e64000000000000000000000000005f82015250565b5f610e3f601383610989565b9150610e4a82610e0b565b602082019050919050565b5f6020820190508181035f830152610e6c81610e33565b9050919050565b7f4261736520636f6c6f72207265717569726564000000000000000000000000005f82015250565b5f610ea7601383610989565b9150610eb282610e73565b602082019050919050565b5f6020820190508181035f830152610ed481610e9b565b9050919050565b5f81905092915050565b7f303a6e6f6e653b313a00000000000000000000000000000000000000000000005f82015250565b5f610f19600983610edb565b9150610f2482610ee5565b600982019050919050565b5f610f3982610801565b610f438185610edb565b9350610f5381856020860161081b565b80840191505092915050565b7f2d6c696768743b323a00000000000000000000000000000000000000000000005f82015250565b5f610f93600983610edb565b9150610f9e82610f5f565b600982019050919050565b7f2d6d656469756d3b333a000000000000000000000000000000000000000000005f82015250565b5f610fdd600a83610edb565b9150610fe882610fa9565b600a82019050919050565b7f2d68656176793b343a00000000000000000000000000000000000000000000005f82015250565b5f611027600983610edb565b915061103282610ff3565b600982019050919050565b7f2d646565703b353a0000000000000000000000000000000000000000000000005f82015250565b5f611071600883610edb565b915061107c8261103d565b600882019050919050565b7f2d6d6178000000000000000000000000000000000000000000000000000000005f82015250565b5f6110bb600483610edb565b91506110c682611087565b600482019050919050565b5f6110db82610f0d565b91506110e78288610f2f565b91506110f282610f87565b91506110fe8287610f2f565b915061110982610fd1565b91506111158286610f2f565b91506111208261101b565b915061112c8285610f2f565b915061113782611065565b91506111438284610f2f565b915061114e826110af565b9150819050969550505050505056fea2646970667358221220d254b50925bac4c2e815f61411d91d0268f62f45e9164f2cb6f8ca33c8d436bb64736f6c63430008140033","linkReferences":{}},"methodIdentifiers":{"defineLevel(bytes32,int256,string)":"097f2053","generateScale(string)":"97c56550","get(bytes32)":"8eaa6ac0"},"id":108}