{"abi":[{"type":"function","name":"get","inputs":[{"name":"treeId","type":"bytes32","internalType":"bytes32"}],"outputs":[{"name":"source","type":"string","internalType":"string"},{"name":"grammar","type":"string","internalType":"string"},{"name":"byteLength","type":"int256","internalType":"int256"},{"name":"editVersion","type":"int256","internalType":"int256"},{"name":"errorRanges","type":"string","internalType":"string"}],"stateMutability":"view"},{"type":"function","name":"nodeAt","inputs":[{"name":"treeId","type":"bytes32","internalType":"bytes32"},{"name":"byteOffset","type":"int256","internalType":"int256"}],"outputs":[{"name":"nodeType","type":"string","internalType":"string"},{"name":"startByte","type":"int256","internalType":"int256"},{"name":"endByte","type":"int256","internalType":"int256"}],"stateMutability":"view"},{"type":"function","name":"parse","inputs":[{"name":"file","type":"string","internalType":"string"},{"name":"grammar","type":"string","internalType":"string"}],"outputs":[{"name":"treeId","type":"bytes32","internalType":"bytes32"}],"stateMutability":"nonpayable"},{"type":"function","name":"query","inputs":[{"name":"treeId","type":"bytes32","internalType":"bytes32"},{"name":"pattern","type":"string","internalType":"string"}],"outputs":[{"name":"matches","type":"string","internalType":"string"}],"stateMutability":"view"},{"type":"function","name":"reparse","inputs":[{"name":"treeId","type":"bytes32","internalType":"bytes32"},{"name":"startByte","type":"int256","internalType":"int256"},{"name":"oldEndByte","type":"int256","internalType":"int256"},{"name":"newEndByte","type":"int256","internalType":"int256"},{"name":"newText","type":"string","internalType":"string"}],"outputs":[{"name":"updatedTreeId","type":"bytes32","internalType":"bytes32"}],"stateMutability":"nonpayable"},{"type":"function","name":"treeExists","inputs":[{"name":"treeId","type":"bytes32","internalType":"bytes32"}],"outputs":[{"name":"","type":"bool","internalType":"bool"}],"stateMutability":"view"},{"type":"event","name":"GetCompleted","inputs":[{"name":"variant","type":"string","indexed":false,"internalType":"string"},{"name":"tree","type":"bytes32","indexed":false,"internalType":"bytes32"},{"name":"byteLength","type":"int256","indexed":false,"internalType":"int256"},{"name":"editVersion","type":"int256","indexed":false,"internalType":"int256"}],"anonymous":false},{"type":"event","name":"NodeAtCompleted","inputs":[{"name":"variant","type":"string","indexed":false,"internalType":"string"},{"name":"startByte","type":"int256","indexed":false,"internalType":"int256"},{"name":"endByte","type":"int256","indexed":false,"internalType":"int256"}],"anonymous":false},{"type":"event","name":"ParseCompleted","inputs":[{"name":"variant","type":"string","indexed":false,"internalType":"string"},{"name":"tree","type":"bytes32","indexed":false,"internalType":"bytes32"},{"name":"errorCount","type":"int256","indexed":false,"internalType":"int256"}],"anonymous":false},{"type":"event","name":"QueryCompleted","inputs":[{"name":"variant","type":"string","indexed":false,"internalType":"string"}],"anonymous":false},{"type":"event","name":"ReparseCompleted","inputs":[{"name":"variant","type":"string","indexed":false,"internalType":"string"},{"name":"tree","type":"bytes32","indexed":false,"internalType":"bytes32"}],"anonymous":false}],"bytecode":{"object":"0x608060405234801561000f575f80fd5b506118678061001d5f395ff3fe608060405234801561000f575f80fd5b5060043610610060575f3560e01c8063288eddbd146100645780632eef3d65146100945780632f55f3c5146100c45780634882381e146100f65780638eaa6ac014610126578063f26f68bf1461015a575b5f80fd5b61007e60048036038101906100799190610ae8565b61018a565b60405161008b9190610b76565b60405180910390f35b6100ae60048036038101906100a99190610bb9565b6103a4565b6040516100bb9190610c8d565b60405180910390f35b6100de60048036038101906100d99190610ce0565b610484565b6040516100ed93929190610d2d565b60405180910390f35b610110600480360381019061010b9190610d69565b6105d0565b60405161011d9190610b76565b60405180910390f35b610140600480360381019061013b9190610dfc565b610733565b604051610151959493929190610e27565b60405180910390f35b610174600480360381019061016f9190610dfc565b610973565b6040516101819190610ea7565b60405180910390f35b5f808351116101ce576040517f08c379a00000000000000000000000000000000000000000000000000000000081526004016101c590610f0a565b60405180910390fd5b5f825111610211576040517f08c379a000000000000000000000000000000000000000000000000000000000815260040161020890610f72565b60405180910390fd5b82824260405160200161022693929190610ff3565b6040516020818303038152906040528051906020012090505f835190506040518060e001604052808581526020018481526020018281526020015f81526020016040518060400160405280600281526020017f5b5d0000000000000000000000000000000000000000000000000000000000008152508152602001428152602001600115158152505f808481526020019081526020015f205f820151815f0190816102d19190611221565b5060208201518160010190816102e79190611221565b50604082015181600201556060820151816003015560808201518160040190816103119190611221565b5060a0820151816005015560c0820151816006015f6101000a81548160ff021916908315150217905550905050600182908060018154018082558091505060019003905f5260205f20015f90919091909150557f85d3c75099abc5381822ba6926b1ef047a4fd2963485a30f5a8221ea4c4eb22f825f604051610395929190611373565b60405180910390a15092915050565b60605f808481526020019081526020015f206006015f9054906101000a900460ff16610405576040517f08c379a00000000000000000000000000000000000000000000000000000000081526004016103fc906113f7565b60405180910390fd5b5f825111610448576040517f08c379a000000000000000000000000000000000000000000000000000000000815260040161043f9061145f565b60405180910390fd5b5f808481526020019081526020015f206001018260405160200161046d9291906115db565b604051602081830303815290604052905092915050565b60605f805f808681526020019081526020015f206006015f9054906101000a900460ff166104e7576040517f08c379a00000000000000000000000000000000000000000000000000000000081526004016104de906113f7565b60405180910390fd5b5f84121561052a576040517f08c379a000000000000000000000000000000000000000000000000000000000815260040161052190611669565b60405180910390fd5b5f808681526020019081526020015f2060020154841261057f576040517f08c379a0000000000000000000000000000000000000000000000000000000008152600401610576906116d1565b60405180910390fd5b6040518060400160405280600a81526020017f6964656e7469666965720000000000000000000000000000000000000000000081525092508391506001846105c7919061171c565b90509250925092565b5f805f8781526020019081526020015f206006015f9054906101000a900460ff16610630576040517f08c379a0000000000000000000000000000000000000000000000000000000008152600401610627906113f7565b60405180910390fd5b5f851215610673576040517f08c379a000000000000000000000000000000000000000000000000000000000815260040161066a906117a7565b60405180910390fd5b5f848461068091906117c5565b9050805f808981526020019081526020015f20600201546106a1919061171c565b5f808981526020019081526020015f206002018190555060015f808981526020019081526020015f20600301546106d8919061171c565b5f808981526020019081526020015f20600301819055507f8487c0fe866f0bd3f78dba069e6917b75cb4fe37b82bc5408e286485331f846c8760405161071e9190611805565b60405180910390a18691505095945050505050565b6060805f8060605f808781526020019081526020015f206006015f9054906101000a900460ff16610799576040517f08c379a0000000000000000000000000000000000000000000000000000000008152600401610790906113f7565b60405180910390fd5b5f805f8881526020019081526020015f209050805f018160010182600201548360030154846004018480546107cd90611054565b80601f01602080910402602001604051908101604052809291908181526020018280546107f990611054565b80156108445780601f1061081b57610100808354040283529160200191610844565b820191905f5260205f20905b81548152906001019060200180831161082757829003601f168201915b5050505050945083805461085790611054565b80601f016020809104026020016040519081016040528092919081815260200182805461088390611054565b80156108ce5780601f106108a5576101008083540402835291602001916108ce565b820191905f5260205f20905b8154815290600101906020018083116108b157829003601f168201915b505050505093508080546108e190611054565b80601f016020809104026020016040519081016040528092919081815260200182805461090d90611054565b80156109585780601f1061092f57610100808354040283529160200191610958565b820191905f5260205f20905b81548152906001019060200180831161093b57829003601f168201915b50505050509050955095509550955095505091939590929450565b5f805f8381526020019081526020015f206006015f9054906101000a900460ff169050919050565b5f604051905090565b5f80fd5b5f80fd5b5f80fd5b5f80fd5b5f601f19601f8301169050919050565b7f4e487b71000000000000000000000000000000000000000000000000000000005f52604160045260245ffd5b6109fa826109b4565b810181811067ffffffffffffffff82111715610a1957610a186109c4565b5b80604052505050565b5f610a2b61099b565b9050610a3782826109f1565b919050565b5f67ffffffffffffffff821115610a5657610a556109c4565b5b610a5f826109b4565b9050602081019050919050565b828183375f83830152505050565b5f610a8c610a8784610a3c565b610a22565b905082815260208101848484011115610aa857610aa76109b0565b5b610ab3848285610a6c565b509392505050565b5f82601f830112610acf57610ace6109ac565b5b8135610adf848260208601610a7a565b91505092915050565b5f8060408385031215610afe57610afd6109a4565b5b5f83013567ffffffffffffffff811115610b1b57610b1a6109a8565b5b610b2785828601610abb565b925050602083013567ffffffffffffffff811115610b4857610b476109a8565b5b610b5485828601610abb565b9150509250929050565b5f819050919050565b610b7081610b5e565b82525050565b5f602082019050610b895f830184610b67565b92915050565b610b9881610b5e565b8114610ba2575f80fd5b50565b5f81359050610bb381610b8f565b92915050565b5f8060408385031215610bcf57610bce6109a4565b5b5f610bdc85828601610ba5565b925050602083013567ffffffffffffffff811115610bfd57610bfc6109a8565b5b610c0985828601610abb565b9150509250929050565b5f81519050919050565b5f82825260208201905092915050565b5f5b83811015610c4a578082015181840152602081019050610c2f565b5f8484015250505050565b5f610c5f82610c13565b610c698185610c1d565b9350610c79818560208601610c2d565b610c82816109b4565b840191505092915050565b5f6020820190508181035f830152610ca58184610c55565b905092915050565b5f819050919050565b610cbf81610cad565b8114610cc9575f80fd5b50565b5f81359050610cda81610cb6565b92915050565b5f8060408385031215610cf657610cf56109a4565b5b5f610d0385828601610ba5565b9250506020610d1485828601610ccc565b9150509250929050565b610d2781610cad565b82525050565b5f6060820190508181035f830152610d458186610c55565b9050610d546020830185610d1e565b610d616040830184610d1e565b949350505050565b5f805f805f60a08688031215610d8257610d816109a4565b5b5f610d8f88828901610ba5565b9550506020610da088828901610ccc565b9450506040610db188828901610ccc565b9350506060610dc288828901610ccc565b925050608086013567ffffffffffffffff811115610de357610de26109a8565b5b610def88828901610abb565b9150509295509295909350565b5f60208284031215610e1157610e106109a4565b5b5f610e1e84828501610ba5565b91505092915050565b5f60a0820190508181035f830152610e3f8188610c55565b90508181036020830152610e538187610c55565b9050610e626040830186610d1e565b610e6f6060830185610d1e565b8181036080830152610e818184610c55565b90509695505050505050565b5f8115159050919050565b610ea181610e8d565b82525050565b5f602082019050610eba5f830184610e98565b92915050565b7f46696c652063616e6e6f7420626520656d7074790000000000000000000000005f82015250565b5f610ef4601483610c1d565b9150610eff82610ec0565b602082019050919050565b5f6020820190508181035f830152610f2181610ee8565b9050919050565b7f4772616d6d61722063616e6e6f7420626520656d7074790000000000000000005f82015250565b5f610f5c601783610c1d565b9150610f6782610f28565b602082019050919050565b5f6020820190508181035f830152610f8981610f50565b9050919050565b5f81905092915050565b5f610fa482610c13565b610fae8185610f90565b9350610fbe818560208601610c2d565b80840191505092915050565b5f819050919050565b5f819050919050565b610fed610fe882610fca565b610fd3565b82525050565b5f610ffe8286610f9a565b915061100a8285610f9a565b91506110168284610fdc565b602082019150819050949350505050565b7f4e487b71000000000000000000000000000000000000000000000000000000005f52602260045260245ffd5b5f600282049050600182168061106b57607f821691505b60208210810361107e5761107d611027565b5b50919050565b5f819050815f5260205f209050919050565b5f6020601f8301049050919050565b5f82821b905092915050565b5f600883026110e07fffffffffffffffffffffffffffffffffffffffffffffffffffffffffffffffff826110a5565b6110ea86836110a5565b95508019841693508086168417925050509392505050565b5f819050919050565b5f61112561112061111b84610fca565b611102565b610fca565b9050919050565b5f819050919050565b61113e8361110b565b61115261114a8261112c565b8484546110b1565b825550505050565b5f90565b61116661115a565b611171818484611135565b505050565b5b81811015611194576111895f8261115e565b600181019050611177565b5050565b601f8211156111d9576111aa81611084565b6111b384611096565b810160208510156111c2578190505b6111d66111ce85611096565b830182611176565b50505b505050565b5f82821c905092915050565b5f6111f95f19846008026111de565b1980831691505092915050565b5f61121183836111ea565b9150826002028217905092915050565b61122a82610c13565b67ffffffffffffffff811115611243576112426109c4565b5b61124d8254611054565b611258828285611198565b5f60209050601f831160018114611289575f8415611277578287015190505b6112818582611206565b8655506112e8565b601f19841661129786611084565b5f5b828110156112be57848901518255600182019150602085019450602081019050611299565b868310156112db57848901516112d7601f8916826111ea565b8355505b6001600288020188555050505b505050505050565b7f6f6b0000000000000000000000000000000000000000000000000000000000005f82015250565b5f611324600283610c1d565b915061132f826112f0565b602082019050919050565b5f819050919050565b5f61135d6113586113538461133a565b611102565b610cad565b9050919050565b61136d81611343565b82525050565b5f6060820190508181035f83015261138a81611318565b90506113996020830185610b67565b6113a66040830184611364565b9392505050565b7f54726565206e6f7420666f756e640000000000000000000000000000000000005f82015250565b5f6113e1600e83610c1d565b91506113ec826113ad565b602082019050919050565b5f6020820190508181035f83015261140e816113d5565b9050919050565b7f5061747465726e2063616e6e6f7420626520656d7074790000000000000000005f82015250565b5f611449601783610c1d565b915061145482611415565b602082019050919050565b5f6020820190508181035f8301526114768161143d565b9050919050565b7f5b7b747265653a220000000000000000000000000000000000000000000000005f82015250565b5f6114b1600883610f90565b91506114bc8261147d565b600882019050919050565b5f81546114d381611054565b6114dd8186610f90565b9450600182165f81146114f7576001811461150c5761153e565b60ff198316865281151582028601935061153e565b61151585611084565b5f5b8381101561153657815481890152600182019150602081019050611517565b838801955050505b50505092915050565b7f222c7061747465726e3a220000000000000000000000000000000000000000005f82015250565b5f61157b600b83610f90565b915061158682611547565b600b82019050919050565b7f227d5d00000000000000000000000000000000000000000000000000000000005f82015250565b5f6115c5600383610f90565b91506115d082611591565b600382019050919050565b5f6115e5826114a5565b91506115f182856114c7565b91506115fc8261156f565b91506116088284610f9a565b9150611613826115b9565b91508190509392505050565b7f42797465206f6666736574206d757374206265206e6f6e2d6e656761746976655f82015250565b5f611653602083610c1d565b915061165e8261161f565b602082019050919050565b5f6020820190508181035f83015261168081611647565b9050919050565b7f42797465206f6666736574206f7574206f662072616e676500000000000000005f82015250565b5f6116bb601883610c1d565b91506116c682611687565b602082019050919050565b5f6020820190508181035f8301526116e8816116af565b9050919050565b7f4e487b71000000000000000000000000000000000000000000000000000000005f52601160045260245ffd5b5f61172682610cad565b915061173183610cad565b92508282019050828112155f8312168382125f841215161715611757576117566116ef565b5b92915050565b7f53746172742062797465206d757374206265206e6f6e2d6e65676174697665005f82015250565b5f611791601f83610c1d565b915061179c8261175d565b602082019050919050565b5f6020820190508181035f8301526117be81611785565b9050919050565b5f6117cf82610cad565b91506117da83610cad565b925082820390508181125f8412168282135f8512151617156117ff576117fe6116ef565b5b92915050565b5f6040820190508181035f83015261181c81611318565b905061182b6020830184610b67565b9291505056fea2646970667358221220e5c195e7d0f165832fb20c94b9600f14e27352cd71ee15ccac9463fb6f1da33e64736f6c63430008140033","linkReferences":{}},"methodIdentifiers":{"get(bytes32)":"8eaa6ac0","nodeAt(bytes32,int256)":"2f55f3c5","parse(string,string)":"288eddbd","query(bytes32,string)":"2eef3d65","reparse(bytes32,int256,int256,int256,string)":"4882381e","treeExists(bytes32)":"f26f68bf"},"id":278}