{"abi":[{"type":"function","name":"deploy","inputs":[{"name":"instance","type":"bytes32","internalType":"bytes32"},{"name":"artifact","type":"string","internalType":"string"},{"name":"version","type":"string","internalType":"string"}],"outputs":[{"name":"","type":"tuple","internalType":"struct Runtime.DeployOkResult","components":[{"name":"success","type":"bool","internalType":"bool"},{"name":"instance","type":"bytes32","internalType":"bytes32"},{"name":"endpoint","type":"string","internalType":"string"}]}],"stateMutability":"nonpayable"},{"type":"function","name":"destroy","inputs":[{"name":"instance","type":"bytes32","internalType":"bytes32"}],"outputs":[{"name":"","type":"tuple","internalType":"struct Runtime.DestroyOkResult","components":[{"name":"success","type":"bool","internalType":"bool"},{"name":"instance","type":"bytes32","internalType":"bytes32"}]}],"stateMutability":"nonpayable"},{"type":"function","name":"healthCheck","inputs":[{"name":"instance","type":"bytes32","internalType":"bytes32"}],"outputs":[{"name":"","type":"tuple","internalType":"struct Runtime.HealthCheckOkResult","components":[{"name":"success","type":"bool","internalType":"bool"},{"name":"instance","type":"bytes32","internalType":"bytes32"},{"name":"latencyMs","type":"int256","internalType":"int256"}]}],"stateMutability":"nonpayable"},{"type":"function","name":"provision","inputs":[{"name":"concept","type":"string","internalType":"string"},{"name":"runtimeType","type":"string","internalType":"string"},{"name":"config","type":"string","internalType":"string"}],"outputs":[{"name":"","type":"tuple","internalType":"struct Runtime.ProvisionOkResult","components":[{"name":"success","type":"bool","internalType":"bool"},{"name":"instance","type":"bytes32","internalType":"bytes32"},{"name":"endpoint","type":"string","internalType":"string"}]}],"stateMutability":"nonpayable"},{"type":"function","name":"rollback","inputs":[{"name":"instance","type":"bytes32","internalType":"bytes32"}],"outputs":[{"name":"","type":"tuple","internalType":"struct Runtime.RollbackOkResult","components":[{"name":"success","type":"bool","internalType":"bool"},{"name":"instance","type":"bytes32","internalType":"bytes32"},{"name":"previousVersion","type":"string","internalType":"string"}]}],"stateMutability":"nonpayable"},{"type":"function","name":"setTrafficWeight","inputs":[{"name":"instance","type":"bytes32","internalType":"bytes32"},{"name":"weight","type":"int256","internalType":"int256"}],"outputs":[{"name":"","type":"tuple","internalType":"struct Runtime.SetTrafficWeightOkResult","components":[{"name":"success","type":"bool","internalType":"bool"},{"name":"instance","type":"bytes32","internalType":"bytes32"},{"name":"newWeight","type":"int256","internalType":"int256"}]}],"stateMutability":"nonpayable"},{"type":"event","name":"DeployCompleted","inputs":[{"name":"variant","type":"string","indexed":false,"internalType":"string"},{"name":"instance","type":"bytes32","indexed":false,"internalType":"bytes32"}],"anonymous":false},{"type":"event","name":"DestroyCompleted","inputs":[{"name":"variant","type":"string","indexed":false,"internalType":"string"},{"name":"instance","type":"bytes32","indexed":false,"internalType":"bytes32"}],"anonymous":false},{"type":"event","name":"HealthCheckCompleted","inputs":[{"name":"variant","type":"string","indexed":false,"internalType":"string"},{"name":"instance","type":"bytes32","indexed":false,"internalType":"bytes32"},{"name":"latencyMs","type":"int256","indexed":false,"internalType":"int256"}],"anonymous":false},{"type":"event","name":"ProvisionCompleted","inputs":[{"name":"variant","type":"string","indexed":false,"internalType":"string"},{"name":"instance","type":"bytes32","indexed":false,"internalType":"bytes32"}],"anonymous":false},{"type":"event","name":"RollbackCompleted","inputs":[{"name":"variant","type":"string","indexed":false,"internalType":"string"},{"name":"instance","type":"bytes32","indexed":false,"internalType":"bytes32"}],"anonymous":false},{"type":"event","name":"SetTrafficWeightCompleted","inputs":[{"name":"variant","type":"string","indexed":false,"internalType":"string"},{"name":"instance","type":"bytes32","indexed":false,"internalType":"bytes32"},{"name":"newWeight","type":"int256","indexed":false,"internalType":"int256"}],"anonymous":false}],"bytecode":{"object":"0x608060405234801561000f575f80fd5b50611e9a8061001d5f395ff3fe608060405234801561000f575f80fd5b5060043610610060575f3560e01c80636e0bd282146100645780637c0a8fd6146100945780638388d229146100c4578063a96ceeb0146100f4578063b2670cc514610124578063cfb1392814610154575b5f80fd5b61007e60048036038101906100799190610eaf565b610184565b60405161008b9190610f30565b60405180910390f35b6100ae60048036038101906100a99190610eaf565b6102ef565b6040516100bb9190610fa1565b60405180910390f35b6100de60048036038101906100d99190610fe4565b61045d565b6040516100eb9190611062565b60405180910390f35b61010e600480360381019061010991906111b7565b610597565b60405161011b9190611322565b60405180910390f35b61013e60048036038101906101399190611342565b6109d4565b60405161014b9190611417565b60405180910390f35b61016e60048036038101906101699190610eaf565b610bb6565b60405161017b9190611484565b60405180910390f35b61018c610d9c565b60025f8381526020019081526020015f205f9054906101000a900460ff166101e9576040517f08c379a00000000000000000000000000000000000000000000000000000000081526004016101e0906114fe565b60405180910390fd5b5f805f8481526020019081526020015f2090506040518060400160405280600981526020017f64657374726f7965640000000000000000000000000000000000000000000000815250816007019081610242919061171f565b505f81600601819055505f81600a015f6101000a81548160ff0219169083151502179055505f60025f8581526020019081526020015f205f6101000a81548160ff0219169083151502179055504281600901819055507f5f91d6f5b071e1c01422208aefdc94722551cb418c8c493cbd4fa563938bc5d0836040516102c79190611847565b60405180910390a1604051806040016040528060011515815260200184815250915050919050565b6102f7610db9565b60025f8381526020019081526020015f205f9054906101000a900460ff16610354576040517f08c379a000000000000000000000000000000000000000000000000000000000815260040161034b906114fe565b60405180910390fd5b5f805f8481526020019081526020015f2090505f60016032854260405160200161037f9291906118b3565b604051602081830303815290604052805190602001205f1c6103a1919061190b565b6103ab9190611968565b90506040518060400160405280600781526020017f6865616c746879000000000000000000000000000000000000000000000000008152508260070190816103f3919061171f565b504282600901819055507faedebe585c79e8e19c3528e74b170f2809f3ae5025137e61f9452d8366deef9c848260405161042e9291906119b8565b60405180910390a160405180606001604052806001151581526020018581526020018281525092505050919050565b610465610ddc565b60025f8481526020019081526020015f205f9054906101000a900460ff166104c2576040517f08c379a00000000000000000000000000000000000000000000000000000000081526004016104b9906114fe565b60405180910390fd5b5f82121580156104d3575060648213155b610512576040517f08c379a000000000000000000000000000000000000000000000000000000000815260040161050990611a3c565b60405180910390fd5b5f805f8581526020019081526020015f2090508281600601819055504281600901819055507f0a55cb517b90f41d8d1b265130707aa73fc439f2e73928c4cb818a842442b7b584846040516105689291906119b8565b60405180910390a160405180606001604052806001151581526020018581526020018481525091505092915050565b61059f610dff565b5f8451116105e2576040517f08c379a00000000000000000000000000000000000000000000000000000000081526004016105d990611aa4565b60405180910390fd5b5f835111610625576040517f08c379a000000000000000000000000000000000000000000000000000000000815260040161061c90611b0c565b60405180910390fd5b5f8484604051602001610639929190611b64565b60405160208183030381529060405280519060200120905060025f8281526020019081526020015f205f9054906101000a900460ff161561076f575f805f8381526020019081526020015f2090507fe7ba298fd4b65faaecaa247132b454d0c8aac6d7bffe755ede2830a2108f8318826040516106b69190611bd1565b60405180910390a160405180606001604052806001151581526020018381526020018260030180546106e790611549565b80601f016020809104026020016040519081016040528092919081815260200182805461071390611549565b801561075e5780601f106107355761010080835404028352916020019161075e565b820191905f5260205f20905b81548152906001019060200180831161074157829003601f168201915b5050505050815250925050506109cd565b5f8190505f8587604051602001610787929190611c91565b604051602081830303815290604052905060405180610160016040528088815260200187815260200186815260200182815260200160405180602001604052805f815250815260200160405180602001604052805f81525081526020015f81526020016040518060400160405280600b81526020017f70726f766973696f6e65640000000000000000000000000000000000000000008152508152602001428152602001428152602001600115158152505f808481526020019081526020015f205f820151815f01908161085b919061171f565b506020820151816001019081610871919061171f565b506040820151816002019081610887919061171f565b50606082015181600301908161089d919061171f565b5060808201518160040190816108b3919061171f565b5060a08201518160050190816108c9919061171f565b5060c0820151816006015560e08201518160070190816108e9919061171f565b506101008201518160080155610120820151816009015561014082015181600a015f6101000a81548160ff021916908315150217905550905050600160025f8481526020019081526020015f205f6101000a81548160ff021916908315150217905550600182908060018154018082558091505060019003905f5260205f20015f90919091909150557fe7ba298fd4b65faaecaa247132b454d0c8aac6d7bffe755ede2830a2108f8318826040516109a19190611847565b60405180910390a160405180606001604052806001151581526020018381526020018281525093505050505b9392505050565b6109dc610e23565b60025f8581526020019081526020015f205f9054906101000a900460ff16610a39576040517f08c379a0000000000000000000000000000000000000000000000000000000008152600401610a30906114fe565b60405180910390fd5b5f805f8681526020019081526020015f20905080600401816005019081610a609190611cf1565b5082816004019081610a72919061171f565b506040518060400160405280600881526020017f6465706c6f796564000000000000000000000000000000000000000000000000815250816007019081610ab9919061171f565b50606481600601819055504281600901819055507fa2bcee769063b8cbe84c66b7e22189704d1631b14aa84ae063df981ef674ebd085604051610afc9190611847565b60405180910390a16040518060600160405280600115158152602001868152602001826003018054610b2d90611549565b80601f0160208091040260200160405190810160405280929190818152602001828054610b5990611549565b8015610ba45780601f10610b7b57610100808354040283529160200191610ba4565b820191905f5260205f20905b815481529060010190602001808311610b8757829003601f168201915b50505050508152509150509392505050565b610bbe610e47565b60025f8381526020019081526020015f205f9054906101000a900460ff16610c1b576040517f08c379a0000000000000000000000000000000000000000000000000000000008152600401610c12906114fe565b60405180910390fd5b5f805f8481526020019081526020015f2090505f816005018054610c3e90611549565b905011610c80576040517f08c379a0000000000000000000000000000000000000000000000000000000008152600401610c7790611e46565b60405180910390fd5b5f816005018054610c9090611549565b80601f0160208091040260200160405190810160405280929190818152602001828054610cbc90611549565b8015610d075780601f10610cde57610100808354040283529160200191610d07565b820191905f5260205f20905b815481529060010190602001808311610cea57829003601f168201915b5050505050905081600401826005019081610d229190611cf1565b5080826004019081610d34919061171f565b504282600901819055507fd7216dc6f75dc5ba9c492a95dab64aa01aaf14ccb27b9a38cc0ea55b5980b34f84604051610d6d9190611847565b60405180910390a160405180606001604052806001151581526020018581526020018281525092505050919050565b60405180604001604052805f151581526020015f80191681525090565b60405180606001604052805f151581526020015f80191681526020015f81525090565b60405180606001604052805f151581526020015f80191681526020015f81525090565b60405180606001604052805f151581526020015f8019168152602001606081525090565b60405180606001604052805f151581526020015f8019168152602001606081525090565b60405180606001604052805f151581526020015f8019168152602001606081525090565b5f604051905090565b5f80fd5b5f80fd5b5f819050919050565b610e8e81610e7c565b8114610e98575f80fd5b50565b5f81359050610ea981610e85565b92915050565b5f60208284031215610ec457610ec3610e74565b5b5f610ed184828501610e9b565b91505092915050565b5f8115159050919050565b610eee81610eda565b82525050565b610efd81610e7c565b82525050565b604082015f820151610f175f850182610ee5565b506020820151610f2a6020850182610ef4565b50505050565b5f604082019050610f435f830184610f03565b92915050565b5f819050919050565b610f5b81610f49565b82525050565b606082015f820151610f755f850182610ee5565b506020820151610f886020850182610ef4565b506040820151610f9b6040850182610f52565b50505050565b5f606082019050610fb45f830184610f61565b92915050565b610fc381610f49565b8114610fcd575f80fd5b50565b5f81359050610fde81610fba565b92915050565b5f8060408385031215610ffa57610ff9610e74565b5b5f61100785828601610e9b565b925050602061101885828601610fd0565b9150509250929050565b606082015f8201516110365f850182610ee5565b5060208201516110496020850182610ef4565b50604082015161105c6040850182610f52565b50505050565b5f6060820190506110755f830184611022565b92915050565b5f80fd5b5f80fd5b5f601f19601f8301169050919050565b7f4e487b71000000000000000000000000000000000000000000000000000000005f52604160045260245ffd5b6110c982611083565b810181811067ffffffffffffffff821117156110e8576110e7611093565b5b80604052505050565b5f6110fa610e6b565b905061110682826110c0565b919050565b5f67ffffffffffffffff82111561112557611124611093565b5b61112e82611083565b9050602081019050919050565b828183375f83830152505050565b5f61115b6111568461110b565b6110f1565b9050828152602081018484840111156111775761117661107f565b5b61118284828561113b565b509392505050565b5f82601f83011261119e5761119d61107b565b5b81356111ae848260208601611149565b91505092915050565b5f805f606084860312156111ce576111cd610e74565b5b5f84013567ffffffffffffffff8111156111eb576111ea610e78565b5b6111f78682870161118a565b935050602084013567ffffffffffffffff81111561121857611217610e78565b5b6112248682870161118a565b925050604084013567ffffffffffffffff81111561124557611244610e78565b5b6112518682870161118a565b9150509250925092565b5f81519050919050565b5f82825260208201905092915050565b5f5b83811015611292578082015181840152602081019050611277565b5f8484015250505050565b5f6112a78261125b565b6112b18185611265565b93506112c1818560208601611275565b6112ca81611083565b840191505092915050565b5f606083015f8301516112ea5f860182610ee5565b5060208301516112fd6020860182610ef4565b5060408301518482036040860152611315828261129d565b9150508091505092915050565b5f6020820190508181035f83015261133a81846112d5565b905092915050565b5f805f6060848603121561135957611358610e74565b5b5f61136686828701610e9b565b935050602084013567ffffffffffffffff81111561138757611386610e78565b5b6113938682870161118a565b925050604084013567ffffffffffffffff8111156113b4576113b3610e78565b5b6113c08682870161118a565b9150509250925092565b5f606083015f8301516113df5f860182610ee5565b5060208301516113f26020860182610ef4565b506040830151848203604086015261140a828261129d565b9150508091505092915050565b5f6020820190508181035f83015261142f81846113ca565b905092915050565b5f606083015f83015161144c5f860182610ee5565b50602083015161145f6020860182610ef4565b5060408301518482036040860152611477828261129d565b9150508091505092915050565b5f6020820190508181035f83015261149c8184611437565b905092915050565b5f82825260208201905092915050565b7f496e7374616e6365206e6f7420666f756e6400000000000000000000000000005f82015250565b5f6114e86012836114a4565b91506114f3826114b4565b602082019050919050565b5f6020820190508181035f830152611515816114dc565b9050919050565b7f4e487b71000000000000000000000000000000000000000000000000000000005f52602260045260245ffd5b5f600282049050600182168061156057607f821691505b6020821081036115735761157261151c565b5b50919050565b5f819050815f5260205f209050919050565b5f6020601f8301049050919050565b5f82821b905092915050565b5f600883026115d57fffffffffffffffffffffffffffffffffffffffffffffffffffffffffffffffff8261159a565b6115df868361159a565b95508019841693508086168417925050509392505050565b5f819050919050565b5f819050919050565b5f61162361161e611619846115f7565b611600565b6115f7565b9050919050565b5f819050919050565b61163c83611609565b6116506116488261162a565b8484546115a6565b825550505050565b5f90565b611664611658565b61166f818484611633565b505050565b5b81811015611692576116875f8261165c565b600181019050611675565b5050565b601f8211156116d7576116a881611579565b6116b18461158b565b810160208510156116c0578190505b6116d46116cc8561158b565b830182611674565b50505b505050565b5f82821c905092915050565b5f6116f75f19846008026116dc565b1980831691505092915050565b5f61170f83836116e8565b9150826002028217905092915050565b6117288261125b565b67ffffffffffffffff81111561174157611740611093565b5b61174b8254611549565b611756828285611696565b5f60209050601f831160018114611787575f8415611775578287015190505b61177f8582611704565b8655506117e6565b601f19841661179586611579565b5f5b828110156117bc57848901518255600182019150602085019450602081019050611797565b868310156117d957848901516117d5601f8916826116e8565b8355505b6001600288020188555050505b505050505050565b7f6f6b0000000000000000000000000000000000000000000000000000000000005f82015250565b5f6118226002836114a4565b915061182d826117ee565b602082019050919050565b61184181610e7c565b82525050565b5f6040820190508181035f83015261185e81611816565b905061186d6020830184611838565b92915050565b5f819050919050565b61188d61188882610e7c565b611873565b82525050565b5f819050919050565b6118ad6118a8826115f7565b611893565b82525050565b5f6118be828561187c565b6020820191506118ce828461189c565b6020820191508190509392505050565b7f4e487b71000000000000000000000000000000000000000000000000000000005f52601260045260245ffd5b5f611915826115f7565b9150611920836115f7565b9250826119305761192f6118de565b5b828206905092915050565b7f4e487b71000000000000000000000000000000000000000000000000000000005f52601160045260245ffd5b5f61197282610f49565b915061197d83610f49565b92508282019050828112155f8312168382125f8412151617156119a3576119a261193b565b5b92915050565b6119b281610f49565b82525050565b5f6060820190508181035f8301526119cf81611816565b90506119de6020830185611838565b6119eb60408301846119a9565b9392505050565b7f576569676874206d757374206265206265747765656e203020616e64203130305f82015250565b5f611a266020836114a4565b9150611a31826119f2565b602082019050919050565b5f6020820190508181035f830152611a5381611a1a565b9050919050565b7f436f6e63657074206d757374206e6f7420626520656d707479000000000000005f82015250565b5f611a8e6019836114a4565b9150611a9982611a5a565b602082019050919050565b5f6020820190508181035f830152611abb81611a82565b9050919050565b7f52756e74696d652074797065206d757374206e6f7420626520656d70747900005f82015250565b5f611af6601e836114a4565b9150611b0182611ac2565b602082019050919050565b5f6020820190508181035f830152611b2381611aea565b9050919050565b5f81905092915050565b5f611b3e8261125b565b611b488185611b2a565b9350611b58818560208601611275565b80840191505092915050565b5f611b6f8285611b34565b9150611b7b8284611b34565b91508190509392505050565b7f616c726561647950726f766973696f6e656400000000000000000000000000005f82015250565b5f611bbb6012836114a4565b9150611bc682611b87565b602082019050919050565b5f6040820190508181035f830152611be881611baf565b9050611bf76020830184611838565b92915050565b7f3a2f2f00000000000000000000000000000000000000000000000000000000005f82015250565b5f611c31600383611b2a565b9150611c3c82611bfd565b600382019050919050565b7f2e72756e74696d652e6c6f63616c0000000000000000000000000000000000005f82015250565b5f611c7b600e83611b2a565b9150611c8682611c47565b600e82019050919050565b5f611c9c8285611b34565b9150611ca782611c25565b9150611cb38284611b34565b9150611cbe82611c6f565b91508190509392505050565b5f81549050611cd881611549565b9050919050565b5f819050815f5260205f209050919050565b818103611cff575050611dd4565b611d0882611cca565b67ffffffffffffffff811115611d2157611d20611093565b5b611d2b8254611549565b611d36828285611696565b5f601f831160018114611d63575f8415611d51578287015490505b611d5b8582611704565b865550611dcd565b601f198416611d7187611cdf565b9650611d7c86611579565b5f5b82811015611da357848901548255600182019150600185019450602081019050611d7e565b86831015611dc05784890154611dbc601f8916826116e8565b8355505b6001600288020188555050505b5050505050505b565b7f4e6f2070726576696f75732076657273696f6e20746f20726f6c6c6261636b205f8201527f746f000000000000000000000000000000000000000000000000000000000000602082015250565b5f611e306022836114a4565b9150611e3b82611dd6565b604082019050919050565b5f6020820190508181035f830152611e5d81611e24565b905091905056fea26469706673582212209a57ebf8f9838b3bbbc3775dd76dc0026cb125edebb9efa03a3c77487038b1bc64736f6c63430008140033","linkReferences":{}},"methodIdentifiers":{"deploy(bytes32,string,string)":"b2670cc5","destroy(bytes32)":"6e0bd282","healthCheck(bytes32)":"7c0a8fd6","provision(string,string,string)":"a96ceeb0","rollback(bytes32)":"cfb13928","setTrafficWeight(bytes32,int256)":"8388d229"},"id":223}