{"abi":[{"type":"function","name":"contractMigration","inputs":[{"name":"migration","type":"bytes32","internalType":"bytes32"}],"outputs":[{"name":"","type":"tuple","internalType":"struct Migration.ContractOkResult","components":[{"name":"success","type":"bool","internalType":"bool"},{"name":"migration","type":"bytes32","internalType":"bytes32"}]}],"stateMutability":"nonpayable"},{"type":"function","name":"expand","inputs":[{"name":"migration","type":"bytes32","internalType":"bytes32"}],"outputs":[{"name":"","type":"tuple","internalType":"struct Migration.ExpandOkResult","components":[{"name":"success","type":"bool","internalType":"bool"},{"name":"migration","type":"bytes32","internalType":"bytes32"}]}],"stateMutability":"nonpayable"},{"type":"function","name":"migrate","inputs":[{"name":"migration","type":"bytes32","internalType":"bytes32"}],"outputs":[{"name":"","type":"tuple","internalType":"struct Migration.MigrateOkResult","components":[{"name":"success","type":"bool","internalType":"bool"},{"name":"migration","type":"bytes32","internalType":"bytes32"},{"name":"recordsMigrated","type":"int256","internalType":"int256"}]}],"stateMutability":"nonpayable"},{"type":"function","name":"plan","inputs":[{"name":"concept","type":"string","internalType":"string"},{"name":"fromVersion","type":"int256","internalType":"int256"},{"name":"toVersion","type":"int256","internalType":"int256"}],"outputs":[{"name":"","type":"tuple","internalType":"struct Migration.PlanOkResult","components":[{"name":"success","type":"bool","internalType":"bool"},{"name":"migration","type":"bytes32","internalType":"bytes32"},{"name":"steps","type":"string[]","internalType":"string[]"},{"name":"estimatedRecords","type":"int256","internalType":"int256"}]}],"stateMutability":"nonpayable"},{"type":"function","name":"status","inputs":[{"name":"migration","type":"bytes32","internalType":"bytes32"}],"outputs":[{"name":"","type":"tuple","internalType":"struct Migration.StatusOkResult","components":[{"name":"success","type":"bool","internalType":"bool"},{"name":"migration","type":"bytes32","internalType":"bytes32"},{"name":"phase","type":"string","internalType":"string"},{"name":"progress","type":"uint256","internalType":"uint256"}]}],"stateMutability":"nonpayable"},{"type":"event","name":"ContractCompleted","inputs":[{"name":"variant","type":"string","indexed":false,"internalType":"string"},{"name":"migration","type":"bytes32","indexed":false,"internalType":"bytes32"}],"anonymous":false},{"type":"event","name":"ExpandCompleted","inputs":[{"name":"variant","type":"string","indexed":false,"internalType":"string"},{"name":"migration","type":"bytes32","indexed":false,"internalType":"bytes32"}],"anonymous":false},{"type":"event","name":"MigrateCompleted","inputs":[{"name":"variant","type":"string","indexed":false,"internalType":"string"},{"name":"migration","type":"bytes32","indexed":false,"internalType":"bytes32"},{"name":"recordsMigrated","type":"int256","indexed":false,"internalType":"int256"},{"name":"migrated","type":"int256","indexed":false,"internalType":"int256"},{"name":"failed","type":"int256","indexed":false,"internalType":"int256"},{"name":"errors","type":"string[]","indexed":false,"internalType":"string[]"}],"anonymous":false},{"type":"event","name":"PlanCompleted","inputs":[{"name":"variant","type":"string","indexed":false,"internalType":"string"},{"name":"migration","type":"bytes32","indexed":false,"internalType":"bytes32"},{"name":"steps","type":"string[]","indexed":false,"internalType":"string[]"},{"name":"estimatedRecords","type":"int256","indexed":false,"internalType":"int256"}],"anonymous":false},{"type":"event","name":"StatusCompleted","inputs":[{"name":"variant","type":"string","indexed":false,"internalType":"string"},{"name":"migration","type":"bytes32","indexed":false,"internalType":"bytes32"},{"name":"progress","type":"uint256","indexed":false,"internalType":"uint256"}],"anonymous":false}],"bytecode":{"object":"0x608060405234801561000f575f80fd5b506123a18061001d5f395ff3fe608060405234801561000f575f80fd5b5060043610610055575f3560e01c806352ad0d5e146100595780638eeeec6714610089578063bbadcc9f146100b9578063dcdfae7a146100e9578063e19b8ee314610119575b5f80fd5b610073600480360381019061006e9190611145565b610149565b604051610080919061129b565b60405180910390f35b6100a3600480360381019061009e9190611145565b6104ca565b6040516100b091906112e8565b60405180910390f35b6100d360048036038101906100ce9190611145565b610645565b6040516100e0919061132e565b60405180910390f35b61010360048036038101906100fe91906114a6565b6107c1565b604051610110919061163c565b60405180910390f35b610133600480360381019061012e9190611145565b610b6f565b604051610140919061169c565b60405180910390f35b610151610f7e565b60025f8381526020019081526020015f205f9054906101000a900460ff166101ae576040517f08c379a00000000000000000000000000000000000000000000000000000000081526004016101a59061170f565b60405180910390fd5b5f805f8481526020019081526020015f20905060605f60058111156101d6576101d561172d565b5b826006015f9054906101000a900460ff1660058111156101f9576101f861172d565b5b0361023b576040518060400160405280600781526020017f706c616e6e656400000000000000000000000000000000000000000000000000815250905061045c565b6001600581111561024f5761024e61172d565b5b826006015f9054906101000a900460ff1660058111156102725761027161172d565b5b036102b4576040518060400160405280600881526020017f657870616e646564000000000000000000000000000000000000000000000000815250905061045b565b600260058111156102c8576102c761172d565b5b826006015f9054906101000a900460ff1660058111156102eb576102ea61172d565b5b0361032d576040518060400160405280600981526020017f6d6967726174696e670000000000000000000000000000000000000000000000815250905061045a565b600360058111156103415761034061172d565b5b826006015f9054906101000a900460ff1660058111156103645761036361172d565b5b036103a6576040518060400160405280600881526020017f6d696772617465640000000000000000000000000000000000000000000000008152509050610459565b600460058111156103ba576103b961172d565b5b826006015f9054906101000a900460ff1660058111156103dd576103dc61172d565b5b0361041f576040518060400160405280600a81526020017f636f6e74726163746564000000000000000000000000000000000000000000008152509050610458565b6040518060400160405280600681526020017f6661696c6564000000000000000000000000000000000000000000000000000081525090505b5b5b5b5b7f2ea14bc50748b9522d0931d50d85dcd12db06cdcccb0e998bb700e301e2f72728483600701546040516104919291906117c2565b60405180910390a16040518060800160405280600115158152602001858152602001828152602001836007015481525092505050919050565b6104d2610fa8565b60025f8381526020019081526020015f205f9054906101000a900460ff1661052f576040517f08c379a00000000000000000000000000000000000000000000000000000000081526004016105269061170f565b60405180910390fd5b5f805f8481526020019081526020015f2090505f60058111156105555761055461172d565b5b816006015f9054906101000a900460ff1660058111156105785761057761172d565b5b146105b8576040517f08c379a00000000000000000000000000000000000000000000000000000000081526004016105af9061186c565b60405180910390fd5b6001816006015f6101000a81548160ff021916908360058111156105df576105de61172d565b5b0217905550601981600701819055507fc320ae18d37b0dd734350a0b5f574e7903bd457e174b023e862a257f8118338c8360405161061d919061188a565b60405180910390a1604051806040016040528060011515815260200184815250915050919050565b61064d610fc5565b60025f8381526020019081526020015f205f9054906101000a900460ff166106aa576040517f08c379a00000000000000000000000000000000000000000000000000000000081526004016106a19061170f565b60405180910390fd5b5f805f8481526020019081526020015f209050600360058111156106d1576106d061172d565b5b816006015f9054906101000a900460ff1660058111156106f4576106f361172d565b5b14610734576040517f08c379a000000000000000000000000000000000000000000000000000000000815260040161072b90611926565b60405180910390fd5b6004816006015f6101000a81548160ff0219169083600581111561075b5761075a61172d565b5b0217905550606481600701819055507f4d13814525c6976dbe0ea244b8f08d10a521e794d7be87fa8bd7983aec40ad6d83604051610799919061188a565b60405180910390a1604051806040016040528060011515815260200184815250915050919050565b6107c9610fe2565b5f84511161080c576040517f08c379a00000000000000000000000000000000000000000000000000000000081526004016108039061198e565b60405180910390fd5b82821361084e576040517f08c379a000000000000000000000000000000000000000000000000000000000815260040161084590611a1c565b60405180910390fd5b5f848484426040516020016108669493929190611ab4565b6040516020818303038152906040528051906020012090505f848461088b9190611b2a565b90505f8167ffffffffffffffff8111156108a8576108a761134f565b5b6040519080825280602002602001820160405280156108db57816020015b60608152602001906001900390816108c65790505b5090505f5b8281101561096d576108fc81886108f79190611b6a565b610d64565b61091c6001838a61090d9190611b6a565b6109179190611b6a565b610d64565b60405160200161092d929190611c3f565b60405160208183030381529060405282828151811061094f5761094e611c78565b5b6020026020010181905250808061096590611ca5565b9150506108e0565b505f6064878761097d9190611b2a565b6109879190611cec565b90506040518061014001604052808981526020018881526020018781526020018381526020018281526020015f81526020015f60058111156109cc576109cb61172d565b5b81526020015f8152602001428152602001600115158152505f808681526020019081526020015f205f820151815f019081610a079190611f5c565b5060208201518160010155604082015181600201556060820151816003019080519060200190610a3892919061100c565b506080820151816004015560a0820151816005015560c0820151816006015f6101000a81548160ff02191690836005811115610a7757610a7661172d565b5b021790555060e082015181600701556101008201518160080155610120820151816009015f6101000a81548160ff021916908315150217905550905050600160025f8681526020019081526020015f205f6101000a81548160ff021916908315150217905550600184908060018154018082558091505060019003905f5260205f20015f90919091909150557f135fa55a9fc2214d4c41a1cf55c9422107d887890f2de6d85ef4146a403978aa848383604051610b36939291906120bd565b60405180910390a16040518060800160405280600115158152602001858152602001838152602001828152509450505050509392505050565b610b77611063565b60025f8381526020019081526020015f205f9054906101000a900460ff16610bd4576040517f08c379a0000000000000000000000000000000000000000000000000000000008152600401610bcb9061170f565b60405180910390fd5b5f805f8481526020019081526020015f20905060016005811115610bfb57610bfa61172d565b5b816006015f9054906101000a900460ff166005811115610c1e57610c1d61172d565b5b14610c5e576040517f08c379a0000000000000000000000000000000000000000000000000000000008152600401610c559061217c565b60405180910390fd5b6003816006015f6101000a81548160ff02191690836005811115610c8557610c8461172d565b5b021790555080600401548160050181905550604b81600701819055505f8067ffffffffffffffff811115610cbc57610cbb61134f565b5b604051908082528060200260200182016040528015610cef57816020015b6060815260200190600190039081610cda5790505b5090507fa7eddb991c5b00a92e5c24c4992f6ea2bf26d68cf7dc47123da806242b13595884836005015484600501545f85604051610d319594939291906121d3565b60405180910390a16040518060600160405280600115158152602001858152602001836005015481525092505050919050565b60605f8203610daa576040518060400160405280600181526020017f30000000000000000000000000000000000000000000000000000000000000008152509050610f79565b5f80831290505f81610dbc5783610dc7565b83610dc69061223e565b5b90505f8190505f5b5f8214610df8578080610de190611ca5565b915050600a82610df191906122b1565b9150610dcf565b5f84610e045781610e12565b600182610e1191906122e1565b5b67ffffffffffffffff811115610e2b57610e2a61134f565b5b6040519080825280601f01601f191660200182016040528015610e5d5781602001600182028036833780820191505090505b5090508415610ec9577f2d00000000000000000000000000000000000000000000000000000000000000815f81518110610e9a57610e99611c78565b5b60200101907effffffffffffffffffffffffffffffffffffffffffffffffffffffffffffff191690815f1a9053505b5f85610ed5575f610ed8565b60015b60ff1690505b5f8514610f6f578280610ef090612314565b935050600a85610f00919061233b565b6030610f0c91906122e1565b60f81b828483610f1c91906122e1565b81518110610f2d57610f2c611c78565b5b60200101907effffffffffffffffffffffffffffffffffffffffffffffffffffffffffffff191690815f1a905350600a85610f6891906122b1565b9450610ede565b8196505050505050505b919050565b60405180608001604052805f151581526020015f8019168152602001606081526020015f81525090565b60405180604001604052805f151581526020015f80191681525090565b60405180604001604052805f151581526020015f80191681525090565b60405180608001604052805f151581526020015f8019168152602001606081526020015f81525090565b828054828255905f5260205f20908101928215611052579160200282015b828111156110515782518290816110419190611f5c565b509160200191906001019061102a565b5b50905061105f9190611086565b5090565b60405180606001604052805f151581526020015f80191681526020015f81525090565b5b808211156110a5575f818161109c91906110a9565b50600101611087565b5090565b5080546110b590611d8f565b5f825580601f106110c657506110e3565b601f0160209004905f5260205f20908101906110e291906110e6565b5b50565b5b808211156110fd575f815f9055506001016110e7565b5090565b5f604051905090565b5f80fd5b5f80fd5b5f819050919050565b61112481611112565b811461112e575f80fd5b50565b5f8135905061113f8161111b565b92915050565b5f6020828403121561115a5761115961110a565b5b5f61116784828501611131565b91505092915050565b5f8115159050919050565b61118481611170565b82525050565b61119381611112565b82525050565b5f81519050919050565b5f82825260208201905092915050565b5f5b838110156111d05780820151818401526020810190506111b5565b5f8484015250505050565b5f601f19601f8301169050919050565b5f6111f582611199565b6111ff81856111a3565b935061120f8185602086016111b3565b611218816111db565b840191505092915050565b5f819050919050565b61123581611223565b82525050565b5f608083015f8301516112505f86018261117b565b506020830151611263602086018261118a565b506040830151848203604086015261127b82826111eb565b9150506060830151611290606086018261122c565b508091505092915050565b5f6020820190508181035f8301526112b3818461123b565b905092915050565b604082015f8201516112cf5f85018261117b565b5060208201516112e2602085018261118a565b50505050565b5f6040820190506112fb5f8301846112bb565b92915050565b604082015f8201516113155f85018261117b565b506020820151611328602085018261118a565b50505050565b5f6040820190506113415f830184611301565b92915050565b5f80fd5b5f80fd5b7f4e487b71000000000000000000000000000000000000000000000000000000005f52604160045260245ffd5b611385826111db565b810181811067ffffffffffffffff821117156113a4576113a361134f565b5b80604052505050565b5f6113b6611101565b90506113c2828261137c565b919050565b5f67ffffffffffffffff8211156113e1576113e061134f565b5b6113ea826111db565b9050602081019050919050565b828183375f83830152505050565b5f611417611412846113c7565b6113ad565b9050828152602081018484840111156114335761143261134b565b5b61143e8482856113f7565b509392505050565b5f82601f83011261145a57611459611347565b5b813561146a848260208601611405565b91505092915050565b5f819050919050565b61148581611473565b811461148f575f80fd5b50565b5f813590506114a08161147c565b92915050565b5f805f606084860312156114bd576114bc61110a565b5b5f84013567ffffffffffffffff8111156114da576114d961110e565b5b6114e686828701611446565b93505060206114f786828701611492565b925050604061150886828701611492565b9150509250925092565b5f81519050919050565b5f82825260208201905092915050565b5f819050602082019050919050565b5f61154683836111eb565b905092915050565b5f602082019050919050565b5f61156482611512565b61156e818561151c565b9350836020820285016115808561152c565b805f5b858110156115bb578484038952815161159c858261153b565b94506115a78361154e565b925060208a01995050600181019050611583565b50829750879550505050505092915050565b6115d681611473565b82525050565b5f608083015f8301516115f15f86018261117b565b506020830151611604602086018261118a565b506040830151848203604086015261161c828261155a565b915050606083015161163160608601826115cd565b508091505092915050565b5f6020820190508181035f83015261165481846115dc565b905092915050565b606082015f8201516116705f85018261117b565b506020820151611683602085018261118a565b50604082015161169660408501826115cd565b50505050565b5f6060820190506116af5f83018461165c565b92915050565b5f82825260208201905092915050565b7f4d6967726174696f6e206e6f7420666f756e64000000000000000000000000005f82015250565b5f6116f96013836116b5565b9150611704826116c5565b602082019050919050565b5f6020820190508181035f830152611726816116ed565b9050919050565b7f4e487b71000000000000000000000000000000000000000000000000000000005f52602160045260245ffd5b7f6f6b0000000000000000000000000000000000000000000000000000000000005f82015250565b5f61178e6002836116b5565b91506117998261175a565b602082019050919050565b6117ad81611112565b82525050565b6117bc81611223565b82525050565b5f6060820190508181035f8301526117d981611782565b90506117e860208301856117a4565b6117f560408301846117b3565b9392505050565b7f4d6967726174696f6e206d75737420626520696e20506c616e6e6564207068615f8201527f736520746f20657870616e640000000000000000000000000000000000000000602082015250565b5f611856602c836116b5565b9150611861826117fc565b604082019050919050565b5f6020820190508181035f8301526118838161184a565b9050919050565b5f6040820190508181035f8301526118a181611782565b90506118b060208301846117a4565b92915050565b7f4d6967726174696f6e206d757374206265206d69677261746564206265666f725f8201527f6520636f6e7472616374696e6700000000000000000000000000000000000000602082015250565b5f611910602d836116b5565b915061191b826118b6565b604082019050919050565b5f6020820190508181035f83015261193d81611904565b9050919050565b7f436f6e63657074206d757374206e6f7420626520656d707479000000000000005f82015250565b5f6119786019836116b5565b915061198382611944565b602082019050919050565b5f6020820190508181035f8301526119a58161196c565b9050919050565b7f5461726765742076657273696f6e206d757374206265206772656174657220745f8201527f68616e20736f757263652076657273696f6e0000000000000000000000000000602082015250565b5f611a066032836116b5565b9150611a11826119ac565b604082019050919050565b5f6020820190508181035f830152611a33816119fa565b9050919050565b5f81905092915050565b5f611a4e82611199565b611a588185611a3a565b9350611a688185602086016111b3565b80840191505092915050565b5f819050919050565b611a8e611a8982611473565b611a74565b82525050565b5f819050919050565b611aae611aa982611223565b611a94565b82525050565b5f611abf8287611a44565b9150611acb8286611a7d565b602082019150611adb8285611a7d565b602082019150611aeb8284611a9d565b60208201915081905095945050505050565b7f4e487b71000000000000000000000000000000000000000000000000000000005f52601160045260245ffd5b5f611b3482611473565b9150611b3f83611473565b925082820390508181125f8412168282135f851215161715611b6457611b63611afd565b5b92915050565b5f611b7482611473565b9150611b7f83611473565b92508282019050828112155f8312168382125f841215161715611ba557611ba4611afd565b5b92915050565b7f6d6967726174655f7600000000000000000000000000000000000000000000005f82015250565b5f611bdf600983611a3a565b9150611bea82611bab565b600982019050919050565b7f5f746f5f760000000000000000000000000000000000000000000000000000005f82015250565b5f611c29600583611a3a565b9150611c3482611bf5565b600582019050919050565b5f611c4982611bd3565b9150611c558285611a44565b9150611c6082611c1d565b9150611c6c8284611a44565b91508190509392505050565b7f4e487b71000000000000000000000000000000000000000000000000000000005f52603260045260245ffd5b5f611caf82611223565b91507fffffffffffffffffffffffffffffffffffffffffffffffffffffffffffffffff8203611ce157611ce0611afd565b5b600182019050919050565b5f611cf682611473565b9150611d0183611473565b9250828202611d0f81611473565b91507f800000000000000000000000000000000000000000000000000000000000000084145f84121615611d4657611d45611afd565b5b8282058414831517611d5b57611d5a611afd565b5b5092915050565b7f4e487b71000000000000000000000000000000000000000000000000000000005f52602260045260245ffd5b5f6002820490506001821680611da657607f821691505b602082108103611db957611db8611d62565b5b50919050565b5f819050815f5260205f209050919050565b5f6020601f8301049050919050565b5f82821b905092915050565b5f60088302611e1b7fffffffffffffffffffffffffffffffffffffffffffffffffffffffffffffffff82611de0565b611e258683611de0565b95508019841693508086168417925050509392505050565b5f819050919050565b5f611e60611e5b611e5684611223565b611e3d565b611223565b9050919050565b5f819050919050565b611e7983611e46565b611e8d611e8582611e67565b848454611dec565b825550505050565b5f90565b611ea1611e95565b611eac818484611e70565b505050565b5b81811015611ecf57611ec45f82611e99565b600181019050611eb2565b5050565b601f821115611f1457611ee581611dbf565b611eee84611dd1565b81016020851015611efd578190505b611f11611f0985611dd1565b830182611eb1565b50505b505050565b5f82821c905092915050565b5f611f345f1984600802611f19565b1980831691505092915050565b5f611f4c8383611f25565b9150826002028217905092915050565b611f6582611199565b67ffffffffffffffff811115611f7e57611f7d61134f565b5b611f888254611d8f565b611f93828285611ed3565b5f60209050601f831160018114611fc4575f8415611fb2578287015190505b611fbc8582611f41565b865550612023565b601f198416611fd286611dbf565b5f5b82811015611ff957848901518255600182019150602085019450602081019050611fd4565b868310156120165784890151612012601f891682611f25565b8355505b6001600288020188555050505b505050505050565b5f82825260208201905092915050565b5f61204582611512565b61204f818561202b565b9350836020820285016120618561152c565b805f5b8581101561209c578484038952815161207d858261153b565b94506120888361154e565b925060208a01995050600181019050612064565b50829750879550505050505092915050565b6120b781611473565b82525050565b5f6080820190508181035f8301526120d481611782565b90506120e360208301866117a4565b81810360408301526120f5818561203b565b905061210460608301846120ae565b949350505050565b7f4d6967726174696f6e206d75737420626520657870616e646564206265666f725f8201527f65206d6967726174696e67000000000000000000000000000000000000000000602082015250565b5f612166602b836116b5565b91506121718261210c565b604082019050919050565b5f6020820190508181035f8301526121938161215a565b9050919050565b5f819050919050565b5f6121bd6121b86121b38461219a565b611e3d565b611473565b9050919050565b6121cd816121a3565b82525050565b5f60c0820190508181035f8301526121ea81611782565b90506121f960208301886117a4565b61220660408301876120ae565b61221360608301866120ae565b61222060808301856121c4565b81810360a0830152612232818461203b565b90509695505050505050565b5f61224882611473565b91507f8000000000000000000000000000000000000000000000000000000000000000820361227a57612279611afd565b5b815f039050919050565b7f4e487b71000000000000000000000000000000000000000000000000000000005f52601260045260245ffd5b5f6122bb82611223565b91506122c683611223565b9250826122d6576122d5612284565b5b828204905092915050565b5f6122eb82611223565b91506122f683611223565b925082820190508082111561230e5761230d611afd565b5b92915050565b5f61231e82611223565b91505f82036123305761232f611afd565b5b600182039050919050565b5f61234582611223565b915061235083611223565b9250826123605761235f612284565b5b82820690509291505056fea264697066735822122027dc599fca4b783dca0eed98d813a0e8cfd1ae4823cf542d37e518ca5d7b604164736f6c63430008140033","linkReferences":{}},"methodIdentifiers":{"contractMigration(bytes32)":"bbadcc9f","expand(bytes32)":"8eeeec67","migrate(bytes32)":"e19b8ee3","plan(string,int256,int256)":"dcdfae7a","status(bytes32)":"52ad0d5e"},"id":171}