{"abi":[{"type":"function","name":"addEdge","inputs":[{"name":"source","type":"bytes32","internalType":"bytes32"},{"name":"target","type":"bytes32","internalType":"bytes32"}],"outputs":[],"stateMutability":"nonpayable"},{"type":"function","name":"addNode","inputs":[{"name":"entityId","type":"bytes32","internalType":"bytes32"}],"outputs":[],"stateMutability":"nonpayable"},{"type":"function","name":"getInEdges","inputs":[{"name":"entityId","type":"bytes32","internalType":"bytes32"}],"outputs":[{"name":"","type":"bytes32[]","internalType":"bytes32[]"}],"stateMutability":"view"},{"type":"function","name":"getOutEdges","inputs":[{"name":"entityId","type":"bytes32","internalType":"bytes32"}],"outputs":[{"name":"","type":"bytes32[]","internalType":"bytes32[]"}],"stateMutability":"view"},{"type":"function","name":"nodeExists","inputs":[{"name":"entityId","type":"bytes32","internalType":"bytes32"}],"outputs":[{"name":"","type":"bool","internalType":"bool"}],"stateMutability":"view"},{"type":"function","name":"removeEdge","inputs":[{"name":"source","type":"bytes32","internalType":"bytes32"},{"name":"target","type":"bytes32","internalType":"bytes32"}],"outputs":[],"stateMutability":"nonpayable"},{"type":"function","name":"removeNode","inputs":[{"name":"entityId","type":"bytes32","internalType":"bytes32"}],"outputs":[],"stateMutability":"nonpayable"},{"type":"event","name":"EdgeAdded","inputs":[{"name":"source","type":"bytes32","indexed":true,"internalType":"bytes32"},{"name":"target","type":"bytes32","indexed":true,"internalType":"bytes32"}],"anonymous":false},{"type":"event","name":"EdgeRemoved","inputs":[{"name":"source","type":"bytes32","indexed":true,"internalType":"bytes32"},{"name":"target","type":"bytes32","indexed":true,"internalType":"bytes32"}],"anonymous":false},{"type":"event","name":"NodeAdded","inputs":[{"name":"entityId","type":"bytes32","indexed":true,"internalType":"bytes32"}],"anonymous":false},{"type":"event","name":"NodeRemoved","inputs":[{"name":"entityId","type":"bytes32","indexed":true,"internalType":"bytes32"}],"anonymous":false}],"bytecode":{"object":"0x608060405234801561000f575f80fd5b50610e618061001d5f395ff3fe608060405234801561000f575f80fd5b506004361061007b575f3560e01c80637abcf642116100595780637abcf642146100d3578063bbbd72e5146100ef578063cfbd42a21461011f578063fc3581971461014f5761007b565b8063114b19721461007f57806316c588241461009b57806361fc6d1f146100b7575b5f80fd5b610099600480360381019061009491906108e3565b61017f565b005b6100b560048036038101906100b09190610921565b61040c565b005b6100d160048036038101906100cc9190610921565b6104bf565b005b6100ed60048036038101906100e891906108e3565b610574565b005b61010960048036038101906101049190610921565b6107b9565b6040516101169190610a03565b60405180910390f35b61013960048036038101906101349190610921565b610820565b6040516101469190610a03565b60405180910390f35b61016960048036038101906101649190610921565b610887565b6040516101769190610a3d565b60405180910390f35b5f8282604051602001610193929190610a76565b60405160208183030381529060405280519060200120905060015f8281526020019081526020015f206002015f9054906101000a900460ff1661020b576040517f08c379a000000000000000000000000000000000000000000000000000000000815260040161020290610afb565b60405180910390fd5b60015f8281526020019081526020015f205f8082015f9055600182015f9055600282015f6101000a81549060ff021916905550505f60025f8581526020019081526020015f2090505f5b818054905081101561030a578382828154811061027557610274610b19565b5b905f5260205f200154036102f75781600183805490506102959190610b7c565b815481106102a6576102a5610b19565b5b905f5260205f2001548282815481106102c2576102c1610b19565b5b905f5260205f200181905550818054806102df576102de610baf565b5b600190038181905f5260205f20015f9055905561030a565b808061030290610bdc565b915050610255565b505f60035f8581526020019081526020015f2090505f5b81805490508110156103d6578582828154811061034157610340610b19565b5b905f5260205f200154036103c35781600183805490506103619190610b7c565b8154811061037257610371610b19565b5b905f5260205f20015482828154811061038e5761038d610b19565b5b905f5260205f200181905550818054806103ab576103aa610baf565b5b600190038181905f5260205f20015f905590556103d6565b80806103ce90610bdc565b915050610321565b5083857ff6c829ec11e7e4087030ca9c3826ae5372efb19f6aff11a2ea7ce2c7e9ed636f60405160405180910390a35050505050565b5f808281526020019081526020015f205f9054906101000a900460ff16610468576040517f08c379a000000000000000000000000000000000000000000000000000000000815260040161045f90610c6d565b60405180910390fd5b5f805f8381526020019081526020015f205f6101000a81548160ff021916908315150217905550807f5254e609a97bab37b7cc79fe128f85c097bd6015c6e1624ae0ba392eb975320560405160405180910390a250565b5f808281526020019081526020015f205f9054906101000a900460ff161561051c576040517f08c379a000000000000000000000000000000000000000000000000000000000815260040161051390610cd5565b60405180910390fd5b60015f808381526020019081526020015f205f6101000a81548160ff021916908315150217905550807f9789a7ebab1e3d4a74f1c22b0ae2a212125ac931a6227e44d5a5a7aaf30dda7560405160405180910390a250565b5f808381526020019081526020015f205f9054906101000a900460ff166105d0576040517f08c379a00000000000000000000000000000000000000000000000000000000081526004016105c790610d3d565b60405180910390fd5b5f808281526020019081526020015f205f9054906101000a900460ff1661062c576040517f08c379a000000000000000000000000000000000000000000000000000000000815260040161062390610da5565b60405180910390fd5b5f8282604051602001610640929190610a76565b60405160208183030381529060405280519060200120905060015f8281526020019081526020015f206002015f9054906101000a900460ff16156106b9576040517f08c379a00000000000000000000000000000000000000000000000000000000081526004016106b090610e0d565b60405180910390fd5b60405180606001604052808481526020018381526020016001151581525060015f8381526020019081526020015f205f820151815f0155602082015181600101556040820151816002015f6101000a81548160ff02191690831515021790555090505060025f8481526020019081526020015f2082908060018154018082558091505060019003905f5260205f20015f909190919091505560035f8381526020019081526020015f2083908060018154018082558091505060019003905f5260205f20015f909190919091505581837fe151383f9ac47389330989ba460bacb46be3717cc595f8a80717a293c4fc22f660405160405180910390a3505050565b606060035f8381526020019081526020015f2080548060200260200160405190810160405280929190818152602001828054801561081457602002820191905f5260205f20905b815481526020019060010190808311610800575b50505050509050919050565b606060025f8381526020019081526020015f2080548060200260200160405190810160405280929190818152602001828054801561087b57602002820191905f5260205f20905b815481526020019060010190808311610867575b50505050509050919050565b5f805f8381526020019081526020015f205f9054906101000a900460ff169050919050565b5f80fd5b5f819050919050565b6108c2816108b0565b81146108cc575f80fd5b50565b5f813590506108dd816108b9565b92915050565b5f80604083850312156108f9576108f86108ac565b5b5f610906858286016108cf565b9250506020610917858286016108cf565b9150509250929050565b5f60208284031215610936576109356108ac565b5b5f610943848285016108cf565b91505092915050565b5f81519050919050565b5f82825260208201905092915050565b5f819050602082019050919050565b61097e816108b0565b82525050565b5f61098f8383610975565b60208301905092915050565b5f602082019050919050565b5f6109b18261094c565b6109bb8185610956565b93506109c683610966565b805f5b838110156109f65781516109dd8882610984565b97506109e88361099b565b9250506001810190506109c9565b5085935050505092915050565b5f6020820190508181035f830152610a1b81846109a7565b905092915050565b5f8115159050919050565b610a3781610a23565b82525050565b5f602082019050610a505f830184610a2e565b92915050565b5f819050919050565b610a70610a6b826108b0565b610a56565b82525050565b5f610a818285610a5f565b602082019150610a918284610a5f565b6020820191508190509392505050565b5f82825260208201905092915050565b7f4564676520646f6573206e6f74206578697374000000000000000000000000005f82015250565b5f610ae5601383610aa1565b9150610af082610ab1565b602082019050919050565b5f6020820190508181035f830152610b1281610ad9565b9050919050565b7f4e487b71000000000000000000000000000000000000000000000000000000005f52603260045260245ffd5b5f819050919050565b7f4e487b71000000000000000000000000000000000000000000000000000000005f52601160045260245ffd5b5f610b8682610b46565b9150610b9183610b46565b9250828203905081811115610ba957610ba8610b4f565b5b92915050565b7f4e487b71000000000000000000000000000000000000000000000000000000005f52603160045260245ffd5b5f610be682610b46565b91507fffffffffffffffffffffffffffffffffffffffffffffffffffffffffffffffff8203610c1857610c17610b4f565b5b600182019050919050565b7f4e6f646520646f6573206e6f74206578697374000000000000000000000000005f82015250565b5f610c57601383610aa1565b9150610c6282610c23565b602082019050919050565b5f6020820190508181035f830152610c8481610c4b565b9050919050565b7f4e6f646520616c726561647920657869737473000000000000000000000000005f82015250565b5f610cbf601383610aa1565b9150610cca82610c8b565b602082019050919050565b5f6020820190508181035f830152610cec81610cb3565b9050919050565b7f536f75726365206e6f646520646f6573206e6f742065786973740000000000005f82015250565b5f610d27601a83610aa1565b9150610d3282610cf3565b602082019050919050565b5f6020820190508181035f830152610d5481610d1b565b9050919050565b7f546172676574206e6f646520646f6573206e6f742065786973740000000000005f82015250565b5f610d8f601a83610aa1565b9150610d9a82610d5b565b602082019050919050565b5f6020820190508181035f830152610dbc81610d83565b9050919050565b7f4564676520616c726561647920657869737473000000000000000000000000005f82015250565b5f610df7601383610aa1565b9150610e0282610dc3565b602082019050919050565b5f6020820190508181035f830152610e2481610deb565b905091905056fea26469706673582212201a2763c0b3bee17e6874ebc5f9b2d1c626831c650c99c5f44b0fe9d2f92497d464736f6c63430008140033","linkReferences":{}},"methodIdentifiers":{"addEdge(bytes32,bytes32)":"7abcf642","addNode(bytes32)":"61fc6d1f","getInEdges(bytes32)":"bbbd72e5","getOutEdges(bytes32)":"cfbd42a2","nodeExists(bytes32)":"fc358197","removeEdge(bytes32,bytes32)":"114b1972","removeNode(bytes32)":"16c58824"},"id":136}