{"abi":[{"type":"function","name":"diff","inputs":[{"name":"a","type":"bytes32","internalType":"bytes32"},{"name":"b","type":"bytes32","internalType":"bytes32"}],"outputs":[{"name":"changes","type":"string","internalType":"string"}],"stateMutability":"view"},{"type":"function","name":"extract","inputs":[{"name":"tree","type":"string","internalType":"string"},{"name":"startByte","type":"int256","internalType":"int256"},{"name":"endByte","type":"int256","internalType":"int256"}],"outputs":[{"name":"unitId","type":"bytes32","internalType":"bytes32"}],"stateMutability":"nonpayable"},{"type":"function","name":"findByPattern","inputs":[{"name":"kind","type":"string","internalType":"string"},{"name":"language","type":"string","internalType":"string"},{"name":"namePattern","type":"string","internalType":"string"}],"outputs":[{"name":"units","type":"string","internalType":"string"}],"stateMutability":"view"},{"type":"function","name":"findBySymbol","inputs":[{"name":"symbol","type":"string","internalType":"string"}],"outputs":[{"name":"unitId","type":"bytes32","internalType":"bytes32"}],"stateMutability":"view"},{"type":"function","name":"getUnit","inputs":[{"name":"unitId","type":"bytes32","internalType":"bytes32"}],"outputs":[{"name":"tree","type":"string","internalType":"string"},{"name":"startByte","type":"int256","internalType":"int256"},{"name":"endByte","type":"int256","internalType":"int256"},{"name":"symbol","type":"string","internalType":"string"}],"stateMutability":"view"},{"type":"event","name":"DiffCompleted","inputs":[{"name":"variant","type":"string","indexed":false,"internalType":"string"}],"anonymous":false},{"type":"event","name":"ExtractCompleted","inputs":[{"name":"variant","type":"string","indexed":false,"internalType":"string"},{"name":"unit","type":"bytes32","indexed":false,"internalType":"bytes32"}],"anonymous":false},{"type":"event","name":"FindByPatternCompleted","inputs":[{"name":"variant","type":"string","indexed":false,"internalType":"string"}],"anonymous":false},{"type":"event","name":"FindBySymbolCompleted","inputs":[{"name":"variant","type":"string","indexed":false,"internalType":"string"},{"name":"unit","type":"bytes32","indexed":false,"internalType":"bytes32"}],"anonymous":false}],"bytecode":{"object":"0x608060405234801561000f575f80fd5b506121a98061001d5f395ff3fe608060405234801561000f575f80fd5b5060043610610055575f3560e01c806323fa6b0c1461005957806327b783c71461008c57806335c69dae146100bc57806364bf3679146100ec57806379c7a1411461011c575b5f80fd5b610073600480360381019061006e9190610fa2565b61014c565b604051610083949392919061106f565b60405180910390f35b6100a660048036038101906100a191906111ec565b6102f9565b6040516100b39190611242565b60405180910390f35b6100d660048036038101906100d19190611285565b6103c5565b6040516100e39190611242565b60405180910390f35b610106600480360381019061010191906112f1565b610660565b604051610113919061132f565b60405180910390f35b6101366004803603810190610131919061134f565b6108cd565b604051610143919061132f565b60405180910390f35b60605f8060605f808681526020019081526020015f206006015f9054906101000a900460ff166101b1576040517f08c379a00000000000000000000000000000000000000000000000000000000081526004016101a89061143d565b60405180910390fd5b5f805f8781526020019081526020015f209050805f0181600101548260020154836003018380546101e190611488565b80601f016020809104026020016040519081016040528092919081815260200182805461020d90611488565b80156102585780601f1061022f57610100808354040283529160200191610258565b820191905f5260205f20905b81548152906001019060200180831161023b57829003601f168201915b5050505050935080805461026b90611488565b80601f016020809104026020016040519081016040528092919081815260200182805461029790611488565b80156102e25780601f106102b9576101008083540402835291602001916102e2565b820191905f5260205f20905b8154815290600101906020018083116102c557829003601f168201915b505050505090509450945094509450509193509193565b5f8082511161033d576040517f08c379a000000000000000000000000000000000000000000000000000000000815260040161033490611502565b60405180910390fd5b5f8260405160200161034f919061155a565b60405160208183030381529060405280519060200120905060025f8281526020019081526020015f205491505f801b82036103bf576040517f08c379a00000000000000000000000000000000000000000000000000000000081526004016103b6906115ba565b60405180910390fd5b50919050565b5f80845111610409576040517f08c379a000000000000000000000000000000000000000000000000000000000815260040161040090611622565b60405180910390fd5b82821361044b576040517f08c379a0000000000000000000000000000000000000000000000000000000008152600401610442906116b0565b60405180910390fd5b838383604051602001610460939291906116ee565b6040516020818303038152906040528051906020012090505f8461048385610a7f565b604051602001610494929190611770565b60405160208183030381529060405290506040518060e001604052808681526020018581526020018481526020018281526020016040518060400160405280600a81526020017f646566696e6974696f6e00000000000000000000000000000000000000000000815250815260200160405180602001604052805f8152508152602001600115158152505f808481526020019081526020015f205f820151815f0190816105419190611944565b506020820151816001015560408201518160020155606082015181600301908161056b9190611944565b5060808201518160040190816105819190611944565b5060a08201518160050190816105979190611944565b5060c0820151816006015f6101000a81548160ff0219169083151502179055509050505f816040516020016105cc919061155a565b6040516020818303038152906040528051906020012090508260025f8381526020019081526020015f2081905550600183908060018154018082558091505060019003905f5260205f20015f90919091909150557fa226a40596aff0fb9399ac1f480d69a124533db129ea47bcaef663c1af6889e08360405161064f9190611a5d565b60405180910390a150509392505050565b60605f808481526020019081526020015f206006015f9054906101000a900460ff166106c1576040517f08c379a00000000000000000000000000000000000000000000000000000000081526004016106b890611ad3565b60405180910390fd5b5f808381526020019081526020015f206006015f9054906101000a900460ff16610720576040517f08c379a000000000000000000000000000000000000000000000000000000000815260040161071790611b3b565b60405180910390fd5b5f808381526020019081526020015f205f015f808481526020019081526020015f20600101545f808581526020019081526020015f206002015460405160200161076c93929190611bd9565b604051602081830303815290604052805190602001205f808581526020019081526020015f205f015f808681526020019081526020015f20600101545f808781526020019081526020015f20600201546040516020016107ce93929190611bd9565b6040516020818303038152906040528051906020012003610826576040518060400160405280600981526020017f6964656e746963616c000000000000000000000000000000000000000000000081525090506108c7565b5f805f8581526020019081526020015f20600101545f808681526020019081526020015f20600201546108599190611c3e565b90505f805f8581526020019081526020015f20600101545f808681526020019081526020015f206002015461088e9190611c3e565b905061089982610a7f565b6108a282610a7f565b6040516020016108b3929190611d12565b604051602081830303815290604052925050505b92915050565b6060805f80868051906020012090505f868051906020012090505f8089511190505f8089511190505f5b600180549050811015610a4f575f6001828154811061091957610918611d4b565b5b905f5260205f20015490505f808281526020019081526020015f206006015f9054906101000a900460ff1661094e5750610a3c565b5f600190508480156109875750865f808481526020019081526020015f2060040160405161097c9190611e14565b604051809103902014155b15610990575f90505b8380156109c45750855f808481526020019081526020015f206005016040516109b99190611e14565b604051809103902014155b156109cd575f90505b8015610a39575f8811156109fe57886040516020016109ec9190611eae565b60405160208183030381529060405298505b88610a0883610c92565b604051602001610a19929190611ecf565b60405160208183030381529060405298508780610a3590611ef2565b9850505b50505b8080610a4790611ef2565b9150506108f7565b5085604051602001610a619190611fcd565b60405160208183030381529060405296505050505050509392505050565b60605f8203610ac5576040518060400160405280600181526020017f30000000000000000000000000000000000000000000000000000000000000008152509050610c8d565b5f80831290505f81610ad75783610ae2565b83610ae190611ff9565b5b90505f8190505f5b5f8214610b13578080610afc90611ef2565b915050600a82610b0c919061206c565b9150610aea565b5f84610b1f5781610b2d565b600182610b2c919061209c565b5b67ffffffffffffffff811115610b4657610b456110c8565b5b6040519080825280601f01601f191660200182016040528015610b785781602001600182028036833780820191505090505b5090508415610be4577f2d00000000000000000000000000000000000000000000000000000000000000815f81518110610bb557610bb4611d4b565b5b60200101907effffffffffffffffffffffffffffffffffffffffffffffffffffffffffffff191690815f1a9053505b5b5f8414610c8457600182610bf991906120cf565b9150600a84610c089190612102565b6030610c14919061209c565b60f81b8186610c235783610c31565b600184610c30919061209c565b5b81518110610c4257610c41611d4b565b5b60200101907effffffffffffffffffffffffffffffffffffffffffffffffffffffffffffff191690815f1a905350600a84610c7d919061206c565b9350610be5565b80955050505050505b919050565b60605f6040518060400160405280601081526020017f303132333435363738396162636465660000000000000000000000000000000081525090505f604267ffffffffffffffff811115610ce957610ce86110c8565b5b6040519080825280601f01601f191660200182016040528015610d1b5781602001600182028036833780820191505090505b5090507f3000000000000000000000000000000000000000000000000000000000000000815f81518110610d5257610d51611d4b565b5b60200101907effffffffffffffffffffffffffffffffffffffffffffffffffffffffffffff191690815f1a9053507f780000000000000000000000000000000000000000000000000000000000000081600181518110610db557610db4611d4b565b5b60200101907effffffffffffffffffffffffffffffffffffffffffffffffffffffffffffff191690815f1a9053505f5b6020811015610f5357826004868360208110610e0457610e03611d4b565b5b1a60f81b7effffffffffffffffffffffffffffffffffffffffffffffffffffffffffffff1916901c60f81c60ff1681518110610e4357610e42611d4b565b5b602001015160f81c60f81b82600283610e5c9190612132565b6002610e68919061209c565b81518110610e7957610e78611d4b565b5b60200101907effffffffffffffffffffffffffffffffffffffffffffffffffffffffffffff191690815f1a90535082600f60f81b868360208110610ec057610ebf611d4b565b5b1a60f81b1660f81c60ff1681518110610edc57610edb611d4b565b5b602001015160f81c60f81b82600283610ef59190612132565b6003610f01919061209c565b81518110610f1257610f11611d4b565b5b60200101907effffffffffffffffffffffffffffffffffffffffffffffffffffffffffffff191690815f1a9053508080610f4b90611ef2565b915050610de5565b508092505050919050565b5f604051905090565b5f80fd5b5f80fd5b5f819050919050565b610f8181610f6f565b8114610f8b575f80fd5b50565b5f81359050610f9c81610f78565b92915050565b5f60208284031215610fb757610fb6610f67565b5b5f610fc484828501610f8e565b91505092915050565b5f81519050919050565b5f82825260208201905092915050565b5f5b83811015611004578082015181840152602081019050610fe9565b5f8484015250505050565b5f601f19601f8301169050919050565b5f61102982610fcd565b6110338185610fd7565b9350611043818560208601610fe7565b61104c8161100f565b840191505092915050565b5f819050919050565b61106981611057565b82525050565b5f6080820190508181035f830152611087818761101f565b90506110966020830186611060565b6110a36040830185611060565b81810360608301526110b5818461101f565b905095945050505050565b5f80fd5b5f80fd5b7f4e487b71000000000000000000000000000000000000000000000000000000005f52604160045260245ffd5b6110fe8261100f565b810181811067ffffffffffffffff8211171561111d5761111c6110c8565b5b80604052505050565b5f61112f610f5e565b905061113b82826110f5565b919050565b5f67ffffffffffffffff82111561115a576111596110c8565b5b6111638261100f565b9050602081019050919050565b828183375f83830152505050565b5f61119061118b84611140565b611126565b9050828152602081018484840111156111ac576111ab6110c4565b5b6111b7848285611170565b509392505050565b5f82601f8301126111d3576111d26110c0565b5b81356111e384826020860161117e565b91505092915050565b5f6020828403121561120157611200610f67565b5b5f82013567ffffffffffffffff81111561121e5761121d610f6b565b5b61122a848285016111bf565b91505092915050565b61123c81610f6f565b82525050565b5f6020820190506112555f830184611233565b92915050565b61126481611057565b811461126e575f80fd5b50565b5f8135905061127f8161125b565b92915050565b5f805f6060848603121561129c5761129b610f67565b5b5f84013567ffffffffffffffff8111156112b9576112b8610f6b565b5b6112c5868287016111bf565b93505060206112d686828701611271565b92505060406112e786828701611271565b9150509250925092565b5f806040838503121561130757611306610f67565b5b5f61131485828601610f8e565b925050602061132585828601610f8e565b9150509250929050565b5f6020820190508181035f830152611347818461101f565b905092915050565b5f805f6060848603121561136657611365610f67565b5b5f84013567ffffffffffffffff81111561138357611382610f6b565b5b61138f868287016111bf565b935050602084013567ffffffffffffffff8111156113b0576113af610f6b565b5b6113bc868287016111bf565b925050604084013567ffffffffffffffff8111156113dd576113dc610f6b565b5b6113e9868287016111bf565b9150509250925092565b7f556e6974206e6f7420666f756e640000000000000000000000000000000000005f82015250565b5f611427600e83610fd7565b9150611432826113f3565b602082019050919050565b5f6020820190508181035f8301526114548161141b565b9050919050565b7f4e487b71000000000000000000000000000000000000000000000000000000005f52602260045260245ffd5b5f600282049050600182168061149f57607f821691505b6020821081036114b2576114b161145b565b5b50919050565b7f53796d626f6c2063616e6e6f7420626520656d707479000000000000000000005f82015250565b5f6114ec601683610fd7565b91506114f7826114b8565b602082019050919050565b5f6020820190508181035f830152611519816114e0565b9050919050565b5f81905092915050565b5f61153482610fcd565b61153e8185611520565b935061154e818560208601610fe7565b80840191505092915050565b5f611565828461152a565b915081905092915050565b7f53796d626f6c206e6f7420666f756e64000000000000000000000000000000005f82015250565b5f6115a4601083610fd7565b91506115af82611570565b602082019050919050565b5f6020820190508181035f8301526115d181611598565b9050919050565b7f547265652063616e6e6f7420626520656d7074790000000000000000000000005f82015250565b5f61160c601483610fd7565b9150611617826115d8565b602082019050919050565b5f6020820190508181035f83015261163981611600565b9050919050565b7f456e642062797465206d757374206265206166746572207374617274206279745f8201527f6500000000000000000000000000000000000000000000000000000000000000602082015250565b5f61169a602183610fd7565b91506116a582611640565b604082019050919050565b5f6020820190508181035f8301526116c78161168e565b9050919050565b5f819050919050565b6116e86116e382611057565b6116ce565b82525050565b5f6116f9828661152a565b915061170582856116d7565b60208201915061171582846116d7565b602082019150819050949350505050565b7f3a000000000000000000000000000000000000000000000000000000000000005f82015250565b5f61175a600183611520565b915061176582611726565b600182019050919050565b5f61177b828561152a565b91506117868261174e565b9150611792828461152a565b91508190509392505050565b5f819050815f5260205f209050919050565b5f6020601f8301049050919050565b5f82821b905092915050565b5f600883026117fa7fffffffffffffffffffffffffffffffffffffffffffffffffffffffffffffffff826117bf565b61180486836117bf565b95508019841693508086168417925050509392505050565b5f819050919050565b5f819050919050565b5f61184861184361183e8461181c565b611825565b61181c565b9050919050565b5f819050919050565b6118618361182e565b61187561186d8261184f565b8484546117cb565b825550505050565b5f90565b61188961187d565b611894818484611858565b505050565b5b818110156118b7576118ac5f82611881565b60018101905061189a565b5050565b601f8211156118fc576118cd8161179e565b6118d6846117b0565b810160208510156118e5578190505b6118f96118f1856117b0565b830182611899565b50505b505050565b5f82821c905092915050565b5f61191c5f1984600802611901565b1980831691505092915050565b5f611934838361190d565b9150826002028217905092915050565b61194d82610fcd565b67ffffffffffffffff811115611966576119656110c8565b5b6119708254611488565b61197b8282856118bb565b5f60209050601f8311600181146119ac575f841561199a578287015190505b6119a48582611929565b865550611a0b565b601f1984166119ba8661179e565b5f5b828110156119e1578489015182556001820191506020850194506020810190506119bc565b868310156119fe57848901516119fa601f89168261190d565b8355505b6001600288020188555050505b505050505050565b7f6f6b0000000000000000000000000000000000000000000000000000000000005f82015250565b5f611a47600283610fd7565b9150611a5282611a13565b602082019050919050565b5f6040820190508181035f830152611a7481611a3b565b9050611a836020830184611233565b92915050565b7f556e69742041206e6f7420666f756e64000000000000000000000000000000005f82015250565b5f611abd601083610fd7565b9150611ac882611a89565b602082019050919050565b5f6020820190508181035f830152611aea81611ab1565b9050919050565b7f556e69742042206e6f7420666f756e64000000000000000000000000000000005f82015250565b5f611b25601083610fd7565b9150611b3082611af1565b602082019050919050565b5f6020820190508181035f830152611b5281611b19565b9050919050565b5f8154611b6581611488565b611b6f8186611520565b9450600182165f8114611b895760018114611b9e57611bd0565b60ff1983168652811515820286019350611bd0565b611ba78561179e565b5f5b83811015611bc857815481890152600182019150602081019050611ba9565b838801955050505b50505092915050565b5f611be48286611b59565b9150611bf082856116d7565b602082019150611c0082846116d7565b602082019150819050949350505050565b7f4e487b71000000000000000000000000000000000000000000000000000000005f52601160045260245ffd5b5f611c4882611057565b9150611c5383611057565b925082820390508181125f8412168282135f851215161715611c7857611c77611c11565b5b92915050565b7f6d6f6469666965643a73697a655f613d000000000000000000000000000000005f82015250565b5f611cb2601083611520565b9150611cbd82611c7e565b601082019050919050565b7f2c73697a655f623d0000000000000000000000000000000000000000000000005f82015250565b5f611cfc600883611520565b9150611d0782611cc8565b600882019050919050565b5f611d1c82611ca6565b9150611d28828561152a565b9150611d3382611cf0565b9150611d3f828461152a565b91508190509392505050565b7f4e487b71000000000000000000000000000000000000000000000000000000005f52603260045260245ffd5b5f81905092915050565b5f819050815f5260205f209050919050565b5f8154611da081611488565b611daa8186611d78565b9450600182165f8114611dc45760018114611dd957611e0b565b60ff1983168652811515820286019350611e0b565b611de285611d82565b5f5b83811015611e0357815481890152600182019150602081019050611de4565b838801955050505b50505092915050565b5f611e1f8284611d94565b915081905092915050565b5f81519050919050565b5f611e3e82611e2a565b611e488185611d78565b9350611e58818560208601610fe7565b80840191505092915050565b7f2c000000000000000000000000000000000000000000000000000000000000005f82015250565b5f611e98600183611520565b9150611ea382611e64565b600182019050919050565b5f611eb98284611e34565b9150611ec482611e8c565b915081905092915050565b5f611eda8285611e34565b9150611ee6828461152a565b91508190509392505050565b5f611efc8261181c565b91507fffffffffffffffffffffffffffffffffffffffffffffffffffffffffffffffff8203611f2e57611f2d611c11565b5b600182019050919050565b7f5b000000000000000000000000000000000000000000000000000000000000005f82015250565b5f611f6d600183611520565b9150611f7882611f39565b600182019050919050565b7f5d000000000000000000000000000000000000000000000000000000000000005f82015250565b5f611fb7600183611520565b9150611fc282611f83565b600182019050919050565b5f611fd782611f61565b9150611fe38284611e34565b9150611fee82611fab565b915081905092915050565b5f61200382611057565b91507f8000000000000000000000000000000000000000000000000000000000000000820361203557612034611c11565b5b815f039050919050565b7f4e487b71000000000000000000000000000000000000000000000000000000005f52601260045260245ffd5b5f6120768261181c565b91506120818361181c565b9250826120915761209061203f565b5b828204905092915050565b5f6120a68261181c565b91506120b18361181c565b92508282019050808211156120c9576120c8611c11565b5b92915050565b5f6120d98261181c565b91506120e48361181c565b92508282039050818111156120fc576120fb611c11565b5b92915050565b5f61210c8261181c565b91506121178361181c565b9250826121275761212661203f565b5b828206905092915050565b5f61213c8261181c565b91506121478361181c565b92508282026121558161181c565b9150828204841483151761216c5761216b611c11565b5b509291505056fea264697066735822122095c4898f5d264b06fe6f58a6bdb1e22001fff33904b8437cf5c125452079351664736f6c63430008140033","linkReferences":{}},"methodIdentifiers":{"diff(bytes32,bytes32)":"64bf3679","extract(string,int256,int256)":"35c69dae","findByPattern(string,string,string)":"79c7a141","findBySymbol(string)":"27b783c7","getUnit(bytes32)":"23fa6b0c"},"id":92}