{"abi":[{"type":"function","name":"configCount","inputs":[],"outputs":[{"name":"","type":"uint256","internalType":"uint256"}],"stateMutability":"view"},{"type":"function","name":"getConfig","inputs":[{"name":"key","type":"bytes32","internalType":"bytes32"}],"outputs":[{"name":"found","type":"bool","internalType":"bool"},{"name":"value","type":"string","internalType":"string"}],"stateMutability":"view"},{"type":"function","name":"getOverride","inputs":[{"name":"key","type":"bytes32","internalType":"bytes32"},{"name":"layer","type":"string","internalType":"string"}],"outputs":[{"name":"found","type":"bool","internalType":"bool"},{"name":"value","type":"string","internalType":"string"}],"stateMutability":"view"},{"type":"function","name":"overrideConfig","inputs":[{"name":"key","type":"bytes32","internalType":"bytes32"},{"name":"value","type":"string","internalType":"string"},{"name":"layer","type":"string","internalType":"string"}],"outputs":[],"stateMutability":"nonpayable"},{"type":"function","name":"setConfig","inputs":[{"name":"key","type":"bytes32","internalType":"bytes32"},{"name":"value","type":"string","internalType":"string"}],"outputs":[],"stateMutability":"nonpayable"},{"type":"event","name":"ConfigOverridden","inputs":[{"name":"key","type":"bytes32","indexed":true,"internalType":"bytes32"},{"name":"layer","type":"string","indexed":false,"internalType":"string"}],"anonymous":false},{"type":"event","name":"ConfigSet","inputs":[{"name":"key","type":"bytes32","indexed":true,"internalType":"bytes32"}],"anonymous":false}],"bytecode":{"object":"0x608060405234801561000f575f80fd5b50610d2a8061001d5f395ff3fe608060405234801561000f575f80fd5b5060043610610055575f3560e01c80636dd5b69d14610059578063a06206341461008a578063bd210672146100a8578063d205c44d146100c4578063df6e40ba146100f5575b5f80fd5b610073600480360381019061006e919061059f565b610111565b60405161008192919061066e565b60405180910390f35b6100926101f5565b60405161009f91906106b4565b60405180910390f35b6100c260048036038101906100bd919061072e565b610201565b005b6100de60048036038101906100d991906107bf565b610323565b6040516100ec92919061066e565b60405180910390f35b61010f600480360381019061010a91906107bf565b61045c565b005b5f606060035f8481526020019081526020015f205f9054906101000a900460ff1661014f575f60405180602001604052805f815250915091506101f0565b60015f808581526020019081526020015f2080805461016d90610849565b80601f016020809104026020016040519081016040528092919081815260200182805461019990610849565b80156101e45780601f106101bb576101008083540402835291602001916101e4565b820191905f5260205f20905b8154815290600101906020018083116101c757829003601f168201915b50505050509050915091505b915091565b5f600280549050905090565b60035f8681526020019081526020015f205f9054906101000a900460ff1661025e576040517f08c379a0000000000000000000000000000000000000000000000000000000008152600401610255906108c3565b60405180910390fd5b5f82829050116102a3576040517f08c379a000000000000000000000000000000000000000000000000000000000815260040161029a9061092b565b60405180910390fd5b838360015f8881526020019081526020015f2084846040516102c6929190610985565b908152602001604051809103902091826102e1929190610b71565b50847f2ce04e4c6c4e74b4b90306e9d2c86bad4b6d4ef17281cfb139292e3e892a3df98383604051610314929190610c6a565b60405180910390a25050505050565b5f606060035f8681526020019081526020015f205f9054906101000a900460ff16610361575f60405180602001604052805f81525091509150610454565b5f60015f8781526020019081526020015f208585604051610383929190610985565b908152602001604051809103902090505f8180546103a090610849565b9050036103c1575f60405180602001604052805f8152509250925050610454565b6001818080546103d090610849565b80601f01602080910402602001604051908101604052809291908181526020018280546103fc90610849565b80156104475780601f1061041e57610100808354040283529160200191610447565b820191905f5260205f20905b81548152906001019060200180831161042a57829003601f168201915b5050505050905092509250505b935093915050565b5f801b83036104a0576040517f08c379a000000000000000000000000000000000000000000000000000000000815260040161049790610cd6565b60405180910390fd5b60035f8481526020019081526020015f205f9054906101000a900460ff1661051257600160035f8581526020019081526020015f205f6101000a81548160ff021916908315150217905550600283908060018154018082558091505060019003905f5260205f20015f90919091909150555b81815f808681526020019081526020015f209182610531929190610b71565b50827ff39a48ec38cbb1d27c765260d184904f6c3d1d8505307b0c242cd01a4e7734b460405160405180910390a2505050565b5f80fd5b5f80fd5b5f819050919050565b61057e8161056c565b8114610588575f80fd5b50565b5f8135905061059981610575565b92915050565b5f602082840312156105b4576105b3610564565b5b5f6105c18482850161058b565b91505092915050565b5f8115159050919050565b6105de816105ca565b82525050565b5f81519050919050565b5f82825260208201905092915050565b5f5b8381101561061b578082015181840152602081019050610600565b5f8484015250505050565b5f601f19601f8301169050919050565b5f610640826105e4565b61064a81856105ee565b935061065a8185602086016105fe565b61066381610626565b840191505092915050565b5f6040820190506106815f8301856105d5565b81810360208301526106938184610636565b90509392505050565b5f819050919050565b6106ae8161069c565b82525050565b5f6020820190506106c75f8301846106a5565b92915050565b5f80fd5b5f80fd5b5f80fd5b5f8083601f8401126106ee576106ed6106cd565b5b8235905067ffffffffffffffff81111561070b5761070a6106d1565b5b602083019150836001820283011115610727576107266106d5565b5b9250929050565b5f805f805f6060868803121561074757610746610564565b5b5f6107548882890161058b565b955050602086013567ffffffffffffffff81111561077557610774610568565b5b610781888289016106d9565b9450945050604086013567ffffffffffffffff8111156107a4576107a3610568565b5b6107b0888289016106d9565b92509250509295509295909350565b5f805f604084860312156107d6576107d5610564565b5b5f6107e38682870161058b565b935050602084013567ffffffffffffffff81111561080457610803610568565b5b610810868287016106d9565b92509250509250925092565b7f4e487b71000000000000000000000000000000000000000000000000000000005f52602260045260245ffd5b5f600282049050600182168061086057607f821691505b6020821081036108735761087261081c565b5b50919050565b7f436f6e666967206b6579206e6f7420666f756e640000000000000000000000005f82015250565b5f6108ad6014836105ee565b91506108b882610879565b602082019050919050565b5f6020820190508181035f8301526108da816108a1565b9050919050565b7f4c617965722063616e6e6f7420626520656d70747900000000000000000000005f82015250565b5f6109156015836105ee565b9150610920826108e1565b602082019050919050565b5f6020820190508181035f83015261094281610909565b9050919050565b5f81905092915050565b828183375f83830152505050565b5f61096c8385610949565b9350610979838584610953565b82840190509392505050565b5f610991828486610961565b91508190509392505050565b5f82905092915050565b7f4e487b71000000000000000000000000000000000000000000000000000000005f52604160045260245ffd5b5f819050815f5260205f209050919050565b5f6020601f8301049050919050565b5f82821b905092915050565b5f60088302610a307fffffffffffffffffffffffffffffffffffffffffffffffffffffffffffffffff826109f5565b610a3a86836109f5565b95508019841693508086168417925050509392505050565b5f819050919050565b5f610a75610a70610a6b8461069c565b610a52565b61069c565b9050919050565b5f819050919050565b610a8e83610a5b565b610aa2610a9a82610a7c565b848454610a01565b825550505050565b5f90565b610ab6610aaa565b610ac1818484610a85565b505050565b5b81811015610ae457610ad95f82610aae565b600181019050610ac7565b5050565b601f821115610b2957610afa816109d4565b610b03846109e6565b81016020851015610b12578190505b610b26610b1e856109e6565b830182610ac6565b50505b505050565b5f82821c905092915050565b5f610b495f1984600802610b2e565b1980831691505092915050565b5f610b618383610b3a565b9150826002028217905092915050565b610b7b838361099d565b67ffffffffffffffff811115610b9457610b936109a7565b5b610b9e8254610849565b610ba9828285610ae8565b5f601f831160018114610bd6575f8415610bc4578287013590505b610bce8582610b56565b865550610c35565b601f198416610be4866109d4565b5f5b82811015610c0b57848901358255600182019150602085019450602081019050610be6565b86831015610c285784890135610c24601f891682610b3a565b8355505b6001600288020188555050505b50505050505050565b5f610c4983856105ee565b9350610c56838584610953565b610c5f83610626565b840190509392505050565b5f6020820190508181035f830152610c83818486610c3e565b90509392505050565b7f436f6e666967206b65792063616e6e6f74206265207a65726f000000000000005f82015250565b5f610cc06019836105ee565b9150610ccb82610c8c565b602082019050919050565b5f6020820190508181035f830152610ced81610cb4565b905091905056fea264697066735822122071f1de20eb86d5e633d37267a8c434267bd0115657f37f3a1e9d3165dd82a5bc64736f6c63430008140033","linkReferences":{}},"methodIdentifiers":{"configCount()":"a0620634","getConfig(bytes32)":"6dd5b69d","getOverride(bytes32,string)":"d205c44d","overrideConfig(bytes32,string,string)":"bd210672","setConfig(bytes32,string)":"df6e40ba"},"id":73}