{"abi":[{"type":"function","name":"capabilities","inputs":[{"name":"tool","type":"bytes32","internalType":"bytes32"}],"outputs":[{"name":"","type":"tuple","internalType":"struct Toolchain.CapabilitiesOkResult","components":[{"name":"success","type":"bool","internalType":"bool"},{"name":"capabilities","type":"string[]","internalType":"string[]"}]}],"stateMutability":"nonpayable"},{"type":"function","name":"list","inputs":[{"name":"language","type":"string","internalType":"string"},{"name":"category","type":"string","internalType":"string"}],"outputs":[{"name":"","type":"tuple","internalType":"struct Toolchain.ListOkResult","components":[{"name":"success","type":"bool","internalType":"bool"},{"name":"tools","type":"bytes[]","internalType":"bytes[]"}]}],"stateMutability":"nonpayable"},{"type":"function","name":"resolve","inputs":[{"name":"language","type":"string","internalType":"string"},{"name":"platform","type":"string","internalType":"string"},{"name":"versionConstraint","type":"string","internalType":"string"},{"name":"category","type":"string","internalType":"string"},{"name":"toolName","type":"string","internalType":"string"}],"outputs":[{"name":"","type":"tuple","internalType":"struct Toolchain.ResolveOkResult","components":[{"name":"success","type":"bool","internalType":"bool"},{"name":"tool","type":"bytes32","internalType":"bytes32"},{"name":"version","type":"string","internalType":"string"},{"name":"path","type":"string","internalType":"string"},{"name":"capabilities","type":"string[]","internalType":"string[]"},{"name":"invocation","type":"bytes","internalType":"bytes"}]}],"stateMutability":"nonpayable"},{"type":"function","name":"validate","inputs":[{"name":"tool","type":"bytes32","internalType":"bytes32"}],"outputs":[{"name":"","type":"tuple","internalType":"struct Toolchain.ValidateOkResult","components":[{"name":"success","type":"bool","internalType":"bool"},{"name":"tool","type":"bytes32","internalType":"bytes32"},{"name":"version","type":"string","internalType":"string"}]}],"stateMutability":"nonpayable"},{"type":"event","name":"CapabilitiesCompleted","inputs":[{"name":"variant","type":"string","indexed":false,"internalType":"string"},{"name":"capabilities","type":"string[]","indexed":false,"internalType":"string[]"}],"anonymous":false},{"type":"event","name":"ListCompleted","inputs":[{"name":"variant","type":"string","indexed":false,"internalType":"string"},{"name":"tools","type":"bytes[]","indexed":false,"internalType":"bytes[]"}],"anonymous":false},{"type":"event","name":"ResolveCompleted","inputs":[{"name":"variant","type":"string","indexed":false,"internalType":"string"},{"name":"tool","type":"bytes32","indexed":false,"internalType":"bytes32"},{"name":"capabilities","type":"string[]","indexed":false,"internalType":"string[]"},{"name":"invocation","type":"bytes","indexed":false,"internalType":"bytes"}],"anonymous":false},{"type":"event","name":"ValidateCompleted","inputs":[{"name":"variant","type":"string","indexed":false,"internalType":"string"},{"name":"tool","type":"bytes32","indexed":false,"internalType":"bytes32"}],"anonymous":false}],"bytecode":{"object":"0x608060405234801561000f575f80fd5b50611efd8061001d5f395ff3fe608060405234801561000f575f80fd5b506004361061004a575f3560e01c806325e5d2311461004e5780632e0126981461007e578063c2ead131146100ae578063e6e41ea3146100de575b5f80fd5b61006860048036038101906100639190610e77565b61010e565b6040516100759190611076565b60405180910390f35b610098600480360381019061009391906110c9565b6103cf565b6040516100a591906111a2565b60405180910390f35b6100c860048036038101906100c391906110c9565b610530565b6040516100d591906112b7565b60405180910390f35b6100f860048036038101906100f391906112d7565b6106d2565b6040516101059190611475565b60405180910390f35b610116610bc5565b5f805b6001805490508110156101e8575f805f6001848154811061013d5761013c611495565b5b905f5260205f20015481526020019081526020015f2090505f808751148061018257508680519060200120825f0160405161017891906115bb565b6040518091039020145b90505f80875114806101b257508680519060200120836004016040516101a891906115bb565b6040518091039020145b90508180156101be5750805b156101d25784806101ce90611607565b9550505b50505080806101e090611607565b915050610119565b505f8167ffffffffffffffff81111561020457610203610d53565b5b60405190808252806020026020018201604052801561023757816020015b60608152602001906001900390816102225790505b5090505f805b600180549050811015610374575f805f6001848154811061026157610260611495565b5b905f5260205f20015481526020019081526020015f2090505f80895114806102a657508880519060200120825f0160405161029c91906115bb565b6040518091039020145b90505f80895114806102d657508880519060200120836004016040516102cc91906115bb565b6040518091039020145b90508180156102e25750805b1561035e57600184815481106102fb576102fa611495565b5b905f5260205f200154835f0184600201856003016040516020016103229493929190611700565b60405160208183030381529060405286868151811061034457610343611495565b5b6020026020010181905250848061035a90611607565b9550505b505050808061036c90611607565b91505061023d565b507fe9a193113c6af59a9c690a34f77f5f798aaa755136bfac9e35681b002a15b8bd826040516103a49190611825565b60405180910390a1604051806040016040528060011515815260200183815250935050505092915050565b6103d7610be0565b5f808381526020019081526020015f206007015f9054906101000a900460ff16610436576040517f08c379a000000000000000000000000000000000000000000000000000000000815260040161042d906118a2565b60405180910390fd5b5f805f8481526020019081526020015f2090507f431666eceddcbdcb27849a50bf6a540ef06c02dc0175e9f28d845a1d7c0090128360405161047891906118c0565b60405180910390a160405180606001604052806001151581526020018481526020018260020180546104a9906114ef565b80601f01602080910402602001604051908101604052809291908181526020018280546104d5906114ef565b80156105205780601f106104f757610100808354040283529160200191610520565b820191905f5260205f20905b81548152906001019060200180831161050357829003601f168201915b5050505050815250915050919050565b610538610c04565b5f808381526020019081526020015f206007015f9054906101000a900460ff16610597576040517f08c379a000000000000000000000000000000000000000000000000000000000815260040161058e906118a2565b60405180910390fd5b5f805f8481526020019081526020015f2090507f5ac182438e2dcc1c11ed51af3635ae20799e4ea372ed6cfe7cbdcaa082ee08fa816005016040516105dc9190611a2a565b60405180910390a1604051806040016040528060011515815260200182600501805480602002602001604051908101604052809291908181526020015f905b828210156106c3578382905f5260205f20018054610638906114ef565b80601f0160208091040260200160405190810160405280929190818152602001828054610664906114ef565b80156106af5780601f10610686576101008083540402835291602001916106af565b820191905f5260205f20905b81548152906001019060200180831161069257829003601f168201915b50505050508152602001906001019061061b565b50505050815250915050919050565b6106da610c1f565b5f86511161071d576040517f08c379a000000000000000000000000000000000000000000000000000000000815260040161071490611aa7565b60405180910390fd5b5f86868460405160200161073393929190611aff565b6040516020818303038152906040528051906020012090505f808281526020019081526020015f206007015f9054906101000a900460ff16610929575f600167ffffffffffffffff81111561078b5761078a610d53565b5b6040519080825280602002602001820160405280156107be57816020015b60608152602001906001900390816107a95790505b50905083815f815181106107d5576107d4611495565b5b60200260200101819052506040518061010001604052808981526020018881526020018781526020018560405160200161080f9190611b79565b6040516020818303038152906040528152602001868152602001828152602001428152602001600115158152505f808481526020019081526020015f205f820151815f01908161085f9190611d25565b5060208201518160010190816108759190611d25565b50604082015181600201908161088b9190611d25565b5060608201518160030190816108a19190611d25565b5060808201518160040190816108b79190611d25565b5060a08201518160050190805190602001906108d4929190610c58565b5060c0820151816006015560e0820151816007015f6101000a81548160ff021916908315150217905550905050600182908060018154018082558091505060019003905f5260205f20015f9091909190915055505b5f805f8381526020019081526020015f2090505f8160030182600201604051602001610956929190611df4565b60405160208183030381529060405290507fd390f8b5174ee849a27d85107ae5c643621ed8b513f6da7ee515cca0847752d683836005018360405161099d93929190611e71565b60405180910390a16040518060c001604052806001151581526020018481526020018360020180546109ce906114ef565b80601f01602080910402602001604051908101604052809291908181526020018280546109fa906114ef565b8015610a455780601f10610a1c57610100808354040283529160200191610a45565b820191905f5260205f20905b815481529060010190602001808311610a2857829003601f168201915b50505050508152602001836003018054610a5e906114ef565b80601f0160208091040260200160405190810160405280929190818152602001828054610a8a906114ef565b8015610ad55780601f10610aac57610100808354040283529160200191610ad5565b820191905f5260205f20905b815481529060010190602001808311610ab857829003601f168201915b5050505050815260200183600501805480602002602001604051908101604052809291908181526020015f905b82821015610baa578382905f5260205f20018054610b1f906114ef565b80601f0160208091040260200160405190810160405280929190818152602001828054610b4b906114ef565b8015610b965780601f10610b6d57610100808354040283529160200191610b96565b820191905f5260205f20905b815481529060010190602001808311610b7957829003601f168201915b505050505081526020019060010190610b02565b50505050815260200182815250935050505095945050505050565b60405180604001604052805f15158152602001606081525090565b60405180606001604052805f151581526020015f8019168152602001606081525090565b60405180604001604052805f15158152602001606081525090565b6040518060c001604052805f151581526020015f8019168152602001606081526020016060815260200160608152602001606081525090565b828054828255905f5260205f20908101928215610c9e579160200282015b82811115610c9d578251829081610c8d9190611d25565b5091602001919060010190610c76565b5b509050610cab9190610caf565b5090565b5b80821115610cce575f8181610cc59190610cd2565b50600101610cb0565b5090565b508054610cde906114ef565b5f825580601f10610cef5750610d0c565b601f0160209004905f5260205f2090810190610d0b9190610d0f565b5b50565b5b80821115610d26575f815f905550600101610d10565b5090565b5f604051905090565b5f80fd5b5f80fd5b5f80fd5b5f80fd5b5f601f19601f8301169050919050565b7f4e487b71000000000000000000000000000000000000000000000000000000005f52604160045260245ffd5b610d8982610d43565b810181811067ffffffffffffffff82111715610da857610da7610d53565b5b80604052505050565b5f610dba610d2a565b9050610dc68282610d80565b919050565b5f67ffffffffffffffff821115610de557610de4610d53565b5b610dee82610d43565b9050602081019050919050565b828183375f83830152505050565b5f610e1b610e1684610dcb565b610db1565b905082815260208101848484011115610e3757610e36610d3f565b5b610e42848285610dfb565b509392505050565b5f82601f830112610e5e57610e5d610d3b565b5b8135610e6e848260208601610e09565b91505092915050565b5f8060408385031215610e8d57610e8c610d33565b5b5f83013567ffffffffffffffff811115610eaa57610ea9610d37565b5b610eb685828601610e4a565b925050602083013567ffffffffffffffff811115610ed757610ed6610d37565b5b610ee385828601610e4a565b9150509250929050565b5f8115159050919050565b610f0181610eed565b82525050565b5f81519050919050565b5f82825260208201905092915050565b5f819050602082019050919050565b5f81519050919050565b5f82825260208201905092915050565b5f5b83811015610f67578082015181840152602081019050610f4c565b5f8484015250505050565b5f610f7c82610f30565b610f868185610f3a565b9350610f96818560208601610f4a565b610f9f81610d43565b840191505092915050565b5f610fb58383610f72565b905092915050565b5f602082019050919050565b5f610fd382610f07565b610fdd8185610f11565b935083602082028501610fef85610f21565b805f5b8581101561102a578484038952815161100b8582610faa565b945061101683610fbd565b925060208a01995050600181019050610ff2565b50829750879550505050505092915050565b5f604083015f8301516110515f860182610ef8565b50602083015184820360208601526110698282610fc9565b9150508091505092915050565b5f6020820190508181035f83015261108e818461103c565b905092915050565b5f819050919050565b6110a881611096565b81146110b2575f80fd5b50565b5f813590506110c38161109f565b92915050565b5f602082840312156110de576110dd610d33565b5b5f6110eb848285016110b5565b91505092915050565b6110fd81611096565b82525050565b5f81519050919050565b5f82825260208201905092915050565b5f61112782611103565b611131818561110d565b9350611141818560208601610f4a565b61114a81610d43565b840191505092915050565b5f606083015f83015161116a5f860182610ef8565b50602083015161117d60208601826110f4565b5060408301518482036040860152611195828261111d565b9150508091505092915050565b5f6020820190508181035f8301526111ba8184611155565b905092915050565b5f81519050919050565b5f82825260208201905092915050565b5f819050602082019050919050565b5f6111f6838361111d565b905092915050565b5f602082019050919050565b5f611214826111c2565b61121e81856111cc565b935083602082028501611230856111dc565b805f5b8581101561126b578484038952815161124c85826111eb565b9450611257836111fe565b925060208a01995050600181019050611233565b50829750879550505050505092915050565b5f604083015f8301516112925f860182610ef8565b50602083015184820360208601526112aa828261120a565b9150508091505092915050565b5f6020820190508181035f8301526112cf818461127d565b905092915050565b5f805f805f60a086880312156112f0576112ef610d33565b5b5f86013567ffffffffffffffff81111561130d5761130c610d37565b5b61131988828901610e4a565b955050602086013567ffffffffffffffff81111561133a57611339610d37565b5b61134688828901610e4a565b945050604086013567ffffffffffffffff81111561136757611366610d37565b5b61137388828901610e4a565b935050606086013567ffffffffffffffff81111561139457611393610d37565b5b6113a088828901610e4a565b925050608086013567ffffffffffffffff8111156113c1576113c0610d37565b5b6113cd88828901610e4a565b9150509295509295909350565b5f60c083015f8301516113ef5f860182610ef8565b50602083015161140260208601826110f4565b506040830151848203604086015261141a828261111d565b91505060608301518482036060860152611434828261111d565b9150506080830151848203608086015261144e828261120a565b91505060a083015184820360a08601526114688282610f72565b9150508091505092915050565b5f6020820190508181035f83015261148d81846113da565b905092915050565b7f4e487b71000000000000000000000000000000000000000000000000000000005f52603260045260245ffd5b7f4e487b71000000000000000000000000000000000000000000000000000000005f52602260045260245ffd5b5f600282049050600182168061150657607f821691505b602082108103611519576115186114c2565b5b50919050565b5f81905092915050565b5f819050815f5260205f209050919050565b5f8154611547816114ef565b611551818661151f565b9450600182165f811461156b5760018114611580576115b2565b60ff19831686528115158202860193506115b2565b61158985611529565b5f5b838110156115aa5781548189015260018201915060208101905061158b565b838801955050505b50505092915050565b5f6115c6828461153b565b915081905092915050565b7f4e487b71000000000000000000000000000000000000000000000000000000005f52601160045260245ffd5b5f819050919050565b5f611611826115fe565b91507fffffffffffffffffffffffffffffffffffffffffffffffffffffffffffffffff8203611643576116426115d1565b5b600182019050919050565b61165781611096565b82525050565b5f82825260208201905092915050565b5f819050815f5260205f209050919050565b5f815461168b816114ef565b611695818661165d565b9450600182165f81146116af57600181146116c5576116f7565b60ff1983168652811515602002860193506116f7565b6116ce8561166d565b5f5b838110156116ef578154818901526001820191506020810190506116d0565b808801955050505b50505092915050565b5f6080820190506117135f83018761164e565b8181036020830152611725818661167f565b90508181036040830152611739818561167f565b9050818103606083015261174d818461167f565b905095945050505050565b7f6f6b0000000000000000000000000000000000000000000000000000000000005f82015250565b5f61178c60028361165d565b915061179782611758565b602082019050919050565b5f82825260208201905092915050565b5f6117bc82610f07565b6117c681856117a2565b9350836020820285016117d885610f21565b805f5b8581101561181357848403895281516117f48582610faa565b94506117ff83610fbd565b925060208a019950506001810190506117db565b50829750879550505050505092915050565b5f6040820190508181035f83015261183c81611780565b9050818103602083015261185081846117b2565b905092915050565b7f546f6f6c206e6f7420666f756e640000000000000000000000000000000000005f82015250565b5f61188c600e8361165d565b915061189782611858565b602082019050919050565b5f6020820190508181035f8301526118b981611880565b9050919050565b5f6040820190508181035f8301526118d781611780565b90506118e6602083018461164e565b92915050565b5f81549050919050565b5f82825260208201905092915050565b5f819050815f5260205f209050919050565b5f8154611924816114ef565b61192e818661110d565b9450600182165f8114611948576001811461195e57611990565b60ff198316865281151560200286019350611990565b6119678561166d565b5f5b8381101561198857815481890152600182019150602081019050611969565b808801955050505b50505092915050565b5f6119a48383611918565b905092915050565b5f600182019050919050565b5f6119c2826118ec565b6119cc81856118f6565b9350836020820285016119de85611906565b805f5b85811015611a18578484038952816119f98582611999565b9450611a04836119ac565b925060208a019950506001810190506119e1565b50829750879550505050505092915050565b5f6040820190508181035f830152611a4181611780565b90508181036020830152611a5581846119b8565b905092915050565b7f4c616e6775616765206d757374206e6f7420626520656d7074790000000000005f82015250565b5f611a91601a8361165d565b9150611a9c82611a5d565b602082019050919050565b5f6020820190508181035f830152611abe81611a85565b9050919050565b5f81905092915050565b5f611ad982611103565b611ae38185611ac5565b9350611af3818560208601610f4a565b80840191505092915050565b5f611b0a8286611acf565b9150611b168285611acf565b9150611b228284611acf565b9150819050949350505050565b7f2f7573722f6c6f63616c2f62696e2f00000000000000000000000000000000005f82015250565b5f611b63600f83611ac5565b9150611b6e82611b2f565b600f82019050919050565b5f611b8382611b57565b9150611b8f8284611acf565b915081905092915050565b5f6020601f8301049050919050565b5f82821b905092915050565b5f60088302611be47fffffffffffffffffffffffffffffffffffffffffffffffffffffffffffffffff82611ba9565b611bee8683611ba9565b95508019841693508086168417925050509392505050565b5f819050919050565b5f611c29611c24611c1f846115fe565b611c06565b6115fe565b9050919050565b5f819050919050565b611c4283611c0f565b611c56611c4e82611c30565b848454611bb5565b825550505050565b5f90565b611c6a611c5e565b611c75818484611c39565b505050565b5b81811015611c9857611c8d5f82611c62565b600181019050611c7b565b5050565b601f821115611cdd57611cae8161166d565b611cb784611b9a565b81016020851015611cc6578190505b611cda611cd285611b9a565b830182611c7a565b50505b505050565b5f82821c905092915050565b5f611cfd5f1984600802611ce2565b1980831691505092915050565b5f611d158383611cee565b9150826002028217905092915050565b611d2e82611103565b67ffffffffffffffff811115611d4757611d46610d53565b5b611d5182546114ef565b611d5c828285611c9c565b5f60209050601f831160018114611d8d575f8415611d7b578287015190505b611d858582611d0a565b865550611dec565b601f198416611d9b8661166d565b5f5b82811015611dc257848901518255600182019150602085019450602081019050611d9d565b86831015611ddf5784890151611ddb601f891682611cee565b8355505b6001600288020188555050505b505050505050565b5f6040820190508181035f830152611e0c818561167f565b90508181036020830152611e20818461167f565b90509392505050565b5f82825260208201905092915050565b5f611e4382610f30565b611e4d8185611e29565b9350611e5d818560208601610f4a565b611e6681610d43565b840191505092915050565b5f6080820190508181035f830152611e8881611780565b9050611e97602083018661164e565b8181036040830152611ea981856119b8565b90508181036060830152611ebd8184611e39565b905094935050505056fea2646970667358221220bc2013546f18bda9ab655a863ef9b05fe4b9e5dfc7647341801649b9b44aebbe64736f6c63430008140033","linkReferences":{}},"methodIdentifiers":{"capabilities(bytes32)":"c2ead131","list(string,string)":"25e5d231","resolve(string,string,string,string,string)":"e6e41ea3","validate(bytes32)":"2e012698"},"id":295}