{"abi":[{"type":"function","name":"generate","inputs":[{"name":"spec","type":"bytes32","internalType":"bytes32"},{"name":"manifest","type":"bytes","internalType":"bytes"}],"outputs":[{"name":"result","type":"tuple","internalType":"struct NextjsGen.GenerateOkResult","components":[{"name":"success","type":"bool","internalType":"bool"},{"name":"files","type":"bytes[]","internalType":"bytes[]"}]}],"stateMutability":"nonpayable"},{"type":"function","name":"getGenerated","inputs":[{"name":"spec","type":"bytes32","internalType":"bytes32"}],"outputs":[{"name":"files","type":"bytes[]","internalType":"bytes[]"}],"stateMutability":"view"},{"type":"function","name":"hasGenerated","inputs":[{"name":"spec","type":"bytes32","internalType":"bytes32"}],"outputs":[{"name":"","type":"bool","internalType":"bool"}],"stateMutability":"view"},{"type":"function","name":"register","inputs":[],"outputs":[{"name":"metadata","type":"tuple","internalType":"struct NextjsGen.ProviderMetadata","components":[{"name":"name","type":"string","internalType":"string"},{"name":"category","type":"string","internalType":"string"},{"name":"language","type":"string","internalType":"string"},{"name":"framework","type":"string","internalType":"string"}]}],"stateMutability":"pure"},{"type":"event","name":"GenerateCompleted","inputs":[{"name":"variant","type":"string","indexed":false,"internalType":"string"},{"name":"files","type":"bytes[]","indexed":false,"internalType":"bytes[]"}],"anonymous":false}],"bytecode":{"object":"0x608060405234801561000f575f80fd5b506112d88061001d5f395ff3fe608060405234801561000f575f80fd5b506004361061004a575f3560e01c80630f60a2b41461004e5780631aa3a0081461007e5780631f31b11f1461009c578063c43d3824146100cc575b5f80fd5b61006860048036038101906100639190610717565b6100fc565b604051610075919061075c565b60405180910390f35b610086610124565b6040516100939190610874565b60405180910390f35b6100b660048036038101906100b191906109c0565b610226565b6040516100c39190610b70565b60405180910390f35b6100e660048036038101906100e19190610717565b610479565b6040516100f39190610c13565b60405180910390f35b5f805f8381526020019081526020015f206002015f9054906101000a900460ff169050919050565b61012c6105be565b60405180608001604052806040518060400160405280600a81526020017f6e6578746a732d67656e0000000000000000000000000000000000000000000081525081526020016040518060400160405280600e81526020017f636f64652d67656e657261746f7200000000000000000000000000000000000081525081526020016040518060400160405280600a81526020017f747970657363726970740000000000000000000000000000000000000000000081525081526020016040518060400160405280600681526020017f6e6578746a730000000000000000000000000000000000000000000000000000815250815250905090565b61022e6105e6565b5f801b8303610272576040517f08c379a000000000000000000000000000000000000000000000000000000000815260040161026990610c8d565b60405180910390fd5b5f8251116102b5576040517f08c379a00000000000000000000000000000000000000000000000000000000081526004016102ac90610cf5565b60405180910390fd5b5f600167ffffffffffffffff8111156102d1576102d061089c565b5b60405190808252806020026020018201604052801561030457816020015b60608152602001906001900390816102ef5790505b509050836040516020016103189190610d33565b60405160208183030381529060405283516040516020016103399190610d76565b604051602081830303815290604052604051602001610359929190610e8e565b604051602081830303815290604052815f8151811061037b5761037a610ec7565b5b60200260200101819052506040518060600160405280828152602001428152602001600115158152505f808681526020019081526020015f205f820151815f0190805190602001906103ce929190610601565b50602082015181600101556040820151816002015f6101000a81548160ff021916908315150217905550905050600184908060018154018082558091505060019003905f5260205f20015f909190919091505560405180604001604052806001151581526020018281525091507ffe1f49883f6379fb07d8a980266cc36b9113433f284d0182a260b9d0ba5c8c438160405161046a9190610f3e565b60405180910390a15092915050565b60605f808381526020019081526020015f206002015f9054906101000a900460ff166104da576040517f08c379a00000000000000000000000000000000000000000000000000000000081526004016104d190610fbb565b60405180910390fd5b5f808381526020019081526020015f205f01805480602002602001604051908101604052809291908181526020015f905b828210156105b3578382905f5260205f2001805461052890611006565b80601f016020809104026020016040519081016040528092919081815260200182805461055490611006565b801561059f5780601f106105765761010080835404028352916020019161059f565b820191905f5260205f20905b81548152906001019060200180831161058257829003601f168201915b50505050508152602001906001019061050b565b505050509050919050565b6040518060800160405280606081526020016060815260200160608152602001606081525090565b60405180604001604052805f15158152602001606081525090565b828054828255905f5260205f20908101928215610647579160200282015b8281111561064657825182908161063691906111d3565b509160200191906001019061061f565b5b5090506106549190610658565b5090565b5b80821115610677575f818161066e919061067b565b50600101610659565b5090565b50805461068790611006565b5f825580601f1061069857506106b5565b601f0160209004905f5260205f20908101906106b491906106b8565b5b50565b5b808211156106cf575f815f9055506001016106b9565b5090565b5f604051905090565b5f80fd5b5f80fd5b5f819050919050565b6106f6816106e4565b8114610700575f80fd5b50565b5f81359050610711816106ed565b92915050565b5f6020828403121561072c5761072b6106dc565b5b5f61073984828501610703565b91505092915050565b5f8115159050919050565b61075681610742565b82525050565b5f60208201905061076f5f83018461074d565b92915050565b5f81519050919050565b5f82825260208201905092915050565b5f5b838110156107ac578082015181840152602081019050610791565b5f8484015250505050565b5f601f19601f8301169050919050565b5f6107d182610775565b6107db818561077f565b93506107eb81856020860161078f565b6107f4816107b7565b840191505092915050565b5f608083015f8301518482035f86015261081982826107c7565b9150506020830151848203602086015261083382826107c7565b9150506040830151848203604086015261084d82826107c7565b9150506060830151848203606086015261086782826107c7565b9150508091505092915050565b5f6020820190508181035f83015261088c81846107ff565b905092915050565b5f80fd5b5f80fd5b7f4e487b71000000000000000000000000000000000000000000000000000000005f52604160045260245ffd5b6108d2826107b7565b810181811067ffffffffffffffff821117156108f1576108f061089c565b5b80604052505050565b5f6109036106d3565b905061090f82826108c9565b919050565b5f67ffffffffffffffff82111561092e5761092d61089c565b5b610937826107b7565b9050602081019050919050565b828183375f83830152505050565b5f61096461095f84610914565b6108fa565b9050828152602081018484840111156109805761097f610898565b5b61098b848285610944565b509392505050565b5f82601f8301126109a7576109a6610894565b5b81356109b7848260208601610952565b91505092915050565b5f80604083850312156109d6576109d56106dc565b5b5f6109e385828601610703565b925050602083013567ffffffffffffffff811115610a0457610a036106e0565b5b610a1085828601610993565b9150509250929050565b610a2381610742565b82525050565b5f81519050919050565b5f82825260208201905092915050565b5f819050602082019050919050565b5f81519050919050565b5f82825260208201905092915050565b5f610a7682610a52565b610a808185610a5c565b9350610a9081856020860161078f565b610a99816107b7565b840191505092915050565b5f610aaf8383610a6c565b905092915050565b5f602082019050919050565b5f610acd82610a29565b610ad78185610a33565b935083602082028501610ae985610a43565b805f5b85811015610b245784840389528151610b058582610aa4565b9450610b1083610ab7565b925060208a01995050600181019050610aec565b50829750879550505050505092915050565b5f604083015f830151610b4b5f860182610a1a565b5060208301518482036020860152610b638282610ac3565b9150508091505092915050565b5f6020820190508181035f830152610b888184610b36565b905092915050565b5f82825260208201905092915050565b5f610baa82610a29565b610bb48185610b90565b935083602082028501610bc685610a43565b805f5b85811015610c015784840389528151610be28582610aa4565b9450610bed83610ab7565b925060208a01995050600181019050610bc9565b50829750879550505050505092915050565b5f6020820190508181035f830152610c2b8184610ba0565b905092915050565b5f82825260208201905092915050565b7f537065632049442063616e6e6f74206265207a65726f000000000000000000005f82015250565b5f610c77601683610c33565b9150610c8282610c43565b602082019050919050565b5f6020820190508181035f830152610ca481610c6b565b9050919050565b7f4d616e69666573742063616e6e6f7420626520656d70747900000000000000005f82015250565b5f610cdf601883610c33565b9150610cea82610cab565b602082019050919050565b5f6020820190508181035f830152610d0c81610cd3565b9050919050565b5f819050919050565b610d2d610d28826106e4565b610d13565b82525050565b5f610d3e8284610d1c565b60208201915081905092915050565b5f819050919050565b5f819050919050565b610d70610d6b82610d4d565b610d56565b82525050565b5f610d818284610d5f565b60208201915081905092915050565b5f81905092915050565b7f2f2f2047656e657261746564204e6578742e6a7320636f646520666f722073705f8201527f65633a2000000000000000000000000000000000000000000000000000000000602082015250565b5f610df4602483610d90565b9150610dff82610d9a565b602482019050919050565b5f81905092915050565b5f610e1e82610a52565b610e288185610e0a565b9350610e3881856020860161078f565b80840191505092915050565b7f0a2f2f204d616e69666573742073697a653a20000000000000000000000000005f82015250565b5f610e78601383610d90565b9150610e8382610e44565b601382019050919050565b5f610e9882610de8565b9150610ea48285610e14565b9150610eaf82610e6c565b9150610ebb8284610e14565b91508190509392505050565b7f4e487b71000000000000000000000000000000000000000000000000000000005f52603260045260245ffd5b7f6f6b0000000000000000000000000000000000000000000000000000000000005f82015250565b5f610f28600283610c33565b9150610f3382610ef4565b602082019050919050565b5f6040820190508181035f830152610f5581610f1c565b90508181036020830152610f698184610ba0565b905092915050565b7f4e6f2067656e657261746564206f757470757420666f722073706563000000005f82015250565b5f610fa5601c83610c33565b9150610fb082610f71565b602082019050919050565b5f6020820190508181035f830152610fd281610f99565b9050919050565b7f4e487b71000000000000000000000000000000000000000000000000000000005f52602260045260245ffd5b5f600282049050600182168061101d57607f821691505b6020821081036110305761102f610fd9565b5b50919050565b5f819050815f5260205f209050919050565b5f6020601f8301049050919050565b5f82821b905092915050565b5f600883026110927fffffffffffffffffffffffffffffffffffffffffffffffffffffffffffffffff82611057565b61109c8683611057565b95508019841693508086168417925050509392505050565b5f819050919050565b5f6110d76110d26110cd84610d4d565b6110b4565b610d4d565b9050919050565b5f819050919050565b6110f0836110bd565b6111046110fc826110de565b848454611063565b825550505050565b5f90565b61111861110c565b6111238184846110e7565b505050565b5b818110156111465761113b5f82611110565b600181019050611129565b5050565b601f82111561118b5761115c81611036565b61116584611048565b81016020851015611174578190505b61118861118085611048565b830182611128565b50505b505050565b5f82821c905092915050565b5f6111ab5f1984600802611190565b1980831691505092915050565b5f6111c3838361119c565b9150826002028217905092915050565b6111dc82610a52565b67ffffffffffffffff8111156111f5576111f461089c565b5b6111ff8254611006565b61120a82828561114a565b5f60209050601f83116001811461123b575f8415611229578287015190505b61123385826111b8565b86555061129a565b601f19841661124986611036565b5f5b828110156112705784890151825560018201915060208501945060208101905061124b565b8683101561128d5784890151611289601f89168261119c565b8355505b6001600288020188555050505b50505050505056fea26469706673582212208d8ed967d1f8246469c1614678a1441393c85fa09156596ad23940782669a0b564736f6c63430008140033","linkReferences":{}},"methodIdentifiers":{"generate(bytes32,bytes)":"1f31b11f","getGenerated(bytes32)":"c43d3824","hasGenerated(bytes32)":"0f60a2b4","register()":"1aa3a008"},"id":28}