{"abi":[{"type":"function","name":"count","inputs":[],"outputs":[{"name":"","type":"uint256","internalType":"uint256"}],"stateMutability":"view"},{"type":"function","name":"load","inputs":[{"name":"nodeId","type":"bytes32","internalType":"bytes32"}],"outputs":[{"name":"found","type":"bool","internalType":"bool"},{"name":"data","type":"string","internalType":"string"}],"stateMutability":"view"},{"type":"function","name":"remove","inputs":[{"name":"nodeId","type":"bytes32","internalType":"bytes32"}],"outputs":[],"stateMutability":"nonpayable"},{"type":"function","name":"save","inputs":[{"name":"nodeId","type":"bytes32","internalType":"bytes32"},{"name":"data","type":"string","internalType":"string"}],"outputs":[],"stateMutability":"nonpayable"},{"type":"event","name":"Loaded","inputs":[{"name":"nodeId","type":"bytes32","indexed":true,"internalType":"bytes32"}],"anonymous":false},{"type":"event","name":"Removed","inputs":[{"name":"nodeId","type":"bytes32","indexed":true,"internalType":"bytes32"}],"anonymous":false},{"type":"event","name":"Saved","inputs":[{"name":"nodeId","type":"bytes32","indexed":true,"internalType":"bytes32"}],"anonymous":false}],"bytecode":{"object":"0x608060405234801561000f575f80fd5b50610c198061001d5f395ff3fe608060405234801561000f575f80fd5b506004361061004a575f3560e01c806306661abd1461004e57806395bc26731461006c578063a0b3a60314610088578063f0350799146100a4575b5f80fd5b6100566100d5565b6040516100639190610554565b60405180910390f35b610086600480360381019061008191906105a8565b6100e1565b005b6100a2600480360381019061009d9190610634565b61026f565b005b6100be60048036038101906100b991906105a8565b6103fc565b6040516100cc929190610735565b60405180910390f35b5f600180549050905090565b5f808281526020019081526020015f206002015f9054906101000a900460ff16610140576040517f08c379a0000000000000000000000000000000000000000000000000000000008152600401610137906107ad565b60405180910390fd5b5f60025f8381526020019081526020015f205490505f6001808054905061016791906107f8565b90508082146101c9575f600182815481106101855761018461082b565b5b905f5260205f200154905080600184815481106101a5576101a461082b565b5b905f5260205f2001819055508260025f8381526020019081526020015f2081905550505b60018054806101db576101da610858565b5b600190038181905f5260205f20015f9055905560025f8481526020019081526020015f205f90555f808481526020019081526020015f205f8082015f61022191906104e4565b600182015f9055600282015f6101000a81549060ff02191690555050827fc258b116f380657d67061f79c25e784314e0e1ed9b52630fac916654db63499860405160405180910390a2505050565b5f801b83036102b3576040517f08c379a00000000000000000000000000000000000000000000000000000000081526004016102aa906108cf565b60405180910390fd5b5f808481526020019081526020015f206002015f9054906101000a900460ff166103195760018054905060025f8581526020019081526020015f2081905550600183908060018154018082558091505060019003905f5260205f20015f90919091909150555b604051806060016040528083838080601f0160208091040260200160405190810160405280939291908181526020018383808284375f81840152601f19601f820116905080830192505050505050508152602001428152602001600115158152505f808581526020019081526020015f205f820151815f01908161039d9190610b14565b50602082015181600101556040820151816002015f6101000a81548160ff021916908315150217905550905050827fc6f205cdeaae747ac03d6f4d17e8d41779068231daa138bc72dc6adc11f0250560405160405180910390a2505050565b5f60605f808481526020019081526020015f206002015f9054906101000a900460ff1661043c575f60405180602001604052805f815250915091506104df565b60015f808581526020019081526020015f205f0180805461045c90610947565b80601f016020809104026020016040519081016040528092919081815260200182805461048890610947565b80156104d35780601f106104aa576101008083540402835291602001916104d3565b820191905f5260205f20905b8154815290600101906020018083116104b657829003601f168201915b50505050509050915091505b915091565b5080546104f090610947565b5f825580601f10610501575061051e565b601f0160209004905f5260205f209081019061051d9190610521565b5b50565b5b80821115610538575f815f905550600101610522565b5090565b5f819050919050565b61054e8161053c565b82525050565b5f6020820190506105675f830184610545565b92915050565b5f80fd5b5f80fd5b5f819050919050565b61058781610575565b8114610591575f80fd5b50565b5f813590506105a28161057e565b92915050565b5f602082840312156105bd576105bc61056d565b5b5f6105ca84828501610594565b91505092915050565b5f80fd5b5f80fd5b5f80fd5b5f8083601f8401126105f4576105f36105d3565b5b8235905067ffffffffffffffff811115610611576106106105d7565b5b60208301915083600182028301111561062d5761062c6105db565b5b9250929050565b5f805f6040848603121561064b5761064a61056d565b5b5f61065886828701610594565b935050602084013567ffffffffffffffff81111561067957610678610571565b5b610685868287016105df565b92509250509250925092565b5f8115159050919050565b6106a581610691565b82525050565b5f81519050919050565b5f82825260208201905092915050565b5f5b838110156106e25780820151818401526020810190506106c7565b5f8484015250505050565b5f601f19601f8301169050919050565b5f610707826106ab565b61071181856106b5565b93506107218185602086016106c5565b61072a816106ed565b840191505092915050565b5f6040820190506107485f83018561069c565b818103602083015261075a81846106fd565b90509392505050565b7f4e6f6465206e6f7420666f756e6420696e2073746f72616765000000000000005f82015250565b5f6107976019836106b5565b91506107a282610763565b602082019050919050565b5f6020820190508181035f8301526107c48161078b565b9050919050565b7f4e487b71000000000000000000000000000000000000000000000000000000005f52601160045260245ffd5b5f6108028261053c565b915061080d8361053c565b9250828203905081811115610825576108246107cb565b5b92915050565b7f4e487b71000000000000000000000000000000000000000000000000000000005f52603260045260245ffd5b7f4e487b71000000000000000000000000000000000000000000000000000000005f52603160045260245ffd5b7f4e6f64652049442063616e6e6f74206265207a65726f000000000000000000005f82015250565b5f6108b96016836106b5565b91506108c482610885565b602082019050919050565b5f6020820190508181035f8301526108e6816108ad565b9050919050565b7f4e487b71000000000000000000000000000000000000000000000000000000005f52604160045260245ffd5b7f4e487b71000000000000000000000000000000000000000000000000000000005f52602260045260245ffd5b5f600282049050600182168061095e57607f821691505b6020821081036109715761097061091a565b5b50919050565b5f819050815f5260205f209050919050565b5f6020601f8301049050919050565b5f82821b905092915050565b5f600883026109d37fffffffffffffffffffffffffffffffffffffffffffffffffffffffffffffffff82610998565b6109dd8683610998565b95508019841693508086168417925050509392505050565b5f819050919050565b5f610a18610a13610a0e8461053c565b6109f5565b61053c565b9050919050565b5f819050919050565b610a31836109fe565b610a45610a3d82610a1f565b8484546109a4565b825550505050565b5f90565b610a59610a4d565b610a64818484610a28565b505050565b5b81811015610a8757610a7c5f82610a51565b600181019050610a6a565b5050565b601f821115610acc57610a9d81610977565b610aa684610989565b81016020851015610ab5578190505b610ac9610ac185610989565b830182610a69565b50505b505050565b5f82821c905092915050565b5f610aec5f1984600802610ad1565b1980831691505092915050565b5f610b048383610add565b9150826002028217905092915050565b610b1d826106ab565b67ffffffffffffffff811115610b3657610b356108ed565b5b610b408254610947565b610b4b828285610a8b565b5f60209050601f831160018114610b7c575f8415610b6a578287015190505b610b748582610af9565b865550610bdb565b601f198416610b8a86610977565b5f5b82811015610bb157848901518255600182019150602085019450602081019050610b8c565b86831015610bce5784890151610bca601f891682610add565b8355505b6001600288020188555050505b50505050505056fea2646970667358221220032bf776bd9f28a471e8f27abf175e6c4e0c188d013675ecae4283483180b53964736f6c63430008140033","linkReferences":{}},"methodIdentifiers":{"count()":"06661abd","load(bytes32)":"f0350799","remove(bytes32)":"95bc2673","save(bytes32,string)":"a0b3a603"},"id":81}