{"abi":[{"type":"function","name":"addEdge","inputs":[{"name":"from","type":"bytes32","internalType":"bytes32"},{"name":"to","type":"bytes32","internalType":"bytes32"},{"name":"sync","type":"string","internalType":"string"}],"outputs":[{"name":"","type":"bool","internalType":"bool"}],"stateMutability":"nonpayable"},{"type":"function","name":"append","inputs":[{"name":"record","type":"bytes","internalType":"bytes"}],"outputs":[{"name":"result","type":"tuple","internalType":"struct ActionLog.AppendOkResult","components":[{"name":"success","type":"bool","internalType":"bool"},{"name":"id","type":"bytes32","internalType":"bytes32"}]}],"stateMutability":"nonpayable"},{"type":"function","name":"get","inputs":[{"name":"id","type":"bytes32","internalType":"bytes32"}],"outputs":[{"name":"","type":"bytes","internalType":"bytes"}],"stateMutability":"view"},{"type":"function","name":"purge","inputs":[{"name":"beforeTimestamp","type":"uint256","internalType":"uint256"}],"outputs":[{"name":"removedCount","type":"uint256","internalType":"uint256"}],"stateMutability":"nonpayable"},{"type":"function","name":"query","inputs":[{"name":"flow","type":"string","internalType":"string"}],"outputs":[{"name":"result","type":"tuple","internalType":"struct ActionLog.QueryOkResult","components":[{"name":"success","type":"bool","internalType":"bool"},{"name":"records","type":"bytes[]","internalType":"bytes[]"}]}],"stateMutability":"nonpayable"},{"type":"function","name":"recordCount","inputs":[],"outputs":[{"name":"","type":"uint256","internalType":"uint256"}],"stateMutability":"view"},{"type":"function","name":"recordExists","inputs":[{"name":"id","type":"bytes32","internalType":"bytes32"}],"outputs":[{"name":"","type":"bool","internalType":"bool"}],"stateMutability":"view"},{"type":"event","name":"AddEdgeCompleted","inputs":[{"name":"variant","type":"string","indexed":false,"internalType":"string"}],"anonymous":false},{"type":"event","name":"AppendCompleted","inputs":[{"name":"variant","type":"string","indexed":false,"internalType":"string"},{"name":"id","type":"bytes32","indexed":false,"internalType":"bytes32"}],"anonymous":false},{"type":"event","name":"PurgeCompleted","inputs":[{"name":"removedCount","type":"uint256","indexed":false,"internalType":"uint256"}],"anonymous":false},{"type":"event","name":"QueryCompleted","inputs":[{"name":"variant","type":"string","indexed":false,"internalType":"string"},{"name":"records","type":"bytes[]","indexed":false,"internalType":"bytes[]"}],"anonymous":false}],"bytecode":{"object":"0x608060405234801561000f575f80fd5b50611e1f8061001d5f395ff3fe608060405234801561000f575f80fd5b506004361061007b575f3560e01c80638eaa6ac0116100595780638eaa6ac01461010f578063900407bc1461013f578063f34b618a1461015d578063f79fe5381461018d5761007b565b80631963f2b31461007f5780634b40964b146100af5780637c261929146100df575b5f80fd5b61009960048036038101906100949190610f06565b6101bd565b6040516100a69190610fb0565b60405180910390f35b6100c960048036038101906100c49190611048565b6103d6565b6040516100d691906110c8565b60405180910390f35b6100f960048036038101906100f491906110e1565b610650565b60405161010691906112ab565b60405180910390f35b610129600480360381019061012491906112cb565b610bbb565b604051610136919061133e565b60405180910390f35b610147610cbc565b6040516101549190611376565b60405180910390f35b610177600480360381019061017291906113b9565b610cc8565b6040516101849190611376565b60405180910390f35b6101a760048036038101906101a291906112cb565b610de5565b6040516101b491906110c8565b60405180910390f35b6101c5610e0d565b5f838390501161020a576040517f08c379a00000000000000000000000000000000000000000000000000000000081526004016102019061143e565b60405180910390fd5b5f83834260045460405160200161022494939291906114b8565b60405160208183030381529060405280519060200120905060045f81548092919061024e9061151f565b91905055506040518060a0016040528085858080601f0160208091040260200160405190810160405280939291908181526020018383808284375f81840152601f19601f82011690508083019250505050505050815260200142815260200160405180602001604052805f815250815260200160405180602001604052805f8152508152602001600115158152505f808381526020019081526020015f205f820151815f0190816102ff919061178d565b5060208201518160010155604082015181600201908161031f91906118be565b50606082015181600301908161033591906118be565b506080820151816004015f6101000a81548160ff021916908315150217905550905050600181908060018154018082558091505060019003905f5260205f20015f909190919091505560405180604001604052806001151581526020018281525091507fa2695ddf22892c9568ba785efe1acae9f8d2245dd3e9f1b73ebd9b0c2097ba97816040516103c791906119e6565b60405180910390a15092915050565b5f805f8681526020019081526020015f206004015f9054906101000a900460ff16610436576040517f08c379a000000000000000000000000000000000000000000000000000000000815260040161042d90611a5c565b60405180910390fd5b5f808581526020019081526020015f206004015f9054906101000a900460ff16610495576040517f08c379a000000000000000000000000000000000000000000000000000000000815260040161048c90611ac4565b60405180910390fd5b5f858585856040516020016104ad9493929190611b30565b60405160208183030381529060405280519060200120905060025f8281526020019081526020015f206003015f9054906101000a900460ff1615610526576040517f08c379a000000000000000000000000000000000000000000000000000000000815260040161051d90611bb4565b60405180910390fd5b604051806080016040528087815260200186815260200185858080601f0160208091040260200160405190810160405280939291908181526020018383808284375f81840152601f19601f8201169050808301925050505050505081526020016001151581525060025f8381526020019081526020015f205f820151815f01556020820151816001015560408201518160020190816105c591906118be565b506060820151816003015f6101000a81548160ff021916908315150217905550905050600381908060018154018082558091505060019003905f5260205f20015f90919091909150557f1088c7d3a143f02991f4f425e16ae273b1fb5453eca8e528ff6b934b3282cbe060405161063b90611bd2565b60405180910390a16001915050949350505050565b610658610e2a565b5f60018054905090505f8167ffffffffffffffff81111561067c5761067b611566565b5b6040519080825280602002602001820160405280156106af57816020015b606081526020019060019003908161069a5790505b5090505f8086866040516020016106c7929190611bf0565b6040516020818303038152906040528051906020012090505f80888890501490505f5b8581101561084d575f6001828154811061070757610706611c08565b5b905f5260205f20015490505f808281526020019081526020015f206004015f9054906101000a900460ff1661073c575061083a565b828061076d5750835f808381526020019081526020015f205f016040516107639190611cb5565b6040518091039020145b15610838575f808281526020019081526020015f205f01805461078f906115c0565b80601f01602080910402602001604051908101604052809291908181526020018280546107bb906115c0565b80156108065780601f106107dd57610100808354040283529160200191610806565b820191905f5260205f20905b8154815290600101906020018083116107e957829003601f168201915b505050505086868151811061081e5761081d611c08565b5b602002602001018190525084806108349061151f565b9550505b505b80806108459061151f565b9150506106ea565b508015610ab1575f8567ffffffffffffffff81111561086f5761086e611566565b5b6040519080825280602002602001820160405280156108a257816020015b606081526020019060019003908161088d5790505b5090505f805b878110156109e6575f80600183815481106108c6576108c5611c08565b5b905f5260205f20015481526020019081526020015f206004015f9054906101000a900460ff16156109d3575f806001838154811061090757610906611c08565b5b905f5260205f20015481526020019081526020015f205f01805461092a906115c0565b80601f0160208091040260200160405190810160405280929190818152602001828054610956906115c0565b80156109a15780601f10610978576101008083540402835291602001916109a1565b820191905f5260205f20905b81548152906001019060200180831161098457829003601f168201915b50505050508383815181106109b9576109b8611c08565b5b602002602001018190525081806109cf9061151f565b9250505b80806109de9061151f565b9150506108a8565b505f8167ffffffffffffffff811115610a0257610a01611566565b5b604051908082528060200260200182016040528015610a3557816020015b6060815260200190600190039081610a205790505b5090505f5b82811015610a8e57838181518110610a5557610a54611c08565b5b6020026020010151828281518110610a7057610a6f611c08565b5b60200260200101819052508080610a869061151f565b915050610a3a565b506040518060400160405280600115158152602001828152509850505050610b75565b5f8367ffffffffffffffff811115610acc57610acb611566565b5b604051908082528060200260200182016040528015610aff57816020015b6060815260200190600190039081610aea5790505b5090505f5b84811015610b5857858181518110610b1f57610b1e611c08565b5b6020026020010151828281518110610b3a57610b39611c08565b5b60200260200101819052508080610b509061151f565b915050610b04565b506040518060400160405280600115158152602001828152509650505b7f53214223d30cab8117c66dc2a91ee1cc8fd788b8cdcdd9d278280dfe92d331068660200151604051610ba89190611d4e565b60405180910390a1505050505092915050565b60605f808381526020019081526020015f206004015f9054906101000a900460ff16610c1c576040517f08c379a0000000000000000000000000000000000000000000000000000000008152600401610c1390611dcb565b60405180910390fd5b5f808381526020019081526020015f205f018054610c39906115c0565b80601f0160208091040260200160405190810160405280929190818152602001828054610c65906115c0565b8015610cb05780601f10610c8757610100808354040283529160200191610cb0565b820191905f5260205f20905b815481529060010190602001808311610c9357829003601f168201915b50505050509050919050565b5f600180549050905090565b5f805f90505b600180549050811015610da8575f60018281548110610cf057610cef611c08565b5b905f5260205f20015490505f808281526020019081526020015f206004015f9054906101000a900460ff168015610d395750835f808381526020019081526020015f2060010154105b15610d94575f805f8381526020019081526020015f206004015f6101000a81548160ff0219169083151502179055505f808281526020019081526020015f205f015f610d859190610e45565b8280610d909061151f565b9350505b508080610da09061151f565b915050610cce565b507f017b599c62dcc61504b2a6104dab60c16d0ebe2de48b2109707c3163b7780d9181604051610dd89190611376565b60405180910390a1919050565b5f805f8381526020019081526020015f206004015f9054906101000a900460ff169050919050565b60405180604001604052805f151581526020015f80191681525090565b60405180604001604052805f15158152602001606081525090565b508054610e51906115c0565b5f825580601f10610e625750610e7f565b601f0160209004905f5260205f2090810190610e7e9190610e82565b5b50565b5b80821115610e99575f815f905550600101610e83565b5090565b5f80fd5b5f80fd5b5f80fd5b5f80fd5b5f80fd5b5f8083601f840112610ec657610ec5610ea5565b5b8235905067ffffffffffffffff811115610ee357610ee2610ea9565b5b602083019150836001820283011115610eff57610efe610ead565b5b9250929050565b5f8060208385031215610f1c57610f1b610e9d565b5b5f83013567ffffffffffffffff811115610f3957610f38610ea1565b5b610f4585828601610eb1565b92509250509250929050565b5f8115159050919050565b610f6581610f51565b82525050565b5f819050919050565b610f7d81610f6b565b82525050565b604082015f820151610f975f850182610f5c565b506020820151610faa6020850182610f74565b50505050565b5f604082019050610fc35f830184610f83565b92915050565b610fd281610f6b565b8114610fdc575f80fd5b50565b5f81359050610fed81610fc9565b92915050565b5f8083601f84011261100857611007610ea5565b5b8235905067ffffffffffffffff81111561102557611024610ea9565b5b60208301915083600182028301111561104157611040610ead565b5b9250929050565b5f805f80606085870312156110605761105f610e9d565b5b5f61106d87828801610fdf565b945050602061107e87828801610fdf565b935050604085013567ffffffffffffffff81111561109f5761109e610ea1565b5b6110ab87828801610ff3565b925092505092959194509250565b6110c281610f51565b82525050565b5f6020820190506110db5f8301846110b9565b92915050565b5f80602083850312156110f7576110f6610e9d565b5b5f83013567ffffffffffffffff81111561111457611113610ea1565b5b61112085828601610ff3565b92509250509250929050565b5f81519050919050565b5f82825260208201905092915050565b5f819050602082019050919050565b5f81519050919050565b5f82825260208201905092915050565b5f5b8381101561118c578082015181840152602081019050611171565b5f8484015250505050565b5f601f19601f8301169050919050565b5f6111b182611155565b6111bb818561115f565b93506111cb81856020860161116f565b6111d481611197565b840191505092915050565b5f6111ea83836111a7565b905092915050565b5f602082019050919050565b5f6112088261112c565b6112128185611136565b93508360208202850161122485611146565b805f5b8581101561125f578484038952815161124085826111df565b945061124b836111f2565b925060208a01995050600181019050611227565b50829750879550505050505092915050565b5f604083015f8301516112865f860182610f5c565b506020830151848203602086015261129e82826111fe565b9150508091505092915050565b5f6020820190508181035f8301526112c38184611271565b905092915050565b5f602082840312156112e0576112df610e9d565b5b5f6112ed84828501610fdf565b91505092915050565b5f82825260208201905092915050565b5f61131082611155565b61131a81856112f6565b935061132a81856020860161116f565b61133381611197565b840191505092915050565b5f6020820190508181035f8301526113568184611306565b905092915050565b5f819050919050565b6113708161135e565b82525050565b5f6020820190506113895f830184611367565b92915050565b6113988161135e565b81146113a2575f80fd5b50565b5f813590506113b38161138f565b92915050565b5f602082840312156113ce576113cd610e9d565b5b5f6113db848285016113a5565b91505092915050565b5f82825260208201905092915050565b7f5265636f72642063616e6e6f7420626520656d707479000000000000000000005f82015250565b5f6114286016836113e4565b9150611433826113f4565b602082019050919050565b5f6020820190508181035f8301526114558161141c565b9050919050565b5f81905092915050565b828183375f83830152505050565b5f61147f838561145c565b935061148c838584611466565b82840190509392505050565b5f819050919050565b6114b26114ad8261135e565b611498565b82525050565b5f6114c4828688611474565b91506114d082856114a1565b6020820191506114e082846114a1565b60208201915081905095945050505050565b7f4e487b71000000000000000000000000000000000000000000000000000000005f52601160045260245ffd5b5f6115298261135e565b91507fffffffffffffffffffffffffffffffffffffffffffffffffffffffffffffffff820361155b5761155a6114f2565b5b600182019050919050565b7f4e487b71000000000000000000000000000000000000000000000000000000005f52604160045260245ffd5b7f4e487b71000000000000000000000000000000000000000000000000000000005f52602260045260245ffd5b5f60028204905060018216806115d757607f821691505b6020821081036115ea576115e9611593565b5b50919050565b5f819050815f5260205f209050919050565b5f6020601f8301049050919050565b5f82821b905092915050565b5f6008830261164c7fffffffffffffffffffffffffffffffffffffffffffffffffffffffffffffffff82611611565b6116568683611611565b95508019841693508086168417925050509392505050565b5f819050919050565b5f61169161168c6116878461135e565b61166e565b61135e565b9050919050565b5f819050919050565b6116aa83611677565b6116be6116b682611698565b84845461161d565b825550505050565b5f90565b6116d26116c6565b6116dd8184846116a1565b505050565b5b81811015611700576116f55f826116ca565b6001810190506116e3565b5050565b601f82111561174557611716816115f0565b61171f84611602565b8101602085101561172e578190505b61174261173a85611602565b8301826116e2565b50505b505050565b5f82821c905092915050565b5f6117655f198460080261174a565b1980831691505092915050565b5f61177d8383611756565b9150826002028217905092915050565b61179682611155565b67ffffffffffffffff8111156117af576117ae611566565b5b6117b982546115c0565b6117c4828285611704565b5f60209050601f8311600181146117f5575f84156117e3578287015190505b6117ed8582611772565b865550611854565b601f198416611803866115f0565b5f5b8281101561182a57848901518255600182019150602085019450602081019050611805565b868310156118475784890151611843601f891682611756565b8355505b6001600288020188555050505b505050505050565b5f81519050919050565b5f819050815f5260205f209050919050565b601f8211156118b95761188a81611866565b61189384611602565b810160208510156118a2578190505b6118b66118ae85611602565b8301826116e2565b50505b505050565b6118c78261185c565b67ffffffffffffffff8111156118e0576118df611566565b5b6118ea82546115c0565b6118f5828285611878565b5f60209050601f831160018114611926575f8415611914578287015190505b61191e8582611772565b865550611985565b601f19841661193486611866565b5f5b8281101561195b57848901518255600182019150602085019450602081019050611936565b868310156119785784890151611974601f891682611756565b8355505b6001600288020188555050505b505050505050565b7f6f6b0000000000000000000000000000000000000000000000000000000000005f82015250565b5f6119c16002836113e4565b91506119cc8261198d565b602082019050919050565b6119e081610f6b565b82525050565b5f6040820190508181035f8301526119fd816119b5565b9050611a0c60208301846119d7565b92915050565b7f536f75726365207265636f7264206e6f7420666f756e640000000000000000005f82015250565b5f611a466017836113e4565b9150611a5182611a12565b602082019050919050565b5f6020820190508181035f830152611a7381611a3a565b9050919050565b7f546172676574207265636f7264206e6f7420666f756e640000000000000000005f82015250565b5f611aae6017836113e4565b9150611ab982611a7a565b602082019050919050565b5f6020820190508181035f830152611adb81611aa2565b9050919050565b5f819050919050565b611afc611af782610f6b565b611ae2565b82525050565b5f81905092915050565b5f611b178385611b02565b9350611b24838584611466565b82840190509392505050565b5f611b3b8287611aeb565b602082019150611b4b8286611aeb565b602082019150611b5c828486611b0c565b915081905095945050505050565b7f4564676520616c726561647920657869737473000000000000000000000000005f82015250565b5f611b9e6013836113e4565b9150611ba982611b6a565b602082019050919050565b5f6020820190508181035f830152611bcb81611b92565b9050919050565b5f6020820190508181035f830152611be9816119b5565b9050919050565b5f611bfc828486611b0c565b91508190509392505050565b7f4e487b71000000000000000000000000000000000000000000000000000000005f52603260045260245ffd5b5f8154611c41816115c0565b611c4b818661145c565b9450600182165f8114611c655760018114611c7a57611cac565b60ff1983168652811515820286019350611cac565b611c83856115f0565b5f5b83811015611ca457815481890152600182019150602081019050611c85565b838801955050505b50505092915050565b5f611cc08284611c35565b915081905092915050565b5f82825260208201905092915050565b5f611ce58261112c565b611cef8185611ccb565b935083602082028501611d0185611146565b805f5b85811015611d3c5784840389528151611d1d85826111df565b9450611d28836111f2565b925060208a01995050600181019050611d04565b50829750879550505050505092915050565b5f6040820190508181035f830152611d65816119b5565b90508181036020830152611d798184611cdb565b905092915050565b7f5265636f7264206e6f7420666f756e64000000000000000000000000000000005f82015250565b5f611db56010836113e4565b9150611dc082611d81565b602082019050919050565b5f6020820190508181035f830152611de281611da9565b905091905056fea2646970667358221220e875e996fc5e528900b6239bde220ad7cde656e4c9686cd979d3c29e2b7139a664736f6c63430008140033","linkReferences":{}},"methodIdentifiers":{"addEdge(bytes32,bytes32,string)":"4b40964b","append(bytes)":"1963f2b3","get(bytes32)":"8eaa6ac0","purge(uint256)":"f34b618a","query(string)":"7c261929","recordCount()":"900407bc","recordExists(bytes32)":"f79fe538"},"id":22}