{"abi":[{"type":"function","name":"addFilter","inputs":[{"name":"queryId","type":"bytes32","internalType":"bytes32"},{"name":"field","type":"string","internalType":"string"},{"name":"operator_","type":"string","internalType":"string"},{"name":"value","type":"string","internalType":"string"}],"outputs":[],"stateMutability":"nonpayable"},{"type":"function","name":"addSort","inputs":[{"name":"queryId","type":"bytes32","internalType":"bytes32"},{"name":"field","type":"string","internalType":"string"},{"name":"direction","type":"string","internalType":"string"}],"outputs":[],"stateMutability":"nonpayable"},{"type":"function","name":"create","inputs":[{"name":"queryId","type":"bytes32","internalType":"bytes32"},{"name":"queryString","type":"string","internalType":"string"},{"name":"scope","type":"string","internalType":"string"}],"outputs":[],"stateMutability":"nonpayable"},{"type":"function","name":"getQuery","inputs":[{"name":"queryId","type":"bytes32","internalType":"bytes32"}],"outputs":[{"name":"","type":"tuple","internalType":"struct Query.QueryDef","components":[{"name":"queryString","type":"string","internalType":"string"},{"name":"scope","type":"string","internalType":"string"},{"name":"filters","type":"string","internalType":"string"},{"name":"sorts","type":"string","internalType":"string"},{"name":"exists","type":"bool","internalType":"bool"}]}],"stateMutability":"view"},{"type":"event","name":"FilterAdded","inputs":[{"name":"queryId","type":"bytes32","indexed":true,"internalType":"bytes32"}],"anonymous":false},{"type":"event","name":"QueryCreated","inputs":[{"name":"queryId","type":"bytes32","indexed":true,"internalType":"bytes32"}],"anonymous":false},{"type":"event","name":"SortAdded","inputs":[{"name":"queryId","type":"bytes32","indexed":true,"internalType":"bytes32"}],"anonymous":false}],"bytecode":{"object":"0x608060405234801561000f575f80fd5b506111278061001d5f395ff3fe608060405234801561000f575f80fd5b506004361061004a575f3560e01c8063240e9d9b1461004e5780638a67d2ce1461006a578063d65ce22714610086578063e501fe3c146100b6575b5f80fd5b61006860048036038101906100639190610848565b6100d2565b005b610084600480360381019061007f91906108d9565b6101bf565b005b6100a0600480360381019061009b919061099d565b6102b2565b6040516100ad9190610af4565b60405180910390f35b6100d060048036038101906100cb9190610848565b610594565b005b5f808681526020019081526020015f206004015f9054906101000a900460ff16610131576040517f08c379a000000000000000000000000000000000000000000000000000000000815260040161012890610b6e565b60405180910390fd5b5f808681526020019081526020015f206003018484848460405160200161015c959493929190610d4b565b6040516020818303038152906040525f808781526020019081526020015f20600301908161018a9190610f56565b50847ffdcdb5a92a315339e9ca8eb3ecd27dfc54d988ffe2a6276b4b757013331a960760405160405180910390a25050505050565b5f808881526020019081526020015f206004015f9054906101000a900460ff1661021e576040517f08c379a000000000000000000000000000000000000000000000000000000000815260040161021590610b6e565b60405180910390fd5b5f808881526020019081526020015f2060020186868686868660405160200161024d9796959493929190611025565b6040516020818303038152906040525f808981526020019081526020015f20600201908161027b9190610f56565b50867fdac653248d9ddb411bbe5cca950cc118883b75bd85b496c72a14fe2b5699556960405160405180910390a250505050505050565b6102ba61077c565b5f808381526020019081526020015f206004015f9054906101000a900460ff16610319576040517f08c379a000000000000000000000000000000000000000000000000000000000815260040161031090610b6e565b60405180910390fd5b5f808381526020019081526020015f206040518060a00160405290815f8201805461034390610bb9565b80601f016020809104026020016040519081016040528092919081815260200182805461036f90610bb9565b80156103ba5780601f10610391576101008083540402835291602001916103ba565b820191905f5260205f20905b81548152906001019060200180831161039d57829003601f168201915b505050505081526020016001820180546103d390610bb9565b80601f01602080910402602001604051908101604052809291908181526020018280546103ff90610bb9565b801561044a5780601f106104215761010080835404028352916020019161044a565b820191905f5260205f20905b81548152906001019060200180831161042d57829003601f168201915b5050505050815260200160028201805461046390610bb9565b80601f016020809104026020016040519081016040528092919081815260200182805461048f90610bb9565b80156104da5780601f106104b1576101008083540402835291602001916104da565b820191905f5260205f20905b8154815290600101906020018083116104bd57829003601f168201915b505050505081526020016003820180546104f390610bb9565b80601f016020809104026020016040519081016040528092919081815260200182805461051f90610bb9565b801561056a5780601f106105415761010080835404028352916020019161056a565b820191905f5260205f20905b81548152906001019060200180831161054d57829003601f168201915b50505050508152602001600482015f9054906101000a900460ff1615151515815250509050919050565b5f808681526020019081526020015f206004015f9054906101000a900460ff16156105f4576040517f08c379a00000000000000000000000000000000000000000000000000000000081526004016105eb906110d3565b60405180910390fd5b6040518060a0016040528085858080601f0160208091040260200160405190810160405280939291908181526020018383808284375f81840152601f19601f82011690508083019250505050505050815260200183838080601f0160208091040260200160405190810160405280939291908181526020018383808284375f81840152601f19601f82011690508083019250505050505050815260200160405180602001604052805f815250815260200160405180602001604052805f8152508152602001600115158152505f808781526020019081526020015f205f820151815f0190816106e39190610f56565b5060208201518160010190816106f99190610f56565b50604082015181600201908161070f9190610f56565b5060608201518160030190816107259190610f56565b506080820151816004015f6101000a81548160ff021916908315150217905550905050847f205d3ffdc0d5a5d6207153f7148154f034fe73b86255e236cff6f3079fa8e22a60405160405180910390a25050505050565b6040518060a00160405280606081526020016060815260200160608152602001606081526020015f151581525090565b5f80fd5b5f80fd5b5f819050919050565b6107c6816107b4565b81146107d0575f80fd5b50565b5f813590506107e1816107bd565b92915050565b5f80fd5b5f80fd5b5f80fd5b5f8083601f840112610808576108076107e7565b5b8235905067ffffffffffffffff811115610825576108246107eb565b5b602083019150836001820283011115610841576108406107ef565b5b9250929050565b5f805f805f60608688031215610861576108606107ac565b5b5f61086e888289016107d3565b955050602086013567ffffffffffffffff81111561088f5761088e6107b0565b5b61089b888289016107f3565b9450945050604086013567ffffffffffffffff8111156108be576108bd6107b0565b5b6108ca888289016107f3565b92509250509295509295909350565b5f805f805f805f6080888a0312156108f4576108f36107ac565b5b5f6109018a828b016107d3565b975050602088013567ffffffffffffffff811115610922576109216107b0565b5b61092e8a828b016107f3565b9650965050604088013567ffffffffffffffff811115610951576109506107b0565b5b61095d8a828b016107f3565b9450945050606088013567ffffffffffffffff8111156109805761097f6107b0565b5b61098c8a828b016107f3565b925092505092959891949750929550565b5f602082840312156109b2576109b16107ac565b5b5f6109bf848285016107d3565b91505092915050565b5f81519050919050565b5f82825260208201905092915050565b5f5b838110156109ff5780820151818401526020810190506109e4565b5f8484015250505050565b5f601f19601f8301169050919050565b5f610a24826109c8565b610a2e81856109d2565b9350610a3e8185602086016109e2565b610a4781610a0a565b840191505092915050565b5f8115159050919050565b610a6681610a52565b82525050565b5f60a083015f8301518482035f860152610a868282610a1a565b91505060208301518482036020860152610aa08282610a1a565b91505060408301518482036040860152610aba8282610a1a565b91505060608301518482036060860152610ad48282610a1a565b9150506080830151610ae96080860182610a5d565b508091505092915050565b5f6020820190508181035f830152610b0c8184610a6c565b905092915050565b5f82825260208201905092915050565b7f517565727920646f6573206e6f742065786973740000000000000000000000005f82015250565b5f610b58601483610b14565b9150610b6382610b24565b602082019050919050565b5f6020820190508181035f830152610b8581610b4c565b9050919050565b7f4e487b71000000000000000000000000000000000000000000000000000000005f52602260045260245ffd5b5f6002820490506001821680610bd057607f821691505b602082108103610be357610be2610b8c565b5b50919050565b5f81905092915050565b5f819050815f5260205f209050919050565b5f8154610c1181610bb9565b610c1b8186610be9565b9450600182165f8114610c355760018114610c4a57610c7c565b60ff1983168652811515820286019350610c7c565b610c5385610bf3565b5f5b83811015610c7457815481890152600182019150602081019050610c55565b838801955050505b50505092915050565b828183375f83830152505050565b5f610c9e8385610be9565b9350610cab838584610c85565b82840190509392505050565b7f3a000000000000000000000000000000000000000000000000000000000000005f82015250565b5f610ceb600183610be9565b9150610cf682610cb7565b600182019050919050565b7f3b000000000000000000000000000000000000000000000000000000000000005f82015250565b5f610d35600183610be9565b9150610d4082610d01565b600182019050919050565b5f610d568288610c05565b9150610d63828688610c93565b9150610d6e82610cdf565b9150610d7b828486610c93565b9150610d8682610d29565b91508190509695505050505050565b7f4e487b71000000000000000000000000000000000000000000000000000000005f52604160045260245ffd5b5f6020601f8301049050919050565b5f82821b905092915050565b5f60088302610e0c7fffffffffffffffffffffffffffffffffffffffffffffffffffffffffffffffff82610dd1565b610e168683610dd1565b95508019841693508086168417925050509392505050565b5f819050919050565b5f819050919050565b5f610e5a610e55610e5084610e2e565b610e37565b610e2e565b9050919050565b5f819050919050565b610e7383610e40565b610e87610e7f82610e61565b848454610ddd565b825550505050565b5f90565b610e9b610e8f565b610ea6818484610e6a565b505050565b5b81811015610ec957610ebe5f82610e93565b600181019050610eac565b5050565b601f821115610f0e57610edf81610bf3565b610ee884610dc2565b81016020851015610ef7578190505b610f0b610f0385610dc2565b830182610eab565b50505b505050565b5f82821c905092915050565b5f610f2e5f1984600802610f13565b1980831691505092915050565b5f610f468383610f1f565b9150826002028217905092915050565b610f5f826109c8565b67ffffffffffffffff811115610f7857610f77610d95565b5b610f828254610bb9565b610f8d828285610ecd565b5f60209050601f831160018114610fbe575f8415610fac578287015190505b610fb68582610f3b565b86555061101d565b601f198416610fcc86610bf3565b5f5b82811015610ff357848901518255600182019150602085019450602081019050610fce565b86831015611010578489015161100c601f891682610f1f565b8355505b6001600288020188555050505b505050505050565b5f611030828a610c05565b915061103d82888a610c93565b915061104882610cdf565b9150611055828688610c93565b915061106082610cdf565b915061106d828486610c93565b915061107882610d29565b915081905098975050505050505050565b7f517565727920616c7265616479206578697374730000000000000000000000005f82015250565b5f6110bd601483610b14565b91506110c882611089565b602082019050919050565b5f6020820190508181035f8301526110ea816110b1565b905091905056fea2646970667358221220392d051b3927004243e2fa51e9be38d8f2bf7285009d3f8403a3ae575743652b64736f6c63430008140033","linkReferences":{}},"methodIdentifiers":{"addFilter(bytes32,string,string,string)":"8a67d2ce","addSort(bytes32,string,string)":"240e9d9b","create(bytes32,string,string)":"e501fe3c","getQuery(bytes32)":"d65ce227"},"id":207}