{"abi":[{"type":"function","name":"batch","inputs":[{"name":"signals","type":"string","internalType":"string"}],"outputs":[{"name":"","type":"tuple","internalType":"struct Signal.BatchOkResult","components":[{"name":"success","type":"bool","internalType":"bool"},{"name":"count","type":"int256","internalType":"int256"}]}],"stateMutability":"nonpayable"},{"type":"function","name":"create","inputs":[{"name":"signal","type":"bytes32","internalType":"bytes32"},{"name":"kind","type":"string","internalType":"string"},{"name":"initialValue","type":"string","internalType":"string"}],"outputs":[{"name":"","type":"tuple","internalType":"struct Signal.CreateOkResult","components":[{"name":"success","type":"bool","internalType":"bool"},{"name":"signal","type":"bytes32","internalType":"bytes32"}]}],"stateMutability":"nonpayable"},{"type":"function","name":"dispose","inputs":[{"name":"signal","type":"bytes32","internalType":"bytes32"}],"outputs":[{"name":"","type":"tuple","internalType":"struct Signal.DisposeOkResult","components":[{"name":"success","type":"bool","internalType":"bool"},{"name":"signal","type":"bytes32","internalType":"bytes32"}]}],"stateMutability":"nonpayable"},{"type":"function","name":"read","inputs":[{"name":"signal","type":"bytes32","internalType":"bytes32"}],"outputs":[{"name":"","type":"tuple","internalType":"struct Signal.ReadOkResult","components":[{"name":"success","type":"bool","internalType":"bool"},{"name":"signal","type":"bytes32","internalType":"bytes32"},{"name":"value","type":"string","internalType":"string"},{"name":"version","type":"int256","internalType":"int256"}]}],"stateMutability":"nonpayable"},{"type":"function","name":"write","inputs":[{"name":"signal","type":"bytes32","internalType":"bytes32"},{"name":"value","type":"string","internalType":"string"}],"outputs":[{"name":"","type":"tuple","internalType":"struct Signal.WriteOkResult","components":[{"name":"success","type":"bool","internalType":"bool"},{"name":"signal","type":"bytes32","internalType":"bytes32"},{"name":"version","type":"int256","internalType":"int256"}]}],"stateMutability":"nonpayable"},{"type":"event","name":"BatchCompleted","inputs":[{"name":"variant","type":"string","indexed":false,"internalType":"string"},{"name":"count","type":"int256","indexed":false,"internalType":"int256"}],"anonymous":false},{"type":"event","name":"CreateCompleted","inputs":[{"name":"variant","type":"string","indexed":false,"internalType":"string"},{"name":"signal","type":"bytes32","indexed":true,"internalType":"bytes32"}],"anonymous":false},{"type":"event","name":"DisposeCompleted","inputs":[{"name":"variant","type":"string","indexed":false,"internalType":"string"},{"name":"signal","type":"bytes32","indexed":true,"internalType":"bytes32"}],"anonymous":false},{"type":"event","name":"ReadCompleted","inputs":[{"name":"variant","type":"string","indexed":false,"internalType":"string"},{"name":"signal","type":"bytes32","indexed":true,"internalType":"bytes32"},{"name":"version","type":"int256","indexed":false,"internalType":"int256"}],"anonymous":false},{"type":"event","name":"WriteCompleted","inputs":[{"name":"variant","type":"string","indexed":false,"internalType":"string"},{"name":"signal","type":"bytes32","indexed":true,"internalType":"bytes32"},{"name":"version","type":"int256","indexed":false,"internalType":"int256"}],"anonymous":false}],"bytecode":{"object":"0x608060405234801561000f575f80fd5b506113f88061001d5f395ff3fe608060405234801561000f575f80fd5b5060043610610055575f3560e01c80631ffe199914610059578063393f5fbc1461008957806361da1439146100b9578063b2ca9767146100e9578063e501fe3c14610119575b5f80fd5b610073600480360381019061006e9190610a3c565b610149565b6040516100809190610ae2565b60405180910390f35b6100a3600480360381019061009e9190610b2e565b6101b1565b6040516100b09190610bd7565b60405180910390f35b6100d360048036038101906100ce9190610bf0565b610342565b6040516100e09190610cf5565b60405180910390f35b61010360048036038101906100fe9190610bf0565b6104b0565b6040516101109190610d42565b60405180910390f35b610133600480360381019061012e9190610d5b565b61060d565b6040516101409190610e10565b60405180910390f35b6101516107f6565b5f60028054905090507fb59e0c3c9cdfdde615635c58ead28459cae8550563ed23f88b62878cef31d1c6816040516101899190610e92565b60405180910390a1604051806040016040528060011515815260200182815250915050919050565b6101b9610810565b60015f8481526020019081526020015f205f9054906101000a900460ff16610216576040517f08c379a000000000000000000000000000000000000000000000000000000000815260040161020d90610f08565b60405180910390fd5b5f808481526020019081526020015f206003015f9054906101000a900460ff16610275576040517f08c379a000000000000000000000000000000000000000000000000000000000815260040161026c90610f70565b60405180910390fd5b815f808581526020019081526020015f2060010190816102959190611191565b505f808481526020019081526020015f206002015f8154809291906102b99061128d565b9190505550827faa39423c3d0e3696f51554279e858831201e15c22f5e6192f143d72750a86d215f808681526020019081526020015f20600201546040516103019190610e92565b60405180910390a260405180606001604052806001151581526020018481526020015f808681526020019081526020015f2060020154815250905092915050565b61034a610833565b60015f8381526020019081526020015f205f9054906101000a900460ff166103a7576040517f08c379a000000000000000000000000000000000000000000000000000000000815260040161039e90610f08565b60405180910390fd5b5f805f8481526020019081526020015f209050827fcd9c5375b244bb0a29d24d510193b955025937a927f2801f84c4714939e8030382600201546040516103ee9190610e92565b60405180910390a2604051806080016040528060011515815260200184815260200182600101805461041f90610fbb565b80601f016020809104026020016040519081016040528092919081815260200182805461044b90610fbb565b80156104965780601f1061046d57610100808354040283529160200191610496565b820191905f5260205f20905b81548152906001019060200180831161047957829003601f168201915b505050505081526020018260020154815250915050919050565b6104b861085d565b60015f8381526020019081526020015f205f9054906101000a900460ff16610515576040517f08c379a000000000000000000000000000000000000000000000000000000000815260040161050c90610f08565b60405180910390fd5b5f805f8481526020019081526020015f206003015f6101000a81548160ff0219169083151502179055505f808381526020019081526020015f205f8082015f61055e919061087a565b600182015f61056d919061087a565b600282015f9055600382015f6101000a81549060ff0219169055600482015f905550505f60015f8481526020019081526020015f205f6101000a81548160ff021916908315150217905550817fd3357455e25cb0fc36c98d84c747c9939e142afe9477c0edc90169bbc32279046040516105e6906112d4565b60405180910390a26040518060400160405280600115158152602001838152509050919050565b6106156108b7565b60015f8581526020019081526020015f205f9054906101000a900460ff1615610673576040517f08c379a000000000000000000000000000000000000000000000000000000000815260040161066a9061133c565b60405180910390fd5b5f8351116106b6576040517f08c379a00000000000000000000000000000000000000000000000000000000081526004016106ad906113a4565b60405180910390fd5b6040518060a0016040528084815260200183815260200160018152602001600115158152602001428152505f808681526020019081526020015f205f820151815f0190816107049190611191565b50602082015181600101908161071a9190611191565b50604082015181600201556060820151816003015f6101000a81548160ff021916908315150217905550608082015181600401559050506001805f8681526020019081526020015f205f6101000a81548160ff021916908315150217905550600284908060018154018082558091505060019003905f5260205f20015f9091909190915055837f1c7208edfeacc49bb82962da7eeb2b2b4e4f5ba1dedc0499662f37cb87039d906040516107cd906112d4565b60405180910390a260405180604001604052806001151581526020018581525090509392505050565b60405180604001604052805f151581526020015f81525090565b60405180606001604052805f151581526020015f80191681526020015f81525090565b60405180608001604052805f151581526020015f8019168152602001606081526020015f81525090565b60405180604001604052805f151581526020015f80191681525090565b50805461088690610fbb565b5f825580601f1061089757506108b4565b601f0160209004905f5260205f20908101906108b391906108d4565b5b50565b60405180604001604052805f151581526020015f80191681525090565b5b808211156108eb575f815f9055506001016108d5565b5090565b5f604051905090565b5f80fd5b5f80fd5b5f80fd5b5f80fd5b5f601f19601f8301169050919050565b7f4e487b71000000000000000000000000000000000000000000000000000000005f52604160045260245ffd5b61094e82610908565b810181811067ffffffffffffffff8211171561096d5761096c610918565b5b80604052505050565b5f61097f6108ef565b905061098b8282610945565b919050565b5f67ffffffffffffffff8211156109aa576109a9610918565b5b6109b382610908565b9050602081019050919050565b828183375f83830152505050565b5f6109e06109db84610990565b610976565b9050828152602081018484840111156109fc576109fb610904565b5b610a078482856109c0565b509392505050565b5f82601f830112610a2357610a22610900565b5b8135610a338482602086016109ce565b91505092915050565b5f60208284031215610a5157610a506108f8565b5b5f82013567ffffffffffffffff811115610a6e57610a6d6108fc565b5b610a7a84828501610a0f565b91505092915050565b5f8115159050919050565b610a9781610a83565b82525050565b5f819050919050565b610aaf81610a9d565b82525050565b604082015f820151610ac95f850182610a8e565b506020820151610adc6020850182610aa6565b50505050565b5f604082019050610af55f830184610ab5565b92915050565b5f819050919050565b610b0d81610afb565b8114610b17575f80fd5b50565b5f81359050610b2881610b04565b92915050565b5f8060408385031215610b4457610b436108f8565b5b5f610b5185828601610b1a565b925050602083013567ffffffffffffffff811115610b7257610b716108fc565b5b610b7e85828601610a0f565b9150509250929050565b610b9181610afb565b82525050565b606082015f820151610bab5f850182610a8e565b506020820151610bbe6020850182610b88565b506040820151610bd16040850182610aa6565b50505050565b5f606082019050610bea5f830184610b97565b92915050565b5f60208284031215610c0557610c046108f8565b5b5f610c1284828501610b1a565b91505092915050565b5f81519050919050565b5f82825260208201905092915050565b5f5b83811015610c52578082015181840152602081019050610c37565b5f8484015250505050565b5f610c6782610c1b565b610c718185610c25565b9350610c81818560208601610c35565b610c8a81610908565b840191505092915050565b5f608083015f830151610caa5f860182610a8e565b506020830151610cbd6020860182610b88565b5060408301518482036040860152610cd58282610c5d565b9150506060830151610cea6060860182610aa6565b508091505092915050565b5f6020820190508181035f830152610d0d8184610c95565b905092915050565b604082015f820151610d295f850182610a8e565b506020820151610d3c6020850182610b88565b50505050565b5f604082019050610d555f830184610d15565b92915050565b5f805f60608486031215610d7257610d716108f8565b5b5f610d7f86828701610b1a565b935050602084013567ffffffffffffffff811115610da057610d9f6108fc565b5b610dac86828701610a0f565b925050604084013567ffffffffffffffff811115610dcd57610dcc6108fc565b5b610dd986828701610a0f565b9150509250925092565b604082015f820151610df75f850182610a8e565b506020820151610e0a6020850182610b88565b50505050565b5f604082019050610e235f830184610de3565b92915050565b5f82825260208201905092915050565b7f6f6b0000000000000000000000000000000000000000000000000000000000005f82015250565b5f610e6d600283610e29565b9150610e7882610e39565b602082019050919050565b610e8c81610a9d565b82525050565b5f6040820190508181035f830152610ea981610e61565b9050610eb86020830184610e83565b92915050565b7f5369676e616c206e6f7420666f756e64000000000000000000000000000000005f82015250565b5f610ef2601083610e29565b9150610efd82610ebe565b602082019050919050565b5f6020820190508181035f830152610f1f81610ee6565b9050919050565b7f5369676e616c206e6f74206163746976650000000000000000000000000000005f82015250565b5f610f5a601183610e29565b9150610f6582610f26565b602082019050919050565b5f6020820190508181035f830152610f8781610f4e565b9050919050565b7f4e487b71000000000000000000000000000000000000000000000000000000005f52602260045260245ffd5b5f6002820490506001821680610fd257607f821691505b602082108103610fe557610fe4610f8e565b5b50919050565b5f819050815f5260205f209050919050565b5f6020601f8301049050919050565b5f82821b905092915050565b5f600883026110477fffffffffffffffffffffffffffffffffffffffffffffffffffffffffffffffff8261100c565b611051868361100c565b95508019841693508086168417925050509392505050565b5f819050919050565b5f819050919050565b5f61109561109061108b84611069565b611072565b611069565b9050919050565b5f819050919050565b6110ae8361107b565b6110c26110ba8261109c565b848454611018565b825550505050565b5f90565b6110d66110ca565b6110e18184846110a5565b505050565b5b81811015611104576110f95f826110ce565b6001810190506110e7565b5050565b601f8211156111495761111a81610feb565b61112384610ffd565b81016020851015611132578190505b61114661113e85610ffd565b8301826110e6565b50505b505050565b5f82821c905092915050565b5f6111695f198460080261114e565b1980831691505092915050565b5f611181838361115a565b9150826002028217905092915050565b61119a82610c1b565b67ffffffffffffffff8111156111b3576111b2610918565b5b6111bd8254610fbb565b6111c8828285611108565b5f60209050601f8311600181146111f9575f84156111e7578287015190505b6111f18582611176565b865550611258565b601f19841661120786610feb565b5f5b8281101561122e57848901518255600182019150602085019450602081019050611209565b8683101561124b5784890151611247601f89168261115a565b8355505b6001600288020188555050505b505050505050565b7f4e487b71000000000000000000000000000000000000000000000000000000005f52601160045260245ffd5b5f61129782610a9d565b91507f7fffffffffffffffffffffffffffffffffffffffffffffffffffffffffffffff82036112c9576112c8611260565b5b600182019050919050565b5f6020820190508181035f8301526112eb81610e61565b9050919050565b7f5369676e616c20616c72656164792065786973747300000000000000000000005f82015250565b5f611326601583610e29565b9150611331826112f2565b602082019050919050565b5f6020820190508181035f8301526113538161131a565b9050919050565b7f4b696e64207265717569726564000000000000000000000000000000000000005f82015250565b5f61138e600d83610e29565b91506113998261135a565b602082019050919050565b5f6020820190508181035f8301526113bb81611382565b905091905056fea2646970667358221220cb50935a3c3a57bba1b0fbd1026fc16d362bd36427f95220b47015877c8e593864736f6c63430008140033","linkReferences":{}},"methodIdentifiers":{"batch(string)":"1ffe1999","create(bytes32,string,string)":"e501fe3c","dispose(bytes32)":"b2ca9767","read(bytes32)":"61da1439","write(bytes32,string)":"393f5fbc"},"id":243}