{"abi":[{"type":"function","name":"addRef","inputs":[{"name":"sourceId","type":"bytes32","internalType":"bytes32"},{"name":"targetId","type":"bytes32","internalType":"bytes32"},{"name":"refType","type":"string","internalType":"string"}],"outputs":[],"stateMutability":"nonpayable"},{"type":"function","name":"getRefs","inputs":[{"name":"sourceId","type":"bytes32","internalType":"bytes32"}],"outputs":[{"name":"","type":"bytes32[]","internalType":"bytes32[]"}],"stateMutability":"view"},{"type":"function","name":"hasRef","inputs":[{"name":"sourceId","type":"bytes32","internalType":"bytes32"},{"name":"targetId","type":"bytes32","internalType":"bytes32"}],"outputs":[{"name":"","type":"bool","internalType":"bool"}],"stateMutability":"view"},{"type":"function","name":"removeRef","inputs":[{"name":"sourceId","type":"bytes32","internalType":"bytes32"},{"name":"targetId","type":"bytes32","internalType":"bytes32"}],"outputs":[],"stateMutability":"nonpayable"},{"type":"event","name":"RefAdded","inputs":[{"name":"sourceId","type":"bytes32","indexed":true,"internalType":"bytes32"},{"name":"targetId","type":"bytes32","indexed":true,"internalType":"bytes32"},{"name":"refType","type":"string","indexed":false,"internalType":"string"}],"anonymous":false},{"type":"event","name":"RefRemoved","inputs":[{"name":"sourceId","type":"bytes32","indexed":true,"internalType":"bytes32"},{"name":"targetId","type":"bytes32","indexed":true,"internalType":"bytes32"}],"anonymous":false}],"bytecode":{"object":"0x608060405234801561000f575f80fd5b50610eb28061001d5f395ff3fe608060405234801561000f575f80fd5b506004361061004a575f3560e01c8063692c1e401461004e578063962f404a1461006a578063dd49d79814610086578063f8e14632146100b6575b5f80fd5b61006860048036038101906100639190610611565b6100e6565b005b610084600480360381019061007f91906106b0565b6102b2565b005b6100a0600480360381019061009b9190610721565b6104df565b6040516100ad9190610803565b60405180910390f35b6100d060048036038101906100cb9190610611565b610546565b6040516100dd919061083d565b60405180910390f35b5f808381526020019081526020015f205f8281526020019081526020015f206002015f9054906101000a900460ff16610154576040517f08c379a000000000000000000000000000000000000000000000000000000000815260040161014b906108b0565b60405180910390fd5b5f808381526020019081526020015f205f8281526020019081526020015f205f8082015f9055600182015f610189919061057e565b600282015f6101000a81549060ff021916905550505f60015f8481526020019081526020015f2090505f818054905090505f5b8181101561027d57838382815481106101d8576101d76108ce565b5b905f5260205f2001540361026a576001826101f39190610931565b811461024157826001836102079190610931565b81548110610218576102176108ce565b5b905f5260205f200154838281548110610234576102336108ce565b5b905f5260205f2001819055505b8280548061025257610251610964565b5b600190038181905f5260205f20015f9055905561027d565b808061027590610991565b9150506101bc565b5082847faac3cfeb715814022830c89405cb5a3e08765609d0e251adce40faa2b0a7bb6b60405160405180910390a350505050565b5f801b84036102f6576040517f08c379a00000000000000000000000000000000000000000000000000000000081526004016102ed90610a22565b60405180910390fd5b5f801b830361033a576040517f08c379a000000000000000000000000000000000000000000000000000000000815260040161033190610a8a565b60405180910390fd5b5f808581526020019081526020015f205f8481526020019081526020015f206002015f9054906101000a900460ff16156103a9576040517f08c379a00000000000000000000000000000000000000000000000000000000081526004016103a090610af2565b60405180910390fd5b604051806060016040528084815260200183838080601f0160208091040260200160405190810160405280939291908181526020018383808284375f81840152601f19601f820116905080830192505050505050508152602001600115158152505f808681526020019081526020015f205f8581526020019081526020015f205f820151815f015560208201518160010190816104469190610d41565b506040820151816002015f6101000a81548160ff02191690831515021790555090505060015f8581526020019081526020015f2083908060018154018082558091505060019003905f5260205f20015f909190919091505582847ff36d7d21adc88523d92718da1fef521cb19c7a39145ba365be61cf079117a38784846040516104d1929190610e5a565b60405180910390a350505050565b606060015f8381526020019081526020015f2080548060200260200160405190810160405280929190818152602001828054801561053a57602002820191905f5260205f20905b815481526020019060010190808311610526575b50505050509050919050565b5f805f8481526020019081526020015f205f8381526020019081526020015f206002015f9054906101000a900460ff16905092915050565b50805461058a90610b74565b5f825580601f1061059b57506105b8565b601f0160209004905f5260205f20908101906105b791906105bb565b5b50565b5b808211156105d2575f815f9055506001016105bc565b5090565b5f80fd5b5f80fd5b5f819050919050565b6105f0816105de565b81146105fa575f80fd5b50565b5f8135905061060b816105e7565b92915050565b5f8060408385031215610627576106266105d6565b5b5f610634858286016105fd565b9250506020610645858286016105fd565b9150509250929050565b5f80fd5b5f80fd5b5f80fd5b5f8083601f8401126106705761066f61064f565b5b8235905067ffffffffffffffff81111561068d5761068c610653565b5b6020830191508360018202830111156106a9576106a8610657565b5b9250929050565b5f805f80606085870312156106c8576106c76105d6565b5b5f6106d5878288016105fd565b94505060206106e6878288016105fd565b935050604085013567ffffffffffffffff811115610707576107066105da565b5b6107138782880161065b565b925092505092959194509250565b5f60208284031215610736576107356105d6565b5b5f610743848285016105fd565b91505092915050565b5f81519050919050565b5f82825260208201905092915050565b5f819050602082019050919050565b61077e816105de565b82525050565b5f61078f8383610775565b60208301905092915050565b5f602082019050919050565b5f6107b18261074c565b6107bb8185610756565b93506107c683610766565b805f5b838110156107f65781516107dd8882610784565b97506107e88361079b565b9250506001810190506107c9565b5085935050505092915050565b5f6020820190508181035f83015261081b81846107a7565b905092915050565b5f8115159050919050565b61083781610823565b82525050565b5f6020820190506108505f83018461082e565b92915050565b5f82825260208201905092915050565b7f5265666572656e6365206e6f7420666f756e64000000000000000000000000005f82015250565b5f61089a601383610856565b91506108a582610866565b602082019050919050565b5f6020820190508181035f8301526108c78161088e565b9050919050565b7f4e487b71000000000000000000000000000000000000000000000000000000005f52603260045260245ffd5b5f819050919050565b7f4e487b71000000000000000000000000000000000000000000000000000000005f52601160045260245ffd5b5f61093b826108fb565b9150610946836108fb565b925082820390508181111561095e5761095d610904565b5b92915050565b7f4e487b71000000000000000000000000000000000000000000000000000000005f52603160045260245ffd5b5f61099b826108fb565b91507fffffffffffffffffffffffffffffffffffffffffffffffffffffffffffffffff82036109cd576109cc610904565b5b600182019050919050565b7f536f757263652049442063616e6e6f74206265207a65726f00000000000000005f82015250565b5f610a0c601883610856565b9150610a17826109d8565b602082019050919050565b5f6020820190508181035f830152610a3981610a00565b9050919050565b7f5461726765742049442063616e6e6f74206265207a65726f00000000000000005f82015250565b5f610a74601883610856565b9150610a7f82610a40565b602082019050919050565b5f6020820190508181035f830152610aa181610a68565b9050919050565b7f5265666572656e636520616c72656164792065786973747300000000000000005f82015250565b5f610adc601883610856565b9150610ae782610aa8565b602082019050919050565b5f6020820190508181035f830152610b0981610ad0565b9050919050565b5f81519050919050565b7f4e487b71000000000000000000000000000000000000000000000000000000005f52604160045260245ffd5b7f4e487b71000000000000000000000000000000000000000000000000000000005f52602260045260245ffd5b5f6002820490506001821680610b8b57607f821691505b602082108103610b9e57610b9d610b47565b5b50919050565b5f819050815f5260205f209050919050565b5f6020601f8301049050919050565b5f82821b905092915050565b5f60088302610c007fffffffffffffffffffffffffffffffffffffffffffffffffffffffffffffffff82610bc5565b610c0a8683610bc5565b95508019841693508086168417925050509392505050565b5f819050919050565b5f610c45610c40610c3b846108fb565b610c22565b6108fb565b9050919050565b5f819050919050565b610c5e83610c2b565b610c72610c6a82610c4c565b848454610bd1565b825550505050565b5f90565b610c86610c7a565b610c91818484610c55565b505050565b5b81811015610cb457610ca95f82610c7e565b600181019050610c97565b5050565b601f821115610cf957610cca81610ba4565b610cd384610bb6565b81016020851015610ce2578190505b610cf6610cee85610bb6565b830182610c96565b50505b505050565b5f82821c905092915050565b5f610d195f1984600802610cfe565b1980831691505092915050565b5f610d318383610d0a565b9150826002028217905092915050565b610d4a82610b10565b67ffffffffffffffff811115610d6357610d62610b1a565b5b610d6d8254610b74565b610d78828285610cb8565b5f60209050601f831160018114610da9575f8415610d97578287015190505b610da18582610d26565b865550610e08565b601f198416610db786610ba4565b5f5b82811015610dde57848901518255600182019150602085019450602081019050610db9565b86831015610dfb5784890151610df7601f891682610d0a565b8355505b6001600288020188555050505b505050505050565b828183375f83830152505050565b5f601f19601f8301169050919050565b5f610e398385610856565b9350610e46838584610e10565b610e4f83610e1e565b840190509392505050565b5f6020820190508181035f830152610e73818486610e2e565b9050939250505056fea26469706673582212201c0a6de3f9f12303add405d0b371fd7b272daf481862b3d2901ca72612482dc464736f6c63430008140033","linkReferences":{}},"methodIdentifiers":{"addRef(bytes32,bytes32,string)":"962f404a","getRefs(bytes32)":"dd49d798","hasRef(bytes32,bytes32)":"f8e14632","removeRef(bytes32,bytes32)":"692c1e40"},"id":214}