{"abi":[{"type":"function","name":"findByConcept","inputs":[{"name":"concept","type":"string","internalType":"string"}],"outputs":[{"name":"","type":"tuple","internalType":"struct StateField.FindByConceptOkResult","components":[{"name":"success","type":"bool","internalType":"bool"},{"name":"fields","type":"string","internalType":"string"}]}],"stateMutability":"nonpayable"},{"type":"function","name":"get","inputs":[{"name":"field","type":"bytes32","internalType":"bytes32"}],"outputs":[{"name":"","type":"tuple","internalType":"struct StateField.GetOkResult","components":[{"name":"success","type":"bool","internalType":"bool"},{"name":"field","type":"bytes32","internalType":"bytes32"},{"name":"concept","type":"string","internalType":"string"},{"name":"name","type":"string","internalType":"string"},{"name":"typeExpr","type":"string","internalType":"string"},{"name":"cardinality","type":"string","internalType":"string"}]}],"stateMutability":"nonpayable"},{"type":"function","name":"register","inputs":[{"name":"concept","type":"string","internalType":"string"},{"name":"name","type":"string","internalType":"string"},{"name":"typeExpr","type":"string","internalType":"string"}],"outputs":[{"name":"","type":"tuple","internalType":"struct StateField.RegisterOkResult","components":[{"name":"success","type":"bool","internalType":"bool"},{"name":"field","type":"bytes32","internalType":"bytes32"}]}],"stateMutability":"nonpayable"},{"type":"function","name":"traceToGenerated","inputs":[{"name":"field","type":"bytes32","internalType":"bytes32"}],"outputs":[{"name":"","type":"tuple","internalType":"struct StateField.TraceToGeneratedOkResult","components":[{"name":"success","type":"bool","internalType":"bool"},{"name":"targets","type":"string","internalType":"string"}]}],"stateMutability":"nonpayable"},{"type":"function","name":"traceToStorage","inputs":[{"name":"field","type":"bytes32","internalType":"bytes32"}],"outputs":[{"name":"","type":"tuple","internalType":"struct StateField.TraceToStorageOkResult","components":[{"name":"success","type":"bool","internalType":"bool"},{"name":"targets","type":"string","internalType":"string"}]}],"stateMutability":"nonpayable"},{"type":"event","name":"FindByConceptCompleted","inputs":[{"name":"variant","type":"string","indexed":false,"internalType":"string"}],"anonymous":false},{"type":"event","name":"GetCompleted","inputs":[{"name":"variant","type":"string","indexed":false,"internalType":"string"},{"name":"field","type":"bytes32","indexed":false,"internalType":"bytes32"}],"anonymous":false},{"type":"event","name":"RegisterCompleted","inputs":[{"name":"variant","type":"string","indexed":false,"internalType":"string"},{"name":"field","type":"bytes32","indexed":false,"internalType":"bytes32"}],"anonymous":false},{"type":"event","name":"TraceToGeneratedCompleted","inputs":[{"name":"variant","type":"string","indexed":false,"internalType":"string"}],"anonymous":false},{"type":"event","name":"TraceToStorageCompleted","inputs":[{"name":"variant","type":"string","indexed":false,"internalType":"string"}],"anonymous":false}],"bytecode":{"object":"0x608060405234801561000f575f80fd5b50611a7a8061001d5f395ff3fe608060405234801561000f575f80fd5b5060043610610055575f3560e01c80634cd08d03146100595780634cee8c1d14610089578063740a6086146100b95780638eaa6ac0146100e95780639abc6d1d14610119575b5f80fd5b610073600480360381019061006e9190610dc7565b610149565b6040516100809190610eca565b60405180910390f35b6100a3600480360381019061009e9190610ee3565b610401565b6040516100b09190610fde565b60405180910390f35b6100d360048036038101906100ce9190611028565b61054e565b6040516100e0919061108d565b60405180910390f35b61010360048036038101906100fe9190611028565b61064d565b6040516101109190611148565b60405180910390f35b610133600480360381019061012e9190611028565b61095d565b60405161014091906111a2565b60405180910390f35b610151610bd3565b5f845111610194576040517f08c379a000000000000000000000000000000000000000000000000000000000815260040161018b9061121c565b60405180910390fd5b5f8351116101d7576040517f08c379a00000000000000000000000000000000000000000000000000000000081526004016101ce90611284565b60405180910390fd5b5f84846040516020016101eb9291906112dc565b6040516020818303038152906040528051906020012090505f808281526020019081526020015f206004015f9054906101000a900460ff1615610263576040517f08c379a000000000000000000000000000000000000000000000000000000000815260040161025a90611349565b60405180910390fd5b5f61026d84610a57565b90506040518060a00160405280878152602001868152602001858152602001828152602001600115158152505f808481526020019081526020015f205f820151815f0190816102bc919061156a565b5060208201518160010190816102d2919061156a565b5060408201518160020190816102e8919061156a565b5060608201518160030190816102fe919061156a565b506080820151816004015f6101000a81548160ff021916908315150217905550905050600182908060018154018082558091505060019003905f5260205f20015f90919091909150555f866040516020016103599190611639565b60405160208183030381529060405280519060200120905060025f8281526020019081526020015f2083908060018154018082558091505060019003905f5260205f20015f90919091909150557f0402c886f5c1bb50afb826d1767a153123631152c678fbec8089e9e8ee3e49bf836040516103d591906116a8565b60405180910390a160405180604001604052806001151581526020018481525093505050509392505050565b610409610bf0565b5f8260405160200161041b9190611639565b6040516020818303038152906040528051906020012090505f60025f8381526020019081526020015f2090505f60405180602001604052805f81525090505f5b82805490508110156104f6575f8111156104925781604051602001610480919061171e565b60405160208183030381529060405291505b815f808584815481106104a8576104a761173f565b5b905f5260205f20015481526020019081526020015f206001016040516020016104d29291906117ec565b604051602081830303815290604052915080806104ee9061183c565b91505061045b565b507fe887d6b5d8c07462a42849880d72e3312fa3f7def1fc3329adf287f8de45d8bd60405161052490611883565b60405180910390a16040518060400160405280600115158152602001828152509350505050919050565b610556610c0b565b5f808381526020019081526020015f206004015f9054906101000a900460ff166105b5576040517f08c379a00000000000000000000000000000000000000000000000000000000081526004016105ac906118eb565b60405180910390fd5b5f805f8481526020019081526020015f2090505f815f0182600101836002016040516020016105e69392919061199d565b60405160208183030381529060405290507fdeec50b1adc701ecb36bae76f6ab992aaa6f76c91c2466ed0b4f18e131b0338d60405161062490611883565b60405180910390a160405180604001604052806001151581526020018281525092505050919050565b610655610c26565b5f808381526020019081526020015f206004015f9054906101000a900460ff166106b4576040517f08c379a00000000000000000000000000000000000000000000000000000000081526004016106ab906118eb565b60405180910390fd5b5f805f8481526020019081526020015f2090507fd45fe45dbfb310b00d5db432aa35f96282e16a8bb204b349e334de2cd5566f34836040516106f691906116a8565b60405180910390a16040518060c00160405280600115158152602001848152602001825f01805461072690611394565b80601f016020809104026020016040519081016040528092919081815260200182805461075290611394565b801561079d5780601f106107745761010080835404028352916020019161079d565b820191905f5260205f20905b81548152906001019060200180831161078057829003601f168201915b505050505081526020018260010180546107b690611394565b80601f01602080910402602001604051908101604052809291908181526020018280546107e290611394565b801561082d5780601f106108045761010080835404028352916020019161082d565b820191905f5260205f20905b81548152906001019060200180831161081057829003601f168201915b5050505050815260200182600201805461084690611394565b80601f016020809104026020016040519081016040528092919081815260200182805461087290611394565b80156108bd5780601f10610894576101008083540402835291602001916108bd565b820191905f5260205f20905b8154815290600101906020018083116108a057829003601f168201915b505050505081526020018260030180546108d690611394565b80601f016020809104026020016040519081016040528092919081815260200182805461090290611394565b801561094d5780601f106109245761010080835404028352916020019161094d565b820191905f5260205f20905b81548152906001019060200180831161093057829003601f168201915b5050505050815250915050919050565b610965610c5f565b5f808381526020019081526020015f206004015f9054906101000a900460ff166109c4576040517f08c379a00000000000000000000000000000000000000000000000000000000081526004016109bb906118eb565b60405180910390fd5b5f805f8481526020019081526020015f2090505f815f01826001016040516020016109f09291906119e3565b60405160208183030381529060405290507fbaad540474dc7ed91fb585874e56fa0996bae936bd6c4e73b86d264039fa7f02604051610a2e90611883565b60405180910390a160405180604001604052806001151581526020018281525092505050919050565b60605f8290506002815110158015610ada57507f5d000000000000000000000000000000000000000000000000000000000000008160018351610a9a9190611a11565b81518110610aab57610aaa61173f565b5b602001015160f81c60f81b7effffffffffffffffffffffffffffffffffffffffffffffffffffffffffffff1916145b8015610b5157507f5b000000000000000000000000000000000000000000000000000000000000008160028351610b119190611a11565b81518110610b2257610b2161173f565b5b602001015160f81c60f81b7effffffffffffffffffffffffffffffffffffffffffffffffffffffffffffff1916145b15610b94576040518060400160405280600481526020017f6d616e7900000000000000000000000000000000000000000000000000000000815250915050610bce565b6040518060400160405280600381526020017f6f6e6500000000000000000000000000000000000000000000000000000000008152509150505b919050565b60405180604001604052805f151581526020015f80191681525090565b60405180604001604052805f15158152602001606081525090565b60405180604001604052805f15158152602001606081525090565b6040518060c001604052805f151581526020015f8019168152602001606081526020016060815260200160608152602001606081525090565b60405180604001604052805f15158152602001606081525090565b5f604051905090565b5f80fd5b5f80fd5b5f80fd5b5f80fd5b5f601f19601f8301169050919050565b7f4e487b71000000000000000000000000000000000000000000000000000000005f52604160045260245ffd5b610cd982610c93565b810181811067ffffffffffffffff82111715610cf857610cf7610ca3565b5b80604052505050565b5f610d0a610c7a565b9050610d168282610cd0565b919050565b5f67ffffffffffffffff821115610d3557610d34610ca3565b5b610d3e82610c93565b9050602081019050919050565b828183375f83830152505050565b5f610d6b610d6684610d1b565b610d01565b905082815260208101848484011115610d8757610d86610c8f565b5b610d92848285610d4b565b509392505050565b5f82601f830112610dae57610dad610c8b565b5b8135610dbe848260208601610d59565b91505092915050565b5f805f60608486031215610dde57610ddd610c83565b5b5f84013567ffffffffffffffff811115610dfb57610dfa610c87565b5b610e0786828701610d9a565b935050602084013567ffffffffffffffff811115610e2857610e27610c87565b5b610e3486828701610d9a565b925050604084013567ffffffffffffffff811115610e5557610e54610c87565b5b610e6186828701610d9a565b9150509250925092565b5f8115159050919050565b610e7f81610e6b565b82525050565b5f819050919050565b610e9781610e85565b82525050565b604082015f820151610eb15f850182610e76565b506020820151610ec46020850182610e8e565b50505050565b5f604082019050610edd5f830184610e9d565b92915050565b5f60208284031215610ef857610ef7610c83565b5b5f82013567ffffffffffffffff811115610f1557610f14610c87565b5b610f2184828501610d9a565b91505092915050565b5f81519050919050565b5f82825260208201905092915050565b5f5b83811015610f61578082015181840152602081019050610f46565b5f8484015250505050565b5f610f7682610f2a565b610f808185610f34565b9350610f90818560208601610f44565b610f9981610c93565b840191505092915050565b5f604083015f830151610fb95f860182610e76565b5060208301518482036020860152610fd18282610f6c565b9150508091505092915050565b5f6020820190508181035f830152610ff68184610fa4565b905092915050565b61100781610e85565b8114611011575f80fd5b50565b5f8135905061102281610ffe565b92915050565b5f6020828403121561103d5761103c610c83565b5b5f61104a84828501611014565b91505092915050565b5f604083015f8301516110685f860182610e76565b50602083015184820360208601526110808282610f6c565b9150508091505092915050565b5f6020820190508181035f8301526110a58184611053565b905092915050565b5f60c083015f8301516110c25f860182610e76565b5060208301516110d56020860182610e8e565b50604083015184820360408601526110ed8282610f6c565b915050606083015184820360608601526111078282610f6c565b915050608083015184820360808601526111218282610f6c565b91505060a083015184820360a086015261113b8282610f6c565b9150508091505092915050565b5f6020820190508181035f83015261116081846110ad565b905092915050565b5f604083015f83015161117d5f860182610e76565b50602083015184820360208601526111958282610f6c565b9150508091505092915050565b5f6020820190508181035f8301526111ba8184611168565b905092915050565b5f82825260208201905092915050565b7f436f6e63657074206d757374206e6f7420626520656d707479000000000000005f82015250565b5f6112066019836111c2565b9150611211826111d2565b602082019050919050565b5f6020820190508181035f830152611233816111fa565b9050919050565b7f4e616d65206d757374206e6f7420626520656d707479000000000000000000005f82015250565b5f61126e6016836111c2565b91506112798261123a565b602082019050919050565b5f6020820190508181035f83015261129b81611262565b9050919050565b5f81905092915050565b5f6112b682610f2a565b6112c081856112a2565b93506112d0818560208601610f44565b80840191505092915050565b5f6112e782856112ac565b91506112f382846112ac565b91508190509392505050565b7f4669656c6420616c7265616479207265676973746572656400000000000000005f82015250565b5f6113336018836111c2565b915061133e826112ff565b602082019050919050565b5f6020820190508181035f83015261136081611327565b9050919050565b7f4e487b71000000000000000000000000000000000000000000000000000000005f52602260045260245ffd5b5f60028204905060018216806113ab57607f821691505b6020821081036113be576113bd611367565b5b50919050565b5f819050815f5260205f209050919050565b5f6020601f8301049050919050565b5f82821b905092915050565b5f600883026114207fffffffffffffffffffffffffffffffffffffffffffffffffffffffffffffffff826113e5565b61142a86836113e5565b95508019841693508086168417925050509392505050565b5f819050919050565b5f819050919050565b5f61146e61146961146484611442565b61144b565b611442565b9050919050565b5f819050919050565b61148783611454565b61149b61149382611475565b8484546113f1565b825550505050565b5f90565b6114af6114a3565b6114ba81848461147e565b505050565b5b818110156114dd576114d25f826114a7565b6001810190506114c0565b5050565b601f821115611522576114f3816113c4565b6114fc846113d6565b8101602085101561150b578190505b61151f611517856113d6565b8301826114bf565b50505b505050565b5f82821c905092915050565b5f6115425f1984600802611527565b1980831691505092915050565b5f61155a8383611533565b9150826002028217905092915050565b61157382610f2a565b67ffffffffffffffff81111561158c5761158b610ca3565b5b6115968254611394565b6115a18282856114e1565b5f60209050601f8311600181146115d2575f84156115c0578287015190505b6115ca858261154f565b865550611631565b601f1984166115e0866113c4565b5f5b82811015611607578489015182556001820191506020850194506020810190506115e2565b868310156116245784890151611620601f891682611533565b8355505b6001600288020188555050505b505050505050565b5f61164482846112ac565b915081905092915050565b7f6f6b0000000000000000000000000000000000000000000000000000000000005f82015250565b5f6116836002836111c2565b915061168e8261164f565b602082019050919050565b6116a281610e85565b82525050565b5f6040820190508181035f8301526116bf81611677565b90506116ce6020830184611699565b92915050565b7f2c000000000000000000000000000000000000000000000000000000000000005f82015250565b5f6117086001836112a2565b9150611713826116d4565b600182019050919050565b5f61172982846112ac565b9150611734826116fc565b915081905092915050565b7f4e487b71000000000000000000000000000000000000000000000000000000005f52603260045260245ffd5b5f815461177881611394565b61178281866112a2565b9450600182165f811461179c57600181146117b1576117e3565b60ff19831686528115158202860193506117e3565b6117ba856113c4565b5f5b838110156117db578154818901526001820191506020810190506117bc565b838801955050505b50505092915050565b5f6117f782856112ac565b9150611803828461176c565b91508190509392505050565b7f4e487b71000000000000000000000000000000000000000000000000000000005f52601160045260245ffd5b5f61184682611442565b91507fffffffffffffffffffffffffffffffffffffffffffffffffffffffffffffffff82036118785761187761180f565b5b600182019050919050565b5f6020820190508181035f83015261189a81611677565b9050919050565b7f4669656c64206e6f7420666f756e6400000000000000000000000000000000005f82015250565b5f6118d5600f836111c2565b91506118e0826118a1565b602082019050919050565b5f6020820190508181035f830152611902816118c9565b9050919050565b7f2e000000000000000000000000000000000000000000000000000000000000005f82015250565b5f61193d6001836112a2565b915061194882611909565b600182019050919050565b7f3a000000000000000000000000000000000000000000000000000000000000005f82015250565b5f6119876001836112a2565b915061199282611953565b600182019050919050565b5f6119a8828661176c565b91506119b382611931565b91506119bf828561176c565b91506119ca8261197b565b91506119d6828461176c565b9150819050949350505050565b5f6119ee828561176c565b91506119f982611931565b9150611a05828461176c565b91508190509392505050565b5f611a1b82611442565b9150611a2683611442565b9250828203905081811115611a3e57611a3d61180f565b5b9291505056fea26469706673582212209b2daefc4a18b9cf07ebead734e6dbd71f24ad1a276f8bbd474bb85ff5db973764736f6c63430008140033","linkReferences":{}},"methodIdentifiers":{"findByConcept(string)":"4cee8c1d","get(bytes32)":"8eaa6ac0","register(string,string,string)":"4cd08d03","traceToGenerated(bytes32)":"9abc6d1d","traceToStorage(bytes32)":"740a6086"},"id":253}