{"abi":[{"type":"function","name":"check","inputs":[{"name":"oldSchemaId","type":"bytes32","internalType":"bytes32"},{"name":"newSchemaId","type":"bytes32","internalType":"bytes32"},{"name":"mode","type":"string","internalType":"string"}],"outputs":[{"name":"compatible","type":"bool","internalType":"bool"}],"stateMutability":"nonpayable"},{"type":"function","name":"getSchema","inputs":[{"name":"subject","type":"string","internalType":"string"},{"name":"version","type":"uint256","internalType":"uint256"}],"outputs":[{"name":"schema","type":"bytes","internalType":"bytes"},{"name":"compatibility","type":"string","internalType":"string"}],"stateMutability":"view"},{"type":"function","name":"latestVersion","inputs":[{"name":"subject","type":"string","internalType":"string"}],"outputs":[{"name":"","type":"uint256","internalType":"uint256"}],"stateMutability":"view"},{"type":"function","name":"register","inputs":[{"name":"subject","type":"string","internalType":"string"},{"name":"schema","type":"bytes","internalType":"bytes"},{"name":"compatibility","type":"string","internalType":"string"}],"outputs":[{"name":"version","type":"uint256","internalType":"uint256"},{"name":"schemaId","type":"bytes32","internalType":"bytes32"}],"stateMutability":"nonpayable"},{"type":"function","name":"upcast","inputs":[{"name":"subject","type":"string","internalType":"string"},{"name":"fromVersion","type":"uint256","internalType":"uint256"},{"name":"toVersion","type":"uint256","internalType":"uint256"}],"outputs":[{"name":"data","type":"bytes","internalType":"bytes"}],"stateMutability":"nonpayable"},{"type":"event","name":"CompatibilityChecked","inputs":[{"name":"oldSchemaId","type":"bytes32","indexed":true,"internalType":"bytes32"},{"name":"newSchemaId","type":"bytes32","indexed":true,"internalType":"bytes32"},{"name":"compatible","type":"bool","indexed":false,"internalType":"bool"}],"anonymous":false},{"type":"event","name":"SchemaRegistered","inputs":[{"name":"schemaId","type":"bytes32","indexed":true,"internalType":"bytes32"},{"name":"subject","type":"bytes32","indexed":true,"internalType":"bytes32"},{"name":"version","type":"uint256","indexed":false,"internalType":"uint256"}],"anonymous":false},{"type":"event","name":"SchemaUpcast","inputs":[{"name":"subject","type":"bytes32","indexed":true,"internalType":"bytes32"},{"name":"fromVersion","type":"uint256","indexed":false,"internalType":"uint256"},{"name":"toVersion","type":"uint256","indexed":false,"internalType":"uint256"}],"anonymous":false}],"bytecode":{"object":"0x608060405234801561000f575f80fd5b5061173a8061001d5f395ff3fe608060405234801561000f575f80fd5b5060043610610055575f3560e01c8063070f8f5a14610059578063c5d67c4014610089578063d1d4d2ee146100b9578063f9a75bc6146100e9578063feab88091461011a575b5f80fd5b610073600480360381019061006e919061099e565b61014b565b6040516100809190610a01565b60405180910390f35b6100a3600480360381019061009e9190610a44565b610193565b6040516100b09190610b3f565b60405180910390f35b6100d360048036038101906100ce9190610b92565b6103c5565b6040516100e09190610c1d565b60405180910390f35b61010360048036038101906100fe9190610c8b565b610516565b604051610111929190610d4a565b60405180910390f35b610134600480360381019061012f9190610d71565b610745565b604051610142929190610e20565b60405180910390f35b5f808383604051602001610160929190610e91565b60405160208183030381529060405280519060200120905060015f8281526020019081526020015f205491505092915050565b60605f85856040516020016101a9929190610e91565b6040516020818303038152906040528051906020012090505f841180156101e1575060015f8281526020019081526020015f20548411155b610220576040517f08c379a000000000000000000000000000000000000000000000000000000000815260040161021790610ef3565b60405180910390fd5b5f83118015610240575060015f8281526020019081526020015f20548311155b61027f576040517f08c379a000000000000000000000000000000000000000000000000000000000815260040161027690610f5b565b60405180910390fd5b8383116102c1576040517f08c379a00000000000000000000000000000000000000000000000000000000081526004016102b890610fe9565b60405180910390fd5b5f60025f8381526020019081526020015f205f8581526020019081526020015f205490505f808281526020019081526020015f20600201805461030390611034565b80601f016020809104026020016040519081016040528092919081815260200182805461032f90611034565b801561037a5780601f106103515761010080835404028352916020019161037a565b820191905f5260205f20905b81548152906001019060200180831161035d57829003601f168201915b50505050509250817f19a4b209518fbf24fd7cba65c8b5706fe85364f66a1298d046e307eae22878e186866040516103b3929190611064565b60405180910390a25050949350505050565b5f805f8681526020019081526020015f206004015f9054906101000a900460ff16610425576040517f08c379a000000000000000000000000000000000000000000000000000000000815260040161041c906110d5565b60405180910390fd5b5f808581526020019081526020015f206004015f9054906101000a900460ff16610484576040517f08c379a000000000000000000000000000000000000000000000000000000000815260040161047b9061113d565b60405180910390fd5b604051602001610493906111a5565b6040516020818303038152906040528051906020012083836040516020016104bc929190610e91565b6040516020818303038152906040528051906020012014905083857f2a5ff72dc1f00dedcfcd090d30d6cb4a81bb79bdd8d35b5eae6f9f6aed1e1f62836040516105069190610c1d565b60405180910390a3949350505050565b5f805f888860405160200161052c929190610e91565b6040516020818303038152906040528051906020012090506001805f8381526020019081526020015f205461056191906111e6565b92508260015f8381526020019081526020015f2081905550808360035f81548092919061058d90611219565b919050556040516020016105a3939291906112a0565b6040516020818303038152906040528051906020012091506040518060a0016040528082815260200184815260200188888080601f0160208091040260200160405190810160405280939291908181526020018383808284375f81840152601f19601f82011690508083019250505050505050815260200186868080601f0160208091040260200160405190810160405280939291908181526020018383808284375f81840152601f19601f820116905080830192505050505050508152602001600115158152505f808481526020019081526020015f205f820151815f01556020820151816001015560408201518160020190816106a291906114a6565b5060608201518160030190816106b891906115cd565b506080820151816004015f6101000a81548160ff0219169083151502179055509050508160025f8381526020019081526020015f205f8581526020019081526020015f208190555080827f6548a55c2bd987f75159ecae6698ba308b2612e51a2f3ae93d54871cbd3c0b0f856040516107319190610a01565b60405180910390a350965096945050505050565b6060805f858560405160200161075c929190610e91565b6040516020818303038152906040528051906020012090505f60025f8381526020019081526020015f205f8681526020019081526020015f205490505f808281526020019081526020015f206004015f9054906101000a900460ff166107f7576040517f08c379a00000000000000000000000000000000000000000000000000000000081526004016107ee906116e6565b60405180910390fd5b5f805f8381526020019081526020015f209050806002018160030181805461081e90611034565b80601f016020809104026020016040519081016040528092919081815260200182805461084a90611034565b80156108955780601f1061086c57610100808354040283529160200191610895565b820191905f5260205f20905b81548152906001019060200180831161087857829003601f168201915b505050505091508080546108a890611034565b80601f01602080910402602001604051908101604052809291908181526020018280546108d490611034565b801561091f5780601f106108f65761010080835404028352916020019161091f565b820191905f5260205f20905b81548152906001019060200180831161090257829003601f168201915b5050505050905094509450505050935093915050565b5f80fd5b5f80fd5b5f80fd5b5f80fd5b5f80fd5b5f8083601f84011261095e5761095d61093d565b5b8235905067ffffffffffffffff81111561097b5761097a610941565b5b60208301915083600182028301111561099757610996610945565b5b9250929050565b5f80602083850312156109b4576109b3610935565b5b5f83013567ffffffffffffffff8111156109d1576109d0610939565b5b6109dd85828601610949565b92509250509250929050565b5f819050919050565b6109fb816109e9565b82525050565b5f602082019050610a145f8301846109f2565b92915050565b610a23816109e9565b8114610a2d575f80fd5b50565b5f81359050610a3e81610a1a565b92915050565b5f805f8060608587031215610a5c57610a5b610935565b5b5f85013567ffffffffffffffff811115610a7957610a78610939565b5b610a8587828801610949565b94509450506020610a9887828801610a30565b9250506040610aa987828801610a30565b91505092959194509250565b5f81519050919050565b5f82825260208201905092915050565b5f5b83811015610aec578082015181840152602081019050610ad1565b5f8484015250505050565b5f601f19601f8301169050919050565b5f610b1182610ab5565b610b1b8185610abf565b9350610b2b818560208601610acf565b610b3481610af7565b840191505092915050565b5f6020820190508181035f830152610b578184610b07565b905092915050565b5f819050919050565b610b7181610b5f565b8114610b7b575f80fd5b50565b5f81359050610b8c81610b68565b92915050565b5f805f8060608587031215610baa57610ba9610935565b5b5f610bb787828801610b7e565b9450506020610bc887828801610b7e565b935050604085013567ffffffffffffffff811115610be957610be8610939565b5b610bf587828801610949565b925092505092959194509250565b5f8115159050919050565b610c1781610c03565b82525050565b5f602082019050610c305f830184610c0e565b92915050565b5f8083601f840112610c4b57610c4a61093d565b5b8235905067ffffffffffffffff811115610c6857610c67610941565b5b602083019150836001820283011115610c8457610c83610945565b5b9250929050565b5f805f805f8060608789031215610ca557610ca4610935565b5b5f87013567ffffffffffffffff811115610cc257610cc1610939565b5b610cce89828a01610949565b9650965050602087013567ffffffffffffffff811115610cf157610cf0610939565b5b610cfd89828a01610c36565b9450945050604087013567ffffffffffffffff811115610d2057610d1f610939565b5b610d2c89828a01610949565b92509250509295509295509295565b610d4481610b5f565b82525050565b5f604082019050610d5d5f8301856109f2565b610d6a6020830184610d3b565b9392505050565b5f805f60408486031215610d8857610d87610935565b5b5f84013567ffffffffffffffff811115610da557610da4610939565b5b610db186828701610949565b93509350506020610dc486828701610a30565b9150509250925092565b5f81519050919050565b5f82825260208201905092915050565b5f610df282610dce565b610dfc8185610dd8565b9350610e0c818560208601610acf565b610e1581610af7565b840191505092915050565b5f6040820190508181035f830152610e388185610b07565b90508181036020830152610e4c8184610de8565b90509392505050565b5f81905092915050565b828183375f83830152505050565b5f610e788385610e55565b9350610e85838584610e5f565b82840190509392505050565b5f610e9d828486610e6d565b91508190509392505050565b7f496e76616c69642066726f6d56657273696f6e000000000000000000000000005f82015250565b5f610edd601383610dd8565b9150610ee882610ea9565b602082019050919050565b5f6020820190508181035f830152610f0a81610ed1565b9050919050565b7f496e76616c696420746f56657273696f6e0000000000000000000000000000005f82015250565b5f610f45601183610dd8565b9150610f5082610f11565b602082019050919050565b5f6020820190508181035f830152610f7281610f39565b9050919050565b7f746f56657273696f6e206d7573742062652067726561746572207468616e20665f8201527f726f6d56657273696f6e00000000000000000000000000000000000000000000602082015250565b5f610fd3602a83610dd8565b9150610fde82610f79565b604082019050919050565b5f6020820190508181035f83015261100081610fc7565b9050919050565b7f4e487b71000000000000000000000000000000000000000000000000000000005f52602260045260245ffd5b5f600282049050600182168061104b57607f821691505b60208210810361105e5761105d611007565b5b50919050565b5f6040820190506110775f8301856109f2565b61108460208301846109f2565b9392505050565b7f4f6c6420736368656d61206e6f7420666f756e640000000000000000000000005f82015250565b5f6110bf601483610dd8565b91506110ca8261108b565b602082019050919050565b5f6020820190508181035f8301526110ec816110b3565b9050919050565b7f4e657720736368656d61206e6f7420666f756e640000000000000000000000005f82015250565b5f611127601483610dd8565b9150611132826110f3565b602082019050919050565b5f6020820190508181035f8301526111548161111b565b9050919050565b7f6e6f6e65000000000000000000000000000000000000000000000000000000005f82015250565b5f61118f600483610e55565b915061119a8261115b565b600482019050919050565b5f6111af82611183565b9150819050919050565b7f4e487b71000000000000000000000000000000000000000000000000000000005f52601160045260245ffd5b5f6111f0826109e9565b91506111fb836109e9565b9250828201905080821115611213576112126111b9565b5b92915050565b5f611223826109e9565b91507fffffffffffffffffffffffffffffffffffffffffffffffffffffffffffffffff8203611255576112546111b9565b5b600182019050919050565b5f819050919050565b61127a61127582610b5f565b611260565b82525050565b5f819050919050565b61129a611295826109e9565b611280565b82525050565b5f6112ab8286611269565b6020820191506112bb8285611289565b6020820191506112cb8284611289565b602082019150819050949350505050565b7f4e487b71000000000000000000000000000000000000000000000000000000005f52604160045260245ffd5b5f819050815f5260205f209050919050565b5f6020601f8301049050919050565b5f82821b905092915050565b5f600883026113657fffffffffffffffffffffffffffffffffffffffffffffffffffffffffffffffff8261132a565b61136f868361132a565b95508019841693508086168417925050509392505050565b5f819050919050565b5f6113aa6113a56113a0846109e9565b611387565b6109e9565b9050919050565b5f819050919050565b6113c383611390565b6113d76113cf826113b1565b848454611336565b825550505050565b5f90565b6113eb6113df565b6113f68184846113ba565b505050565b5b818110156114195761140e5f826113e3565b6001810190506113fc565b5050565b601f82111561145e5761142f81611309565b6114388461131b565b81016020851015611447578190505b61145b6114538561131b565b8301826113fb565b50505b505050565b5f82821c905092915050565b5f61147e5f1984600802611463565b1980831691505092915050565b5f611496838361146f565b9150826002028217905092915050565b6114af82610ab5565b67ffffffffffffffff8111156114c8576114c76112dc565b5b6114d28254611034565b6114dd82828561141d565b5f60209050601f83116001811461150e575f84156114fc578287015190505b611506858261148b565b86555061156d565b601f19841661151c86611309565b5f5b828110156115435784890151825560018201915060208501945060208101905061151e565b86831015611560578489015161155c601f89168261146f565b8355505b6001600288020188555050505b505050505050565b5f819050815f5260205f209050919050565b601f8211156115c85761159981611575565b6115a28461131b565b810160208510156115b1578190505b6115c56115bd8561131b565b8301826113fb565b50505b505050565b6115d682610dce565b67ffffffffffffffff8111156115ef576115ee6112dc565b5b6115f98254611034565b611604828285611587565b5f60209050601f831160018114611635575f8415611623578287015190505b61162d858261148b565b865550611694565b601f19841661164386611575565b5f5b8281101561166a57848901518255600182019150602085019450602081019050611645565b868310156116875784890151611683601f89168261146f565b8355505b6001600288020188555050505b505050505050565b7f536368656d61206e6f7420666f756e64000000000000000000000000000000005f82015250565b5f6116d0601083610dd8565b91506116db8261169c565b602082019050919050565b5f6020820190508181035f8301526116fd816116c4565b905091905056fea2646970667358221220cbf68527c5b16b5aa19ebf7ad307dfca3c83e9b1140074228c9ee56fd71b632e64736f6c63430008140033","linkReferences":{}},"methodIdentifiers":{"check(bytes32,bytes32,string)":"d1d4d2ee","getSchema(string,uint256)":"feab8809","latestVersion(string)":"070f8f5a","register(string,bytes,string)":"f9a75bc6","upcast(string,uint256,uint256)":"c5d67c40"},"id":231}