{"abi":[{"type":"function","name":"check","inputs":[{"name":"user","type":"bytes32","internalType":"bytes32"},{"name":"password","type":"string","internalType":"string"}],"outputs":[{"name":"valid","type":"bool","internalType":"bool"}],"stateMutability":"view"},{"type":"function","name":"hasPassword","inputs":[{"name":"user","type":"bytes32","internalType":"bytes32"}],"outputs":[{"name":"","type":"bool","internalType":"bool"}],"stateMutability":"view"},{"type":"function","name":"set","inputs":[{"name":"user","type":"bytes32","internalType":"bytes32"},{"name":"password","type":"string","internalType":"string"}],"outputs":[{"name":"success","type":"bool","internalType":"bool"}],"stateMutability":"nonpayable"},{"type":"function","name":"validate","inputs":[{"name":"password","type":"string","internalType":"string"}],"outputs":[{"name":"valid","type":"bool","internalType":"bool"}],"stateMutability":"pure"},{"type":"event","name":"PasswordChecked","inputs":[{"name":"user","type":"bytes32","indexed":true,"internalType":"bytes32"},{"name":"valid","type":"bool","indexed":false,"internalType":"bool"}],"anonymous":false},{"type":"event","name":"PasswordSet","inputs":[{"name":"user","type":"bytes32","indexed":true,"internalType":"bytes32"}],"anonymous":false},{"type":"event","name":"PasswordSetFailed","inputs":[{"name":"user","type":"bytes32","indexed":true,"internalType":"bytes32"},{"name":"reason","type":"string","indexed":false,"internalType":"string"}],"anonymous":false}],"bytecode":{"object":"0x608060405234801561000f575f80fd5b506107948061001d5f395ff3fe608060405234801561000f575f80fd5b506004361061004a575f3560e01c8063b48000331461004e578063d182b83b1461007e578063df355a19146100ae578063f7d693c1146100de575b5f80fd5b610068600480360381019061006391906103f7565b61010e565b604051610075919061046e565b60405180910390f35b61009860048036038101906100939190610487565b610297565b6040516100a5919061046e565b60405180910390f35b6100c860048036038101906100c391906104d2565b6102a8565b6040516100d5919061046e565b60405180910390f35b6100f860048036038101906100f391906103f7565b6102ce565b604051610105919061046e565b60405180910390f35b5f805f1b8403610153576040517f08c379a000000000000000000000000000000000000000000000000000000000815260040161014a90610557565b60405180910390fd5b600883839050101561019d57837f5aee66cc499e7189d03443d1e31dcab94f6eb39ce0e5e69cd0dd7132faca394c60405161018d906105e5565b60405180910390a25f9050610290565b5f4244866001436101ae9190610639565b406040516020016101c294939291906106ac565b6040516020818303038152906040528051906020012090505f8484836040516020016101f093929190610735565b604051602081830303815290604052805190602001209050805f808881526020019081526020015f20819055508160015f8881526020019081526020015f2081905550600160025f8881526020019081526020015f205f6101000a81548160ff021916908315150217905550857fe5b12f436bd8ffb5d0fe7a54fb1c5b02138c80c175ccac64af011ab616c1e06760405160405180910390a26001925050505b9392505050565b5f6008838390501015905092915050565b5f60025f8381526020019081526020015f205f9054906101000a900460ff169050919050565b5f60025f8581526020019081526020015f205f9054906101000a900460ff166102f9575f9050610354565b5f60015f8681526020019081526020015f205490505f84848360405160200161032493929190610735565b6040516020818303038152906040528051906020012090505f808781526020019081526020015f20548114925050505b9392505050565b5f80fd5b5f80fd5b5f819050919050565b61037581610363565b811461037f575f80fd5b50565b5f813590506103908161036c565b92915050565b5f80fd5b5f80fd5b5f80fd5b5f8083601f8401126103b7576103b6610396565b5b8235905067ffffffffffffffff8111156103d4576103d361039a565b5b6020830191508360018202830111156103f0576103ef61039e565b5b9250929050565b5f805f6040848603121561040e5761040d61035b565b5b5f61041b86828701610382565b935050602084013567ffffffffffffffff81111561043c5761043b61035f565b5b610448868287016103a2565b92509250509250925092565b5f8115159050919050565b61046881610454565b82525050565b5f6020820190506104815f83018461045f565b92915050565b5f806020838503121561049d5761049c61035b565b5b5f83013567ffffffffffffffff8111156104ba576104b961035f565b5b6104c6858286016103a2565b92509250509250929050565b5f602082840312156104e7576104e661035b565b5b5f6104f484828501610382565b91505092915050565b5f82825260208201905092915050565b7f557365722049442063616e6e6f74206265207a65726f000000000000000000005f82015250565b5f6105416016836104fd565b915061054c8261050d565b602082019050919050565b5f6020820190508181035f83015261056e81610535565b9050919050565b7f50617373776f7264206d757374206265206174206c65617374203820636861725f8201527f6163746572730000000000000000000000000000000000000000000000000000602082015250565b5f6105cf6026836104fd565b91506105da82610575565b604082019050919050565b5f6020820190508181035f8301526105fc816105c3565b9050919050565b5f819050919050565b7f4e487b71000000000000000000000000000000000000000000000000000000005f52601160045260245ffd5b5f61064382610603565b915061064e83610603565b92508282039050818111156106665761066561060c565b5b92915050565b5f819050919050565b61068661068182610603565b61066c565b82525050565b5f819050919050565b6106a66106a182610363565b61068c565b82525050565b5f6106b78287610675565b6020820191506106c78286610675565b6020820191506106d78285610695565b6020820191506106e78284610695565b60208201915081905095945050505050565b5f81905092915050565b828183375f83830152505050565b5f61071c83856106f9565b9350610729838584610703565b82840190509392505050565b5f610741828587610711565b915061074d8284610695565b60208201915081905094935050505056fea2646970667358221220b7eda023778449152b1356eeab5e984f219d50d3bcb5ca6b9d6f48ce6e59de1f64736f6c63430008140033","linkReferences":{}},"methodIdentifiers":{"check(bytes32,string)":"f7d693c1","hasPassword(bytes32)":"df355a19","set(bytes32,string)":"b4800033","validate(string)":"d182b83b"},"id":189}