{"abi":[{"type":"function","name":"deploy","inputs":[{"name":"deployment","type":"bytes32","internalType":"bytes32"},{"name":"imageUri","type":"string","internalType":"string"}],"outputs":[{"name":"","type":"tuple","internalType":"struct K8sRuntime.DeployOkResult","components":[{"name":"success","type":"bool","internalType":"bool"},{"name":"deployment","type":"bytes32","internalType":"bytes32"},{"name":"revision","type":"string","internalType":"string"}]}],"stateMutability":"nonpayable"},{"type":"function","name":"destroy","inputs":[{"name":"deployment","type":"bytes32","internalType":"bytes32"}],"outputs":[{"name":"","type":"tuple","internalType":"struct K8sRuntime.DestroyOkResult","components":[{"name":"success","type":"bool","internalType":"bool"},{"name":"deployment","type":"bytes32","internalType":"bytes32"}]}],"stateMutability":"nonpayable"},{"type":"function","name":"provision","inputs":[{"name":"concept","type":"string","internalType":"string"},{"name":"namespace","type":"string","internalType":"string"},{"name":"cluster","type":"string","internalType":"string"},{"name":"replicas","type":"int256","internalType":"int256"}],"outputs":[{"name":"","type":"tuple","internalType":"struct K8sRuntime.ProvisionOkResult","components":[{"name":"success","type":"bool","internalType":"bool"},{"name":"deployment","type":"bytes32","internalType":"bytes32"},{"name":"serviceName","type":"string","internalType":"string"},{"name":"endpoint","type":"string","internalType":"string"}]}],"stateMutability":"nonpayable"},{"type":"function","name":"register","inputs":[],"outputs":[{"name":"name","type":"string","internalType":"string"},{"name":"category","type":"string","internalType":"string"},{"name":"capabilities","type":"string[]","internalType":"string[]"}],"stateMutability":"pure"},{"type":"function","name":"rollback","inputs":[{"name":"deployment","type":"bytes32","internalType":"bytes32"},{"name":"targetRevision","type":"string","internalType":"string"}],"outputs":[{"name":"","type":"tuple","internalType":"struct K8sRuntime.RollbackOkResult","components":[{"name":"success","type":"bool","internalType":"bool"},{"name":"deployment","type":"bytes32","internalType":"bytes32"},{"name":"restoredRevision","type":"string","internalType":"string"}]}],"stateMutability":"nonpayable"},{"type":"function","name":"setTrafficWeight","inputs":[{"name":"deployment","type":"bytes32","internalType":"bytes32"},{"name":"weight","type":"int256","internalType":"int256"}],"outputs":[{"name":"","type":"tuple","internalType":"struct K8sRuntime.SetTrafficWeightOkResult","components":[{"name":"success","type":"bool","internalType":"bool"},{"name":"deployment","type":"bytes32","internalType":"bytes32"}]}],"stateMutability":"nonpayable"},{"type":"event","name":"DeployCompleted","inputs":[{"name":"variant","type":"string","indexed":false,"internalType":"string"},{"name":"deployment","type":"bytes32","indexed":false,"internalType":"bytes32"},{"name":"restartCount","type":"int256","indexed":false,"internalType":"int256"}],"anonymous":false},{"type":"event","name":"DestroyCompleted","inputs":[{"name":"variant","type":"string","indexed":false,"internalType":"string"},{"name":"deployment","type":"bytes32","indexed":false,"internalType":"bytes32"}],"anonymous":false},{"type":"event","name":"ProvisionCompleted","inputs":[{"name":"variant","type":"string","indexed":false,"internalType":"string"},{"name":"deployment","type":"bytes32","indexed":false,"internalType":"bytes32"}],"anonymous":false},{"type":"event","name":"RollbackCompleted","inputs":[{"name":"variant","type":"string","indexed":false,"internalType":"string"},{"name":"deployment","type":"bytes32","indexed":false,"internalType":"bytes32"}],"anonymous":false},{"type":"event","name":"SetTrafficWeightCompleted","inputs":[{"name":"variant","type":"string","indexed":false,"internalType":"string"},{"name":"deployment","type":"bytes32","indexed":false,"internalType":"bytes32"}],"anonymous":false}],"bytecode":{"object":"0x608060405234801561000f575f80fd5b5061224a8061001d5f395ff3fe608060405234801561000f575f80fd5b5060043610610060575f3560e01c80631aa3a008146100645780633d38f70c146100845780636e0bd282146100b45780637855131d146100e45780638388d22914610114578063c416a8cf14610144575b5f80fd5b61006c610174565b60405161007b93929190610fe0565b60405180910390f35b61009e6004803603810190610099919061119a565b6103e7565b6040516100ab91906112eb565b60405180910390f35b6100ce60048036038101906100c99190611335565b610678565b6040516100db919061138d565b60405180910390f35b6100fe60048036038101906100f991906113a6565b6107a6565b60405161010b919061144d565b60405180910390f35b61012e6004803603810190610129919061146d565b6108ca565b60405161013b91906114d8565b60405180910390f35b61015e600480360381019061015991906113a6565b6109ec565b60405161016b919061153e565b60405180910390f35b60608060606040518060400160405280600381526020017f6b3873000000000000000000000000000000000000000000000000000000000081525092506040518060400160405280600781526020017f72756e74696d65000000000000000000000000000000000000000000000000008152509150600567ffffffffffffffff81111561020457610203611043565b5b60405190808252806020026020018201604052801561023757816020015b60608152602001906001900390816102225790505b5090506040518060400160405280600981526020017f70726f766973696f6e0000000000000000000000000000000000000000000000815250815f815181106102835761028261155e565b5b60200260200101819052506040518060400160405280600681526020017f6465706c6f790000000000000000000000000000000000000000000000000000815250816001815181106102d8576102d761155e565b5b60200260200101819052506040518060400160405280601081526020017f73657454726166666963576569676874000000000000000000000000000000008152508160028151811061032d5761032c61155e565b5b60200260200101819052506040518060400160405280600881526020017f726f6c6c6261636b000000000000000000000000000000000000000000000000815250816003815181106103825761038161155e565b5b60200260200101819052506040518060400160405280600781526020017f64657374726f7900000000000000000000000000000000000000000000000000815250816004815181106103d7576103d661155e565b5b6020026020010181905250909192565b6103ef610d11565b5f855111610432576040517f08c379a0000000000000000000000000000000000000000000000000000000008152600401610429906115d5565b60405180910390fd5b5f845111610475576040517f08c379a000000000000000000000000000000000000000000000000000000000815260040161046c9061163d565b60405180910390fd5b5f82136104b7576040517f08c379a00000000000000000000000000000000000000000000000000000000081526004016104ae906116a5565b60405180910390fd5b5f8585856040516020016104cd939291906116fd565b60405160208183030381529060405280519060200120905085858585426040516020016104fe959493929190611754565b6040516020818303038152906040525f808381526020019081526020015f20908161052991906119be565b5060015f8281526020019081526020015f205f9054906101000a900460ff166105c8576001805f8381526020019081526020015f205f6101000a81548160ff021916908315150217905550600281908060018154018082558091505060019003905f5260205f20015f90919091909150555f60055f8381526020019081526020015f2081905550606460045f8381526020019081526020015f20819055505b5f866040516020016105da9190611ad7565b60405160208183030381529060405290505f87876040516020016105ff929190611b8c565b60405160208183030381529060405290507fe7ba298fd4b65faaecaa247132b454d0c8aac6d7bffe755ede2830a2108f83188360405161063f9190611c1e565b60405180910390a16040518060800160405280600115158152602001848152602001838152602001828152509350505050949350505050565b610680610d3c565b60015f8381526020019081526020015f205f9054906101000a900460ff166106dd576040517f08c379a00000000000000000000000000000000000000000000000000000000081526004016106d490611c94565b60405180910390fd5b5f60015f8481526020019081526020015f205f6101000a81548160ff0219169083151502179055505f808381526020019081526020015f205f6107209190610d59565b60035f8381526020019081526020015f205f61073c9190610d96565b60045f8381526020019081526020015f205f90557f5f91d6f5b071e1c01422208aefdc94722551cb418c8c493cbd4fa563938bc5d08260405161077f9190611c1e565b60405180910390a16040518060400160405280600115158152602001838152509050919050565b6107ae610dd3565b60015f8481526020019081526020015f205f9054906101000a900460ff1661080b576040517f08c379a000000000000000000000000000000000000000000000000000000000815260040161080290611c94565b60405180910390fd5b5f82511161084e576040517f08c379a000000000000000000000000000000000000000000000000000000000815260040161084590611d22565b60405180910390fd5b8160035f8581526020019081526020015f20908161086c9190611d98565b507fd7216dc6f75dc5ba9c492a95dab64aa01aaf14ccb27b9a38cc0ea55b5980b34f8360405161089c9190611c1e565b60405180910390a1604051806060016040528060011515815260200184815260200183815250905092915050565b6108d2610df7565b60015f8481526020019081526020015f205f9054906101000a900460ff1661092f576040517f08c379a000000000000000000000000000000000000000000000000000000000815260040161092690611c94565b60405180910390fd5b5f8212158015610940575060648213155b61097f576040517f08c379a000000000000000000000000000000000000000000000000000000000815260040161097690611eb1565b60405180910390fd5b8160045f8581526020019081526020015f20819055507fe3818c8f29f23fa7dae9a0884fe04d7bb4770020f95d48f6e3d93dc214eef732836040516109c49190611c1e565b60405180910390a1604051806040016040528060011515815260200184815250905092915050565b6109f4610e14565b60015f8481526020019081526020015f205f9054906101000a900460ff16610a51576040517f08c379a0000000000000000000000000000000000000000000000000000000008152600401610a4890611f3f565b60405180910390fd5b5f825111610a94576040517f08c379a0000000000000000000000000000000000000000000000000000000008152600401610a8b90611fa7565b60405180910390fd5b600160055f8581526020019081526020015f205f828254610ab59190611ff2565b925050819055505f610ad760055f8681526020019081526020015f2054610bb8565b604051602001610ae7919061206f565b60405160208183030381529060405290508060035f8681526020019081526020015f209081610b169190611d98565b50828142604051602001610b2c93929190612090565b6040516020818303038152906040525f808681526020019081526020015f209081610b5791906119be565b507ffd3307024059d6c890100baad6027d7aa8470c77d7c3552e96705339181146f7845f604051610b899291906120d3565b60405180910390a160405180606001604052806001151581526020018581526020018281525091505092915050565b60605f8203610bfe576040518060400160405280600181526020017f30000000000000000000000000000000000000000000000000000000000000008152509050610d0c565b5f8290505f5b5f8214610c2d578080610c169061210d565b915050600a82610c269190612181565b9150610c04565b5f8167ffffffffffffffff811115610c4857610c47611043565b5b6040519080825280601f01601f191660200182016040528015610c7a5781602001600182028036833780820191505090505b5090505b5f8514610d0557600182610c9291906121b1565b9150600a85610ca191906121e4565b6030610cad9190611ff2565b60f81b818381518110610cc357610cc261155e565b5b60200101907effffffffffffffffffffffffffffffffffffffffffffffffffffffffffffff191690815f1a905350600a85610cfe9190612181565b9450610c7e565b8093505050505b919050565b60405180608001604052805f151581526020015f801916815260200160608152602001606081525090565b60405180604001604052805f151581526020015f80191681525090565b508054610d65906117f1565b5f825580601f10610d765750610d93565b601f0160209004905f5260205f2090810190610d929190610e38565b5b50565b508054610da2906117f1565b5f825580601f10610db35750610dd0565b601f0160209004905f5260205f2090810190610dcf9190610e38565b5b50565b60405180606001604052805f151581526020015f8019168152602001606081525090565b60405180604001604052805f151581526020015f80191681525090565b60405180606001604052805f151581526020015f8019168152602001606081525090565b5b80821115610e4f575f815f905550600101610e39565b5090565b5f81519050919050565b5f82825260208201905092915050565b5f5b83811015610e8a578082015181840152602081019050610e6f565b5f8484015250505050565b5f601f19601f8301169050919050565b5f610eaf82610e53565b610eb98185610e5d565b9350610ec9818560208601610e6d565b610ed281610e95565b840191505092915050565b5f81519050919050565b5f82825260208201905092915050565b5f819050602082019050919050565b5f82825260208201905092915050565b5f610f2082610e53565b610f2a8185610f06565b9350610f3a818560208601610e6d565b610f4381610e95565b840191505092915050565b5f610f598383610f16565b905092915050565b5f602082019050919050565b5f610f7782610edd565b610f818185610ee7565b935083602082028501610f9385610ef7565b805f5b85811015610fce5784840389528151610faf8582610f4e565b9450610fba83610f61565b925060208a01995050600181019050610f96565b50829750879550505050505092915050565b5f6060820190508181035f830152610ff88186610ea5565b9050818103602083015261100c8185610ea5565b905081810360408301526110208184610f6d565b9050949350505050565b5f604051905090565b5f80fd5b5f80fd5b5f80fd5b5f80fd5b7f4e487b71000000000000000000000000000000000000000000000000000000005f52604160045260245ffd5b61107982610e95565b810181811067ffffffffffffffff8211171561109857611097611043565b5b80604052505050565b5f6110aa61102a565b90506110b68282611070565b919050565b5f67ffffffffffffffff8211156110d5576110d4611043565b5b6110de82610e95565b9050602081019050919050565b828183375f83830152505050565b5f61110b611106846110bb565b6110a1565b9050828152602081018484840111156111275761112661103f565b5b6111328482856110eb565b509392505050565b5f82601f83011261114e5761114d61103b565b5b813561115e8482602086016110f9565b91505092915050565b5f819050919050565b61117981611167565b8114611183575f80fd5b50565b5f8135905061119481611170565b92915050565b5f805f80608085870312156111b2576111b1611033565b5b5f85013567ffffffffffffffff8111156111cf576111ce611037565b5b6111db8782880161113a565b945050602085013567ffffffffffffffff8111156111fc576111fb611037565b5b6112088782880161113a565b935050604085013567ffffffffffffffff81111561122957611228611037565b5b6112358782880161113a565b925050606061124687828801611186565b91505092959194509250565b5f8115159050919050565b61126681611252565b82525050565b5f819050919050565b61127e8161126c565b82525050565b5f608083015f8301516112995f86018261125d565b5060208301516112ac6020860182611275565b50604083015184820360408601526112c48282610f16565b915050606083015184820360608601526112de8282610f16565b9150508091505092915050565b5f6020820190508181035f8301526113038184611284565b905092915050565b6113148161126c565b811461131e575f80fd5b50565b5f8135905061132f8161130b565b92915050565b5f6020828403121561134a57611349611033565b5b5f61135784828501611321565b91505092915050565b604082015f8201516113745f85018261125d565b5060208201516113876020850182611275565b50505050565b5f6040820190506113a05f830184611360565b92915050565b5f80604083850312156113bc576113bb611033565b5b5f6113c985828601611321565b925050602083013567ffffffffffffffff8111156113ea576113e9611037565b5b6113f68582860161113a565b9150509250929050565b5f606083015f8301516114155f86018261125d565b5060208301516114286020860182611275565b50604083015184820360408601526114408282610f16565b9150508091505092915050565b5f6020820190508181035f8301526114658184611400565b905092915050565b5f806040838503121561148357611482611033565b5b5f61149085828601611321565b92505060206114a185828601611186565b9150509250929050565b604082015f8201516114bf5f85018261125d565b5060208201516114d26020850182611275565b50505050565b5f6040820190506114eb5f8301846114ab565b92915050565b5f606083015f8301516115065f86018261125d565b5060208301516115196020860182611275565b50604083015184820360408601526115318282610f16565b9150508091505092915050565b5f6020820190508181035f83015261155681846114f1565b905092915050565b7f4e487b71000000000000000000000000000000000000000000000000000000005f52603260045260245ffd5b7f436f6e63657074206d757374206e6f7420626520656d707479000000000000005f82015250565b5f6115bf601983610e5d565b91506115ca8261158b565b602082019050919050565b5f6020820190508181035f8301526115ec816115b3565b9050919050565b7f4e616d657370616365206d757374206e6f7420626520656d70747900000000005f82015250565b5f611627601b83610e5d565b9150611632826115f3565b602082019050919050565b5f6020820190508181035f8301526116548161161b565b9050919050565b7f5265706c69636173206d75737420626520706f736974697665000000000000005f82015250565b5f61168f601983610e5d565b915061169a8261165b565b602082019050919050565b5f6020820190508181035f8301526116bc81611683565b9050919050565b5f81905092915050565b5f6116d782610e53565b6116e181856116c3565b93506116f1818560208601610e6d565b80840191505092915050565b5f61170882866116cd565b915061171482856116cd565b915061172082846116cd565b9150819050949350505050565b61173681611167565b82525050565b5f819050919050565b61174e8161173c565b82525050565b5f60a0820190508181035f83015261176c8188610ea5565b905081810360208301526117808187610ea5565b905081810360408301526117948186610ea5565b90506117a3606083018561172d565b6117b06080830184611745565b9695505050505050565b5f81519050919050565b7f4e487b71000000000000000000000000000000000000000000000000000000005f52602260045260245ffd5b5f600282049050600182168061180857607f821691505b60208210810361181b5761181a6117c4565b5b50919050565b5f819050815f5260205f209050919050565b5f6020601f8301049050919050565b5f82821b905092915050565b5f6008830261187d7fffffffffffffffffffffffffffffffffffffffffffffffffffffffffffffffff82611842565b6118878683611842565b95508019841693508086168417925050509392505050565b5f819050919050565b5f6118c26118bd6118b88461173c565b61189f565b61173c565b9050919050565b5f819050919050565b6118db836118a8565b6118ef6118e7826118c9565b84845461184e565b825550505050565b5f90565b6119036118f7565b61190e8184846118d2565b505050565b5b81811015611931576119265f826118fb565b600181019050611914565b5050565b601f8211156119765761194781611821565b61195084611833565b8101602085101561195f578190505b61197361196b85611833565b830182611913565b50505b505050565b5f82821c905092915050565b5f6119965f198460080261197b565b1980831691505092915050565b5f6119ae8383611987565b9150826002028217905092915050565b6119c7826117ba565b67ffffffffffffffff8111156119e0576119df611043565b5b6119ea82546117f1565b6119f5828285611935565b5f60209050601f831160018114611a26575f8415611a14578287015190505b611a1e85826119a3565b865550611a85565b601f198416611a3486611821565b5f5b82811015611a5b57848901518255600182019150602085019450602081019050611a36565b86831015611a785784890151611a74601f891682611987565b8355505b6001600288020188555050505b505050505050565b7f2d737663000000000000000000000000000000000000000000000000000000005f82015250565b5f611ac16004836116c3565b9150611acc82611a8d565b600482019050919050565b5f611ae282846116cd565b9150611aed82611ab5565b915081905092915050565b7f2d7376632e0000000000000000000000000000000000000000000000000000005f82015250565b5f611b2c6005836116c3565b9150611b3782611af8565b600582019050919050565b7f2e7376632e636c75737465722e6c6f63616c00000000000000000000000000005f82015250565b5f611b766012836116c3565b9150611b8182611b42565b601282019050919050565b5f611b9782856116cd565b9150611ba282611b20565b9150611bae82846116cd565b9150611bb982611b6a565b91508190509392505050565b7f6f6b0000000000000000000000000000000000000000000000000000000000005f82015250565b5f611bf9600283610e5d565b9150611c0482611bc5565b602082019050919050565b611c188161126c565b82525050565b5f6040820190508181035f830152611c3581611bed565b9050611c446020830184611c0f565b92915050565b7f4465706c6f796d656e74206e6f7420666f756e640000000000000000000000005f82015250565b5f611c7e601483610e5d565b9150611c8982611c4a565b602082019050919050565b5f6020820190508181035f830152611cab81611c72565b9050919050565b7f546172676574207265766973696f6e206d757374206e6f7420626520656d70745f8201527f7900000000000000000000000000000000000000000000000000000000000000602082015250565b5f611d0c602183610e5d565b9150611d1782611cb2565b604082019050919050565b5f6020820190508181035f830152611d3981611d00565b9050919050565b5f819050815f5260205f209050919050565b601f821115611d9357611d6481611d40565b611d6d84611833565b81016020851015611d7c578190505b611d90611d8885611833565b830182611913565b50505b505050565b611da182610e53565b67ffffffffffffffff811115611dba57611db9611043565b5b611dc482546117f1565b611dcf828285611d52565b5f60209050601f831160018114611e00575f8415611dee578287015190505b611df885826119a3565b865550611e5f565b601f198416611e0e86611d40565b5f5b82811015611e3557848901518255600182019150602085019450602081019050611e10565b86831015611e525784890151611e4e601f891682611987565b8355505b6001600288020188555050505b505050505050565b7f576569676874206d75737420626520302d3130300000000000000000000000005f82015250565b5f611e9b601483610e5d565b9150611ea682611e67565b602082019050919050565b5f6020820190508181035f830152611ec881611e8f565b9050919050565b7f4465706c6f796d656e74206e6f7420666f756e64202d2070726f766973696f6e5f8201527f2066697273740000000000000000000000000000000000000000000000000000602082015250565b5f611f29602683610e5d565b9150611f3482611ecf565b604082019050919050565b5f6020820190508181035f830152611f5681611f1d565b9050919050565b7f496d61676520555249206d757374206e6f7420626520656d70747900000000005f82015250565b5f611f91601b83610e5d565b9150611f9c82611f5d565b602082019050919050565b5f6020820190508181035f830152611fbe81611f85565b9050919050565b7f4e487b71000000000000000000000000000000000000000000000000000000005f52601160045260245ffd5b5f611ffc8261173c565b91506120078361173c565b925082820190508082111561201f5761201e611fc5565b5b92915050565b7f7265762d000000000000000000000000000000000000000000000000000000005f82015250565b5f6120596004836116c3565b915061206482612025565b600482019050919050565b5f6120798261204d565b915061208582846116cd565b915081905092915050565b5f6060820190508181035f8301526120a88186610ea5565b905081810360208301526120bc8185610ea5565b90506120cb6040830184611745565b949350505050565b5f6060820190508181035f8301526120ea81611bed565b90506120f96020830185611c0f565b612106604083018461172d565b9392505050565b5f6121178261173c565b91507fffffffffffffffffffffffffffffffffffffffffffffffffffffffffffffffff820361214957612148611fc5565b5b600182019050919050565b7f4e487b71000000000000000000000000000000000000000000000000000000005f52601260045260245ffd5b5f61218b8261173c565b91506121968361173c565b9250826121a6576121a5612154565b5b828204905092915050565b5f6121bb8261173c565b91506121c68361173c565b92508282039050818111156121de576121dd611fc5565b5b92915050565b5f6121ee8261173c565b91506121f98361173c565b92508261220957612208612154565b5b82820690509291505056fea264697066735822122053fcd4888bc2a8da50a662d14384ddbe87ec7477dbef381df4973ae7a7ac773d64736f6c63430008140033","linkReferences":{}},"methodIdentifiers":{"deploy(bytes32,string)":"c416a8cf","destroy(bytes32)":"6e0bd282","provision(string,string,string,int256)":"3d38f70c","register()":"1aa3a008","rollback(bytes32,string)":"7855131d","setTrafficWeight(bytes32,int256)":"8388d229"},"id":155}