{"abi":[{"type":"function","name":"check","inputs":[{"name":"stepKey","type":"string","internalType":"string"},{"name":"inputHash","type":"string","internalType":"string"},{"name":"deterministic","type":"bool","internalType":"bool"}],"outputs":[{"name":"","type":"bool","internalType":"bool"}],"stateMutability":"nonpayable"},{"type":"function","name":"invalidate","inputs":[{"name":"stepKey","type":"string","internalType":"string"}],"outputs":[{"name":"","type":"bool","internalType":"bool"}],"stateMutability":"nonpayable"},{"type":"function","name":"invalidateAll","inputs":[],"outputs":[{"name":"","type":"tuple","internalType":"struct BuildCache.InvalidateAllOkResult","components":[{"name":"success","type":"bool","internalType":"bool"},{"name":"cleared","type":"int256","internalType":"int256"}]}],"stateMutability":"nonpayable"},{"type":"function","name":"invalidateByKind","inputs":[{"name":"kindName","type":"string","internalType":"string"}],"outputs":[{"name":"","type":"tuple","internalType":"struct BuildCache.InvalidateByKindOkResult","components":[{"name":"success","type":"bool","internalType":"bool"},{"name":"invalidated","type":"string[]","internalType":"string[]"}]}],"stateMutability":"nonpayable"},{"type":"function","name":"invalidateBySource","inputs":[{"name":"sourceLocator","type":"string","internalType":"string"}],"outputs":[{"name":"","type":"tuple","internalType":"struct BuildCache.InvalidateBySourceOkResult","components":[{"name":"success","type":"bool","internalType":"bool"},{"name":"invalidated","type":"string[]","internalType":"string[]"}]}],"stateMutability":"nonpayable"},{"type":"function","name":"record","inputs":[{"name":"stepKey","type":"string","internalType":"string"},{"name":"inputHash","type":"string","internalType":"string"},{"name":"outputHash","type":"string","internalType":"string"},{"name":"outputRef","type":"string","internalType":"string"},{"name":"sourceLocator","type":"string","internalType":"string"},{"name":"deterministic","type":"bool","internalType":"bool"}],"outputs":[{"name":"","type":"tuple","internalType":"struct BuildCache.RecordOkResult","components":[{"name":"success","type":"bool","internalType":"bool"},{"name":"entry","type":"bytes32","internalType":"bytes32"}]}],"stateMutability":"nonpayable"},{"type":"function","name":"staleSteps","inputs":[],"outputs":[{"name":"","type":"tuple","internalType":"struct BuildCache.StaleStepsOkResult","components":[{"name":"success","type":"bool","internalType":"bool"},{"name":"steps","type":"string[]","internalType":"string[]"}]}],"stateMutability":"nonpayable"},{"type":"function","name":"status","inputs":[],"outputs":[{"name":"","type":"tuple","internalType":"struct BuildCache.StatusOkResult","components":[{"name":"success","type":"bool","internalType":"bool"},{"name":"entries","type":"bytes[]","internalType":"bytes[]"}]}],"stateMutability":"nonpayable"},{"type":"event","name":"CheckCompleted","inputs":[{"name":"variant","type":"string","indexed":false,"internalType":"string"},{"name":"lastRun","type":"uint256","indexed":false,"internalType":"uint256"},{"name":"outputRef","type":"string","indexed":false,"internalType":"string"},{"name":"previousHash","type":"string","indexed":false,"internalType":"string"}],"anonymous":false},{"type":"event","name":"InvalidateAllCompleted","inputs":[{"name":"variant","type":"string","indexed":false,"internalType":"string"},{"name":"cleared","type":"int256","indexed":false,"internalType":"int256"}],"anonymous":false},{"type":"event","name":"InvalidateByKindCompleted","inputs":[{"name":"variant","type":"string","indexed":false,"internalType":"string"},{"name":"invalidated","type":"string[]","indexed":false,"internalType":"string[]"}],"anonymous":false},{"type":"event","name":"InvalidateBySourceCompleted","inputs":[{"name":"variant","type":"string","indexed":false,"internalType":"string"},{"name":"invalidated","type":"string[]","indexed":false,"internalType":"string[]"}],"anonymous":false},{"type":"event","name":"InvalidateCompleted","inputs":[{"name":"variant","type":"string","indexed":false,"internalType":"string"}],"anonymous":false},{"type":"event","name":"RecordCompleted","inputs":[{"name":"variant","type":"string","indexed":false,"internalType":"string"},{"name":"entry","type":"bytes32","indexed":false,"internalType":"bytes32"}],"anonymous":false},{"type":"event","name":"StaleStepsCompleted","inputs":[{"name":"variant","type":"string","indexed":false,"internalType":"string"},{"name":"steps","type":"string[]","indexed":false,"internalType":"string[]"}],"anonymous":false},{"type":"event","name":"StatusCompleted","inputs":[{"name":"variant","type":"string","indexed":false,"internalType":"string"},{"name":"entries","type":"bytes[]","indexed":false,"internalType":"bytes[]"}],"anonymous":false}],"bytecode":{"object":"0x608060405234801561000f575f80fd5b506125a88061001d5f395ff3fe608060405234801561000f575f80fd5b5060043610610086575f3560e01c8063433f4f9b11610059578063433f4f9b14610126578063690d9b9314610156578063de2130fb14610186578063f80c4036146101b657610086565b8063036b4a701461008a5780630846c0ee146100a8578063200d2ed2146100d857806338c14457146100f6575b5f80fd5b6100926101d4565b60405161009f9190611430565b60405180910390f35b6100c260048036038101906100bd919061158d565b6104b0565b6040516100cf91906115e3565b60405180910390f35b6100e06105cd565b6040516100ed9190611743565b60405180910390f35b610110600480360381019061010b919061178d565b6107ca565b60405161011d91906115e3565b60405180910390f35b610140600480360381019061013b9190611815565b610928565b60405161014d919061196f565b60405180910390f35b610170600480360381019061016b919061158d565b610b2e565b60405161017d91906119c2565b60405180910390f35b6101a0600480360381019061019b919061158d565b610e2f565b6040516101ad9190611a1c565b60405180910390f35b6101be6110ce565b6040516101cb9190611a81565b60405180910390f35b6101dc6111f4565b5f80610e1042116101ed575f6101fc565b610e10426101fb9190611ad0565b5b90505f5b6001805490508110156102ad575f6001828154811061022257610221611b03565b5b905f5260205f200154905060025f8281526020019081526020015f205f9054906101000a900460ff1615610299575f805f8381526020019081526020015f20905083816006015410806102835750806005015f9054906101000a900460ff16155b1561029757848061029390611b30565b9550505b505b5080806102a590611b30565b915050610200565b505f8267ffffffffffffffff8111156102c9576102c8611469565b5b6040519080825280602002602001820160405280156102fc57816020015b60608152602001906001900390816102e75790505b5090505f805b600180549050811015610457575f6001828154811061032457610323611b03565b5b905f5260205f200154905060025f8281526020019081526020015f205f9054906101000a900460ff1615610443575f805f8381526020019081526020015f20905085816006015410806103855750806005015f9054906101000a900460ff16155b1561044157805f01805461039890611ba4565b80601f01602080910402602001604051908101604052809291908181526020018280546103c490611ba4565b801561040f5780601f106103e65761010080835404028352916020019161040f565b820191905f5260205f20905b8154815290600101906020018083116103f257829003601f168201915b505050505085858151811061042757610426611b03565b5b6020026020010181905250838061043d90611b30565b9450505b505b50808061044f90611b30565b915050610302565b507fb57852c3344a5ad07221dc76cc04d8d6dd739cbc163d0445640c232f07d36b5c826040516104879190611cb1565b60405180910390a160405180604001604052806001151581526020018381525094505050505090565b5f80826040516020016104c39190611d68565b60405160208183030381529060405280519060200120905060025f8281526020019081526020015f205f9054906101000a900460ff1661053b577f0b8e8fb1f131294ebf7783660295f8483eafa85b786e892640bfdf1371ff0ada60405161052a90611dd3565b60405180910390a15f9150506105c8565b5f805f8381526020019081526020015f206007015f6101000a81548160ff0219169083151502179055505f60025f8381526020019081526020015f205f6101000a81548160ff0219169083151502179055507f0b8e8fb1f131294ebf7783660295f8483eafa85b786e892640bfdf1371ff0ada6040516105ba90611df1565b60405180910390a160019150505b919050565b6105d561120f565b5f805b6001805490508110156106465760025f600183815481106105fc576105fb611b03565b5b905f5260205f20015481526020019081526020015f205f9054906101000a900460ff161561063357818061062f90611b30565b9250505b808061063e90611b30565b9150506105d8565b505f8167ffffffffffffffff81111561066257610661611469565b5b60405190808252806020026020018201604052801561069557816020015b60608152602001906001900390816106805790505b5090505f805b600180549050811015610772575f600182815481106106bd576106bc611b03565b5b905f5260205f200154905060025f8281526020019081526020015f205f9054906101000a900460ff161561075e575f805f8381526020019081526020015f209050805f01816001018260020183600601546040516020016107219493929190611eb1565b60405160208183030381529060405285858151811061074357610742611b03565b5b6020026020010181905250838061075990611b30565b945050505b50808061076a90611b30565b91505061069b565b507f7d93a3faa08154c0777e388e287dc0bbac893e6afbe2539e0b42f869dfbfef24826040516107a29190611f8c565b60405180910390a1604051806040016040528060011515815260200183815250935050505090565b5f80846040516020016107dd9190611d68565b60405160208183030381529060405280519060200120905060025f8281526020019081526020015f205f9054906101000a900460ff16610857577f0c9f83a320330bd92a3d5a0a1c42b03c7abfac28370a5ef3fd21820a284310325f604051610846919061206e565b60405180910390a15f915050610921565b5f805f8381526020019081526020015f209050848051906020012081600101604051610883919061215c565b6040518091039020036108db577f0c9f83a320330bd92a3d5a0a1c42b03c7abfac28370a5ef3fd21820a284310328160060154826003016040516108c89291906121bc565b60405180910390a1600192505050610921565b7f0c9f83a320330bd92a3d5a0a1c42b03c7abfac28370a5ef3fd21820a28431032816006015482600101604051610913929190612210565b60405180910390a15f925050505b9392505050565b61093061122a565b5f876040516020016109429190611d68565b6040516020818303038152906040528051906020012090506040518061010001604052808981526020018881526020018781526020018681526020018581526020018415158152602001428152602001600115158152505f808381526020019081526020015f205f820151815f0190816109bc91906123e6565b5060208201518160010190816109d291906123e6565b5060408201518160020190816109e891906123e6565b5060608201518160030190816109fe91906123e6565b506080820151816004019081610a1491906123e6565b5060a0820151816005015f6101000a81548160ff02191690831515021790555060c0820151816006015560e0820151816007015f6101000a81548160ff02191690831515021790555090505060025f8281526020019081526020015f205f9054906101000a900460ff16610ad257600160025f8381526020019081526020015f205f6101000a81548160ff021916908315150217905550600181908060018154018082558091505060019003905f5260205f20015f90919091909150555b7fcda516a6893ae355416ffc0c96e5d3732914ae2678fb2a1e76e147944d3a2e3981604051610b0191906124c4565b60405180910390a16040518060400160405280600115158152602001828152509150509695505050505050565b610b36611247565b5f805b600180549050811015610be7575f60018281548110610b5b57610b5a611b03565b5b905f5260205f200154905060025f8281526020019081526020015f205f9054906101000a900460ff1615610bd3575f805f8381526020019081526020015f209050858051906020012081600401604051610bb5919061215c565b604051809103902003610bd1578380610bcd90611b30565b9450505b505b508080610bdf90611b30565b915050610b39565b505f8167ffffffffffffffff811115610c0357610c02611469565b5b604051908082528060200260200182016040528015610c3657816020015b6060815260200190600190039081610c215790505b5090505f805b600180549050811015610dd5575f60018281548110610c5e57610c5d611b03565b5b905f5260205f200154905060025f8281526020019081526020015f205f9054906101000a900460ff1615610dc1575f805f8381526020019081526020015f209050878051906020012081600401604051610cb8919061215c565b604051809103902003610dbf57805f018054610cd390611ba4565b80601f0160208091040260200160405190810160405280929190818152602001828054610cff90611ba4565b8015610d4a5780601f10610d2157610100808354040283529160200191610d4a565b820191905f5260205f20905b815481529060010190602001808311610d2d57829003601f168201915b5050505050858581518110610d6257610d61611b03565b5b60200260200101819052508380610d7890611b30565b9450505f816007015f6101000a81548160ff0219169083151502179055505f60025f8481526020019081526020015f205f6101000a81548160ff0219169083151502179055505b505b508080610dcd90611b30565b915050610c3c565b507f41e2ed6156b7e2dfa2a51a7455dad05ad82aed823b47cb964b652d2576ab97c982604051610e059190611cb1565b60405180910390a16040518060400160405280600115158152602001838152509350505050919050565b610e37611262565b5f805b600180549050811015610ead575f60018281548110610e5c57610e5b611b03565b5b905f5260205f200154905060025f8281526020019081526020015f205f9054906101000a900460ff1615610e99578280610e9590611b30565b9350505b508080610ea590611b30565b915050610e3a565b505f8167ffffffffffffffff811115610ec957610ec8611469565b5b604051908082528060200260200182016040528015610efc57816020015b6060815260200190600190039081610ee75790505b5090505f805b600180549050811015611074575f60018281548110610f2457610f23611b03565b5b905f5260205f200154905060025f8281526020019081526020015f205f9054906101000a900460ff1615611060575f805f8381526020019081526020015f209050805f018054610f7390611ba4565b80601f0160208091040260200160405190810160405280929190818152602001828054610f9f90611ba4565b8015610fea5780601f10610fc157610100808354040283529160200191610fea565b820191905f5260205f20905b815481529060010190602001808311610fcd57829003601f168201915b505050505085858151811061100257611001611b03565b5b6020026020010181905250838061101890611b30565b9450505f816007015f6101000a81548160ff0219169083151502179055505f60025f8481526020019081526020015f205f6101000a81548160ff021916908315150217905550505b50808061106c90611b30565b915050610f02565b507f141de5feb11b2d6902b08034a7fba4c52f8755397801162063531cee813ba52f826040516110a49190611cb1565b60405180910390a16040518060400160405280600115158152602001838152509350505050919050565b6110d661127d565b5f805b60018054905081101561119e575f600182815481106110fb576110fa611b03565b5b905f5260205f200154905060025f8281526020019081526020015f205f9054906101000a900460ff161561118a575f805f8381526020019081526020015f206007015f6101000a81548160ff0219169083151502179055505f60025f8381526020019081526020015f205f6101000a81548160ff0219169083151502179055508280611186906124f0565b9350505b50808061119690611b30565b9150506110d9565b507f51b48a8883824bd9109da61b2b4030b77e12517549fe9baf7385a1dad3e127e1816040516111ce9190612546565b60405180910390a160405180604001604052806001151581526020018281525091505090565b60405180604001604052805f15158152602001606081525090565b60405180604001604052805f15158152602001606081525090565b60405180604001604052805f151581526020015f80191681525090565b60405180604001604052805f15158152602001606081525090565b60405180604001604052805f15158152602001606081525090565b60405180604001604052805f151581526020015f81525090565b5f8115159050919050565b6112ab81611297565b82525050565b5f81519050919050565b5f82825260208201905092915050565b5f819050602082019050919050565b5f81519050919050565b5f82825260208201905092915050565b5f5b838110156113115780820151818401526020810190506112f6565b5f8484015250505050565b5f601f19601f8301169050919050565b5f611336826112da565b61134081856112e4565b93506113508185602086016112f4565b6113598161131c565b840191505092915050565b5f61136f838361132c565b905092915050565b5f602082019050919050565b5f61138d826112b1565b61139781856112bb565b9350836020820285016113a9856112cb565b805f5b858110156113e457848403895281516113c58582611364565b94506113d083611377565b925060208a019950506001810190506113ac565b50829750879550505050505092915050565b5f604083015f83015161140b5f8601826112a2565b50602083015184820360208601526114238282611383565b9150508091505092915050565b5f6020820190508181035f83015261144881846113f6565b905092915050565b5f604051905090565b5f80fd5b5f80fd5b5f80fd5b5f80fd5b7f4e487b71000000000000000000000000000000000000000000000000000000005f52604160045260245ffd5b61149f8261131c565b810181811067ffffffffffffffff821117156114be576114bd611469565b5b80604052505050565b5f6114d0611450565b90506114dc8282611496565b919050565b5f67ffffffffffffffff8211156114fb576114fa611469565b5b6115048261131c565b9050602081019050919050565b828183375f83830152505050565b5f61153161152c846114e1565b6114c7565b90508281526020810184848401111561154d5761154c611465565b5b611558848285611511565b509392505050565b5f82601f83011261157457611573611461565b5b813561158484826020860161151f565b91505092915050565b5f602082840312156115a2576115a1611459565b5b5f82013567ffffffffffffffff8111156115bf576115be61145d565b5b6115cb84828501611560565b91505092915050565b6115dd81611297565b82525050565b5f6020820190506115f65f8301846115d4565b92915050565b5f81519050919050565b5f82825260208201905092915050565b5f819050602082019050919050565b5f81519050919050565b5f82825260208201905092915050565b5f61164982611625565b611653818561162f565b93506116638185602086016112f4565b61166c8161131c565b840191505092915050565b5f611682838361163f565b905092915050565b5f602082019050919050565b5f6116a0826115fc565b6116aa8185611606565b9350836020820285016116bc85611616565b805f5b858110156116f757848403895281516116d88582611677565b94506116e38361168a565b925060208a019950506001810190506116bf565b50829750879550505050505092915050565b5f604083015f83015161171e5f8601826112a2565b50602083015184820360208601526117368282611696565b9150508091505092915050565b5f6020820190508181035f83015261175b8184611709565b905092915050565b61176c81611297565b8114611776575f80fd5b50565b5f8135905061178781611763565b92915050565b5f805f606084860312156117a4576117a3611459565b5b5f84013567ffffffffffffffff8111156117c1576117c061145d565b5b6117cd86828701611560565b935050602084013567ffffffffffffffff8111156117ee576117ed61145d565b5b6117fa86828701611560565b925050604061180b86828701611779565b9150509250925092565b5f805f805f8060c0878903121561182f5761182e611459565b5b5f87013567ffffffffffffffff81111561184c5761184b61145d565b5b61185889828a01611560565b965050602087013567ffffffffffffffff8111156118795761187861145d565b5b61188589828a01611560565b955050604087013567ffffffffffffffff8111156118a6576118a561145d565b5b6118b289828a01611560565b945050606087013567ffffffffffffffff8111156118d3576118d261145d565b5b6118df89828a01611560565b935050608087013567ffffffffffffffff811115611900576118ff61145d565b5b61190c89828a01611560565b92505060a061191d89828a01611779565b9150509295509295509295565b5f819050919050565b61193c8161192a565b82525050565b604082015f8201516119565f8501826112a2565b5060208201516119696020850182611933565b50505050565b5f6040820190506119825f830184611942565b92915050565b5f604083015f83015161199d5f8601826112a2565b50602083015184820360208601526119b58282611383565b9150508091505092915050565b5f6020820190508181035f8301526119da8184611988565b905092915050565b5f604083015f8301516119f75f8601826112a2565b5060208301518482036020860152611a0f8282611383565b9150508091505092915050565b5f6020820190508181035f830152611a3481846119e2565b905092915050565b5f819050919050565b611a4e81611a3c565b82525050565b604082015f820151611a685f8501826112a2565b506020820151611a7b6020850182611a45565b50505050565b5f604082019050611a945f830184611a54565b92915050565b5f819050919050565b7f4e487b71000000000000000000000000000000000000000000000000000000005f52601160045260245ffd5b5f611ada82611a9a565b9150611ae583611a9a565b9250828203905081811115611afd57611afc611aa3565b5b92915050565b7f4e487b71000000000000000000000000000000000000000000000000000000005f52603260045260245ffd5b5f611b3a82611a9a565b91507fffffffffffffffffffffffffffffffffffffffffffffffffffffffffffffffff8203611b6c57611b6b611aa3565b5b600182019050919050565b7f4e487b71000000000000000000000000000000000000000000000000000000005f52602260045260245ffd5b5f6002820490506001821680611bbb57607f821691505b602082108103611bce57611bcd611b77565b5b50919050565b5f82825260208201905092915050565b7f6f6b0000000000000000000000000000000000000000000000000000000000005f82015250565b5f611c18600283611bd4565b9150611c2382611be4565b602082019050919050565b5f82825260208201905092915050565b5f611c48826112b1565b611c528185611c2e565b935083602082028501611c64856112cb565b805f5b85811015611c9f5784840389528151611c808582611364565b9450611c8b83611377565b925060208a01995050600181019050611c67565b50829750879550505050505092915050565b5f6040820190508181035f830152611cc881611c0c565b90508181036020830152611cdc8184611c3e565b905092915050565b5f81905092915050565b7f63616368653a00000000000000000000000000000000000000000000000000005f82015250565b5f611d22600683611ce4565b9150611d2d82611cee565b600682019050919050565b5f611d42826112da565b611d4c8185611ce4565b9350611d5c8185602086016112f4565b80840191505092915050565b5f611d7282611d16565b9150611d7e8284611d38565b915081905092915050565b7f6e6f74466f756e640000000000000000000000000000000000000000000000005f82015250565b5f611dbd600883611bd4565b9150611dc882611d89565b602082019050919050565b5f6020820190508181035f830152611dea81611db1565b9050919050565b5f6020820190508181035f830152611e0881611c0c565b9050919050565b5f819050815f5260205f209050919050565b5f8154611e2d81611ba4565b611e378186611bd4565b9450600182165f8114611e515760018114611e6757611e99565b60ff198316865281151560200286019350611e99565b611e7085611e0f565b5f5b83811015611e9157815481890152600182019150602081019050611e72565b808801955050505b50505092915050565b611eab81611a9a565b82525050565b5f6080820190508181035f830152611ec98187611e21565b90508181036020830152611edd8186611e21565b90508181036040830152611ef18185611e21565b9050611f006060830184611ea2565b95945050505050565b5f82825260208201905092915050565b5f611f23826115fc565b611f2d8185611f09565b935083602082028501611f3f85611616565b805f5b85811015611f7a5784840389528151611f5b8582611677565b9450611f668361168a565b925060208a01995050600181019050611f42565b50829750879550505050505092915050565b5f6040820190508181035f830152611fa381611c0c565b90508181036020830152611fb78184611f19565b905092915050565b7f6368616e676564000000000000000000000000000000000000000000000000005f82015250565b5f611ff3600783611bd4565b9150611ffe82611fbf565b602082019050919050565b5f819050919050565b5f819050919050565b5f61203561203061202b84612009565b612012565b611a9a565b9050919050565b6120458161201b565b82525050565b50565b5f6120595f83611bd4565b91506120648261204b565b5f82019050919050565b5f6080820190508181035f83015261208581611fe7565b9050612094602083018461203c565b81810360408301526120a58161204e565b905081810360608301526120b88161204e565b905092915050565b5f81905092915050565b5f819050815f5260205f209050919050565b5f81546120e881611ba4565b6120f281866120c0565b9450600182165f811461210c576001811461212157612153565b60ff1983168652811515820286019350612153565b61212a856120ca565b5f5b8381101561214b5781548189015260018201915060208101905061212c565b838801955050505b50505092915050565b5f61216782846120dc565b915081905092915050565b7f756e6368616e67656400000000000000000000000000000000000000000000005f82015250565b5f6121a6600983611bd4565b91506121b182612172565b602082019050919050565b5f6080820190508181035f8301526121d38161219a565b90506121e26020830185611ea2565b81810360408301526121f48184611e21565b905081810360608301526122078161204e565b90509392505050565b5f6080820190508181035f83015261222781611fe7565b90506122366020830185611ea2565b81810360408301526122478161204e565b9050818103606083015261225b8184611e21565b90509392505050565b5f6020601f8301049050919050565b5f82821b905092915050565b5f600883026122ae7fffffffffffffffffffffffffffffffffffffffffffffffffffffffffffffffff82612273565b6122b88683612273565b95508019841693508086168417925050509392505050565b5f6122ea6122e56122e084611a9a565b612012565b611a9a565b9050919050565b5f819050919050565b612303836122d0565b61231761230f826122f1565b84845461227f565b825550505050565b5f90565b61232b61231f565b6123368184846122fa565b505050565b5b818110156123595761234e5f82612323565b60018101905061233c565b5050565b601f82111561239e5761236f81611e0f565b61237884612264565b81016020851015612387578190505b61239b61239385612264565b83018261233b565b50505b505050565b5f82821c905092915050565b5f6123be5f19846008026123a3565b1980831691505092915050565b5f6123d683836123af565b9150826002028217905092915050565b6123ef826112da565b67ffffffffffffffff81111561240857612407611469565b5b6124128254611ba4565b61241d82828561235d565b5f60209050601f83116001811461244e575f841561243c578287015190505b61244685826123cb565b8655506124ad565b601f19841661245c86611e0f565b5f5b828110156124835784890151825560018201915060208501945060208101905061245e565b868310156124a0578489015161249c601f8916826123af565b8355505b6001600288020188555050505b505050505050565b6124be8161192a565b82525050565b5f6040820190508181035f8301526124db81611c0c565b90506124ea60208301846124b5565b92915050565b5f6124fa82611a3c565b91507f7fffffffffffffffffffffffffffffffffffffffffffffffffffffffffffffff820361252c5761252b611aa3565b5b600182019050919050565b61254081611a3c565b82525050565b5f6040820190508181035f83015261255d81611c0c565b905061256c6020830184612537565b9291505056fea2646970667358221220c082ae9d569c6bcc62bb24bb14503951a7cc7d3b0316d65b51546bc0278307cc64736f6c63430008140033","linkReferences":{}},"methodIdentifiers":{"check(string,string,bool)":"38c14457","invalidate(string)":"0846c0ee","invalidateAll()":"f80c4036","invalidateByKind(string)":"de2130fb","invalidateBySource(string)":"690d9b93","record(string,string,string,string,string,bool)":"433f4f9b","staleSteps()":"036b4a70","status()":"200d2ed2"},"id":45}