{"abi":[{"type":"function","name":"cacheExists","inputs":[{"name":"key","type":"bytes32","internalType":"bytes32"}],"outputs":[{"name":"","type":"bool","internalType":"bool"}],"stateMutability":"view"},{"type":"function","name":"get","inputs":[{"name":"key","type":"bytes32","internalType":"bytes32"}],"outputs":[{"name":"hit","type":"bool","internalType":"bool"},{"name":"value","type":"string","internalType":"string"}],"stateMutability":"view"},{"type":"function","name":"invalidate","inputs":[{"name":"key","type":"bytes32","internalType":"bytes32"}],"outputs":[],"stateMutability":"nonpayable"},{"type":"function","name":"set","inputs":[{"name":"key","type":"bytes32","internalType":"bytes32"},{"name":"value","type":"string","internalType":"string"},{"name":"tags","type":"string","internalType":"string"},{"name":"maxAge","type":"uint256","internalType":"uint256"}],"outputs":[],"stateMutability":"nonpayable"},{"type":"event","name":"CacheInvalidated","inputs":[{"name":"key","type":"bytes32","indexed":true,"internalType":"bytes32"}],"anonymous":false},{"type":"event","name":"CacheSet","inputs":[{"name":"key","type":"bytes32","indexed":true,"internalType":"bytes32"}],"anonymous":false}],"bytecode":{"object":"0x608060405234801561000f575f80fd5b50610be78061001d5f395ff3fe608060405234801561000f575f80fd5b506004361061004a575f3560e01c80634a0f31051461004e57806369ecc3cf1461007e5780638eaa6ac01461009a578063ba6bfb24146100cb575b5f80fd5b6100686004803603810190610063919061053e565b6100e7565b6040516100759190610583565b60405180910390f35b6100986004803603810190610093919061053e565b61010f565b005b6100b460048036038101906100af919061053e565b6101ef565b6040516100c2929190610626565b60405180910390f35b6100e560048036038101906100e091906106e8565b610312565b005b5f805f8381526020019081526020015f206004015f9054906101000a900460ff169050919050565b5f808281526020019081526020015f206004015f9054906101000a900460ff1661016e576040517f08c379a0000000000000000000000000000000000000000000000000000000008152600401610165906107d5565b60405180910390fd5b5f808281526020019081526020015f205f8082015f61018d91906104ab565b600182015f61019c91906104ab565b600282015f9055600382015f9055600482015f6101000a81549060ff02191690555050807ffbf73a88b9ff99eaa3d31a430f62209417d7ae9cfb79e3e1b254551cbc385a5460405160405180910390a250565b5f60605f805f8581526020019081526020015f209050806004015f9054906101000a900460ff16610234575f60405180602001604052805f815250925092505061030d565b5f81600201541180156102595750806002015481600301546102569190610820565b42115b15610278575f60405180602001604052805f815250925092505061030d565b6001815f0180805461028990610880565b80601f01602080910402602001604051908101604052809291908181526020018280546102b590610880565b80156103005780601f106102d757610100808354040283529160200191610300565b820191905f5260205f20905b8154815290600101906020018083116102e357829003601f168201915b5050505050905092509250505b915091565b5f801b8603610356576040517f08c379a000000000000000000000000000000000000000000000000000000000815260040161034d906108fa565b60405180910390fd5b6040518060a0016040528086868080601f0160208091040260200160405190810160405280939291908181526020018383808284375f81840152601f19601f82011690508083019250505050505050815260200184848080601f0160208091040260200160405190810160405280939291908181526020018383808284375f81840152601f19601f820116905080830192505050505050508152602001828152602001428152602001600115158152505f808881526020019081526020015f205f820151815f0190816104299190610ae2565b50602082015181600101908161043f9190610ae2565b5060408201518160020155606082015181600301556080820151816004015f6101000a81548160ff021916908315150217905550905050857f6b37184b768612a64f8b43d6f0ac3e912b1691397c0fe544f1b75992457d7d9760405160405180910390a2505050505050565b5080546104b790610880565b5f825580601f106104c857506104e5565b601f0160209004905f5260205f20908101906104e491906104e8565b5b50565b5b808211156104ff575f815f9055506001016104e9565b5090565b5f80fd5b5f80fd5b5f819050919050565b61051d8161050b565b8114610527575f80fd5b50565b5f8135905061053881610514565b92915050565b5f6020828403121561055357610552610503565b5b5f6105608482850161052a565b91505092915050565b5f8115159050919050565b61057d81610569565b82525050565b5f6020820190506105965f830184610574565b92915050565b5f81519050919050565b5f82825260208201905092915050565b5f5b838110156105d35780820151818401526020810190506105b8565b5f8484015250505050565b5f601f19601f8301169050919050565b5f6105f88261059c565b61060281856105a6565b93506106128185602086016105b6565b61061b816105de565b840191505092915050565b5f6040820190506106395f830185610574565b818103602083015261064b81846105ee565b90509392505050565b5f80fd5b5f80fd5b5f80fd5b5f8083601f84011261067557610674610654565b5b8235905067ffffffffffffffff81111561069257610691610658565b5b6020830191508360018202830111156106ae576106ad61065c565b5b9250929050565b5f819050919050565b6106c7816106b5565b81146106d1575f80fd5b50565b5f813590506106e2816106be565b92915050565b5f805f805f806080878903121561070257610701610503565b5b5f61070f89828a0161052a565b965050602087013567ffffffffffffffff8111156107305761072f610507565b5b61073c89828a01610660565b9550955050604087013567ffffffffffffffff81111561075f5761075e610507565b5b61076b89828a01610660565b9350935050606061077e89828a016106d4565b9150509295509295509295565b7f436163686520656e747279206e6f7420666f756e6400000000000000000000005f82015250565b5f6107bf6015836105a6565b91506107ca8261078b565b602082019050919050565b5f6020820190508181035f8301526107ec816107b3565b9050919050565b7f4e487b71000000000000000000000000000000000000000000000000000000005f52601160045260245ffd5b5f61082a826106b5565b9150610835836106b5565b925082820190508082111561084d5761084c6107f3565b5b92915050565b7f4e487b71000000000000000000000000000000000000000000000000000000005f52602260045260245ffd5b5f600282049050600182168061089757607f821691505b6020821081036108aa576108a9610853565b5b50919050565b7f4361636865206b65792063616e6e6f74206265207a65726f00000000000000005f82015250565b5f6108e46018836105a6565b91506108ef826108b0565b602082019050919050565b5f6020820190508181035f830152610911816108d8565b9050919050565b7f4e487b71000000000000000000000000000000000000000000000000000000005f52604160045260245ffd5b5f819050815f5260205f209050919050565b5f6020601f8301049050919050565b5f82821b905092915050565b5f600883026109a17fffffffffffffffffffffffffffffffffffffffffffffffffffffffffffffffff82610966565b6109ab8683610966565b95508019841693508086168417925050509392505050565b5f819050919050565b5f6109e66109e16109dc846106b5565b6109c3565b6106b5565b9050919050565b5f819050919050565b6109ff836109cc565b610a13610a0b826109ed565b848454610972565b825550505050565b5f90565b610a27610a1b565b610a328184846109f6565b505050565b5b81811015610a5557610a4a5f82610a1f565b600181019050610a38565b5050565b601f821115610a9a57610a6b81610945565b610a7484610957565b81016020851015610a83578190505b610a97610a8f85610957565b830182610a37565b50505b505050565b5f82821c905092915050565b5f610aba5f1984600802610a9f565b1980831691505092915050565b5f610ad28383610aab565b9150826002028217905092915050565b610aeb8261059c565b67ffffffffffffffff811115610b0457610b03610918565b5b610b0e8254610880565b610b19828285610a59565b5f60209050601f831160018114610b4a575f8415610b38578287015190505b610b428582610ac7565b865550610ba9565b601f198416610b5886610945565b5f5b82811015610b7f57848901518255600182019150602085019450602081019050610b5a565b86831015610b9c5784890151610b98601f891682610aab565b8355505b6001600288020188555050505b50505050505056fea2646970667358221220c53718526520b0cdc8e314f0f682a0dd7430e28aa7cb8411bbc47f15143678a764736f6c63430008140033","linkReferences":{}},"methodIdentifiers":{"cacheExists(bytes32)":"4a0f3105","get(bytes32)":"8eaa6ac0","invalidate(bytes32)":"69ecc3cf","set(bytes32,string,string,uint256)":"ba6bfb24"},"id":47}