{"abi":[{"type":"function","name":"clear","inputs":[],"outputs":[{"name":"cleared","type":"int256","internalType":"int256"}],"stateMutability":"nonpayable"},{"type":"function","name":"removeByFile","inputs":[{"name":"path","type":"string","internalType":"string"}],"outputs":[{"name":"removed","type":"int256","internalType":"int256"}],"stateMutability":"nonpayable"},{"type":"function","name":"stats","inputs":[],"outputs":[{"name":"conceptCount","type":"int256","internalType":"int256"},{"name":"syncCount","type":"int256","internalType":"int256"},{"name":"symbolCount","type":"int256","internalType":"int256"},{"name":"fileCount","type":"int256","internalType":"int256"},{"name":"lastUpdated","type":"uint256","internalType":"uint256"}],"stateMutability":"view"},{"type":"function","name":"upsertConcept","inputs":[{"name":"name","type":"string","internalType":"string"},{"name":"purpose","type":"string","internalType":"string"},{"name":"actions","type":"string[]","internalType":"string[]"},{"name":"stateFields","type":"string[]","internalType":"string[]"},{"name":"file","type":"string","internalType":"string"}],"outputs":[{"name":"indexId","type":"bytes32","internalType":"bytes32"}],"stateMutability":"nonpayable"},{"type":"function","name":"upsertFile","inputs":[{"name":"path","type":"string","internalType":"string"},{"name":"language","type":"string","internalType":"string"},{"name":"role","type":"string","internalType":"string"},{"name":"definitions","type":"string[]","internalType":"string[]"}],"outputs":[{"name":"indexId","type":"bytes32","internalType":"bytes32"}],"stateMutability":"nonpayable"},{"type":"function","name":"upsertSymbol","inputs":[{"name":"name","type":"string","internalType":"string"},{"name":"kind","type":"string","internalType":"string"},{"name":"file","type":"string","internalType":"string"},{"name":"line","type":"int256","internalType":"int256"},{"name":"scope","type":"string","internalType":"string"}],"outputs":[{"name":"indexId","type":"bytes32","internalType":"bytes32"}],"stateMutability":"nonpayable"},{"type":"function","name":"upsertSync","inputs":[{"name":"name","type":"string","internalType":"string"},{"name":"annotation","type":"string","internalType":"string"},{"name":"triggers","type":"string[]","internalType":"string[]"},{"name":"effects","type":"string[]","internalType":"string[]"},{"name":"file","type":"string","internalType":"string"}],"outputs":[{"name":"indexId","type":"bytes32","internalType":"bytes32"}],"stateMutability":"nonpayable"},{"type":"event","name":"ClearCompleted","inputs":[{"name":"variant","type":"string","indexed":false,"internalType":"string"},{"name":"cleared","type":"int256","indexed":false,"internalType":"int256"}],"anonymous":false},{"type":"event","name":"RemoveByFileCompleted","inputs":[{"name":"variant","type":"string","indexed":false,"internalType":"string"},{"name":"removed","type":"int256","indexed":false,"internalType":"int256"}],"anonymous":false},{"type":"event","name":"StatsCompleted","inputs":[{"name":"variant","type":"string","indexed":false,"internalType":"string"},{"name":"conceptCount","type":"int256","indexed":false,"internalType":"int256"},{"name":"syncCount","type":"int256","indexed":false,"internalType":"int256"},{"name":"symbolCount","type":"int256","indexed":false,"internalType":"int256"},{"name":"fileCount","type":"int256","indexed":false,"internalType":"int256"},{"name":"lastUpdated","type":"uint256","indexed":false,"internalType":"uint256"}],"anonymous":false},{"type":"event","name":"UpsertConceptCompleted","inputs":[{"name":"variant","type":"string","indexed":false,"internalType":"string"},{"name":"index","type":"bytes32","indexed":false,"internalType":"bytes32"}],"anonymous":false},{"type":"event","name":"UpsertFileCompleted","inputs":[{"name":"variant","type":"string","indexed":false,"internalType":"string"},{"name":"index","type":"bytes32","indexed":false,"internalType":"bytes32"}],"anonymous":false},{"type":"event","name":"UpsertSymbolCompleted","inputs":[{"name":"variant","type":"string","indexed":false,"internalType":"string"},{"name":"index","type":"bytes32","indexed":false,"internalType":"bytes32"}],"anonymous":false},{"type":"event","name":"UpsertSyncCompleted","inputs":[{"name":"variant","type":"string","indexed":false,"internalType":"string"},{"name":"index","type":"bytes32","indexed":false,"internalType":"bytes32"}],"anonymous":false}],"bytecode":{"object":"0x608060405234801561000f575f80fd5b506123708061001d5f395ff3fe608060405234801561000f575f80fd5b506004361061007b575f3560e01c80637fe1683f116100595780637fe1683f146100fd578063946eff241461012d578063998d92c81461015d578063d80528ae1461018d5761007b565b80631889f9161461007f57806352efea6e146100af578063673b108a146100cd575b5f80fd5b610099600480360381019061009491906116d2565b6101af565b6040516100a691906117be565b60405180910390f35b6100b7610368565b6040516100c491906117ef565b60405180910390f35b6100e760048036038101906100e29190611808565b6106be565b6040516100f491906117be565b60405180910390f35b61011760048036038101906101129190611935565b61089b565b60405161012491906117be565b60405180910390f35b61014760048036038101906101429190611808565b610a62565b60405161015491906117be565b60405180910390f35b61017760048036038101906101729190611a1c565b610c3d565b60405161018491906117ef565b60405180910390f35b610195611183565b6040516101a6959493929190611a7b565b60405180910390f35b5f808551116101f3576040517f08c379a00000000000000000000000000000000000000000000000000000000081526004016101ea90611b26565b60405180910390fd5b846040516020016102049190611bfa565b60405160208183030381529060405280519060200120905060065f8281526020019081526020015f206004015f9054906101000a900460ff1661026857600781908060018154018082558091505060019003905f5260205f20015f90919091909150555b6040518060a001604052808681526020018581526020018481526020018381526020016001151581525060065f8381526020019081526020015f205f820151815f0190816102b69190611e15565b5060208201518160010190816102cc9190611e15565b5060408201518160020190816102e29190611e15565b5060608201518160030190805190602001906102ff92919061137a565b506080820151816004015f6101000a81548160ff021916908315150217905550905050426008819055507f573cbce5772235748a8659aaf2d51383cbb690bc08441cf912e6566bcca9868f816040516103589190611f2e565b60405180910390a1949350505050565b5f60078054905060058054905060038054905060018054905061038b9190611f87565b6103959190611f87565b61039f9190611f87565b90505f5b60018054905081101561044f575f80600183815481106103c6576103c5611fba565b5b905f5260205f20015481526020019081526020015f205f8082015f6103eb91906113d1565b600182015f6103fa91906113d1565b600282015f610409919061140e565b600382015f610418919061140e565b600482015f61042791906113d1565b600582015f6101000a81549060ff02191690555050808061044790611fe7565b9150506103a3565b5060015f61045d919061142c565b5f5b60038054905081101561050c5760025f6003838154811061048357610482611fba565b5b905f5260205f20015481526020019081526020015f205f8082015f6104a891906113d1565b600182015f6104b791906113d1565b600282015f6104c6919061140e565b600382015f6104d5919061140e565b600482015f6104e491906113d1565b600582015f6101000a81549060ff02191690555050808061050490611fe7565b91505061045f565b5060035f61051a919061142c565b5f5b6005805490508110156105c15760045f600583815481106105405761053f611fba565b5b905f5260205f20015481526020019081526020015f205f8082015f61056591906113d1565b600182015f61057491906113d1565b600282015f61058391906113d1565b600382015f9055600482015f61059991906113d1565b600582015f6101000a81549060ff0219169055505080806105b990611fe7565b91505061051c565b5060055f6105cf919061142c565b5f5b60078054905081101561066f5760065f600783815481106105f5576105f4611fba565b5b905f5260205f20015481526020019081526020015f205f8082015f61061a91906113d1565b600182015f61062991906113d1565b600282015f61063891906113d1565b600382015f610647919061140e565b600482015f6101000a81549060ff02191690555050808061066790611fe7565b9150506105d1565b5060075f61067d919061142c565b426008819055507fb3e829c0f04940e1d6fa0595276b5a29f7eb714d71672dae3956598211d37b0b816040516106b3919061202e565b60405180910390a190565b5f80865111610702576040517f08c379a00000000000000000000000000000000000000000000000000000000081526004016106f9906120a4565b60405180910390fd5b85604051602001610713919061210c565b60405160208183030381529060405280519060200120905060025f8281526020019081526020015f206005015f9054906101000a900460ff1661077757600381908060018154018082558091505060019003905f5260205f20015f90919091909150555b6040518060c001604052808781526020018681526020018581526020018481526020018381526020016001151581525060025f8381526020019081526020015f205f820151815f0190816107cb9190611e15565b5060208201518160010190816107e19190611e15565b5060408201518160020190805190602001906107fe92919061137a565b50606082015181600301908051906020019061081b92919061137a565b5060808201518160040190816108319190611e15565b5060a0820151816005015f6101000a81548160ff021916908315150217905550905050426008819055507fdf3ebbe2286dcd55d7172e3cd45d3a9f522f45c3b4742c828301c1577d93d7418160405161088a9190611f2e565b60405180910390a195945050505050565b5f808651116108df576040517f08c379a00000000000000000000000000000000000000000000000000000000081526004016108d6906120a4565b60405180910390fd5b8584846040516020016108f493929190612197565b60405160208183030381529060405280519060200120905060045f8281526020019081526020015f206005015f9054906101000a900460ff1661095857600581908060018154018082558091505060019003905f5260205f20015f90919091909150555b6040518060c001604052808781526020018681526020018581526020018481526020018381526020016001151581525060045f8381526020019081526020015f205f820151815f0190816109ac9190611e15565b5060208201518160010190816109c29190611e15565b5060408201518160020190816109d89190611e15565b506060820151816003015560808201518160040190816109f89190611e15565b5060a0820151816005015f6101000a81548160ff021916908315150217905550905050426008819055507f36b2f072f022443b52aa5cd28ec6418f095a4ae5fc9608970716132645ec0b1481604051610a519190611f2e565b60405180910390a195945050505050565b5f80865111610aa6576040517f08c379a0000000000000000000000000000000000000000000000000000000008152600401610a9d906120a4565b60405180910390fd5b85604051602001610ab79190612220565b6040516020818303038152906040528051906020012090505f808281526020019081526020015f206005015f9054906101000a900460ff16610b1a57600181908060018154018082558091505060019003905f5260205f20015f90919091909150555b6040518060c00160405280878152602001868152602001858152602001848152602001838152602001600115158152505f808381526020019081526020015f205f820151815f019081610b6d9190611e15565b506020820151816001019081610b839190611e15565b506040820151816002019080519060200190610ba092919061137a565b506060820151816003019080519060200190610bbd92919061137a565b506080820151816004019081610bd39190611e15565b5060a0820151816005015f6101000a81548160ff021916908315150217905550905050426008819055507ff74f329dfd251d63643b40668676f4558a3762e230d97cec29676f459c45b83b81604051610c2c9190611f2e565b60405180910390a195945050505050565b5f80825111610c81576040517f08c379a0000000000000000000000000000000000000000000000000000000008152600401610c7890611b26565b60405180910390fd5b5f90505f5b600180549050811015610dd7575f8060018381548110610ca957610ca8611fba565b5b905f5260205f20015481526020019081526020015f206005015f9054906101000a900460ff168015610d24575082805190602001205f8060018481548110610cf457610cf3611fba565b5b905f5260205f20015481526020019081526020015f20600401604051610d1a91906122dd565b6040518091039020145b15610dc4575f8060018381548110610d3f57610d3e611fba565b5b905f5260205f20015481526020019081526020015f205f8082015f610d6491906113d1565b600182015f610d7391906113d1565b600282015f610d82919061140e565b600382015f610d91919061140e565b600482015f610da091906113d1565b600582015f6101000a81549060ff021916905550508180610dc0906122f3565b9250505b8080610dcf90611fe7565b915050610c86565b505f5b600380549050811015610f2e5760025f60038381548110610dfe57610dfd611fba565b5b905f5260205f20015481526020019081526020015f206005015f9054906101000a900460ff168015610e7a5750828051906020012060025f60038481548110610e4a57610e49611fba565b5b905f5260205f20015481526020019081526020015f20600401604051610e7091906122dd565b6040518091039020145b15610f1b5760025f60038381548110610e9657610e95611fba565b5b905f5260205f20015481526020019081526020015f205f8082015f610ebb91906113d1565b600182015f610eca91906113d1565b600282015f610ed9919061140e565b600382015f610ee8919061140e565b600482015f610ef791906113d1565b600582015f6101000a81549060ff021916905550508180610f17906122f3565b9250505b8080610f2690611fe7565b915050610dda565b505f5b60058054905081101561107d5760045f60058381548110610f5557610f54611fba565b5b905f5260205f20015481526020019081526020015f206005015f9054906101000a900460ff168015610fd15750828051906020012060045f60058481548110610fa157610fa0611fba565b5b905f5260205f20015481526020019081526020015f20600201604051610fc791906122dd565b6040518091039020145b1561106a5760045f60058381548110610fed57610fec611fba565b5b905f5260205f20015481526020019081526020015f205f8082015f61101291906113d1565b600182015f61102191906113d1565b600282015f61103091906113d1565b600382015f9055600482015f61104691906113d1565b600582015f6101000a81549060ff021916905550508180611066906122f3565b9250505b808061107590611fe7565b915050610f31565b505f826040516020016110909190611bfa565b60405160208183030381529060405280519060200120905060065f8281526020019081526020015f206004015f9054906101000a900460ff161561113f5760065f8281526020019081526020015f205f8082015f6110ee91906113d1565b600182015f6110fd91906113d1565b600282015f61110c91906113d1565b600382015f61111b919061140e565b600482015f6101000a81549060ff02191690555050818061113b906122f3565b9250505b426008819055507fd7adb91c4355479c488944ac2722ef3e11e4314e10eddd69a85dc98bf378a7b182604051611175919061202e565b60405180910390a150919050565b5f805f805f805f90505f5b6001805490508110156111fe575f80600183815481106111b1576111b0611fba565b5b905f5260205f20015481526020019081526020015f206005015f9054906101000a900460ff16156111eb5781806111e7906122f3565b9250505b80806111f690611fe7565b91505061118e565b505f805b6003805490508110156112735760025f6003838154811061122657611225611fba565b5b905f5260205f20015481526020019081526020015f206005015f9054906101000a900460ff161561126057818061125c906122f3565b9250505b808061126b90611fe7565b915050611202565b505f805b6005805490508110156112e85760045f6005838154811061129b5761129a611fba565b5b905f5260205f20015481526020019081526020015f206005015f9054906101000a900460ff16156112d55781806112d1906122f3565b9250505b80806112e090611fe7565b915050611277565b505f805b60078054905081101561135d5760065f600783815481106113105761130f611fba565b5b905f5260205f20015481526020019081526020015f206004015f9054906101000a900460ff161561134a578180611346906122f3565b9250505b808061135590611fe7565b9150506112ec565b508383838360085498509850985098509850505050509091929394565b828054828255905f5260205f209081019282156113c0579160200282015b828111156113bf5782518290816113af9190611e15565b5091602001919060010190611398565b5b5090506113cd919061144a565b5090565b5080546113dd90611c48565b5f825580601f106113ee575061140b565b601f0160209004905f5260205f209081019061140a919061146d565b5b50565b5080545f8255905f5260205f2090810190611429919061144a565b50565b5080545f8255905f5260205f20908101906114479190611488565b50565b5b80821115611469575f818161146091906113d1565b5060010161144b565b5090565b5b80821115611484575f815f90555060010161146e565b5090565b5b8082111561149f575f815f905550600101611489565b5090565b5f604051905090565b5f80fd5b5f80fd5b5f80fd5b5f80fd5b5f601f19601f8301169050919050565b7f4e487b71000000000000000000000000000000000000000000000000000000005f52604160045260245ffd5b611502826114bc565b810181811067ffffffffffffffff82111715611521576115206114cc565b5b80604052505050565b5f6115336114a3565b905061153f82826114f9565b919050565b5f67ffffffffffffffff82111561155e5761155d6114cc565b5b611567826114bc565b9050602081019050919050565b828183375f83830152505050565b5f61159461158f84611544565b61152a565b9050828152602081018484840111156115b0576115af6114b8565b5b6115bb848285611574565b509392505050565b5f82601f8301126115d7576115d66114b4565b5b81356115e7848260208601611582565b91505092915050565b5f67ffffffffffffffff82111561160a576116096114cc565b5b602082029050602081019050919050565b5f80fd5b5f61163161162c846115f0565b61152a565b905080838252602082019050602084028301858111156116545761165361161b565b5b835b8181101561169b57803567ffffffffffffffff811115611679576116786114b4565b5b80860161168689826115c3565b85526020850194505050602081019050611656565b5050509392505050565b5f82601f8301126116b9576116b86114b4565b5b81356116c984826020860161161f565b91505092915050565b5f805f80608085870312156116ea576116e96114ac565b5b5f85013567ffffffffffffffff811115611707576117066114b0565b5b611713878288016115c3565b945050602085013567ffffffffffffffff811115611734576117336114b0565b5b611740878288016115c3565b935050604085013567ffffffffffffffff811115611761576117606114b0565b5b61176d878288016115c3565b925050606085013567ffffffffffffffff81111561178e5761178d6114b0565b5b61179a878288016116a5565b91505092959194509250565b5f819050919050565b6117b8816117a6565b82525050565b5f6020820190506117d15f8301846117af565b92915050565b5f819050919050565b6117e9816117d7565b82525050565b5f6020820190506118025f8301846117e0565b92915050565b5f805f805f60a08688031215611821576118206114ac565b5b5f86013567ffffffffffffffff81111561183e5761183d6114b0565b5b61184a888289016115c3565b955050602086013567ffffffffffffffff81111561186b5761186a6114b0565b5b611877888289016115c3565b945050604086013567ffffffffffffffff811115611898576118976114b0565b5b6118a4888289016116a5565b935050606086013567ffffffffffffffff8111156118c5576118c46114b0565b5b6118d1888289016116a5565b925050608086013567ffffffffffffffff8111156118f2576118f16114b0565b5b6118fe888289016115c3565b9150509295509295909350565b611914816117d7565b811461191e575f80fd5b50565b5f8135905061192f8161190b565b92915050565b5f805f805f60a0868803121561194e5761194d6114ac565b5b5f86013567ffffffffffffffff81111561196b5761196a6114b0565b5b611977888289016115c3565b955050602086013567ffffffffffffffff811115611998576119976114b0565b5b6119a4888289016115c3565b945050604086013567ffffffffffffffff8111156119c5576119c46114b0565b5b6119d1888289016115c3565b93505060606119e288828901611921565b925050608086013567ffffffffffffffff811115611a0357611a026114b0565b5b611a0f888289016115c3565b9150509295509295909350565b5f60208284031215611a3157611a306114ac565b5b5f82013567ffffffffffffffff811115611a4e57611a4d6114b0565b5b611a5a848285016115c3565b91505092915050565b5f819050919050565b611a7581611a63565b82525050565b5f60a082019050611a8e5f8301886117e0565b611a9b60208301876117e0565b611aa860408301866117e0565b611ab560608301856117e0565b611ac26080830184611a6c565b9695505050505050565b5f82825260208201905092915050565b7f506174682063616e6e6f7420626520656d7074790000000000000000000000005f82015250565b5f611b10601483611acc565b9150611b1b82611adc565b602082019050919050565b5f6020820190508181035f830152611b3d81611b04565b9050919050565b5f81905092915050565b7f66696c65000000000000000000000000000000000000000000000000000000005f82015250565b5f611b82600483611b44565b9150611b8d82611b4e565b600482019050919050565b5f81519050919050565b5f5b83811015611bbf578082015181840152602081019050611ba4565b5f8484015250505050565b5f611bd482611b98565b611bde8185611b44565b9350611bee818560208601611ba2565b80840191505092915050565b5f611c0482611b76565b9150611c108284611bca565b915081905092915050565b7f4e487b71000000000000000000000000000000000000000000000000000000005f52602260045260245ffd5b5f6002820490506001821680611c5f57607f821691505b602082108103611c7257611c71611c1b565b5b50919050565b5f819050815f5260205f209050919050565b5f6020601f8301049050919050565b5f82821b905092915050565b5f60088302611cd47fffffffffffffffffffffffffffffffffffffffffffffffffffffffffffffffff82611c99565b611cde8683611c99565b95508019841693508086168417925050509392505050565b5f819050919050565b5f611d19611d14611d0f84611a63565b611cf6565b611a63565b9050919050565b5f819050919050565b611d3283611cff565b611d46611d3e82611d20565b848454611ca5565b825550505050565b5f90565b611d5a611d4e565b611d65818484611d29565b505050565b5b81811015611d8857611d7d5f82611d52565b600181019050611d6b565b5050565b601f821115611dcd57611d9e81611c78565b611da784611c8a565b81016020851015611db6578190505b611dca611dc285611c8a565b830182611d6a565b50505b505050565b5f82821c905092915050565b5f611ded5f1984600802611dd2565b1980831691505092915050565b5f611e058383611dde565b9150826002028217905092915050565b611e1e82611b98565b67ffffffffffffffff811115611e3757611e366114cc565b5b611e418254611c48565b611e4c828285611d8c565b5f60209050601f831160018114611e7d575f8415611e6b578287015190505b611e758582611dfa565b865550611edc565b601f198416611e8b86611c78565b5f5b82811015611eb257848901518255600182019150602085019450602081019050611e8d565b86831015611ecf5784890151611ecb601f891682611dde565b8355505b6001600288020188555050505b505050505050565b7f6f6b0000000000000000000000000000000000000000000000000000000000005f82015250565b5f611f18600283611acc565b9150611f2382611ee4565b602082019050919050565b5f6040820190508181035f830152611f4581611f0c565b9050611f5460208301846117af565b92915050565b7f4e487b71000000000000000000000000000000000000000000000000000000005f52601160045260245ffd5b5f611f9182611a63565b9150611f9c83611a63565b9250828201905080821115611fb457611fb3611f5a565b5b92915050565b7f4e487b71000000000000000000000000000000000000000000000000000000005f52603260045260245ffd5b5f611ff182611a63565b91507fffffffffffffffffffffffffffffffffffffffffffffffffffffffffffffffff820361202357612022611f5a565b5b600182019050919050565b5f6040820190508181035f83015261204581611f0c565b905061205460208301846117e0565b92915050565b7f4e616d652063616e6e6f7420626520656d7074790000000000000000000000005f82015250565b5f61208e601483611acc565b91506120998261205a565b602082019050919050565b5f6020820190508181035f8301526120bb81612082565b9050919050565b7f73796e63000000000000000000000000000000000000000000000000000000005f82015250565b5f6120f6600483611b44565b9150612101826120c2565b600482019050919050565b5f612116826120ea565b91506121228284611bca565b915081905092915050565b7f73796d626f6c00000000000000000000000000000000000000000000000000005f82015250565b5f612161600683611b44565b915061216c8261212d565b600682019050919050565b5f819050919050565b61219161218c826117d7565b612177565b82525050565b5f6121a182612155565b91506121ad8286611bca565b91506121b98285611bca565b91506121c58284612180565b602082019150819050949350505050565b7f636f6e63657074000000000000000000000000000000000000000000000000005f82015250565b5f61220a600783611b44565b9150612215826121d6565b600782019050919050565b5f61222a826121fe565b91506122368284611bca565b915081905092915050565b5f81905092915050565b5f819050815f5260205f209050919050565b5f815461226981611c48565b6122738186612241565b9450600182165f811461228d57600181146122a2576122d4565b60ff19831686528115158202860193506122d4565b6122ab8561224b565b5f5b838110156122cc578154818901526001820191506020810190506122ad565b838801955050505b50505092915050565b5f6122e8828461225d565b915081905092915050565b5f6122fd826117d7565b91507f7fffffffffffffffffffffffffffffffffffffffffffffffffffffffffffffff820361232f5761232e611f5a565b5b60018201905091905056fea2646970667358221220a82d54b6d28f51fc5740de0256deaa0883c5f5be80c5a49399ce094cfb3770c864736f6c63430008140033","linkReferences":{}},"methodIdentifiers":{"clear()":"52efea6e","removeByFile(string)":"998d92c8","stats()":"d80528ae","upsertConcept(string,string,string[],string[],string)":"946eff24","upsertFile(string,string,string,string[])":"1889f916","upsertSymbol(string,string,string,int256,string)":"7fe1683f","upsertSync(string,string,string[],string[],string)":"673b108a"},"id":234}