{"abi":[{"type":"function","name":"addPeer","inputs":[{"name":"peerId","type":"bytes32","internalType":"bytes32"}],"outputs":[],"stateMutability":"nonpayable"},{"type":"function","name":"fork","inputs":[],"outputs":[{"name":"newReplicaId","type":"bytes32","internalType":"bytes32"}],"stateMutability":"nonpayable"},{"type":"function","name":"getPeers","inputs":[],"outputs":[{"name":"","type":"bytes32[]","internalType":"bytes32[]"}],"stateMutability":"view"},{"type":"function","name":"getPendingOpsCount","inputs":[],"outputs":[{"name":"","type":"uint256","internalType":"uint256"}],"stateMutability":"view"},{"type":"function","name":"getReplicaId","inputs":[],"outputs":[{"name":"","type":"bytes32","internalType":"bytes32"}],"stateMutability":"view"},{"type":"function","name":"getState","inputs":[],"outputs":[{"name":"state","type":"bytes","internalType":"bytes"},{"name":"clock","type":"uint256","internalType":"uint256"}],"stateMutability":"view"},{"type":"function","name":"initialize","inputs":[{"name":"replicaId","type":"bytes32","internalType":"bytes32"},{"name":"initialState","type":"bytes","internalType":"bytes"}],"outputs":[],"stateMutability":"nonpayable"},{"type":"function","name":"isPeer","inputs":[{"name":"peerId","type":"bytes32","internalType":"bytes32"}],"outputs":[{"name":"","type":"bool","internalType":"bool"}],"stateMutability":"view"},{"type":"function","name":"localUpdate","inputs":[{"name":"op","type":"bytes","internalType":"bytes"}],"outputs":[{"name":"newState","type":"bytes","internalType":"bytes"}],"stateMutability":"nonpayable"},{"type":"function","name":"receiveRemote","inputs":[{"name":"op","type":"bytes","internalType":"bytes"},{"name":"fromReplica","type":"bytes32","internalType":"bytes32"}],"outputs":[{"name":"newState","type":"bytes","internalType":"bytes"}],"stateMutability":"nonpayable"},{"type":"function","name":"sync","inputs":[{"name":"peer","type":"bytes32","internalType":"bytes32"}],"outputs":[],"stateMutability":"nonpayable"},{"type":"event","name":"Conflict","inputs":[{"name":"fromReplica","type":"bytes32","indexed":true,"internalType":"bytes32"},{"name":"reason","type":"string","indexed":false,"internalType":"string"}],"anonymous":false},{"type":"event","name":"Forked","inputs":[{"name":"parentReplicaId","type":"bytes32","indexed":true,"internalType":"bytes32"},{"name":"newReplicaId","type":"bytes32","indexed":true,"internalType":"bytes32"}],"anonymous":false},{"type":"event","name":"LocalUpdated","inputs":[{"name":"replicaId","type":"bytes32","indexed":true,"internalType":"bytes32"},{"name":"clock","type":"uint256","indexed":false,"internalType":"uint256"}],"anonymous":false},{"type":"event","name":"PeerAdded","inputs":[{"name":"peerId","type":"bytes32","indexed":true,"internalType":"bytes32"}],"anonymous":false},{"type":"event","name":"RemoteReceived","inputs":[{"name":"fromReplica","type":"bytes32","indexed":true,"internalType":"bytes32"},{"name":"clock","type":"uint256","indexed":false,"internalType":"uint256"}],"anonymous":false},{"type":"event","name":"SyncRequested","inputs":[{"name":"peer","type":"bytes32","indexed":true,"internalType":"bytes32"}],"anonymous":false},{"type":"event","name":"UnknownReplica","inputs":[{"name":"fromReplica","type":"bytes32","indexed":true,"internalType":"bytes32"}],"anonymous":false}],"bytecode":{"object":"0x608060405234801561000f575f80fd5b506118538061001d5f395ff3fe608060405234801561000f575f80fd5b50600436106100a7575f3560e01c80637bf6530c1161006f5780637bf6530c1461016457806389d4439514610194578063ae4b2551146101b2578063c05f89e9146101ce578063c3bf41a8146101ea578063cd55956114610208576100a7565b80631865c57d146100ab5780633c47875b146100ca5780634591c060146100fa57806366e7990d146101185780636f63636914610134575b5f80fd5b6100b3610226565b6040516100c1929190610c8d565b60405180910390f35b6100e460048036038101906100df9190610d24565b61030d565b6040516100f19190610d6f565b60405180910390f35b6101026104d1565b60405161010f9190610da7565b60405180910390f35b610132600480360381019061012d9190610dea565b61059b565b005b61014e60048036038101906101499190610e47565b61066c565b60405161015b9190610d6f565b60405180910390f35b61017e60048036038101906101799190610ea4565b6108c2565b60405161018b9190610ee9565b60405180910390f35b61019c6108e8565b6040516101a99190610f02565b60405180910390f35b6101cc60048036038101906101c79190610ea4565b6108f4565b005b6101e860048036038101906101e39190610ea4565b6109cf565b005b6101f2610b3e565b6040516101ff9190610da7565b60405180910390f35b610210610b95565b60405161021d9190610fd2565b60405180910390f35b60605f60075f9054906101000a900460ff16610277576040517f08c379a000000000000000000000000000000000000000000000000000000000815260040161026e9061104c565b60405180910390fd5b5f60055481805461028790611097565b80601f01602080910402602001604051908101604052809291908181526020018280546102b390611097565b80156102fe5780601f106102d5576101008083540402835291602001916102fe565b820191905f5260205f20905b8154815290600101906020018083116102e157829003601f168201915b50505050509150915091509091565b606060075f9054906101000a900460ff1661035d576040517f08c379a00000000000000000000000000000000000000000000000000000000081526004016103549061104c565b60405180910390fd5b5f83839050116103a2576040517f08c379a000000000000000000000000000000000000000000000000000000000815260040161039990611111565b60405180910390fd5b60055f8154809291906103b49061115c565b919050555082825f91826103c9929190611377565b506001838390918060018154018082558091505060019003905f5260205f20015f909192909192909192909192509182610404929190611377565b506004547f46e600ccc4f8aa1e0a2162681ddf3d42bf28d270718b4edf834c1a0807dfb8e26005546040516104399190610f02565b60405180910390a25f805461044d90611097565b80601f016020809104026020016040519081016040528092919081815260200182805461047990611097565b80156104c45780601f1061049b576101008083540402835291602001916104c4565b820191905f5260205f20905b8154815290600101906020018083116104a757829003601f168201915b5050505050905092915050565b5f60075f9054906101000a900460ff16610520576040517f08c379a00000000000000000000000000000000000000000000000000000000081526004016105179061104c565b60405180910390fd5b60065f8154809291906105329061115c565b919050555060045460065442604051602001610550939291906114d8565b604051602081830303815290604052805190602001209050806004547f74f4dd83ff10b001c63b1c6d4bc21d991c6a8ec51c5344043e73d3b717defd1960405160405180910390a390565b60075f9054906101000a900460ff16156105ea576040517f08c379a00000000000000000000000000000000000000000000000000000000081526004016105e190611569565b60405180910390fd5b5f801b830361062e576040517f08c379a0000000000000000000000000000000000000000000000000000000008152600401610625906115d1565b60405180910390fd5b8260048190555081815f9182610645929190611377565b505f600581905550600160075f6101000a81548160ff021916908315150217905550505050565b606060075f9054906101000a900460ff166106bc576040517f08c379a00000000000000000000000000000000000000000000000000000000081526004016106b39061104c565b60405180910390fd5b5f8484905011610701576040517f08c379a00000000000000000000000000000000000000000000000000000000081526004016106f890611111565b60405180910390fd5b60025f8381526020019081526020015f205f9054906101000a900460ff1661078b57817f6fb27be0bbcaa3a9c392388d8fbc6d77a0f1dee19f66e90495a7f44998354b1560405160405180910390a26040517f08c379a000000000000000000000000000000000000000000000000000000000815260040161078290611639565b60405180910390fd5b5f60018054905011156107cf57817f303192defa4cfdeb3706d9756fdb4ec00cfd30d4221428a0a15c64203b6cd4d26040516107c6906116c7565b60405180910390a25b60055f8154809291906107e19061115c565b919050555083835f91826107f6929190611377565b50817fbe42d920c1fa4841a9b2f1aee12f50b41b7fdd68ef29d2541970c67bc22771c76005546040516108299190610f02565b60405180910390a25f805461083d90611097565b80601f016020809104026020016040519081016040528092919081815260200182805461086990611097565b80156108b45780601f1061088b576101008083540402835291602001916108b4565b820191905f5260205f20905b81548152906001019060200180831161089757829003601f168201915b505050505090509392505050565b5f60025f8381526020019081526020015f205f9054906101000a900460ff169050919050565b5f600180549050905090565b60075f9054906101000a900460ff16610942576040517f08c379a00000000000000000000000000000000000000000000000000000000081526004016109399061104c565b60405180910390fd5b60025f8281526020019081526020015f205f9054906101000a900460ff1661099f576040517f08c379a00000000000000000000000000000000000000000000000000000000081526004016109969061172f565b60405180910390fd5b807fbc7802dd01d060a46b393cebd91b8a39c249a47db8f922fd5f42099dadd4996c60405160405180910390a250565b60075f9054906101000a900460ff16610a1d576040517f08c379a0000000000000000000000000000000000000000000000000000000008152600401610a149061104c565b60405180910390fd5b5f801b8103610a61576040517f08c379a0000000000000000000000000000000000000000000000000000000008152600401610a5890611797565b60405180910390fd5b60025f8281526020019081526020015f205f9054906101000a900460ff1615610abf576040517f08c379a0000000000000000000000000000000000000000000000000000000008152600401610ab6906117ff565b60405180910390fd5b600160025f8381526020019081526020015f205f6101000a81548160ff021916908315150217905550600381908060018154018082558091505060019003905f5260205f20015f9091909190915055807fbe2811be17bc51074a7fcd18a752538e8ab1279c13394d2da42fac4d1daba43b60405160405180910390a250565b5f60075f9054906101000a900460ff16610b8d576040517f08c379a0000000000000000000000000000000000000000000000000000000008152600401610b849061104c565b60405180910390fd5b600454905090565b60606003805480602002602001604051908101604052809291908181526020018280548015610be157602002820191905f5260205f20905b815481526020019060010190808311610bcd575b5050505050905090565b5f81519050919050565b5f82825260208201905092915050565b5f5b83811015610c22578082015181840152602081019050610c07565b5f8484015250505050565b5f601f19601f8301169050919050565b5f610c4782610beb565b610c518185610bf5565b9350610c61818560208601610c05565b610c6a81610c2d565b840191505092915050565b5f819050919050565b610c8781610c75565b82525050565b5f6040820190508181035f830152610ca58185610c3d565b9050610cb46020830184610c7e565b9392505050565b5f80fd5b5f80fd5b5f80fd5b5f80fd5b5f80fd5b5f8083601f840112610ce457610ce3610cc3565b5b8235905067ffffffffffffffff811115610d0157610d00610cc7565b5b602083019150836001820283011115610d1d57610d1c610ccb565b5b9250929050565b5f8060208385031215610d3a57610d39610cbb565b5b5f83013567ffffffffffffffff811115610d5757610d56610cbf565b5b610d6385828601610ccf565b92509250509250929050565b5f6020820190508181035f830152610d878184610c3d565b905092915050565b5f819050919050565b610da181610d8f565b82525050565b5f602082019050610dba5f830184610d98565b92915050565b610dc981610d8f565b8114610dd3575f80fd5b50565b5f81359050610de481610dc0565b92915050565b5f805f60408486031215610e0157610e00610cbb565b5b5f610e0e86828701610dd6565b935050602084013567ffffffffffffffff811115610e2f57610e2e610cbf565b5b610e3b86828701610ccf565b92509250509250925092565b5f805f60408486031215610e5e57610e5d610cbb565b5b5f84013567ffffffffffffffff811115610e7b57610e7a610cbf565b5b610e8786828701610ccf565b93509350506020610e9a86828701610dd6565b9150509250925092565b5f60208284031215610eb957610eb8610cbb565b5b5f610ec684828501610dd6565b91505092915050565b5f8115159050919050565b610ee381610ecf565b82525050565b5f602082019050610efc5f830184610eda565b92915050565b5f602082019050610f155f830184610c7e565b92915050565b5f81519050919050565b5f82825260208201905092915050565b5f819050602082019050919050565b610f4d81610d8f565b82525050565b5f610f5e8383610f44565b60208301905092915050565b5f602082019050919050565b5f610f8082610f1b565b610f8a8185610f25565b9350610f9583610f35565b805f5b83811015610fc5578151610fac8882610f53565b9750610fb783610f6a565b925050600181019050610f98565b5085935050505092915050565b5f6020820190508181035f830152610fea8184610f76565b905092915050565b5f82825260208201905092915050565b7f5265706c696361206e6f7420696e697469616c697a65640000000000000000005f82015250565b5f611036601783610ff2565b915061104182611002565b602082019050919050565b5f6020820190508181035f8301526110638161102a565b9050919050565b7f4e487b71000000000000000000000000000000000000000000000000000000005f52602260045260245ffd5b5f60028204905060018216806110ae57607f821691505b6020821081036110c1576110c061106a565b5b50919050565b7f4f7065726174696f6e2063616e6e6f7420626520656d707479000000000000005f82015250565b5f6110fb601983610ff2565b9150611106826110c7565b602082019050919050565b5f6020820190508181035f830152611128816110ef565b9050919050565b7f4e487b71000000000000000000000000000000000000000000000000000000005f52601160045260245ffd5b5f61116682610c75565b91507fffffffffffffffffffffffffffffffffffffffffffffffffffffffffffffffff82036111985761119761112f565b5b600182019050919050565b5f82905092915050565b7f4e487b71000000000000000000000000000000000000000000000000000000005f52604160045260245ffd5b5f819050815f5260205f209050919050565b5f6020601f8301049050919050565b5f82821b905092915050565b5f600883026112367fffffffffffffffffffffffffffffffffffffffffffffffffffffffffffffffff826111fb565b61124086836111fb565b95508019841693508086168417925050509392505050565b5f819050919050565b5f61127b61127661127184610c75565b611258565b610c75565b9050919050565b5f819050919050565b61129483611261565b6112a86112a082611282565b848454611207565b825550505050565b5f90565b6112bc6112b0565b6112c781848461128b565b505050565b5b818110156112ea576112df5f826112b4565b6001810190506112cd565b5050565b601f82111561132f57611300816111da565b611309846111ec565b81016020851015611318578190505b61132c611324856111ec565b8301826112cc565b50505b505050565b5f82821c905092915050565b5f61134f5f1984600802611334565b1980831691505092915050565b5f6113678383611340565b9150826002028217905092915050565b61138183836111a3565b67ffffffffffffffff81111561139a576113996111ad565b5b6113a48254611097565b6113af8282856112ee565b5f601f8311600181146113dc575f84156113ca578287013590505b6113d4858261135c565b86555061143b565b601f1984166113ea866111da565b5f5b82811015611411578489013582556001820191506020850194506020810190506113ec565b8683101561142e578489013561142a601f891682611340565b8355505b6001600288020188555050505b50505050505050565b5f819050919050565b61145e61145982610d8f565b611444565b82525050565b5f81905092915050565b7f666f726b000000000000000000000000000000000000000000000000000000005f82015250565b5f6114a2600483611464565b91506114ad8261146e565b600482019050919050565b5f819050919050565b6114d26114cd82610c75565b6114b8565b82525050565b5f6114e3828661144d565b6020820191506114f282611496565b91506114fe82856114c1565b60208201915061150e82846114c1565b602082019150819050949350505050565b7f5265706c69636120616c726561647920696e697469616c697a656400000000005f82015250565b5f611553601b83610ff2565b915061155e8261151f565b602082019050919050565b5f6020820190508181035f83015261158081611547565b9050919050565b7f5265706c6963612049442063616e6e6f74206265207a65726f000000000000005f82015250565b5f6115bb601983610ff2565b91506115c682611587565b602082019050919050565b5f6020820190508181035f8301526115e8816115af565b9050919050565b7f556e6b6e6f776e207265706c69636100000000000000000000000000000000005f82015250565b5f611623600f83610ff2565b915061162e826115ef565b602082019050919050565b5f6020820190508181035f83015261165081611617565b9050919050565b7f436f6e63757272656e74206d6f64696669636174696f6e7320646574656374655f8201527f6400000000000000000000000000000000000000000000000000000000000000602082015250565b5f6116b1602183610ff2565b91506116bc82611657565b604082019050919050565b5f6020820190508181035f8301526116de816116a5565b9050919050565b7f50656572206e6f74206b6e6f776e0000000000000000000000000000000000005f82015250565b5f611719600e83610ff2565b9150611724826116e5565b602082019050919050565b5f6020820190508181035f8301526117468161170d565b9050919050565b7f506565722049442063616e6e6f74206265207a65726f000000000000000000005f82015250565b5f611781601683610ff2565b915061178c8261174d565b602082019050919050565b5f6020820190508181035f8301526117ae81611775565b9050919050565b7f5065657220616c7265616479206b6e6f776e00000000000000000000000000005f82015250565b5f6117e9601283610ff2565b91506117f4826117b5565b602082019050919050565b5f6020820190508181035f830152611816816117dd565b905091905056fea264697066735822122063f7dfc775673927e1a766532fa5dd8f74e195516d61941163e1a7a381eb7c5164736f6c63430008140033","linkReferences":{}},"methodIdentifiers":{"addPeer(bytes32)":"c05f89e9","fork()":"4591c060","getPeers()":"cd559561","getPendingOpsCount()":"89d44395","getReplicaId()":"c3bf41a8","getState()":"1865c57d","initialize(bytes32,bytes)":"66e7990d","isPeer(bytes32)":"7bf6530c","localUpdate(bytes)":"3c47875b","receiveRemote(bytes,bytes32)":"6f636369","sync(bytes32)":"ae4b2551"},"id":218}