{"abi":[{"type":"function","name":"get","inputs":[{"name":"grammarId","type":"bytes32","internalType":"bytes32"}],"outputs":[{"name":"name","type":"string","internalType":"string"},{"name":"extensions","type":"string","internalType":"string"},{"name":"parserWasmPath","type":"string","internalType":"string"}],"stateMutability":"view"},{"type":"function","name":"list","inputs":[],"outputs":[{"name":"grammars","type":"string","internalType":"string"}],"stateMutability":"view"},{"type":"function","name":"register","inputs":[{"name":"name","type":"string","internalType":"string"},{"name":"extensions","type":"string","internalType":"string"},{"name":"parserWasmPath","type":"string","internalType":"string"},{"name":"nodeTypes","type":"string","internalType":"string"}],"outputs":[{"name":"grammarId","type":"bytes32","internalType":"bytes32"}],"stateMutability":"nonpayable"},{"type":"function","name":"resolve","inputs":[{"name":"fileExtension","type":"string","internalType":"string"}],"outputs":[{"name":"grammarId","type":"bytes32","internalType":"bytes32"}],"stateMutability":"view"},{"type":"function","name":"resolveByMime","inputs":[{"name":"mimeType","type":"string","internalType":"string"}],"outputs":[{"name":"grammarId","type":"bytes32","internalType":"bytes32"}],"stateMutability":"view"},{"type":"event","name":"GetCompleted","inputs":[{"name":"variant","type":"string","indexed":false,"internalType":"string"},{"name":"grammar","type":"bytes32","indexed":false,"internalType":"bytes32"}],"anonymous":false},{"type":"event","name":"ListCompleted","inputs":[{"name":"variant","type":"string","indexed":false,"internalType":"string"}],"anonymous":false},{"type":"event","name":"RegisterCompleted","inputs":[{"name":"variant","type":"string","indexed":false,"internalType":"string"},{"name":"grammar","type":"bytes32","indexed":false,"internalType":"bytes32"}],"anonymous":false},{"type":"event","name":"ResolveByMimeCompleted","inputs":[{"name":"variant","type":"string","indexed":false,"internalType":"string"},{"name":"grammar","type":"bytes32","indexed":false,"internalType":"bytes32"}],"anonymous":false},{"type":"event","name":"ResolveCompleted","inputs":[{"name":"variant","type":"string","indexed":false,"internalType":"string"},{"name":"grammar","type":"bytes32","indexed":false,"internalType":"bytes32"}],"anonymous":false}],"bytecode":{"object":"0x608060405234801561000f575f80fd5b5061183d8061001d5f395ff3fe608060405234801561000f575f80fd5b5060043610610055575f3560e01c80630e24c52c146100595780630f560cd714610089578063461a4478146100a75780638eaa6ac0146100d7578063ff2d4bb814610109575b5f80fd5b610073600480360381019061006e9190610bf9565b610139565b6040516100809190610ce5565b60405180910390f35b610091610388565b60405161009e9190610d78565b60405180910390f35b6100c160048036038101906100bc9190610d98565b61048b565b6040516100ce9190610ce5565b60405180910390f35b6100f160048036038101906100ec9190610e09565b61067c565b60405161010093929190610e34565b60405180910390f35b610123600480360381019061011e9190610d98565b6108aa565b6040516101309190610ce5565b60405180910390f35b5f8085511161017d576040517f08c379a000000000000000000000000000000000000000000000000000000000815260040161017490610ec8565b60405180910390fd5b8460405160200161018e9190610f20565b6040516020818303038152906040528051906020012090505f808281526020019081526020015f206005015f9054906101000a900460ff1615610206576040517f08c379a00000000000000000000000000000000000000000000000000000000081526004016101fd90610f80565b60405180910390fd5b6040518060c0016040528086815260200185815260200184815260200183815260200160405180602001604052805f8152508152602001600115158152505f808381526020019081526020015f205f820151815f01908161026791906111a1565b50602082015181600101908161027d91906111a1565b50604082015181600201908161029391906111a1565b5060608201518160030190816102a991906111a1565b5060808201518160040190816102bf91906111a1565b5060a0820151816005015f6101000a81548160ff0219169083151502179055509050505f846040516020016102f49190610f20565b6040516020818303038152906040528051906020012090508160025f8381526020019081526020015f2081905550600182908060018154018082558091505060019003905f5260205f20015f90919091909150557f0402c886f5c1bb50afb826d1767a153123631152c678fbec8089e9e8ee3e49bf8260405161037791906112ba565b60405180910390a150949350505050565b6060805f805b600180549050811015610463575f600182815481106103b0576103af6112e6565b5b905f5260205f20015490505f808281526020019081526020015f206005015f9054906101000a900460ff161561044f575f83111561040b57836040516020016103f991906113a1565b60405160208183030381529060405293505b835f808381526020019081526020015f205f0160405160200161042f929190611442565b6040516020818303038152906040529350828061044b90611492565b9350505b50808061045b90611492565b91505061038e565b5081604051602001610475919061156d565b6040516020818303038152906040529250505090565b5f808251116104cf576040517f08c379a00000000000000000000000000000000000000000000000000000000081526004016104c6906115e3565b60405180910390fd5b5f826040516020016104e19190610f20565b60405160208183030381529060405280519060200120905060025f8281526020019081526020015f205491505f801b8203610632575f5b600180549050811015610630575f6001828154811061053a576105396112e6565b5b905f5260205f20015490505f808281526020019081526020015f206005015f9054906101000a900460ff161561061c5761060d5f808381526020019081526020015f20600101805461058b90610fcb565b80601f01602080910402602001604051908101604052809291908181526020018280546105b790610fcb565b80156106025780601f106105d957610100808354040283529160200191610602565b820191905f5260205f20905b8154815290600101906020018083116105e557829003601f168201915b505050505086610976565b1561061b5780935050610630565b5b50808061062890611492565b915050610518565b505b5f801b8203610676576040517f08c379a000000000000000000000000000000000000000000000000000000000815260040161066d9061164b565b60405180910390fd5b50919050565b60608060605f808581526020019081526020015f206005015f9054906101000a900460ff166106e0576040517f08c379a00000000000000000000000000000000000000000000000000000000081526004016106d7906116b3565b60405180910390fd5b5f805f8681526020019081526020015f209050805f01816001018260020182805461070a90610fcb565b80601f016020809104026020016040519081016040528092919081815260200182805461073690610fcb565b80156107815780601f1061075857610100808354040283529160200191610781565b820191905f5260205f20905b81548152906001019060200180831161076457829003601f168201915b5050505050925081805461079490610fcb565b80601f01602080910402602001604051908101604052809291908181526020018280546107c090610fcb565b801561080b5780601f106107e25761010080835404028352916020019161080b565b820191905f5260205f20905b8154815290600101906020018083116107ee57829003601f168201915b5050505050915080805461081e90610fcb565b80601f016020809104026020016040519081016040528092919081815260200182805461084a90610fcb565b80156108955780601f1061086c57610100808354040283529160200191610895565b820191905f5260205f20905b81548152906001019060200180831161087857829003601f168201915b50505050509050935093509350509193909250565b5f808251116108ee576040517f08c379a00000000000000000000000000000000000000000000000000000000081526004016108e59061171b565b60405180910390fd5b5f826040516020016109009190610f20565b60405160208183030381529060405280519060200120905060035f8281526020019081526020015f205491505f801b8203610970576040517f08c379a000000000000000000000000000000000000000000000000000000000815260040161096790611783565b60405180910390fd5b50919050565b5f808390505f839050815181511115610993575f92505050610aa6565b5f8151036109a657600192505050610aa6565b5f5b815183516109b691906117a1565b8111610a9f575f600190505f5b8351811015610a77578381815181106109df576109de6112e6565b5b602001015160f81c60f81b7effffffffffffffffffffffffffffffffffffffffffffffffffffffffffffff1916858285610a1991906117d4565b81518110610a2a57610a296112e6565b5b602001015160f81c60f81b7effffffffffffffffffffffffffffffffffffffffffffffffffffffffffffff191614610a64575f9150610a77565b8080610a6f90611492565b9150506109c3565b508015610a8b576001945050505050610aa6565b508080610a9790611492565b9150506109a8565b505f925050505b92915050565b5f604051905090565b5f80fd5b5f80fd5b5f80fd5b5f80fd5b5f601f19601f8301169050919050565b7f4e487b71000000000000000000000000000000000000000000000000000000005f52604160045260245ffd5b610b0b82610ac5565b810181811067ffffffffffffffff82111715610b2a57610b29610ad5565b5b80604052505050565b5f610b3c610aac565b9050610b488282610b02565b919050565b5f67ffffffffffffffff821115610b6757610b66610ad5565b5b610b7082610ac5565b9050602081019050919050565b828183375f83830152505050565b5f610b9d610b9884610b4d565b610b33565b905082815260208101848484011115610bb957610bb8610ac1565b5b610bc4848285610b7d565b509392505050565b5f82601f830112610be057610bdf610abd565b5b8135610bf0848260208601610b8b565b91505092915050565b5f805f8060808587031215610c1157610c10610ab5565b5b5f85013567ffffffffffffffff811115610c2e57610c2d610ab9565b5b610c3a87828801610bcc565b945050602085013567ffffffffffffffff811115610c5b57610c5a610ab9565b5b610c6787828801610bcc565b935050604085013567ffffffffffffffff811115610c8857610c87610ab9565b5b610c9487828801610bcc565b925050606085013567ffffffffffffffff811115610cb557610cb4610ab9565b5b610cc187828801610bcc565b91505092959194509250565b5f819050919050565b610cdf81610ccd565b82525050565b5f602082019050610cf85f830184610cd6565b92915050565b5f81519050919050565b5f82825260208201905092915050565b5f5b83811015610d35578082015181840152602081019050610d1a565b5f8484015250505050565b5f610d4a82610cfe565b610d548185610d08565b9350610d64818560208601610d18565b610d6d81610ac5565b840191505092915050565b5f6020820190508181035f830152610d908184610d40565b905092915050565b5f60208284031215610dad57610dac610ab5565b5b5f82013567ffffffffffffffff811115610dca57610dc9610ab9565b5b610dd684828501610bcc565b91505092915050565b610de881610ccd565b8114610df2575f80fd5b50565b5f81359050610e0381610ddf565b92915050565b5f60208284031215610e1e57610e1d610ab5565b5b5f610e2b84828501610df5565b91505092915050565b5f6060820190508181035f830152610e4c8186610d40565b90508181036020830152610e608185610d40565b90508181036040830152610e748184610d40565b9050949350505050565b7f4e616d652063616e6e6f7420626520656d7074790000000000000000000000005f82015250565b5f610eb2601483610d08565b9150610ebd82610e7e565b602082019050919050565b5f6020820190508181035f830152610edf81610ea6565b9050919050565b5f81905092915050565b5f610efa82610cfe565b610f048185610ee6565b9350610f14818560208601610d18565b80840191505092915050565b5f610f2b8284610ef0565b915081905092915050565b7f4772616d6d617220616c726561647920726567697374657265640000000000005f82015250565b5f610f6a601a83610d08565b9150610f7582610f36565b602082019050919050565b5f6020820190508181035f830152610f9781610f5e565b9050919050565b7f4e487b71000000000000000000000000000000000000000000000000000000005f52602260045260245ffd5b5f6002820490506001821680610fe257607f821691505b602082108103610ff557610ff4610f9e565b5b50919050565b5f819050815f5260205f209050919050565b5f6020601f8301049050919050565b5f82821b905092915050565b5f600883026110577fffffffffffffffffffffffffffffffffffffffffffffffffffffffffffffffff8261101c565b611061868361101c565b95508019841693508086168417925050509392505050565b5f819050919050565b5f819050919050565b5f6110a56110a061109b84611079565b611082565b611079565b9050919050565b5f819050919050565b6110be8361108b565b6110d26110ca826110ac565b848454611028565b825550505050565b5f90565b6110e66110da565b6110f18184846110b5565b505050565b5b81811015611114576111095f826110de565b6001810190506110f7565b5050565b601f8211156111595761112a81610ffb565b6111338461100d565b81016020851015611142578190505b61115661114e8561100d565b8301826110f6565b50505b505050565b5f82821c905092915050565b5f6111795f198460080261115e565b1980831691505092915050565b5f611191838361116a565b9150826002028217905092915050565b6111aa82610cfe565b67ffffffffffffffff8111156111c3576111c2610ad5565b5b6111cd8254610fcb565b6111d8828285611118565b5f60209050601f831160018114611209575f84156111f7578287015190505b6112018582611186565b865550611268565b601f19841661121786610ffb565b5f5b8281101561123e57848901518255600182019150602085019450602081019050611219565b8683101561125b5784890151611257601f89168261116a565b8355505b6001600288020188555050505b505050505050565b7f6f6b0000000000000000000000000000000000000000000000000000000000005f82015250565b5f6112a4600283610d08565b91506112af82611270565b602082019050919050565b5f6040820190508181035f8301526112d181611298565b90506112e06020830184610cd6565b92915050565b7f4e487b71000000000000000000000000000000000000000000000000000000005f52603260045260245ffd5b5f81519050919050565b5f81905092915050565b5f61133182611313565b61133b818561131d565b935061134b818560208601610d18565b80840191505092915050565b7f2c000000000000000000000000000000000000000000000000000000000000005f82015250565b5f61138b600183610ee6565b915061139682611357565b600182019050919050565b5f6113ac8284611327565b91506113b78261137f565b915081905092915050565b5f81546113ce81610fcb565b6113d88186610ee6565b9450600182165f81146113f2576001811461140757611439565b60ff1983168652811515820286019350611439565b61141085610ffb565b5f5b8381101561143157815481890152600182019150602081019050611412565b838801955050505b50505092915050565b5f61144d8285611327565b915061145982846113c2565b91508190509392505050565b7f4e487b71000000000000000000000000000000000000000000000000000000005f52601160045260245ffd5b5f61149c82611079565b91507fffffffffffffffffffffffffffffffffffffffffffffffffffffffffffffffff82036114ce576114cd611465565b5b600182019050919050565b7f5b000000000000000000000000000000000000000000000000000000000000005f82015250565b5f61150d600183610ee6565b9150611518826114d9565b600182019050919050565b7f5d000000000000000000000000000000000000000000000000000000000000005f82015250565b5f611557600183610ee6565b915061156282611523565b600182019050919050565b5f61157782611501565b91506115838284611327565b915061158e8261154b565b915081905092915050565b7f457874656e73696f6e2063616e6e6f7420626520656d707479000000000000005f82015250565b5f6115cd601983610d08565b91506115d882611599565b602082019050919050565b5f6020820190508181035f8301526115fa816115c1565b9050919050565b7f4e6f206772616d6d617220666f756e6420666f7220657874656e73696f6e00005f82015250565b5f611635601e83610d08565b915061164082611601565b602082019050919050565b5f6020820190508181035f83015261166281611629565b9050919050565b7f4772616d6d6172206e6f7420666f756e640000000000000000000000000000005f82015250565b5f61169d601183610d08565b91506116a882611669565b602082019050919050565b5f6020820190508181035f8301526116ca81611691565b9050919050565b7f4d494d4520747970652063616e6e6f7420626520656d707479000000000000005f82015250565b5f611705601983610d08565b9150611710826116d1565b602082019050919050565b5f6020820190508181035f830152611732816116f9565b9050919050565b7f4e6f206772616d6d617220666f756e6420666f72204d494d45207479706500005f82015250565b5f61176d601e83610d08565b915061177882611739565b602082019050919050565b5f6020820190508181035f83015261179a81611761565b9050919050565b5f6117ab82611079565b91506117b683611079565b92508282039050818111156117ce576117cd611465565b5b92915050565b5f6117de82611079565b91506117e983611079565b925082820190508082111561180157611800611465565b5b9291505056fea2646970667358221220de2a7b0d20edcb3d11e97fca6651c670eca6e7eb893568ad4942de6e6260c1ac64736f6c63430008140033","linkReferences":{}},"methodIdentifiers":{"get(bytes32)":"8eaa6ac0","list()":"0f560cd7","register(string,string,string,string)":"0e24c52c","resolve(string)":"461a4478","resolveByMime(string)":"ff2d4bb8"},"id":161}