{"abi":[{"type":"function","name":"getBreakpoint","inputs":[{"name":"viewport","type":"bytes32","internalType":"bytes32"}],"outputs":[{"name":"","type":"tuple","internalType":"struct Viewport.GetBreakpointOkResult","components":[{"name":"success","type":"bool","internalType":"bool"},{"name":"viewport","type":"bytes32","internalType":"bytes32"},{"name":"breakpoint","type":"string","internalType":"string"},{"name":"width","type":"int256","internalType":"int256"},{"name":"height","type":"int256","internalType":"int256"}]}],"stateMutability":"nonpayable"},{"type":"function","name":"observe","inputs":[{"name":"viewport","type":"bytes32","internalType":"bytes32"},{"name":"width","type":"int256","internalType":"int256"},{"name":"height","type":"int256","internalType":"int256"}],"outputs":[{"name":"","type":"tuple","internalType":"struct Viewport.ObserveOkResult","components":[{"name":"success","type":"bool","internalType":"bool"},{"name":"viewport","type":"bytes32","internalType":"bytes32"},{"name":"breakpoint","type":"string","internalType":"string"},{"name":"orientation","type":"string","internalType":"string"}]}],"stateMutability":"nonpayable"},{"type":"function","name":"setBreakpoints","inputs":[{"name":"viewport","type":"bytes32","internalType":"bytes32"},{"name":"breakpoints","type":"string","internalType":"string"}],"outputs":[{"name":"","type":"tuple","internalType":"struct Viewport.SetBreakpointsOkResult","components":[{"name":"success","type":"bool","internalType":"bool"},{"name":"viewport","type":"bytes32","internalType":"bytes32"}]}],"stateMutability":"nonpayable"},{"type":"event","name":"GetBreakpointCompleted","inputs":[{"name":"variant","type":"string","indexed":false,"internalType":"string"},{"name":"viewport","type":"bytes32","indexed":true,"internalType":"bytes32"},{"name":"width","type":"int256","indexed":false,"internalType":"int256"},{"name":"height","type":"int256","indexed":false,"internalType":"int256"}],"anonymous":false},{"type":"event","name":"ObserveCompleted","inputs":[{"name":"variant","type":"string","indexed":false,"internalType":"string"},{"name":"viewport","type":"bytes32","indexed":true,"internalType":"bytes32"}],"anonymous":false},{"type":"event","name":"SetBreakpointsCompleted","inputs":[{"name":"variant","type":"string","indexed":false,"internalType":"string"},{"name":"viewport","type":"bytes32","indexed":true,"internalType":"bytes32"}],"anonymous":false}],"bytecode":{"object":"0x608060405234801561000f575f80fd5b506113a78061001d5f395ff3fe608060405234801561000f575f80fd5b506004361061003f575f3560e01c80637e7e42d71461004357806392d13c6e14610073578063ad96e1cf146100a3575b5f80fd5b61005d600480360381019061005891906109e8565b6100d3565b60405161006a9190610b51565b60405180910390f35b61008d60048036038101906100889190610b9b565b6102ae565b60405161009a9190610c52565b60405180910390f35b6100bd60048036038101906100b89190610d9e565b610739565b6040516100ca9190610e25565b60405180910390f35b6100db61092c565b60015f8381526020019081526020015f205f9054906101000a900460ff16610138576040517f08c379a000000000000000000000000000000000000000000000000000000000815260040161012f90610e98565b60405180910390fd5b5f808381526020019081526020015f206005015f9054906101000a900460ff16610197576040517f08c379a000000000000000000000000000000000000000000000000000000000815260040161018e90610f00565b60405180910390fd5b5f805f8481526020019081526020015f209050827fd2067415bc4f8c7872c3e4681345d30ac568cdf5fc7a4546047ceb29e9a855df825f015483600101546040516101e3929190610f77565b60405180910390a26040518060a0016040528060011515815260200184815260200182600201805461021490610fde565b80601f016020809104026020016040519081016040528092919081815260200182805461024090610fde565b801561028b5780601f106102625761010080835404028352916020019161028b565b820191905f5260205f20905b81548152906001019060200180831161026e57829003601f168201915b50505050508152602001825f015481526020018260010154815250915050919050565b6102b661095c565b5f831380156102c457505f82135b610303576040517f08c379a00000000000000000000000000000000000000000000000000000000081526004016102fa90611058565b60405180910390fd5b606061028084121561034c576040518060400160405280600281526020017f7873000000000000000000000000000000000000000000000000000000000000815250905061045d565b610300841215610393576040518060400160405280600281526020017f736d000000000000000000000000000000000000000000000000000000000000815250905061045c565b6104008412156103da576040518060400160405280600281526020017f6d64000000000000000000000000000000000000000000000000000000000000815250905061045b565b610500841215610421576040518060400160405280600281526020017f6c67000000000000000000000000000000000000000000000000000000000000815250905061045a565b6040518060400160405280600281526020017f786c00000000000000000000000000000000000000000000000000000000000081525090505b5b5b5b5f838512156104a1576040518060400160405280600881526020017f706f7274726169740000000000000000000000000000000000000000000000008152506104d8565b6040518060400160405280600981526020017f6c616e64736361706500000000000000000000000000000000000000000000008152505b90506040518060e0016040528086815260200185815260200183815260200182815260200160015f8981526020019081526020015f205f9054906101000a900460ff166105335760405180602001604052805f8152506105ce565b5f808981526020019081526020015f20600401805461055190610fde565b80601f016020809104026020016040519081016040528092919081815260200182805461057d90610fde565b80156105c85780601f1061059f576101008083540402835291602001916105c8565b820191905f5260205f20905b8154815290600101906020018083116105ab57829003601f168201915b50505050505b815260200160011515815260200160015f8981526020019081526020015f205f9054906101000a900460ff166106045742610619565b5f808981526020019081526020015f20600601545b8152505f808881526020019081526020015f205f820151815f0155602082015181600101556040820151816002019081610653919061121c565b506060820151816003019081610669919061121c565b50608082015181600401908161067f919061121c565b5060a0820151816005015f6101000a81548160ff02191690831515021790555060c082015181600601559050506001805f8881526020019081526020015f205f6101000a81548160ff021916908315150217905550857f9ade01fc76e257e1b6583b37dd25069f4c6f3a2b6a9b412a7f3520f621ea6912604051610702906112eb565b60405180910390a2604051806080016040528060011515815260200187815260200183815260200182815250925050509392505050565b610741610987565b5f825111610784576040517f08c379a000000000000000000000000000000000000000000000000000000000815260040161077b90611353565b60405180910390fd5b60015f8481526020019081526020015f205f9054906101000a900460ff166108b4576040518060e001604052805f81526020015f815260200160405180602001604052805f815250815260200160405180602001604052805f81525081526020018381526020015f15158152602001428152505f808581526020019081526020015f205f820151815f015560208201518160010155604082015181600201908161082e919061121c565b506060820151816003019081610844919061121c565b50608082015181600401908161085a919061121c565b5060a0820151816005015f6101000a81548160ff02191690831515021790555060c082015181600601559050506001805f8581526020019081526020015f205f6101000a81548160ff0219169083151502179055506108d6565b815f808581526020019081526020015f2060040190816108d4919061121c565b505b827f8302f7a4429c7a252f8a853e58ea3b32893418659a764219dd7df2d2788ac952604051610904906112eb565b60405180910390a2604051806040016040528060011515815260200184815250905092915050565b6040518060a001604052805f151581526020015f8019168152602001606081526020015f81526020015f81525090565b60405180608001604052805f151581526020015f801916815260200160608152602001606081525090565b60405180604001604052805f151581526020015f80191681525090565b5f604051905090565b5f80fd5b5f80fd5b5f819050919050565b6109c7816109b5565b81146109d1575f80fd5b50565b5f813590506109e2816109be565b92915050565b5f602082840312156109fd576109fc6109ad565b5b5f610a0a848285016109d4565b91505092915050565b5f8115159050919050565b610a2781610a13565b82525050565b610a36816109b5565b82525050565b5f81519050919050565b5f82825260208201905092915050565b5f5b83811015610a73578082015181840152602081019050610a58565b5f8484015250505050565b5f601f19601f8301169050919050565b5f610a9882610a3c565b610aa28185610a46565b9350610ab2818560208601610a56565b610abb81610a7e565b840191505092915050565b5f819050919050565b610ad881610ac6565b82525050565b5f60a083015f830151610af35f860182610a1e565b506020830151610b066020860182610a2d565b5060408301518482036040860152610b1e8282610a8e565b9150506060830151610b336060860182610acf565b506080830151610b466080860182610acf565b508091505092915050565b5f6020820190508181035f830152610b698184610ade565b905092915050565b610b7a81610ac6565b8114610b84575f80fd5b50565b5f81359050610b9581610b71565b92915050565b5f805f60608486031215610bb257610bb16109ad565b5b5f610bbf868287016109d4565b9350506020610bd086828701610b87565b9250506040610be186828701610b87565b9150509250925092565b5f608083015f830151610c005f860182610a1e565b506020830151610c136020860182610a2d565b5060408301518482036040860152610c2b8282610a8e565b91505060608301518482036060860152610c458282610a8e565b9150508091505092915050565b5f6020820190508181035f830152610c6a8184610beb565b905092915050565b5f80fd5b5f80fd5b7f4e487b71000000000000000000000000000000000000000000000000000000005f52604160045260245ffd5b610cb082610a7e565b810181811067ffffffffffffffff82111715610ccf57610cce610c7a565b5b80604052505050565b5f610ce16109a4565b9050610ced8282610ca7565b919050565b5f67ffffffffffffffff821115610d0c57610d0b610c7a565b5b610d1582610a7e565b9050602081019050919050565b828183375f83830152505050565b5f610d42610d3d84610cf2565b610cd8565b905082815260208101848484011115610d5e57610d5d610c76565b5b610d69848285610d22565b509392505050565b5f82601f830112610d8557610d84610c72565b5b8135610d95848260208601610d30565b91505092915050565b5f8060408385031215610db457610db36109ad565b5b5f610dc1858286016109d4565b925050602083013567ffffffffffffffff811115610de257610de16109b1565b5b610dee85828601610d71565b9150509250929050565b604082015f820151610e0c5f850182610a1e565b506020820151610e1f6020850182610a2d565b50505050565b5f604082019050610e385f830184610df8565b92915050565b5f82825260208201905092915050565b7f56696577706f7274206e6f7420666f756e6400000000000000000000000000005f82015250565b5f610e82601283610e3e565b9150610e8d82610e4e565b602082019050919050565b5f6020820190508181035f830152610eaf81610e76565b9050919050565b7f56696577706f7274206e6f7420796574206f62736572766564000000000000005f82015250565b5f610eea601983610e3e565b9150610ef582610eb6565b602082019050919050565b5f6020820190508181035f830152610f1781610ede565b9050919050565b7f6f6b0000000000000000000000000000000000000000000000000000000000005f82015250565b5f610f52600283610e3e565b9150610f5d82610f1e565b602082019050919050565b610f7181610ac6565b82525050565b5f6060820190508181035f830152610f8e81610f46565b9050610f9d6020830185610f68565b610faa6040830184610f68565b9392505050565b7f4e487b71000000000000000000000000000000000000000000000000000000005f52602260045260245ffd5b5f6002820490506001821680610ff557607f821691505b60208210810361100857611007610fb1565b5b50919050565b7f44696d656e73696f6e73206d75737420626520706f73697469766500000000005f82015250565b5f611042601b83610e3e565b915061104d8261100e565b602082019050919050565b5f6020820190508181035f83015261106f81611036565b9050919050565b5f819050815f5260205f209050919050565b5f6020601f8301049050919050565b5f82821b905092915050565b5f600883026110d27fffffffffffffffffffffffffffffffffffffffffffffffffffffffffffffffff82611097565b6110dc8683611097565b95508019841693508086168417925050509392505050565b5f819050919050565b5f819050919050565b5f61112061111b611116846110f4565b6110fd565b6110f4565b9050919050565b5f819050919050565b61113983611106565b61114d61114582611127565b8484546110a3565b825550505050565b5f90565b611161611155565b61116c818484611130565b505050565b5b8181101561118f576111845f82611159565b600181019050611172565b5050565b601f8211156111d4576111a581611076565b6111ae84611088565b810160208510156111bd578190505b6111d16111c985611088565b830182611171565b50505b505050565b5f82821c905092915050565b5f6111f45f19846008026111d9565b1980831691505092915050565b5f61120c83836111e5565b9150826002028217905092915050565b61122582610a3c565b67ffffffffffffffff81111561123e5761123d610c7a565b5b6112488254610fde565b611253828285611193565b5f60209050601f831160018114611284575f8415611272578287015190505b61127c8582611201565b8655506112e3565b601f19841661129286611076565b5f5b828110156112b957848901518255600182019150602085019450602081019050611294565b868310156112d657848901516112d2601f8916826111e5565b8355505b6001600288020188555050505b505050505050565b5f6020820190508181035f83015261130281610f46565b9050919050565b7f427265616b706f696e74732072657175697265640000000000000000000000005f82015250565b5f61133d601483610e3e565b915061134882611309565b602082019050919050565b5f6020820190508181035f83015261136a81611331565b905091905056fea2646970667358221220e22c41b978759846a565c7bdea219154f66b3d3d6b7e17e0c6fa2a797a4f392964736f6c63430008140033","linkReferences":{}},"methodIdentifiers":{"getBreakpoint(bytes32)":"7e7e42d7","observe(bytes32,int256,int256)":"92d13c6e","setBreakpoints(bytes32,string)":"ad96e1cf"},"id":329}