{"abi":[{"type":"function","name":"ancestors","inputs":[{"name":"nodeId","type":"bytes32","internalType":"bytes32"}],"outputs":[{"name":"","type":"bytes32[]","internalType":"bytes32[]"}],"stateMutability":"view"},{"type":"function","name":"append","inputs":[{"name":"parents","type":"bytes32[]","internalType":"bytes32[]"},{"name":"contentRef","type":"bytes32","internalType":"bytes32"},{"name":"metadata","type":"bytes","internalType":"bytes"}],"outputs":[{"name":"nodeId","type":"bytes32","internalType":"bytes32"}],"stateMutability":"nonpayable"},{"type":"function","name":"commonAncestor","inputs":[{"name":"a","type":"bytes32","internalType":"bytes32"},{"name":"b","type":"bytes32","internalType":"bytes32"}],"outputs":[{"name":"found","type":"bool","internalType":"bool"},{"name":"ancestorId","type":"bytes32","internalType":"bytes32"}],"stateMutability":"view"},{"type":"function","name":"descendants","inputs":[{"name":"nodeId","type":"bytes32","internalType":"bytes32"}],"outputs":[{"name":"","type":"bytes32[]","internalType":"bytes32[]"}],"stateMutability":"view"},{"type":"function","name":"getNode","inputs":[{"name":"nodeId","type":"bytes32","internalType":"bytes32"}],"outputs":[{"name":"parents","type":"bytes32[]","internalType":"bytes32[]"},{"name":"contentRef","type":"bytes32","internalType":"bytes32"},{"name":"metadata","type":"bytes","internalType":"bytes"}],"stateMutability":"view"},{"type":"function","name":"getRoots","inputs":[],"outputs":[{"name":"","type":"bytes32[]","internalType":"bytes32[]"}],"stateMutability":"view"},{"type":"event","name":"NodeAppended","inputs":[{"name":"nodeId","type":"bytes32","indexed":true,"internalType":"bytes32"},{"name":"contentRef","type":"bytes32","indexed":false,"internalType":"bytes32"},{"name":"parentCount","type":"uint256","indexed":false,"internalType":"uint256"}],"anonymous":false},{"type":"event","name":"RootAdded","inputs":[{"name":"nodeId","type":"bytes32","indexed":true,"internalType":"bytes32"}],"anonymous":false}],"bytecode":{"object":"0x608060405234801561000f575f80fd5b506115438061001d5f395ff3fe608060405234801561000f575f80fd5b5060043610610060575f3560e01c80630263e9261461006457806335a5e06d1461009457806350c946fe146100b257806384077903146100e4578063a084515f14610115578063d62233ca14610145575b5f80fd5b61007e60048036038101906100799190610b4e565b610175565b60405161008b9190610c30565b60405180910390f35b61009c61023b565b6040516100a99190610c30565b60405180910390f35b6100cc60048036038101906100c79190610b4e565b610291565b6040516100db93929190610ce9565b60405180910390f35b6100fe60048036038101906100f99190610d2c565b6103fc565b60405161010c929190610d84565b60405180910390f35b61012f600480360381019061012a9190610b4e565b6106d3565b60405161013c9190610c30565b60405180910390f35b61015f600480360381019061015a9190610e61565b61079a565b60405161016c9190610ef2565b60405180910390f35b60605f808381526020019081526020015f206004015f9054906101000a900460ff166101d6576040517f08c379a00000000000000000000000000000000000000000000000000000000081526004016101cd90610f65565b60405180910390fd5b60015f8381526020019081526020015f2080548060200260200160405190810160405280929190818152602001828054801561022f57602002820191905f5260205f20905b81548152602001906001019080831161021b575b50505050509050919050565b6060600280548060200260200160405190810160405280929190818152602001828054801561028757602002820191905f5260205f20905b815481526020019060010190808311610273575b5050505050905090565b60605f60605f808581526020019081526020015f206004015f9054906101000a900460ff166102f5576040517f08c379a00000000000000000000000000000000000000000000000000000000081526004016102ec90610f65565b60405180910390fd5b5f805f8681526020019081526020015f209050805f018160010154826002018280548060200260200160405190810160405280929190818152602001828054801561035d57602002820191905f5260205f20905b815481526020019060010190808311610349575b5050505050925080805461037090610fb0565b80601f016020809104026020016040519081016040528092919081815260200182805461039c90610fb0565b80156103e75780601f106103be576101008083540402835291602001916103e7565b820191905f5260205f20905b8154815290600101906020018083116103ca57829003601f168201915b50505050509050935093509350509193909250565b5f805f808581526020019081526020015f206004015f9054906101000a900460ff1661045d576040517f08c379a00000000000000000000000000000000000000000000000000000000081526004016104549061102a565b60405180910390fd5b5f808481526020019081526020015f206004015f9054906101000a900460ff166104bc576040517f08c379a00000000000000000000000000000000000000000000000000000000081526004016104b390611092565b60405180910390fd5b5f805f8681526020019081526020015f205f0180548060200260200160405190810160405280929190818152602001828054801561051757602002820191905f5260205f20905b815481526020019060010190808311610503575b505050505090505f805f8681526020019081526020015f205f0180548060200260200160405190810160405280929190818152602001828054801561057957602002820191905f5260205f20905b815481526020019060010190808311610565575b505050505090505f5b8251811015610622575f5b825181101561060e578281815181106105a9576105a86110b0565b5b60200260200101518483815181106105c4576105c36110b0565b5b6020026020010151036105fb5760018483815181106105e6576105e56110b0565b5b602002602001015195509550505050506106cc565b808061060690611113565b91505061058d565b50808061061a90611113565b915050610582565b505f5b81518110156106715786828281518110610642576106416110b0565b5b60200260200101510361065e57600187945094505050506106cc565b808061066990611113565b915050610625565b505f5b82518110156106c05785838281518110610691576106906110b0565b5b6020026020010151036106ad57600186945094505050506106cc565b80806106b890611113565b915050610674565b505f805f1b9350935050505b9250929050565b60605f808381526020019081526020015f206004015f9054906101000a900460ff16610734576040517f08c379a000000000000000000000000000000000000000000000000000000000815260040161072b90610f65565b60405180910390fd5b5f808381526020019081526020015f205f0180548060200260200160405190810160405280929190818152602001828054801561078e57602002820191905f5260205f20905b81548152602001906001019080831161077a575b50505050509050919050565b5f834260035f8154809291906107af90611113565b919050556040516020016107c59392919061119a565b6040516020818303038152906040528051906020012090505f5b86869050811015610875575f808888848181106107ff576107fe6110b0565b5b9050602002013581526020019081526020015f206004015f9054906101000a900460ff16610862576040517f08c379a000000000000000000000000000000000000000000000000000000000815260040161085990611220565b60405180910390fd5b808061086d90611113565b9150506107df565b506040518060a001604052808787808060200260200160405190810160405280939291908181526020018383602002808284375f81840152601f19601f82011690508083019250505050505050815260200185815260200184848080601f0160208091040260200160405190810160405280939291908181526020018383808284375f81840152601f19601f820116905080830192505050505050508152602001428152602001600115158152505f808381526020019081526020015f205f820151815f01908051906020019061094d929190610aad565b5060208201518160010155604082015181600201908161096d9190611408565b50606082015181600301556080820151816004015f6101000a81548160ff0219169083151502179055509050505f5b86869050811015610a085760015f8888848181106109bd576109bc6110b0565b5b9050602002013581526020019081526020015f2082908060018154018082558091505060019003905f5260205f20015f90919091909150558080610a0090611113565b91505061099c565b505f8686905003610a6757600281908060018154018082558091505060019003905f5260205f20015f9091909190915055807f388a5f4af784e29fc791e14e90d372b6057e8379d9d5556e843545420c675dea60405160405180910390a25b807f989d74c05f2aedf6952f506c20b2693e7bf1d67dc733258394294daff8a179378588889050604051610a9c9291906114e6565b60405180910390a295945050505050565b828054828255905f5260205f20908101928215610ae7579160200282015b82811115610ae6578251825591602001919060010190610acb565b5b509050610af49190610af8565b5090565b5b80821115610b0f575f815f905550600101610af9565b5090565b5f80fd5b5f80fd5b5f819050919050565b610b2d81610b1b565b8114610b37575f80fd5b50565b5f81359050610b4881610b24565b92915050565b5f60208284031215610b6357610b62610b13565b5b5f610b7084828501610b3a565b91505092915050565b5f81519050919050565b5f82825260208201905092915050565b5f819050602082019050919050565b610bab81610b1b565b82525050565b5f610bbc8383610ba2565b60208301905092915050565b5f602082019050919050565b5f610bde82610b79565b610be88185610b83565b9350610bf383610b93565b805f5b83811015610c23578151610c0a8882610bb1565b9750610c1583610bc8565b925050600181019050610bf6565b5085935050505092915050565b5f6020820190508181035f830152610c488184610bd4565b905092915050565b610c5981610b1b565b82525050565b5f81519050919050565b5f82825260208201905092915050565b5f5b83811015610c96578082015181840152602081019050610c7b565b5f8484015250505050565b5f601f19601f8301169050919050565b5f610cbb82610c5f565b610cc58185610c69565b9350610cd5818560208601610c79565b610cde81610ca1565b840191505092915050565b5f6060820190508181035f830152610d018186610bd4565b9050610d106020830185610c50565b8181036040830152610d228184610cb1565b9050949350505050565b5f8060408385031215610d4257610d41610b13565b5b5f610d4f85828601610b3a565b9250506020610d6085828601610b3a565b9150509250929050565b5f8115159050919050565b610d7e81610d6a565b82525050565b5f604082019050610d975f830185610d75565b610da46020830184610c50565b9392505050565b5f80fd5b5f80fd5b5f80fd5b5f8083601f840112610dcc57610dcb610dab565b5b8235905067ffffffffffffffff811115610de957610de8610daf565b5b602083019150836020820283011115610e0557610e04610db3565b5b9250929050565b5f8083601f840112610e2157610e20610dab565b5b8235905067ffffffffffffffff811115610e3e57610e3d610daf565b5b602083019150836001820283011115610e5a57610e59610db3565b5b9250929050565b5f805f805f60608688031215610e7a57610e79610b13565b5b5f86013567ffffffffffffffff811115610e9757610e96610b17565b5b610ea388828901610db7565b95509550506020610eb688828901610b3a565b935050604086013567ffffffffffffffff811115610ed757610ed6610b17565b5b610ee388828901610e0c565b92509250509295509295909350565b5f602082019050610f055f830184610c50565b92915050565b5f82825260208201905092915050565b7f4e6f646520646f6573206e6f74206578697374000000000000000000000000005f82015250565b5f610f4f601383610f0b565b9150610f5a82610f1b565b602082019050919050565b5f6020820190508181035f830152610f7c81610f43565b9050919050565b7f4e487b71000000000000000000000000000000000000000000000000000000005f52602260045260245ffd5b5f6002820490506001821680610fc757607f821691505b602082108103610fda57610fd9610f83565b5b50919050565b7f4e6f6465204120646f6573206e6f7420657869737400000000000000000000005f82015250565b5f611014601583610f0b565b915061101f82610fe0565b602082019050919050565b5f6020820190508181035f83015261104181611008565b9050919050565b7f4e6f6465204220646f6573206e6f7420657869737400000000000000000000005f82015250565b5f61107c601583610f0b565b915061108782611048565b602082019050919050565b5f6020820190508181035f8301526110a981611070565b9050919050565b7f4e487b71000000000000000000000000000000000000000000000000000000005f52603260045260245ffd5b7f4e487b71000000000000000000000000000000000000000000000000000000005f52601160045260245ffd5b5f819050919050565b5f61111d8261110a565b91507fffffffffffffffffffffffffffffffffffffffffffffffffffffffffffffffff820361114f5761114e6110dd565b5b600182019050919050565b5f819050919050565b61117461116f82610b1b565b61115a565b82525050565b5f819050919050565b61119461118f8261110a565b61117a565b82525050565b5f6111a58286611163565b6020820191506111b58285611183565b6020820191506111c58284611183565b602082019150819050949350505050565b7f506172656e74206e6f646520646f6573206e6f742065786973740000000000005f82015250565b5f61120a601a83610f0b565b9150611215826111d6565b602082019050919050565b5f6020820190508181035f830152611237816111fe565b9050919050565b7f4e487b71000000000000000000000000000000000000000000000000000000005f52604160045260245ffd5b5f819050815f5260205f209050919050565b5f6020601f8301049050919050565b5f82821b905092915050565b5f600883026112c77fffffffffffffffffffffffffffffffffffffffffffffffffffffffffffffffff8261128c565b6112d1868361128c565b95508019841693508086168417925050509392505050565b5f819050919050565b5f61130c6113076113028461110a565b6112e9565b61110a565b9050919050565b5f819050919050565b611325836112f2565b61133961133182611313565b848454611298565b825550505050565b5f90565b61134d611341565b61135881848461131c565b505050565b5b8181101561137b576113705f82611345565b60018101905061135e565b5050565b601f8211156113c0576113918161126b565b61139a8461127d565b810160208510156113a9578190505b6113bd6113b58561127d565b83018261135d565b50505b505050565b5f82821c905092915050565b5f6113e05f19846008026113c5565b1980831691505092915050565b5f6113f883836113d1565b9150826002028217905092915050565b61141182610c5f565b67ffffffffffffffff81111561142a5761142961123e565b5b6114348254610fb0565b61143f82828561137f565b5f60209050601f831160018114611470575f841561145e578287015190505b61146885826113ed565b8655506114cf565b601f19841661147e8661126b565b5f5b828110156114a557848901518255600182019150602085019450602081019050611480565b868310156114c257848901516114be601f8916826113d1565b8355505b6001600288020188555050505b505050505050565b6114e08161110a565b82525050565b5f6040820190506114f95f830185610c50565b61150660208301846114d7565b939250505056fea2646970667358221220fcd3c0f7b5146f527804415444717830a551ee7eb57d6cb012123dd32f5becc564736f6c63430008140033","linkReferences":{}},"methodIdentifiers":{"ancestors(bytes32)":"a084515f","append(bytes32[],bytes32,bytes)":"d62233ca","commonAncestor(bytes32,bytes32)":"84077903","descendants(bytes32)":"0263e926","getNode(bytes32)":"50c946fe","getRoots()":"35a5e06d"},"id":85}