{"abi":[{"type":"function","name":"assignToZone","inputs":[{"name":"shell","type":"bytes32","internalType":"bytes32"},{"name":"zone","type":"string","internalType":"string"},{"name":"ref","type":"string","internalType":"string"}],"outputs":[{"name":"","type":"tuple","internalType":"struct Shell.AssignToZoneOkResult","components":[{"name":"success","type":"bool","internalType":"bool"},{"name":"shell","type":"bytes32","internalType":"bytes32"}]}],"stateMutability":"nonpayable"},{"type":"function","name":"clearZone","inputs":[{"name":"shell","type":"bytes32","internalType":"bytes32"},{"name":"zone","type":"string","internalType":"string"}],"outputs":[{"name":"","type":"tuple","internalType":"struct Shell.ClearZoneOkResult","components":[{"name":"success","type":"bool","internalType":"bool"},{"name":"shell","type":"bytes32","internalType":"bytes32"},{"name":"previous","type":"string","internalType":"string"}]}],"stateMutability":"nonpayable"},{"type":"function","name":"initialize","inputs":[{"name":"shell","type":"bytes32","internalType":"bytes32"},{"name":"zones","type":"string","internalType":"string"}],"outputs":[{"name":"","type":"tuple","internalType":"struct Shell.InitializeOkResult","components":[{"name":"success","type":"bool","internalType":"bool"},{"name":"shell","type":"bytes32","internalType":"bytes32"}]}],"stateMutability":"nonpayable"},{"type":"function","name":"popOverlay","inputs":[{"name":"shell","type":"bytes32","internalType":"bytes32"}],"outputs":[{"name":"","type":"tuple","internalType":"struct Shell.PopOverlayOkResult","components":[{"name":"success","type":"bool","internalType":"bool"},{"name":"shell","type":"bytes32","internalType":"bytes32"},{"name":"overlay","type":"string","internalType":"string"}]}],"stateMutability":"nonpayable"},{"type":"function","name":"pushOverlay","inputs":[{"name":"shell","type":"bytes32","internalType":"bytes32"},{"name":"ref","type":"string","internalType":"string"}],"outputs":[{"name":"","type":"tuple","internalType":"struct Shell.PushOverlayOkResult","components":[{"name":"success","type":"bool","internalType":"bool"},{"name":"shell","type":"bytes32","internalType":"bytes32"}]}],"stateMutability":"nonpayable"},{"type":"event","name":"AssignToZoneCompleted","inputs":[{"name":"variant","type":"string","indexed":false,"internalType":"string"},{"name":"shell","type":"bytes32","indexed":true,"internalType":"bytes32"}],"anonymous":false},{"type":"event","name":"ClearZoneCompleted","inputs":[{"name":"variant","type":"string","indexed":false,"internalType":"string"},{"name":"shell","type":"bytes32","indexed":true,"internalType":"bytes32"},{"name":"previous","type":"string","indexed":false,"internalType":"string"}],"anonymous":false},{"type":"event","name":"InitializeCompleted","inputs":[{"name":"variant","type":"string","indexed":false,"internalType":"string"},{"name":"shell","type":"bytes32","indexed":true,"internalType":"bytes32"}],"anonymous":false},{"type":"event","name":"PopOverlayCompleted","inputs":[{"name":"variant","type":"string","indexed":false,"internalType":"string"},{"name":"shell","type":"bytes32","indexed":true,"internalType":"bytes32"}],"anonymous":false},{"type":"event","name":"PushOverlayCompleted","inputs":[{"name":"variant","type":"string","indexed":false,"internalType":"string"},{"name":"shell","type":"bytes32","indexed":true,"internalType":"bytes32"}],"anonymous":false}],"bytecode":{"object":"0x608060405234801561000f575f80fd5b506118a88061001d5f395ff3fe608060405234801561000f575f80fd5b5060043610610055575f3560e01c80631012bebb1461005957806322ab2d75146100895780633ea534d0146100b957806390ada5e8146100e9578063d2af8b1614610119575b5f80fd5b610073600480360381019061006e9190610d17565b610149565b6040516100809190610df5565b60405180910390f35b6100a3600480360381019061009e9190610e0e565b610338565b6040516100b09190610e95565b60405180910390f35b6100d360048036038101906100ce9190610eae565b6104cd565b6040516100e09190610fa0565b60405180910390f35b61010360048036038101906100fe9190610e0e565b6106fa565b604051610110919061100d565b60405180910390f35b610133600480360381019061012e9190610e0e565b610961565b604051610140919061105a565b60405180910390f35b610151610aa0565b60015f8581526020019081526020015f205f9054906101000a900460ff166101ae576040517f08c379a00000000000000000000000000000000000000000000000000000000081526004016101a5906110cd565b60405180910390fd5b5f808581526020019081526020015f206001015f9054906101000a900460ff1661020d576040517f08c379a000000000000000000000000000000000000000000000000000000000815260040161020490611135565b60405180910390fd5b5f835111610250576040517f08c379a00000000000000000000000000000000000000000000000000000000081526004016102479061119d565b60405180910390fd5b5f8360405160200161026291906111f5565b6040516020818303038152906040528051906020012090508260025f8781526020019081526020015f205f8381526020019081526020015f2090816102a7919061140e565b50600160035f8781526020019081526020015f205f8381526020019081526020015f205f6101000a81548160ff021916908315150217905550847f07f1143dd2a4114535cee6cc0648159b4ec13decda8b8aab4b6aeb7ba15147fc60405161030e90611527565b60405180910390a26040518060400160405280600115158152602001868152509150509392505050565b610340610abd565b60015f8481526020019081526020015f205f9054906101000a900460ff161561039e576040517f08c379a00000000000000000000000000000000000000000000000000000000081526004016103959061158f565b60405180910390fd5b5f8251116103e1576040517f08c379a00000000000000000000000000000000000000000000000000000000081526004016103d8906115f7565b60405180910390fd5b6040518060600160405280838152602001600115158152602001428152505f808581526020019081526020015f205f820151815f019081610422919061140e565b506020820151816001015f6101000a81548160ff021916908315150217905550604082015181600201559050506001805f8581526020019081526020015f205f6101000a81548160ff021916908315150217905550827f6f0ecaf1f0db840c4b94bdc86e7febd8c9ec46d7b4c4c60c01514ea1aa157c916040516104a590611527565b60405180910390a2604051806040016040528060011515815260200184815250905092915050565b6104d5610ada565b60015f8381526020019081526020015f205f9054906101000a900460ff16610532576040517f08c379a0000000000000000000000000000000000000000000000000000000008152600401610529906110cd565b60405180910390fd5b5f60045f8481526020019081526020015f208054905011610588576040517f08c379a000000000000000000000000000000000000000000000000000000000815260040161057f9061165f565b60405180910390fd5b5f600160045f8581526020019081526020015f20805490506105aa91906116aa565b90505f60045f8581526020019081526020015f2082815481106105d0576105cf6116dd565b5b905f5260205f200180546105e390611238565b80601f016020809104026020016040519081016040528092919081815260200182805461060f90611238565b801561065a5780601f106106315761010080835404028352916020019161065a565b820191905f5260205f20905b81548152906001019060200180831161063d57829003601f168201915b5050505050905060045f8581526020019081526020015f208054806106825761068161170a565b5b600190038181905f5260205f20015f61069b9190610afe565b9055837fd88441c6d7ee048b8b9df389a8c0aacf41d3b56c999f99ac7bdb33a1819774ab6040516106cb90611527565b60405180910390a260405180606001604052806001151581526020018581526020018281525092505050919050565b610702610b3b565b60015f8481526020019081526020015f205f9054906101000a900460ff1661075f576040517f08c379a0000000000000000000000000000000000000000000000000000000008152600401610756906110cd565b60405180910390fd5b5f8260405160200161077191906111f5565b60405160208183030381529060405280519060200120905060035f8581526020019081526020015f205f8281526020019081526020015f205f9054906101000a900460ff166107f5576040517f08c379a00000000000000000000000000000000000000000000000000000000081526004016107ec90611781565b60405180910390fd5b5f60025f8681526020019081526020015f205f8381526020019081526020015f20805461082190611238565b80601f016020809104026020016040519081016040528092919081815260200182805461084d90611238565b80156108985780601f1061086f57610100808354040283529160200191610898565b820191905f5260205f20905b81548152906001019060200180831161087b57829003601f168201915b5050505050905060025f8681526020019081526020015f205f8381526020019081526020015f205f6108ca9190610afe565b5f60035f8781526020019081526020015f205f8481526020019081526020015f205f6101000a81548160ff021916908315150217905550847f88b468647526a8ced0751b17f76b51a938f24b18377972518ea34bbd71e1130e8260405161093191906117d7565b60405180910390a26040518060600160405280600115158152602001868152602001828152509250505092915050565b610969610b5f565b60015f8481526020019081526020015f205f9054906101000a900460ff166109c6576040517f08c379a00000000000000000000000000000000000000000000000000000000081526004016109bd906110cd565b60405180910390fd5b5f825111610a09576040517f08c379a0000000000000000000000000000000000000000000000000000000008152600401610a0090611854565b60405180910390fd5b60045f8481526020019081526020015f2082908060018154018082558091505060019003905f5260205f20015f909190919091509081610a49919061140e565b50827f4991cba78c257ef3420b0d7c81949f95b5a759a21462c350ccf38aaa584d4601604051610a7890611527565b60405180910390a2604051806040016040528060011515815260200184815250905092915050565b60405180604001604052805f151581526020015f80191681525090565b60405180604001604052805f151581526020015f80191681525090565b60405180606001604052805f151581526020015f8019168152602001606081525090565b508054610b0a90611238565b5f825580601f10610b1b5750610b38565b601f0160209004905f5260205f2090810190610b379190610b7c565b5b50565b60405180606001604052805f151581526020015f8019168152602001606081525090565b60405180604001604052805f151581526020015f80191681525090565b5b80821115610b93575f815f905550600101610b7d565b5090565b5f604051905090565b5f80fd5b5f80fd5b5f819050919050565b610bba81610ba8565b8114610bc4575f80fd5b50565b5f81359050610bd581610bb1565b92915050565b5f80fd5b5f80fd5b5f601f19601f8301169050919050565b7f4e487b71000000000000000000000000000000000000000000000000000000005f52604160045260245ffd5b610c2982610be3565b810181811067ffffffffffffffff82111715610c4857610c47610bf3565b5b80604052505050565b5f610c5a610b97565b9050610c668282610c20565b919050565b5f67ffffffffffffffff821115610c8557610c84610bf3565b5b610c8e82610be3565b9050602081019050919050565b828183375f83830152505050565b5f610cbb610cb684610c6b565b610c51565b905082815260208101848484011115610cd757610cd6610bdf565b5b610ce2848285610c9b565b509392505050565b5f82601f830112610cfe57610cfd610bdb565b5b8135610d0e848260208601610ca9565b91505092915050565b5f805f60608486031215610d2e57610d2d610ba0565b5b5f610d3b86828701610bc7565b935050602084013567ffffffffffffffff811115610d5c57610d5b610ba4565b5b610d6886828701610cea565b925050604084013567ffffffffffffffff811115610d8957610d88610ba4565b5b610d9586828701610cea565b9150509250925092565b5f8115159050919050565b610db381610d9f565b82525050565b610dc281610ba8565b82525050565b604082015f820151610ddc5f850182610daa565b506020820151610def6020850182610db9565b50505050565b5f604082019050610e085f830184610dc8565b92915050565b5f8060408385031215610e2457610e23610ba0565b5b5f610e3185828601610bc7565b925050602083013567ffffffffffffffff811115610e5257610e51610ba4565b5b610e5e85828601610cea565b9150509250929050565b604082015f820151610e7c5f850182610daa565b506020820151610e8f6020850182610db9565b50505050565b5f604082019050610ea85f830184610e68565b92915050565b5f60208284031215610ec357610ec2610ba0565b5b5f610ed084828501610bc7565b91505092915050565b5f81519050919050565b5f82825260208201905092915050565b5f5b83811015610f10578082015181840152602081019050610ef5565b5f8484015250505050565b5f610f2582610ed9565b610f2f8185610ee3565b9350610f3f818560208601610ef3565b610f4881610be3565b840191505092915050565b5f606083015f830151610f685f860182610daa565b506020830151610f7b6020860182610db9565b5060408301518482036040860152610f938282610f1b565b9150508091505092915050565b5f6020820190508181035f830152610fb88184610f53565b905092915050565b5f606083015f830151610fd55f860182610daa565b506020830151610fe86020860182610db9565b50604083015184820360408601526110008282610f1b565b9150508091505092915050565b5f6020820190508181035f8301526110258184610fc0565b905092915050565b604082015f8201516110415f850182610daa565b5060208201516110546020850182610db9565b50505050565b5f60408201905061106d5f83018461102d565b92915050565b5f82825260208201905092915050565b7f5368656c6c206e6f7420666f756e6400000000000000000000000000000000005f82015250565b5f6110b7600f83611073565b91506110c282611083565b602082019050919050565b5f6020820190508181035f8301526110e4816110ab565b9050919050565b7f5368656c6c206e6f7420696e697469616c697a656400000000000000000000005f82015250565b5f61111f601583611073565b915061112a826110eb565b602082019050919050565b5f6020820190508181035f83015261114c81611113565b9050919050565b7f5a6f6e65206e616d6520726571756972656400000000000000000000000000005f82015250565b5f611187601283611073565b915061119282611153565b602082019050919050565b5f6020820190508181035f8301526111b48161117b565b9050919050565b5f81905092915050565b5f6111cf82610ed9565b6111d981856111bb565b93506111e9818560208601610ef3565b80840191505092915050565b5f61120082846111c5565b915081905092915050565b7f4e487b71000000000000000000000000000000000000000000000000000000005f52602260045260245ffd5b5f600282049050600182168061124f57607f821691505b6020821081036112625761126161120b565b5b50919050565b5f819050815f5260205f209050919050565b5f6020601f8301049050919050565b5f82821b905092915050565b5f600883026112c47fffffffffffffffffffffffffffffffffffffffffffffffffffffffffffffffff82611289565b6112ce8683611289565b95508019841693508086168417925050509392505050565b5f819050919050565b5f819050919050565b5f61131261130d611308846112e6565b6112ef565b6112e6565b9050919050565b5f819050919050565b61132b836112f8565b61133f61133782611319565b848454611295565b825550505050565b5f90565b611353611347565b61135e818484611322565b505050565b5b81811015611381576113765f8261134b565b600181019050611364565b5050565b601f8211156113c65761139781611268565b6113a08461127a565b810160208510156113af578190505b6113c36113bb8561127a565b830182611363565b50505b505050565b5f82821c905092915050565b5f6113e65f19846008026113cb565b1980831691505092915050565b5f6113fe83836113d7565b9150826002028217905092915050565b61141782610ed9565b67ffffffffffffffff8111156114305761142f610bf3565b5b61143a8254611238565b611445828285611385565b5f60209050601f831160018114611476575f8415611464578287015190505b61146e85826113f3565b8655506114d5565b601f19841661148486611268565b5f5b828110156114ab57848901518255600182019150602085019450602081019050611486565b868310156114c857848901516114c4601f8916826113d7565b8355505b6001600288020188555050505b505050505050565b7f6f6b0000000000000000000000000000000000000000000000000000000000005f82015250565b5f611511600283611073565b915061151c826114dd565b602082019050919050565b5f6020820190508181035f83015261153e81611505565b9050919050565b7f5368656c6c20616c726561647920696e697469616c697a6564000000000000005f82015250565b5f611579601983611073565b915061158482611545565b602082019050919050565b5f6020820190508181035f8301526115a68161156d565b9050919050565b7f5a6f6e65732072657175697265640000000000000000000000000000000000005f82015250565b5f6115e1600e83611073565b91506115ec826115ad565b602082019050919050565b5f6020820190508181035f83015261160e816115d5565b9050919050565b7f4e6f206f7665726c61797320746f20706f7000000000000000000000000000005f82015250565b5f611649601283611073565b915061165482611615565b602082019050919050565b5f6020820190508181035f8301526116768161163d565b9050919050565b7f4e487b71000000000000000000000000000000000000000000000000000000005f52601160045260245ffd5b5f6116b4826112e6565b91506116bf836112e6565b92508282039050818111156116d7576116d661167d565b5b92915050565b7f4e487b71000000000000000000000000000000000000000000000000000000005f52603260045260245ffd5b7f4e487b71000000000000000000000000000000000000000000000000000000005f52603160045260245ffd5b7f5a6f6e65206e6f742061737369676e65640000000000000000000000000000005f82015250565b5f61176b601183611073565b915061177682611737565b602082019050919050565b5f6020820190508181035f8301526117988161175f565b9050919050565b5f6117a982610ed9565b6117b38185611073565b93506117c3818560208601610ef3565b6117cc81610be3565b840191505092915050565b5f6040820190508181035f8301526117ee81611505565b90508181036020830152611802818461179f565b905092915050565b7f4f7665726c6179207265662072657175697265640000000000000000000000005f82015250565b5f61183e601483611073565b91506118498261180a565b602082019050919050565b5f6020820190508181035f83015261186b81611832565b905091905056fea2646970667358221220e2ee9b404c563c4d53f24d27657845d1b7848e2fe8093ca8c6e715557cdbcfe664736f6c63430008140033","linkReferences":{}},"methodIdentifiers":{"assignToZone(bytes32,string,string)":"1012bebb","clearZone(bytes32,string)":"90ada5e8","initialize(bytes32,string)":"22ab2d75","popOverlay(bytes32)":"3ea534d0","pushOverlay(bytes32,string)":"d2af8b16"},"id":242}