{"abi":[{"type":"function","name":"connect","inputs":[{"name":"sourceId","type":"bytes32","internalType":"bytes32"}],"outputs":[],"stateMutability":"nonpayable"},{"type":"function","name":"deactivate","inputs":[{"name":"sourceId","type":"bytes32","internalType":"bytes32"}],"outputs":[],"stateMutability":"nonpayable"},{"type":"function","name":"discover","inputs":[{"name":"sourceId","type":"bytes32","internalType":"bytes32"}],"outputs":[{"name":"status","type":"string","internalType":"string"}],"stateMutability":"view"},{"type":"function","name":"getSource","inputs":[{"name":"sourceId","type":"bytes32","internalType":"bytes32"}],"outputs":[{"name":"","type":"tuple","internalType":"struct DataSource.Source","components":[{"name":"name","type":"string","internalType":"string"},{"name":"uri","type":"string","internalType":"string"},{"name":"credentials","type":"string","internalType":"string"},{"name":"status","type":"string","internalType":"string"},{"name":"lastHealthCheck","type":"uint256","internalType":"uint256"},{"name":"exists","type":"bool","internalType":"bool"}]}],"stateMutability":"view"},{"type":"function","name":"healthCheck","inputs":[{"name":"sourceId","type":"bytes32","internalType":"bytes32"}],"outputs":[],"stateMutability":"nonpayable"},{"type":"function","name":"register","inputs":[{"name":"sourceId","type":"bytes32","internalType":"bytes32"},{"name":"name","type":"string","internalType":"string"},{"name":"uri","type":"string","internalType":"string"},{"name":"credentials","type":"string","internalType":"string"}],"outputs":[],"stateMutability":"nonpayable"},{"type":"function","name":"sourceExists","inputs":[{"name":"sourceId","type":"bytes32","internalType":"bytes32"}],"outputs":[{"name":"","type":"bool","internalType":"bool"}],"stateMutability":"view"},{"type":"event","name":"SourceConnected","inputs":[{"name":"sourceId","type":"bytes32","indexed":true,"internalType":"bytes32"}],"anonymous":false},{"type":"event","name":"SourceDeactivated","inputs":[{"name":"sourceId","type":"bytes32","indexed":true,"internalType":"bytes32"}],"anonymous":false},{"type":"event","name":"SourceRegistered","inputs":[{"name":"sourceId","type":"bytes32","indexed":true,"internalType":"bytes32"},{"name":"name","type":"string","indexed":false,"internalType":"string"}],"anonymous":false}],"bytecode":{"object":"0x608060405234801561000f575f80fd5b506113b58061001d5f395ff3fe608060405234801561000f575f80fd5b506004361061007b575f3560e01c80635774bc42116100595780635774bc42146100fb5780637a508409146101175780637c0a8fd614610133578063c528db261461014f5761007b565b80630f9b5d1f1461007f57806322eee84c146100af578063396a4bf1146100cb575b5f80fd5b61009960048036038101906100949190610b36565b61017f565b6040516100a69190610beb565b60405180910390f35b6100c960048036038101906100c49190610b36565b610281565b005b6100e560048036038101906100e09190610b36565b610366565b6040516100f29190610d20565b60405180910390f35b61011560048036038101906101109190610da1565b610652565b005b610131600480360381019061012c9190610b36565b61093e565b005b61014d60048036038101906101489190610b36565b610a23565b005b61016960048036038101906101649190610b36565b610a9d565b6040516101769190610e74565b60405180910390f35b60605f808381526020019081526020015f206005015f9054906101000a900460ff166101e0576040517f08c379a00000000000000000000000000000000000000000000000000000000081526004016101d790610ed7565b60405180910390fd5b5f808381526020019081526020015f2060030180546101fe90610f22565b80601f016020809104026020016040519081016040528092919081815260200182805461022a90610f22565b80156102755780601f1061024c57610100808354040283529160200191610275565b820191905f5260205f20905b81548152906001019060200180831161025857829003601f168201915b50505050509050919050565b5f808281526020019081526020015f206005015f9054906101000a900460ff166102e0576040517f08c379a00000000000000000000000000000000000000000000000000000000081526004016102d790610ed7565b60405180910390fd5b6040518060400160405280600881526020017f696e6163746976650000000000000000000000000000000000000000000000008152505f808381526020019081526020015f206003019081610335919061111c565b50807f3f50011980aabc958c54e907ef19ad1225f0022077b1950879d738619839eeb960405160405180910390a250565b61036e610ac5565b5f808381526020019081526020015f206005015f9054906101000a900460ff166103cd576040517f08c379a00000000000000000000000000000000000000000000000000000000081526004016103c490610ed7565b60405180910390fd5b5f808381526020019081526020015f206040518060c00160405290815f820180546103f790610f22565b80601f016020809104026020016040519081016040528092919081815260200182805461042390610f22565b801561046e5780601f106104455761010080835404028352916020019161046e565b820191905f5260205f20905b81548152906001019060200180831161045157829003601f168201915b5050505050815260200160018201805461048790610f22565b80601f01602080910402602001604051908101604052809291908181526020018280546104b390610f22565b80156104fe5780601f106104d5576101008083540402835291602001916104fe565b820191905f5260205f20905b8154815290600101906020018083116104e157829003601f168201915b5050505050815260200160028201805461051790610f22565b80601f016020809104026020016040519081016040528092919081815260200182805461054390610f22565b801561058e5780601f106105655761010080835404028352916020019161058e565b820191905f5260205f20905b81548152906001019060200180831161057157829003601f168201915b505050505081526020016003820180546105a790610f22565b80601f01602080910402602001604051908101604052809291908181526020018280546105d390610f22565b801561061e5780601f106105f55761010080835404028352916020019161061e565b820191905f5260205f20905b81548152906001019060200180831161060157829003601f168201915b5050505050815260200160048201548152602001600582015f9054906101000a900460ff1615151515815250509050919050565b5f801b8703610696576040517f08c379a000000000000000000000000000000000000000000000000000000000815260040161068d90611235565b60405180910390fd5b5f808881526020019081526020015f206005015f9054906101000a900460ff16156106f6576040517f08c379a00000000000000000000000000000000000000000000000000000000081526004016106ed9061129d565b60405180910390fd5b5f868690501161073b576040517f08c379a000000000000000000000000000000000000000000000000000000000815260040161073290611305565b60405180910390fd5b6040518060c0016040528087878080601f0160208091040260200160405190810160405280939291908181526020018383808284375f81840152601f19601f82011690508083019250505050505050815260200185858080601f0160208091040260200160405190810160405280939291908181526020018383808284375f81840152601f19601f82011690508083019250505050505050815260200183838080601f0160208091040260200160405190810160405280939291908181526020018383808284375f81840152601f19601f8201169050808301925050505050505081526020016040518060400160405280600a81526020017f726567697374657265640000000000000000000000000000000000000000000081525081526020015f8152602001600115158152505f808981526020019081526020015f205f820151815f01908161088c919061111c565b5060208201518160010190816108a2919061111c565b5060408201518160020190816108b8919061111c565b5060608201518160030190816108ce919061111c565b506080820151816004015560a0820151816005015f6101000a81548160ff021916908315150217905550905050867f1501b0dcc1f1d67baa6f2626a8f5d39eccab16359640ef8e5bb673d39bf26159878760405161092d92919061135d565b60405180910390a250505050505050565b5f808281526020019081526020015f206005015f9054906101000a900460ff1661099d576040517f08c379a000000000000000000000000000000000000000000000000000000000815260040161099490610ed7565b60405180910390fd5b6040518060400160405280600981526020017f636f6e6e656374656400000000000000000000000000000000000000000000008152505f808381526020019081526020015f2060030190816109f2919061111c565b50807fef68cca674d63223ee401a158d32ec138098557ffb69c8f613bc3c2d3337cae660405160405180910390a250565b5f808281526020019081526020015f206005015f9054906101000a900460ff16610a82576040517f08c379a0000000000000000000000000000000000000000000000000000000008152600401610a7990610ed7565b60405180910390fd5b425f808381526020019081526020015f206004018190555050565b5f805f8381526020019081526020015f206005015f9054906101000a900460ff169050919050565b6040518060c00160405280606081526020016060815260200160608152602001606081526020015f81526020015f151581525090565b5f80fd5b5f80fd5b5f819050919050565b610b1581610b03565b8114610b1f575f80fd5b50565b5f81359050610b3081610b0c565b92915050565b5f60208284031215610b4b57610b4a610afb565b5b5f610b5884828501610b22565b91505092915050565b5f81519050919050565b5f82825260208201905092915050565b5f5b83811015610b98578082015181840152602081019050610b7d565b5f8484015250505050565b5f601f19601f8301169050919050565b5f610bbd82610b61565b610bc78185610b6b565b9350610bd7818560208601610b7b565b610be081610ba3565b840191505092915050565b5f6020820190508181035f830152610c038184610bb3565b905092915050565b5f82825260208201905092915050565b5f610c2582610b61565b610c2f8185610c0b565b9350610c3f818560208601610b7b565b610c4881610ba3565b840191505092915050565b5f819050919050565b610c6581610c53565b82525050565b5f8115159050919050565b610c7f81610c6b565b82525050565b5f60c083015f8301518482035f860152610c9f8282610c1b565b91505060208301518482036020860152610cb98282610c1b565b91505060408301518482036040860152610cd38282610c1b565b91505060608301518482036060860152610ced8282610c1b565b9150506080830151610d026080860182610c5c565b5060a0830151610d1560a0860182610c76565b508091505092915050565b5f6020820190508181035f830152610d388184610c85565b905092915050565b5f80fd5b5f80fd5b5f80fd5b5f8083601f840112610d6157610d60610d40565b5b8235905067ffffffffffffffff811115610d7e57610d7d610d44565b5b602083019150836001820283011115610d9a57610d99610d48565b5b9250929050565b5f805f805f805f6080888a031215610dbc57610dbb610afb565b5b5f610dc98a828b01610b22565b975050602088013567ffffffffffffffff811115610dea57610de9610aff565b5b610df68a828b01610d4c565b9650965050604088013567ffffffffffffffff811115610e1957610e18610aff565b5b610e258a828b01610d4c565b9450945050606088013567ffffffffffffffff811115610e4857610e47610aff565b5b610e548a828b01610d4c565b925092505092959891949750929550565b610e6e81610c6b565b82525050565b5f602082019050610e875f830184610e65565b92915050565b7f536f75726365206e6f7420666f756e64000000000000000000000000000000005f82015250565b5f610ec1601083610b6b565b9150610ecc82610e8d565b602082019050919050565b5f6020820190508181035f830152610eee81610eb5565b9050919050565b7f4e487b71000000000000000000000000000000000000000000000000000000005f52602260045260245ffd5b5f6002820490506001821680610f3957607f821691505b602082108103610f4c57610f4b610ef5565b5b50919050565b7f4e487b71000000000000000000000000000000000000000000000000000000005f52604160045260245ffd5b5f819050815f5260205f209050919050565b5f6020601f8301049050919050565b5f82821b905092915050565b5f60088302610fdb7fffffffffffffffffffffffffffffffffffffffffffffffffffffffffffffffff82610fa0565b610fe58683610fa0565b95508019841693508086168417925050509392505050565b5f819050919050565b5f61102061101b61101684610c53565b610ffd565b610c53565b9050919050565b5f819050919050565b61103983611006565b61104d61104582611027565b848454610fac565b825550505050565b5f90565b611061611055565b61106c818484611030565b505050565b5b8181101561108f576110845f82611059565b600181019050611072565b5050565b601f8211156110d4576110a581610f7f565b6110ae84610f91565b810160208510156110bd578190505b6110d16110c985610f91565b830182611071565b50505b505050565b5f82821c905092915050565b5f6110f45f19846008026110d9565b1980831691505092915050565b5f61110c83836110e5565b9150826002028217905092915050565b61112582610b61565b67ffffffffffffffff81111561113e5761113d610f52565b5b6111488254610f22565b611153828285611093565b5f60209050601f831160018114611184575f8415611172578287015190505b61117c8582611101565b8655506111e3565b601f19841661119286610f7f565b5f5b828110156111b957848901518255600182019150602085019450602081019050611194565b868310156111d657848901516111d2601f8916826110e5565b8355505b6001600288020188555050505b505050505050565b7f536f757263652049442063616e6e6f74206265207a65726f00000000000000005f82015250565b5f61121f601883610b6b565b915061122a826111eb565b602082019050919050565b5f6020820190508181035f83015261124c81611213565b9050919050565b7f536f7572636520616c72656164792065786973747300000000000000000000005f82015250565b5f611287601583610b6b565b915061129282611253565b602082019050919050565b5f6020820190508181035f8301526112b48161127b565b9050919050565b7f4e616d652063616e6e6f7420626520656d7074790000000000000000000000005f82015250565b5f6112ef601483610b6b565b91506112fa826112bb565b602082019050919050565b5f6020820190508181035f83015261131c816112e3565b9050919050565b828183375f83830152505050565b5f61133c8385610b6b565b9350611349838584611323565b61135283610ba3565b840190509392505050565b5f6020820190508181035f830152611376818486611331565b9050939250505056fea26469706673582212207ac3fa6df79dc0226a95c09c20aa96e2be851f9c6309b5d3efa54d7384fd88f764736f6c63430008140033","linkReferences":{}},"methodIdentifiers":{"connect(bytes32)":"7a508409","deactivate(bytes32)":"22eee84c","discover(bytes32)":"0f9b5d1f","getSource(bytes32)":"396a4bf1","healthCheck(bytes32)":"7c0a8fd6","register(bytes32,string,string,string)":"5774bc42","sourceExists(bytes32)":"c528db26"},"id":89}