{"abi":[{"type":"function","name":"deploy","inputs":[{"name":"project","type":"bytes32","internalType":"bytes32"},{"name":"sourceDirectory","type":"string","internalType":"string"}],"outputs":[{"name":"","type":"tuple","internalType":"struct VercelRuntime.DeployOkResult","components":[{"name":"success","type":"bool","internalType":"bool"},{"name":"project","type":"bytes32","internalType":"bytes32"},{"name":"deploymentId","type":"string","internalType":"string"},{"name":"deploymentUrl","type":"string","internalType":"string"}]}],"stateMutability":"nonpayable"},{"type":"function","name":"destroy","inputs":[{"name":"project","type":"bytes32","internalType":"bytes32"}],"outputs":[{"name":"","type":"tuple","internalType":"struct VercelRuntime.DestroyOkResult","components":[{"name":"success","type":"bool","internalType":"bool"},{"name":"project","type":"bytes32","internalType":"bytes32"}]}],"stateMutability":"nonpayable"},{"type":"function","name":"provision","inputs":[{"name":"concept","type":"string","internalType":"string"},{"name":"teamId","type":"string","internalType":"string"},{"name":"framework","type":"string","internalType":"string"}],"outputs":[{"name":"","type":"tuple","internalType":"struct VercelRuntime.ProvisionOkResult","components":[{"name":"success","type":"bool","internalType":"bool"},{"name":"project","type":"bytes32","internalType":"bytes32"},{"name":"projectId","type":"string","internalType":"string"},{"name":"endpoint","type":"string","internalType":"string"}]}],"stateMutability":"nonpayable"},{"type":"function","name":"register","inputs":[],"outputs":[{"name":"name","type":"string","internalType":"string"},{"name":"category","type":"string","internalType":"string"},{"name":"capabilities","type":"string[]","internalType":"string[]"}],"stateMutability":"pure"},{"type":"function","name":"rollback","inputs":[{"name":"project","type":"bytes32","internalType":"bytes32"},{"name":"targetDeploymentId","type":"string","internalType":"string"}],"outputs":[{"name":"","type":"tuple","internalType":"struct VercelRuntime.RollbackOkResult","components":[{"name":"success","type":"bool","internalType":"bool"},{"name":"project","type":"bytes32","internalType":"bytes32"},{"name":"restoredDeploymentId","type":"string","internalType":"string"}]}],"stateMutability":"nonpayable"},{"type":"function","name":"setTrafficWeight","inputs":[{"name":"project","type":"bytes32","internalType":"bytes32"},{"name":"weight","type":"int256","internalType":"int256"}],"outputs":[{"name":"","type":"tuple","internalType":"struct VercelRuntime.SetTrafficWeightOkResult","components":[{"name":"success","type":"bool","internalType":"bool"},{"name":"project","type":"bytes32","internalType":"bytes32"}]}],"stateMutability":"nonpayable"},{"type":"event","name":"DeployCompleted","inputs":[{"name":"variant","type":"string","indexed":false,"internalType":"string"},{"name":"project","type":"bytes32","indexed":false,"internalType":"bytes32"},{"name":"errors","type":"string[]","indexed":false,"internalType":"string[]"}],"anonymous":false},{"type":"event","name":"DestroyCompleted","inputs":[{"name":"variant","type":"string","indexed":false,"internalType":"string"},{"name":"project","type":"bytes32","indexed":false,"internalType":"bytes32"}],"anonymous":false},{"type":"event","name":"ProvisionCompleted","inputs":[{"name":"variant","type":"string","indexed":false,"internalType":"string"},{"name":"project","type":"bytes32","indexed":false,"internalType":"bytes32"}],"anonymous":false},{"type":"event","name":"RollbackCompleted","inputs":[{"name":"variant","type":"string","indexed":false,"internalType":"string"},{"name":"project","type":"bytes32","indexed":false,"internalType":"bytes32"}],"anonymous":false},{"type":"event","name":"SetTrafficWeightCompleted","inputs":[{"name":"variant","type":"string","indexed":false,"internalType":"string"},{"name":"project","type":"bytes32","indexed":false,"internalType":"bytes32"}],"anonymous":false}],"bytecode":{"object":"0x608060405234801561000f575f80fd5b506122188061001d5f395ff3fe608060405234801561000f575f80fd5b5060043610610060575f3560e01c80631aa3a008146100645780636e0bd282146100845780637855131d146100b45780638388d229146100e4578063a96ceeb014610114578063c416a8cf14610144575b5f80fd5b61006c610174565b60405161007b9392919061101a565b60405180910390f35b61009e600480360381019061009991906110a8565b6103e7565b6040516100ab9190611129565b60405180910390f35b6100ce60048036038101906100c9919061126e565b610515565b6040516100db9190611315565b60405180910390f35b6100fe60048036038101906100f99190611368565b610639565b60405161010b91906113d3565b60405180910390f35b61012e600480360381019061012991906113ec565b61075b565b60405161013b91906114f7565b60405180910390f35b61015e6004803603810190610159919061126e565b6109a3565b60405161016b919061157e565b60405180910390f35b60608060606040518060400160405280600681526020017f76657263656c000000000000000000000000000000000000000000000000000081525092506040518060400160405280600781526020017f72756e74696d65000000000000000000000000000000000000000000000000008152509150600567ffffffffffffffff8111156102045761020361114a565b5b60405190808252806020026020018201604052801561023757816020015b60608152602001906001900390816102225790505b5090506040518060400160405280600981526020017f70726f766973696f6e0000000000000000000000000000000000000000000000815250815f815181106102835761028261159e565b5b60200260200101819052506040518060400160405280600681526020017f6465706c6f790000000000000000000000000000000000000000000000000000815250816001815181106102d8576102d761159e565b5b60200260200101819052506040518060400160405280601081526020017f73657454726166666963576569676874000000000000000000000000000000008152508160028151811061032d5761032c61159e565b5b60200260200101819052506040518060400160405280600881526020017f726f6c6c6261636b000000000000000000000000000000000000000000000000815250816003815181106103825761038161159e565b5b60200260200101819052506040518060400160405280600781526020017f64657374726f7900000000000000000000000000000000000000000000000000815250816004815181106103d7576103d661159e565b5b6020026020010181905250909192565b6103ef610d44565b60015f8381526020019081526020015f205f9054906101000a900460ff1661044c576040517f08c379a000000000000000000000000000000000000000000000000000000000815260040161044390611615565b60405180910390fd5b5f60015f8481526020019081526020015f205f6101000a81548160ff0219169083151502179055505f808381526020019081526020015f205f61048f9190610d61565b60035f8381526020019081526020015f205f6104ab9190610d9e565b60045f8381526020019081526020015f205f90557f5f91d6f5b071e1c01422208aefdc94722551cb418c8c493cbd4fa563938bc5d0826040516104ee919061168c565b60405180910390a16040518060400160405280600115158152602001838152509050919050565b61051d610ddb565b60015f8481526020019081526020015f205f9054906101000a900460ff1661057a576040517f08c379a000000000000000000000000000000000000000000000000000000000815260040161057190611615565b60405180910390fd5b5f8251116105bd576040517f08c379a00000000000000000000000000000000000000000000000000000000081526004016105b490611728565b60405180910390fd5b8160035f8581526020019081526020015f2090816105db9190611949565b507fd7216dc6f75dc5ba9c492a95dab64aa01aaf14ccb27b9a38cc0ea55b5980b34f8360405161060b919061168c565b60405180910390a1604051806060016040528060011515815260200184815260200183815250905092915050565b610641610dff565b60015f8481526020019081526020015f205f9054906101000a900460ff1661069e576040517f08c379a000000000000000000000000000000000000000000000000000000000815260040161069590611615565b60405180910390fd5b5f82121580156106af575060648213155b6106ee576040517f08c379a00000000000000000000000000000000000000000000000000000000081526004016106e590611a62565b60405180910390fd5b8160045f8581526020019081526020015f20819055507fe3818c8f29f23fa7dae9a0884fe04d7bb4770020f95d48f6e3d93dc214eef73283604051610733919061168c565b60405180910390a1604051806040016040528060011515815260200184815250905092915050565b610763610e1c565b5f8451116107a6576040517f08c379a000000000000000000000000000000000000000000000000000000000815260040161079d90611aca565b60405180910390fd5b5f8351116107e9576040517f08c379a00000000000000000000000000000000000000000000000000000000081526004016107e090611b32565b60405180910390fd5b5f84846040516020016107fd929190611b8a565b6040516020818303038152906040528051906020012090508484844260405160200161082c9493929190611bbc565b6040516020818303038152906040525f808381526020019081526020015f2090816108579190611c76565b5060015f8281526020019081526020015f205f9054906101000a900460ff166108f6576001805f8381526020019081526020015f205f6101000a81548160ff021916908315150217905550600281908060018154018082558091505060019003905f5260205f20015f90919091909150555f60055f8381526020019081526020015f2081905550606460045f8381526020019081526020015f20819055505b5f856040516020016109089190611d8f565b60405160208183030381529060405290505f8660405160200161092b9190611e44565b60405160208183030381529060405290507fe7ba298fd4b65faaecaa247132b454d0c8aac6d7bffe755ede2830a2108f83188360405161096b919061168c565b60405180910390a160405180608001604052806001151581526020018481526020018381526020018281525093505050509392505050565b6109ab610e47565b60015f8481526020019081526020015f205f9054906101000a900460ff16610a08576040517f08c379a00000000000000000000000000000000000000000000000000000000081526004016109ff90611ee0565b60405180910390fd5b5f825111610a4b576040517f08c379a0000000000000000000000000000000000000000000000000000000008152600401610a4290611f6e565b60405180910390fd5b600160055f8581526020019081526020015f205f828254610a6c9190611fb9565b925050819055505f610a8e60055f8681526020019081526020015f2054610beb565b604051602001610a9e9190612036565b60405160208183030381529060405290508060035f8681526020019081526020015f209081610acd9190611949565b50828142604051602001610ae393929190612057565b6040516020818303038152906040525f808681526020019081526020015f209081610b0e9190611c76565b505f81604051602001610b219190611e44565b60405160208183030381529060405290505f8067ffffffffffffffff811115610b4d57610b4c61114a565b5b604051908082528060200260200182016040528015610b8057816020015b6060815260200190600190039081610b6b5790505b5090507f70e310fe0166551291d699e055f658113c805731994f69e39ad489a3328834278682604051610bb492919061209a565b60405180910390a1604051806080016040528060011515815260200187815260200184815260200183815250935050505092915050565b60605f8203610c31576040518060400160405280600181526020017f30000000000000000000000000000000000000000000000000000000000000008152509050610d3f565b5f8290505f5b5f8214610c60578080610c49906120db565b915050600a82610c59919061214f565b9150610c37565b5f8167ffffffffffffffff811115610c7b57610c7a61114a565b5b6040519080825280601f01601f191660200182016040528015610cad5781602001600182028036833780820191505090505b5090505b5f8514610d3857600182610cc5919061217f565b9150600a85610cd491906121b2565b6030610ce09190611fb9565b60f81b818381518110610cf657610cf561159e565b5b60200101907effffffffffffffffffffffffffffffffffffffffffffffffffffffffffffff191690815f1a905350600a85610d31919061214f565b9450610cb1565b8093505050505b919050565b60405180604001604052805f151581526020015f80191681525090565b508054610d6d90611773565b5f825580601f10610d7e5750610d9b565b601f0160209004905f5260205f2090810190610d9a9190610e72565b5b50565b508054610daa90611773565b5f825580601f10610dbb5750610dd8565b601f0160209004905f5260205f2090810190610dd79190610e72565b5b50565b60405180606001604052805f151581526020015f8019168152602001606081525090565b60405180604001604052805f151581526020015f80191681525090565b60405180608001604052805f151581526020015f801916815260200160608152602001606081525090565b60405180608001604052805f151581526020015f801916815260200160608152602001606081525090565b5b80821115610e89575f815f905550600101610e73565b5090565b5f81519050919050565b5f82825260208201905092915050565b5f5b83811015610ec4578082015181840152602081019050610ea9565b5f8484015250505050565b5f601f19601f8301169050919050565b5f610ee982610e8d565b610ef38185610e97565b9350610f03818560208601610ea7565b610f0c81610ecf565b840191505092915050565b5f81519050919050565b5f82825260208201905092915050565b5f819050602082019050919050565b5f82825260208201905092915050565b5f610f5a82610e8d565b610f648185610f40565b9350610f74818560208601610ea7565b610f7d81610ecf565b840191505092915050565b5f610f938383610f50565b905092915050565b5f602082019050919050565b5f610fb182610f17565b610fbb8185610f21565b935083602082028501610fcd85610f31565b805f5b858110156110085784840389528151610fe98582610f88565b9450610ff483610f9b565b925060208a01995050600181019050610fd0565b50829750879550505050505092915050565b5f6060820190508181035f8301526110328186610edf565b905081810360208301526110468185610edf565b9050818103604083015261105a8184610fa7565b9050949350505050565b5f604051905090565b5f80fd5b5f80fd5b5f819050919050565b61108781611075565b8114611091575f80fd5b50565b5f813590506110a28161107e565b92915050565b5f602082840312156110bd576110bc61106d565b5b5f6110ca84828501611094565b91505092915050565b5f8115159050919050565b6110e7816110d3565b82525050565b6110f681611075565b82525050565b604082015f8201516111105f8501826110de565b50602082015161112360208501826110ed565b50505050565b5f60408201905061113c5f8301846110fc565b92915050565b5f80fd5b5f80fd5b7f4e487b71000000000000000000000000000000000000000000000000000000005f52604160045260245ffd5b61118082610ecf565b810181811067ffffffffffffffff8211171561119f5761119e61114a565b5b80604052505050565b5f6111b1611064565b90506111bd8282611177565b919050565b5f67ffffffffffffffff8211156111dc576111db61114a565b5b6111e582610ecf565b9050602081019050919050565b828183375f83830152505050565b5f61121261120d846111c2565b6111a8565b90508281526020810184848401111561122e5761122d611146565b5b6112398482856111f2565b509392505050565b5f82601f83011261125557611254611142565b5b8135611265848260208601611200565b91505092915050565b5f80604083850312156112845761128361106d565b5b5f61129185828601611094565b925050602083013567ffffffffffffffff8111156112b2576112b1611071565b5b6112be85828601611241565b9150509250929050565b5f606083015f8301516112dd5f8601826110de565b5060208301516112f060208601826110ed565b50604083015184820360408601526113088282610f50565b9150508091505092915050565b5f6020820190508181035f83015261132d81846112c8565b905092915050565b5f819050919050565b61134781611335565b8114611351575f80fd5b50565b5f813590506113628161133e565b92915050565b5f806040838503121561137e5761137d61106d565b5b5f61138b85828601611094565b925050602061139c85828601611354565b9150509250929050565b604082015f8201516113ba5f8501826110de565b5060208201516113cd60208501826110ed565b50505050565b5f6040820190506113e65f8301846113a6565b92915050565b5f805f606084860312156114035761140261106d565b5b5f84013567ffffffffffffffff8111156114205761141f611071565b5b61142c86828701611241565b935050602084013567ffffffffffffffff81111561144d5761144c611071565b5b61145986828701611241565b925050604084013567ffffffffffffffff81111561147a57611479611071565b5b61148686828701611241565b9150509250925092565b5f608083015f8301516114a55f8601826110de565b5060208301516114b860208601826110ed565b50604083015184820360408601526114d08282610f50565b915050606083015184820360608601526114ea8282610f50565b9150508091505092915050565b5f6020820190508181035f83015261150f8184611490565b905092915050565b5f608083015f83015161152c5f8601826110de565b50602083015161153f60208601826110ed565b50604083015184820360408601526115578282610f50565b915050606083015184820360608601526115718282610f50565b9150508091505092915050565b5f6020820190508181035f8301526115968184611517565b905092915050565b7f4e487b71000000000000000000000000000000000000000000000000000000005f52603260045260245ffd5b7f50726f6a656374206e6f7420666f756e640000000000000000000000000000005f82015250565b5f6115ff601183610e97565b915061160a826115cb565b602082019050919050565b5f6020820190508181035f83015261162c816115f3565b9050919050565b7f6f6b0000000000000000000000000000000000000000000000000000000000005f82015250565b5f611667600283610e97565b915061167282611633565b602082019050919050565b61168681611075565b82525050565b5f6040820190508181035f8301526116a38161165b565b90506116b2602083018461167d565b92915050565b7f546172676574206465706c6f796d656e74204944206d757374206e6f742062655f8201527f20656d7074790000000000000000000000000000000000000000000000000000602082015250565b5f611712602683610e97565b915061171d826116b8565b604082019050919050565b5f6020820190508181035f83015261173f81611706565b9050919050565b7f4e487b71000000000000000000000000000000000000000000000000000000005f52602260045260245ffd5b5f600282049050600182168061178a57607f821691505b60208210810361179d5761179c611746565b5b50919050565b5f819050815f5260205f209050919050565b5f6020601f8301049050919050565b5f82821b905092915050565b5f600883026117ff7fffffffffffffffffffffffffffffffffffffffffffffffffffffffffffffffff826117c4565b61180986836117c4565b95508019841693508086168417925050509392505050565b5f819050919050565b5f819050919050565b5f61184d61184861184384611821565b61182a565b611821565b9050919050565b5f819050919050565b61186683611833565b61187a61187282611854565b8484546117d0565b825550505050565b5f90565b61188e611882565b61189981848461185d565b505050565b5b818110156118bc576118b15f82611886565b60018101905061189f565b5050565b601f821115611901576118d2816117a3565b6118db846117b5565b810160208510156118ea578190505b6118fe6118f6856117b5565b83018261189e565b50505b505050565b5f82821c905092915050565b5f6119215f1984600802611906565b1980831691505092915050565b5f6119398383611912565b9150826002028217905092915050565b61195282610e8d565b67ffffffffffffffff81111561196b5761196a61114a565b5b6119758254611773565b6119808282856118c0565b5f60209050601f8311600181146119b1575f841561199f578287015190505b6119a9858261192e565b865550611a10565b601f1984166119bf866117a3565b5f5b828110156119e6578489015182556001820191506020850194506020810190506119c1565b86831015611a0357848901516119ff601f891682611912565b8355505b6001600288020188555050505b505050505050565b7f576569676874206d75737420626520302d3130300000000000000000000000005f82015250565b5f611a4c601483610e97565b9150611a5782611a18565b602082019050919050565b5f6020820190508181035f830152611a7981611a40565b9050919050565b7f436f6e63657074206d757374206e6f7420626520656d707479000000000000005f82015250565b5f611ab4601983610e97565b9150611abf82611a80565b602082019050919050565b5f6020820190508181035f830152611ae181611aa8565b9050919050565b7f5465616d204944206d757374206e6f7420626520656d707479000000000000005f82015250565b5f611b1c601983610e97565b9150611b2782611ae8565b602082019050919050565b5f6020820190508181035f830152611b4981611b10565b9050919050565b5f81905092915050565b5f611b6482610e8d565b611b6e8185611b50565b9350611b7e818560208601610ea7565b80840191505092915050565b5f611b958285611b5a565b9150611ba18284611b5a565b91508190509392505050565b611bb681611821565b82525050565b5f6080820190508181035f830152611bd48187610edf565b90508181036020830152611be88186610edf565b90508181036040830152611bfc8185610edf565b9050611c0b6060830184611bad565b95945050505050565b5f81519050919050565b5f819050815f5260205f209050919050565b601f821115611c7157611c4281611c1e565b611c4b846117b5565b81016020851015611c5a578190505b611c6e611c66856117b5565b83018261189e565b50505b505050565b611c7f82611c14565b67ffffffffffffffff811115611c9857611c9761114a565b5b611ca28254611773565b611cad828285611c30565b5f60209050601f831160018114611cde575f8415611ccc578287015190505b611cd6858261192e565b865550611d3d565b601f198416611cec86611c1e565b5f5b82811015611d1357848901518255600182019150602085019450602081019050611cee565b86831015611d305784890151611d2c601f891682611912565b8355505b6001600288020188555050505b505050505050565b7f70726a5f000000000000000000000000000000000000000000000000000000005f82015250565b5f611d79600483611b50565b9150611d8482611d45565b600482019050919050565b5f611d9982611d6d565b9150611da58284611b5a565b915081905092915050565b7f68747470733a2f2f0000000000000000000000000000000000000000000000005f82015250565b5f611de4600883611b50565b9150611def82611db0565b600882019050919050565b7f2e76657263656c2e6170700000000000000000000000000000000000000000005f82015250565b5f611e2e600b83611b50565b9150611e3982611dfa565b600b82019050919050565b5f611e4e82611dd8565b9150611e5a8284611b5a565b9150611e6582611e22565b915081905092915050565b7f50726f6a656374206e6f7420666f756e64202d2070726f766973696f6e2066695f8201527f7273740000000000000000000000000000000000000000000000000000000000602082015250565b5f611eca602383610e97565b9150611ed582611e70565b604082019050919050565b5f6020820190508181035f830152611ef781611ebe565b9050919050565b7f536f75726365206469726563746f7279206d757374206e6f7420626520656d705f8201527f7479000000000000000000000000000000000000000000000000000000000000602082015250565b5f611f58602283610e97565b9150611f6382611efe565b604082019050919050565b5f6020820190508181035f830152611f8581611f4c565b9050919050565b7f4e487b71000000000000000000000000000000000000000000000000000000005f52601160045260245ffd5b5f611fc382611821565b9150611fce83611821565b9250828201905080821115611fe657611fe5611f8c565b5b92915050565b7f64706c5f000000000000000000000000000000000000000000000000000000005f82015250565b5f612020600483611b50565b915061202b82611fec565b600482019050919050565b5f61204082612014565b915061204c8284611b5a565b915081905092915050565b5f6060820190508181035f83015261206f8186610edf565b905081810360208301526120838185610edf565b90506120926040830184611bad565b949350505050565b5f6060820190508181035f8301526120b18161165b565b90506120c0602083018561167d565b81810360408301526120d28184610fa7565b90509392505050565b5f6120e582611821565b91507fffffffffffffffffffffffffffffffffffffffffffffffffffffffffffffffff820361211757612116611f8c565b5b600182019050919050565b7f4e487b71000000000000000000000000000000000000000000000000000000005f52601260045260245ffd5b5f61215982611821565b915061216483611821565b92508261217457612173612122565b5b828204905092915050565b5f61218982611821565b915061219483611821565b92508282039050818111156121ac576121ab611f8c565b5b92915050565b5f6121bc82611821565b91506121c783611821565b9250826121d7576121d6612122565b5b82820690509291505056fea26469706673582212206857aaf0aa0376d89c714c23f896a14e18557ea0fdece6d288269eb0bf714ed464736f6c63430008140033","linkReferences":{}},"methodIdentifiers":{"deploy(bytes32,string)":"c416a8cf","destroy(bytes32)":"6e0bd282","provision(string,string,string)":"a96ceeb0","register()":"1aa3a008","rollback(bytes32,string)":"7855131d","setTrafficWeight(bytes32,int256)":"8388d229"},"id":326}