{"abi":[{"type":"function","name":"execute","inputs":[{"name":"planId","type":"bytes32","internalType":"bytes32"}],"outputs":[{"name":"","type":"tuple","internalType":"struct DeployPlan.ExecuteOkResult","components":[{"name":"success","type":"bool","internalType":"bool"},{"name":"plan","type":"bytes32","internalType":"bytes32"},{"name":"duration","type":"int256","internalType":"int256"},{"name":"nodesDeployed","type":"int256","internalType":"int256"}]}],"stateMutability":"nonpayable"},{"type":"function","name":"plan","inputs":[{"name":"manifest","type":"string","internalType":"string"},{"name":"environment","type":"string","internalType":"string"}],"outputs":[{"name":"","type":"tuple","internalType":"struct DeployPlan.PlanOkResult","components":[{"name":"success","type":"bool","internalType":"bool"},{"name":"plan","type":"bytes32","internalType":"bytes32"},{"name":"graph","type":"string","internalType":"string"},{"name":"estimatedDuration","type":"int256","internalType":"int256"}]}],"stateMutability":"nonpayable"},{"type":"function","name":"rollback","inputs":[{"name":"planId","type":"bytes32","internalType":"bytes32"}],"outputs":[{"name":"","type":"tuple","internalType":"struct DeployPlan.RollbackOkResult","components":[{"name":"success","type":"bool","internalType":"bool"},{"name":"plan","type":"bytes32","internalType":"bytes32"},{"name":"rolledBack","type":"string[]","internalType":"string[]"}]}],"stateMutability":"nonpayable"},{"type":"function","name":"status","inputs":[{"name":"planId","type":"bytes32","internalType":"bytes32"}],"outputs":[{"name":"","type":"tuple","internalType":"struct DeployPlan.StatusOkResult","components":[{"name":"success","type":"bool","internalType":"bool"},{"name":"plan","type":"bytes32","internalType":"bytes32"},{"name":"phase","type":"string","internalType":"string"},{"name":"progress","type":"uint256","internalType":"uint256"},{"name":"activeNodes","type":"string[]","internalType":"string[]"}]}],"stateMutability":"nonpayable"},{"type":"function","name":"validate","inputs":[{"name":"planId","type":"bytes32","internalType":"bytes32"}],"outputs":[{"name":"","type":"tuple","internalType":"struct DeployPlan.ValidateOkResult","components":[{"name":"success","type":"bool","internalType":"bool"},{"name":"plan","type":"bytes32","internalType":"bytes32"},{"name":"warnings","type":"string[]","internalType":"string[]"}]}],"stateMutability":"nonpayable"},{"type":"event","name":"ExecuteCompleted","inputs":[{"name":"variant","type":"string","indexed":false,"internalType":"string"},{"name":"plan","type":"bytes32","indexed":false,"internalType":"bytes32"},{"name":"duration","type":"int256","indexed":false,"internalType":"int256"},{"name":"nodesDeployed","type":"int256","indexed":false,"internalType":"int256"},{"name":"deployed","type":"string[]","indexed":false,"internalType":"string[]"},{"name":"failed","type":"string[]","indexed":false,"internalType":"string[]"},{"name":"rolledBack","type":"string[]","indexed":false,"internalType":"string[]"},{"name":"stuck","type":"string[]","indexed":false,"internalType":"string[]"}],"anonymous":false},{"type":"event","name":"PlanCompleted","inputs":[{"name":"variant","type":"string","indexed":false,"internalType":"string"},{"name":"plan","type":"bytes32","indexed":false,"internalType":"bytes32"},{"name":"estimatedDuration","type":"int256","indexed":false,"internalType":"int256"},{"name":"errors","type":"string[]","indexed":false,"internalType":"string[]"},{"name":"missing","type":"string[]","indexed":false,"internalType":"string[]"},{"name":"cycle","type":"string[]","indexed":false,"internalType":"string[]"},{"name":"details","type":"string[]","indexed":false,"internalType":"string[]"}],"anonymous":false},{"type":"event","name":"RollbackCompleted","inputs":[{"name":"variant","type":"string","indexed":false,"internalType":"string"},{"name":"plan","type":"bytes32","indexed":false,"internalType":"bytes32"},{"name":"rolledBack","type":"string[]","indexed":false,"internalType":"string[]"},{"name":"stuck","type":"string[]","indexed":false,"internalType":"string[]"}],"anonymous":false},{"type":"event","name":"StatusCompleted","inputs":[{"name":"variant","type":"string","indexed":false,"internalType":"string"},{"name":"plan","type":"bytes32","indexed":false,"internalType":"bytes32"},{"name":"progress","type":"uint256","indexed":false,"internalType":"uint256"},{"name":"activeNodes","type":"string[]","indexed":false,"internalType":"string[]"}],"anonymous":false},{"type":"event","name":"ValidateCompleted","inputs":[{"name":"variant","type":"string","indexed":false,"internalType":"string"},{"name":"plan","type":"bytes32","indexed":false,"internalType":"bytes32"},{"name":"warnings","type":"string[]","indexed":false,"internalType":"string[]"},{"name":"concepts","type":"string[]","indexed":false,"internalType":"string[]"},{"name":"fromVersions","type":"int256[]","indexed":false,"internalType":"int256[]"},{"name":"toVersions","type":"int256[]","indexed":false,"internalType":"int256[]"},{"name":"details","type":"string[]","indexed":false,"internalType":"string[]"}],"anonymous":false}],"bytecode":{"object":"0x608060405234801561000f575f80fd5b506124b78061001d5f395ff3fe608060405234801561000f575f80fd5b5060043610610055575f3560e01c80632e0126981461005957806352ad0d5e14610089578063b9eee6ee146100b9578063cfb13928146100e9578063e751f27114610119575b5f80fd5b610073600480360381019061006e919061117a565b610149565b6040516100809190611360565b60405180910390f35b6100a3600480360381019061009e919061117a565b61040d565b6040516100b09190611412565b60405180910390f35b6100d360048036038101906100ce919061155e565b6107e8565b6040516100e0919061164c565b60405180910390f35b61010360048036038101906100fe919061117a565b610b1d565b60405161011091906116b9565b60405180910390f35b610133600480360381019061012e919061117a565b610e2e565b604051610140919061172c565b60405180910390f35b61015161106a565b60025f8381526020019081526020015f205f9054906101000a900460ff166101ae576040517f08c379a00000000000000000000000000000000000000000000000000000000081526004016101a59061179f565b60405180910390fd5b5f805f8481526020019081526020015f2090505f60058111156101d4576101d36117bd565b5b816004015f9054906101000a900460ff1660058111156101f7576101f66117bd565b5b14610237576040517f08c379a000000000000000000000000000000000000000000000000000000000815260040161022e9061185a565b60405180910390fd5b6001816004015f6101000a81548160ff0219169083600581111561025e5761025d6117bd565b5b02179055505f8067ffffffffffffffff81111561027e5761027d61143a565b5b6040519080825280602002602001820160405280156102b157816020015b606081526020019060019003908161029c5790505b5090505f8067ffffffffffffffff8111156102cf576102ce61143a565b5b60405190808252806020026020018201604052801561030257816020015b60608152602001906001900390816102ed5790505b5090505f8067ffffffffffffffff8111156103205761031f61143a565b5b60405190808252806020026020018201604052801561034e5781602001602082028036833780820191505090505b5090505f8067ffffffffffffffff81111561036c5761036b61143a565b5b60405190808252806020026020018201604052801561039f57816020015b606081526020019060019003908161038a5790505b5090507fb0533fdcff0bc2a6f8d57b1d4fb95f8155ff0f866419e4411039975dcccfd3138785858586866040516103db969594939291906119fc565b60405180910390a160405180606001604052806001151581526020018881526020018581525095505050505050919050565b61041561108e565b60025f8381526020019081526020015f205f9054906101000a900460ff16610472576040517f08c379a00000000000000000000000000000000000000000000000000000000081526004016104699061179f565b60405180910390fd5b5f805f8481526020019081526020015f20905060605f600581111561049a576104996117bd565b5b826004015f9054906101000a900460ff1660058111156104bd576104bc6117bd565b5b036104ff576040518060400160405280600781526020017f63726561746564000000000000000000000000000000000000000000000000008152509050610720565b60016005811115610513576105126117bd565b5b826004015f9054906101000a900460ff166005811115610536576105356117bd565b5b03610578576040518060400160405280600981526020017f76616c6964617465640000000000000000000000000000000000000000000000815250905061071f565b6002600581111561058c5761058b6117bd565b5b826004015f9054906101000a900460ff1660058111156105af576105ae6117bd565b5b036105f1576040518060400160405280600981526020017f657865637574696e670000000000000000000000000000000000000000000000815250905061071e565b60036005811115610605576106046117bd565b5b826004015f9054906101000a900460ff166005811115610628576106276117bd565b5b0361066a576040518060400160405280600981526020017f636f6d706c657465640000000000000000000000000000000000000000000000815250905061071d565b6004600581111561067e5761067d6117bd565b5b826004015f9054906101000a900460ff1660058111156106a1576106a06117bd565b5b036106e3576040518060400160405280600a81526020017f726f6c6c65644261636b00000000000000000000000000000000000000000000815250905061071c565b6040518060400160405280600681526020017f6661696c6564000000000000000000000000000000000000000000000000000081525090505b5b5b5b5b5f8067ffffffffffffffff81111561073b5761073a61143a565b5b60405190808252806020026020018201604052801561076e57816020015b60608152602001906001900390816107595790505b5090507f082cac409f7cc4f85091e4bdf628ee9a9f06a7325bc151748849a4c3b10a7bb1858460050154836040516107a893929190611aa0565b60405180910390a16040518060a0016040528060011515815260200186815260200183815260200184600501548152602001828152509350505050919050565b6107f06110bf565b5f835111610833576040517f08c379a000000000000000000000000000000000000000000000000000000000815260040161082a90611b39565b60405180910390fd5b5f825111610876576040517f08c379a000000000000000000000000000000000000000000000000000000000815260040161086d90611ba1565b60405180910390fd5b5f8383423360405160200161088e9493929190611c8e565b6040516020818303038152906040528051906020012090505f84846040516020016108ba929190611d67565b60405160208183030381529060405290505f600a86516108da9190611dcd565b90506040518061014001604052808781526020018681526020018381526020018281526020015f6005811115610913576109126117bd565b5b81526020015f81526020014281526020015f81526020015f8152602001600115158152505f808581526020019081526020015f205f820151815f01908161095a9190612008565b5060208201518160010190816109709190612008565b5060408201518160020190816109869190612008565b50606082015181600301556080820151816004015f6101000a81548160ff021916908360058111156109bb576109ba6117bd565b5b021790555060a0820151816005015560c0820151816006015560e082015181600701556101008201518160080155610120820151816009015f6101000a81548160ff021916908315150217905550905050600160025f8581526020019081526020015f205f6101000a81548160ff021916908315150217905550600183908060018154018082558091505060019003905f5260205f20015f90919091909150555f8067ffffffffffffffff811115610a7657610a7561143a565b5b604051908082528060200260200182016040528015610aa957816020015b6060815260200190600190039081610a945790505b5090507ffff2b97a97b563602668296baad8d1065e5cd74e4d28ffd5020784828db8ba2d848383848586604051610ae5969594939291906120e6565b60405180910390a160405180608001604052806001151581526020018581526020018481526020018381525094505050505092915050565b610b256110e9565b60025f8381526020019081526020015f205f9054906101000a900460ff16610b82576040517f08c379a0000000000000000000000000000000000000000000000000000000008152600401610b799061179f565b60405180910390fd5b5f805f8481526020019081526020015f20905060036005811115610ba957610ba86117bd565b5b816004015f9054906101000a900460ff166005811115610bcc57610bcb6117bd565b5b1480610c0c575060026005811115610be757610be66117bd565b5b816004015f9054906101000a900460ff166005811115610c0a57610c096117bd565b5b145b610c4b576040517f08c379a0000000000000000000000000000000000000000000000000000000008152600401610c42906121e4565b60405180910390fd5b6004816004015f6101000a81548160ff02191690836005811115610c7257610c716117bd565b5b02179055505f81600501819055505f600167ffffffffffffffff811115610c9c57610c9b61143a565b5b604051908082528060200260200182016040528015610ccf57816020015b6060815260200190600190039081610cba5790505b509050815f018054610ce090611e3b565b80601f0160208091040260200160405190810160405280929190818152602001828054610d0c90611e3b565b8015610d575780601f10610d2e57610100808354040283529160200191610d57565b820191905f5260205f20905b815481529060010190602001808311610d3a57829003601f168201915b5050505050815f81518110610d6f57610d6e612202565b5b60200260200101819052505f8067ffffffffffffffff811115610d9557610d9461143a565b5b604051908082528060200260200182016040528015610dc857816020015b6060815260200190600190039081610db35790505b5090507f7d8c45152fd7ce6e47f4d56cf73a9909d492ada196aff61a8671faf0c0ff2834858383604051610dfe9392919061222f565b60405180910390a16040518060600160405280600115158152602001868152602001838152509350505050919050565b610e3661110d565b60025f8381526020019081526020015f205f9054906101000a900460ff16610e93576040517f08c379a0000000000000000000000000000000000000000000000000000000008152600401610e8a9061179f565b60405180910390fd5b5f805f8481526020019081526020015f20905060016005811115610eba57610eb96117bd565b5b816004015f9054906101000a900460ff166005811115610edd57610edc6117bd565b5b14610f1d576040517f08c379a0000000000000000000000000000000000000000000000000000000008152600401610f14906122f5565b60405180910390fd5b6003816004015f6101000a81548160ff02191690836005811115610f4457610f436117bd565b5b0217905550606481600501819055504281600701819055505f81600601548260070154610f719190612313565b90505f6001600a845f018054610f8690611e3b565b9050610f929190612373565b610f9c91906123a3565b90508083600801819055505f8067ffffffffffffffff811115610fc257610fc161143a565b5b604051908082528060200260200182016040528015610ff557816020015b6060815260200190600190039081610fe05790505b5090507fd21ca79cf17bbd591840bfb76a38d53c9d6ada2770afa3853a6157865fedd7fb8684848485868760405161103397969594939291906123e4565b60405180910390a1604051806080016040528060011515815260200187815260200184815260200183815250945050505050919050565b60405180606001604052805f151581526020015f8019168152602001606081525090565b6040518060a001604052805f151581526020015f8019168152602001606081526020015f8152602001606081525090565b60405180608001604052805f151581526020015f8019168152602001606081526020015f81525090565b60405180606001604052805f151581526020015f8019168152602001606081525090565b60405180608001604052805f151581526020015f80191681526020015f81526020015f81525090565b5f604051905090565b5f80fd5b5f80fd5b5f819050919050565b61115981611147565b8114611163575f80fd5b50565b5f8135905061117481611150565b92915050565b5f6020828403121561118f5761118e61113f565b5b5f61119c84828501611166565b91505092915050565b5f8115159050919050565b6111b9816111a5565b82525050565b6111c881611147565b82525050565b5f81519050919050565b5f82825260208201905092915050565b5f819050602082019050919050565b5f81519050919050565b5f82825260208201905092915050565b5f5b8381101561122e578082015181840152602081019050611213565b5f8484015250505050565b5f601f19601f8301169050919050565b5f611253826111f7565b61125d8185611201565b935061126d818560208601611211565b61127681611239565b840191505092915050565b5f61128c8383611249565b905092915050565b5f602082019050919050565b5f6112aa826111ce565b6112b481856111d8565b9350836020820285016112c6856111e8565b805f5b8581101561130157848403895281516112e28582611281565b94506112ed83611294565b925060208a019950506001810190506112c9565b50829750879550505050505092915050565b5f606083015f8301516113285f8601826111b0565b50602083015161133b60208601826111bf565b506040830151848203604086015261135382826112a0565b9150508091505092915050565b5f6020820190508181035f8301526113788184611313565b905092915050565b5f819050919050565b61139281611380565b82525050565b5f60a083015f8301516113ad5f8601826111b0565b5060208301516113c060208601826111bf565b50604083015184820360408601526113d88282611249565b91505060608301516113ed6060860182611389565b506080830151848203608086015261140582826112a0565b9150508091505092915050565b5f6020820190508181035f83015261142a8184611398565b905092915050565b5f80fd5b5f80fd5b7f4e487b71000000000000000000000000000000000000000000000000000000005f52604160045260245ffd5b61147082611239565b810181811067ffffffffffffffff8211171561148f5761148e61143a565b5b80604052505050565b5f6114a1611136565b90506114ad8282611467565b919050565b5f67ffffffffffffffff8211156114cc576114cb61143a565b5b6114d582611239565b9050602081019050919050565b828183375f83830152505050565b5f6115026114fd846114b2565b611498565b90508281526020810184848401111561151e5761151d611436565b5b6115298482856114e2565b509392505050565b5f82601f83011261154557611544611432565b5b81356115558482602086016114f0565b91505092915050565b5f80604083850312156115745761157361113f565b5b5f83013567ffffffffffffffff81111561159157611590611143565b5b61159d85828601611531565b925050602083013567ffffffffffffffff8111156115be576115bd611143565b5b6115ca85828601611531565b9150509250929050565b5f819050919050565b6115e6816115d4565b82525050565b5f608083015f8301516116015f8601826111b0565b50602083015161161460208601826111bf565b506040830151848203604086015261162c8282611249565b915050606083015161164160608601826115dd565b508091505092915050565b5f6020820190508181035f83015261166481846115ec565b905092915050565b5f606083015f8301516116815f8601826111b0565b50602083015161169460208601826111bf565b50604083015184820360408601526116ac82826112a0565b9150508091505092915050565b5f6020820190508181035f8301526116d1818461166c565b905092915050565b608082015f8201516116ed5f8501826111b0565b50602082015161170060208501826111bf565b50604082015161171360408501826115dd565b50606082015161172660608501826115dd565b50505050565b5f60808201905061173f5f8301846116d9565b92915050565b5f82825260208201905092915050565b7f506c616e206e6f7420666f756e640000000000000000000000000000000000005f82015250565b5f611789600e83611745565b915061179482611755565b602082019050919050565b5f6020820190508181035f8301526117b68161177d565b9050919050565b7f4e487b71000000000000000000000000000000000000000000000000000000005f52602160045260245ffd5b7f506c616e206d75737420626520696e204372656174656420706861736520746f5f8201527f2076616c69646174650000000000000000000000000000000000000000000000602082015250565b5f611844602983611745565b915061184f826117ea565b604082019050919050565b5f6020820190508181035f83015261187181611838565b9050919050565b7f6f6b0000000000000000000000000000000000000000000000000000000000005f82015250565b5f6118ac600283611745565b91506118b782611878565b602082019050919050565b6118cb81611147565b82525050565b5f82825260208201905092915050565b5f6118eb826111ce565b6118f581856118d1565b935083602082028501611907856111e8565b805f5b8581101561194257848403895281516119238582611281565b945061192e83611294565b925060208a0199505060018101905061190a565b50829750879550505050505092915050565b5f81519050919050565b5f82825260208201905092915050565b5f819050602082019050919050565b5f61198883836115dd565b60208301905092915050565b5f602082019050919050565b5f6119aa82611954565b6119b4818561195e565b93506119bf8361196e565b805f5b838110156119ef5781516119d6888261197d565b97506119e183611994565b9250506001810190506119c2565b5085935050505092915050565b5f60e0820190508181035f830152611a13816118a0565b9050611a2260208301896118c2565b8181036040830152611a3481886118e1565b90508181036060830152611a4881876118e1565b90508181036080830152611a5c81866119a0565b905081810360a0830152611a7081856119a0565b905081810360c0830152611a8481846118e1565b9050979650505050505050565b611a9a81611380565b82525050565b5f6080820190508181035f830152611ab7816118a0565b9050611ac660208301866118c2565b611ad36040830185611a91565b8181036060830152611ae581846118e1565b9050949350505050565b7f4d616e6966657374206d757374206e6f7420626520656d7074790000000000005f82015250565b5f611b23601a83611745565b9150611b2e82611aef565b602082019050919050565b5f6020820190508181035f830152611b5081611b17565b9050919050565b7f456e7669726f6e6d656e74206d757374206e6f7420626520656d7074790000005f82015250565b5f611b8b601d83611745565b9150611b9682611b57565b602082019050919050565b5f6020820190508181035f830152611bb881611b7f565b9050919050565b5f81905092915050565b5f611bd3826111f7565b611bdd8185611bbf565b9350611bed818560208601611211565b80840191505092915050565b5f819050919050565b611c13611c0e82611380565b611bf9565b82525050565b5f73ffffffffffffffffffffffffffffffffffffffff82169050919050565b5f611c4282611c19565b9050919050565b5f8160601b9050919050565b5f611c5f82611c49565b9050919050565b5f611c7082611c55565b9050919050565b611c88611c8382611c38565b611c66565b82525050565b5f611c998287611bc9565b9150611ca58286611bc9565b9150611cb18285611c02565b602082019150611cc18284611c77565b60148201915081905095945050505050565b7f67726170683a00000000000000000000000000000000000000000000000000005f82015250565b5f611d07600683611bbf565b9150611d1282611cd3565b600682019050919050565b7f2d3e0000000000000000000000000000000000000000000000000000000000005f82015250565b5f611d51600283611bbf565b9150611d5c82611d1d565b600282019050919050565b5f611d7182611cfb565b9150611d7d8285611bc9565b9150611d8882611d45565b9150611d948284611bc9565b91508190509392505050565b7f4e487b71000000000000000000000000000000000000000000000000000000005f52601160045260245ffd5b5f611dd782611380565b9150611de283611380565b9250828202611df081611380565b91508282048414831517611e0757611e06611da0565b5b5092915050565b7f4e487b71000000000000000000000000000000000000000000000000000000005f52602260045260245ffd5b5f6002820490506001821680611e5257607f821691505b602082108103611e6557611e64611e0e565b5b50919050565b5f819050815f5260205f209050919050565b5f6020601f8301049050919050565b5f82821b905092915050565b5f60088302611ec77fffffffffffffffffffffffffffffffffffffffffffffffffffffffffffffffff82611e8c565b611ed18683611e8c565b95508019841693508086168417925050509392505050565b5f819050919050565b5f611f0c611f07611f0284611380565b611ee9565b611380565b9050919050565b5f819050919050565b611f2583611ef2565b611f39611f3182611f13565b848454611e98565b825550505050565b5f90565b611f4d611f41565b611f58818484611f1c565b505050565b5b81811015611f7b57611f705f82611f45565b600181019050611f5e565b5050565b601f821115611fc057611f9181611e6b565b611f9a84611e7d565b81016020851015611fa9578190505b611fbd611fb585611e7d565b830182611f5d565b50505b505050565b5f82821c905092915050565b5f611fe05f1984600802611fc5565b1980831691505092915050565b5f611ff88383611fd1565b9150826002028217905092915050565b612011826111f7565b67ffffffffffffffff81111561202a5761202961143a565b5b6120348254611e3b565b61203f828285611f7f565b5f60209050601f831160018114612070575f841561205e578287015190505b6120688582611fed565b8655506120cf565b601f19841661207e86611e6b565b5f5b828110156120a557848901518255600182019150602085019450602081019050612080565b868310156120c257848901516120be601f891682611fd1565b8355505b6001600288020188555050505b505050505050565b6120e0816115d4565b82525050565b5f60e0820190508181035f8301526120fd816118a0565b905061210c60208301896118c2565b61211960408301886120d7565b818103606083015261212b81876118e1565b9050818103608083015261213f81866118e1565b905081810360a083015261215381856118e1565b905081810360c083015261216781846118e1565b9050979650505050505050565b7f506c616e206d75737420626520636f6d706c65746564206f72206578656375745f8201527f696e6720746f20726f6c6c6261636b0000000000000000000000000000000000602082015250565b5f6121ce602f83611745565b91506121d982612174565b604082019050919050565b5f6020820190508181035f8301526121fb816121c2565b9050919050565b7f4e487b71000000000000000000000000000000000000000000000000000000005f52603260045260245ffd5b5f6080820190508181035f830152612246816118a0565b905061225560208301866118c2565b818103604083015261226781856118e1565b9050818103606083015261227b81846118e1565b9050949350505050565b7f506c616e206d7573742062652076616c696461746564206265666f72652065785f8201527f65637574696f6e00000000000000000000000000000000000000000000000000602082015250565b5f6122df602783611745565b91506122ea82612285565b604082019050919050565b5f6020820190508181035f83015261230c816122d3565b9050919050565b5f61231d82611380565b915061232883611380565b92508282039050818111156123405761233f611da0565b5b92915050565b7f4e487b71000000000000000000000000000000000000000000000000000000005f52601260045260245ffd5b5f61237d82611380565b915061238883611380565b92508261239857612397612346565b5b828204905092915050565b5f6123ad826115d4565b91506123b8836115d4565b92508282019050828112155f8312168382125f8412151617156123de576123dd611da0565b5b92915050565b5f610100820190508181035f8301526123fc816118a0565b905061240b602083018a6118c2565b61241860408301896120d7565b61242560608301886120d7565b818103608083015261243781876118e1565b905081810360a083015261244b81866118e1565b905081810360c083015261245f81856118e1565b905081810360e083015261247381846118e1565b90509897505050505050505056fea2646970667358221220adc8ea1dcc4718b00db7a1347a91a79bf6f6c4923f50f267f63652775ed54a6d64736f6c63430008140033","linkReferences":{}},"methodIdentifiers":{"execute(bytes32)":"e751f271","plan(string,string)":"b9eee6ee","rollback(bytes32)":"cfb13928","status(bytes32)":"52ad0d5e","validate(bytes32)":"2e012698"},"id":94}