{"abi":[{"type":"function","name":"generate","inputs":[{"name":"projection","type":"string","internalType":"string"},{"name":"config","type":"string","internalType":"string"}],"outputs":[{"name":"","type":"tuple","internalType":"struct CliTarget.GenerateOkResult","components":[{"name":"success","type":"bool","internalType":"bool"},{"name":"commands","type":"string[]","internalType":"string[]"},{"name":"files","type":"string[]","internalType":"string[]"}]}],"stateMutability":"nonpayable"},{"type":"function","name":"listCommands","inputs":[{"name":"concept","type":"string","internalType":"string"}],"outputs":[{"name":"","type":"tuple","internalType":"struct CliTarget.ListCommandsOkResult","components":[{"name":"success","type":"bool","internalType":"bool"},{"name":"commands","type":"string[]","internalType":"string[]"},{"name":"subcommands","type":"string[]","internalType":"string[]"}]}],"stateMutability":"nonpayable"},{"type":"function","name":"register","inputs":[],"outputs":[{"name":"name","type":"string","internalType":"string"},{"name":"category","type":"string","internalType":"string"},{"name":"formats","type":"string[]","internalType":"string[]"}],"stateMutability":"pure"},{"type":"function","name":"validate","inputs":[{"name":"command","type":"bytes32","internalType":"bytes32"}],"outputs":[{"name":"","type":"tuple","internalType":"struct CliTarget.ValidateOkResult","components":[{"name":"success","type":"bool","internalType":"bool"},{"name":"command","type":"bytes32","internalType":"bytes32"}]}],"stateMutability":"nonpayable"},{"type":"event","name":"GenerateCompleted","inputs":[{"name":"variant","type":"string","indexed":false,"internalType":"string"},{"name":"commands","type":"string[]","indexed":false,"internalType":"string[]"},{"name":"files","type":"string[]","indexed":false,"internalType":"string[]"},{"name":"count","type":"int256","indexed":false,"internalType":"int256"}],"anonymous":false},{"type":"event","name":"ListCommandsCompleted","inputs":[{"name":"variant","type":"string","indexed":false,"internalType":"string"},{"name":"commands","type":"string[]","indexed":false,"internalType":"string[]"},{"name":"subcommands","type":"string[]","indexed":false,"internalType":"string[]"}],"anonymous":false},{"type":"event","name":"ValidateCompleted","inputs":[{"name":"variant","type":"string","indexed":false,"internalType":"string"},{"name":"command","type":"bytes32","indexed":false,"internalType":"bytes32"},{"name":"actions","type":"string[]","indexed":false,"internalType":"string[]"}],"anonymous":false}],"bytecode":{"object":"0x608060405234801561000f575f80fd5b506118c48061001d5f395ff3fe608060405234801561000f575f80fd5b506004361061004a575f3560e01c80631aa3a0081461004e5780632e0126981461006e578063632735ad1461009e578063d1a8a56a146100ce575b5f80fd5b6100566100fe565b60405161006593929190610cc5565b60405180910390f35b61008860048036038101906100839190610d53565b610272565b6040516100959190610dd4565b60405180910390f35b6100b860048036038101906100b39190610f19565b610380565b6040516100c59190611066565b60405180910390f35b6100e860048036038101906100e39190611086565b61070b565b6040516100f59190611121565b60405180910390f35b60608060606040518060400160405280600381526020017f636c69000000000000000000000000000000000000000000000000000000000081525092506040518060400160405280601081526020017f696e746572666163652d746172676574000000000000000000000000000000008152509150600267ffffffffffffffff81111561018e5761018d610df5565b5b6040519080825280602002602001820160405280156101c157816020015b60608152602001906001900390816101ac5790505b5090506040518060400160405280600a81526020017f7479706573637269707400000000000000000000000000000000000000000000815250815f8151811061020d5761020c611141565b5b60200260200101819052506040518060400160405280600681526020017f707974686f6e00000000000000000000000000000000000000000000000000008152508160018151811061026257610261611141565b5b6020026020010181905250909192565b61027a610a05565b5f808381526020019081526020015f205f9054906101000a900460ff166102d6576040517f08c379a00000000000000000000000000000000000000000000000000000000081526004016102cd906111b8565b60405180910390fd5b5f8067ffffffffffffffff8111156102f1576102f0610df5565b5b60405190808252806020026020018201604052801561032457816020015b606081526020019060019003908161030f5790505b5090507fcb7115e2f04936f42c4c3a9f9c24867c4719f91611e62e434e90720f447ada02838260405161035892919061122f565b60405180910390a1604051806040016040528060011515815260200184815250915050919050565b610388610a22565b5f8351116103cb576040517f08c379a00000000000000000000000000000000000000000000000000000000081526004016103c2906112ba565b60405180910390fd5b5f83836040516020016103df929190611312565b6040516020818303038152906040528051906020012090505f8460075460405160200161040d92919061135e565b60405160208183030381529060405280519060200120905060075f815480929190610437906113b2565b91905055505f8590505f808381526020019081526020015f205f9054906101000a900460ff166104b05760015f808481526020019081526020015f205f6101000a81548160ff021916908315150217905550600182908060018154018082558091505060019003905f5260205f20015f90919091909150555b8060025f8481526020019081526020015f2090816104ce91906115f3565b508560035f8481526020019081526020015f2090816104ed91906115f3565b505f600167ffffffffffffffff81111561050a57610509610df5565b5b60405190808252806020026020018201604052801561053d57816020015b60608152602001906001900390816105285790505b50905081815f8151811061055457610553611141565b5b60200260200101819052505f600267ffffffffffffffff81111561057b5761057a610df5565b5b6040519080825280602002602001820160405280156105ae57816020015b60608152602001906001900390816105995790505b509050876040516020016105c2919061170c565b604051602081830303815290604052815f815181106105e4576105e3611141565b5b6020026020010181905250876040516020016106009190611777565b6040516020818303038152906040528160018151811061062357610622611141565b5b60200260200101819052508060045f8781526020019081526020015f209080519060200190610653929190610a44565b505f886040516020016106669190611798565b6040516020818303038152906040528051906020012090508260055f8381526020019081526020015f2090805190602001906106a3929190610a44565b507f3ef20a9f16d54982064091b21129dc61df07d821ccb46d32c39463251a5c27ef83835f6040516106d7939291906117f0565b60405180910390a1604051806060016040528060011515815260200184815260200183815250965050505050505092915050565b610713610a9b565b5f826040516020016107259190611798565b6040516020818303038152906040528051906020012090505f60055f8381526020019081526020015f20805480602002602001604051908101604052809291908181526020015f905b82821015610816578382905f5260205f2001805461078b90611426565b80601f01602080910402602001604051908101604052809291908181526020018280546107b790611426565b80156108025780601f106107d957610100808354040283529160200191610802565b820191905f5260205f20905b8154815290600101906020018083116107e557829003601f168201915b50505050508152602001906001019061076e565b5050505090505f60065f8481526020019081526020015f20805480602002602001604051908101604052809291908181526020015f905b828210156108f5578382905f5260205f2001805461086a90611426565b80601f016020809104026020016040519081016040528092919081815260200182805461089690611426565b80156108e15780601f106108b8576101008083540402835291602001916108e1565b820191905f5260205f20905b8154815290600101906020018083116108c457829003601f168201915b50505050508152602001906001019061084d565b5050505090505f8251036109a4575f67ffffffffffffffff81111561091d5761091c610df5565b5b60405190808252806020026020018201604052801561095057816020015b606081526020019060019003908161093b5790505b5091505f67ffffffffffffffff81111561096d5761096c610df5565b5b6040519080825280602002602001820160405280156109a057816020015b606081526020019060019003908161098b5790505b5090505b7f4fd3a0bb48f721aaf342e9cd767d0d3ef73fad47457da0d6824169b0447c83e482826040516109d5929190611846565b60405180910390a16040518060600160405280600115158152602001838152602001828152509350505050919050565b60405180604001604052805f151581526020015f80191681525090565b60405180606001604052805f1515815260200160608152602001606081525090565b828054828255905f5260205f20908101928215610a8a579160200282015b82811115610a89578251829081610a7991906115f3565b5091602001919060010190610a62565b5b509050610a979190610abd565b5090565b60405180606001604052805f1515815260200160608152602001606081525090565b5b80821115610adc575f8181610ad39190610ae0565b50600101610abe565b5090565b508054610aec90611426565b5f825580601f10610afd5750610b1a565b601f0160209004905f5260205f2090810190610b199190610b1d565b5b50565b5b80821115610b34575f815f905550600101610b1e565b5090565b5f81519050919050565b5f82825260208201905092915050565b5f5b83811015610b6f578082015181840152602081019050610b54565b5f8484015250505050565b5f601f19601f8301169050919050565b5f610b9482610b38565b610b9e8185610b42565b9350610bae818560208601610b52565b610bb781610b7a565b840191505092915050565b5f81519050919050565b5f82825260208201905092915050565b5f819050602082019050919050565b5f82825260208201905092915050565b5f610c0582610b38565b610c0f8185610beb565b9350610c1f818560208601610b52565b610c2881610b7a565b840191505092915050565b5f610c3e8383610bfb565b905092915050565b5f602082019050919050565b5f610c5c82610bc2565b610c668185610bcc565b935083602082028501610c7885610bdc565b805f5b85811015610cb35784840389528151610c948582610c33565b9450610c9f83610c46565b925060208a01995050600181019050610c7b565b50829750879550505050505092915050565b5f6060820190508181035f830152610cdd8186610b8a565b90508181036020830152610cf18185610b8a565b90508181036040830152610d058184610c52565b9050949350505050565b5f604051905090565b5f80fd5b5f80fd5b5f819050919050565b610d3281610d20565b8114610d3c575f80fd5b50565b5f81359050610d4d81610d29565b92915050565b5f60208284031215610d6857610d67610d18565b5b5f610d7584828501610d3f565b91505092915050565b5f8115159050919050565b610d9281610d7e565b82525050565b610da181610d20565b82525050565b604082015f820151610dbb5f850182610d89565b506020820151610dce6020850182610d98565b50505050565b5f604082019050610de75f830184610da7565b92915050565b5f80fd5b5f80fd5b7f4e487b71000000000000000000000000000000000000000000000000000000005f52604160045260245ffd5b610e2b82610b7a565b810181811067ffffffffffffffff82111715610e4a57610e49610df5565b5b80604052505050565b5f610e5c610d0f565b9050610e688282610e22565b919050565b5f67ffffffffffffffff821115610e8757610e86610df5565b5b610e9082610b7a565b9050602081019050919050565b828183375f83830152505050565b5f610ebd610eb884610e6d565b610e53565b905082815260208101848484011115610ed957610ed8610df1565b5b610ee4848285610e9d565b509392505050565b5f82601f830112610f0057610eff610ded565b5b8135610f10848260208601610eab565b91505092915050565b5f8060408385031215610f2f57610f2e610d18565b5b5f83013567ffffffffffffffff811115610f4c57610f4b610d1c565b5b610f5885828601610eec565b925050602083013567ffffffffffffffff811115610f7957610f78610d1c565b5b610f8585828601610eec565b9150509250929050565b5f82825260208201905092915050565b5f610fa982610bc2565b610fb38185610f8f565b935083602082028501610fc585610bdc565b805f5b858110156110005784840389528151610fe18582610c33565b9450610fec83610c46565b925060208a01995050600181019050610fc8565b50829750879550505050505092915050565b5f606083015f8301516110275f860182610d89565b506020830151848203602086015261103f8282610f9f565b915050604083015184820360408601526110598282610f9f565b9150508091505092915050565b5f6020820190508181035f83015261107e8184611012565b905092915050565b5f6020828403121561109b5761109a610d18565b5b5f82013567ffffffffffffffff8111156110b8576110b7610d1c565b5b6110c484828501610eec565b91505092915050565b5f606083015f8301516110e25f860182610d89565b50602083015184820360208601526110fa8282610f9f565b915050604083015184820360408601526111148282610f9f565b9150508091505092915050565b5f6020820190508181035f83015261113981846110cd565b905092915050565b7f4e487b71000000000000000000000000000000000000000000000000000000005f52603260045260245ffd5b7f436f6d6d616e64206e6f7420666f756e640000000000000000000000000000005f82015250565b5f6111a2601183610b42565b91506111ad8261116e565b602082019050919050565b5f6020820190508181035f8301526111cf81611196565b9050919050565b7f6f6b0000000000000000000000000000000000000000000000000000000000005f82015250565b5f61120a600283610b42565b9150611215826111d6565b602082019050919050565b61122981610d20565b82525050565b5f6060820190508181035f830152611246816111fe565b90506112556020830185611220565b81810360408301526112678184610c52565b90509392505050565b7f50726f6a656374696f6e2063616e6e6f7420626520656d7074790000000000005f82015250565b5f6112a4601a83610b42565b91506112af82611270565b602082019050919050565b5f6020820190508181035f8301526112d181611298565b9050919050565b5f81905092915050565b5f6112ec82610b38565b6112f681856112d8565b9350611306818560208601610b52565b80840191505092915050565b5f61131d82856112e2565b915061132982846112e2565b91508190509392505050565b5f819050919050565b5f819050919050565b61135861135382611335565b61133e565b82525050565b5f61136982856112e2565b91506113758284611347565b6020820191508190509392505050565b7f4e487b71000000000000000000000000000000000000000000000000000000005f52601160045260245ffd5b5f6113bc82611335565b91507fffffffffffffffffffffffffffffffffffffffffffffffffffffffffffffffff82036113ee576113ed611385565b5b600182019050919050565b7f4e487b71000000000000000000000000000000000000000000000000000000005f52602260045260245ffd5b5f600282049050600182168061143d57607f821691505b6020821081036114505761144f6113f9565b5b50919050565b5f819050815f5260205f209050919050565b5f6020601f8301049050919050565b5f82821b905092915050565b5f600883026114b27fffffffffffffffffffffffffffffffffffffffffffffffffffffffffffffffff82611477565b6114bc8683611477565b95508019841693508086168417925050509392505050565b5f819050919050565b5f6114f76114f26114ed84611335565b6114d4565b611335565b9050919050565b5f819050919050565b611510836114dd565b61152461151c826114fe565b848454611483565b825550505050565b5f90565b61153861152c565b611543818484611507565b505050565b5b818110156115665761155b5f82611530565b600181019050611549565b5050565b601f8211156115ab5761157c81611456565b61158584611468565b81016020851015611594578190505b6115a86115a085611468565b830182611548565b50505b505050565b5f82821c905092915050565b5f6115cb5f19846008026115b0565b1980831691505092915050565b5f6115e383836115bc565b9150826002028217905092915050565b6115fc82610b38565b67ffffffffffffffff81111561161557611614610df5565b5b61161f8254611426565b61162a82828561156a565b5f60209050601f83116001811461165b575f8415611649578287015190505b61165385826115d8565b8655506116ba565b601f19841661166986611456565b5f5b828110156116905784890151825560018201915060208501945060208101905061166b565b868310156116ad57848901516116a9601f8916826115bc565b8355505b6001600288020188555050505b505050505050565b7f2e636d642e7473000000000000000000000000000000000000000000000000005f82015250565b5f6116f66007836112d8565b9150611701826116c2565b600782019050919050565b5f61171782846112e2565b9150611722826116ea565b915081905092915050565b7f2e636d642e7079000000000000000000000000000000000000000000000000005f82015250565b5f6117616007836112d8565b915061176c8261172d565b600782019050919050565b5f61178282846112e2565b915061178d82611755565b915081905092915050565b5f6117a382846112e2565b915081905092915050565b5f819050919050565b5f819050919050565b5f6117da6117d56117d0846117ae565b6114d4565b6117b7565b9050919050565b6117ea816117c0565b82525050565b5f6080820190508181035f830152611807816111fe565b9050818103602083015261181b8186610c52565b9050818103604083015261182f8185610c52565b905061183e60608301846117e1565b949350505050565b5f6060820190508181035f83015261185d816111fe565b905081810360208301526118718185610c52565b905081810360408301526118858184610c52565b9050939250505056fea2646970667358221220ffb64bc9b517f86baec3c4063d9a503fd4c508157779b39d075e5fadedc0239564736f6c63430008140033","linkReferences":{}},"methodIdentifiers":{"generate(string,string)":"632735ad","listCommands(string)":"d1a8a56a","register()":"1aa3a008","validate(bytes32)":"2e012698"},"id":55}