{"abi":[{"type":"function","name":"createWorkflow","inputs":[{"name":"workflowId","type":"bytes32","internalType":"bytes32"}],"outputs":[],"stateMutability":"nonpayable"},{"type":"function","name":"defineState","inputs":[{"name":"workflowId","type":"bytes32","internalType":"bytes32"},{"name":"stateHash","type":"bytes32","internalType":"bytes32"},{"name":"name","type":"string","internalType":"string"},{"name":"config","type":"string","internalType":"string"}],"outputs":[],"stateMutability":"nonpayable"},{"type":"function","name":"defineTransition","inputs":[{"name":"workflowId","type":"bytes32","internalType":"bytes32"},{"name":"fromState","type":"bytes32","internalType":"bytes32"},{"name":"toState","type":"bytes32","internalType":"bytes32"},{"name":"guard","type":"string","internalType":"string"}],"outputs":[],"stateMutability":"nonpayable"},{"type":"function","name":"getCurrentState","inputs":[{"name":"workflowId","type":"bytes32","internalType":"bytes32"},{"name":"entityId","type":"bytes32","internalType":"bytes32"}],"outputs":[{"name":"","type":"bytes32","internalType":"bytes32"}],"stateMutability":"view"},{"type":"function","name":"getState","inputs":[{"name":"workflowId","type":"bytes32","internalType":"bytes32"},{"name":"stateHash","type":"bytes32","internalType":"bytes32"}],"outputs":[{"name":"","type":"tuple","internalType":"struct Workflow.State","components":[{"name":"name","type":"string","internalType":"string"},{"name":"config","type":"string","internalType":"string"},{"name":"exists","type":"bool","internalType":"bool"}]}],"stateMutability":"view"},{"type":"function","name":"transition","inputs":[{"name":"workflowId","type":"bytes32","internalType":"bytes32"},{"name":"entityId","type":"bytes32","internalType":"bytes32"},{"name":"targetState","type":"bytes32","internalType":"bytes32"}],"outputs":[],"stateMutability":"nonpayable"},{"type":"event","name":"StateDefined","inputs":[{"name":"workflowId","type":"bytes32","indexed":true,"internalType":"bytes32"},{"name":"name","type":"string","indexed":false,"internalType":"string"}],"anonymous":false},{"type":"event","name":"TransitionDefined","inputs":[{"name":"workflowId","type":"bytes32","indexed":true,"internalType":"bytes32"},{"name":"fromState","type":"bytes32","indexed":false,"internalType":"bytes32"},{"name":"toState","type":"bytes32","indexed":false,"internalType":"bytes32"}],"anonymous":false},{"type":"event","name":"Transitioned","inputs":[{"name":"workflowId","type":"bytes32","indexed":true,"internalType":"bytes32"},{"name":"entityId","type":"bytes32","indexed":true,"internalType":"bytes32"},{"name":"fromState","type":"bytes32","indexed":false,"internalType":"bytes32"},{"name":"toState","type":"bytes32","indexed":false,"internalType":"bytes32"}],"anonymous":false},{"type":"event","name":"WorkflowCreated","inputs":[{"name":"workflowId","type":"bytes32","indexed":true,"internalType":"bytes32"}],"anonymous":false}],"bytecode":{"object":"0x608060405234801561000f575f80fd5b506115758061001d5f395ff3fe608060405234801561000f575f80fd5b5060043610610060575f3560e01c806301d9f51a146100645780637698413214610080578063a66396f11461009c578063afe3aed2146100cc578063b3f66033146100e8578063dbf5e06914610118575b5f80fd5b61007e60048036038101906100799190610ae5565b610134565b005b61009a60048036038101906100959190610b69565b610395565b005b6100b660048036038101906100b19190610c0c565b6105cc565b6040516100c39190610d42565b60405180910390f35b6100e660048036038101906100e19190610d62565b6107ad565b005b61010260048036038101906100fd9190610c0c565b6108a8565b60405161010f9190610d9c565b60405180910390f35b610132600480360381019061012d9190610db5565b6108d2565b005b60035f8681526020019081526020015f205f9054906101000a900460ff16610191576040517f08c379a000000000000000000000000000000000000000000000000000000000815260040161018890610e5f565b60405180910390fd5b5f808681526020019081526020015f205f8581526020019081526020015f206002015f9054906101000a900460ff166101ff576040517f08c379a00000000000000000000000000000000000000000000000000000000081526004016101f690610ec7565b60405180910390fd5b5f808681526020019081526020015f205f8481526020019081526020015f206002015f9054906101000a900460ff1661026d576040517f08c379a000000000000000000000000000000000000000000000000000000000815260040161026490610f2f565b60405180910390fd5b60015f8681526020019081526020015f20604051806080016040528086815260200185815260200184848080601f0160208091040260200160405190810160405280939291908181526020018383808284375f81840152601f19601f82011690508083019250505050505050815260200160011515815250908060018154018082558091505060019003905f5260205f2090600402015f909190919091505f820151815f0155602082015181600101556040820151816002019081610332919061117d565b506060820151816003015f6101000a81548160ff0219169083151502179055505050847fba868696b6bc189f15970af6b5513ff6ea7d075b337584fdc2b17866bcf0b2db858560405161038692919061124c565b60405180910390a25050505050565b60035f8781526020019081526020015f205f9054906101000a900460ff166103f2576040517f08c379a00000000000000000000000000000000000000000000000000000000081526004016103e990610e5f565b60405180910390fd5b5f801b8503610436576040517f08c379a000000000000000000000000000000000000000000000000000000000815260040161042d906112bd565b60405180910390fd5b5f848490501161047b576040517f08c379a000000000000000000000000000000000000000000000000000000000815260040161047290611325565b60405180910390fd5b604051806060016040528085858080601f0160208091040260200160405190810160405280939291908181526020018383808284375f81840152601f19601f82011690508083019250505050505050815260200183838080601f0160208091040260200160405190810160405280939291908181526020018383808284375f81840152601f19601f820116905080830192505050505050508152602001600115158152505f808881526020019081526020015f205f8781526020019081526020015f205f820151815f019081610551919061117d565b506020820151816001019081610567919061117d565b506040820151816002015f6101000a81548160ff021916908315150217905550905050857f72a544632e0da5cc6eab4f94d45bb836aaebafb531952468895110a95e9e863985856040516105bc92919061137d565b60405180910390a2505050505050565b6105d4610a27565b5f808481526020019081526020015f205f8381526020019081526020015f206002015f9054906101000a900460ff16610642576040517f08c379a0000000000000000000000000000000000000000000000000000000008152600401610639906113e9565b60405180910390fd5b5f808481526020019081526020015f205f8381526020019081526020015f206040518060600160405290815f8201805461067b90610fa7565b80601f01602080910402602001604051908101604052809291908181526020018280546106a790610fa7565b80156106f25780601f106106c9576101008083540402835291602001916106f2565b820191905f5260205f20905b8154815290600101906020018083116106d557829003601f168201915b5050505050815260200160018201805461070b90610fa7565b80601f016020809104026020016040519081016040528092919081815260200182805461073790610fa7565b80156107825780601f1061075957610100808354040283529160200191610782565b820191905f5260205f20905b81548152906001019060200180831161076557829003601f168201915b50505050508152602001600282015f9054906101000a900460ff161515151581525050905092915050565b5f801b81036107f1576040517f08c379a00000000000000000000000000000000000000000000000000000000081526004016107e890611451565b60405180910390fd5b60035f8281526020019081526020015f205f9054906101000a900460ff161561084f576040517f08c379a0000000000000000000000000000000000000000000000000000000008152600401610846906114b9565b60405180910390fd5b600160035f8381526020019081526020015f205f6101000a81548160ff021916908315150217905550807f8d160cd3658e65c333edc40f10b37c69be90d27baa064d6c80b07e71d505873e60405160405180910390a250565b5f60025f8481526020019081526020015f205f8381526020019081526020015f2054905092915050565b60035f8481526020019081526020015f205f9054906101000a900460ff1661092f576040517f08c379a000000000000000000000000000000000000000000000000000000000815260040161092690610e5f565b60405180910390fd5b5f808481526020019081526020015f205f8281526020019081526020015f206002015f9054906101000a900460ff1661099d576040517f08c379a000000000000000000000000000000000000000000000000000000000815260040161099490611521565b60405180910390fd5b5f60025f8581526020019081526020015f205f8481526020019081526020015f205490508160025f8681526020019081526020015f205f8581526020019081526020015f208190555082847fe309891fd9e5f0bf38fbb0a95078ff40d3ff9212106b0e5d62a93883b0a0cd238385604051610a1992919061124c565b60405180910390a350505050565b604051806060016040528060608152602001606081526020015f151581525090565b5f80fd5b5f80fd5b5f819050919050565b610a6381610a51565b8114610a6d575f80fd5b50565b5f81359050610a7e81610a5a565b92915050565b5f80fd5b5f80fd5b5f80fd5b5f8083601f840112610aa557610aa4610a84565b5b8235905067ffffffffffffffff811115610ac257610ac1610a88565b5b602083019150836001820283011115610ade57610add610a8c565b5b9250929050565b5f805f805f60808688031215610afe57610afd610a49565b5b5f610b0b88828901610a70565b9550506020610b1c88828901610a70565b9450506040610b2d88828901610a70565b935050606086013567ffffffffffffffff811115610b4e57610b4d610a4d565b5b610b5a88828901610a90565b92509250509295509295909350565b5f805f805f8060808789031215610b8357610b82610a49565b5b5f610b9089828a01610a70565b9650506020610ba189828a01610a70565b955050604087013567ffffffffffffffff811115610bc257610bc1610a4d565b5b610bce89828a01610a90565b9450945050606087013567ffffffffffffffff811115610bf157610bf0610a4d565b5b610bfd89828a01610a90565b92509250509295509295509295565b5f8060408385031215610c2257610c21610a49565b5b5f610c2f85828601610a70565b9250506020610c4085828601610a70565b9150509250929050565b5f81519050919050565b5f82825260208201905092915050565b5f5b83811015610c81578082015181840152602081019050610c66565b5f8484015250505050565b5f601f19601f8301169050919050565b5f610ca682610c4a565b610cb08185610c54565b9350610cc0818560208601610c64565b610cc981610c8c565b840191505092915050565b5f8115159050919050565b610ce881610cd4565b82525050565b5f606083015f8301518482035f860152610d088282610c9c565b91505060208301518482036020860152610d228282610c9c565b9150506040830151610d376040860182610cdf565b508091505092915050565b5f6020820190508181035f830152610d5a8184610cee565b905092915050565b5f60208284031215610d7757610d76610a49565b5b5f610d8484828501610a70565b91505092915050565b610d9681610a51565b82525050565b5f602082019050610daf5f830184610d8d565b92915050565b5f805f60608486031215610dcc57610dcb610a49565b5b5f610dd986828701610a70565b9350506020610dea86828701610a70565b9250506040610dfb86828701610a70565b9150509250925092565b5f82825260208201905092915050565b7f576f726b666c6f77206e6f7420666f756e6400000000000000000000000000005f82015250565b5f610e49601283610e05565b9150610e5482610e15565b602082019050919050565b5f6020820190508181035f830152610e7681610e3d565b9050919050565b7f46726f6d207374617465206e6f7420666f756e640000000000000000000000005f82015250565b5f610eb1601483610e05565b9150610ebc82610e7d565b602082019050919050565b5f6020820190508181035f830152610ede81610ea5565b9050919050565b7f546f207374617465206e6f7420666f756e6400000000000000000000000000005f82015250565b5f610f19601283610e05565b9150610f2482610ee5565b602082019050919050565b5f6020820190508181035f830152610f4681610f0d565b9050919050565b7f4e487b71000000000000000000000000000000000000000000000000000000005f52604160045260245ffd5b7f4e487b71000000000000000000000000000000000000000000000000000000005f52602260045260245ffd5b5f6002820490506001821680610fbe57607f821691505b602082108103610fd157610fd0610f7a565b5b50919050565b5f819050815f5260205f209050919050565b5f6020601f8301049050919050565b5f82821b905092915050565b5f600883026110337fffffffffffffffffffffffffffffffffffffffffffffffffffffffffffffffff82610ff8565b61103d8683610ff8565b95508019841693508086168417925050509392505050565b5f819050919050565b5f819050919050565b5f61108161107c61107784611055565b61105e565b611055565b9050919050565b5f819050919050565b61109a83611067565b6110ae6110a682611088565b848454611004565b825550505050565b5f90565b6110c26110b6565b6110cd818484611091565b505050565b5b818110156110f0576110e55f826110ba565b6001810190506110d3565b5050565b601f8211156111355761110681610fd7565b61110f84610fe9565b8101602085101561111e578190505b61113261112a85610fe9565b8301826110d2565b50505b505050565b5f82821c905092915050565b5f6111555f198460080261113a565b1980831691505092915050565b5f61116d8383611146565b9150826002028217905092915050565b61118682610c4a565b67ffffffffffffffff81111561119f5761119e610f4d565b5b6111a98254610fa7565b6111b48282856110f4565b5f60209050601f8311600181146111e5575f84156111d3578287015190505b6111dd8582611162565b865550611244565b601f1984166111f386610fd7565b5f5b8281101561121a578489015182556001820191506020850194506020810190506111f5565b868310156112375784890151611233601f891682611146565b8355505b6001600288020188555050505b505050505050565b5f60408201905061125f5f830185610d8d565b61126c6020830184610d8d565b9392505050565b7f537461746520686173682063616e6e6f74206265207a65726f000000000000005f82015250565b5f6112a7601983610e05565b91506112b282611273565b602082019050919050565b5f6020820190508181035f8301526112d48161129b565b9050919050565b7f5374617465206e616d652063616e6e6f7420626520656d7074790000000000005f82015250565b5f61130f601a83610e05565b915061131a826112db565b602082019050919050565b5f6020820190508181035f83015261133c81611303565b9050919050565b828183375f83830152505050565b5f61135c8385610e05565b9350611369838584611343565b61137283610c8c565b840190509392505050565b5f6020820190508181035f830152611396818486611351565b90509392505050565b7f5374617465206e6f7420666f756e6400000000000000000000000000000000005f82015250565b5f6113d3600f83610e05565b91506113de8261139f565b602082019050919050565b5f6020820190508181035f830152611400816113c7565b9050919050565b7f576f726b666c6f772049442063616e6e6f74206265207a65726f0000000000005f82015250565b5f61143b601a83610e05565b915061144682611407565b602082019050919050565b5f6020820190508181035f8301526114688161142f565b9050919050565b7f576f726b666c6f7720616c7265616479206578697374730000000000000000005f82015250565b5f6114a3601783610e05565b91506114ae8261146f565b602082019050919050565b5f6020820190508181035f8301526114d081611497565b9050919050565b7f546172676574207374617465206e6f7420666f756e64000000000000000000005f82015250565b5f61150b601683610e05565b9150611516826114d7565b602082019050919050565b5f6020820190508181035f830152611538816114ff565b905091905056fea2646970667358221220d9143c6b6de4c2962c950d3a089ec8b77c6496c29b52b8ae5bae20ea1c821d2364736f6c63430008140033","linkReferences":{}},"methodIdentifiers":{"createWorkflow(bytes32)":"afe3aed2","defineState(bytes32,bytes32,string,string)":"76984132","defineTransition(bytes32,bytes32,bytes32,string)":"01d9f51a","getCurrentState(bytes32,bytes32)":"b3f66033","getState(bytes32,bytes32)":"a66396f1","transition(bytes32,bytes32,bytes32)":"dbf5e069"},"id":346}