{"abi":[{"type":"function","name":"get","inputs":[{"name":"variant","type":"bytes32","internalType":"bytes32"}],"outputs":[{"name":"","type":"tuple","internalType":"struct VariantEntity.GetOkResult","components":[{"name":"success","type":"bool","internalType":"bool"},{"name":"variant","type":"bytes32","internalType":"bytes32"},{"name":"action","type":"string","internalType":"string"},{"name":"tag","type":"string","internalType":"string"},{"name":"fields","type":"string","internalType":"string"}]}],"stateMutability":"nonpayable"},{"type":"function","name":"isDead","inputs":[{"name":"variant","type":"bytes32","internalType":"bytes32"}],"outputs":[{"name":"","type":"bool","internalType":"bool"}],"stateMutability":"nonpayable"},{"type":"function","name":"matchingSyncs","inputs":[{"name":"variant","type":"bytes32","internalType":"bytes32"}],"outputs":[{"name":"","type":"tuple","internalType":"struct VariantEntity.MatchingSyncsOkResult","components":[{"name":"success","type":"bool","internalType":"bool"},{"name":"syncs","type":"string","internalType":"string"}]}],"stateMutability":"nonpayable"},{"type":"function","name":"register","inputs":[{"name":"action","type":"string","internalType":"string"},{"name":"tag","type":"string","internalType":"string"},{"name":"fields","type":"string","internalType":"string"}],"outputs":[{"name":"","type":"tuple","internalType":"struct VariantEntity.RegisterOkResult","components":[{"name":"success","type":"bool","internalType":"bool"},{"name":"variant","type":"bytes32","internalType":"bytes32"}]}],"stateMutability":"nonpayable"},{"type":"event","name":"GetCompleted","inputs":[{"name":"variant","type":"string","indexed":false,"internalType":"string"}],"anonymous":false},{"type":"event","name":"IsDeadCompleted","inputs":[{"name":"variant","type":"string","indexed":false,"internalType":"string"},{"name":"syncCount","type":"int256","indexed":false,"internalType":"int256"},{"name":"runtimeCount","type":"int256","indexed":false,"internalType":"int256"}],"anonymous":false},{"type":"event","name":"MatchingSyncsCompleted","inputs":[{"name":"variant","type":"string","indexed":false,"internalType":"string"}],"anonymous":false},{"type":"event","name":"RegisterCompleted","inputs":[{"name":"variant","type":"string","indexed":false,"internalType":"string"}],"anonymous":false}],"bytecode":{"object":"0x608060405234801561000f575f80fd5b5061131d8061001d5f395ff3fe608060405234801561000f575f80fd5b506004361061004a575f3560e01c8063134f86e71461004e5780634cd08d031461007e5780638eaa6ac0146100ae578063f16a0f4e146100de575b5f80fd5b610068600480360381019061006391906108e7565b61010e565b604051610075919061092c565b60405180910390f35b61009860048036038101906100939190610a81565b610265565b6040516100a59190610b70565b60405180910390f35b6100c860048036038101906100c391906108e7565b6104f2565b6040516100d59190610c84565b60405180910390f35b6100f860048036038101906100f391906108e7565b610770565b6040516101059190610cde565b60405180910390f35b5f805f8381526020019081526020015f206003015f9054906101000a900460ff1661016e576040517f08c379a000000000000000000000000000000000000000000000000000000000815260040161016590610d58565b60405180910390fd5b5f60035f8481526020019081526020015f205490505f60045f8581526020019081526020015f205490505f80831480156101a757505f82145b90507f73785f354c752356205b9614e1b0cc688c565b1fb4a0d61b2edc85006165a63b8161020a576040518060400160405280600581526020017f616c697665000000000000000000000000000000000000000000000000000000815250610241565b6040518060400160405280600481526020017f64656164000000000000000000000000000000000000000000000000000000008152505b848460405161025293929190610dc6565b60405180910390a1809350505050919050565b61026d610839565b5f8451116102b0576040517f08c379a00000000000000000000000000000000000000000000000000000000081526004016102a790610e4c565b60405180910390fd5b5f8351116102f3576040517f08c379a00000000000000000000000000000000000000000000000000000000081526004016102ea90610eb4565b60405180910390fd5b5f8484604051602001610307929190610f0c565b6040516020818303038152906040528051906020012090505f808281526020019081526020015f206003015f9054906101000a900460ff161561037f576040517f08c379a000000000000000000000000000000000000000000000000000000000815260040161037690610f79565b60405180910390fd5b6040518060800160405280868152602001858152602001848152602001600115158152505f808381526020019081526020015f205f820151815f0190816103c6919061119a565b5060208201518160010190816103dc919061119a565b5060408201518160020190816103f2919061119a565b506060820151816003015f6101000a81548160ff021916908315150217905550905050600181908060018154018082558091505060019003905f5260205f20015f90919091909150555f8560405160200161044d9190611269565b60405160208183030381529060405280519060200120905060025f8281526020019081526020015f2082908060018154018082558091505060019003905f5260205f20015f90919091909150557f4af123217c3b2f9d4ab13eb1fb65bb5163b5f468e3c24779059d8cba26f2300d6040516104c7906112c9565b60405180910390a1604051806040016040528060011515815260200183815250925050509392505050565b6104fa610856565b5f808381526020019081526020015f206003015f9054906101000a900460ff16610559576040517f08c379a000000000000000000000000000000000000000000000000000000000815260040161055090610d58565b60405180910390fd5b5f805f8481526020019081526020015f2090507f35ebadde0a7e775a1dd20697eeabe483ed7a9f9c027eac704953034bcba118e8604051610599906112c9565b60405180910390a16040518060a00160405280600115158152602001848152602001825f0180546105c990610fc4565b80601f01602080910402602001604051908101604052809291908181526020018280546105f590610fc4565b80156106405780601f1061061757610100808354040283529160200191610640565b820191905f5260205f20905b81548152906001019060200180831161062357829003601f168201915b5050505050815260200182600101805461065990610fc4565b80601f016020809104026020016040519081016040528092919081815260200182805461068590610fc4565b80156106d05780601f106106a7576101008083540402835291602001916106d0565b820191905f5260205f20905b8154815290600101906020018083116106b357829003601f168201915b505050505081526020018260020180546106e990610fc4565b80601f016020809104026020016040519081016040528092919081815260200182805461071590610fc4565b80156107605780601f1061073757610100808354040283529160200191610760565b820191905f5260205f20905b81548152906001019060200180831161074357829003601f168201915b5050505050815250915050919050565b610778610888565b5f808381526020019081526020015f206003015f9054906101000a900460ff166107d7576040517f08c379a00000000000000000000000000000000000000000000000000000000081526004016107ce90610d58565b60405180910390fd5b7f7d59c3e692223e863f590687c88884a063811e5b8bbc90f8603be36bb717bd08604051610804906112c9565b60405180910390a1604051806040016040528060011515815260200160405180602001604052805f8152508152509050919050565b60405180604001604052805f151581526020015f80191681525090565b6040518060a001604052805f151581526020015f80191681526020016060815260200160608152602001606081525090565b60405180604001604052805f15158152602001606081525090565b5f604051905090565b5f80fd5b5f80fd5b5f819050919050565b6108c6816108b4565b81146108d0575f80fd5b50565b5f813590506108e1816108bd565b92915050565b5f602082840312156108fc576108fb6108ac565b5b5f610909848285016108d3565b91505092915050565b5f8115159050919050565b61092681610912565b82525050565b5f60208201905061093f5f83018461091d565b92915050565b5f80fd5b5f80fd5b5f601f19601f8301169050919050565b7f4e487b71000000000000000000000000000000000000000000000000000000005f52604160045260245ffd5b6109938261094d565b810181811067ffffffffffffffff821117156109b2576109b161095d565b5b80604052505050565b5f6109c46108a3565b90506109d0828261098a565b919050565b5f67ffffffffffffffff8211156109ef576109ee61095d565b5b6109f88261094d565b9050602081019050919050565b828183375f83830152505050565b5f610a25610a20846109d5565b6109bb565b905082815260208101848484011115610a4157610a40610949565b5b610a4c848285610a05565b509392505050565b5f82601f830112610a6857610a67610945565b5b8135610a78848260208601610a13565b91505092915050565b5f805f60608486031215610a9857610a976108ac565b5b5f84013567ffffffffffffffff811115610ab557610ab46108b0565b5b610ac186828701610a54565b935050602084013567ffffffffffffffff811115610ae257610ae16108b0565b5b610aee86828701610a54565b925050604084013567ffffffffffffffff811115610b0f57610b0e6108b0565b5b610b1b86828701610a54565b9150509250925092565b610b2e81610912565b82525050565b610b3d816108b4565b82525050565b604082015f820151610b575f850182610b25565b506020820151610b6a6020850182610b34565b50505050565b5f604082019050610b835f830184610b43565b92915050565b5f81519050919050565b5f82825260208201905092915050565b5f5b83811015610bc0578082015181840152602081019050610ba5565b5f8484015250505050565b5f610bd582610b89565b610bdf8185610b93565b9350610bef818560208601610ba3565b610bf88161094d565b840191505092915050565b5f60a083015f830151610c185f860182610b25565b506020830151610c2b6020860182610b34565b5060408301518482036040860152610c438282610bcb565b91505060608301518482036060860152610c5d8282610bcb565b91505060808301518482036080860152610c778282610bcb565b9150508091505092915050565b5f6020820190508181035f830152610c9c8184610c03565b905092915050565b5f604083015f830151610cb95f860182610b25565b5060208301518482036020860152610cd18282610bcb565b9150508091505092915050565b5f6020820190508181035f830152610cf68184610ca4565b905092915050565b5f82825260208201905092915050565b7f56617269616e74206e6f7420666f756e640000000000000000000000000000005f82015250565b5f610d42601183610cfe565b9150610d4d82610d0e565b602082019050919050565b5f6020820190508181035f830152610d6f81610d36565b9050919050565b5f610d8082610b89565b610d8a8185610cfe565b9350610d9a818560208601610ba3565b610da38161094d565b840191505092915050565b5f819050919050565b610dc081610dae565b82525050565b5f6060820190508181035f830152610dde8186610d76565b9050610ded6020830185610db7565b610dfa6040830184610db7565b949350505050565b7f416374696f6e206d757374206e6f7420626520656d70747900000000000000005f82015250565b5f610e36601883610cfe565b9150610e4182610e02565b602082019050919050565b5f6020820190508181035f830152610e6381610e2a565b9050919050565b7f546167206d757374206e6f7420626520656d70747900000000000000000000005f82015250565b5f610e9e601583610cfe565b9150610ea982610e6a565b602082019050919050565b5f6020820190508181035f830152610ecb81610e92565b9050919050565b5f81905092915050565b5f610ee682610b89565b610ef08185610ed2565b9350610f00818560208601610ba3565b80840191505092915050565b5f610f178285610edc565b9150610f238284610edc565b91508190509392505050565b7f56617269616e7420616c726561647920726567697374657265640000000000005f82015250565b5f610f63601a83610cfe565b9150610f6e82610f2f565b602082019050919050565b5f6020820190508181035f830152610f9081610f57565b9050919050565b7f4e487b71000000000000000000000000000000000000000000000000000000005f52602260045260245ffd5b5f6002820490506001821680610fdb57607f821691505b602082108103610fee57610fed610f97565b5b50919050565b5f819050815f5260205f209050919050565b5f6020601f8301049050919050565b5f82821b905092915050565b5f600883026110507fffffffffffffffffffffffffffffffffffffffffffffffffffffffffffffffff82611015565b61105a8683611015565b95508019841693508086168417925050509392505050565b5f819050919050565b5f819050919050565b5f61109e61109961109484611072565b61107b565b611072565b9050919050565b5f819050919050565b6110b783611084565b6110cb6110c3826110a5565b848454611021565b825550505050565b5f90565b6110df6110d3565b6110ea8184846110ae565b505050565b5b8181101561110d576111025f826110d7565b6001810190506110f0565b5050565b601f8211156111525761112381610ff4565b61112c84611006565b8101602085101561113b578190505b61114f61114785611006565b8301826110ef565b50505b505050565b5f82821c905092915050565b5f6111725f1984600802611157565b1980831691505092915050565b5f61118a8383611163565b9150826002028217905092915050565b6111a382610b89565b67ffffffffffffffff8111156111bc576111bb61095d565b5b6111c68254610fc4565b6111d1828285611111565b5f60209050601f831160018114611202575f84156111f0578287015190505b6111fa858261117f565b865550611261565b601f19841661121086610ff4565b5f5b8281101561123757848901518255600182019150602085019450602081019050611212565b868310156112545784890151611250601f891682611163565b8355505b6001600288020188555050505b505050505050565b5f6112748284610edc565b915081905092915050565b7f6f6b0000000000000000000000000000000000000000000000000000000000005f82015250565b5f6112b3600283610cfe565b91506112be8261127f565b602082019050919050565b5f6020820190508181035f8301526112e0816112a7565b905091905056fea2646970667358221220621fdc779b2855b791160fdc95f699cb1c1ee61c1f4e0e47eff730c29036570864736f6c63430008140033","linkReferences":{}},"methodIdentifiers":{"get(bytes32)":"8eaa6ac0","isDead(bytes32)":"134f86e7","matchingSyncs(bytes32)":"f16a0f4e","register(string,string,string)":"4cd08d03"},"id":324}