{"abi":[{"type":"function","name":"affected","inputs":[{"name":"sourcePath","type":"string","internalType":"string"}],"outputs":[{"name":"","type":"tuple","internalType":"struct Emitter.AffectedOkResult","components":[{"name":"success","type":"bool","internalType":"bool"},{"name":"outputs","type":"string[]","internalType":"string[]"}]}],"stateMutability":"nonpayable"},{"type":"function","name":"audit","inputs":[{"name":"outputDir","type":"string","internalType":"string"}],"outputs":[{"name":"","type":"tuple","internalType":"struct Emitter.AuditOkResult","components":[{"name":"success","type":"bool","internalType":"bool"},{"name":"status","type":"bytes[]","internalType":"bytes[]"}]}],"stateMutability":"nonpayable"},{"type":"function","name":"clean","inputs":[{"name":"outputDir","type":"string","internalType":"string"},{"name":"currentManifest","type":"string[]","internalType":"string[]"}],"outputs":[{"name":"","type":"tuple","internalType":"struct Emitter.CleanOkResult","components":[{"name":"success","type":"bool","internalType":"bool"},{"name":"removed","type":"string[]","internalType":"string[]"}]}],"stateMutability":"nonpayable"},{"type":"function","name":"format","inputs":[{"name":"path","type":"string","internalType":"string"}],"outputs":[{"name":"","type":"tuple","internalType":"struct Emitter.FormatOkResult","components":[{"name":"success","type":"bool","internalType":"bool"},{"name":"changed","type":"bool","internalType":"bool"}]}],"stateMutability":"nonpayable"},{"type":"function","name":"manifest","inputs":[{"name":"outputDir","type":"string","internalType":"string"}],"outputs":[{"name":"","type":"tuple","internalType":"struct Emitter.ManifestOkResult","components":[{"name":"success","type":"bool","internalType":"bool"},{"name":"files","type":"bytes[]","internalType":"bytes[]"}]}],"stateMutability":"nonpayable"},{"type":"function","name":"trace","inputs":[{"name":"outputPath","type":"string","internalType":"string"}],"outputs":[{"name":"","type":"tuple","internalType":"struct Emitter.TraceOkResult","components":[{"name":"success","type":"bool","internalType":"bool"},{"name":"sources","type":"bytes[]","internalType":"bytes[]"}]}],"stateMutability":"nonpayable"},{"type":"function","name":"write","inputs":[{"name":"path","type":"string","internalType":"string"},{"name":"content","type":"string","internalType":"string"},{"name":"formatHint","type":"string","internalType":"string"},{"name":"sources","type":"bytes[]","internalType":"bytes[]"}],"outputs":[{"name":"","type":"tuple","internalType":"struct Emitter.WriteOkResult","components":[{"name":"success","type":"bool","internalType":"bool"},{"name":"written","type":"bool","internalType":"bool"},{"name":"path","type":"string","internalType":"string"},{"name":"contentHash","type":"string","internalType":"string"}]}],"stateMutability":"nonpayable"},{"type":"function","name":"writeBatch","inputs":[{"name":"files","type":"bytes[]","internalType":"bytes[]"}],"outputs":[{"name":"","type":"tuple","internalType":"struct Emitter.WriteBatchOkResult","components":[{"name":"success","type":"bool","internalType":"bool"},{"name":"results","type":"bytes[]","internalType":"bytes[]"}]}],"stateMutability":"nonpayable"},{"type":"event","name":"AffectedCompleted","inputs":[{"name":"variant","type":"string","indexed":false,"internalType":"string"},{"name":"outputs","type":"string[]","indexed":false,"internalType":"string[]"}],"anonymous":false},{"type":"event","name":"AuditCompleted","inputs":[{"name":"variant","type":"string","indexed":false,"internalType":"string"},{"name":"status","type":"bytes[]","indexed":false,"internalType":"bytes[]"}],"anonymous":false},{"type":"event","name":"CleanCompleted","inputs":[{"name":"variant","type":"string","indexed":false,"internalType":"string"},{"name":"removed","type":"string[]","indexed":false,"internalType":"string[]"}],"anonymous":false},{"type":"event","name":"FormatCompleted","inputs":[{"name":"variant","type":"string","indexed":false,"internalType":"string"},{"name":"changed","type":"bool","indexed":false,"internalType":"bool"}],"anonymous":false},{"type":"event","name":"ManifestCompleted","inputs":[{"name":"variant","type":"string","indexed":false,"internalType":"string"},{"name":"files","type":"bytes[]","indexed":false,"internalType":"bytes[]"}],"anonymous":false},{"type":"event","name":"TraceCompleted","inputs":[{"name":"variant","type":"string","indexed":false,"internalType":"string"},{"name":"sources","type":"bytes[]","indexed":false,"internalType":"bytes[]"}],"anonymous":false},{"type":"event","name":"WriteBatchCompleted","inputs":[{"name":"variant","type":"string","indexed":false,"internalType":"string"},{"name":"results","type":"bytes[]","indexed":false,"internalType":"bytes[]"}],"anonymous":false},{"type":"event","name":"WriteCompleted","inputs":[{"name":"variant","type":"string","indexed":false,"internalType":"string"},{"name":"written","type":"bool","indexed":false,"internalType":"bool"}],"anonymous":false}],"bytecode":{"object":"0x608060405234801561000f575f80fd5b506133cf8061001d5f395ff3fe608060405234801561000f575f80fd5b5060043610610086575f3560e01c80639a905040116100595780639a9050401461014a578063ac82c0df1461017a578063e2f5880e146101aa578063ee62b33f146101da57610086565b80631b24316d1461008a5780632b2b2308146100ba5780635a1c71a6146100ea57806382b9f2621461011a575b5f80fd5b6100a4600480360381019061009f9190611d2b565b61020a565b6040516100b19190611efb565b60405180910390f35b6100d460048036038101906100cf9190611d2b565b61054f565b6040516100e19190611f55565b60405180910390f35b61010460048036038101906100ff9190611d2b565b61071a565b60405161011191906120bc565b60405180910390f35b610134600480360381019061012f9190611d2b565b61099f565b6040516101419190612116565b60405180910390f35b610164600480360381019061015f9190612218565b610cde565b60405161017191906122c8565b60405180910390f35b610194600480360381019061018f9190611d2b565b6111c2565b6040516101a19190612315565b60405180910390f35b6101c460048036038101906101bf91906124aa565b6112aa565b6040516101d1919061252b565b60405180910390f35b6101f460048036038101906101ef919061254b565b6113bb565b6040516102019190612686565b60405180910390f35b610212611a24565b5f805b600180549050811015610335575f60018281548110610237576102366126a6565b5b905f5260205f200154905060025f8281526020019081526020015f205f9054906101000a900460ff1615610321575f805f8381526020019081526020015f20905061030b815f01805461028990612700565b80601f01602080910402602001604051908101604052809291908181526020018280546102b590612700565b80156103005780601f106102d757610100808354040283529160200191610300565b820191905f5260205f20905b8154815290600101906020018083116102e357829003601f168201915b50505050508761173d565b1561031f57838061031b90612766565b9450505b505b50808061032d90612766565b915050610215565b505f8167ffffffffffffffff81111561035157610350611c07565b5b60405190808252806020026020018201604052801561038457816020015b606081526020019060019003908161036f5790505b5090505f805b6001805490508110156104f5575f600182815481106103ac576103ab6126a6565b5b905f5260205f200154905060025f8281526020019081526020015f205f9054906101000a900460ff16156104e1575f805f8381526020019081526020015f209050610480815f0180546103fe90612700565b80601f016020809104026020016040519081016040528092919081815260200182805461042a90612700565b80156104755780601f1061044c57610100808354040283529160200191610475565b820191905f5260205f20905b81548152906001019060200180831161045857829003601f168201915b50505050508961173d565b156104df57805f018160010182600401546040516020016104a39392919061285f565b6040516020818303038152906040528585815181106104c5576104c46126a6565b5b602002602001018190525083806104db90612766565b9450505b505b5080806104ed90612766565b91505061038a565b507fea9b44436daa7341406bad4d3fd0c53bc4cedd21e9663ed8e93d444f9f6f509082604051610525919061296f565b60405180910390a16040518060400160405280600115158152602001838152509350505050919050565b610557611a3f565b5f826040516020016105699190612a26565b60405160208183030381529060405280519060200120905060025f8281526020019081526020015f205f9054906101000a900460ff166105de576040517f08c379a00000000000000000000000000000000000000000000000000000000081526004016105d590612a91565b60405180910390fd5b5f805f8381526020019081526020015f2090507f54dbc6c5367db24a5cac949a966a682f0ae87a16dc15c14f02fd390009a52083816003016040516106239190612bef565b60405180910390a1604051806040016040528060011515815260200182600301805480602002602001604051908101604052809291908181526020015f905b8282101561070a578382905f5260205f2001805461067f90612700565b80601f01602080910402602001604051908101604052809291908181526020018280546106ab90612700565b80156106f65780601f106106cd576101008083540402835291602001916106f6565b820191905f5260205f20905b8154815290600101906020018083116106d957829003601f168201915b505050505081526020019060010190610662565b5050505081525092505050919050565b610722611a5a565b5f828051906020012090505f60035f8381526020019081526020015f2090505f805b82805490508110156107b05760025f848381548110610766576107656126a6565b5b905f5260205f20015481526020019081526020015f205f9054906101000a900460ff161561079d57818061079990612766565b9250505b80806107a890612766565b915050610744565b505f8167ffffffffffffffff8111156107cc576107cb611c07565b5b6040519080825280602002602001820160405280156107ff57816020015b60608152602001906001900390816107ea5790505b5090505f805b84805490508110156109435760025f868381548110610827576108266126a6565b5b905f5260205f20015481526020019081526020015f205f9054906101000a900460ff1615610930575f80868381548110610864576108636126a6565b5b905f5260205f20015481526020019081526020015f205f01805461088790612700565b80601f01602080910402602001604051908101604052809291908181526020018280546108b390612700565b80156108fe5780601f106108d5576101008083540402835291602001916108fe565b820191905f5260205f20905b8154815290600101906020018083116108e157829003601f168201915b5050505050838381518110610916576109156126a6565b5b6020026020010181905250818061092c90612766565b9250505b808061093b90612766565b915050610805565b507fe51342f0d7ad291d37c1e22d9f26f0475903f5d56ab411b5bee51af275404c02826040516109739190612ca5565b60405180910390a160405180604001604052806001151581526020018381525095505050505050919050565b6109a7611a75565b5f805b600180549050811015610aca575f600182815481106109cc576109cb6126a6565b5b905f5260205f200154905060025f8281526020019081526020015f205f9054906101000a900460ff1615610ab6575f805f8381526020019081526020015f209050610aa0815f018054610a1e90612700565b80601f0160208091040260200160405190810160405280929190818152602001828054610a4a90612700565b8015610a955780601f10610a6c57610100808354040283529160200191610a95565b820191905f5260205f20905b815481529060010190602001808311610a7857829003601f168201915b50505050508761173d565b15610ab4578380610ab090612766565b9450505b505b508080610ac290612766565b9150506109aa565b505f8167ffffffffffffffff811115610ae657610ae5611c07565b5b604051908082528060200260200182016040528015610b1957816020015b6060815260200190600190039081610b045790505b5090505f805b600180549050811015610c84575f60018281548110610b4157610b406126a6565b5b905f5260205f200154905060025f8281526020019081526020015f205f9054906101000a900460ff1615610c70575f805f8381526020019081526020015f209050610c15815f018054610b9390612700565b80601f0160208091040260200160405190810160405280929190818152602001828054610bbf90612700565b8015610c0a5780601f10610be157610100808354040283529160200191610c0a565b820191905f5260205f20905b815481529060010190602001808311610bed57829003601f168201915b50505050508961173d565b15610c6e57805f0181600101604051602001610c32929190612d22565b604051602081830303815290604052858581518110610c5457610c536126a6565b5b60200260200101819052508380610c6a90612766565b9450505b505b508080610c7c90612766565b915050610b1f565b507fbbd29bb10d159c2068a187011e39de5ef297a43680d32444b4d5b65136ce37c482604051610cb4919061296f565b60405180910390a16040518060400160405280600115158152602001838152509350505050919050565b610ce6611a90565b5f805b600180549050811015610e88575f60018281548110610d0b57610d0a6126a6565b5b905f5260205f200154905060025f8281526020019081526020015f205f9054906101000a900460ff16610d3e5750610e75565b5f805f8381526020019081526020015f2090505f610de5825f018054610d6390612700565b80601f0160208091040260200160405190810160405280929190818152602001828054610d8f90612700565b8015610dda5780601f10610db157610100808354040283529160200191610dda565b820191905f5260205f20905b815481529060010190602001808311610dbd57829003601f168201915b50505050508961173d565b905080610df457505050610e75565b5f805b8851811015610e5b57888181518110610e1357610e126126a6565b5b602002602001015180519060200120845f01604051610e329190612e06565b604051809103902003610e485760019150610e5b565b8080610e5390612766565b915050610df7565b5080610e70578580610e6c90612766565b9650505b505050505b8080610e8090612766565b915050610ce9565b505f8167ffffffffffffffff811115610ea457610ea3611c07565b5b604051908082528060200260200182016040528015610ed757816020015b6060815260200190600190039081610ec25790505b5090505f805b600180549050811015611167575f60018281548110610eff57610efe6126a6565b5b905f5260205f200154905060025f8281526020019081526020015f205f9054906101000a900460ff16610f325750611154565b5f805f8381526020019081526020015f2090505f610fd9825f018054610f5790612700565b80601f0160208091040260200160405190810160405280929190818152602001828054610f8390612700565b8015610fce5780601f10610fa557610100808354040283529160200191610fce565b820191905f5260205f20905b815481529060010190602001808311610fb157829003601f168201915b50505050508b61173d565b905080610fe857505050611154565b5f805b8a5181101561104f578a8181518110611007576110066126a6565b5b602002602001015180519060200120845f016040516110269190612e06565b60405180910390200361103c576001915061104f565b808061104790612766565b915050610feb565b508061114f57825f01805461106390612700565b80601f016020809104026020016040519081016040528092919081815260200182805461108f90612700565b80156110da5780601f106110b1576101008083540402835291602001916110da565b820191905f5260205f20905b8154815290600101906020018083116110bd57829003601f168201915b50505050508787815181106110f2576110f16126a6565b5b6020026020010181905250858061110890612766565b9650505f836005015f6101000a81548160ff0219169083151502179055505f60025f8681526020019081526020015f205f6101000a81548160ff0219169083151502179055505b505050505b808061115f90612766565b915050610edd565b507f44df146e8cec42f13bcc601d0f3740896318279464465fa5d17096195ca76ce8826040516111979190612ca5565b60405180910390a1604051806040016040528060011515815260200183815250935050505092915050565b6111ca611aab565b5f826040516020016111dc9190612a26565b60405160208183030381529060405280519060200120905060025f8281526020019081526020015f205f9054906101000a900460ff16611251576040517f08c379a000000000000000000000000000000000000000000000000000000000815260040161124890612e66565b60405180910390fd5b7f4bd641d968efaa5f45bfdee12e5a1dbff54d800f768bf63e7a34ff9d42b6ca975f6040516112809190612e93565b60405180910390a160405180604001604052806001151581526020015f1515815250915050919050565b6112b2611ac7565b5f825167ffffffffffffffff8111156112ce576112cd611c07565b5b60405190808252806020026020018201604052801561130157816020015b60608152602001906001900390816112ec5790505b5090505f5b835181101561136357600181604051602001611323929190612ebf565b604051602081830303815290604052828281518110611345576113446126a6565b5b6020026020010181905250808061135b90612766565b915050611306565b507f6116ba67fc3755fce79ab7d27f93b7ce3198de5ddc3cf6783c6608c2e64f2fe381604051611393919061296f565b60405180910390a1604051806040016040528060011515815260200182815250915050919050565b6113c3611ae2565b5f855111611406576040517f08c379a00000000000000000000000000000000000000000000000000000000081526004016113fd90612f30565b60405180910390fd5b5f845111611449576040517f08c379a000000000000000000000000000000000000000000000000000000000815260040161144090612f98565b60405180910390fd5b5f8560405160200161145b9190612a26565b6040516020818303038152906040528051906020012090505f6114848680519060200120611829565b90505f60025f8481526020019081526020015f205f9054906101000a900460ff161561153c575f805f8581526020019081526020015f2090508280519060200120816001016040516114d69190612e06565b6040518091039020036114eb575f9150611536565b828160010190816114fc9190613141565b508681600201908161150e9190613141565b5085816003019080519060200190611527929190611b0c565b50428160040181905550600191505b50611659565b6040518060c00160405280898152602001838152602001878152602001868152602001428152602001600115158152505f808581526020019081526020015f205f820151815f01908161158f9190613141565b5060208201518160010190816115a59190613141565b5060408201518160020190816115bb9190613141565b5060608201518160030190805190602001906115d8929190611b0c565b506080820151816004015560a0820151816005015f6101000a81548160ff021916908315150217905550905050600160025f8581526020019081526020015f205f6101000a81548160ff021916908315150217905550600183908060018154018082558091505060019003905f5260205f20015f9091909190915055600190505b5f5b85518110156116d2575f868281518110611678576116776126a6565b5b602002602001015180519060200120905060035f8281526020019081526020015f2085908060018154018082558091505060019003905f5260205f20015f90919091909150555080806116ca90612766565b91505061165b565b507fa17ab1c4b9baa3b1f73cceb6f15a5056bf662dd0d20d7af1047d15d55bd49344816040516117029190612e93565b60405180910390a160405180608001604052806001151581526020018215158152602001898152602001838152509350505050949350505050565b5f808390505f83905081518151111561175a575f92505050611823565b5f81510361176d57600192505050611823565b5f5b815181101561181b5781818151811061178b5761178a6126a6565b5b602001015160f81c60f81b7effffffffffffffffffffffffffffffffffffffffffffffffffffffffffffff19168382815181106117cb576117ca6126a6565b5b602001015160f81c60f81b7effffffffffffffffffffffffffffffffffffffffffffffffffffffffffffff191614611808575f9350505050611823565b808061181390612766565b91505061176f565b506001925050505b92915050565b60605f6040518060400160405280601081526020017f303132333435363738396162636465660000000000000000000000000000000081525090505f604067ffffffffffffffff8111156118805761187f611c07565b5b6040519080825280601f01601f1916602001820160405280156118b25781602001600182028036833780820191505090505b5090505f5b6020811015611a19578260048683602081106118d6576118d56126a6565b5b1a60f81b7effffffffffffffffffffffffffffffffffffffffffffffffffffffffffffff1916901c60f81c60ff1681518110611915576119146126a6565b5b602001015160f81c60f81b8260028361192e9190613210565b8151811061193f5761193e6126a6565b5b60200101907effffffffffffffffffffffffffffffffffffffffffffffffffffffffffffff191690815f1a90535082600f60f81b868360208110611986576119856126a6565b5b1a60f81b1660f81c60ff16815181106119a2576119a16126a6565b5b602001015160f81c60f81b826002836119bb9190613210565b60016119c79190613251565b815181106119d8576119d76126a6565b5b60200101907effffffffffffffffffffffffffffffffffffffffffffffffffffffffffffff191690815f1a9053508080611a1190612766565b9150506118b7565b508092505050919050565b60405180604001604052805f15158152602001606081525090565b60405180604001604052805f15158152602001606081525090565b60405180604001604052805f15158152602001606081525090565b60405180604001604052805f15158152602001606081525090565b60405180604001604052805f15158152602001606081525090565b60405180604001604052805f151581526020015f151581525090565b60405180604001604052805f15158152602001606081525090565b60405180608001604052805f151581526020015f1515815260200160608152602001606081525090565b828054828255905f5260205f20908101928215611b52579160200282015b82811115611b51578251829081611b4191906132ca565b5091602001919060010190611b2a565b5b509050611b5f9190611b63565b5090565b5b80821115611b82575f8181611b799190611b86565b50600101611b64565b5090565b508054611b9290612700565b5f825580601f10611ba35750611bc0565b601f0160209004905f5260205f2090810190611bbf9190611bc3565b5b50565b5b80821115611bda575f815f905550600101611bc4565b5090565b5f604051905090565b5f80fd5b5f80fd5b5f80fd5b5f80fd5b5f601f19601f8301169050919050565b7f4e487b71000000000000000000000000000000000000000000000000000000005f52604160045260245ffd5b611c3d82611bf7565b810181811067ffffffffffffffff82111715611c5c57611c5b611c07565b5b80604052505050565b5f611c6e611bde565b9050611c7a8282611c34565b919050565b5f67ffffffffffffffff821115611c9957611c98611c07565b5b611ca282611bf7565b9050602081019050919050565b828183375f83830152505050565b5f611ccf611cca84611c7f565b611c65565b905082815260208101848484011115611ceb57611cea611bf3565b5b611cf6848285611caf565b509392505050565b5f82601f830112611d1257611d11611bef565b5b8135611d22848260208601611cbd565b91505092915050565b5f60208284031215611d4057611d3f611be7565b5b5f82013567ffffffffffffffff811115611d5d57611d5c611beb565b5b611d6984828501611cfe565b91505092915050565b5f8115159050919050565b611d8681611d72565b82525050565b5f81519050919050565b5f82825260208201905092915050565b5f819050602082019050919050565b5f81519050919050565b5f82825260208201905092915050565b5f5b83811015611dec578082015181840152602081019050611dd1565b5f8484015250505050565b5f611e0182611db5565b611e0b8185611dbf565b9350611e1b818560208601611dcf565b611e2481611bf7565b840191505092915050565b5f611e3a8383611df7565b905092915050565b5f602082019050919050565b5f611e5882611d8c565b611e628185611d96565b935083602082028501611e7485611da6565b805f5b85811015611eaf5784840389528151611e908582611e2f565b9450611e9b83611e42565b925060208a01995050600181019050611e77565b50829750879550505050505092915050565b5f604083015f830151611ed65f860182611d7d565b5060208301518482036020860152611eee8282611e4e565b9150508091505092915050565b5f6020820190508181035f830152611f138184611ec1565b905092915050565b5f604083015f830151611f305f860182611d7d565b5060208301518482036020860152611f488282611e4e565b9150508091505092915050565b5f6020820190508181035f830152611f6d8184611f1b565b905092915050565b5f81519050919050565b5f82825260208201905092915050565b5f819050602082019050919050565b5f81519050919050565b5f82825260208201905092915050565b5f611fc282611f9e565b611fcc8185611fa8565b9350611fdc818560208601611dcf565b611fe581611bf7565b840191505092915050565b5f611ffb8383611fb8565b905092915050565b5f602082019050919050565b5f61201982611f75565b6120238185611f7f565b93508360208202850161203585611f8f565b805f5b8581101561207057848403895281516120518582611ff0565b945061205c83612003565b925060208a01995050600181019050612038565b50829750879550505050505092915050565b5f604083015f8301516120975f860182611d7d565b50602083015184820360208601526120af828261200f565b9150508091505092915050565b5f6020820190508181035f8301526120d48184612082565b905092915050565b5f604083015f8301516120f15f860182611d7d565b50602083015184820360208601526121098282611e4e565b9150508091505092915050565b5f6020820190508181035f83015261212e81846120dc565b905092915050565b5f67ffffffffffffffff8211156121505761214f611c07565b5b602082029050602081019050919050565b5f80fd5b5f61217761217284612136565b611c65565b9050808382526020820190506020840283018581111561219a57612199612161565b5b835b818110156121e157803567ffffffffffffffff8111156121bf576121be611bef565b5b8086016121cc8982611cfe565b8552602085019450505060208101905061219c565b5050509392505050565b5f82601f8301126121ff576121fe611bef565b5b813561220f848260208601612165565b91505092915050565b5f806040838503121561222e5761222d611be7565b5b5f83013567ffffffffffffffff81111561224b5761224a611beb565b5b61225785828601611cfe565b925050602083013567ffffffffffffffff81111561227857612277611beb565b5b612284858286016121eb565b9150509250929050565b5f604083015f8301516122a35f860182611d7d565b50602083015184820360208601526122bb828261200f565b9150508091505092915050565b5f6020820190508181035f8301526122e0818461228e565b905092915050565b604082015f8201516122fc5f850182611d7d565b50602082015161230f6020850182611d7d565b50505050565b5f6040820190506123285f8301846122e8565b92915050565b5f67ffffffffffffffff82111561234857612347611c07565b5b602082029050602081019050919050565b5f67ffffffffffffffff82111561237357612372611c07565b5b61237c82611bf7565b9050602081019050919050565b5f61239b61239684612359565b611c65565b9050828152602081018484840111156123b7576123b6611bf3565b5b6123c2848285611caf565b509392505050565b5f82601f8301126123de576123dd611bef565b5b81356123ee848260208601612389565b91505092915050565b5f6124096124048461232e565b611c65565b9050808382526020820190506020840283018581111561242c5761242b612161565b5b835b8181101561247357803567ffffffffffffffff81111561245157612450611bef565b5b80860161245e89826123ca565b8552602085019450505060208101905061242e565b5050509392505050565b5f82601f83011261249157612490611bef565b5b81356124a18482602086016123f7565b91505092915050565b5f602082840312156124bf576124be611be7565b5b5f82013567ffffffffffffffff8111156124dc576124db611beb565b5b6124e88482850161247d565b91505092915050565b5f604083015f8301516125065f860182611d7d565b506020830151848203602086015261251e8282611e4e565b9150508091505092915050565b5f6020820190508181035f83015261254381846124f1565b905092915050565b5f805f806080858703121561256357612562611be7565b5b5f85013567ffffffffffffffff8111156125805761257f611beb565b5b61258c87828801611cfe565b945050602085013567ffffffffffffffff8111156125ad576125ac611beb565b5b6125b987828801611cfe565b935050604085013567ffffffffffffffff8111156125da576125d9611beb565b5b6125e687828801611cfe565b925050606085013567ffffffffffffffff81111561260757612606611beb565b5b6126138782880161247d565b91505092959194509250565b5f608083015f8301516126345f860182611d7d565b5060208301516126476020860182611d7d565b506040830151848203604086015261265f8282611fb8565b915050606083015184820360608601526126798282611fb8565b9150508091505092915050565b5f6020820190508181035f83015261269e818461261f565b905092915050565b7f4e487b71000000000000000000000000000000000000000000000000000000005f52603260045260245ffd5b7f4e487b71000000000000000000000000000000000000000000000000000000005f52602260045260245ffd5b5f600282049050600182168061271757607f821691505b60208210810361272a576127296126d3565b5b50919050565b7f4e487b71000000000000000000000000000000000000000000000000000000005f52601160045260245ffd5b5f819050919050565b5f6127708261275d565b91507fffffffffffffffffffffffffffffffffffffffffffffffffffffffffffffffff82036127a2576127a1612730565b5b600182019050919050565b5f82825260208201905092915050565b5f819050815f5260205f209050919050565b5f81546127db81612700565b6127e581866127ad565b9450600182165f81146127ff576001811461281557612847565b60ff198316865281151560200286019350612847565b61281e856127bd565b5f5b8381101561283f57815481890152600182019150602081019050612820565b808801955050505b50505092915050565b6128598161275d565b82525050565b5f6060820190508181035f83015261287781866127cf565b9050818103602083015261288b81856127cf565b905061289a6040830184612850565b949350505050565b7f6f6b0000000000000000000000000000000000000000000000000000000000005f82015250565b5f6128d66002836127ad565b91506128e1826128a2565b602082019050919050565b5f82825260208201905092915050565b5f61290682611d8c565b61291081856128ec565b93508360208202850161292285611da6565b805f5b8581101561295d578484038952815161293e8582611e2f565b945061294983611e42565b925060208a01995050600181019050612925565b50829750879550505050505092915050565b5f6040820190508181035f830152612986816128ca565b9050818103602083015261299a81846128fc565b905092915050565b5f81905092915050565b7f66696c653a0000000000000000000000000000000000000000000000000000005f82015250565b5f6129e06005836129a2565b91506129eb826129ac565b600582019050919050565b5f612a0082611f9e565b612a0a81856129a2565b9350612a1a818560208601611dcf565b80840191505092915050565b5f612a30826129d4565b9150612a3c82846129f6565b915081905092915050565b7f4f75747075742066696c65206e6f7420666f756e6400000000000000000000005f82015250565b5f612a7b6015836127ad565b9150612a8682612a47565b602082019050919050565b5f6020820190508181035f830152612aa881612a6f565b9050919050565b5f81549050919050565b5f819050815f5260205f209050919050565b5f819050815f5260205f209050919050565b5f8154612ae981612700565b612af38186611dbf565b9450600182165f8114612b0d5760018114612b2357612b55565b60ff198316865281151560200286019350612b55565b612b2c85612acb565b5f5b83811015612b4d57815481890152600182019150602081019050612b2e565b808801955050505b50505092915050565b5f612b698383612add565b905092915050565b5f600182019050919050565b5f612b8782612aaf565b612b9181856128ec565b935083602082028501612ba385612ab9565b805f5b85811015612bdd57848403895281612bbe8582612b5e565b9450612bc983612b71565b925060208a01995050600181019050612ba6565b50829750879550505050505092915050565b5f6040820190508181035f830152612c06816128ca565b90508181036020830152612c1a8184612b7d565b905092915050565b5f82825260208201905092915050565b5f612c3c82611f75565b612c468185612c22565b935083602082028501612c5885611f8f565b805f5b85811015612c935784840389528151612c748582611ff0565b9450612c7f83612003565b925060208a01995050600181019050612c5b565b50829750879550505050505092915050565b5f6040820190508181035f830152612cbc816128ca565b90508181036020830152612cd08184612c32565b905092915050565b7f636c65616e0000000000000000000000000000000000000000000000000000005f82015250565b5f612d0c6005836127ad565b9150612d1782612cd8565b602082019050919050565b5f6060820190508181035f830152612d3a81856127cf565b90508181036020830152612d4e81846127cf565b90508181036040830152612d6181612d00565b90509392505050565b5f81905092915050565b5f819050815f5260205f209050919050565b5f8154612d9281612700565b612d9c8186612d6a565b9450600182165f8114612db65760018114612dcb57612dfd565b60ff1983168652811515820286019350612dfd565b612dd485612d74565b5f5b83811015612df557815481890152600182019150602081019050612dd6565b838801955050505b50505092915050565b5f612e118284612d86565b915081905092915050565b7f46696c65206e6f7420666f756e640000000000000000000000000000000000005f82015250565b5f612e50600e836127ad565b9150612e5b82612e1c565b602082019050919050565b5f6020820190508181035f830152612e7d81612e44565b9050919050565b612e8d81611d72565b82525050565b5f6040820190508181035f830152612eaa816128ca565b9050612eb96020830184612e84565b92915050565b5f604082019050612ed25f830185612e84565b612edf6020830184612850565b9392505050565b7f50617468206d757374206e6f7420626520656d707479000000000000000000005f82015250565b5f612f1a6016836127ad565b9150612f2582612ee6565b602082019050919050565b5f6020820190508181035f830152612f4781612f0e565b9050919050565b7f436f6e74656e74206d757374206e6f7420626520656d707479000000000000005f82015250565b5f612f826019836127ad565b9150612f8d82612f4e565b602082019050919050565b5f6020820190508181035f830152612faf81612f76565b9050919050565b5f6020601f8301049050919050565b5f82821b905092915050565b5f600883026130007fffffffffffffffffffffffffffffffffffffffffffffffffffffffffffffffff82612fc5565b61300a8683612fc5565b95508019841693508086168417925050509392505050565b5f819050919050565b5f61304561304061303b8461275d565b613022565b61275d565b9050919050565b5f819050919050565b61305e8361302b565b61307261306a8261304c565b848454612fd1565b825550505050565b5f90565b61308661307a565b613091818484613055565b505050565b5b818110156130b4576130a95f8261307e565b600181019050613097565b5050565b601f8211156130f9576130ca816127bd565b6130d384612fb6565b810160208510156130e2578190505b6130f66130ee85612fb6565b830182613096565b50505b505050565b5f82821c905092915050565b5f6131195f19846008026130fe565b1980831691505092915050565b5f613131838361310a565b9150826002028217905092915050565b61314a82611f9e565b67ffffffffffffffff81111561316357613162611c07565b5b61316d8254612700565b6131788282856130b8565b5f60209050601f8311600181146131a9575f8415613197578287015190505b6131a18582613126565b865550613208565b601f1984166131b7866127bd565b5f5b828110156131de578489015182556001820191506020850194506020810190506131b9565b868310156131fb57848901516131f7601f89168261310a565b8355505b6001600288020188555050505b505050505050565b5f61321a8261275d565b91506132258361275d565b92508282026132338161275d565b9150828204841483151761324a57613249612730565b5b5092915050565b5f61325b8261275d565b91506132668361275d565b925082820190508082111561327e5761327d612730565b5b92915050565b601f8211156132c55761329681612acb565b61329f84612fb6565b810160208510156132ae578190505b6132c26132ba85612fb6565b830182613096565b50505b505050565b6132d382611db5565b67ffffffffffffffff8111156132ec576132eb611c07565b5b6132f68254612700565b613301828285613284565b5f60209050601f831160018114613332575f8415613320578287015190505b61332a8582613126565b865550613391565b601f19841661334086612acb565b5f5b8281101561336757848901518255600182019150602085019450602081019050613342565b868310156133845784890151613380601f89168261310a565b8355505b6001600288020188555050505b50505050505056fea26469706673582212200943468a3d8c0971a763f2ac4dfc36dfae72be5641df972fd6c53f1730bc83db64736f6c63430008140033","linkReferences":{}},"methodIdentifiers":{"affected(string)":"5a1c71a6","audit(string)":"82b9f262","clean(string,string[])":"9a905040","format(string)":"ac82c0df","manifest(string)":"1b24316d","trace(string)":"2b2b2308","write(string,string,string,bytes[])":"ee62b33f","writeBatch(bytes[])":"e2f5880e"},"id":109}