{"abi":[{"type":"function","name":"accept","inputs":[{"name":"annotationId","type":"bytes32","internalType":"bytes32"}],"outputs":[],"stateMutability":"nonpayable"},{"type":"function","name":"acceptAll","inputs":[{"name":"contentRef","type":"bytes32","internalType":"bytes32"}],"outputs":[{"name":"count","type":"uint256","internalType":"uint256"}],"stateMutability":"nonpayable"},{"type":"function","name":"annotate","inputs":[{"name":"contentRef","type":"bytes32","internalType":"bytes32"},{"name":"changeType","type":"string","internalType":"string"},{"name":"scope","type":"bytes","internalType":"bytes"},{"name":"author","type":"bytes32","internalType":"bytes32"}],"outputs":[{"name":"annotationId","type":"bytes32","internalType":"bytes32"}],"stateMutability":"nonpayable"},{"type":"function","name":"getAnnotation","inputs":[{"name":"annotationId","type":"bytes32","internalType":"bytes32"}],"outputs":[{"name":"","type":"tuple","internalType":"struct InlineAnnotation.Annotation","components":[{"name":"contentRef","type":"bytes32","internalType":"bytes32"},{"name":"changeType","type":"string","internalType":"string"},{"name":"scope","type":"bytes","internalType":"bytes"},{"name":"author","type":"bytes32","internalType":"bytes32"},{"name":"timestamp","type":"uint256","internalType":"uint256"},{"name":"status","type":"uint8","internalType":"uint8"},{"name":"exists","type":"bool","internalType":"bool"}]}],"stateMutability":"view"},{"type":"function","name":"getContentAnnotations","inputs":[{"name":"contentRef","type":"bytes32","internalType":"bytes32"}],"outputs":[{"name":"","type":"bytes32[]","internalType":"bytes32[]"}],"stateMutability":"view"},{"type":"function","name":"isTrackingEnabled","inputs":[{"name":"contentRef","type":"bytes32","internalType":"bytes32"}],"outputs":[{"name":"","type":"bool","internalType":"bool"}],"stateMutability":"view"},{"type":"function","name":"listPending","inputs":[{"name":"contentRef","type":"bytes32","internalType":"bytes32"}],"outputs":[{"name":"","type":"bytes32[]","internalType":"bytes32[]"}],"stateMutability":"view"},{"type":"function","name":"reject","inputs":[{"name":"annotationId","type":"bytes32","internalType":"bytes32"}],"outputs":[],"stateMutability":"nonpayable"},{"type":"function","name":"rejectAll","inputs":[{"name":"contentRef","type":"bytes32","internalType":"bytes32"}],"outputs":[{"name":"count","type":"uint256","internalType":"uint256"}],"stateMutability":"nonpayable"},{"type":"function","name":"toggleTracking","inputs":[{"name":"contentRef","type":"bytes32","internalType":"bytes32"},{"name":"enabled","type":"bool","internalType":"bool"}],"outputs":[],"stateMutability":"nonpayable"},{"type":"event","name":"Accepted","inputs":[{"name":"annotationId","type":"bytes32","indexed":true,"internalType":"bytes32"}],"anonymous":false},{"type":"event","name":"AcceptedAll","inputs":[{"name":"contentRef","type":"bytes32","indexed":true,"internalType":"bytes32"},{"name":"count","type":"uint256","indexed":false,"internalType":"uint256"}],"anonymous":false},{"type":"event","name":"Annotated","inputs":[{"name":"annotationId","type":"bytes32","indexed":true,"internalType":"bytes32"},{"name":"contentRef","type":"bytes32","indexed":true,"internalType":"bytes32"},{"name":"changeType","type":"string","indexed":false,"internalType":"string"}],"anonymous":false},{"type":"event","name":"Rejected","inputs":[{"name":"annotationId","type":"bytes32","indexed":true,"internalType":"bytes32"}],"anonymous":false},{"type":"event","name":"RejectedAll","inputs":[{"name":"contentRef","type":"bytes32","indexed":true,"internalType":"bytes32"},{"name":"count","type":"uint256","indexed":false,"internalType":"uint256"}],"anonymous":false},{"type":"event","name":"TrackingToggled","inputs":[{"name":"contentRef","type":"bytes32","indexed":true,"internalType":"bytes32"},{"name":"enabled","type":"bool","indexed":false,"internalType":"bool"}],"anonymous":false}],"bytecode":{"object":"0x608060405234801561000f575f80fd5b50611d558061001d5f395ff3fe608060405234801561000f575f80fd5b506004361061009c575f3560e01c8063908bb2b911610064578063908bb2b91461017c578063badab0f0146101ac578063cabd734f146101dc578063d99cdab0146101f8578063e4725ba1146102285761009c565b806308127cc7146100a05780630dd6e7bd146100d05780631478f88f146101005780632b1fb8e51461011c57806389fce0ed1461014c575b5f80fd5b6100ba60048036038101906100b59190611060565b610244565b6040516100c79190611112565b60405180910390f35b6100ea60048036038101906100e5919061112b565b61053a565b6040516100f7919061120d565b60405180910390f35b61011a60048036038101906101159190611262565b6105a1565b005b6101366004803603810190610131919061112b565b610649565b604051610143919061145e565b60405180910390f35b6101666004803603810190610161919061112b565b610847565b604051610173919061148d565b60405180910390f35b6101966004803603810190610191919061112b565b61086d565b6040516101a391906114b5565b60405180910390f35b6101c660048036038101906101c1919061112b565b61097f565b6040516101d3919061120d565b60405180910390f35b6101f660048036038101906101f1919061112b565b610b14565b005b610212600480360381019061020d919061112b565b610c34565b60405161021f91906114b5565b60405180910390f35b610242600480360381019061023d919061112b565b610d46565b005b5f805f1b8703610289576040517f08c379a000000000000000000000000000000000000000000000000000000000815260040161028090611528565b60405180910390fd5b5f801b82036102cd576040517f08c379a00000000000000000000000000000000000000000000000000000000081526004016102c490611590565b60405180910390fd5b6102d78686610e66565b610316576040517f08c379a000000000000000000000000000000000000000000000000000000000815260040161030d906115f8565b60405180910390fd5b60035f81548092919061032890611643565b91905055508686868686864260035460405160200161034e989796959493929190611734565b6040516020818303038152906040528051906020012090506040518060e0016040528088815260200187878080601f0160208091040260200160405190810160405280939291908181526020018383808284375f81840152601f19601f82011690508083019250505050505050815260200185858080601f0160208091040260200160405190810160405280939291908181526020018383808284375f81840152601f19601f8201169050808301925050505050505081526020018381526020014281526020015f60ff168152602001600115158152505f808381526020019081526020015f205f820151815f0155602082015181600101908161045291906119c6565b5060408201518160020190816104689190611aed565b50606082015181600301556080820151816004015560a0820151816005015f6101000a81548160ff021916908360ff16021790555060c08201518160050160016101000a81548160ff02191690831515021790555090505060015f8881526020019081526020015f2081908060018154018082558091505060019003905f5260205f20015f909190919091505586817f93f34e34a794013837760851e4e644a45b9b3de6e40eae5061fdb4d4a50386018888604051610528929190611be8565b60405180910390a39695505050505050565b606060015f8381526020019081526020015f2080548060200260200160405190810160405280929190818152602001828054801561059557602002820191905f5260205f20905b815481526020019060010190808311610581575b50505050509050919050565b5f801b82036105e5576040517f08c379a00000000000000000000000000000000000000000000000000000000081526004016105dc90611528565b60405180910390fd5b8060025f8481526020019081526020015f205f6101000a81548160ff021916908315150217905550817f4efd386475731b2378b11b608ea5336e39c203ae7c8321b1b1f427e9046068ed8260405161063d919061148d565b60405180910390a25050565b610651610f2c565b5f808381526020019081526020015f2060050160019054906101000a900460ff166106b1576040517f08c379a00000000000000000000000000000000000000000000000000000000081526004016106a890611c54565b60405180910390fd5b5f808381526020019081526020015f206040518060e00160405290815f82015481526020016001820180546106e5906117f9565b80601f0160208091040260200160405190810160405280929190818152602001828054610711906117f9565b801561075c5780601f106107335761010080835404028352916020019161075c565b820191905f5260205f20905b81548152906001019060200180831161073f57829003601f168201915b50505050508152602001600282018054610775906117f9565b80601f01602080910402602001604051908101604052809291908181526020018280546107a1906117f9565b80156107ec5780601f106107c3576101008083540402835291602001916107ec565b820191905f5260205f20905b8154815290600101906020018083116107cf57829003601f168201915b505050505081526020016003820154815260200160048201548152602001600582015f9054906101000a900460ff1660ff1660ff1681526020016005820160019054906101000a900460ff1615151515815250509050919050565b5f60025f8381526020019081526020015f205f9054906101000a900460ff169050919050565b5f8060015f8481526020019081526020015f2090505f91505f5b8180549050811015610940575f805f8484815481106108a9576108a8611c72565b5b905f5260205f20015481526020019081526020015f206005015f9054906101000a900460ff1660ff160361092d5760025f808484815481106108ee576108ed611c72565b5b905f5260205f20015481526020019081526020015f206005015f6101000a81548160ff021916908360ff160217905550828061092990611643565b9350505b808061093890611643565b915050610887565b50827f01b6420c45607a5890b423df67eebc5b782c56f37c73a78dd9bcd5a65b8685f28360405161097191906114b5565b60405180910390a250919050565b60605f60015f8481526020019081526020015f2090505f805b8280549050811015610a0a575f805f8584815481106109ba576109b9611c72565b5b905f5260205f20015481526020019081526020015f206005015f9054906101000a900460ff1660ff16036109f75781806109f390611643565b9250505b8080610a0290611643565b915050610998565b505f8167ffffffffffffffff811115610a2657610a2561179f565b5b604051908082528060200260200182016040528015610a545781602001602082028036833780820191505090505b5090505f805b8480549050811015610b07575f805f878481548110610a7c57610a7b611c72565b5b905f5260205f20015481526020019081526020015f206005015f9054906101000a900460ff1660ff1603610af457848181548110610abd57610abc611c72565b5b905f5260205f200154838381518110610ad957610ad8611c72565b5b6020026020010181815250508180610af090611643565b9250505b8080610aff90611643565b915050610a5a565b5081945050505050919050565b5f808281526020019081526020015f2060050160019054906101000a900460ff16610b74576040517f08c379a0000000000000000000000000000000000000000000000000000000008152600401610b6b90611c54565b60405180910390fd5b5f805f8381526020019081526020015f206005015f9054906101000a900460ff1660ff1614610bd8576040517f08c379a0000000000000000000000000000000000000000000000000000000008152600401610bcf90611ce9565b60405180910390fd5b60025f808381526020019081526020015f206005015f6101000a81548160ff021916908360ff160217905550807f757741f2bf61fcf95e7d0ac6b76eac0f6ce0c3c3a16636385a74a9436d5d1aa960405160405180910390a250565b5f8060015f8481526020019081526020015f2090505f91505f5b8180549050811015610d07575f805f848481548110610c7057610c6f611c72565b5b905f5260205f20015481526020019081526020015f206005015f9054906101000a900460ff1660ff1603610cf45760015f80848481548110610cb557610cb4611c72565b5b905f5260205f20015481526020019081526020015f206005015f6101000a81548160ff021916908360ff1602179055508280610cf090611643565b9350505b8080610cff90611643565b915050610c4e565b50827f217c6d7f841055f4b07e79f514770146a5a8a1e35820f995e4e30a058dfb07d683604051610d3891906114b5565b60405180910390a250919050565b5f808281526020019081526020015f2060050160019054906101000a900460ff16610da6576040517f08c379a0000000000000000000000000000000000000000000000000000000008152600401610d9d90611c54565b60405180910390fd5b5f805f8381526020019081526020015f206005015f9054906101000a900460ff1660ff1614610e0a576040517f08c379a0000000000000000000000000000000000000000000000000000000008152600401610e0190611ce9565b60405180910390fd5b60015f808381526020019081526020015f206005015f6101000a81548160ff021916908360ff160217905550807f1f3c0697c3ada95f9e84a917995664b76cd8b4ae5de25e77ee111122ae3a00d060405160405180910390a250565b5f808383604051610e78929190611d07565b604051809103902090507f09e81af22a74569ad27150042ea1abe3ef1fa842c068f57e3a660feca2b4d50f811480610ecf57507f4996f3ebf2ed378f6cbf11075a11558019610a1fc32ca0a8af37d82babba7c6881145b80610ef957507f59c2c042da275702785d763f94e98cc8b37532156a27826c454ff7f21c49f53581145b80610f2357507f7239e4c8fbd11b680d7214cfc26d1780d5c099453f0832beb15fd040aebd4ebb81145b91505092915050565b6040518060e001604052805f801916815260200160608152602001606081526020015f80191681526020015f81526020015f60ff1681526020015f151581525090565b5f80fd5b5f80fd5b5f819050919050565b610f8981610f77565b8114610f93575f80fd5b50565b5f81359050610fa481610f80565b92915050565b5f80fd5b5f80fd5b5f80fd5b5f8083601f840112610fcb57610fca610faa565b5b8235905067ffffffffffffffff811115610fe857610fe7610fae565b5b60208301915083600182028301111561100457611003610fb2565b5b9250929050565b5f8083601f8401126110205761101f610faa565b5b8235905067ffffffffffffffff81111561103d5761103c610fae565b5b60208301915083600182028301111561105957611058610fb2565b5b9250929050565b5f805f805f806080878903121561107a57611079610f6f565b5b5f61108789828a01610f96565b965050602087013567ffffffffffffffff8111156110a8576110a7610f73565b5b6110b489828a01610fb6565b9550955050604087013567ffffffffffffffff8111156110d7576110d6610f73565b5b6110e389828a0161100b565b935093505060606110f689828a01610f96565b9150509295509295509295565b61110c81610f77565b82525050565b5f6020820190506111255f830184611103565b92915050565b5f602082840312156111405761113f610f6f565b5b5f61114d84828501610f96565b91505092915050565b5f81519050919050565b5f82825260208201905092915050565b5f819050602082019050919050565b61118881610f77565b82525050565b5f611199838361117f565b60208301905092915050565b5f602082019050919050565b5f6111bb82611156565b6111c58185611160565b93506111d083611170565b805f5b838110156112005781516111e7888261118e565b97506111f2836111a5565b9250506001810190506111d3565b5085935050505092915050565b5f6020820190508181035f83015261122581846111b1565b905092915050565b5f8115159050919050565b6112418161122d565b811461124b575f80fd5b50565b5f8135905061125c81611238565b92915050565b5f806040838503121561127857611277610f6f565b5b5f61128585828601610f96565b92505060206112968582860161124e565b9150509250929050565b5f81519050919050565b5f82825260208201905092915050565b5f5b838110156112d75780820151818401526020810190506112bc565b5f8484015250505050565b5f601f19601f8301169050919050565b5f6112fc826112a0565b61130681856112aa565b93506113168185602086016112ba565b61131f816112e2565b840191505092915050565b5f81519050919050565b5f82825260208201905092915050565b5f61134e8261132a565b6113588185611334565b93506113688185602086016112ba565b611371816112e2565b840191505092915050565b5f819050919050565b61138e8161137c565b82525050565b5f60ff82169050919050565b6113a981611394565b82525050565b6113b88161122d565b82525050565b5f60e083015f8301516113d35f86018261117f565b50602083015184820360208601526113eb82826112f2565b915050604083015184820360408601526114058282611344565b915050606083015161141a606086018261117f565b50608083015161142d6080860182611385565b5060a083015161144060a08601826113a0565b5060c083015161145360c08601826113af565b508091505092915050565b5f6020820190508181035f83015261147681846113be565b905092915050565b6114878161122d565b82525050565b5f6020820190506114a05f83018461147e565b92915050565b6114af8161137c565b82525050565b5f6020820190506114c85f8301846114a6565b92915050565b5f82825260208201905092915050565b7f436f6e74656e74207265662063616e6e6f74206265207a65726f0000000000005f82015250565b5f611512601a836114ce565b915061151d826114de565b602082019050919050565b5f6020820190508181035f83015261153f81611506565b9050919050565b7f417574686f722063616e6e6f74206265207a65726f00000000000000000000005f82015250565b5f61157a6015836114ce565b915061158582611546565b602082019050919050565b5f6020820190508181035f8301526115a78161156e565b9050919050565b7f496e76616c6964206368616e67652074797065000000000000000000000000005f82015250565b5f6115e26013836114ce565b91506115ed826115ae565b602082019050919050565b5f6020820190508181035f83015261160f816115d6565b9050919050565b7f4e487b71000000000000000000000000000000000000000000000000000000005f52601160045260245ffd5b5f61164d8261137c565b91507fffffffffffffffffffffffffffffffffffffffffffffffffffffffffffffffff820361167f5761167e611616565b5b600182019050919050565b5f819050919050565b6116a461169f82610f77565b61168a565b82525050565b5f81905092915050565b828183375f83830152505050565b5f6116cd83856116aa565b93506116da8385846116b4565b82840190509392505050565b5f81905092915050565b5f6116fb83856116e6565b93506117088385846116b4565b82840190509392505050565b5f819050919050565b61172e6117298261137c565b611714565b82525050565b5f61173f828b611693565b60208201915061175082898b6116c2565b915061175d8287896116f0565b91506117698286611693565b602082019150611779828561171d565b602082019150611789828461171d565b6020820191508190509998505050505050505050565b7f4e487b71000000000000000000000000000000000000000000000000000000005f52604160045260245ffd5b7f4e487b71000000000000000000000000000000000000000000000000000000005f52602260045260245ffd5b5f600282049050600182168061181057607f821691505b602082108103611823576118226117cc565b5b50919050565b5f819050815f5260205f209050919050565b5f6020601f8301049050919050565b5f82821b905092915050565b5f600883026118857fffffffffffffffffffffffffffffffffffffffffffffffffffffffffffffffff8261184a565b61188f868361184a565b95508019841693508086168417925050509392505050565b5f819050919050565b5f6118ca6118c56118c08461137c565b6118a7565b61137c565b9050919050565b5f819050919050565b6118e3836118b0565b6118f76118ef826118d1565b848454611856565b825550505050565b5f90565b61190b6118ff565b6119168184846118da565b505050565b5b818110156119395761192e5f82611903565b60018101905061191c565b5050565b601f82111561197e5761194f81611829565b6119588461183b565b81016020851015611967578190505b61197b6119738561183b565b83018261191b565b50505b505050565b5f82821c905092915050565b5f61199e5f1984600802611983565b1980831691505092915050565b5f6119b6838361198f565b9150826002028217905092915050565b6119cf826112a0565b67ffffffffffffffff8111156119e8576119e761179f565b5b6119f282546117f9565b6119fd82828561193d565b5f60209050601f831160018114611a2e575f8415611a1c578287015190505b611a2685826119ab565b865550611a8d565b601f198416611a3c86611829565b5f5b82811015611a6357848901518255600182019150602085019450602081019050611a3e565b86831015611a805784890151611a7c601f89168261198f565b8355505b6001600288020188555050505b505050505050565b5f819050815f5260205f209050919050565b601f821115611ae857611ab981611a95565b611ac28461183b565b81016020851015611ad1578190505b611ae5611add8561183b565b83018261191b565b50505b505050565b611af68261132a565b67ffffffffffffffff811115611b0f57611b0e61179f565b5b611b1982546117f9565b611b24828285611aa7565b5f60209050601f831160018114611b55575f8415611b43578287015190505b611b4d85826119ab565b865550611bb4565b601f198416611b6386611a95565b5f5b82811015611b8a57848901518255600182019150602085019450602081019050611b65565b86831015611ba75784890151611ba3601f89168261198f565b8355505b6001600288020188555050505b505050505050565b5f611bc783856114ce565b9350611bd48385846116b4565b611bdd836112e2565b840190509392505050565b5f6020820190508181035f830152611c01818486611bbc565b90509392505050565b7f416e6e6f746174696f6e20646f6573206e6f74206578697374000000000000005f82015250565b5f611c3e6019836114ce565b9150611c4982611c0a565b602082019050919050565b5f6020820190508181035f830152611c6b81611c32565b9050919050565b7f4e487b71000000000000000000000000000000000000000000000000000000005f52603260045260245ffd5b7f416e6e6f746174696f6e206973206e6f742070656e64696e67000000000000005f82015250565b5f611cd36019836114ce565b9150611cde82611c9f565b602082019050919050565b5f6020820190508181035f830152611d0081611cc7565b9050919050565b5f611d138284866116f0565b9150819050939250505056fea2646970667358221220229636449b5c4aeffb3cc6a41b6bded61316919a6b1c9e775eb80cadf4d2d79064736f6c63430008140033","linkReferences":{}},"methodIdentifiers":{"accept(bytes32)":"e4725ba1","acceptAll(bytes32)":"d99cdab0","annotate(bytes32,string,bytes,bytes32)":"08127cc7","getAnnotation(bytes32)":"2b1fb8e5","getContentAnnotations(bytes32)":"0dd6e7bd","isTrackingEnabled(bytes32)":"89fce0ed","listPending(bytes32)":"badab0f0","reject(bytes32)":"cabd734f","rejectAll(bytes32)":"908bb2b9","toggleTracking(bytes32,bool)":"1478f88f"},"id":148}