{"abi":[{"type":"function","name":"handlePlatformEvent","inputs":[{"name":"adapter","type":"bytes32","internalType":"bytes32"},{"name":"event_","type":"string","internalType":"string"}],"outputs":[{"name":"","type":"tuple","internalType":"struct PlatformAdapter.HandlePlatformEventOkResult","components":[{"name":"success","type":"bool","internalType":"bool"},{"name":"adapter","type":"bytes32","internalType":"bytes32"},{"name":"action","type":"string","internalType":"string"}]}],"stateMutability":"nonpayable"},{"type":"function","name":"mapNavigation","inputs":[{"name":"adapter","type":"bytes32","internalType":"bytes32"},{"name":"transition","type":"string","internalType":"string"}],"outputs":[{"name":"","type":"tuple","internalType":"struct PlatformAdapter.MapNavigationOkResult","components":[{"name":"success","type":"bool","internalType":"bool"},{"name":"adapter","type":"bytes32","internalType":"bytes32"},{"name":"platformAction","type":"string","internalType":"string"}]}],"stateMutability":"nonpayable"},{"type":"function","name":"mapZone","inputs":[{"name":"adapter","type":"bytes32","internalType":"bytes32"},{"name":"role","type":"string","internalType":"string"}],"outputs":[{"name":"","type":"tuple","internalType":"struct PlatformAdapter.MapZoneOkResult","components":[{"name":"success","type":"bool","internalType":"bool"},{"name":"adapter","type":"bytes32","internalType":"bytes32"},{"name":"platformConfig","type":"string","internalType":"string"}]}],"stateMutability":"nonpayable"},{"type":"function","name":"register","inputs":[{"name":"adapter","type":"bytes32","internalType":"bytes32"},{"name":"platform","type":"string","internalType":"string"},{"name":"config","type":"string","internalType":"string"}],"outputs":[{"name":"","type":"tuple","internalType":"struct PlatformAdapter.RegisterOkResult","components":[{"name":"success","type":"bool","internalType":"bool"},{"name":"adapter","type":"bytes32","internalType":"bytes32"}]}],"stateMutability":"nonpayable"},{"type":"event","name":"HandlePlatformEventCompleted","inputs":[{"name":"variant","type":"string","indexed":false,"internalType":"string"},{"name":"adapter","type":"bytes32","indexed":false,"internalType":"bytes32"}],"anonymous":false},{"type":"event","name":"MapNavigationCompleted","inputs":[{"name":"variant","type":"string","indexed":false,"internalType":"string"},{"name":"adapter","type":"bytes32","indexed":false,"internalType":"bytes32"}],"anonymous":false},{"type":"event","name":"MapZoneCompleted","inputs":[{"name":"variant","type":"string","indexed":false,"internalType":"string"},{"name":"adapter","type":"bytes32","indexed":false,"internalType":"bytes32"}],"anonymous":false},{"type":"event","name":"RegisterCompleted","inputs":[{"name":"variant","type":"string","indexed":false,"internalType":"string"},{"name":"adapter","type":"bytes32","indexed":false,"internalType":"bytes32"}],"anonymous":false}],"bytecode":{"object":"0x608060405234801561000f575f80fd5b5061159b8061001d5f395ff3fe608060405234801561000f575f80fd5b506004361061004a575f3560e01c806352a619b51461004e578063557e790a1461007e57806358fd6aec146100ae578063a4aecf21146100de575b5f80fd5b610068600480360381019061006391906109cf565b61010e565b6040516100759190610b19565b60405180910390f35b610098600480360381019061009391906109cf565b6102e8565b6040516100a59190610b86565b60405180910390f35b6100c860048036038101906100c39190610ba6565b6104c2565b6040516100d59190610c5b565b60405180910390f35b6100f860048036038101906100f391906109cf565b6105e7565b6040516101059190610cc1565b60405180910390f35b6101166107c6565b60015f8481526020019081526020015f205f9054906101000a900460ff16610173576040517f08c379a000000000000000000000000000000000000000000000000000000000815260040161016a90610d3b565b60405180910390fd5b5f8251116101b6576040517f08c379a00000000000000000000000000000000000000000000000000000000081526004016101ad90610da3565b60405180910390fd5b5f805f8581526020019081526020015f2080546101d290610dee565b80601f01602080910402602001604051908101604052809291908181526020018280546101fe90610dee565b80156102495780601f1061022057610100808354040283529160200191610249565b820191905f5260205f20905b81548152906001019060200180831161022c57829003601f168201915b50505050508060200190518101906102619190610e8c565b5090505f8184604051602001610278929190610f86565b60405160208183030381529060405290507f4f538a0d0790e674820dc01bc1ebc585ac96e6c87589910c374ba6493dbdec55856040516102b8919061100d565b60405180910390a16040518060600160405280600115158152602001868152602001828152509250505092915050565b6102f06107ea565b60015f8481526020019081526020015f205f9054906101000a900460ff1661034d576040517f08c379a000000000000000000000000000000000000000000000000000000000815260040161034490610d3b565b60405180910390fd5b5f825111610390576040517f08c379a000000000000000000000000000000000000000000000000000000000815260040161038790611083565b60405180910390fd5b5f805f8581526020019081526020015f2080546103ac90610dee565b80601f01602080910402602001604051908101604052809291908181526020018280546103d890610dee565b80156104235780601f106103fa57610100808354040283529160200191610423565b820191905f5260205f20905b81548152906001019060200180831161040657829003601f168201915b505050505080602001905181019061043b9190610e8c565b5090505f81846040516020016104529291906110eb565b60405160208183030381529060405290507f4cb52ee3eac5b674f0ea9ad8add514ae0edb4607f5cae68c2f023e146c9a8d8c85604051610492919061100d565b60405180910390a16040518060600160405280600115158152602001868152602001828152509250505092915050565b6104ca61080e565b60015f8581526020019081526020015f205f9054906101000a900460ff1615610528576040517f08c379a000000000000000000000000000000000000000000000000000000000815260040161051f90611163565b60405180910390fd5b828260405160200161053b9291906111b9565b6040516020818303038152906040525f808681526020019081526020015f209081610566919061139e565b506001805f8681526020019081526020015f205f6101000a81548160ff0219169083151502179055507f0402c886f5c1bb50afb826d1767a153123631152c678fbec8089e9e8ee3e49bf846040516105be919061100d565b60405180910390a160405180604001604052806001151581526020018581525090509392505050565b6105ef61082b565b60015f8481526020019081526020015f205f9054906101000a900460ff1661064c576040517f08c379a000000000000000000000000000000000000000000000000000000000815260040161064390610d3b565b60405180910390fd5b5f82511161068f576040517f08c379a0000000000000000000000000000000000000000000000000000000008152600401610686906114b7565b60405180910390fd5b5f805f808681526020019081526020015f2080546106ac90610dee565b80601f01602080910402602001604051908101604052809291908181526020018280546106d890610dee565b80156107235780601f106106fa57610100808354040283529160200191610723565b820191905f5260205f20905b81548152906001019060200180831161070657829003601f168201915b505050505080602001905181019061073b9190610e8c565b915091505f8285836040516020016107559392919061151f565b60405160208183030381529060405290507f487fa3c42738329917f9df1e360c706b3b83a48f0837f19cc9a6f742834657e186604051610795919061100d565b60405180910390a1604051806060016040528060011515815260200187815260200182815250935050505092915050565b60405180606001604052805f151581526020015f8019168152602001606081525090565b60405180606001604052805f151581526020015f8019168152602001606081525090565b60405180604001604052805f151581526020015f80191681525090565b60405180606001604052805f151581526020015f8019168152602001606081525090565b5f604051905090565b5f80fd5b5f80fd5b5f819050919050565b61087281610860565b811461087c575f80fd5b50565b5f8135905061088d81610869565b92915050565b5f80fd5b5f80fd5b5f601f19601f8301169050919050565b7f4e487b71000000000000000000000000000000000000000000000000000000005f52604160045260245ffd5b6108e18261089b565b810181811067ffffffffffffffff82111715610900576108ff6108ab565b5b80604052505050565b5f61091261084f565b905061091e82826108d8565b919050565b5f67ffffffffffffffff82111561093d5761093c6108ab565b5b6109468261089b565b9050602081019050919050565b828183375f83830152505050565b5f61097361096e84610923565b610909565b90508281526020810184848401111561098f5761098e610897565b5b61099a848285610953565b509392505050565b5f82601f8301126109b6576109b5610893565b5b81356109c6848260208601610961565b91505092915050565b5f80604083850312156109e5576109e4610858565b5b5f6109f28582860161087f565b925050602083013567ffffffffffffffff811115610a1357610a1261085c565b5b610a1f858286016109a2565b9150509250929050565b5f8115159050919050565b610a3d81610a29565b82525050565b610a4c81610860565b82525050565b5f81519050919050565b5f82825260208201905092915050565b5f5b83811015610a89578082015181840152602081019050610a6e565b5f8484015250505050565b5f610a9e82610a52565b610aa88185610a5c565b9350610ab8818560208601610a6c565b610ac18161089b565b840191505092915050565b5f606083015f830151610ae15f860182610a34565b506020830151610af46020860182610a43565b5060408301518482036040860152610b0c8282610a94565b9150508091505092915050565b5f6020820190508181035f830152610b318184610acc565b905092915050565b5f606083015f830151610b4e5f860182610a34565b506020830151610b616020860182610a43565b5060408301518482036040860152610b798282610a94565b9150508091505092915050565b5f6020820190508181035f830152610b9e8184610b39565b905092915050565b5f805f60608486031215610bbd57610bbc610858565b5b5f610bca8682870161087f565b935050602084013567ffffffffffffffff811115610beb57610bea61085c565b5b610bf7868287016109a2565b925050604084013567ffffffffffffffff811115610c1857610c1761085c565b5b610c24868287016109a2565b9150509250925092565b604082015f820151610c425f850182610a34565b506020820151610c556020850182610a43565b50505050565b5f604082019050610c6e5f830184610c2e565b92915050565b5f606083015f830151610c895f860182610a34565b506020830151610c9c6020860182610a43565b5060408301518482036040860152610cb48282610a94565b9150508091505092915050565b5f6020820190508181035f830152610cd98184610c74565b905092915050565b5f82825260208201905092915050565b7f41646170746572206e6f742072656769737465726564000000000000000000005f82015250565b5f610d25601683610ce1565b9150610d3082610cf1565b602082019050919050565b5f6020820190508181035f830152610d5281610d19565b9050919050565b7f4576656e74206d757374206e6f7420626520656d7074790000000000000000005f82015250565b5f610d8d601783610ce1565b9150610d9882610d59565b602082019050919050565b5f6020820190508181035f830152610dba81610d81565b9050919050565b7f4e487b71000000000000000000000000000000000000000000000000000000005f52602260045260245ffd5b5f6002820490506001821680610e0557607f821691505b602082108103610e1857610e17610dc1565b5b50919050565b5f610e30610e2b84610923565b610909565b905082815260208101848484011115610e4c57610e4b610897565b5b610e57848285610a6c565b509392505050565b5f82601f830112610e7357610e72610893565b5b8151610e83848260208601610e1e565b91505092915050565b5f8060408385031215610ea257610ea1610858565b5b5f83015167ffffffffffffffff811115610ebf57610ebe61085c565b5b610ecb85828601610e5f565b925050602083015167ffffffffffffffff811115610eec57610eeb61085c565b5b610ef885828601610e5f565b9150509250929050565b5f81905092915050565b5f610f1682610a52565b610f208185610f02565b9350610f30818560208601610a6c565b80840191505092915050565b7f3a68616e646c653a0000000000000000000000000000000000000000000000005f82015250565b5f610f70600883610f02565b9150610f7b82610f3c565b600882019050919050565b5f610f918285610f0c565b9150610f9c82610f64565b9150610fa88284610f0c565b91508190509392505050565b7f6f6b0000000000000000000000000000000000000000000000000000000000005f82015250565b5f610fe8600283610ce1565b9150610ff382610fb4565b602082019050919050565b61100781610860565b82525050565b5f6040820190508181035f83015261102481610fdc565b90506110336020830184610ffe565b92915050565b7f5472616e736974696f6e206d757374206e6f7420626520656d707479000000005f82015250565b5f61106d601c83610ce1565b915061107882611039565b602082019050919050565b5f6020820190508181035f83015261109a81611061565b9050919050565b7f3a000000000000000000000000000000000000000000000000000000000000005f82015250565b5f6110d5600183610f02565b91506110e0826110a1565b600182019050919050565b5f6110f68285610f0c565b9150611101826110c9565b915061110d8284610f0c565b91508190509392505050565b7f4164617074657220616c726561647920726567697374657265640000000000005f82015250565b5f61114d601a83610ce1565b915061115882611119565b602082019050919050565b5f6020820190508181035f83015261117a81611141565b9050919050565b5f61118b82610a52565b6111958185610ce1565b93506111a5818560208601610a6c565b6111ae8161089b565b840191505092915050565b5f6040820190508181035f8301526111d18185611181565b905081810360208301526111e58184611181565b90509392505050565b5f81519050919050565b5f819050815f5260205f209050919050565b5f6020601f8301049050919050565b5f82821b905092915050565b5f600883026112547fffffffffffffffffffffffffffffffffffffffffffffffffffffffffffffffff82611219565b61125e8683611219565b95508019841693508086168417925050509392505050565b5f819050919050565b5f819050919050565b5f6112a261129d61129884611276565b61127f565b611276565b9050919050565b5f819050919050565b6112bb83611288565b6112cf6112c7826112a9565b848454611225565b825550505050565b5f90565b6112e36112d7565b6112ee8184846112b2565b505050565b5b81811015611311576113065f826112db565b6001810190506112f4565b5050565b601f82111561135657611327816111f8565b6113308461120a565b8101602085101561133f578190505b61135361134b8561120a565b8301826112f3565b50505b505050565b5f82821c905092915050565b5f6113765f198460080261135b565b1980831691505092915050565b5f61138e8383611367565b9150826002028217905092915050565b6113a7826111ee565b67ffffffffffffffff8111156113c0576113bf6108ab565b5b6113ca8254610dee565b6113d5828285611315565b5f60209050601f831160018114611406575f84156113f4578287015190505b6113fe8582611383565b865550611465565b601f198416611414866111f8565b5f5b8281101561143b57848901518255600182019150602085019450602081019050611416565b868310156114585784890151611454601f891682611367565b8355505b6001600288020188555050505b505050505050565b7f526f6c65206d757374206e6f7420626520656d707479000000000000000000005f82015250565b5f6114a1601683610ce1565b91506114ac8261146d565b602082019050919050565b5f6020820190508181035f8301526114ce81611495565b9050919050565b7f3a7a6f6e653a00000000000000000000000000000000000000000000000000005f82015250565b5f611509600683610f02565b9150611514826114d5565b600682019050919050565b5f61152a8286610f0c565b9150611535826114fd565b91506115418285610f0c565b915061154c826110c9565b91506115588284610f0c565b915081905094935050505056fea264697066735822122059e9f86a8b901ed0a29d926c0e50b67f79c9c9e822e093ebe74f83f670017d6364736f6c63430008140033","linkReferences":{}},"methodIdentifiers":{"handlePlatformEvent(bytes32,string)":"52a619b5","mapNavigation(bytes32,string)":"557e790a","mapZone(bytes32,string)":"a4aecf21","register(bytes32,string,string)":"58fd6aec"},"id":196}