{"abi":[{"type":"function","name":"addTerm","inputs":[{"name":"termId","type":"bytes32","internalType":"bytes32"},{"name":"vocabId","type":"bytes32","internalType":"bytes32"},{"name":"name","type":"string","internalType":"string"},{"name":"parentTermId","type":"bytes32","internalType":"bytes32"}],"outputs":[],"stateMutability":"nonpayable"},{"type":"function","name":"createVocabulary","inputs":[{"name":"vocabId","type":"bytes32","internalType":"bytes32"},{"name":"name","type":"string","internalType":"string"}],"outputs":[],"stateMutability":"nonpayable"},{"type":"function","name":"getTerm","inputs":[{"name":"termId","type":"bytes32","internalType":"bytes32"}],"outputs":[{"name":"","type":"tuple","internalType":"struct Taxonomy.Term","components":[{"name":"vocabId","type":"bytes32","internalType":"bytes32"},{"name":"name","type":"string","internalType":"string"},{"name":"parentTermId","type":"bytes32","internalType":"bytes32"},{"name":"weight","type":"uint256","internalType":"uint256"},{"name":"exists","type":"bool","internalType":"bool"}]}],"stateMutability":"view"},{"type":"function","name":"getTermChildren","inputs":[{"name":"termId","type":"bytes32","internalType":"bytes32"}],"outputs":[{"name":"","type":"bytes32[]","internalType":"bytes32[]"}],"stateMutability":"view"},{"type":"function","name":"setParent","inputs":[{"name":"termId","type":"bytes32","internalType":"bytes32"},{"name":"parentTermId","type":"bytes32","internalType":"bytes32"}],"outputs":[],"stateMutability":"nonpayable"},{"type":"function","name":"tagEntity","inputs":[{"name":"nodeId","type":"bytes32","internalType":"bytes32"},{"name":"termId","type":"bytes32","internalType":"bytes32"}],"outputs":[],"stateMutability":"nonpayable"},{"type":"function","name":"untagEntity","inputs":[{"name":"nodeId","type":"bytes32","internalType":"bytes32"},{"name":"termId","type":"bytes32","internalType":"bytes32"}],"outputs":[],"stateMutability":"nonpayable"},{"type":"event","name":"EntityTagged","inputs":[{"name":"nodeId","type":"bytes32","indexed":true,"internalType":"bytes32"},{"name":"termId","type":"bytes32","indexed":true,"internalType":"bytes32"}],"anonymous":false},{"type":"event","name":"EntityUntagged","inputs":[{"name":"nodeId","type":"bytes32","indexed":true,"internalType":"bytes32"},{"name":"termId","type":"bytes32","indexed":true,"internalType":"bytes32"}],"anonymous":false},{"type":"event","name":"TermAdded","inputs":[{"name":"termId","type":"bytes32","indexed":true,"internalType":"bytes32"},{"name":"vocabId","type":"bytes32","indexed":true,"internalType":"bytes32"}],"anonymous":false},{"type":"event","name":"VocabularyCreated","inputs":[{"name":"vocabId","type":"bytes32","indexed":true,"internalType":"bytes32"},{"name":"name","type":"string","indexed":false,"internalType":"string"}],"anonymous":false}],"bytecode":{"object":"0x608060405234801561000f575f80fd5b506118008061001d5f395ff3fe608060405234801561000f575f80fd5b506004361061007b575f3560e01c8063c426d7b211610059578063c426d7b2146100e7578063d2ef676114610103578063e9275a3214610133578063f8e635141461014f5761007b565b80630415fbd41461007f57806341de3d90146100af57806373b2e241146100cb575b5f80fd5b61009960048036038101906100949190610bee565b61016b565b6040516100a69190610cd0565b60405180910390f35b6100c960048036038101906100c49190610d51565b6101d2565b005b6100e560048036038101906100e09190610dae565b610357565b005b61010160048036038101906100fc9190610dae565b61048e565b005b61011d60048036038101906101189190610bee565b610563565b60405161012a9190610f1b565b60405180910390f35b61014d60048036038101906101489190610dae565b6106b5565b005b61016960048036038101906101649190610f3b565b6108cb565b005b606060025f8381526020019081526020015f208054806020026020016040519081016040528092919081815260200182805480156101c657602002820191905f5260205f20905b8154815260200190600101908083116101b2575b50505050509050919050565b5f808481526020019081526020015f206001015f9054906101000a900460ff1615610232576040517f08c379a000000000000000000000000000000000000000000000000000000000815260040161022990611019565b60405180910390fd5b5f8282905011610277576040517f08c379a000000000000000000000000000000000000000000000000000000000815260040161026e90611081565b60405180910390fd5b604051806040016040528083838080601f0160208091040260200160405190810160405280939291908181526020018383808284375f81840152601f19601f820116905080830192505050505050508152602001600115158152505f808581526020019081526020015f205f820151815f0190816102f591906112c6565b506020820151816001015f6101000a81548160ff021916908315150217905550905050827f6b3bb09d91b362a8782ef0fce72c6f0d5ed9d0c5809325f8cc32bed80d9609cb838360405161034a9291906113cf565b60405180910390a2505050565b60015f8281526020019081526020015f206004015f9054906101000a900460ff166103b7576040517f08c379a00000000000000000000000000000000000000000000000000000000081526004016103ae9061143b565b60405180910390fd5b60035f8381526020019081526020015f205f8281526020019081526020015f205f9054906101000a900460ff1615610424576040517f08c379a000000000000000000000000000000000000000000000000000000000815260040161041b906114a3565b60405180910390fd5b600160035f8481526020019081526020015f205f8381526020019081526020015f205f6101000a81548160ff02191690831515021790555080827fac89510d7a9aef96a5bce969381ea18e10f9fc2e523deefb2cb67b1c916b68b960405160405180910390a35050565b60035f8381526020019081526020015f205f8281526020019081526020015f205f9054906101000a900460ff166104fa576040517f08c379a00000000000000000000000000000000000000000000000000000000081526004016104f19061150b565b60405180910390fd5b5f60035f8481526020019081526020015f205f8381526020019081526020015f205f6101000a81548160ff02191690831515021790555080827f94e19088d25f531b128e50cec5211a55208e6583d36b570325d150f05f0613c660405160405180910390a35050565b61056b610b80565b60015f8381526020019081526020015f206004015f9054906101000a900460ff166105cb576040517f08c379a00000000000000000000000000000000000000000000000000000000081526004016105c29061143b565b60405180910390fd5b60015f8381526020019081526020015f206040518060a00160405290815f8201548152602001600182018054610600906110f9565b80601f016020809104026020016040519081016040528092919081815260200182805461062c906110f9565b80156106775780601f1061064e57610100808354040283529160200191610677565b820191905f5260205f20905b81548152906001019060200180831161065a57829003601f168201915b505050505081526020016002820154815260200160038201548152602001600482015f9054906101000a900460ff1615151515815250509050919050565b60015f8381526020019081526020015f206004015f9054906101000a900460ff16610715576040517f08c379a000000000000000000000000000000000000000000000000000000000815260040161070c9061143b565b60405180910390fd5b5f801b811461077f5760015f8281526020019081526020015f206004015f9054906101000a900460ff1661077e576040517f08c379a000000000000000000000000000000000000000000000000000000000815260040161077590611573565b60405180910390fd5b5b5f60015f8481526020019081526020015f206002015490505f801b811461086e575f60025f8381526020019081526020015f2090505f5b818054905081101561086b57848282815481106107d6576107d5611591565b5b905f5260205f200154036108585781600183805490506107f691906115eb565b8154811061080757610806611591565b5b905f5260205f20015482828154811061082357610822611591565b5b905f5260205f200181905550818054806108405761083f61161e565b5b600190038181905f5260205f20015f9055905561086b565b80806108639061164b565b9150506107b6565b50505b8160015f8581526020019081526020015f20600201819055505f801b82146108c65760025f8381526020019081526020015f2083908060018154018082558091505060019003905f5260205f20015f90919091909150555b505050565b5f808581526020019081526020015f206001015f9054906101000a900460ff1661092a576040517f08c379a0000000000000000000000000000000000000000000000000000000008152600401610921906116dc565b60405180910390fd5b60015f8681526020019081526020015f206004015f9054906101000a900460ff161561098b576040517f08c379a000000000000000000000000000000000000000000000000000000000815260040161098290611744565b60405180910390fd5b5f83839050116109d0576040517f08c379a00000000000000000000000000000000000000000000000000000000081526004016109c7906117ac565b60405180910390fd5b5f801b8114610a3a5760015f8281526020019081526020015f206004015f9054906101000a900460ff16610a39576040517f08c379a0000000000000000000000000000000000000000000000000000000008152600401610a3090611573565b60405180910390fd5b5b6040518060a0016040528085815260200184848080601f0160208091040260200160405190810160405280939291908181526020018383808284375f81840152601f19601f8201169050808301925050505050505081526020018281526020015f81526020016001151581525060015f8781526020019081526020015f205f820151815f01556020820151816001019081610ad591906112c6565b5060408201518160020155606082015181600301556080820151816004015f6101000a81548160ff0219169083151502179055509050505f801b8114610b4b5760025f8281526020019081526020015f2085908060018154018082558091505060019003905f5260205f20015f90919091909150555b83857fe8fcac09034b1f91f69fb46910e5095e8d8009a6962462c5b0f1ffd69d78e3e660405160405180910390a35050505050565b6040518060a001604052805f8019168152602001606081526020015f80191681526020015f81526020015f151581525090565b5f80fd5b5f80fd5b5f819050919050565b610bcd81610bbb565b8114610bd7575f80fd5b50565b5f81359050610be881610bc4565b92915050565b5f60208284031215610c0357610c02610bb3565b5b5f610c1084828501610bda565b91505092915050565b5f81519050919050565b5f82825260208201905092915050565b5f819050602082019050919050565b610c4b81610bbb565b82525050565b5f610c5c8383610c42565b60208301905092915050565b5f602082019050919050565b5f610c7e82610c19565b610c888185610c23565b9350610c9383610c33565b805f5b83811015610cc3578151610caa8882610c51565b9750610cb583610c68565b925050600181019050610c96565b5085935050505092915050565b5f6020820190508181035f830152610ce88184610c74565b905092915050565b5f80fd5b5f80fd5b5f80fd5b5f8083601f840112610d1157610d10610cf0565b5b8235905067ffffffffffffffff811115610d2e57610d2d610cf4565b5b602083019150836001820283011115610d4a57610d49610cf8565b5b9250929050565b5f805f60408486031215610d6857610d67610bb3565b5b5f610d7586828701610bda565b935050602084013567ffffffffffffffff811115610d9657610d95610bb7565b5b610da286828701610cfc565b92509250509250925092565b5f8060408385031215610dc457610dc3610bb3565b5b5f610dd185828601610bda565b9250506020610de285828601610bda565b9150509250929050565b5f81519050919050565b5f82825260208201905092915050565b5f5b83811015610e23578082015181840152602081019050610e08565b5f8484015250505050565b5f601f19601f8301169050919050565b5f610e4882610dec565b610e528185610df6565b9350610e62818560208601610e06565b610e6b81610e2e565b840191505092915050565b5f819050919050565b610e8881610e76565b82525050565b5f8115159050919050565b610ea281610e8e565b82525050565b5f60a083015f830151610ebd5f860182610c42565b5060208301518482036020860152610ed58282610e3e565b9150506040830151610eea6040860182610c42565b506060830151610efd6060860182610e7f565b506080830151610f106080860182610e99565b508091505092915050565b5f6020820190508181035f830152610f338184610ea8565b905092915050565b5f805f805f60808688031215610f5457610f53610bb3565b5b5f610f6188828901610bda565b9550506020610f7288828901610bda565b945050604086013567ffffffffffffffff811115610f9357610f92610bb7565b5b610f9f88828901610cfc565b93509350506060610fb288828901610bda565b9150509295509295909350565b5f82825260208201905092915050565b7f566f636162756c61727920616c726561647920657869737473000000000000005f82015250565b5f611003601983610fbf565b915061100e82610fcf565b602082019050919050565b5f6020820190508181035f83015261103081610ff7565b9050919050565b7f4e616d652063616e6e6f7420626520656d7074790000000000000000000000005f82015250565b5f61106b601483610fbf565b915061107682611037565b602082019050919050565b5f6020820190508181035f8301526110988161105f565b9050919050565b7f4e487b71000000000000000000000000000000000000000000000000000000005f52604160045260245ffd5b7f4e487b71000000000000000000000000000000000000000000000000000000005f52602260045260245ffd5b5f600282049050600182168061111057607f821691505b602082108103611123576111226110cc565b5b50919050565b5f819050815f5260205f209050919050565b5f6020601f8301049050919050565b5f82821b905092915050565b5f600883026111857fffffffffffffffffffffffffffffffffffffffffffffffffffffffffffffffff8261114a565b61118f868361114a565b95508019841693508086168417925050509392505050565b5f819050919050565b5f6111ca6111c56111c084610e76565b6111a7565b610e76565b9050919050565b5f819050919050565b6111e3836111b0565b6111f76111ef826111d1565b848454611156565b825550505050565b5f90565b61120b6111ff565b6112168184846111da565b505050565b5b818110156112395761122e5f82611203565b60018101905061121c565b5050565b601f82111561127e5761124f81611129565b6112588461113b565b81016020851015611267578190505b61127b6112738561113b565b83018261121b565b50505b505050565b5f82821c905092915050565b5f61129e5f1984600802611283565b1980831691505092915050565b5f6112b6838361128f565b9150826002028217905092915050565b6112cf82610dec565b67ffffffffffffffff8111156112e8576112e761109f565b5b6112f282546110f9565b6112fd82828561123d565b5f60209050601f83116001811461132e575f841561131c578287015190505b61132685826112ab565b86555061138d565b601f19841661133c86611129565b5f5b828110156113635784890151825560018201915060208501945060208101905061133e565b86831015611380578489015161137c601f89168261128f565b8355505b6001600288020188555050505b505050505050565b828183375f83830152505050565b5f6113ae8385610fbf565b93506113bb838584611395565b6113c483610e2e565b840190509392505050565b5f6020820190508181035f8301526113e88184866113a3565b90509392505050565b7f5465726d20646f6573206e6f74206578697374000000000000000000000000005f82015250565b5f611425601383610fbf565b9150611430826113f1565b602082019050919050565b5f6020820190508181035f83015261145281611419565b9050919050565b7f456e7469747920616c7265616479207461676765642077697468207465726d005f82015250565b5f61148d601f83610fbf565b915061149882611459565b602082019050919050565b5f6020820190508181035f8301526114ba81611481565b9050919050565b7f456e74697479206e6f74207461676765642077697468207465726d00000000005f82015250565b5f6114f5601b83610fbf565b9150611500826114c1565b602082019050919050565b5f6020820190508181035f830152611522816114e9565b9050919050565b7f506172656e74207465726d20646f6573206e6f742065786973740000000000005f82015250565b5f61155d601a83610fbf565b915061156882611529565b602082019050919050565b5f6020820190508181035f83015261158a81611551565b9050919050565b7f4e487b71000000000000000000000000000000000000000000000000000000005f52603260045260245ffd5b7f4e487b71000000000000000000000000000000000000000000000000000000005f52601160045260245ffd5b5f6115f582610e76565b915061160083610e76565b9250828203905081811115611618576116176115be565b5b92915050565b7f4e487b71000000000000000000000000000000000000000000000000000000005f52603160045260245ffd5b5f61165582610e76565b91507fffffffffffffffffffffffffffffffffffffffffffffffffffffffffffffffff8203611687576116866115be565b5b600182019050919050565b7f566f636162756c61727920646f6573206e6f74206578697374000000000000005f82015250565b5f6116c6601983610fbf565b91506116d182611692565b602082019050919050565b5f6020820190508181035f8301526116f3816116ba565b9050919050565b7f5465726d20616c726561647920657869737473000000000000000000000000005f82015250565b5f61172e601383610fbf565b9150611739826116fa565b602082019050919050565b5f6020820190508181035f83015261175b81611722565b9050919050565b7f5465726d206e616d652063616e6e6f7420626520656d707479000000000000005f82015250565b5f611796601983610fbf565b91506117a182611762565b602082019050919050565b5f6020820190508181035f8301526117c38161178a565b905091905056fea2646970667358221220d908b8da10296526016008780d3ce4186b174d720821a27dc5d3eac2a524225c64736f6c63430008140033","linkReferences":{}},"methodIdentifiers":{"addTerm(bytes32,bytes32,string,bytes32)":"f8e63514","createVocabulary(bytes32,string)":"41de3d90","getTerm(bytes32)":"d2ef6761","getTermChildren(bytes32)":"0415fbd4","setParent(bytes32,bytes32)":"e9275a32","tagEntity(bytes32,bytes32)":"73b2e241","untagEntity(bytes32,bytes32)":"c426d7b2"},"id":281}