{"abi":[{"type":"function","name":"getPlugin","inputs":[{"name":"typeId","type":"bytes32","internalType":"bytes32"},{"name":"pluginId","type":"bytes32","internalType":"bytes32"}],"outputs":[{"name":"","type":"tuple","internalType":"struct PluginRegistry.PluginDef","components":[{"name":"config","type":"string","internalType":"string"},{"name":"exists","type":"bool","internalType":"bool"}]}],"stateMutability":"view"},{"type":"function","name":"getPlugins","inputs":[{"name":"typeId","type":"bytes32","internalType":"bytes32"}],"outputs":[{"name":"","type":"bytes32[]","internalType":"bytes32[]"}],"stateMutability":"view"},{"type":"function","name":"registerPlugin","inputs":[{"name":"typeId","type":"bytes32","internalType":"bytes32"},{"name":"pluginId","type":"bytes32","internalType":"bytes32"},{"name":"config","type":"string","internalType":"string"}],"outputs":[],"stateMutability":"nonpayable"},{"type":"function","name":"registerType","inputs":[{"name":"typeId","type":"bytes32","internalType":"bytes32"},{"name":"definition","type":"string","internalType":"string"}],"outputs":[],"stateMutability":"nonpayable"},{"type":"function","name":"typeExists","inputs":[{"name":"typeId","type":"bytes32","internalType":"bytes32"}],"outputs":[{"name":"","type":"bool","internalType":"bool"}],"stateMutability":"view"},{"type":"event","name":"PluginRegistered","inputs":[{"name":"typeId","type":"bytes32","indexed":true,"internalType":"bytes32"},{"name":"pluginId","type":"bytes32","indexed":true,"internalType":"bytes32"}],"anonymous":false},{"type":"event","name":"TypeRegistered","inputs":[{"name":"typeId","type":"bytes32","indexed":true,"internalType":"bytes32"}],"anonymous":false}],"bytecode":{"object":"0x608060405234801561000f575f80fd5b506111538061001d5f395ff3fe608060405234801561000f575f80fd5b5060043610610055575f3560e01c80631855e0291461005957806374042e5214610089578063bcd5ec48146100a5578063c4d69061146100d5578063e894e26b146100f1575b5f80fd5b610073600480360381019061006e91906107a1565b610121565b60405161008091906108bd565b60405180910390f35b6100a3600480360381019061009e919061093e565b610274565b005b6100bf60048036038101906100ba91906109af565b6104a1565b6040516100cc9190610a91565b60405180910390f35b6100ef60048036038101906100ea9190610ab1565b610567565b005b61010b600480360381019061010691906109af565b610723565b6040516101189190610b1d565b60405180910390f35b61012961074b565b60015f8481526020019081526020015f205f8381526020019081526020015f206001015f9054906101000a900460ff16610198576040517f08c379a000000000000000000000000000000000000000000000000000000000815260040161018f90610b90565b60405180910390fd5b60015f8481526020019081526020015f205f8381526020019081526020015f206040518060400160405290815f820180546101d290610bdb565b80601f01602080910402602001604051908101604052809291908181526020018280546101fe90610bdb565b80156102495780601f1061022057610100808354040283529160200191610249565b820191905f5260205f20905b81548152906001019060200180831161022c57829003601f168201915b50505050508152602001600182015f9054906101000a900460ff161515151581525050905092915050565b5f808581526020019081526020015f206001015f9054906101000a900460ff166102d3576040517f08c379a00000000000000000000000000000000000000000000000000000000081526004016102ca90610c55565b60405180910390fd5b5f801b8303610317576040517f08c379a000000000000000000000000000000000000000000000000000000000815260040161030e90610cbd565b60405180910390fd5b60015f8581526020019081526020015f205f8481526020019081526020015f206001015f9054906101000a900460ff1615610387576040517f08c379a000000000000000000000000000000000000000000000000000000000815260040161037e90610d25565b60405180910390fd5b604051806040016040528083838080601f0160208091040260200160405190810160405280939291908181526020018383808284375f81840152601f19601f8201169050808301925050505050505081526020016001151581525060015f8681526020019081526020015f205f8581526020019081526020015f205f820151815f0190816104159190610f16565b506020820151816001015f6101000a81548160ff02191690831515021790555090505060025f8581526020019081526020015f2083908060018154018082558091505060019003905f5260205f20015f909190919091505582847f8c964b0aae1c743da482f719a4b14898b04b913b1393aa9ac566d499f5e2ab0a60405160405180910390a350505050565b60605f808381526020019081526020015f206001015f9054906101000a900460ff16610502576040517f08c379a00000000000000000000000000000000000000000000000000000000081526004016104f990610c55565b60405180910390fd5b60025f8381526020019081526020015f2080548060200260200160405190810160405280929190818152602001828054801561055b57602002820191905f5260205f20905b815481526020019060010190808311610547575b50505050509050919050565b5f801b83036105ab576040517f08c379a00000000000000000000000000000000000000000000000000000000081526004016105a29061102f565b60405180910390fd5b5f808481526020019081526020015f206001015f9054906101000a900460ff161561060b576040517f08c379a000000000000000000000000000000000000000000000000000000000815260040161060290611097565b60405180910390fd5b5f8282905011610650576040517f08c379a0000000000000000000000000000000000000000000000000000000008152600401610647906110ff565b60405180910390fd5b604051806040016040528083838080601f0160208091040260200160405190810160405280939291908181526020018383808284375f81840152601f19601f820116905080830192505050505050508152602001600115158152505f808581526020019081526020015f205f820151815f0190816106ce9190610f16565b506020820151816001015f6101000a81548160ff021916908315150217905550905050827f8b76f4014d81bd71ff2a4ef276042c5b8d8072523ef28d9ee6a8abecd0e4b1cb60405160405180910390a2505050565b5f805f8381526020019081526020015f206001015f9054906101000a900460ff169050919050565b6040518060400160405280606081526020015f151581525090565b5f80fd5b5f80fd5b5f819050919050565b6107808161076e565b811461078a575f80fd5b50565b5f8135905061079b81610777565b92915050565b5f80604083850312156107b7576107b6610766565b5b5f6107c48582860161078d565b92505060206107d58582860161078d565b9150509250929050565b5f81519050919050565b5f82825260208201905092915050565b5f5b838110156108165780820151818401526020810190506107fb565b5f8484015250505050565b5f601f19601f8301169050919050565b5f61083b826107df565b61084581856107e9565b93506108558185602086016107f9565b61085e81610821565b840191505092915050565b5f8115159050919050565b61087d81610869565b82525050565b5f604083015f8301518482035f86015261089d8282610831565b91505060208301516108b26020860182610874565b508091505092915050565b5f6020820190508181035f8301526108d58184610883565b905092915050565b5f80fd5b5f80fd5b5f80fd5b5f8083601f8401126108fe576108fd6108dd565b5b8235905067ffffffffffffffff81111561091b5761091a6108e1565b5b602083019150836001820283011115610937576109366108e5565b5b9250929050565b5f805f806060858703121561095657610955610766565b5b5f6109638782880161078d565b94505060206109748782880161078d565b935050604085013567ffffffffffffffff8111156109955761099461076a565b5b6109a1878288016108e9565b925092505092959194509250565b5f602082840312156109c4576109c3610766565b5b5f6109d18482850161078d565b91505092915050565b5f81519050919050565b5f82825260208201905092915050565b5f819050602082019050919050565b610a0c8161076e565b82525050565b5f610a1d8383610a03565b60208301905092915050565b5f602082019050919050565b5f610a3f826109da565b610a4981856109e4565b9350610a54836109f4565b805f5b83811015610a84578151610a6b8882610a12565b9750610a7683610a29565b925050600181019050610a57565b5085935050505092915050565b5f6020820190508181035f830152610aa98184610a35565b905092915050565b5f805f60408486031215610ac857610ac7610766565b5b5f610ad58682870161078d565b935050602084013567ffffffffffffffff811115610af657610af561076a565b5b610b02868287016108e9565b92509250509250925092565b610b1781610869565b82525050565b5f602082019050610b305f830184610b0e565b92915050565b5f82825260208201905092915050565b7f506c7567696e206e6f7420666f756e64000000000000000000000000000000005f82015250565b5f610b7a601083610b36565b9150610b8582610b46565b602082019050919050565b5f6020820190508181035f830152610ba781610b6e565b9050919050565b7f4e487b71000000000000000000000000000000000000000000000000000000005f52602260045260245ffd5b5f6002820490506001821680610bf257607f821691505b602082108103610c0557610c04610bae565b5b50919050565b7f506c7567696e2074797065206e6f7420666f756e6400000000000000000000005f82015250565b5f610c3f601583610b36565b9150610c4a82610c0b565b602082019050919050565b5f6020820190508181035f830152610c6c81610c33565b9050919050565b7f506c7567696e2049442063616e6e6f74206265207a65726f00000000000000005f82015250565b5f610ca7601883610b36565b9150610cb282610c73565b602082019050919050565b5f6020820190508181035f830152610cd481610c9b565b9050919050565b7f506c7567696e20616c72656164792065786973747300000000000000000000005f82015250565b5f610d0f601583610b36565b9150610d1a82610cdb565b602082019050919050565b5f6020820190508181035f830152610d3c81610d03565b9050919050565b7f4e487b71000000000000000000000000000000000000000000000000000000005f52604160045260245ffd5b5f819050815f5260205f209050919050565b5f6020601f8301049050919050565b5f82821b905092915050565b5f60088302610dcc7fffffffffffffffffffffffffffffffffffffffffffffffffffffffffffffffff82610d91565b610dd68683610d91565b95508019841693508086168417925050509392505050565b5f819050919050565b5f819050919050565b5f610e1a610e15610e1084610dee565b610df7565b610dee565b9050919050565b5f819050919050565b610e3383610e00565b610e47610e3f82610e21565b848454610d9d565b825550505050565b5f90565b610e5b610e4f565b610e66818484610e2a565b505050565b5b81811015610e8957610e7e5f82610e53565b600181019050610e6c565b5050565b601f821115610ece57610e9f81610d70565b610ea884610d82565b81016020851015610eb7578190505b610ecb610ec385610d82565b830182610e6b565b50505b505050565b5f82821c905092915050565b5f610eee5f1984600802610ed3565b1980831691505092915050565b5f610f068383610edf565b9150826002028217905092915050565b610f1f826107df565b67ffffffffffffffff811115610f3857610f37610d43565b5b610f428254610bdb565b610f4d828285610e8d565b5f60209050601f831160018114610f7e575f8415610f6c578287015190505b610f768582610efb565b865550610fdd565b601f198416610f8c86610d70565b5f5b82811015610fb357848901518255600182019150602085019450602081019050610f8e565b86831015610fd05784890151610fcc601f891682610edf565b8355505b6001600288020188555050505b505050505050565b7f547970652049442063616e6e6f74206265207a65726f000000000000000000005f82015250565b5f611019601683610b36565b915061102482610fe5565b602082019050919050565b5f6020820190508181035f8301526110468161100d565b9050919050565b7f506c7567696e207479706520616c7265616479206578697374730000000000005f82015250565b5f611081601a83610b36565b915061108c8261104d565b602082019050919050565b5f6020820190508181035f8301526110ae81611075565b9050919050565b7f446566696e6974696f6e2063616e6e6f7420626520656d7074790000000000005f82015250565b5f6110e9601a83610b36565b91506110f4826110b5565b602082019050919050565b5f6020820190508181035f830152611116816110dd565b905091905056fea26469706673582212200e105919a40a3f0b4f52c4418918f3f210f2360361d51b703c2cb275d542ebf564736f6c63430008140033","linkReferences":{}},"methodIdentifiers":{"getPlugin(bytes32,bytes32)":"1855e029","getPlugins(bytes32)":"bcd5ec48","registerPlugin(bytes32,bytes32,string)":"74042e52","registerType(bytes32,string)":"c4d69061","typeExists(bytes32)":"e894e26b"},"id":197}