{"abi":[{"type":"function","name":"isQuarantined","inputs":[{"name":"testId","type":"string","internalType":"string"}],"outputs":[{"name":"","type":"bool","internalType":"bool"}],"stateMutability":"nonpayable"},{"type":"function","name":"quarantine","inputs":[{"name":"testId","type":"string","internalType":"string"},{"name":"reason","type":"string","internalType":"string"},{"name":"owner","type":"string","internalType":"string"}],"outputs":[{"name":"","type":"tuple","internalType":"struct FlakyTest.QuarantineOkResult","components":[{"name":"success","type":"bool","internalType":"bool"},{"name":"test","type":"bytes32","internalType":"bytes32"}]}],"stateMutability":"nonpayable"},{"type":"function","name":"record","inputs":[{"name":"testId","type":"string","internalType":"string"},{"name":"language","type":"string","internalType":"string"},{"name":"builder","type":"string","internalType":"string"},{"name":"testType","type":"string","internalType":"string"},{"name":"passed","type":"bool","internalType":"bool"},{"name":"duration","type":"int256","internalType":"int256"}],"outputs":[{"name":"","type":"tuple","internalType":"struct FlakyTest.RecordOkResult","components":[{"name":"success","type":"bool","internalType":"bool"},{"name":"test","type":"bytes32","internalType":"bytes32"}]}],"stateMutability":"nonpayable"},{"type":"function","name":"release","inputs":[{"name":"testId","type":"string","internalType":"string"}],"outputs":[{"name":"","type":"tuple","internalType":"struct FlakyTest.ReleaseOkResult","components":[{"name":"success","type":"bool","internalType":"bool"},{"name":"test","type":"bytes32","internalType":"bytes32"}]}],"stateMutability":"nonpayable"},{"type":"function","name":"report","inputs":[{"name":"testType","type":"string","internalType":"string"}],"outputs":[{"name":"","type":"tuple","internalType":"struct FlakyTest.ReportOkResult","components":[{"name":"success","type":"bool","internalType":"bool"},{"name":"summary","type":"bytes","internalType":"bytes"}]}],"stateMutability":"nonpayable"},{"type":"function","name":"setPolicy","inputs":[{"name":"flipThreshold","type":"int256","internalType":"int256"},{"name":"flipWindow","type":"string","internalType":"string"},{"name":"autoQuarantine","type":"bool","internalType":"bool"},{"name":"retryCount","type":"int256","internalType":"int256"}],"outputs":[{"name":"","type":"bool","internalType":"bool"}],"stateMutability":"nonpayable"},{"type":"event","name":"IsQuarantinedCompleted","inputs":[{"name":"variant","type":"string","indexed":false,"internalType":"string"},{"name":"test","type":"bytes32","indexed":false,"internalType":"bytes32"},{"name":"owner","type":"string","indexed":false,"internalType":"string"},{"name":"quarantinedAt","type":"uint256","indexed":false,"internalType":"uint256"}],"anonymous":false},{"type":"event","name":"QuarantineCompleted","inputs":[{"name":"variant","type":"string","indexed":false,"internalType":"string"},{"name":"test","type":"bytes32","indexed":false,"internalType":"bytes32"}],"anonymous":false},{"type":"event","name":"RecordCompleted","inputs":[{"name":"variant","type":"string","indexed":false,"internalType":"string"},{"name":"test","type":"bytes32","indexed":false,"internalType":"bytes32"},{"name":"flipCount","type":"int256","indexed":false,"internalType":"int256"},{"name":"recentResults","type":"bool[]","indexed":false,"internalType":"bool[]"}],"anonymous":false},{"type":"event","name":"ReleaseCompleted","inputs":[{"name":"variant","type":"string","indexed":false,"internalType":"string"},{"name":"test","type":"bytes32","indexed":false,"internalType":"bytes32"}],"anonymous":false},{"type":"event","name":"ReportCompleted","inputs":[{"name":"variant","type":"string","indexed":false,"internalType":"string"},{"name":"summary","type":"bytes","indexed":false,"internalType":"bytes"}],"anonymous":false},{"type":"event","name":"SetPolicyCompleted","inputs":[{"name":"variant","type":"string","indexed":false,"internalType":"string"}],"anonymous":false}],"bytecode":{"object":"0x608060405260038055600a6004555f60055f6101000a81548160ff0219169083151502179055506001600655348015610036575f80fd5b50612f82806100445f395ff3fe608060405234801561000f575f80fd5b5060043610610060575f3560e01c806306953fb114610064578063389ed2f614610094578063b0597d8b146100c4578063b98059f4146100f4578063f34e372314610124578063f616b7b714610154575b5f80fd5b61007e60048036038101906100799190610ffa565b610184565b60405161008b9190611089565b60405180910390f35b6100ae60048036038101906100a991906110a2565b610290565b6040516100bb919061119a565b60405180910390f35b6100de60048036038101906100d991906111b3565b610444565b6040516100eb9190611089565b60405180910390f35b61010e600480360381019061010991906111fa565b61058d565b60405161011b9190611320565b60405180910390f35b61013e600480360381019061013991906111b3565b610a6c565b60405161014b9190611366565b60405180910390f35b61016e600480360381019061016991906111b3565b610c23565b60405161017b9190611433565b60405180910390f35b5f8085136101c7576040517f08c379a00000000000000000000000000000000000000000000000000000000081526004016101be906114ad565b60405180910390fd5b5f82121561020a576040517f08c379a000000000000000000000000000000000000000000000000000000000815260040161020190611515565b60405180910390fd5b846003819055508260055f6101000a81548160ff021916908315150217905550816006819055505f8451111561024f57600584516102489190611569565b6004819055505b7f6fb0ebcfa129af07f3056c38ab0e71d1fc6f207ea888c46cce99a70a8493793f60405161027c906115f4565b60405180910390a160019050949350505050565b610298610dd3565b5f846040516020016102aa91906116a0565b60405160208183030381529060405280519060200120905060025f8281526020019081526020015f205f9054906101000a900460ff1661031f576040517f08c379a00000000000000000000000000000000000000000000000000000000081526004016103169061170b565b60405180910390fd5b5f805f8381526020019081526020015f209050806008015f9054906101000a900460ff16156103a0577fe02e08ab1addf13a3c9128f5aad25b4a3164ff4f7a3ea4f6a72263a5ef5a8c2a826040516103779190611782565b60405180910390a16040518060400160405280600115158152602001838152509250505061043d565b6001816008015f6101000a81548160ff021916908315150217905550848160090190816103cd91906119a8565b508381600a0190816103df91906119a8565b504281600b01819055507fe02e08ab1addf13a3c9128f5aad25b4a3164ff4f7a3ea4f6a72263a5ef5a8c2a826040516104189190611a77565b60405180910390a1604051806040016040528060011515815260200183815250925050505b9392505050565b5f808260405160200161045791906116a0565b60405160208183030381529060405280519060200120905060025f8281526020019081526020015f205f9054906101000a900460ff166104d3577f8fb39ef8d8eaa294a793346eb347c6e6974e04ae6b4fddec1e524c95827c2129815f6040516104c2929190611b49565b60405180910390a15f915050610588565b5f805f8381526020019081526020015f209050806008015f9054906101000a900460ff1615610549577f8fb39ef8d8eaa294a793346eb347c6e6974e04ae6b4fddec1e524c95827c21298282600a0183600b015460405161053693929190611c70565b60405180910390a1600192505050610588565b7f8fb39ef8d8eaa294a793346eb347c6e6974e04ae6b4fddec1e524c95827c2129825f60405161057a929190611d09565b60405180910390a15f925050505b919050565b610595610df0565b5f8751116105d8576040517f08c379a00000000000000000000000000000000000000000000000000000000081526004016105cf90611da0565b60405180910390fd5b5f876040516020016105ea91906116a0565b60405160208183030381529060405280519060200120905060025f8281526020019081526020015f205f9054906101000a900460ff166107e1575f805f8381526020019081526020015f20905088815f01908161064791906119a8565b508781600101908161065991906119a8565b508681600201908161066b91906119a8565b508581600301908161067d91906119a8565b505f81600601819055504281600701819055505f816008015f6101000a81548160ff021916908315150217905550600181600c015f6101000a81548160ff0219169083151502179055508060040185908060018154018082558091505060019003905f5260205f2090602091828204019190069091909190916101000a81548160ff0219169083151502179055508060050184908060018154018082558091505060019003905f5260205f20015f9091909190915055600160025f8481526020019081526020015f205f6101000a81548160ff021916908315150217905550600182908060018154018082558091505060019003905f5260205f20015f90919091909150557f14252cef21c6ffda93899246f439ff96b71295bef8c95dac5fd55f6592bab207825f836004016040516107b893929190612b09565b60405180910390a160405180604001604052806001151581526020018381525092505050610a62565b5f805f8381526020019081526020015f2090505f81600401805490501115610874575f816004016001836004018054905061081c9190612b58565b8154811061082d5761082c612b8b565b5b905f5260205f2090602091828204019190069054906101000a900460ff1690508515158115151461087257816006015f81548092919061086c90612bb8565b91905055505b505b8060040185908060018154018082558091505060019003905f5260205f2090602091828204019190069091909190916101000a81548160ff0219169083151502179055508060050184908060018154018082558091505060019003905f5260205f20015f9091909190915055428160070181905550600354816006015412610a025760055f9054906101000a900460ff16801561091f5750806008015f9054906101000a900460ff16155b156109bb576001816008015f6101000a81548160ff021916908315150217905550604051806060016040528060298152602001612f246029913981600901908161096991906119a8565b506040518060400160405280600681526020017f73797374656d000000000000000000000000000000000000000000000000000081525081600a0190816109b091906119a8565b504281600b01819055505b7f14252cef21c6ffda93899246f439ff96b71295bef8c95dac5fd55f6592bab207828260060154836004016040516109f593929190612c58565b60405180910390a1610a45565b7f14252cef21c6ffda93899246f439ff96b71295bef8c95dac5fd55f6592bab20782826006015483600401604051610a3c93929190612ca7565b60405180910390a15b604051806040016040528060011515815260200183815250925050505b9695505050505050565b610a74610e0d565b5f82604051602001610a8691906116a0565b60405160208183030381529060405280519060200120905060025f8281526020019081526020015f205f9054906101000a900460ff16610afb576040517f08c379a0000000000000000000000000000000000000000000000000000000008152600401610af29061170b565b60405180910390fd5b5f805f8381526020019081526020015f209050806008015f9054906101000a900460ff16610b5e576040517f08c379a0000000000000000000000000000000000000000000000000000000008152600401610b5590612d40565b60405180910390fd5b5f816008015f6101000a81548160ff02191690831515021790555060405180602001604052805f815250816009019081610b9891906119a8565b5060405180602001604052805f81525081600a019081610bb891906119a8565b505f81600b01819055505f81600601819055507fb1b1d47cd0e2b9e6abf26576c67e9de20f7fe7a855ecd8849c2ee892a32a145c82604051610bfa9190611a77565b60405180910390a160405180604001604052806001151581526020018381525092505050919050565b610c2b610e2a565b5f805f808086511190505f5b600180549050811015610d3c575f60018281548110610c5957610c58612b8b565b5b905f5260205f200154905060025f8281526020019081526020015f205f9054906101000a900460ff16610c8c5750610d29565b5f805f8381526020019081526020015f209050838015610ccb5750888051906020012081600301604051610cc09190612dfa565b604051809103902014155b15610cd7575050610d29565b8680610ce290612e10565b975050600354816006015412610d01578580610cfd90612e10565b9650505b806008015f9054906101000a900460ff1615610d26578480610d2290612e10565b9550505b50505b8080610d3490612e10565b915050610c37565b505f84848460035460055f9054906101000a900460ff16604051602001610d67959493929190612e57565b60405160208183030381529060405290507fc372a859d9c73b06fa7f293b5f578f996d8b7fe19bab5d7046dc39d7e84d82ac81604051610da79190612ef0565b60405180910390a160405180604001604052806001151581526020018281525095505050505050919050565b60405180604001604052805f151581526020015f80191681525090565b60405180604001604052805f151581526020015f80191681525090565b60405180604001604052805f151581526020015f80191681525090565b60405180604001604052805f15158152602001606081525090565b5f604051905090565b5f80fd5b5f80fd5b5f819050919050565b610e6881610e56565b8114610e72575f80fd5b50565b5f81359050610e8381610e5f565b92915050565b5f80fd5b5f80fd5b5f601f19601f8301169050919050565b7f4e487b71000000000000000000000000000000000000000000000000000000005f52604160045260245ffd5b610ed782610e91565b810181811067ffffffffffffffff82111715610ef657610ef5610ea1565b5b80604052505050565b5f610f08610e45565b9050610f148282610ece565b919050565b5f67ffffffffffffffff821115610f3357610f32610ea1565b5b610f3c82610e91565b9050602081019050919050565b828183375f83830152505050565b5f610f69610f6484610f19565b610eff565b905082815260208101848484011115610f8557610f84610e8d565b5b610f90848285610f49565b509392505050565b5f82601f830112610fac57610fab610e89565b5b8135610fbc848260208601610f57565b91505092915050565b5f8115159050919050565b610fd981610fc5565b8114610fe3575f80fd5b50565b5f81359050610ff481610fd0565b92915050565b5f805f806080858703121561101257611011610e4e565b5b5f61101f87828801610e75565b945050602085013567ffffffffffffffff8111156110405761103f610e52565b5b61104c87828801610f98565b935050604061105d87828801610fe6565b925050606061106e87828801610e75565b91505092959194509250565b61108381610fc5565b82525050565b5f60208201905061109c5f83018461107a565b92915050565b5f805f606084860312156110b9576110b8610e4e565b5b5f84013567ffffffffffffffff8111156110d6576110d5610e52565b5b6110e286828701610f98565b935050602084013567ffffffffffffffff81111561110357611102610e52565b5b61110f86828701610f98565b925050604084013567ffffffffffffffff8111156111305761112f610e52565b5b61113c86828701610f98565b9150509250925092565b61114f81610fc5565b82525050565b5f819050919050565b61116781611155565b82525050565b604082015f8201516111815f850182611146565b506020820151611194602085018261115e565b50505050565b5f6040820190506111ad5f83018461116d565b92915050565b5f602082840312156111c8576111c7610e4e565b5b5f82013567ffffffffffffffff8111156111e5576111e4610e52565b5b6111f184828501610f98565b91505092915050565b5f805f805f8060c0878903121561121457611213610e4e565b5b5f87013567ffffffffffffffff81111561123157611230610e52565b5b61123d89828a01610f98565b965050602087013567ffffffffffffffff81111561125e5761125d610e52565b5b61126a89828a01610f98565b955050604087013567ffffffffffffffff81111561128b5761128a610e52565b5b61129789828a01610f98565b945050606087013567ffffffffffffffff8111156112b8576112b7610e52565b5b6112c489828a01610f98565b93505060806112d589828a01610fe6565b92505060a06112e689828a01610e75565b9150509295509295509295565b604082015f8201516113075f850182611146565b50602082015161131a602085018261115e565b50505050565b5f6040820190506113335f8301846112f3565b92915050565b604082015f82015161134d5f850182611146565b506020820151611360602085018261115e565b50505050565b5f6040820190506113795f830184611339565b92915050565b5f81519050919050565b5f82825260208201905092915050565b5f5b838110156113b657808201518184015260208101905061139b565b5f8484015250505050565b5f6113cb8261137f565b6113d58185611389565b93506113e5818560208601611399565b6113ee81610e91565b840191505092915050565b5f604083015f83015161140e5f860182611146565b506020830151848203602086015261142682826113c1565b9150508091505092915050565b5f6020820190508181035f83015261144b81846113f9565b905092915050565b5f82825260208201905092915050565b7f466c6970207468726573686f6c64206d75737420626520706f736974697665005f82015250565b5f611497601f83611453565b91506114a282611463565b602082019050919050565b5f6020820190508181035f8301526114c48161148b565b9050919050565b7f526574727920636f756e74206d757374206265206e6f6e2d6e656761746976655f82015250565b5f6114ff602083611453565b915061150a826114cb565b602082019050919050565b5f6020820190508181035f83015261152c816114f3565b9050919050565b5f819050919050565b7f4e487b71000000000000000000000000000000000000000000000000000000005f52601160045260245ffd5b5f61157382611533565b915061157e83611533565b925082820261158c81611533565b915082820484148315176115a3576115a261153c565b5b5092915050565b7f6f6b0000000000000000000000000000000000000000000000000000000000005f82015250565b5f6115de600283611453565b91506115e9826115aa565b602082019050919050565b5f6020820190508181035f83015261160b816115d2565b9050919050565b5f81905092915050565b7f746573743a0000000000000000000000000000000000000000000000000000005f82015250565b5f611650600583611612565b915061165b8261161c565b600582019050919050565b5f81519050919050565b5f61167a82611666565b6116848185611612565b9350611694818560208601611399565b80840191505092915050565b5f6116aa82611644565b91506116b68284611670565b915081905092915050565b7f54657374206e6f7420666f756e640000000000000000000000000000000000005f82015250565b5f6116f5600e83611453565b9150611700826116c1565b602082019050919050565b5f6020820190508181035f830152611722816116e9565b9050919050565b7f616c726561647951756172616e74696e656400000000000000000000000000005f82015250565b5f61175d601283611453565b915061176882611729565b602082019050919050565b61177c81611155565b82525050565b5f6040820190508181035f83015261179981611751565b90506117a86020830184611773565b92915050565b7f4e487b71000000000000000000000000000000000000000000000000000000005f52602260045260245ffd5b5f60028204905060018216806117f257607f821691505b602082108103611805576118046117ae565b5b50919050565b5f819050815f5260205f209050919050565b5f6020601f8301049050919050565b5f82821b905092915050565b5f600883026118677fffffffffffffffffffffffffffffffffffffffffffffffffffffffffffffffff8261182c565b611871868361182c565b95508019841693508086168417925050509392505050565b5f819050919050565b5f6118ac6118a76118a284611533565b611889565b611533565b9050919050565b5f819050919050565b6118c583611892565b6118d96118d1826118b3565b848454611838565b825550505050565b5f90565b6118ed6118e1565b6118f88184846118bc565b505050565b5b8181101561191b576119105f826118e5565b6001810190506118fe565b5050565b601f821115611960576119318161180b565b61193a8461181d565b81016020851015611949578190505b61195d6119558561181d565b8301826118fd565b50505b505050565b5f82821c905092915050565b5f6119805f1984600802611965565b1980831691505092915050565b5f6119988383611971565b9150826002028217905092915050565b6119b182611666565b67ffffffffffffffff8111156119ca576119c9610ea1565b5b6119d482546117db565b6119df82828561191f565b5f60209050601f831160018114611a10575f84156119fe578287015190505b611a08858261198d565b865550611a6f565b601f198416611a1e8661180b565b5f5b82811015611a4557848901518255600182019150602085019450602081019050611a20565b86831015611a625784890151611a5e601f891682611971565b8355505b6001600288020188555050505b505050505050565b5f6040820190508181035f830152611a8e816115d2565b9050611a9d6020830184611773565b92915050565b7f756e6b6e6f776e000000000000000000000000000000000000000000000000005f82015250565b5f611ad7600783611453565b9150611ae282611aa3565b602082019050919050565b50565b5f611afb5f83611453565b9150611b0682611aed565b5f82019050919050565b5f819050919050565b5f611b33611b2e611b2984611b10565b611889565b611533565b9050919050565b611b4381611b19565b82525050565b5f6080820190508181035f830152611b6081611acb565b9050611b6f6020830185611773565b8181036040830152611b8081611af0565b9050611b8f6060830184611b3a565b9392505050565b7f79657300000000000000000000000000000000000000000000000000000000005f82015250565b5f611bca600383611453565b9150611bd582611b96565b602082019050919050565b5f8154611bec816117db565b611bf68186611453565b9450600182165f8114611c105760018114611c2657611c58565b60ff198316865281151560200286019350611c58565b611c2f8561180b565b5f5b83811015611c5057815481890152600182019150602081019050611c31565b808801955050505b50505092915050565b611c6a81611533565b82525050565b5f6080820190508181035f830152611c8781611bbe565b9050611c966020830186611773565b8181036040830152611ca88185611be0565b9050611cb76060830184611c61565b949350505050565b7f6e6f0000000000000000000000000000000000000000000000000000000000005f82015250565b5f611cf3600283611453565b9150611cfe82611cbf565b602082019050919050565b5f6080820190508181035f830152611d2081611ce7565b9050611d2f6020830185611773565b8181036040830152611d4081611af0565b9050611d4f6060830184611b3a565b9392505050565b7f54657374204944206d757374206e6f7420626520656d707479000000000000005f82015250565b5f611d8a601983611453565b9150611d9582611d56565b602082019050919050565b5f6020820190508181035f830152611db781611d7e565b9050919050565b5f611dd8611dd3611dce84611b10565b611889565b610e56565b9050919050565b611de881611dbe565b82525050565b5f81549050919050565b5f82825260208201905092915050565b5f819050815f5260205f209050919050565b5f815f1c9050919050565b5f60ff82169050919050565b5f611e43611e3e83611e1a565b611e25565b9050919050565b5f8160081c9050919050565b5f611e68611e6383611e4a565b611e25565b9050919050565b5f8160101c9050919050565b5f611e8d611e8883611e6f565b611e25565b9050919050565b5f8160181c9050919050565b5f611eb2611ead83611e94565b611e25565b9050919050565b5f8160201c9050919050565b5f611ed7611ed283611eb9565b611e25565b9050919050565b5f8160281c9050919050565b5f611efc611ef783611ede565b611e25565b9050919050565b5f8160301c9050919050565b5f611f21611f1c83611f03565b611e25565b9050919050565b5f8160381c9050919050565b5f611f46611f4183611f28565b611e25565b9050919050565b5f8160401c9050919050565b5f611f6b611f6683611f4d565b611e25565b9050919050565b5f8160481c9050919050565b5f611f90611f8b83611f72565b611e25565b9050919050565b5f8160501c9050919050565b5f611fb5611fb083611f97565b611e25565b9050919050565b5f8160581c9050919050565b5f611fda611fd583611fbc565b611e25565b9050919050565b5f8160601c9050919050565b5f611fff611ffa83611fe1565b611e25565b9050919050565b5f8160681c9050919050565b5f61202461201f83612006565b611e25565b9050919050565b5f8160701c9050919050565b5f6120496120448361202b565b611e25565b9050919050565b5f8160781c9050919050565b5f61206e61206983612050565b611e25565b9050919050565b5f8160801c9050919050565b5f61209361208e83612075565b611e25565b9050919050565b5f8160881c9050919050565b5f6120b86120b38361209a565b611e25565b9050919050565b5f8160901c9050919050565b5f6120dd6120d8836120bf565b611e25565b9050919050565b5f8160981c9050919050565b5f6121026120fd836120e4565b611e25565b9050919050565b5f8160a01c9050919050565b5f61212761212283612109565b611e25565b9050919050565b5f8160a81c9050919050565b5f61214c6121478361212e565b611e25565b9050919050565b5f8160b01c9050919050565b5f61217161216c83612153565b611e25565b9050919050565b5f8160b81c9050919050565b5f61219661219183612178565b611e25565b9050919050565b5f8160c01c9050919050565b5f6121bb6121b68361219d565b611e25565b9050919050565b5f8160c81c9050919050565b5f6121e06121db836121c2565b611e25565b9050919050565b5f8160d01c9050919050565b5f612205612200836121e7565b611e25565b9050919050565b5f8160d81c9050919050565b5f61222a6122258361220c565b611e25565b9050919050565b5f8160e01c9050919050565b5f61224f61224a83612231565b611e25565b9050919050565b5f8160e81c9050919050565b5f61227461226f83612256565b611e25565b9050919050565b5f8160f01c9050919050565b5f6122996122948361227b565b611e25565b9050919050565b5f8160f81c9050919050565b5f6122be6122b9836122a0565b611e25565b9050919050565b5f6122cf82611dee565b6122d98185611df8565b9350836122e584611e08565b5f600115612611575b836001602003820110156126105781546123108861230b83611e31565b611146565b6020880197506123288861232383611e56565b611146565b6020880197506123408861233b83611e7b565b611146565b6020880197506123588861235383611ea0565b611146565b6020880197506123708861236b83611ec5565b611146565b6020880197506123888861238383611eea565b611146565b6020880197506123a08861239b83611f0f565b611146565b6020880197506123b8886123b383611f34565b611146565b6020880197506123d0886123cb83611f59565b611146565b6020880197506123e8886123e383611f7e565b611146565b602088019750612400886123fb83611fa3565b611146565b6020880197506124188861241383611fc8565b611146565b6020880197506124308861242b83611fed565b611146565b6020880197506124488861244383612012565b611146565b6020880197506124608861245b83612037565b611146565b602088019750612478886124738361205c565b611146565b6020880197506124908861248b83612081565b611146565b6020880197506124a8886124a3836120a6565b611146565b6020880197506124c0886124bb836120cb565b611146565b6020880197506124d8886124d3836120f0565b611146565b6020880197506124f0886124eb83612115565b611146565b602088019750612508886125038361213a565b611146565b6020880197506125208861251b8361215f565b611146565b6020880197506125388861253383612184565b611146565b6020880197506125508861254b836121a9565b611146565b60208801975061256888612563836121ce565b611146565b6020880197506125808861257b836121f3565b611146565b6020880197506125988861259383612218565b611146565b6020880197506125b0886125ab8361223d565b611146565b6020880197506125c8886125c383612262565b611146565b6020880197506125e0886125db83612287565b611146565b6020880197506125f8886125f3836122ac565b611146565b602088019750600183019250506020810190506122ee565b5b600115612afc57815484821015612641576126348861262f83611e31565b611146565b6020880197506001820191505b848210156126685761265b8861265683611e56565b611146565b6020880197506001820191505b8482101561268f576126828861267d83611e7b565b611146565b6020880197506001820191505b848210156126b6576126a9886126a483611ea0565b611146565b6020880197506001820191505b848210156126dd576126d0886126cb83611ec5565b611146565b6020880197506001820191505b84821015612704576126f7886126f283611eea565b611146565b6020880197506001820191505b8482101561272b5761271e8861271983611f0f565b611146565b6020880197506001820191505b84821015612752576127458861274083611f34565b611146565b6020880197506001820191505b848210156127795761276c8861276783611f59565b611146565b6020880197506001820191505b848210156127a0576127938861278e83611f7e565b611146565b6020880197506001820191505b848210156127c7576127ba886127b583611fa3565b611146565b6020880197506001820191505b848210156127ee576127e1886127dc83611fc8565b611146565b6020880197506001820191505b84821015612815576128088861280383611fed565b611146565b6020880197506001820191505b8482101561283c5761282f8861282a83612012565b611146565b6020880197506001820191505b84821015612863576128568861285183612037565b611146565b6020880197506001820191505b8482101561288a5761287d886128788361205c565b611146565b6020880197506001820191505b848210156128b1576128a48861289f83612081565b611146565b6020880197506001820191505b848210156128d8576128cb886128c6836120a6565b611146565b6020880197506001820191505b848210156128ff576128f2886128ed836120cb565b611146565b6020880197506001820191505b848210156129265761291988612914836120f0565b611146565b6020880197506001820191505b8482101561294d576129408861293b83612115565b611146565b6020880197506001820191505b8482101561297457612967886129628361213a565b611146565b6020880197506001820191505b8482101561299b5761298e886129898361215f565b611146565b6020880197506001820191505b848210156129c2576129b5886129b083612184565b611146565b6020880197506001820191505b848210156129e9576129dc886129d7836121a9565b611146565b6020880197506001820191505b84821015612a1057612a03886129fe836121ce565b611146565b6020880197506001820191505b84821015612a3757612a2a88612a25836121f3565b611146565b6020880197506001820191505b84821015612a5e57612a5188612a4c83612218565b611146565b6020880197506001820191505b84821015612a8557612a7888612a738361223d565b611146565b6020880197506001820191505b84821015612aac57612a9f88612a9a83612262565b611146565b6020880197506001820191505b84821015612ad357612ac688612ac183612287565b611146565b6020880197506001820191505b84821015612afa57612aed88612ae8836122ac565b611146565b6020880197506001820191505b505b8694505050505092915050565b5f6080820190508181035f830152612b20816115d2565b9050612b2f6020830186611773565b612b3c6040830185611ddf565b8181036060830152612b4e81846122c5565b9050949350505050565b5f612b6282611533565b9150612b6d83611533565b9250828203905081811115612b8557612b8461153c565b5b92915050565b7f4e487b71000000000000000000000000000000000000000000000000000000005f52603260045260245ffd5b5f612bc282610e56565b91507f7fffffffffffffffffffffffffffffffffffffffffffffffffffffffffffffff8203612bf457612bf361153c565b5b600182019050919050565b7f666c616b794465746563746564000000000000000000000000000000000000005f82015250565b5f612c33600d83611453565b9150612c3e82612bff565b602082019050919050565b612c5281610e56565b82525050565b5f6080820190508181035f830152612c6f81612c27565b9050612c7e6020830186611773565b612c8b6040830185612c49565b8181036060830152612c9d81846122c5565b9050949350505050565b5f6080820190508181035f830152612cbe816115d2565b9050612ccd6020830186611773565b612cda6040830185612c49565b8181036060830152612cec81846122c5565b9050949350505050565b7f54657374206973206e6f742071756172616e74696e65640000000000000000005f82015250565b5f612d2a601783611453565b9150612d3582612cf6565b602082019050919050565b5f6020820190508181035f830152612d5781612d1e565b9050919050565b5f81905092915050565b5f819050815f5260205f209050919050565b5f8154612d86816117db565b612d908186612d5e565b9450600182165f8114612daa5760018114612dbf57612df1565b60ff1983168652811515820286019350612df1565b612dc885612d68565b5f5b83811015612de957815481890152600182019150602081019050612dca565b838801955050505b50505092915050565b5f612e058284612d7a565b915081905092915050565b5f612e1a82611533565b91507fffffffffffffffffffffffffffffffffffffffffffffffffffffffffffffffff8203612e4c57612e4b61153c565b5b600182019050919050565b5f60a082019050612e6a5f830188611c61565b612e776020830187611c61565b612e846040830186611c61565b612e916060830185612c49565b612e9e608083018461107a565b9695505050505050565b5f82825260208201905092915050565b5f612ec28261137f565b612ecc8185612ea8565b9350612edc818560208601611399565b612ee581610e91565b840191505092915050565b5f6040820190508181035f830152612f07816115d2565b90508181036020830152612f1b8184612eb8565b90509291505056fe4175746f2d71756172616e74696e65643a20666c6970207468726573686f6c64206578636565646564a2646970667358221220f0bf8d420c60df8f34ff518987603c1070cb444e9e4c7e3276c5484ce86ac82464736f6c63430008140033","linkReferences":{}},"methodIdentifiers":{"isQuarantined(string)":"b0597d8b","quarantine(string,string,string)":"389ed2f6","record(string,string,string,string,bool,int256)":"b98059f4","release(string)":"f34e3723","report(string)":"f616b7b7","setPolicy(int256,string,bool,int256)":"06953fb1"},"id":122}