{"abi":[{"type":"function","name":"formatExists","inputs":[{"name":"formatId","type":"bytes32","internalType":"bytes32"}],"outputs":[{"name":"","type":"bool","internalType":"bool"}],"stateMutability":"view"},{"type":"function","name":"getFormat","inputs":[{"name":"formatId","type":"bytes32","internalType":"bytes32"}],"outputs":[{"name":"found","type":"bool","internalType":"bool"},{"name":"config","type":"string","internalType":"string"}],"stateMutability":"view"},{"type":"function","name":"registerFormat","inputs":[{"name":"formatId","type":"bytes32","internalType":"bytes32"},{"name":"config","type":"string","internalType":"string"}],"outputs":[],"stateMutability":"nonpayable"},{"type":"event","name":"ContentParsed","inputs":[{"name":"formatId","type":"bytes32","indexed":true,"internalType":"bytes32"}],"anonymous":false},{"type":"event","name":"FormatRegistered","inputs":[{"name":"formatId","type":"bytes32","indexed":true,"internalType":"bytes32"}],"anonymous":false}],"bytecode":{"object":"0x608060405234801561000f575f80fd5b5061095b8061001d5f395ff3fe608060405234801561000f575f80fd5b506004361061003f575f3560e01c80631f381f581461004357806363fcce401461005f578063de62010e1461008f575b5f80fd5b61005d600480360381019061005891906103e3565b6100c0565b005b61007960048036038101906100749190610440565b610237565b6040516100869190610485565b60405180910390f35b6100a960048036038101906100a49190610440565b61025f565b6040516100b7929190610528565b60405180910390f35b5f801b8303610104576040517f08c379a00000000000000000000000000000000000000000000000000000000081526004016100fb906105a0565b60405180910390fd5b5f808481526020019081526020015f206001015f9054906101000a900460ff1615610164576040517f08c379a000000000000000000000000000000000000000000000000000000000815260040161015b90610608565b60405180910390fd5b604051806040016040528083838080601f0160208091040260200160405190810160405280939291908181526020018383808284375f81840152601f19601f820116905080830192505050505050508152602001600115158152505f808581526020019081526020015f205f820151815f0190816101e29190610856565b506020820151816001015f6101000a81548160ff021916908315150217905550905050827f6f6cd655023fd6630ac784f0ceb9eebc08b296b02ae67a5c60f9a8dd261de0e060405160405180910390a2505050565b5f805f8381526020019081526020015f206001015f9054906101000a900460ff169050919050565b5f60605f808481526020019081526020015f206001015f9054906101000a900460ff1661029f575f60405180602001604052805f81525091509150610342565b60015f808581526020019081526020015f205f018080546102bf90610680565b80601f01602080910402602001604051908101604052809291908181526020018280546102eb90610680565b80156103365780601f1061030d57610100808354040283529160200191610336565b820191905f5260205f20905b81548152906001019060200180831161031957829003601f168201915b50505050509050915091505b915091565b5f80fd5b5f80fd5b5f819050919050565b6103618161034f565b811461036b575f80fd5b50565b5f8135905061037c81610358565b92915050565b5f80fd5b5f80fd5b5f80fd5b5f8083601f8401126103a3576103a2610382565b5b8235905067ffffffffffffffff8111156103c0576103bf610386565b5b6020830191508360018202830111156103dc576103db61038a565b5b9250929050565b5f805f604084860312156103fa576103f9610347565b5b5f6104078682870161036e565b935050602084013567ffffffffffffffff8111156104285761042761034b565b5b6104348682870161038e565b92509250509250925092565b5f6020828403121561045557610454610347565b5b5f6104628482850161036e565b91505092915050565b5f8115159050919050565b61047f8161046b565b82525050565b5f6020820190506104985f830184610476565b92915050565b5f81519050919050565b5f82825260208201905092915050565b5f5b838110156104d55780820151818401526020810190506104ba565b5f8484015250505050565b5f601f19601f8301169050919050565b5f6104fa8261049e565b61050481856104a8565b93506105148185602086016104b8565b61051d816104e0565b840191505092915050565b5f60408201905061053b5f830185610476565b818103602083015261054d81846104f0565b90509392505050565b7f466f726d61742049442063616e6e6f74206265207a65726f00000000000000005f82015250565b5f61058a6018836104a8565b915061059582610556565b602082019050919050565b5f6020820190508181035f8301526105b78161057e565b9050919050565b7f466f726d617420616c72656164792072656769737465726564000000000000005f82015250565b5f6105f26019836104a8565b91506105fd826105be565b602082019050919050565b5f6020820190508181035f83015261061f816105e6565b9050919050565b7f4e487b71000000000000000000000000000000000000000000000000000000005f52604160045260245ffd5b7f4e487b71000000000000000000000000000000000000000000000000000000005f52602260045260245ffd5b5f600282049050600182168061069757607f821691505b6020821081036106aa576106a9610653565b5b50919050565b5f819050815f5260205f209050919050565b5f6020601f8301049050919050565b5f82821b905092915050565b5f6008830261070c7fffffffffffffffffffffffffffffffffffffffffffffffffffffffffffffffff826106d1565b61071686836106d1565b95508019841693508086168417925050509392505050565b5f819050919050565b5f819050919050565b5f61075a6107556107508461072e565b610737565b61072e565b9050919050565b5f819050919050565b61077383610740565b61078761077f82610761565b8484546106dd565b825550505050565b5f90565b61079b61078f565b6107a681848461076a565b505050565b5b818110156107c9576107be5f82610793565b6001810190506107ac565b5050565b601f82111561080e576107df816106b0565b6107e8846106c2565b810160208510156107f7578190505b61080b610803856106c2565b8301826107ab565b50505b505050565b5f82821c905092915050565b5f61082e5f1984600802610813565b1980831691505092915050565b5f610846838361081f565b9150826002028217905092915050565b61085f8261049e565b67ffffffffffffffff81111561087857610877610626565b5b6108828254610680565b61088d8282856107cd565b5f60209050601f8311600181146108be575f84156108ac578287015190505b6108b6858261083b565b86555061091d565b601f1984166108cc866106b0565b5f5b828110156108f3578489015182556001820191506020850194506020810190506108ce565b86831015610910578489015161090c601f89168261081f565b8355505b6001600288020188555050505b50505050505056fea26469706673582212202305f465ae237c18dee77dc210cd36dcac71dd1887254a9d1e103b13d31aed3e64736f6c63430008140033","linkReferences":{}},"methodIdentifiers":{"formatExists(bytes32)":"63fcce40","getFormat(bytes32)":"de62010e","registerFormat(bytes32,string)":"1f381f58"},"id":80}