{"abi":[{"type":"function","name":"checkCompatibility","inputs":[{"name":"a","type":"bytes32","internalType":"bytes32"},{"name":"b","type":"bytes32","internalType":"bytes32"}],"outputs":[{"name":"","type":"bool","internalType":"bool"}],"stateMutability":"nonpayable"},{"type":"function","name":"findByCapability","inputs":[{"name":"capability","type":"string","internalType":"string"}],"outputs":[{"name":"","type":"tuple","internalType":"struct ConceptEntity.FindByCapabilityOkResult","components":[{"name":"success","type":"bool","internalType":"bool"},{"name":"entities","type":"string","internalType":"string"}]}],"stateMutability":"nonpayable"},{"type":"function","name":"findByKit","inputs":[{"name":"kit","type":"string","internalType":"string"}],"outputs":[{"name":"","type":"tuple","internalType":"struct ConceptEntity.FindByKitOkResult","components":[{"name":"success","type":"bool","internalType":"bool"},{"name":"entities","type":"string","internalType":"string"}]}],"stateMutability":"nonpayable"},{"type":"function","name":"generatedArtifacts","inputs":[{"name":"entity","type":"bytes32","internalType":"bytes32"}],"outputs":[{"name":"","type":"tuple","internalType":"struct ConceptEntity.GeneratedArtifactsOkResult","components":[{"name":"success","type":"bool","internalType":"bool"},{"name":"artifacts","type":"string","internalType":"string"}]}],"stateMutability":"nonpayable"},{"type":"function","name":"get","inputs":[{"name":"name","type":"string","internalType":"string"}],"outputs":[{"name":"","type":"tuple","internalType":"struct ConceptEntity.GetOkResult","components":[{"name":"success","type":"bool","internalType":"bool"},{"name":"entity","type":"bytes32","internalType":"bytes32"}]}],"stateMutability":"nonpayable"},{"type":"function","name":"participatingSyncs","inputs":[{"name":"entity","type":"bytes32","internalType":"bytes32"}],"outputs":[{"name":"","type":"tuple","internalType":"struct ConceptEntity.ParticipatingSyncsOkResult","components":[{"name":"success","type":"bool","internalType":"bool"},{"name":"syncs","type":"string","internalType":"string"}]}],"stateMutability":"nonpayable"},{"type":"function","name":"register","inputs":[{"name":"name","type":"string","internalType":"string"},{"name":"source","type":"string","internalType":"string"},{"name":"ast","type":"string","internalType":"string"}],"outputs":[{"name":"","type":"tuple","internalType":"struct ConceptEntity.RegisterOkResult","components":[{"name":"success","type":"bool","internalType":"bool"},{"name":"entity","type":"bytes32","internalType":"bytes32"}]}],"stateMutability":"nonpayable"},{"type":"event","name":"CheckCompatibilityCompleted","inputs":[{"name":"variant","type":"string","indexed":false,"internalType":"string"}],"anonymous":false},{"type":"event","name":"FindByCapabilityCompleted","inputs":[{"name":"variant","type":"string","indexed":false,"internalType":"string"}],"anonymous":false},{"type":"event","name":"FindByKitCompleted","inputs":[{"name":"variant","type":"string","indexed":false,"internalType":"string"}],"anonymous":false},{"type":"event","name":"GeneratedArtifactsCompleted","inputs":[{"name":"variant","type":"string","indexed":false,"internalType":"string"}],"anonymous":false},{"type":"event","name":"GetCompleted","inputs":[{"name":"variant","type":"string","indexed":false,"internalType":"string"},{"name":"entity","type":"bytes32","indexed":false,"internalType":"bytes32"}],"anonymous":false},{"type":"event","name":"ParticipatingSyncsCompleted","inputs":[{"name":"variant","type":"string","indexed":false,"internalType":"string"}],"anonymous":false},{"type":"event","name":"RegisterCompleted","inputs":[{"name":"variant","type":"string","indexed":false,"internalType":"string"},{"name":"entity","type":"bytes32","indexed":false,"internalType":"bytes32"},{"name":"existing","type":"bytes32","indexed":false,"internalType":"bytes32"}],"anonymous":false}],"bytecode":{"object":"0x608060405234801561000f575f80fd5b50611a8f8061001d5f395ff3fe608060405234801561000f575f80fd5b506004361061007b575f3560e01c806346eafd1e1161005957806346eafd1e1461010f5780634cd08d031461013f578063693ec85e1461016f5780639b0ac8541461019f5761007b565b806306332abe1461007f578063149df781146100af57806336b3b3f4146100df575b5f80fd5b61009960048036038101906100949190610c45565b6101cf565b6040516100a69190610d4e565b60405180910390f35b6100c960048036038101906100c49190610e9a565b610298565b6040516100d69190610f1b565b60405180910390f35b6100f960048036038101906100f49190610e9a565b6103ff565b6040516101069190610f75565b60405180910390f35b61012960048036038101906101249190610f95565b610566565b6040516101369190610fe2565b60405180910390f35b61015960048036038101906101549190610ffb565b61072b565b60405161016691906110db565b60405180910390f35b61018960048036038101906101849190610e9a565b610994565b6040516101969190611121565b60405180910390f35b6101b960048036038101906101b49190610c45565b610a92565b6040516101c69190611174565b60405180910390f35b6101d7610b5b565b5f808381526020019081526020015f206003015f9054906101000a900460ff16610236576040517f08c379a000000000000000000000000000000000000000000000000000000000815260040161022d906111ee565b60405180910390fd5b7f05814387ad6812496213e5d4d01fbd589c731634ee4e8c0473116b6d98cf920260405161026390611256565b60405180910390a1604051806040016040528060011515815260200160405180602001604052805f8152508152509050919050565b6102a0610b76565b5f826040516020016102b291906112ae565b6040516020818303038152906040528051906020012090505f60405180602001604052805f81525090505f805b6001805490508110156103a7575f805f60018481548110610303576103026112c4565b5b905f5260205f20015481526020019081526020015f2090505f81600101805461032b9061131e565b90501115610393575f83111561035e578360405160200161034c9190611398565b60405160208183030381529060405293505b83815f0160405160200161037392919061144b565b6040516020818303038152906040529350828061038f906114a4565b9350505b50808061039f906114a4565b9150506102df565b507f830942c68cb69e22b2f5a61794b044dfcf6200c5db218d3ca08c3cb2cc2781ad6040516103d590611256565b60405180910390a16040518060400160405280600115158152602001838152509350505050919050565b610407610b91565b5f8260405160200161041991906112ae565b6040516020818303038152906040528051906020012090505f60405180602001604052805f81525090505f805b60018054905081101561050e575f805f6001848154811061046a576104696112c4565b5b905f5260205f20015481526020019081526020015f2090505f8160020180546104929061131e565b905011156104fa575f8311156104c557836040516020016104b39190611398565b60405160208183030381529060405293505b83815f016040516020016104da92919061144b565b604051602081830303815290604052935082806104f6906114a4565b9350505b508080610506906114a4565b915050610446565b507f7cf5eb71370391581ef954f9fe575b9ea290f93c63029006fa52344243e060e860405161053c90611256565b60405180910390a16040518060400160405280600115158152602001838152509350505050919050565b5f805f8481526020019081526020015f206003015f9054906101000a900460ff166105c6576040517f08c379a00000000000000000000000000000000000000000000000000000000081526004016105bd90611535565b60405180910390fd5b5f808381526020019081526020015f206003015f9054906101000a900460ff16610625576040517f08c379a000000000000000000000000000000000000000000000000000000000815260040161061c9061159d565b60405180910390fd5b5f805f808681526020019081526020015f2060020180546106459061131e565b905011801561067257505f805f8581526020019081526020015f20600201805461066e9061131e565b9050115b90507f162a8824422e8e9ae4a733080663510be2e54d08961596c02ae6f314a3137e84816106d5576040518060400160405280600c81526020017f696e636f6d70617469626c65000000000000000000000000000000000000000081525061070c565b6040518060400160405280600a81526020017f636f6d70617469626c65000000000000000000000000000000000000000000008152505b60405161071991906115f3565b60405180910390a18091505092915050565b610733610bac565b5f845111610776576040517f08c379a000000000000000000000000000000000000000000000000000000000815260040161076d9061165d565b60405180910390fd5b5f8460405160200161078891906112ae565b6040516020818303038152906040528051906020012090505f60025f8381526020019081526020015f205490505f808281526020019081526020015f206003015f9054906101000a900460ff1615610836577f95aa42045c9e7890b45a5e0d5b1d5c5e7a1690b14f1e0c18785efb0cd8465e2b5f801b8260405161080d9291906116d4565b60405180910390a16040518060400160405280600115158152602001828152509250505061098d565b5f868660405160200161084a92919061170e565b6040516020818303038152906040528051906020012090506040518060800160405280888152602001878152602001868152602001600115158152505f808381526020019081526020015f205f820151815f0190816108a991906118bc565b5060208201518160010190816108bf91906118bc565b5060408201518160020190816108d591906118bc565b506060820151816003015f6101000a81548160ff021916908315150217905550905050600181908060018154018082558091505060019003905f5260205f20015f90919091909150558060025f8581526020019081526020015f20819055507f95aa42045c9e7890b45a5e0d5b1d5c5e7a1690b14f1e0c18785efb0cd8465e2b815f801b60405161096792919061198b565b60405180910390a160405180604001604052806001151581526020018281525093505050505b9392505050565b61099c610bc9565b5f826040516020016109ae91906112ae565b6040516020818303038152906040528051906020012090505f60025f8381526020019081526020015f205490505f808281526020019081526020015f206003015f9054906101000a900460ff16610a3a576040517f08c379a0000000000000000000000000000000000000000000000000000000008152600401610a3190611a0f565b60405180910390fd5b7fd45fe45dbfb310b00d5db432aa35f96282e16a8bb204b349e334de2cd5566f3481604051610a699190611a2d565b60405180910390a160405180604001604052806001151581526020018281525092505050919050565b610a9a610be6565b5f808381526020019081526020015f206003015f9054906101000a900460ff16610af9576040517f08c379a0000000000000000000000000000000000000000000000000000000008152600401610af0906111ee565b60405180910390fd5b7f5bbadb95466cc337de22a5b5449d6bc450d2ef064f2823fc2f31a4e207308f62604051610b2690611256565b60405180910390a1604051806040016040528060011515815260200160405180602001604052805f8152508152509050919050565b60405180604001604052805f15158152602001606081525090565b60405180604001604052805f15158152602001606081525090565b60405180604001604052805f15158152602001606081525090565b60405180604001604052805f151581526020015f80191681525090565b60405180604001604052805f151581526020015f80191681525090565b60405180604001604052805f15158152602001606081525090565b5f604051905090565b5f80fd5b5f80fd5b5f819050919050565b610c2481610c12565b8114610c2e575f80fd5b50565b5f81359050610c3f81610c1b565b92915050565b5f60208284031215610c5a57610c59610c0a565b5b5f610c6784828501610c31565b91505092915050565b5f8115159050919050565b610c8481610c70565b82525050565b5f81519050919050565b5f82825260208201905092915050565b5f5b83811015610cc1578082015181840152602081019050610ca6565b5f8484015250505050565b5f601f19601f8301169050919050565b5f610ce682610c8a565b610cf08185610c94565b9350610d00818560208601610ca4565b610d0981610ccc565b840191505092915050565b5f604083015f830151610d295f860182610c7b565b5060208301518482036020860152610d418282610cdc565b9150508091505092915050565b5f6020820190508181035f830152610d668184610d14565b905092915050565b5f80fd5b5f80fd5b7f4e487b71000000000000000000000000000000000000000000000000000000005f52604160045260245ffd5b610dac82610ccc565b810181811067ffffffffffffffff82111715610dcb57610dca610d76565b5b80604052505050565b5f610ddd610c01565b9050610de98282610da3565b919050565b5f67ffffffffffffffff821115610e0857610e07610d76565b5b610e1182610ccc565b9050602081019050919050565b828183375f83830152505050565b5f610e3e610e3984610dee565b610dd4565b905082815260208101848484011115610e5a57610e59610d72565b5b610e65848285610e1e565b509392505050565b5f82601f830112610e8157610e80610d6e565b5b8135610e91848260208601610e2c565b91505092915050565b5f60208284031215610eaf57610eae610c0a565b5b5f82013567ffffffffffffffff811115610ecc57610ecb610c0e565b5b610ed884828501610e6d565b91505092915050565b5f604083015f830151610ef65f860182610c7b565b5060208301518482036020860152610f0e8282610cdc565b9150508091505092915050565b5f6020820190508181035f830152610f338184610ee1565b905092915050565b5f604083015f830151610f505f860182610c7b565b5060208301518482036020860152610f688282610cdc565b9150508091505092915050565b5f6020820190508181035f830152610f8d8184610f3b565b905092915050565b5f8060408385031215610fab57610faa610c0a565b5b5f610fb885828601610c31565b9250506020610fc985828601610c31565b9150509250929050565b610fdc81610c70565b82525050565b5f602082019050610ff55f830184610fd3565b92915050565b5f805f6060848603121561101257611011610c0a565b5b5f84013567ffffffffffffffff81111561102f5761102e610c0e565b5b61103b86828701610e6d565b935050602084013567ffffffffffffffff81111561105c5761105b610c0e565b5b61106886828701610e6d565b925050604084013567ffffffffffffffff81111561108957611088610c0e565b5b61109586828701610e6d565b9150509250925092565b6110a881610c12565b82525050565b604082015f8201516110c25f850182610c7b565b5060208201516110d5602085018261109f565b50505050565b5f6040820190506110ee5f8301846110ae565b92915050565b604082015f8201516111085f850182610c7b565b50602082015161111b602085018261109f565b50505050565b5f6040820190506111345f8301846110f4565b92915050565b5f604083015f83015161114f5f860182610c7b565b50602083015184820360208601526111678282610cdc565b9150508091505092915050565b5f6020820190508181035f83015261118c818461113a565b905092915050565b5f82825260208201905092915050565b7f456e74697479206e6f7420666f756e64000000000000000000000000000000005f82015250565b5f6111d8601083611194565b91506111e3826111a4565b602082019050919050565b5f6020820190508181035f830152611205816111cc565b9050919050565b7f6f6b0000000000000000000000000000000000000000000000000000000000005f82015250565b5f611240600283611194565b915061124b8261120c565b602082019050919050565b5f6020820190508181035f83015261126d81611234565b9050919050565b5f81905092915050565b5f61128882610c8a565b6112928185611274565b93506112a2818560208601610ca4565b80840191505092915050565b5f6112b9828461127e565b915081905092915050565b7f4e487b71000000000000000000000000000000000000000000000000000000005f52603260045260245ffd5b7f4e487b71000000000000000000000000000000000000000000000000000000005f52602260045260245ffd5b5f600282049050600182168061133557607f821691505b602082108103611348576113476112f1565b5b50919050565b7f2c000000000000000000000000000000000000000000000000000000000000005f82015250565b5f611382600183611274565b915061138d8261134e565b600182019050919050565b5f6113a3828461127e565b91506113ae82611376565b915081905092915050565b5f819050815f5260205f209050919050565b5f81546113d78161131e565b6113e18186611274565b9450600182165f81146113fb576001811461141057611442565b60ff1983168652811515820286019350611442565b611419856113b9565b5f5b8381101561143a5781548189015260018201915060208101905061141b565b838801955050505b50505092915050565b5f611456828561127e565b915061146282846113cb565b91508190509392505050565b7f4e487b71000000000000000000000000000000000000000000000000000000005f52601160045260245ffd5b5f819050919050565b5f6114ae8261149b565b91507fffffffffffffffffffffffffffffffffffffffffffffffffffffffffffffffff82036114e0576114df61146e565b5b600182019050919050565b7f456e746974792041206e6f7420666f756e6400000000000000000000000000005f82015250565b5f61151f601283611194565b915061152a826114eb565b602082019050919050565b5f6020820190508181035f83015261154c81611513565b9050919050565b7f456e746974792042206e6f7420666f756e6400000000000000000000000000005f82015250565b5f611587601283611194565b915061159282611553565b602082019050919050565b5f6020820190508181035f8301526115b48161157b565b9050919050565b5f6115c582610c8a565b6115cf8185611194565b93506115df818560208601610ca4565b6115e881610ccc565b840191505092915050565b5f6020820190508181035f83015261160b81846115bb565b905092915050565b7f4e616d65206d757374206e6f7420626520656d707479000000000000000000005f82015250565b5f611647601683611194565b915061165282611613565b602082019050919050565b5f6020820190508181035f8301526116748161163b565b9050919050565b7f616c7265616479526567697374657265640000000000000000000000000000005f82015250565b5f6116af601183611194565b91506116ba8261167b565b602082019050919050565b6116ce81610c12565b82525050565b5f6060820190508181035f8301526116eb816116a3565b90506116fa60208301856116c5565b61170760408301846116c5565b9392505050565b5f611719828561127e565b9150611725828461127e565b91508190509392505050565b5f6020601f8301049050919050565b5f82821b905092915050565b5f6008830261177b7fffffffffffffffffffffffffffffffffffffffffffffffffffffffffffffffff82611740565b6117858683611740565b95508019841693508086168417925050509392505050565b5f819050919050565b5f6117c06117bb6117b68461149b565b61179d565b61149b565b9050919050565b5f819050919050565b6117d9836117a6565b6117ed6117e5826117c7565b84845461174c565b825550505050565b5f90565b6118016117f5565b61180c8184846117d0565b505050565b5b8181101561182f576118245f826117f9565b600181019050611812565b5050565b601f82111561187457611845816113b9565b61184e84611731565b8101602085101561185d578190505b61187161186985611731565b830182611811565b50505b505050565b5f82821c905092915050565b5f6118945f1984600802611879565b1980831691505092915050565b5f6118ac8383611885565b9150826002028217905092915050565b6118c582610c8a565b67ffffffffffffffff8111156118de576118dd610d76565b5b6118e8825461131e565b6118f3828285611833565b5f60209050601f831160018114611924575f8415611912578287015190505b61191c85826118a1565b865550611983565b601f198416611932866113b9565b5f5b8281101561195957848901518255600182019150602085019450602081019050611934565b868310156119765784890151611972601f891682611885565b8355505b6001600288020188555050505b505050505050565b5f6060820190508181035f8301526119a281611234565b90506119b160208301856116c5565b6119be60408301846116c5565b9392505050565b7f436f6e6365707420656e74697479206e6f7420666f756e6400000000000000005f82015250565b5f6119f9601883611194565b9150611a04826119c5565b602082019050919050565b5f6020820190508181035f830152611a26816119ed565b9050919050565b5f6040820190508181035f830152611a4481611234565b9050611a5360208301846116c5565b9291505056fea26469706673582212203f3cb4b65dec6be6676ef3964cfc075cb9bd5993f2badfb0fd5048fb46229b0964736f6c63430008140033","linkReferences":{}},"methodIdentifiers":{"checkCompatibility(bytes32,bytes32)":"46eafd1e","findByCapability(string)":"36b3b3f4","findByKit(string)":"149df781","generatedArtifacts(bytes32)":"9b0ac854","get(string)":"693ec85e","participatingSyncs(bytes32)":"06332abe","register(string,string,string)":"4cd08d03"},"id":69}