{"abi":[{"type":"function","name":"bind","inputs":[{"name":"binding","type":"bytes32","internalType":"bytes32"},{"name":"concept","type":"bytes32","internalType":"bytes32"},{"name":"mode","type":"string","internalType":"string"}],"outputs":[{"name":"","type":"tuple","internalType":"struct Binding.BindOkResult","components":[{"name":"success","type":"bool","internalType":"bool"},{"name":"binding","type":"bytes32","internalType":"bytes32"}]}],"stateMutability":"nonpayable"},{"type":"function","name":"invoke","inputs":[{"name":"binding","type":"bytes32","internalType":"bytes32"},{"name":"action","type":"string","internalType":"string"},{"name":"input","type":"string","internalType":"string"}],"outputs":[{"name":"","type":"tuple","internalType":"struct Binding.InvokeOkResult","components":[{"name":"success","type":"bool","internalType":"bool"},{"name":"binding","type":"bytes32","internalType":"bytes32"},{"name":"result","type":"string","internalType":"string"}]}],"stateMutability":"nonpayable"},{"type":"function","name":"sync","inputs":[{"name":"binding","type":"bytes32","internalType":"bytes32"}],"outputs":[{"name":"","type":"tuple","internalType":"struct Binding.SyncOkResult","components":[{"name":"success","type":"bool","internalType":"bool"},{"name":"binding","type":"bytes32","internalType":"bytes32"}]}],"stateMutability":"nonpayable"},{"type":"function","name":"unbind","inputs":[{"name":"binding","type":"bytes32","internalType":"bytes32"}],"outputs":[{"name":"","type":"tuple","internalType":"struct Binding.UnbindOkResult","components":[{"name":"success","type":"bool","internalType":"bool"},{"name":"binding","type":"bytes32","internalType":"bytes32"}]}],"stateMutability":"nonpayable"},{"type":"event","name":"BindCompleted","inputs":[{"name":"variant","type":"string","indexed":false,"internalType":"string"},{"name":"binding","type":"bytes32","indexed":true,"internalType":"bytes32"}],"anonymous":false},{"type":"event","name":"InvokeCompleted","inputs":[{"name":"variant","type":"string","indexed":false,"internalType":"string"},{"name":"binding","type":"bytes32","indexed":true,"internalType":"bytes32"}],"anonymous":false},{"type":"event","name":"SyncCompleted","inputs":[{"name":"variant","type":"string","indexed":false,"internalType":"string"},{"name":"binding","type":"bytes32","indexed":true,"internalType":"bytes32"}],"anonymous":false},{"type":"event","name":"UnbindCompleted","inputs":[{"name":"variant","type":"string","indexed":false,"internalType":"string"},{"name":"binding","type":"bytes32","indexed":true,"internalType":"bytes32"}],"anonymous":false}],"bytecode":{"object":"0x608060405234801561000f575f80fd5b506111b78061001d5f395ff3fe608060405234801561000f575f80fd5b506004361061004a575f3560e01c80630b4e69c21461004e5780636e08f2451461007e578063ae4b2551146100ae578063b1b202ee146100de575b5f80fd5b61006860048036038101906100639190610996565b61010e565b6040516100759190610b0e565b60405180910390f35b61009860048036038101906100939190610b2e565b610234565b6040516100a59190610b86565b60405180910390f35b6100c860048036038101906100c39190610b2e565b610389565b6040516100d59190610bcc565b60405180910390f35b6100f860048036038101906100f39190610be5565b6104ba565b6040516101059190610c7e565b60405180910390f35b610116610743565b60015f8581526020019081526020015f205f9054906101000a900460ff16610173576040517f08c379a000000000000000000000000000000000000000000000000000000000815260040161016a90610cf1565b60405180910390fd5b5f808581526020019081526020015f206002015f9054906101000a900460ff166101d2576040517f08c379a00000000000000000000000000000000000000000000000000000000081526004016101c990610d59565b60405180910390fd5b5f829050847fe3a07cc172e0b1dcdfd71eb01148feb9e52095355120174fbe8a7a8e3b24990260405161020490610dc1565b60405180910390a26040518060600160405280600115158152602001868152602001828152509150509392505050565b61023c610767565b60015f8381526020019081526020015f205f9054906101000a900460ff16610299576040517f08c379a000000000000000000000000000000000000000000000000000000000815260040161029090610cf1565b60405180910390fd5b5f805f8481526020019081526020015f206002015f6101000a81548160ff0219169083151502179055505f808381526020019081526020015f205f8082015f9055600182015f6102e99190610784565b600282015f6101000a81549060ff0219169055600382015f9055600482015f905550505f60015f8481526020019081526020015f205f6101000a81548160ff021916908315150217905550817f605d65ea68ecddbc01748196d7d2757f0ab8fda682fb0a054eef9a3b13b83f6260405161036290610dc1565b60405180910390a26040518060400160405280600115158152602001838152509050919050565b6103916107c1565b60015f8381526020019081526020015f205f9054906101000a900460ff166103ee576040517f08c379a00000000000000000000000000000000000000000000000000000000081526004016103e590610cf1565b60405180910390fd5b5f808381526020019081526020015f206002015f9054906101000a900460ff1661044d576040517f08c379a000000000000000000000000000000000000000000000000000000000815260040161044490610d59565b60405180910390fd5b425f808481526020019081526020015f2060030181905550817f1c2793363dde9262b996d0f4e110469e3f666b4c800ae3346074021f2bf0ae3160405161049390610dc1565b60405180910390a26040518060400160405280600115158152602001838152509050919050565b6104c26107de565b60015f8581526020019081526020015f205f9054906101000a900460ff1615610520576040517f08c379a000000000000000000000000000000000000000000000000000000000815260040161051790610e29565b60405180910390fd5b5f828051906020012090506040518060400160405280600681526020017f7374617469630000000000000000000000000000000000000000000000000000815250805190602001208114806105b057506040518060400160405280600881526020017f72656163746976650000000000000000000000000000000000000000000000008152508051906020012081145b806105f657506040518060400160405280600781526020017f74776f2d776179000000000000000000000000000000000000000000000000008152508051906020012081145b610635576040517f08c379a000000000000000000000000000000000000000000000000000000000815260040161062c90610e91565b60405180910390fd5b6040518060a00160405280858152602001848152602001600115158152602001428152602001428152505f808781526020019081526020015f205f820151815f0155602082015181600101908161068c91906110b2565b506040820151816002015f6101000a81548160ff02191690831515021790555060608201518160030155608082015181600401559050506001805f8781526020019081526020015f205f6101000a81548160ff021916908315150217905550847f2acb60293bffe4923f9387afc1c53f4aca1e2e4bf9fc1b0e1d324a55c7c16bf560405161071990610dc1565b60405180910390a26040518060400160405280600115158152602001868152509150509392505050565b60405180606001604052805f151581526020015f8019168152602001606081525090565b60405180604001604052805f151581526020015f80191681525090565b50805461079090610edc565b5f825580601f106107a157506107be565b601f0160209004905f5260205f20908101906107bd91906107fb565b5b50565b60405180604001604052805f151581526020015f80191681525090565b60405180604001604052805f151581526020015f80191681525090565b5b80821115610812575f815f9055506001016107fc565b5090565b5f604051905090565b5f80fd5b5f80fd5b5f819050919050565b61083981610827565b8114610843575f80fd5b50565b5f8135905061085481610830565b92915050565b5f80fd5b5f80fd5b5f601f19601f8301169050919050565b7f4e487b71000000000000000000000000000000000000000000000000000000005f52604160045260245ffd5b6108a882610862565b810181811067ffffffffffffffff821117156108c7576108c6610872565b5b80604052505050565b5f6108d9610816565b90506108e5828261089f565b919050565b5f67ffffffffffffffff82111561090457610903610872565b5b61090d82610862565b9050602081019050919050565b828183375f83830152505050565b5f61093a610935846108ea565b6108d0565b9050828152602081018484840111156109565761095561085e565b5b61096184828561091a565b509392505050565b5f82601f83011261097d5761097c61085a565b5b813561098d848260208601610928565b91505092915050565b5f805f606084860312156109ad576109ac61081f565b5b5f6109ba86828701610846565b935050602084013567ffffffffffffffff8111156109db576109da610823565b5b6109e786828701610969565b925050604084013567ffffffffffffffff811115610a0857610a07610823565b5b610a1486828701610969565b9150509250925092565b5f8115159050919050565b610a3281610a1e565b82525050565b610a4181610827565b82525050565b5f81519050919050565b5f82825260208201905092915050565b5f5b83811015610a7e578082015181840152602081019050610a63565b5f8484015250505050565b5f610a9382610a47565b610a9d8185610a51565b9350610aad818560208601610a61565b610ab681610862565b840191505092915050565b5f606083015f830151610ad65f860182610a29565b506020830151610ae96020860182610a38565b5060408301518482036040860152610b018282610a89565b9150508091505092915050565b5f6020820190508181035f830152610b268184610ac1565b905092915050565b5f60208284031215610b4357610b4261081f565b5b5f610b5084828501610846565b91505092915050565b604082015f820151610b6d5f850182610a29565b506020820151610b806020850182610a38565b50505050565b5f604082019050610b995f830184610b59565b92915050565b604082015f820151610bb35f850182610a29565b506020820151610bc66020850182610a38565b50505050565b5f604082019050610bdf5f830184610b9f565b92915050565b5f805f60608486031215610bfc57610bfb61081f565b5b5f610c0986828701610846565b9350506020610c1a86828701610846565b925050604084013567ffffffffffffffff811115610c3b57610c3a610823565b5b610c4786828701610969565b9150509250925092565b604082015f820151610c655f850182610a29565b506020820151610c786020850182610a38565b50505050565b5f604082019050610c915f830184610c51565b92915050565b5f82825260208201905092915050565b7f42696e64696e67206e6f7420666f756e640000000000000000000000000000005f82015250565b5f610cdb601183610c97565b9150610ce682610ca7565b602082019050919050565b5f6020820190508181035f830152610d0881610ccf565b9050919050565b7f42696e64696e67206e6f742061637469766500000000000000000000000000005f82015250565b5f610d43601283610c97565b9150610d4e82610d0f565b602082019050919050565b5f6020820190508181035f830152610d7081610d37565b9050919050565b7f6f6b0000000000000000000000000000000000000000000000000000000000005f82015250565b5f610dab600283610c97565b9150610db682610d77565b602082019050919050565b5f6020820190508181035f830152610dd881610d9f565b9050919050565b7f42696e64696e6720616c726561647920657869737473000000000000000000005f82015250565b5f610e13601683610c97565b9150610e1e82610ddf565b602082019050919050565b5f6020820190508181035f830152610e4081610e07565b9050919050565b7f496e76616c69642062696e64696e67206d6f64650000000000000000000000005f82015250565b5f610e7b601483610c97565b9150610e8682610e47565b602082019050919050565b5f6020820190508181035f830152610ea881610e6f565b9050919050565b7f4e487b71000000000000000000000000000000000000000000000000000000005f52602260045260245ffd5b5f6002820490506001821680610ef357607f821691505b602082108103610f0657610f05610eaf565b5b50919050565b5f819050815f5260205f209050919050565b5f6020601f8301049050919050565b5f82821b905092915050565b5f60088302610f687fffffffffffffffffffffffffffffffffffffffffffffffffffffffffffffffff82610f2d565b610f728683610f2d565b95508019841693508086168417925050509392505050565b5f819050919050565b5f819050919050565b5f610fb6610fb1610fac84610f8a565b610f93565b610f8a565b9050919050565b5f819050919050565b610fcf83610f9c565b610fe3610fdb82610fbd565b848454610f39565b825550505050565b5f90565b610ff7610feb565b611002818484610fc6565b505050565b5b818110156110255761101a5f82610fef565b600181019050611008565b5050565b601f82111561106a5761103b81610f0c565b61104484610f1e565b81016020851015611053578190505b61106761105f85610f1e565b830182611007565b50505b505050565b5f82821c905092915050565b5f61108a5f198460080261106f565b1980831691505092915050565b5f6110a2838361107b565b9150826002028217905092915050565b6110bb82610a47565b67ffffffffffffffff8111156110d4576110d3610872565b5b6110de8254610edc565b6110e9828285611029565b5f60209050601f83116001811461111a575f8415611108578287015190505b6111128582611097565b865550611179565b601f19841661112886610f0c565b5f5b8281101561114f5784890151825560018201915060208501945060208101905061112a565b8683101561116c5784890151611168601f89168261107b565b8355505b6001600288020188555050505b50505050505056fea2646970667358221220b7f677db4911415051f07493bb00149ba2a207f83682bd049883f95223fff71764736f6c63430008140033","linkReferences":{}},"methodIdentifiers":{"bind(bytes32,bytes32,string)":"b1b202ee","invoke(bytes32,string,string)":"0b4e69c2","sync(bytes32)":"ae4b2551","unbind(bytes32)":"6e08f245"},"id":41}