{"abi":[{"type":"function","name":"checkContrast","inputs":[{"name":"theme","type":"bytes32","internalType":"bytes32"}],"outputs":[{"name":"result","type":"tuple","internalType":"struct ThemeParser.CheckContrastOkResult","components":[{"name":"success","type":"bool","internalType":"bool"},{"name":"theme","type":"bytes32","internalType":"bytes32"}]}],"stateMutability":"nonpayable"},{"type":"function","name":"getTheme","inputs":[{"name":"theme","type":"bytes32","internalType":"bytes32"}],"outputs":[{"name":"","type":"tuple","internalType":"struct ThemeParser.ParsedTheme","components":[{"name":"ast","type":"string","internalType":"string"},{"name":"source","type":"string","internalType":"string"},{"name":"timestamp","type":"uint256","internalType":"uint256"},{"name":"exists","type":"bool","internalType":"bool"}]}],"stateMutability":"view"},{"type":"function","name":"listThemes","inputs":[],"outputs":[{"name":"","type":"bytes32[]","internalType":"bytes32[]"}],"stateMutability":"view"},{"type":"function","name":"parse","inputs":[{"name":"theme","type":"bytes32","internalType":"bytes32"},{"name":"source","type":"string","internalType":"string"}],"outputs":[{"name":"result","type":"tuple","internalType":"struct ThemeParser.ParseOkResult","components":[{"name":"success","type":"bool","internalType":"bool"},{"name":"theme","type":"bytes32","internalType":"bytes32"},{"name":"ast","type":"string","internalType":"string"}]}],"stateMutability":"nonpayable"},{"type":"function","name":"register","inputs":[],"outputs":[{"name":"metadata","type":"tuple","internalType":"struct ThemeParser.ProviderMetadata","components":[{"name":"name","type":"string","internalType":"string"},{"name":"category","type":"string","internalType":"string"}]}],"stateMutability":"pure"},{"type":"function","name":"themeExists","inputs":[{"name":"theme","type":"bytes32","internalType":"bytes32"}],"outputs":[{"name":"","type":"bool","internalType":"bool"}],"stateMutability":"view"},{"type":"event","name":"CheckContrastCompleted","inputs":[{"name":"variant","type":"string","indexed":false,"internalType":"string"},{"name":"theme","type":"bytes32","indexed":false,"internalType":"bytes32"},{"name":"failures","type":"string[]","indexed":false,"internalType":"string[]"}],"anonymous":false},{"type":"event","name":"ParseCompleted","inputs":[{"name":"variant","type":"string","indexed":false,"internalType":"string"},{"name":"theme","type":"bytes32","indexed":false,"internalType":"bytes32"},{"name":"errors","type":"string[]","indexed":false,"internalType":"string[]"}],"anonymous":false}],"bytecode":{"object":"0x608060405234801561000f575f80fd5b506113378061001d5f395ff3fe608060405234801561000f575f80fd5b5060043610610060575f3560e01c806313173b94146100645780631aa3a008146100945780632c3a3866146100b257806382b94d8d146100e25780638844bf6614610100578063af7b464514610130575b5f80fd5b61007e600480360381019061007991906108e7565b610160565b60405161008b9190610a44565b60405180910390f35b61009c6103e1565b6040516100a99190610aa5565b60405180910390f35b6100cc60048036038101906100c79190610ac5565b61046d565b6040516100d99190610b6f565b60405180910390f35b6100ea610639565b6040516100f79190610c37565b60405180910390f35b61011a60048036038101906101159190610ac5565b61068f565b6040516101279190610c84565b60405180910390f35b61014a60048036038101906101459190610ac5565b6107a0565b6040516101579190610cac565b60405180910390f35b6101686107c8565b5f801b84036101ac576040517f08c379a00000000000000000000000000000000000000000000000000000000081526004016101a390610d1f565b60405180910390fd5b5f83839050116101f1576040517f08c379a00000000000000000000000000000000000000000000000000000000081526004016101e890610d87565b60405180910390fd5b5f8383604051602001610205929190610e2b565b60405160208183030381529060405290505f808681526020019081526020015f206003015f9054906101000a900460ff1661026157600185908060018154018082558091505060019003905f5260205f20015f90919091909150555b604051806080016040528082815260200185858080601f0160208091040260200160405190810160405280939291908181526020018383808284375f81840152601f19601f820116905080830192505050505050508152602001428152602001600115158152505f808781526020019081526020015f205f820151815f0190816102eb9190611075565b5060208201518160010190816103019190611075565b50604082015181600201556060820151816003015f6101000a81548160ff02191690831515021790555090505060405180606001604052806001151581526020018681526020018281525091505f8067ffffffffffffffff81111561036957610368610e4e565b5b60405190808252806020026020018201604052801561039c57816020015b60608152602001906001900390816103875790505b5090507fdc86d5eae4ed989a1e9ac0cad5c23dbdb2dec41eede2934c8cd34c99477cd40286826040516103d0929190611258565b60405180910390a150509392505050565b6103e96107ec565b60405180604001604052806040518060400160405280600c81526020017f7468656d652d706172736572000000000000000000000000000000000000000081525081526020016040518060400160405280600681526020017f7061727365720000000000000000000000000000000000000000000000000000815250815250905090565b610475610806565b5f808381526020019081526020015f206003015f9054906101000a900460ff166104d4576040517f08c379a00000000000000000000000000000000000000000000000000000000081526004016104cb906112e3565b60405180910390fd5b5f808381526020019081526020015f206040518060800160405290815f820180546104fe90610ea8565b80601f016020809104026020016040519081016040528092919081815260200182805461052a90610ea8565b80156105755780601f1061054c57610100808354040283529160200191610575565b820191905f5260205f20905b81548152906001019060200180831161055857829003601f168201915b5050505050815260200160018201805461058e90610ea8565b80601f01602080910402602001604051908101604052809291908181526020018280546105ba90610ea8565b80156106055780601f106105dc57610100808354040283529160200191610605565b820191905f5260205f20905b8154815290600101906020018083116105e857829003601f168201915b5050505050815260200160028201548152602001600382015f9054906101000a900460ff1615151515815250509050919050565b6060600180548060200260200160405190810160405280929190818152602001828054801561068557602002820191905f5260205f20905b815481526020019060010190808311610671575b5050505050905090565b61069761082e565b5f808381526020019081526020015f206003015f9054906101000a900460ff166106f6576040517f08c379a00000000000000000000000000000000000000000000000000000000081526004016106ed906112e3565b60405180910390fd5b60405180604001604052806001151581526020018381525090505f8067ffffffffffffffff81111561072b5761072a610e4e565b5b60405190808252806020026020018201604052801561075e57816020015b60608152602001906001900390816107495790505b5090507f5d33e6b108b5b6312bd069d4d9032165b1b7936439940573e1c808f91857dc638382604051610792929190611258565b60405180910390a150919050565b5f805f8381526020019081526020015f206003015f9054906101000a900460ff169050919050565b60405180606001604052805f151581526020015f8019168152602001606081525090565b604051806040016040528060608152602001606081525090565b604051806080016040528060608152602001606081526020015f81526020015f151581525090565b60405180604001604052805f151581526020015f80191681525090565b5f80fd5b5f80fd5b5f819050919050565b61086581610853565b811461086f575f80fd5b50565b5f813590506108808161085c565b92915050565b5f80fd5b5f80fd5b5f80fd5b5f8083601f8401126108a7576108a6610886565b5b8235905067ffffffffffffffff8111156108c4576108c361088a565b5b6020830191508360018202830111156108e0576108df61088e565b5b9250929050565b5f805f604084860312156108fe576108fd61084b565b5b5f61090b86828701610872565b935050602084013567ffffffffffffffff81111561092c5761092b61084f565b5b61093886828701610892565b92509250509250925092565b5f8115159050919050565b61095881610944565b82525050565b61096781610853565b82525050565b5f81519050919050565b5f82825260208201905092915050565b5f5b838110156109a4578082015181840152602081019050610989565b5f8484015250505050565b5f601f19601f8301169050919050565b5f6109c98261096d565b6109d38185610977565b93506109e3818560208601610987565b6109ec816109af565b840191505092915050565b5f606083015f830151610a0c5f86018261094f565b506020830151610a1f602086018261095e565b5060408301518482036040860152610a3782826109bf565b9150508091505092915050565b5f6020820190508181035f830152610a5c81846109f7565b905092915050565b5f604083015f8301518482035f860152610a7e82826109bf565b91505060208301518482036020860152610a9882826109bf565b9150508091505092915050565b5f6020820190508181035f830152610abd8184610a64565b905092915050565b5f60208284031215610ada57610ad961084b565b5b5f610ae784828501610872565b91505092915050565b5f819050919050565b610b0281610af0565b82525050565b5f608083015f8301518482035f860152610b2282826109bf565b91505060208301518482036020860152610b3c82826109bf565b9150506040830151610b516040860182610af9565b506060830151610b64606086018261094f565b508091505092915050565b5f6020820190508181035f830152610b878184610b08565b905092915050565b5f81519050919050565b5f82825260208201905092915050565b5f819050602082019050919050565b5f610bc3838361095e565b60208301905092915050565b5f602082019050919050565b5f610be582610b8f565b610bef8185610b99565b9350610bfa83610ba9565b805f5b83811015610c2a578151610c118882610bb8565b9750610c1c83610bcf565b925050600181019050610bfd565b5085935050505092915050565b5f6020820190508181035f830152610c4f8184610bdb565b905092915050565b604082015f820151610c6b5f85018261094f565b506020820151610c7e602085018261095e565b50505050565b5f604082019050610c975f830184610c57565b92915050565b610ca681610944565b82525050565b5f602082019050610cbf5f830184610c9d565b92915050565b5f82825260208201905092915050565b7f5468656d652049442063616e6e6f74206265207a65726f0000000000000000005f82015250565b5f610d09601783610cc5565b9150610d1482610cd5565b602082019050919050565b5f6020820190508181035f830152610d3681610cfd565b9050919050565b7f536f757263652063616e6e6f7420626520656d707479000000000000000000005f82015250565b5f610d71601683610cc5565b9150610d7c82610d3d565b602082019050919050565b5f6020820190508181035f830152610d9e81610d65565b9050919050565b5f81905092915050565b7f7468656d652d6173743a000000000000000000000000000000000000000000005f82015250565b5f610de3600a83610da5565b9150610dee82610daf565b600a82019050919050565b828183375f83830152505050565b5f610e128385610da5565b9350610e1f838584610df9565b82840190509392505050565b5f610e3582610dd7565b9150610e42828486610e07565b91508190509392505050565b7f4e487b71000000000000000000000000000000000000000000000000000000005f52604160045260245ffd5b7f4e487b71000000000000000000000000000000000000000000000000000000005f52602260045260245ffd5b5f6002820490506001821680610ebf57607f821691505b602082108103610ed257610ed1610e7b565b5b50919050565b5f819050815f5260205f209050919050565b5f6020601f8301049050919050565b5f82821b905092915050565b5f60088302610f347fffffffffffffffffffffffffffffffffffffffffffffffffffffffffffffffff82610ef9565b610f3e8683610ef9565b95508019841693508086168417925050509392505050565b5f819050919050565b5f610f79610f74610f6f84610af0565b610f56565b610af0565b9050919050565b5f819050919050565b610f9283610f5f565b610fa6610f9e82610f80565b848454610f05565b825550505050565b5f90565b610fba610fae565b610fc5818484610f89565b505050565b5b81811015610fe857610fdd5f82610fb2565b600181019050610fcb565b5050565b601f82111561102d57610ffe81610ed8565b61100784610eea565b81016020851015611016578190505b61102a61102285610eea565b830182610fca565b50505b505050565b5f82821c905092915050565b5f61104d5f1984600802611032565b1980831691505092915050565b5f611065838361103e565b9150826002028217905092915050565b61107e8261096d565b67ffffffffffffffff81111561109757611096610e4e565b5b6110a18254610ea8565b6110ac828285610fec565b5f60209050601f8311600181146110dd575f84156110cb578287015190505b6110d5858261105a565b86555061113c565b601f1984166110eb86610ed8565b5f5b82811015611112578489015182556001820191506020850194506020810190506110ed565b8683101561112f578489015161112b601f89168261103e565b8355505b6001600288020188555050505b505050505050565b7f6f6b0000000000000000000000000000000000000000000000000000000000005f82015250565b5f611178600283610cc5565b915061118382611144565b602082019050919050565b61119781610853565b82525050565b5f81519050919050565b5f82825260208201905092915050565b5f819050602082019050919050565b5f6111d183836109bf565b905092915050565b5f602082019050919050565b5f6111ef8261119d565b6111f981856111a7565b93508360208202850161120b856111b7565b805f5b85811015611246578484038952815161122785826111c6565b9450611232836111d9565b925060208a0199505060018101905061120e565b50829750879550505050505092915050565b5f6060820190508181035f83015261126f8161116c565b905061127e602083018561118e565b818103604083015261129081846111e5565b90509392505050565b7f5468656d65206e6f7420666f756e6400000000000000000000000000000000005f82015250565b5f6112cd600f83610cc5565b91506112d882611299565b602082019050919050565b5f6020820190508181035f8301526112fa816112c1565b905091905056fea26469706673582212209174924d2b4536f50d19a04b21456572c03307cd70093852b02e94b3fad9e64c64736f6c63430008140033","linkReferences":{}},"methodIdentifiers":{"checkContrast(bytes32)":"8844bf66","getTheme(bytes32)":"2c3a3866","listThemes()":"82b94d8d","parse(bytes32,string)":"13173b94","register()":"1aa3a008","themeExists(bytes32)":"af7b4645"},"id":291}