{"abi":[{"type":"function","name":"deploy","inputs":[{"name":"service","type":"bytes32","internalType":"bytes32"},{"name":"imageUri","type":"string","internalType":"string"}],"outputs":[{"name":"","type":"tuple","internalType":"struct EcsRuntime.DeployOkResult","components":[{"name":"success","type":"bool","internalType":"bool"},{"name":"service","type":"bytes32","internalType":"bytes32"},{"name":"taskDefinition","type":"string","internalType":"string"}]}],"stateMutability":"nonpayable"},{"type":"function","name":"destroy","inputs":[{"name":"service","type":"bytes32","internalType":"bytes32"}],"outputs":[{"name":"","type":"tuple","internalType":"struct EcsRuntime.DestroyOkResult","components":[{"name":"success","type":"bool","internalType":"bool"},{"name":"service","type":"bytes32","internalType":"bytes32"}]}],"stateMutability":"nonpayable"},{"type":"function","name":"provision","inputs":[{"name":"concept","type":"string","internalType":"string"},{"name":"cpu","type":"int256","internalType":"int256"},{"name":"memoryMb","type":"int256","internalType":"int256"},{"name":"cluster","type":"string","internalType":"string"}],"outputs":[{"name":"","type":"tuple","internalType":"struct EcsRuntime.ProvisionOkResult","components":[{"name":"success","type":"bool","internalType":"bool"},{"name":"service","type":"bytes32","internalType":"bytes32"},{"name":"serviceArn","type":"string","internalType":"string"},{"name":"endpoint","type":"string","internalType":"string"}]}],"stateMutability":"nonpayable"},{"type":"function","name":"register","inputs":[],"outputs":[{"name":"name","type":"string","internalType":"string"},{"name":"category","type":"string","internalType":"string"},{"name":"capabilities","type":"string[]","internalType":"string[]"}],"stateMutability":"pure"},{"type":"function","name":"rollback","inputs":[{"name":"service","type":"bytes32","internalType":"bytes32"},{"name":"targetTaskDefinition","type":"string","internalType":"string"}],"outputs":[{"name":"","type":"tuple","internalType":"struct EcsRuntime.RollbackOkResult","components":[{"name":"success","type":"bool","internalType":"bool"},{"name":"service","type":"bytes32","internalType":"bytes32"}]}],"stateMutability":"nonpayable"},{"type":"function","name":"setTrafficWeight","inputs":[{"name":"service","type":"bytes32","internalType":"bytes32"},{"name":"weight","type":"int256","internalType":"int256"}],"outputs":[{"name":"","type":"tuple","internalType":"struct EcsRuntime.SetTrafficWeightOkResult","components":[{"name":"success","type":"bool","internalType":"bool"},{"name":"service","type":"bytes32","internalType":"bytes32"}]}],"stateMutability":"nonpayable"},{"type":"event","name":"DeployCompleted","inputs":[{"name":"variant","type":"string","indexed":false,"internalType":"string"},{"name":"service","type":"bytes32","indexed":false,"internalType":"bytes32"},{"name":"failedTasks","type":"int256","indexed":false,"internalType":"int256"}],"anonymous":false},{"type":"event","name":"DestroyCompleted","inputs":[{"name":"variant","type":"string","indexed":false,"internalType":"string"},{"name":"service","type":"bytes32","indexed":false,"internalType":"bytes32"},{"name":"activeConnections","type":"int256","indexed":false,"internalType":"int256"}],"anonymous":false},{"type":"event","name":"ProvisionCompleted","inputs":[{"name":"variant","type":"string","indexed":false,"internalType":"string"},{"name":"service","type":"bytes32","indexed":false,"internalType":"bytes32"}],"anonymous":false},{"type":"event","name":"RollbackCompleted","inputs":[{"name":"variant","type":"string","indexed":false,"internalType":"string"},{"name":"service","type":"bytes32","indexed":false,"internalType":"bytes32"}],"anonymous":false},{"type":"event","name":"SetTrafficWeightCompleted","inputs":[{"name":"variant","type":"string","indexed":false,"internalType":"string"},{"name":"service","type":"bytes32","indexed":false,"internalType":"bytes32"}],"anonymous":false}],"bytecode":{"object":"0x608060405234801561000f575f80fd5b506121b78061001d5f395ff3fe608060405234801561000f575f80fd5b5060043610610060575f3560e01c80631aa3a008146100645780636e0bd282146100845780637855131d146100b45780638388d229146100e457806399e6378e14610114578063c416a8cf14610144575b5f80fd5b61006c610174565b60405161007b93929190610f91565b60405180910390f35b61009e6004803603810190610099919061101f565b6103e7565b6040516100ab91906110a0565b60405180910390f35b6100ce60048036038101906100c991906111e5565b610517565b6040516100db919061126c565b60405180910390f35b6100fe60048036038101906100f991906112b8565b610635565b60405161010b9190611323565b60405180910390f35b61012e6004803603810190610129919061133c565b610757565b60405161013b919061143f565b60405180910390f35b61015e600480360381019061015991906111e5565b6109a4565b60405161016b91906114ac565b60405180910390f35b60608060606040518060400160405280600381526020017f656373000000000000000000000000000000000000000000000000000000000081525092506040518060400160405280600781526020017f72756e74696d65000000000000000000000000000000000000000000000000008152509150600567ffffffffffffffff811115610204576102036110c1565b5b60405190808252806020026020018201604052801561023757816020015b60608152602001906001900390816102225790505b5090506040518060400160405280600981526020017f70726f766973696f6e0000000000000000000000000000000000000000000000815250815f81518110610283576102826114cc565b5b60200260200101819052506040518060400160405280600681526020017f6465706c6f790000000000000000000000000000000000000000000000000000815250816001815181106102d8576102d76114cc565b5b60200260200101819052506040518060400160405280601081526020017f73657454726166666963576569676874000000000000000000000000000000008152508160028151811061032d5761032c6114cc565b5b60200260200101819052506040518060400160405280600881526020017f726f6c6c6261636b00000000000000000000000000000000000000000000000081525081600381518110610382576103816114cc565b5b60200260200101819052506040518060400160405280600781526020017f64657374726f7900000000000000000000000000000000000000000000000000815250816004815181106103d7576103d66114cc565b5b6020026020010181905250909192565b6103ef610cc9565b60015f8381526020019081526020015f205f9054906101000a900460ff1661044c576040517f08c379a000000000000000000000000000000000000000000000000000000000815260040161044390611543565b60405180910390fd5b5f60015f8481526020019081526020015f205f6101000a81548160ff0219169083151502179055505f808381526020019081526020015f205f61048f9190610ce6565b60035f8381526020019081526020015f205f6104ab9190610d23565b60045f8381526020019081526020015f205f90557f7e201781131a55831924725e82c535676e6a8b4d396913ee69559d29940ff516825f6040516104f09291906115c9565b60405180910390a16040518060400160405280600115158152602001838152509050919050565b61051f610d60565b60015f8481526020019081526020015f205f9054906101000a900460ff1661057c576040517f08c379a000000000000000000000000000000000000000000000000000000000815260040161057390611543565b60405180910390fd5b5f8251116105bf576040517f08c379a00000000000000000000000000000000000000000000000000000000081526004016105b690611673565b60405180910390fd5b8160035f8581526020019081526020015f2090816105dd9190611894565b507fd7216dc6f75dc5ba9c492a95dab64aa01aaf14ccb27b9a38cc0ea55b5980b34f8360405161060d9190611963565b60405180910390a1604051806040016040528060011515815260200184815250905092915050565b61063d610d7d565b60015f8481526020019081526020015f205f9054906101000a900460ff1661069a576040517f08c379a000000000000000000000000000000000000000000000000000000000815260040161069190611543565b60405180910390fd5b5f82121580156106ab575060648213155b6106ea576040517f08c379a00000000000000000000000000000000000000000000000000000000081526004016106e1906119d9565b60405180910390fd5b8160045f8581526020019081526020015f20819055507fe3818c8f29f23fa7dae9a0884fe04d7bb4770020f95d48f6e3d93dc214eef7328360405161072f9190611963565b60405180910390a1604051806040016040528060011515815260200184815250905092915050565b61075f610d9a565b5f8551116107a2576040517f08c379a000000000000000000000000000000000000000000000000000000000815260040161079990611a41565b60405180910390fd5b5f8251116107e5576040517f08c379a00000000000000000000000000000000000000000000000000000000081526004016107dc90611aa9565b60405180910390fd5b5f85836040516020016107f9929190611b01565b604051602081830303815290604052805190602001209050858585854260405160200161082a959493929190611b33565b6040516020818303038152906040525f808381526020019081526020015f2090816108559190611bf4565b5060015f8281526020019081526020015f205f9054906101000a900460ff166108f4576001805f8381526020019081526020015f205f6101000a81548160ff021916908315150217905550600281908060018154018082558091505060019003905f5260205f20015f90919091909150555f60055f8381526020019081526020015f2081905550606460045f8381526020019081526020015f20819055505b5f8387604051602001610908929190611d7d565b60405160208183030381529060405290505f8760405160200161092b9190611e4a565b60405160208183030381529060405290507fe7ba298fd4b65faaecaa247132b454d0c8aac6d7bffe755ede2830a2108f83188360405161096b9190611963565b60405180910390a16040518060800160405280600115158152602001848152602001838152602001828152509350505050949350505050565b6109ac610dc5565b60015f8481526020019081526020015f205f9054906101000a900460ff16610a09576040517f08c379a0000000000000000000000000000000000000000000000000000000008152600401610a0090611ee6565b60405180910390fd5b5f825111610a4c576040517f08c379a0000000000000000000000000000000000000000000000000000000008152600401610a4390611f4e565b60405180910390fd5b600160055f8581526020019081526020015f205f828254610a6d9190611f99565b925050819055505f610a8f60055f8681526020019081526020015f2054610b70565b604051602001610a9f9190612016565b60405160208183030381529060405290508060035f8681526020019081526020015f209081610ace9190611894565b50828142604051602001610ae493929190612037565b6040516020818303038152906040525f808681526020019081526020015f209081610b0f9190611bf4565b507ffd3307024059d6c890100baad6027d7aa8470c77d7c3552e96705339181146f7845f604051610b419291906115c9565b60405180910390a160405180606001604052806001151581526020018581526020018281525091505092915050565b60605f8203610bb6576040518060400160405280600181526020017f30000000000000000000000000000000000000000000000000000000000000008152509050610cc4565b5f8290505f5b5f8214610be5578080610bce9061207a565b915050600a82610bde91906120ee565b9150610bbc565b5f8167ffffffffffffffff811115610c0057610bff6110c1565b5b6040519080825280601f01601f191660200182016040528015610c325781602001600182028036833780820191505090505b5090505b5f8514610cbd57600182610c4a919061211e565b9150600a85610c599190612151565b6030610c659190611f99565b60f81b818381518110610c7b57610c7a6114cc565b5b60200101907effffffffffffffffffffffffffffffffffffffffffffffffffffffffffffff191690815f1a905350600a85610cb691906120ee565b9450610c36565b8093505050505b919050565b60405180604001604052805f151581526020015f80191681525090565b508054610cf2906116be565b5f825580601f10610d035750610d20565b601f0160209004905f5260205f2090810190610d1f9190610de9565b5b50565b508054610d2f906116be565b5f825580601f10610d405750610d5d565b601f0160209004905f5260205f2090810190610d5c9190610de9565b5b50565b60405180604001604052805f151581526020015f80191681525090565b60405180604001604052805f151581526020015f80191681525090565b60405180608001604052805f151581526020015f801916815260200160608152602001606081525090565b60405180606001604052805f151581526020015f8019168152602001606081525090565b5b80821115610e00575f815f905550600101610dea565b5090565b5f81519050919050565b5f82825260208201905092915050565b5f5b83811015610e3b578082015181840152602081019050610e20565b5f8484015250505050565b5f601f19601f8301169050919050565b5f610e6082610e04565b610e6a8185610e0e565b9350610e7a818560208601610e1e565b610e8381610e46565b840191505092915050565b5f81519050919050565b5f82825260208201905092915050565b5f819050602082019050919050565b5f82825260208201905092915050565b5f610ed182610e04565b610edb8185610eb7565b9350610eeb818560208601610e1e565b610ef481610e46565b840191505092915050565b5f610f0a8383610ec7565b905092915050565b5f602082019050919050565b5f610f2882610e8e565b610f328185610e98565b935083602082028501610f4485610ea8565b805f5b85811015610f7f5784840389528151610f608582610eff565b9450610f6b83610f12565b925060208a01995050600181019050610f47565b50829750879550505050505092915050565b5f6060820190508181035f830152610fa98186610e56565b90508181036020830152610fbd8185610e56565b90508181036040830152610fd18184610f1e565b9050949350505050565b5f604051905090565b5f80fd5b5f80fd5b5f819050919050565b610ffe81610fec565b8114611008575f80fd5b50565b5f8135905061101981610ff5565b92915050565b5f6020828403121561103457611033610fe4565b5b5f6110418482850161100b565b91505092915050565b5f8115159050919050565b61105e8161104a565b82525050565b61106d81610fec565b82525050565b604082015f8201516110875f850182611055565b50602082015161109a6020850182611064565b50505050565b5f6040820190506110b35f830184611073565b92915050565b5f80fd5b5f80fd5b7f4e487b71000000000000000000000000000000000000000000000000000000005f52604160045260245ffd5b6110f782610e46565b810181811067ffffffffffffffff82111715611116576111156110c1565b5b80604052505050565b5f611128610fdb565b905061113482826110ee565b919050565b5f67ffffffffffffffff821115611153576111526110c1565b5b61115c82610e46565b9050602081019050919050565b828183375f83830152505050565b5f61118961118484611139565b61111f565b9050828152602081018484840111156111a5576111a46110bd565b5b6111b0848285611169565b509392505050565b5f82601f8301126111cc576111cb6110b9565b5b81356111dc848260208601611177565b91505092915050565b5f80604083850312156111fb576111fa610fe4565b5b5f6112088582860161100b565b925050602083013567ffffffffffffffff81111561122957611228610fe8565b5b611235858286016111b8565b9150509250929050565b604082015f8201516112535f850182611055565b5060208201516112666020850182611064565b50505050565b5f60408201905061127f5f83018461123f565b92915050565b5f819050919050565b61129781611285565b81146112a1575f80fd5b50565b5f813590506112b28161128e565b92915050565b5f80604083850312156112ce576112cd610fe4565b5b5f6112db8582860161100b565b92505060206112ec858286016112a4565b9150509250929050565b604082015f82015161130a5f850182611055565b50602082015161131d6020850182611064565b50505050565b5f6040820190506113365f8301846112f6565b92915050565b5f805f806080858703121561135457611353610fe4565b5b5f85013567ffffffffffffffff81111561137157611370610fe8565b5b61137d878288016111b8565b945050602061138e878288016112a4565b935050604061139f878288016112a4565b925050606085013567ffffffffffffffff8111156113c0576113bf610fe8565b5b6113cc878288016111b8565b91505092959194509250565b5f608083015f8301516113ed5f860182611055565b5060208301516114006020860182611064565b50604083015184820360408601526114188282610ec7565b915050606083015184820360608601526114328282610ec7565b9150508091505092915050565b5f6020820190508181035f83015261145781846113d8565b905092915050565b5f606083015f8301516114745f860182611055565b5060208301516114876020860182611064565b506040830151848203604086015261149f8282610ec7565b9150508091505092915050565b5f6020820190508181035f8301526114c4818461145f565b905092915050565b7f4e487b71000000000000000000000000000000000000000000000000000000005f52603260045260245ffd5b7f53657276696365206e6f7420666f756e640000000000000000000000000000005f82015250565b5f61152d601183610e0e565b9150611538826114f9565b602082019050919050565b5f6020820190508181035f83015261155a81611521565b9050919050565b7f6f6b0000000000000000000000000000000000000000000000000000000000005f82015250565b5f611595600283610e0e565b91506115a082611561565b602082019050919050565b6115b481610fec565b82525050565b6115c381611285565b82525050565b5f6060820190508181035f8301526115e081611589565b90506115ef60208301856115ab565b6115fc60408301846115ba565b9392505050565b7f546172676574207461736b20646566696e6974696f6e206d757374206e6f74205f8201527f626520656d707479000000000000000000000000000000000000000000000000602082015250565b5f61165d602883610e0e565b915061166882611603565b604082019050919050565b5f6020820190508181035f83015261168a81611651565b9050919050565b7f4e487b71000000000000000000000000000000000000000000000000000000005f52602260045260245ffd5b5f60028204905060018216806116d557607f821691505b6020821081036116e8576116e7611691565b5b50919050565b5f819050815f5260205f209050919050565b5f6020601f8301049050919050565b5f82821b905092915050565b5f6008830261174a7fffffffffffffffffffffffffffffffffffffffffffffffffffffffffffffffff8261170f565b611754868361170f565b95508019841693508086168417925050509392505050565b5f819050919050565b5f819050919050565b5f61179861179361178e8461176c565b611775565b61176c565b9050919050565b5f819050919050565b6117b18361177e565b6117c56117bd8261179f565b84845461171b565b825550505050565b5f90565b6117d96117cd565b6117e48184846117a8565b505050565b5b81811015611807576117fc5f826117d1565b6001810190506117ea565b5050565b601f82111561184c5761181d816116ee565b61182684611700565b81016020851015611835578190505b61184961184185611700565b8301826117e9565b50505b505050565b5f82821c905092915050565b5f61186c5f1984600802611851565b1980831691505092915050565b5f611884838361185d565b9150826002028217905092915050565b61189d82610e04565b67ffffffffffffffff8111156118b6576118b56110c1565b5b6118c082546116be565b6118cb82828561180b565b5f60209050601f8311600181146118fc575f84156118ea578287015190505b6118f48582611879565b86555061195b565b601f19841661190a866116ee565b5f5b828110156119315784890151825560018201915060208501945060208101905061190c565b8683101561194e578489015161194a601f89168261185d565b8355505b6001600288020188555050505b505050505050565b5f6040820190508181035f83015261197a81611589565b905061198960208301846115ab565b92915050565b7f576569676874206d75737420626520302d3130300000000000000000000000005f82015250565b5f6119c3601483610e0e565b91506119ce8261198f565b602082019050919050565b5f6020820190508181035f8301526119f0816119b7565b9050919050565b7f436f6e63657074206d757374206e6f7420626520656d707479000000000000005f82015250565b5f611a2b601983610e0e565b9150611a36826119f7565b602082019050919050565b5f6020820190508181035f830152611a5881611a1f565b9050919050565b7f436c7573746572206d757374206e6f7420626520656d707479000000000000005f82015250565b5f611a93601983610e0e565b9150611a9e82611a5f565b602082019050919050565b5f6020820190508181035f830152611ac081611a87565b9050919050565b5f81905092915050565b5f611adb82610e04565b611ae58185611ac7565b9350611af5818560208601610e1e565b80840191505092915050565b5f611b0c8285611ad1565b9150611b188284611ad1565b91508190509392505050565b611b2d8161176c565b82525050565b5f60a0820190508181035f830152611b4b8188610e56565b9050611b5a60208301876115ba565b611b6760408301866115ba565b8181036060830152611b798185610e56565b9050611b886080830184611b24565b9695505050505050565b5f81519050919050565b5f819050815f5260205f209050919050565b601f821115611bef57611bc081611b9c565b611bc984611700565b81016020851015611bd8578190505b611bec611be485611700565b8301826117e9565b50505b505050565b611bfd82611b92565b67ffffffffffffffff811115611c1657611c156110c1565b5b611c2082546116be565b611c2b828285611bae565b5f60209050601f831160018114611c5c575f8415611c4a578287015190505b611c548582611879565b865550611cbb565b601f198416611c6a86611b9c565b5f5b82811015611c9157848901518255600182019150602085019450602081019050611c6c565b86831015611cae5784890151611caa601f89168261185d565b8355505b6001600288020188555050505b505050505050565b7f61726e3a6177733a6563733a75732d656173742d313a303030303030303030305f8201527f30303a736572766963652f000000000000000000000000000000000000000000602082015250565b5f611d1d602b83611ac7565b9150611d2882611cc3565b602b82019050919050565b7f2f000000000000000000000000000000000000000000000000000000000000005f82015250565b5f611d67600183611ac7565b9150611d7282611d33565b600182019050919050565b5f611d8782611d11565b9150611d938285611ad1565b9150611d9e82611d5b565b9150611daa8284611ad1565b91508190509392505050565b7f68747470733a2f2f0000000000000000000000000000000000000000000000005f82015250565b5f611dea600883611ac7565b9150611df582611db6565b600882019050919050565b7f2e6563732e696e7465726e616c000000000000000000000000000000000000005f82015250565b5f611e34600d83611ac7565b9150611e3f82611e00565b600d82019050919050565b5f611e5482611dde565b9150611e608284611ad1565b9150611e6b82611e28565b915081905092915050565b7f53657276696365206e6f7420666f756e64202d2070726f766973696f6e2066695f8201527f7273740000000000000000000000000000000000000000000000000000000000602082015250565b5f611ed0602383610e0e565b9150611edb82611e76565b604082019050919050565b5f6020820190508181035f830152611efd81611ec4565b9050919050565b7f496d61676520555249206d757374206e6f7420626520656d70747900000000005f82015250565b5f611f38601b83610e0e565b9150611f4382611f04565b602082019050919050565b5f6020820190508181035f830152611f6581611f2c565b9050919050565b7f4e487b71000000000000000000000000000000000000000000000000000000005f52601160045260245ffd5b5f611fa38261176c565b9150611fae8361176c565b9250828201905080821115611fc657611fc5611f6c565b5b92915050565b7f7461736b2d6465663a00000000000000000000000000000000000000000000005f82015250565b5f612000600983611ac7565b915061200b82611fcc565b600982019050919050565b5f61202082611ff4565b915061202c8284611ad1565b915081905092915050565b5f6060820190508181035f83015261204f8186610e56565b905081810360208301526120638185610e56565b90506120726040830184611b24565b949350505050565b5f6120848261176c565b91507fffffffffffffffffffffffffffffffffffffffffffffffffffffffffffffffff82036120b6576120b5611f6c565b5b600182019050919050565b7f4e487b71000000000000000000000000000000000000000000000000000000005f52601260045260245ffd5b5f6120f88261176c565b91506121038361176c565b925082612113576121126120c1565b5b828204905092915050565b5f6121288261176c565b91506121338361176c565b925082820390508181111561214b5761214a611f6c565b5b92915050565b5f61215b8261176c565b91506121668361176c565b925082612176576121756120c1565b5b82820690509291505056fea2646970667358221220f9892eeeabccba8e26383c6e4845036e560f3e4cb9cca2172a6123b3ff55174764736f6c63430008140033","linkReferences":{}},"methodIdentifiers":{"deploy(bytes32,string)":"c416a8cf","destroy(bytes32)":"6e0bd282","provision(string,int256,int256,string)":"99e6378e","register()":"1aa3a008","rollback(bytes32,string)":"7855131d","setTrafficWeight(bytes32,int256)":"8388d229"},"id":106}