{"abi":[{"type":"function","name":"applyPlan","inputs":[{"name":"plan","type":"string","internalType":"string"},{"name":"provider","type":"string","internalType":"string"}],"outputs":[{"name":"","type":"tuple","internalType":"struct IaC.ApplyOkResult","components":[{"name":"success","type":"bool","internalType":"bool"},{"name":"created","type":"string[]","internalType":"string[]"},{"name":"updated","type":"string[]","internalType":"string[]"},{"name":"deleted","type":"string[]","internalType":"string[]"}]}],"stateMutability":"nonpayable"},{"type":"function","name":"detectDrift","inputs":[{"name":"provider","type":"string","internalType":"string"}],"outputs":[{"name":"","type":"tuple","internalType":"struct IaC.DetectDriftOkResult","components":[{"name":"success","type":"bool","internalType":"bool"},{"name":"drifted","type":"string[]","internalType":"string[]"},{"name":"clean","type":"string[]","internalType":"string[]"}]}],"stateMutability":"nonpayable"},{"type":"function","name":"emitIaC","inputs":[{"name":"plan","type":"string","internalType":"string"},{"name":"provider","type":"string","internalType":"string"}],"outputs":[{"name":"","type":"tuple","internalType":"struct IaC.EmitOkResult","components":[{"name":"success","type":"bool","internalType":"bool"},{"name":"output","type":"string","internalType":"string"},{"name":"fileCount","type":"int256","internalType":"int256"}]}],"stateMutability":"nonpayable"},{"type":"function","name":"preview","inputs":[{"name":"plan","type":"string","internalType":"string"},{"name":"provider","type":"string","internalType":"string"}],"outputs":[{"name":"","type":"tuple","internalType":"struct IaC.PreviewOkResult","components":[{"name":"success","type":"bool","internalType":"bool"},{"name":"toCreate","type":"string[]","internalType":"string[]"},{"name":"toUpdate","type":"string[]","internalType":"string[]"},{"name":"toDelete","type":"string[]","internalType":"string[]"},{"name":"estimatedMonthlyCost","type":"uint256","internalType":"uint256"}]}],"stateMutability":"nonpayable"},{"type":"function","name":"teardown","inputs":[{"name":"plan","type":"string","internalType":"string"},{"name":"provider","type":"string","internalType":"string"}],"outputs":[{"name":"","type":"tuple","internalType":"struct IaC.TeardownOkResult","components":[{"name":"success","type":"bool","internalType":"bool"},{"name":"destroyed","type":"string[]","internalType":"string[]"}]}],"stateMutability":"nonpayable"},{"type":"event","name":"ApplyCompleted","inputs":[{"name":"variant","type":"string","indexed":false,"internalType":"string"},{"name":"created","type":"string[]","indexed":false,"internalType":"string[]"},{"name":"updated","type":"string[]","indexed":false,"internalType":"string[]"},{"name":"deleted","type":"string[]","indexed":false,"internalType":"string[]"},{"name":"failed","type":"string[]","indexed":false,"internalType":"string[]"}],"anonymous":false},{"type":"event","name":"DetectDriftCompleted","inputs":[{"name":"variant","type":"string","indexed":false,"internalType":"string"},{"name":"drifted","type":"string[]","indexed":false,"internalType":"string[]"},{"name":"clean","type":"string[]","indexed":false,"internalType":"string[]"}],"anonymous":false},{"type":"event","name":"EmitCompleted","inputs":[{"name":"variant","type":"string","indexed":false,"internalType":"string"},{"name":"fileCount","type":"int256","indexed":false,"internalType":"int256"}],"anonymous":false},{"type":"event","name":"PreviewCompleted","inputs":[{"name":"variant","type":"string","indexed":false,"internalType":"string"},{"name":"toCreate","type":"string[]","indexed":false,"internalType":"string[]"},{"name":"toUpdate","type":"string[]","indexed":false,"internalType":"string[]"},{"name":"toDelete","type":"string[]","indexed":false,"internalType":"string[]"},{"name":"estimatedMonthlyCost","type":"uint256","indexed":false,"internalType":"uint256"}],"anonymous":false},{"type":"event","name":"TeardownCompleted","inputs":[{"name":"variant","type":"string","indexed":false,"internalType":"string"},{"name":"destroyed","type":"string[]","indexed":false,"internalType":"string[]"},{"name":"stuck","type":"string[]","indexed":false,"internalType":"string[]"}],"anonymous":false}],"bytecode":{"object":"0x608060405234801561000f575f80fd5b506126ad8061001d5f395ff3fe608060405234801561000f575f80fd5b5060043610610055575f3560e01c806311e1439b146100595780634a178631146100895780637c0d3ca6146100b9578063957d09f4146100e9578063f3a307eb14610119575b5f80fd5b610073600480360381019061006e9190611634565b610149565b60405161008091906117a3565b60405180910390f35b6100a3600480360381019061009e9190611634565b6103ad565b6040516100b091906118ec565b60405180910390f35b6100d360048036038101906100ce9190611634565b610899565b6040516100e091906119a5565b60405180910390f35b61010360048036038101906100fe91906119c5565b610c10565b6040516101109190611a60565b60405180910390f35b610133600480360381019061012e9190611634565b610f32565b6040516101409190611aba565b60405180910390f35b610151611431565b5f835111610194576040517f08c379a000000000000000000000000000000000000000000000000000000000815260040161018b90611b34565b60405180910390fd5b5f8251116101d7576040517f08c379a00000000000000000000000000000000000000000000000000000000081526004016101ce90611b9c565b60405180910390fd5b5f83836040516020016101eb929190611bf4565b6040516020818303038152906040528051906020012090505f8385604051602001610217929190611cab565b60405160208183030381529060405290505f6001600587516102399190611d3e565b6102439190611d6e565b90506040518060e001604052808781526020018681526020018381526020018281526020016001151581526020015f151581526020014281525060035f8581526020019081526020015f205f820151815f0190816102a19190611fa9565b5060208201518160010190816102b79190611fa9565b5060408201518160020190816102cd9190611fa9565b50606082015181600301556080820151816004015f6101000a81548160ff02191690831515021790555060a08201518160040160016101000a81548160ff02191690831515021790555060c08201518160050155905050600160045f8581526020019081526020015f205f6101000a81548160ff0219169083151502179055507fe67ff036daeeaab8a92129598778be91471aba271677dca0d471f455a515769a8160405161037c91906120d1565b60405180910390a1604051806060016040528060011515815260200183815260200182815250935050505092915050565b6103b5611452565b5f83836040516020016103c9929190611bf4565b60405160208183030381529060405280519060200120905060045f8281526020019081526020015f205f9054906101000a900460ff1661043e576040517f08c379a00000000000000000000000000000000000000000000000000000000081526004016104359061216d565b60405180910390fd5b60035f8281526020019081526020015f206004015f9054906101000a900460ff1661049e576040517f08c379a00000000000000000000000000000000000000000000000000000000081526004016104959061216d565b60405180910390fd5b5f8484426040516020016104b4939291906121ab565b6040516020818303038152906040528051906020012090506040518060e0016040528085876040516020016104ea929190612229565b60405160208183030381529060405281526020018581526020016040518060400160405280600781526020017f6d616e616765640000000000000000000000000000000000000000000000000081525081526020016040518060400160405280600781526020017f63726561746564000000000000000000000000000000000000000000000000008152508152602001428152602001428152602001600115158152505f808381526020019081526020015f205f820151815f0190816105b09190611fa9565b5060208201518160010190816105c69190611fa9565b5060408201518160020190816105dc9190611fa9565b5060608201518160030190816105f29190611fa9565b506080820151816004015560a0820151816005015560c0820151816006015f6101000a81548160ff021916908315150217905550905050600160025f8381526020019081526020015f205f6101000a81548160ff021916908315150217905550600181908060018154018082558091505060019003905f5260205f20015f9091909190915055600160035f8481526020019081526020015f2060040160016101000a81548160ff0219169083151502179055505f600167ffffffffffffffff8111156106c1576106c0611510565b5b6040519080825280602002602001820160405280156106f457816020015b60608152602001906001900390816106df5790505b509050848660405160200161070a929190612229565b604051602081830303815290604052815f8151811061072c5761072b612257565b5b60200260200101819052505f8067ffffffffffffffff81111561075257610751611510565b5b60405190808252806020026020018201604052801561078557816020015b60608152602001906001900390816107705790505b5090505f8067ffffffffffffffff8111156107a3576107a2611510565b5b6040519080825280602002602001820160405280156107d657816020015b60608152602001906001900390816107c15790505b5090505f8067ffffffffffffffff8111156107f4576107f3611510565b5b60405190808252806020026020018201604052801561082757816020015b60608152602001906001900390816108125790505b5090507f7d67b5e49a6413c9c8d4796528535ed032afd1e0267a409a049cb09c9224f03d8484848460405161085f9493929190612307565b60405180910390a1604051806080016040528060011515815260200185815260200184815260200183815250965050505050505092915050565b6108a161147b565b5f8351116108e4576040517f08c379a00000000000000000000000000000000000000000000000000000000081526004016108db90611b34565b60405180910390fd5b5f805f805b600180549050811015610a0b575f6001828154811061090b5761090a612257565b5b905f5260205f200154905060025f8281526020019081526020015f205f9054906101000a900460ff1661093e57506109f8565b5f805f8381526020019081526020015f20905087805190602001208160010160405161096a9190612415565b6040518091039020036109f5576040518060400160405280600781526020017f706c616e6e65640000000000000000000000000000000000000000000000000081525080519060200120816003016040516109c59190612415565b6040518091039020036109e55785806109dd9061242b565b9650506109f4565b84806109f09061242b565b9550505b5b50505b8080610a039061242b565b9150506108e9565b508280610a179061242b565b9350505f8367ffffffffffffffff811115610a3557610a34611510565b5b604051908082528060200260200182016040528015610a6857816020015b6060815260200190600190039081610a535790505b5090505f5b84811015610ad05786610a7f826112d9565b604051602001610a909291906124bc565b604051602081830303815290604052828281518110610ab257610ab1612257565b5b60200260200101819052508080610ac89061242b565b915050610a6d565b505f8367ffffffffffffffff811115610aec57610aeb611510565b5b604051908082528060200260200182016040528015610b1f57816020015b6060815260200190600190039081610b0a5790505b5090505f8367ffffffffffffffff811115610b3d57610b3c611510565b5b604051908082528060200260200182016040528015610b7057816020015b6060815260200190600190039081610b5b5790505b5090505f600a86610b8191906124ea565b603288610b8e91906124ea565b610b98919061252b565b90507f81cd48dcf7d8b1a6eec9feb4b722e1f4997527e44b97bdeb36ae7e3009d8078684848484604051610bcf949392919061256d565b60405180910390a16040518060a001604052806001151581526020018581526020018481526020018381526020018281525097505050505050505092915050565b610c186114aa565b5f805b600180549050811015610cce575f60018281548110610c3d57610c3c612257565b5b905f5260205f200154905060025f8281526020019081526020015f205f9054906101000a900460ff16610c705750610cbb565b5f805f8381526020019081526020015f209050858051906020012081600101604051610c9c9190612415565b604051809103902003610cb8578380610cb49061242b565b9450505b50505b8080610cc69061242b565b915050610c1b565b505f8067ffffffffffffffff811115610cea57610ce9611510565b5b604051908082528060200260200182016040528015610d1d57816020015b6060815260200190600190039081610d085790505b5090505f8267ffffffffffffffff811115610d3b57610d3a611510565b5b604051908082528060200260200182016040528015610d6e57816020015b6060815260200190600190039081610d595790505b5090505f805b600180549050811015610ecf575f60018281548110610d9657610d95612257565b5b905f5260205f200154905060025f8281526020019081526020015f205f9054906101000a900460ff16610dc95750610ebc565b5f805f8381526020019081526020015f209050888051906020012081600101604051610df59190612415565b604051809103902003610eb957805f018054610e1090611ddc565b80601f0160208091040260200160405190810160405280929190818152602001828054610e3c90611ddc565b8015610e875780601f10610e5e57610100808354040283529160200191610e87565b820191905f5260205f20905b815481529060010190602001808311610e6a57829003601f168201915b5050505050858581518110610e9f57610e9e612257565b5b60200260200101819052508380610eb59061242b565b9450505b50505b8080610ec79061242b565b915050610d74565b507f92d1a0e7e59701c6f6e3b2f1f7c98810741c12400615a4487553d5ff5f879a0f8383604051610f019291906125d8565b60405180910390a1604051806060016040528060011515815260200184815260200183815250945050505050919050565b610f3a6114cc565b5f805b600180549050811015610ff0575f60018281548110610f5f57610f5e612257565b5b905f5260205f200154905060025f8281526020019081526020015f205f9054906101000a900460ff16610f925750610fdd565b5f805f8381526020019081526020015f209050858051906020012081600101604051610fbe9190612415565b604051809103902003610fda578380610fd69061242b565b9450505b50505b8080610fe89061242b565b915050610f3d565b505f8167ffffffffffffffff81111561100c5761100b611510565b5b60405190808252806020026020018201604052801561103f57816020015b606081526020019060019003908161102a5790505b5090505f805b60018054905081101561122a575f6001828154811061106757611066612257565b5b905f5260205f200154905060025f8281526020019081526020015f205f9054906101000a900460ff1661109a5750611217565b5f805f8381526020019081526020015f2090508780519060200120816001016040516110c69190612415565b60405180910390200361121457805f0180546110e190611ddc565b80601f016020809104026020016040519081016040528092919081815260200182805461110d90611ddc565b80156111585780601f1061112f57610100808354040283529160200191611158565b820191905f5260205f20905b81548152906001019060200180831161113b57829003601f168201915b50505050508585815181106111705761116f612257565b5b602002602001018190525083806111869061242b565b9450506040518060400160405280600781526020017f64656c65746564000000000000000000000000000000000000000000000000008152508160030190816111cf9190611fa9565b505f816006015f6101000a81548160ff0219169083151502179055505f60025f8481526020019081526020015f205f6101000a81548160ff0219169083151502179055505b50505b80806112229061242b565b915050611045565b505f8067ffffffffffffffff81111561124657611245611510565b5b60405190808252806020026020018201604052801561127957816020015b60608152602001906001900390816112645790505b5090507f025ce155e4ca3dcc1d11fda6bf2268ed3989241f871ef4195ce47251e2990c2483826040516112ad9291906125d8565b60405180910390a160405180604001604052806001151581526020018481525094505050505092915050565b60605f820361131f576040518060400160405280600181526020017f3000000000000000000000000000000000000000000000000000000000000000815250905061142c565b5f8290505f5b5f821461134e5780806113379061242b565b915050600a826113479190611d3e565b9150611325565b5f8167ffffffffffffffff81111561136957611368611510565b5b6040519080825280601f01601f19166020018201604052801561139b5781602001600182028036833780820191505090505b5090505b5f85146114255781806113b190612620565b925050600a856113c19190612647565b60306113cd919061252b565b60f81b8183815181106113e3576113e2612257565b5b60200101907effffffffffffffffffffffffffffffffffffffffffffffffffffffffffffff191690815f1a905350600a8561141e9190611d3e565b945061139f565b8093505050505b919050565b60405180606001604052805f15158152602001606081526020015f81525090565b60405180608001604052805f151581526020016060815260200160608152602001606081525090565b6040518060a001604052805f151581526020016060815260200160608152602001606081526020015f81525090565b60405180606001604052805f1515815260200160608152602001606081525090565b60405180604001604052805f15158152602001606081525090565b5f604051905090565b5f80fd5b5f80fd5b5f80fd5b5f80fd5b5f601f19601f8301169050919050565b7f4e487b71000000000000000000000000000000000000000000000000000000005f52604160045260245ffd5b61154682611500565b810181811067ffffffffffffffff8211171561156557611564611510565b5b80604052505050565b5f6115776114e7565b9050611583828261153d565b919050565b5f67ffffffffffffffff8211156115a2576115a1611510565b5b6115ab82611500565b9050602081019050919050565b828183375f83830152505050565b5f6115d86115d384611588565b61156e565b9050828152602081018484840111156115f4576115f36114fc565b5b6115ff8482856115b8565b509392505050565b5f82601f83011261161b5761161a6114f8565b5b813561162b8482602086016115c6565b91505092915050565b5f806040838503121561164a576116496114f0565b5b5f83013567ffffffffffffffff811115611667576116666114f4565b5b61167385828601611607565b925050602083013567ffffffffffffffff811115611694576116936114f4565b5b6116a085828601611607565b9150509250929050565b5f8115159050919050565b6116be816116aa565b82525050565b5f81519050919050565b5f82825260208201905092915050565b5f5b838110156116fb5780820151818401526020810190506116e0565b5f8484015250505050565b5f611710826116c4565b61171a81856116ce565b935061172a8185602086016116de565b61173381611500565b840191505092915050565b5f819050919050565b6117508161173e565b82525050565b5f606083015f83015161176b5f8601826116b5565b50602083015184820360208601526117838282611706565b91505060408301516117986040860182611747565b508091505092915050565b5f6020820190508181035f8301526117bb8184611756565b905092915050565b5f81519050919050565b5f82825260208201905092915050565b5f819050602082019050919050565b5f6117f78383611706565b905092915050565b5f602082019050919050565b5f611815826117c3565b61181f81856117cd565b935083602082028501611831856117dd565b805f5b8581101561186c578484038952815161184d85826117ec565b9450611858836117ff565b925060208a01995050600181019050611834565b50829750879550505050505092915050565b5f608083015f8301516118935f8601826116b5565b50602083015184820360208601526118ab828261180b565b915050604083015184820360408601526118c5828261180b565b915050606083015184820360608601526118df828261180b565b9150508091505092915050565b5f6020820190508181035f830152611904818461187e565b905092915050565b5f819050919050565b61191e8161190c565b82525050565b5f60a083015f8301516119395f8601826116b5565b5060208301518482036020860152611951828261180b565b9150506040830151848203604086015261196b828261180b565b91505060608301518482036060860152611985828261180b565b915050608083015161199a6080860182611915565b508091505092915050565b5f6020820190508181035f8301526119bd8184611924565b905092915050565b5f602082840312156119da576119d96114f0565b5b5f82013567ffffffffffffffff8111156119f7576119f66114f4565b5b611a0384828501611607565b91505092915050565b5f606083015f830151611a215f8601826116b5565b5060208301518482036020860152611a39828261180b565b91505060408301518482036040860152611a53828261180b565b9150508091505092915050565b5f6020820190508181035f830152611a788184611a0c565b905092915050565b5f604083015f830151611a955f8601826116b5565b5060208301518482036020860152611aad828261180b565b9150508091505092915050565b5f6020820190508181035f830152611ad28184611a80565b905092915050565b5f82825260208201905092915050565b7f506c616e206d757374206e6f7420626520656d707479000000000000000000005f82015250565b5f611b1e601683611ada565b9150611b2982611aea565b602082019050919050565b5f6020820190508181035f830152611b4b81611b12565b9050919050565b7f50726f7669646572206d757374206e6f7420626520656d7074790000000000005f82015250565b5f611b86601a83611ada565b9150611b9182611b52565b602082019050919050565b5f6020820190508181035f830152611bb381611b7a565b9050919050565b5f81905092915050565b5f611bce826116c4565b611bd88185611bba565b9350611be88185602086016116de565b80840191505092915050565b5f611bff8285611bc4565b9150611c0b8284611bc4565b91508190509392505050565b7f6961632f000000000000000000000000000000000000000000000000000000005f82015250565b5f611c4b600483611bba565b9150611c5682611c17565b600482019050919050565b7f2f000000000000000000000000000000000000000000000000000000000000005f82015250565b5f611c95600183611bba565b9150611ca082611c61565b600182019050919050565b5f611cb582611c3f565b9150611cc18285611bc4565b9150611ccc82611c89565b9150611cd88284611bc4565b91508190509392505050565b7f4e487b71000000000000000000000000000000000000000000000000000000005f52601260045260245ffd5b7f4e487b71000000000000000000000000000000000000000000000000000000005f52601160045260245ffd5b5f611d488261190c565b9150611d538361190c565b925082611d6357611d62611ce4565b5b828204905092915050565b5f611d788261173e565b9150611d838361173e565b92508282019050828112155f8312168382125f841215161715611da957611da8611d11565b5b92915050565b7f4e487b71000000000000000000000000000000000000000000000000000000005f52602260045260245ffd5b5f6002820490506001821680611df357607f821691505b602082108103611e0657611e05611daf565b5b50919050565b5f819050815f5260205f209050919050565b5f6020601f8301049050919050565b5f82821b905092915050565b5f60088302611e687fffffffffffffffffffffffffffffffffffffffffffffffffffffffffffffffff82611e2d565b611e728683611e2d565b95508019841693508086168417925050509392505050565b5f819050919050565b5f611ead611ea8611ea38461190c565b611e8a565b61190c565b9050919050565b5f819050919050565b611ec683611e93565b611eda611ed282611eb4565b848454611e39565b825550505050565b5f90565b611eee611ee2565b611ef9818484611ebd565b505050565b5b81811015611f1c57611f115f82611ee6565b600181019050611eff565b5050565b601f821115611f6157611f3281611e0c565b611f3b84611e1e565b81016020851015611f4a578190505b611f5e611f5685611e1e565b830182611efe565b50505b505050565b5f82821c905092915050565b5f611f815f1984600802611f66565b1980831691505092915050565b5f611f998383611f72565b9150826002028217905092915050565b611fb2826116c4565b67ffffffffffffffff811115611fcb57611fca611510565b5b611fd58254611ddc565b611fe0828285611f20565b5f60209050601f831160018114612011575f8415611fff578287015190505b6120098582611f8e565b865550612070565b601f19841661201f86611e0c565b5f5b8281101561204657848901518255600182019150602085019450602081019050612021565b86831015612063578489015161205f601f891682611f72565b8355505b6001600288020188555050505b505050505050565b7f6f6b0000000000000000000000000000000000000000000000000000000000005f82015250565b5f6120ac600283611ada565b91506120b782612078565b602082019050919050565b6120cb8161173e565b82525050565b5f6040820190508181035f8301526120e8816120a0565b90506120f760208301846120c2565b92915050565b7f506c616e206d75737420626520656d6974746564206265666f7265206170706c5f8201527f79696e6700000000000000000000000000000000000000000000000000000000602082015250565b5f612157602483611ada565b9150612162826120fd565b604082019050919050565b5f6020820190508181035f8301526121848161214b565b9050919050565b5f819050919050565b6121a56121a08261190c565b61218b565b82525050565b5f6121b68286611bc4565b91506121c28285611bc4565b91506121ce8284612194565b602082019150819050949350505050565b7f3a000000000000000000000000000000000000000000000000000000000000005f82015250565b5f612213600183611bba565b915061221e826121df565b600182019050919050565b5f6122348285611bc4565b915061223f82612207565b915061224b8284611bc4565b91508190509392505050565b7f4e487b71000000000000000000000000000000000000000000000000000000005f52603260045260245ffd5b5f82825260208201905092915050565b5f61229e826117c3565b6122a88185612284565b9350836020820285016122ba856117dd565b805f5b858110156122f557848403895281516122d685826117ec565b94506122e1836117ff565b925060208a019950506001810190506122bd565b50829750879550505050505092915050565b5f60a0820190508181035f83015261231e816120a0565b905081810360208301526123328187612294565b905081810360408301526123468186612294565b9050818103606083015261235a8185612294565b9050818103608083015261236e8184612294565b905095945050505050565b5f81905092915050565b5f819050815f5260205f209050919050565b5f81546123a181611ddc565b6123ab8186612379565b9450600182165f81146123c557600181146123da5761240c565b60ff198316865281151582028601935061240c565b6123e385612383565b5f5b83811015612404578154818901526001820191506020810190506123e5565b838801955050505b50505092915050565b5f6124208284612395565b915081905092915050565b5f6124358261190c565b91507fffffffffffffffffffffffffffffffffffffffffffffffffffffffffffffffff820361246757612466611d11565b5b600182019050919050565b7f5f7265736f757263655f000000000000000000000000000000000000000000005f82015250565b5f6124a6600a83611bba565b91506124b182612472565b600a82019050919050565b5f6124c78285611bc4565b91506124d28261249a565b91506124de8284611bc4565b91508190509392505050565b5f6124f48261190c565b91506124ff8361190c565b925082820261250d8161190c565b9150828204841483151761252457612523611d11565b5b5092915050565b5f6125358261190c565b91506125408361190c565b925082820190508082111561255857612557611d11565b5b92915050565b6125678161190c565b82525050565b5f60a0820190508181035f830152612584816120a0565b905081810360208301526125988187612294565b905081810360408301526125ac8186612294565b905081810360608301526125c08185612294565b90506125cf608083018461255e565b95945050505050565b5f6060820190508181035f8301526125ef816120a0565b905081810360208301526126038185612294565b905081810360408301526126178184612294565b90509392505050565b5f61262a8261190c565b91505f820361263c5761263b611d11565b5b600182039050919050565b5f6126518261190c565b915061265c8361190c565b92508261266c5761266b611ce4565b5b82820690509291505056fea26469706673582212207e64f2fcf24cf42bf026e4c2389beafdeca0a62cbebcbaaa0b2ccd6cc6aba91664736f6c63430008140033","linkReferences":{}},"methodIdentifiers":{"applyPlan(string,string)":"4a178631","detectDrift(string)":"957d09f4","emitIaC(string,string)":"11e1439b","preview(string,string)":"7c0d3ca6","teardown(string,string)":"f3a307eb"},"id":146}