{"abi":[{"type":"function","name":"register","inputs":[],"outputs":[{"name":"","type":"tuple","internalType":"struct SolidityToolchain.RegisterOkResult","components":[{"name":"success","type":"bool","internalType":"bool"},{"name":"name","type":"string","internalType":"string"},{"name":"language","type":"string","internalType":"string"},{"name":"capabilities","type":"string[]","internalType":"string[]"}]}],"stateMutability":"pure"},{"type":"function","name":"resolve","inputs":[{"name":"platform","type":"string","internalType":"string"},{"name":"versionConstraint","type":"string","internalType":"string"}],"outputs":[{"name":"","type":"tuple","internalType":"struct SolidityToolchain.ResolveOkResult","components":[{"name":"success","type":"bool","internalType":"bool"},{"name":"toolchain","type":"bytes32","internalType":"bytes32"},{"name":"solcPath","type":"string","internalType":"string"},{"name":"version","type":"string","internalType":"string"},{"name":"capabilities","type":"string[]","internalType":"string[]"}]}],"stateMutability":"nonpayable"},{"type":"event","name":"RegisterCompleted","inputs":[{"name":"variant","type":"string","indexed":false,"internalType":"string"},{"name":"capabilities","type":"string[]","indexed":false,"internalType":"string[]"}],"anonymous":false},{"type":"event","name":"ResolveCompleted","inputs":[{"name":"variant","type":"string","indexed":false,"internalType":"string"},{"name":"toolchain","type":"bytes32","indexed":false,"internalType":"bytes32"},{"name":"capabilities","type":"string[]","indexed":false,"internalType":"string[]"},{"name":"supported","type":"string[]","indexed":false,"internalType":"string[]"}],"anonymous":false}],"bytecode":{"object":"0x608060405234801561000f575f80fd5b5061144e8061001d5f395ff3fe608060405234801561000f575f80fd5b5060043610610034575f3560e01c80631aa3a0081461003857806398d7a7c614610056575b5f80fd5b610040610086565b60405161004d9190610b03565b60405180910390f35b610070600480360381019061006b9190610c60565b610272565b60405161007d9190610d6f565b60405180910390f35b61008e610809565b5f600367ffffffffffffffff8111156100aa576100a9610b3c565b5b6040519080825280602002602001820160405280156100dd57816020015b60608152602001906001900390816100c85790505b5090506040518060400160405280600481526020017f736f6c6300000000000000000000000000000000000000000000000000000000815250815f8151811061012957610128610d8f565b5b60200260200101819052506040518060400160405280600581526020017f666f7267650000000000000000000000000000000000000000000000000000008152508160018151811061017e5761017d610d8f565b5b60200260200101819052506040518060400160405280600481526020017f6361737400000000000000000000000000000000000000000000000000000000815250816002815181106101d3576101d2610d8f565b5b602002602001018190525060405180608001604052806001151581526020016040518060400160405280601281526020017f736f6c69646974792d746f6f6c636861696e000000000000000000000000000081525081526020016040518060400160405280600881526020017f736f6c696469747900000000000000000000000000000000000000000000000081525081526020018281525091505090565b61027a610832565b5f8351116102bd576040517f08c379a00000000000000000000000000000000000000000000000000000000081526004016102b490610e16565b60405180910390fd5b5f83836040516020016102d1929190610eb8565b6040516020818303038152906040528051906020012090505f808281526020019081526020015f206006015f9054906101000a900460ff1661059f575f600367ffffffffffffffff81111561032957610328610b3c565b5b60405190808252806020026020018201604052801561035c57816020015b60608152602001906001900390816103475790505b5090506040518060400160405280600481526020017f736f6c6300000000000000000000000000000000000000000000000000000000815250815f815181106103a8576103a7610d8f565b5b60200260200101819052506040518060400160405280600581526020017f666f726765000000000000000000000000000000000000000000000000000000815250816001815181106103fd576103fc610d8f565b5b60200260200101819052506040518060400160405280600481526020017f63617374000000000000000000000000000000000000000000000000000000008152508160028151811061045257610451610d8f565b5b60200260200101819052506040518060e001604052808681526020018581526020016040518060400160405280601381526020017f2f7573722f6c6f63616c2f62696e2f736f6c63000000000000000000000000008152508152602001858152602001828152602001428152602001600115158152505f808481526020019081526020015f205f820151815f0190816104eb91906110e9565b50602082015181600101908161050191906110e9565b50604082015181600201908161051791906110e9565b50606082015181600301908161052d91906110e9565b50608082015181600401908051906020019061054a929190610864565b5060a0820151816005015560c0820151816006015f6101000a81548160ff021916908315150217905550905050600182908060018154018082558091505060019003905f5260205f20015f9091909190915055505b5f805f8381526020019081526020015f20905060607f93d50a0d48825651289419296e0cdcbea41e66be5308529f15528da4a93618c68383600401836040516105ea939291906113c2565b60405180910390a16040518060a0016040528060011515815260200184815260200183600201805461061b90610f13565b80601f016020809104026020016040519081016040528092919081815260200182805461064790610f13565b80156106925780601f1061066957610100808354040283529160200191610692565b820191905f5260205f20905b81548152906001019060200180831161067557829003601f168201915b505050505081526020018360030180546106ab90610f13565b80601f01602080910402602001604051908101604052809291908181526020018280546106d790610f13565b80156107225780601f106106f957610100808354040283529160200191610722565b820191905f5260205f20905b81548152906001019060200180831161070557829003601f168201915b5050505050815260200183600401805480602002602001604051908101604052809291908181526020015f905b828210156107f7578382905f5260205f2001805461076c90610f13565b80601f016020809104026020016040519081016040528092919081815260200182805461079890610f13565b80156107e35780601f106107ba576101008083540402835291602001916107e3565b820191905f5260205f20905b8154815290600101906020018083116107c657829003601f168201915b50505050508152602001906001019061074f565b50505050815250935050505092915050565b60405180608001604052805f151581526020016060815260200160608152602001606081525090565b6040518060a001604052805f151581526020015f80191681526020016060815260200160608152602001606081525090565b828054828255905f5260205f209081019282156108aa579160200282015b828111156108a957825182908161089991906110e9565b5091602001919060010190610882565b5b5090506108b791906108bb565b5090565b5b808211156108da575f81816108d191906108de565b506001016108bc565b5090565b5080546108ea90610f13565b5f825580601f106108fb5750610918565b601f0160209004905f5260205f2090810190610917919061091b565b5b50565b5b80821115610932575f815f90555060010161091c565b5090565b5f8115159050919050565b61094a81610936565b82525050565b5f81519050919050565b5f82825260208201905092915050565b5f5b8381101561098757808201518184015260208101905061096c565b5f8484015250505050565b5f601f19601f8301169050919050565b5f6109ac82610950565b6109b6818561095a565b93506109c681856020860161096a565b6109cf81610992565b840191505092915050565b5f81519050919050565b5f82825260208201905092915050565b5f819050602082019050919050565b5f610a0e83836109a2565b905092915050565b5f602082019050919050565b5f610a2c826109da565b610a3681856109e4565b935083602082028501610a48856109f4565b805f5b85811015610a835784840389528151610a648582610a03565b9450610a6f83610a16565b925060208a01995050600181019050610a4b565b50829750879550505050505092915050565b5f608083015f830151610aaa5f860182610941565b5060208301518482036020860152610ac282826109a2565b91505060408301518482036040860152610adc82826109a2565b91505060608301518482036060860152610af68282610a22565b9150508091505092915050565b5f6020820190508181035f830152610b1b8184610a95565b905092915050565b5f604051905090565b5f80fd5b5f80fd5b5f80fd5b5f80fd5b7f4e487b71000000000000000000000000000000000000000000000000000000005f52604160045260245ffd5b610b7282610992565b810181811067ffffffffffffffff82111715610b9157610b90610b3c565b5b80604052505050565b5f610ba3610b23565b9050610baf8282610b69565b919050565b5f67ffffffffffffffff821115610bce57610bcd610b3c565b5b610bd782610992565b9050602081019050919050565b828183375f83830152505050565b5f610c04610bff84610bb4565b610b9a565b905082815260208101848484011115610c2057610c1f610b38565b5b610c2b848285610be4565b509392505050565b5f82601f830112610c4757610c46610b34565b5b8135610c57848260208601610bf2565b91505092915050565b5f8060408385031215610c7657610c75610b2c565b5b5f83013567ffffffffffffffff811115610c9357610c92610b30565b5b610c9f85828601610c33565b925050602083013567ffffffffffffffff811115610cc057610cbf610b30565b5b610ccc85828601610c33565b9150509250929050565b5f819050919050565b610ce881610cd6565b82525050565b5f60a083015f830151610d035f860182610941565b506020830151610d166020860182610cdf565b5060408301518482036040860152610d2e82826109a2565b91505060608301518482036060860152610d4882826109a2565b91505060808301518482036080860152610d628282610a22565b9150508091505092915050565b5f6020820190508181035f830152610d878184610cee565b905092915050565b7f4e487b71000000000000000000000000000000000000000000000000000000005f52603260045260245ffd5b5f82825260208201905092915050565b7f506c6174666f726d206d757374206e6f7420626520656d7074790000000000005f82015250565b5f610e00601a83610dbc565b9150610e0b82610dcc565b602082019050919050565b5f6020820190508181035f830152610e2d81610df4565b9050919050565b5f81905092915050565b7f736f6c69646974790000000000000000000000000000000000000000000000005f82015250565b5f610e72600883610e34565b9150610e7d82610e3e565b600882019050919050565b5f610e9282610950565b610e9c8185610e34565b9350610eac81856020860161096a565b80840191505092915050565b5f610ec282610e66565b9150610ece8285610e88565b9150610eda8284610e88565b91508190509392505050565b7f4e487b71000000000000000000000000000000000000000000000000000000005f52602260045260245ffd5b5f6002820490506001821680610f2a57607f821691505b602082108103610f3d57610f3c610ee6565b5b50919050565b5f819050815f5260205f209050919050565b5f6020601f8301049050919050565b5f82821b905092915050565b5f60088302610f9f7fffffffffffffffffffffffffffffffffffffffffffffffffffffffffffffffff82610f64565b610fa98683610f64565b95508019841693508086168417925050509392505050565b5f819050919050565b5f819050919050565b5f610fed610fe8610fe384610fc1565b610fca565b610fc1565b9050919050565b5f819050919050565b61100683610fd3565b61101a61101282610ff4565b848454610f70565b825550505050565b5f90565b61102e611022565b611039818484610ffd565b505050565b5b8181101561105c576110515f82611026565b60018101905061103f565b5050565b601f8211156110a15761107281610f43565b61107b84610f55565b8101602085101561108a578190505b61109e61109685610f55565b83018261103e565b50505b505050565b5f82821c905092915050565b5f6110c15f19846008026110a6565b1980831691505092915050565b5f6110d983836110b2565b9150826002028217905092915050565b6110f282610950565b67ffffffffffffffff81111561110b5761110a610b3c565b5b6111158254610f13565b611120828285611060565b5f60209050601f831160018114611151575f841561113f578287015190505b61114985826110ce565b8655506111b0565b601f19841661115f86610f43565b5f5b8281101561118657848901518255600182019150602085019450602081019050611161565b868310156111a3578489015161119f601f8916826110b2565b8355505b6001600288020188555050505b505050505050565b7f6f6b0000000000000000000000000000000000000000000000000000000000005f82015250565b5f6111ec600283610dbc565b91506111f7826111b8565b602082019050919050565b61120b81610cd6565b82525050565b5f81549050919050565b5f82825260208201905092915050565b5f819050815f5260205f209050919050565b5f815461124981610f13565b611253818661095a565b9450600182165f811461126d5760018114611283576112b5565b60ff1983168652811515602002860193506112b5565b61128c85610f43565b5f5b838110156112ad5781548189015260018201915060208101905061128e565b808801955050505b50505092915050565b5f6112c9838361123d565b905092915050565b5f600182019050919050565b5f6112e782611211565b6112f1818561121b565b9350836020820285016113038561122b565b805f5b8581101561133d5784840389528161131e85826112be565b9450611329836112d1565b925060208a01995050600181019050611306565b50829750879550505050505092915050565b5f611359826109da565b611363818561121b565b935083602082028501611375856109f4565b805f5b858110156113b057848403895281516113918582610a03565b945061139c83610a16565b925060208a01995050600181019050611378565b50829750879550505050505092915050565b5f6080820190508181035f8301526113d9816111e0565b90506113e86020830186611202565b81810360408301526113fa81856112dd565b9050818103606083015261140e818461134f565b905094935050505056fea2646970667358221220e6df786a0cf92644167cfa6cb0ac6f1f400868e0ed7fe84aef303e4b8275758e64736f6c63430008140033","linkReferences":{}},"methodIdentifiers":{"register()":"1aa3a008","resolve(string,string)":"98d7a7c6"},"id":250}