{"abi":[{"type":"function","name":"conflictExists","inputs":[{"name":"conflictId","type":"bytes32","internalType":"bytes32"}],"outputs":[{"name":"","type":"bool","internalType":"bool"}],"stateMutability":"view"},{"type":"function","name":"createPair","inputs":[{"name":"pairId","type":"bytes32","internalType":"bytes32"},{"name":"name","type":"string","internalType":"string"},{"name":"endpointA","type":"bytes32","internalType":"bytes32"},{"name":"endpointB","type":"bytes32","internalType":"bytes32"},{"name":"direction","type":"string","internalType":"string"}],"outputs":[],"stateMutability":"nonpayable"},{"type":"function","name":"getPair","inputs":[{"name":"pairId","type":"bytes32","internalType":"bytes32"}],"outputs":[{"name":"","type":"tuple","internalType":"struct SyncPair.Pair","components":[{"name":"name","type":"string","internalType":"string"},{"name":"endpointA","type":"bytes32","internalType":"bytes32"},{"name":"endpointB","type":"bytes32","internalType":"bytes32"},{"name":"direction","type":"string","internalType":"string"},{"name":"status","type":"string","internalType":"string"},{"name":"exists","type":"bool","internalType":"bool"}]}],"stateMutability":"view"},{"type":"function","name":"link","inputs":[{"name":"pairId","type":"bytes32","internalType":"bytes32"},{"name":"idA","type":"bytes32","internalType":"bytes32"},{"name":"idB","type":"bytes32","internalType":"bytes32"}],"outputs":[],"stateMutability":"nonpayable"},{"type":"function","name":"pairExists","inputs":[{"name":"pairId","type":"bytes32","internalType":"bytes32"}],"outputs":[{"name":"","type":"bool","internalType":"bool"}],"stateMutability":"view"},{"type":"function","name":"resolve","inputs":[{"name":"conflictId","type":"bytes32","internalType":"bytes32"},{"name":"resolution","type":"string","internalType":"string"}],"outputs":[],"stateMutability":"nonpayable"},{"type":"function","name":"sync","inputs":[{"name":"pairId","type":"bytes32","internalType":"bytes32"}],"outputs":[],"stateMutability":"nonpayable"},{"type":"function","name":"unlink","inputs":[{"name":"pairId","type":"bytes32","internalType":"bytes32"},{"name":"idA","type":"bytes32","internalType":"bytes32"}],"outputs":[],"stateMutability":"nonpayable"},{"type":"event","name":"ConflictResolved","inputs":[{"name":"conflictId","type":"bytes32","indexed":true,"internalType":"bytes32"},{"name":"resolution","type":"string","indexed":false,"internalType":"string"}],"anonymous":false},{"type":"event","name":"PairCreated","inputs":[{"name":"pairId","type":"bytes32","indexed":true,"internalType":"bytes32"},{"name":"name","type":"string","indexed":false,"internalType":"string"}],"anonymous":false},{"type":"event","name":"RecordsLinked","inputs":[{"name":"pairId","type":"bytes32","indexed":true,"internalType":"bytes32"},{"name":"idA","type":"bytes32","indexed":false,"internalType":"bytes32"},{"name":"idB","type":"bytes32","indexed":false,"internalType":"bytes32"}],"anonymous":false},{"type":"event","name":"RecordsUnlinked","inputs":[{"name":"pairId","type":"bytes32","indexed":true,"internalType":"bytes32"},{"name":"idA","type":"bytes32","indexed":false,"internalType":"bytes32"}],"anonymous":false},{"type":"event","name":"SyncCompleted","inputs":[{"name":"pairId","type":"bytes32","indexed":true,"internalType":"bytes32"}],"anonymous":false}],"bytecode":{"object":"0x608060405234801561000f575f80fd5b506116be8061001d5f395ff3fe608060405234801561000f575f80fd5b5060043610610086575f3560e01c8063b8e5303d11610059578063b8e5303d1461010e578063b92b0ea51461013e578063ce970b3d1461015a578063d6f917721461017657610086565b8063444496c81461008a5780637d256bd8146100a65780638201cf72146100c2578063ae4b2551146100f2575b5f80fd5b6100a4600480360381019061009f9190610be0565b6101a6565b005b6100c060048036038101906100bb9190610c97565b610443565b005b6100dc60048036038101906100d79190610cd5565b6104de565b6040516100e99190610d1a565b60405180910390f35b61010c60048036038101906101079190610cd5565b610506565b005b61012860048036038101906101239190610cd5565b6105eb565b6040516101359190610e6f565b60405180910390f35b61015860048036038101906101539190610e8f565b610851565b005b610174600480360381019061016f9190610edf565b61098e565b005b610190600480360381019061018b9190610cd5565b610adf565b60405161019d9190610d1a565b60405180910390f35b5f801b87036101ea576040517f08c379a00000000000000000000000000000000000000000000000000000000081526004016101e190610f96565b60405180910390fd5b5f808881526020019081526020015f206005015f9054906101000a900460ff161561024a576040517f08c379a000000000000000000000000000000000000000000000000000000000815260040161024190610ffe565b60405180910390fd5b5f868690501161028f576040517f08c379a000000000000000000000000000000000000000000000000000000000815260040161028690611066565b60405180910390fd5b6040518060c0016040528087878080601f0160208091040260200160405190810160405280939291908181526020018383808284375f81840152601f19601f82011690508083019250505050505050815260200185815260200184815260200183838080601f0160208091040260200160405190810160405280939291908181526020018383808284375f81840152601f19601f8201169050808301925050505050505081526020016040518060400160405280600681526020017f61637469766500000000000000000000000000000000000000000000000000008152508152602001600115158152505f808981526020019081526020015f205f820151815f01908161039d91906112b4565b50602082015181600101556040820151816002015560608201518160030190816103c791906112b4565b5060808201518160040190816103dd91906112b4565b5060a0820151816005015f6101000a81548160ff021916908315150217905550905050867f3a4ec87a102d512d9209538dc71c75a2557d1d808e8678d574b7a24596ca3ee387876040516104329291906113bd565b60405180910390a250505050505050565b5f808381526020019081526020015f206005015f9054906101000a900460ff166104a2576040517f08c379a000000000000000000000000000000000000000000000000000000000815260040161049990611429565b60405180910390fd5b817fed138e2078798ea4cb85f1c8975098adb38878b6e13c778045029bdc86d70e24826040516104d29190611456565b60405180910390a25050565b5f805f8381526020019081526020015f206005015f9054906101000a900460ff169050919050565b5f808281526020019081526020015f206005015f9054906101000a900460ff16610565576040517f08c379a000000000000000000000000000000000000000000000000000000000815260040161055c90611429565b60405180910390fd5b6040518060400160405280600681526020017f73796e63656400000000000000000000000000000000000000000000000000008152505f808381526020019081526020015f2060040190816105ba91906112b4565b50807f2e9b3b13a20ca289cc61b2f44d76d29450bc034038c046b90d33e93c65836c6160405160405180910390a250565b6105f3610b09565b5f808381526020019081526020015f206005015f9054906101000a900460ff16610652576040517f08c379a000000000000000000000000000000000000000000000000000000000815260040161064990611429565b60405180910390fd5b5f808381526020019081526020015f206040518060c00160405290815f8201805461067c906110de565b80601f01602080910402602001604051908101604052809291908181526020018280546106a8906110de565b80156106f35780601f106106ca576101008083540402835291602001916106f3565b820191905f5260205f20905b8154815290600101906020018083116106d657829003601f168201915b505050505081526020016001820154815260200160028201548152602001600382018054610720906110de565b80601f016020809104026020016040519081016040528092919081815260200182805461074c906110de565b80156107975780601f1061076e57610100808354040283529160200191610797565b820191905f5260205f20905b81548152906001019060200180831161077a57829003601f168201915b505050505081526020016004820180546107b0906110de565b80601f01602080910402602001604051908101604052809291908181526020018280546107dc906110de565b80156108275780601f106107fe57610100808354040283529160200191610827565b820191905f5260205f20905b81548152906001019060200180831161080a57829003601f168201915b50505050508152602001600582015f9054906101000a900460ff1615151515815250509050919050565b5f808481526020019081526020015f206005015f9054906101000a900460ff166108b0576040517f08c379a00000000000000000000000000000000000000000000000000000000081526004016108a790611429565b60405180910390fd5b5f82826040516020016108c492919061148f565b60405160208183030381529060405280519060200120905060405180606001604052808481526020018381526020016001151581525060015f8681526020019081526020015f205f8381526020019081526020015f205f820151815f0155602082015181600101556040820151816002015f6101000a81548160ff021916908315150217905550905050837f7a3d0e89308ec6a719cc9d227e90238eb9cfa54ce538f431517e7a23c3e8d18084846040516109809291906114ba565b60405180910390a250505050565b60025f8481526020019081526020015f2060040160019054906101000a900460ff166109ef576040517f08c379a00000000000000000000000000000000000000000000000000000000081526004016109e69061152b565b60405180910390fd5b60025f8481526020019081526020015f206004015f9054906101000a900460ff1615610a50576040517f08c379a0000000000000000000000000000000000000000000000000000000008152600401610a4790611593565b60405180910390fd5b818160025f8681526020019081526020015f206003019182610a739291906115bb565b50600160025f8581526020019081526020015f206004015f6101000a81548160ff021916908315150217905550827fdf3f7fe77fb64ae0339ac7f851650fa3ddf9f93e4c7a1bb75fcc5b06ead6dbe88383604051610ad29291906113bd565b60405180910390a2505050565b5f60025f8381526020019081526020015f2060040160019054906101000a900460ff169050919050565b6040518060c00160405280606081526020015f80191681526020015f801916815260200160608152602001606081526020015f151581525090565b5f80fd5b5f80fd5b5f819050919050565b610b5e81610b4c565b8114610b68575f80fd5b50565b5f81359050610b7981610b55565b92915050565b5f80fd5b5f80fd5b5f80fd5b5f8083601f840112610ba057610b9f610b7f565b5b8235905067ffffffffffffffff811115610bbd57610bbc610b83565b5b602083019150836001820283011115610bd957610bd8610b87565b5b9250929050565b5f805f805f805f60a0888a031215610bfb57610bfa610b44565b5b5f610c088a828b01610b6b565b975050602088013567ffffffffffffffff811115610c2957610c28610b48565b5b610c358a828b01610b8b565b96509650506040610c488a828b01610b6b565b9450506060610c598a828b01610b6b565b935050608088013567ffffffffffffffff811115610c7a57610c79610b48565b5b610c868a828b01610b8b565b925092505092959891949750929550565b5f8060408385031215610cad57610cac610b44565b5b5f610cba85828601610b6b565b9250506020610ccb85828601610b6b565b9150509250929050565b5f60208284031215610cea57610ce9610b44565b5b5f610cf784828501610b6b565b91505092915050565b5f8115159050919050565b610d1481610d00565b82525050565b5f602082019050610d2d5f830184610d0b565b92915050565b5f81519050919050565b5f82825260208201905092915050565b5f5b83811015610d6a578082015181840152602081019050610d4f565b5f8484015250505050565b5f601f19601f8301169050919050565b5f610d8f82610d33565b610d998185610d3d565b9350610da9818560208601610d4d565b610db281610d75565b840191505092915050565b610dc681610b4c565b82525050565b610dd581610d00565b82525050565b5f60c083015f8301518482035f860152610df58282610d85565b9150506020830151610e0a6020860182610dbd565b506040830151610e1d6040860182610dbd565b5060608301518482036060860152610e358282610d85565b91505060808301518482036080860152610e4f8282610d85565b91505060a0830151610e6460a0860182610dcc565b508091505092915050565b5f6020820190508181035f830152610e878184610ddb565b905092915050565b5f805f60608486031215610ea657610ea5610b44565b5b5f610eb386828701610b6b565b9350506020610ec486828701610b6b565b9250506040610ed586828701610b6b565b9150509250925092565b5f805f60408486031215610ef657610ef5610b44565b5b5f610f0386828701610b6b565b935050602084013567ffffffffffffffff811115610f2457610f23610b48565b5b610f3086828701610b8b565b92509250509250925092565b5f82825260208201905092915050565b7f506169722049442063616e6e6f74206265207a65726f000000000000000000005f82015250565b5f610f80601683610f3c565b9150610f8b82610f4c565b602082019050919050565b5f6020820190508181035f830152610fad81610f74565b9050919050565b7f5061697220616c726561647920657869737473000000000000000000000000005f82015250565b5f610fe8601383610f3c565b9150610ff382610fb4565b602082019050919050565b5f6020820190508181035f83015261101581610fdc565b9050919050565b7f4e616d652063616e6e6f7420626520656d7074790000000000000000000000005f82015250565b5f611050601483610f3c565b915061105b8261101c565b602082019050919050565b5f6020820190508181035f83015261107d81611044565b9050919050565b7f4e487b71000000000000000000000000000000000000000000000000000000005f52604160045260245ffd5b7f4e487b71000000000000000000000000000000000000000000000000000000005f52602260045260245ffd5b5f60028204905060018216806110f557607f821691505b602082108103611108576111076110b1565b5b50919050565b5f819050815f5260205f209050919050565b5f6020601f8301049050919050565b5f82821b905092915050565b5f6008830261116a7fffffffffffffffffffffffffffffffffffffffffffffffffffffffffffffffff8261112f565b611174868361112f565b95508019841693508086168417925050509392505050565b5f819050919050565b5f819050919050565b5f6111b86111b36111ae8461118c565b611195565b61118c565b9050919050565b5f819050919050565b6111d18361119e565b6111e56111dd826111bf565b84845461113b565b825550505050565b5f90565b6111f96111ed565b6112048184846111c8565b505050565b5b818110156112275761121c5f826111f1565b60018101905061120a565b5050565b601f82111561126c5761123d8161110e565b61124684611120565b81016020851015611255578190505b61126961126185611120565b830182611209565b50505b505050565b5f82821c905092915050565b5f61128c5f1984600802611271565b1980831691505092915050565b5f6112a4838361127d565b9150826002028217905092915050565b6112bd82610d33565b67ffffffffffffffff8111156112d6576112d5611084565b5b6112e082546110de565b6112eb82828561122b565b5f60209050601f83116001811461131c575f841561130a578287015190505b6113148582611299565b86555061137b565b601f19841661132a8661110e565b5f5b828110156113515784890151825560018201915060208501945060208101905061132c565b8683101561136e578489015161136a601f89168261127d565b8355505b6001600288020188555050505b505050505050565b828183375f83830152505050565b5f61139c8385610f3c565b93506113a9838584611383565b6113b283610d75565b840190509392505050565b5f6020820190508181035f8301526113d6818486611391565b90509392505050565b7f50616972206e6f7420666f756e640000000000000000000000000000000000005f82015250565b5f611413600e83610f3c565b915061141e826113df565b602082019050919050565b5f6020820190508181035f83015261144081611407565b9050919050565b61145081610b4c565b82525050565b5f6020820190506114695f830184611447565b92915050565b5f819050919050565b61148961148482610b4c565b61146f565b82525050565b5f61149a8285611478565b6020820191506114aa8284611478565b6020820191508190509392505050565b5f6040820190506114cd5f830185611447565b6114da6020830184611447565b9392505050565b7f436f6e666c696374206e6f7420666f756e6400000000000000000000000000005f82015250565b5f611515601283610f3c565b9150611520826114e1565b602082019050919050565b5f6020820190508181035f83015261154281611509565b9050919050565b7f436f6e666c69637420616c7265616479207265736f6c766564000000000000005f82015250565b5f61157d601983610f3c565b915061158882611549565b602082019050919050565b5f6020820190508181035f8301526115aa81611571565b9050919050565b5f82905092915050565b6115c583836115b1565b67ffffffffffffffff8111156115de576115dd611084565b5b6115e882546110de565b6115f382828561122b565b5f601f831160018114611620575f841561160e578287013590505b6116188582611299565b86555061167f565b601f19841661162e8661110e565b5f5b8281101561165557848901358255600182019150602085019450602081019050611630565b86831015611672578489013561166e601f89168261127d565b8355505b6001600288020188555050505b5050505050505056fea26469706673582212204eec3778512e4cff48bc00b19613c263a76aff296309c3c90746d33edb77da3a64736f6c63430008140033","linkReferences":{}},"methodIdentifiers":{"conflictExists(bytes32)":"d6f91772","createPair(bytes32,string,bytes32,bytes32,string)":"444496c8","getPair(bytes32)":"b8e5303d","link(bytes32,bytes32,bytes32)":"b92b0ea5","pairExists(bytes32)":"8201cf72","resolve(bytes32,string)":"ce970b3d","sync(bytes32)":"ae4b2551","unlink(bytes32,bytes32)":"7d256bd8"},"id":272}