{"abi":[{"type":"function","name":"findByWidget","inputs":[{"name":"widget","type":"string","internalType":"string"}],"outputs":[{"name":"","type":"tuple","internalType":"struct WidgetPropEntity.FindByWidgetOkResult","components":[{"name":"success","type":"bool","internalType":"bool"},{"name":"props","type":"string","internalType":"string"}]}],"stateMutability":"nonpayable"},{"type":"function","name":"get","inputs":[{"name":"prop","type":"bytes32","internalType":"bytes32"}],"outputs":[{"name":"","type":"tuple","internalType":"struct WidgetPropEntity.GetOkResult","components":[{"name":"success","type":"bool","internalType":"bool"},{"name":"prop","type":"bytes32","internalType":"bytes32"},{"name":"widget","type":"string","internalType":"string"},{"name":"name","type":"string","internalType":"string"},{"name":"typeExpr","type":"string","internalType":"string"},{"name":"defaultValue","type":"string","internalType":"string"}]}],"stateMutability":"nonpayable"},{"type":"function","name":"register","inputs":[{"name":"widget","type":"string","internalType":"string"},{"name":"name","type":"string","internalType":"string"},{"name":"typeExpr","type":"string","internalType":"string"},{"name":"defaultValue","type":"string","internalType":"string"}],"outputs":[{"name":"","type":"tuple","internalType":"struct WidgetPropEntity.RegisterOkResult","components":[{"name":"success","type":"bool","internalType":"bool"},{"name":"prop","type":"bytes32","internalType":"bytes32"}]}],"stateMutability":"nonpayable"},{"type":"function","name":"traceToField","inputs":[{"name":"prop","type":"bytes32","internalType":"bytes32"}],"outputs":[{"name":"","type":"tuple","internalType":"struct WidgetPropEntity.TraceToFieldOkResult","components":[{"name":"success","type":"bool","internalType":"bool"},{"name":"field","type":"string","internalType":"string"},{"name":"concept","type":"string","internalType":"string"},{"name":"viaBinding","type":"string","internalType":"string"}]}],"stateMutability":"nonpayable"},{"type":"event","name":"FindByWidgetCompleted","inputs":[{"name":"variant","type":"string","indexed":false,"internalType":"string"}],"anonymous":false},{"type":"event","name":"GetCompleted","inputs":[{"name":"variant","type":"string","indexed":false,"internalType":"string"},{"name":"prop","type":"bytes32","indexed":false,"internalType":"bytes32"}],"anonymous":false},{"type":"event","name":"RegisterCompleted","inputs":[{"name":"variant","type":"string","indexed":false,"internalType":"string"},{"name":"prop","type":"bytes32","indexed":false,"internalType":"bytes32"}],"anonymous":false},{"type":"event","name":"TraceToFieldCompleted","inputs":[{"name":"variant","type":"string","indexed":false,"internalType":"string"}],"anonymous":false}],"bytecode":{"object":"0x608060405234801561000f575f80fd5b5061177c8061001d5f395ff3fe608060405234801561000f575f80fd5b506004361061004a575f3560e01c80630e24c52c1461004e578063327103d91461007e578063341787f5146100ae5780638eaa6ac0146100de575b5f80fd5b61006860048036038101906100639190610bfa565b61010e565b6040516100759190610d2d565b60405180910390f35b61009860048036038101906100939190610d46565b6103ba565b6040516100a59190610e41565b60405180910390f35b6100c860048036038101906100c39190610e8b565b610507565b6040516100d59190610f24565b60405180910390f35b6100f860048036038101906100f39190610e8b565b610703565b6040516101059190610fdf565b60405180910390f35b610116610a13565b5f855111610159576040517f08c379a000000000000000000000000000000000000000000000000000000000815260040161015090611059565b60405180910390fd5b5f84511161019c576040517f08c379a0000000000000000000000000000000000000000000000000000000008152600401610193906110c1565b60405180910390fd5b5f85856040516020016101b0929190611119565b6040516020818303038152906040528051906020012090505f808281526020019081526020015f206004015f9054906101000a900460ff1615610228576040517f08c379a000000000000000000000000000000000000000000000000000000000815260040161021f90611186565b60405180910390fd5b6040518060a00160405280878152602001868152602001858152602001848152602001600115158152505f808381526020019081526020015f205f820151815f01908161027591906113a7565b50602082015181600101908161028b91906113a7565b5060408201518160020190816102a191906113a7565b5060608201518160030190816102b791906113a7565b506080820151816004015f6101000a81548160ff021916908315150217905550905050600181908060018154018082558091505060019003905f5260205f20015f90919091909150555f866040516020016103129190611476565b60405160208183030381529060405280519060200120905060025f8281526020019081526020015f2082908060018154018082558091505060019003905f5260205f20015f90919091909150557f0402c886f5c1bb50afb826d1767a153123631152c678fbec8089e9e8ee3e49bf8260405161038e91906114e5565b60405180910390a160405180604001604052806001151581526020018381525092505050949350505050565b6103c2610a30565b5f826040516020016103d49190611476565b6040516020818303038152906040528051906020012090505f60025f8381526020019081526020015f2090505f60405180602001604052805f81525090505f5b82805490508110156104af575f81111561044b5781604051602001610439919061155b565b60405160208183030381529060405291505b815f808584815481106104615761046061157c565b5b905f5260205f20015481526020019081526020015f2060010160405160200161048b929190611629565b604051602081830303815290604052915080806104a790611679565b915050610414565b507ff9fe4c06ae47abc538773e695e3ab4e248be3271daf243f1856feb8ff0c592fc6040516104dd906116c0565b60405180910390a16040518060400160405280600115158152602001828152509350505050919050565b61050f610a4b565b5f808381526020019081526020015f206004015f9054906101000a900460ff1661056e576040517f08c379a000000000000000000000000000000000000000000000000000000000815260040161056590611728565b60405180910390fd5b5f805f8481526020019081526020015f2090507fdd7d0d06c8f76c688ec686ae4bd5047d68262e8d4a9267d2e518d0b78c7eaebb6040516105ae906116c0565b60405180910390a160405180608001604052806001151581526020018260010180546105d9906111d1565b80601f0160208091040260200160405190810160405280929190818152602001828054610605906111d1565b80156106505780601f1061062757610100808354040283529160200191610650565b820191905f5260205f20905b81548152906001019060200180831161063357829003601f168201915b5050505050815260200160405180602001604052805f8152508152602001825f01805461067c906111d1565b80601f01602080910402602001604051908101604052809291908181526020018280546106a8906111d1565b80156106f35780601f106106ca576101008083540402835291602001916106f3565b820191905f5260205f20905b8154815290600101906020018083116106d657829003601f168201915b5050505050815250915050919050565b61070b610a74565b5f808381526020019081526020015f206004015f9054906101000a900460ff1661076a576040517f08c379a000000000000000000000000000000000000000000000000000000000815260040161076190611728565b60405180910390fd5b5f805f8481526020019081526020015f2090507fd45fe45dbfb310b00d5db432aa35f96282e16a8bb204b349e334de2cd5566f34836040516107ac91906114e5565b60405180910390a16040518060c00160405280600115158152602001848152602001825f0180546107dc906111d1565b80601f0160208091040260200160405190810160405280929190818152602001828054610808906111d1565b80156108535780601f1061082a57610100808354040283529160200191610853565b820191905f5260205f20905b81548152906001019060200180831161083657829003601f168201915b5050505050815260200182600101805461086c906111d1565b80601f0160208091040260200160405190810160405280929190818152602001828054610898906111d1565b80156108e35780601f106108ba576101008083540402835291602001916108e3565b820191905f5260205f20905b8154815290600101906020018083116108c657829003601f168201915b505050505081526020018260020180546108fc906111d1565b80601f0160208091040260200160405190810160405280929190818152602001828054610928906111d1565b80156109735780601f1061094a57610100808354040283529160200191610973565b820191905f5260205f20905b81548152906001019060200180831161095657829003601f168201915b5050505050815260200182600301805461098c906111d1565b80601f01602080910402602001604051908101604052809291908181526020018280546109b8906111d1565b8015610a035780601f106109da57610100808354040283529160200191610a03565b820191905f5260205f20905b8154815290600101906020018083116109e657829003601f168201915b5050505050815250915050919050565b60405180604001604052805f151581526020015f80191681525090565b60405180604001604052805f15158152602001606081525090565b60405180608001604052805f151581526020016060815260200160608152602001606081525090565b6040518060c001604052805f151581526020015f8019168152602001606081526020016060815260200160608152602001606081525090565b5f604051905090565b5f80fd5b5f80fd5b5f80fd5b5f80fd5b5f601f19601f8301169050919050565b7f4e487b71000000000000000000000000000000000000000000000000000000005f52604160045260245ffd5b610b0c82610ac6565b810181811067ffffffffffffffff82111715610b2b57610b2a610ad6565b5b80604052505050565b5f610b3d610aad565b9050610b498282610b03565b919050565b5f67ffffffffffffffff821115610b6857610b67610ad6565b5b610b7182610ac6565b9050602081019050919050565b828183375f83830152505050565b5f610b9e610b9984610b4e565b610b34565b905082815260208101848484011115610bba57610bb9610ac2565b5b610bc5848285610b7e565b509392505050565b5f82601f830112610be157610be0610abe565b5b8135610bf1848260208601610b8c565b91505092915050565b5f805f8060808587031215610c1257610c11610ab6565b5b5f85013567ffffffffffffffff811115610c2f57610c2e610aba565b5b610c3b87828801610bcd565b945050602085013567ffffffffffffffff811115610c5c57610c5b610aba565b5b610c6887828801610bcd565b935050604085013567ffffffffffffffff811115610c8957610c88610aba565b5b610c9587828801610bcd565b925050606085013567ffffffffffffffff811115610cb657610cb5610aba565b5b610cc287828801610bcd565b91505092959194509250565b5f8115159050919050565b610ce281610cce565b82525050565b5f819050919050565b610cfa81610ce8565b82525050565b604082015f820151610d145f850182610cd9565b506020820151610d276020850182610cf1565b50505050565b5f604082019050610d405f830184610d00565b92915050565b5f60208284031215610d5b57610d5a610ab6565b5b5f82013567ffffffffffffffff811115610d7857610d77610aba565b5b610d8484828501610bcd565b91505092915050565b5f81519050919050565b5f82825260208201905092915050565b5f5b83811015610dc4578082015181840152602081019050610da9565b5f8484015250505050565b5f610dd982610d8d565b610de38185610d97565b9350610df3818560208601610da7565b610dfc81610ac6565b840191505092915050565b5f604083015f830151610e1c5f860182610cd9565b5060208301518482036020860152610e348282610dcf565b9150508091505092915050565b5f6020820190508181035f830152610e598184610e07565b905092915050565b610e6a81610ce8565b8114610e74575f80fd5b50565b5f81359050610e8581610e61565b92915050565b5f60208284031215610ea057610e9f610ab6565b5b5f610ead84828501610e77565b91505092915050565b5f608083015f830151610ecb5f860182610cd9565b5060208301518482036020860152610ee38282610dcf565b91505060408301518482036040860152610efd8282610dcf565b91505060608301518482036060860152610f178282610dcf565b9150508091505092915050565b5f6020820190508181035f830152610f3c8184610eb6565b905092915050565b5f60c083015f830151610f595f860182610cd9565b506020830151610f6c6020860182610cf1565b5060408301518482036040860152610f848282610dcf565b91505060608301518482036060860152610f9e8282610dcf565b91505060808301518482036080860152610fb88282610dcf565b91505060a083015184820360a0860152610fd28282610dcf565b9150508091505092915050565b5f6020820190508181035f830152610ff78184610f44565b905092915050565b5f82825260208201905092915050565b7f576964676574206d757374206e6f7420626520656d70747900000000000000005f82015250565b5f611043601883610fff565b915061104e8261100f565b602082019050919050565b5f6020820190508181035f83015261107081611037565b9050919050565b7f4e616d65206d757374206e6f7420626520656d707479000000000000000000005f82015250565b5f6110ab601683610fff565b91506110b682611077565b602082019050919050565b5f6020820190508181035f8301526110d88161109f565b9050919050565b5f81905092915050565b5f6110f382610d8d565b6110fd81856110df565b935061110d818560208601610da7565b80840191505092915050565b5f61112482856110e9565b915061113082846110e9565b91508190509392505050565b7f50726f7020616c726561647920726567697374657265640000000000000000005f82015250565b5f611170601783610fff565b915061117b8261113c565b602082019050919050565b5f6020820190508181035f83015261119d81611164565b9050919050565b7f4e487b71000000000000000000000000000000000000000000000000000000005f52602260045260245ffd5b5f60028204905060018216806111e857607f821691505b6020821081036111fb576111fa6111a4565b5b50919050565b5f819050815f5260205f209050919050565b5f6020601f8301049050919050565b5f82821b905092915050565b5f6008830261125d7fffffffffffffffffffffffffffffffffffffffffffffffffffffffffffffffff82611222565b6112678683611222565b95508019841693508086168417925050509392505050565b5f819050919050565b5f819050919050565b5f6112ab6112a66112a18461127f565b611288565b61127f565b9050919050565b5f819050919050565b6112c483611291565b6112d86112d0826112b2565b84845461122e565b825550505050565b5f90565b6112ec6112e0565b6112f78184846112bb565b505050565b5b8181101561131a5761130f5f826112e4565b6001810190506112fd565b5050565b601f82111561135f5761133081611201565b61133984611213565b81016020851015611348578190505b61135c61135485611213565b8301826112fc565b50505b505050565b5f82821c905092915050565b5f61137f5f1984600802611364565b1980831691505092915050565b5f6113978383611370565b9150826002028217905092915050565b6113b082610d8d565b67ffffffffffffffff8111156113c9576113c8610ad6565b5b6113d382546111d1565b6113de82828561131e565b5f60209050601f83116001811461140f575f84156113fd578287015190505b611407858261138c565b86555061146e565b601f19841661141d86611201565b5f5b828110156114445784890151825560018201915060208501945060208101905061141f565b86831015611461578489015161145d601f891682611370565b8355505b6001600288020188555050505b505050505050565b5f61148182846110e9565b915081905092915050565b7f6f6b0000000000000000000000000000000000000000000000000000000000005f82015250565b5f6114c0600283610fff565b91506114cb8261148c565b602082019050919050565b6114df81610ce8565b82525050565b5f6040820190508181035f8301526114fc816114b4565b905061150b60208301846114d6565b92915050565b7f2c000000000000000000000000000000000000000000000000000000000000005f82015250565b5f6115456001836110df565b915061155082611511565b600182019050919050565b5f61156682846110e9565b915061157182611539565b915081905092915050565b7f4e487b71000000000000000000000000000000000000000000000000000000005f52603260045260245ffd5b5f81546115b5816111d1565b6115bf81866110df565b9450600182165f81146115d957600181146115ee57611620565b60ff1983168652811515820286019350611620565b6115f785611201565b5f5b83811015611618578154818901526001820191506020810190506115f9565b838801955050505b50505092915050565b5f61163482856110e9565b915061164082846115a9565b91508190509392505050565b7f4e487b71000000000000000000000000000000000000000000000000000000005f52601160045260245ffd5b5f6116838261127f565b91507fffffffffffffffffffffffffffffffffffffffffffffffffffffffffffffffff82036116b5576116b461164c565b5b600182019050919050565b5f6020820190508181035f8301526116d7816114b4565b9050919050565b7f50726f70206e6f7420666f756e640000000000000000000000000000000000005f82015250565b5f611712600e83610fff565b915061171d826116de565b602082019050919050565b5f6020820190508181035f83015261173f81611706565b905091905056fea2646970667358221220d098336309d4da74b693785b371f7b60b3960f4299ece2b3f38a1c8d1754316a64736f6c63430008140033","linkReferences":{}},"methodIdentifiers":{"findByWidget(string)":"327103d9","get(bytes32)":"8eaa6ac0","register(string,string,string,string)":"0e24c52c","traceToField(bytes32)":"341787f5"},"id":341}