{"abi":[{"type":"function","name":"createReference","inputs":[{"name":"refId","type":"bytes32","internalType":"bytes32"},{"name":"sourceId","type":"bytes32","internalType":"bytes32"},{"name":"targetLocation","type":"string","internalType":"string"}],"outputs":[],"stateMutability":"nonpayable"},{"type":"function","name":"deleteReference","inputs":[{"name":"refId","type":"bytes32","internalType":"bytes32"}],"outputs":[],"stateMutability":"nonpayable"},{"type":"function","name":"editOriginal","inputs":[{"name":"refId","type":"bytes32","internalType":"bytes32"},{"name":"newContent","type":"string","internalType":"string"}],"outputs":[],"stateMutability":"nonpayable"},{"type":"function","name":"getReference","inputs":[{"name":"refId","type":"bytes32","internalType":"bytes32"}],"outputs":[{"name":"","type":"tuple","internalType":"struct SyncedContent.SyncRef","components":[{"name":"originalId","type":"bytes32","internalType":"bytes32"},{"name":"targetLocation","type":"string","internalType":"string"},{"name":"exists","type":"bool","internalType":"bool"}]}],"stateMutability":"view"},{"type":"event","name":"ConvertedToIndependent","inputs":[{"name":"refId","type":"bytes32","indexed":true,"internalType":"bytes32"},{"name":"newNodeId","type":"bytes32","indexed":false,"internalType":"bytes32"}],"anonymous":false},{"type":"event","name":"OriginalEdited","inputs":[{"name":"refId","type":"bytes32","indexed":true,"internalType":"bytes32"}],"anonymous":false},{"type":"event","name":"ReferenceCreated","inputs":[{"name":"refId","type":"bytes32","indexed":true,"internalType":"bytes32"},{"name":"originalId","type":"bytes32","indexed":true,"internalType":"bytes32"}],"anonymous":false},{"type":"event","name":"ReferenceDeleted","inputs":[{"name":"refId","type":"bytes32","indexed":true,"internalType":"bytes32"}],"anonymous":false}],"bytecode":{"object":"0x608060405234801561000f575f80fd5b50610d468061001d5f395ff3fe608060405234801561000f575f80fd5b506004361061004a575f3560e01c8063427f96141461004e578063b3ad49c01461007e578063c333482f1461009a578063c405dea9146100b6575b5f80fd5b61006860048036038101906100639190610578565b6100d2565b60405161007591906106a3565b60405180910390f35b61009860048036038101906100939190610578565b61020e565b005b6100b460048036038101906100af9190610724565b6102c7565b005b6100d060048036038101906100cb9190610795565b610450565b005b6100da610519565b5f808381526020019081526020015f206002015f9054906101000a900460ff16610139576040517f08c379a00000000000000000000000000000000000000000000000000000000081526004016101309061084c565b60405180910390fd5b5f808381526020019081526020015f206040518060600160405290815f820154815260200160018201805461016d90610897565b80601f016020809104026020016040519081016040528092919081815260200182805461019990610897565b80156101e45780601f106101bb576101008083540402835291602001916101e4565b820191905f5260205f20905b8154815290600101906020018083116101c757829003601f168201915b50505050508152602001600282015f9054906101000a900460ff1615151515815250509050919050565b5f808281526020019081526020015f206002015f9054906101000a900460ff1661026d576040517f08c379a00000000000000000000000000000000000000000000000000000000081526004016102649061084c565b60405180910390fd5b5f805f8381526020019081526020015f206002015f6101000a81548160ff021916908315150217905550807f5afc0d3025e805b8728cf711598e9da297e919693b68d45da509a129ea951a6060405160405180910390a250565b5f808581526020019081526020015f206002015f9054906101000a900460ff1615610327576040517f08c379a000000000000000000000000000000000000000000000000000000000815260040161031e90610911565b60405180910390fd5b5f801b830361036b576040517f08c379a000000000000000000000000000000000000000000000000000000000815260040161036290610979565b60405180910390fd5b604051806060016040528084815260200183838080601f0160208091040260200160405190810160405280939291908181526020018383808284375f81840152601f19601f820116905080830192505050505050508152602001600115158152505f808681526020019081526020015f205f820151815f015560208201518160010190816103f99190610b6a565b506040820151816002015f6101000a81548160ff02191690831515021790555090505082847f28d94dcc66f93987d90759aed3619f10206f691cd37db86b866f274a15067dc560405160405180910390a350505050565b5f808481526020019081526020015f206002015f9054906101000a900460ff166104af576040517f08c379a00000000000000000000000000000000000000000000000000000000081526004016104a69061084c565b60405180910390fd5b5f805f8581526020019081526020015f205f01549050828260015f8481526020019081526020015f2091826104e5929190610c43565b50837f716adc538a11ccb14597105da8bcc330b8735fa4fe56b67a4650ddf53d44f52160405160405180910390a250505050565b60405180606001604052805f8019168152602001606081526020015f151581525090565b5f80fd5b5f80fd5b5f819050919050565b61055781610545565b8114610561575f80fd5b50565b5f813590506105728161054e565b92915050565b5f6020828403121561058d5761058c61053d565b5b5f61059a84828501610564565b91505092915050565b6105ac81610545565b82525050565b5f81519050919050565b5f82825260208201905092915050565b5f5b838110156105e95780820151818401526020810190506105ce565b5f8484015250505050565b5f601f19601f8301169050919050565b5f61060e826105b2565b61061881856105bc565b93506106288185602086016105cc565b610631816105f4565b840191505092915050565b5f8115159050919050565b6106508161063c565b82525050565b5f606083015f83015161066b5f8601826105a3565b50602083015184820360208601526106838282610604565b91505060408301516106986040860182610647565b508091505092915050565b5f6020820190508181035f8301526106bb8184610656565b905092915050565b5f80fd5b5f80fd5b5f80fd5b5f8083601f8401126106e4576106e36106c3565b5b8235905067ffffffffffffffff811115610701576107006106c7565b5b60208301915083600182028301111561071d5761071c6106cb565b5b9250929050565b5f805f806060858703121561073c5761073b61053d565b5b5f61074987828801610564565b945050602061075a87828801610564565b935050604085013567ffffffffffffffff81111561077b5761077a610541565b5b610787878288016106cf565b925092505092959194509250565b5f805f604084860312156107ac576107ab61053d565b5b5f6107b986828701610564565b935050602084013567ffffffffffffffff8111156107da576107d9610541565b5b6107e6868287016106cf565b92509250509250925092565b5f82825260208201905092915050565b7f5265666572656e636520646f6573206e6f7420657869737400000000000000005f82015250565b5f6108366018836107f2565b915061084182610802565b602082019050919050565b5f6020820190508181035f8301526108638161082a565b9050919050565b7f4e487b71000000000000000000000000000000000000000000000000000000005f52602260045260245ffd5b5f60028204905060018216806108ae57607f821691505b6020821081036108c1576108c061086a565b5b50919050565b7f5265666572656e636520616c72656164792065786973747300000000000000005f82015250565b5f6108fb6018836107f2565b9150610906826108c7565b602082019050919050565b5f6020820190508181035f830152610928816108ef565b9050919050565b7f496e76616c696420736f757263652049440000000000000000000000000000005f82015250565b5f6109636011836107f2565b915061096e8261092f565b602082019050919050565b5f6020820190508181035f83015261099081610957565b9050919050565b7f4e487b71000000000000000000000000000000000000000000000000000000005f52604160045260245ffd5b5f819050815f5260205f209050919050565b5f6020601f8301049050919050565b5f82821b905092915050565b5f60088302610a207fffffffffffffffffffffffffffffffffffffffffffffffffffffffffffffffff826109e5565b610a2a86836109e5565b95508019841693508086168417925050509392505050565b5f819050919050565b5f819050919050565b5f610a6e610a69610a6484610a42565b610a4b565b610a42565b9050919050565b5f819050919050565b610a8783610a54565b610a9b610a9382610a75565b8484546109f1565b825550505050565b5f90565b610aaf610aa3565b610aba818484610a7e565b505050565b5b81811015610add57610ad25f82610aa7565b600181019050610ac0565b5050565b601f821115610b2257610af3816109c4565b610afc846109d6565b81016020851015610b0b578190505b610b1f610b17856109d6565b830182610abf565b50505b505050565b5f82821c905092915050565b5f610b425f1984600802610b27565b1980831691505092915050565b5f610b5a8383610b33565b9150826002028217905092915050565b610b73826105b2565b67ffffffffffffffff811115610b8c57610b8b610997565b5b610b968254610897565b610ba1828285610ae1565b5f60209050601f831160018114610bd2575f8415610bc0578287015190505b610bca8582610b4f565b865550610c31565b601f198416610be0866109c4565b5f5b82811015610c0757848901518255600182019150602085019450602081019050610be2565b86831015610c245784890151610c20601f891682610b33565b8355505b6001600288020188555050505b505050505050565b5f82905092915050565b610c4d8383610c39565b67ffffffffffffffff811115610c6657610c65610997565b5b610c708254610897565b610c7b828285610ae1565b5f601f831160018114610ca8575f8415610c96578287013590505b610ca08582610b4f565b865550610d07565b601f198416610cb6866109c4565b5f5b82811015610cdd57848901358255600182019150602085019450602081019050610cb8565b86831015610cfa5784890135610cf6601f891682610b33565b8355505b6001600288020188555050505b5050505050505056fea2646970667358221220b07646efaaa9c8e33e112f901ac97992bb058a5187b1430644b17f6ea9c3702864736f6c63430008140033","linkReferences":{}},"methodIdentifiers":{"createReference(bytes32,bytes32,string)":"c333482f","deleteReference(bytes32)":"b3ad49c0","editOriginal(bytes32,string)":"c405dea9","getReference(bytes32)":"427f9614"},"id":277}