{"abi":[{"type":"function","name":"findByFile","inputs":[{"name":"file","type":"string","internalType":"string"}],"outputs":[{"name":"","type":"tuple","internalType":"struct Symbol.FindByFileOkResult","components":[{"name":"success","type":"bool","internalType":"bool"},{"name":"symbols","type":"string","internalType":"string"}]}],"stateMutability":"nonpayable"},{"type":"function","name":"findByKind","inputs":[{"name":"kind","type":"string","internalType":"string"},{"name":"namespace","type":"string","internalType":"string"}],"outputs":[{"name":"","type":"tuple","internalType":"struct Symbol.FindByKindOkResult","components":[{"name":"success","type":"bool","internalType":"bool"},{"name":"symbols","type":"string","internalType":"string"}]}],"stateMutability":"nonpayable"},{"type":"function","name":"get","inputs":[{"name":"symbol","type":"bytes32","internalType":"bytes32"}],"outputs":[{"name":"","type":"tuple","internalType":"struct Symbol.GetOkResult","components":[{"name":"success","type":"bool","internalType":"bool"},{"name":"symbol","type":"bytes32","internalType":"bytes32"},{"name":"symbolString","type":"string","internalType":"string"},{"name":"kind","type":"string","internalType":"string"},{"name":"displayName","type":"string","internalType":"string"},{"name":"visibility","type":"string","internalType":"string"},{"name":"definingFile","type":"string","internalType":"string"},{"name":"namespace","type":"string","internalType":"string"}]}],"stateMutability":"nonpayable"},{"type":"function","name":"register","inputs":[{"name":"symbolString","type":"string","internalType":"string"},{"name":"kind","type":"string","internalType":"string"},{"name":"displayName","type":"string","internalType":"string"},{"name":"definingFile","type":"string","internalType":"string"}],"outputs":[{"name":"","type":"tuple","internalType":"struct Symbol.RegisterOkResult","components":[{"name":"success","type":"bool","internalType":"bool"},{"name":"symbol","type":"bytes32","internalType":"bytes32"}]}],"stateMutability":"nonpayable"},{"type":"function","name":"rename","inputs":[{"name":"symbol","type":"bytes32","internalType":"bytes32"},{"name":"newName","type":"string","internalType":"string"}],"outputs":[{"name":"","type":"tuple","internalType":"struct Symbol.RenameOkResult","components":[{"name":"success","type":"bool","internalType":"bool"},{"name":"oldName","type":"string","internalType":"string"},{"name":"occurrencesUpdated","type":"int256","internalType":"int256"}]}],"stateMutability":"nonpayable"},{"type":"function","name":"resolve","inputs":[{"name":"symbolString","type":"string","internalType":"string"}],"outputs":[{"name":"","type":"tuple","internalType":"struct Symbol.ResolveOkResult","components":[{"name":"success","type":"bool","internalType":"bool"},{"name":"symbol","type":"bytes32","internalType":"bytes32"}]}],"stateMutability":"nonpayable"},{"type":"function","name":"symbolCount","inputs":[],"outputs":[{"name":"","type":"uint256","internalType":"uint256"}],"stateMutability":"view"},{"type":"function","name":"symbolExists","inputs":[{"name":"symbol","type":"bytes32","internalType":"bytes32"}],"outputs":[{"name":"","type":"bool","internalType":"bool"}],"stateMutability":"view"},{"type":"event","name":"FindByFileCompleted","inputs":[{"name":"variant","type":"string","indexed":false,"internalType":"string"}],"anonymous":false},{"type":"event","name":"FindByKindCompleted","inputs":[{"name":"variant","type":"string","indexed":false,"internalType":"string"}],"anonymous":false},{"type":"event","name":"GetCompleted","inputs":[{"name":"variant","type":"string","indexed":false,"internalType":"string"},{"name":"symbol","type":"bytes32","indexed":false,"internalType":"bytes32"}],"anonymous":false},{"type":"event","name":"RegisterCompleted","inputs":[{"name":"variant","type":"string","indexed":false,"internalType":"string"},{"name":"symbol","type":"bytes32","indexed":false,"internalType":"bytes32"},{"name":"existing","type":"bytes32","indexed":false,"internalType":"bytes32"}],"anonymous":false},{"type":"event","name":"RenameCompleted","inputs":[{"name":"variant","type":"string","indexed":false,"internalType":"string"},{"name":"occurrencesUpdated","type":"int256","indexed":false,"internalType":"int256"},{"name":"conflicting","type":"bytes32","indexed":false,"internalType":"bytes32"}],"anonymous":false},{"type":"event","name":"ResolveCompleted","inputs":[{"name":"variant","type":"string","indexed":false,"internalType":"string"},{"name":"symbol","type":"bytes32","indexed":false,"internalType":"bytes32"}],"anonymous":false}],"bytecode":{"object":"0x608060405234801561000f575f80fd5b506124b28061001d5f395ff3fe608060405234801561000f575f80fd5b5060043610610085575f3560e01c8063794a173711610059578063794a1737146101495780638eaa6ac014610179578063ba30fa75146101a9578063c1e1637e146101d957610085565b80629c8b161461008957806302515835146100b95780630e24c52c146100e9578063461a447814610119575b5f80fd5b6100a3600480360381019061009e919061151d565b6101f7565b6040516100b09190611670565b60405180910390f35b6100d360048036038101906100ce9190611690565b6104e6565b6040516100e091906116ca565b60405180910390f35b61010360048036038101906100fe91906116e3565b61050e565b60405161011091906117f3565b60405180910390f35b610133600480360381019061012e919061180c565b610849565b6040516101409190611880565b60405180910390f35b610163600480360381019061015e919061180c565b610998565b60405161017091906118d3565b60405180910390f35b610193600480360381019061018e9190611690565b610bd9565b6040516101a091906119c3565b60405180910390f35b6101c360048036038101906101be91906119e3565b61100a565b6040516101d09190611a93565b60405180910390f35b6101e16112b8565b6040516101ee9190611acb565b60405180910390f35b6101ff6112c4565b5f808481526020019081526020015f206006015f9054906101000a900460ff1661025e576040517f08c379a000000000000000000000000000000000000000000000000000000000815260040161025590611b3e565b60405180910390fd5b5f8251116102a1576040517f08c379a000000000000000000000000000000000000000000000000000000000815260040161029890611ba6565b60405180910390fd5b5f826040516020016102b39190611bfe565b6040516020818303038152906040528051906020012090505f60015f8381526020019081526020015f205490505f801b811415801561030e57505f808281526020019081526020015f206006015f9054906101000a900460ff165b1561034e576040517f08c379a000000000000000000000000000000000000000000000000000000000815260040161034590611c84565b60405180910390fd5b5f805f8781526020019081526020015f205f01805461036c90611ccf565b80601f016020809104026020016040519081016040528092919081815260200182805461039890611ccf565b80156103e35780601f106103ba576101008083540402835291602001916103e3565b820191905f5260205f20905b8154815290600101906020018083116103c657829003601f168201915b505050505090505f816040516020016103fc9190611bfe565b60405160208183030381529060405280519060200120905060015f8281526020019081526020015f205f9055855f808981526020019081526020015f205f0190816104479190611e9c565b50855f808981526020019081526020015f2060020190816104689190611e9c565b508660015f8681526020019081526020015f20819055507f9f98a906808ba27ea021bd4f15117d2399cf64f67021565bbe557bb0dbd1040660015f801b6040516104b3929190611ffd565b60405180910390a16040518060600160405280600115158152602001838152602001600181525094505050505092915050565b5f805f8381526020019081526020015f206006015f9054906101000a900460ff169050919050565b6105166112e5565b5f855111610559576040517f08c379a000000000000000000000000000000000000000000000000000000000815260040161055090612081565b60405180910390fd5b5f84511161059c576040517f08c379a0000000000000000000000000000000000000000000000000000000008152600401610593906120e9565b60405180910390fd5b5f856040516020016105ae9190611bfe565b6040516020818303038152906040528051906020012090505f60015f8381526020019081526020015f205490505f801b811415801561060957505f808281526020019081526020015f206006015f9054906101000a900460ff165b15610649576040517f08c379a000000000000000000000000000000000000000000000000000000000815260040161064090612151565b60405180910390fd5b5f8787866002805490504260405160200161066895949392919061218f565b6040516020818303038152906040528051906020012090506040518060e001604052808981526020018881526020018781526020016040518060400160405280600681526020017f7075626c69630000000000000000000000000000000000000000000000000000815250815260200186815260200160405180602001604052805f8152508152602001600115158152505f808381526020019081526020015f205f820151815f01908161071c9190611e9c565b5060208201518160010190816107329190611e9c565b5060408201518160020190816107489190611e9c565b50606082015181600301908161075e9190611e9c565b5060808201518160040190816107749190611e9c565b5060a082015181600501908161078a9190611e9c565b5060c0820151816006015f6101000a81548160ff0219169083151502179055509050508060015f8581526020019081526020015f2081905550600281908060018154018082558091505060019003905f5260205f20015f90919091909150557f95aa42045c9e7890b45a5e0d5b1d5c5e7a1690b14f1e0c18785efb0cd8465e2b815f801b60405161081c9291906121e1565b60405180910390a16040518060400160405280600115158152602001828152509350505050949350505050565b610851611302565b5f825111610894576040517f08c379a000000000000000000000000000000000000000000000000000000000815260040161088b90612081565b60405180910390fd5b5f826040516020016108a69190611bfe565b6040516020818303038152906040528051906020012090505f60015f8381526020019081526020015f205490505f801b811415801561090157505f808281526020019081526020015f206006015f9054906101000a900460ff165b610940576040517f08c379a000000000000000000000000000000000000000000000000000000000815260040161093790611b3e565b60405180910390fd5b7feae6670cb45d870a20f6d709ca7212b23081cb581d2110b53b54e4d2d74225d48160405161096f919061221b565b60405180910390a160405180604001604052806001151581526020018281525092505050919050565b6109a061131f565b5f8251116109e3576040517f08c379a00000000000000000000000000000000000000000000000000000000081526004016109da90612291565b60405180910390fd5b5f826040516020016109f59190611bfe565b6040516020818303038152906040528051906020012090505f60405180602001604052805f81525090505f600190505f5b600280549050811015610b81575f805f60028481548110610a4a57610a496122af565b5b905f5260205f20015481526020019081526020015f209050806006015f9054906101000a900460ff168015610aa757508481600401604051602001610a8f919061235c565b60405160208183030381529060405280519060200120145b15610b6d5782610adc5783815f01604051602001610ac69291906123bc565b6040516020818303038152906040529350610b6c565b805f018054610aea90611ccf565b80601f0160208091040260200160405190810160405280929190818152602001828054610b1690611ccf565b8015610b615780601f10610b3857610100808354040283529160200191610b61565b820191905f5260205f20905b815481529060010190602001808311610b4457829003601f168201915b505050505093505f92505b5b508080610b7990612417565b915050610a26565b507fc039d8f77fc7d5a79cba531daa11d237e305712f5c268d1e064deea9458e2a45604051610baf9061245e565b60405180910390a16040518060400160405280600115158152602001838152509350505050919050565b610be161133a565b5f808381526020019081526020015f206006015f9054906101000a900460ff16610c40576040517f08c379a0000000000000000000000000000000000000000000000000000000008152600401610c3790611b3e565b60405180910390fd5b5f805f8481526020019081526020015f2090507fd45fe45dbfb310b00d5db432aa35f96282e16a8bb204b349e334de2cd5566f3483604051610c82919061221b565b60405180910390a1604051806101000160405280600115158152602001848152602001825f018054610cb390611ccf565b80601f0160208091040260200160405190810160405280929190818152602001828054610cdf90611ccf565b8015610d2a5780601f10610d0157610100808354040283529160200191610d2a565b820191905f5260205f20905b815481529060010190602001808311610d0d57829003601f168201915b50505050508152602001826001018054610d4390611ccf565b80601f0160208091040260200160405190810160405280929190818152602001828054610d6f90611ccf565b8015610dba5780601f10610d9157610100808354040283529160200191610dba565b820191905f5260205f20905b815481529060010190602001808311610d9d57829003601f168201915b50505050508152602001826002018054610dd390611ccf565b80601f0160208091040260200160405190810160405280929190818152602001828054610dff90611ccf565b8015610e4a5780601f10610e2157610100808354040283529160200191610e4a565b820191905f5260205f20905b815481529060010190602001808311610e2d57829003601f168201915b50505050508152602001826003018054610e6390611ccf565b80601f0160208091040260200160405190810160405280929190818152602001828054610e8f90611ccf565b8015610eda5780601f10610eb157610100808354040283529160200191610eda565b820191905f5260205f20905b815481529060010190602001808311610ebd57829003601f168201915b50505050508152602001826004018054610ef390611ccf565b80601f0160208091040260200160405190810160405280929190818152602001828054610f1f90611ccf565b8015610f6a5780601f10610f4157610100808354040283529160200191610f6a565b820191905f5260205f20905b815481529060010190602001808311610f4d57829003601f168201915b50505050508152602001826005018054610f8390611ccf565b80601f0160208091040260200160405190810160405280929190818152602001828054610faf90611ccf565b8015610ffa5780601f10610fd157610100808354040283529160200191610ffa565b820191905f5260205f20905b815481529060010190602001808311610fdd57829003601f168201915b5050505050815250915050919050565b611012611382565b5f835111611055576040517f08c379a000000000000000000000000000000000000000000000000000000000815260040161104c906120e9565b60405180910390fd5b5f60405180602001604052805f81525090505f8084511190505f856040516020016110809190611bfe565b6040516020818303038152906040528051906020012090505f600190505f5b60028054905081101561125e575f805f600284815481106110c3576110c26122af565b5b905f5260205f20015481526020019081526020015f209050806006015f9054906101000a900460ff16801561112057508381600101604051602001611108919061235c565b60405160208183030381529060405280519060200120145b15611249578415611188578760405160200161113c9190611bfe565b6040516020818303038152906040528051906020012081600501604051602001611166919061235c565b6040516020818303038152906040528051906020012014611187575061124b565b5b826111b85785815f016040516020016111a29291906123bc565b6040516020818303038152906040529550611248565b805f0180546111c690611ccf565b80601f01602080910402602001604051908101604052809291908181526020018280546111f290611ccf565b801561123d5780601f106112145761010080835404028352916020019161123d565b820191905f5260205f20905b81548152906001019060200180831161122057829003601f168201915b505050505095505f92505b5b505b808061125690612417565b91505061109f565b507fc780e9b779666f64786b4eb5fa5154caa4bf5b07175e1bd91ed6557d5925c5fc60405161128c9061245e565b60405180910390a160405180604001604052806001151581526020018581525094505050505092915050565b5f600280549050905090565b60405180606001604052805f15158152602001606081526020015f81525090565b60405180604001604052805f151581526020015f80191681525090565b60405180604001604052805f151581526020015f80191681525090565b60405180604001604052805f15158152602001606081525090565b6040518061010001604052805f151581526020015f80191681526020016060815260200160608152602001606081526020016060815260200160608152602001606081525090565b60405180604001604052805f15158152602001606081525090565b5f604051905090565b5f80fd5b5f80fd5b5f819050919050565b6113c0816113ae565b81146113ca575f80fd5b50565b5f813590506113db816113b7565b92915050565b5f80fd5b5f80fd5b5f601f19601f8301169050919050565b7f4e487b71000000000000000000000000000000000000000000000000000000005f52604160045260245ffd5b61142f826113e9565b810181811067ffffffffffffffff8211171561144e5761144d6113f9565b5b80604052505050565b5f61146061139d565b905061146c8282611426565b919050565b5f67ffffffffffffffff82111561148b5761148a6113f9565b5b611494826113e9565b9050602081019050919050565b828183375f83830152505050565b5f6114c16114bc84611471565b611457565b9050828152602081018484840111156114dd576114dc6113e5565b5b6114e88482856114a1565b509392505050565b5f82601f830112611504576115036113e1565b5b81356115148482602086016114af565b91505092915050565b5f8060408385031215611533576115326113a6565b5b5f611540858286016113cd565b925050602083013567ffffffffffffffff811115611561576115606113aa565b5b61156d858286016114f0565b9150509250929050565b5f8115159050919050565b61158b81611577565b82525050565b5f81519050919050565b5f82825260208201905092915050565b5f5b838110156115c85780820151818401526020810190506115ad565b5f8484015250505050565b5f6115dd82611591565b6115e7818561159b565b93506115f78185602086016115ab565b611600816113e9565b840191505092915050565b5f819050919050565b61161d8161160b565b82525050565b5f606083015f8301516116385f860182611582565b506020830151848203602086015261165082826115d3565b91505060408301516116656040860182611614565b508091505092915050565b5f6020820190508181035f8301526116888184611623565b905092915050565b5f602082840312156116a5576116a46113a6565b5b5f6116b2848285016113cd565b91505092915050565b6116c481611577565b82525050565b5f6020820190506116dd5f8301846116bb565b92915050565b5f805f80608085870312156116fb576116fa6113a6565b5b5f85013567ffffffffffffffff811115611718576117176113aa565b5b611724878288016114f0565b945050602085013567ffffffffffffffff811115611745576117446113aa565b5b611751878288016114f0565b935050604085013567ffffffffffffffff811115611772576117716113aa565b5b61177e878288016114f0565b925050606085013567ffffffffffffffff81111561179f5761179e6113aa565b5b6117ab878288016114f0565b91505092959194509250565b6117c0816113ae565b82525050565b604082015f8201516117da5f850182611582565b5060208201516117ed60208501826117b7565b50505050565b5f6040820190506118065f8301846117c6565b92915050565b5f60208284031215611821576118206113a6565b5b5f82013567ffffffffffffffff81111561183e5761183d6113aa565b5b61184a848285016114f0565b91505092915050565b604082015f8201516118675f850182611582565b50602082015161187a60208501826117b7565b50505050565b5f6040820190506118935f830184611853565b92915050565b5f604083015f8301516118ae5f860182611582565b50602083015184820360208601526118c682826115d3565b9150508091505092915050565b5f6020820190508181035f8301526118eb8184611899565b905092915050565b5f61010083015f8301516119095f860182611582565b50602083015161191c60208601826117b7565b506040830151848203604086015261193482826115d3565b9150506060830151848203606086015261194e82826115d3565b9150506080830151848203608086015261196882826115d3565b91505060a083015184820360a086015261198282826115d3565b91505060c083015184820360c086015261199c82826115d3565b91505060e083015184820360e08601526119b682826115d3565b9150508091505092915050565b5f6020820190508181035f8301526119db81846118f3565b905092915050565b5f80604083850312156119f9576119f86113a6565b5b5f83013567ffffffffffffffff811115611a1657611a156113aa565b5b611a22858286016114f0565b925050602083013567ffffffffffffffff811115611a4357611a426113aa565b5b611a4f858286016114f0565b9150509250929050565b5f604083015f830151611a6e5f860182611582565b5060208301518482036020860152611a8682826115d3565b9150508091505092915050565b5f6020820190508181035f830152611aab8184611a59565b905092915050565b5f819050919050565b611ac581611ab3565b82525050565b5f602082019050611ade5f830184611abc565b92915050565b5f82825260208201905092915050565b7f53796d626f6c206e6f7420666f756e64000000000000000000000000000000005f82015250565b5f611b28601083611ae4565b9150611b3382611af4565b602082019050919050565b5f6020820190508181035f830152611b5581611b1c565b9050919050565b7f4e6577206e616d652063616e6e6f7420626520656d70747900000000000000005f82015250565b5f611b90601883611ae4565b9150611b9b82611b5c565b602082019050919050565b5f6020820190508181035f830152611bbd81611b84565b9050919050565b5f81905092915050565b5f611bd882611591565b611be28185611bc4565b9350611bf28185602086016115ab565b80840191505092915050565b5f611c098284611bce565b915081905092915050565b7f4e616d6520636f6e666c696374732077697468206578697374696e672073796d5f8201527f626f6c0000000000000000000000000000000000000000000000000000000000602082015250565b5f611c6e602383611ae4565b9150611c7982611c14565b604082019050919050565b5f6020820190508181035f830152611c9b81611c62565b9050919050565b7f4e487b71000000000000000000000000000000000000000000000000000000005f52602260045260245ffd5b5f6002820490506001821680611ce657607f821691505b602082108103611cf957611cf8611ca2565b5b50919050565b5f819050815f5260205f209050919050565b5f6020601f8301049050919050565b5f82821b905092915050565b5f60088302611d5b7fffffffffffffffffffffffffffffffffffffffffffffffffffffffffffffffff82611d20565b611d658683611d20565b95508019841693508086168417925050509392505050565b5f819050919050565b5f611da0611d9b611d9684611ab3565b611d7d565b611ab3565b9050919050565b5f819050919050565b611db983611d86565b611dcd611dc582611da7565b848454611d2c565b825550505050565b5f90565b611de1611dd5565b611dec818484611db0565b505050565b5b81811015611e0f57611e045f82611dd9565b600181019050611df2565b5050565b601f821115611e5457611e2581611cff565b611e2e84611d11565b81016020851015611e3d578190505b611e51611e4985611d11565b830182611df1565b50505b505050565b5f82821c905092915050565b5f611e745f1984600802611e59565b1980831691505092915050565b5f611e8c8383611e65565b9150826002028217905092915050565b611ea582611591565b67ffffffffffffffff811115611ebe57611ebd6113f9565b5b611ec88254611ccf565b611ed3828285611e13565b5f60209050601f831160018114611f04575f8415611ef2578287015190505b611efc8582611e81565b865550611f63565b601f198416611f1286611cff565b5f5b82811015611f3957848901518255600182019150602085019450602081019050611f14565b86831015611f565784890151611f52601f891682611e65565b8355505b6001600288020188555050505b505050505050565b7f6f6b0000000000000000000000000000000000000000000000000000000000005f82015250565b5f611f9f600283611ae4565b9150611faa82611f6b565b602082019050919050565b5f819050919050565b5f611fd8611fd3611fce84611fb5565b611d7d565b61160b565b9050919050565b611fe881611fbe565b82525050565b611ff7816113ae565b82525050565b5f6060820190508181035f83015261201481611f93565b90506120236020830185611fdf565b6120306040830184611fee565b9392505050565b7f53796d626f6c20737472696e672063616e6e6f7420626520656d7074790000005f82015250565b5f61206b601d83611ae4565b915061207682612037565b602082019050919050565b5f6020820190508181035f8301526120988161205f565b9050919050565b7f4b696e642063616e6e6f7420626520656d7074790000000000000000000000005f82015250565b5f6120d3601483611ae4565b91506120de8261209f565b602082019050919050565b5f6020820190508181035f830152612100816120c7565b9050919050565b7f53796d626f6c20616c72656164792065786973747300000000000000000000005f82015250565b5f61213b601583611ae4565b915061214682612107565b602082019050919050565b5f6020820190508181035f8301526121688161212f565b9050919050565b5f819050919050565b61218961218482611ab3565b61216f565b82525050565b5f61219a8288611bce565b91506121a68287611bce565b91506121b28286611bce565b91506121be8285612178565b6020820191506121ce8284612178565b6020820191508190509695505050505050565b5f6060820190508181035f8301526121f881611f93565b90506122076020830185611fee565b6122146040830184611fee565b9392505050565b5f6040820190508181035f83015261223281611f93565b90506122416020830184611fee565b92915050565b7f46696c652063616e6e6f7420626520656d7074790000000000000000000000005f82015250565b5f61227b601483611ae4565b915061228682612247565b602082019050919050565b5f6020820190508181035f8301526122a88161226f565b9050919050565b7f4e487b71000000000000000000000000000000000000000000000000000000005f52603260045260245ffd5b5f81546122e881611ccf565b6122f28186611bc4565b9450600182165f811461230c576001811461232157612353565b60ff1983168652811515820286019350612353565b61232a85611cff565b5f5b8381101561234b5781548189015260018201915060208101905061232c565b838801955050505b50505092915050565b5f61236782846122dc565b915081905092915050565b7f2c000000000000000000000000000000000000000000000000000000000000005f82015250565b5f6123a6600183611bc4565b91506123b182612372565b600182019050919050565b5f6123c78285611bce565b91506123d28261239a565b91506123de82846122dc565b91508190509392505050565b7f4e487b71000000000000000000000000000000000000000000000000000000005f52601160045260245ffd5b5f61242182611ab3565b91507fffffffffffffffffffffffffffffffffffffffffffffffffffffffffffffffff8203612453576124526123ea565b5b600182019050919050565b5f6020820190508181035f83015261247581611f93565b905091905056fea2646970667358221220bb2a65e8d67e25a6a90d0ed2617559c6473ec6e40fc2b9345c3db982b17075bd64736f6c63430008140033","linkReferences":{}},"methodIdentifiers":{"findByFile(string)":"794a1737","findByKind(string,string)":"ba30fa75","get(bytes32)":"8eaa6ac0","register(string,string,string,string)":"0e24c52c","rename(bytes32,string)":"009c8b16","resolve(string)":"461a4478","symbolCount()":"c1e1637e","symbolExists(bytes32)":"02515835"},"id":264}