{"abi":[{"type":"function","name":"configure","inputs":[{"name":"layout","type":"bytes32","internalType":"bytes32"},{"name":"config","type":"string","internalType":"string"}],"outputs":[{"name":"","type":"tuple","internalType":"struct Layout.ConfigureOkResult","components":[{"name":"success","type":"bool","internalType":"bool"},{"name":"layout","type":"bytes32","internalType":"bytes32"}]}],"stateMutability":"nonpayable"},{"type":"function","name":"create","inputs":[{"name":"layout","type":"bytes32","internalType":"bytes32"},{"name":"name","type":"string","internalType":"string"},{"name":"kind","type":"string","internalType":"string"}],"outputs":[{"name":"","type":"tuple","internalType":"struct Layout.CreateOkResult","components":[{"name":"success","type":"bool","internalType":"bool"},{"name":"layout","type":"bytes32","internalType":"bytes32"}]}],"stateMutability":"nonpayable"},{"type":"function","name":"nest","inputs":[{"name":"parent","type":"bytes32","internalType":"bytes32"},{"name":"child","type":"bytes32","internalType":"bytes32"}],"outputs":[{"name":"","type":"tuple","internalType":"struct Layout.NestOkResult","components":[{"name":"success","type":"bool","internalType":"bool"},{"name":"parent","type":"bytes32","internalType":"bytes32"}]}],"stateMutability":"nonpayable"},{"type":"function","name":"remove","inputs":[{"name":"layout","type":"bytes32","internalType":"bytes32"}],"outputs":[{"name":"","type":"tuple","internalType":"struct Layout.RemoveOkResult","components":[{"name":"success","type":"bool","internalType":"bool"},{"name":"layout","type":"bytes32","internalType":"bytes32"}]}],"stateMutability":"nonpayable"},{"type":"function","name":"setResponsive","inputs":[{"name":"layout","type":"bytes32","internalType":"bytes32"},{"name":"breakpoints","type":"string","internalType":"string"}],"outputs":[{"name":"","type":"tuple","internalType":"struct Layout.SetResponsiveOkResult","components":[{"name":"success","type":"bool","internalType":"bool"},{"name":"layout","type":"bytes32","internalType":"bytes32"}]}],"stateMutability":"nonpayable"},{"type":"event","name":"ConfigureCompleted","inputs":[{"name":"variant","type":"string","indexed":false,"internalType":"string"},{"name":"layout","type":"bytes32","indexed":true,"internalType":"bytes32"}],"anonymous":false},{"type":"event","name":"CreateCompleted","inputs":[{"name":"variant","type":"string","indexed":false,"internalType":"string"},{"name":"layout","type":"bytes32","indexed":true,"internalType":"bytes32"}],"anonymous":false},{"type":"event","name":"NestCompleted","inputs":[{"name":"variant","type":"string","indexed":false,"internalType":"string"},{"name":"parent","type":"bytes32","indexed":true,"internalType":"bytes32"}],"anonymous":false},{"type":"event","name":"RemoveCompleted","inputs":[{"name":"variant","type":"string","indexed":false,"internalType":"string"},{"name":"layout","type":"bytes32","indexed":true,"internalType":"bytes32"}],"anonymous":false},{"type":"event","name":"SetResponsiveCompleted","inputs":[{"name":"variant","type":"string","indexed":false,"internalType":"string"},{"name":"layout","type":"bytes32","indexed":true,"internalType":"bytes32"}],"anonymous":false}],"bytecode":{"object":"0x608060405234801561000f575f80fd5b5061141b8061001d5f395ff3fe608060405234801561000f575f80fd5b5060043610610055575f3560e01c80632bca1f1b146100595780633b2ac9ad1461008957806395bc2673146100b9578063b6e2319a146100e9578063e501fe3c14610119575b5f80fd5b610073600480360381019061006e9190610ae7565b610149565b6040516100809190610b97565b60405180910390f35b6100a3600480360381019061009e9190610bb0565b610225565b6040516100b09190610c1b565b60405180910390f35b6100d360048036038101906100ce9190610c34565b6103f7565b6040516100e09190610c8c565b60405180910390f35b61010360048036038101906100fe9190610ae7565b610548565b6040516101109190610cd2565b60405180910390f35b610133600480360381019061012e9190610ceb565b610624565b6040516101409190610da0565b60405180910390f35b61015161087e565b60015f8481526020019081526020015f205f9054906101000a900460ff166101ae576040517f08c379a00000000000000000000000000000000000000000000000000000000081526004016101a590610e13565b60405180910390fd5b815f808581526020019081526020015f2060030190816101ce919061103e565b50827f473207c19095b4c94e79d6b5a9a5f9c19e7d210b59ae78b84c2bd6a9252e3f926040516101fd90611157565b60405180910390a2604051806040016040528060011515815260200184815250905092915050565b61022d61089b565b60015f8481526020019081526020015f205f9054906101000a900460ff1661028a576040517f08c379a0000000000000000000000000000000000000000000000000000000008152600401610281906111bf565b60405180910390fd5b60015f8381526020019081526020015f205f9054906101000a900460ff166102e7576040517f08c379a00000000000000000000000000000000000000000000000000000000081526004016102de90611227565b60405180910390fd5b818303610329576040517f08c379a00000000000000000000000000000000000000000000000000000000081526004016103209061128f565b60405180910390fd5b825f808481526020019081526020015f206004018190555060015f808481526020019081526020015f206005015f6101000a81548160ff02191690831515021790555060025f8481526020019081526020015f2082908060018154018082558091505060019003905f5260205f20015f9091909190915055827fb07d4316da503757429574d9403ac9c33b40db558c33691ef0afe275960df36b6040516103cf90611157565b60405180910390a2604051806040016040528060011515815260200184815250905092915050565b6103ff6108b8565b60015f8381526020019081526020015f205f9054906101000a900460ff1661045c576040517f08c379a000000000000000000000000000000000000000000000000000000000815260040161045390610e13565b60405180910390fd5b5f808381526020019081526020015f205f8082015f61047b91906108d5565b600182015f61048a91906108d5565b600282015f61049991906108d5565b600382015f6104a891906108d5565b600482015f9055600582015f6101000a81549060ff0219169055600682015f905550505f60015f8481526020019081526020015f205f6101000a81548160ff021916908315150217905550817f29ecd025630c5051a08e7e5f7d72f6c3027ae1119dfb1ec63d9283914190822a60405161052190611157565b60405180910390a26040518060400160405280600115158152602001838152509050919050565b610550610912565b60015f8481526020019081526020015f205f9054906101000a900460ff166105ad576040517f08c379a00000000000000000000000000000000000000000000000000000000081526004016105a490610e13565b60405180910390fd5b815f808581526020019081526020015f2060020190816105cd919061103e565b50827fb7bcb46622797dbe06547cfd3cd8251fc0eb7bea659719979a569818443bb18b6040516105fc90611157565b60405180910390a2604051806040016040528060011515815260200184815250905092915050565b61062c61092f565b60015f8581526020019081526020015f205f9054906101000a900460ff161561068a576040517f08c379a0000000000000000000000000000000000000000000000000000000008152600401610681906112f7565b60405180910390fd5b5f8351116106cd576040517f08c379a00000000000000000000000000000000000000000000000000000000081526004016106c49061135f565b60405180910390fd5b5f825111610710576040517f08c379a0000000000000000000000000000000000000000000000000000000008152600401610707906113c7565b60405180910390fd5b6040518060e0016040528084815260200183815260200160405180602001604052805f815250815260200160405180602001604052805f81525081526020015f801b81526020015f15158152602001428152505f808681526020019081526020015f205f820151815f019081610786919061103e565b50602082015181600101908161079c919061103e565b5060408201518160020190816107b2919061103e565b5060608201518160030190816107c8919061103e565b506080820151816004015560a0820151816005015f6101000a81548160ff02191690831515021790555060c082015181600601559050506001805f8681526020019081526020015f205f6101000a81548160ff021916908315150217905550837f1c7208edfeacc49bb82962da7eeb2b2b4e4f5ba1dedc0499662f37cb87039d9060405161085590611157565b60405180910390a260405180604001604052806001151581526020018581525090509392505050565b60405180604001604052805f151581526020015f80191681525090565b60405180604001604052805f151581526020015f80191681525090565b60405180604001604052805f151581526020015f80191681525090565b5080546108e190610e68565b5f825580601f106108f2575061090f565b601f0160209004905f5260205f209081019061090e919061094c565b5b50565b60405180604001604052805f151581526020015f80191681525090565b60405180604001604052805f151581526020015f80191681525090565b5b80821115610963575f815f90555060010161094d565b5090565b5f604051905090565b5f80fd5b5f80fd5b5f819050919050565b61098a81610978565b8114610994575f80fd5b50565b5f813590506109a581610981565b92915050565b5f80fd5b5f80fd5b5f601f19601f8301169050919050565b7f4e487b71000000000000000000000000000000000000000000000000000000005f52604160045260245ffd5b6109f9826109b3565b810181811067ffffffffffffffff82111715610a1857610a176109c3565b5b80604052505050565b5f610a2a610967565b9050610a3682826109f0565b919050565b5f67ffffffffffffffff821115610a5557610a546109c3565b5b610a5e826109b3565b9050602081019050919050565b828183375f83830152505050565b5f610a8b610a8684610a3b565b610a21565b905082815260208101848484011115610aa757610aa66109af565b5b610ab2848285610a6b565b509392505050565b5f82601f830112610ace57610acd6109ab565b5b8135610ade848260208601610a79565b91505092915050565b5f8060408385031215610afd57610afc610970565b5b5f610b0a85828601610997565b925050602083013567ffffffffffffffff811115610b2b57610b2a610974565b5b610b3785828601610aba565b9150509250929050565b5f8115159050919050565b610b5581610b41565b82525050565b610b6481610978565b82525050565b604082015f820151610b7e5f850182610b4c565b506020820151610b916020850182610b5b565b50505050565b5f604082019050610baa5f830184610b6a565b92915050565b5f8060408385031215610bc657610bc5610970565b5b5f610bd385828601610997565b9250506020610be485828601610997565b9150509250929050565b604082015f820151610c025f850182610b4c565b506020820151610c156020850182610b5b565b50505050565b5f604082019050610c2e5f830184610bee565b92915050565b5f60208284031215610c4957610c48610970565b5b5f610c5684828501610997565b91505092915050565b604082015f820151610c735f850182610b4c565b506020820151610c866020850182610b5b565b50505050565b5f604082019050610c9f5f830184610c5f565b92915050565b604082015f820151610cb95f850182610b4c565b506020820151610ccc6020850182610b5b565b50505050565b5f604082019050610ce55f830184610ca5565b92915050565b5f805f60608486031215610d0257610d01610970565b5b5f610d0f86828701610997565b935050602084013567ffffffffffffffff811115610d3057610d2f610974565b5b610d3c86828701610aba565b925050604084013567ffffffffffffffff811115610d5d57610d5c610974565b5b610d6986828701610aba565b9150509250925092565b604082015f820151610d875f850182610b4c565b506020820151610d9a6020850182610b5b565b50505050565b5f604082019050610db35f830184610d73565b92915050565b5f82825260208201905092915050565b7f4c61796f7574206e6f7420666f756e64000000000000000000000000000000005f82015250565b5f610dfd601083610db9565b9150610e0882610dc9565b602082019050919050565b5f6020820190508181035f830152610e2a81610df1565b9050919050565b5f81519050919050565b7f4e487b71000000000000000000000000000000000000000000000000000000005f52602260045260245ffd5b5f6002820490506001821680610e7f57607f821691505b602082108103610e9257610e91610e3b565b5b50919050565b5f819050815f5260205f209050919050565b5f6020601f8301049050919050565b5f82821b905092915050565b5f60088302610ef47fffffffffffffffffffffffffffffffffffffffffffffffffffffffffffffffff82610eb9565b610efe8683610eb9565b95508019841693508086168417925050509392505050565b5f819050919050565b5f819050919050565b5f610f42610f3d610f3884610f16565b610f1f565b610f16565b9050919050565b5f819050919050565b610f5b83610f28565b610f6f610f6782610f49565b848454610ec5565b825550505050565b5f90565b610f83610f77565b610f8e818484610f52565b505050565b5b81811015610fb157610fa65f82610f7b565b600181019050610f94565b5050565b601f821115610ff657610fc781610e98565b610fd084610eaa565b81016020851015610fdf578190505b610ff3610feb85610eaa565b830182610f93565b50505b505050565b5f82821c905092915050565b5f6110165f1984600802610ffb565b1980831691505092915050565b5f61102e8383611007565b9150826002028217905092915050565b61104782610e31565b67ffffffffffffffff8111156110605761105f6109c3565b5b61106a8254610e68565b611075828285610fb5565b5f60209050601f8311600181146110a6575f8415611094578287015190505b61109e8582611023565b865550611105565b601f1984166110b486610e98565b5f5b828110156110db578489015182556001820191506020850194506020810190506110b6565b868310156110f857848901516110f4601f891682611007565b8355505b6001600288020188555050505b505050505050565b7f6f6b0000000000000000000000000000000000000000000000000000000000005f82015250565b5f611141600283610db9565b915061114c8261110d565b602082019050919050565b5f6020820190508181035f83015261116e81611135565b9050919050565b7f506172656e74206c61796f7574206e6f7420666f756e640000000000000000005f82015250565b5f6111a9601783610db9565b91506111b482611175565b602082019050919050565b5f6020820190508181035f8301526111d68161119d565b9050919050565b7f4368696c64206c61796f7574206e6f7420666f756e64000000000000000000005f82015250565b5f611211601683610db9565b915061121c826111dd565b602082019050919050565b5f6020820190508181035f83015261123e81611205565b9050919050565b7f43616e6e6f74206e657374206c61796f757420756e64657220697473656c66005f82015250565b5f611279601f83610db9565b915061128482611245565b602082019050919050565b5f6020820190508181035f8301526112a68161126d565b9050919050565b7f4c61796f757420616c72656164792065786973747300000000000000000000005f82015250565b5f6112e1601583610db9565b91506112ec826112ad565b602082019050919050565b5f6020820190508181035f83015261130e816112d5565b9050919050565b7f4e616d65207265717569726564000000000000000000000000000000000000005f82015250565b5f611349600d83610db9565b915061135482611315565b602082019050919050565b5f6020820190508181035f8301526113768161133d565b9050919050565b7f4b696e64207265717569726564000000000000000000000000000000000000005f82015250565b5f6113b1600d83610db9565b91506113bc8261137d565b602082019050919050565b5f6020820190508181035f8301526113de816113a5565b905091905056fea2646970667358221220e5c583557a37e1602817d0534b4ebe13d51bef93cd895536cc06ad2964f85df464736f6c63430008140033","linkReferences":{}},"methodIdentifiers":{"configure(bytes32,string)":"b6e2319a","create(bytes32,string,string)":"e501fe3c","nest(bytes32,bytes32)":"3b2ac9ad","remove(bytes32)":"95bc2673","setResponsive(bytes32,string)":"2bca1f1b"},"id":163}