{"abi":[{"type":"function","name":"applyChanges","inputs":[{"name":"workspace","type":"bytes32","internalType":"bytes32"}],"outputs":[{"name":"","type":"tuple","internalType":"struct TerraformProvider.ApplyOkResult","components":[{"name":"success","type":"bool","internalType":"bool"},{"name":"workspace","type":"bytes32","internalType":"bytes32"},{"name":"created","type":"string[]","internalType":"string[]"},{"name":"updated","type":"string[]","internalType":"string[]"}]}],"stateMutability":"nonpayable"},{"type":"function","name":"generate","inputs":[{"name":"plan","type":"string","internalType":"string"}],"outputs":[{"name":"","type":"tuple","internalType":"struct TerraformProvider.GenerateOkResult","components":[{"name":"success","type":"bool","internalType":"bool"},{"name":"workspace","type":"bytes32","internalType":"bytes32"},{"name":"files","type":"string[]","internalType":"string[]"}]}],"stateMutability":"nonpayable"},{"type":"function","name":"preview","inputs":[{"name":"workspace","type":"bytes32","internalType":"bytes32"}],"outputs":[{"name":"","type":"tuple","internalType":"struct TerraformProvider.PreviewOkResult","components":[{"name":"success","type":"bool","internalType":"bool"},{"name":"workspace","type":"bytes32","internalType":"bytes32"},{"name":"toCreate","type":"int256","internalType":"int256"},{"name":"toUpdate","type":"int256","internalType":"int256"},{"name":"toDelete","type":"int256","internalType":"int256"}]}],"stateMutability":"nonpayable"},{"type":"function","name":"register","inputs":[],"outputs":[{"name":"name","type":"string","internalType":"string"},{"name":"category","type":"string","internalType":"string"},{"name":"capabilities","type":"string[]","internalType":"string[]"}],"stateMutability":"pure"},{"type":"function","name":"teardown","inputs":[{"name":"workspace","type":"bytes32","internalType":"bytes32"}],"outputs":[{"name":"","type":"tuple","internalType":"struct TerraformProvider.TeardownOkResult","components":[{"name":"success","type":"bool","internalType":"bool"},{"name":"workspace","type":"bytes32","internalType":"bytes32"},{"name":"destroyed","type":"string[]","internalType":"string[]"}]}],"stateMutability":"nonpayable"},{"type":"event","name":"ApplyCompleted","inputs":[{"name":"variant","type":"string","indexed":false,"internalType":"string"},{"name":"workspace","type":"bytes32","indexed":false,"internalType":"bytes32"},{"name":"created","type":"string[]","indexed":false,"internalType":"string[]"},{"name":"updated","type":"string[]","indexed":false,"internalType":"string[]"},{"name":"failed","type":"string[]","indexed":false,"internalType":"string[]"}],"anonymous":false},{"type":"event","name":"GenerateCompleted","inputs":[{"name":"variant","type":"string","indexed":false,"internalType":"string"},{"name":"workspace","type":"bytes32","indexed":false,"internalType":"bytes32"},{"name":"files","type":"string[]","indexed":false,"internalType":"string[]"}],"anonymous":false},{"type":"event","name":"PreviewCompleted","inputs":[{"name":"variant","type":"string","indexed":false,"internalType":"string"},{"name":"workspace","type":"bytes32","indexed":false,"internalType":"bytes32"},{"name":"toCreate","type":"int256","indexed":false,"internalType":"int256"},{"name":"toUpdate","type":"int256","indexed":false,"internalType":"int256"},{"name":"toDelete","type":"int256","indexed":false,"internalType":"int256"}],"anonymous":false},{"type":"event","name":"TeardownCompleted","inputs":[{"name":"variant","type":"string","indexed":false,"internalType":"string"},{"name":"workspace","type":"bytes32","indexed":false,"internalType":"bytes32"},{"name":"destroyed","type":"string[]","indexed":false,"internalType":"string[]"}],"anonymous":false}],"bytecode":{"object":"0x608060405234801561000f575f80fd5b506119b48061001d5f395ff3fe608060405234801561000f575f80fd5b5060043610610055575f3560e01c80631aa3a0081461005957806326fefe381461007957806331a30ea0146100a957806332752c85146100d9578063c3d670fe14610109575b5f80fd5b610061610139565b60405161007093929190610d99565b60405180910390f35b610093600480360381019061008e9190610e27565b610357565b6040516100a09190610f65565b60405180910390f35b6100c360048036038101906100be9190610e27565b610598565b6040516100d09190611003565b60405180910390f35b6100f360048036038101906100ee9190610e27565b61066d565b6040516101009190611069565b60405180910390f35b610123600480360381019061011e91906111b5565b610839565b6040516101309190611249565b60405180910390f35b60608060606040518060400160405280600981526020017f7465727261666f726d000000000000000000000000000000000000000000000081525092506040518060400160405280600381526020017f69616300000000000000000000000000000000000000000000000000000000008152509150600467ffffffffffffffff8111156101c9576101c8611091565b5b6040519080825280602002602001820160405280156101fc57816020015b60608152602001906001900390816101e75790505b5090506040518060400160405280600881526020017f67656e6572617465000000000000000000000000000000000000000000000000815250815f8151811061024857610247611269565b5b60200260200101819052506040518060400160405280600781526020017f70726576696577000000000000000000000000000000000000000000000000008152508160018151811061029d5761029c611269565b5b60200260200101819052506040518060400160405280600581526020017f6170706c79000000000000000000000000000000000000000000000000000000815250816002815181106102f2576102f1611269565b5b60200260200101819052506040518060400160405280600881526020017f74656172646f776e0000000000000000000000000000000000000000000000008152508160038151811061034757610346611269565b5b6020026020010181905250909192565b61035f610b12565b60015f8381526020019081526020015f205f9054906101000a900460ff166103bc576040517f08c379a00000000000000000000000000000000000000000000000000000000081526004016103b390611306565b60405180910390fd5b600160035f8481526020019081526020015f205f6101000a81548160ff0219169083151502179055505f600167ffffffffffffffff81111561040157610400611091565b5b60405190808252806020026020018201604052801561043457816020015b606081526020019060019003908161041f5790505b5090506040518060400160405280601881526020017f6177735f6c616d6264615f66756e6374696f6e2e6d61696e0000000000000000815250815f815181106104805761047f611269565b5b60200260200101819052505f8067ffffffffffffffff8111156104a6576104a5611091565b5b6040519080825280602002602001820160405280156104d957816020015b60608152602001906001900390816104c45790505b5090505f8067ffffffffffffffff8111156104f7576104f6611091565b5b60405190808252806020026020018201604052801561052a57816020015b60608152602001906001900390816105155790505b5090507fdf72653d1a924fe9dd50f1ec7be53aa98daf78ac8f28675a22b34cc8564a89f485848484604051610562949392919061137d565b60405180910390a16040518060800160405280600115158152602001868152602001848152602001838152509350505050919050565b6105a0610b3d565b60015f8381526020019081526020015f205f9054906101000a900460ff166105fd576040517f08c379a00000000000000000000000000000000000000000000000000000000081526004016105f490611306565b60405180910390fd5b7f6afb49f6679b902f52f349e5e13c22bab06e51020e3b76925d515efa017b3f0a8260015f8060405161063394939291906113f7565b60405180910390a16040518060a00160405280600115158152602001838152602001600181526020015f81526020015f8152509050919050565b610675610b6c565b60015f8381526020019081526020015f205f9054906101000a900460ff166106d2576040517f08c379a00000000000000000000000000000000000000000000000000000000081526004016106c990611497565b60405180910390fd5b5f600167ffffffffffffffff8111156106ee576106ed611091565b5b60405190808252806020026020018201604052801561072157816020015b606081526020019060019003908161070c5790505b5090506040518060400160405280601881526020017f6177735f6c616d6264615f66756e6374696f6e2e6d61696e0000000000000000815250815f8151811061076d5761076c611269565b5b60200260200101819052505f60015f8581526020019081526020015f205f6101000a81548160ff0219169083151502179055505f808481526020019081526020015f205f6107bb9190610b90565b60035f8481526020019081526020015f205f6101000a81549060ff02191690557e6c8bc964aec81b5e6cfed49a4c2450aa85d712c84ac472fb04a6cec5bd0763838260405161080b9291906114b5565b60405180910390a1604051806060016040528060011515815260200184815260200182815250915050919050565b610841610bcd565b5f825111610884576040517f08c379a000000000000000000000000000000000000000000000000000000000815260040161087b90611540565b60405180910390fd5b5f82423360405160200161089a93929190611636565b60405160208183030381529060405280519060200120905082426040516020016108c592919061167d565b6040516020818303038152906040525f808381526020019081526020015f2090816108f091906118af565b5060015f8281526020019081526020015f205f9054906101000a900460ff16610962576001805f8381526020019081526020015f205f6101000a81548160ff021916908315150217905550600281908060018154018082558091505060019003905f5260205f20015f90919091909150555b5f600367ffffffffffffffff81111561097e5761097d611091565b5b6040519080825280602002602001820160405280156109b157816020015b606081526020019060019003908161099c5790505b5090506040518060400160405280600781526020017f6d61696e2e746600000000000000000000000000000000000000000000000000815250815f815181106109fd576109fc611269565b5b60200260200101819052506040518060400160405280600c81526020017f7661726961626c65732e7466000000000000000000000000000000000000000081525081600181518110610a5257610a51611269565b5b60200260200101819052506040518060400160405280600a81526020017f6f7574707574732e74660000000000000000000000000000000000000000000081525081600281518110610aa757610aa6611269565b5b60200260200101819052507f0da97dbf1aebb3e58f3b32b67a8ac71e19e73bb343e3d7daac7c1a8a432f6d1b8282604051610ae39291906114b5565b60405180910390a160405180606001604052806001151581526020018381526020018281525092505050919050565b60405180608001604052805f151581526020015f801916815260200160608152602001606081525090565b6040518060a001604052805f151581526020015f80191681526020015f81526020015f81526020015f81525090565b60405180606001604052805f151581526020015f8019168152602001606081525090565b508054610b9c906116e2565b5f825580601f10610bad5750610bca565b601f0160209004905f5260205f2090810190610bc99190610bf1565b5b50565b60405180606001604052805f151581526020015f8019168152602001606081525090565b5b80821115610c08575f815f905550600101610bf2565b5090565b5f81519050919050565b5f82825260208201905092915050565b5f5b83811015610c43578082015181840152602081019050610c28565b5f8484015250505050565b5f601f19601f8301169050919050565b5f610c6882610c0c565b610c728185610c16565b9350610c82818560208601610c26565b610c8b81610c4e565b840191505092915050565b5f81519050919050565b5f82825260208201905092915050565b5f819050602082019050919050565b5f82825260208201905092915050565b5f610cd982610c0c565b610ce38185610cbf565b9350610cf3818560208601610c26565b610cfc81610c4e565b840191505092915050565b5f610d128383610ccf565b905092915050565b5f602082019050919050565b5f610d3082610c96565b610d3a8185610ca0565b935083602082028501610d4c85610cb0565b805f5b85811015610d875784840389528151610d688582610d07565b9450610d7383610d1a565b925060208a01995050600181019050610d4f565b50829750879550505050505092915050565b5f6060820190508181035f830152610db18186610c5e565b90508181036020830152610dc58185610c5e565b90508181036040830152610dd98184610d26565b9050949350505050565b5f604051905090565b5f80fd5b5f80fd5b5f819050919050565b610e0681610df4565b8114610e10575f80fd5b50565b5f81359050610e2181610dfd565b92915050565b5f60208284031215610e3c57610e3b610dec565b5b5f610e4984828501610e13565b91505092915050565b5f8115159050919050565b610e6681610e52565b82525050565b610e7581610df4565b82525050565b5f82825260208201905092915050565b5f610e9582610c96565b610e9f8185610e7b565b935083602082028501610eb185610cb0565b805f5b85811015610eec5784840389528151610ecd8582610d07565b9450610ed883610d1a565b925060208a01995050600181019050610eb4565b50829750879550505050505092915050565b5f608083015f830151610f135f860182610e5d565b506020830151610f266020860182610e6c565b5060408301518482036040860152610f3e8282610e8b565b91505060608301518482036060860152610f588282610e8b565b9150508091505092915050565b5f6020820190508181035f830152610f7d8184610efe565b905092915050565b5f819050919050565b610f9781610f85565b82525050565b60a082015f820151610fb15f850182610e5d565b506020820151610fc46020850182610e6c565b506040820151610fd76040850182610f8e565b506060820151610fea6060850182610f8e565b506080820151610ffd6080850182610f8e565b50505050565b5f60a0820190506110165f830184610f9d565b92915050565b5f606083015f8301516110315f860182610e5d565b5060208301516110446020860182610e6c565b506040830151848203604086015261105c8282610e8b565b9150508091505092915050565b5f6020820190508181035f830152611081818461101c565b905092915050565b5f80fd5b5f80fd5b7f4e487b71000000000000000000000000000000000000000000000000000000005f52604160045260245ffd5b6110c782610c4e565b810181811067ffffffffffffffff821117156110e6576110e5611091565b5b80604052505050565b5f6110f8610de3565b905061110482826110be565b919050565b5f67ffffffffffffffff82111561112357611122611091565b5b61112c82610c4e565b9050602081019050919050565b828183375f83830152505050565b5f61115961115484611109565b6110ef565b9050828152602081018484840111156111755761117461108d565b5b611180848285611139565b509392505050565b5f82601f83011261119c5761119b611089565b5b81356111ac848260208601611147565b91505092915050565b5f602082840312156111ca576111c9610dec565b5b5f82013567ffffffffffffffff8111156111e7576111e6610df0565b5b6111f384828501611188565b91505092915050565b5f606083015f8301516112115f860182610e5d565b5060208301516112246020860182610e6c565b506040830151848203604086015261123c8282610e8b565b9150508091505092915050565b5f6020820190508181035f83015261126181846111fc565b905092915050565b7f4e487b71000000000000000000000000000000000000000000000000000000005f52603260045260245ffd5b7f576f726b7370616365206e6f7420666f756e64202d2067656e657261746520665f8201527f6972737400000000000000000000000000000000000000000000000000000000602082015250565b5f6112f0602483610c16565b91506112fb82611296565b604082019050919050565b5f6020820190508181035f83015261131d816112e4565b9050919050565b7f6f6b0000000000000000000000000000000000000000000000000000000000005f82015250565b5f611358600283610c16565b915061136382611324565b602082019050919050565b61137781610df4565b82525050565b5f60a0820190508181035f8301526113948161134c565b90506113a3602083018761136e565b81810360408301526113b58186610d26565b905081810360608301526113c98185610d26565b905081810360808301526113dd8184610d26565b905095945050505050565b6113f181610f85565b82525050565b5f60a0820190508181035f83015261140e8161134c565b905061141d602083018761136e565b61142a60408301866113e8565b61143760608301856113e8565b61144460808301846113e8565b95945050505050565b7f576f726b7370616365206e6f7420666f756e64000000000000000000000000005f82015250565b5f611481601383610c16565b915061148c8261144d565b602082019050919050565b5f6020820190508181035f8301526114ae81611475565b9050919050565b5f6060820190508181035f8301526114cc8161134c565b90506114db602083018561136e565b81810360408301526114ed8184610d26565b90509392505050565b7f506c616e206d757374206e6f7420626520656d707479000000000000000000005f82015250565b5f61152a601683610c16565b9150611535826114f6565b602082019050919050565b5f6020820190508181035f8301526115578161151e565b9050919050565b5f81905092915050565b5f61157282610c0c565b61157c818561155e565b935061158c818560208601610c26565b80840191505092915050565b5f819050919050565b5f819050919050565b6115bb6115b682611598565b6115a1565b82525050565b5f73ffffffffffffffffffffffffffffffffffffffff82169050919050565b5f6115ea826115c1565b9050919050565b5f8160601b9050919050565b5f611607826115f1565b9050919050565b5f611618826115fd565b9050919050565b61163061162b826115e0565b61160e565b82525050565b5f6116418286611568565b915061164d82856115aa565b60208201915061165d828461161f565b601482019150819050949350505050565b61167781611598565b82525050565b5f6040820190508181035f8301526116958185610c5e565b90506116a4602083018461166e565b9392505050565b5f81519050919050565b7f4e487b71000000000000000000000000000000000000000000000000000000005f52602260045260245ffd5b5f60028204905060018216806116f957607f821691505b60208210810361170c5761170b6116b5565b5b50919050565b5f819050815f5260205f209050919050565b5f6020601f8301049050919050565b5f82821b905092915050565b5f6008830261176e7fffffffffffffffffffffffffffffffffffffffffffffffffffffffffffffffff82611733565b6117788683611733565b95508019841693508086168417925050509392505050565b5f819050919050565b5f6117b36117ae6117a984611598565b611790565b611598565b9050919050565b5f819050919050565b6117cc83611799565b6117e06117d8826117ba565b84845461173f565b825550505050565b5f90565b6117f46117e8565b6117ff8184846117c3565b505050565b5b81811015611822576118175f826117ec565b600181019050611805565b5050565b601f8211156118675761183881611712565b61184184611724565b81016020851015611850578190505b61186461185c85611724565b830182611804565b50505b505050565b5f82821c905092915050565b5f6118875f198460080261186c565b1980831691505092915050565b5f61189f8383611878565b9150826002028217905092915050565b6118b8826116ab565b67ffffffffffffffff8111156118d1576118d0611091565b5b6118db82546116e2565b6118e6828285611826565b5f60209050601f831160018114611917575f8415611905578287015190505b61190f8582611894565b865550611976565b601f19841661192586611712565b5f5b8281101561194c57848901518255600182019150602085019450602081019050611927565b868310156119695784890151611965601f891682611878565b8355505b6001600288020188555050505b50505050505056fea2646970667358221220afb094b4db1ef3675fb75fe7b001db7f1dbae32f82e108bed4d4e224df4faf4c64736f6c63430008140033","linkReferences":{}},"methodIdentifiers":{"applyChanges(bytes32)":"26fefe38","generate(string)":"c3d670fe","preview(bytes32)":"31a30ea0","register()":"1aa3a008","teardown(bytes32)":"32752c85"},"id":286}