{"abi":[{"type":"function","name":"create","inputs":[{"name":"name","type":"string","internalType":"string"},{"name":"engine","type":"string","internalType":"string"},{"name":"source","type":"string","internalType":"string"},{"name":"severity","type":"string","internalType":"string"},{"name":"category","type":"string","internalType":"string"}],"outputs":[{"name":"","type":"tuple","internalType":"struct AnalysisRule.CreateOkResult","components":[{"name":"success","type":"bool","internalType":"bool"},{"name":"rule","type":"bytes32","internalType":"bytes32"}]}],"stateMutability":"nonpayable"},{"type":"function","name":"evaluate","inputs":[{"name":"rule","type":"bytes32","internalType":"bytes32"}],"outputs":[{"name":"","type":"tuple","internalType":"struct AnalysisRule.EvaluateOkResult","components":[{"name":"success","type":"bool","internalType":"bool"},{"name":"findings","type":"string","internalType":"string"}]}],"stateMutability":"nonpayable"},{"type":"function","name":"evaluateAll","inputs":[{"name":"category","type":"string","internalType":"string"}],"outputs":[{"name":"","type":"tuple","internalType":"struct AnalysisRule.EvaluateAllOkResult","components":[{"name":"success","type":"bool","internalType":"bool"},{"name":"results","type":"string","internalType":"string"}]}],"stateMutability":"nonpayable"},{"type":"function","name":"get","inputs":[{"name":"rule","type":"bytes32","internalType":"bytes32"}],"outputs":[{"name":"","type":"tuple","internalType":"struct AnalysisRule.GetOkResult","components":[{"name":"success","type":"bool","internalType":"bool"},{"name":"rule","type":"bytes32","internalType":"bytes32"},{"name":"name","type":"string","internalType":"string"},{"name":"engine","type":"string","internalType":"string"},{"name":"severity","type":"string","internalType":"string"},{"name":"category","type":"string","internalType":"string"}]}],"stateMutability":"nonpayable"},{"type":"event","name":"CreateCompleted","inputs":[{"name":"variant","type":"string","indexed":false,"internalType":"string"},{"name":"rule","type":"bytes32","indexed":false,"internalType":"bytes32"}],"anonymous":false},{"type":"event","name":"EvaluateAllCompleted","inputs":[{"name":"variant","type":"string","indexed":false,"internalType":"string"}],"anonymous":false},{"type":"event","name":"EvaluateCompleted","inputs":[{"name":"variant","type":"string","indexed":false,"internalType":"string"}],"anonymous":false},{"type":"event","name":"GetCompleted","inputs":[{"name":"variant","type":"string","indexed":false,"internalType":"string"},{"name":"rule","type":"bytes32","indexed":false,"internalType":"bytes32"}],"anonymous":false}],"bytecode":{"object":"0x608060405234801561000f575f80fd5b506116f78061001d5f395ff3fe608060405234801561000f575f80fd5b506004361061004a575f3560e01c80631953dc731461004e57806374738dab1461007e5780638eaa6ac0146100ae578063d5aa54b1146100de575b5f80fd5b61006860048036038101906100639190610b0f565b61010e565b6040516100759190610c71565b60405180910390f35b61009860048036038101906100939190610c8a565b6103bc565b6040516100a59190610d85565b60405180910390f35b6100c860048036038101906100c39190610dcf565b61055d565b6040516100d59190610e95565b60405180910390f35b6100f860048036038101906100f39190610dcf565b61086d565b6040516101059190610eef565b60405180910390f35b610116610936565b5f865111610159576040517f08c379a000000000000000000000000000000000000000000000000000000000815260040161015090610f69565b60405180910390fd5b5f85511161019c576040517f08c379a000000000000000000000000000000000000000000000000000000000815260040161019390610fd1565b60405180910390fd5b5f8451116101df576040517f08c379a00000000000000000000000000000000000000000000000000000000081526004016101d690611039565b60405180910390fd5b5f8686866040516020016101f593929190611091565b6040516020818303038152906040528051906020012090505f808281526020019081526020015f206005015f9054906101000a900460ff161561026d576040517f08c379a00000000000000000000000000000000000000000000000000000000081526004016102649061110b565b60405180910390fd5b6040518060c00160405280888152602001878152602001868152602001858152602001848152602001600115158152505f808381526020019081526020015f205f820151815f0190816102c0919061132c565b5060208201518160010190816102d6919061132c565b5060408201518160020190816102ec919061132c565b506060820151816003019081610302919061132c565b506080820151816004019081610318919061132c565b5060a0820151816005015f6101000a81548160ff021916908315150217905550905050600181908060018154018082558091505060019003905f5260205f20015f90919091909150557f1c7208edfeacc49bb82962da7eeb2b2b4e4f5ba1dedc0499662f37cb87039d90816040516103909190611454565b60405180910390a160405180604001604052806001151581526020018281525091505095945050505050565b6103c4610953565b5f825111610407576040517f08c379a00000000000000000000000000000000000000000000000000000000081526004016103fe906114ca565b60405180910390fd5b5f805b60018054905081101561048a5783805190602001205f8060018481548110610435576104346114e8565b5b905f5260205f20015481526020019081526020015f2060040160405161045b91906115b1565b604051809103902003610477578180610473906115f4565b9250505b8080610482906115f4565b91505061040a565b507f0ecfef7e6928e3b69e8e67f396bc520b712b0b50f75e3c321a652110aac24d796040516104b89061163b565b60405180910390a15f808211610503576040518060400160405280600a81526020017f6e6f2d6d6174636865730000000000000000000000000000000000000000000081525061053a565b6040518060400160405280600981526020017f6576616c756174656400000000000000000000000000000000000000000000008152505b905060405180604001604052806001151581526020018281525092505050919050565b61056561096e565b5f808381526020019081526020015f206005015f9054906101000a900460ff166105c4576040517f08c379a00000000000000000000000000000000000000000000000000000000081526004016105bb906116a3565b60405180910390fd5b5f805f8481526020019081526020015f2090507fd45fe45dbfb310b00d5db432aa35f96282e16a8bb204b349e334de2cd5566f34836040516106069190611454565b60405180910390a16040518060c00160405280600115158152602001848152602001825f01805461063690611156565b80601f016020809104026020016040519081016040528092919081815260200182805461066290611156565b80156106ad5780601f10610684576101008083540402835291602001916106ad565b820191905f5260205f20905b81548152906001019060200180831161069057829003601f168201915b505050505081526020018260010180546106c690611156565b80601f01602080910402602001604051908101604052809291908181526020018280546106f290611156565b801561073d5780601f106107145761010080835404028352916020019161073d565b820191905f5260205f20905b81548152906001019060200180831161072057829003601f168201915b5050505050815260200182600301805461075690611156565b80601f016020809104026020016040519081016040528092919081815260200182805461078290611156565b80156107cd5780601f106107a4576101008083540402835291602001916107cd565b820191905f5260205f20905b8154815290600101906020018083116107b057829003601f168201915b505050505081526020018260040180546107e690611156565b80601f016020809104026020016040519081016040528092919081815260200182805461081290611156565b801561085d5780601f106108345761010080835404028352916020019161085d565b820191905f5260205f20905b81548152906001019060200180831161084057829003601f168201915b5050505050815250915050919050565b6108756109a7565b5f808381526020019081526020015f206005015f9054906101000a900460ff166108d4576040517f08c379a00000000000000000000000000000000000000000000000000000000081526004016108cb906116a3565b60405180910390fd5b7f7478cca8c8c1818313d0209250c2f4903d0a230d325033dd0e904ecd588638756040516109019061163b565b60405180910390a1604051806040016040528060011515815260200160405180602001604052805f8152508152509050919050565b60405180604001604052805f151581526020015f80191681525090565b60405180604001604052805f15158152602001606081525090565b6040518060c001604052805f151581526020015f8019168152602001606081526020016060815260200160608152602001606081525090565b60405180604001604052805f15158152602001606081525090565b5f604051905090565b5f80fd5b5f80fd5b5f80fd5b5f80fd5b5f601f19601f8301169050919050565b7f4e487b71000000000000000000000000000000000000000000000000000000005f52604160045260245ffd5b610a21826109db565b810181811067ffffffffffffffff82111715610a4057610a3f6109eb565b5b80604052505050565b5f610a526109c2565b9050610a5e8282610a18565b919050565b5f67ffffffffffffffff821115610a7d57610a7c6109eb565b5b610a86826109db565b9050602081019050919050565b828183375f83830152505050565b5f610ab3610aae84610a63565b610a49565b905082815260208101848484011115610acf57610ace6109d7565b5b610ada848285610a93565b509392505050565b5f82601f830112610af657610af56109d3565b5b8135610b06848260208601610aa1565b91505092915050565b5f805f805f60a08688031215610b2857610b276109cb565b5b5f86013567ffffffffffffffff811115610b4557610b446109cf565b5b610b5188828901610ae2565b955050602086013567ffffffffffffffff811115610b7257610b716109cf565b5b610b7e88828901610ae2565b945050604086013567ffffffffffffffff811115610b9f57610b9e6109cf565b5b610bab88828901610ae2565b935050606086013567ffffffffffffffff811115610bcc57610bcb6109cf565b5b610bd888828901610ae2565b925050608086013567ffffffffffffffff811115610bf957610bf86109cf565b5b610c0588828901610ae2565b9150509295509295909350565b5f8115159050919050565b610c2681610c12565b82525050565b5f819050919050565b610c3e81610c2c565b82525050565b604082015f820151610c585f850182610c1d565b506020820151610c6b6020850182610c35565b50505050565b5f604082019050610c845f830184610c44565b92915050565b5f60208284031215610c9f57610c9e6109cb565b5b5f82013567ffffffffffffffff811115610cbc57610cbb6109cf565b5b610cc884828501610ae2565b91505092915050565b5f81519050919050565b5f82825260208201905092915050565b5f5b83811015610d08578082015181840152602081019050610ced565b5f8484015250505050565b5f610d1d82610cd1565b610d278185610cdb565b9350610d37818560208601610ceb565b610d40816109db565b840191505092915050565b5f604083015f830151610d605f860182610c1d565b5060208301518482036020860152610d788282610d13565b9150508091505092915050565b5f6020820190508181035f830152610d9d8184610d4b565b905092915050565b610dae81610c2c565b8114610db8575f80fd5b50565b5f81359050610dc981610da5565b92915050565b5f60208284031215610de457610de36109cb565b5b5f610df184828501610dbb565b91505092915050565b5f60c083015f830151610e0f5f860182610c1d565b506020830151610e226020860182610c35565b5060408301518482036040860152610e3a8282610d13565b91505060608301518482036060860152610e548282610d13565b91505060808301518482036080860152610e6e8282610d13565b91505060a083015184820360a0860152610e888282610d13565b9150508091505092915050565b5f6020820190508181035f830152610ead8184610dfa565b905092915050565b5f604083015f830151610eca5f860182610c1d565b5060208301518482036020860152610ee28282610d13565b9150508091505092915050565b5f6020820190508181035f830152610f078184610eb5565b905092915050565b5f82825260208201905092915050565b7f4e616d65206d757374206e6f7420626520656d707479000000000000000000005f82015250565b5f610f53601683610f0f565b9150610f5e82610f1f565b602082019050919050565b5f6020820190508181035f830152610f8081610f47565b9050919050565b7f456e67696e65206d757374206e6f7420626520656d70747900000000000000005f82015250565b5f610fbb601883610f0f565b9150610fc682610f87565b602082019050919050565b5f6020820190508181035f830152610fe881610faf565b9050919050565b7f536f75726365206d757374206e6f7420626520656d70747900000000000000005f82015250565b5f611023601883610f0f565b915061102e82610fef565b602082019050919050565b5f6020820190508181035f83015261105081611017565b9050919050565b5f81905092915050565b5f61106b82610cd1565b6110758185611057565b9350611085818560208601610ceb565b80840191505092915050565b5f61109c8286611061565b91506110a88285611061565b91506110b48284611061565b9150819050949350505050565b7f52756c6520616c726561647920657869737473000000000000000000000000005f82015250565b5f6110f5601383610f0f565b9150611100826110c1565b602082019050919050565b5f6020820190508181035f830152611122816110e9565b9050919050565b7f4e487b71000000000000000000000000000000000000000000000000000000005f52602260045260245ffd5b5f600282049050600182168061116d57607f821691505b6020821081036111805761117f611129565b5b50919050565b5f819050815f5260205f209050919050565b5f6020601f8301049050919050565b5f82821b905092915050565b5f600883026111e27fffffffffffffffffffffffffffffffffffffffffffffffffffffffffffffffff826111a7565b6111ec86836111a7565b95508019841693508086168417925050509392505050565b5f819050919050565b5f819050919050565b5f61123061122b61122684611204565b61120d565b611204565b9050919050565b5f819050919050565b61124983611216565b61125d61125582611237565b8484546111b3565b825550505050565b5f90565b611271611265565b61127c818484611240565b505050565b5b8181101561129f576112945f82611269565b600181019050611282565b5050565b601f8211156112e4576112b581611186565b6112be84611198565b810160208510156112cd578190505b6112e16112d985611198565b830182611281565b50505b505050565b5f82821c905092915050565b5f6113045f19846008026112e9565b1980831691505092915050565b5f61131c83836112f5565b9150826002028217905092915050565b61133582610cd1565b67ffffffffffffffff81111561134e5761134d6109eb565b5b6113588254611156565b6113638282856112a3565b5f60209050601f831160018114611394575f8415611382578287015190505b61138c8582611311565b8655506113f3565b601f1984166113a286611186565b5f5b828110156113c9578489015182556001820191506020850194506020810190506113a4565b868310156113e657848901516113e2601f8916826112f5565b8355505b6001600288020188555050505b505050505050565b7f6f6b0000000000000000000000000000000000000000000000000000000000005f82015250565b5f61142f600283610f0f565b915061143a826113fb565b602082019050919050565b61144e81610c2c565b82525050565b5f6040820190508181035f83015261146b81611423565b905061147a6020830184611445565b92915050565b7f43617465676f7279206d757374206e6f7420626520656d7074790000000000005f82015250565b5f6114b4601a83610f0f565b91506114bf82611480565b602082019050919050565b5f6020820190508181035f8301526114e1816114a8565b9050919050565b7f4e487b71000000000000000000000000000000000000000000000000000000005f52603260045260245ffd5b5f81905092915050565b5f819050815f5260205f209050919050565b5f815461153d81611156565b6115478186611515565b9450600182165f81146115615760018114611576576115a8565b60ff19831686528115158202860193506115a8565b61157f8561151f565b5f5b838110156115a057815481890152600182019150602081019050611581565b838801955050505b50505092915050565b5f6115bc8284611531565b915081905092915050565b7f4e487b71000000000000000000000000000000000000000000000000000000005f52601160045260245ffd5b5f6115fe82611204565b91507fffffffffffffffffffffffffffffffffffffffffffffffffffffffffffffffff82036116305761162f6115c7565b5b600182019050919050565b5f6020820190508181035f83015261165281611423565b9050919050565b7f52756c65206e6f7420666f756e640000000000000000000000000000000000005f82015250565b5f61168d600e83610f0f565b915061169882611659565b602082019050919050565b5f6020820190508181035f8301526116ba81611681565b905091905056fea2646970667358221220d42a292aa44f20173f73cdda9f7bfac7ee0e99c5d8440cd1b5189d910300d25064736f6c63430008140033","linkReferences":{}},"methodIdentifiers":{"create(string,string,string,string,string)":"1953dc73","evaluate(bytes32)":"d5aa54b1","evaluateAll(string)":"74738dab","get(bytes32)":"8eaa6ac0"},"id":26}