{"abi":[{"type":"function","name":"fetch","inputs":[{"name":"name","type":"string","internalType":"string"},{"name":"filePath","type":"string","internalType":"string"}],"outputs":[{"name":"","type":"tuple","internalType":"struct DotenvProvider.FetchOkResult","components":[{"name":"success","type":"bool","internalType":"bool"},{"name":"value","type":"string","internalType":"string"}]}],"stateMutability":"nonpayable"},{"type":"function","name":"register","inputs":[],"outputs":[{"name":"name","type":"string","internalType":"string"},{"name":"category","type":"string","internalType":"string"},{"name":"capabilities","type":"string[]","internalType":"string[]"}],"stateMutability":"pure"},{"type":"event","name":"FetchCompleted","inputs":[{"name":"variant","type":"string","indexed":false,"internalType":"string"},{"name":"line","type":"int256","indexed":false,"internalType":"int256"}],"anonymous":false}],"bytecode":{"object":"0x608060405234801561000f575f80fd5b50610cde8061001d5f395ff3fe608060405234801561000f575f80fd5b5060043610610034575f3560e01c80631aa3a00814610038578063e207bc0c14610058575b5f80fd5b610040610088565b60405161004f93929190610521565b60405180910390f35b610072600480360381019061006d91906106a8565b6101a7565b60405161007f9190610772565b60405180910390f35b60608060606040518060400160405280600681526020017f646f74656e76000000000000000000000000000000000000000000000000000081525092506040518060400160405280600381526020017f656e7600000000000000000000000000000000000000000000000000000000008152509150600167ffffffffffffffff81111561011857610117610584565b5b60405190808252806020026020018201604052801561014b57816020015b60608152602001906001900390816101365790505b5090506040518060400160405280600581526020017f6665746368000000000000000000000000000000000000000000000000000000815250815f8151811061019757610196610792565b5b6020026020010181905250909192565b6101af610379565b5f8351116101f2576040517f08c379a00000000000000000000000000000000000000000000000000000000081526004016101e990610809565b60405180910390fd5b5f825111610235576040517f08c379a000000000000000000000000000000000000000000000000000000000815260040161022c90610871565b60405180910390fd5b5f83836040516020016102499291906108c9565b60405160208183030381529060405280519060200120905083834260405160200161027693929190610904565b6040516020818303038152906040525f808381526020019081526020015f2090816102a19190610b4b565b5060015f8281526020019081526020015f205f9054906101000a900460ff16610313576001805f8381526020019081526020015f205f6101000a81548160ff021916908315150217905550600281908060018154018082558091505060019003905f5260205f20015f90919091909150555b7f4b9f92030c03f723bb67263f50bc31c43a1a043c2ca902c8cf0df29c7b4794675f6040516103429190610c7c565b60405180910390a1604051806040016040528060011515815260200160405180602001604052805f81525081525091505092915050565b60405180604001604052805f15158152602001606081525090565b5f81519050919050565b5f82825260208201905092915050565b5f5b838110156103cb5780820151818401526020810190506103b0565b5f8484015250505050565b5f601f19601f8301169050919050565b5f6103f082610394565b6103fa818561039e565b935061040a8185602086016103ae565b610413816103d6565b840191505092915050565b5f81519050919050565b5f82825260208201905092915050565b5f819050602082019050919050565b5f82825260208201905092915050565b5f61046182610394565b61046b8185610447565b935061047b8185602086016103ae565b610484816103d6565b840191505092915050565b5f61049a8383610457565b905092915050565b5f602082019050919050565b5f6104b88261041e565b6104c28185610428565b9350836020820285016104d485610438565b805f5b8581101561050f57848403895281516104f0858261048f565b94506104fb836104a2565b925060208a019950506001810190506104d7565b50829750879550505050505092915050565b5f6060820190508181035f83015261053981866103e6565b9050818103602083015261054d81856103e6565b9050818103604083015261056181846104ae565b9050949350505050565b5f604051905090565b5f80fd5b5f80fd5b5f80fd5b5f80fd5b7f4e487b71000000000000000000000000000000000000000000000000000000005f52604160045260245ffd5b6105ba826103d6565b810181811067ffffffffffffffff821117156105d9576105d8610584565b5b80604052505050565b5f6105eb61056b565b90506105f782826105b1565b919050565b5f67ffffffffffffffff82111561061657610615610584565b5b61061f826103d6565b9050602081019050919050565b828183375f83830152505050565b5f61064c610647846105fc565b6105e2565b90508281526020810184848401111561066857610667610580565b5b61067384828561062c565b509392505050565b5f82601f83011261068f5761068e61057c565b5b813561069f84826020860161063a565b91505092915050565b5f80604083850312156106be576106bd610574565b5b5f83013567ffffffffffffffff8111156106db576106da610578565b5b6106e78582860161067b565b925050602083013567ffffffffffffffff81111561070857610707610578565b5b6107148582860161067b565b9150509250929050565b5f8115159050919050565b6107328161071e565b82525050565b5f604083015f83015161074d5f860182610729565b50602083015184820360208601526107658282610457565b9150508091505092915050565b5f6020820190508181035f83015261078a8184610738565b905092915050565b7f4e487b71000000000000000000000000000000000000000000000000000000005f52603260045260245ffd5b7f5661726961626c65206e616d65206d757374206e6f7420626520656d707479005f82015250565b5f6107f3601f8361039e565b91506107fe826107bf565b602082019050919050565b5f6020820190508181035f830152610820816107e7565b9050919050565b7f46696c652070617468206d757374206e6f7420626520656d70747900000000005f82015250565b5f61085b601b8361039e565b915061086682610827565b602082019050919050565b5f6020820190508181035f8301526108888161084f565b9050919050565b5f81905092915050565b5f6108a382610394565b6108ad818561088f565b93506108bd8185602086016103ae565b80840191505092915050565b5f6108d48285610899565b91506108e08284610899565b91508190509392505050565b5f819050919050565b6108fe816108ec565b82525050565b5f6060820190508181035f83015261091c81866103e6565b9050818103602083015261093081856103e6565b905061093f60408301846108f5565b949350505050565b5f81519050919050565b7f4e487b71000000000000000000000000000000000000000000000000000000005f52602260045260245ffd5b5f600282049050600182168061099557607f821691505b6020821081036109a8576109a7610951565b5b50919050565b5f819050815f5260205f209050919050565b5f6020601f8301049050919050565b5f82821b905092915050565b5f60088302610a0a7fffffffffffffffffffffffffffffffffffffffffffffffffffffffffffffffff826109cf565b610a1486836109cf565b95508019841693508086168417925050509392505050565b5f819050919050565b5f610a4f610a4a610a45846108ec565b610a2c565b6108ec565b9050919050565b5f819050919050565b610a6883610a35565b610a7c610a7482610a56565b8484546109db565b825550505050565b5f90565b610a90610a84565b610a9b818484610a5f565b505050565b5b81811015610abe57610ab35f82610a88565b600181019050610aa1565b5050565b601f821115610b0357610ad4816109ae565b610add846109c0565b81016020851015610aec578190505b610b00610af8856109c0565b830182610aa0565b50505b505050565b5f82821c905092915050565b5f610b235f1984600802610b08565b1980831691505092915050565b5f610b3b8383610b14565b9150826002028217905092915050565b610b5482610947565b67ffffffffffffffff811115610b6d57610b6c610584565b5b610b77825461097e565b610b82828285610ac2565b5f60209050601f831160018114610bb3575f8415610ba1578287015190505b610bab8582610b30565b865550610c12565b601f198416610bc1866109ae565b5f5b82811015610be857848901518255600182019150602085019450602081019050610bc3565b86831015610c055784890151610c01601f891682610b14565b8355505b6001600288020188555050505b505050505050565b7f6f6b0000000000000000000000000000000000000000000000000000000000005f82015250565b5f610c4e60028361039e565b9150610c5982610c1a565b602082019050919050565b5f819050919050565b610c7681610c64565b82525050565b5f6040820190508181035f830152610c9381610c42565b9050610ca26020830184610c6d565b9291505056fea26469706673582212201de404c576f13812b25194cea79e13309c65a0b6a023eabbcd640c1fa18e8d0864736f6c63430008140033","linkReferences":{}},"methodIdentifiers":{"fetch(string,string)":"e207bc0c","register()":"1aa3a008"},"id":104}