{"abi":[{"type":"function","name":"compareToStatic","inputs":[{"name":"flow","type":"bytes32","internalType":"bytes32"}],"outputs":[{"name":"","type":"bool","internalType":"bool"}],"stateMutability":"nonpayable"},{"type":"function","name":"correlate","inputs":[{"name":"flowId","type":"string","internalType":"string"}],"outputs":[{"name":"","type":"tuple","internalType":"struct RuntimeFlow.CorrelateOkResult","components":[{"name":"success","type":"bool","internalType":"bool"},{"name":"flow","type":"bytes32","internalType":"bytes32"}]}],"stateMutability":"nonpayable"},{"type":"function","name":"findByAction","inputs":[{"name":"action","type":"string","internalType":"string"},{"name":"since","type":"string","internalType":"string"}],"outputs":[{"name":"","type":"tuple","internalType":"struct RuntimeFlow.FindByActionOkResult","components":[{"name":"success","type":"bool","internalType":"bool"},{"name":"flows","type":"string","internalType":"string"}]}],"stateMutability":"nonpayable"},{"type":"function","name":"findBySync","inputs":[{"name":"sync","type":"string","internalType":"string"},{"name":"since","type":"string","internalType":"string"}],"outputs":[{"name":"","type":"tuple","internalType":"struct RuntimeFlow.FindBySyncOkResult","components":[{"name":"success","type":"bool","internalType":"bool"},{"name":"flows","type":"string","internalType":"string"}]}],"stateMutability":"nonpayable"},{"type":"function","name":"findByVariant","inputs":[{"name":"variant","type":"string","internalType":"string"},{"name":"since","type":"string","internalType":"string"}],"outputs":[{"name":"","type":"tuple","internalType":"struct RuntimeFlow.FindByVariantOkResult","components":[{"name":"success","type":"bool","internalType":"bool"},{"name":"flows","type":"string","internalType":"string"}]}],"stateMutability":"nonpayable"},{"type":"function","name":"findFailures","inputs":[{"name":"since","type":"string","internalType":"string"}],"outputs":[{"name":"","type":"tuple","internalType":"struct RuntimeFlow.FindFailuresOkResult","components":[{"name":"success","type":"bool","internalType":"bool"},{"name":"flows","type":"string","internalType":"string"}]}],"stateMutability":"nonpayable"},{"type":"function","name":"get","inputs":[{"name":"flow","type":"bytes32","internalType":"bytes32"}],"outputs":[{"name":"","type":"tuple","internalType":"struct RuntimeFlow.GetOkResult","components":[{"name":"success","type":"bool","internalType":"bool"},{"name":"flow","type":"bytes32","internalType":"bytes32"},{"name":"flowId","type":"string","internalType":"string"},{"name":"status","type":"string","internalType":"string"},{"name":"stepCount","type":"int256","internalType":"int256"},{"name":"deviationCount","type":"int256","internalType":"int256"}]}],"stateMutability":"nonpayable"},{"type":"function","name":"sourceLocations","inputs":[{"name":"flow","type":"bytes32","internalType":"bytes32"}],"outputs":[{"name":"","type":"tuple","internalType":"struct RuntimeFlow.SourceLocationsOkResult","components":[{"name":"success","type":"bool","internalType":"bool"},{"name":"locations","type":"string","internalType":"string"}]}],"stateMutability":"nonpayable"},{"type":"event","name":"CompareToStaticCompleted","inputs":[{"name":"variant","type":"string","indexed":false,"internalType":"string"},{"name":"pathLength","type":"int256","indexed":false,"internalType":"int256"}],"anonymous":false},{"type":"event","name":"CorrelateCompleted","inputs":[{"name":"variant","type":"string","indexed":false,"internalType":"string"},{"name":"flow","type":"bytes32","indexed":false,"internalType":"bytes32"}],"anonymous":false},{"type":"event","name":"FindByActionCompleted","inputs":[{"name":"variant","type":"string","indexed":false,"internalType":"string"}],"anonymous":false},{"type":"event","name":"FindBySyncCompleted","inputs":[{"name":"variant","type":"string","indexed":false,"internalType":"string"}],"anonymous":false},{"type":"event","name":"FindByVariantCompleted","inputs":[{"name":"variant","type":"string","indexed":false,"internalType":"string"}],"anonymous":false},{"type":"event","name":"FindFailuresCompleted","inputs":[{"name":"variant","type":"string","indexed":false,"internalType":"string"}],"anonymous":false},{"type":"event","name":"GetCompleted","inputs":[{"name":"variant","type":"string","indexed":false,"internalType":"string"},{"name":"flow","type":"bytes32","indexed":false,"internalType":"bytes32"},{"name":"stepCount","type":"int256","indexed":false,"internalType":"int256"},{"name":"deviationCount","type":"int256","indexed":false,"internalType":"int256"}],"anonymous":false},{"type":"event","name":"SourceLocationsCompleted","inputs":[{"name":"variant","type":"string","indexed":false,"internalType":"string"}],"anonymous":false}],"bytecode":{"object":"0x608060405234801561000f575f80fd5b50611cfa8061001d5f395ff3fe608060405234801561000f575f80fd5b5060043610610086575f3560e01c8063b86ae39811610059578063b86ae3981461014a578063e8ee0ecb1461017a578063f30f7e80146101aa578063f317ca65146101da57610086565b80631d3348081461008a57806344f5fabe146100ba5780638eaa6ac0146100ea5780639d0b5b141461011a575b5f80fd5b6100a4600480360381019061009f9190611045565b61020a565b6040516100b19190611189565b60405180910390f35b6100d460048036038101906100cf91906111a9565b610357565b6040516100e19190611235565b60405180910390f35b61010460048036038101906100ff9190611278565b6105ee565b6040516101119190611348565b60405180910390f35b610134600480360381019061012f9190611278565b6107fe565b6040516101419190611377565b60405180910390f35b610164600480360381019061015f9190611045565b610938565b60405161017191906113ca565b60405180910390f35b610194600480360381019061018f9190611278565b610a85565b6040516101a19190611424565b60405180910390f35b6101c460048036038101906101bf91906111a9565b610b4e565b6040516101d1919061147e565b60405180910390f35b6101f460048036038101906101ef9190611045565b610cd0565b60405161020191906114d8565b60405180910390f35b610212610e1d565b5f836040516020016102249190611532565b6040516020818303038152906040528051906020012090505f60025f8381526020019081526020015f2090505f60405180602001604052805f81525090505f5b82805490508110156102fe575f81111561029b57816040516020016102899190611592565b60405160208183030381529060405291505b815f808584815481106102b1576102b06115b3565b5b905f5260205f20015481526020019081526020015f205f016040516020016102da9291906116cf565b604051602081830303815290604052915080806102f690611728565b915050610264565b507f98f6ccf18c46b5dbd1fce2bdee379790e0e9613e936fd6c73a9b9935c13d218e60405161032c906117c9565b60405180910390a1604051806040016040528060011515815260200182815250935050505092915050565b61035f610e38565b5f8251116103a2576040517f08c379a000000000000000000000000000000000000000000000000000000000815260040161039990611831565b60405180910390fd5b60055f8154809291906103b490611728565b91905055505f826005546040516020016103cf92919061186f565b6040516020818303038152906040528051906020012090506040518061014001604052808481526020016040518060400160405280600881526020017f636f6d706c65746500000000000000000000000000000000000000000000000081525081526020015f81526020015f815260200160405180602001604052805f815250815260200160405180602001604052805f815250815260200160405180602001604052805f815250815260200160405180602001604052805f8152508152602001428152602001600115158152505f808381526020019081526020015f205f820151815f0190816104c09190611a21565b5060208201518160010190816104d69190611a21565b50604082015181600201556060820151816003015560808201518160040190816105009190611a21565b5060a08201518160050190816105169190611a21565b5060c082015181600601908161052c9190611a21565b5060e08201518160070190816105429190611a21565b506101008201518160080155610120820151816009015f6101000a81548160ff021916908315150217905550905050600181908060018154018082558091505060019003905f5260205f20015f90919091909150557f27c4394df53e2816098bd5d6c3dcf7988453cf617039e3c6215aa1b34078a0a3816040516105c69190611aff565b60405180910390a1604051806040016040528060011515815260200182815250915050919050565b6105f6610e55565b5f808381526020019081526020015f206009015f9054906101000a900460ff16610655576040517f08c379a000000000000000000000000000000000000000000000000000000000815260040161064c90611b75565b60405180910390fd5b5f805f8481526020019081526020015f2090507f354b8a609d2969833a5a12b6b453ee78f2268600b371291884e569b334090dcb83826002015483600301546040516106a393929190611ba2565b60405180910390a16040518060c00160405280600115158152602001848152602001825f0180546106d39061160d565b80601f01602080910402602001604051908101604052809291908181526020018280546106ff9061160d565b801561074a5780601f106107215761010080835404028352916020019161074a565b820191905f5260205f20905b81548152906001019060200180831161072d57829003601f168201915b505050505081526020018260010180546107639061160d565b80601f016020809104026020016040519081016040528092919081815260200182805461078f9061160d565b80156107da5780601f106107b1576101008083540402835291602001916107da565b820191905f5260205f20905b8154815290600101906020018083116107bd57829003601f168201915b50505050508152602001826002015481526020018260030154815250915050919050565b5f805f8381526020019081526020015f206009015f9054906101000a900460ff1661085e576040517f08c379a000000000000000000000000000000000000000000000000000000000815260040161085590611b75565b60405180910390fd5b5f805f8481526020019081526020015f2090505f8082600301541490507f746353766276fa6da542bcf87c432adabd07331f2b69c1f859fbd5ce943b95fc816108dc576040518060400160405280600881526020017f6465766961746573000000000000000000000000000000000000000000000000815250610913565b6040518060400160405280600781526020017f6d617463686573000000000000000000000000000000000000000000000000008152505b8360020154604051610926929190611c22565b60405180910390a18092505050919050565b610940610e8c565b5f836040516020016109529190611532565b6040516020818303038152906040528051906020012090505f60045f8381526020019081526020015f2090505f60405180602001604052805f81525090505f5b8280549050811015610a2c575f8111156109c957816040516020016109b79190611592565b60405160208183030381529060405291505b815f808584815481106109df576109de6115b3565b5b905f5260205f20015481526020019081526020015f205f01604051602001610a089291906116cf565b60405160208183030381529060405291508080610a2490611728565b915050610992565b507f06172eb2e6162c1662df47b86cbb323e15fbea89fe9fb9e2e6bdb7bf973eee2f604051610a5a906117c9565b60405180910390a1604051806040016040528060011515815260200182815250935050505092915050565b610a8d610ea7565b5f808381526020019081526020015f206009015f9054906101000a900460ff16610aec576040517f08c379a0000000000000000000000000000000000000000000000000000000008152600401610ae390611b75565b60405180910390fd5b7ff8d65cfd75b5ca5d9ae1a9b473464ddb96bc1d1cab3357272bce0ad14db7a09b604051610b19906117c9565b60405180910390a1604051806040016040528060011515815260200160405180602001604052805f8152508152509050919050565b610b56610ec2565b5f604051602001610b6690611c9a565b6040516020818303038152906040528051906020012090505f60405180602001604052805f81525090505f805b600180549050811015610c78575f805f60018481548110610bb757610bb66115b3565b5b905f5260205f20015481526020019081526020015f2090505f81600101604051602001610be49190611cae565b604051602081830303815290604052805190602001209050858103610c63575f841115610c2e5784604051602001610c1c9190611592565b60405160208183030381529060405294505b84825f01604051602001610c439291906116cf565b60405160208183030381529060405294508380610c5f90611728565b9450505b50508080610c7090611728565b915050610b93565b507f9b210ebc53694980598b91fec1268d99e813442e5ed1172081da9dbce69723a2604051610ca6906117c9565b60405180910390a16040518060400160405280600115158152602001838152509350505050919050565b610cd8610edd565b5f83604051602001610cea9190611532565b6040516020818303038152906040528051906020012090505f60035f8381526020019081526020015f2090505f60405180602001604052805f81525090505f5b8280549050811015610dc4575f811115610d615781604051602001610d4f9190611592565b60405160208183030381529060405291505b815f80858481548110610d7757610d766115b3565b5b905f5260205f20015481526020019081526020015f205f01604051602001610da09291906116cf565b60405160208183030381529060405291508080610dbc90611728565b915050610d2a565b507fc7b0015c5c7fdfb392ac25b0c050833e4577656c63f18418d88a67547a3da2e9604051610df2906117c9565b60405180910390a1604051806040016040528060011515815260200182815250935050505092915050565b60405180604001604052805f15158152602001606081525090565b60405180604001604052805f151581526020015f80191681525090565b6040518060c001604052805f151581526020015f801916815260200160608152602001606081526020015f81526020015f81525090565b60405180604001604052805f15158152602001606081525090565b60405180604001604052805f15158152602001606081525090565b60405180604001604052805f15158152602001606081525090565b60405180604001604052805f15158152602001606081525090565b5f604051905090565b5f80fd5b5f80fd5b5f80fd5b5f80fd5b5f601f19601f8301169050919050565b7f4e487b71000000000000000000000000000000000000000000000000000000005f52604160045260245ffd5b610f5782610f11565b810181811067ffffffffffffffff82111715610f7657610f75610f21565b5b80604052505050565b5f610f88610ef8565b9050610f948282610f4e565b919050565b5f67ffffffffffffffff821115610fb357610fb2610f21565b5b610fbc82610f11565b9050602081019050919050565b828183375f83830152505050565b5f610fe9610fe484610f99565b610f7f565b90508281526020810184848401111561100557611004610f0d565b5b611010848285610fc9565b509392505050565b5f82601f83011261102c5761102b610f09565b5b813561103c848260208601610fd7565b91505092915050565b5f806040838503121561105b5761105a610f01565b5b5f83013567ffffffffffffffff81111561107857611077610f05565b5b61108485828601611018565b925050602083013567ffffffffffffffff8111156110a5576110a4610f05565b5b6110b185828601611018565b9150509250929050565b5f8115159050919050565b6110cf816110bb565b82525050565b5f81519050919050565b5f82825260208201905092915050565b5f5b8381101561110c5780820151818401526020810190506110f1565b5f8484015250505050565b5f611121826110d5565b61112b81856110df565b935061113b8185602086016110ef565b61114481610f11565b840191505092915050565b5f604083015f8301516111645f8601826110c6565b506020830151848203602086015261117c8282611117565b9150508091505092915050565b5f6020820190508181035f8301526111a1818461114f565b905092915050565b5f602082840312156111be576111bd610f01565b5b5f82013567ffffffffffffffff8111156111db576111da610f05565b5b6111e784828501611018565b91505092915050565b5f819050919050565b611202816111f0565b82525050565b604082015f82015161121c5f8501826110c6565b50602082015161122f60208501826111f9565b50505050565b5f6040820190506112485f830184611208565b92915050565b611257816111f0565b8114611261575f80fd5b50565b5f813590506112728161124e565b92915050565b5f6020828403121561128d5761128c610f01565b5b5f61129a84828501611264565b91505092915050565b5f819050919050565b6112b5816112a3565b82525050565b5f60c083015f8301516112d05f8601826110c6565b5060208301516112e360208601826111f9565b50604083015184820360408601526112fb8282611117565b915050606083015184820360608601526113158282611117565b915050608083015161132a60808601826112ac565b5060a083015161133d60a08601826112ac565b508091505092915050565b5f6020820190508181035f83015261136081846112bb565b905092915050565b611371816110bb565b82525050565b5f60208201905061138a5f830184611368565b92915050565b5f604083015f8301516113a55f8601826110c6565b50602083015184820360208601526113bd8282611117565b9150508091505092915050565b5f6020820190508181035f8301526113e28184611390565b905092915050565b5f604083015f8301516113ff5f8601826110c6565b50602083015184820360208601526114178282611117565b9150508091505092915050565b5f6020820190508181035f83015261143c81846113ea565b905092915050565b5f604083015f8301516114595f8601826110c6565b50602083015184820360208601526114718282611117565b9150508091505092915050565b5f6020820190508181035f8301526114968184611444565b905092915050565b5f604083015f8301516114b35f8601826110c6565b50602083015184820360208601526114cb8282611117565b9150508091505092915050565b5f6020820190508181035f8301526114f0818461149e565b905092915050565b5f81905092915050565b5f61150c826110d5565b61151681856114f8565b93506115268185602086016110ef565b80840191505092915050565b5f61153d8284611502565b915081905092915050565b7f2c000000000000000000000000000000000000000000000000000000000000005f82015250565b5f61157c6001836114f8565b915061158782611548565b600182019050919050565b5f61159d8284611502565b91506115a882611570565b915081905092915050565b7f4e487b71000000000000000000000000000000000000000000000000000000005f52603260045260245ffd5b7f4e487b71000000000000000000000000000000000000000000000000000000005f52602260045260245ffd5b5f600282049050600182168061162457607f821691505b602082108103611637576116366115e0565b5b50919050565b5f819050815f5260205f209050919050565b5f815461165b8161160d565b61166581866114f8565b9450600182165f811461167f5760018114611694576116c6565b60ff19831686528115158202860193506116c6565b61169d8561163d565b5f5b838110156116be5781548189015260018201915060208101905061169f565b838801955050505b50505092915050565b5f6116da8285611502565b91506116e6828461164f565b91508190509392505050565b7f4e487b71000000000000000000000000000000000000000000000000000000005f52601160045260245ffd5b5f819050919050565b5f6117328261171f565b91507fffffffffffffffffffffffffffffffffffffffffffffffffffffffffffffffff8203611764576117636116f2565b5b600182019050919050565b5f82825260208201905092915050565b7f6f6b0000000000000000000000000000000000000000000000000000000000005f82015250565b5f6117b360028361176f565b91506117be8261177f565b602082019050919050565b5f6020820190508181035f8301526117e0816117a7565b9050919050565b7f466c6f77204944206d757374206e6f7420626520656d707479000000000000005f82015250565b5f61181b60198361176f565b9150611826826117e7565b602082019050919050565b5f6020820190508181035f8301526118488161180f565b9050919050565b5f819050919050565b6118696118648261171f565b61184f565b82525050565b5f61187a8285611502565b91506118868284611858565b6020820191508190509392505050565b5f6020601f8301049050919050565b5f82821b905092915050565b5f600883026118e07fffffffffffffffffffffffffffffffffffffffffffffffffffffffffffffffff826118a5565b6118ea86836118a5565b95508019841693508086168417925050509392505050565b5f819050919050565b5f61192561192061191b8461171f565b611902565b61171f565b9050919050565b5f819050919050565b61193e8361190b565b61195261194a8261192c565b8484546118b1565b825550505050565b5f90565b61196661195a565b611971818484611935565b505050565b5b81811015611994576119895f8261195e565b600181019050611977565b5050565b601f8211156119d9576119aa8161163d565b6119b384611896565b810160208510156119c2578190505b6119d66119ce85611896565b830182611976565b50505b505050565b5f82821c905092915050565b5f6119f95f19846008026119de565b1980831691505092915050565b5f611a1183836119ea565b9150826002028217905092915050565b611a2a826110d5565b67ffffffffffffffff811115611a4357611a42610f21565b5b611a4d825461160d565b611a58828285611998565b5f60209050601f831160018114611a89575f8415611a77578287015190505b611a818582611a06565b865550611ae8565b601f198416611a978661163d565b5f5b82811015611abe57848901518255600182019150602085019450602081019050611a99565b86831015611adb5784890151611ad7601f8916826119ea565b8355505b6001600288020188555050505b505050505050565b611af9816111f0565b82525050565b5f6040820190508181035f830152611b16816117a7565b9050611b256020830184611af0565b92915050565b7f466c6f77206e6f7420666f756e640000000000000000000000000000000000005f82015250565b5f611b5f600e8361176f565b9150611b6a82611b2b565b602082019050919050565b5f6020820190508181035f830152611b8c81611b53565b9050919050565b611b9c816112a3565b82525050565b5f6080820190508181035f830152611bb9816117a7565b9050611bc86020830186611af0565b611bd56040830185611b93565b611be26060830184611b93565b949350505050565b5f611bf4826110d5565b611bfe818561176f565b9350611c0e8185602086016110ef565b611c1781610f11565b840191505092915050565b5f6040820190508181035f830152611c3a8185611bea565b9050611c496020830184611b93565b9392505050565b7f6661696c656400000000000000000000000000000000000000000000000000005f82015250565b5f611c846006836114f8565b9150611c8f82611c50565b600682019050919050565b5f611ca482611c78565b9150819050919050565b5f611cb9828461164f565b91508190509291505056fea26469706673582212203a6f5d00031367e136a427bd37f8b464e86eba304d3b849c45f5e5a1db3ff4c364736f6c63430008140033","linkReferences":{}},"methodIdentifiers":{"compareToStatic(bytes32)":"9d0b5b14","correlate(string)":"44f5fabe","findByAction(string,string)":"1d334808","findBySync(string,string)":"f317ca65","findByVariant(string,string)":"b86ae398","findFailures(string)":"f30f7e80","get(bytes32)":"8eaa6ac0","sourceLocations(bytes32)":"e8ee0ecb"},"id":225}