{"abi":[{"type":"function","name":"assignWidget","inputs":[{"name":"element","type":"bytes32","internalType":"bytes32"},{"name":"widget","type":"string","internalType":"string"}],"outputs":[{"name":"","type":"tuple","internalType":"struct Element.AssignWidgetOkResult","components":[{"name":"success","type":"bool","internalType":"bool"},{"name":"element","type":"bytes32","internalType":"bytes32"}]}],"stateMutability":"nonpayable"},{"type":"function","name":"create","inputs":[{"name":"element","type":"bytes32","internalType":"bytes32"},{"name":"kind","type":"string","internalType":"string"},{"name":"label","type":"string","internalType":"string"},{"name":"dataType","type":"string","internalType":"string"}],"outputs":[{"name":"","type":"tuple","internalType":"struct Element.CreateOkResult","components":[{"name":"success","type":"bool","internalType":"bool"},{"name":"element","type":"bytes32","internalType":"bytes32"}]}],"stateMutability":"nonpayable"},{"type":"function","name":"enrich","inputs":[{"name":"element","type":"bytes32","internalType":"bytes32"},{"name":"interactorType","type":"string","internalType":"string"},{"name":"interactorProps","type":"string","internalType":"string"}],"outputs":[{"name":"","type":"tuple","internalType":"struct Element.EnrichOkResult","components":[{"name":"success","type":"bool","internalType":"bool"},{"name":"element","type":"bytes32","internalType":"bytes32"}]}],"stateMutability":"nonpayable"},{"type":"function","name":"nest","inputs":[{"name":"parent","type":"bytes32","internalType":"bytes32"},{"name":"child","type":"bytes32","internalType":"bytes32"}],"outputs":[{"name":"","type":"tuple","internalType":"struct Element.NestOkResult","components":[{"name":"success","type":"bool","internalType":"bool"},{"name":"parent","type":"bytes32","internalType":"bytes32"}]}],"stateMutability":"nonpayable"},{"type":"function","name":"remove","inputs":[{"name":"element","type":"bytes32","internalType":"bytes32"}],"outputs":[{"name":"","type":"tuple","internalType":"struct Element.RemoveOkResult","components":[{"name":"success","type":"bool","internalType":"bool"},{"name":"element","type":"bytes32","internalType":"bytes32"}]}],"stateMutability":"nonpayable"},{"type":"function","name":"setConstraints","inputs":[{"name":"element","type":"bytes32","internalType":"bytes32"},{"name":"constraints","type":"string","internalType":"string"}],"outputs":[{"name":"","type":"tuple","internalType":"struct Element.SetConstraintsOkResult","components":[{"name":"success","type":"bool","internalType":"bool"},{"name":"element","type":"bytes32","internalType":"bytes32"}]}],"stateMutability":"nonpayable"},{"type":"event","name":"AssignWidgetCompleted","inputs":[{"name":"variant","type":"string","indexed":false,"internalType":"string"},{"name":"element","type":"bytes32","indexed":true,"internalType":"bytes32"}],"anonymous":false},{"type":"event","name":"CreateCompleted","inputs":[{"name":"variant","type":"string","indexed":false,"internalType":"string"},{"name":"element","type":"bytes32","indexed":true,"internalType":"bytes32"}],"anonymous":false},{"type":"event","name":"EnrichCompleted","inputs":[{"name":"variant","type":"string","indexed":false,"internalType":"string"},{"name":"element","type":"bytes32","indexed":true,"internalType":"bytes32"}],"anonymous":false},{"type":"event","name":"NestCompleted","inputs":[{"name":"variant","type":"string","indexed":false,"internalType":"string"},{"name":"parent","type":"bytes32","indexed":true,"internalType":"bytes32"}],"anonymous":false},{"type":"event","name":"RemoveCompleted","inputs":[{"name":"variant","type":"string","indexed":false,"internalType":"string"},{"name":"element","type":"bytes32","indexed":true,"internalType":"bytes32"}],"anonymous":false},{"type":"event","name":"SetConstraintsCompleted","inputs":[{"name":"variant","type":"string","indexed":false,"internalType":"string"},{"name":"element","type":"bytes32","indexed":true,"internalType":"bytes32"}],"anonymous":false}],"bytecode":{"object":"0x608060405234801561000f575f80fd5b506116658061001d5f395ff3fe608060405234801561000f575f80fd5b5060043610610060575f3560e01c80632b478dfe1461006457806335bc8236146100945780633b2ac9ad146100c45780638c35500a146100f457806395bc267314610124578063c51e1df014610154575b5f80fd5b61007e60048036038101906100799190610c9b565b610184565b60405161008b9190610da9565b60405180910390f35b6100ae60048036038101906100a99190610dc2565b61040f565b6040516100bb9190610e49565b60405180910390f35b6100de60048036038101906100d99190610e62565b6104eb565b6040516100eb9190610ecd565b60405180910390f35b61010e60048036038101906101099190610ee6565b6106bd565b60405161011b9190610f9b565b60405180910390f35b61013e60048036038101906101399190610fb4565b6107bb565b60405161014b919061100c565b60405180910390f35b61016e60048036038101906101699190610dc2565b610939565b60405161017b9190611052565b60405180910390f35b61018c610a15565b60015f8681526020019081526020015f205f9054906101000a900460ff16156101ea576040517f08c379a00000000000000000000000000000000000000000000000000000000081526004016101e1906110c5565b60405180910390fd5b5f84511161022d576040517f08c379a00000000000000000000000000000000000000000000000000000000081526004016102249061112d565b60405180910390fd5b60405180610140016040528085815260200184815260200183815260200160405180602001604052805f815250815260200160405180602001604052805f815250815260200160405180602001604052805f815250815260200160405180602001604052805f81525081526020015f801b81526020015f15158152602001428152505f808781526020019081526020015f205f820151815f0190816102d29190611358565b5060208201518160010190816102e89190611358565b5060408201518160020190816102fe9190611358565b5060608201518160030190816103149190611358565b50608082015181600401908161032a9190611358565b5060a08201518160050190816103409190611358565b5060c08201518160060190816103569190611358565b5060e08201518160070155610100820151816008015f6101000a81548160ff02191690831515021790555061012082015181600901559050506001805f8781526020019081526020015f205f6101000a81548160ff021916908315150217905550847f1c7208edfeacc49bb82962da7eeb2b2b4e4f5ba1dedc0499662f37cb87039d906040516103e590611471565b60405180910390a26040518060400160405280600115158152602001868152509050949350505050565b610417610a32565b60015f8481526020019081526020015f205f9054906101000a900460ff16610474576040517f08c379a000000000000000000000000000000000000000000000000000000000815260040161046b906114d9565b60405180910390fd5b815f808581526020019081526020015f2060030190816104949190611358565b50827fc8e727ef1470a0c0e05a3b713afcdade0c5f627d19e5f7ee0746b7987ef9c1bb6040516104c390611471565b60405180910390a2604051806040016040528060011515815260200184815250905092915050565b6104f3610a4f565b60015f8481526020019081526020015f205f9054906101000a900460ff16610550576040517f08c379a000000000000000000000000000000000000000000000000000000000815260040161054790611541565b60405180910390fd5b60015f8381526020019081526020015f205f9054906101000a900460ff166105ad576040517f08c379a00000000000000000000000000000000000000000000000000000000081526004016105a4906115a9565b60405180910390fd5b8183036105ef576040517f08c379a00000000000000000000000000000000000000000000000000000000081526004016105e690611611565b60405180910390fd5b825f808481526020019081526020015f206007018190555060015f808481526020019081526020015f206008015f6101000a81548160ff02191690831515021790555060025f8481526020019081526020015f2082908060018154018082558091505060019003905f5260205f20015f9091909190915055827fb07d4316da503757429574d9403ac9c33b40db558c33691ef0afe275960df36b60405161069590611471565b60405180910390a2604051806040016040528060011515815260200184815250905092915050565b6106c5610a6c565b60015f8581526020019081526020015f205f9054906101000a900460ff16610722576040517f08c379a0000000000000000000000000000000000000000000000000000000008152600401610719906114d9565b60405180910390fd5b825f808681526020019081526020015f2060040190816107429190611358565b50815f808681526020019081526020015f2060050190816107639190611358565b50837f60e0f7c26a9e46e08e45e62f4b0151150e27fe0dda067d9949d92bc145c2f4a260405161079290611471565b60405180910390a260405180604001604052806001151581526020018581525090509392505050565b6107c3610a89565b60015f8381526020019081526020015f205f9054906101000a900460ff16610820576040517f08c379a0000000000000000000000000000000000000000000000000000000008152600401610817906114d9565b60405180910390fd5b5f808381526020019081526020015f205f8082015f61083f9190610aa6565b600182015f61084e9190610aa6565b600282015f61085d9190610aa6565b600382015f61086c9190610aa6565b600482015f61087b9190610aa6565b600582015f61088a9190610aa6565b600682015f6108999190610aa6565b600782015f9055600882015f6101000a81549060ff0219169055600982015f905550505f60015f8481526020019081526020015f205f6101000a81548160ff021916908315150217905550817f29ecd025630c5051a08e7e5f7d72f6c3027ae1119dfb1ec63d9283914190822a60405161091290611471565b60405180910390a26040518060400160405280600115158152602001838152509050919050565b610941610ae3565b60015f8481526020019081526020015f205f9054906101000a900460ff1661099e576040517f08c379a0000000000000000000000000000000000000000000000000000000008152600401610995906114d9565b60405180910390fd5b815f808581526020019081526020015f2060060190816109be9190611358565b50827f74af35090dcc4392bbe25b9fde9ed1aa9ef94b90010359b7a6d69e3df7b5603f6040516109ed90611471565b60405180910390a2604051806040016040528060011515815260200184815250905092915050565b60405180604001604052805f151581526020015f80191681525090565b60405180604001604052805f151581526020015f80191681525090565b60405180604001604052805f151581526020015f80191681525090565b60405180604001604052805f151581526020015f80191681525090565b60405180604001604052805f151581526020015f80191681525090565b508054610ab290611182565b5f825580601f10610ac35750610ae0565b601f0160209004905f5260205f2090810190610adf9190610b00565b5b50565b60405180604001604052805f151581526020015f80191681525090565b5b80821115610b17575f815f905550600101610b01565b5090565b5f604051905090565b5f80fd5b5f80fd5b5f819050919050565b610b3e81610b2c565b8114610b48575f80fd5b50565b5f81359050610b5981610b35565b92915050565b5f80fd5b5f80fd5b5f601f19601f8301169050919050565b7f4e487b71000000000000000000000000000000000000000000000000000000005f52604160045260245ffd5b610bad82610b67565b810181811067ffffffffffffffff82111715610bcc57610bcb610b77565b5b80604052505050565b5f610bde610b1b565b9050610bea8282610ba4565b919050565b5f67ffffffffffffffff821115610c0957610c08610b77565b5b610c1282610b67565b9050602081019050919050565b828183375f83830152505050565b5f610c3f610c3a84610bef565b610bd5565b905082815260208101848484011115610c5b57610c5a610b63565b5b610c66848285610c1f565b509392505050565b5f82601f830112610c8257610c81610b5f565b5b8135610c92848260208601610c2d565b91505092915050565b5f805f8060808587031215610cb357610cb2610b24565b5b5f610cc087828801610b4b565b945050602085013567ffffffffffffffff811115610ce157610ce0610b28565b5b610ced87828801610c6e565b935050604085013567ffffffffffffffff811115610d0e57610d0d610b28565b5b610d1a87828801610c6e565b925050606085013567ffffffffffffffff811115610d3b57610d3a610b28565b5b610d4787828801610c6e565b91505092959194509250565b5f8115159050919050565b610d6781610d53565b82525050565b610d7681610b2c565b82525050565b604082015f820151610d905f850182610d5e565b506020820151610da36020850182610d6d565b50505050565b5f604082019050610dbc5f830184610d7c565b92915050565b5f8060408385031215610dd857610dd7610b24565b5b5f610de585828601610b4b565b925050602083013567ffffffffffffffff811115610e0657610e05610b28565b5b610e1285828601610c6e565b9150509250929050565b604082015f820151610e305f850182610d5e565b506020820151610e436020850182610d6d565b50505050565b5f604082019050610e5c5f830184610e1c565b92915050565b5f8060408385031215610e7857610e77610b24565b5b5f610e8585828601610b4b565b9250506020610e9685828601610b4b565b9150509250929050565b604082015f820151610eb45f850182610d5e565b506020820151610ec76020850182610d6d565b50505050565b5f604082019050610ee05f830184610ea0565b92915050565b5f805f60608486031215610efd57610efc610b24565b5b5f610f0a86828701610b4b565b935050602084013567ffffffffffffffff811115610f2b57610f2a610b28565b5b610f3786828701610c6e565b925050604084013567ffffffffffffffff811115610f5857610f57610b28565b5b610f6486828701610c6e565b9150509250925092565b604082015f820151610f825f850182610d5e565b506020820151610f956020850182610d6d565b50505050565b5f604082019050610fae5f830184610f6e565b92915050565b5f60208284031215610fc957610fc8610b24565b5b5f610fd684828501610b4b565b91505092915050565b604082015f820151610ff35f850182610d5e565b5060208201516110066020850182610d6d565b50505050565b5f60408201905061101f5f830184610fdf565b92915050565b604082015f8201516110395f850182610d5e565b50602082015161104c6020850182610d6d565b50505050565b5f6040820190506110655f830184611025565b92915050565b5f82825260208201905092915050565b7f456c656d656e7420616c726561647920657869737473000000000000000000005f82015250565b5f6110af60168361106b565b91506110ba8261107b565b602082019050919050565b5f6020820190508181035f8301526110dc816110a3565b9050919050565b7f4b696e64207265717569726564000000000000000000000000000000000000005f82015250565b5f611117600d8361106b565b9150611122826110e3565b602082019050919050565b5f6020820190508181035f8301526111448161110b565b9050919050565b5f81519050919050565b7f4e487b71000000000000000000000000000000000000000000000000000000005f52602260045260245ffd5b5f600282049050600182168061119957607f821691505b6020821081036111ac576111ab611155565b5b50919050565b5f819050815f5260205f209050919050565b5f6020601f8301049050919050565b5f82821b905092915050565b5f6008830261120e7fffffffffffffffffffffffffffffffffffffffffffffffffffffffffffffffff826111d3565b61121886836111d3565b95508019841693508086168417925050509392505050565b5f819050919050565b5f819050919050565b5f61125c61125761125284611230565b611239565b611230565b9050919050565b5f819050919050565b61127583611242565b61128961128182611263565b8484546111df565b825550505050565b5f90565b61129d611291565b6112a881848461126c565b505050565b5b818110156112cb576112c05f82611295565b6001810190506112ae565b5050565b601f821115611310576112e1816111b2565b6112ea846111c4565b810160208510156112f9578190505b61130d611305856111c4565b8301826112ad565b50505b505050565b5f82821c905092915050565b5f6113305f1984600802611315565b1980831691505092915050565b5f6113488383611321565b9150826002028217905092915050565b6113618261114b565b67ffffffffffffffff81111561137a57611379610b77565b5b6113848254611182565b61138f8282856112cf565b5f60209050601f8311600181146113c0575f84156113ae578287015190505b6113b8858261133d565b86555061141f565b601f1984166113ce866111b2565b5f5b828110156113f5578489015182556001820191506020850194506020810190506113d0565b86831015611412578489015161140e601f891682611321565b8355505b6001600288020188555050505b505050505050565b7f6f6b0000000000000000000000000000000000000000000000000000000000005f82015250565b5f61145b60028361106b565b915061146682611427565b602082019050919050565b5f6020820190508181035f8301526114888161144f565b9050919050565b7f456c656d656e74206e6f7420666f756e640000000000000000000000000000005f82015250565b5f6114c360118361106b565b91506114ce8261148f565b602082019050919050565b5f6020820190508181035f8301526114f0816114b7565b9050919050565b7f506172656e7420656c656d656e74206e6f7420666f756e6400000000000000005f82015250565b5f61152b60188361106b565b9150611536826114f7565b602082019050919050565b5f6020820190508181035f8301526115588161151f565b9050919050565b7f4368696c6420656c656d656e74206e6f7420666f756e640000000000000000005f82015250565b5f61159360178361106b565b915061159e8261155f565b602082019050919050565b5f6020820190508181035f8301526115c081611587565b9050919050565b7f43616e6e6f74206e65737420656c656d656e7420756e64657220697473656c665f82015250565b5f6115fb60208361106b565b9150611606826115c7565b602082019050919050565b5f6020820190508181035f830152611628816115ef565b905091905056fea2646970667358221220e2550b625792a9425cab1102b496136fc3bfdac92a8080456a9729bd2ea6746d64736f6c63430008140033","linkReferences":{}},"methodIdentifiers":{"assignWidget(bytes32,string)":"c51e1df0","create(bytes32,string,string,string)":"2b478dfe","enrich(bytes32,string,string)":"8c35500a","nest(bytes32,bytes32)":"3b2ac9ad","remove(bytes32)":"95bc2673","setConstraints(bytes32,string)":"35bc8236"},"id":107}