{"abi":[{"type":"function","name":"analyze","inputs":[{"name":"changedSources","type":"string[]","internalType":"string[]"},{"name":"testType","type":"string","internalType":"string"}],"outputs":[{"name":"","type":"tuple","internalType":"struct TestSelection.AnalyzeOkResult","components":[{"name":"success","type":"bool","internalType":"bool"},{"name":"affectedTests","type":"bytes[]","internalType":"bytes[]"}]}],"stateMutability":"nonpayable"},{"type":"function","name":"record","inputs":[{"name":"testId","type":"string","internalType":"string"},{"name":"language","type":"string","internalType":"string"},{"name":"testType","type":"string","internalType":"string"},{"name":"coveredSources","type":"string[]","internalType":"string[]"},{"name":"duration","type":"int256","internalType":"int256"},{"name":"passed","type":"bool","internalType":"bool"}],"outputs":[{"name":"","type":"tuple","internalType":"struct TestSelection.RecordOkResult","components":[{"name":"success","type":"bool","internalType":"bool"},{"name":"mappingIdId","type":"bytes32","internalType":"bytes32"}]}],"stateMutability":"nonpayable"},{"type":"function","name":"select","inputs":[{"name":"affectedTests","type":"bytes[]","internalType":"bytes[]"},{"name":"budget","type":"bytes","internalType":"bytes"}],"outputs":[{"name":"","type":"tuple","internalType":"struct TestSelection.SelectOkResult","components":[{"name":"success","type":"bool","internalType":"bool"},{"name":"selected","type":"bytes[]","internalType":"bytes[]"},{"name":"estimatedDuration","type":"int256","internalType":"int256"},{"name":"confidence","type":"uint256","internalType":"uint256"}]}],"stateMutability":"nonpayable"},{"type":"function","name":"statistics","inputs":[],"outputs":[{"name":"","type":"tuple","internalType":"struct TestSelection.StatisticsOkResult","components":[{"name":"success","type":"bool","internalType":"bool"},{"name":"stats","type":"bytes","internalType":"bytes"}]}],"stateMutability":"nonpayable"},{"type":"event","name":"AnalyzeCompleted","inputs":[{"name":"variant","type":"string","indexed":false,"internalType":"string"},{"name":"affectedTests","type":"bytes[]","indexed":false,"internalType":"bytes[]"}],"anonymous":false},{"type":"event","name":"RecordCompleted","inputs":[{"name":"variant","type":"string","indexed":false,"internalType":"string"},{"name":"mappingId","type":"bytes32","indexed":false,"internalType":"bytes32"}],"anonymous":false},{"type":"event","name":"SelectCompleted","inputs":[{"name":"variant","type":"string","indexed":false,"internalType":"string"},{"name":"selected","type":"bytes[]","indexed":false,"internalType":"bytes[]"},{"name":"estimatedDuration","type":"int256","indexed":false,"internalType":"int256"},{"name":"confidence","type":"uint256","indexed":false,"internalType":"uint256"},{"name":"missedTests","type":"int256","indexed":false,"internalType":"int256"}],"anonymous":false},{"type":"event","name":"StatisticsCompleted","inputs":[{"name":"variant","type":"string","indexed":false,"internalType":"string"},{"name":"stats","type":"bytes","indexed":false,"internalType":"bytes"}],"anonymous":false}],"bytecode":{"object":"0x608060405234801561000f575f80fd5b5061249a8061001d5f395ff3fe608060405234801561000f575f80fd5b506004361061004a575f3560e01c8063201978fb1461004e5780636a64f5e51461007e57806395e272bd146100ae578063e39da3bb146100cc575b5f80fd5b61006860048036038101906100639190611014565b6100fc565b6040516100759190611269565b60405180910390f35b61009860048036038101906100939190611459565b610361565b6040516100a59190611597565b60405180910390f35b6100b66106f7565b6040516100c391906115ea565b60405180910390f35b6100e660048036038101906100e1919061160a565b610849565b6040516100f391906116ba565b60405180910390f35b610104610c99565b5f8084511161011557612710610125565b6103e884516101249190611707565b5b9050602083511061014757828060200190518101906101449190611791565b90505b5f805f5b8651811015610211576080878281518110610169576101686117bc565b5b602002602001015151106101e0575f87828151811061018b5761018a6117bc565b5b60200260200101518060200190518101906101a69190611857565b93505050508481856101b8919061190f565b136101da5780846101c9919061190f565b935082806101d690611950565b9350505b506101fe565b81806101eb90611950565b9250506064836101fb919061190f565b92505b808061020990611950565b91505061014b565b508551811061021f57855190505b5f8167ffffffffffffffff81111561023a57610239610e0a565b5b60405190808252806020026020018201604052801561026d57816020015b60608152602001906001900390816102585790505b5090505f5b828110156102c65787818151811061028d5761028c6117bc565b5b60200260200101518282815181106102a8576102a76117bc565b5b602002602001018190525080806102be90611950565b915050610272565b505f808851116102d75760646102f1565b87516064846102e69190611997565b6102f09190611a05565b5b90507facec5621e9db9dc147c496c8dfa397a762d2a065baa35e6e115bf778ac0b43108285835f6040516103289493929190611b72565b60405180910390a16040518060800160405280600115158152602001838152602001858152602001828152509550505050505092915050565b610369610cc0565b5f8751116103ac576040517f08c379a00000000000000000000000000000000000000000000000000000000081526004016103a390611c19565b60405180910390fd5b5f87876040516020016103c0929190611cc5565b6040516020818303038152906040528051906020012090506040518061010001604052808981526020018881526020018781526020018681526020018581526020018415158152602001428152602001600115158152505f808381526020019081526020015f205f820151815f01908161043a9190611ee4565b5060208201518160010190816104509190611ee4565b5060408201518160020190816104669190611ee4565b506060820151816003019080519060200190610483929190610cdd565b506080820151816004015560a0820151816005015f6101000a81548160ff02191690831515021790555060c0820151816006015560e0820151816007015f6101000a81548160ff02191690831515021790555090505060025f8281526020019081526020015f205f9054906101000a900460ff1661054b57600160025f8381526020019081526020015f205f6101000a81548160ff021916908315150217905550600181908060018154018082558091505060019003905f5260205f20015f90919091909150555b5f5b855181101561064d575f86828151811061056a576105696117bc565b5b60200260200101516040516020016105829190611ffd565b6040516020818303038152906040528051906020012090505f60035f8381526020019081526020015f2090505f805b82805490508110156105fb57858382815481106105d1576105d06117bc565b5b905f5260205f200154036105e857600191506105fb565b80806105f390611950565b9150506105b1565b50806106375760035f8481526020019081526020015f2085908060018154018082558091505060019003905f5260205f20015f90919091909150555b505050808061064590611950565b91505061054d565b5060045f81548092919061066090611950565b919050555082156106835760055f81548092919061067d90611950565b91905055505b8360065f828254610694919061190f565b925050819055507fcda516a6893ae355416ffc0c96e5d3732914ae2678fb2a1e76e147944d3a2e39816040516106ca919061202d565b60405180910390a16040518060400160405280600115158152602001828152509150509695505050505050565b6106ff610d34565b5f805f5b6001805490508110156107715760025f60018381548110610727576107266117bc565b5b905f5260205f20015481526020019081526020015f205f9054906101000a900460ff161561075e57828061075a90611950565b9350505b808061076990611950565b915050610703565b505f600454111561078f5760045460065461078c9190612059565b90505b5f806004541161079f575f6107bc565b60045460646005546107b19190611997565b6107bb9190611a05565b5b90505f8360045460055484866006546040516020016107e0969594939291906120c1565b60405160208183030381529060405290507fc8dde0b14159fa6cd055ca8c07d82b8cc78c32c10a08be64ec1e036e972dc58d816040516108209190612168565b60405180910390a160405180604001604052806001151581526020018281525094505050505090565b610851610d4f565b5f835111610894576040517f08c379a000000000000000000000000000000000000000000000000000000000815260040161088b9061220b565b60405180910390fd5b5f60018054905003610948575f8067ffffffffffffffff8111156108bb576108ba610e0a565b5b6040519080825280602002602001820160405280156108ee57816020015b60608152602001906001900390816108d95790505b5090507fb2815913a9a48dd692111b48958c0fabbee78a1173698bfd49a097371244b39b816040516109209190612273565b60405180910390a1604051806040016040528060011515815260200182815250915050610c93565b5f8083511190505f60018054905090505f8167ffffffffffffffff81111561097357610972610e0a565b5b6040519080825280602002602001820160405280156109a15781602001602082028036833780820191505090505b5090505f805b8751811015610b4e575f8882815181106109c4576109c36117bc565b5b60200260200101516040516020016109dc9190611ffd565b6040516020818303038152906040528051906020012090505f60035f8381526020019081526020015f2090505f5b8180549050811015610b38575f828281548110610a2a57610a296117bc565b5b905f5260205f200154905060025f8281526020019081526020015f205f9054906101000a900460ff16610a5d5750610b25565b8815610aa5575f805f8381526020019081526020015f2090508b8051906020012081600201604051610a8f9190612342565b604051809103902014610aa3575050610b25565b505b5f805b87811015610aed5782898281518110610ac457610ac36117bc565b5b602002602001015103610ada5760019150610aed565b8080610ae590611950565b915050610aa8565b5080610b225781888881518110610b0757610b066117bc565b5b6020026020010181815250508680610b1e90611950565b9750505b50505b8080610b3090611950565b915050610a0a565b5050508080610b4690611950565b9150506109a7565b505f8167ffffffffffffffff811115610b6a57610b69610e0a565b5b604051908082528060200260200182016040528015610b9d57816020015b6060815260200190600190039081610b885790505b5090505f5b82811015610c3b575f805f868481518110610bc057610bbf6117bc565b5b602002602001015181526020019081526020015f209050805f0181600101826002018360040154604051602001610bfa94939291906123d9565b604051602081830303815290604052838381518110610c1c57610c1b6117bc565b5b6020026020010181905250508080610c3390611950565b915050610ba2565b507fb2815913a9a48dd692111b48958c0fabbee78a1173698bfd49a097371244b39b81604051610c6b9190612431565b60405180910390a1604051806040016040528060011515815260200182815250955050505050505b92915050565b60405180608001604052805f15158152602001606081526020015f81526020015f81525090565b60405180604001604052805f151581526020015f80191681525090565b828054828255905f5260205f20908101928215610d23579160200282015b82811115610d22578251829081610d129190611ee4565b5091602001919060010190610cfb565b5b509050610d309190610d6a565b5090565b60405180604001604052805f15158152602001606081525090565b60405180604001604052805f15158152602001606081525090565b5b80821115610d89575f8181610d809190610d8d565b50600101610d6b565b5090565b508054610d9990611d20565b5f825580601f10610daa5750610dc7565b601f0160209004905f5260205f2090810190610dc69190610dca565b5b50565b5b80821115610de1575f815f905550600101610dcb565b5090565b5f604051905090565b5f80fd5b5f80fd5b5f80fd5b5f601f19601f8301169050919050565b7f4e487b71000000000000000000000000000000000000000000000000000000005f52604160045260245ffd5b610e4082610dfa565b810181811067ffffffffffffffff82111715610e5f57610e5e610e0a565b5b80604052505050565b5f610e71610de5565b9050610e7d8282610e37565b919050565b5f67ffffffffffffffff821115610e9c57610e9b610e0a565b5b602082029050602081019050919050565b5f80fd5b5f80fd5b5f67ffffffffffffffff821115610ecf57610ece610e0a565b5b610ed882610dfa565b9050602081019050919050565b828183375f83830152505050565b5f610f05610f0084610eb5565b610e68565b905082815260208101848484011115610f2157610f20610eb1565b5b610f2c848285610ee5565b509392505050565b5f82601f830112610f4857610f47610df6565b5b8135610f58848260208601610ef3565b91505092915050565b5f610f73610f6e84610e82565b610e68565b90508083825260208201905060208402830185811115610f9657610f95610ead565b5b835b81811015610fdd57803567ffffffffffffffff811115610fbb57610fba610df6565b5b808601610fc88982610f34565b85526020850194505050602081019050610f98565b5050509392505050565b5f82601f830112610ffb57610ffa610df6565b5b813561100b848260208601610f61565b91505092915050565b5f806040838503121561102a57611029610dee565b5b5f83013567ffffffffffffffff81111561104757611046610df2565b5b61105385828601610fe7565b925050602083013567ffffffffffffffff81111561107457611073610df2565b5b61108085828601610f34565b9150509250929050565b5f8115159050919050565b61109e8161108a565b82525050565b5f81519050919050565b5f82825260208201905092915050565b5f819050602082019050919050565b5f81519050919050565b5f82825260208201905092915050565b5f5b838110156111045780820151818401526020810190506110e9565b5f8484015250505050565b5f611119826110cd565b61112381856110d7565b93506111338185602086016110e7565b61113c81610dfa565b840191505092915050565b5f611152838361110f565b905092915050565b5f602082019050919050565b5f611170826110a4565b61117a81856110ae565b93508360208202850161118c856110be565b805f5b858110156111c757848403895281516111a88582611147565b94506111b38361115a565b925060208a0199505060018101905061118f565b50829750879550505050505092915050565b5f819050919050565b6111eb816111d9565b82525050565b5f819050919050565b611203816111f1565b82525050565b5f608083015f83015161121e5f860182611095565b50602083015184820360208601526112368282611166565b915050604083015161124b60408601826111e2565b50606083015161125e60608601826111fa565b508091505092915050565b5f6020820190508181035f8301526112818184611209565b905092915050565b5f67ffffffffffffffff8211156112a3576112a2610e0a565b5b6112ac82610dfa565b9050602081019050919050565b5f6112cb6112c684611289565b610e68565b9050828152602081018484840111156112e7576112e6610eb1565b5b6112f2848285610ee5565b509392505050565b5f82601f83011261130e5761130d610df6565b5b813561131e8482602086016112b9565b91505092915050565b5f67ffffffffffffffff82111561134157611340610e0a565b5b602082029050602081019050919050565b5f61136461135f84611327565b610e68565b9050808382526020820190506020840283018581111561138757611386610ead565b5b835b818110156113ce57803567ffffffffffffffff8111156113ac576113ab610df6565b5b8086016113b989826112fa565b85526020850194505050602081019050611389565b5050509392505050565b5f82601f8301126113ec576113eb610df6565b5b81356113fc848260208601611352565b91505092915050565b61140e816111d9565b8114611418575f80fd5b50565b5f8135905061142981611405565b92915050565b6114388161108a565b8114611442575f80fd5b50565b5f813590506114538161142f565b92915050565b5f805f805f8060c0878903121561147357611472610dee565b5b5f87013567ffffffffffffffff8111156114905761148f610df2565b5b61149c89828a016112fa565b965050602087013567ffffffffffffffff8111156114bd576114bc610df2565b5b6114c989828a016112fa565b955050604087013567ffffffffffffffff8111156114ea576114e9610df2565b5b6114f689828a016112fa565b945050606087013567ffffffffffffffff81111561151757611516610df2565b5b61152389828a016113d8565b935050608061153489828a0161141b565b92505060a061154589828a01611445565b9150509295509295509295565b5f819050919050565b61156481611552565b82525050565b604082015f82015161157e5f850182611095565b506020820151611591602085018261155b565b50505050565b5f6040820190506115aa5f83018461156a565b92915050565b5f604083015f8301516115c55f860182611095565b50602083015184820360208601526115dd828261110f565b9150508091505092915050565b5f6020820190508181035f83015261160281846115b0565b905092915050565b5f80604083850312156116205761161f610dee565b5b5f83013567ffffffffffffffff81111561163d5761163c610df2565b5b611649858286016113d8565b925050602083013567ffffffffffffffff81111561166a57611669610df2565b5b611676858286016112fa565b9150509250929050565b5f604083015f8301516116955f860182611095565b50602083015184820360208601526116ad8282611166565b9150508091505092915050565b5f6020820190508181035f8301526116d28184611680565b905092915050565b7f4e487b71000000000000000000000000000000000000000000000000000000005f52601160045260245ffd5b5f611711826111d9565b915061171c836111d9565b925082820261172a816111d9565b91507f800000000000000000000000000000000000000000000000000000000000000084145f84121615611761576117606116da565b5b8282058414831517611776576117756116da565b5b5092915050565b5f8151905061178b81611405565b92915050565b5f602082840312156117a6576117a5610dee565b5b5f6117b38482850161177d565b91505092915050565b7f4e487b71000000000000000000000000000000000000000000000000000000005f52603260045260245ffd5b5f6117fb6117f684611289565b610e68565b90508281526020810184848401111561181757611816610eb1565b5b6118228482856110e7565b509392505050565b5f82601f83011261183e5761183d610df6565b5b815161184e8482602086016117e9565b91505092915050565b5f805f806080858703121561186f5761186e610dee565b5b5f85015167ffffffffffffffff81111561188c5761188b610df2565b5b6118988782880161182a565b945050602085015167ffffffffffffffff8111156118b9576118b8610df2565b5b6118c58782880161182a565b935050604085015167ffffffffffffffff8111156118e6576118e5610df2565b5b6118f28782880161182a565b92505060606119038782880161177d565b91505092959194509250565b5f611919826111d9565b9150611924836111d9565b92508282019050828112155f8312168382125f84121516171561194a576119496116da565b5b92915050565b5f61195a826111f1565b91507fffffffffffffffffffffffffffffffffffffffffffffffffffffffffffffffff820361198c5761198b6116da565b5b600182019050919050565b5f6119a1826111f1565b91506119ac836111f1565b92508282026119ba816111f1565b915082820484148315176119d1576119d06116da565b5b5092915050565b7f4e487b71000000000000000000000000000000000000000000000000000000005f52601260045260245ffd5b5f611a0f826111f1565b9150611a1a836111f1565b925082611a2a57611a296119d8565b5b828204905092915050565b5f82825260208201905092915050565b7f6f6b0000000000000000000000000000000000000000000000000000000000005f82015250565b5f611a79600283611a35565b9150611a8482611a45565b602082019050919050565b5f82825260208201905092915050565b5f611aa9826110a4565b611ab38185611a8f565b935083602082028501611ac5856110be565b805f5b85811015611b005784840389528151611ae18582611147565b9450611aec8361115a565b925060208a01995050600181019050611ac8565b50829750879550505050505092915050565b611b1b816111d9565b82525050565b611b2a816111f1565b82525050565b5f819050919050565b5f819050919050565b5f611b5c611b57611b5284611b30565b611b39565b6111d9565b9050919050565b611b6c81611b42565b82525050565b5f60a0820190508181035f830152611b8981611a6d565b90508181036020830152611b9d8187611a9f565b9050611bac6040830186611b12565b611bb96060830185611b21565b611bc66080830184611b63565b95945050505050565b7f54657374204944206d757374206e6f7420626520656d707479000000000000005f82015250565b5f611c03601983611a35565b9150611c0e82611bcf565b602082019050919050565b5f6020820190508181035f830152611c3081611bf7565b9050919050565b5f81905092915050565b7f6d617070696e673a0000000000000000000000000000000000000000000000005f82015250565b5f611c75600883611c37565b9150611c8082611c41565b600882019050919050565b5f81519050919050565b5f611c9f82611c8b565b611ca98185611c37565b9350611cb98185602086016110e7565b80840191505092915050565b5f611ccf82611c69565b9150611cdb8285611c95565b9150611ce78284611c95565b91508190509392505050565b7f4e487b71000000000000000000000000000000000000000000000000000000005f52602260045260245ffd5b5f6002820490506001821680611d3757607f821691505b602082108103611d4a57611d49611cf3565b5b50919050565b5f819050815f5260205f209050919050565b5f6020601f8301049050919050565b5f82821b905092915050565b5f60088302611dac7fffffffffffffffffffffffffffffffffffffffffffffffffffffffffffffffff82611d71565b611db68683611d71565b95508019841693508086168417925050509392505050565b5f611de8611de3611dde846111f1565b611b39565b6111f1565b9050919050565b5f819050919050565b611e0183611dce565b611e15611e0d82611def565b848454611d7d565b825550505050565b5f90565b611e29611e1d565b611e34818484611df8565b505050565b5b81811015611e5757611e4c5f82611e21565b600181019050611e3a565b5050565b601f821115611e9c57611e6d81611d50565b611e7684611d62565b81016020851015611e85578190505b611e99611e9185611d62565b830182611e39565b50505b505050565b5f82821c905092915050565b5f611ebc5f1984600802611ea1565b1980831691505092915050565b5f611ed48383611ead565b9150826002028217905092915050565b611eed82611c8b565b67ffffffffffffffff811115611f0657611f05610e0a565b5b611f108254611d20565b611f1b828285611e5b565b5f60209050601f831160018114611f4c575f8415611f3a578287015190505b611f448582611ec9565b865550611fab565b601f198416611f5a86611d50565b5f5b82811015611f8157848901518255600182019150602085019450602081019050611f5c565b86831015611f9e5784890151611f9a601f891682611ead565b8355505b6001600288020188555050505b505050505050565b7f736f757263653a000000000000000000000000000000000000000000000000005f82015250565b5f611fe7600783611c37565b9150611ff282611fb3565b600782019050919050565b5f61200782611fdb565b91506120138284611c95565b915081905092915050565b61202781611552565b82525050565b5f6040820190508181035f83015261204481611a6d565b9050612053602083018461201e565b92915050565b5f612063826111d9565b915061206e836111d9565b92508261207e5761207d6119d8565b5b60015f0383147f8000000000000000000000000000000000000000000000000000000000000000831416156120b6576120b56116da565b5b828205905092915050565b5f60c0820190506120d45f830189611b21565b6120e16020830188611b21565b6120ee6040830187611b21565b6120fb6060830186611b21565b6121086080830185611b12565b61211560a0830184611b12565b979650505050505050565b5f82825260208201905092915050565b5f61213a826110cd565b6121448185612120565b93506121548185602086016110e7565b61215d81610dfa565b840191505092915050565b5f6040820190508181035f83015261217f81611a6d565b905081810360208301526121938184612130565b905092915050565b7f4d7573742070726f76696465206174206c65617374206f6e65206368616e67655f8201527f6420736f75726365000000000000000000000000000000000000000000000000602082015250565b5f6121f5602883611a35565b91506122008261219b565b604082019050919050565b5f6020820190508181035f830152612222816121e9565b9050919050565b7f6e6f4d617070696e6773000000000000000000000000000000000000000000005f82015250565b5f61225d600a83611a35565b915061226882612229565b602082019050919050565b5f6040820190508181035f83015261228a81612251565b9050818103602083015261229e8184611a9f565b905092915050565b5f81905092915050565b5f819050815f5260205f209050919050565b5f81546122ce81611d20565b6122d881866122a6565b9450600182165f81146122f2576001811461230757612339565b60ff1983168652811515820286019350612339565b612310856122b0565b5f5b8381101561233157815481890152600182019150602081019050612312565b838801955050505b50505092915050565b5f61234d82846122c2565b915081905092915050565b5f815461236481611d20565b61236e8186611a35565b9450600182165f8114612388576001811461239e576123d0565b60ff1983168652811515602002860193506123d0565b6123a785611d50565b5f5b838110156123c8578154818901526001820191506020810190506123a9565b808801955050505b50505092915050565b5f6080820190508181035f8301526123f18187612358565b905081810360208301526124058186612358565b905081810360408301526124198185612358565b90506124286060830184611b12565b95945050505050565b5f6040820190508181035f83015261244881611a6d565b9050818103602083015261245c8184611a9f565b90509291505056fea2646970667358221220df7551b548434ed1b73f5380f118e3deafa78b906c60a75bd4525bb3a2a9362364736f6c63430008140033","linkReferences":{}},"methodIdentifiers":{"analyze(string[],string)":"e39da3bb","record(string,string,string,string[],int256,bool)":"6a64f5e5","select(bytes[],bytes)":"201978fb","statistics()":"95e272bd"},"id":287}