{"abi":[{"type":"function","name":"mount","inputs":[{"name":"host","type":"bytes32","internalType":"bytes32"},{"name":"concept","type":"string","internalType":"string"},{"name":"viewName","type":"string","internalType":"string"},{"name":"level","type":"int256","internalType":"int256"},{"name":"zone","type":"string","internalType":"string"}],"outputs":[{"name":"","type":"tuple","internalType":"struct Host.MountOkResult","components":[{"name":"success","type":"bool","internalType":"bool"},{"name":"host","type":"bytes32","internalType":"bytes32"}]}],"stateMutability":"nonpayable"},{"type":"function","name":"ready","inputs":[{"name":"host","type":"bytes32","internalType":"bytes32"}],"outputs":[{"name":"","type":"tuple","internalType":"struct Host.ReadyOkResult","components":[{"name":"success","type":"bool","internalType":"bool"},{"name":"host","type":"bytes32","internalType":"bytes32"}]}],"stateMutability":"nonpayable"},{"type":"function","name":"refresh","inputs":[{"name":"host","type":"bytes32","internalType":"bytes32"}],"outputs":[{"name":"","type":"tuple","internalType":"struct Host.RefreshOkResult","components":[{"name":"success","type":"bool","internalType":"bool"},{"name":"host","type":"bytes32","internalType":"bytes32"}]}],"stateMutability":"nonpayable"},{"type":"function","name":"setError","inputs":[{"name":"host","type":"bytes32","internalType":"bytes32"},{"name":"errorInfo","type":"string","internalType":"string"}],"outputs":[{"name":"","type":"tuple","internalType":"struct Host.SetErrorOkResult","components":[{"name":"success","type":"bool","internalType":"bool"},{"name":"host","type":"bytes32","internalType":"bytes32"}]}],"stateMutability":"nonpayable"},{"type":"function","name":"trackResource","inputs":[{"name":"host","type":"bytes32","internalType":"bytes32"},{"name":"kind","type":"string","internalType":"string"},{"name":"ref","type":"string","internalType":"string"}],"outputs":[{"name":"","type":"tuple","internalType":"struct Host.TrackResourceOkResult","components":[{"name":"success","type":"bool","internalType":"bool"},{"name":"host","type":"bytes32","internalType":"bytes32"}]}],"stateMutability":"nonpayable"},{"type":"function","name":"unmount","inputs":[{"name":"host","type":"bytes32","internalType":"bytes32"}],"outputs":[{"name":"","type":"tuple","internalType":"struct Host.UnmountOkResult","components":[{"name":"success","type":"bool","internalType":"bool"},{"name":"host","type":"bytes32","internalType":"bytes32"}]}],"stateMutability":"nonpayable"},{"type":"event","name":"MountCompleted","inputs":[{"name":"variant","type":"string","indexed":false,"internalType":"string"},{"name":"host","type":"bytes32","indexed":true,"internalType":"bytes32"}],"anonymous":false},{"type":"event","name":"ReadyCompleted","inputs":[{"name":"variant","type":"string","indexed":false,"internalType":"string"},{"name":"host","type":"bytes32","indexed":true,"internalType":"bytes32"}],"anonymous":false},{"type":"event","name":"RefreshCompleted","inputs":[{"name":"variant","type":"string","indexed":false,"internalType":"string"},{"name":"host","type":"bytes32","indexed":true,"internalType":"bytes32"}],"anonymous":false},{"type":"event","name":"SetErrorCompleted","inputs":[{"name":"variant","type":"string","indexed":false,"internalType":"string"},{"name":"host","type":"bytes32","indexed":true,"internalType":"bytes32"}],"anonymous":false},{"type":"event","name":"TrackResourceCompleted","inputs":[{"name":"variant","type":"string","indexed":false,"internalType":"string"},{"name":"host","type":"bytes32","indexed":true,"internalType":"bytes32"}],"anonymous":false},{"type":"event","name":"UnmountCompleted","inputs":[{"name":"variant","type":"string","indexed":false,"internalType":"string"},{"name":"host","type":"bytes32","indexed":true,"internalType":"bytes32"}],"anonymous":false}],"bytecode":{"object":"0x608060405234801561000f575f80fd5b506116318061001d5f395ff3fe608060405234801561000f575f80fd5b5060043610610060575f3560e01c80633f428d771461006457806365913bec146100945780638eb64f6d146100c4578063dc4cfa2f146100f4578063ed7b8bd014610124578063fcac49a214610154575b5f80fd5b61007e60048036038101906100799190610d2f565b610184565b60405161008b9190610ddf565b60405180910390f35b6100ae60048036038101906100a99190610df8565b610260565b6040516100bb9190610ead565b60405180910390f35b6100de60048036038101906100d99190610ec6565b610403565b6040516100eb9190610f1e565b60405180910390f35b61010e60048036038101906101099190610ec6565b61058d565b60405161011b9190610f64565b60405180910390f35b61013e60048036038101906101399190610fb0565b6106d5565b60405161014b91906110a8565b60405180910390f35b61016e60048036038101906101699190610ec6565b610908565b60405161017b91906110ee565b60405180910390f35b61018c610a4d565b60015f8481526020019081526020015f205f9054906101000a900460ff166101e9576040517f08c379a00000000000000000000000000000000000000000000000000000000081526004016101e090611161565b60405180910390fd5b815f808581526020019081526020015f206005019081610209919061138c565b50827f6e6c6e2338d4d0e9313f498b56fc0ee3c7fcc7c0be2e08feae5c5c804d8d3163604051610238906114a5565b60405180910390a2604051806040016040528060011515815260200184815250905092915050565b610268610a6a565b60015f8581526020019081526020015f205f9054906101000a900460ff166102c5576040517f08c379a00000000000000000000000000000000000000000000000000000000081526004016102bc90611161565b60405180910390fd5b5f808581526020019081526020015f206004015f9054906101000a900460ff16610324576040517f08c379a000000000000000000000000000000000000000000000000000000000815260040161031b9061150d565b60405180910390fd5b60025f8581526020019081526020015f20604051806060016040528085815260200184815260200142815250908060018154018082558091505060019003905f5260205f2090600302015f909190919091505f820151815f019081610389919061138c565b50602082015181600101908161039f919061138c565b50604082015181600201555050837fe91bf7301f99304f3e51324d4fbe588860d75a42a3488637e4f7be18190452d06040516103da906114a5565b60405180910390a260405180604001604052806001151581526020018581525090509392505050565b61040b610a87565b60015f8381526020019081526020015f205f9054906101000a900460ff16610468576040517f08c379a000000000000000000000000000000000000000000000000000000000815260040161045f90611161565b60405180910390fd5b5f808381526020019081526020015f206004015f9054906101000a900460ff166104c7576040517f08c379a00000000000000000000000000000000000000000000000000000000081526004016104be9061150d565b60405180910390fd5b5f805f8481526020019081526020015f206004015f6101000a81548160ff0219169083151502179055505f805f8481526020019081526020015f2060040160016101000a81548160ff02191690831515021790555060025f8381526020019081526020015f205f6105389190610aa4565b817fd9e2556004c3ff5999a14b0647cee3957b7fb312874054f371cefdd2034aa8cd604051610566906114a5565b60405180910390a26040518060400160405280600115158152602001838152509050919050565b610595610ac5565b60015f8381526020019081526020015f205f9054906101000a900460ff166105f2576040517f08c379a00000000000000000000000000000000000000000000000000000000081526004016105e990611161565b60405180910390fd5b5f808381526020019081526020015f206004015f9054906101000a900460ff16610651576040517f08c379a00000000000000000000000000000000000000000000000000000000081526004016106489061150d565b60405180910390fd5b60405180602001604052805f8152505f808481526020019081526020015f20600501908161067f919061138c565b50817fbb79253920823a20825aeb0173c9e3e21a28a8099d1afadee9ea82e47df0745e6040516106ae906114a5565b60405180910390a26040518060400160405280600115158152602001838152509050919050565b6106dd610ae2565b60015f8781526020019081526020015f205f9054906101000a900460ff161561073b576040517f08c379a000000000000000000000000000000000000000000000000000000000815260040161073290611575565b60405180910390fd5b5f85511161077e576040517f08c379a0000000000000000000000000000000000000000000000000000000008152600401610775906115dd565b60405180910390fd5b6040518061010001604052808681526020018581526020018481526020018381526020016001151581526020015f1515815260200160405180602001604052805f8152508152602001428152505f808881526020019081526020015f205f820151815f0190816107ee919061138c565b506020820151816001019081610804919061138c565b50604082015181600201556060820151816003019081610824919061138c565b506080820151816004015f6101000a81548160ff02191690831515021790555060a08201518160040160016101000a81548160ff02191690831515021790555060c0820151816005019081610879919061138c565b5060e082015181600601559050506001805f8881526020019081526020015f205f6101000a81548160ff021916908315150217905550857fe1fae02c456ba8f92240cc025b75fe6ebe6bc92d38c8bd94dda7cffff62c51b76040516108dd906114a5565b60405180910390a2604051806040016040528060011515815260200187815250905095945050505050565b610910610aff565b60015f8381526020019081526020015f205f9054906101000a900460ff1661096d576040517f08c379a000000000000000000000000000000000000000000000000000000000815260040161096490611161565b60405180910390fd5b5f808381526020019081526020015f206004015f9054906101000a900460ff166109cc576040517f08c379a00000000000000000000000000000000000000000000000000000000081526004016109c39061150d565b60405180910390fd5b60015f808481526020019081526020015f2060040160016101000a81548160ff021916908315150217905550817fa7190907d87a7840bf324f1b585b05726c65668587e5219d63e3fd9ad9df2060604051610a26906114a5565b60405180910390a26040518060400160405280600115158152602001838152509050919050565b60405180604001604052805f151581526020015f80191681525090565b60405180604001604052805f151581526020015f80191681525090565b60405180604001604052805f151581526020015f80191681525090565b5080545f8255600302905f5260205f2090810190610ac29190610b1c565b50565b60405180604001604052805f151581526020015f80191681525090565b60405180604001604052805f151581526020015f80191681525090565b60405180604001604052805f151581526020015f80191681525090565b5b80821115610b53575f8082015f610b349190610b57565b600182015f610b439190610b57565b600282015f905550600301610b1d565b5090565b508054610b63906111b6565b5f825580601f10610b745750610b91565b601f0160209004905f5260205f2090810190610b909190610b94565b5b50565b5b80821115610bab575f815f905550600101610b95565b5090565b5f604051905090565b5f80fd5b5f80fd5b5f819050919050565b610bd281610bc0565b8114610bdc575f80fd5b50565b5f81359050610bed81610bc9565b92915050565b5f80fd5b5f80fd5b5f601f19601f8301169050919050565b7f4e487b71000000000000000000000000000000000000000000000000000000005f52604160045260245ffd5b610c4182610bfb565b810181811067ffffffffffffffff82111715610c6057610c5f610c0b565b5b80604052505050565b5f610c72610baf565b9050610c7e8282610c38565b919050565b5f67ffffffffffffffff821115610c9d57610c9c610c0b565b5b610ca682610bfb565b9050602081019050919050565b828183375f83830152505050565b5f610cd3610cce84610c83565b610c69565b905082815260208101848484011115610cef57610cee610bf7565b5b610cfa848285610cb3565b509392505050565b5f82601f830112610d1657610d15610bf3565b5b8135610d26848260208601610cc1565b91505092915050565b5f8060408385031215610d4557610d44610bb8565b5b5f610d5285828601610bdf565b925050602083013567ffffffffffffffff811115610d7357610d72610bbc565b5b610d7f85828601610d02565b9150509250929050565b5f8115159050919050565b610d9d81610d89565b82525050565b610dac81610bc0565b82525050565b604082015f820151610dc65f850182610d94565b506020820151610dd96020850182610da3565b50505050565b5f604082019050610df25f830184610db2565b92915050565b5f805f60608486031215610e0f57610e0e610bb8565b5b5f610e1c86828701610bdf565b935050602084013567ffffffffffffffff811115610e3d57610e3c610bbc565b5b610e4986828701610d02565b925050604084013567ffffffffffffffff811115610e6a57610e69610bbc565b5b610e7686828701610d02565b9150509250925092565b604082015f820151610e945f850182610d94565b506020820151610ea76020850182610da3565b50505050565b5f604082019050610ec05f830184610e80565b92915050565b5f60208284031215610edb57610eda610bb8565b5b5f610ee884828501610bdf565b91505092915050565b604082015f820151610f055f850182610d94565b506020820151610f186020850182610da3565b50505050565b5f604082019050610f315f830184610ef1565b92915050565b604082015f820151610f4b5f850182610d94565b506020820151610f5e6020850182610da3565b50505050565b5f604082019050610f775f830184610f37565b92915050565b5f819050919050565b610f8f81610f7d565b8114610f99575f80fd5b50565b5f81359050610faa81610f86565b92915050565b5f805f805f60a08688031215610fc957610fc8610bb8565b5b5f610fd688828901610bdf565b955050602086013567ffffffffffffffff811115610ff757610ff6610bbc565b5b61100388828901610d02565b945050604086013567ffffffffffffffff81111561102457611023610bbc565b5b61103088828901610d02565b935050606061104188828901610f9c565b925050608086013567ffffffffffffffff81111561106257611061610bbc565b5b61106e88828901610d02565b9150509295509295909350565b604082015f82015161108f5f850182610d94565b5060208201516110a26020850182610da3565b50505050565b5f6040820190506110bb5f83018461107b565b92915050565b604082015f8201516110d55f850182610d94565b5060208201516110e86020850182610da3565b50505050565b5f6040820190506111015f8301846110c1565b92915050565b5f82825260208201905092915050565b7f486f7374206e6f7420666f756e640000000000000000000000000000000000005f82015250565b5f61114b600e83611107565b915061115682611117565b602082019050919050565b5f6020820190508181035f8301526111788161113f565b9050919050565b5f81519050919050565b7f4e487b71000000000000000000000000000000000000000000000000000000005f52602260045260245ffd5b5f60028204905060018216806111cd57607f821691505b6020821081036111e0576111df611189565b5b50919050565b5f819050815f5260205f209050919050565b5f6020601f8301049050919050565b5f82821b905092915050565b5f600883026112427fffffffffffffffffffffffffffffffffffffffffffffffffffffffffffffffff82611207565b61124c8683611207565b95508019841693508086168417925050509392505050565b5f819050919050565b5f819050919050565b5f61129061128b61128684611264565b61126d565b611264565b9050919050565b5f819050919050565b6112a983611276565b6112bd6112b582611297565b848454611213565b825550505050565b5f90565b6112d16112c5565b6112dc8184846112a0565b505050565b5b818110156112ff576112f45f826112c9565b6001810190506112e2565b5050565b601f82111561134457611315816111e6565b61131e846111f8565b8101602085101561132d578190505b611341611339856111f8565b8301826112e1565b50505b505050565b5f82821c905092915050565b5f6113645f1984600802611349565b1980831691505092915050565b5f61137c8383611355565b9150826002028217905092915050565b6113958261117f565b67ffffffffffffffff8111156113ae576113ad610c0b565b5b6113b882546111b6565b6113c3828285611303565b5f60209050601f8311600181146113f4575f84156113e2578287015190505b6113ec8582611371565b865550611453565b601f198416611402866111e6565b5f5b8281101561142957848901518255600182019150602085019450602081019050611404565b868310156114465784890151611442601f891682611355565b8355505b6001600288020188555050505b505050505050565b7f6f6b0000000000000000000000000000000000000000000000000000000000005f82015250565b5f61148f600283611107565b915061149a8261145b565b602082019050919050565b5f6020820190508181035f8301526114bc81611483565b9050919050565b7f486f7374206e6f74206d6f756e746564000000000000000000000000000000005f82015250565b5f6114f7601083611107565b9150611502826114c3565b602082019050919050565b5f6020820190508181035f830152611524816114eb565b9050919050565b7f486f737420616c7265616479206d6f756e7465640000000000000000000000005f82015250565b5f61155f601483611107565b915061156a8261152b565b602082019050919050565b5f6020820190508181035f83015261158c81611553565b9050919050565b7f436f6e63657074207265717569726564000000000000000000000000000000005f82015250565b5f6115c7601083611107565b91506115d282611593565b602082019050919050565b5f6020820190508181035f8301526115f4816115bb565b905091905056fea26469706673582212201ecc2d4280e5b6b6a711eb61e8744bce50bcb0872c8aaf550d96e5379796c2a164736f6c63430008140033","linkReferences":{}},"methodIdentifiers":{"mount(bytes32,string,string,int256,string)":"ed7b8bd0","ready(bytes32)":"fcac49a2","refresh(bytes32)":"dc4cfa2f","setError(bytes32,string)":"3f428d77","trackResource(bytes32,string,string)":"65913bec","unmount(bytes32)":"8eb64f6d"},"id":145}