{"abi":[{"type":"function","name":"annotate","inputs":[{"name":"concept","type":"string","internalType":"string"},{"name":"scope","type":"string","internalType":"string"},{"name":"content","type":"string","internalType":"string"}],"outputs":[{"name":"","type":"tuple","internalType":"struct Annotation.AnnotateOkResult","components":[{"name":"success","type":"bool","internalType":"bool"},{"name":"annotation","type":"bytes32","internalType":"bytes32"},{"name":"keyCount","type":"int256","internalType":"int256"}]}],"stateMutability":"nonpayable"},{"type":"function","name":"resolve","inputs":[{"name":"concept","type":"string","internalType":"string"}],"outputs":[{"name":"","type":"tuple","internalType":"struct Annotation.ResolveOkResult","components":[{"name":"success","type":"bool","internalType":"bool"},{"name":"annotations","type":"string[]","internalType":"string[]"}]}],"stateMutability":"nonpayable"},{"type":"event","name":"AnnotateCompleted","inputs":[{"name":"variant","type":"string","indexed":false,"internalType":"string"},{"name":"annotation","type":"bytes32","indexed":false,"internalType":"bytes32"},{"name":"keyCount","type":"int256","indexed":false,"internalType":"int256"}],"anonymous":false},{"type":"event","name":"ResolveCompleted","inputs":[{"name":"variant","type":"string","indexed":false,"internalType":"string"},{"name":"annotations","type":"string[]","indexed":false,"internalType":"string[]"}],"anonymous":false}],"bytecode":{"object":"0x608060405234801561000f575f80fd5b506111268061001d5f395ff3fe608060405234801561000f575f80fd5b5060043610610034575f3560e01c8063461a44781461003857806372c00d8c14610068575b5f80fd5b610052600480360381019061004d919061070b565b610098565b60405161005f91906108db565b60405180910390f35b610082600480360381019061007d91906108fb565b6102c4565b60405161008f9190610a0f565b60405180910390f35b6100a0610580565b5f8251116100e3576040517f08c379a00000000000000000000000000000000000000000000000000000000081526004016100da90610a82565b60405180910390fd5b5f826040516020016100f59190610ada565b6040516020818303038152906040528051906020012090505f60025f8381526020019081526020015f2090505f818054905067ffffffffffffffff8111156101405761013f6105e7565b5b60405190808252806020026020018201604052801561017357816020015b606081526020019060019003908161015e5790505b5090505f5b828054905081101561026a575f8084838154811061019957610198610af0565b5b905f5260205f20015481526020019081526020015f2060020180546101bd90610b4a565b80601f01602080910402602001604051908101604052809291908181526020018280546101e990610b4a565b80156102345780601f1061020b57610100808354040283529160200191610234565b820191905f5260205f20905b81548152906001019060200180831161021757829003601f168201915b505050505082828151811061024c5761024b610af0565b5b6020026020010181905250808061026290610bb0565b915050610178565b507f8715fe280cf99a1be415db7c93ba2c96eb08c828b6e41a322fd2f679bda74c688160405161029a9190610cc4565b60405180910390a16040518060400160405280600115158152602001828152509350505050919050565b6102cc61059b565b5f84511161030f576040517f08c379a000000000000000000000000000000000000000000000000000000000815260040161030690610a82565b60405180910390fd5b5f835111610352576040517f08c379a000000000000000000000000000000000000000000000000000000000815260040161034990610d41565b60405180910390fd5b5f825111610395576040517f08c379a000000000000000000000000000000000000000000000000000000000815260040161038c90610da9565b60405180910390fd5b5f84844260035f8154809291906103ab90610bb0565b919050556040516020016103c29493929190610de7565b6040516020818303038152906040528051906020012090506040518060a00160405280868152602001858152602001848152602001428152602001600115158152505f808381526020019081526020015f205f820151815f0190816104279190610fc9565b50602082015181600101908161043d9190610fc9565b5060408201518160020190816104539190610fc9565b50606082015181600301556080820151816004015f6101000a81548160ff021916908315150217905550905050600181908060018154018082558091505060019003905f5260205f20015f90919091909150555f856040516020016104b89190610ada565b60405160208183030381529060405280519060200120905060025f8281526020019081526020015f2082908060018154018082558091505060019003905f5260205f20015f90919091909150555f60025f8381526020019081526020015f208054905090507fbe5f85f3b6f791a6fe0af658e0e37eb59a21967b5b4f24dde397ff0ff8afce67838260405161054e9291906110b6565b60405180910390a160405180606001604052806001151581526020018481526020018281525093505050509392505050565b60405180604001604052805f15158152602001606081525090565b60405180606001604052805f151581526020015f80191681526020015f81525090565b5f604051905090565b5f80fd5b5f80fd5b5f80fd5b5f80fd5b5f601f19601f8301169050919050565b7f4e487b71000000000000000000000000000000000000000000000000000000005f52604160045260245ffd5b61061d826105d7565b810181811067ffffffffffffffff8211171561063c5761063b6105e7565b5b80604052505050565b5f61064e6105be565b905061065a8282610614565b919050565b5f67ffffffffffffffff821115610679576106786105e7565b5b610682826105d7565b9050602081019050919050565b828183375f83830152505050565b5f6106af6106aa8461065f565b610645565b9050828152602081018484840111156106cb576106ca6105d3565b5b6106d684828561068f565b509392505050565b5f82601f8301126106f2576106f16105cf565b5b813561070284826020860161069d565b91505092915050565b5f602082840312156107205761071f6105c7565b5b5f82013567ffffffffffffffff81111561073d5761073c6105cb565b5b610749848285016106de565b91505092915050565b5f8115159050919050565b61076681610752565b82525050565b5f81519050919050565b5f82825260208201905092915050565b5f819050602082019050919050565b5f81519050919050565b5f82825260208201905092915050565b5f5b838110156107cc5780820151818401526020810190506107b1565b5f8484015250505050565b5f6107e182610795565b6107eb818561079f565b93506107fb8185602086016107af565b610804816105d7565b840191505092915050565b5f61081a83836107d7565b905092915050565b5f602082019050919050565b5f6108388261076c565b6108428185610776565b93508360208202850161085485610786565b805f5b8581101561088f5784840389528151610870858261080f565b945061087b83610822565b925060208a01995050600181019050610857565b50829750879550505050505092915050565b5f604083015f8301516108b65f86018261075d565b50602083015184820360208601526108ce828261082e565b9150508091505092915050565b5f6020820190508181035f8301526108f381846108a1565b905092915050565b5f805f60608486031215610912576109116105c7565b5b5f84013567ffffffffffffffff81111561092f5761092e6105cb565b5b61093b868287016106de565b935050602084013567ffffffffffffffff81111561095c5761095b6105cb565b5b610968868287016106de565b925050604084013567ffffffffffffffff811115610989576109886105cb565b5b610995868287016106de565b9150509250925092565b5f819050919050565b6109b18161099f565b82525050565b5f819050919050565b6109c9816109b7565b82525050565b606082015f8201516109e35f85018261075d565b5060208201516109f660208501826109a8565b506040820151610a0960408501826109c0565b50505050565b5f606082019050610a225f8301846109cf565b92915050565b5f82825260208201905092915050565b7f436f6e63657074206e616d65206d757374206e6f7420626520656d70747900005f82015250565b5f610a6c601e83610a28565b9150610a7782610a38565b602082019050919050565b5f6020820190508181035f830152610a9981610a60565b9050919050565b5f81905092915050565b5f610ab482610795565b610abe8185610aa0565b9350610ace8185602086016107af565b80840191505092915050565b5f610ae58284610aaa565b915081905092915050565b7f4e487b71000000000000000000000000000000000000000000000000000000005f52603260045260245ffd5b7f4e487b71000000000000000000000000000000000000000000000000000000005f52602260045260245ffd5b5f6002820490506001821680610b6157607f821691505b602082108103610b7457610b73610b1d565b5b50919050565b7f4e487b71000000000000000000000000000000000000000000000000000000005f52601160045260245ffd5b5f819050919050565b5f610bba82610ba7565b91507fffffffffffffffffffffffffffffffffffffffffffffffffffffffffffffffff8203610bec57610beb610b7a565b5b600182019050919050565b7f6f6b0000000000000000000000000000000000000000000000000000000000005f82015250565b5f610c2b600283610a28565b9150610c3682610bf7565b602082019050919050565b5f82825260208201905092915050565b5f610c5b8261076c565b610c658185610c41565b935083602082028501610c7785610786565b805f5b85811015610cb25784840389528151610c93858261080f565b9450610c9e83610822565b925060208a01995050600181019050610c7a565b50829750879550505050505092915050565b5f6040820190508181035f830152610cdb81610c1f565b90508181036020830152610cef8184610c51565b905092915050565b7f53636f7065206d757374206e6f7420626520656d7074790000000000000000005f82015250565b5f610d2b601783610a28565b9150610d3682610cf7565b602082019050919050565b5f6020820190508181035f830152610d5881610d1f565b9050919050565b7f436f6e74656e74206d757374206e6f7420626520656d707479000000000000005f82015250565b5f610d93601983610a28565b9150610d9e82610d5f565b602082019050919050565b5f6020820190508181035f830152610dc081610d87565b9050919050565b5f819050919050565b610de1610ddc82610ba7565b610dc7565b82525050565b5f610df28287610aaa565b9150610dfe8286610aaa565b9150610e0a8285610dd0565b602082019150610e1a8284610dd0565b60208201915081905095945050505050565b5f819050815f5260205f209050919050565b5f6020601f8301049050919050565b5f82821b905092915050565b5f60088302610e887fffffffffffffffffffffffffffffffffffffffffffffffffffffffffffffffff82610e4d565b610e928683610e4d565b95508019841693508086168417925050509392505050565b5f819050919050565b5f610ecd610ec8610ec384610ba7565b610eaa565b610ba7565b9050919050565b5f819050919050565b610ee683610eb3565b610efa610ef282610ed4565b848454610e59565b825550505050565b5f90565b610f0e610f02565b610f19818484610edd565b505050565b5b81811015610f3c57610f315f82610f06565b600181019050610f1f565b5050565b601f821115610f8157610f5281610e2c565b610f5b84610e3e565b81016020851015610f6a578190505b610f7e610f7685610e3e565b830182610f1e565b50505b505050565b5f82821c905092915050565b5f610fa15f1984600802610f86565b1980831691505092915050565b5f610fb98383610f92565b9150826002028217905092915050565b610fd282610795565b67ffffffffffffffff811115610feb57610fea6105e7565b5b610ff58254610b4a565b611000828285610f40565b5f60209050601f831160018114611031575f841561101f578287015190505b6110298582610fae565b865550611090565b601f19841661103f86610e2c565b5f5b8281101561106657848901518255600182019150602085019450602081019050611041565b86831015611083578489015161107f601f891682610f92565b8355505b6001600288020188555050505b505050505050565b6110a18161099f565b82525050565b6110b0816109b7565b82525050565b5f6060820190508181035f8301526110cd81610c1f565b90506110dc6020830185611098565b6110e960408301846110a7565b939250505056fea2646970667358221220b9ab000f2bfa451bfc1f36c688b0b98e89a1284d97cfb7543108fcb7c34fdf0464736f6c63430008140033","linkReferences":{}},"methodIdentifiers":{"annotate(string,string,string)":"72c00d8c","resolve(string)":"461a4478"},"id":28}