{"abi":[{"type":"function","name":"detect","inputs":[{"name":"base","type":"bytes","internalType":"bytes"},{"name":"version1","type":"bytes","internalType":"bytes"},{"name":"version2","type":"bytes","internalType":"bytes"},{"name":"context","type":"string","internalType":"string"}],"outputs":[{"name":"conflictId","type":"bytes32","internalType":"bytes32"}],"stateMutability":"nonpayable"},{"type":"function","name":"getConflict","inputs":[{"name":"conflictId","type":"bytes32","internalType":"bytes32"}],"outputs":[{"name":"","type":"tuple","internalType":"struct ConflictResolution.ConflictInfo","components":[{"name":"base","type":"bytes","internalType":"bytes"},{"name":"version1","type":"bytes","internalType":"bytes"},{"name":"version2","type":"bytes","internalType":"bytes"},{"name":"context","type":"string","internalType":"string"},{"name":"resolution","type":"bytes","internalType":"bytes"},{"name":"resolved","type":"bool","internalType":"bool"},{"name":"requiresHuman","type":"bool","internalType":"bool"},{"name":"exists","type":"bool","internalType":"bool"}]}],"stateMutability":"view"},{"type":"function","name":"getPendingConflicts","inputs":[],"outputs":[{"name":"","type":"bytes32[]","internalType":"bytes32[]"}],"stateMutability":"view"},{"type":"function","name":"getPolicy","inputs":[{"name":"policyId","type":"bytes32","internalType":"bytes32"}],"outputs":[{"name":"","type":"tuple","internalType":"struct ConflictResolution.PolicyInfo","components":[{"name":"name","type":"string","internalType":"string"},{"name":"priority","type":"uint256","internalType":"uint256"},{"name":"exists","type":"bool","internalType":"bool"}]}],"stateMutability":"view"},{"type":"function","name":"manualResolve","inputs":[{"name":"conflictId","type":"bytes32","internalType":"bytes32"},{"name":"chosen","type":"bytes","internalType":"bytes"}],"outputs":[{"name":"result","type":"bytes","internalType":"bytes"}],"stateMutability":"nonpayable"},{"type":"function","name":"registerPolicy","inputs":[{"name":"name","type":"string","internalType":"string"},{"name":"priority","type":"uint256","internalType":"uint256"}],"outputs":[{"name":"policyId","type":"bytes32","internalType":"bytes32"}],"stateMutability":"nonpayable"},{"type":"function","name":"resolve","inputs":[{"name":"conflictId","type":"bytes32","internalType":"bytes32"},{"name":"policyOverride","type":"bytes32","internalType":"bytes32"}],"outputs":[{"name":"resolved","type":"bool","internalType":"bool"},{"name":"result","type":"bytes","internalType":"bytes"}],"stateMutability":"nonpayable"},{"type":"event","name":"ConflictDetected","inputs":[{"name":"conflictId","type":"bytes32","indexed":true,"internalType":"bytes32"},{"name":"context","type":"string","indexed":false,"internalType":"string"}],"anonymous":false},{"type":"event","name":"ConflictResolved","inputs":[{"name":"conflictId","type":"bytes32","indexed":true,"internalType":"bytes32"},{"name":"automatic","type":"bool","indexed":false,"internalType":"bool"}],"anonymous":false},{"type":"event","name":"NoConflict","inputs":[{"name":"base","type":"bytes32","indexed":true,"internalType":"bytes32"}],"anonymous":false},{"type":"event","name":"PolicyRegistered","inputs":[{"name":"policyId","type":"bytes32","indexed":true,"internalType":"bytes32"},{"name":"name","type":"string","indexed":false,"internalType":"string"},{"name":"priority","type":"uint256","indexed":false,"internalType":"uint256"}],"anonymous":false}],"bytecode":{"object":"0x608060405234801561000f575f80fd5b5061257d8061001d5f395ff3fe608060405234801561000f575f80fd5b506004361061007b575f3560e01c8063a3f685f911610059578063a3f685f9146100fe578063a534a0f51461012e578063b3c4ea4a1461015e578063e7bb08c81461018e5761007b565b8063077dda781461007f57806309f45f13146100b0578063911068f9146100ce575b5f80fd5b610099600480360381019061009491906112b7565b6101be565b6040516100a7929190611399565b60405180910390f35b6100b861047d565b6040516100c5919061147e565b60405180910390f35b6100e860048036038101906100e3919061149e565b6104d3565b6040516100f5919061163b565b60405180910390f35b6101186004803603810190610113919061149e565b61087f565b60405161012591906116c0565b60405180910390f35b61014860048036038101906101439190611741565b6109bb565b604051610155919061179e565b60405180910390f35b61017860048036038101906101739190611813565b610bcd565b6040516101859190611906565b60405180910390f35b6101a860048036038101906101a39190611949565b610f8b565b6040516101b59190611906565b60405180910390f35b5f606060015f8581526020019081526020015f2060050160029054906101000a900460ff16610222576040517f08c379a000000000000000000000000000000000000000000000000000000000815260040161021990611a00565b60405180910390fd5b60015f8581526020019081526020015f206005015f9054906101000a900460ff1615610283576040517f08c379a000000000000000000000000000000000000000000000000000000000815260040161027a90611a68565b60405180910390fd5b5f801b8314610435575f808481526020019081526020015f206002015f9054906101000a900460ff166102eb576040517f08c379a00000000000000000000000000000000000000000000000000000000081526004016102e290611ad0565b60405180910390fd5b60015f8581526020019081526020015f2060010160015f8681526020019081526020015f20600401908161031f9190611d3c565b506001805f8681526020019081526020015f206005015f6101000a81548160ff02191690831515021790555061035484611152565b837fb87163d519f895a6d9a3567b1e0f45e04bd4b558d987989be6b6e816430eceea60016040516103859190611e21565b60405180910390a26001805f8681526020019081526020015f206004018080546103ae90611b1b565b80601f01602080910402602001604051908101604052809291908181526020018280546103da90611b1b565b80156104255780601f106103fc57610100808354040283529160200191610425565b820191905f5260205f20905b81548152906001019060200180831161040857829003601f168201915b5050505050905091509150610476565b6001805f8681526020019081526020015f2060050160016101000a81548160ff0219169083151502179055505f60405180602001604052805f815250915091505b9250929050565b606060028054806020026020016040519081016040528092919081815260200182805480156104c957602002820191905f5260205f20905b8154815260200190600101908083116104b5575b5050505050905090565b6104db611213565b60015f8381526020019081526020015f2060050160029054906101000a900460ff1661053c576040517f08c379a000000000000000000000000000000000000000000000000000000000815260040161053390611a00565b60405180910390fd5b60015f8381526020019081526020015f20604051806101000160405290815f8201805461056890611b1b565b80601f016020809104026020016040519081016040528092919081815260200182805461059490611b1b565b80156105df5780601f106105b6576101008083540402835291602001916105df565b820191905f5260205f20905b8154815290600101906020018083116105c257829003601f168201915b505050505081526020016001820180546105f890611b1b565b80601f016020809104026020016040519081016040528092919081815260200182805461062490611b1b565b801561066f5780601f106106465761010080835404028352916020019161066f565b820191905f5260205f20905b81548152906001019060200180831161065257829003601f168201915b5050505050815260200160028201805461068890611b1b565b80601f01602080910402602001604051908101604052809291908181526020018280546106b490611b1b565b80156106ff5780601f106106d6576101008083540402835291602001916106ff565b820191905f5260205f20905b8154815290600101906020018083116106e257829003601f168201915b5050505050815260200160038201805461071890611b1b565b80601f016020809104026020016040519081016040528092919081815260200182805461074490611b1b565b801561078f5780601f106107665761010080835404028352916020019161078f565b820191905f5260205f20905b81548152906001019060200180831161077257829003601f168201915b505050505081526020016004820180546107a890611b1b565b80601f01602080910402602001604051908101604052809291908181526020018280546107d490611b1b565b801561081f5780601f106107f65761010080835404028352916020019161081f565b820191905f5260205f20905b81548152906001019060200180831161080257829003601f168201915b50505050508152602001600582015f9054906101000a900460ff161515151581526020016005820160019054906101000a900460ff161515151581526020016005820160029054906101000a900460ff1615151515815250509050919050565b61088761125b565b5f808381526020019081526020015f206002015f9054906101000a900460ff166108e6576040517f08c379a00000000000000000000000000000000000000000000000000000000081526004016108dd90611ad0565b60405180910390fd5b5f808381526020019081526020015f206040518060600160405290815f8201805461091090611b1b565b80601f016020809104026020016040519081016040528092919081815260200182805461093c90611b1b565b80156109875780601f1061095e57610100808354040283529160200191610987565b820191905f5260205f20905b81548152906001019060200180831161096a57829003601f168201915b5050505050815260200160018201548152602001600282015f9054906101000a900460ff1615151515815250509050919050565b606060015f8581526020019081526020015f2060050160029054906101000a900460ff16610a1e576040517f08c379a0000000000000000000000000000000000000000000000000000000008152600401610a1590611a00565b60405180910390fd5b60015f8581526020019081526020015f206005015f9054906101000a900460ff1615610a7f576040517f08c379a0000000000000000000000000000000000000000000000000000000008152600401610a7690611a68565b60405180910390fd5b5f8383905011610ac4576040517f08c379a0000000000000000000000000000000000000000000000000000000008152600401610abb90611e84565b60405180910390fd5b828260015f8781526020019081526020015f206004019182610ae7929190611eac565b506001805f8681526020019081526020015f206005015f6101000a81548160ff0219169083151502179055505f60015f8681526020019081526020015f2060050160016101000a81548160ff021916908315150217905550610b4884611152565b837fb87163d519f895a6d9a3567b1e0f45e04bd4b558d987989be6b6e816430eceea5f604051610b789190611e21565b60405180910390a282828080601f0160208091040260200160405190810160405280939291908181526020018383808284375f81840152601f19601f8201169050808301925050505050505090509392505050565b5f808989905011610c13576040517f08c379a0000000000000000000000000000000000000000000000000000000008152600401610c0a90611fc3565b60405180910390fd5b8484604051610c2392919061201d565b60405180910390208787604051610c3b92919061201d565b604051809103902003610c96578888604051610c5892919061201d565b60405180910390207f4f0930c4900282919fa57390e18dba89bc9c235765c87fa20c0e7e63d27667c360405160405180910390a25f801b9050610f7f565b60035f815480929190610ca890612062565b9190505550888888888888600354604051602001610ccc97969594939291906120c9565b6040516020818303038152906040528051906020012090506040518061010001604052808a8a8080601f0160208091040260200160405190810160405280939291908181526020018383808284375f81840152601f19601f82011690508083019250505050505050815260200188888080601f0160208091040260200160405190810160405280939291908181526020018383808284375f81840152601f19601f82011690508083019250505050505050815260200186868080601f0160208091040260200160405190810160405280939291908181526020018383808284375f81840152601f19601f82011690508083019250505050505050815260200184848080601f0160208091040260200160405190810160405280939291908181526020018383808284375f81840152601f19601f82011690508083019250505050505050815260200160405180602001604052805f81525081526020015f151581526020015f151581526020016001151581525060015f8381526020019081526020015f205f820151815f019081610e639190612110565b506020820151816001019081610e799190612110565b506040820151816002019081610e8f9190612110565b506060820151816003019081610ea59190612237565b506080820151816004019081610ebb9190612110565b5060a0820151816005015f6101000a81548160ff02191690831515021790555060c08201518160050160016101000a81548160ff02191690831515021790555060e08201518160050160026101000a81548160ff021916908315150217905550905050600281908060018154018082558091505060019003905f5260205f20015f9091909190915055807f8b88ad29bb6b059852afb2be0c9a64b2bceac14617b0b72d607a274cb07994438484604051610f76929190612332565b60405180910390a25b98975050505050505050565b5f808484905011610fd1576040517f08c379a0000000000000000000000000000000000000000000000000000000008152600401610fc89061239e565b60405180910390fd5b838383604051602001610fe6939291906123ea565b6040516020818303038152906040528051906020012090505f808281526020019081526020015f206002015f9054906101000a900460ff161561105e576040517f08c379a00000000000000000000000000000000000000000000000000000000081526004016110559061245d565b60405180910390fd5b604051806060016040528085858080601f0160208091040260200160405190810160405280939291908181526020018383808284375f81840152601f19601f820116905080830192505050505050508152602001838152602001600115158152505f808381526020019081526020015f205f820151815f0190816110e29190612237565b50602082015181600101556040820151816002015f6101000a81548160ff021916908315150217905550905050807ff523ea5d22c991d8c7f309b996fabc727dd4a9afd3c428f64a07f9fa117664c18585856040516111439392919061248a565b60405180910390a29392505050565b5f60028054905090505f5b8181101561120e57826002828154811061117a576111796124ba565b5b905f5260205f200154036111fb57600260018361119791906124e7565b815481106111a8576111a76124ba565b5b905f5260205f200154600282815481106111c5576111c46124ba565b5b905f5260205f20018190555060028054806111e3576111e261251a565b5b600190038181905f5260205f20015f9055905561120e565b808061120690612062565b91505061115d565b505050565b60405180610100016040528060608152602001606081526020016060815260200160608152602001606081526020015f151581526020015f151581526020015f151581525090565b6040518060600160405280606081526020015f81526020015f151581525090565b5f80fd5b5f80fd5b5f819050919050565b61129681611284565b81146112a0575f80fd5b50565b5f813590506112b18161128d565b92915050565b5f80604083850312156112cd576112cc61127c565b5b5f6112da858286016112a3565b92505060206112eb858286016112a3565b9150509250929050565b5f8115159050919050565b611309816112f5565b82525050565b5f81519050919050565b5f82825260208201905092915050565b5f5b8381101561134657808201518184015260208101905061132b565b5f8484015250505050565b5f601f19601f8301169050919050565b5f61136b8261130f565b6113758185611319565b9350611385818560208601611329565b61138e81611351565b840191505092915050565b5f6040820190506113ac5f830185611300565b81810360208301526113be8184611361565b90509392505050565b5f81519050919050565b5f82825260208201905092915050565b5f819050602082019050919050565b6113f981611284565b82525050565b5f61140a83836113f0565b60208301905092915050565b5f602082019050919050565b5f61142c826113c7565b61143681856113d1565b9350611441836113e1565b805f5b8381101561147157815161145888826113ff565b975061146383611416565b925050600181019050611444565b5085935050505092915050565b5f6020820190508181035f8301526114968184611422565b905092915050565b5f602082840312156114b3576114b261127c565b5b5f6114c0848285016112a3565b91505092915050565b5f82825260208201905092915050565b5f6114e38261130f565b6114ed81856114c9565b93506114fd818560208601611329565b61150681611351565b840191505092915050565b5f81519050919050565b5f82825260208201905092915050565b5f61153582611511565b61153f818561151b565b935061154f818560208601611329565b61155881611351565b840191505092915050565b61156c816112f5565b82525050565b5f61010083015f8301518482035f86015261158d82826114d9565b915050602083015184820360208601526115a782826114d9565b915050604083015184820360408601526115c182826114d9565b915050606083015184820360608601526115db828261152b565b915050608083015184820360808601526115f582826114d9565b91505060a083015161160a60a0860182611563565b5060c083015161161d60c0860182611563565b5060e083015161163060e0860182611563565b508091505092915050565b5f6020820190508181035f8301526116538184611572565b905092915050565b5f819050919050565b61166d8161165b565b82525050565b5f606083015f8301518482035f86015261168d828261152b565b91505060208301516116a26020860182611664565b5060408301516116b56040860182611563565b508091505092915050565b5f6020820190508181035f8301526116d88184611673565b905092915050565b5f80fd5b5f80fd5b5f80fd5b5f8083601f840112611701576117006116e0565b5b8235905067ffffffffffffffff81111561171e5761171d6116e4565b5b60208301915083600182028301111561173a576117396116e8565b5b9250929050565b5f805f604084860312156117585761175761127c565b5b5f611765868287016112a3565b935050602084013567ffffffffffffffff81111561178657611785611280565b5b611792868287016116ec565b92509250509250925092565b5f6020820190508181035f8301526117b68184611361565b905092915050565b5f8083601f8401126117d3576117d26116e0565b5b8235905067ffffffffffffffff8111156117f0576117ef6116e4565b5b60208301915083600182028301111561180c5761180b6116e8565b5b9250929050565b5f805f805f805f806080898b03121561182f5761182e61127c565b5b5f89013567ffffffffffffffff81111561184c5761184b611280565b5b6118588b828c016116ec565b9850985050602089013567ffffffffffffffff81111561187b5761187a611280565b5b6118878b828c016116ec565b9650965050604089013567ffffffffffffffff8111156118aa576118a9611280565b5b6118b68b828c016116ec565b9450945050606089013567ffffffffffffffff8111156118d9576118d8611280565b5b6118e58b828c016117be565b92509250509295985092959890939650565b61190081611284565b82525050565b5f6020820190506119195f8301846118f7565b92915050565b6119288161165b565b8114611932575f80fd5b50565b5f813590506119438161191f565b92915050565b5f805f604084860312156119605761195f61127c565b5b5f84013567ffffffffffffffff81111561197d5761197c611280565b5b611989868287016117be565b9350935050602061199c86828701611935565b9150509250925092565b5f82825260208201905092915050565b7f436f6e666c69637420646f6573206e6f742065786973740000000000000000005f82015250565b5f6119ea6017836119a6565b91506119f5826119b6565b602082019050919050565b5f6020820190508181035f830152611a17816119de565b9050919050565b7f436f6e666c69637420616c7265616479207265736f6c766564000000000000005f82015250565b5f611a526019836119a6565b9150611a5d82611a1e565b602082019050919050565b5f6020820190508181035f830152611a7f81611a46565b9050919050565b7f506f6c69637920646f6573206e6f7420657869737400000000000000000000005f82015250565b5f611aba6015836119a6565b9150611ac582611a86565b602082019050919050565b5f6020820190508181035f830152611ae781611aae565b9050919050565b7f4e487b71000000000000000000000000000000000000000000000000000000005f52602260045260245ffd5b5f6002820490506001821680611b3257607f821691505b602082108103611b4557611b44611aee565b5b50919050565b5f81549050611b5981611b1b565b9050919050565b7f4e487b71000000000000000000000000000000000000000000000000000000005f52604160045260245ffd5b5f819050815f5260205f209050919050565b5f819050815f5260205f209050919050565b5f6020601f8301049050919050565b5f82821b905092915050565b5f60088302611bfb7fffffffffffffffffffffffffffffffffffffffffffffffffffffffffffffffff82611bc0565b611c058683611bc0565b95508019841693508086168417925050509392505050565b5f819050919050565b5f611c40611c3b611c368461165b565b611c1d565b61165b565b9050919050565b5f819050919050565b611c5983611c26565b611c6d611c6582611c47565b848454611bcc565b825550505050565b5f90565b611c81611c75565b611c8c818484611c50565b505050565b5b81811015611caf57611ca45f82611c79565b600181019050611c92565b5050565b601f821115611cf457611cc581611b8d565b611cce84611bb1565b81016020851015611cdd578190505b611cf1611ce985611bb1565b830182611c91565b50505b505050565b5f82821c905092915050565b5f611d145f1984600802611cf9565b1980831691505092915050565b5f611d2c8383611d05565b9150826002028217905092915050565b818103611d4a575050611e1f565b611d5382611b4b565b67ffffffffffffffff811115611d6c57611d6b611b60565b5b611d768254611b1b565b611d81828285611cb3565b5f601f831160018114611dae575f8415611d9c578287015490505b611da68582611d21565b865550611e18565b601f198416611dbc87611b9f565b9650611dc786611b8d565b5f5b82811015611dee57848901548255600182019150600185019450602081019050611dc9565b86831015611e0b5784890154611e07601f891682611d05565b8355505b6001600288020188555050505b5050505050505b565b5f602082019050611e345f830184611300565b92915050565b7f5265736f6c7574696f6e2063616e6e6f7420626520656d7074790000000000005f82015250565b5f611e6e601a836119a6565b9150611e7982611e3a565b602082019050919050565b5f6020820190508181035f830152611e9b81611e62565b9050919050565b5f82905092915050565b611eb68383611ea2565b67ffffffffffffffff811115611ecf57611ece611b60565b5b611ed98254611b1b565b611ee4828285611cb3565b5f601f831160018114611f11575f8415611eff578287013590505b611f098582611d21565b865550611f70565b601f198416611f1f86611b8d565b5f5b82811015611f4657848901358255600182019150602085019450602081019050611f21565b86831015611f635784890135611f5f601f891682611d05565b8355505b6001600288020188555050505b50505050505050565b7f426173652063616e6e6f7420626520656d7074790000000000000000000000005f82015250565b5f611fad6014836119a6565b9150611fb882611f79565b602082019050919050565b5f6020820190508181035f830152611fda81611fa1565b9050919050565b5f81905092915050565b828183375f83830152505050565b5f6120048385611fe1565b9350612011838584611feb565b82840190509392505050565b5f612029828486611ff9565b91508190509392505050565b7f4e487b71000000000000000000000000000000000000000000000000000000005f52601160045260245ffd5b5f61206c8261165b565b91507fffffffffffffffffffffffffffffffffffffffffffffffffffffffffffffffff820361209e5761209d612035565b5b600182019050919050565b5f819050919050565b6120c36120be8261165b565b6120a9565b82525050565b5f6120d582898b611ff9565b91506120e2828789611ff9565b91506120ef828587611ff9565b91506120fb82846120b2565b60208201915081905098975050505050505050565b6121198261130f565b67ffffffffffffffff81111561213257612131611b60565b5b61213c8254611b1b565b612147828285611cb3565b5f60209050601f831160018114612178575f8415612166578287015190505b6121708582611d21565b8655506121d7565b601f19841661218686611b8d565b5f5b828110156121ad57848901518255600182019150602085019450602081019050612188565b868310156121ca57848901516121c6601f891682611d05565b8355505b6001600288020188555050505b505050505050565b5f819050815f5260205f209050919050565b601f82111561223257612203816121df565b61220c84611bb1565b8101602085101561221b578190505b61222f61222785611bb1565b830182611c91565b50505b505050565b61224082611511565b67ffffffffffffffff81111561225957612258611b60565b5b6122638254611b1b565b61226e8282856121f1565b5f60209050601f83116001811461229f575f841561228d578287015190505b6122978582611d21565b8655506122fe565b601f1984166122ad866121df565b5f5b828110156122d4578489015182556001820191506020850194506020810190506122af565b868310156122f157848901516122ed601f891682611d05565b8355505b6001600288020188555050505b505050505050565b5f61231183856119a6565b935061231e838584611feb565b61232783611351565b840190509392505050565b5f6020820190508181035f83015261234b818486612306565b90509392505050565b7f506f6c696379206e616d652063616e6e6f7420626520656d70747900000000005f82015250565b5f612388601b836119a6565b915061239382612354565b602082019050919050565b5f6020820190508181035f8301526123b58161237c565b9050919050565b5f81905092915050565b5f6123d183856123bc565b93506123de838584611feb565b82840190509392505050565b5f6123f68285876123c6565b915061240282846120b2565b602082019150819050949350505050565b7f506f6c69637920616c72656164792065786973747300000000000000000000005f82015250565b5f6124476015836119a6565b915061245282612413565b602082019050919050565b5f6020820190508181035f8301526124748161243b565b9050919050565b6124848161165b565b82525050565b5f6040820190508181035f8301526124a3818587612306565b90506124b2602083018461247b565b949350505050565b7f4e487b71000000000000000000000000000000000000000000000000000000005f52603260045260245ffd5b5f6124f18261165b565b91506124fc8361165b565b925082820390508181111561251457612513612035565b5b92915050565b7f4e487b71000000000000000000000000000000000000000000000000000000005f52603160045260245ffdfea2646970667358221220914c30f32aa1a5c87b33c3f981a722467a97fad6ca7f64789a06f904731743f664736f6c63430008140033","linkReferences":{}},"methodIdentifiers":{"detect(bytes,bytes,bytes,string)":"b3c4ea4a","getConflict(bytes32)":"911068f9","getPendingConflicts()":"09f45f13","getPolicy(bytes32)":"a3f685f9","manualResolve(bytes32,bytes)":"a534a0f5","registerPolicy(string,uint256)":"e7bb08c8","resolve(bytes32,bytes32)":"077dda78"},"id":74}