{"abi":[{"type":"function","name":"get","inputs":[{"name":"user","type":"bytes32","internalType":"bytes32"}],"outputs":[{"name":"exists_","type":"bool","internalType":"bool"},{"name":"name","type":"string","internalType":"string"},{"name":"email","type":"string","internalType":"string"}],"stateMutability":"view"},{"type":"function","name":"getByEmail","inputs":[{"name":"email","type":"string","internalType":"string"}],"outputs":[{"name":"found","type":"bool","internalType":"bool"},{"name":"user","type":"bytes32","internalType":"bytes32"}],"stateMutability":"view"},{"type":"function","name":"getByName","inputs":[{"name":"name","type":"string","internalType":"string"}],"outputs":[{"name":"found","type":"bool","internalType":"bool"},{"name":"user","type":"bytes32","internalType":"bytes32"}],"stateMutability":"view"},{"type":"function","name":"register","inputs":[{"name":"user","type":"bytes32","internalType":"bytes32"},{"name":"name","type":"string","internalType":"string"},{"name":"email","type":"string","internalType":"string"}],"outputs":[{"name":"success","type":"bool","internalType":"bool"},{"name":"userId","type":"bytes32","internalType":"bytes32"}],"stateMutability":"nonpayable"},{"type":"event","name":"RegisterFailed","inputs":[{"name":"reason","type":"string","indexed":false,"internalType":"string"}],"anonymous":false},{"type":"event","name":"Registered","inputs":[{"name":"user","type":"bytes32","indexed":true,"internalType":"bytes32"},{"name":"name","type":"string","indexed":false,"internalType":"string"},{"name":"email","type":"string","indexed":false,"internalType":"string"}],"anonymous":false}],"bytecode":{"object":"0x608060405234801561000f575f80fd5b50610f768061001d5f395ff3fe608060405234801561000f575f80fd5b506004361061004a575f3560e01c80634e3a4a0d1461004e57806358fd6aec1461007f5780638eaa6ac0146100b0578063b336ad83146100e2575b5f80fd5b610068600480360381019061006391906106b9565b610113565b604051610076929190610736565b60405180910390f35b61009960048036038101906100949190610787565b610160565b6040516100a7929190610736565b60405180910390f35b6100ca60048036038101906100c59190610818565b61046e565b6040516100d9939291906108cd565b60405180910390f35b6100fc60048036038101906100f791906106b9565b610603565b60405161010a929190610736565b60405180910390f35b5f805f6002858560405161012892919061094c565b90815260200160405180910390205490505f801b8103610150575f805f1b9250925050610159565b60018192509250505b9250929050565b5f805f86869050116101a7576040517f08c379a000000000000000000000000000000000000000000000000000000000815260040161019e906109ae565b60405180910390fd5b5f84849050116101ec576040517f08c379a00000000000000000000000000000000000000000000000000000000081526004016101e390610a16565b60405180910390fd5b5f801b8703610230576040517f08c379a000000000000000000000000000000000000000000000000000000000815260040161022790610a7e565b60405180910390fd5b5f808881526020019081526020015f205f9054906101000a900460ff1615610294577f49a5f7bd3ae9a1378338e24ccd325ceca7396afed3c0b704f8e2a3e1cb22b94e60405161027f90610ae6565b60405180910390a15f805f1b91509150610464565b5f801b600187876040516102a992919061094c565b908152602001604051809103902054146102ff577f49a5f7bd3ae9a1378338e24ccd325ceca7396afed3c0b704f8e2a3e1cb22b94e6040516102ea90610b4e565b60405180910390a15f805f1b91509150610464565b5f801b6002858560405161031492919061094c565b9081526020016040518091039020541461036a577f49a5f7bd3ae9a1378338e24ccd325ceca7396afed3c0b704f8e2a3e1cb22b94e60405161035590610bb6565b60405180910390a15f805f1b91509150610464565b60015f808981526020019081526020015f205f6101000a81548160ff02191690831515021790555086600187876040516103a592919061094c565b90815260200160405180910390208190555086600285856040516103ca92919061094c565b908152602001604051809103902081905550858560035f8a81526020019081526020015f2091826103fc929190610e0e565b50838360045f8a81526020019081526020015f20918261041d929190610e0e565b50867f6cbc57d59dc7225cf1de9ca44f71109599d7a107fd1770195f499b469710a412878787876040516104549493929190610f07565b60405180910390a2600187915091505b9550959350505050565b5f6060805f808581526020019081526020015f205f9054906101000a900460ff166104bd575f60405180602001604052805f81525060405180602001604052805f8152509250925092506105fc565b600160035f8681526020019081526020015f2060045f8781526020019081526020015f208180546104ed90610c38565b80601f016020809104026020016040519081016040528092919081815260200182805461051990610c38565b80156105645780601f1061053b57610100808354040283529160200191610564565b820191905f5260205f20905b81548152906001019060200180831161054757829003601f168201915b5050505050915080805461057790610c38565b80601f01602080910402602001604051908101604052809291908181526020018280546105a390610c38565b80156105ee5780601f106105c5576101008083540402835291602001916105ee565b820191905f5260205f20905b8154815290600101906020018083116105d157829003601f168201915b505050505090509250925092505b9193909250565b5f805f6001858560405161061892919061094c565b90815260200160405180910390205490505f801b8103610640575f805f1b9250925050610649565b60018192509250505b9250929050565b5f80fd5b5f80fd5b5f80fd5b5f80fd5b5f80fd5b5f8083601f84011261067957610678610658565b5b8235905067ffffffffffffffff8111156106965761069561065c565b5b6020830191508360018202830111156106b2576106b1610660565b5b9250929050565b5f80602083850312156106cf576106ce610650565b5b5f83013567ffffffffffffffff8111156106ec576106eb610654565b5b6106f885828601610664565b92509250509250929050565b5f8115159050919050565b61071881610704565b82525050565b5f819050919050565b6107308161071e565b82525050565b5f6040820190506107495f83018561070f565b6107566020830184610727565b9392505050565b6107668161071e565b8114610770575f80fd5b50565b5f813590506107818161075d565b92915050565b5f805f805f606086880312156107a05761079f610650565b5b5f6107ad88828901610773565b955050602086013567ffffffffffffffff8111156107ce576107cd610654565b5b6107da88828901610664565b9450945050604086013567ffffffffffffffff8111156107fd576107fc610654565b5b61080988828901610664565b92509250509295509295909350565b5f6020828403121561082d5761082c610650565b5b5f61083a84828501610773565b91505092915050565b5f81519050919050565b5f82825260208201905092915050565b5f5b8381101561087a57808201518184015260208101905061085f565b5f8484015250505050565b5f601f19601f8301169050919050565b5f61089f82610843565b6108a9818561084d565b93506108b981856020860161085d565b6108c281610885565b840191505092915050565b5f6060820190506108e05f83018661070f565b81810360208301526108f28185610895565b905081810360408301526109068184610895565b9050949350505050565b5f81905092915050565b828183375f83830152505050565b5f6109338385610910565b935061094083858461091a565b82840190509392505050565b5f610958828486610928565b91508190509392505050565b7f4e616d652063616e6e6f7420626520656d7074790000000000000000000000005f82015250565b5f61099860148361084d565b91506109a382610964565b602082019050919050565b5f6020820190508181035f8301526109c58161098c565b9050919050565b7f456d61696c2063616e6e6f7420626520656d70747900000000000000000000005f82015250565b5f610a0060158361084d565b9150610a0b826109cc565b602082019050919050565b5f6020820190508181035f830152610a2d816109f4565b9050919050565b7f557365722049442063616e6e6f74206265207a65726f000000000000000000005f82015250565b5f610a6860168361084d565b9150610a7382610a34565b602082019050919050565b5f6020820190508181035f830152610a9581610a5c565b9050919050565b7f5573657220494420616c726561647920657869737473000000000000000000005f82015250565b5f610ad060168361084d565b9150610adb82610a9c565b602082019050919050565b5f6020820190508181035f830152610afd81610ac4565b9050919050565b7f4e616d6520616c72656164792074616b656e00000000000000000000000000005f82015250565b5f610b3860128361084d565b9150610b4382610b04565b602082019050919050565b5f6020820190508181035f830152610b6581610b2c565b9050919050565b7f456d61696c20616c72656164792074616b656e000000000000000000000000005f82015250565b5f610ba060138361084d565b9150610bab82610b6c565b602082019050919050565b5f6020820190508181035f830152610bcd81610b94565b9050919050565b5f82905092915050565b7f4e487b71000000000000000000000000000000000000000000000000000000005f52604160045260245ffd5b7f4e487b71000000000000000000000000000000000000000000000000000000005f52602260045260245ffd5b5f6002820490506001821680610c4f57607f821691505b602082108103610c6257610c61610c0b565b5b50919050565b5f819050815f5260205f209050919050565b5f6020601f8301049050919050565b5f82821b905092915050565b5f60088302610cc47fffffffffffffffffffffffffffffffffffffffffffffffffffffffffffffffff82610c89565b610cce8683610c89565b95508019841693508086168417925050509392505050565b5f819050919050565b5f819050919050565b5f610d12610d0d610d0884610ce6565b610cef565b610ce6565b9050919050565b5f819050919050565b610d2b83610cf8565b610d3f610d3782610d19565b848454610c95565b825550505050565b5f90565b610d53610d47565b610d5e818484610d22565b505050565b5b81811015610d8157610d765f82610d4b565b600181019050610d64565b5050565b601f821115610dc657610d9781610c68565b610da084610c7a565b81016020851015610daf578190505b610dc3610dbb85610c7a565b830182610d63565b50505b505050565b5f82821c905092915050565b5f610de65f1984600802610dcb565b1980831691505092915050565b5f610dfe8383610dd7565b9150826002028217905092915050565b610e188383610bd4565b67ffffffffffffffff811115610e3157610e30610bde565b5b610e3b8254610c38565b610e46828285610d85565b5f601f831160018114610e73575f8415610e61578287013590505b610e6b8582610df3565b865550610ed2565b601f198416610e8186610c68565b5f5b82811015610ea857848901358255600182019150602085019450602081019050610e83565b86831015610ec55784890135610ec1601f891682610dd7565b8355505b6001600288020188555050505b50505050505050565b5f610ee6838561084d565b9350610ef383858461091a565b610efc83610885565b840190509392505050565b5f6040820190508181035f830152610f20818688610edb565b90508181036020830152610f35818486610edb565b90509594505050505056fea26469706673582212205bd535a9fe14e12298468c47a852853ca1a2b381fe5efda92bc33a7977ebda2b64736f6c63430008140033","linkReferences":{}},"methodIdentifiers":{"get(bytes32)":"8eaa6ac0","getByEmail(string)":"4e3a4a0d","getByName(string)":"b336ad83","register(bytes32,string,string)":"58fd6aec"},"id":321}