{"abi":[{"type":"function","name":"follow","inputs":[{"name":"user","type":"bytes32","internalType":"bytes32"},{"name":"target","type":"bytes32","internalType":"bytes32"}],"outputs":[],"stateMutability":"nonpayable"},{"type":"function","name":"isFollowing","inputs":[{"name":"user","type":"bytes32","internalType":"bytes32"},{"name":"target","type":"bytes32","internalType":"bytes32"}],"outputs":[{"name":"","type":"bool","internalType":"bool"}],"stateMutability":"view"},{"type":"function","name":"unfollow","inputs":[{"name":"user","type":"bytes32","internalType":"bytes32"},{"name":"target","type":"bytes32","internalType":"bytes32"}],"outputs":[],"stateMutability":"nonpayable"},{"type":"event","name":"Followed","inputs":[{"name":"user","type":"bytes32","indexed":true,"internalType":"bytes32"},{"name":"target","type":"bytes32","indexed":true,"internalType":"bytes32"}],"anonymous":false},{"type":"event","name":"Unfollowed","inputs":[{"name":"user","type":"bytes32","indexed":true,"internalType":"bytes32"},{"name":"target","type":"bytes32","indexed":true,"internalType":"bytes32"}],"anonymous":false}],"bytecode":{"object":"0x608060405234801561000f575f80fd5b506106488061001d5f395ff3fe608060405234801561000f575f80fd5b506004361061003f575f3560e01c8063042ccd1f14610043578063da72f92b1461005f578063eb3a03ad1461008f575b5f80fd5b61005d60048036038101906100589190610389565b6100ab565b005b61007960048036038101906100749190610389565b61017e565b60405161008691906103e1565b60405180910390f35b6100a960048036038101906100a49190610389565b6101b3565b005b5f808381526020019081526020015f205f8281526020019081526020015f205f9054906101000a900460ff16610116576040517f08c379a000000000000000000000000000000000000000000000000000000000815260040161010d90610454565b60405180910390fd5b5f805f8481526020019081526020015f205f8381526020019081526020015f205f6101000a81548160ff02191690831515021790555080827f4ce575ab880763e34967006fb467a2443bc3988fe2efc16eba923fd92213932960405160405180910390a35050565b5f805f8481526020019081526020015f205f8381526020019081526020015f205f9054906101000a900460ff16905092915050565b5f801b82036101f7576040517f08c379a00000000000000000000000000000000000000000000000000000000081526004016101ee906104bc565b60405180910390fd5b5f801b810361023b576040517f08c379a000000000000000000000000000000000000000000000000000000000815260040161023290610524565b60405180910390fd5b80820361027d576040517f08c379a00000000000000000000000000000000000000000000000000000000081526004016102749061058c565b60405180910390fd5b5f808381526020019081526020015f205f8281526020019081526020015f205f9054906101000a900460ff16156102e9576040517f08c379a00000000000000000000000000000000000000000000000000000000081526004016102e0906105f4565b60405180910390fd5b60015f808481526020019081526020015f205f8381526020019081526020015f205f6101000a81548160ff02191690831515021790555080827f6fe282446a6b79f1ff531c81737dc4438189c0ac7ebae290d3d765a39ade76d760405160405180910390a35050565b5f80fd5b5f819050919050565b61036881610356565b8114610372575f80fd5b50565b5f813590506103838161035f565b92915050565b5f806040838503121561039f5761039e610352565b5b5f6103ac85828601610375565b92505060206103bd85828601610375565b9150509250929050565b5f8115159050919050565b6103db816103c7565b82525050565b5f6020820190506103f45f8301846103d2565b92915050565b5f82825260208201905092915050565b7f4e6f7420666f6c6c6f77696e67000000000000000000000000000000000000005f82015250565b5f61043e600d836103fa565b91506104498261040a565b602082019050919050565b5f6020820190508181035f83015261046b81610432565b9050919050565b7f557365722063616e6e6f74206265207a65726f000000000000000000000000005f82015250565b5f6104a66013836103fa565b91506104b182610472565b602082019050919050565b5f6020820190508181035f8301526104d38161049a565b9050919050565b7f5461726765742063616e6e6f74206265207a65726f00000000000000000000005f82015250565b5f61050e6015836103fa565b9150610519826104da565b602082019050919050565b5f6020820190508181035f83015261053b81610502565b9050919050565b7f43616e6e6f7420666f6c6c6f7720796f757273656c66000000000000000000005f82015250565b5f6105766016836103fa565b915061058182610542565b602082019050919050565b5f6020820190508181035f8301526105a38161056a565b9050919050565b7f416c726561647920666f6c6c6f77696e670000000000000000000000000000005f82015250565b5f6105de6011836103fa565b91506105e9826105aa565b602082019050919050565b5f6020820190508181035f83015261060b816105d2565b905091905056fea2646970667358221220e119131adbfe84e881c71dcbf1949fdd6ac81a30fb34e4dbec3cce34120ea47964736f6c63430008140033","linkReferences":{}},"methodIdentifiers":{"follow(bytes32,bytes32)":"eb3a03ad","isFollowing(bytes32,bytes32)":"da72f92b","unfollow(bytes32,bytes32)":"042ccd1f"},"id":125}