{"abi":[{"type":"function","name":"affectedWidgets","inputs":[{"name":"theme","type":"bytes32","internalType":"bytes32"},{"name":"changedToken","type":"string","internalType":"string"}],"outputs":[{"name":"","type":"tuple","internalType":"struct ThemeEntity.AffectedWidgetsOkResult","components":[{"name":"success","type":"bool","internalType":"bool"},{"name":"widgets","type":"string","internalType":"string"}]}],"stateMutability":"nonpayable"},{"type":"function","name":"contrastAudit","inputs":[{"name":"theme","type":"bytes32","internalType":"bytes32"}],"outputs":[{"name":"","type":"tuple","internalType":"struct ThemeEntity.ContrastAuditOkResult","components":[{"name":"success","type":"bool","internalType":"bool"},{"name":"allPassing","type":"string","internalType":"string"},{"name":"results","type":"string","internalType":"string"}]}],"stateMutability":"nonpayable"},{"type":"function","name":"diffThemes","inputs":[{"name":"a","type":"bytes32","internalType":"bytes32"},{"name":"b","type":"bytes32","internalType":"bytes32"}],"outputs":[{"name":"","type":"tuple","internalType":"struct ThemeEntity.DiffThemesOkResult","components":[{"name":"success","type":"bool","internalType":"bool"},{"name":"differences","type":"string","internalType":"string"}]}],"stateMutability":"nonpayable"},{"type":"function","name":"generatedOutputs","inputs":[{"name":"theme","type":"bytes32","internalType":"bytes32"}],"outputs":[{"name":"","type":"tuple","internalType":"struct ThemeEntity.GeneratedOutputsOkResult","components":[{"name":"success","type":"bool","internalType":"bool"},{"name":"outputs","type":"string","internalType":"string"}]}],"stateMutability":"nonpayable"},{"type":"function","name":"get","inputs":[{"name":"name","type":"string","internalType":"string"}],"outputs":[{"name":"","type":"tuple","internalType":"struct ThemeEntity.GetOkResult","components":[{"name":"success","type":"bool","internalType":"bool"},{"name":"entity","type":"bytes32","internalType":"bytes32"}]}],"stateMutability":"nonpayable"},{"type":"function","name":"register","inputs":[{"name":"name","type":"string","internalType":"string"},{"name":"source","type":"string","internalType":"string"},{"name":"ast","type":"string","internalType":"string"}],"outputs":[{"name":"","type":"tuple","internalType":"struct ThemeEntity.RegisterOkResult","components":[{"name":"success","type":"bool","internalType":"bool"},{"name":"entity","type":"bytes32","internalType":"bytes32"}]}],"stateMutability":"nonpayable"},{"type":"function","name":"resolveToken","inputs":[{"name":"theme","type":"bytes32","internalType":"bytes32"},{"name":"tokenPath","type":"string","internalType":"string"}],"outputs":[{"name":"","type":"tuple","internalType":"struct ThemeEntity.ResolveTokenOkResult","components":[{"name":"success","type":"bool","internalType":"bool"},{"name":"resolvedValue","type":"string","internalType":"string"},{"name":"resolutionChain","type":"string","internalType":"string"}]}],"stateMutability":"nonpayable"},{"type":"event","name":"AffectedWidgetsCompleted","inputs":[{"name":"variant","type":"string","indexed":false,"internalType":"string"}],"anonymous":false},{"type":"event","name":"ContrastAuditCompleted","inputs":[{"name":"variant","type":"string","indexed":false,"internalType":"string"}],"anonymous":false},{"type":"event","name":"DiffThemesCompleted","inputs":[{"name":"variant","type":"string","indexed":false,"internalType":"string"}],"anonymous":false},{"type":"event","name":"GeneratedOutputsCompleted","inputs":[{"name":"variant","type":"string","indexed":false,"internalType":"string"}],"anonymous":false},{"type":"event","name":"GetCompleted","inputs":[{"name":"variant","type":"string","indexed":false,"internalType":"string"},{"name":"entity","type":"bytes32","indexed":false,"internalType":"bytes32"}],"anonymous":false},{"type":"event","name":"RegisterCompleted","inputs":[{"name":"variant","type":"string","indexed":false,"internalType":"string"},{"name":"entity","type":"bytes32","indexed":false,"internalType":"bytes32"},{"name":"existing","type":"bytes32","indexed":false,"internalType":"bytes32"}],"anonymous":false},{"type":"event","name":"ResolveTokenCompleted","inputs":[{"name":"variant","type":"string","indexed":false,"internalType":"string"}],"anonymous":false}],"bytecode":{"object":"0x608060405234801561000f575f80fd5b50611b5a8061001d5f395ff3fe608060405234801561000f575f80fd5b506004361061007b575f3560e01c80634cd08d03116100595780634cd08d031461010f578063693ec85e1461013f57806395a1e7751461016f578063b1931c361461019f5761007b565b8063151fa6d61461007f57806328c099a3146100af5780632a3db78d146100df575b5f80fd5b61009960048036038101906100949190610cf4565b6101cf565b6040516100a69190610dfd565b60405180910390f35b6100c960048036038101906100c49190610cf4565b610298565b6040516100d69190610e71565b60405180910390f35b6100f960048036038101906100f49190610fbd565b6103fd565b604051610106919061106b565b60405180910390f35b6101296004803603810190610124919061108b565b6105a1565b604051610136919061116b565b60405180910390f35b61015960048036038101906101549190611184565b61080a565b60405161016691906111f8565b60405180910390f35b61018960048036038101906101849190611211565b610908565b6040516101969190611289565b60405180910390f35b6101b960048036038101906101b49190610fbd565b610b17565b6040516101c691906112e3565b60405180910390f35b6101d7610be1565b5f808381526020019081526020015f206003015f9054906101000a900460ff16610236576040517f08c379a000000000000000000000000000000000000000000000000000000000815260040161022d9061135d565b60405180910390fd5b7fe0f0085ee48dd552d3ea6d48c5cf8b8fd5ff1398903cee7985185d054702dcb7604051610263906113c5565b60405180910390a1604051806040016040528060011515815260200160405180602001604052805f8152508152509050919050565b6102a0610bfc565b5f808381526020019081526020015f206003015f9054906101000a900460ff166102ff576040517f08c379a00000000000000000000000000000000000000000000000000000000081526004016102f69061135d565b60405180910390fd5b5f60045f8481526020019081526020015f208054905090505f80821161035a576040518060400160405280600781526020017f756e6b6e6f776e00000000000000000000000000000000000000000000000000815250610391565b6040518060400160405280600481526020017f74727565000000000000000000000000000000000000000000000000000000008152505b90507fcb04e9cc97d1f9ad242bdc3d6feadf9c522fafc248cef6c174cec3a92e8507bb6040516103c0906113c5565b60405180910390a1604051806060016040528060011515815260200182815260200160405180602001604052805f81525081525092505050919050565b610405610c1e565b5f808481526020019081526020015f206003015f9054906101000a900460ff16610464576040517f08c379a000000000000000000000000000000000000000000000000000000000815260040161045b9061135d565b60405180910390fd5b5f82604051602001610476919061141d565b6040516020818303038152906040528051906020012090505f60035f8681526020019081526020015f205f8381526020019081526020015f2080546104ba90611460565b80601f01602080910402602001604051908101604052809291908181526020018280546104e690611460565b80156105315780601f1061050857610100808354040283529160200191610531565b820191905f5260205f20905b81548152906001019060200180831161051457829003601f168201915b505050505090505f815103610544578390505b7fa1d81cc40762fc56d1c2bba41a07552baed9cd92af548a8d112c990b1fb904b6604051610571906113c5565b60405180910390a16040518060600160405280600115158152602001828152602001858152509250505092915050565b6105a9610c40565b5f8451116105ec576040517f08c379a00000000000000000000000000000000000000000000000000000000081526004016105e3906114da565b60405180910390fd5b5f846040516020016105fe919061141d565b6040516020818303038152906040528051906020012090505f60025f8381526020019081526020015f205490505f808281526020019081526020015f206003015f9054906101000a900460ff16156106ac577f95aa42045c9e7890b45a5e0d5b1d5c5e7a1690b14f1e0c18785efb0cd8465e2b5f801b82604051610683929190611551565b60405180910390a160405180604001604052806001151581526020018281525092505050610803565b5f86866040516020016106c092919061158b565b6040516020818303038152906040528051906020012090506040518060800160405280888152602001878152602001868152602001600115158152505f808381526020019081526020015f205f820151815f01908161071f9190611754565b5060208201518160010190816107359190611754565b50604082015181600201908161074b9190611754565b506060820151816003015f6101000a81548160ff021916908315150217905550905050600181908060018154018082558091505060019003905f5260205f20015f90919091909150558060025f8581526020019081526020015f20819055507f95aa42045c9e7890b45a5e0d5b1d5c5e7a1690b14f1e0c18785efb0cd8465e2b815f801b6040516107dd929190611823565b60405180910390a160405180604001604052806001151581526020018281525093505050505b9392505050565b610812610c5d565b5f82604051602001610824919061141d565b6040516020818303038152906040528051906020012090505f60025f8381526020019081526020015f205490505f808281526020019081526020015f206003015f9054906101000a900460ff166108b0576040517f08c379a00000000000000000000000000000000000000000000000000000000081526004016108a7906118a7565b60405180910390fd5b7fd45fe45dbfb310b00d5db432aa35f96282e16a8bb204b349e334de2cd5566f34816040516108df91906118c5565b60405180910390a160405180604001604052806001151581526020018281525092505050919050565b610910610c7a565b5f808481526020019081526020015f206003015f9054906101000a900460ff1661096f576040517f08c379a00000000000000000000000000000000000000000000000000000000081526004016109669061193b565b60405180910390fd5b5f808381526020019081526020015f206003015f9054906101000a900460ff166109ce576040517f08c379a00000000000000000000000000000000000000000000000000000000081526004016109c5906119a3565b60405180910390fd5b5f805f8581526020019081526020015f2090505f805f8581526020019081526020015f20905060605f83600101604051602001610a0b9190611a41565b6040516020818303038152906040528051906020012090505f83600101604051602001610a389190611a41565b604051602081830303815290604052805190602001209050808203610a94576040518060400160405280600981526020017f6964656e746963616c00000000000000000000000000000000000000000000008152509250610abd565b845f01845f01604051602001610aab929190611aeb565b60405160208183030381529060405292505b7fd841cba4f1aa064f77a153eadf3529b7c5fa023e253d4a2aab5b0491650c4ea0604051610aea906113c5565b60405180910390a16040518060400160405280600115158152602001848152509550505050505092915050565b610b1f610c95565b5f808481526020019081526020015f206003015f9054906101000a900460ff16610b7e576040517f08c379a0000000000000000000000000000000000000000000000000000000008152600401610b759061135d565b60405180910390fd5b7fabd00a6e30a8567f3e492a0eac1f1cecde2519b14358b94598c38bcad06d95b0604051610bab906113c5565b60405180910390a1604051806040016040528060011515815260200160405180602001604052805f815250815250905092915050565b60405180604001604052805f15158152602001606081525090565b60405180606001604052805f1515815260200160608152602001606081525090565b60405180606001604052805f1515815260200160608152602001606081525090565b60405180604001604052805f151581526020015f80191681525090565b60405180604001604052805f151581526020015f80191681525090565b60405180604001604052805f15158152602001606081525090565b60405180604001604052805f15158152602001606081525090565b5f604051905090565b5f80fd5b5f80fd5b5f819050919050565b610cd381610cc1565b8114610cdd575f80fd5b50565b5f81359050610cee81610cca565b92915050565b5f60208284031215610d0957610d08610cb9565b5b5f610d1684828501610ce0565b91505092915050565b5f8115159050919050565b610d3381610d1f565b82525050565b5f81519050919050565b5f82825260208201905092915050565b5f5b83811015610d70578082015181840152602081019050610d55565b5f8484015250505050565b5f601f19601f8301169050919050565b5f610d9582610d39565b610d9f8185610d43565b9350610daf818560208601610d53565b610db881610d7b565b840191505092915050565b5f604083015f830151610dd85f860182610d2a565b5060208301518482036020860152610df08282610d8b565b9150508091505092915050565b5f6020820190508181035f830152610e158184610dc3565b905092915050565b5f606083015f830151610e325f860182610d2a565b5060208301518482036020860152610e4a8282610d8b565b91505060408301518482036040860152610e648282610d8b565b9150508091505092915050565b5f6020820190508181035f830152610e898184610e1d565b905092915050565b5f80fd5b5f80fd5b7f4e487b71000000000000000000000000000000000000000000000000000000005f52604160045260245ffd5b610ecf82610d7b565b810181811067ffffffffffffffff82111715610eee57610eed610e99565b5b80604052505050565b5f610f00610cb0565b9050610f0c8282610ec6565b919050565b5f67ffffffffffffffff821115610f2b57610f2a610e99565b5b610f3482610d7b565b9050602081019050919050565b828183375f83830152505050565b5f610f61610f5c84610f11565b610ef7565b905082815260208101848484011115610f7d57610f7c610e95565b5b610f88848285610f41565b509392505050565b5f82601f830112610fa457610fa3610e91565b5b8135610fb4848260208601610f4f565b91505092915050565b5f8060408385031215610fd357610fd2610cb9565b5b5f610fe085828601610ce0565b925050602083013567ffffffffffffffff81111561100157611000610cbd565b5b61100d85828601610f90565b9150509250929050565b5f606083015f83015161102c5f860182610d2a565b50602083015184820360208601526110448282610d8b565b9150506040830151848203604086015261105e8282610d8b565b9150508091505092915050565b5f6020820190508181035f8301526110838184611017565b905092915050565b5f805f606084860312156110a2576110a1610cb9565b5b5f84013567ffffffffffffffff8111156110bf576110be610cbd565b5b6110cb86828701610f90565b935050602084013567ffffffffffffffff8111156110ec576110eb610cbd565b5b6110f886828701610f90565b925050604084013567ffffffffffffffff81111561111957611118610cbd565b5b61112586828701610f90565b9150509250925092565b61113881610cc1565b82525050565b604082015f8201516111525f850182610d2a565b506020820151611165602085018261112f565b50505050565b5f60408201905061117e5f83018461113e565b92915050565b5f6020828403121561119957611198610cb9565b5b5f82013567ffffffffffffffff8111156111b6576111b5610cbd565b5b6111c284828501610f90565b91505092915050565b604082015f8201516111df5f850182610d2a565b5060208201516111f2602085018261112f565b50505050565b5f60408201905061120b5f8301846111cb565b92915050565b5f806040838503121561122757611226610cb9565b5b5f61123485828601610ce0565b925050602061124585828601610ce0565b9150509250929050565b5f604083015f8301516112645f860182610d2a565b506020830151848203602086015261127c8282610d8b565b9150508091505092915050565b5f6020820190508181035f8301526112a1818461124f565b905092915050565b5f604083015f8301516112be5f860182610d2a565b50602083015184820360208601526112d68282610d8b565b9150508091505092915050565b5f6020820190508181035f8301526112fb81846112a9565b905092915050565b5f82825260208201905092915050565b7f5468656d65206e6f7420666f756e6400000000000000000000000000000000005f82015250565b5f611347600f83611303565b915061135282611313565b602082019050919050565b5f6020820190508181035f8301526113748161133b565b9050919050565b7f6f6b0000000000000000000000000000000000000000000000000000000000005f82015250565b5f6113af600283611303565b91506113ba8261137b565b602082019050919050565b5f6020820190508181035f8301526113dc816113a3565b9050919050565b5f81905092915050565b5f6113f782610d39565b61140181856113e3565b9350611411818560208601610d53565b80840191505092915050565b5f61142882846113ed565b915081905092915050565b7f4e487b71000000000000000000000000000000000000000000000000000000005f52602260045260245ffd5b5f600282049050600182168061147757607f821691505b60208210810361148a57611489611433565b5b50919050565b7f4e616d65206d757374206e6f7420626520656d707479000000000000000000005f82015250565b5f6114c4601683611303565b91506114cf82611490565b602082019050919050565b5f6020820190508181035f8301526114f1816114b8565b9050919050565b7f616c7265616479526567697374657265640000000000000000000000000000005f82015250565b5f61152c601183611303565b9150611537826114f8565b602082019050919050565b61154b81610cc1565b82525050565b5f6060820190508181035f83015261156881611520565b90506115776020830185611542565b6115846040830184611542565b9392505050565b5f61159682856113ed565b91506115a282846113ed565b91508190509392505050565b5f819050815f5260205f209050919050565b5f6020601f8301049050919050565b5f82821b905092915050565b5f6008830261160a7fffffffffffffffffffffffffffffffffffffffffffffffffffffffffffffffff826115cf565b61161486836115cf565b95508019841693508086168417925050509392505050565b5f819050919050565b5f819050919050565b5f61165861165361164e8461162c565b611635565b61162c565b9050919050565b5f819050919050565b6116718361163e565b61168561167d8261165f565b8484546115db565b825550505050565b5f90565b61169961168d565b6116a4818484611668565b505050565b5b818110156116c7576116bc5f82611691565b6001810190506116aa565b5050565b601f82111561170c576116dd816115ae565b6116e6846115c0565b810160208510156116f5578190505b611709611701856115c0565b8301826116a9565b50505b505050565b5f82821c905092915050565b5f61172c5f1984600802611711565b1980831691505092915050565b5f611744838361171d565b9150826002028217905092915050565b61175d82610d39565b67ffffffffffffffff81111561177657611775610e99565b5b6117808254611460565b61178b8282856116cb565b5f60209050601f8311600181146117bc575f84156117aa578287015190505b6117b48582611739565b86555061181b565b601f1984166117ca866115ae565b5f5b828110156117f1578489015182556001820191506020850194506020810190506117cc565b8683101561180e578489015161180a601f89168261171d565b8355505b6001600288020188555050505b505050505050565b5f6060820190508181035f83015261183a816113a3565b90506118496020830185611542565b6118566040830184611542565b9392505050565b7f5468656d6520656e74697479206e6f7420666f756e64000000000000000000005f82015250565b5f611891601683611303565b915061189c8261185d565b602082019050919050565b5f6020820190508181035f8301526118be81611885565b9050919050565b5f6040820190508181035f8301526118dc816113a3565b90506118eb6020830184611542565b92915050565b7f5468656d652041206e6f7420666f756e640000000000000000000000000000005f82015250565b5f611925601183611303565b9150611930826118f1565b602082019050919050565b5f6020820190508181035f83015261195281611919565b9050919050565b7f5468656d652042206e6f7420666f756e640000000000000000000000000000005f82015250565b5f61198d601183611303565b915061199882611959565b602082019050919050565b5f6020820190508181035f8301526119ba81611981565b9050919050565b5f81546119cd81611460565b6119d781866113e3565b9450600182165f81146119f15760018114611a0657611a38565b60ff1983168652811515820286019350611a38565b611a0f856115ae565b5f5b83811015611a3057815481890152600182019150602081019050611a11565b838801955050505b50505092915050565b5f611a4c82846119c1565b915081905092915050565b7f20767320000000000000000000000000000000000000000000000000000000005f82015250565b5f611a8b6004836113e3565b9150611a9682611a57565b600482019050919050565b7f3a20736f757263657320646966666572000000000000000000000000000000005f82015250565b5f611ad56010836113e3565b9150611ae082611aa1565b601082019050919050565b5f611af682856119c1565b9150611b0182611a7f565b9150611b0d82846119c1565b9150611b1882611ac9565b9150819050939250505056fea2646970667358221220bcfa99d2b01371d7c9d8f8dbc5f87385dde37dbc57782263fc4cb178684aefd864736f6c63430008140033","linkReferences":{}},"methodIdentifiers":{"affectedWidgets(bytes32,string)":"b1931c36","contrastAudit(bytes32)":"28c099a3","diffThemes(bytes32,bytes32)":"95a1e775","generatedOutputs(bytes32)":"151fa6d6","get(string)":"693ec85e","register(string,string,string)":"4cd08d03","resolveToken(bytes32,string)":"2a3db78d"},"id":290}