{"abi":[{"type":"function","name":"deploy","inputs":[{"name":"service","type":"bytes32","internalType":"bytes32"},{"name":"imageUri","type":"string","internalType":"string"}],"outputs":[{"name":"","type":"tuple","internalType":"struct DockerComposeRuntime.DeployOkResult","components":[{"name":"success","type":"bool","internalType":"bool"},{"name":"service","type":"bytes32","internalType":"bytes32"},{"name":"containerId","type":"string","internalType":"string"}]}],"stateMutability":"nonpayable"},{"type":"function","name":"destroy","inputs":[{"name":"service","type":"bytes32","internalType":"bytes32"}],"outputs":[{"name":"","type":"tuple","internalType":"struct DockerComposeRuntime.DestroyOkResult","components":[{"name":"success","type":"bool","internalType":"bool"},{"name":"service","type":"bytes32","internalType":"bytes32"}]}],"stateMutability":"nonpayable"},{"type":"function","name":"provision","inputs":[{"name":"concept","type":"string","internalType":"string"},{"name":"composePath","type":"string","internalType":"string"},{"name":"ports","type":"string[]","internalType":"string[]"}],"outputs":[{"name":"","type":"tuple","internalType":"struct DockerComposeRuntime.ProvisionOkResult","components":[{"name":"success","type":"bool","internalType":"bool"},{"name":"service","type":"bytes32","internalType":"bytes32"},{"name":"serviceName","type":"string","internalType":"string"},{"name":"endpoint","type":"string","internalType":"string"}]}],"stateMutability":"nonpayable"},{"type":"function","name":"register","inputs":[],"outputs":[{"name":"name","type":"string","internalType":"string"},{"name":"category","type":"string","internalType":"string"},{"name":"capabilities","type":"string[]","internalType":"string[]"}],"stateMutability":"pure"},{"type":"function","name":"rollback","inputs":[{"name":"service","type":"bytes32","internalType":"bytes32"},{"name":"targetImage","type":"string","internalType":"string"}],"outputs":[{"name":"","type":"tuple","internalType":"struct DockerComposeRuntime.RollbackOkResult","components":[{"name":"success","type":"bool","internalType":"bool"},{"name":"service","type":"bytes32","internalType":"bytes32"},{"name":"restoredImage","type":"string","internalType":"string"}]}],"stateMutability":"nonpayable"},{"type":"function","name":"setTrafficWeight","inputs":[{"name":"service","type":"bytes32","internalType":"bytes32"},{"name":"weight","type":"int256","internalType":"int256"}],"outputs":[{"name":"","type":"tuple","internalType":"struct DockerComposeRuntime.SetTrafficWeightOkResult","components":[{"name":"success","type":"bool","internalType":"bool"},{"name":"service","type":"bytes32","internalType":"bytes32"}]}],"stateMutability":"nonpayable"},{"type":"event","name":"DeployCompleted","inputs":[{"name":"variant","type":"string","indexed":false,"internalType":"string"},{"name":"service","type":"bytes32","indexed":false,"internalType":"bytes32"}],"anonymous":false},{"type":"event","name":"DestroyCompleted","inputs":[{"name":"variant","type":"string","indexed":false,"internalType":"string"},{"name":"service","type":"bytes32","indexed":false,"internalType":"bytes32"}],"anonymous":false},{"type":"event","name":"ProvisionCompleted","inputs":[{"name":"variant","type":"string","indexed":false,"internalType":"string"},{"name":"service","type":"bytes32","indexed":false,"internalType":"bytes32"},{"name":"port","type":"int256","indexed":false,"internalType":"int256"}],"anonymous":false},{"type":"event","name":"RollbackCompleted","inputs":[{"name":"variant","type":"string","indexed":false,"internalType":"string"},{"name":"service","type":"bytes32","indexed":false,"internalType":"bytes32"}],"anonymous":false},{"type":"event","name":"SetTrafficWeightCompleted","inputs":[{"name":"variant","type":"string","indexed":false,"internalType":"string"},{"name":"service","type":"bytes32","indexed":false,"internalType":"bytes32"}],"anonymous":false}],"bytecode":{"object":"0x608060405234801561000f575f80fd5b506121148061001d5f395ff3fe608060405234801561000f575f80fd5b5060043610610060575f3560e01c80631aa3a008146100645780636e0bd282146100845780637855131d146100b45780638388d229146100e4578063b5a788e514610114578063c416a8cf14610144575b5f80fd5b61006c610174565b60405161007b93929190610f95565b60405180910390f35b61009e60048036038101906100999190611023565b6103e7565b6040516100ab91906110a4565b60405180910390f35b6100ce60048036038101906100c991906111e9565b610515565b6040516100db9190611290565b60405180910390f35b6100fe60048036038101906100f991906112e3565b610639565b60405161010b919061134e565b60405180910390f35b61012e60048036038101906101299190611449565b61075b565b60405161013b9190611554565b60405180910390f35b61015e600480360381019061015991906111e9565b6109e4565b60405161016b91906115c1565b60405180910390f35b60608060606040518060400160405280600e81526020017f646f636b65722d636f6d706f736500000000000000000000000000000000000081525092506040518060400160405280600781526020017f72756e74696d65000000000000000000000000000000000000000000000000008152509150600567ffffffffffffffff811115610204576102036110c5565b5b60405190808252806020026020018201604052801561023757816020015b60608152602001906001900390816102225790505b5090506040518060400160405280600981526020017f70726f766973696f6e0000000000000000000000000000000000000000000000815250815f81518110610283576102826115e1565b5b60200260200101819052506040518060400160405280600681526020017f6465706c6f790000000000000000000000000000000000000000000000000000815250816001815181106102d8576102d76115e1565b5b60200260200101819052506040518060400160405280601081526020017f73657454726166666963576569676874000000000000000000000000000000008152508160028151811061032d5761032c6115e1565b5b60200260200101819052506040518060400160405280600881526020017f726f6c6c6261636b00000000000000000000000000000000000000000000000081525081600381518110610382576103816115e1565b5b60200260200101819052506040518060400160405280600781526020017f64657374726f7900000000000000000000000000000000000000000000000000815250816004815181106103d7576103d66115e1565b5b6020026020010181905250909192565b6103ef610cc6565b60015f8381526020019081526020015f205f9054906101000a900460ff1661044c576040517f08c379a000000000000000000000000000000000000000000000000000000000815260040161044390611658565b60405180910390fd5b5f60015f8481526020019081526020015f205f6101000a81548160ff0219169083151502179055505f808381526020019081526020015f205f61048f9190610ce3565b60035f8381526020019081526020015f205f6104ab9190610d20565b60045f8381526020019081526020015f205f90557f5f91d6f5b071e1c01422208aefdc94722551cb418c8c493cbd4fa563938bc5d0826040516104ee91906116cf565b60405180910390a16040518060400160405280600115158152602001838152509050919050565b61051d610d5d565b60015f8481526020019081526020015f205f9054906101000a900460ff1661057a576040517f08c379a000000000000000000000000000000000000000000000000000000000815260040161057190611658565b60405180910390fd5b5f8251116105bd576040517f08c379a00000000000000000000000000000000000000000000000000000000081526004016105b490611745565b60405180910390fd5b8160035f8581526020019081526020015f2090816105db9190611966565b507fd7216dc6f75dc5ba9c492a95dab64aa01aaf14ccb27b9a38cc0ea55b5980b34f8360405161060b91906116cf565b60405180910390a1604051806060016040528060011515815260200184815260200183815250905092915050565b610641610d81565b60015f8481526020019081526020015f205f9054906101000a900460ff1661069e576040517f08c379a000000000000000000000000000000000000000000000000000000000815260040161069590611658565b60405180910390fd5b5f82121580156106af575060648213155b6106ee576040517f08c379a00000000000000000000000000000000000000000000000000000000081526004016106e590611a7f565b60405180910390fd5b8160045f8581526020019081526020015f20819055507fe3818c8f29f23fa7dae9a0884fe04d7bb4770020f95d48f6e3d93dc214eef7328360405161073391906116cf565b60405180910390a1604051806040016040528060011515815260200184815250905092915050565b610763610d9e565b5f8451116107a6576040517f08c379a000000000000000000000000000000000000000000000000000000000815260040161079d90611ae7565b60405180910390fd5b5f8351116107e9576040517f08c379a00000000000000000000000000000000000000000000000000000000081526004016107e090611b4f565b60405180910390fd5b5f84846040516020016107fd929190611ba7565b6040516020818303038152906040528051906020012090508484844260405160200161082c9493929190611bd9565b6040516020818303038152906040525f808381526020019081526020015f2090816108579190611c93565b5060015f8281526020019081526020015f205f9054906101000a900460ff166108f6576001805f8381526020019081526020015f205f6101000a81548160ff021916908315150217905550600281908060018154018082558091505060019003905f5260205f20015f90919091909150555f60055f8381526020019081526020015f2081905550606460045f8381526020019081526020015f20819055505b5f8590505f8085511161093e576040518060400160405280600481526020017f383038300000000000000000000000000000000000000000000000000000000081525061095a565b845f81518110610951576109506115e1565b5b60200260200101515b60405160200161096a9190611dac565b60405160208183030381529060405290507fecc2a083d35fa21b46b460b412399d06591aa0dfe8ed0bf080ed3ed4a3118800835f6040516109ac929190611ddc565b60405180910390a160405180608001604052806001151581526020018481526020018381526020018281525093505050509392505050565b6109ec610dc9565b60015f8481526020019081526020015f205f9054906101000a900460ff16610a49576040517f08c379a0000000000000000000000000000000000000000000000000000000008152600401610a4090611e86565b60405180910390fd5b5f825111610a8c576040517f08c379a0000000000000000000000000000000000000000000000000000000008152600401610a8390611eee565b60405180910390fd5b600160055f8581526020019081526020015f205f828254610aad9190611f39565b925050819055508160035f8581526020019081526020015f209081610ad29190611966565b505f610aee60055f8681526020019081526020015f2054610b6d565b604051602001610afe9190611fb6565b60405160208183030381529060405290507fa2bcee769063b8cbe84c66b7e22189704d1631b14aa84ae063df981ef674ebd084604051610b3e91906116cf565b60405180910390a160405180606001604052806001151581526020018581526020018281525091505092915050565b60605f8203610bb3576040518060400160405280600181526020017f30000000000000000000000000000000000000000000000000000000000000008152509050610cc1565b5f8290505f5b5f8214610be2578080610bcb90611fd7565b915050600a82610bdb919061204b565b9150610bb9565b5f8167ffffffffffffffff811115610bfd57610bfc6110c5565b5b6040519080825280601f01601f191660200182016040528015610c2f5781602001600182028036833780820191505090505b5090505b5f8514610cba57600182610c47919061207b565b9150600a85610c5691906120ae565b6030610c629190611f39565b60f81b818381518110610c7857610c776115e1565b5b60200101907effffffffffffffffffffffffffffffffffffffffffffffffffffffffffffff191690815f1a905350600a85610cb3919061204b565b9450610c33565b8093505050505b919050565b60405180604001604052805f151581526020015f80191681525090565b508054610cef90611790565b5f825580601f10610d005750610d1d565b601f0160209004905f5260205f2090810190610d1c9190610ded565b5b50565b508054610d2c90611790565b5f825580601f10610d3d5750610d5a565b601f0160209004905f5260205f2090810190610d599190610ded565b5b50565b60405180606001604052805f151581526020015f8019168152602001606081525090565b60405180604001604052805f151581526020015f80191681525090565b60405180608001604052805f151581526020015f801916815260200160608152602001606081525090565b60405180606001604052805f151581526020015f8019168152602001606081525090565b5b80821115610e04575f815f905550600101610dee565b5090565b5f81519050919050565b5f82825260208201905092915050565b5f5b83811015610e3f578082015181840152602081019050610e24565b5f8484015250505050565b5f601f19601f8301169050919050565b5f610e6482610e08565b610e6e8185610e12565b9350610e7e818560208601610e22565b610e8781610e4a565b840191505092915050565b5f81519050919050565b5f82825260208201905092915050565b5f819050602082019050919050565b5f82825260208201905092915050565b5f610ed582610e08565b610edf8185610ebb565b9350610eef818560208601610e22565b610ef881610e4a565b840191505092915050565b5f610f0e8383610ecb565b905092915050565b5f602082019050919050565b5f610f2c82610e92565b610f368185610e9c565b935083602082028501610f4885610eac565b805f5b85811015610f835784840389528151610f648582610f03565b9450610f6f83610f16565b925060208a01995050600181019050610f4b565b50829750879550505050505092915050565b5f6060820190508181035f830152610fad8186610e5a565b90508181036020830152610fc18185610e5a565b90508181036040830152610fd58184610f22565b9050949350505050565b5f604051905090565b5f80fd5b5f80fd5b5f819050919050565b61100281610ff0565b811461100c575f80fd5b50565b5f8135905061101d81610ff9565b92915050565b5f6020828403121561103857611037610fe8565b5b5f6110458482850161100f565b91505092915050565b5f8115159050919050565b6110628161104e565b82525050565b61107181610ff0565b82525050565b604082015f82015161108b5f850182611059565b50602082015161109e6020850182611068565b50505050565b5f6040820190506110b75f830184611077565b92915050565b5f80fd5b5f80fd5b7f4e487b71000000000000000000000000000000000000000000000000000000005f52604160045260245ffd5b6110fb82610e4a565b810181811067ffffffffffffffff8211171561111a576111196110c5565b5b80604052505050565b5f61112c610fdf565b905061113882826110f2565b919050565b5f67ffffffffffffffff821115611157576111566110c5565b5b61116082610e4a565b9050602081019050919050565b828183375f83830152505050565b5f61118d6111888461113d565b611123565b9050828152602081018484840111156111a9576111a86110c1565b5b6111b484828561116d565b509392505050565b5f82601f8301126111d0576111cf6110bd565b5b81356111e084826020860161117b565b91505092915050565b5f80604083850312156111ff576111fe610fe8565b5b5f61120c8582860161100f565b925050602083013567ffffffffffffffff81111561122d5761122c610fec565b5b611239858286016111bc565b9150509250929050565b5f606083015f8301516112585f860182611059565b50602083015161126b6020860182611068565b50604083015184820360408601526112838282610ecb565b9150508091505092915050565b5f6020820190508181035f8301526112a88184611243565b905092915050565b5f819050919050565b6112c2816112b0565b81146112cc575f80fd5b50565b5f813590506112dd816112b9565b92915050565b5f80604083850312156112f9576112f8610fe8565b5b5f6113068582860161100f565b9250506020611317858286016112cf565b9150509250929050565b604082015f8201516113355f850182611059565b5060208201516113486020850182611068565b50505050565b5f6040820190506113615f830184611321565b92915050565b5f67ffffffffffffffff821115611381576113806110c5565b5b602082029050602081019050919050565b5f80fd5b5f6113a86113a384611367565b611123565b905080838252602082019050602084028301858111156113cb576113ca611392565b5b835b8181101561141257803567ffffffffffffffff8111156113f0576113ef6110bd565b5b8086016113fd89826111bc565b855260208501945050506020810190506113cd565b5050509392505050565b5f82601f8301126114305761142f6110bd565b5b8135611440848260208601611396565b91505092915050565b5f805f606084860312156114605761145f610fe8565b5b5f84013567ffffffffffffffff81111561147d5761147c610fec565b5b611489868287016111bc565b935050602084013567ffffffffffffffff8111156114aa576114a9610fec565b5b6114b6868287016111bc565b925050604084013567ffffffffffffffff8111156114d7576114d6610fec565b5b6114e38682870161141c565b9150509250925092565b5f608083015f8301516115025f860182611059565b5060208301516115156020860182611068565b506040830151848203604086015261152d8282610ecb565b915050606083015184820360608601526115478282610ecb565b9150508091505092915050565b5f6020820190508181035f83015261156c81846114ed565b905092915050565b5f606083015f8301516115895f860182611059565b50602083015161159c6020860182611068565b50604083015184820360408601526115b48282610ecb565b9150508091505092915050565b5f6020820190508181035f8301526115d98184611574565b905092915050565b7f4e487b71000000000000000000000000000000000000000000000000000000005f52603260045260245ffd5b7f53657276696365206e6f7420666f756e640000000000000000000000000000005f82015250565b5f611642601183610e12565b915061164d8261160e565b602082019050919050565b5f6020820190508181035f83015261166f81611636565b9050919050565b7f6f6b0000000000000000000000000000000000000000000000000000000000005f82015250565b5f6116aa600283610e12565b91506116b582611676565b602082019050919050565b6116c981610ff0565b82525050565b5f6040820190508181035f8301526116e68161169e565b90506116f560208301846116c0565b92915050565b7f54617267657420696d616765206d757374206e6f7420626520656d70747900005f82015250565b5f61172f601e83610e12565b915061173a826116fb565b602082019050919050565b5f6020820190508181035f83015261175c81611723565b9050919050565b7f4e487b71000000000000000000000000000000000000000000000000000000005f52602260045260245ffd5b5f60028204905060018216806117a757607f821691505b6020821081036117ba576117b9611763565b5b50919050565b5f819050815f5260205f209050919050565b5f6020601f8301049050919050565b5f82821b905092915050565b5f6008830261181c7fffffffffffffffffffffffffffffffffffffffffffffffffffffffffffffffff826117e1565b61182686836117e1565b95508019841693508086168417925050509392505050565b5f819050919050565b5f819050919050565b5f61186a6118656118608461183e565b611847565b61183e565b9050919050565b5f819050919050565b61188383611850565b61189761188f82611871565b8484546117ed565b825550505050565b5f90565b6118ab61189f565b6118b681848461187a565b505050565b5b818110156118d9576118ce5f826118a3565b6001810190506118bc565b5050565b601f82111561191e576118ef816117c0565b6118f8846117d2565b81016020851015611907578190505b61191b611913856117d2565b8301826118bb565b50505b505050565b5f82821c905092915050565b5f61193e5f1984600802611923565b1980831691505092915050565b5f611956838361192f565b9150826002028217905092915050565b61196f82610e08565b67ffffffffffffffff811115611988576119876110c5565b5b6119928254611790565b61199d8282856118dd565b5f60209050601f8311600181146119ce575f84156119bc578287015190505b6119c6858261194b565b865550611a2d565b601f1984166119dc866117c0565b5f5b82811015611a03578489015182556001820191506020850194506020810190506119de565b86831015611a205784890151611a1c601f89168261192f565b8355505b6001600288020188555050505b505050505050565b7f576569676874206d75737420626520302d3130300000000000000000000000005f82015250565b5f611a69601483610e12565b9150611a7482611a35565b602082019050919050565b5f6020820190508181035f830152611a9681611a5d565b9050919050565b7f436f6e63657074206d757374206e6f7420626520656d707479000000000000005f82015250565b5f611ad1601983610e12565b9150611adc82611a9d565b602082019050919050565b5f6020820190508181035f830152611afe81611ac5565b9050919050565b7f436f6d706f73652070617468206d757374206e6f7420626520656d70747900005f82015250565b5f611b39601e83610e12565b9150611b4482611b05565b602082019050919050565b5f6020820190508181035f830152611b6681611b2d565b9050919050565b5f81905092915050565b5f611b8182610e08565b611b8b8185611b6d565b9350611b9b818560208601610e22565b80840191505092915050565b5f611bb28285611b77565b9150611bbe8284611b77565b91508190509392505050565b611bd38161183e565b82525050565b5f6080820190508181035f830152611bf18187610e5a565b90508181036020830152611c058186610e5a565b90508181036040830152611c198185610f22565b9050611c286060830184611bca565b95945050505050565b5f81519050919050565b5f819050815f5260205f209050919050565b601f821115611c8e57611c5f81611c3b565b611c68846117d2565b81016020851015611c77578190505b611c8b611c83856117d2565b8301826118bb565b50505b505050565b611c9c82611c31565b67ffffffffffffffff811115611cb557611cb46110c5565b5b611cbf8254611790565b611cca828285611c4d565b5f60209050601f831160018114611cfb575f8415611ce9578287015190505b611cf3858261194b565b865550611d5a565b601f198416611d0986611c3b565b5f5b82811015611d3057848901518255600182019150602085019450602081019050611d0b565b86831015611d4d5784890151611d49601f89168261192f565b8355505b6001600288020188555050505b505050505050565b7f687474703a2f2f6c6f63616c686f73743a0000000000000000000000000000005f82015250565b5f611d96601183611b6d565b9150611da182611d62565b601182019050919050565b5f611db682611d8a565b9150611dc28284611b77565b915081905092915050565b611dd6816112b0565b82525050565b5f6060820190508181035f830152611df38161169e565b9050611e0260208301856116c0565b611e0f6040830184611dcd565b9392505050565b7f53657276696365206e6f7420666f756e64202d2070726f766973696f6e2066695f8201527f7273740000000000000000000000000000000000000000000000000000000000602082015250565b5f611e70602383610e12565b9150611e7b82611e16565b604082019050919050565b5f6020820190508181035f830152611e9d81611e64565b9050919050565b7f496d61676520555249206d757374206e6f7420626520656d70747900000000005f82015250565b5f611ed8601b83610e12565b9150611ee382611ea4565b602082019050919050565b5f6020820190508181035f830152611f0581611ecc565b9050919050565b7f4e487b71000000000000000000000000000000000000000000000000000000005f52601160045260245ffd5b5f611f438261183e565b9150611f4e8361183e565b9250828201905080821115611f6657611f65611f0c565b5b92915050565b7f636f6e7461696e65722d000000000000000000000000000000000000000000005f82015250565b5f611fa0600a83611b6d565b9150611fab82611f6c565b600a82019050919050565b5f611fc082611f94565b9150611fcc8284611b77565b915081905092915050565b5f611fe18261183e565b91507fffffffffffffffffffffffffffffffffffffffffffffffffffffffffffffffff820361201357612012611f0c565b5b600182019050919050565b7f4e487b71000000000000000000000000000000000000000000000000000000005f52601260045260245ffd5b5f6120558261183e565b91506120608361183e565b9250826120705761206f61201e565b5b828204905092915050565b5f6120858261183e565b91506120908361183e565b92508282039050818111156120a8576120a7611f0c565b5b92915050565b5f6120b88261183e565b91506120c38361183e565b9250826120d3576120d261201e565b5b82820690509291505056fea2646970667358221220e19398c51f39d4f01aeabf3249e6c74ef46a68b150abf75c3ab10ddff0120a5964736f6c63430008140033","linkReferences":{}},"methodIdentifiers":{"deploy(bytes32,string)":"c416a8cf","destroy(bytes32)":"6e0bd282","provision(string,string,string[])":"b5a788e5","register()":"1aa3a008","rollback(bytes32,string)":"7855131d","setTrafficWeight(bytes32,int256)":"8388d229"},"id":103}