{"abi":[{"type":"function","name":"createAlias","inputs":[{"name":"token","type":"bytes32","internalType":"bytes32"},{"name":"name","type":"string","internalType":"string"},{"name":"refToken","type":"bytes32","internalType":"bytes32"},{"name":"tier","type":"string","internalType":"string"}],"outputs":[{"name":"","type":"tuple","internalType":"struct DesignToken.AliasOkResult","components":[{"name":"success","type":"bool","internalType":"bool"},{"name":"token","type":"bytes32","internalType":"bytes32"}]}],"stateMutability":"nonpayable"},{"type":"function","name":"defineToken","inputs":[{"name":"token","type":"bytes32","internalType":"bytes32"},{"name":"name","type":"string","internalType":"string"},{"name":"value","type":"string","internalType":"string"},{"name":"tokenType","type":"string","internalType":"string"},{"name":"tier","type":"string","internalType":"string"}],"outputs":[{"name":"","type":"tuple","internalType":"struct DesignToken.DefineOkResult","components":[{"name":"success","type":"bool","internalType":"bool"},{"name":"token","type":"bytes32","internalType":"bytes32"}]}],"stateMutability":"nonpayable"},{"type":"function","name":"exportTokens","inputs":[{"name":"format","type":"string","internalType":"string"}],"outputs":[{"name":"","type":"tuple","internalType":"struct DesignToken.ExportOkResult","components":[{"name":"success","type":"bool","internalType":"bool"},{"name":"output","type":"string","internalType":"string"}]}],"stateMutability":"nonpayable"},{"type":"function","name":"remove","inputs":[{"name":"token","type":"bytes32","internalType":"bytes32"}],"outputs":[{"name":"","type":"tuple","internalType":"struct DesignToken.RemoveOkResult","components":[{"name":"success","type":"bool","internalType":"bool"},{"name":"token","type":"bytes32","internalType":"bytes32"}]}],"stateMutability":"nonpayable"},{"type":"function","name":"resolve","inputs":[{"name":"token","type":"bytes32","internalType":"bytes32"}],"outputs":[{"name":"","type":"tuple","internalType":"struct DesignToken.ResolveOkResult","components":[{"name":"success","type":"bool","internalType":"bool"},{"name":"token","type":"bytes32","internalType":"bytes32"},{"name":"resolvedValue","type":"string","internalType":"string"}]}],"stateMutability":"nonpayable"},{"type":"function","name":"update","inputs":[{"name":"token","type":"bytes32","internalType":"bytes32"},{"name":"value","type":"string","internalType":"string"}],"outputs":[{"name":"","type":"tuple","internalType":"struct DesignToken.UpdateOkResult","components":[{"name":"success","type":"bool","internalType":"bool"},{"name":"token","type":"bytes32","internalType":"bytes32"}]}],"stateMutability":"nonpayable"},{"type":"event","name":"AliasCompleted","inputs":[{"name":"variant","type":"string","indexed":false,"internalType":"string"},{"name":"token","type":"bytes32","indexed":true,"internalType":"bytes32"}],"anonymous":false},{"type":"event","name":"DefineCompleted","inputs":[{"name":"variant","type":"string","indexed":false,"internalType":"string"},{"name":"token","type":"bytes32","indexed":true,"internalType":"bytes32"}],"anonymous":false},{"type":"event","name":"ExportCompleted","inputs":[{"name":"variant","type":"string","indexed":false,"internalType":"string"}],"anonymous":false},{"type":"event","name":"RemoveCompleted","inputs":[{"name":"variant","type":"string","indexed":false,"internalType":"string"},{"name":"token","type":"bytes32","indexed":true,"internalType":"bytes32"}],"anonymous":false},{"type":"event","name":"ResolveCompleted","inputs":[{"name":"variant","type":"string","indexed":false,"internalType":"string"},{"name":"token","type":"bytes32","indexed":true,"internalType":"bytes32"}],"anonymous":false},{"type":"event","name":"UpdateCompleted","inputs":[{"name":"variant","type":"string","indexed":false,"internalType":"string"},{"name":"token","type":"bytes32","indexed":true,"internalType":"bytes32"}],"anonymous":false}],"bytecode":{"object":"0x608060405234801561000f575f80fd5b50611cb18061001d5f395ff3fe608060405234801561000f575f80fd5b5060043610610060575f3560e01c80635c23bdf5146100645780637ae6d0941461009457806395bc2673146100c4578063ab70d505146100f4578063dd5b64de14610124578063e854185014610154575b5f80fd5b61007e60048036038101906100799190610e01565b610184565b60405161008b9190610f2c565b60405180910390f35b6100ae60048036038101906100a99190611078565b6103e8565b6040516100bb9190611141565b60405180910390f35b6100de60048036038101906100d99190610e01565b61070c565b6040516100eb9190611187565b60405180910390f35b61010e600480360381019061010991906111a0565b61085d565b60405161011b9190611221565b60405180910390f35b61013e60048036038101906101399190611241565b6109b3565b60405161014b91906112c8565b60405180910390f35b61016e600480360381019061016991906112e1565b610a8f565b60405161017b91906113f5565b60405180910390f35b61018c610cb2565b60015f8381526020019081526020015f205f9054906101000a900460ff166101e9576040517f08c379a00000000000000000000000000000000000000000000000000000000081526004016101e090611468565b60405180910390fd5b5f8290505f601490505f5b5f808481526020019081526020015f206004015f9054906101000a900460ff16801561021f57508181105b156102aa575f808481526020019081526020015f2060050154925060015f8481526020019081526020015f205f9054906101000a900460ff16610297576040517f08c379a000000000000000000000000000000000000000000000000000000000815260040161028e906114d0565b60405180910390fd5b80806102a290611524565b9150506101f4565b8181106102ec576040517f08c379a00000000000000000000000000000000000000000000000000000000081526004016102e3906115b5565b60405180910390fd5b5f805f8581526020019081526020015f20600101805461030b90611600565b80601f016020809104026020016040519081016040528092919081815260200182805461033790611600565b80156103825780601f1061035957610100808354040283529160200191610382565b820191905f5260205f20905b81548152906001019060200180831161036557829003601f168201915b50505050509050857feae6670cb45d870a20f6d709ca7212b23081cb581d2110b53b54e4d2d74225d46040516103b79061167a565b60405180910390a2604051806060016040528060011515815260200187815260200182815250945050505050919050565b6103f0610cd6565b60015f8681526020019081526020015f205f9054906101000a900460ff161561044e576040517f08c379a0000000000000000000000000000000000000000000000000000000008152600401610445906116e2565b60405180910390fd5b60015f8481526020019081526020015f205f9054906101000a900460ff166104ab576040517f08c379a00000000000000000000000000000000000000000000000000000000081526004016104a29061174a565b60405180910390fd5b8285036104ed576040517f08c379a00000000000000000000000000000000000000000000000000000000081526004016104e4906117b2565b60405180910390fd5b6040518060e0016040528085815260200160405180602001604052805f81525081526020015f808681526020019081526020015f20600201805461053090611600565b80601f016020809104026020016040519081016040528092919081815260200182805461055c90611600565b80156105a75780601f1061057e576101008083540402835291602001916105a7565b820191905f5260205f20905b81548152906001019060200180831161058a57829003601f168201915b50505050508152602001838152602001600115158152602001848152602001428152505f808781526020019081526020015f205f820151815f0190816105ed919061196d565b506020820151816001019081610603919061196d565b506040820151816002019081610619919061196d565b50606082015181600301908161062f919061196d565b506080820151816004015f6101000a81548160ff02191690831515021790555060a0820151816005015560c082015181600601559050506001805f8781526020019081526020015f205f6101000a81548160ff021916908315150217905550600285908060018154018082558091505060019003905f5260205f20015f9091909190915055847fffcedc94bcbb98dd892845b8286d5150963ce9ecc79409b1d26cd9ec4b09d97a6040516106e29061167a565b60405180910390a26040518060400160405280600115158152602001868152509050949350505050565b610714610cf3565b60015f8381526020019081526020015f205f9054906101000a900460ff16610771576040517f08c379a000000000000000000000000000000000000000000000000000000000815260040161076890611468565b60405180910390fd5b5f808381526020019081526020015f205f8082015f6107909190610d10565b600182015f61079f9190610d10565b600282015f6107ae9190610d10565b600382015f6107bd9190610d10565b600482015f6101000a81549060ff0219169055600582015f9055600682015f905550505f60015f8481526020019081526020015f205f6101000a81548160ff021916908315150217905550817f29ecd025630c5051a08e7e5f7d72f6c3027ae1119dfb1ec63d9283914190822a6040516108369061167a565b60405180910390a26040518060400160405280600115158152602001838152509050919050565b610865610d4d565b5f60405180602001604052805f81525090505f600190505f5b60028054905081101561095c575f600282815481106108a05761089f611a3c565b5b905f5260205f200154905060015f8281526020019081526020015f205f9054906101000a900460ff166108d35750610949565b826108fb57836040516020016108e99190611aed565b60405160208183030381529060405293505b835f808381526020019081526020015f205f015f808481526020019081526020015f2060010160405160200161093393929190611bd8565b60405160208183030381529060405293505f9250505b808061095490611524565b91505061087e565b507f76b878fc57aafe105e0c11c301480bf0e9e6c0de0ad499f6b6f601b46ee9d75b60405161098a9061167a565b60405180910390a160405180604001604052806001151581526020018381525092505050919050565b6109bb610d68565b60015f8481526020019081526020015f205f9054906101000a900460ff16610a18576040517f08c379a0000000000000000000000000000000000000000000000000000000008152600401610a0f90611468565b60405180910390fd5b815f808581526020019081526020015f206001019081610a38919061196d565b50827fe94d2d9e97e9819fadb3d9df3dce40c7041c833b6fea6c7c10382bfd0a65a16f604051610a679061167a565b60405180910390a2604051806040016040528060011515815260200184815250905092915050565b610a97610d85565b60015f8781526020019081526020015f205f9054906101000a900460ff1615610af5576040517f08c379a0000000000000000000000000000000000000000000000000000000008152600401610aec906116e2565b60405180910390fd5b5f855111610b38576040517f08c379a0000000000000000000000000000000000000000000000000000000008152600401610b2f90611c5d565b60405180910390fd5b6040518060e001604052808681526020018581526020018481526020018381526020015f151581526020015f801b8152602001428152505f808881526020019081526020015f205f820151815f019081610b92919061196d565b506020820151816001019081610ba8919061196d565b506040820151816002019081610bbe919061196d565b506060820151816003019081610bd4919061196d565b506080820151816004015f6101000a81548160ff02191690831515021790555060a0820151816005015560c082015181600601559050506001805f8881526020019081526020015f205f6101000a81548160ff021916908315150217905550600286908060018154018082558091505060019003905f5260205f20015f9091909190915055857f0aee5310641eaf2eaf388fe3fda83de498f247bde5dd3f7477b273447e8b1629604051610c879061167a565b60405180910390a2604051806040016040528060011515815260200187815250905095945050505050565b60405180606001604052805f151581526020015f8019168152602001606081525090565b60405180604001604052805f151581526020015f80191681525090565b60405180604001604052805f151581526020015f80191681525090565b508054610d1c90611600565b5f825580601f10610d2d5750610d4a565b601f0160209004905f5260205f2090810190610d499190610da2565b5b50565b60405180604001604052805f15158152602001606081525090565b60405180604001604052805f151581526020015f80191681525090565b60405180604001604052805f151581526020015f80191681525090565b5b80821115610db9575f815f905550600101610da3565b5090565b5f604051905090565b5f80fd5b5f80fd5b5f819050919050565b610de081610dce565b8114610dea575f80fd5b50565b5f81359050610dfb81610dd7565b92915050565b5f60208284031215610e1657610e15610dc6565b5b5f610e2384828501610ded565b91505092915050565b5f8115159050919050565b610e4081610e2c565b82525050565b610e4f81610dce565b82525050565b5f81519050919050565b5f82825260208201905092915050565b5f5b83811015610e8c578082015181840152602081019050610e71565b5f8484015250505050565b5f601f19601f8301169050919050565b5f610eb182610e55565b610ebb8185610e5f565b9350610ecb818560208601610e6f565b610ed481610e97565b840191505092915050565b5f606083015f830151610ef45f860182610e37565b506020830151610f076020860182610e46565b5060408301518482036040860152610f1f8282610ea7565b9150508091505092915050565b5f6020820190508181035f830152610f448184610edf565b905092915050565b5f80fd5b5f80fd5b7f4e487b71000000000000000000000000000000000000000000000000000000005f52604160045260245ffd5b610f8a82610e97565b810181811067ffffffffffffffff82111715610fa957610fa8610f54565b5b80604052505050565b5f610fbb610dbd565b9050610fc78282610f81565b919050565b5f67ffffffffffffffff821115610fe657610fe5610f54565b5b610fef82610e97565b9050602081019050919050565b828183375f83830152505050565b5f61101c61101784610fcc565b610fb2565b90508281526020810184848401111561103857611037610f50565b5b611043848285610ffc565b509392505050565b5f82601f83011261105f5761105e610f4c565b5b813561106f84826020860161100a565b91505092915050565b5f805f80608085870312156110905761108f610dc6565b5b5f61109d87828801610ded565b945050602085013567ffffffffffffffff8111156110be576110bd610dca565b5b6110ca8782880161104b565b93505060406110db87828801610ded565b925050606085013567ffffffffffffffff8111156110fc576110fb610dca565b5b6111088782880161104b565b91505092959194509250565b604082015f8201516111285f850182610e37565b50602082015161113b6020850182610e46565b50505050565b5f6040820190506111545f830184611114565b92915050565b604082015f82015161116e5f850182610e37565b5060208201516111816020850182610e46565b50505050565b5f60408201905061119a5f83018461115a565b92915050565b5f602082840312156111b5576111b4610dc6565b5b5f82013567ffffffffffffffff8111156111d2576111d1610dca565b5b6111de8482850161104b565b91505092915050565b5f604083015f8301516111fc5f860182610e37565b50602083015184820360208601526112148282610ea7565b9150508091505092915050565b5f6020820190508181035f83015261123981846111e7565b905092915050565b5f806040838503121561125757611256610dc6565b5b5f61126485828601610ded565b925050602083013567ffffffffffffffff81111561128557611284610dca565b5b6112918582860161104b565b9150509250929050565b604082015f8201516112af5f850182610e37565b5060208201516112c26020850182610e46565b50505050565b5f6040820190506112db5f83018461129b565b92915050565b5f805f805f60a086880312156112fa576112f9610dc6565b5b5f61130788828901610ded565b955050602086013567ffffffffffffffff81111561132857611327610dca565b5b6113348882890161104b565b945050604086013567ffffffffffffffff81111561135557611354610dca565b5b6113618882890161104b565b935050606086013567ffffffffffffffff81111561138257611381610dca565b5b61138e8882890161104b565b925050608086013567ffffffffffffffff8111156113af576113ae610dca565b5b6113bb8882890161104b565b9150509295509295909350565b604082015f8201516113dc5f850182610e37565b5060208201516113ef6020850182610e46565b50505050565b5f6040820190506114085f8301846113c8565b92915050565b5f82825260208201905092915050565b7f546f6b656e206e6f7420666f756e6400000000000000000000000000000000005f82015250565b5f611452600f8361140e565b915061145d8261141e565b602082019050919050565b5f6020820190508181035f83015261147f81611446565b9050919050565b7f42726f6b656e20616c69617320636861696e00000000000000000000000000005f82015250565b5f6114ba60128361140e565b91506114c582611486565b602082019050919050565b5f6020820190508181035f8301526114e7816114ae565b9050919050565b7f4e487b71000000000000000000000000000000000000000000000000000000005f52601160045260245ffd5b5f819050919050565b5f61152e8261151b565b91507fffffffffffffffffffffffffffffffffffffffffffffffffffffffffffffffff82036115605761155f6114ee565b5b600182019050919050565b7f416c69617320636861696e20746f6f20646565700000000000000000000000005f82015250565b5f61159f60148361140e565b91506115aa8261156b565b602082019050919050565b5f6020820190508181035f8301526115cc81611593565b9050919050565b7f4e487b71000000000000000000000000000000000000000000000000000000005f52602260045260245ffd5b5f600282049050600182168061161757607f821691505b60208210810361162a576116296115d3565b5b50919050565b7f6f6b0000000000000000000000000000000000000000000000000000000000005f82015250565b5f61166460028361140e565b915061166f82611630565b602082019050919050565b5f6020820190508181035f83015261169181611658565b9050919050565b7f546f6b656e20616c726561647920646566696e656400000000000000000000005f82015250565b5f6116cc60158361140e565b91506116d782611698565b602082019050919050565b5f6020820190508181035f8301526116f9816116c0565b9050919050565b7f5265666572656e63656420746f6b656e206e6f7420666f756e640000000000005f82015250565b5f611734601a8361140e565b915061173f82611700565b602082019050919050565b5f6020820190508181035f83015261176181611728565b9050919050565b7f416c696173206379636c652064657465637465640000000000000000000000005f82015250565b5f61179c60148361140e565b91506117a782611768565b602082019050919050565b5f6020820190508181035f8301526117c981611790565b9050919050565b5f819050815f5260205f209050919050565b5f6020601f8301049050919050565b5f82821b905092915050565b5f6008830261182c7fffffffffffffffffffffffffffffffffffffffffffffffffffffffffffffffff826117f1565b61183686836117f1565b95508019841693508086168417925050509392505050565b5f819050919050565b5f61187161186c6118678461151b565b61184e565b61151b565b9050919050565b5f819050919050565b61188a83611857565b61189e61189682611878565b8484546117fd565b825550505050565b5f90565b6118b26118a6565b6118bd818484611881565b505050565b5b818110156118e0576118d55f826118aa565b6001810190506118c3565b5050565b601f821115611925576118f6816117d0565b6118ff846117e2565b8101602085101561190e578190505b61192261191a856117e2565b8301826118c2565b50505b505050565b5f82821c905092915050565b5f6119455f198460080261192a565b1980831691505092915050565b5f61195d8383611936565b9150826002028217905092915050565b61197682610e55565b67ffffffffffffffff81111561198f5761198e610f54565b5b6119998254611600565b6119a48282856118e4565b5f60209050601f8311600181146119d5575f84156119c3578287015190505b6119cd8582611952565b865550611a34565b601f1984166119e3866117d0565b5f5b82811015611a0a578489015182556001820191506020850194506020810190506119e5565b86831015611a275784890151611a23601f891682611936565b8355505b6001600288020188555050505b505050505050565b7f4e487b71000000000000000000000000000000000000000000000000000000005f52603260045260245ffd5b5f81905092915050565b5f611a7d82610e55565b611a878185611a69565b9350611a97818560208601610e6f565b80840191505092915050565b7f3b000000000000000000000000000000000000000000000000000000000000005f82015250565b5f611ad7600183611a69565b9150611ae282611aa3565b600182019050919050565b5f611af88284611a73565b9150611b0382611acb565b915081905092915050565b5f8154611b1a81611600565b611b248186611a69565b9450600182165f8114611b3e5760018114611b5357611b85565b60ff1983168652811515820286019350611b85565b611b5c856117d0565b5f5b83811015611b7d57815481890152600182019150602081019050611b5e565b838801955050505b50505092915050565b7f3a000000000000000000000000000000000000000000000000000000000000005f82015250565b5f611bc2600183611a69565b9150611bcd82611b8e565b600182019050919050565b5f611be38286611a73565b9150611bef8285611b0e565b9150611bfa82611bb6565b9150611c068284611b0e565b9150819050949350505050565b7f4e616d65207265717569726564000000000000000000000000000000000000005f82015250565b5f611c47600d8361140e565b9150611c5282611c13565b602082019050919050565b5f6020820190508181035f830152611c7481611c3b565b905091905056fea26469706673582212202ff1e1fe0b6a06e6e1888827b037afe4981b8757d2a37dbb2b76026a8cba4c5364736f6c63430008140033","linkReferences":{}},"methodIdentifiers":{"createAlias(bytes32,string,bytes32,string)":"7ae6d094","defineToken(bytes32,string,string,string,string)":"e8541850","exportTokens(string)":"ab70d505","remove(bytes32)":"95bc2673","resolve(bytes32)":"5c23bdf5","update(bytes32,string)":"dd5b64de"},"id":97}