{"abi":[{"type":"function","name":"coverageReport","inputs":[{"name":"kind","type":"string","internalType":"string"},{"name":"since","type":"string","internalType":"string"}],"outputs":[{"name":"","type":"tuple","internalType":"struct RuntimeCoverage.CoverageReportOkResult","components":[{"name":"success","type":"bool","internalType":"bool"},{"name":"report","type":"string","internalType":"string"}]}],"stateMutability":"nonpayable"},{"type":"function","name":"deadAtRuntime","inputs":[{"name":"kind","type":"string","internalType":"string"}],"outputs":[{"name":"","type":"tuple","internalType":"struct RuntimeCoverage.DeadAtRuntimeOkResult","components":[{"name":"success","type":"bool","internalType":"bool"},{"name":"neverExercised","type":"string","internalType":"string"}]}],"stateMutability":"nonpayable"},{"type":"function","name":"record","inputs":[{"name":"symbol","type":"string","internalType":"string"},{"name":"kind","type":"string","internalType":"string"},{"name":"flowId","type":"string","internalType":"string"}],"outputs":[{"name":"","type":"tuple","internalType":"struct RuntimeCoverage.RecordOkResult","components":[{"name":"success","type":"bool","internalType":"bool"},{"name":"entry","type":"bytes32","internalType":"bytes32"}]}],"stateMutability":"nonpayable"},{"type":"function","name":"syncCoverage","inputs":[{"name":"since","type":"string","internalType":"string"}],"outputs":[{"name":"","type":"tuple","internalType":"struct RuntimeCoverage.SyncCoverageOkResult","components":[{"name":"success","type":"bool","internalType":"bool"},{"name":"report","type":"string","internalType":"string"}]}],"stateMutability":"nonpayable"},{"type":"function","name":"variantCoverage","inputs":[{"name":"concept","type":"string","internalType":"string"}],"outputs":[{"name":"","type":"tuple","internalType":"struct RuntimeCoverage.VariantCoverageOkResult","components":[{"name":"success","type":"bool","internalType":"bool"},{"name":"report","type":"string","internalType":"string"}]}],"stateMutability":"nonpayable"},{"type":"function","name":"widgetComparison","inputs":[{"name":"since","type":"string","internalType":"string"},{"name":"topN","type":"int256","internalType":"int256"}],"outputs":[{"name":"","type":"tuple","internalType":"struct RuntimeCoverage.WidgetComparisonOkResult","components":[{"name":"success","type":"bool","internalType":"bool"},{"name":"ranking","type":"string","internalType":"string"}]}],"stateMutability":"nonpayable"},{"type":"function","name":"widgetLifecycleReport","inputs":[{"name":"widget","type":"string","internalType":"string"},{"name":"since","type":"string","internalType":"string"}],"outputs":[{"name":"","type":"tuple","internalType":"struct RuntimeCoverage.WidgetLifecycleReportOkResult","components":[{"name":"success","type":"bool","internalType":"bool"},{"name":"report","type":"string","internalType":"string"}]}],"stateMutability":"nonpayable"},{"type":"function","name":"widgetRenderTrace","inputs":[{"name":"widgetInstance","type":"string","internalType":"string"}],"outputs":[{"name":"","type":"tuple","internalType":"struct RuntimeCoverage.WidgetRenderTraceOkResult","components":[{"name":"success","type":"bool","internalType":"bool"},{"name":"renders","type":"string","internalType":"string"}]}],"stateMutability":"nonpayable"},{"type":"function","name":"widgetStateCoverage","inputs":[{"name":"widget","type":"string","internalType":"string"}],"outputs":[{"name":"","type":"tuple","internalType":"struct RuntimeCoverage.WidgetStateCoverageOkResult","components":[{"name":"success","type":"bool","internalType":"bool"},{"name":"report","type":"string","internalType":"string"}]}],"stateMutability":"nonpayable"},{"type":"event","name":"CoverageReportCompleted","inputs":[{"name":"variant","type":"string","indexed":false,"internalType":"string"}],"anonymous":false},{"type":"event","name":"DeadAtRuntimeCompleted","inputs":[{"name":"variant","type":"string","indexed":false,"internalType":"string"}],"anonymous":false},{"type":"event","name":"RecordCompleted","inputs":[{"name":"variant","type":"string","indexed":false,"internalType":"string"},{"name":"entry","type":"bytes32","indexed":false,"internalType":"bytes32"}],"anonymous":false},{"type":"event","name":"SyncCoverageCompleted","inputs":[{"name":"variant","type":"string","indexed":false,"internalType":"string"}],"anonymous":false},{"type":"event","name":"VariantCoverageCompleted","inputs":[{"name":"variant","type":"string","indexed":false,"internalType":"string"}],"anonymous":false},{"type":"event","name":"WidgetComparisonCompleted","inputs":[{"name":"variant","type":"string","indexed":false,"internalType":"string"}],"anonymous":false},{"type":"event","name":"WidgetLifecycleReportCompleted","inputs":[{"name":"variant","type":"string","indexed":false,"internalType":"string"}],"anonymous":false},{"type":"event","name":"WidgetRenderTraceCompleted","inputs":[{"name":"variant","type":"string","indexed":false,"internalType":"string"}],"anonymous":false},{"type":"event","name":"WidgetStateCoverageCompleted","inputs":[{"name":"variant","type":"string","indexed":false,"internalType":"string"}],"anonymous":false}],"bytecode":{"object":"0x608060405234801561000f575f80fd5b506128258061001d5f395ff3fe608060405234801561000f575f80fd5b5060043610610091575f3560e01c806381642c7b1161006457806381642c7b14610155578063a713566914610185578063c1be98f1146101b5578063d5bb6ee8146101e5578063e986f0ff1461021557610091565b80631abd711f146100955780632f8fd045146100c55780634a96acb8146100f557806380539e2c14610125575b5f80fd5b6100af60048036038101906100aa919061144d565b610245565b6040516100bc9190611591565b60405180910390f35b6100df60048036038101906100da91906115b1565b610314565b6040516100ec9190611632565b60405180910390f35b61010f600480360381019061010a91906115b1565b610474565b60405161011c919061168c565b60405180910390f35b61013f600480360381019061013a91906115b1565b6105b3565b60405161014c91906116e6565b60405180910390f35b61016f600480360381019061016a9190611739565b610745565b60405161017c91906117cd565b60405180910390f35b61019f600480360381019061019a91906115b1565b6108c9565b6040516101ac9190611827565b60405180910390f35b6101cf60048036038101906101ca919061144d565b610a62565b6040516101dc9190611881565b60405180910390f35b6101ff60048036038101906101fa91906115b1565b610b9b565b60405161020c91906118db565b60405180910390f35b61022f600480360381019061022a91906118fb565b610cd8565b60405161023c91906119e4565b60405180910390f35b61024d61120b565b5f8360405160200161025f9190611a37565b6040516020818303038152906040528051906020012090505f60035f8381526020019081526020015f2090505f8561029a83805490506110b2565b6040516020016102ab929190611ae1565b60405160208183030381529060405290507f33321d811cf4917fb98bdeab8264b0cc6d7eec810b055d5c003bc2508ed91bd86040516102e990611b74565b60405180910390a1604051806040016040528060011515815260200182815250935050505092915050565b61031c611226565b5f8260405160200161032e9190611a37565b6040516020818303038152906040528051906020012090505f60035f8381526020019081526020015f2090505f60405180602001604052805f81525090505f5b828054905081101561041c575f805f8584815481106103905761038f611b92565b5b905f5260205f20015481526020019081526020015f2090505f8211156103d357826040516020016103c19190611c09565b60405160208183030381529060405292505b82816001016103e583600301546110b2565b6040516020016103f793929190611d63565b604051602081830303815290604052925050808061041490611dd4565b91505061036e565b507fe4e26e54f823482fd857906621f18f61211bd1b437cf10ebe7a700396fec997760405161044a90611b74565b60405180910390a16040518060400160405280600115158152602001828152509350505050919050565b61047c611241565b5f60405160200161048c90611e65565b6040516020818303038152906040528051906020012090505f60025f8381526020019081526020015f2090505f805b828054905081101561051f575f805f8584815481106104dd576104dc611b92565b5b905f5260205f20015481526020019081526020015f2060030154111561050c57818061050890611dd4565b9250505b808061051790611dd4565b9150506104bb565b505f8561052b836110b2565b61053885805490506110b2565b60405160200161054a93929190611f57565b60405160208183030381529060405290507ff17de5dcf5f5920db2982d4a13fe4d0f9ce08575822b5c922a4cea641065ca0260405161058890611b74565b60405180910390a1604051806040016040528060011515815260200182815250945050505050919050565b6105bb61125c565b5f826040516020016105cd9190611a37565b6040516020818303038152906040528051906020012090505f60025f8381526020019081526020015f2090505f60405180602001604052805f81525090505f805b83805490508110156106ec575f805f8684815481106106305761062f611b92565b5b905f5260205f20015481526020019081526020015f2060030154036106d9575f82111561067a57826040516020016106689190611c09565b60405160208183030381529060405292505b825f808684815481106106905761068f611b92565b5b905f5260205f20015481526020019081526020015f205f016040516020016106b9929190611fa8565b604051602081830303815290604052925081806106d590611dd4565b9250505b80806106e490611dd4565b91505061060e565b507fc66ed672f4f35493ea54ed0f01db86d9577db929e3a7a654af5136f3859dd15760405161071a90611b74565b60405180910390a1604051806040016040528060011515815260200183815250945050505050919050565b61074d611277565b5f821361078f576040517f08c379a000000000000000000000000000000000000000000000000000000000815260040161078690612015565b60405180910390fd5b5f60405180602001604052805f81525090505f808490505f5b600180549050811080156107bb57508183105b15610870575f805f600184815481106107d7576107d6611b92565b5b905f5260205f20015481526020019081526020015f2090505f84111561081a57846040516020016108089190611c09565b60405160208183030381529060405294505b84815f0161082b83600301546110b2565b60405160200161083d93929190611d63565b6040516020818303038152906040529450838061085990611dd4565b94505050808061086890611dd4565b9150506107a8565b507f2a9103a3d211f95265387c987a2677490728df34d1bc0f941c2c6fd68989241060405161089e90611b74565b60405180910390a1604051806040016040528060011515815260200184815250935050505092915050565b6108d1611292565b5f6040516020016108e19061207d565b6040516020818303038152906040528051906020012090505f60025f8381526020019081526020015f2090505f80856040516020016109209190611a37565b6040516020818303038152906040528051906020012090505f5b83805490508110156109db575f805f86848154811061095c5761095b611b92565b5b905f5260205f20015481526020019081526020015f2090505f815f016040516020016109889190612091565b60405160208183030381529060405280519060200120905083811480156109b257505f8260030154115b156109c65784806109c290611dd4565b9550505b505080806109d390611dd4565b91505061093a565b505f866109e7846110b2565b6040516020016109f89291906120f1565b60405160208183030381529060405290507fba1b92f22a71582d366ee9094d37afcfaea1957a4442f5e3cd0cd5bad379813b604051610a3690611b74565b60405180910390a160405180604001604052806001151581526020018281525095505050505050919050565b610a6a6112ad565b5f83604051602001610a7c9190611a37565b6040516020818303038152906040528051906020012090505f60025f8381526020019081526020015f2090505f805b8280549050811015610b06575f80848381548110610acc57610acb611b92565b5b905f5260205f20015481526020019081526020015f206003015482610af1919061212a565b91508080610afe90611dd4565b915050610aab565b505f86610b1684805490506110b2565b610b1f846110b2565b604051602001610b319392919061223b565b60405160208183030381529060405290507f431d29643329de9990e43df55db9cb5d48d19a8779524d520a0dbda671bbd0d7604051610b6f90611b74565b60405180910390a160405180604001604052806001151581526020018281525094505050505092915050565b610ba36112c8565b5f604051602001610bb3906122d6565b6040516020818303038152906040528051906020012090505f60025f8381526020019081526020015f2090505f805b8280549050811015610c46575f805f858481548110610c0457610c03611b92565b5b905f5260205f20015481526020019081526020015f20600301541115610c33578180610c2f90611dd4565b9250505b8080610c3e90611dd4565b915050610be2565b505f610c51826110b2565b610c5e84805490506110b2565b604051602001610c6f929190612334565b60405160208183030381529060405290507f4418a5096e83ff4f0bc05943bd3b0a15323de3deca135c65c795109f6026f72b604051610cad90611b74565b60405180910390a1604051806040016040528060011515815260200182815250945050505050919050565b610ce06112e3565b5f845111610d23576040517f08c379a0000000000000000000000000000000000000000000000000000000008152600401610d1a906123b7565b60405180910390fd5b5f835111610d66576040517f08c379a0000000000000000000000000000000000000000000000000000000008152600401610d5d9061241f565b60405180910390fd5b5f8484604051602001610d7a92919061243d565b60405160208183030381529060405280519060200120905060605f808381526020019081526020015f206005015f9054906101000a900460ff1615610e57575f808381526020019081526020015f206003015f815480929190610ddc90611dd4565b9190505550835f808481526020019081526020015f206002019081610e0191906125eb565b50425f808481526020019081526020015f20600401819055506040518060400160405280600281526020017f6f6b0000000000000000000000000000000000000000000000000000000000008152509050611056565b6040518060c0016040528087815260200186815260200185815260200160018152602001428152602001600115158152505f808481526020019081526020015f205f820151815f019081610eab91906125eb565b506020820151816001019081610ec191906125eb565b506040820151816002019081610ed791906125eb565b50606082015181600301556080820151816004015560a0820151816005015f6101000a81548160ff021916908315150217905550905050600182908060018154018082558091505060019003905f5260205f20015f90919091909150555f85604051602001610f469190611a37565b60405160208183030381529060405280519060200120905060025f8281526020019081526020015f2083908060018154018082558091505060019003905f5260205f20015f90919091909150555f87604051602001610fa59190611a37565b60405160208183030381529060405280519060200120905060035f8281526020019081526020015f2084908060018154018082558091505060019003905f5260205f20015f9091909190915055600160055f8681526020019081526020015f205f6101000a81548160ff0219169083151502179055506040518060400160405280600781526020017f6372656174656400000000000000000000000000000000000000000000000000815250925050505b7fcda516a6893ae355416ffc0c96e5d3732914ae2678fb2a1e76e147944d3a2e398183604051611087929190612701565b60405180910390a1604051806040016040528060011515815260200183815250925050509392505050565b60605f82036110f8576040518060400160405280600181526020017f30000000000000000000000000000000000000000000000000000000000000008152509050611206565b5f8290505f5b5f821461112757808061111090611dd4565b915050600a82611120919061275c565b91506110fe565b5f8167ffffffffffffffff81111561114257611141611329565b5b6040519080825280601f01601f1916602001820160405280156111745781602001600182028036833780820191505090505b5090505b5f85146111ff5760018261118c919061278c565b9150600a8561119b91906127bf565b60306111a7919061212a565b60f81b8183815181106111bd576111bc611b92565b5b60200101907effffffffffffffffffffffffffffffffffffffffffffffffffffffffffffff191690815f1a905350600a856111f8919061275c565b9450611178565b8093505050505b919050565b60405180604001604052805f15158152602001606081525090565b60405180604001604052805f15158152602001606081525090565b60405180604001604052805f15158152602001606081525090565b60405180604001604052805f15158152602001606081525090565b60405180604001604052805f15158152602001606081525090565b60405180604001604052805f15158152602001606081525090565b60405180604001604052805f15158152602001606081525090565b60405180604001604052805f15158152602001606081525090565b60405180604001604052805f151581526020015f80191681525090565b5f604051905090565b5f80fd5b5f80fd5b5f80fd5b5f80fd5b5f601f19601f8301169050919050565b7f4e487b71000000000000000000000000000000000000000000000000000000005f52604160045260245ffd5b61135f82611319565b810181811067ffffffffffffffff8211171561137e5761137d611329565b5b80604052505050565b5f611390611300565b905061139c8282611356565b919050565b5f67ffffffffffffffff8211156113bb576113ba611329565b5b6113c482611319565b9050602081019050919050565b828183375f83830152505050565b5f6113f16113ec846113a1565b611387565b90508281526020810184848401111561140d5761140c611315565b5b6114188482856113d1565b509392505050565b5f82601f83011261143457611433611311565b5b81356114448482602086016113df565b91505092915050565b5f806040838503121561146357611462611309565b5b5f83013567ffffffffffffffff8111156114805761147f61130d565b5b61148c85828601611420565b925050602083013567ffffffffffffffff8111156114ad576114ac61130d565b5b6114b985828601611420565b9150509250929050565b5f8115159050919050565b6114d7816114c3565b82525050565b5f81519050919050565b5f82825260208201905092915050565b5f5b838110156115145780820151818401526020810190506114f9565b5f8484015250505050565b5f611529826114dd565b61153381856114e7565b93506115438185602086016114f7565b61154c81611319565b840191505092915050565b5f604083015f83015161156c5f8601826114ce565b5060208301518482036020860152611584828261151f565b9150508091505092915050565b5f6020820190508181035f8301526115a98184611557565b905092915050565b5f602082840312156115c6576115c5611309565b5b5f82013567ffffffffffffffff8111156115e3576115e261130d565b5b6115ef84828501611420565b91505092915050565b5f604083015f83015161160d5f8601826114ce565b5060208301518482036020860152611625828261151f565b9150508091505092915050565b5f6020820190508181035f83015261164a81846115f8565b905092915050565b5f604083015f8301516116675f8601826114ce565b506020830151848203602086015261167f828261151f565b9150508091505092915050565b5f6020820190508181035f8301526116a48184611652565b905092915050565b5f604083015f8301516116c15f8601826114ce565b50602083015184820360208601526116d9828261151f565b9150508091505092915050565b5f6020820190508181035f8301526116fe81846116ac565b905092915050565b5f819050919050565b61171881611706565b8114611722575f80fd5b50565b5f813590506117338161170f565b92915050565b5f806040838503121561174f5761174e611309565b5b5f83013567ffffffffffffffff81111561176c5761176b61130d565b5b61177885828601611420565b925050602061178985828601611725565b9150509250929050565b5f604083015f8301516117a85f8601826114ce565b50602083015184820360208601526117c0828261151f565b9150508091505092915050565b5f6020820190508181035f8301526117e58184611793565b905092915050565b5f604083015f8301516118025f8601826114ce565b506020830151848203602086015261181a828261151f565b9150508091505092915050565b5f6020820190508181035f83015261183f81846117ed565b905092915050565b5f604083015f83015161185c5f8601826114ce565b5060208301518482036020860152611874828261151f565b9150508091505092915050565b5f6020820190508181035f8301526118998184611847565b905092915050565b5f604083015f8301516118b65f8601826114ce565b50602083015184820360208601526118ce828261151f565b9150508091505092915050565b5f6020820190508181035f8301526118f381846118a1565b905092915050565b5f805f6060848603121561191257611911611309565b5b5f84013567ffffffffffffffff81111561192f5761192e61130d565b5b61193b86828701611420565b935050602084013567ffffffffffffffff81111561195c5761195b61130d565b5b61196886828701611420565b925050604084013567ffffffffffffffff8111156119895761198861130d565b5b61199586828701611420565b9150509250925092565b5f819050919050565b6119b18161199f565b82525050565b604082015f8201516119cb5f8501826114ce565b5060208201516119de60208501826119a8565b50505050565b5f6040820190506119f75f8301846119b7565b92915050565b5f81905092915050565b5f611a11826114dd565b611a1b81856119fd565b9350611a2b8185602086016114f7565b80840191505092915050565b5f611a428284611a07565b915081905092915050565b7f7769646765743a000000000000000000000000000000000000000000000000005f82015250565b5f611a816007836119fd565b9150611a8c82611a4d565b600782019050919050565b7f2c6576656e74733a0000000000000000000000000000000000000000000000005f82015250565b5f611acb6008836119fd565b9150611ad682611a97565b600882019050919050565b5f611aeb82611a75565b9150611af78285611a07565b9150611b0282611abf565b9150611b0e8284611a07565b91508190509392505050565b5f82825260208201905092915050565b7f6f6b0000000000000000000000000000000000000000000000000000000000005f82015250565b5f611b5e600283611b1a565b9150611b6982611b2a565b602082019050919050565b5f6020820190508181035f830152611b8b81611b52565b9050919050565b7f4e487b71000000000000000000000000000000000000000000000000000000005f52603260045260245ffd5b7f2c000000000000000000000000000000000000000000000000000000000000005f82015250565b5f611bf36001836119fd565b9150611bfe82611bbf565b600182019050919050565b5f611c148284611a07565b9150611c1f82611be7565b915081905092915050565b7f4e487b71000000000000000000000000000000000000000000000000000000005f52602260045260245ffd5b5f6002820490506001821680611c6e57607f821691505b602082108103611c8157611c80611c2a565b5b50919050565b5f819050815f5260205f209050919050565b5f8154611ca581611c57565b611caf81866119fd565b9450600182165f8114611cc95760018114611cde57611d10565b60ff1983168652811515820286019350611d10565b611ce785611c87565b5f5b83811015611d0857815481890152600182019150602081019050611ce9565b838801955050505b50505092915050565b7f3a000000000000000000000000000000000000000000000000000000000000005f82015250565b5f611d4d6001836119fd565b9150611d5882611d19565b600182019050919050565b5f611d6e8286611a07565b9150611d7a8285611c99565b9150611d8582611d41565b9150611d918284611a07565b9150819050949350505050565b7f4e487b71000000000000000000000000000000000000000000000000000000005f52601160045260245ffd5b5f819050919050565b5f611dde82611dcb565b91507fffffffffffffffffffffffffffffffffffffffffffffffffffffffffffffffff8203611e1057611e0f611d9e565b5b600182019050919050565b7f76617269616e74000000000000000000000000000000000000000000000000005f82015250565b5f611e4f6007836119fd565b9150611e5a82611e1b565b600782019050919050565b5f611e6f82611e43565b9150819050919050565b7f636f6e636570743a0000000000000000000000000000000000000000000000005f82015250565b5f611ead6008836119fd565b9150611eb882611e79565b600882019050919050565b7f2c76617269616e7473436f76657265643a0000000000000000000000000000005f82015250565b5f611ef76011836119fd565b9150611f0282611ec3565b601182019050919050565b7f2c746f74616c3a000000000000000000000000000000000000000000000000005f82015250565b5f611f416007836119fd565b9150611f4c82611f0d565b600782019050919050565b5f611f6182611ea1565b9150611f6d8286611a07565b9150611f7882611eeb565b9150611f848285611a07565b9150611f8f82611f35565b9150611f9b8284611a07565b9150819050949350505050565b5f611fb38285611a07565b9150611fbf8284611c99565b91508190509392505050565b7f746f704e206d75737420626520706f73697469766500000000000000000000005f82015250565b5f611fff601583611b1a565b915061200a82611fcb565b602082019050919050565b5f6020820190508181035f83015261202c81611ff3565b9050919050565b7f77696467657453746174650000000000000000000000000000000000000000005f82015250565b5f612067600b836119fd565b915061207282612033565b600b82019050919050565b5f6120878261205b565b9150819050919050565b5f61209c8284611c99565b915081905092915050565b7f2c737461746573436f76657265643a00000000000000000000000000000000005f82015250565b5f6120db600f836119fd565b91506120e6826120a7565b600f82019050919050565b5f6120fb82611a75565b91506121078285611a07565b9150612112826120cf565b915061211e8284611a07565b91508190509392505050565b5f61213482611dcb565b915061213f83611dcb565b925082820190508082111561215757612156611d9e565b5b92915050565b7f6b696e643a0000000000000000000000000000000000000000000000000000005f82015250565b5f6121916005836119fd565b915061219c8261215d565b600582019050919050565b7f2c73796d626f6c733a00000000000000000000000000000000000000000000005f82015250565b5f6121db6009836119fd565b91506121e6826121a7565b600982019050919050565b7f2c686974733a00000000000000000000000000000000000000000000000000005f82015250565b5f6122256006836119fd565b9150612230826121f1565b600682019050919050565b5f61224582612185565b91506122518286611a07565b915061225c826121cf565b91506122688285611a07565b915061227382612219565b915061227f8284611a07565b9150819050949350505050565b7f73796e63000000000000000000000000000000000000000000000000000000005f82015250565b5f6122c06004836119fd565b91506122cb8261228c565b600482019050919050565b5f6122e0826122b4565b9150819050919050565b7f73796e6373436f76657265643a000000000000000000000000000000000000005f82015250565b5f61231e600d836119fd565b9150612329826122ea565b600d82019050919050565b5f61233e82612312565b915061234a8285611a07565b915061235582611f35565b91506123618284611a07565b91508190509392505050565b7f53796d626f6c206d757374206e6f7420626520656d70747900000000000000005f82015250565b5f6123a1601883611b1a565b91506123ac8261236d565b602082019050919050565b5f6020820190508181035f8301526123ce81612395565b9050919050565b7f4b696e64206d757374206e6f7420626520656d707479000000000000000000005f82015250565b5f612409601683611b1a565b9150612414826123d5565b602082019050919050565b5f6020820190508181035f830152612436816123fd565b9050919050565b5f6124488285611a07565b91506124548284611a07565b91508190509392505050565b5f6020601f8301049050919050565b5f82821b905092915050565b5f600883026124aa7fffffffffffffffffffffffffffffffffffffffffffffffffffffffffffffffff8261246f565b6124b4868361246f565b95508019841693508086168417925050509392505050565b5f819050919050565b5f6124ef6124ea6124e584611dcb565b6124cc565b611dcb565b9050919050565b5f819050919050565b612508836124d5565b61251c612514826124f6565b84845461247b565b825550505050565b5f90565b612530612524565b61253b8184846124ff565b505050565b5b8181101561255e576125535f82612528565b600181019050612541565b5050565b601f8211156125a35761257481611c87565b61257d84612460565b8101602085101561258c578190505b6125a061259885612460565b830182612540565b50505b505050565b5f82821c905092915050565b5f6125c35f19846008026125a8565b1980831691505092915050565b5f6125db83836125b4565b9150826002028217905092915050565b6125f4826114dd565b67ffffffffffffffff81111561260d5761260c611329565b5b6126178254611c57565b612622828285612562565b5f60209050601f831160018114612653575f8415612641578287015190505b61264b85826125d0565b8655506126b2565b601f19841661266186611c87565b5f5b8281101561268857848901518255600182019150602085019450602081019050612663565b868310156126a557848901516126a1601f8916826125b4565b8355505b6001600288020188555050505b505050505050565b5f6126c4826114dd565b6126ce8185611b1a565b93506126de8185602086016114f7565b6126e781611319565b840191505092915050565b6126fb8161199f565b82525050565b5f6040820190508181035f83015261271981856126ba565b905061272860208301846126f2565b9392505050565b7f4e487b71000000000000000000000000000000000000000000000000000000005f52601260045260245ffd5b5f61276682611dcb565b915061277183611dcb565b9250826127815761278061272f565b5b828204905092915050565b5f61279682611dcb565b91506127a183611dcb565b92508282039050818111156127b9576127b8611d9e565b5b92915050565b5f6127c982611dcb565b91506127d483611dcb565b9250826127e4576127e361272f565b5b82820690509291505056fea26469706673582212205e279d0fef8a7a1e35958917a18a76ac8c19d935687590bd8ff543a2585d9cf264736f6c63430008140033","linkReferences":{}},"methodIdentifiers":{"coverageReport(string,string)":"c1be98f1","deadAtRuntime(string)":"80539e2c","record(string,string,string)":"e986f0ff","syncCoverage(string)":"d5bb6ee8","variantCoverage(string)":"4a96acb8","widgetComparison(string,int256)":"81642c7b","widgetLifecycleReport(string,string)":"1abd711f","widgetRenderTrace(string)":"2f8fd045","widgetStateCoverage(string)":"a7135669"},"id":224}