{"abi":[{"type":"function","name":"deploy","inputs":[{"name":"process","type":"bytes32","internalType":"bytes32"},{"name":"command","type":"string","internalType":"string"}],"outputs":[{"name":"","type":"tuple","internalType":"struct LocalRuntime.DeployOkResult","components":[{"name":"success","type":"bool","internalType":"bool"},{"name":"process","type":"bytes32","internalType":"bytes32"},{"name":"pid","type":"int256","internalType":"int256"}]}],"stateMutability":"nonpayable"},{"type":"function","name":"destroy","inputs":[{"name":"process","type":"bytes32","internalType":"bytes32"}],"outputs":[{"name":"","type":"tuple","internalType":"struct LocalRuntime.DestroyOkResult","components":[{"name":"success","type":"bool","internalType":"bool"},{"name":"process","type":"bytes32","internalType":"bytes32"}]}],"stateMutability":"nonpayable"},{"type":"function","name":"provision","inputs":[{"name":"concept","type":"string","internalType":"string"},{"name":"command","type":"string","internalType":"string"},{"name":"port","type":"int256","internalType":"int256"}],"outputs":[{"name":"","type":"tuple","internalType":"struct LocalRuntime.ProvisionOkResult","components":[{"name":"success","type":"bool","internalType":"bool"},{"name":"process","type":"bytes32","internalType":"bytes32"},{"name":"pid","type":"int256","internalType":"int256"},{"name":"endpoint","type":"string","internalType":"string"}]}],"stateMutability":"nonpayable"},{"type":"function","name":"register","inputs":[],"outputs":[{"name":"name","type":"string","internalType":"string"},{"name":"category","type":"string","internalType":"string"},{"name":"capabilities","type":"string[]","internalType":"string[]"}],"stateMutability":"pure"},{"type":"function","name":"rollback","inputs":[{"name":"process","type":"bytes32","internalType":"bytes32"},{"name":"previousCommand","type":"string","internalType":"string"}],"outputs":[{"name":"","type":"tuple","internalType":"struct LocalRuntime.RollbackOkResult","components":[{"name":"success","type":"bool","internalType":"bool"},{"name":"process","type":"bytes32","internalType":"bytes32"},{"name":"pid","type":"int256","internalType":"int256"}]}],"stateMutability":"nonpayable"},{"type":"function","name":"setTrafficWeight","inputs":[{"name":"process","type":"bytes32","internalType":"bytes32"},{"name":"weight","type":"int256","internalType":"int256"}],"outputs":[{"name":"","type":"tuple","internalType":"struct LocalRuntime.SetTrafficWeightOkResult","components":[{"name":"success","type":"bool","internalType":"bool"},{"name":"process","type":"bytes32","internalType":"bytes32"}]}],"stateMutability":"nonpayable"},{"type":"event","name":"DeployCompleted","inputs":[{"name":"variant","type":"string","indexed":false,"internalType":"string"},{"name":"process","type":"bytes32","indexed":false,"internalType":"bytes32"},{"name":"pid","type":"int256","indexed":false,"internalType":"int256"}],"anonymous":false},{"type":"event","name":"DestroyCompleted","inputs":[{"name":"variant","type":"string","indexed":false,"internalType":"string"},{"name":"process","type":"bytes32","indexed":false,"internalType":"bytes32"}],"anonymous":false},{"type":"event","name":"ProvisionCompleted","inputs":[{"name":"variant","type":"string","indexed":false,"internalType":"string"},{"name":"process","type":"bytes32","indexed":false,"internalType":"bytes32"},{"name":"pid","type":"int256","indexed":false,"internalType":"int256"},{"name":"port","type":"int256","indexed":false,"internalType":"int256"},{"name":"existingPid","type":"int256","indexed":false,"internalType":"int256"}],"anonymous":false},{"type":"event","name":"RollbackCompleted","inputs":[{"name":"variant","type":"string","indexed":false,"internalType":"string"},{"name":"process","type":"bytes32","indexed":false,"internalType":"bytes32"},{"name":"pid","type":"int256","indexed":false,"internalType":"int256"}],"anonymous":false},{"type":"event","name":"SetTrafficWeightCompleted","inputs":[{"name":"variant","type":"string","indexed":false,"internalType":"string"},{"name":"process","type":"bytes32","indexed":false,"internalType":"bytes32"}],"anonymous":false}],"bytecode":{"object":"0x608060405234801561000f575f80fd5b506121418061001d5f395ff3fe608060405234801561000f575f80fd5b5060043610610060575f3560e01c80631aa3a008146100645780634a1b31b6146100845780636e0bd282146100b45780637855131d146100e45780638388d22914610114578063c416a8cf14610144575b5f80fd5b61006c610174565b60405161007b9392919061104a565b60405180910390f35b61009e60048036038101906100999190611204565b6103e7565b6040516100ab919061132d565b60405180910390f35b6100ce60048036038101906100c99190611377565b6106b8565b6040516100db91906113cf565b60405180910390f35b6100fe60048036038101906100f991906113e8565b6107e6565b60405161010b9190611482565b60405180910390f35b61012e6004803603810190610129919061149b565b61094a565b60405161013b9190611506565b60405180910390f35b61015e600480360381019061015991906113e8565b610a6c565b60405161016b919061155f565b60405180910390f35b60608060606040518060400160405280600581526020017f6c6f63616c00000000000000000000000000000000000000000000000000000081525092506040518060400160405280600781526020017f72756e74696d65000000000000000000000000000000000000000000000000008152509150600567ffffffffffffffff811115610204576102036110ad565b5b60405190808252806020026020018201604052801561023757816020015b60608152602001906001900390816102225790505b5090506040518060400160405280600981526020017f70726f766973696f6e0000000000000000000000000000000000000000000000815250815f8151811061028357610282611578565b5b60200260200101819052506040518060400160405280600681526020017f6465706c6f790000000000000000000000000000000000000000000000000000815250816001815181106102d8576102d7611578565b5b60200260200101819052506040518060400160405280601081526020017f73657454726166666963576569676874000000000000000000000000000000008152508160028151811061032d5761032c611578565b5b60200260200101819052506040518060400160405280600881526020017f726f6c6c6261636b0000000000000000000000000000000000000000000000008152508160038151811061038257610381611578565b5b60200260200101819052506040518060400160405280600781526020017f64657374726f7900000000000000000000000000000000000000000000000000815250816004815181106103d7576103d6611578565b5b6020026020010181905250909192565b6103ef610d7e565b5f845111610432576040517f08c379a0000000000000000000000000000000000000000000000000000000008152600401610429906115ef565b60405180910390fd5b5f835111610475576040517f08c379a000000000000000000000000000000000000000000000000000000000815260040161046c90611657565b60405180910390fd5b5f82136104b7576040517f08c379a00000000000000000000000000000000000000000000000000000000081526004016104ae906116bf565b60405180910390fd5b5f84836040516020016104cb929190611737565b604051602081830303815290604052805190602001209050848484426040516020016104fa9493929190611785565b6040516020818303038152906040525f808381526020019081526020015f20908161052591906119da565b5060015f8281526020019081526020015f205f9054906101000a900460ff166105c4576001805f8381526020019081526020015f205f6101000a81548160ff021916908315150217905550600281908060018154018082558091505060019003905f5260205f20015f90919091909150555f60055f8381526020019081526020015f2081905550606460045f8381526020019081526020015f20819055505b600160055f8381526020019081526020015f205f8282546105e59190611ad6565b925050819055505f60055f8381526020019081526020015f205490508460035f8481526020019081526020015f20908161061f9190611b61565b505f61062a85610bd0565b60405160200161063a9190611c7a565b60405160208183030381529060405290507f3ede0824d2a9ef9787bda4b449ae5c64b75bdd1c71326c81f4a9f49f3e9f94b48383875f6040516106809493929190611cf4565b60405180910390a160405180608001604052806001151581526020018481526020018381526020018281525093505050509392505050565b6106c0610da8565b60015f8381526020019081526020015f205f9054906101000a900460ff1661071d576040517f08c379a000000000000000000000000000000000000000000000000000000000815260040161071490611d94565b60405180910390fd5b5f60015f8481526020019081526020015f205f6101000a81548160ff0219169083151502179055505f808381526020019081526020015f205f6107609190610dc5565b60035f8381526020019081526020015f205f61077c9190610e02565b60045f8381526020019081526020015f205f90557f5f91d6f5b071e1c01422208aefdc94722551cb418c8c493cbd4fa563938bc5d0826040516107bf9190611db2565b60405180910390a16040518060400160405280600115158152602001838152509050919050565b6107ee610e3f565b60015f8481526020019081526020015f205f9054906101000a900460ff1661084b576040517f08c379a000000000000000000000000000000000000000000000000000000000815260040161084290611d94565b60405180910390fd5b5f82511161088e576040517f08c379a000000000000000000000000000000000000000000000000000000000815260040161088590611e4e565b60405180910390fd5b600160055f8581526020019081526020015f205f8282546108af9190611ad6565b925050819055505f60055f8581526020019081526020015f205490508260035f8681526020019081526020015f2090816108e99190611b61565b507f5042a9ae8f8f1745616a85cfbe124ee2556f11cf5b11022d3ab9351fc03d5331848260405161091b929190611e6c565b60405180910390a160405180606001604052806001151581526020018581526020018281525091505092915050565b610952610e62565b60015f8481526020019081526020015f205f9054906101000a900460ff166109af576040517f08c379a00000000000000000000000000000000000000000000000000000000081526004016109a690611d94565b60405180910390fd5b5f82121580156109c0575060648213155b6109ff576040517f08c379a00000000000000000000000000000000000000000000000000000000081526004016109f690611ef0565b60405180910390fd5b8160045f8581526020019081526020015f20819055507fe3818c8f29f23fa7dae9a0884fe04d7bb4770020f95d48f6e3d93dc214eef73283604051610a449190611db2565b60405180910390a1604051806040016040528060011515815260200184815250905092915050565b610a74610e7f565b60015f8481526020019081526020015f205f9054906101000a900460ff16610ad1576040517f08c379a0000000000000000000000000000000000000000000000000000000008152600401610ac890611f7e565b60405180910390fd5b5f825111610b14576040517f08c379a0000000000000000000000000000000000000000000000000000000008152600401610b0b90611657565b60405180910390fd5b600160055f8581526020019081526020015f205f828254610b359190611ad6565b925050819055505f60055f8581526020019081526020015f205490508260035f8681526020019081526020015f209081610b6f9190611b61565b507ffd3307024059d6c890100baad6027d7aa8470c77d7c3552e96705339181146f78482604051610ba1929190611e6c565b60405180910390a160405180606001604052806001151581526020018581526020018281525091505092915050565b60605f821215610c15576040517f08c379a0000000000000000000000000000000000000000000000000000000008152600401610c0c90611fe6565b60405180910390fd5b610c1e82610c25565b9050919050565b60605f8203610c6b576040518060400160405280600181526020017f30000000000000000000000000000000000000000000000000000000000000008152509050610d79565b5f8290505f5b5f8214610c9a578080610c8390612004565b915050600a82610c939190612078565b9150610c71565b5f8167ffffffffffffffff811115610cb557610cb46110ad565b5b6040519080825280601f01601f191660200182016040528015610ce75781602001600182028036833780820191505090505b5090505b5f8514610d7257600182610cff91906120a8565b9150600a85610d0e91906120db565b6030610d1a9190611ad6565b60f81b818381518110610d3057610d2f611578565b5b60200101907effffffffffffffffffffffffffffffffffffffffffffffffffffffffffffff191690815f1a905350600a85610d6b9190612078565b9450610ceb565b8093505050505b919050565b60405180608001604052805f151581526020015f80191681526020015f8152602001606081525090565b60405180604001604052805f151581526020015f80191681525090565b508054610dd19061180d565b5f825580601f10610de25750610dff565b601f0160209004905f5260205f2090810190610dfe9190610ea2565b5b50565b508054610e0e9061180d565b5f825580601f10610e1f5750610e3c565b601f0160209004905f5260205f2090810190610e3b9190610ea2565b5b50565b60405180606001604052805f151581526020015f80191681526020015f81525090565b60405180604001604052805f151581526020015f80191681525090565b60405180606001604052805f151581526020015f80191681526020015f81525090565b5b80821115610eb9575f815f905550600101610ea3565b5090565b5f81519050919050565b5f82825260208201905092915050565b5f5b83811015610ef4578082015181840152602081019050610ed9565b5f8484015250505050565b5f601f19601f8301169050919050565b5f610f1982610ebd565b610f238185610ec7565b9350610f33818560208601610ed7565b610f3c81610eff565b840191505092915050565b5f81519050919050565b5f82825260208201905092915050565b5f819050602082019050919050565b5f82825260208201905092915050565b5f610f8a82610ebd565b610f948185610f70565b9350610fa4818560208601610ed7565b610fad81610eff565b840191505092915050565b5f610fc38383610f80565b905092915050565b5f602082019050919050565b5f610fe182610f47565b610feb8185610f51565b935083602082028501610ffd85610f61565b805f5b8581101561103857848403895281516110198582610fb8565b945061102483610fcb565b925060208a01995050600181019050611000565b50829750879550505050505092915050565b5f6060820190508181035f8301526110628186610f0f565b905081810360208301526110768185610f0f565b9050818103604083015261108a8184610fd7565b9050949350505050565b5f604051905090565b5f80fd5b5f80fd5b5f80fd5b5f80fd5b7f4e487b71000000000000000000000000000000000000000000000000000000005f52604160045260245ffd5b6110e382610eff565b810181811067ffffffffffffffff82111715611102576111016110ad565b5b80604052505050565b5f611114611094565b905061112082826110da565b919050565b5f67ffffffffffffffff82111561113f5761113e6110ad565b5b61114882610eff565b9050602081019050919050565b828183375f83830152505050565b5f61117561117084611125565b61110b565b905082815260208101848484011115611191576111906110a9565b5b61119c848285611155565b509392505050565b5f82601f8301126111b8576111b76110a5565b5b81356111c8848260208601611163565b91505092915050565b5f819050919050565b6111e3816111d1565b81146111ed575f80fd5b50565b5f813590506111fe816111da565b92915050565b5f805f6060848603121561121b5761121a61109d565b5b5f84013567ffffffffffffffff811115611238576112376110a1565b5b611244868287016111a4565b935050602084013567ffffffffffffffff811115611265576112646110a1565b5b611271868287016111a4565b9250506040611282868287016111f0565b9150509250925092565b5f8115159050919050565b6112a08161128c565b82525050565b5f819050919050565b6112b8816112a6565b82525050565b6112c7816111d1565b82525050565b5f608083015f8301516112e25f860182611297565b5060208301516112f560208601826112af565b50604083015161130860408601826112be565b50606083015184820360608601526113208282610f80565b9150508091505092915050565b5f6020820190508181035f83015261134581846112cd565b905092915050565b611356816112a6565b8114611360575f80fd5b50565b5f813590506113718161134d565b92915050565b5f6020828403121561138c5761138b61109d565b5b5f61139984828501611363565b91505092915050565b604082015f8201516113b65f850182611297565b5060208201516113c960208501826112af565b50505050565b5f6040820190506113e25f8301846113a2565b92915050565b5f80604083850312156113fe576113fd61109d565b5b5f61140b85828601611363565b925050602083013567ffffffffffffffff81111561142c5761142b6110a1565b5b611438858286016111a4565b9150509250929050565b606082015f8201516114565f850182611297565b50602082015161146960208501826112af565b50604082015161147c60408501826112be565b50505050565b5f6060820190506114955f830184611442565b92915050565b5f80604083850312156114b1576114b061109d565b5b5f6114be85828601611363565b92505060206114cf858286016111f0565b9150509250929050565b604082015f8201516114ed5f850182611297565b50602082015161150060208501826112af565b50505050565b5f6040820190506115195f8301846114d9565b92915050565b606082015f8201516115335f850182611297565b50602082015161154660208501826112af565b50604082015161155960408501826112be565b50505050565b5f6060820190506115725f83018461151f565b92915050565b7f4e487b71000000000000000000000000000000000000000000000000000000005f52603260045260245ffd5b7f436f6e63657074206d757374206e6f7420626520656d707479000000000000005f82015250565b5f6115d9601983610ec7565b91506115e4826115a5565b602082019050919050565b5f6020820190508181035f830152611606816115cd565b9050919050565b7f436f6d6d616e64206d757374206e6f7420626520656d707479000000000000005f82015250565b5f611641601983610ec7565b915061164c8261160d565b602082019050919050565b5f6020820190508181035f83015261166e81611635565b9050919050565b7f506f7274206d75737420626520706f73697469766500000000000000000000005f82015250565b5f6116a9601583610ec7565b91506116b482611675565b602082019050919050565b5f6020820190508181035f8301526116d68161169d565b9050919050565b5f81905092915050565b5f6116f182610ebd565b6116fb81856116dd565b935061170b818560208601610ed7565b80840191505092915050565b5f819050919050565b61173161172c826111d1565b611717565b82525050565b5f61174282856116e7565b915061174e8284611720565b6020820191508190509392505050565b611767816111d1565b82525050565b5f819050919050565b61177f8161176d565b82525050565b5f6080820190508181035f83015261179d8187610f0f565b905081810360208301526117b18186610f0f565b90506117c0604083018561175e565b6117cd6060830184611776565b95945050505050565b5f81519050919050565b7f4e487b71000000000000000000000000000000000000000000000000000000005f52602260045260245ffd5b5f600282049050600182168061182457607f821691505b602082108103611837576118366117e0565b5b50919050565b5f819050815f5260205f209050919050565b5f6020601f8301049050919050565b5f82821b905092915050565b5f600883026118997fffffffffffffffffffffffffffffffffffffffffffffffffffffffffffffffff8261185e565b6118a3868361185e565b95508019841693508086168417925050509392505050565b5f819050919050565b5f6118de6118d96118d48461176d565b6118bb565b61176d565b9050919050565b5f819050919050565b6118f7836118c4565b61190b611903826118e5565b84845461186a565b825550505050565b5f90565b61191f611913565b61192a8184846118ee565b505050565b5b8181101561194d576119425f82611917565b600181019050611930565b5050565b601f821115611992576119638161183d565b61196c8461184f565b8101602085101561197b578190505b61198f6119878561184f565b83018261192f565b50505b505050565b5f82821c905092915050565b5f6119b25f1984600802611997565b1980831691505092915050565b5f6119ca83836119a3565b9150826002028217905092915050565b6119e3826117d6565b67ffffffffffffffff8111156119fc576119fb6110ad565b5b611a06825461180d565b611a11828285611951565b5f60209050601f831160018114611a42575f8415611a30578287015190505b611a3a85826119bf565b865550611aa1565b601f198416611a508661183d565b5f5b82811015611a7757848901518255600182019150602085019450602081019050611a52565b86831015611a945784890151611a90601f8916826119a3565b8355505b6001600288020188555050505b505050505050565b7f4e487b71000000000000000000000000000000000000000000000000000000005f52601160045260245ffd5b5f611ae08261176d565b9150611aeb8361176d565b9250828201905080821115611b0357611b02611aa9565b5b92915050565b5f819050815f5260205f209050919050565b601f821115611b5c57611b2d81611b09565b611b368461184f565b81016020851015611b45578190505b611b59611b518561184f565b83018261192f565b50505b505050565b611b6a82610ebd565b67ffffffffffffffff811115611b8357611b826110ad565b5b611b8d825461180d565b611b98828285611b1b565b5f60209050601f831160018114611bc9575f8415611bb7578287015190505b611bc185826119bf565b865550611c28565b601f198416611bd786611b09565b5f5b82811015611bfe57848901518255600182019150602085019450602081019050611bd9565b86831015611c1b5784890151611c17601f8916826119a3565b8355505b6001600288020188555050505b505050505050565b7f687474703a2f2f6c6f63616c686f73743a0000000000000000000000000000005f82015250565b5f611c646011836116dd565b9150611c6f82611c30565b601182019050919050565b5f611c8482611c58565b9150611c9082846116e7565b915081905092915050565b7f6f6b0000000000000000000000000000000000000000000000000000000000005f82015250565b5f611ccf600283610ec7565b9150611cda82611c9b565b602082019050919050565b611cee816112a6565b82525050565b5f60a0820190508181035f830152611d0b81611cc3565b9050611d1a6020830187611ce5565b611d27604083018661175e565b611d34606083018561175e565b611d41608083018461175e565b95945050505050565b7f50726f63657373206e6f7420666f756e640000000000000000000000000000005f82015250565b5f611d7e601183610ec7565b9150611d8982611d4a565b602082019050919050565b5f6020820190508181035f830152611dab81611d72565b9050919050565b5f6040820190508181035f830152611dc981611cc3565b9050611dd86020830184611ce5565b92915050565b7f50726576696f757320636f6d6d616e64206d757374206e6f7420626520656d705f8201527f7479000000000000000000000000000000000000000000000000000000000000602082015250565b5f611e38602283610ec7565b9150611e4382611dde565b604082019050919050565b5f6020820190508181035f830152611e6581611e2c565b9050919050565b5f6060820190508181035f830152611e8381611cc3565b9050611e926020830185611ce5565b611e9f604083018461175e565b9392505050565b7f576569676874206d75737420626520302d3130300000000000000000000000005f82015250565b5f611eda601483610ec7565b9150611ee582611ea6565b602082019050919050565b5f6020820190508181035f830152611f0781611ece565b9050919050565b7f50726f63657373206e6f7420666f756e64202d2070726f766973696f6e2066695f8201527f7273740000000000000000000000000000000000000000000000000000000000602082015250565b5f611f68602383610ec7565b9150611f7382611f0e565b604082019050919050565b5f6020820190508181035f830152611f9581611f5c565b9050919050565b7f4e6567617469766520696e74206e6f7420737570706f727465640000000000005f82015250565b5f611fd0601a83610ec7565b9150611fdb82611f9c565b602082019050919050565b5f6020820190508181035f830152611ffd81611fc4565b9050919050565b5f61200e8261176d565b91507fffffffffffffffffffffffffffffffffffffffffffffffffffffffffffffffff82036120405761203f611aa9565b5b600182019050919050565b7f4e487b71000000000000000000000000000000000000000000000000000000005f52601260045260245ffd5b5f6120828261176d565b915061208d8361176d565b92508261209d5761209c61204b565b5b828204905092915050565b5f6120b28261176d565b91506120bd8361176d565b92508282039050818111156120d5576120d4611aa9565b5b92915050565b5f6120e58261176d565b91506120f08361176d565b925082612100576120ff61204b565b5b82820690509291505056fea2646970667358221220618d7a32691a743b03800d6419a440283c1e59120964ff6b0d972fb69a8089e964736f6c63430008140033","linkReferences":{}},"methodIdentifiers":{"deploy(bytes32,string)":"c416a8cf","destroy(bytes32)":"6e0bd282","provision(string,string,int256)":"4a1b31b6","register()":"1aa3a008","rollback(bytes32,string)":"7855131d","setTrafficWeight(bytes32,int256)":"8388d229"},"id":164}