{"abi":[{"type":"function","name":"compute","inputs":[{"name":"contentA","type":"bytes","internalType":"bytes"},{"name":"contentB","type":"bytes","internalType":"bytes"}],"outputs":[{"name":"editScript","type":"bytes","internalType":"bytes"},{"name":"distance","type":"uint256","internalType":"uint256"}],"stateMutability":"nonpayable"},{"type":"function","name":"register","inputs":[],"outputs":[{"name":"name","type":"string","internalType":"string"},{"name":"category","type":"string","internalType":"string"},{"name":"contentTypes","type":"string[]","internalType":"string[]"}],"stateMutability":"pure"},{"type":"event","name":"Computed","inputs":[{"name":"hashA","type":"bytes32","indexed":true,"internalType":"bytes32"},{"name":"hashB","type":"bytes32","indexed":true,"internalType":"bytes32"},{"name":"distance","type":"uint256","indexed":false,"internalType":"uint256"}],"anonymous":false}],"bytecode":{"object":"0x608060405234801561000f575f80fd5b506108008061001d5f395ff3fe608060405234801561000f575f80fd5b5060043610610034575f3560e01c80631aa3a008146100385780635f8f8a3c14610058575b5f80fd5b610040610089565b60405161004f93929190610486565b60405180910390f35b610072600480360381019061006d9190610539565b6101fd565b604051610080929190610621565b60405180910390f35b60608060606040518060400160405280600981526020017f686973746f6772616d000000000000000000000000000000000000000000000081525092506040518060400160405280600481526020017f64696666000000000000000000000000000000000000000000000000000000008152509150600267ffffffffffffffff8111156101195761011861064f565b5b60405190808252806020026020018201604052801561014c57816020015b60608152602001906001900390816101375790505b5090506040518060400160405280600a81526020017f746578742f706c61696e00000000000000000000000000000000000000000000815250815f815181106101985761019761067c565b5b60200260200101819052506040518060400160405280600681526020017f746578742f2a0000000000000000000000000000000000000000000000000000815250816001815181106101ed576101ec61067c565b5b6020026020010181905250909192565b60605f8086866040516102119291906106e5565b604051809103902090505f858560405161022c9291906106e5565b60405180910390209050808203610259575f60405180602001604052805f815250909350935050506102f0565b5f8888905090505f87879050905080821161027f57818161027a919061072a565b61028c565b808261028b919061072a565b5b945083836040516020016102a1929190610786565b604051602081830303815290604052955082847f65b6624627b2809e78e020c22b5d0d71a1f0020cd803a361c2a4b65fcff59f46876040516102e391906107b1565b60405180910390a3505050505b94509492505050565b5f81519050919050565b5f82825260208201905092915050565b5f5b83811015610330578082015181840152602081019050610315565b5f8484015250505050565b5f601f19601f8301169050919050565b5f610355826102f9565b61035f8185610303565b935061036f818560208601610313565b6103788161033b565b840191505092915050565b5f81519050919050565b5f82825260208201905092915050565b5f819050602082019050919050565b5f82825260208201905092915050565b5f6103c6826102f9565b6103d081856103ac565b93506103e0818560208601610313565b6103e98161033b565b840191505092915050565b5f6103ff83836103bc565b905092915050565b5f602082019050919050565b5f61041d82610383565b610427818561038d565b9350836020820285016104398561039d565b805f5b85811015610474578484038952815161045585826103f4565b945061046083610407565b925060208a0199505060018101905061043c565b50829750879550505050505092915050565b5f6060820190508181035f83015261049e818661034b565b905081810360208301526104b2818561034b565b905081810360408301526104c68184610413565b9050949350505050565b5f80fd5b5f80fd5b5f80fd5b5f80fd5b5f80fd5b5f8083601f8401126104f9576104f86104d8565b5b8235905067ffffffffffffffff811115610516576105156104dc565b5b602083019150836001820283011115610532576105316104e0565b5b9250929050565b5f805f8060408587031215610551576105506104d0565b5b5f85013567ffffffffffffffff81111561056e5761056d6104d4565b5b61057a878288016104e4565b9450945050602085013567ffffffffffffffff81111561059d5761059c6104d4565b5b6105a9878288016104e4565b925092505092959194509250565b5f81519050919050565b5f82825260208201905092915050565b5f6105db826105b7565b6105e581856105c1565b93506105f5818560208601610313565b6105fe8161033b565b840191505092915050565b5f819050919050565b61061b81610609565b82525050565b5f6040820190508181035f83015261063981856105d1565b90506106486020830184610612565b9392505050565b7f4e487b71000000000000000000000000000000000000000000000000000000005f52604160045260245ffd5b7f4e487b71000000000000000000000000000000000000000000000000000000005f52603260045260245ffd5b5f81905092915050565b828183375f83830152505050565b5f6106cc83856106a9565b93506106d98385846106b3565b82840190509392505050565b5f6106f18284866106c1565b91508190509392505050565b7f4e487b71000000000000000000000000000000000000000000000000000000005f52601160045260245ffd5b5f61073482610609565b915061073f83610609565b9250828203905081811115610757576107566106fd565b5b92915050565b5f819050919050565b5f819050919050565b61078061077b8261075d565b610766565b82525050565b5f610791828561076f565b6020820191506107a1828461076f565b6020820191508190509392505050565b5f6020820190506107c45f830184610612565b9291505056fea264697066735822122015ea77c8c228f6e9b94fe97cf155ba9ec9b3ff85d7011ae02d76b4c6e263157864736f6c63430008140033","linkReferences":{}},"methodIdentifiers":{"compute(bytes,bytes)":"5f8f8a3c","register()":"1aa3a008"},"id":144}