{"abi":[{"type":"function","name":"create","inputs":[{"name":"syntax","type":"string","internalType":"string"},{"name":"source","type":"string","internalType":"string"},{"name":"language","type":"string","internalType":"string"}],"outputs":[{"name":"patternId","type":"bytes32","internalType":"bytes32"}],"stateMutability":"nonpayable"},{"type":"function","name":"getPattern","inputs":[{"name":"patternId","type":"bytes32","internalType":"bytes32"}],"outputs":[{"name":"syntax","type":"string","internalType":"string"},{"name":"source","type":"string","internalType":"string"},{"name":"language","type":"string","internalType":"string"}],"stateMutability":"view"},{"type":"function","name":"matchPattern","inputs":[{"name":"patternId","type":"bytes32","internalType":"bytes32"},{"name":"tree","type":"string","internalType":"string"}],"outputs":[{"name":"matches","type":"string","internalType":"string"}],"stateMutability":"view"},{"type":"function","name":"matchProject","inputs":[{"name":"patternId","type":"bytes32","internalType":"bytes32"}],"outputs":[{"name":"results","type":"string","internalType":"string"}],"stateMutability":"view"},{"type":"function","name":"patternCount","inputs":[],"outputs":[{"name":"count","type":"uint256","internalType":"uint256"}],"stateMutability":"view"},{"type":"event","name":"CreateCompleted","inputs":[{"name":"variant","type":"string","indexed":false,"internalType":"string"},{"name":"pattern","type":"bytes32","indexed":false,"internalType":"bytes32"}],"anonymous":false},{"type":"event","name":"MatchCompleted","inputs":[{"name":"variant","type":"string","indexed":false,"internalType":"string"}],"anonymous":false},{"type":"event","name":"MatchProjectCompleted","inputs":[{"name":"variant","type":"string","indexed":false,"internalType":"string"}],"anonymous":false}],"bytecode":{"object":"0x608060405234801561000f575f80fd5b506112a58061001d5f395ff3fe608060405234801561000f575f80fd5b5060043610610055575f3560e01c8063322ff36f146100595780635d28560a1461008b578063636bd0d1146100bb57806375810496146100eb578063f5f672a514610109575b5f80fd5b610073600480360381019061006e91906106ff565b610139565b604051610082939291906107b4565b60405180910390f35b6100a560048036038101906100a0919061092a565b610367565b6040516100b291906109dd565b60405180910390f35b6100d560048036038101906100d091906106ff565b610523565b6040516100e291906109f6565b60405180910390f35b6100f36105c6565b6040516101009190610a2e565b60405180910390f35b610123600480360381019061011e9190610a47565b6105d2565b60405161013091906109f6565b60405180910390f35b60608060605f808581526020019081526020015f206004015f9054906101000a900460ff1661019d576040517f08c379a000000000000000000000000000000000000000000000000000000000815260040161019490610aeb565b60405180910390fd5b5f805f8681526020019081526020015f209050805f0181600101826002018280546101c790610b36565b80601f01602080910402602001604051908101604052809291908181526020018280546101f390610b36565b801561023e5780601f106102155761010080835404028352916020019161023e565b820191905f5260205f20905b81548152906001019060200180831161022157829003601f168201915b5050505050925081805461025190610b36565b80601f016020809104026020016040519081016040528092919081815260200182805461027d90610b36565b80156102c85780601f1061029f576101008083540402835291602001916102c8565b820191905f5260205f20905b8154815290600101906020018083116102ab57829003601f168201915b505050505091508080546102db90610b36565b80601f016020809104026020016040519081016040528092919081815260200182805461030790610b36565b80156103525780601f1061032957610100808354040283529160200191610352565b820191905f5260205f20905b81548152906001019060200180831161033557829003601f168201915b50505050509050935093509350509193909250565b5f808451116103ab576040517f08c379a00000000000000000000000000000000000000000000000000000000081526004016103a290610bb0565b60405180910390fd5b5f8251116103ee576040517f08c379a00000000000000000000000000000000000000000000000000000000081526004016103e590610c18565b60405180910390fd5b8382604051602001610401929190610c70565b6040516020818303038152906040528051906020012090506040518060a00160405280858152602001848152602001838152602001428152602001600115158152505f808381526020019081526020015f205f820151815f0190816104669190610e30565b50602082015181600101908161047c9190610e30565b5060408201518160020190816104929190610e30565b50606082015181600301556080820151816004015f6101000a81548160ff021916908315150217905550905050600181908060018154018082558091505060019003905f5260205f20015f90919091909150557f1c7208edfeacc49bb82962da7eeb2b2b4e4f5ba1dedc0499662f37cb87039d90816040516105149190610f49565b60405180910390a19392505050565b60605f808381526020019081526020015f206004015f9054906101000a900460ff16610584576040517f08c379a000000000000000000000000000000000000000000000000000000000815260040161057b90610aeb565b60405180910390fd5b5f805f8481526020019081526020015f209050805f01816002016040516020016105af9291906110d3565b604051602081830303815290604052915050919050565b5f600180549050905090565b60605f808481526020019081526020015f206004015f9054906101000a900460ff16610633576040517f08c379a000000000000000000000000000000000000000000000000000000000815260040161062a90610aeb565b60405180910390fd5b5f825111610676576040517f08c379a000000000000000000000000000000000000000000000000000000000815260040161066d90611161565b60405180910390fd5b5f805f8581526020019081526020015f209050805f0181600201846040516020016106a393929190611213565b60405160208183030381529060405291505092915050565b5f604051905090565b5f80fd5b5f80fd5b5f819050919050565b6106de816106cc565b81146106e8575f80fd5b50565b5f813590506106f9816106d5565b92915050565b5f60208284031215610714576107136106c4565b5b5f610721848285016106eb565b91505092915050565b5f81519050919050565b5f82825260208201905092915050565b5f5b83811015610761578082015181840152602081019050610746565b5f8484015250505050565b5f601f19601f8301169050919050565b5f6107868261072a565b6107908185610734565b93506107a0818560208601610744565b6107a98161076c565b840191505092915050565b5f6060820190508181035f8301526107cc818661077c565b905081810360208301526107e0818561077c565b905081810360408301526107f4818461077c565b9050949350505050565b5f80fd5b5f80fd5b7f4e487b71000000000000000000000000000000000000000000000000000000005f52604160045260245ffd5b61083c8261076c565b810181811067ffffffffffffffff8211171561085b5761085a610806565b5b80604052505050565b5f61086d6106bb565b90506108798282610833565b919050565b5f67ffffffffffffffff82111561089857610897610806565b5b6108a18261076c565b9050602081019050919050565b828183375f83830152505050565b5f6108ce6108c98461087e565b610864565b9050828152602081018484840111156108ea576108e9610802565b5b6108f58482856108ae565b509392505050565b5f82601f830112610911576109106107fe565b5b81356109218482602086016108bc565b91505092915050565b5f805f60608486031215610941576109406106c4565b5b5f84013567ffffffffffffffff81111561095e5761095d6106c8565b5b61096a868287016108fd565b935050602084013567ffffffffffffffff81111561098b5761098a6106c8565b5b610997868287016108fd565b925050604084013567ffffffffffffffff8111156109b8576109b76106c8565b5b6109c4868287016108fd565b9150509250925092565b6109d7816106cc565b82525050565b5f6020820190506109f05f8301846109ce565b92915050565b5f6020820190508181035f830152610a0e818461077c565b905092915050565b5f819050919050565b610a2881610a16565b82525050565b5f602082019050610a415f830184610a1f565b92915050565b5f8060408385031215610a5d57610a5c6106c4565b5b5f610a6a858286016106eb565b925050602083013567ffffffffffffffff811115610a8b57610a8a6106c8565b5b610a97858286016108fd565b9150509250929050565b7f5061747465726e206e6f7420666f756e640000000000000000000000000000005f82015250565b5f610ad5601183610734565b9150610ae082610aa1565b602082019050919050565b5f6020820190508181035f830152610b0281610ac9565b9050919050565b7f4e487b71000000000000000000000000000000000000000000000000000000005f52602260045260245ffd5b5f6002820490506001821680610b4d57607f821691505b602082108103610b6057610b5f610b09565b5b50919050565b7f53796e7461782063616e6e6f7420626520656d707479000000000000000000005f82015250565b5f610b9a601683610734565b9150610ba582610b66565b602082019050919050565b5f6020820190508181035f830152610bc781610b8e565b9050919050565b7f4c616e67756167652063616e6e6f7420626520656d70747900000000000000005f82015250565b5f610c02601883610734565b9150610c0d82610bce565b602082019050919050565b5f6020820190508181035f830152610c2f81610bf6565b9050919050565b5f81905092915050565b5f610c4a8261072a565b610c548185610c36565b9350610c64818560208601610744565b80840191505092915050565b5f610c7b8285610c40565b9150610c878284610c40565b91508190509392505050565b5f819050815f5260205f209050919050565b5f6020601f8301049050919050565b5f82821b905092915050565b5f60088302610cef7fffffffffffffffffffffffffffffffffffffffffffffffffffffffffffffffff82610cb4565b610cf98683610cb4565b95508019841693508086168417925050509392505050565b5f819050919050565b5f610d34610d2f610d2a84610a16565b610d11565b610a16565b9050919050565b5f819050919050565b610d4d83610d1a565b610d61610d5982610d3b565b848454610cc0565b825550505050565b5f90565b610d75610d69565b610d80818484610d44565b505050565b5b81811015610da357610d985f82610d6d565b600181019050610d86565b5050565b601f821115610de857610db981610c93565b610dc284610ca5565b81016020851015610dd1578190505b610de5610ddd85610ca5565b830182610d85565b50505b505050565b5f82821c905092915050565b5f610e085f1984600802610ded565b1980831691505092915050565b5f610e208383610df9565b9150826002028217905092915050565b610e398261072a565b67ffffffffffffffff811115610e5257610e51610806565b5b610e5c8254610b36565b610e67828285610da7565b5f60209050601f831160018114610e98575f8415610e86578287015190505b610e908582610e15565b865550610ef7565b601f198416610ea686610c93565b5f5b82811015610ecd57848901518255600182019150602085019450602081019050610ea8565b86831015610eea5784890151610ee6601f891682610df9565b8355505b6001600288020188555050505b505050505050565b7f6f6b0000000000000000000000000000000000000000000000000000000000005f82015250565b5f610f33600283610734565b9150610f3e82610eff565b602082019050919050565b5f6040820190508181035f830152610f6081610f27565b9050610f6f60208301846109ce565b92915050565b7f5b7b7061747465726e3a220000000000000000000000000000000000000000005f82015250565b5f610fa9600b83610c36565b9150610fb482610f75565b600b82019050919050565b5f8154610fcb81610b36565b610fd58186610c36565b9450600182165f8114610fef576001811461100457611036565b60ff1983168652811515820286019350611036565b61100d85610c93565b5f5b8381101561102e5781548189015260018201915060208101905061100f565b838801955050505b50505092915050565b7f222c6c616e67756167653a2200000000000000000000000000000000000000005f82015250565b5f611073600c83610c36565b915061107e8261103f565b600c82019050919050565b7f222c73636f70653a2270726f6a656374227d5d000000000000000000000000005f82015250565b5f6110bd601383610c36565b91506110c882611089565b601382019050919050565b5f6110dd82610f9d565b91506110e98285610fbf565b91506110f482611067565b91506111008284610fbf565b915061110b826110b1565b91508190509392505050565b7f547265652063616e6e6f7420626520656d7074790000000000000000000000005f82015250565b5f61114b601483610734565b915061115682611117565b602082019050919050565b5f6020820190508181035f8301526111788161113f565b9050919050565b7f222c747265653a220000000000000000000000000000000000000000000000005f82015250565b5f6111b3600883610c36565b91506111be8261117f565b600882019050919050565b7f227d5d00000000000000000000000000000000000000000000000000000000005f82015250565b5f6111fd600383610c36565b9150611208826111c9565b600382019050919050565b5f61121d82610f9d565b91506112298286610fbf565b915061123482611067565b91506112408285610fbf565b915061124b826111a7565b91506112578284610c40565b9150611262826111f1565b915081905094935050505056fea2646970667358221220bc7813c70c3ea2f0b40b0595ae6b55e032cbcd6a30a77e37e66ad2d7c42ee8cc64736f6c63430008140033","linkReferences":{}},"methodIdentifiers":{"create(string,string,string)":"5d28560a","getPattern(bytes32)":"322ff36f","matchPattern(bytes32,string)":"f5f672a5","matchProject(bytes32)":"636bd0d1","patternCount()":"75810496"},"id":255}