{"abi":[{"type":"function","name":"defineFontStack","inputs":[{"name":"typography","type":"bytes32","internalType":"bytes32"},{"name":"name","type":"string","internalType":"string"},{"name":"fonts","type":"string","internalType":"string"},{"name":"category","type":"string","internalType":"string"}],"outputs":[{"name":"result","type":"tuple","internalType":"struct Typography.DefineFontStackOkResult","components":[{"name":"success","type":"bool","internalType":"bool"},{"name":"typography","type":"bytes32","internalType":"bytes32"}]}],"stateMutability":"nonpayable"},{"type":"function","name":"defineScale","inputs":[{"name":"typography","type":"bytes32","internalType":"bytes32"},{"name":"baseSize","type":"uint256","internalType":"uint256"},{"name":"ratio","type":"uint256","internalType":"uint256"},{"name":"steps","type":"int256","internalType":"int256"}],"outputs":[{"name":"result","type":"tuple","internalType":"struct Typography.DefineScaleOkResult","components":[{"name":"success","type":"bool","internalType":"bool"},{"name":"typography","type":"bytes32","internalType":"bytes32"},{"name":"scale","type":"string","internalType":"string"}]}],"stateMutability":"nonpayable"},{"type":"function","name":"defineStyle","inputs":[{"name":"typography","type":"bytes32","internalType":"bytes32"},{"name":"name","type":"string","internalType":"string"},{"name":"config","type":"string","internalType":"string"}],"outputs":[{"name":"result","type":"tuple","internalType":"struct Typography.DefineStyleOkResult","components":[{"name":"success","type":"bool","internalType":"bool"},{"name":"typography","type":"bytes32","internalType":"bytes32"}]}],"stateMutability":"nonpayable"},{"type":"function","name":"get","inputs":[{"name":"typography","type":"bytes32","internalType":"bytes32"}],"outputs":[{"name":"","type":"tuple","internalType":"struct Typography.TypographyEntry","components":[{"name":"baseSize","type":"uint256","internalType":"uint256"},{"name":"ratio","type":"uint256","internalType":"uint256"},{"name":"steps","type":"int256","internalType":"int256"},{"name":"scale","type":"string","internalType":"string"},{"name":"scaleExists","type":"bool","internalType":"bool"},{"name":"exists","type":"bool","internalType":"bool"}]}],"stateMutability":"view"},{"type":"function","name":"getFontStack","inputs":[{"name":"typography","type":"bytes32","internalType":"bytes32"},{"name":"name","type":"string","internalType":"string"}],"outputs":[{"name":"","type":"tuple","internalType":"struct Typography.FontStack","components":[{"name":"name","type":"string","internalType":"string"},{"name":"fonts","type":"string","internalType":"string"},{"name":"category","type":"string","internalType":"string"},{"name":"exists","type":"bool","internalType":"bool"}]}],"stateMutability":"view"},{"type":"function","name":"getStyle","inputs":[{"name":"typography","type":"bytes32","internalType":"bytes32"},{"name":"name","type":"string","internalType":"string"}],"outputs":[{"name":"","type":"tuple","internalType":"struct Typography.TextStyle","components":[{"name":"name","type":"string","internalType":"string"},{"name":"config","type":"string","internalType":"string"},{"name":"exists","type":"bool","internalType":"bool"}]}],"stateMutability":"view"},{"type":"function","name":"list","inputs":[],"outputs":[{"name":"","type":"bytes32[]","internalType":"bytes32[]"}],"stateMutability":"view"},{"type":"function","name":"typographyExists","inputs":[{"name":"typography","type":"bytes32","internalType":"bytes32"}],"outputs":[{"name":"","type":"bool","internalType":"bool"}],"stateMutability":"view"},{"type":"event","name":"DefineFontStackCompleted","inputs":[{"name":"variant","type":"string","indexed":false,"internalType":"string"},{"name":"typography","type":"bytes32","indexed":false,"internalType":"bytes32"}],"anonymous":false},{"type":"event","name":"DefineScaleCompleted","inputs":[{"name":"variant","type":"string","indexed":false,"internalType":"string"},{"name":"typography","type":"bytes32","indexed":false,"internalType":"bytes32"}],"anonymous":false},{"type":"event","name":"DefineStyleCompleted","inputs":[{"name":"variant","type":"string","indexed":false,"internalType":"string"},{"name":"typography","type":"bytes32","indexed":false,"internalType":"bytes32"}],"anonymous":false}],"bytecode":{"object":"0x608060405234801561000f575f80fd5b506129288061001d5f395ff3fe608060405234801561000f575f80fd5b5060043610610086575f3560e01c80636c3e530f116100595780636c3e530f1461013857806371432b78146101685780638eaa6ac014610198578063c234286e146101c857610086565b806309c3a8891461008a5780630f560cd7146100ba5780634254afbe146100d85780635f9eb10314610108575b5f80fd5b6100a4600480360381019061009f919061158d565b6101f8565b6040516100b191906115d2565b60405180910390f35b6100c2610221565b6040516100cf91906116a2565b60405180910390f35b6100f260048036038101906100ed9190611723565b610277565b6040516100ff919061186d565b60405180910390f35b610122600480360381019061011d9190611723565b610488565b60405161012f91906118fb565b60405180910390f35b610152600480360381019061014d919061191b565b610729565b60405161015f91906119d9565b60405180910390f35b610182600480360381019061017d9190611a58565b610a1c565b60405161018f9190611b09565b60405180910390f35b6101b260048036038101906101ad919061158d565b610c8e565b6040516101bf9190611bcd565b60405180910390f35b6101e260048036038101906101dd9190611bed565b610dfa565b6040516101ef9190611cde565b60405180910390f35b5f805f8381526020019081526020015f2060040160019054906101000a900460ff169050919050565b6060600580548060200260200160405190810160405280929190818152602001828054801561026d57602002820191905f5260205f20905b815481526020019060010190808311610259575b5050505050905090565b61027f611474565b5f8383604051602001610293929190611d33565b60405160208183030381529060405280519060200120905060035f8681526020019081526020015f205f8281526020019081526020015f206002015f9054906101000a900460ff1661031a576040517f08c379a000000000000000000000000000000000000000000000000000000000815260040161031190611da5565b60405180910390fd5b60035f8681526020019081526020015f205f8281526020019081526020015f206040518060600160405290815f8201805461035490611df0565b80601f016020809104026020016040519081016040528092919081815260200182805461038090611df0565b80156103cb5780601f106103a2576101008083540402835291602001916103cb565b820191905f5260205f20905b8154815290600101906020018083116103ae57829003601f168201915b505050505081526020016001820180546103e490611df0565b80601f016020809104026020016040519081016040528092919081815260200182805461041090611df0565b801561045b5780601f106104325761010080835404028352916020019161045b565b820191905f5260205f20905b81548152906001019060200180831161043e57829003601f168201915b50505050508152602001600282015f9054906101000a900460ff1615151515815250509150509392505050565b610490611496565b5f83836040516020016104a4929190611d33565b60405160208183030381529060405280519060200120905060015f8681526020019081526020015f205f8281526020019081526020015f206003015f9054906101000a900460ff1661052b576040517f08c379a000000000000000000000000000000000000000000000000000000000815260040161052290611e6a565b60405180910390fd5b60015f8681526020019081526020015f205f8281526020019081526020015f206040518060800160405290815f8201805461056590611df0565b80601f016020809104026020016040519081016040528092919081815260200182805461059190611df0565b80156105dc5780601f106105b3576101008083540402835291602001916105dc565b820191905f5260205f20905b8154815290600101906020018083116105bf57829003601f168201915b505050505081526020016001820180546105f590611df0565b80601f016020809104026020016040519081016040528092919081815260200182805461062190611df0565b801561066c5780601f106106435761010080835404028352916020019161066c565b820191905f5260205f20905b81548152906001019060200180831161064f57829003601f168201915b5050505050815260200160028201805461068590611df0565b80601f01602080910402602001604051908101604052809291908181526020018280546106b190611df0565b80156106fc5780601f106106d3576101008083540402835291602001916106fc565b820191905f5260205f20905b8154815290600101906020018083116106df57829003601f168201915b50505050508152602001600382015f9054906101000a900460ff1615151515815250509150509392505050565b6107316114bf565b5f801b8603610775576040517f08c379a000000000000000000000000000000000000000000000000000000000815260040161076c90611ed2565b60405180910390fd5b5f808781526020019081526020015f2060040160019054906101000a900460ff166107d5576040517f08c379a00000000000000000000000000000000000000000000000000000000081526004016107cc90611f3a565b60405180910390fd5b5f858590501161081a576040517f08c379a000000000000000000000000000000000000000000000000000000000815260040161081190611fa2565b60405180910390fd5b5f838390501161085f576040517f08c379a00000000000000000000000000000000000000000000000000000000081526004016108569061200a565b60405180910390fd5b5f8585604051602001610873929190611d33565b604051602081830303815290604052805190602001209050604051806060016040528087878080601f0160208091040260200160405190810160405280939291908181526020018383808284375f81840152601f19601f82011690508083019250505050505050815260200185858080601f0160208091040260200160405190810160405280939291908181526020018383808284375f81840152601f19601f8201169050808301925050505050505081526020016001151581525060035f8981526020019081526020015f205f8381526020019081526020015f205f820151815f01908161096291906121f2565b50602082015181600101908161097891906121f2565b506040820151816002015f6101000a81548160ff02191690831515021790555090505060045f8881526020019081526020015f205f8154809291906109bc906122ee565b919050555060405180604001604052806001151581526020018881525091507fffc119273fac6351b497808a37141d32a1d9f6a8ff8c6f16ca741eccc6b4062187604051610a0a919061238e565b60405180910390a15095945050505050565b610a246114dc565b5f801b8503610a68576040517f08c379a0000000000000000000000000000000000000000000000000000000008152600401610a5f90611ed2565b60405180910390fd5b5f8411610aaa576040517f08c379a0000000000000000000000000000000000000000000000000000000008152600401610aa190612404565b60405180910390fd5b5f8311610aec576040517f08c379a0000000000000000000000000000000000000000000000000000000008152600401610ae39061246c565b60405180910390fd5b5f610af68561126e565b610aff8561126e565b610b08856113c7565b604051602001610b1a93929190612598565b60405160208183030381529060405290505f808781526020019081526020015f2060040160019054906101000a900460ff16610b7757600586908060018154018082558091505060019003905f5260205f20015f90919091909150555b6040518060c00160405280868152602001858152602001848152602001828152602001600115158152602001600115158152505f808881526020019081526020015f205f820151815f015560208201518160010155604082015181600201556060820151816003019081610beb91906121f2565b506080820151816004015f6101000a81548160ff02191690831515021790555060a08201518160040160016101000a81548160ff02191690831515021790555090505060405180606001604052806001151581526020018781526020018281525091507fbeb5d31adf97c5806535ca723caf69ef5ad8cbeb9473e4b14104ccbb1db265a586604051610c7d919061238e565b60405180910390a150949350505050565b610c96611500565b5f808381526020019081526020015f2060040160019054906101000a900460ff16610cf6576040517f08c379a0000000000000000000000000000000000000000000000000000000008152600401610ced90611f3a565b60405180910390fd5b5f808381526020019081526020015f206040518060c00160405290815f82015481526020016001820154815260200160028201548152602001600382018054610d3e90611df0565b80601f0160208091040260200160405190810160405280929190818152602001828054610d6a90611df0565b8015610db55780601f10610d8c57610100808354040283529160200191610db5565b820191905f5260205f20905b815481529060010190602001808311610d9857829003601f168201915b50505050508152602001600482015f9054906101000a900460ff161515151581526020016004820160019054906101000a900460ff1615151515815250509050919050565b610e02611535565b5f801b8803610e46576040517f08c379a0000000000000000000000000000000000000000000000000000000008152600401610e3d90611ed2565b60405180910390fd5b5f8787905011610e8b576040517f08c379a0000000000000000000000000000000000000000000000000000000008152600401610e8290612633565b60405180910390fd5b5f8585905011610ed0576040517f08c379a0000000000000000000000000000000000000000000000000000000008152600401610ec79061269b565b60405180910390fd5b5f808981526020019081526020015f2060040160019054906101000a900460ff16610fe0576040518060c001604052805f81526020015f81526020015f815260200160405180602001604052805f81525081526020015f15158152602001600115158152505f808a81526020019081526020015f205f820151815f015560208201518160010155604082015181600201556060820151816003019081610f7691906121f2565b506080820151816004015f6101000a81548160ff02191690831515021790555060a08201518160040160016101000a81548160ff021916908315150217905550905050600588908060018154018082558091505060019003905f5260205f20015f90919091909150555b5f8787604051602001610ff4929190611d33565b60405160208183030381529060405280519060200120905060015f8a81526020019081526020015f205f8281526020019081526020015f206003015f9054906101000a900460ff161561107c576040517f08c379a000000000000000000000000000000000000000000000000000000000815260040161107390612703565b60405180910390fd5b604051806080016040528089898080601f0160208091040260200160405190810160405280939291908181526020018383808284375f81840152601f19601f82011690508083019250505050505050815260200187878080601f0160208091040260200160405190810160405280939291908181526020018383808284375f81840152601f19601f82011690508083019250505050505050815260200185858080601f0160208091040260200160405190810160405280939291908181526020018383808284375f81840152601f19601f8201169050808301925050505050505081526020016001151581525060015f8b81526020019081526020015f205f8381526020019081526020015f205f820151815f01908161119c91906121f2565b5060208201518160010190816111b291906121f2565b5060408201518160020190816111c891906121f2565b506060820151816003015f6101000a81548160ff02191690831515021790555090505060025f8a81526020019081526020015f205f81548092919061120c906122ee565b919050555060405180604001604052806001151581526020018a81525091507fa1965385774dc3a02ed81eff3f50d7c52b711ae95b6c044f93cfd9901320cc068960405161125a919061238e565b60405180910390a150979650505050505050565b60605f82036112b4576040518060400160405280600181526020017f300000000000000000000000000000000000000000000000000000000000000081525090506113c2565b5f8290505f5b5f82146112e35780806112cc906122ee565b915050600a826112dc919061274e565b91506112ba565b5f8167ffffffffffffffff8111156112fe576112fd612028565b5b6040519080825280601f01601f1916602001820160405280156113305781602001600182028036833780820191505090505b5090505b5f85146113bb57600182611348919061277e565b9150600a8561135791906127b1565b603061136391906127e1565b60f81b81838151811061137957611378612814565b5b60200101907effffffffffffffffffffffffffffffffffffffffffffffffffffffffffffff191690815f1a905350600a856113b4919061274e565b9450611334565b8093505050505b919050565b60605f820361140d576040518060400160405280600181526020017f3000000000000000000000000000000000000000000000000000000000000000815250905061146f565b5f80831290505f8161141f578361142a565b8361142990612841565b5b90505f6114368261126e565b90508215611468578060405160200161144f91906128d1565b604051602081830303815290604052935050505061146f565b8093505050505b919050565b604051806060016040528060608152602001606081526020015f151581525090565b60405180608001604052806060815260200160608152602001606081526020015f151581525090565b60405180604001604052805f151581526020015f80191681525090565b60405180606001604052805f151581526020015f8019168152602001606081525090565b6040518060c001604052805f81526020015f81526020015f8152602001606081526020015f151581526020015f151581525090565b60405180604001604052805f151581526020015f80191681525090565b5f80fd5b5f80fd5b5f819050919050565b61156c8161155a565b8114611576575f80fd5b50565b5f8135905061158781611563565b92915050565b5f602082840312156115a2576115a1611552565b5b5f6115af84828501611579565b91505092915050565b5f8115159050919050565b6115cc816115b8565b82525050565b5f6020820190506115e55f8301846115c3565b92915050565b5f81519050919050565b5f82825260208201905092915050565b5f819050602082019050919050565b61161d8161155a565b82525050565b5f61162e8383611614565b60208301905092915050565b5f602082019050919050565b5f611650826115eb565b61165a81856115f5565b935061166583611605565b805f5b8381101561169557815161167c8882611623565b97506116878361163a565b925050600181019050611668565b5085935050505092915050565b5f6020820190508181035f8301526116ba8184611646565b905092915050565b5f80fd5b5f80fd5b5f80fd5b5f8083601f8401126116e3576116e26116c2565b5b8235905067ffffffffffffffff811115611700576116ff6116c6565b5b60208301915083600182028301111561171c5761171b6116ca565b5b9250929050565b5f805f6040848603121561173a57611739611552565b5b5f61174786828701611579565b935050602084013567ffffffffffffffff81111561176857611767611556565b5b611774868287016116ce565b92509250509250925092565b5f81519050919050565b5f82825260208201905092915050565b5f5b838110156117b757808201518184015260208101905061179c565b5f8484015250505050565b5f601f19601f8301169050919050565b5f6117dc82611780565b6117e6818561178a565b93506117f681856020860161179a565b6117ff816117c2565b840191505092915050565b611813816115b8565b82525050565b5f606083015f8301518482035f86015261183382826117d2565b9150506020830151848203602086015261184d82826117d2565b9150506040830151611862604086018261180a565b508091505092915050565b5f6020820190508181035f8301526118858184611819565b905092915050565b5f608083015f8301518482035f8601526118a782826117d2565b915050602083015184820360208601526118c182826117d2565b915050604083015184820360408601526118db82826117d2565b91505060608301516118f0606086018261180a565b508091505092915050565b5f6020820190508181035f830152611913818461188d565b905092915050565b5f805f805f6060868803121561193457611933611552565b5b5f61194188828901611579565b955050602086013567ffffffffffffffff81111561196257611961611556565b5b61196e888289016116ce565b9450945050604086013567ffffffffffffffff81111561199157611990611556565b5b61199d888289016116ce565b92509250509295509295909350565b604082015f8201516119c05f85018261180a565b5060208201516119d36020850182611614565b50505050565b5f6040820190506119ec5f8301846119ac565b92915050565b5f819050919050565b611a04816119f2565b8114611a0e575f80fd5b50565b5f81359050611a1f816119fb565b92915050565b5f819050919050565b611a3781611a25565b8114611a41575f80fd5b50565b5f81359050611a5281611a2e565b92915050565b5f805f8060808587031215611a7057611a6f611552565b5b5f611a7d87828801611579565b9450506020611a8e87828801611a11565b9350506040611a9f87828801611a11565b9250506060611ab087828801611a44565b91505092959194509250565b5f606083015f830151611ad15f86018261180a565b506020830151611ae46020860182611614565b5060408301518482036040860152611afc82826117d2565b9150508091505092915050565b5f6020820190508181035f830152611b218184611abc565b905092915050565b611b32816119f2565b82525050565b611b4181611a25565b82525050565b5f60c083015f830151611b5c5f860182611b29565b506020830151611b6f6020860182611b29565b506040830151611b826040860182611b38565b5060608301518482036060860152611b9a82826117d2565b9150506080830151611baf608086018261180a565b5060a0830151611bc260a086018261180a565b508091505092915050565b5f6020820190508181035f830152611be58184611b47565b905092915050565b5f805f805f805f6080888a031215611c0857611c07611552565b5b5f611c158a828b01611579565b975050602088013567ffffffffffffffff811115611c3657611c35611556565b5b611c428a828b016116ce565b9650965050604088013567ffffffffffffffff811115611c6557611c64611556565b5b611c718a828b016116ce565b9450945050606088013567ffffffffffffffff811115611c9457611c93611556565b5b611ca08a828b016116ce565b925092505092959891949750929550565b604082015f820151611cc55f85018261180a565b506020820151611cd86020850182611614565b50505050565b5f604082019050611cf15f830184611cb1565b92915050565b5f81905092915050565b828183375f83830152505050565b5f611d1a8385611cf7565b9350611d27838584611d01565b82840190509392505050565b5f611d3f828486611d0f565b91508190509392505050565b5f82825260208201905092915050565b7f5374796c65206e6f7420666f756e6400000000000000000000000000000000005f82015250565b5f611d8f600f83611d4b565b9150611d9a82611d5b565b602082019050919050565b5f6020820190508181035f830152611dbc81611d83565b9050919050565b7f4e487b71000000000000000000000000000000000000000000000000000000005f52602260045260245ffd5b5f6002820490506001821680611e0757607f821691505b602082108103611e1a57611e19611dc3565b5b50919050565b7f466f6e7420737461636b206e6f7420666f756e640000000000000000000000005f82015250565b5f611e54601483611d4b565b9150611e5f82611e20565b602082019050919050565b5f6020820190508181035f830152611e8181611e48565b9050919050565b7f5479706f6772617068792049442063616e6e6f74206265207a65726f000000005f82015250565b5f611ebc601c83611d4b565b9150611ec782611e88565b602082019050919050565b5f6020820190508181035f830152611ee981611eb0565b9050919050565b7f5479706f677261706879206e6f7420666f756e640000000000000000000000005f82015250565b5f611f24601483611d4b565b9150611f2f82611ef0565b602082019050919050565b5f6020820190508181035f830152611f5181611f18565b9050919050565b7f5374796c65206e616d652063616e6e6f7420626520656d7074790000000000005f82015250565b5f611f8c601a83611d4b565b9150611f9782611f58565b602082019050919050565b5f6020820190508181035f830152611fb981611f80565b9050919050565b7f436f6e6669672063616e6e6f7420626520656d707479000000000000000000005f82015250565b5f611ff4601683611d4b565b9150611fff82611fc0565b602082019050919050565b5f6020820190508181035f83015261202181611fe8565b9050919050565b7f4e487b71000000000000000000000000000000000000000000000000000000005f52604160045260245ffd5b5f819050815f5260205f209050919050565b5f6020601f8301049050919050565b5f82821b905092915050565b5f600883026120b17fffffffffffffffffffffffffffffffffffffffffffffffffffffffffffffffff82612076565b6120bb8683612076565b95508019841693508086168417925050509392505050565b5f819050919050565b5f6120f66120f16120ec846119f2565b6120d3565b6119f2565b9050919050565b5f819050919050565b61210f836120dc565b61212361211b826120fd565b848454612082565b825550505050565b5f90565b61213761212b565b612142818484612106565b505050565b5b818110156121655761215a5f8261212f565b600181019050612148565b5050565b601f8211156121aa5761217b81612055565b61218484612067565b81016020851015612193578190505b6121a761219f85612067565b830182612147565b50505b505050565b5f82821c905092915050565b5f6121ca5f19846008026121af565b1980831691505092915050565b5f6121e283836121bb565b9150826002028217905092915050565b6121fb82611780565b67ffffffffffffffff81111561221457612213612028565b5b61221e8254611df0565b612229828285612169565b5f60209050601f83116001811461225a575f8415612248578287015190505b61225285826121d7565b8655506122b9565b601f19841661226886612055565b5f5b8281101561228f5784890151825560018201915060208501945060208101905061226a565b868310156122ac57848901516122a8601f8916826121bb565b8355505b6001600288020188555050505b505050505050565b7f4e487b71000000000000000000000000000000000000000000000000000000005f52601160045260245ffd5b5f6122f8826119f2565b91507fffffffffffffffffffffffffffffffffffffffffffffffffffffffffffffffff820361232a576123296122c1565b5b600182019050919050565b7f6f6b0000000000000000000000000000000000000000000000000000000000005f82015250565b5f612369600283611d4b565b915061237482612335565b602082019050919050565b6123888161155a565b82525050565b5f6040820190508181035f8301526123a58161235d565b90506123b4602083018461237f565b92915050565b7f426173652073697a65206d75737420626520706f7369746976650000000000005f82015250565b5f6123ee601a83611d4b565b91506123f9826123ba565b602082019050919050565b5f6020820190508181035f83015261241b816123e2565b9050919050565b7f526174696f206d75737420626520706f736974697665000000000000000000005f82015250565b5f612456601683611d4b565b915061246182612422565b602082019050919050565b5f6020820190508181035f8301526124838161244a565b9050919050565b7f626173653a0000000000000000000000000000000000000000000000000000005f82015250565b5f6124be600583611cf7565b91506124c98261248a565b600582019050919050565b5f6124de82611780565b6124e88185611cf7565b93506124f881856020860161179a565b80840191505092915050565b7f2c726174696f3a000000000000000000000000000000000000000000000000005f82015250565b5f612538600783611cf7565b915061254382612504565b600782019050919050565b7f2c73746570733a000000000000000000000000000000000000000000000000005f82015250565b5f612582600783611cf7565b915061258d8261254e565b600782019050919050565b5f6125a2826124b2565b91506125ae82866124d4565b91506125b98261252c565b91506125c582856124d4565b91506125d082612576565b91506125dc82846124d4565b9150819050949350505050565b7f466f6e7420737461636b206e616d652063616e6e6f7420626520656d707479005f82015250565b5f61261d601f83611d4b565b9150612628826125e9565b602082019050919050565b5f6020820190508181035f83015261264a81612611565b9050919050565b7f466f6e74732063616e6e6f7420626520656d70747900000000000000000000005f82015250565b5f612685601583611d4b565b915061269082612651565b602082019050919050565b5f6020820190508181035f8301526126b281612679565b9050919050565b7f466f6e7420737461636b20616c726561647920657869737473000000000000005f82015250565b5f6126ed601983611d4b565b91506126f8826126b9565b602082019050919050565b5f6020820190508181035f83015261271a816126e1565b9050919050565b7f4e487b71000000000000000000000000000000000000000000000000000000005f52601260045260245ffd5b5f612758826119f2565b9150612763836119f2565b92508261277357612772612721565b5b828204905092915050565b5f612788826119f2565b9150612793836119f2565b92508282039050818111156127ab576127aa6122c1565b5b92915050565b5f6127bb826119f2565b91506127c6836119f2565b9250826127d6576127d5612721565b5b828206905092915050565b5f6127eb826119f2565b91506127f6836119f2565b925082820190508082111561280e5761280d6122c1565b5b92915050565b7f4e487b71000000000000000000000000000000000000000000000000000000005f52603260045260245ffd5b5f61284b82611a25565b91507f8000000000000000000000000000000000000000000000000000000000000000820361287d5761287c6122c1565b5b815f039050919050565b7f2d000000000000000000000000000000000000000000000000000000000000005f82015250565b5f6128bb600183611cf7565b91506128c682612887565b600182019050919050565b5f6128db826128af565b91506128e782846124d4565b91508190509291505056fea2646970667358221220969b38a53819950f37ee4e5fa2e825e5a3451efce9a37bd88e6dd26a9cac387864736f6c63430008140033","linkReferences":{}},"methodIdentifiers":{"defineFontStack(bytes32,string,string,string)":"c234286e","defineScale(bytes32,uint256,uint256,int256)":"71432b78","defineStyle(bytes32,string,string)":"6c3e530f","get(bytes32)":"8eaa6ac0","getFontStack(bytes32,string)":"5f9eb103","getStyle(bytes32,string)":"4254afbe","list()":"0f560cd7","typographyExists(bytes32)":"09c3a889"},"id":317}