{"abi":[{"type":"function","name":"invalidateCache","inputs":[{"name":"name","type":"string","internalType":"string"}],"outputs":[{"name":"","type":"tuple","internalType":"struct Secret.InvalidateCacheOkResult","components":[{"name":"success","type":"bool","internalType":"bool"},{"name":"secret","type":"bytes32","internalType":"bytes32"}]}],"stateMutability":"nonpayable"},{"type":"function","name":"resolve","inputs":[{"name":"name","type":"string","internalType":"string"},{"name":"provider","type":"string","internalType":"string"}],"outputs":[{"name":"","type":"tuple","internalType":"struct Secret.ResolveOkResult","components":[{"name":"success","type":"bool","internalType":"bool"},{"name":"secret","type":"bytes32","internalType":"bytes32"},{"name":"version","type":"string","internalType":"string"}]}],"stateMutability":"nonpayable"},{"type":"function","name":"rotate","inputs":[{"name":"name","type":"string","internalType":"string"},{"name":"provider","type":"string","internalType":"string"}],"outputs":[{"name":"","type":"tuple","internalType":"struct Secret.RotateOkResult","components":[{"name":"success","type":"bool","internalType":"bool"},{"name":"secret","type":"bytes32","internalType":"bytes32"},{"name":"newVersion","type":"string","internalType":"string"}]}],"stateMutability":"nonpayable"},{"type":"function","name":"secretExists","inputs":[{"name":"name","type":"string","internalType":"string"},{"name":"provider","type":"string","internalType":"string"}],"outputs":[{"name":"","type":"tuple","internalType":"struct Secret.ExistsOkResult","components":[{"name":"success","type":"bool","internalType":"bool"},{"name":"name","type":"string","internalType":"string"},{"name":"doesExist","type":"bool","internalType":"bool"}]}],"stateMutability":"nonpayable"},{"type":"function","name":"storeSecret","inputs":[{"name":"name","type":"string","internalType":"string"},{"name":"provider","type":"string","internalType":"string"},{"name":"value","type":"bytes","internalType":"bytes"}],"outputs":[{"name":"","type":"bytes32","internalType":"bytes32"}],"stateMutability":"nonpayable"},{"type":"event","name":"ExistsCompleted","inputs":[{"name":"variant","type":"string","indexed":false,"internalType":"string"},{"name":"doesExist","type":"bool","indexed":false,"internalType":"bool"}],"anonymous":false},{"type":"event","name":"InvalidateCacheCompleted","inputs":[{"name":"variant","type":"string","indexed":false,"internalType":"string"},{"name":"secret","type":"bytes32","indexed":false,"internalType":"bytes32"}],"anonymous":false},{"type":"event","name":"ResolveCompleted","inputs":[{"name":"variant","type":"string","indexed":false,"internalType":"string"},{"name":"secret","type":"bytes32","indexed":false,"internalType":"bytes32"},{"name":"expiresAt","type":"uint256","indexed":false,"internalType":"uint256"}],"anonymous":false},{"type":"event","name":"RotateCompleted","inputs":[{"name":"variant","type":"string","indexed":false,"internalType":"string"},{"name":"secret","type":"bytes32","indexed":false,"internalType":"bytes32"}],"anonymous":false},{"type":"event","name":"SecretStored","inputs":[{"name":"secret","type":"bytes32","indexed":true,"internalType":"bytes32"},{"name":"name","type":"string","indexed":false,"internalType":"string"},{"name":"provider","type":"string","indexed":false,"internalType":"string"}],"anonymous":false}],"bytecode":{"object":"0x608060405234801561000f575f80fd5b50611b6e8061001d5f395ff3fe608060405234801561000f575f80fd5b5060043610610055575f3560e01c80630842b63c1461005957806398d7a7c614610089578063a326c2c2146100b9578063af6e5391146100e9578063c772e44214610119575b5f80fd5b610073600480360381019061006e9190610daf565b610149565b6040516100809190610f1e565b60405180910390f35b6100a3600480360381019061009e9190610daf565b610352565b6040516100b09190610f8b565b60405180910390f35b6100d360048036038101906100ce9190610fab565b61054f565b6040516100e0919061101f565b60405180910390f35b61010360048036038101906100fe91906110d6565b6106bf565b6040516101109190611189565b60405180910390f35b610133600480360381019061012e9190610daf565b6109a3565b60405161014091906111ef565b60405180910390f35b610151610bda565b5f8383604051602001610165929190611249565b60405160208183030381529060405280519060200120905060025f8281526020019081526020015f205f9054906101000a900460ff166101da576040517f08c379a00000000000000000000000000000000000000000000000000000000081526004016101d1906112c6565b60405180910390fd5b5f805f8381526020019081526020015f209050806006015f9054906101000a900460ff161561023e576040517f08c379a00000000000000000000000000000000000000000000000000000000081526004016102359061132e565b60405180910390fd5b60035f81548092919061025090611382565b91905055505f610261600354610a82565b6040516020016102719190611413565b604051602081830303815290604052905081600201544260035460405160200161029d93929190611474565b604051602081830303815290604052805190602001208260020181905550808260030190816102cc91906116aa565b504282600501819055505f8260060160016101000a81548160ff0219169083151502179055507fcac1996663599ace7b20fa003fccee0e8f5f854c518000bbb7b2f6455d5420ff8360405161032191906117c3565b60405180910390a1604051806060016040528060011515815260200184815260200182815250935050505092915050565b61035a610bfe565b5f838360405160200161036e929190611249565b60405160208183030381529060405280519060200120905060025f8281526020019081526020015f205f9054906101000a900460ff166103e3576040517f08c379a00000000000000000000000000000000000000000000000000000000081526004016103da906112c6565b60405180910390fd5b5f805f8381526020019081526020015f209050806006015f9054906101000a900460ff1615610447576040517f08c379a000000000000000000000000000000000000000000000000000000000815260040161043e9061132e565b60405180910390fd5b60018160060160016101000a81548160ff0219169083151502179055507fe81787d9f4e01e3e509402c33accf253420dadc3ea846aaec8dd8b0ffe1a87c5825f604051610495929190611828565b60405180910390a160405180606001604052806001151581526020018381526020018260030180546104c6906114dd565b80601f01602080910402602001604051908101604052809291908181526020018280546104f2906114dd565b801561053d5780601f106105145761010080835404028352916020019161053d565b820191905f5260205f20905b81548152906001019060200180831161052057829003601f168201915b50505050508152509250505092915050565b610557610c22565b5f805f1b90505f5b600180549050811015610623575f6001828154811061058157610580611862565b5b905f5260205f200154905060025f8281526020019081526020015f205f9054906101000a900460ff161561060f575f805f8381526020019081526020015f2090508580519060200120815f016040516105da919061192b565b60405180910390200361060d575f8160060160016101000a81548160ff0219169083151502179055508193505050610623565b505b50808061061b90611382565b91505061055f565b505f801b8103610668576040517f08c379a000000000000000000000000000000000000000000000000000000000815260040161065f9061198b565b60405180910390fd5b7fcebb5061bba8b36a022e785b2e835106c1e5102ac8010a2fb9b4d621a048dba48160405161069791906117c3565b60405180910390a1604051806040016040528060011515815260200182815250915050919050565b5f8084846040516020016106d4929190611249565b60405160208183030381529060405280519060200120905060025f8281526020019081526020015f205f9054906101000a900460ff16156107ae575f805f8381526020019081526020015f20905060035f81548092919061073490611382565b919050555083805190602001208160020181905550610754600354610a82565b6040516020016107649190611413565b60405160208183030381529060405281600301908161078391906116aa565b504281600501819055505f816006015f6101000a81548160ff0219169083151502179055505061095e565b60035f8154809291906107c090611382565b9190505550604051806101200160405280868152602001858152602001848051906020012081526020016107f5600354610a82565b6040516020016108059190611413565b60405160208183030381529060405281526020014281526020014281526020015f15158152602001600115158152602001600115158152505f808381526020019081526020015f205f820151815f01908161086091906116aa565b50602082015181600101908161087691906116aa565b5060408201518160020155606082015181600301908161089691906116aa565b506080820151816004015560a0820151816005015560c0820151816006015f6101000a81548160ff02191690831515021790555060e08201518160060160016101000a81548160ff0219169083151502179055506101008201518160060160026101000a81548160ff021916908315150217905550905050600160025f8381526020019081526020015f205f6101000a81548160ff021916908315150217905550600181908060018154018082558091505060019003905f5260205f20015f90919091909150555b807f78677e7c1b42d9a0c25d891300eb71a08592ca6115d1a1787b597c3db19f7f3486866040516109909291906119e1565b60405180910390a2809150509392505050565b6109ab610c3f565b5f83836040516020016109bf929190611249565b6040516020818303038152906040528051906020012090505f60025f8381526020019081526020015f205f9054906101000a900460ff168015610a1f57505f808381526020019081526020015f206006015f9054906101000a900460ff16155b90507f72c7ccc6c67b86c760274b904ecf9bf73b1f66e7b3a30741f54bc44a1582757181604051610a509190611a25565b60405180910390a160405180606001604052806001151581526020018681526020018215158152509250505092915050565b60605f8203610ac8576040518060400160405280600181526020017f30000000000000000000000000000000000000000000000000000000000000008152509050610bd5565b5f8290505f5b5f8214610af7578080610ae090611382565b915050600a82610af09190611a7e565b9150610ace565b5f8167ffffffffffffffff811115610b1257610b11610c8b565b5b6040519080825280601f01601f191660200182016040528015610b445781602001600182028036833780820191505090505b5090505b5f8514610bce578180610b5a90611aae565b925050600a85610b6a9190611ad5565b6030610b769190611b05565b60f81b818381518110610b8c57610b8b611862565b5b60200101907effffffffffffffffffffffffffffffffffffffffffffffffffffffffffffff191690815f1a905350600a85610bc79190611a7e565b9450610b48565b8093505050505b919050565b60405180606001604052805f151581526020015f8019168152602001606081525090565b60405180606001604052805f151581526020015f8019168152602001606081525090565b60405180604001604052805f151581526020015f80191681525090565b60405180606001604052805f15158152602001606081526020015f151581525090565b5f604051905090565b5f80fd5b5f80fd5b5f80fd5b5f80fd5b5f601f19601f8301169050919050565b7f4e487b71000000000000000000000000000000000000000000000000000000005f52604160045260245ffd5b610cc182610c7b565b810181811067ffffffffffffffff82111715610ce057610cdf610c8b565b5b80604052505050565b5f610cf2610c62565b9050610cfe8282610cb8565b919050565b5f67ffffffffffffffff821115610d1d57610d1c610c8b565b5b610d2682610c7b565b9050602081019050919050565b828183375f83830152505050565b5f610d53610d4e84610d03565b610ce9565b905082815260208101848484011115610d6f57610d6e610c77565b5b610d7a848285610d33565b509392505050565b5f82601f830112610d9657610d95610c73565b5b8135610da6848260208601610d41565b91505092915050565b5f8060408385031215610dc557610dc4610c6b565b5b5f83013567ffffffffffffffff811115610de257610de1610c6f565b5b610dee85828601610d82565b925050602083013567ffffffffffffffff811115610e0f57610e0e610c6f565b5b610e1b85828601610d82565b9150509250929050565b5f8115159050919050565b610e3981610e25565b82525050565b5f819050919050565b610e5181610e3f565b82525050565b5f81519050919050565b5f82825260208201905092915050565b5f5b83811015610e8e578082015181840152602081019050610e73565b5f8484015250505050565b5f610ea382610e57565b610ead8185610e61565b9350610ebd818560208601610e71565b610ec681610c7b565b840191505092915050565b5f606083015f830151610ee65f860182610e30565b506020830151610ef96020860182610e48565b5060408301518482036040860152610f118282610e99565b9150508091505092915050565b5f6020820190508181035f830152610f368184610ed1565b905092915050565b5f606083015f830151610f535f860182610e30565b506020830151610f666020860182610e48565b5060408301518482036040860152610f7e8282610e99565b9150508091505092915050565b5f6020820190508181035f830152610fa38184610f3e565b905092915050565b5f60208284031215610fc057610fbf610c6b565b5b5f82013567ffffffffffffffff811115610fdd57610fdc610c6f565b5b610fe984828501610d82565b91505092915050565b604082015f8201516110065f850182610e30565b5060208201516110196020850182610e48565b50505050565b5f6040820190506110325f830184610ff2565b92915050565b5f67ffffffffffffffff82111561105257611051610c8b565b5b61105b82610c7b565b9050602081019050919050565b5f61107a61107584611038565b610ce9565b90508281526020810184848401111561109657611095610c77565b5b6110a1848285610d33565b509392505050565b5f82601f8301126110bd576110bc610c73565b5b81356110cd848260208601611068565b91505092915050565b5f805f606084860312156110ed576110ec610c6b565b5b5f84013567ffffffffffffffff81111561110a57611109610c6f565b5b61111686828701610d82565b935050602084013567ffffffffffffffff81111561113757611136610c6f565b5b61114386828701610d82565b925050604084013567ffffffffffffffff81111561116457611163610c6f565b5b611170868287016110a9565b9150509250925092565b61118381610e3f565b82525050565b5f60208201905061119c5f83018461117a565b92915050565b5f606083015f8301516111b75f860182610e30565b50602083015184820360208601526111cf8282610e99565b91505060408301516111e46040860182610e30565b508091505092915050565b5f6020820190508181035f83015261120781846111a2565b905092915050565b5f81905092915050565b5f61122382610e57565b61122d818561120f565b935061123d818560208601610e71565b80840191505092915050565b5f6112548285611219565b91506112608284611219565b91508190509392505050565b5f82825260208201905092915050565b7f536563726574206e6f7420666f756e64000000000000000000000000000000005f82015250565b5f6112b060108361126c565b91506112bb8261127c565b602082019050919050565b5f6020820190508181035f8301526112dd816112a4565b9050919050565b7f53656372657420686173206265656e207265766f6b65640000000000000000005f82015250565b5f61131860178361126c565b9150611323826112e4565b602082019050919050565b5f6020820190508181035f8301526113458161130c565b9050919050565b7f4e487b71000000000000000000000000000000000000000000000000000000005f52601160045260245ffd5b5f819050919050565b5f61138c82611379565b91507fffffffffffffffffffffffffffffffffffffffffffffffffffffffffffffffff82036113be576113bd61134c565b5b600182019050919050565b7f76000000000000000000000000000000000000000000000000000000000000005f82015250565b5f6113fd60018361120f565b9150611408826113c9565b600182019050919050565b5f61141d826113f1565b91506114298284611219565b915081905092915050565b5f819050919050565b61144e61144982610e3f565b611434565b82525050565b5f819050919050565b61146e61146982611379565b611454565b82525050565b5f61147f828661143d565b60208201915061148f828561145d565b60208201915061149f828461145d565b602082019150819050949350505050565b7f4e487b71000000000000000000000000000000000000000000000000000000005f52602260045260245ffd5b5f60028204905060018216806114f457607f821691505b602082108103611507576115066114b0565b5b50919050565b5f819050815f5260205f209050919050565b5f6020601f8301049050919050565b5f82821b905092915050565b5f600883026115697fffffffffffffffffffffffffffffffffffffffffffffffffffffffffffffffff8261152e565b611573868361152e565b95508019841693508086168417925050509392505050565b5f819050919050565b5f6115ae6115a96115a484611379565b61158b565b611379565b9050919050565b5f819050919050565b6115c783611594565b6115db6115d3826115b5565b84845461153a565b825550505050565b5f90565b6115ef6115e3565b6115fa8184846115be565b505050565b5b8181101561161d576116125f826115e7565b600181019050611600565b5050565b601f821115611662576116338161150d565b61163c8461151f565b8101602085101561164b578190505b61165f6116578561151f565b8301826115ff565b50505b505050565b5f82821c905092915050565b5f6116825f1984600802611667565b1980831691505092915050565b5f61169a8383611673565b9150826002028217905092915050565b6116b382610e57565b67ffffffffffffffff8111156116cc576116cb610c8b565b5b6116d682546114dd565b6116e1828285611621565b5f60209050601f831160018114611712575f8415611700578287015190505b61170a858261168f565b865550611771565b601f1984166117208661150d565b5f5b8281101561174757848901518255600182019150602085019450602081019050611722565b868310156117645784890151611760601f891682611673565b8355505b6001600288020188555050505b505050505050565b7f6f6b0000000000000000000000000000000000000000000000000000000000005f82015250565b5f6117ad60028361126c565b91506117b882611779565b602082019050919050565b5f6040820190508181035f8301526117da816117a1565b90506117e9602083018461117a565b92915050565b5f819050919050565b5f61181261180d611808846117ef565b61158b565b611379565b9050919050565b611822816117f8565b82525050565b5f6060820190508181035f83015261183f816117a1565b905061184e602083018561117a565b61185b6040830184611819565b9392505050565b7f4e487b71000000000000000000000000000000000000000000000000000000005f52603260045260245ffd5b5f81905092915050565b5f819050815f5260205f209050919050565b5f81546118b7816114dd565b6118c1818661188f565b9450600182165f81146118db57600181146118f057611922565b60ff1983168652811515820286019350611922565b6118f985611899565b5f5b8381101561191a578154818901526001820191506020810190506118fb565b838801955050505b50505092915050565b5f61193682846118ab565b915081905092915050565b7f536563726574206e6f7420666f756e64206279206e616d6500000000000000005f82015250565b5f61197560188361126c565b915061198082611941565b602082019050919050565b5f6020820190508181035f8301526119a281611969565b9050919050565b5f6119b382610e57565b6119bd818561126c565b93506119cd818560208601610e71565b6119d681610c7b565b840191505092915050565b5f6040820190508181035f8301526119f981856119a9565b90508181036020830152611a0d81846119a9565b90509392505050565b611a1f81610e25565b82525050565b5f6040820190508181035f830152611a3c816117a1565b9050611a4b6020830184611a16565b92915050565b7f4e487b71000000000000000000000000000000000000000000000000000000005f52601260045260245ffd5b5f611a8882611379565b9150611a9383611379565b925082611aa357611aa2611a51565b5b828204905092915050565b5f611ab882611379565b91505f8203611aca57611ac961134c565b5b600182039050919050565b5f611adf82611379565b9150611aea83611379565b925082611afa57611af9611a51565b5b828206905092915050565b5f611b0f82611379565b9150611b1a83611379565b9250828201905080821115611b3257611b3161134c565b5b9291505056fea264697066735822122046e08955342af994b24765142bd6205352225df1532abab732d57e3a7a86e3ed64736f6c63430008140033","linkReferences":{}},"methodIdentifiers":{"invalidateCache(string)":"a326c2c2","resolve(string,string)":"98d7a7c6","rotate(string,string)":"0842b63c","secretExists(string,string)":"c772e442","storeSecret(string,string,bytes)":"af6e5391"},"id":237}