{"abi":[{"type":"function","name":"andIf","inputs":[{"name":"a","type":"uint8","internalType":"uint8"},{"name":"b","type":"uint8","internalType":"uint8"}],"outputs":[{"name":"","type":"uint8","internalType":"uint8"}],"stateMutability":"pure"},{"type":"function","name":"orIf","inputs":[{"name":"a","type":"uint8","internalType":"uint8"},{"name":"b","type":"uint8","internalType":"uint8"}],"outputs":[{"name":"","type":"uint8","internalType":"uint8"}],"stateMutability":"pure"},{"type":"event","name":"AccessChecked","inputs":[{"name":"entityId","type":"bytes32","indexed":true,"internalType":"bytes32"},{"name":"userId","type":"bytes32","indexed":true,"internalType":"bytes32"},{"name":"result","type":"uint8","indexed":false,"internalType":"uint8"}],"anonymous":false}],"bytecode":{"object":"0x608060405234801561000f575f80fd5b506105448061001d5f395ff3fe608060405234801561000f575f80fd5b5060043610610034575f3560e01c80630be1488f1461003857806392bd8e5314610068575b5f80fd5b610052600480360381019061004d919061039b565b610098565b60405161005f91906103e8565b60405180910390f35b610082600480360381019061007d919061039b565b6101fd565b60405161008f91906103e8565b60405180910390f35b5f60028360ff1611156100e0576040517f08c379a00000000000000000000000000000000000000000000000000000000081526004016100d79061045b565b60405180910390fd5b60028260ff161115610127576040517f08c379a000000000000000000000000000000000000000000000000000000000815260040161011e906104c3565b60405180910390fd5b60028081111561013a576101396104e1565b5b60ff168360ff161480610164575060028081111561015b5761015a6104e1565b5b60ff168260ff16145b156101835760028081111561017c5761017b6104e1565b5b90506101f7565b5f6002811115610196576101956104e1565b5b60ff168360ff161480156101c157505f60028111156101b8576101b76104e1565b5b60ff168260ff16145b156101e0575f60028111156101d9576101d86104e1565b5b90506101f7565b600160028111156101f4576101f36104e1565b5b90505b92915050565b5f60028360ff161115610245576040517f08c379a000000000000000000000000000000000000000000000000000000000815260040161023c9061045b565b60405180910390fd5b60028260ff16111561028c576040517f08c379a0000000000000000000000000000000000000000000000000000000008152600401610283906104c3565b60405180910390fd5b60028081111561029f5761029e6104e1565b5b60ff168360ff1614806102c957506002808111156102c0576102bf6104e1565b5b60ff168260ff16145b156102e8576002808111156102e1576102e06104e1565b5b905061035b565b5f60028111156102fb576102fa6104e1565b5b60ff168360ff16148061032557505f600281111561031c5761031b6104e1565b5b60ff168260ff16145b15610344575f600281111561033d5761033c6104e1565b5b905061035b565b60016002811115610358576103576104e1565b5b90505b92915050565b5f80fd5b5f60ff82169050919050565b61037a81610365565b8114610384575f80fd5b50565b5f8135905061039581610371565b92915050565b5f80604083850312156103b1576103b0610361565b5b5f6103be85828601610387565b92505060206103cf85828601610387565b9150509250929050565b6103e281610365565b82525050565b5f6020820190506103fb5f8301846103d9565b92915050565b5f82825260208201905092915050565b7f496e76616c69642061636365737320726573756c7420610000000000000000005f82015250565b5f610445601783610401565b915061045082610411565b602082019050919050565b5f6020820190508181035f83015261047281610439565b9050919050565b7f496e76616c69642061636365737320726573756c7420620000000000000000005f82015250565b5f6104ad601783610401565b91506104b882610479565b602082019050919050565b5f6020820190508181035f8301526104da816104a1565b9050919050565b7f4e487b71000000000000000000000000000000000000000000000000000000005f52602160045260245ffdfea2646970667358221220bb5d247e02adb042c2abbaa8d43ddb73549ffbd30c6bdf7f3c360cb063c29be564736f6c63430008140033","linkReferences":{}},"methodIdentifiers":{"andIf(uint8,uint8)":"0be1488f","orIf(uint8,uint8)":"92bd8e53"},"id":19}