{"abi":[{"type":"function","name":"generate","inputs":[{"name":"conceptName","type":"string","internalType":"string"},{"name":"actions","type":"bytes[]","internalType":"bytes[]"}],"outputs":[{"name":"result","type":"tuple","internalType":"struct HandlerScaffoldGen.GenerateOkResult","components":[{"name":"success","type":"bool","internalType":"bool"},{"name":"files","type":"bytes[]","internalType":"bytes[]"},{"name":"filesGenerated","type":"int256","internalType":"int256"}]}],"stateMutability":"nonpayable"},{"type":"function","name":"handlerCount","inputs":[],"outputs":[{"name":"","type":"uint256","internalType":"uint256"}],"stateMutability":"view"},{"type":"function","name":"hasHandler","inputs":[{"name":"conceptName","type":"string","internalType":"string"}],"outputs":[{"name":"","type":"bool","internalType":"bool"}],"stateMutability":"view"},{"type":"function","name":"preview","inputs":[{"name":"conceptName","type":"string","internalType":"string"},{"name":"actions","type":"bytes[]","internalType":"bytes[]"}],"outputs":[{"name":"result","type":"tuple","internalType":"struct HandlerScaffoldGen.PreviewOkResult","components":[{"name":"success","type":"bool","internalType":"bool"},{"name":"files","type":"bytes[]","internalType":"bytes[]"},{"name":"wouldWrite","type":"int256","internalType":"int256"},{"name":"wouldSkip","type":"int256","internalType":"int256"}]}],"stateMutability":"view"},{"type":"function","name":"register","inputs":[],"outputs":[{"name":"result","type":"tuple","internalType":"struct HandlerScaffoldGen.RegisterOkResult","components":[{"name":"success","type":"bool","internalType":"bool"},{"name":"name","type":"string","internalType":"string"},{"name":"inputKind","type":"string","internalType":"string"},{"name":"outputKind","type":"string","internalType":"string"},{"name":"capabilities","type":"string[]","internalType":"string[]"}]}],"stateMutability":"pure"},{"type":"event","name":"GenerateCompleted","inputs":[{"name":"variant","type":"string","indexed":false,"internalType":"string"},{"name":"files","type":"bytes[]","indexed":false,"internalType":"bytes[]"},{"name":"filesGenerated","type":"int256","indexed":false,"internalType":"int256"}],"anonymous":false},{"type":"event","name":"PreviewCompleted","inputs":[{"name":"variant","type":"string","indexed":false,"internalType":"string"},{"name":"files","type":"bytes[]","indexed":false,"internalType":"bytes[]"},{"name":"wouldWrite","type":"int256","indexed":false,"internalType":"int256"},{"name":"wouldSkip","type":"int256","indexed":false,"internalType":"int256"}],"anonymous":false},{"type":"event","name":"RegisterCompleted","inputs":[{"name":"variant","type":"string","indexed":false,"internalType":"string"},{"name":"capabilities","type":"string[]","indexed":false,"internalType":"string[]"}],"anonymous":false}],"bytecode":{"object":"0x608060405234801561000f575f80fd5b50611ba68061001d5f395ff3fe608060405234801561000f575f80fd5b5060043610610055575f3560e01c8063097dffa7146100595780631aa3a008146100775780632bac06031461009557806392ac631e146100c55780639bd67ad0146100f5575b5f80fd5b610061610125565b60405161006e9190610a4f565b60405180910390f35b61007f610131565b60405161008c9190610c4f565b60405180910390f35b6100af60048036038101906100aa9190610f2c565b610358565b6040516100bc9190611127565b60405180910390f35b6100df60048036038101906100da9190611147565b610563565b6040516100ec919061119d565b60405180910390f35b61010f600480360381019061010a9190610f2c565b6105af565b60405161011c9190611203565b60405180910390f35b5f600280549050905090565b6101396109bf565b5f600367ffffffffffffffff81111561015557610154610c88565b5b60405190808252806020026020018201604052801561018857816020015b60608152602001906001900390816101735790505b5090506040518060400160405280601081526020017f68616e646c65722d73636166666f6c6400000000000000000000000000000000815250815f815181106101d4576101d3611223565b5b60200260200101819052506040518060400160405280600c81526020017f616374696f6e2d737475627300000000000000000000000000000000000000008152508160018151811061022957610228611223565b5b60200260200101819052506040518060400160405280600c81526020017f747970652d696d706f72747300000000000000000000000000000000000000008152508160028151811061027e5761027d611223565b5b60200260200101819052506040518060a001604052806001151581526020016040518060400160405280601481526020017f68616e646c65722d73636166666f6c642d67656e00000000000000000000000081525081526020016040518060400160405280600f81526020017f636f6e636570742d616374696f6e73000000000000000000000000000000000081525081526020016040518060400160405280600e81526020017f73636166666f6c642d66696c657300000000000000000000000000000000000081525081526020018281525091505090565b6103606109ef565b5f8351116103a3576040517f08c379a000000000000000000000000000000000000000000000000000000000815260040161039a906112aa565b60405180910390fd5b5f8251116103e6576040517f08c379a00000000000000000000000000000000000000000000000000000000081526004016103dd90611312565b60405180910390fd5b5f836040516020016103f8919061136a565b6040516020818303038152906040528051906020012090505f600267ffffffffffffffff81111561042c5761042b610c88565b5b60405190808252806020026020018201604052801561045f57816020015b606081526020019060019003908161044a5790505b5090508461046d8551610866565b60405160200161047e929190611414565b604051602081830303815290604052815f815181106104a05761049f611223565b5b6020026020010181905250846104b68551610866565b6040516020016104c792919061152b565b604051602081830303815290604052816001815181106104ea576104e9611223565b5b60200260200101819052505f60015f8481526020019081526020015f205f9054906101000a900460ff1661051e575f610521565b60015b90505f816002610531919061159c565b905060405180608001604052806001151581526020018481526020018281526020018381525094505050505092915050565b5f60015f83604051602001610578919061136a565b6040516020818303038152906040528051906020012081526020019081526020015f205f9054906101000a900460ff169050919050565b6105b7610a16565b5f8351116105fa576040517f08c379a00000000000000000000000000000000000000000000000000000000081526004016105f1906112aa565b60405180910390fd5b5f82511161063d576040517f08c379a000000000000000000000000000000000000000000000000000000000815260040161063490611312565b60405180910390fd5b5f8360405160200161064f919061136a565b6040516020818303038152906040528051906020012090505f600267ffffffffffffffff81111561068357610682610c88565b5b6040519080825280602002602001820160405280156106b657816020015b60608152602001906001900390816106a15790505b509050846106c48551610866565b6040516020016106d5929190611414565b604051602081830303815290604052815f815181106106f7576106f6611223565b5b60200260200101819052508461070d8551610866565b60405160200161071e92919061152b565b6040516020818303038152906040528160018151811061074157610740611223565b5b60200260200101819052508484514260405160200161076293929190611614565b6040516020818303038152906040525f808481526020019081526020015f20908161078d919061184a565b5060015f8381526020019081526020015f205f9054906101000a900460ff166107ff576001805f8481526020019081526020015f205f6101000a81548160ff021916908315150217905550600282908060018154018082558091505060019003905f5260205f20015f90919091909150555b5f6002905060405180606001604052806001151581526020018381526020018281525093507f48bda0bee7ff8852f440265af654a83c61da2283be561d3abff07f7ae4ae9e0882826040516108559291906119f5565b60405180910390a150505092915050565b60605f82036108ac576040518060400160405280600181526020017f300000000000000000000000000000000000000000000000000000000000000081525090506109ba565b5f8290505f5b5f82146108db5780806108c490611a36565b915050600a826108d49190611aaa565b91506108b2565b5f8167ffffffffffffffff8111156108f6576108f5610c88565b5b6040519080825280601f01601f1916602001820160405280156109285781602001600182028036833780820191505090505b5090505b5f85146109b3576001826109409190611ada565b9150600a8561094f9190611b0d565b603061095b9190611b3d565b60f81b81838151811061097157610970611223565b5b60200101907effffffffffffffffffffffffffffffffffffffffffffffffffffffffffffff191690815f1a905350600a856109ac9190611aaa565b945061092c565b8093505050505b919050565b6040518060a001604052805f15158152602001606081526020016060815260200160608152602001606081525090565b60405180608001604052805f15158152602001606081526020015f81526020015f81525090565b60405180606001604052805f15158152602001606081526020015f81525090565b5f819050919050565b610a4981610a37565b82525050565b5f602082019050610a625f830184610a40565b92915050565b5f8115159050919050565b610a7c81610a68565b82525050565b5f81519050919050565b5f82825260208201905092915050565b5f5b83811015610ab9578082015181840152602081019050610a9e565b5f8484015250505050565b5f601f19601f8301169050919050565b5f610ade82610a82565b610ae88185610a8c565b9350610af8818560208601610a9c565b610b0181610ac4565b840191505092915050565b5f81519050919050565b5f82825260208201905092915050565b5f819050602082019050919050565b5f610b408383610ad4565b905092915050565b5f602082019050919050565b5f610b5e82610b0c565b610b688185610b16565b935083602082028501610b7a85610b26565b805f5b85811015610bb55784840389528151610b968582610b35565b9450610ba183610b48565b925060208a01995050600181019050610b7d565b50829750879550505050505092915050565b5f60a083015f830151610bdc5f860182610a73565b5060208301518482036020860152610bf48282610ad4565b91505060408301518482036040860152610c0e8282610ad4565b91505060608301518482036060860152610c288282610ad4565b91505060808301518482036080860152610c428282610b54565b9150508091505092915050565b5f6020820190508181035f830152610c678184610bc7565b905092915050565b5f604051905090565b5f80fd5b5f80fd5b5f80fd5b5f80fd5b7f4e487b71000000000000000000000000000000000000000000000000000000005f52604160045260245ffd5b610cbe82610ac4565b810181811067ffffffffffffffff82111715610cdd57610cdc610c88565b5b80604052505050565b5f610cef610c6f565b9050610cfb8282610cb5565b919050565b5f67ffffffffffffffff821115610d1a57610d19610c88565b5b610d2382610ac4565b9050602081019050919050565b828183375f83830152505050565b5f610d50610d4b84610d00565b610ce6565b905082815260208101848484011115610d6c57610d6b610c84565b5b610d77848285610d30565b509392505050565b5f82601f830112610d9357610d92610c80565b5b8135610da3848260208601610d3e565b91505092915050565b5f67ffffffffffffffff821115610dc657610dc5610c88565b5b602082029050602081019050919050565b5f80fd5b5f67ffffffffffffffff821115610df557610df4610c88565b5b610dfe82610ac4565b9050602081019050919050565b5f610e1d610e1884610ddb565b610ce6565b905082815260208101848484011115610e3957610e38610c84565b5b610e44848285610d30565b509392505050565b5f82601f830112610e6057610e5f610c80565b5b8135610e70848260208601610e0b565b91505092915050565b5f610e8b610e8684610dac565b610ce6565b90508083825260208201905060208402830185811115610eae57610ead610dd7565b5b835b81811015610ef557803567ffffffffffffffff811115610ed357610ed2610c80565b5b808601610ee08982610e4c565b85526020850194505050602081019050610eb0565b5050509392505050565b5f82601f830112610f1357610f12610c80565b5b8135610f23848260208601610e79565b91505092915050565b5f8060408385031215610f4257610f41610c78565b5b5f83013567ffffffffffffffff811115610f5f57610f5e610c7c565b5b610f6b85828601610d7f565b925050602083013567ffffffffffffffff811115610f8c57610f8b610c7c565b5b610f9885828601610eff565b9150509250929050565b5f81519050919050565b5f82825260208201905092915050565b5f819050602082019050919050565b5f81519050919050565b5f82825260208201905092915050565b5f610fef82610fcb565b610ff98185610fd5565b9350611009818560208601610a9c565b61101281610ac4565b840191505092915050565b5f6110288383610fe5565b905092915050565b5f602082019050919050565b5f61104682610fa2565b6110508185610fac565b93508360208202850161106285610fbc565b805f5b8581101561109d578484038952815161107e858261101d565b945061108983611030565b925060208a01995050600181019050611065565b50829750879550505050505092915050565b5f819050919050565b6110c1816110af565b82525050565b5f608083015f8301516110dc5f860182610a73565b50602083015184820360208601526110f4828261103c565b915050604083015161110960408601826110b8565b50606083015161111c60608601826110b8565b508091505092915050565b5f6020820190508181035f83015261113f81846110c7565b905092915050565b5f6020828403121561115c5761115b610c78565b5b5f82013567ffffffffffffffff81111561117957611178610c7c565b5b61118584828501610d7f565b91505092915050565b61119781610a68565b82525050565b5f6020820190506111b05f83018461118e565b92915050565b5f606083015f8301516111cb5f860182610a73565b50602083015184820360208601526111e3828261103c565b91505060408301516111f860408601826110b8565b508091505092915050565b5f6020820190508181035f83015261121b81846111b6565b905092915050565b7f4e487b71000000000000000000000000000000000000000000000000000000005f52603260045260245ffd5b5f82825260208201905092915050565b7f436f6e63657074206e616d652063616e6e6f7420626520656d707479000000005f82015250565b5f611294601c83611250565b915061129f82611260565b602082019050919050565b5f6020820190508181035f8301526112c181611288565b9050919050565b7f4174206c65617374206f6e6520616374696f6e206973207265717569726564005f82015250565b5f6112fc601f83611250565b9150611307826112c8565b602082019050919050565b5f6020820190508181035f830152611329816112f0565b9050919050565b5f81905092915050565b5f61134482610a82565b61134e8185611330565b935061135e818560208601610a9c565b80840191505092915050565b5f611375828461133a565b915081905092915050565b7f2f2f2048616e646c65722073636166666f6c643a2000000000000000000000005f82015250565b5f6113b4601583611330565b91506113bf82611380565b601582019050919050565b7f0a2f2f20416374696f6e733a20000000000000000000000000000000000000005f82015250565b5f6113fe600d83611330565b9150611409826113ca565b600d82019050919050565b5f61141e826113a8565b915061142a828561133a565b9150611435826113f2565b9150611441828461133a565b91508190509392505050565b7f2f2f2048616e646c657220746573742073636166666f6c643a200000000000005f82015250565b5f611481601a83611330565b915061148c8261144d565b601a82019050919050565b7f0a2f2f205465737420636173657320666f7220000000000000000000000000005f82015250565b5f6114cb601383611330565b91506114d682611497565b601382019050919050565b7f20616374696f6e730000000000000000000000000000000000000000000000005f82015250565b5f611515600883611330565b9150611520826114e1565b600882019050919050565b5f61153582611475565b9150611541828561133a565b915061154c826114bf565b9150611558828461133a565b915061156382611509565b91508190509392505050565b7f4e487b71000000000000000000000000000000000000000000000000000000005f52601160045260245ffd5b5f6115a6826110af565b91506115b1836110af565b925082820390508181125f8412168282135f8512151617156115d6576115d561156f565b5b92915050565b5f6115e682610a82565b6115f08185611250565b9350611600818560208601610a9c565b61160981610ac4565b840191505092915050565b5f6060820190508181035f83015261162c81866115dc565b905061163b6020830185610a40565b6116486040830184610a40565b949350505050565b7f4e487b71000000000000000000000000000000000000000000000000000000005f52602260045260245ffd5b5f600282049050600182168061169457607f821691505b6020821081036116a7576116a6611650565b5b50919050565b5f819050815f5260205f209050919050565b5f6020601f8301049050919050565b5f82821b905092915050565b5f600883026117097fffffffffffffffffffffffffffffffffffffffffffffffffffffffffffffffff826116ce565b61171386836116ce565b95508019841693508086168417925050509392505050565b5f819050919050565b5f61174e61174961174484610a37565b61172b565b610a37565b9050919050565b5f819050919050565b61176783611734565b61177b61177382611755565b8484546116da565b825550505050565b5f90565b61178f611783565b61179a81848461175e565b505050565b5b818110156117bd576117b25f82611787565b6001810190506117a0565b5050565b601f821115611802576117d3816116ad565b6117dc846116bf565b810160208510156117eb578190505b6117ff6117f7856116bf565b83018261179f565b50505b505050565b5f82821c905092915050565b5f6118225f1984600802611807565b1980831691505092915050565b5f61183a8383611813565b9150826002028217905092915050565b61185382610fcb565b67ffffffffffffffff81111561186c5761186b610c88565b5b611876825461167d565b6118818282856117c1565b5f60209050601f8311600181146118b2575f84156118a0578287015190505b6118aa858261182f565b865550611911565b601f1984166118c0866116ad565b5f5b828110156118e7578489015182556001820191506020850194506020810190506118c2565b868310156119045784890151611900601f891682611813565b8355505b6001600288020188555050505b505050505050565b7f6f6b0000000000000000000000000000000000000000000000000000000000005f82015250565b5f61194d600283611250565b915061195882611919565b602082019050919050565b5f82825260208201905092915050565b5f61197d82610fa2565b6119878185611963565b93508360208202850161199985610fbc565b805f5b858110156119d457848403895281516119b5858261101d565b94506119c083611030565b925060208a0199505060018101905061199c565b50829750879550505050505092915050565b6119ef816110af565b82525050565b5f6060820190508181035f830152611a0c81611941565b90508181036020830152611a208185611973565b9050611a2f60408301846119e6565b9392505050565b5f611a4082610a37565b91507fffffffffffffffffffffffffffffffffffffffffffffffffffffffffffffffff8203611a7257611a7161156f565b5b600182019050919050565b7f4e487b71000000000000000000000000000000000000000000000000000000005f52601260045260245ffd5b5f611ab482610a37565b9150611abf83610a37565b925082611acf57611ace611a7d565b5b828204905092915050565b5f611ae482610a37565b9150611aef83610a37565b9250828203905081811115611b0757611b0661156f565b5b92915050565b5f611b1782610a37565b9150611b2283610a37565b925082611b3257611b31611a7d565b5b828206905092915050565b5f611b4782610a37565b9150611b5283610a37565b9250828201905080821115611b6a57611b6961156f565b5b9291505056fea2646970667358221220756d5f2e2a302fc9efd6dac03d0937c557cc9eed97f84598328ad8ff1d58a36164736f6c63430008140033","linkReferences":{}},"methodIdentifiers":{"generate(string,bytes[])":"9bd67ad0","handlerCount()":"097dffa7","hasHandler(string)":"92ac631e","preview(string,bytes[])":"2bac0603","register()":"1aa3a008"},"id":24}