{"abi":[{"type":"function","name":"getSpec","inputs":[{"name":"specId","type":"bytes32","internalType":"bytes32"}],"outputs":[{"name":"","type":"tuple","internalType":"struct SpecParser.ParsedSpec","components":[{"name":"ast","type":"bytes","internalType":"bytes"},{"name":"source","type":"string","internalType":"string"},{"name":"timestamp","type":"uint256","internalType":"uint256"},{"name":"exists","type":"bool","internalType":"bool"}]}],"stateMutability":"view"},{"type":"function","name":"listSpecs","inputs":[],"outputs":[{"name":"","type":"bytes32[]","internalType":"bytes32[]"}],"stateMutability":"view"},{"type":"function","name":"parse","inputs":[{"name":"source","type":"string","internalType":"string"}],"outputs":[{"name":"result","type":"tuple","internalType":"struct SpecParser.ParseOkResult","components":[{"name":"success","type":"bool","internalType":"bool"},{"name":"spec","type":"bytes32","internalType":"bytes32"},{"name":"ast","type":"bytes","internalType":"bytes"}]}],"stateMutability":"nonpayable"},{"type":"function","name":"register","inputs":[],"outputs":[{"name":"metadata","type":"tuple","internalType":"struct SpecParser.ProviderMetadata","components":[{"name":"name","type":"string","internalType":"string"},{"name":"category","type":"string","internalType":"string"}]}],"stateMutability":"pure"},{"type":"function","name":"specExists","inputs":[{"name":"specId","type":"bytes32","internalType":"bytes32"}],"outputs":[{"name":"","type":"bool","internalType":"bool"}],"stateMutability":"view"},{"type":"event","name":"ParseCompleted","inputs":[{"name":"variant","type":"string","indexed":false,"internalType":"string"},{"name":"spec","type":"bytes32","indexed":false,"internalType":"bytes32"},{"name":"ast","type":"bytes","indexed":false,"internalType":"bytes"},{"name":"line","type":"int256","indexed":false,"internalType":"int256"}],"anonymous":false}],"bytecode":{"object":"0x608060405234801561000f575f80fd5b506112be8061001d5f395ff3fe608060405234801561000f575f80fd5b5060043610610055575f3560e01c80631aa3a008146100595780631f87a3b5146100775780636b16dbb0146100a7578063bc62d8d8146100c5578063c7509a04146100f5575b5f80fd5b610061610125565b60405161006e9190610762565b60405180910390f35b610091600480360381019061008c91906107bd565b6101b1565b60405161009e91906108d3565b60405180910390f35b6100af61037d565b6040516100bc91906109aa565b60405180910390f35b6100df60048036038101906100da9190610a2b565b6103d3565b6040516100ec9190610ac3565b60405180910390f35b61010f600480360381019061010a91906107bd565b610609565b60405161011c9190610af2565b60405180910390f35b61012d610631565b60405180604001604052806040518060400160405280600b81526020017f737065632d70617273657200000000000000000000000000000000000000000081525081526020016040518060400160405280600681526020017f7061727365720000000000000000000000000000000000000000000000000000815250815250905090565b6101b961064b565b5f808381526020019081526020015f206003015f9054906101000a900460ff16610218576040517f08c379a000000000000000000000000000000000000000000000000000000000815260040161020f90610b65565b60405180910390fd5b5f808381526020019081526020015f206040518060800160405290815f8201805461024290610bb0565b80601f016020809104026020016040519081016040528092919081815260200182805461026e90610bb0565b80156102b95780601f10610290576101008083540402835291602001916102b9565b820191905f5260205f20905b81548152906001019060200180831161029c57829003601f168201915b505050505081526020016001820180546102d290610bb0565b80601f01602080910402602001604051908101604052809291908181526020018280546102fe90610bb0565b80156103495780601f1061032057610100808354040283529160200191610349565b820191905f5260205f20905b81548152906001019060200180831161032c57829003601f168201915b5050505050815260200160028201548152602001600382015f9054906101000a900460ff1615151515815250509050919050565b606060018054806020026020016040519081016040528092919081815260200182805480156103c957602002820191905f5260205f20905b8154815260200190600101908083116103b5575b5050505050905090565b6103db610673565b5f8383905011610420576040517f08c379a000000000000000000000000000000000000000000000000000000000815260040161041790610c2a565b60405180910390fd5b5f83834260025460405160200161043a9493929190610ca4565b60405160208183030381529060405280519060200120905060025f81548092919061046490610d0b565b91905055505f81858590504260405160200161048293929190610d70565b6040516020818303038152906040529050604051806080016040528082815260200186868080601f0160208091040260200160405190810160405280939291908181526020018383808284375f81840152601f19601f820116905080830192505050505050508152602001428152602001600115158152505f808481526020019081526020015f205f820151815f01908161051d9190610f6f565b5060208201518160010190816105339190611096565b50604082015181600201556060820151816003015f6101000a81548160ff021916908315150217905550905050600182908060018154018082558091505060019003905f5260205f20015f909190919091505560405180606001604052806001151581526020018381526020018281525092507f6bb26c9dc13951c7891cc511bfae9c506673b50169026fc77d4f1f936834f8ce82827fffffffffffffffffffffffffffffffffffffffffffffffffffffffffffffffff6040516105f993929190611239565b60405180910390a1505092915050565b5f805f8381526020019081526020015f206003015f9054906101000a900460ff169050919050565b604051806040016040528060608152602001606081525090565b604051806080016040528060608152602001606081526020015f81526020015f151581525090565b60405180606001604052805f151581526020015f8019168152602001606081525090565b5f81519050919050565b5f82825260208201905092915050565b5f5b838110156106ce5780820151818401526020810190506106b3565b5f8484015250505050565b5f601f19601f8301169050919050565b5f6106f382610697565b6106fd81856106a1565b935061070d8185602086016106b1565b610716816106d9565b840191505092915050565b5f604083015f8301518482035f86015261073b82826106e9565b9150506020830151848203602086015261075582826106e9565b9150508091505092915050565b5f6020820190508181035f83015261077a8184610721565b905092915050565b5f80fd5b5f80fd5b5f819050919050565b61079c8161078a565b81146107a6575f80fd5b50565b5f813590506107b781610793565b92915050565b5f602082840312156107d2576107d1610782565b5b5f6107df848285016107a9565b91505092915050565b5f81519050919050565b5f82825260208201905092915050565b5f61080c826107e8565b61081681856107f2565b93506108268185602086016106b1565b61082f816106d9565b840191505092915050565b5f819050919050565b61084c8161083a565b82525050565b5f8115159050919050565b61086681610852565b82525050565b5f608083015f8301518482035f8601526108868282610802565b915050602083015184820360208601526108a082826106e9565b91505060408301516108b56040860182610843565b5060608301516108c8606086018261085d565b508091505092915050565b5f6020820190508181035f8301526108eb818461086c565b905092915050565b5f81519050919050565b5f82825260208201905092915050565b5f819050602082019050919050565b6109258161078a565b82525050565b5f610936838361091c565b60208301905092915050565b5f602082019050919050565b5f610958826108f3565b61096281856108fd565b935061096d8361090d565b805f5b8381101561099d578151610984888261092b565b975061098f83610942565b925050600181019050610970565b5085935050505092915050565b5f6020820190508181035f8301526109c2818461094e565b905092915050565b5f80fd5b5f80fd5b5f80fd5b5f8083601f8401126109eb576109ea6109ca565b5b8235905067ffffffffffffffff811115610a0857610a076109ce565b5b602083019150836001820283011115610a2457610a236109d2565b5b9250929050565b5f8060208385031215610a4157610a40610782565b5b5f83013567ffffffffffffffff811115610a5e57610a5d610786565b5b610a6a858286016109d6565b92509250509250929050565b5f606083015f830151610a8b5f86018261085d565b506020830151610a9e602086018261091c565b5060408301518482036040860152610ab68282610802565b9150508091505092915050565b5f6020820190508181035f830152610adb8184610a76565b905092915050565b610aec81610852565b82525050565b5f602082019050610b055f830184610ae3565b92915050565b5f82825260208201905092915050565b7f53706563206e6f7420666f756e640000000000000000000000000000000000005f82015250565b5f610b4f600e83610b0b565b9150610b5a82610b1b565b602082019050919050565b5f6020820190508181035f830152610b7c81610b43565b9050919050565b7f4e487b71000000000000000000000000000000000000000000000000000000005f52602260045260245ffd5b5f6002820490506001821680610bc757607f821691505b602082108103610bda57610bd9610b83565b5b50919050565b7f536f757263652063616e6e6f7420626520656d707479000000000000000000005f82015250565b5f610c14601683610b0b565b9150610c1f82610be0565b602082019050919050565b5f6020820190508181035f830152610c4181610c08565b9050919050565b5f81905092915050565b828183375f83830152505050565b5f610c6b8385610c48565b9350610c78838584610c52565b82840190509392505050565b5f819050919050565b610c9e610c998261083a565b610c84565b82525050565b5f610cb0828688610c60565b9150610cbc8285610c8d565b602082019150610ccc8284610c8d565b60208201915081905095945050505050565b7f4e487b71000000000000000000000000000000000000000000000000000000005f52601160045260245ffd5b5f610d158261083a565b91507fffffffffffffffffffffffffffffffffffffffffffffffffffffffffffffffff8203610d4757610d46610cde565b5b600182019050919050565b610d5b8161078a565b82525050565b610d6a8161083a565b82525050565b5f606082019050610d835f830186610d52565b610d906020830185610d61565b610d9d6040830184610d61565b949350505050565b7f4e487b71000000000000000000000000000000000000000000000000000000005f52604160045260245ffd5b5f819050815f5260205f209050919050565b5f6020601f8301049050919050565b5f82821b905092915050565b5f60088302610e2e7fffffffffffffffffffffffffffffffffffffffffffffffffffffffffffffffff82610df3565b610e388683610df3565b95508019841693508086168417925050509392505050565b5f819050919050565b5f610e73610e6e610e698461083a565b610e50565b61083a565b9050919050565b5f819050919050565b610e8c83610e59565b610ea0610e9882610e7a565b848454610dff565b825550505050565b5f90565b610eb4610ea8565b610ebf818484610e83565b505050565b5b81811015610ee257610ed75f82610eac565b600181019050610ec5565b5050565b601f821115610f2757610ef881610dd2565b610f0184610de4565b81016020851015610f10578190505b610f24610f1c85610de4565b830182610ec4565b50505b505050565b5f82821c905092915050565b5f610f475f1984600802610f2c565b1980831691505092915050565b5f610f5f8383610f38565b9150826002028217905092915050565b610f78826107e8565b67ffffffffffffffff811115610f9157610f90610da5565b5b610f9b8254610bb0565b610fa6828285610ee6565b5f60209050601f831160018114610fd7575f8415610fc5578287015190505b610fcf8582610f54565b865550611036565b601f198416610fe586610dd2565b5f5b8281101561100c57848901518255600182019150602085019450602081019050610fe7565b868310156110295784890151611025601f891682610f38565b8355505b6001600288020188555050505b505050505050565b5f819050815f5260205f209050919050565b601f821115611091576110628161103e565b61106b84610de4565b8101602085101561107a578190505b61108e61108685610de4565b830182610ec4565b50505b505050565b61109f82610697565b67ffffffffffffffff8111156110b8576110b7610da5565b5b6110c28254610bb0565b6110cd828285611050565b5f60209050601f8311600181146110fe575f84156110ec578287015190505b6110f68582610f54565b86555061115d565b601f19841661110c8661103e565b5f5b828110156111335784890151825560018201915060208501945060208101905061110e565b86831015611150578489015161114c601f891682610f38565b8355505b6001600288020188555050505b505050505050565b7f6f6b0000000000000000000000000000000000000000000000000000000000005f82015250565b5f611199600283610b0b565b91506111a482611165565b602082019050919050565b5f82825260208201905092915050565b5f6111c9826107e8565b6111d381856111af565b93506111e38185602086016106b1565b6111ec816106d9565b840191505092915050565b5f819050919050565b5f819050919050565b5f61122361121e611219846111f7565b610e50565b611200565b9050919050565b61123381611209565b82525050565b5f6080820190508181035f8301526112508161118d565b905061125f6020830186610d52565b818103604083015261127181856111bf565b9050611280606083018461122a565b94935050505056fea264697066735822122050e7bee6cb81043279a1e58f10bbf7253d53b62be8029d0fe73e6c21e585566f64736f6c63430008140033","linkReferences":{}},"methodIdentifiers":{"getSpec(bytes32)":"1f87a3b5","listSpecs()":"6b16dbb0","parse(string)":"bc62d8d8","register()":"1aa3a008","specExists(bytes32)":"c7509a04"},"id":252}