{"abi":[{"type":"function","name":"addMember","inputs":[{"name":"collectionId","type":"bytes32","internalType":"bytes32"},{"name":"nodeId","type":"bytes32","internalType":"bytes32"}],"outputs":[],"stateMutability":"nonpayable"},{"type":"function","name":"create","inputs":[{"name":"collectionId","type":"bytes32","internalType":"bytes32"},{"name":"name","type":"string","internalType":"string"},{"name":"collectionType","type":"string","internalType":"string"},{"name":"schemaId","type":"bytes32","internalType":"bytes32"}],"outputs":[],"stateMutability":"nonpayable"},{"type":"function","name":"getCollection","inputs":[{"name":"collectionId","type":"bytes32","internalType":"bytes32"}],"outputs":[{"name":"","type":"tuple","internalType":"struct Collection.CollectionData","components":[{"name":"name","type":"string","internalType":"string"},{"name":"collectionType","type":"string","internalType":"string"},{"name":"schemaId","type":"bytes32","internalType":"bytes32"},{"name":"exists","type":"bool","internalType":"bool"}]}],"stateMutability":"view"},{"type":"function","name":"getMembers","inputs":[{"name":"collectionId","type":"bytes32","internalType":"bytes32"}],"outputs":[{"name":"","type":"bytes32[]","internalType":"bytes32[]"}],"stateMutability":"view"},{"type":"function","name":"isMember","inputs":[{"name":"collectionId","type":"bytes32","internalType":"bytes32"},{"name":"nodeId","type":"bytes32","internalType":"bytes32"}],"outputs":[{"name":"","type":"bool","internalType":"bool"}],"stateMutability":"view"},{"type":"function","name":"removeMember","inputs":[{"name":"collectionId","type":"bytes32","internalType":"bytes32"},{"name":"nodeId","type":"bytes32","internalType":"bytes32"}],"outputs":[],"stateMutability":"nonpayable"},{"type":"event","name":"CollectionCreated","inputs":[{"name":"collectionId","type":"bytes32","indexed":true,"internalType":"bytes32"}],"anonymous":false},{"type":"event","name":"MemberAdded","inputs":[{"name":"collectionId","type":"bytes32","indexed":true,"internalType":"bytes32"},{"name":"nodeId","type":"bytes32","indexed":true,"internalType":"bytes32"}],"anonymous":false},{"type":"event","name":"MemberRemoved","inputs":[{"name":"collectionId","type":"bytes32","indexed":true,"internalType":"bytes32"},{"name":"nodeId","type":"bytes32","indexed":true,"internalType":"bytes32"}],"anonymous":false}],"bytecode":{"object":"0x608060405234801561000f575f80fd5b506113b18061001d5f395ff3fe608060405234801561000f575f80fd5b5060043610610060575f3560e01c806325ea5ddd1461006457806339b10a95146100805780633cf09d03146100b05780637b641fbc146100cc578063bb6b6464146100fc578063d9439d4314610118575b5f80fd5b61007e600480360381019061007991906109cc565b610148565b005b61009a60048036038101906100959190610a0a565b610349565b6040516100a79190610b4f565b60405180910390f35b6100ca60048036038101906100c591906109cc565b610515565b005b6100e660048036038101906100e19190610a0a565b610680565b6040516100f39190610c17565b60405180910390f35b61011660048036038101906101119190610c98565b610746565b005b610132600480360381019061012d91906109cc565b610930565b60405161013f9190610d4a565b60405180910390f35b5f808381526020019081526020015f206003015f9054906101000a900460ff166101a7576040517f08c379a000000000000000000000000000000000000000000000000000000000815260040161019e90610dbd565b60405180910390fd5b60025f8381526020019081526020015f205f8281526020019081526020015f205f9054906101000a900460ff16610213576040517f08c379a000000000000000000000000000000000000000000000000000000000815260040161020a90610e25565b60405180910390fd5b5f60025f8481526020019081526020015f205f8381526020019081526020015f205f6101000a81548160ff0219169083151502179055505f60015f8481526020019081526020015f2090505f5b818054905081101561031557828282815481106102805761027f610e43565b5b905f5260205f200154036103025781600183805490506102a09190610ea6565b815481106102b1576102b0610e43565b5b905f5260205f2001548282815481106102cd576102cc610e43565b5b905f5260205f200181905550818054806102ea576102e9610ed9565b5b600190038181905f5260205f20015f90559055610315565b808061030d90610f06565b915050610260565b5081837f5e1bbc350cca725d5c4327d444ebef10edb145adb608d750057eb98b090854c560405160405180910390a3505050565b610351610966565b5f808381526020019081526020015f206003015f9054906101000a900460ff166103b0576040517f08c379a00000000000000000000000000000000000000000000000000000000081526004016103a790610dbd565b60405180910390fd5b5f808381526020019081526020015f206040518060800160405290815f820180546103da90610f7a565b80601f016020809104026020016040519081016040528092919081815260200182805461040690610f7a565b80156104515780601f1061042857610100808354040283529160200191610451565b820191905f5260205f20905b81548152906001019060200180831161043457829003601f168201915b5050505050815260200160018201805461046a90610f7a565b80601f016020809104026020016040519081016040528092919081815260200182805461049690610f7a565b80156104e15780601f106104b8576101008083540402835291602001916104e1565b820191905f5260205f20905b8154815290600101906020018083116104c457829003601f168201915b5050505050815260200160028201548152602001600382015f9054906101000a900460ff1615151515815250509050919050565b5f808381526020019081526020015f206003015f9054906101000a900460ff16610574576040517f08c379a000000000000000000000000000000000000000000000000000000000815260040161056b90610dbd565b60405180910390fd5b60025f8381526020019081526020015f205f8281526020019081526020015f205f9054906101000a900460ff16156105e1576040517f08c379a00000000000000000000000000000000000000000000000000000000081526004016105d890610ff4565b60405180910390fd5b60015f8381526020019081526020015f2081908060018154018082558091505060019003905f5260205f20015f9091909190915055600160025f8481526020019081526020015f205f8381526020019081526020015f205f6101000a81548160ff02191690831515021790555080827f95f2c6778a97783858e2e08e96dd2f7a1d01c70f5a6375579c7aa7640d8aedc560405160405180910390a35050565b60605f808381526020019081526020015f206003015f9054906101000a900460ff166106e1576040517f08c379a00000000000000000000000000000000000000000000000000000000081526004016106d890610dbd565b60405180910390fd5b60015f8381526020019081526020015f2080548060200260200160405190810160405280929190818152602001828054801561073a57602002820191905f5260205f20905b815481526020019060010190808311610726575b50505050509050919050565b5f808781526020019081526020015f206003015f9054906101000a900460ff16156107a6576040517f08c379a000000000000000000000000000000000000000000000000000000000815260040161079d9061105c565b60405180910390fd5b5f85859050116107eb576040517f08c379a00000000000000000000000000000000000000000000000000000000081526004016107e2906110c4565b60405180910390fd5b604051806080016040528086868080601f0160208091040260200160405190810160405280939291908181526020018383808284375f81840152601f19601f82011690508083019250505050505050815260200184848080601f0160208091040260200160405190810160405280939291908181526020018383808284375f81840152601f19601f820116905080830192505050505050508152602001828152602001600115158152505f808881526020019081526020015f205f820151815f0190816108b891906112ac565b5060208201518160010190816108ce91906112ac565b50604082015181600201556060820151816003015f6101000a81548160ff021916908315150217905550905050857fd659a21df7167138e9cd21e20ecef29e48157209e103dd6b7da3075a670187f360405160405180910390a2505050505050565b5f60025f8481526020019081526020015f205f8381526020019081526020015f205f9054906101000a900460ff16905092915050565b604051806080016040528060608152602001606081526020015f80191681526020015f151581525090565b5f80fd5b5f80fd5b5f819050919050565b6109ab81610999565b81146109b5575f80fd5b50565b5f813590506109c6816109a2565b92915050565b5f80604083850312156109e2576109e1610991565b5b5f6109ef858286016109b8565b9250506020610a00858286016109b8565b9150509250929050565b5f60208284031215610a1f57610a1e610991565b5b5f610a2c848285016109b8565b91505092915050565b5f81519050919050565b5f82825260208201905092915050565b5f5b83811015610a6c578082015181840152602081019050610a51565b5f8484015250505050565b5f601f19601f8301169050919050565b5f610a9182610a35565b610a9b8185610a3f565b9350610aab818560208601610a4f565b610ab481610a77565b840191505092915050565b610ac881610999565b82525050565b5f8115159050919050565b610ae281610ace565b82525050565b5f608083015f8301518482035f860152610b028282610a87565b91505060208301518482036020860152610b1c8282610a87565b9150506040830151610b316040860182610abf565b506060830151610b446060860182610ad9565b508091505092915050565b5f6020820190508181035f830152610b678184610ae8565b905092915050565b5f81519050919050565b5f82825260208201905092915050565b5f819050602082019050919050565b5f610ba38383610abf565b60208301905092915050565b5f602082019050919050565b5f610bc582610b6f565b610bcf8185610b79565b9350610bda83610b89565b805f5b83811015610c0a578151610bf18882610b98565b9750610bfc83610baf565b925050600181019050610bdd565b5085935050505092915050565b5f6020820190508181035f830152610c2f8184610bbb565b905092915050565b5f80fd5b5f80fd5b5f80fd5b5f8083601f840112610c5857610c57610c37565b5b8235905067ffffffffffffffff811115610c7557610c74610c3b565b5b602083019150836001820283011115610c9157610c90610c3f565b5b9250929050565b5f805f805f8060808789031215610cb257610cb1610991565b5b5f610cbf89828a016109b8565b965050602087013567ffffffffffffffff811115610ce057610cdf610995565b5b610cec89828a01610c43565b9550955050604087013567ffffffffffffffff811115610d0f57610d0e610995565b5b610d1b89828a01610c43565b93509350506060610d2e89828a016109b8565b9150509295509295509295565b610d4481610ace565b82525050565b5f602082019050610d5d5f830184610d3b565b92915050565b5f82825260208201905092915050565b7f436f6c6c656374696f6e20646f6573206e6f74206578697374000000000000005f82015250565b5f610da7601983610d63565b9150610db282610d73565b602082019050919050565b5f6020820190508181035f830152610dd481610d9b565b9050919050565b7f4e6f742061206d656d62657200000000000000000000000000000000000000005f82015250565b5f610e0f600c83610d63565b9150610e1a82610ddb565b602082019050919050565b5f6020820190508181035f830152610e3c81610e03565b9050919050565b7f4e487b71000000000000000000000000000000000000000000000000000000005f52603260045260245ffd5b5f819050919050565b7f4e487b71000000000000000000000000000000000000000000000000000000005f52601160045260245ffd5b5f610eb082610e70565b9150610ebb83610e70565b9250828203905081811115610ed357610ed2610e79565b5b92915050565b7f4e487b71000000000000000000000000000000000000000000000000000000005f52603160045260245ffd5b5f610f1082610e70565b91507fffffffffffffffffffffffffffffffffffffffffffffffffffffffffffffffff8203610f4257610f41610e79565b5b600182019050919050565b7f4e487b71000000000000000000000000000000000000000000000000000000005f52602260045260245ffd5b5f6002820490506001821680610f9157607f821691505b602082108103610fa457610fa3610f4d565b5b50919050565b7f416c72656164792061206d656d626572000000000000000000000000000000005f82015250565b5f610fde601083610d63565b9150610fe982610faa565b602082019050919050565b5f6020820190508181035f83015261100b81610fd2565b9050919050565b7f436f6c6c656374696f6e20616c726561647920657869737473000000000000005f82015250565b5f611046601983610d63565b915061105182611012565b602082019050919050565b5f6020820190508181035f8301526110738161103a565b9050919050565b7f4e616d652063616e6e6f7420626520656d7074790000000000000000000000005f82015250565b5f6110ae601483610d63565b91506110b98261107a565b602082019050919050565b5f6020820190508181035f8301526110db816110a2565b9050919050565b7f4e487b71000000000000000000000000000000000000000000000000000000005f52604160045260245ffd5b5f819050815f5260205f209050919050565b5f6020601f8301049050919050565b5f82821b905092915050565b5f6008830261116b7fffffffffffffffffffffffffffffffffffffffffffffffffffffffffffffffff82611130565b6111758683611130565b95508019841693508086168417925050509392505050565b5f819050919050565b5f6111b06111ab6111a684610e70565b61118d565b610e70565b9050919050565b5f819050919050565b6111c983611196565b6111dd6111d5826111b7565b84845461113c565b825550505050565b5f90565b6111f16111e5565b6111fc8184846111c0565b505050565b5b8181101561121f576112145f826111e9565b600181019050611202565b5050565b601f821115611264576112358161110f565b61123e84611121565b8101602085101561124d578190505b61126161125985611121565b830182611201565b50505b505050565b5f82821c905092915050565b5f6112845f1984600802611269565b1980831691505092915050565b5f61129c8383611275565b9150826002028217905092915050565b6112b582610a35565b67ffffffffffffffff8111156112ce576112cd6110e2565b5b6112d88254610f7a565b6112e3828285611223565b5f60209050601f831160018114611314575f8415611302578287015190505b61130c8582611291565b865550611373565b601f1984166113228661110f565b5f5b8281101561134957848901518255600182019150602085019450602081019050611324565b868310156113665784890151611362601f891682611275565b8355505b6001600288020188555050505b50505050505056fea2646970667358221220f8b83a9321224a9b5b2d36c0b062d282d4cadbbd3f3f084b75ebb238d701c65664736f6c63430008140033","linkReferences":{}},"methodIdentifiers":{"addMember(bytes32,bytes32)":"3cf09d03","create(bytes32,string,string,bytes32)":"bb6b6464","getCollection(bytes32)":"39b10a95","getMembers(bytes32)":"7b641fbc","isMember(bytes32,bytes32)":"d9439d43","removeMember(bytes32,bytes32)":"25ea5ddd"},"id":63}