{"abi":[{"type":"function","name":"configureFieldDisplay","inputs":[{"name":"schemaId","type":"bytes32","internalType":"bytes32"},{"name":"modeId","type":"bytes32","internalType":"bytes32"},{"name":"fieldId","type":"bytes32","internalType":"bytes32"},{"name":"formatter","type":"string","internalType":"string"},{"name":"settings","type":"string","internalType":"string"}],"outputs":[],"stateMutability":"nonpayable"},{"type":"function","name":"defineMode","inputs":[{"name":"modeId","type":"bytes32","internalType":"bytes32"},{"name":"name","type":"string","internalType":"string"},{"name":"modeType","type":"string","internalType":"string"}],"outputs":[],"stateMutability":"nonpayable"},{"type":"function","name":"getFieldConfig","inputs":[{"name":"schemaId","type":"bytes32","internalType":"bytes32"},{"name":"modeId","type":"bytes32","internalType":"bytes32"},{"name":"fieldId","type":"bytes32","internalType":"bytes32"}],"outputs":[{"name":"","type":"tuple","internalType":"struct DisplayMode.FieldDisplayConfig","components":[{"name":"formatter","type":"string","internalType":"string"},{"name":"settings","type":"string","internalType":"string"},{"name":"exists","type":"bool","internalType":"bool"}]}],"stateMutability":"view"},{"type":"function","name":"getMode","inputs":[{"name":"modeId","type":"bytes32","internalType":"bytes32"}],"outputs":[{"name":"","type":"tuple","internalType":"struct DisplayMode.Mode","components":[{"name":"name","type":"string","internalType":"string"},{"name":"modeType","type":"string","internalType":"string"},{"name":"exists","type":"bool","internalType":"bool"}]}],"stateMutability":"view"},{"type":"event","name":"FieldConfigured","inputs":[{"name":"schemaId","type":"bytes32","indexed":true,"internalType":"bytes32"},{"name":"modeId","type":"bytes32","indexed":true,"internalType":"bytes32"},{"name":"fieldId","type":"bytes32","indexed":false,"internalType":"bytes32"}],"anonymous":false},{"type":"event","name":"ModeDefined","inputs":[{"name":"modeId","type":"bytes32","indexed":true,"internalType":"bytes32"},{"name":"name","type":"string","indexed":false,"internalType":"string"}],"anonymous":false}],"bytecode":{"object":"0x608060405234801561000f575f80fd5b506111028061001d5f395ff3fe608060405234801561000f575f80fd5b506004361061004a575f3560e01c8063039854261461004e5780633bcdd9531461007e578063b271f9c7146100ae578063ebe7efb5146100ca575b5f80fd5b61006860048036038101906100639190610851565b6100e6565b6040516100759190610974565b60405180910390f35b61009860048036038101906100939190610994565b6102a8565b6040516100a59190610a38565b60405180910390f35b6100c860048036038101906100c39190610ab9565b61042c565b005b6100e460048036038101906100df9190610b4a565b610612565b005b6100ee6107d2565b5f808381526020019081526020015f206002015f9054906101000a900460ff1661014d576040517f08c379a000000000000000000000000000000000000000000000000000000000815260040161014490610c5b565b60405180910390fd5b5f808381526020019081526020015f206040518060600160405290815f8201805461017790610ca6565b80601f01602080910402602001604051908101604052809291908181526020018280546101a390610ca6565b80156101ee5780601f106101c5576101008083540402835291602001916101ee565b820191905f5260205f20905b8154815290600101906020018083116101d157829003601f168201915b5050505050815260200160018201805461020790610ca6565b80601f016020809104026020016040519081016040528092919081815260200182805461023390610ca6565b801561027e5780601f106102555761010080835404028352916020019161027e565b820191905f5260205f20905b81548152906001019060200180831161026157829003601f168201915b50505050508152602001600282015f9054906101000a900460ff1615151515815250509050919050565b6102b06107f4565b60015f8581526020019081526020015f205f8481526020019081526020015f205f8381526020019081526020015f206040518060600160405290815f820180546102f990610ca6565b80601f016020809104026020016040519081016040528092919081815260200182805461032590610ca6565b80156103705780601f1061034757610100808354040283529160200191610370565b820191905f5260205f20905b81548152906001019060200180831161035357829003601f168201915b5050505050815260200160018201805461038990610ca6565b80601f01602080910402602001604051908101604052809291908181526020018280546103b590610ca6565b80156104005780601f106103d757610100808354040283529160200191610400565b820191905f5260205f20905b8154815290600101906020018083116103e357829003601f168201915b50505050508152602001600282015f9054906101000a900460ff16151515158152505090509392505050565b5f808681526020019081526020015f206002015f9054906101000a900460ff161561048c576040517f08c379a000000000000000000000000000000000000000000000000000000000815260040161048390610d20565b60405180910390fd5b5f84849050116104d1576040517f08c379a00000000000000000000000000000000000000000000000000000000081526004016104c890610d88565b60405180910390fd5b604051806060016040528085858080601f0160208091040260200160405190810160405280939291908181526020018383808284375f81840152601f19601f82011690508083019250505050505050815260200183838080601f0160208091040260200160405190810160405280939291908181526020018383808284375f81840152601f19601f820116905080830192505050505050508152602001600115158152505f808781526020019081526020015f205f820151815f0190816105989190610f79565b5060208201518160010190816105ae9190610f79565b506040820151816002015f6101000a81548160ff021916908315150217905550905050847f12eec4554aa3664e7d9a8bc3c375cdcd0293ba07131d8a957789d7bd4183b17e8585604051610603929190611082565b60405180910390a25050505050565b5f808781526020019081526020015f206002015f9054906101000a900460ff16610671576040517f08c379a000000000000000000000000000000000000000000000000000000000815260040161066890610c5b565b60405180910390fd5b604051806060016040528085858080601f0160208091040260200160405190810160405280939291908181526020018383808284375f81840152601f19601f82011690508083019250505050505050815260200183838080601f0160208091040260200160405190810160405280939291908181526020018383808284375f81840152601f19601f8201169050808301925050505050505081526020016001151581525060015f8981526020019081526020015f205f8881526020019081526020015f205f8781526020019081526020015f205f820151815f0190816107579190610f79565b50602082015181600101908161076d9190610f79565b506040820151816002015f6101000a81548160ff02191690831515021790555090505085877ff92efd01aebb4e61c4d90afdbaf1eabbcca8aba51456ab72266e8a3645c118a5876040516107c191906110b3565b60405180910390a350505050505050565b604051806060016040528060608152602001606081526020015f151581525090565b604051806060016040528060608152602001606081526020015f151581525090565b5f80fd5b5f80fd5b5f819050919050565b6108308161081e565b811461083a575f80fd5b50565b5f8135905061084b81610827565b92915050565b5f6020828403121561086657610865610816565b5b5f6108738482850161083d565b91505092915050565b5f81519050919050565b5f82825260208201905092915050565b5f5b838110156108b3578082015181840152602081019050610898565b5f8484015250505050565b5f601f19601f8301169050919050565b5f6108d88261087c565b6108e28185610886565b93506108f2818560208601610896565b6108fb816108be565b840191505092915050565b5f8115159050919050565b61091a81610906565b82525050565b5f606083015f8301518482035f86015261093a82826108ce565b9150506020830151848203602086015261095482826108ce565b91505060408301516109696040860182610911565b508091505092915050565b5f6020820190508181035f83015261098c8184610920565b905092915050565b5f805f606084860312156109ab576109aa610816565b5b5f6109b88682870161083d565b93505060206109c98682870161083d565b92505060406109da8682870161083d565b9150509250925092565b5f606083015f8301518482035f8601526109fe82826108ce565b91505060208301518482036020860152610a1882826108ce565b9150506040830151610a2d6040860182610911565b508091505092915050565b5f6020820190508181035f830152610a5081846109e4565b905092915050565b5f80fd5b5f80fd5b5f80fd5b5f8083601f840112610a7957610a78610a58565b5b8235905067ffffffffffffffff811115610a9657610a95610a5c565b5b602083019150836001820283011115610ab257610ab1610a60565b5b9250929050565b5f805f805f60608688031215610ad257610ad1610816565b5b5f610adf8882890161083d565b955050602086013567ffffffffffffffff811115610b0057610aff61081a565b5b610b0c88828901610a64565b9450945050604086013567ffffffffffffffff811115610b2f57610b2e61081a565b5b610b3b88828901610a64565b92509250509295509295909350565b5f805f805f805f60a0888a031215610b6557610b64610816565b5b5f610b728a828b0161083d565b9750506020610b838a828b0161083d565b9650506040610b948a828b0161083d565b955050606088013567ffffffffffffffff811115610bb557610bb461081a565b5b610bc18a828b01610a64565b9450945050608088013567ffffffffffffffff811115610be457610be361081a565b5b610bf08a828b01610a64565b925092505092959891949750929550565b5f82825260208201905092915050565b7f4d6f646520646f6573206e6f74206578697374000000000000000000000000005f82015250565b5f610c45601383610c01565b9150610c5082610c11565b602082019050919050565b5f6020820190508181035f830152610c7281610c39565b9050919050565b7f4e487b71000000000000000000000000000000000000000000000000000000005f52602260045260245ffd5b5f6002820490506001821680610cbd57607f821691505b602082108103610cd057610ccf610c79565b5b50919050565b7f4d6f646520616c726561647920657869737473000000000000000000000000005f82015250565b5f610d0a601383610c01565b9150610d1582610cd6565b602082019050919050565b5f6020820190508181035f830152610d3781610cfe565b9050919050565b7f4e616d652063616e6e6f7420626520656d7074790000000000000000000000005f82015250565b5f610d72601483610c01565b9150610d7d82610d3e565b602082019050919050565b5f6020820190508181035f830152610d9f81610d66565b9050919050565b7f4e487b71000000000000000000000000000000000000000000000000000000005f52604160045260245ffd5b5f819050815f5260205f209050919050565b5f6020601f8301049050919050565b5f82821b905092915050565b5f60088302610e2f7fffffffffffffffffffffffffffffffffffffffffffffffffffffffffffffffff82610df4565b610e398683610df4565b95508019841693508086168417925050509392505050565b5f819050919050565b5f819050919050565b5f610e7d610e78610e7384610e51565b610e5a565b610e51565b9050919050565b5f819050919050565b610e9683610e63565b610eaa610ea282610e84565b848454610e00565b825550505050565b5f90565b610ebe610eb2565b610ec9818484610e8d565b505050565b5b81811015610eec57610ee15f82610eb6565b600181019050610ecf565b5050565b601f821115610f3157610f0281610dd3565b610f0b84610de5565b81016020851015610f1a578190505b610f2e610f2685610de5565b830182610ece565b50505b505050565b5f82821c905092915050565b5f610f515f1984600802610f36565b1980831691505092915050565b5f610f698383610f42565b9150826002028217905092915050565b610f828261087c565b67ffffffffffffffff811115610f9b57610f9a610da6565b5b610fa58254610ca6565b610fb0828285610ef0565b5f60209050601f831160018114610fe1575f8415610fcf578287015190505b610fd98582610f5e565b865550611040565b601f198416610fef86610dd3565b5f5b8281101561101657848901518255600182019150602085019450602081019050610ff1565b86831015611033578489015161102f601f891682610f42565b8355505b6001600288020188555050505b505050505050565b828183375f83830152505050565b5f6110618385610c01565b935061106e838584611048565b611077836108be565b840190509392505050565b5f6020820190508181035f83015261109b818486611056565b90509392505050565b6110ad8161081e565b82525050565b5f6020820190506110c65f8301846110a4565b9291505056fea2646970667358221220c769e8a41e5bc6f3584f8914958e63a6f0a431360993ea695b7e2cffe39f98cd64736f6c63430008140033","linkReferences":{}},"methodIdentifiers":{"configureFieldDisplay(bytes32,bytes32,bytes32,string,string)":"ebe7efb5","defineMode(bytes32,string,string)":"b271f9c7","getFieldConfig(bytes32,bytes32,bytes32)":"3bcdd953","getMode(bytes32)":"03985426"},"id":101}