{"abi":[{"type":"function","name":"breakLock","inputs":[{"name":"lockId","type":"bytes32","internalType":"bytes32"},{"name":"breaker","type":"bytes32","internalType":"bytes32"},{"name":"reason","type":"string","internalType":"string"}],"outputs":[{"name":"previousHolder","type":"bytes32","internalType":"bytes32"}],"stateMutability":"nonpayable"},{"type":"function","name":"checkIn","inputs":[{"name":"lockId","type":"bytes32","internalType":"bytes32"}],"outputs":[],"stateMutability":"nonpayable"},{"type":"function","name":"checkOut","inputs":[{"name":"resource","type":"bytes32","internalType":"bytes32"},{"name":"holder","type":"bytes32","internalType":"bytes32"},{"name":"duration","type":"uint256","internalType":"uint256"},{"name":"reason","type":"string","internalType":"string"}],"outputs":[{"name":"lockId","type":"bytes32","internalType":"bytes32"}],"stateMutability":"nonpayable"},{"type":"function","name":"getActiveLock","inputs":[{"name":"resource","type":"bytes32","internalType":"bytes32"}],"outputs":[{"name":"","type":"bytes32","internalType":"bytes32"}],"stateMutability":"view"},{"type":"function","name":"getLock","inputs":[{"name":"lockId","type":"bytes32","internalType":"bytes32"}],"outputs":[{"name":"","type":"tuple","internalType":"struct PessimisticLock.Lock","components":[{"name":"resource","type":"bytes32","internalType":"bytes32"},{"name":"holder","type":"bytes32","internalType":"bytes32"},{"name":"acquired","type":"uint256","internalType":"uint256"},{"name":"expires","type":"uint256","internalType":"uint256"},{"name":"active","type":"bool","internalType":"bool"},{"name":"exists","type":"bool","internalType":"bool"}]}],"stateMutability":"view"},{"type":"function","name":"queryLocks","inputs":[{"name":"resource","type":"bytes32","internalType":"bytes32"}],"outputs":[{"name":"","type":"bytes32[]","internalType":"bytes32[]"}],"stateMutability":"view"},{"type":"function","name":"renew","inputs":[{"name":"lockId","type":"bytes32","internalType":"bytes32"},{"name":"additionalDuration","type":"uint256","internalType":"uint256"}],"outputs":[{"name":"newExpires","type":"uint256","internalType":"uint256"}],"stateMutability":"nonpayable"},{"type":"event","name":"AlreadyLocked","inputs":[{"name":"resource","type":"bytes32","indexed":true,"internalType":"bytes32"},{"name":"currentHolder","type":"bytes32","indexed":true,"internalType":"bytes32"}],"anonymous":false},{"type":"event","name":"CheckedIn","inputs":[{"name":"lockId","type":"bytes32","indexed":true,"internalType":"bytes32"}],"anonymous":false},{"type":"event","name":"CheckedOut","inputs":[{"name":"lockId","type":"bytes32","indexed":true,"internalType":"bytes32"},{"name":"resource","type":"bytes32","indexed":true,"internalType":"bytes32"},{"name":"holder","type":"bytes32","indexed":true,"internalType":"bytes32"}],"anonymous":false},{"type":"event","name":"LockBroken","inputs":[{"name":"lockId","type":"bytes32","indexed":true,"internalType":"bytes32"},{"name":"breaker","type":"bytes32","indexed":true,"internalType":"bytes32"},{"name":"previousHolder","type":"bytes32","indexed":false,"internalType":"bytes32"}],"anonymous":false},{"type":"event","name":"Renewed","inputs":[{"name":"lockId","type":"bytes32","indexed":true,"internalType":"bytes32"},{"name":"newExpires","type":"uint256","indexed":false,"internalType":"uint256"}],"anonymous":false}],"bytecode":{"object":"0x608060405234801561000f575f80fd5b506114a48061001d5f395ff3fe608060405234801561000f575f80fd5b506004361061007b575f3560e01c80634662d1dd116100595780634662d1dd1461010f5780634c8d96731461012b578063d6f27b581461015b578063f544d82f1461018b5761007b565b806322efb7031461007f5780632dc24c9c146100af57806339a8e1ba146100df575b5f80fd5b61009960048036038101906100949190610bf0565b6101bb565b6040516100a69190610c2a565b60405180910390f35b6100c960048036038101906100c49190610bf0565b6101d5565b6040516100d69190610cfa565b60405180910390f35b6100f960048036038101906100f49190610dae565b61023c565b6040516101069190610c2a565b60405180910390f35b61012960048036038101906101249190610bf0565b6105a9565b005b61014560048036038101906101409190610e32565b61070a565b6040516101529190610c2a565b60405180910390f35b61017560048036038101906101709190610bf0565b61091c565b6040516101829190610f45565b60405180910390f35b6101a560048036038101906101a09190610f5e565b610a02565b6040516101b29190610fab565b60405180910390f35b5f60015f8381526020019081526020015f20549050919050565b606060025f8381526020019081526020015f2080548060200260200160405190810160405280929190818152602001828054801561023057602002820191905f5260205f20905b81548152602001906001019080831161021c575b50505050509050919050565b5f805f1b8603610281576040517f08c379a00000000000000000000000000000000000000000000000000000000081526004016102789061101e565b60405180910390fd5b5f801b85036102c5576040517f08c379a00000000000000000000000000000000000000000000000000000000081526004016102bc90611086565b60405180910390fd5b5f8411610307576040517f08c379a00000000000000000000000000000000000000000000000000000000081526004016102fe906110ee565b60405180910390fd5b5f838390501161034c576040517f08c379a000000000000000000000000000000000000000000000000000000000815260040161034390611156565b60405180910390fd5b5f60015f8881526020019081526020015f205490505f801b811415801561038f57505f808281526020019081526020015f206004015f9054906101000a900460ff165b15610426575f808281526020019081526020015f20600301544210156103fb575f808281526020019081526020015f2060010154877f114239b897bd3ac7e3e4a92496e6b868c362a7a3443a5b96aad01d4edfce357660405160405180910390a35f801b9150506105a0565b5f805f8381526020019081526020015f206004015f6101000a81548160ff0219169083151502179055505b60035f815480929190610438906111a1565b91905055508686426003546040516020016104569493929190611228565b6040516020818303038152906040528051906020012091506040518060c0016040528088815260200187815260200142815260200186426104979190611275565b8152602001600115158152602001600115158152505f808481526020019081526020015f205f820151815f01556020820151816001015560408201518160020155606082015181600301556080820151816004015f6101000a81548160ff02191690831515021790555060a08201518160040160016101000a81548160ff0219169083151502179055509050508160015f8981526020019081526020015f208190555060025f8881526020019081526020015f2082908060018154018082558091505060019003905f5260205f20015f90919091909150558587837f15d7413c8e6de820e934436e19a05064ce742106a1892751e3259d9b772e6bdd60405160405180910390a4505b95945050505050565b5f808281526020019081526020015f2060040160019054906101000a900460ff16610609576040517f08c379a0000000000000000000000000000000000000000000000000000000008152600401610600906112f2565b60405180910390fd5b5f808281526020019081526020015f206004015f9054906101000a900460ff16610668576040517f08c379a000000000000000000000000000000000000000000000000000000000815260040161065f9061135a565b60405180910390fd5b5f805f8381526020019081526020015f206004015f6101000a81548160ff0219169083151502179055505f805f8381526020019081526020015f205f015490508160015f8381526020019081526020015f2054036106d9575f801b60015f8381526020019081526020015f20819055505b817f32b23749985701071d89c3c0bd88e1216ed776a3a4f9a33855098462f21471c360405160405180910390a25050565b5f805f8681526020019081526020015f2060040160019054906101000a900460ff1661076b576040517f08c379a0000000000000000000000000000000000000000000000000000000008152600401610762906112f2565b60405180910390fd5b5f808681526020019081526020015f206004015f9054906101000a900460ff166107ca576040517f08c379a00000000000000000000000000000000000000000000000000000000081526004016107c19061135a565b60405180910390fd5b5f801b840361080e576040517f08c379a0000000000000000000000000000000000000000000000000000000008152600401610805906113c2565b60405180910390fd5b5f8383905011610853576040517f08c379a000000000000000000000000000000000000000000000000000000000815260040161084a90611156565b60405180910390fd5b5f808681526020019081526020015f206001015490505f805f8781526020019081526020015f206004015f6101000a81548160ff0219169083151502179055505f805f8781526020019081526020015f205f015490508560015f8381526020019081526020015f2054036108da575f801b60015f8381526020019081526020015f20819055505b84867fbd617f2d291fbbd46444c5ca952c97802c0d488d5c27625886bf4555ef48f1cf8460405161090b9190610c2a565b60405180910390a350949350505050565b610924610b7b565b5f808381526020019081526020015f2060040160019054906101000a900460ff16610984576040517f08c379a000000000000000000000000000000000000000000000000000000000815260040161097b906112f2565b60405180910390fd5b5f808381526020019081526020015f206040518060c00160405290815f8201548152602001600182015481526020016002820154815260200160038201548152602001600482015f9054906101000a900460ff161515151581526020016004820160019054906101000a900460ff1615151515815250509050919050565b5f805f8481526020019081526020015f2060040160019054906101000a900460ff16610a63576040517f08c379a0000000000000000000000000000000000000000000000000000000008152600401610a5a906112f2565b60405180910390fd5b5f808481526020019081526020015f206004015f9054906101000a900460ff16610ac2576040517f08c379a0000000000000000000000000000000000000000000000000000000008152600401610ab99061135a565b60405180910390fd5b5f8211610b04576040517f08c379a0000000000000000000000000000000000000000000000000000000008152600401610afb90611450565b60405180910390fd5b815f808581526020019081526020015f2060030154610b239190611275565b9050805f808581526020019081526020015f2060030181905550827f856c1a4415e2dac66f37ffd3bde6dc0b5655d1240b09c4f0b807f70430324be182604051610b6d9190610fab565b60405180910390a292915050565b6040518060c001604052805f80191681526020015f80191681526020015f81526020015f81526020015f151581526020015f151581525090565b5f80fd5b5f80fd5b5f819050919050565b610bcf81610bbd565b8114610bd9575f80fd5b50565b5f81359050610bea81610bc6565b92915050565b5f60208284031215610c0557610c04610bb5565b5b5f610c1284828501610bdc565b91505092915050565b610c2481610bbd565b82525050565b5f602082019050610c3d5f830184610c1b565b92915050565b5f81519050919050565b5f82825260208201905092915050565b5f819050602082019050919050565b610c7581610bbd565b82525050565b5f610c868383610c6c565b60208301905092915050565b5f602082019050919050565b5f610ca882610c43565b610cb28185610c4d565b9350610cbd83610c5d565b805f5b83811015610ced578151610cd48882610c7b565b9750610cdf83610c92565b925050600181019050610cc0565b5085935050505092915050565b5f6020820190508181035f830152610d128184610c9e565b905092915050565b5f819050919050565b610d2c81610d1a565b8114610d36575f80fd5b50565b5f81359050610d4781610d23565b92915050565b5f80fd5b5f80fd5b5f80fd5b5f8083601f840112610d6e57610d6d610d4d565b5b8235905067ffffffffffffffff811115610d8b57610d8a610d51565b5b602083019150836001820283011115610da757610da6610d55565b5b9250929050565b5f805f805f60808688031215610dc757610dc6610bb5565b5b5f610dd488828901610bdc565b9550506020610de588828901610bdc565b9450506040610df688828901610d39565b935050606086013567ffffffffffffffff811115610e1757610e16610bb9565b5b610e2388828901610d59565b92509250509295509295909350565b5f805f8060608587031215610e4a57610e49610bb5565b5b5f610e5787828801610bdc565b9450506020610e6887828801610bdc565b935050604085013567ffffffffffffffff811115610e8957610e88610bb9565b5b610e9587828801610d59565b925092505092959194509250565b610eac81610d1a565b82525050565b5f8115159050919050565b610ec681610eb2565b82525050565b60c082015f820151610ee05f850182610c6c565b506020820151610ef36020850182610c6c565b506040820151610f066040850182610ea3565b506060820151610f196060850182610ea3565b506080820151610f2c6080850182610ebd565b5060a0820151610f3f60a0850182610ebd565b50505050565b5f60c082019050610f585f830184610ecc565b92915050565b5f8060408385031215610f7457610f73610bb5565b5b5f610f8185828601610bdc565b9250506020610f9285828601610d39565b9150509250929050565b610fa581610d1a565b82525050565b5f602082019050610fbe5f830184610f9c565b92915050565b5f82825260208201905092915050565b7f5265736f757263652063616e6e6f74206265207a65726f0000000000000000005f82015250565b5f611008601783610fc4565b915061101382610fd4565b602082019050919050565b5f6020820190508181035f83015261103581610ffc565b9050919050565b7f486f6c6465722063616e6e6f74206265207a65726f00000000000000000000005f82015250565b5f611070601583610fc4565b915061107b8261103c565b602082019050919050565b5f6020820190508181035f83015261109d81611064565b9050919050565b7f4475726174696f6e206d75737420626520706f736974697665000000000000005f82015250565b5f6110d8601983610fc4565b91506110e3826110a4565b602082019050919050565b5f6020820190508181035f830152611105816110cc565b9050919050565b7f526561736f6e2063616e6e6f7420626520656d707479000000000000000000005f82015250565b5f611140601683610fc4565b915061114b8261110c565b602082019050919050565b5f6020820190508181035f83015261116d81611134565b9050919050565b7f4e487b71000000000000000000000000000000000000000000000000000000005f52601160045260245ffd5b5f6111ab82610d1a565b91507fffffffffffffffffffffffffffffffffffffffffffffffffffffffffffffffff82036111dd576111dc611174565b5b600182019050919050565b5f819050919050565b6112026111fd82610bbd565b6111e8565b82525050565b5f819050919050565b61122261121d82610d1a565b611208565b82525050565b5f61123382876111f1565b60208201915061124382866111f1565b6020820191506112538285611211565b6020820191506112638284611211565b60208201915081905095945050505050565b5f61127f82610d1a565b915061128a83610d1a565b92508282019050808211156112a2576112a1611174565b5b92915050565b7f4c6f636b20646f6573206e6f74206578697374000000000000000000000000005f82015250565b5f6112dc601383610fc4565b91506112e7826112a8565b602082019050919050565b5f6020820190508181035f830152611309816112d0565b9050919050565b7f4c6f636b206973206e6f742061637469766500000000000000000000000000005f82015250565b5f611344601283610fc4565b915061134f82611310565b602082019050919050565b5f6020820190508181035f83015261137181611338565b9050919050565b7f427265616b65722063616e6e6f74206265207a65726f000000000000000000005f82015250565b5f6113ac601683610fc4565b91506113b782611378565b602082019050919050565b5f6020820190508181035f8301526113d9816113a0565b9050919050565b7f4164646974696f6e616c206475726174696f6e206d75737420626520706f73695f8201527f7469766500000000000000000000000000000000000000000000000000000000602082015250565b5f61143a602483610fc4565b9150611445826113e0565b604082019050919050565b5f6020820190508181035f8301526114678161142e565b905091905056fea2646970667358221220b5cc3e1cd1cbac979018feacbd29a8d2982f332df527f37cf96bda7f9a4e92e864736f6c63430008140033","linkReferences":{}},"methodIdentifiers":{"breakLock(bytes32,bytes32,string)":"4c8d9673","checkIn(bytes32)":"4662d1dd","checkOut(bytes32,bytes32,uint256,string)":"39a8e1ba","getActiveLock(bytes32)":"22efb703","getLock(bytes32)":"d6f27b58","queryLocks(bytes32)":"2dc24c9c","renew(bytes32,uint256)":"f544d82f"},"id":195}