{"abi":[{"type":"function","name":"declare","inputs":[{"name":"affordance","type":"bytes32","internalType":"bytes32"},{"name":"widget","type":"string","internalType":"string"},{"name":"interactor","type":"string","internalType":"string"},{"name":"specificity","type":"int256","internalType":"int256"},{"name":"conditions","type":"string","internalType":"string"}],"outputs":[{"name":"","type":"tuple","internalType":"struct Affordance.DeclareOkResult","components":[{"name":"success","type":"bool","internalType":"bool"},{"name":"affordance","type":"bytes32","internalType":"bytes32"}]}],"stateMutability":"nonpayable"},{"type":"function","name":"explain","inputs":[{"name":"affordance","type":"bytes32","internalType":"bytes32"}],"outputs":[{"name":"","type":"tuple","internalType":"struct Affordance.ExplainOkResult","components":[{"name":"success","type":"bool","internalType":"bool"},{"name":"affordance","type":"bytes32","internalType":"bytes32"},{"name":"reason","type":"string","internalType":"string"}]}],"stateMutability":"nonpayable"},{"type":"function","name":"matchAffordance","inputs":[{"name":"affordance","type":"bytes32","internalType":"bytes32"},{"name":"interactor","type":"string","internalType":"string"},{"name":"context","type":"string","internalType":"string"}],"outputs":[{"name":"","type":"tuple","internalType":"struct Affordance.MatchOkResult","components":[{"name":"success","type":"bool","internalType":"bool"},{"name":"matches","type":"string","internalType":"string"}]}],"stateMutability":"nonpayable"},{"type":"function","name":"remove","inputs":[{"name":"affordance","type":"bytes32","internalType":"bytes32"}],"outputs":[{"name":"","type":"tuple","internalType":"struct Affordance.RemoveOkResult","components":[{"name":"success","type":"bool","internalType":"bool"},{"name":"affordance","type":"bytes32","internalType":"bytes32"}]}],"stateMutability":"nonpayable"},{"type":"event","name":"DeclareCompleted","inputs":[{"name":"variant","type":"string","indexed":false,"internalType":"string"},{"name":"affordance","type":"bytes32","indexed":true,"internalType":"bytes32"}],"anonymous":false},{"type":"event","name":"ExplainCompleted","inputs":[{"name":"variant","type":"string","indexed":false,"internalType":"string"},{"name":"affordance","type":"bytes32","indexed":true,"internalType":"bytes32"}],"anonymous":false},{"type":"event","name":"MatchCompleted","inputs":[{"name":"variant","type":"string","indexed":false,"internalType":"string"}],"anonymous":false},{"type":"event","name":"RemoveCompleted","inputs":[{"name":"variant","type":"string","indexed":false,"internalType":"string"},{"name":"affordance","type":"bytes32","indexed":true,"internalType":"bytes32"}],"anonymous":false}],"bytecode":{"object":"0x608060405234801561000f575f80fd5b50611a128061001d5f395ff3fe608060405234801561000f575f80fd5b506004361061004a575f3560e01c80631ab477c91461004e578063748519091461007e57806395bc2673146100ae578063e62218b3146100de575b5f80fd5b61006860048036038101906100639190610c35565b61010e565b6040516100759190610d56565b60405180910390f35b61009860048036038101906100939190610d6f565b61032f565b6040516100a59190610e61565b60405180910390f35b6100c860048036038101906100c39190610d6f565b61043c565b6040516100d59190610eae565b60405180910390f35b6100f860048036038101906100f39190610ec7565b61056b565b6040516101059190610f89565b60405180910390f35b6101166109b1565b60015f8781526020019081526020015f205f9054906101000a900460ff1615610174576040517f08c379a000000000000000000000000000000000000000000000000000000000815260040161016b90611003565b60405180910390fd5b5f8551116101b7576040517f08c379a00000000000000000000000000000000000000000000000000000000081526004016101ae9061106b565b60405180910390fd5b5f8451116101fa576040517f08c379a00000000000000000000000000000000000000000000000000000000081526004016101f1906110d3565b60405180910390fd5b6040518060a00160405280868152602001858152602001848152602001838152602001428152505f808881526020019081526020015f205f820151815f01908161024491906112f4565b50602082015181600101908161025a91906112f4565b5060408201518160020155606082015181600301908161027a91906112f4565b50608082015181600401559050506001805f8881526020019081526020015f205f6101000a81548160ff021916908315150217905550600286908060018154018082558091505060019003905f5260205f20015f9091909190915055857f5595c898d1464c58ca543a348dd78fe52f51ef3fb2f8ffb5e86fbc265c4a3afb6040516103049061140d565b60405180910390a2604051806040016040528060011515815260200187815250905095945050505050565b6103376109ce565b60015f8381526020019081526020015f205f9054906101000a900460ff16610394576040517f08c379a000000000000000000000000000000000000000000000000000000000815260040161038b90611475565b60405180910390fd5b5f805f8481526020019081526020015f2090505f815f01826001016103bc846002015461079f565b6040516020016103ce9392919061162b565b6040516020818303038152906040529050837fba00305c5af8fe264650ec46f01c0fa88ef873630f60f5a17495667deade189c60405161040d9061140d565b60405180910390a260405180606001604052806001151581526020018581526020018281525092505050919050565b6104446109f2565b60015f8381526020019081526020015f205f9054906101000a900460ff166104a1576040517f08c379a000000000000000000000000000000000000000000000000000000000815260040161049890611475565b60405180910390fd5b5f808381526020019081526020015f205f8082015f6104c09190610a0f565b600182015f6104cf9190610a0f565b600282015f9055600382015f6104e59190610a0f565b600482015f905550505f60015f8481526020019081526020015f205f6101000a81548160ff021916908315150217905550817f29ecd025630c5051a08e7e5f7d72f6c3027ae1119dfb1ec63d9283914190822a6040516105449061140d565b60405180910390a26040518060400160405280600115158152602001838152509050919050565b610573610a4c565b5f60405180602001604052805f81525090505f805b600280549050811015610706575f600282815481106105aa576105a961167c565b5b905f5260205f200154905060015f8281526020019081526020015f205f9054906101000a900460ff16801561060c575086805190602001205f808381526020019081526020015f206001016040516106029190611745565b6040518091039020145b156106f257821561065157835f808381526020019081526020015f205f0160405160200161063b9291906117a5565b60405160208183030381529060405293506106f1565b5f808281526020019081526020015f205f01805461066e9061111e565b80601f016020809104026020016040519081016040528092919081815260200182805461069a9061111e565b80156106e55780601f106106bc576101008083540402835291602001916106e5565b820191905f5260205f20905b8154815290600101906020018083116106c857829003601f168201915b50505050509350600192505b5b5080806106fe90611800565b915050610588565b5080610747576040517f08c379a000000000000000000000000000000000000000000000000000000000815260040161073e90611891565b60405180910390fd5b7feb8f10be3d27ed4836db25612a8d2576aaee0935f888098e850a58dc2a811a9c6040516107749061140d565b60405180910390a1604051806040016040528060011515815260200183815250925050509392505050565b60605f82036107e5576040518060400160405280600181526020017f300000000000000000000000000000000000000000000000000000000000000081525090506109ac565b5f80831290505f816107f75783610802565b83610801906118af565b5b90505f8190505f5b5f821461083357808061081c90611800565b915050600a8261082c9190611922565b915061080a565b5f8461083f578161084d565b60018261084c9190611952565b5b67ffffffffffffffff81111561086657610865610ade565b5b6040519080825280601f01601f1916602001820160405280156108985781602001600182028036833780820191505090505b5090508415610904577f2d00000000000000000000000000000000000000000000000000000000000000815f815181106108d5576108d461167c565b5b60200101907effffffffffffffffffffffffffffffffffffffffffffffffffffffffffffff191690815f1a9053505b5b5f84146109a357818061091790611985565b925050600a8461092791906119ac565b60306109339190611952565b60f81b81866109425783610950565b60018461094f9190611952565b5b815181106109615761096061167c565b5b60200101907effffffffffffffffffffffffffffffffffffffffffffffffffffffffffffff191690815f1a905350600a8461099c9190611922565b9350610905565b80955050505050505b919050565b60405180604001604052805f151581526020015f80191681525090565b60405180606001604052805f151581526020015f8019168152602001606081525090565b60405180604001604052805f151581526020015f80191681525090565b508054610a1b9061111e565b5f825580601f10610a2c5750610a49565b601f0160209004905f5260205f2090810190610a489190610a67565b5b50565b60405180604001604052805f15158152602001606081525090565b5b80821115610a7e575f815f905550600101610a68565b5090565b5f604051905090565b5f80fd5b5f80fd5b5f819050919050565b610aa581610a93565b8114610aaf575f80fd5b50565b5f81359050610ac081610a9c565b92915050565b5f80fd5b5f80fd5b5f601f19601f8301169050919050565b7f4e487b71000000000000000000000000000000000000000000000000000000005f52604160045260245ffd5b610b1482610ace565b810181811067ffffffffffffffff82111715610b3357610b32610ade565b5b80604052505050565b5f610b45610a82565b9050610b518282610b0b565b919050565b5f67ffffffffffffffff821115610b7057610b6f610ade565b5b610b7982610ace565b9050602081019050919050565b828183375f83830152505050565b5f610ba6610ba184610b56565b610b3c565b905082815260208101848484011115610bc257610bc1610aca565b5b610bcd848285610b86565b509392505050565b5f82601f830112610be957610be8610ac6565b5b8135610bf9848260208601610b94565b91505092915050565b5f819050919050565b610c1481610c02565b8114610c1e575f80fd5b50565b5f81359050610c2f81610c0b565b92915050565b5f805f805f60a08688031215610c4e57610c4d610a8b565b5b5f610c5b88828901610ab2565b955050602086013567ffffffffffffffff811115610c7c57610c7b610a8f565b5b610c8888828901610bd5565b945050604086013567ffffffffffffffff811115610ca957610ca8610a8f565b5b610cb588828901610bd5565b9350506060610cc688828901610c21565b925050608086013567ffffffffffffffff811115610ce757610ce6610a8f565b5b610cf388828901610bd5565b9150509295509295909350565b5f8115159050919050565b610d1481610d00565b82525050565b610d2381610a93565b82525050565b604082015f820151610d3d5f850182610d0b565b506020820151610d506020850182610d1a565b50505050565b5f604082019050610d695f830184610d29565b92915050565b5f60208284031215610d8457610d83610a8b565b5b5f610d9184828501610ab2565b91505092915050565b5f81519050919050565b5f82825260208201905092915050565b5f5b83811015610dd1578082015181840152602081019050610db6565b5f8484015250505050565b5f610de682610d9a565b610df08185610da4565b9350610e00818560208601610db4565b610e0981610ace565b840191505092915050565b5f606083015f830151610e295f860182610d0b565b506020830151610e3c6020860182610d1a565b5060408301518482036040860152610e548282610ddc565b9150508091505092915050565b5f6020820190508181035f830152610e798184610e14565b905092915050565b604082015f820151610e955f850182610d0b565b506020820151610ea86020850182610d1a565b50505050565b5f604082019050610ec15f830184610e81565b92915050565b5f805f60608486031215610ede57610edd610a8b565b5b5f610eeb86828701610ab2565b935050602084013567ffffffffffffffff811115610f0c57610f0b610a8f565b5b610f1886828701610bd5565b925050604084013567ffffffffffffffff811115610f3957610f38610a8f565b5b610f4586828701610bd5565b9150509250925092565b5f604083015f830151610f645f860182610d0b565b5060208301518482036020860152610f7c8282610ddc565b9150508091505092915050565b5f6020820190508181035f830152610fa18184610f4f565b905092915050565b5f82825260208201905092915050565b7f4166666f7264616e636520616c7265616479206465636c6172656400000000005f82015250565b5f610fed601b83610fa9565b9150610ff882610fb9565b602082019050919050565b5f6020820190508181035f83015261101a81610fe1565b9050919050565b7f57696467657420726571756972656400000000000000000000000000000000005f82015250565b5f611055600f83610fa9565b915061106082611021565b602082019050919050565b5f6020820190508181035f83015261108281611049565b9050919050565b7f496e7465726163746f72207265717569726564000000000000000000000000005f82015250565b5f6110bd601383610fa9565b91506110c882611089565b602082019050919050565b5f6020820190508181035f8301526110ea816110b1565b9050919050565b7f4e487b71000000000000000000000000000000000000000000000000000000005f52602260045260245ffd5b5f600282049050600182168061113557607f821691505b602082108103611148576111476110f1565b5b50919050565b5f819050815f5260205f209050919050565b5f6020601f8301049050919050565b5f82821b905092915050565b5f600883026111aa7fffffffffffffffffffffffffffffffffffffffffffffffffffffffffffffffff8261116f565b6111b4868361116f565b95508019841693508086168417925050509392505050565b5f819050919050565b5f819050919050565b5f6111f86111f36111ee846111cc565b6111d5565b6111cc565b9050919050565b5f819050919050565b611211836111de565b61122561121d826111ff565b84845461117b565b825550505050565b5f90565b61123961122d565b611244818484611208565b505050565b5b818110156112675761125c5f82611231565b60018101905061124a565b5050565b601f8211156112ac5761127d8161114e565b61128684611160565b81016020851015611295578190505b6112a96112a185611160565b830182611249565b50505b505050565b5f82821c905092915050565b5f6112cc5f19846008026112b1565b1980831691505092915050565b5f6112e483836112bd565b9150826002028217905092915050565b6112fd82610d9a565b67ffffffffffffffff81111561131657611315610ade565b5b611320825461111e565b61132b82828561126b565b5f60209050601f83116001811461135c575f841561134a578287015190505b61135485826112d9565b8655506113bb565b601f19841661136a8661114e565b5f5b828110156113915784890151825560018201915060208501945060208101905061136c565b868310156113ae57848901516113aa601f8916826112bd565b8355505b6001600288020188555050505b505050505050565b7f6f6b0000000000000000000000000000000000000000000000000000000000005f82015250565b5f6113f7600283610fa9565b9150611402826113c3565b602082019050919050565b5f6020820190508181035f830152611424816113eb565b9050919050565b7f4166666f7264616e6365206e6f7420666f756e640000000000000000000000005f82015250565b5f61145f601483610fa9565b915061146a8261142b565b602082019050919050565b5f6020820190508181035f83015261148c81611453565b9050919050565b5f81905092915050565b7f57696467657420270000000000000000000000000000000000000000000000005f82015250565b5f6114d1600883611493565b91506114dc8261149d565b600882019050919050565b5f81546114f38161111e565b6114fd8186611493565b9450600182165f8114611517576001811461152c5761155e565b60ff198316865281151582028601935061155e565b6115358561114e565b5f5b8381101561155657815481890152600182019150602081019050611537565b838801955050505b50505092915050565b7f272068616e646c657320696e7465726163746f722027000000000000000000005f82015250565b5f61159b601683611493565b91506115a682611567565b601682019050919050565b7f27207769746820737065636966696369747920000000000000000000000000005f82015250565b5f6115e5601383611493565b91506115f0826115b1565b601382019050919050565b5f61160582610d9a565b61160f8185611493565b935061161f818560208601610db4565b80840191505092915050565b5f611635826114c5565b915061164182866114e7565b915061164c8261158f565b915061165882856114e7565b9150611663826115d9565b915061166f82846115fb565b9150819050949350505050565b7f4e487b71000000000000000000000000000000000000000000000000000000005f52603260045260245ffd5b5f81905092915050565b5f819050815f5260205f209050919050565b5f81546116d18161111e565b6116db81866116a9565b9450600182165f81146116f5576001811461170a5761173c565b60ff198316865281151582028601935061173c565b611713856116b3565b5f5b8381101561173457815481890152600182019150602081019050611715565b838801955050505b50505092915050565b5f61175082846116c5565b915081905092915050565b7f2c000000000000000000000000000000000000000000000000000000000000005f82015250565b5f61178f600183611493565b915061179a8261175b565b600182019050919050565b5f6117b082856115fb565b91506117bb82611783565b91506117c782846114e7565b91508190509392505050565b7f4e487b71000000000000000000000000000000000000000000000000000000005f52601160045260245ffd5b5f61180a826111cc565b91507fffffffffffffffffffffffffffffffffffffffffffffffffffffffffffffffff820361183c5761183b6117d3565b5b600182019050919050565b7f4e6f206d61746368696e67206166666f7264616e6365730000000000000000005f82015250565b5f61187b601783610fa9565b915061188682611847565b602082019050919050565b5f6020820190508181035f8301526118a88161186f565b9050919050565b5f6118b982610c02565b91507f800000000000000000000000000000000000000000000000000000000000000082036118eb576118ea6117d3565b5b815f039050919050565b7f4e487b71000000000000000000000000000000000000000000000000000000005f52601260045260245ffd5b5f61192c826111cc565b9150611937836111cc565b925082611947576119466118f5565b5b828204905092915050565b5f61195c826111cc565b9150611967836111cc565b925082820190508082111561197f5761197e6117d3565b5b92915050565b5f61198f826111cc565b91505f82036119a1576119a06117d3565b5b600182039050919050565b5f6119b6826111cc565b91506119c1836111cc565b9250826119d1576119d06118f5565b5b82820690509291505056fea2646970667358221220743c441a9626d939c8e050a4b8931e27947ecd2bfbfa4a0920c1896c8c6eefe064736f6c63430008140033","linkReferences":{}},"methodIdentifiers":{"declare(bytes32,string,string,int256,string)":"1ab477c9","explain(bytes32)":"74851909","matchAffordance(bytes32,string,string)":"e62218b3","remove(bytes32)":"95bc2673"},"id":24}