{"abi":[{"type":"function","name":"collectInput","inputs":[{"name":"filterId","type":"bytes32","internalType":"bytes32"},{"name":"userValue","type":"string","internalType":"string"}],"outputs":[],"stateMutability":"nonpayable"},{"type":"function","name":"expose","inputs":[{"name":"filterId","type":"bytes32","internalType":"bytes32"},{"name":"config","type":"string","internalType":"string"},{"name":"defaultValue","type":"string","internalType":"string"}],"outputs":[],"stateMutability":"nonpayable"},{"type":"function","name":"getFilter","inputs":[{"name":"filterId","type":"bytes32","internalType":"bytes32"}],"outputs":[{"name":"","type":"tuple","internalType":"struct ExposedFilter.FilterConfig","components":[{"name":"config","type":"string","internalType":"string"},{"name":"defaultValue","type":"string","internalType":"string"},{"name":"currentValue","type":"string","internalType":"string"},{"name":"exists","type":"bool","internalType":"bool"}]}],"stateMutability":"view"},{"type":"function","name":"resetToDefaults","inputs":[{"name":"filterId","type":"bytes32","internalType":"bytes32"}],"outputs":[],"stateMutability":"nonpayable"},{"type":"event","name":"FilterExposed","inputs":[{"name":"filterId","type":"bytes32","indexed":true,"internalType":"bytes32"}],"anonymous":false},{"type":"event","name":"FiltersReset","inputs":[],"anonymous":false},{"type":"event","name":"InputCollected","inputs":[{"name":"filterId","type":"bytes32","indexed":true,"internalType":"bytes32"}],"anonymous":false}],"bytecode":{"object":"0x608060405234801561000f575f80fd5b50610f948061001d5f395ff3fe608060405234801561000f575f80fd5b506004361061004a575f3560e01c806314109ad01461004e5780635144b7511461006a5780635a0c4ac014610086578063e6471dae146100b6575b5f80fd5b61006860048036038101906100639190610751565b6100d2565b005b610084600480360381019061007f91906107e2565b6102c5565b005b6100a0600480360381019061009b91906107e2565b610386565b6040516100ad919061091f565b60405180910390f35b6100d060048036038101906100cb919061093f565b6105d8565b005b5f808681526020019081526020015f206003015f9054906101000a900460ff1615610132576040517f08c379a0000000000000000000000000000000000000000000000000000000008152600401610129906109f6565b60405180910390fd5b604051806080016040528085858080601f0160208091040260200160405190810160405280939291908181526020018383808284375f81840152601f19601f82011690508083019250505050505050815260200183838080601f0160208091040260200160405190810160405280939291908181526020018383808284375f81840152601f19601f82011690508083019250505050505050815260200183838080601f0160208091040260200160405190810160405280939291908181526020018383808284375f81840152601f19601f820116905080830192505050505050508152602001600115158152505f808781526020019081526020015f205f820151815f0190816102429190610c44565b5060208201518160010190816102589190610c44565b50604082015181600201908161026e9190610c44565b506060820151816003015f6101000a81548160ff021916908315150217905550905050847f27e103b54869f57586c085973da0df9aed9b973d66e66593c1ab032c7b9c62b960405160405180910390a25050505050565b5f808281526020019081526020015f206003015f9054906101000a900460ff16610324576040517f08c379a000000000000000000000000000000000000000000000000000000000815260040161031b90610d5d565b60405180910390fd5b5f808281526020019081526020015f206001015f808381526020019081526020015f2060020190816103569190610da2565b507f32d0222cbf1ebf388d627bf769f7a529bce43dbf6a02c5b187a6f3e862c410c760405160405180910390a150565b61038e61068c565b5f808381526020019081526020015f206003015f9054906101000a900460ff166103ed576040517f08c379a00000000000000000000000000000000000000000000000000000000081526004016103e490610d5d565b60405180910390fd5b5f808381526020019081526020015f206040518060800160405290815f8201805461041790610a6e565b80601f016020809104026020016040519081016040528092919081815260200182805461044390610a6e565b801561048e5780601f106104655761010080835404028352916020019161048e565b820191905f5260205f20905b81548152906001019060200180831161047157829003601f168201915b505050505081526020016001820180546104a790610a6e565b80601f01602080910402602001604051908101604052809291908181526020018280546104d390610a6e565b801561051e5780601f106104f55761010080835404028352916020019161051e565b820191905f5260205f20905b81548152906001019060200180831161050157829003601f168201915b5050505050815260200160028201805461053790610a6e565b80601f016020809104026020016040519081016040528092919081815260200182805461056390610a6e565b80156105ae5780601f10610585576101008083540402835291602001916105ae565b820191905f5260205f20905b81548152906001019060200180831161059157829003601f168201915b50505050508152602001600382015f9054906101000a900460ff1615151515815250509050919050565b5f808481526020019081526020015f206003015f9054906101000a900460ff16610637576040517f08c379a000000000000000000000000000000000000000000000000000000000815260040161062e90610d5d565b60405180910390fd5b81815f808681526020019081526020015f206002019182610659929190610e91565b50827f626f3d7e5b96c29832d46f89a7a653b7a7572d03f9e65cca9b0112196418ec4a60405160405180910390a2505050565b60405180608001604052806060815260200160608152602001606081526020015f151581525090565b5f80fd5b5f80fd5b5f819050919050565b6106cf816106bd565b81146106d9575f80fd5b50565b5f813590506106ea816106c6565b92915050565b5f80fd5b5f80fd5b5f80fd5b5f8083601f840112610711576107106106f0565b5b8235905067ffffffffffffffff81111561072e5761072d6106f4565b5b60208301915083600182028301111561074a576107496106f8565b5b9250929050565b5f805f805f6060868803121561076a576107696106b5565b5b5f610777888289016106dc565b955050602086013567ffffffffffffffff811115610798576107976106b9565b5b6107a4888289016106fc565b9450945050604086013567ffffffffffffffff8111156107c7576107c66106b9565b5b6107d3888289016106fc565b92509250509295509295909350565b5f602082840312156107f7576107f66106b5565b5b5f610804848285016106dc565b91505092915050565b5f81519050919050565b5f82825260208201905092915050565b5f5b83811015610844578082015181840152602081019050610829565b5f8484015250505050565b5f601f19601f8301169050919050565b5f6108698261080d565b6108738185610817565b9350610883818560208601610827565b61088c8161084f565b840191505092915050565b5f8115159050919050565b6108ab81610897565b82525050565b5f608083015f8301518482035f8601526108cb828261085f565b915050602083015184820360208601526108e5828261085f565b915050604083015184820360408601526108ff828261085f565b915050606083015161091460608601826108a2565b508091505092915050565b5f6020820190508181035f83015261093781846108b1565b905092915050565b5f805f60408486031215610956576109556106b5565b5b5f610963868287016106dc565b935050602084013567ffffffffffffffff811115610984576109836106b9565b5b610990868287016106fc565b92509250509250925092565b5f82825260208201905092915050565b7f46696c74657220616c72656164792065786973747300000000000000000000005f82015250565b5f6109e060158361099c565b91506109eb826109ac565b602082019050919050565b5f6020820190508181035f830152610a0d816109d4565b9050919050565b7f4e487b71000000000000000000000000000000000000000000000000000000005f52604160045260245ffd5b7f4e487b71000000000000000000000000000000000000000000000000000000005f52602260045260245ffd5b5f6002820490506001821680610a8557607f821691505b602082108103610a9857610a97610a41565b5b50919050565b5f819050815f5260205f209050919050565b5f6020601f8301049050919050565b5f82821b905092915050565b5f60088302610afa7fffffffffffffffffffffffffffffffffffffffffffffffffffffffffffffffff82610abf565b610b048683610abf565b95508019841693508086168417925050509392505050565b5f819050919050565b5f819050919050565b5f610b48610b43610b3e84610b1c565b610b25565b610b1c565b9050919050565b5f819050919050565b610b6183610b2e565b610b75610b6d82610b4f565b848454610acb565b825550505050565b5f90565b610b89610b7d565b610b94818484610b58565b505050565b5b81811015610bb757610bac5f82610b81565b600181019050610b9a565b5050565b601f821115610bfc57610bcd81610a9e565b610bd684610ab0565b81016020851015610be5578190505b610bf9610bf185610ab0565b830182610b99565b50505b505050565b5f82821c905092915050565b5f610c1c5f1984600802610c01565b1980831691505092915050565b5f610c348383610c0d565b9150826002028217905092915050565b610c4d8261080d565b67ffffffffffffffff811115610c6657610c65610a14565b5b610c708254610a6e565b610c7b828285610bbb565b5f60209050601f831160018114610cac575f8415610c9a578287015190505b610ca48582610c29565b865550610d0b565b601f198416610cba86610a9e565b5f5b82811015610ce157848901518255600182019150602085019450602081019050610cbc565b86831015610cfe5784890151610cfa601f891682610c0d565b8355505b6001600288020188555050505b505050505050565b7f46696c74657220646f6573206e6f7420657869737400000000000000000000005f82015250565b5f610d4760158361099c565b9150610d5282610d13565b602082019050919050565b5f6020820190508181035f830152610d7481610d3b565b9050919050565b5f81549050610d8981610a6e565b9050919050565b5f819050815f5260205f209050919050565b818103610db0575050610e85565b610db982610d7b565b67ffffffffffffffff811115610dd257610dd1610a14565b5b610ddc8254610a6e565b610de7828285610bbb565b5f601f831160018114610e14575f8415610e02578287015490505b610e0c8582610c29565b865550610e7e565b601f198416610e2287610d90565b9650610e2d86610a9e565b5f5b82811015610e5457848901548255600182019150600185019450602081019050610e2f565b86831015610e715784890154610e6d601f891682610c0d565b8355505b6001600288020188555050505b5050505050505b565b5f82905092915050565b610e9b8383610e87565b67ffffffffffffffff811115610eb457610eb3610a14565b5b610ebe8254610a6e565b610ec9828285610bbb565b5f601f831160018114610ef6575f8415610ee4578287013590505b610eee8582610c29565b865550610f55565b601f198416610f0486610a9e565b5f5b82811015610f2b57848901358255600182019150602085019450602081019050610f06565b86831015610f485784890135610f44601f891682610c0d565b8355505b6001600288020188555050505b5050505050505056fea2646970667358221220b0fd70a813a70dd57e6ed2d41be1ed99ee033761a2a977d3ad16605c9ec6eaee64736f6c63430008140033","linkReferences":{}},"methodIdentifiers":{"collectInput(bytes32,string)":"e6471dae","expose(bytes32,string,string)":"14109ad0","getFilter(bytes32)":"5a0c4ac0","resetToDefaults(bytes32)":"5144b751"},"id":116}