{"abi":[{"type":"function","name":"create","inputs":[{"name":"sessionId","type":"bytes32","internalType":"bytes32"},{"name":"userId","type":"bytes32","internalType":"bytes32"},{"name":"deviceInfo","type":"string","internalType":"string"},{"name":"duration","type":"uint256","internalType":"uint256"}],"outputs":[],"stateMutability":"nonpayable"},{"type":"function","name":"destroy","inputs":[{"name":"sessionId","type":"bytes32","internalType":"bytes32"}],"outputs":[],"stateMutability":"nonpayable"},{"type":"function","name":"refresh","inputs":[{"name":"sessionId","type":"bytes32","internalType":"bytes32"},{"name":"newDuration","type":"uint256","internalType":"uint256"}],"outputs":[],"stateMutability":"nonpayable"},{"type":"function","name":"validate","inputs":[{"name":"sessionId","type":"bytes32","internalType":"bytes32"}],"outputs":[{"name":"valid","type":"bool","internalType":"bool"},{"name":"userId","type":"bytes32","internalType":"bytes32"}],"stateMutability":"view"},{"type":"event","name":"Created","inputs":[{"name":"sessionId","type":"bytes32","indexed":true,"internalType":"bytes32"},{"name":"userId","type":"bytes32","indexed":true,"internalType":"bytes32"}],"anonymous":false},{"type":"event","name":"Destroyed","inputs":[{"name":"sessionId","type":"bytes32","indexed":true,"internalType":"bytes32"}],"anonymous":false},{"type":"event","name":"Refreshed","inputs":[{"name":"sessionId","type":"bytes32","indexed":true,"internalType":"bytes32"}],"anonymous":false}],"bytecode":{"object":"0x608060405234801561000f575f80fd5b50610e118061001d5f395ff3fe608060405234801561000f575f80fd5b506004361061004a575f3560e01c80632e0126981461004e5780636e0bd2821461007f578063d3f4185f1461009b578063efb7f552146100b7575b5f80fd5b6100686004803603810190610063919061062a565b6100d3565b60405161007692919061067e565b60405180910390f35b6100996004803603810190610094919061062a565b610146565b005b6100b560048036038101906100b09190610739565b610200565b005b6100d160048036038101906100cc91906107bd565b61049a565b005b5f805f805f8581526020019081526020015f2090508060040160019054906101000a900460ff1615806101145750806004015f9054906101000a900460ff16155b806101225750806003015442115b15610135575f805f1b9250925050610141565b6001815f015492509250505b915091565b5f808281526020019081526020015f2060040160019054906101000a900460ff166101a6576040517f08c379a000000000000000000000000000000000000000000000000000000000815260040161019d90610855565b60405180910390fd5b5f805f8381526020019081526020015f206004015f6101000a81548160ff021916908315150217905550807fe86383ab6f313a1a8a7ef32b1a0681c4d7777da5027cd3d6c27d13c62d21443f60405160405180910390a250565b5f801b8503610244576040517f08c379a000000000000000000000000000000000000000000000000000000000815260040161023b906108bd565b60405180910390fd5b5f801b8403610288576040517f08c379a000000000000000000000000000000000000000000000000000000000815260040161027f90610925565b60405180910390fd5b5f808681526020019081526020015f2060040160019054906101000a900460ff16156102e9576040517f08c379a00000000000000000000000000000000000000000000000000000000081526004016102e09061098d565b60405180910390fd5b5f811161032b576040517f08c379a0000000000000000000000000000000000000000000000000000000008152600401610322906109f5565b60405180910390fd5b6040518060c0016040528085815260200184848080601f0160208091040260200160405190810160405280939291908181526020018383808284375f81840152601f19601f82011690508083019250505050505050815260200142815260200182426103979190610a40565b8152602001600115158152602001600115158152505f808781526020019081526020015f205f820151815f015560208201518160010190816103d99190610ca4565b5060408201518160020155606082015181600301556080820151816004015f6101000a81548160ff02191690831515021790555060a08201518160040160016101000a81548160ff02191690831515021790555090505060015f8581526020019081526020015f2085908060018154018082558091505060019003905f5260205f20015f909190919091505583857f9d9ee187c998a5440cc168a0ece9945ba4d5121a4f3f844bfc8a877b363d0aee60405160405180910390a35050505050565b5f808381526020019081526020015f2060040160019054906101000a900460ff166104fa576040517f08c379a00000000000000000000000000000000000000000000000000000000081526004016104f190610855565b60405180910390fd5b5f808381526020019081526020015f206004015f9054906101000a900460ff16610559576040517f08c379a000000000000000000000000000000000000000000000000000000000815260040161055090610dbd565b60405180910390fd5b5f811161059b576040517f08c379a0000000000000000000000000000000000000000000000000000000008152600401610592906109f5565b60405180910390fd5b80426105a79190610a40565b5f808481526020019081526020015f2060030181905550817f272687c32cd3d86c06879e03d58e14b1cc095d742c462f6bc46a5a9e4b409c5960405160405180910390a25050565b5f80fd5b5f80fd5b5f819050919050565b610609816105f7565b8114610613575f80fd5b50565b5f8135905061062481610600565b92915050565b5f6020828403121561063f5761063e6105ef565b5b5f61064c84828501610616565b91505092915050565b5f8115159050919050565b61066981610655565b82525050565b610678816105f7565b82525050565b5f6040820190506106915f830185610660565b61069e602083018461066f565b9392505050565b5f80fd5b5f80fd5b5f80fd5b5f8083601f8401126106c6576106c56106a5565b5b8235905067ffffffffffffffff8111156106e3576106e26106a9565b5b6020830191508360018202830111156106ff576106fe6106ad565b5b9250929050565b5f819050919050565b61071881610706565b8114610722575f80fd5b50565b5f813590506107338161070f565b92915050565b5f805f805f60808688031215610752576107516105ef565b5b5f61075f88828901610616565b955050602061077088828901610616565b945050604086013567ffffffffffffffff811115610791576107906105f3565b5b61079d888289016106b1565b935093505060606107b088828901610725565b9150509295509295909350565b5f80604083850312156107d3576107d26105ef565b5b5f6107e085828601610616565b92505060206107f185828601610725565b9150509250929050565b5f82825260208201905092915050565b7f53657373696f6e206e6f7420666f756e640000000000000000000000000000005f82015250565b5f61083f6011836107fb565b915061084a8261080b565b602082019050919050565b5f6020820190508181035f83015261086c81610833565b9050919050565b7f53657373696f6e2049442063616e6e6f74206265207a65726f000000000000005f82015250565b5f6108a76019836107fb565b91506108b282610873565b602082019050919050565b5f6020820190508181035f8301526108d48161089b565b9050919050565b7f557365722049442063616e6e6f74206265207a65726f000000000000000000005f82015250565b5f61090f6016836107fb565b915061091a826108db565b602082019050919050565b5f6020820190508181035f83015261093c81610903565b9050919050565b7f53657373696f6e20616c726561647920657869737473000000000000000000005f82015250565b5f6109776016836107fb565b915061098282610943565b602082019050919050565b5f6020820190508181035f8301526109a48161096b565b9050919050565b7f4475726174696f6e206d75737420626520706f736974697665000000000000005f82015250565b5f6109df6019836107fb565b91506109ea826109ab565b602082019050919050565b5f6020820190508181035f830152610a0c816109d3565b9050919050565b7f4e487b71000000000000000000000000000000000000000000000000000000005f52601160045260245ffd5b5f610a4a82610706565b9150610a5583610706565b9250828201905080821115610a6d57610a6c610a13565b5b92915050565b5f81519050919050565b7f4e487b71000000000000000000000000000000000000000000000000000000005f52604160045260245ffd5b7f4e487b71000000000000000000000000000000000000000000000000000000005f52602260045260245ffd5b5f6002820490506001821680610aee57607f821691505b602082108103610b0157610b00610aaa565b5b50919050565b5f819050815f5260205f209050919050565b5f6020601f8301049050919050565b5f82821b905092915050565b5f60088302610b637fffffffffffffffffffffffffffffffffffffffffffffffffffffffffffffffff82610b28565b610b6d8683610b28565b95508019841693508086168417925050509392505050565b5f819050919050565b5f610ba8610ba3610b9e84610706565b610b85565b610706565b9050919050565b5f819050919050565b610bc183610b8e565b610bd5610bcd82610baf565b848454610b34565b825550505050565b5f90565b610be9610bdd565b610bf4818484610bb8565b505050565b5b81811015610c1757610c0c5f82610be1565b600181019050610bfa565b5050565b601f821115610c5c57610c2d81610b07565b610c3684610b19565b81016020851015610c45578190505b610c59610c5185610b19565b830182610bf9565b50505b505050565b5f82821c905092915050565b5f610c7c5f1984600802610c61565b1980831691505092915050565b5f610c948383610c6d565b9150826002028217905092915050565b610cad82610a73565b67ffffffffffffffff811115610cc657610cc5610a7d565b5b610cd08254610ad7565b610cdb828285610c1b565b5f60209050601f831160018114610d0c575f8415610cfa578287015190505b610d048582610c89565b865550610d6b565b601f198416610d1a86610b07565b5f5b82811015610d4157848901518255600182019150602085019450602081019050610d1c565b86831015610d5e5784890151610d5a601f891682610c6d565b8355505b6001600288020188555050505b505050505050565b7f53657373696f6e206973206e6f742061637469766500000000000000000000005f82015250565b5f610da76015836107fb565b9150610db282610d73565b602082019050919050565b5f6020820190508181035f830152610dd481610d9b565b905091905056fea2646970667358221220fe499cc7db2f60e6ffb8961365f7d30815519e418754ee011ef614f54d6f5edb64736f6c63430008140033","linkReferences":{}},"methodIdentifiers":{"create(bytes32,bytes32,string,uint256)":"d3f4185f","destroy(bytes32)":"6e0bd282","refresh(bytes32,uint256)":"efb7f552","validate(bytes32)":"2e012698"},"id":241}