{"abi":[{"type":"function","name":"finalize","inputs":[{"name":"mergeId","type":"bytes32","internalType":"bytes32"}],"outputs":[{"name":"result","type":"bytes","internalType":"bytes"}],"stateMutability":"nonpayable"},{"type":"function","name":"getMergeSession","inputs":[{"name":"mergeId","type":"bytes32","internalType":"bytes32"}],"outputs":[{"name":"","type":"tuple","internalType":"struct Merge.MergeSession","components":[{"name":"base","type":"bytes32","internalType":"bytes32"},{"name":"ours","type":"bytes32","internalType":"bytes32"},{"name":"theirs","type":"bytes32","internalType":"bytes32"},{"name":"conflictCount","type":"uint256","internalType":"uint256"},{"name":"resolvedCount","type":"uint256","internalType":"uint256"},{"name":"result","type":"bytes","internalType":"bytes"},{"name":"finalized","type":"bool","internalType":"bool"},{"name":"exists","type":"bool","internalType":"bool"}]}],"stateMutability":"view"},{"type":"function","name":"getStrategy","inputs":[{"name":"strategyId","type":"bytes32","internalType":"bytes32"}],"outputs":[{"name":"","type":"tuple","internalType":"struct Merge.Strategy","components":[{"name":"name","type":"string","internalType":"string"},{"name":"exists","type":"bool","internalType":"bool"}]}],"stateMutability":"view"},{"type":"function","name":"merge","inputs":[{"name":"base","type":"bytes32","internalType":"bytes32"},{"name":"ours","type":"bytes32","internalType":"bytes32"},{"name":"theirs","type":"bytes32","internalType":"bytes32"},{"name":"strategy","type":"bytes32","internalType":"bytes32"}],"outputs":[{"name":"mergeId","type":"bytes32","internalType":"bytes32"},{"name":"isClean","type":"bool","internalType":"bool"},{"name":"result","type":"bytes","internalType":"bytes"}],"stateMutability":"nonpayable"},{"type":"function","name":"registerStrategy","inputs":[{"name":"name","type":"string","internalType":"string"},{"name":"contentTypes","type":"string[]","internalType":"string[]"}],"outputs":[{"name":"strategyId","type":"bytes32","internalType":"bytes32"}],"stateMutability":"nonpayable"},{"type":"function","name":"resolveConflict","inputs":[{"name":"mergeId","type":"bytes32","internalType":"bytes32"},{"name":"conflictIndex","type":"uint256","internalType":"uint256"},{"name":"resolution","type":"bytes","internalType":"bytes"}],"outputs":[{"name":"remaining","type":"uint256","internalType":"uint256"}],"stateMutability":"nonpayable"},{"type":"event","name":"CleanMerge","inputs":[{"name":"mergeId","type":"bytes32","indexed":true,"internalType":"bytes32"},{"name":"result","type":"bytes","indexed":false,"internalType":"bytes"}],"anonymous":false},{"type":"event","name":"ConflictResolved","inputs":[{"name":"mergeId","type":"bytes32","indexed":true,"internalType":"bytes32"},{"name":"conflictIndex","type":"uint256","indexed":false,"internalType":"uint256"},{"name":"remaining","type":"uint256","indexed":false,"internalType":"uint256"}],"anonymous":false},{"type":"event","name":"ConflictsDetected","inputs":[{"name":"mergeId","type":"bytes32","indexed":true,"internalType":"bytes32"},{"name":"conflictCount","type":"uint256","indexed":false,"internalType":"uint256"}],"anonymous":false},{"type":"event","name":"MergeFinalized","inputs":[{"name":"mergeId","type":"bytes32","indexed":true,"internalType":"bytes32"},{"name":"result","type":"bytes","indexed":false,"internalType":"bytes"}],"anonymous":false},{"type":"event","name":"StrategyRegistered","inputs":[{"name":"strategyId","type":"bytes32","indexed":true,"internalType":"bytes32"},{"name":"name","type":"string","indexed":false,"internalType":"string"}],"anonymous":false}],"bytecode":{"object":"0x608060405234801561000f575f80fd5b50611f6f8061001d5f395ff3fe608060405234801561000f575f80fd5b5060043610610060575f3560e01c806327c05c671461006457806328c84bbd146100945780637a0ab7c9146100c45780637d7b2c23146100f457806392584d8014610124578063fd7bad2914610154575b5f80fd5b61007e60048036038101906100799190610f17565b610186565b60405161008b91906110ba565b60405180910390f35b6100ae60048036038101906100a99190610f17565b610309565b6040516100bb9190611166565b60405180910390f35b6100de60048036038101906100d9919061123c565b61043b565b6040516100eb91906112c9565b60405180910390f35b61010e60048036038101906101099190611361565b610616565b60405161011b91906113e1565b60405180910390f35b61013e60048036038101906101399190610f17565b610800565b60405161014b9190611442565b60405180910390f35b61016e60048036038101906101699190611462565b610a72565b60405161017d939291906114d5565b60405180910390f35b61018e610e76565b60025f8381526020019081526020015f2060060160019054906101000a900460ff166101ef576040517f08c379a00000000000000000000000000000000000000000000000000000000081526004016101e69061156b565b60405180910390fd5b60025f8381526020019081526020015f20604051806101000160405290815f82015481526020016001820154815260200160028201548152602001600382015481526020016004820154815260200160058201805461024d906115b6565b80601f0160208091040260200160405190810160405280929190818152602001828054610279906115b6565b80156102c45780601f1061029b576101008083540402835291602001916102c4565b820191905f5260205f20905b8154815290600101906020018083116102a757829003601f168201915b50505050508152602001600682015f9054906101000a900460ff161515151581526020016006820160019054906101000a900460ff1615151515815250509050919050565b610311610ec1565b5f808381526020019081526020015f206001015f9054906101000a900460ff16610370576040517f08c379a000000000000000000000000000000000000000000000000000000000815260040161036790611630565b60405180910390fd5b5f808381526020019081526020015f206040518060400160405290815f8201805461039a906115b6565b80601f01602080910402602001604051908101604052809291908181526020018280546103c6906115b6565b80156104115780601f106103e857610100808354040283529160200191610411565b820191905f5260205f20905b8154815290600101906020018083116103f457829003601f168201915b50505050508152602001600182015f9054906101000a900460ff1615151515815250509050919050565b5f80858560405160200161045092919061168a565b60405160208183030381529060405280519060200120905060015f8281526020019081526020015f205f9054906101000a900460ff16156104c6576040517f08c379a00000000000000000000000000000000000000000000000000000000081526004016104bd906116ec565b60405180910390fd5b85854260045f8154809291906104db90611737565b919050556040516020016104f2949392919061179e565b604051602081830303815290604052805190602001209150604051806040016040528087878080601f0160208091040260200160405190810160405280939291908181526020018383808284375f81840152601f19601f820116905080830192505050505050508152602001600115158152505f808481526020019081526020015f205f820151815f01908161058891906119a2565b506020820151816001015f6101000a81548160ff0219169083151502179055509050506001805f8381526020019081526020015f205f6101000a81548160ff021916908315150217905550817fdd0bad4261b1799c1dcdb83f363bbe8cbb0e75447d49399acad3abdbe8448f2f8787604051610605929190611a9d565b60405180910390a250949350505050565b5f60025f8681526020019081526020015f2060060160019054906101000a900460ff16610678576040517f08c379a000000000000000000000000000000000000000000000000000000000815260040161066f9061156b565b60405180910390fd5b60025f8681526020019081526020015f206006015f9054906101000a900460ff16156106d9576040517f08c379a00000000000000000000000000000000000000000000000000000000081526004016106d090611b09565b60405180910390fd5b60025f8681526020019081526020015f2060030154841061072f576040517f08c379a000000000000000000000000000000000000000000000000000000000815260040161072690611b71565b60405180910390fd5b828260035f8881526020019081526020015f205f8781526020019081526020015f20918261075e929190611bf1565b5060025f8681526020019081526020015f206004015f81548092919061078390611737565b919050555060025f8681526020019081526020015f206004015460025f8781526020019081526020015f20600301546107bc9190611cbe565b9050847f5b9ee7a92e8ec7479fca411f39d962bdcfa6c910cd829e83655d0a7ef1e2579a85836040516107f0929190611cf1565b60405180910390a2949350505050565b606060025f8381526020019081526020015f2060060160019054906101000a900460ff16610863576040517f08c379a000000000000000000000000000000000000000000000000000000000815260040161085a9061156b565b60405180910390fd5b60025f8381526020019081526020015f206006015f9054906101000a900460ff16156108c4576040517f08c379a00000000000000000000000000000000000000000000000000000000081526004016108bb90611b09565b60405180910390fd5b5f60025f8481526020019081526020015f206004015460025f8581526020019081526020015f20600301546108f99190611cbe565b90505f811461093d576040517f08c379a000000000000000000000000000000000000000000000000000000000815260040161093490611d62565b60405180910390fd5b60035f8481526020019081526020015f205f8081526020019081526020015f208054610968906115b6565b80601f0160208091040260200160405190810160405280929190818152602001828054610994906115b6565b80156109df5780601f106109b6576101008083540402835291602001916109df565b820191905f5260205f20905b8154815290600101906020018083116109c257829003601f168201915b505050505091508160025f8581526020019081526020015f206005019081610a079190611d80565b50600160025f8581526020019081526020015f206006015f6101000a81548160ff021916908315150217905550827fc4b4ea5094e6647bc8bf33369ca7211f440c8e0b93039bd2150f9a26bf7f3f6c83604051610a649190611442565b60405180910390a250919050565b5f8060605f808581526020019081526020015f206001015f9054906101000a900460ff16610ad5576040517f08c379a0000000000000000000000000000000000000000000000000000000008152600401610acc90611630565b60405180910390fd5b868603610b88578686864260055f815480929190610af290611737565b91905055604051602001610b0a959493929190611e6f565b60405160208183030381529060405280519060200120925084604051602001610b339190611ecd565b6040516020818303038152906040529050827f81a1f9d402e275ee979ddf680a68320dd31127cca3d7009cf87aba27192b2dcd82604051610b749190611442565b60405180910390a282600192509250610e6c565b868503610c3b578686864260055f815480929190610ba590611737565b91905055604051602001610bbd959493929190611e6f565b60405160208183030381529060405280519060200120925085604051602001610be69190611ecd565b6040516020818303038152906040529050827f81a1f9d402e275ee979ddf680a68320dd31127cca3d7009cf87aba27192b2dcd82604051610c279190611442565b60405180910390a282600192509250610e6c565b848603610cee578686864260055f815480929190610c5890611737565b91905055604051602001610c70959493929190611e6f565b60405160208183030381529060405280519060200120925085604051602001610c999190611ecd565b6040516020818303038152906040529050827f81a1f9d402e275ee979ddf680a68320dd31127cca3d7009cf87aba27192b2dcd82604051610cda9190611442565b60405180910390a282600192509250610e6c565b8686864260055f815480929190610d0490611737565b91905055604051602001610d1c959493929190611e6f565b604051602081830303815290604052805190602001209250604051806101000160405280888152602001878152602001868152602001600181526020015f815260200160405180602001604052805f81525081526020015f151581526020016001151581525060025f8581526020019081526020015f205f820151815f01556020820151816001015560408201518160020155606082015181600301556080820151816004015560a0820151816005019081610dd89190611d80565b5060c0820151816006015f6101000a81548160ff02191690831515021790555060e08201518160060160016101000a81548160ff021916908315150217905550905050827f6e3e6884964adb64407a317e1009b490e728c9c6340b26bfa8d93a9514c248fd6001604051610e4c9190611f20565b60405180910390a2825f60405180602001604052805f8152509250925092505b9450945094915050565b6040518061010001604052805f80191681526020015f80191681526020015f80191681526020015f81526020015f8152602001606081526020015f151581526020015f151581525090565b6040518060400160405280606081526020015f151581525090565b5f80fd5b5f80fd5b5f819050919050565b610ef681610ee4565b8114610f00575f80fd5b50565b5f81359050610f1181610eed565b92915050565b5f60208284031215610f2c57610f2b610edc565b5b5f610f3984828501610f03565b91505092915050565b610f4b81610ee4565b82525050565b5f819050919050565b610f6381610f51565b82525050565b5f81519050919050565b5f82825260208201905092915050565b5f5b83811015610fa0578082015181840152602081019050610f85565b5f8484015250505050565b5f601f19601f8301169050919050565b5f610fc582610f69565b610fcf8185610f73565b9350610fdf818560208601610f83565b610fe881610fab565b840191505092915050565b5f8115159050919050565b61100781610ff3565b82525050565b5f61010083015f8301516110235f860182610f42565b5060208301516110366020860182610f42565b5060408301516110496040860182610f42565b50606083015161105c6060860182610f5a565b50608083015161106f6080860182610f5a565b5060a083015184820360a08601526110878282610fbb565b91505060c083015161109c60c0860182610ffe565b5060e08301516110af60e0860182610ffe565b508091505092915050565b5f6020820190508181035f8301526110d2818461100d565b905092915050565b5f81519050919050565b5f82825260208201905092915050565b5f6110fe826110da565b61110881856110e4565b9350611118818560208601610f83565b61112181610fab565b840191505092915050565b5f604083015f8301518482035f86015261114682826110f4565b915050602083015161115b6020860182610ffe565b508091505092915050565b5f6020820190508181035f83015261117e818461112c565b905092915050565b5f80fd5b5f80fd5b5f80fd5b5f8083601f8401126111a7576111a6611186565b5b8235905067ffffffffffffffff8111156111c4576111c361118a565b5b6020830191508360018202830111156111e0576111df61118e565b5b9250929050565b5f8083601f8401126111fc576111fb611186565b5b8235905067ffffffffffffffff8111156112195761121861118a565b5b6020830191508360208202830111156112355761123461118e565b5b9250929050565b5f805f806040858703121561125457611253610edc565b5b5f85013567ffffffffffffffff81111561127157611270610ee0565b5b61127d87828801611192565b9450945050602085013567ffffffffffffffff8111156112a05761129f610ee0565b5b6112ac878288016111e7565b925092505092959194509250565b6112c381610ee4565b82525050565b5f6020820190506112dc5f8301846112ba565b92915050565b6112eb81610f51565b81146112f5575f80fd5b50565b5f81359050611306816112e2565b92915050565b5f8083601f84011261132157611320611186565b5b8235905067ffffffffffffffff81111561133e5761133d61118a565b5b60208301915083600182028301111561135a5761135961118e565b5b9250929050565b5f805f806060858703121561137957611378610edc565b5b5f61138687828801610f03565b9450506020611397878288016112f8565b935050604085013567ffffffffffffffff8111156113b8576113b7610ee0565b5b6113c48782880161130c565b925092505092959194509250565b6113db81610f51565b82525050565b5f6020820190506113f45f8301846113d2565b92915050565b5f82825260208201905092915050565b5f61141482610f69565b61141e81856113fa565b935061142e818560208601610f83565b61143781610fab565b840191505092915050565b5f6020820190508181035f83015261145a818461140a565b905092915050565b5f805f806080858703121561147a57611479610edc565b5b5f61148787828801610f03565b945050602061149887828801610f03565b93505060406114a987828801610f03565b92505060606114ba87828801610f03565b91505092959194509250565b6114cf81610ff3565b82525050565b5f6060820190506114e85f8301866112ba565b6114f560208301856114c6565b8181036040830152611507818461140a565b9050949350505050565b5f82825260208201905092915050565b7f4d657267652073657373696f6e20646f6573206e6f74206578697374000000005f82015250565b5f611555601c83611511565b915061156082611521565b602082019050919050565b5f6020820190508181035f83015261158281611549565b9050919050565b7f4e487b71000000000000000000000000000000000000000000000000000000005f52602260045260245ffd5b5f60028204905060018216806115cd57607f821691505b6020821081036115e0576115df611589565b5b50919050565b7f537472617465677920646f6573206e6f742065786973740000000000000000005f82015250565b5f61161a601783611511565b9150611625826115e6565b602082019050919050565b5f6020820190508181035f8301526116478161160e565b9050919050565b5f81905092915050565b828183375f83830152505050565b5f611671838561164e565b935061167e838584611658565b82840190509392505050565b5f611696828486611666565b91508190509392505050565b7f5374726174656779206e616d6520616c726561647920726567697374657265645f82015250565b5f6116d6602083611511565b91506116e1826116a2565b602082019050919050565b5f6020820190508181035f830152611703816116ca565b9050919050565b7f4e487b71000000000000000000000000000000000000000000000000000000005f52601160045260245ffd5b5f61174182610f51565b91507fffffffffffffffffffffffffffffffffffffffffffffffffffffffffffffffff82036117735761177261170a565b5b600182019050919050565b5f819050919050565b61179861179382610f51565b61177e565b82525050565b5f6117aa828688611666565b91506117b68285611787565b6020820191506117c68284611787565b60208201915081905095945050505050565b7f4e487b71000000000000000000000000000000000000000000000000000000005f52604160045260245ffd5b5f819050815f5260205f209050919050565b5f6020601f8301049050919050565b5f82821b905092915050565b5f600883026118617fffffffffffffffffffffffffffffffffffffffffffffffffffffffffffffffff82611826565b61186b8683611826565b95508019841693508086168417925050509392505050565b5f819050919050565b5f6118a66118a161189c84610f51565b611883565b610f51565b9050919050565b5f819050919050565b6118bf8361188c565b6118d36118cb826118ad565b848454611832565b825550505050565b5f90565b6118e76118db565b6118f28184846118b6565b505050565b5b818110156119155761190a5f826118df565b6001810190506118f8565b5050565b601f82111561195a5761192b81611805565b61193484611817565b81016020851015611943578190505b61195761194f85611817565b8301826118f7565b50505b505050565b5f82821c905092915050565b5f61197a5f198460080261195f565b1980831691505092915050565b5f611992838361196b565b9150826002028217905092915050565b6119ab826110da565b67ffffffffffffffff8111156119c4576119c36117d8565b5b6119ce82546115b6565b6119d9828285611919565b5f60209050601f831160018114611a0a575f84156119f8578287015190505b611a028582611987565b865550611a69565b601f198416611a1886611805565b5f5b82811015611a3f57848901518255600182019150602085019450602081019050611a1a565b86831015611a5c5784890151611a58601f89168261196b565b8355505b6001600288020188555050505b505050505050565b5f611a7c8385611511565b9350611a89838584611658565b611a9283610fab565b840190509392505050565b5f6020820190508181035f830152611ab6818486611a71565b90509392505050565b7f4d6572676520616c72656164792066696e616c697a65640000000000000000005f82015250565b5f611af3601783611511565b9150611afe82611abf565b602082019050919050565b5f6020820190508181035f830152611b2081611ae7565b9050919050565b7f436f6e666c69637420696e646578206f7574206f662072616e676500000000005f82015250565b5f611b5b601b83611511565b9150611b6682611b27565b602082019050919050565b5f6020820190508181035f830152611b8881611b4f565b9050919050565b5f82905092915050565b5f819050815f5260205f209050919050565b601f821115611bec57611bbd81611b99565b611bc684611817565b81016020851015611bd5578190505b611be9611be185611817565b8301826118f7565b50505b505050565b611bfb8383611b8f565b67ffffffffffffffff811115611c1457611c136117d8565b5b611c1e82546115b6565b611c29828285611bab565b5f601f831160018114611c56575f8415611c44578287013590505b611c4e8582611987565b865550611cb5565b601f198416611c6486611b99565b5f5b82811015611c8b57848901358255600182019150602085019450602081019050611c66565b86831015611ca85784890135611ca4601f89168261196b565b8355505b6001600288020188555050505b50505050505050565b5f611cc882610f51565b9150611cd383610f51565b9250828203905081811115611ceb57611cea61170a565b5b92915050565b5f604082019050611d045f8301856113d2565b611d1160208301846113d2565b9392505050565b7f556e7265736f6c76656420636f6e666c696374732072656d61696e00000000005f82015250565b5f611d4c601b83611511565b9150611d5782611d18565b602082019050919050565b5f6020820190508181035f830152611d7981611d40565b9050919050565b611d8982610f69565b67ffffffffffffffff811115611da257611da16117d8565b5b611dac82546115b6565b611db7828285611bab565b5f60209050601f831160018114611de8575f8415611dd6578287015190505b611de08582611987565b865550611e47565b601f198416611df686611b99565b5f5b82811015611e1d57848901518255600182019150602085019450602081019050611df8565b86831015611e3a5784890151611e36601f89168261196b565b8355505b6001600288020188555050505b505050505050565b5f819050919050565b611e69611e6482610ee4565b611e4f565b82525050565b5f611e7a8288611e58565b602082019150611e8a8287611e58565b602082019150611e9a8286611e58565b602082019150611eaa8285611787565b602082019150611eba8284611787565b6020820191508190509695505050505050565b5f611ed88284611e58565b60208201915081905092915050565b5f819050919050565b5f611f0a611f05611f0084611ee7565b611883565b610f51565b9050919050565b611f1a81611ef0565b82525050565b5f602082019050611f335f830184611f11565b9291505056fea26469706673582212202525ec985d0885a7e2b83b84ff1c493921674352c500879140e7c04a0aa47e6864736f6c63430008140033","linkReferences":{}},"methodIdentifiers":{"finalize(bytes32)":"92584d80","getMergeSession(bytes32)":"27c05c67","getStrategy(bytes32)":"28c84bbd","merge(bytes32,bytes32,bytes32,bytes32)":"fd7bad29","registerStrategy(string,string[])":"7a0ab7c9","resolveConflict(bytes32,uint256,bytes)":"7d7b2c23"},"id":169}