{"abi":[{"type":"function","name":"classifiedFields","inputs":[{"name":"interactor","type":"bytes32","internalType":"bytes32"}],"outputs":[{"name":"","type":"tuple","internalType":"struct InteractorEntity.ClassifiedFieldsOkResult","components":[{"name":"success","type":"bool","internalType":"bool"},{"name":"fields","type":"string","internalType":"string"}]}],"stateMutability":"nonpayable"},{"type":"function","name":"coverageReport","inputs":[],"outputs":[{"name":"","type":"tuple","internalType":"struct InteractorEntity.CoverageReportOkResult","components":[{"name":"success","type":"bool","internalType":"bool"},{"name":"report","type":"string","internalType":"string"}]}],"stateMutability":"nonpayable"},{"type":"function","name":"findByCategory","inputs":[{"name":"category","type":"string","internalType":"string"}],"outputs":[{"name":"","type":"tuple","internalType":"struct InteractorEntity.FindByCategoryOkResult","components":[{"name":"success","type":"bool","internalType":"bool"},{"name":"interactors","type":"string","internalType":"string"}]}],"stateMutability":"nonpayable"},{"type":"function","name":"get","inputs":[{"name":"interactor","type":"bytes32","internalType":"bytes32"}],"outputs":[{"name":"","type":"tuple","internalType":"struct InteractorEntity.GetOkResult","components":[{"name":"success","type":"bool","internalType":"bool"},{"name":"interactor","type":"bytes32","internalType":"bytes32"},{"name":"name","type":"string","internalType":"string"},{"name":"category","type":"string","internalType":"string"},{"name":"properties","type":"string","internalType":"string"}]}],"stateMutability":"nonpayable"},{"type":"function","name":"matchingWidgets","inputs":[{"name":"interactor","type":"bytes32","internalType":"bytes32"},{"name":"context","type":"string","internalType":"string"}],"outputs":[{"name":"","type":"tuple","internalType":"struct InteractorEntity.MatchingWidgetsOkResult","components":[{"name":"success","type":"bool","internalType":"bool"},{"name":"widgets","type":"string","internalType":"string"}]}],"stateMutability":"nonpayable"},{"type":"function","name":"register","inputs":[{"name":"name","type":"string","internalType":"string"},{"name":"category","type":"string","internalType":"string"},{"name":"properties","type":"string","internalType":"string"}],"outputs":[{"name":"","type":"tuple","internalType":"struct InteractorEntity.RegisterOkResult","components":[{"name":"success","type":"bool","internalType":"bool"},{"name":"entity","type":"bytes32","internalType":"bytes32"}]}],"stateMutability":"nonpayable"},{"type":"event","name":"ClassifiedFieldsCompleted","inputs":[{"name":"variant","type":"string","indexed":false,"internalType":"string"}],"anonymous":false},{"type":"event","name":"CoverageReportCompleted","inputs":[{"name":"variant","type":"string","indexed":false,"internalType":"string"}],"anonymous":false},{"type":"event","name":"FindByCategoryCompleted","inputs":[{"name":"variant","type":"string","indexed":false,"internalType":"string"}],"anonymous":false},{"type":"event","name":"GetCompleted","inputs":[{"name":"variant","type":"string","indexed":false,"internalType":"string"},{"name":"interactor","type":"bytes32","indexed":false,"internalType":"bytes32"}],"anonymous":false},{"type":"event","name":"MatchingWidgetsCompleted","inputs":[{"name":"variant","type":"string","indexed":false,"internalType":"string"}],"anonymous":false},{"type":"event","name":"RegisterCompleted","inputs":[{"name":"variant","type":"string","indexed":false,"internalType":"string"},{"name":"entity","type":"bytes32","indexed":false,"internalType":"bytes32"}],"anonymous":false}],"bytecode":{"object":"0x608060405234801561000f575f80fd5b50611abc8061001d5f395ff3fe608060405234801561000f575f80fd5b5060043610610060575f3560e01c80632ac89939146100645780634cd08d03146100825780638eaa6ac0146100b2578063a2199a54146100e2578063a48ed3af14610112578063c674471814610142575b5f80fd5b61006c610172565b6040516100799190610cdd565b60405180910390f35b61009c60048036038101906100979190610e3a565b6101fd565b6040516100a99190610f23565b60405180910390f35b6100cc60048036038101906100c79190610f66565b61048c565b6040516100d99190611012565b60405180910390f35b6100fc60048036038101906100f79190611032565b61070c565b60405161010991906110b3565b60405180910390f35b61012c600480360381019061012791906110d3565b610858565b6040516101399190611167565b60405180910390f35b61015c60048036038101906101579190610f66565b610922565b60405161016991906111c1565b60405180910390f35b61017a610b44565b5f6101896001805490506109eb565b6040516020016101999190611265565b60405160208183030381529060405290507f431d29643329de9990e43df55db9cb5d48d19a8779524d520a0dbda671bbd0d76040516101d7906112e0565b60405180910390a160405180604001604052806001151581526020018281525091505090565b610205610b5f565b5f845111610248576040517f08c379a000000000000000000000000000000000000000000000000000000000815260040161023f90611348565b60405180910390fd5b5f83511161028b576040517f08c379a0000000000000000000000000000000000000000000000000000000008152600401610282906113b0565b60405180910390fd5b5f848460405160200161029f9291906113ce565b6040516020818303038152906040528051906020012090505f808281526020019081526020015f206003015f9054906101000a900460ff1615610317576040517f08c379a000000000000000000000000000000000000000000000000000000000815260040161030e9061143b565b60405180910390fd5b6040518060800160405280868152602001858152602001848152602001600115158152505f808381526020019081526020015f205f820151815f01908161035e919061165c565b506020820151816001019081610374919061165c565b50604082015181600201908161038a919061165c565b506060820151816003015f6101000a81548160ff021916908315150217905550905050600181908060018154018082558091505060019003905f5260205f20015f90919091909150555f846040516020016103e5919061172b565b60405160208183030381529060405280519060200120905060025f8281526020019081526020015f2082908060018154018082558091505060019003905f5260205f20015f90919091909150557f0402c886f5c1bb50afb826d1767a153123631152c678fbec8089e9e8ee3e49bf826040516104619190611750565b60405180910390a1604051806040016040528060011515815260200183815250925050509392505050565b610494610b7c565b5f808381526020019081526020015f206003015f9054906101000a900460ff166104f3576040517f08c379a00000000000000000000000000000000000000000000000000000000081526004016104ea906117c6565b60405180910390fd5b5f805f8481526020019081526020015f2090507fd45fe45dbfb310b00d5db432aa35f96282e16a8bb204b349e334de2cd5566f34836040516105359190611750565b60405180910390a16040518060a00160405280600115158152602001848152602001825f01805461056590611486565b80601f016020809104026020016040519081016040528092919081815260200182805461059190611486565b80156105dc5780601f106105b3576101008083540402835291602001916105dc565b820191905f5260205f20905b8154815290600101906020018083116105bf57829003601f168201915b505050505081526020018260010180546105f590611486565b80601f016020809104026020016040519081016040528092919081815260200182805461062190611486565b801561066c5780601f106106435761010080835404028352916020019161066c565b820191905f5260205f20905b81548152906001019060200180831161064f57829003601f168201915b5050505050815260200182600201805461068590611486565b80601f01602080910402602001604051908101604052809291908181526020018280546106b190611486565b80156106fc5780601f106106d3576101008083540402835291602001916106fc565b820191905f5260205f20905b8154815290600101906020018083116106df57829003601f168201915b5050505050815250915050919050565b610714610bae565b5f82604051602001610726919061172b565b6040516020818303038152906040528051906020012090505f60025f8381526020019081526020015f2090505f60405180602001604052805f81525090505f5b8280549050811015610800575f81111561079d578160405160200161078b919061182e565b60405160208183030381529060405291505b815f808584815481106107b3576107b261184f565b5b905f5260205f20015481526020019081526020015f205f016040516020016107dc9291906118fc565b604051602081830303815290604052915080806107f89061194c565b915050610766565b507f61d2b86a230e8e85bb17151d4d05d0b979561d2b195f4eb1e6a15d0869db318760405161082e906112e0565b60405180910390a16040518060400160405280600115158152602001828152509350505050919050565b610860610bc9565b5f808481526020019081526020015f206003015f9054906101000a900460ff166108bf576040517f08c379a00000000000000000000000000000000000000000000000000000000081526004016108b6906117c6565b60405180910390fd5b7f4bc7beb2fbc1317c9d4e281ba1cf7ab0b6d8ab2059052752412c9b619d0768ed6040516108ec906112e0565b60405180910390a1604051806040016040528060011515815260200160405180602001604052805f815250815250905092915050565b61092a610be4565b5f808381526020019081526020015f206003015f9054906101000a900460ff16610989576040517f08c379a0000000000000000000000000000000000000000000000000000000008152600401610980906117c6565b60405180910390fd5b7f8aa7f58e9b3951256af59b16fa7f77d0f103203848438fcd48eaab5179954e136040516109b6906112e0565b60405180910390a1604051806040016040528060011515815260200160405180602001604052805f8152508152509050919050565b60605f8203610a31576040518060400160405280600181526020017f30000000000000000000000000000000000000000000000000000000000000008152509050610b3f565b5f8290505f5b5f8214610a60578080610a499061194c565b915050600a82610a5991906119c0565b9150610a37565b5f8167ffffffffffffffff811115610a7b57610a7a610d16565b5b6040519080825280601f01601f191660200182016040528015610aad5781602001600182028036833780820191505090505b5090505b5f8514610b3857600182610ac591906119f0565b9150600a85610ad49190611a23565b6030610ae09190611a53565b60f81b818381518110610af657610af561184f565b5b60200101907effffffffffffffffffffffffffffffffffffffffffffffffffffffffffffff191690815f1a905350600a85610b3191906119c0565b9450610ab1565b8093505050505b919050565b60405180604001604052805f15158152602001606081525090565b60405180604001604052805f151581526020015f80191681525090565b6040518060a001604052805f151581526020015f80191681526020016060815260200160608152602001606081525090565b60405180604001604052805f15158152602001606081525090565b60405180604001604052805f15158152602001606081525090565b60405180604001604052805f15158152602001606081525090565b5f8115159050919050565b610c1381610bff565b82525050565b5f81519050919050565b5f82825260208201905092915050565b5f5b83811015610c50578082015181840152602081019050610c35565b5f8484015250505050565b5f601f19601f8301169050919050565b5f610c7582610c19565b610c7f8185610c23565b9350610c8f818560208601610c33565b610c9881610c5b565b840191505092915050565b5f604083015f830151610cb85f860182610c0a565b5060208301518482036020860152610cd08282610c6b565b9150508091505092915050565b5f6020820190508181035f830152610cf58184610ca3565b905092915050565b5f604051905090565b5f80fd5b5f80fd5b5f80fd5b5f80fd5b7f4e487b71000000000000000000000000000000000000000000000000000000005f52604160045260245ffd5b610d4c82610c5b565b810181811067ffffffffffffffff82111715610d6b57610d6a610d16565b5b80604052505050565b5f610d7d610cfd565b9050610d898282610d43565b919050565b5f67ffffffffffffffff821115610da857610da7610d16565b5b610db182610c5b565b9050602081019050919050565b828183375f83830152505050565b5f610dde610dd984610d8e565b610d74565b905082815260208101848484011115610dfa57610df9610d12565b5b610e05848285610dbe565b509392505050565b5f82601f830112610e2157610e20610d0e565b5b8135610e31848260208601610dcc565b91505092915050565b5f805f60608486031215610e5157610e50610d06565b5b5f84013567ffffffffffffffff811115610e6e57610e6d610d0a565b5b610e7a86828701610e0d565b935050602084013567ffffffffffffffff811115610e9b57610e9a610d0a565b5b610ea786828701610e0d565b925050604084013567ffffffffffffffff811115610ec857610ec7610d0a565b5b610ed486828701610e0d565b9150509250925092565b5f819050919050565b610ef081610ede565b82525050565b604082015f820151610f0a5f850182610c0a565b506020820151610f1d6020850182610ee7565b50505050565b5f604082019050610f365f830184610ef6565b92915050565b610f4581610ede565b8114610f4f575f80fd5b50565b5f81359050610f6081610f3c565b92915050565b5f60208284031215610f7b57610f7a610d06565b5b5f610f8884828501610f52565b91505092915050565b5f60a083015f830151610fa65f860182610c0a565b506020830151610fb96020860182610ee7565b5060408301518482036040860152610fd18282610c6b565b91505060608301518482036060860152610feb8282610c6b565b915050608083015184820360808601526110058282610c6b565b9150508091505092915050565b5f6020820190508181035f83015261102a8184610f91565b905092915050565b5f6020828403121561104757611046610d06565b5b5f82013567ffffffffffffffff81111561106457611063610d0a565b5b61107084828501610e0d565b91505092915050565b5f604083015f83015161108e5f860182610c0a565b50602083015184820360208601526110a68282610c6b565b9150508091505092915050565b5f6020820190508181035f8301526110cb8184611079565b905092915050565b5f80604083850312156110e9576110e8610d06565b5b5f6110f685828601610f52565b925050602083013567ffffffffffffffff81111561111757611116610d0a565b5b61112385828601610e0d565b9150509250929050565b5f604083015f8301516111425f860182610c0a565b506020830151848203602086015261115a8282610c6b565b9150508091505092915050565b5f6020820190508181035f83015261117f818461112d565b905092915050565b5f604083015f83015161119c5f860182610c0a565b50602083015184820360208601526111b48282610c6b565b9150508091505092915050565b5f6020820190508181035f8301526111d98184611187565b905092915050565b5f81905092915050565b7f746f74616c3a00000000000000000000000000000000000000000000000000005f82015250565b5f61121f6006836111e1565b915061122a826111eb565b600682019050919050565b5f61123f82610c19565b61124981856111e1565b9350611259818560208601610c33565b80840191505092915050565b5f61126f82611213565b915061127b8284611235565b915081905092915050565b5f82825260208201905092915050565b7f6f6b0000000000000000000000000000000000000000000000000000000000005f82015250565b5f6112ca600283611286565b91506112d582611296565b602082019050919050565b5f6020820190508181035f8301526112f7816112be565b9050919050565b7f4e616d65206d757374206e6f7420626520656d707479000000000000000000005f82015250565b5f611332601683611286565b915061133d826112fe565b602082019050919050565b5f6020820190508181035f83015261135f81611326565b9050919050565b7f43617465676f7279206d757374206e6f7420626520656d7074790000000000005f82015250565b5f61139a601a83611286565b91506113a582611366565b602082019050919050565b5f6020820190508181035f8301526113c78161138e565b9050919050565b5f6113d98285611235565b91506113e58284611235565b91508190509392505050565b7f496e7465726163746f7220616c726561647920726567697374657265640000005f82015250565b5f611425601d83611286565b9150611430826113f1565b602082019050919050565b5f6020820190508181035f83015261145281611419565b9050919050565b7f4e487b71000000000000000000000000000000000000000000000000000000005f52602260045260245ffd5b5f600282049050600182168061149d57607f821691505b6020821081036114b0576114af611459565b5b50919050565b5f819050815f5260205f209050919050565b5f6020601f8301049050919050565b5f82821b905092915050565b5f600883026115127fffffffffffffffffffffffffffffffffffffffffffffffffffffffffffffffff826114d7565b61151c86836114d7565b95508019841693508086168417925050509392505050565b5f819050919050565b5f819050919050565b5f61156061155b61155684611534565b61153d565b611534565b9050919050565b5f819050919050565b61157983611546565b61158d61158582611567565b8484546114e3565b825550505050565b5f90565b6115a1611595565b6115ac818484611570565b505050565b5b818110156115cf576115c45f82611599565b6001810190506115b2565b5050565b601f821115611614576115e5816114b6565b6115ee846114c8565b810160208510156115fd578190505b611611611609856114c8565b8301826115b1565b50505b505050565b5f82821c905092915050565b5f6116345f1984600802611619565b1980831691505092915050565b5f61164c8383611625565b9150826002028217905092915050565b61166582610c19565b67ffffffffffffffff81111561167e5761167d610d16565b5b6116888254611486565b6116938282856115d3565b5f60209050601f8311600181146116c4575f84156116b2578287015190505b6116bc8582611641565b865550611723565b601f1984166116d2866114b6565b5f5b828110156116f9578489015182556001820191506020850194506020810190506116d4565b868310156117165784890151611712601f891682611625565b8355505b6001600288020188555050505b505050505050565b5f6117368284611235565b915081905092915050565b61174a81610ede565b82525050565b5f6040820190508181035f830152611767816112be565b90506117766020830184611741565b92915050565b7f496e7465726163746f72206e6f7420666f756e640000000000000000000000005f82015250565b5f6117b0601483611286565b91506117bb8261177c565b602082019050919050565b5f6020820190508181035f8301526117dd816117a4565b9050919050565b7f2c000000000000000000000000000000000000000000000000000000000000005f82015250565b5f6118186001836111e1565b9150611823826117e4565b600182019050919050565b5f6118398284611235565b91506118448261180c565b915081905092915050565b7f4e487b71000000000000000000000000000000000000000000000000000000005f52603260045260245ffd5b5f815461188881611486565b61189281866111e1565b9450600182165f81146118ac57600181146118c1576118f3565b60ff19831686528115158202860193506118f3565b6118ca856114b6565b5f5b838110156118eb578154818901526001820191506020810190506118cc565b838801955050505b50505092915050565b5f6119078285611235565b9150611913828461187c565b91508190509392505050565b7f4e487b71000000000000000000000000000000000000000000000000000000005f52601160045260245ffd5b5f61195682611534565b91507fffffffffffffffffffffffffffffffffffffffffffffffffffffffffffffffff82036119885761198761191f565b5b600182019050919050565b7f4e487b71000000000000000000000000000000000000000000000000000000005f52601260045260245ffd5b5f6119ca82611534565b91506119d583611534565b9250826119e5576119e4611993565b5b828204905092915050565b5f6119fa82611534565b9150611a0583611534565b9250828203905081811115611a1d57611a1c61191f565b5b92915050565b5f611a2d82611534565b9150611a3883611534565b925082611a4857611a47611993565b5b828206905092915050565b5f611a5d82611534565b9150611a6883611534565b9250828201905080821115611a8057611a7f61191f565b5b9291505056fea2646970667358221220a9bc020fdffdee908bc8dbe30ec8269a3ac6b073633e4ae22b13872b415bb98564736f6c63430008140033","linkReferences":{}},"methodIdentifiers":{"classifiedFields(bytes32)":"c6744718","coverageReport()":"2ac89939","findByCategory(string)":"a2199a54","get(bytes32)":"8eaa6ac0","matchingWidgets(bytes32,string)":"a48ed3af","register(string,string,string)":"4cd08d03"},"id":151}