{"abi":[{"type":"function","name":"deleteContent","inputs":[{"name":"hash","type":"bytes32","internalType":"bytes32"}],"outputs":[],"stateMutability":"nonpayable"},{"type":"function","name":"exists","inputs":[{"name":"hash","type":"bytes32","internalType":"bytes32"}],"outputs":[{"name":"","type":"bool","internalType":"bool"}],"stateMutability":"view"},{"type":"function","name":"getCreated","inputs":[{"name":"hash","type":"bytes32","internalType":"bytes32"}],"outputs":[{"name":"","type":"uint256","internalType":"uint256"}],"stateMutability":"view"},{"type":"function","name":"getSize","inputs":[{"name":"hash","type":"bytes32","internalType":"bytes32"}],"outputs":[{"name":"","type":"uint256","internalType":"uint256"}],"stateMutability":"view"},{"type":"function","name":"retrieve","inputs":[{"name":"hash","type":"bytes32","internalType":"bytes32"}],"outputs":[{"name":"content","type":"bytes","internalType":"bytes"}],"stateMutability":"view"},{"type":"function","name":"store","inputs":[{"name":"content","type":"bytes","internalType":"bytes"}],"outputs":[{"name":"hash","type":"bytes32","internalType":"bytes32"},{"name":"isNew","type":"bool","internalType":"bool"}],"stateMutability":"nonpayable"},{"type":"function","name":"verify","inputs":[{"name":"hash","type":"bytes32","internalType":"bytes32"},{"name":"content","type":"bytes","internalType":"bytes"}],"outputs":[{"name":"valid","type":"bool","internalType":"bool"}],"stateMutability":"nonpayable"},{"type":"event","name":"AlreadyExists","inputs":[{"name":"hash","type":"bytes32","indexed":true,"internalType":"bytes32"}],"anonymous":false},{"type":"event","name":"Deleted","inputs":[{"name":"hash","type":"bytes32","indexed":true,"internalType":"bytes32"}],"anonymous":false},{"type":"event","name":"Stored","inputs":[{"name":"hash","type":"bytes32","indexed":true,"internalType":"bytes32"},{"name":"size","type":"uint256","indexed":false,"internalType":"uint256"}],"anonymous":false},{"type":"event","name":"Verified","inputs":[{"name":"hash","type":"bytes32","indexed":true,"internalType":"bytes32"},{"name":"valid","type":"bool","indexed":false,"internalType":"bool"}],"anonymous":false}],"bytecode":{"object":"0x608060405234801561000f575f80fd5b50610daf8061001d5f395ff3fe608060405234801561000f575f80fd5b506004361061007b575f3560e01c80633ec6dac2116100595780633ec6dac21461010f578063b374012b1461013f578063bcc292c814610170578063d1ed74ad1461018c5761007b565b8063258ae5821461007f57806335ad208f146100af57806338a699a4146100df575b5f80fd5b61009960048036038101906100949190610798565b6101bc565b6040516100a6919061080f565b60405180910390f35b6100c960048036038101906100c49190610828565b610275565b6040516100d6919061086b565b60405180910390f35b6100f960048036038101906100f49190610828565b6102ec565b604051610106919061080f565b60405180910390f35b61012960048036038101906101249190610828565b610312565b604051610136919061086b565b60405180910390f35b61015960048036038101906101549190610884565b610389565b6040516101679291906108de565b60405180910390f35b61018a60048036038101906101859190610828565b6104c1565b005b6101a660048036038101906101a19190610828565b6105a7565b6040516101b3919061098f565b60405180910390f35b5f60015f8581526020019081526020015f205f9054906101000a900460ff1661021a576040517f08c379a000000000000000000000000000000000000000000000000000000000815260040161021190610a09565b60405180910390fd5b83838360405161022b929190610a63565b6040518091039020149050837f75bbe3d2c6a902c6ac7e4700381b071401fa13d9067ed7b7b8e7bb821dfecf0082604051610266919061080f565b60405180910390a29392505050565b5f60015f8381526020019081526020015f205f9054906101000a900460ff166102d3576040517f08c379a00000000000000000000000000000000000000000000000000000000081526004016102ca90610a09565b60405180910390fd5b60035f8381526020019081526020015f20549050919050565b5f60015f8381526020019081526020015f205f9054906101000a900460ff169050919050565b5f60015f8381526020019081526020015f205f9054906101000a900460ff16610370576040517f08c379a000000000000000000000000000000000000000000000000000000000815260040161036790610a09565b60405180910390fd5b60025f8381526020019081526020015f20549050919050565b5f80838360405161039b929190610a63565b6040518091039020915060015f8381526020019081526020015f205f9054906101000a900460ff161561040057817f129bcbc4b8e04bb872aebe178cc0201174ffe0cfe59338aed385ce016a6b122860405160405180910390a2815f915091506104ba565b83835f808581526020019081526020015f20918261041f929190610cac565b506001805f8481526020019081526020015f205f6101000a81548160ff0219169083151502179055508383905060025f8481526020019081526020015f20819055504260035f8481526020019081526020015f2081905550817fde02b1ac594e3d12f3797b91ed3e93213c5fcb9a6963fe4003c2fc8287e67c31858590506040516104aa919061086b565b60405180910390a2816001915091505b9250929050565b60015f8281526020019081526020015f205f9054906101000a900460ff1661051e576040517f08c379a000000000000000000000000000000000000000000000000000000000815260040161051590610a09565b60405180910390fd5b5f808281526020019081526020015f205f61053991906106a4565b5f60015f8381526020019081526020015f205f6101000a81548160ff0219169083151502179055505f60025f8381526020019081526020015f2081905550807f5c098fc6091f34b53be138bd13af35c3082d14080fd720c188e0db7a5082047360405160405180910390a250565b606060015f8381526020019081526020015f205f9054906101000a900460ff16610606576040517f08c379a00000000000000000000000000000000000000000000000000000000081526004016105fd90610a09565b60405180910390fd5b5f808381526020019081526020015f20805461062190610adf565b80601f016020809104026020016040519081016040528092919081815260200182805461064d90610adf565b80156106985780601f1061066f57610100808354040283529160200191610698565b820191905f5260205f20905b81548152906001019060200180831161067b57829003601f168201915b50505050509050919050565b5080546106b090610adf565b5f825580601f106106c157506106de565b601f0160209004905f5260205f20908101906106dd91906106e1565b5b50565b5b808211156106f8575f815f9055506001016106e2565b5090565b5f80fd5b5f80fd5b5f819050919050565b61071681610704565b8114610720575f80fd5b50565b5f813590506107318161070d565b92915050565b5f80fd5b5f80fd5b5f80fd5b5f8083601f84011261075857610757610737565b5b8235905067ffffffffffffffff8111156107755761077461073b565b5b6020830191508360018202830111156107915761079061073f565b5b9250929050565b5f805f604084860312156107af576107ae6106fc565b5b5f6107bc86828701610723565b935050602084013567ffffffffffffffff8111156107dd576107dc610700565b5b6107e986828701610743565b92509250509250925092565b5f8115159050919050565b610809816107f5565b82525050565b5f6020820190506108225f830184610800565b92915050565b5f6020828403121561083d5761083c6106fc565b5b5f61084a84828501610723565b91505092915050565b5f819050919050565b61086581610853565b82525050565b5f60208201905061087e5f83018461085c565b92915050565b5f806020838503121561089a576108996106fc565b5b5f83013567ffffffffffffffff8111156108b7576108b6610700565b5b6108c385828601610743565b92509250509250929050565b6108d881610704565b82525050565b5f6040820190506108f15f8301856108cf565b6108fe6020830184610800565b9392505050565b5f81519050919050565b5f82825260208201905092915050565b5f5b8381101561093c578082015181840152602081019050610921565b5f8484015250505050565b5f601f19601f8301169050919050565b5f61096182610905565b61096b818561090f565b935061097b81856020860161091f565b61098481610947565b840191505092915050565b5f6020820190508181035f8301526109a78184610957565b905092915050565b5f82825260208201905092915050565b7f436f6e74656e74206e6f7420666f756e640000000000000000000000000000005f82015250565b5f6109f36011836109af565b91506109fe826109bf565b602082019050919050565b5f6020820190508181035f830152610a20816109e7565b9050919050565b5f81905092915050565b828183375f83830152505050565b5f610a4a8385610a27565b9350610a57838584610a31565b82840190509392505050565b5f610a6f828486610a3f565b91508190509392505050565b5f82905092915050565b7f4e487b71000000000000000000000000000000000000000000000000000000005f52604160045260245ffd5b7f4e487b71000000000000000000000000000000000000000000000000000000005f52602260045260245ffd5b5f6002820490506001821680610af657607f821691505b602082108103610b0957610b08610ab2565b5b50919050565b5f819050815f5260205f209050919050565b5f6020601f8301049050919050565b5f82821b905092915050565b5f60088302610b6b7fffffffffffffffffffffffffffffffffffffffffffffffffffffffffffffffff82610b30565b610b758683610b30565b95508019841693508086168417925050509392505050565b5f819050919050565b5f610bb0610bab610ba684610853565b610b8d565b610853565b9050919050565b5f819050919050565b610bc983610b96565b610bdd610bd582610bb7565b848454610b3c565b825550505050565b5f90565b610bf1610be5565b610bfc818484610bc0565b505050565b5b81811015610c1f57610c145f82610be9565b600181019050610c02565b5050565b601f821115610c6457610c3581610b0f565b610c3e84610b21565b81016020851015610c4d578190505b610c61610c5985610b21565b830182610c01565b50505b505050565b5f82821c905092915050565b5f610c845f1984600802610c69565b1980831691505092915050565b5f610c9c8383610c75565b9150826002028217905092915050565b610cb68383610a7b565b67ffffffffffffffff811115610ccf57610cce610a85565b5b610cd98254610adf565b610ce4828285610c23565b5f601f831160018114610d11575f8415610cff578287013590505b610d098582610c91565b865550610d70565b601f198416610d1f86610b0f565b5f5b82811015610d4657848901358255600182019150602085019450602081019050610d21565b86831015610d635784890135610d5f601f891682610c75565b8355505b6001600288020188555050505b5050505050505056fea26469706673582212208f41259057990e35dd0d715fae000b121f1dae7388875f43eeec74f11e6121ab64736f6c63430008140033","linkReferences":{}},"methodIdentifiers":{"deleteContent(bytes32)":"bcc292c8","exists(bytes32)":"38a699a4","getCreated(bytes32)":"35ad208f","getSize(bytes32)":"3ec6dac2","retrieve(bytes32)":"d1ed74ad","store(bytes)":"b374012b","verify(bytes32,bytes)":"258ae582"},"id":78}