{"abi":[{"type":"function","name":"assignRole","inputs":[{"name":"palette","type":"bytes32","internalType":"bytes32"},{"name":"role","type":"string","internalType":"string"}],"outputs":[{"name":"","type":"tuple","internalType":"struct Palette.AssignRoleOkResult","components":[{"name":"success","type":"bool","internalType":"bool"},{"name":"palette","type":"bytes32","internalType":"bytes32"}]}],"stateMutability":"nonpayable"},{"type":"function","name":"checkContrast","inputs":[{"name":"foreground","type":"bytes32","internalType":"bytes32"},{"name":"background","type":"bytes32","internalType":"bytes32"}],"outputs":[{"name":"","type":"tuple","internalType":"struct Palette.CheckContrastOkResult","components":[{"name":"success","type":"bool","internalType":"bool"},{"name":"ratio","type":"uint256","internalType":"uint256"},{"name":"passesAA","type":"bool","internalType":"bool"},{"name":"passesAAA","type":"bool","internalType":"bool"}]}],"stateMutability":"nonpayable"},{"type":"function","name":"generate","inputs":[{"name":"palette","type":"bytes32","internalType":"bytes32"},{"name":"name","type":"string","internalType":"string"},{"name":"seed","type":"string","internalType":"string"}],"outputs":[{"name":"","type":"tuple","internalType":"struct Palette.GenerateOkResult","components":[{"name":"success","type":"bool","internalType":"bool"},{"name":"palette","type":"bytes32","internalType":"bytes32"},{"name":"scale","type":"string","internalType":"string"}]}],"stateMutability":"nonpayable"},{"type":"event","name":"AssignRoleCompleted","inputs":[{"name":"variant","type":"string","indexed":false,"internalType":"string"},{"name":"palette","type":"bytes32","indexed":true,"internalType":"bytes32"}],"anonymous":false},{"type":"event","name":"CheckContrastCompleted","inputs":[{"name":"variant","type":"string","indexed":false,"internalType":"string"},{"name":"ratio","type":"uint256","indexed":false,"internalType":"uint256"},{"name":"passesAA","type":"bool","indexed":false,"internalType":"bool"},{"name":"passesAAA","type":"bool","indexed":false,"internalType":"bool"}],"anonymous":false},{"type":"event","name":"GenerateCompleted","inputs":[{"name":"variant","type":"string","indexed":false,"internalType":"string"},{"name":"palette","type":"bytes32","indexed":true,"internalType":"bytes32"}],"anonymous":false}],"bytecode":{"object":"0x608060405234801561000f575f80fd5b506116538061001d5f395ff3fe608060405234801561000f575f80fd5b506004361061003f575f3560e01c80635600bef51461004357806380bb8cf2146100735780638451c23c146100a3575b5f80fd5b61005d600480360381019061005891906107e2565b6100d3565b60405161006a919061095a565b60405180910390f35b61008d6004803603810190610088919061097a565b61031e565b60405161009a9190610a01565b60405180910390f35b6100bd60048036038101906100b89190610a1a565b61043d565b6040516100ca9190610ac3565b60405180910390f35b6100db6105f7565b60015f8581526020019081526020015f205f9054906101000a900460ff1615610139576040517f08c379a000000000000000000000000000000000000000000000000000000000815260040161013090610b36565b60405180910390fd5b5f83511161017c576040517f08c379a000000000000000000000000000000000000000000000000000000000815260040161017390610b9e565b60405180910390fd5b5f8251116101bf576040517f08c379a00000000000000000000000000000000000000000000000000000000081526004016101b690610c06565b60405180910390fd5b5f83838585878789896040516020016101df989796959493929190610eae565b60405160208183030381529060405290506040518060a0016040528085815260200184815260200182815260200160405180602001604052805f8152508152602001428152505f808781526020019081526020015f205f820151815f0190816102489190611171565b50602082015181600101908161025e9190611171565b5060408201518160020190816102749190611171565b50606082015181600301908161028a9190611171565b50608082015181600401559050506001805f8781526020019081526020015f205f6101000a81548160ff021916908315150217905550847f0fd47883588af6121dd6816123cbebc8a6652dcbf34f3cbccbcf5c0743dca4b36040516102ee9061128a565b60405180910390a26040518060600160405280600115158152602001868152602001828152509150509392505050565b61032661061b565b60015f8481526020019081526020015f205f9054906101000a900460ff16610383576040517f08c379a000000000000000000000000000000000000000000000000000000000815260040161037a906112f2565b60405180910390fd5b5f8251116103c6576040517f08c379a00000000000000000000000000000000000000000000000000000000081526004016103bd9061135a565b60405180910390fd5b815f808581526020019081526020015f2060030190816103e69190611171565b50827fd39e9b90f33325883b50cadfd231e70eae69a83ab03ae6ace1ee8673e1b1a81d6040516104159061128a565b60405180910390a2604051806040016040528060011515815260200184815250905092915050565b610445610638565b60015f8481526020019081526020015f205f9054906101000a900460ff166104a2576040517f08c379a0000000000000000000000000000000000000000000000000000000008152600401610499906113c2565b60405180910390fd5b60015f8381526020019081526020015f205f9054906101000a900460ff166104ff576040517f08c379a00000000000000000000000000000000000000000000000000000000081526004016104f69061142a565b60405180910390fd5b5f805f8581526020019081526020015f2060010160405161052091906114e4565b60405180910390205f1c90505f805f8581526020019081526020015f2060010160405161054d91906114e4565b60405180910390205f1c90505f600a60c883851861056b9190611527565b6105759190611584565b90505f602d82101590505f604683101590507f9af764eb4f62b3fa8757c33af6f5a449e51ce058fb5732e146ef5c98e4f9f01e8383836040516105ba939291906115d5565b60405180910390a1604051806080016040528060011515815260200184815260200183151581526020018215158152509550505050505092915050565b60405180606001604052805f151581526020015f8019168152602001606081525090565b60405180604001604052805f151581526020015f80191681525090565b60405180608001604052805f151581526020015f81526020015f151581526020015f151581525090565b5f604051905090565b5f80fd5b5f80fd5b5f819050919050565b61068581610673565b811461068f575f80fd5b50565b5f813590506106a08161067c565b92915050565b5f80fd5b5f80fd5b5f601f19601f8301169050919050565b7f4e487b71000000000000000000000000000000000000000000000000000000005f52604160045260245ffd5b6106f4826106ae565b810181811067ffffffffffffffff82111715610713576107126106be565b5b80604052505050565b5f610725610662565b905061073182826106eb565b919050565b5f67ffffffffffffffff8211156107505761074f6106be565b5b610759826106ae565b9050602081019050919050565b828183375f83830152505050565b5f61078661078184610736565b61071c565b9050828152602081018484840111156107a2576107a16106aa565b5b6107ad848285610766565b509392505050565b5f82601f8301126107c9576107c86106a6565b5b81356107d9848260208601610774565b91505092915050565b5f805f606084860312156107f9576107f861066b565b5b5f61080686828701610692565b935050602084013567ffffffffffffffff8111156108275761082661066f565b5b610833868287016107b5565b925050604084013567ffffffffffffffff8111156108545761085361066f565b5b610860868287016107b5565b9150509250925092565b5f8115159050919050565b61087e8161086a565b82525050565b61088d81610673565b82525050565b5f81519050919050565b5f82825260208201905092915050565b5f5b838110156108ca5780820151818401526020810190506108af565b5f8484015250505050565b5f6108df82610893565b6108e9818561089d565b93506108f98185602086016108ad565b610902816106ae565b840191505092915050565b5f606083015f8301516109225f860182610875565b5060208301516109356020860182610884565b506040830151848203604086015261094d82826108d5565b9150508091505092915050565b5f6020820190508181035f830152610972818461090d565b905092915050565b5f80604083850312156109905761098f61066b565b5b5f61099d85828601610692565b925050602083013567ffffffffffffffff8111156109be576109bd61066f565b5b6109ca858286016107b5565b9150509250929050565b604082015f8201516109e85f850182610875565b5060208201516109fb6020850182610884565b50505050565b5f604082019050610a145f8301846109d4565b92915050565b5f8060408385031215610a3057610a2f61066b565b5b5f610a3d85828601610692565b9250506020610a4e85828601610692565b9150509250929050565b5f819050919050565b610a6a81610a58565b82525050565b608082015f820151610a845f850182610875565b506020820151610a976020850182610a61565b506040820151610aaa6040850182610875565b506060820151610abd6060850182610875565b50505050565b5f608082019050610ad65f830184610a70565b92915050565b5f82825260208201905092915050565b7f50616c6574746520616c726561647920657869737473000000000000000000005f82015250565b5f610b20601683610adc565b9150610b2b82610aec565b602082019050919050565b5f6020820190508181035f830152610b4d81610b14565b9050919050565b7f4e616d65207265717569726564000000000000000000000000000000000000005f82015250565b5f610b88600d83610adc565b9150610b9382610b54565b602082019050919050565b5f6020820190508181035f830152610bb581610b7c565b9050919050565b7f5365656420636f6c6f72207265717569726564000000000000000000000000005f82015250565b5f610bf0601383610adc565b9150610bfb82610bbc565b602082019050919050565b5f6020820190508181035f830152610c1d81610be4565b9050919050565b5f81905092915050565b5f610c3882610893565b610c428185610c24565b9350610c528185602086016108ad565b80840191505092915050565b7f2d35303a000000000000000000000000000000000000000000000000000000005f82015250565b5f610c92600483610c24565b9150610c9d82610c5e565b600482019050919050565b7f2d6c696768743b000000000000000000000000000000000000000000000000005f82015250565b5f610cdc600783610c24565b9150610ce782610ca8565b600782019050919050565b7f2d3130303a0000000000000000000000000000000000000000000000000000005f82015250565b5f610d26600583610c24565b9150610d3182610cf2565b600582019050919050565b7f2d6c6967687465723b00000000000000000000000000000000000000000000005f82015250565b5f610d70600983610c24565b9150610d7b82610d3c565b600982019050919050565b7f2d3530303a0000000000000000000000000000000000000000000000000000005f82015250565b5f610dba600583610c24565b9150610dc582610d86565b600582019050919050565b7f3b000000000000000000000000000000000000000000000000000000000000005f82015250565b5f610e04600183610c24565b9150610e0f82610dd0565b600182019050919050565b7f2d3930303a0000000000000000000000000000000000000000000000000000005f82015250565b5f610e4e600583610c24565b9150610e5982610e1a565b600582019050919050565b7f2d6461726b6572000000000000000000000000000000000000000000000000005f82015250565b5f610e98600783610c24565b9150610ea382610e64565b600782019050919050565b5f610eb9828b610c2e565b9150610ec482610c86565b9150610ed0828a610c2e565b9150610edb82610cd0565b9150610ee78289610c2e565b9150610ef282610d1a565b9150610efe8288610c2e565b9150610f0982610d64565b9150610f158287610c2e565b9150610f2082610dae565b9150610f2c8286610c2e565b9150610f3782610df8565b9150610f438285610c2e565b9150610f4e82610e42565b9150610f5a8284610c2e565b9150610f6582610e8c565b91508190509998505050505050505050565b7f4e487b71000000000000000000000000000000000000000000000000000000005f52602260045260245ffd5b5f6002820490506001821680610fbb57607f821691505b602082108103610fce57610fcd610f77565b5b50919050565b5f819050815f5260205f209050919050565b5f6020601f8301049050919050565b5f82821b905092915050565b5f600883026110307fffffffffffffffffffffffffffffffffffffffffffffffffffffffffffffffff82610ff5565b61103a8683610ff5565b95508019841693508086168417925050509392505050565b5f819050919050565b5f61107561107061106b84610a58565b611052565b610a58565b9050919050565b5f819050919050565b61108e8361105b565b6110a261109a8261107c565b848454611001565b825550505050565b5f90565b6110b66110aa565b6110c1818484611085565b505050565b5b818110156110e4576110d95f826110ae565b6001810190506110c7565b5050565b601f821115611129576110fa81610fd4565b61110384610fe6565b81016020851015611112578190505b61112661111e85610fe6565b8301826110c6565b50505b505050565b5f82821c905092915050565b5f6111495f198460080261112e565b1980831691505092915050565b5f611161838361113a565b9150826002028217905092915050565b61117a82610893565b67ffffffffffffffff811115611193576111926106be565b5b61119d8254610fa4565b6111a88282856110e8565b5f60209050601f8311600181146111d9575f84156111c7578287015190505b6111d18582611156565b865550611238565b601f1984166111e786610fd4565b5f5b8281101561120e578489015182556001820191506020850194506020810190506111e9565b8683101561122b5784890151611227601f89168261113a565b8355505b6001600288020188555050505b505050505050565b7f6f6b0000000000000000000000000000000000000000000000000000000000005f82015250565b5f611274600283610adc565b915061127f82611240565b602082019050919050565b5f6020820190508181035f8301526112a181611268565b9050919050565b7f50616c65747465206e6f7420666f756e640000000000000000000000000000005f82015250565b5f6112dc601183610adc565b91506112e7826112a8565b602082019050919050565b5f6020820190508181035f830152611309816112d0565b9050919050565b7f526f6c65207265717569726564000000000000000000000000000000000000005f82015250565b5f611344600d83610adc565b915061134f82611310565b602082019050919050565b5f6020820190508181035f83015261137181611338565b9050919050565b7f466f726567726f756e642070616c65747465206e6f7420666f756e64000000005f82015250565b5f6113ac601c83610adc565b91506113b782611378565b602082019050919050565b5f6020820190508181035f8301526113d9816113a0565b9050919050565b7f4261636b67726f756e642070616c65747465206e6f7420666f756e64000000005f82015250565b5f611414601c83610adc565b915061141f826113e0565b602082019050919050565b5f6020820190508181035f83015261144181611408565b9050919050565b5f81905092915050565b5f819050815f5260205f209050919050565b5f815461147081610fa4565b61147a8186611448565b9450600182165f811461149457600181146114a9576114db565b60ff19831686528115158202860193506114db565b6114b285611452565b5f5b838110156114d3578154818901526001820191506020810190506114b4565b838801955050505b50505092915050565b5f6114ef8284611464565b915081905092915050565b7f4e487b71000000000000000000000000000000000000000000000000000000005f52601260045260245ffd5b5f61153182610a58565b915061153c83610a58565b92508261154c5761154b6114fa565b5b828206905092915050565b7f4e487b71000000000000000000000000000000000000000000000000000000005f52601160045260245ffd5b5f61158e82610a58565b915061159983610a58565b92508282019050808211156115b1576115b0611557565b5b92915050565b6115c081610a58565b82525050565b6115cf8161086a565b82525050565b5f6080820190508181035f8301526115ec81611268565b90506115fb60208301866115b7565b61160860408301856115c6565b61161560608301846115c6565b94935050505056fea26469706673582212207047a3f21e0f4437ebc1f609cb221199c001d116ec3fb83898c1e80fb7fdb17564736f6c63430008140033","linkReferences":{}},"methodIdentifiers":{"assignRole(bytes32,string)":"80bb8cf2","checkContrast(bytes32,bytes32)":"8451c23c","generate(bytes32,string,string)":"5600bef5"},"id":188}