{"abi":[{"type":"function","name":"collapse","inputs":[{"name":"nodeId","type":"bytes32","internalType":"bytes32"}],"outputs":[],"stateMutability":"nonpayable"},{"type":"function","name":"expand","inputs":[{"name":"nodeId","type":"bytes32","internalType":"bytes32"}],"outputs":[],"stateMutability":"nonpayable"},{"type":"function","name":"getChildren","inputs":[{"name":"parentId","type":"bytes32","internalType":"bytes32"}],"outputs":[{"name":"","type":"bytes32[]","internalType":"bytes32[]"}],"stateMutability":"view"},{"type":"function","name":"getParent","inputs":[{"name":"nodeId","type":"bytes32","internalType":"bytes32"}],"outputs":[{"name":"","type":"bytes32","internalType":"bytes32"}],"stateMutability":"view"},{"type":"function","name":"isCollapsed","inputs":[{"name":"nodeId","type":"bytes32","internalType":"bytes32"}],"outputs":[{"name":"","type":"bool","internalType":"bool"}],"stateMutability":"view"},{"type":"function","name":"register","inputs":[{"name":"nodeId","type":"bytes32","internalType":"bytes32"},{"name":"parentId","type":"bytes32","internalType":"bytes32"},{"name":"position","type":"uint256","internalType":"uint256"}],"outputs":[],"stateMutability":"nonpayable"},{"type":"function","name":"reparent","inputs":[{"name":"nodeId","type":"bytes32","internalType":"bytes32"},{"name":"newParentId","type":"bytes32","internalType":"bytes32"},{"name":"position","type":"uint256","internalType":"uint256"}],"outputs":[],"stateMutability":"nonpayable"},{"type":"event","name":"Collapsed","inputs":[{"name":"nodeId","type":"bytes32","indexed":true,"internalType":"bytes32"}],"anonymous":false},{"type":"event","name":"Expanded","inputs":[{"name":"nodeId","type":"bytes32","indexed":true,"internalType":"bytes32"}],"anonymous":false},{"type":"event","name":"Reparented","inputs":[{"name":"nodeId","type":"bytes32","indexed":true,"internalType":"bytes32"},{"name":"newParentId","type":"bytes32","indexed":true,"internalType":"bytes32"}],"anonymous":false}],"bytecode":{"object":"0x608060405234801561000f575f80fd5b50610c5b8061001d5f395ff3fe608060405234801561000f575f80fd5b506004361061007b575f3560e01c806380bad2fc1161005957806380bad2fc146100e75780638eeeec6714610117578063d37684ff14610133578063eec6d8a0146101635761007b565b80634048c4491461007f5780634073c0cc146100af5780635d0320ed146100cb575b5f80fd5b610099600480360381019061009491906107fc565b61017f565b6040516100a69190610836565b60405180910390f35b6100c960048036038101906100c49190610882565b6101fa565b005b6100e560048036038101906100e09190610882565b610363565b005b61010160048036038101906100fc91906107fc565b61047b565b60405161010e91906108ec565b60405180910390f35b610131600480360381019061012c91906107fc565b610503565b005b61014d600480360381019061014891906107fc565b6105bd565b60405161015a91906109bc565b60405180910390f35b61017d600480360381019061017891906107fc565b610624565b005b5f805f8381526020019081526020015f2060020160019054906101000a900460ff166101e0576040517f08c379a00000000000000000000000000000000000000000000000000000000081526004016101d790610a36565b60405180910390fd5b5f808381526020019081526020015f205f01549050919050565b5f801b830361023e576040517f08c379a000000000000000000000000000000000000000000000000000000000815260040161023590610a9e565b60405180910390fd5b5f808481526020019081526020015f2060020160019054906101000a900460ff161561029f576040517f08c379a000000000000000000000000000000000000000000000000000000000815260040161029690610b06565b60405180910390fd5b60405180608001604052808381526020018281526020015f15158152602001600115158152505f808581526020019081526020015f205f820151815f0155602082015181600101556040820151816002015f6101000a81548160ff02191690831515021790555060608201518160020160016101000a81548160ff02191690831515021790555090505060015f8381526020019081526020015f2083908060018154018082558091505060019003905f5260205f20015f9091909190915055505050565b5f808481526020019081526020015f2060020160019054906101000a900460ff166103c3576040517f08c379a00000000000000000000000000000000000000000000000000000000081526004016103ba90610a36565b60405180910390fd5b5f805f8581526020019081526020015f205f015490506103e381856106df565b825f808681526020019081526020015f205f0181905550815f808681526020019081526020015f206001018190555060015f8481526020019081526020015f2084908060018154018082558091505060019003905f5260205f20015f909190919091505582847fadc38c192347217c8a4815078bdd9eac2cd27e36a30284938e86be9bb0eac5e460405160405180910390a350505050565b5f805f8381526020019081526020015f2060020160019054906101000a900460ff166104dc576040517f08c379a00000000000000000000000000000000000000000000000000000000081526004016104d390610a36565b60405180910390fd5b5f808381526020019081526020015f206002015f9054906101000a900460ff169050919050565b5f808281526020019081526020015f2060020160019054906101000a900460ff16610563576040517f08c379a000000000000000000000000000000000000000000000000000000000815260040161055a90610a36565b60405180910390fd5b5f805f8381526020019081526020015f206002015f6101000a81548160ff021916908315150217905550807f2092c982335735a1de209a924364430b048922cac0091d235151dbe816b1182c60405160405180910390a250565b606060015f8381526020019081526020015f2080548060200260200160405190810160405280929190818152602001828054801561061857602002820191905f5260205f20905b815481526020019060010190808311610604575b50505050509050919050565b5f808281526020019081526020015f2060020160019054906101000a900460ff16610684576040517f08c379a000000000000000000000000000000000000000000000000000000000815260040161067b90610a36565b60405180910390fd5b60015f808381526020019081526020015f206002015f6101000a81548160ff021916908315150217905550807f0e6aa22357868363bb47d00242ba26e79efad8421acc747e7f7957874526fa0960405160405180910390a250565b5f60015f8481526020019081526020015f2090505f818054905090505f5b818110156107be578383828154811061071957610718610b24565b5b905f5260205f200154036107ab576001826107349190610b7e565b811461078257826001836107489190610b7e565b8154811061075957610758610b24565b5b905f5260205f20015483828154811061077557610774610b24565b5b905f5260205f2001819055505b8280548061079357610792610bb1565b5b600190038181905f5260205f20015f905590556107be565b80806107b690610bde565b9150506106fd565b5050505050565b5f80fd5b5f819050919050565b6107db816107c9565b81146107e5575f80fd5b50565b5f813590506107f6816107d2565b92915050565b5f60208284031215610811576108106107c5565b5b5f61081e848285016107e8565b91505092915050565b610830816107c9565b82525050565b5f6020820190506108495f830184610827565b92915050565b5f819050919050565b6108618161084f565b811461086b575f80fd5b50565b5f8135905061087c81610858565b92915050565b5f805f60608486031215610899576108986107c5565b5b5f6108a6868287016107e8565b93505060206108b7868287016107e8565b92505060406108c88682870161086e565b9150509250925092565b5f8115159050919050565b6108e6816108d2565b82525050565b5f6020820190506108ff5f8301846108dd565b92915050565b5f81519050919050565b5f82825260208201905092915050565b5f819050602082019050919050565b610937816107c9565b82525050565b5f610948838361092e565b60208301905092915050565b5f602082019050919050565b5f61096a82610905565b610974818561090f565b935061097f8361091f565b805f5b838110156109af578151610996888261093d565b97506109a183610954565b925050600181019050610982565b5085935050505092915050565b5f6020820190508181035f8301526109d48184610960565b905092915050565b5f82825260208201905092915050565b7f4e6f6465206e6f7420666f756e640000000000000000000000000000000000005f82015250565b5f610a20600e836109dc565b9150610a2b826109ec565b602082019050919050565b5f6020820190508181035f830152610a4d81610a14565b9050919050565b7f4e6f64652049442063616e6e6f74206265207a65726f000000000000000000005f82015250565b5f610a886016836109dc565b9150610a9382610a54565b602082019050919050565b5f6020820190508181035f830152610ab581610a7c565b9050919050565b7f4e6f646520616c726561647920726567697374657265640000000000000000005f82015250565b5f610af06017836109dc565b9150610afb82610abc565b602082019050919050565b5f6020820190508181035f830152610b1d81610ae4565b9050919050565b7f4e487b71000000000000000000000000000000000000000000000000000000005f52603260045260245ffd5b7f4e487b71000000000000000000000000000000000000000000000000000000005f52601160045260245ffd5b5f610b888261084f565b9150610b938361084f565b9250828203905081811115610bab57610baa610b51565b5b92915050565b7f4e487b71000000000000000000000000000000000000000000000000000000005f52603160045260245ffd5b5f610be88261084f565b91507fffffffffffffffffffffffffffffffffffffffffffffffffffffffffffffffff8203610c1a57610c19610b51565b5b60018201905091905056fea2646970667358221220bb2e83394939f7387f7e425a101e08a326956505271830a3b8decebe4def339964736f6c63430008140033","linkReferences":{}},"methodIdentifiers":{"collapse(bytes32)":"eec6d8a0","expand(bytes32)":"8eeeec67","getChildren(bytes32)":"d37684ff","getParent(bytes32)":"4048c449","isCollapsed(bytes32)":"80bad2fc","register(bytes32,bytes32,uint256)":"4073c0cc","reparent(bytes32,bytes32,uint256)":"5d0320ed"},"id":186}