{"abi":[{"type":"function","name":"addRule","inputs":[{"name":"schemaId","type":"bytes32","internalType":"bytes32"},{"name":"fieldId","type":"bytes32","internalType":"bytes32"},{"name":"constraintId","type":"bytes32","internalType":"bytes32"},{"name":"params","type":"string","internalType":"string"}],"outputs":[],"stateMutability":"nonpayable"},{"type":"function","name":"constraintExists","inputs":[{"name":"constraintId","type":"bytes32","internalType":"bytes32"}],"outputs":[{"name":"","type":"bool","internalType":"bool"}],"stateMutability":"view"},{"type":"function","name":"getConstraint","inputs":[{"name":"constraintId","type":"bytes32","internalType":"bytes32"}],"outputs":[{"name":"","type":"tuple","internalType":"struct Validator.Constraint","components":[{"name":"evaluatorConfig","type":"string","internalType":"string"},{"name":"exists","type":"bool","internalType":"bool"}]}],"stateMutability":"view"},{"type":"function","name":"getRule","inputs":[{"name":"schemaId","type":"bytes32","internalType":"bytes32"},{"name":"fieldId","type":"bytes32","internalType":"bytes32"}],"outputs":[{"name":"","type":"tuple","internalType":"struct Validator.ValidationRule","components":[{"name":"constraintId","type":"bytes32","internalType":"bytes32"},{"name":"params","type":"string","internalType":"string"},{"name":"exists","type":"bool","internalType":"bool"}]}],"stateMutability":"view"},{"type":"function","name":"registerConstraint","inputs":[{"name":"constraintId","type":"bytes32","internalType":"bytes32"},{"name":"evaluatorConfig","type":"string","internalType":"string"}],"outputs":[],"stateMutability":"nonpayable"},{"type":"event","name":"ConstraintRegistered","inputs":[{"name":"constraintId","type":"bytes32","indexed":true,"internalType":"bytes32"}],"anonymous":false},{"type":"event","name":"RuleAdded","inputs":[{"name":"schemaId","type":"bytes32","indexed":true,"internalType":"bytes32"},{"name":"fieldId","type":"bytes32","indexed":true,"internalType":"bytes32"}],"anonymous":false}],"bytecode":{"object":"0x608060405234801561000f575f80fd5b5061108d8061001d5f395ff3fe608060405234801561000f575f80fd5b5060043610610055575f3560e01c806305709bff14610059578063787daaac146100895780637f27243d146100b9578063a6a1c7be146100d5578063fe0359d414610105575b5f80fd5b610073600480360381019061006e919061078b565b610121565b60405161008091906108c9565b60405180910390f35b6100a3600480360381019061009e91906108e9565b61027e565b6040516100b0919061094e565b60405180910390f35b6100d360048036038101906100ce91906109cf565b6103b0565b005b6100ef60048036038101906100ea91906108e9565b61050c565b6040516100fc9190610a3b565b60405180910390f35b61011f600480360381019061011a9190610a54565b610534565b005b610129610711565b60015f8481526020019081526020015f205f8381526020019081526020015f206002015f9054906101000a900460ff16610198576040517f08c379a000000000000000000000000000000000000000000000000000000000815260040161018f90610b32565b60405180910390fd5b60015f8481526020019081526020015f205f8381526020019081526020015f206040518060600160405290815f82015481526020016001820180546101dc90610b7d565b80601f016020809104026020016040519081016040528092919081815260200182805461020890610b7d565b80156102535780601f1061022a57610100808354040283529160200191610253565b820191905f5260205f20905b81548152906001019060200180831161023657829003601f168201915b50505050508152602001600282015f9054906101000a900460ff161515151581525050905092915050565b610286610735565b5f808381526020019081526020015f206001015f9054906101000a900460ff166102e5576040517f08c379a00000000000000000000000000000000000000000000000000000000081526004016102dc90610bf7565b60405180910390fd5b5f808381526020019081526020015f206040518060400160405290815f8201805461030f90610b7d565b80601f016020809104026020016040519081016040528092919081815260200182805461033b90610b7d565b80156103865780601f1061035d57610100808354040283529160200191610386565b820191905f5260205f20905b81548152906001019060200180831161036957829003601f168201915b50505050508152602001600182015f9054906101000a900460ff1615151515815250509050919050565b5f801b83036103f4576040517f08c379a00000000000000000000000000000000000000000000000000000000081526004016103eb90610c5f565b60405180910390fd5b5f8282905011610439576040517f08c379a000000000000000000000000000000000000000000000000000000000815260040161043090610cc7565b60405180910390fd5b604051806040016040528083838080601f0160208091040260200160405190810160405280939291908181526020018383808284375f81840152601f19601f820116905080830192505050505050508152602001600115158152505f808581526020019081526020015f205f820151815f0190816104b79190610eb8565b506020820151816001015f6101000a81548160ff021916908315150217905550905050827f08e9927d7db6aa82984f67697a216a681466cbda0133795834eb23e8948d003060405160405180910390a2505050565b5f805f8381526020019081526020015f206001015f9054906101000a900460ff169050919050565b5f801b8503610578576040517f08c379a000000000000000000000000000000000000000000000000000000000815260040161056f90610fd1565b60405180910390fd5b5f801b84036105bc576040517f08c379a00000000000000000000000000000000000000000000000000000000081526004016105b390611039565b60405180910390fd5b5f808481526020019081526020015f206001015f9054906101000a900460ff1661061b576040517f08c379a000000000000000000000000000000000000000000000000000000000815260040161061290610bf7565b60405180910390fd5b604051806060016040528084815260200183838080601f0160208091040260200160405190810160405280939291908181526020018383808284375f81840152601f19601f8201169050808301925050505050505081526020016001151581525060015f8781526020019081526020015f205f8681526020019081526020015f205f820151815f015560208201518160010190816106b99190610eb8565b506040820151816002015f6101000a81548160ff02191690831515021790555090505083857f47c00d95e551247bd80c621ee60583d2c3d6ceb6dd309895eecf8824a1d619b760405160405180910390a35050505050565b60405180606001604052805f8019168152602001606081526020015f151581525090565b6040518060400160405280606081526020015f151581525090565b5f80fd5b5f80fd5b5f819050919050565b61076a81610758565b8114610774575f80fd5b50565b5f8135905061078581610761565b92915050565b5f80604083850312156107a1576107a0610750565b5b5f6107ae85828601610777565b92505060206107bf85828601610777565b9150509250929050565b6107d281610758565b82525050565b5f81519050919050565b5f82825260208201905092915050565b5f5b8381101561080f5780820151818401526020810190506107f4565b5f8484015250505050565b5f601f19601f8301169050919050565b5f610834826107d8565b61083e81856107e2565b935061084e8185602086016107f2565b6108578161081a565b840191505092915050565b5f8115159050919050565b61087681610862565b82525050565b5f606083015f8301516108915f8601826107c9565b50602083015184820360208601526108a9828261082a565b91505060408301516108be604086018261086d565b508091505092915050565b5f6020820190508181035f8301526108e1818461087c565b905092915050565b5f602082840312156108fe576108fd610750565b5b5f61090b84828501610777565b91505092915050565b5f604083015f8301518482035f86015261092e828261082a565b9150506020830151610943602086018261086d565b508091505092915050565b5f6020820190508181035f8301526109668184610914565b905092915050565b5f80fd5b5f80fd5b5f80fd5b5f8083601f84011261098f5761098e61096e565b5b8235905067ffffffffffffffff8111156109ac576109ab610972565b5b6020830191508360018202830111156109c8576109c7610976565b5b9250929050565b5f805f604084860312156109e6576109e5610750565b5b5f6109f386828701610777565b935050602084013567ffffffffffffffff811115610a1457610a13610754565b5b610a208682870161097a565b92509250509250925092565b610a3581610862565b82525050565b5f602082019050610a4e5f830184610a2c565b92915050565b5f805f805f60808688031215610a6d57610a6c610750565b5b5f610a7a88828901610777565b9550506020610a8b88828901610777565b9450506040610a9c88828901610777565b935050606086013567ffffffffffffffff811115610abd57610abc610754565b5b610ac98882890161097a565b92509250509295509295909350565b5f82825260208201905092915050565b7f52756c65206e6f7420666f756e640000000000000000000000000000000000005f82015250565b5f610b1c600e83610ad8565b9150610b2782610ae8565b602082019050919050565b5f6020820190508181035f830152610b4981610b10565b9050919050565b7f4e487b71000000000000000000000000000000000000000000000000000000005f52602260045260245ffd5b5f6002820490506001821680610b9457607f821691505b602082108103610ba757610ba6610b50565b5b50919050565b7f436f6e73747261696e74206e6f7420666f756e640000000000000000000000005f82015250565b5f610be1601483610ad8565b9150610bec82610bad565b602082019050919050565b5f6020820190508181035f830152610c0e81610bd5565b9050919050565b7f436f6e73747261696e742049442063616e6e6f74206265207a65726f000000005f82015250565b5f610c49601c83610ad8565b9150610c5482610c15565b602082019050919050565b5f6020820190508181035f830152610c7681610c3d565b9050919050565b7f4576616c7561746f7220636f6e6669672063616e6e6f7420626520656d7074795f82015250565b5f610cb1602083610ad8565b9150610cbc82610c7d565b602082019050919050565b5f6020820190508181035f830152610cde81610ca5565b9050919050565b7f4e487b71000000000000000000000000000000000000000000000000000000005f52604160045260245ffd5b5f819050815f5260205f209050919050565b5f6020601f8301049050919050565b5f82821b905092915050565b5f60088302610d6e7fffffffffffffffffffffffffffffffffffffffffffffffffffffffffffffffff82610d33565b610d788683610d33565b95508019841693508086168417925050509392505050565b5f819050919050565b5f819050919050565b5f610dbc610db7610db284610d90565b610d99565b610d90565b9050919050565b5f819050919050565b610dd583610da2565b610de9610de182610dc3565b848454610d3f565b825550505050565b5f90565b610dfd610df1565b610e08818484610dcc565b505050565b5b81811015610e2b57610e205f82610df5565b600181019050610e0e565b5050565b601f821115610e7057610e4181610d12565b610e4a84610d24565b81016020851015610e59578190505b610e6d610e6585610d24565b830182610e0d565b50505b505050565b5f82821c905092915050565b5f610e905f1984600802610e75565b1980831691505092915050565b5f610ea88383610e81565b9150826002028217905092915050565b610ec1826107d8565b67ffffffffffffffff811115610eda57610ed9610ce5565b5b610ee48254610b7d565b610eef828285610e2f565b5f60209050601f831160018114610f20575f8415610f0e578287015190505b610f188582610e9d565b865550610f7f565b601f198416610f2e86610d12565b5f5b82811015610f5557848901518255600182019150602085019450602081019050610f30565b86831015610f725784890151610f6e601f891682610e81565b8355505b6001600288020188555050505b505050505050565b7f536368656d612049442063616e6e6f74206265207a65726f00000000000000005f82015250565b5f610fbb601883610ad8565b9150610fc682610f87565b602082019050919050565b5f6020820190508181035f830152610fe881610faf565b9050919050565b7f4669656c642049442063616e6e6f74206265207a65726f0000000000000000005f82015250565b5f611023601783610ad8565b915061102e82610fef565b602082019050919050565b5f6020820190508181035f83015261105081611017565b905091905056fea26469706673582212206a3ceb08d3df6938a98c192a09fb3179a48eb903e952e1973c0867cf8026ad1264736f6c63430008140033","linkReferences":{}},"methodIdentifiers":{"addRule(bytes32,bytes32,bytes32,string)":"fe0359d4","constraintExists(bytes32)":"a6a1c7be","getConstraint(bytes32)":"787daaac","getRule(bytes32,bytes32)":"05709bff","registerConstraint(bytes32,string)":"7f27243d"},"id":322}