{"abi":[{"type":"function","name":"begin","inputs":[],"outputs":[{"name":"","type":"tuple","internalType":"struct GenerationPlan.BeginOkResult","components":[{"name":"success","type":"bool","internalType":"bool"},{"name":"run","type":"bytes32","internalType":"bytes32"}]}],"stateMutability":"nonpayable"},{"type":"function","name":"complete","inputs":[],"outputs":[{"name":"","type":"tuple","internalType":"struct GenerationPlan.CompleteOkResult","components":[{"name":"success","type":"bool","internalType":"bool"},{"name":"run","type":"bytes32","internalType":"bytes32"}]}],"stateMutability":"nonpayable"},{"type":"function","name":"history","inputs":[{"name":"limit","type":"int256","internalType":"int256"}],"outputs":[{"name":"","type":"tuple","internalType":"struct GenerationPlan.HistoryOkResult","components":[{"name":"success","type":"bool","internalType":"bool"},{"name":"runs","type":"bytes[]","internalType":"bytes[]"}]}],"stateMutability":"nonpayable"},{"type":"function","name":"recordStep","inputs":[{"name":"stepKey","type":"string","internalType":"string"},{"name":"stepStatus","type":"string","internalType":"string"},{"name":"filesProduced","type":"int256","internalType":"int256"},{"name":"duration","type":"int256","internalType":"int256"},{"name":"cached","type":"bool","internalType":"bool"}],"outputs":[{"name":"","type":"bool","internalType":"bool"}],"stateMutability":"nonpayable"},{"type":"function","name":"status","inputs":[{"name":"run","type":"bytes32","internalType":"bytes32"}],"outputs":[{"name":"","type":"tuple","internalType":"struct GenerationPlan.StatusOkResult","components":[{"name":"success","type":"bool","internalType":"bool"},{"name":"steps","type":"bytes[]","internalType":"bytes[]"}]}],"stateMutability":"nonpayable"},{"type":"function","name":"summary","inputs":[{"name":"run","type":"bytes32","internalType":"bytes32"}],"outputs":[{"name":"","type":"tuple","internalType":"struct GenerationPlan.SummaryOkResult","components":[{"name":"success","type":"bool","internalType":"bool"},{"name":"total","type":"int256","internalType":"int256"},{"name":"executed","type":"int256","internalType":"int256"},{"name":"cached","type":"int256","internalType":"int256"},{"name":"failed","type":"int256","internalType":"int256"},{"name":"totalDuration","type":"int256","internalType":"int256"},{"name":"filesProduced","type":"int256","internalType":"int256"}]}],"stateMutability":"nonpayable"},{"type":"event","name":"BeginCompleted","inputs":[{"name":"variant","type":"string","indexed":false,"internalType":"string"},{"name":"run","type":"bytes32","indexed":false,"internalType":"bytes32"}],"anonymous":false},{"type":"event","name":"CompleteCompleted","inputs":[{"name":"variant","type":"string","indexed":false,"internalType":"string"},{"name":"run","type":"bytes32","indexed":false,"internalType":"bytes32"}],"anonymous":false},{"type":"event","name":"HistoryCompleted","inputs":[{"name":"variant","type":"string","indexed":false,"internalType":"string"},{"name":"runs","type":"bytes[]","indexed":false,"internalType":"bytes[]"}],"anonymous":false},{"type":"event","name":"RecordStepCompleted","inputs":[{"name":"variant","type":"string","indexed":false,"internalType":"string"}],"anonymous":false},{"type":"event","name":"StatusCompleted","inputs":[{"name":"variant","type":"string","indexed":false,"internalType":"string"},{"name":"steps","type":"bytes[]","indexed":false,"internalType":"bytes[]"}],"anonymous":false},{"type":"event","name":"SummaryCompleted","inputs":[{"name":"variant","type":"string","indexed":false,"internalType":"string"},{"name":"total","type":"int256","indexed":false,"internalType":"int256"},{"name":"executed","type":"int256","indexed":false,"internalType":"int256"},{"name":"cached","type":"int256","indexed":false,"internalType":"int256"},{"name":"failed","type":"int256","indexed":false,"internalType":"int256"},{"name":"totalDuration","type":"int256","indexed":false,"internalType":"int256"},{"name":"filesProduced","type":"int256","indexed":false,"internalType":"int256"}],"anonymous":false}],"bytecode":{"object":"0x608060405234801561000f575f80fd5b50611d8f8061001d5f395ff3fe608060405234801561000f575f80fd5b5060043610610060575f3560e01c80631bce6ff3146100645780632fb0114414610082578063522e1177146100b257806352ad0d5e146100d05780636f3e308b14610100578063f054c75d14610130575b5f80fd5b61006c610160565b6040516100799190610cb1565b60405180910390f35b61009c60048036038101906100979190610e74565b610304565b6040516100a99190610f32565b60405180910390f35b6100ba6104ad565b6040516100c79190610f78565b60405180910390f35b6100ea60048036038101906100e59190610fbb565b61060c565b6040516100f79190611155565b60405180910390f35b61011a60048036038101906101159190610fbb565b6107df565b6040516101279190611210565b60405180910390f35b61014a60048036038101906101459190611229565b6109ff565b604051610157919061128e565b60405180910390f35b610168610baa565b60045f9054906101000a900460ff16156101b7576040517f08c379a00000000000000000000000000000000000000000000000000000000081526004016101ae9061132e565b60405180910390fd5b5f42336001805490506040516020016101d2939291906113ea565b6040516020818303038152906040528051906020012090505f805f8381526020019081526020015f2090504281600101819055505f816003015f6101000a81548160ff02191690831515021790555060018160030160016101000a81548160ff021916908315150217905550600160025f8481526020019081526020015f205f6101000a81548160ff021916908315150217905550600182908060018154018082558091505060019003905f5260205f20015f909190919091505581600381905550600160045f6101000a81548160ff0219169083151502179055507f020e3ab23853527b82047bee26d452f2a30231a6400881487209218bd7a6bfb2826040516102dd919061147f565b60405180910390a16040518060400160405280600115158152602001838152509250505090565b5f60045f9054906101000a900460ff16610353576040517f08c379a000000000000000000000000000000000000000000000000000000000815260040161034a906114f5565b60405180910390fd5b5f805f60035481526020019081526020015f209050806003015f9054906101000a900460ff16156103b9576040517f08c379a00000000000000000000000000000000000000000000000000000000081526004016103b09061155d565b60405180910390fd5b805f016040518060a00160405280898152602001888152602001878152602001868152602001851515815250908060018154018082558091505060019003905f5260205f2090600502015f909190919091505f820151815f01908161041e919061177f565b506020820151816001019081610434919061177f565b5060408201518160020155606082015181600301556080820151816004015f6101000a81548160ff02191690831515021790555050507f2ec8299843e819c7dd9e34e477abd57ab6d1e1869b4dc121e15dd442973ca0866040516104979061184e565b60405180910390a1600191505095945050505050565b6104b5610bc7565b60045f9054906101000a900460ff16610503576040517f08c379a00000000000000000000000000000000000000000000000000000000081526004016104fa906114f5565b60405180910390fd5b5f805f60035481526020019081526020015f209050806003015f9054906101000a900460ff1615610569576040517f08c379a00000000000000000000000000000000000000000000000000000000081526004016105609061155d565b60405180910390fd5b6001816003015f6101000a81548160ff0219169083151502179055504281600201819055505f60035490505f60045f6101000a81548160ff0219169083151502179055505f801b6003819055507fab0ea3440cf08e49302e7a4ee3d88b8d61adc0d68786f1b43206f515650922d1816040516105e5919061147f565b60405180910390a16040518060400160405280600115158152602001828152509250505090565b610614610be4565b60025f8381526020019081526020015f205f9054906101000a900460ff16610671576040517f08c379a0000000000000000000000000000000000000000000000000000000008152600401610668906118b6565b60405180910390fd5b5f805f8481526020019081526020015f2090505f815f018054905067ffffffffffffffff8111156106a5576106a4610cf3565b5b6040519080825280602002602001820160405280156106d857816020015b60608152602001906001900390816106c35790505b5090505f5b825f0180549050811015610786575f835f018281548110610701576107006118d4565b5b905f5260205f2090600502019050805f018160010182600201548360030154846004015f9054906101000a900460ff16604051602001610745959493929190611991565b604051602081830303815290604052838381518110610767576107666118d4565b5b602002602001018190525050808061077e90611a1d565b9150506106dd565b507f7d93a3faa08154c0777e388e287dc0bbac893e6afbe2539e0b42f869dfbfef24816040516107b69190611ae7565b60405180910390a160405180604001604052806001151581526020018281525092505050919050565b6107e7610bff565b60025f8381526020019081526020015f205f9054906101000a900460ff16610844576040517f08c379a000000000000000000000000000000000000000000000000000000000815260040161083b906118b6565b60405180910390fd5b5f805f8481526020019081526020015f2090505f815f018054905090505f805f805f805b875f0180549050811015610979575f885f01828154811061088c5761088b6118d4565b5b905f5260205f20906005020190508060030154846108aa9190611b1a565b93508060020154836108bc9190611b1a565b9250806004015f9054906101000a900460ff16156108e75785806108df90611b5b565b965050610965565b6040518060400160405280600681526020017f6661696c6564000000000000000000000000000000000000000000000000000081525080519060200120816001016040516109359190611c3e565b60405180910390200361095557848061094d90611b5b565b955050610964565b868061096090611b5b565b9750505b5b50808061097190611a1d565b915050610868565b507f0cffb6ee1ff7f620e6dafe190c81f641f701a4f0ec913130e4e2b0e98cbb737e8686868686866040516109b396959493929190611c54565b60405180910390a16040518060e0016040528060011515815260200187815260200186815260200185815260200184815260200183815260200182815250975050505050505050919050565b610a07610c37565b5f60018054905090505f8084138015610a1f57508184105b610a295781610a2b565b835b90505f8167ffffffffffffffff811115610a4857610a47610cf3565b5b604051908082528060200260200182016040528015610a7b57816020015b6060815260200190600190039081610a665790505b5090505f5b82811015610b50575f81600186610a979190611cc6565b610aa19190611cc6565b90505f60018281548110610ab857610ab76118d4565b5b905f5260205f20015490505f805f8381526020019081526020015f2090508181600101548260020154836003015f9054906101000a900460ff16845f0180549050604051602001610b0d959493929190611d08565b604051602081830303815290604052858581518110610b2f57610b2e6118d4565b5b60200260200101819052505050508080610b4890611a1d565b915050610a80565b507f98836a079cf547ec8ec5e230c55813d1135c45ed6b1c603a18b3f8362504d92381604051610b809190611ae7565b60405180910390a16040518060400160405280600115158152602001828152509350505050919050565b60405180604001604052805f151581526020015f80191681525090565b60405180604001604052805f151581526020015f80191681525090565b60405180604001604052805f15158152602001606081525090565b6040518060e001604052805f151581526020015f81526020015f81526020015f81526020015f81526020015f81526020015f81525090565b60405180604001604052805f15158152602001606081525090565b5f8115159050919050565b610c6681610c52565b82525050565b5f819050919050565b610c7e81610c6c565b82525050565b604082015f820151610c985f850182610c5d565b506020820151610cab6020850182610c75565b50505050565b5f604082019050610cc45f830184610c84565b92915050565b5f604051905090565b5f80fd5b5f80fd5b5f80fd5b5f80fd5b5f601f19601f8301169050919050565b7f4e487b71000000000000000000000000000000000000000000000000000000005f52604160045260245ffd5b610d2982610ce3565b810181811067ffffffffffffffff82111715610d4857610d47610cf3565b5b80604052505050565b5f610d5a610cca565b9050610d668282610d20565b919050565b5f67ffffffffffffffff821115610d8557610d84610cf3565b5b610d8e82610ce3565b9050602081019050919050565b828183375f83830152505050565b5f610dbb610db684610d6b565b610d51565b905082815260208101848484011115610dd757610dd6610cdf565b5b610de2848285610d9b565b509392505050565b5f82601f830112610dfe57610dfd610cdb565b5b8135610e0e848260208601610da9565b91505092915050565b5f819050919050565b610e2981610e17565b8114610e33575f80fd5b50565b5f81359050610e4481610e20565b92915050565b610e5381610c52565b8114610e5d575f80fd5b50565b5f81359050610e6e81610e4a565b92915050565b5f805f805f60a08688031215610e8d57610e8c610cd3565b5b5f86013567ffffffffffffffff811115610eaa57610ea9610cd7565b5b610eb688828901610dea565b955050602086013567ffffffffffffffff811115610ed757610ed6610cd7565b5b610ee388828901610dea565b9450506040610ef488828901610e36565b9350506060610f0588828901610e36565b9250506080610f1688828901610e60565b9150509295509295909350565b610f2c81610c52565b82525050565b5f602082019050610f455f830184610f23565b92915050565b604082015f820151610f5f5f850182610c5d565b506020820151610f726020850182610c75565b50505050565b5f604082019050610f8b5f830184610f4b565b92915050565b610f9a81610c6c565b8114610fa4575f80fd5b50565b5f81359050610fb581610f91565b92915050565b5f60208284031215610fd057610fcf610cd3565b5b5f610fdd84828501610fa7565b91505092915050565b5f81519050919050565b5f82825260208201905092915050565b5f819050602082019050919050565b5f81519050919050565b5f82825260208201905092915050565b5f5b8381101561104657808201518184015260208101905061102b565b5f8484015250505050565b5f61105b8261100f565b6110658185611019565b9350611075818560208601611029565b61107e81610ce3565b840191505092915050565b5f6110948383611051565b905092915050565b5f602082019050919050565b5f6110b282610fe6565b6110bc8185610ff0565b9350836020820285016110ce85611000565b805f5b8581101561110957848403895281516110ea8582611089565b94506110f58361109c565b925060208a019950506001810190506110d1565b50829750879550505050505092915050565b5f604083015f8301516111305f860182610c5d565b506020830151848203602086015261114882826110a8565b9150508091505092915050565b5f6020820190508181035f83015261116d818461111b565b905092915050565b61117e81610e17565b82525050565b60e082015f8201516111985f850182610c5d565b5060208201516111ab6020850182611175565b5060408201516111be6040850182611175565b5060608201516111d16060850182611175565b5060808201516111e46080850182611175565b5060a08201516111f760a0850182611175565b5060c082015161120a60c0850182611175565b50505050565b5f60e0820190506112235f830184611184565b92915050565b5f6020828403121561123e5761123d610cd3565b5b5f61124b84828501610e36565b91505092915050565b5f604083015f8301516112695f860182610c5d565b506020830151848203602086015261128182826110a8565b9150508091505092915050565b5f6020820190508181035f8301526112a68184611254565b905092915050565b5f82825260208201905092915050565b7f412067656e65726174696f6e2072756e20697320616c726561647920616374695f8201527f7665000000000000000000000000000000000000000000000000000000000000602082015250565b5f6113186022836112ae565b9150611323826112be565b604082019050919050565b5f6020820190508181035f8301526113458161130c565b9050919050565b5f819050919050565b5f819050919050565b61136f61136a8261134c565b611355565b82525050565b5f73ffffffffffffffffffffffffffffffffffffffff82169050919050565b5f61139e82611375565b9050919050565b5f8160601b9050919050565b5f6113bb826113a5565b9050919050565b5f6113cc826113b1565b9050919050565b6113e46113df82611394565b6113c2565b82525050565b5f6113f5828661135e565b60208201915061140582856113d3565b601482019150611415828461135e565b602082019150819050949350505050565b7f6f6b0000000000000000000000000000000000000000000000000000000000005f82015250565b5f61145a6002836112ae565b915061146582611426565b602082019050919050565b61147981610c6c565b82525050565b5f6040820190508181035f8301526114968161144e565b90506114a56020830184611470565b92915050565b7f4e6f206163746976652067656e65726174696f6e2072756e00000000000000005f82015250565b5f6114df6018836112ae565b91506114ea826114ab565b602082019050919050565b5f6020820190508181035f83015261150c816114d3565b9050919050565b7f4163746976652072756e20697320616c726561647920636f6d706c65746564005f82015250565b5f611547601f836112ae565b915061155282611513565b602082019050919050565b5f6020820190508181035f8301526115748161153b565b9050919050565b5f81519050919050565b7f4e487b71000000000000000000000000000000000000000000000000000000005f52602260045260245ffd5b5f60028204905060018216806115c957607f821691505b6020821081036115dc576115db611585565b5b50919050565b5f819050815f5260205f209050919050565b5f6020601f8301049050919050565b5f82821b905092915050565b5f6008830261163e7fffffffffffffffffffffffffffffffffffffffffffffffffffffffffffffffff82611603565b6116488683611603565b95508019841693508086168417925050509392505050565b5f819050919050565b5f61168361167e6116798461134c565b611660565b61134c565b9050919050565b5f819050919050565b61169c83611669565b6116b06116a88261168a565b84845461160f565b825550505050565b5f90565b6116c46116b8565b6116cf818484611693565b505050565b5b818110156116f2576116e75f826116bc565b6001810190506116d5565b5050565b601f82111561173757611708816115e2565b611711846115f4565b81016020851015611720578190505b61173461172c856115f4565b8301826116d4565b50505b505050565b5f82821c905092915050565b5f6117575f198460080261173c565b1980831691505092915050565b5f61176f8383611748565b9150826002028217905092915050565b6117888261157b565b67ffffffffffffffff8111156117a1576117a0610cf3565b5b6117ab82546115b2565b6117b68282856116f6565b5f60209050601f8311600181146117e7575f84156117d5578287015190505b6117df8582611764565b865550611846565b601f1984166117f5866115e2565b5f5b8281101561181c578489015182556001820191506020850194506020810190506117f7565b868310156118395784890151611835601f891682611748565b8355505b6001600288020188555050505b505050505050565b5f6020820190508181035f8301526118658161144e565b9050919050565b7f52756e206e6f7420666f756e64000000000000000000000000000000000000005f82015250565b5f6118a0600d836112ae565b91506118ab8261186c565b602082019050919050565b5f6020820190508181035f8301526118cd81611894565b9050919050565b7f4e487b71000000000000000000000000000000000000000000000000000000005f52603260045260245ffd5b5f815461190d816115b2565b61191781866112ae565b9450600182165f8114611931576001811461194757611979565b60ff198316865281151560200286019350611979565b611950856115e2565b5f5b8381101561197157815481890152600182019150602081019050611952565b808801955050505b50505092915050565b61198b81610e17565b82525050565b5f60a0820190508181035f8301526119a98188611901565b905081810360208301526119bd8187611901565b90506119cc6040830186611982565b6119d96060830185611982565b6119e66080830184610f23565b9695505050505050565b7f4e487b71000000000000000000000000000000000000000000000000000000005f52601160045260245ffd5b5f611a278261134c565b91507fffffffffffffffffffffffffffffffffffffffffffffffffffffffffffffffff8203611a5957611a586119f0565b5b600182019050919050565b5f82825260208201905092915050565b5f611a7e82610fe6565b611a888185611a64565b935083602082028501611a9a85611000565b805f5b85811015611ad55784840389528151611ab68582611089565b9450611ac18361109c565b925060208a01995050600181019050611a9d565b50829750879550505050505092915050565b5f6040820190508181035f830152611afe8161144e565b90508181036020830152611b128184611a74565b905092915050565b5f611b2482610e17565b9150611b2f83610e17565b92508282019050828112155f8312168382125f841215161715611b5557611b546119f0565b5b92915050565b5f611b6582610e17565b91507f7fffffffffffffffffffffffffffffffffffffffffffffffffffffffffffffff8203611b9757611b966119f0565b5b600182019050919050565b5f81905092915050565b5f819050815f5260205f209050919050565b5f8154611bca816115b2565b611bd48186611ba2565b9450600182165f8114611bee5760018114611c0357611c35565b60ff1983168652811515820286019350611c35565b611c0c85611bac565b5f5b83811015611c2d57815481890152600182019150602081019050611c0e565b838801955050505b50505092915050565b5f611c498284611bbe565b915081905092915050565b5f60e0820190508181035f830152611c6b8161144e565b9050611c7a6020830189611982565b611c876040830188611982565b611c946060830187611982565b611ca16080830186611982565b611cae60a0830185611982565b611cbb60c0830184611982565b979650505050505050565b5f611cd08261134c565b9150611cdb8361134c565b9250828203905081811115611cf357611cf26119f0565b5b92915050565b611d028161134c565b82525050565b5f60a082019050611d1b5f830188611470565b611d286020830187611cf9565b611d356040830186611cf9565b611d426060830185610f23565b611d4f6080830184611cf9565b969550505050505056fea26469706673582212209a126fd76ff9618f9008dfa29bc96ca5773776aef2045247fac30e84a03b365264736f6c63430008140033","linkReferences":{}},"methodIdentifiers":{"begin()":"1bce6ff3","complete()":"522e1177","history(int256)":"f054c75d","recordStep(string,string,int256,int256,bool)":"2fb01144","status(bytes32)":"52ad0d5e","summary(bytes32)":"6f3e308b"},"id":132}