{"abi":[{"type":"function","name":"generate","inputs":[{"name":"projection","type":"string","internalType":"string"},{"name":"config","type":"string","internalType":"string"}],"outputs":[{"name":"","type":"tuple","internalType":"struct McpTarget.GenerateOkResult","components":[{"name":"success","type":"bool","internalType":"bool"},{"name":"tools","type":"string[]","internalType":"string[]"},{"name":"files","type":"string[]","internalType":"string[]"}]}],"stateMutability":"nonpayable"},{"type":"function","name":"listTools","inputs":[{"name":"concept","type":"string","internalType":"string"}],"outputs":[{"name":"","type":"tuple","internalType":"struct McpTarget.ListToolsOkResult","components":[{"name":"success","type":"bool","internalType":"bool"},{"name":"tools","type":"string[]","internalType":"string[]"},{"name":"resources","type":"string[]","internalType":"string[]"},{"name":"templates","type":"string[]","internalType":"string[]"}]}],"stateMutability":"nonpayable"},{"type":"function","name":"register","inputs":[],"outputs":[{"name":"name","type":"string","internalType":"string"},{"name":"category","type":"string","internalType":"string"},{"name":"formats","type":"string[]","internalType":"string[]"}],"stateMutability":"pure"},{"type":"function","name":"validate","inputs":[{"name":"tool","type":"bytes32","internalType":"bytes32"}],"outputs":[{"name":"","type":"tuple","internalType":"struct McpTarget.ValidateOkResult","components":[{"name":"success","type":"bool","internalType":"bool"},{"name":"tool","type":"bytes32","internalType":"bytes32"}]}],"stateMutability":"nonpayable"},{"type":"event","name":"GenerateCompleted","inputs":[{"name":"variant","type":"string","indexed":false,"internalType":"string"},{"name":"tools","type":"string[]","indexed":false,"internalType":"string[]"},{"name":"files","type":"string[]","indexed":false,"internalType":"string[]"},{"name":"count","type":"int256","indexed":false,"internalType":"int256"},{"name":"limit","type":"int256","indexed":false,"internalType":"int256"}],"anonymous":false},{"type":"event","name":"ListToolsCompleted","inputs":[{"name":"variant","type":"string","indexed":false,"internalType":"string"},{"name":"tools","type":"string[]","indexed":false,"internalType":"string[]"},{"name":"resources","type":"string[]","indexed":false,"internalType":"string[]"},{"name":"templates","type":"string[]","indexed":false,"internalType":"string[]"}],"anonymous":false},{"type":"event","name":"ValidateCompleted","inputs":[{"name":"variant","type":"string","indexed":false,"internalType":"string"},{"name":"tool","type":"bytes32","indexed":false,"internalType":"bytes32"}],"anonymous":false}],"bytecode":{"object":"0x608060405234801561000f575f80fd5b50611c4d8061001d5f395ff3fe608060405234801561000f575f80fd5b506004361061004a575f3560e01c80631aa3a0081461004e5780632e0126981461006e5780633ef605941461009e578063632735ad146100ce575b5f80fd5b6100566100fe565b60405161006593929190610ecf565b60405180910390f35b61008860048036038101906100839190610f5d565b610272565b6040516100959190610fde565b60405180910390f35b6100b860048036038101906100b39190611123565b61032c565b6040516100c5919061125b565b60405180910390f35b6100e860048036038101906100e3919061127b565b61075e565b6040516100f59190611345565b60405180910390f35b60608060606040518060400160405280600381526020017f6d6370000000000000000000000000000000000000000000000000000000000081525092506040518060400160405280601081526020017f696e746572666163652d746172676574000000000000000000000000000000008152509150600267ffffffffffffffff81111561018e5761018d610fff565b5b6040519080825280602002602001820160405280156101c157816020015b60608152602001906001900390816101ac5790505b5090506040518060400160405280600481526020017f6a736f6e00000000000000000000000000000000000000000000000000000000815250815f8151811061020d5761020c611365565b5b60200260200101819052506040518060400160405280600a81526020017f74797065736372697074000000000000000000000000000000000000000000008152508160018151811061026257610261611365565b5b6020026020010181905250909192565b61027a610c08565b5f808381526020019081526020015f205f9054906101000a900460ff166102d6576040517f08c379a00000000000000000000000000000000000000000000000000000000081526004016102cd906113dc565b60405180910390fd5b7f431666eceddcbdcb27849a50bf6a540ef06c02dc0175e9f28d845a1d7c009012826040516103059190611453565b60405180910390a16040518060400160405280600115158152602001838152509050919050565b610334610c25565b5f8260405160200161034691906114b9565b6040516020818303038152906040528051906020012090505f60035f8381526020019081526020015f20805480602002602001604051908101604052809291908181526020015f905b82821015610437578382905f5260205f200180546103ac906114fc565b80601f01602080910402602001604051908101604052809291908181526020018280546103d8906114fc565b80156104235780601f106103fa57610100808354040283529160200191610423565b820191905f5260205f20905b81548152906001019060200180831161040657829003601f168201915b50505050508152602001906001019061038f565b5050505090505f60045f8481526020019081526020015f20805480602002602001604051908101604052809291908181526020015f905b82821015610516578382905f5260205f2001805461048b906114fc565b80601f01602080910402602001604051908101604052809291908181526020018280546104b7906114fc565b80156105025780601f106104d957610100808354040283529160200191610502565b820191905f5260205f20905b8154815290600101906020018083116104e557829003601f168201915b50505050508152602001906001019061046e565b5050505090505f60055f8581526020019081526020015f20805480602002602001604051908101604052809291908181526020015f905b828210156105f5578382905f5260205f2001805461056a906114fc565b80601f0160208091040260200160405190810160405280929190818152602001828054610596906114fc565b80156105e15780601f106105b8576101008083540402835291602001916105e1565b820191905f5260205f20905b8154815290600101906020018083116105c457829003601f168201915b50505050508152602001906001019061054d565b5050505090505f8351036106f4575f67ffffffffffffffff81111561061d5761061c610fff565b5b60405190808252806020026020018201604052801561065057816020015b606081526020019060019003908161063b5790505b5092505f67ffffffffffffffff81111561066d5761066c610fff565b5b6040519080825280602002602001820160405280156106a057816020015b606081526020019060019003908161068b5790505b5091505f67ffffffffffffffff8111156106bd576106bc610fff565b5b6040519080825280602002602001820160405280156106f057816020015b60608152602001906001900390816106db5790505b5090505b7febc5948f86f570c894c795d3c84236df18090de3fca5a04b664a6ba3368f43fa8383836040516107279392919061152c565b60405180910390a1604051806080016040528060011515815260200184815260200183815260200182815250945050505050919050565b610766610c4e565b5f8351116107a9576040517f08c379a00000000000000000000000000000000000000000000000000000000081526004016107a0906115d3565b60405180910390fd5b5f836006546040516020016107bf92919061161a565b60405160208183030381529060405280519060200120905060065f8154809291906107e99061166e565b91905055505f8460405160200161080091906116ff565b60405160208183030381529060405290505f808381526020019081526020015f205f9054906101000a900460ff166108815760015f808481526020019081526020015f205f6101000a81548160ff021916908315150217905550600182908060018154018082558091505060019003905f5260205f20015f90919091909150555b8060025f8481526020019081526020015f20908161089f91906118bd565b505f600167ffffffffffffffff8111156108bc576108bb610fff565b5b6040519080825280602002602001820160405280156108ef57816020015b60608152602001906001900390816108da5790505b50905081815f8151811061090657610905611365565b5b60200260200101819052505f600267ffffffffffffffff81111561092d5761092c610fff565b5b60405190808252806020026020018201604052801561096057816020015b606081526020019060019003908161094b5790505b5090508660405160200161097491906119d6565b604051602081830303815290604052815f8151811061099657610995611365565b5b6020026020010181905250866040516020016109b29190611a41565b604051602081830303815290604052816001815181106109d5576109d4611365565b5b60200260200101819052505f876040516020016109f291906114b9565b6040516020818303038152906040528051906020012090508260035f8381526020019081526020015f209080519060200190610a2f929190610c70565b505f600167ffffffffffffffff811115610a4c57610a4b610fff565b5b604051908082528060200260200182016040528015610a7f57816020015b6060815260200190600190039081610a6a5790505b50905088604051602001610a939190611aac565b604051602081830303815290604052815f81518110610ab557610ab4611365565b5b60200260200101819052508060045f8481526020019081526020015f209080519060200190610ae5929190610c70565b505f600167ffffffffffffffff811115610b0257610b01610fff565b5b604051908082528060200260200182016040528015610b3557816020015b6060815260200190600190039081610b205790505b50905089604051602001610b499190611b17565b604051602081830303815290604052815f81518110610b6b57610b6a611365565b5b60200260200101819052508060055f8581526020019081526020015f209080519060200190610b9b929190610c70565b507f5ffe2b7f26d192cd37eeacb1278b4686409101fbb7e4c9a35e1ed941709de371858560016080604051610bd39493929190611bb3565b60405180910390a160405180606001604052806001151581526020018681526020018581525097505050505050505092915050565b60405180604001604052805f151581526020015f80191681525090565b60405180608001604052805f151581526020016060815260200160608152602001606081525090565b60405180606001604052805f1515815260200160608152602001606081525090565b828054828255905f5260205f20908101928215610cb6579160200282015b82811115610cb5578251829081610ca591906118bd565b5091602001919060010190610c8e565b5b509050610cc39190610cc7565b5090565b5b80821115610ce6575f8181610cdd9190610cea565b50600101610cc8565b5090565b508054610cf6906114fc565b5f825580601f10610d075750610d24565b601f0160209004905f5260205f2090810190610d239190610d27565b5b50565b5b80821115610d3e575f815f905550600101610d28565b5090565b5f81519050919050565b5f82825260208201905092915050565b5f5b83811015610d79578082015181840152602081019050610d5e565b5f8484015250505050565b5f601f19601f8301169050919050565b5f610d9e82610d42565b610da88185610d4c565b9350610db8818560208601610d5c565b610dc181610d84565b840191505092915050565b5f81519050919050565b5f82825260208201905092915050565b5f819050602082019050919050565b5f82825260208201905092915050565b5f610e0f82610d42565b610e198185610df5565b9350610e29818560208601610d5c565b610e3281610d84565b840191505092915050565b5f610e488383610e05565b905092915050565b5f602082019050919050565b5f610e6682610dcc565b610e708185610dd6565b935083602082028501610e8285610de6565b805f5b85811015610ebd5784840389528151610e9e8582610e3d565b9450610ea983610e50565b925060208a01995050600181019050610e85565b50829750879550505050505092915050565b5f6060820190508181035f830152610ee78186610d94565b90508181036020830152610efb8185610d94565b90508181036040830152610f0f8184610e5c565b9050949350505050565b5f604051905090565b5f80fd5b5f80fd5b5f819050919050565b610f3c81610f2a565b8114610f46575f80fd5b50565b5f81359050610f5781610f33565b92915050565b5f60208284031215610f7257610f71610f22565b5b5f610f7f84828501610f49565b91505092915050565b5f8115159050919050565b610f9c81610f88565b82525050565b610fab81610f2a565b82525050565b604082015f820151610fc55f850182610f93565b506020820151610fd86020850182610fa2565b50505050565b5f604082019050610ff15f830184610fb1565b92915050565b5f80fd5b5f80fd5b7f4e487b71000000000000000000000000000000000000000000000000000000005f52604160045260245ffd5b61103582610d84565b810181811067ffffffffffffffff8211171561105457611053610fff565b5b80604052505050565b5f611066610f19565b9050611072828261102c565b919050565b5f67ffffffffffffffff82111561109157611090610fff565b5b61109a82610d84565b9050602081019050919050565b828183375f83830152505050565b5f6110c76110c284611077565b61105d565b9050828152602081018484840111156110e3576110e2610ffb565b5b6110ee8482856110a7565b509392505050565b5f82601f83011261110a57611109610ff7565b5b813561111a8482602086016110b5565b91505092915050565b5f6020828403121561113857611137610f22565b5b5f82013567ffffffffffffffff81111561115557611154610f26565b5b611161848285016110f6565b91505092915050565b5f82825260208201905092915050565b5f61118482610dcc565b61118e818561116a565b9350836020820285016111a085610de6565b805f5b858110156111db57848403895281516111bc8582610e3d565b94506111c783610e50565b925060208a019950506001810190506111a3565b50829750879550505050505092915050565b5f608083015f8301516112025f860182610f93565b506020830151848203602086015261121a828261117a565b91505060408301518482036040860152611234828261117a565b9150506060830151848203606086015261124e828261117a565b9150508091505092915050565b5f6020820190508181035f83015261127381846111ed565b905092915050565b5f806040838503121561129157611290610f22565b5b5f83013567ffffffffffffffff8111156112ae576112ad610f26565b5b6112ba858286016110f6565b925050602083013567ffffffffffffffff8111156112db576112da610f26565b5b6112e7858286016110f6565b9150509250929050565b5f606083015f8301516113065f860182610f93565b506020830151848203602086015261131e828261117a565b91505060408301518482036040860152611338828261117a565b9150508091505092915050565b5f6020820190508181035f83015261135d81846112f1565b905092915050565b7f4e487b71000000000000000000000000000000000000000000000000000000005f52603260045260245ffd5b7f546f6f6c206e6f7420666f756e640000000000000000000000000000000000005f82015250565b5f6113c6600e83610d4c565b91506113d182611392565b602082019050919050565b5f6020820190508181035f8301526113f3816113ba565b9050919050565b7f6f6b0000000000000000000000000000000000000000000000000000000000005f82015250565b5f61142e600283610d4c565b9150611439826113fa565b602082019050919050565b61144d81610f2a565b82525050565b5f6040820190508181035f83015261146a81611422565b90506114796020830184611444565b92915050565b5f81905092915050565b5f61149382610d42565b61149d818561147f565b93506114ad818560208601610d5c565b80840191505092915050565b5f6114c48284611489565b915081905092915050565b7f4e487b71000000000000000000000000000000000000000000000000000000005f52602260045260245ffd5b5f600282049050600182168061151357607f821691505b602082108103611526576115256114cf565b5b50919050565b5f6080820190508181035f83015261154381611422565b905081810360208301526115578186610e5c565b9050818103604083015261156b8185610e5c565b9050818103606083015261157f8184610e5c565b9050949350505050565b7f50726f6a656374696f6e2063616e6e6f7420626520656d7074790000000000005f82015250565b5f6115bd601a83610d4c565b91506115c882611589565b602082019050919050565b5f6020820190508181035f8301526115ea816115b1565b9050919050565b5f819050919050565b5f819050919050565b61161461160f826115f1565b6115fa565b82525050565b5f6116258285611489565b91506116318284611603565b6020820191508190509392505050565b7f4e487b71000000000000000000000000000000000000000000000000000000005f52601160045260245ffd5b5f611678826115f1565b91507fffffffffffffffffffffffffffffffffffffffffffffffffffffffffffffffff82036116aa576116a9611641565b5b600182019050919050565b7f5f746f6f6c0000000000000000000000000000000000000000000000000000005f82015250565b5f6116e960058361147f565b91506116f4826116b5565b600582019050919050565b5f61170a8284611489565b9150611715826116dd565b915081905092915050565b5f819050815f5260205f209050919050565b5f6020601f8301049050919050565b5f82821b905092915050565b5f6008830261177c7fffffffffffffffffffffffffffffffffffffffffffffffffffffffffffffffff82611741565b6117868683611741565b95508019841693508086168417925050509392505050565b5f819050919050565b5f6117c16117bc6117b7846115f1565b61179e565b6115f1565b9050919050565b5f819050919050565b6117da836117a7565b6117ee6117e6826117c8565b84845461174d565b825550505050565b5f90565b6118026117f6565b61180d8184846117d1565b505050565b5b81811015611830576118255f826117fa565b600181019050611813565b5050565b601f8211156118755761184681611720565b61184f84611732565b8101602085101561185e578190505b61187261186a85611732565b830182611812565b50505b505050565b5f82821c905092915050565b5f6118955f198460080261187a565b1980831691505092915050565b5f6118ad8383611886565b9150826002028217905092915050565b6118c682610d42565b67ffffffffffffffff8111156118df576118de610fff565b5b6118e982546114fc565b6118f4828285611834565b5f60209050601f831160018114611925575f8415611913578287015190505b61191d85826118a2565b865550611984565b601f19841661193386611720565b5f5b8281101561195a57848901518255600182019150602085019450602081019050611935565b868310156119775784890151611973601f891682611886565b8355505b6001600288020188555050505b505050505050565b7f2e6d63702e6a736f6e00000000000000000000000000000000000000000000005f82015250565b5f6119c060098361147f565b91506119cb8261198c565b600982019050919050565b5f6119e18284611489565b91506119ec826119b4565b915081905092915050565b7f2e6d63702e7473000000000000000000000000000000000000000000000000005f82015250565b5f611a2b60078361147f565b9150611a36826119f7565b600782019050919050565b5f611a4c8284611489565b9150611a5782611a1f565b915081905092915050565b7f3a2f2f7265736f757263650000000000000000000000000000000000000000005f82015250565b5f611a96600b8361147f565b9150611aa182611a62565b600b82019050919050565b5f611ab78284611489565b9150611ac282611a8a565b915081905092915050565b7f3a2f2f7b69647d000000000000000000000000000000000000000000000000005f82015250565b5f611b0160078361147f565b9150611b0c82611acd565b600782019050919050565b5f611b228284611489565b9150611b2d82611af5565b915081905092915050565b5f819050919050565b5f819050919050565b5f611b64611b5f611b5a84611b38565b61179e565b611b41565b9050919050565b611b7481611b4a565b82525050565b5f819050919050565b5f611b9d611b98611b9384611b7a565b61179e565b611b41565b9050919050565b611bad81611b83565b82525050565b5f60a0820190508181035f830152611bca81611422565b90508181036020830152611bde8187610e5c565b90508181036040830152611bf28186610e5c565b9050611c016060830185611b6b565b611c0e6080830184611ba4565b9594505050505056fea26469706673582212208743a6707e4435df51f969f92860404c14611cdc7c42ddf8f10049ba26a2272b64736f6c63430008140033","linkReferences":{}},"methodIdentifiers":{"generate(string,string)":"632735ad","listTools(string)":"3ef60594","register()":"1aa3a008","validate(bytes32)":"2e012698"},"id":167}