{"abi":[{"type":"function","name":"diff","inputs":[{"name":"projectionId","type":"bytes32","internalType":"bytes32"},{"name":"previous","type":"bytes32","internalType":"bytes32"}],"outputs":[{"name":"","type":"tuple","internalType":"struct Projection.DiffOkResult","components":[{"name":"success","type":"bool","internalType":"bool"},{"name":"added","type":"string[]","internalType":"string[]"},{"name":"removed","type":"string[]","internalType":"string[]"},{"name":"changed","type":"string[]","internalType":"string[]"}]}],"stateMutability":"nonpayable"},{"type":"function","name":"inferResources","inputs":[{"name":"projectionId","type":"bytes32","internalType":"bytes32"}],"outputs":[{"name":"","type":"tuple","internalType":"struct Projection.InferResourcesOkResult","components":[{"name":"success","type":"bool","internalType":"bool"},{"name":"projection","type":"bytes32","internalType":"bytes32"},{"name":"resources","type":"string[]","internalType":"string[]"}]}],"stateMutability":"nonpayable"},{"type":"function","name":"project","inputs":[{"name":"manifest","type":"string","internalType":"string"},{"name":"annotations","type":"string","internalType":"string"}],"outputs":[{"name":"","type":"tuple","internalType":"struct Projection.ProjectOkResult","components":[{"name":"success","type":"bool","internalType":"bool"},{"name":"projection","type":"bytes32","internalType":"bytes32"},{"name":"shapes","type":"int256","internalType":"int256"},{"name":"actions","type":"int256","internalType":"int256"},{"name":"traits","type":"int256","internalType":"int256"}]}],"stateMutability":"nonpayable"},{"type":"function","name":"validate","inputs":[{"name":"projectionId","type":"bytes32","internalType":"bytes32"}],"outputs":[{"name":"","type":"tuple","internalType":"struct Projection.ValidateOkResult","components":[{"name":"success","type":"bool","internalType":"bool"},{"name":"projection","type":"bytes32","internalType":"bytes32"},{"name":"warnings","type":"string[]","internalType":"string[]"}]}],"stateMutability":"nonpayable"},{"type":"event","name":"DiffCompleted","inputs":[{"name":"variant","type":"string","indexed":false,"internalType":"string"},{"name":"added","type":"string[]","indexed":false,"internalType":"string[]"},{"name":"removed","type":"string[]","indexed":false,"internalType":"string[]"},{"name":"changed","type":"string[]","indexed":false,"internalType":"string[]"}],"anonymous":false},{"type":"event","name":"InferResourcesCompleted","inputs":[{"name":"variant","type":"string","indexed":false,"internalType":"string"},{"name":"projection","type":"bytes32","indexed":false,"internalType":"bytes32"},{"name":"resources","type":"string[]","indexed":false,"internalType":"string[]"}],"anonymous":false},{"type":"event","name":"ProjectCompleted","inputs":[{"name":"variant","type":"string","indexed":false,"internalType":"string"},{"name":"projection","type":"bytes32","indexed":false,"internalType":"bytes32"},{"name":"shapes","type":"int256","indexed":false,"internalType":"int256"},{"name":"actions","type":"int256","indexed":false,"internalType":"int256"},{"name":"traits","type":"int256","indexed":false,"internalType":"int256"},{"name":"errors","type":"string[]","indexed":false,"internalType":"string[]"},{"name":"missing","type":"string[]","indexed":false,"internalType":"string[]"}],"anonymous":false},{"type":"event","name":"ValidateCompleted","inputs":[{"name":"variant","type":"string","indexed":false,"internalType":"string"},{"name":"projection","type":"bytes32","indexed":false,"internalType":"bytes32"},{"name":"warnings","type":"string[]","indexed":false,"internalType":"string[]"},{"name":"changes","type":"string[]","indexed":false,"internalType":"string[]"},{"name":"missing","type":"string[]","indexed":false,"internalType":"string[]"}],"anonymous":false}],"bytecode":{"object":"0x608060405234801561000f575f80fd5b50611dbc8061001d5f395ff3fe608060405234801561000f575f80fd5b506004361061004a575f3560e01c80632e0126981461004e57806364bf36791461007e5780636648bcb1146100ae57806380e54f4d146100de575b5f80fd5b61006860048036038101906100639190610dee565b61010e565b6040516100759190610fd4565b60405180910390f35b61009860048036038101906100939190610ff4565b61037d565b6040516100a591906110a0565b60405180910390f35b6100c860048036038101906100c39190610dee565b610722565b6040516100d5919061110d565b60405180910390f35b6100f860048036038101906100f39190611259565b6108ca565b604051610105919061134d565b60405180910390f35b610116610c38565b5f808381526020019081526020015f2060080160019054906101000a900460ff16610176576040517f08c379a000000000000000000000000000000000000000000000000000000000815260040161016d906113c0565b60405180910390fd5b5f805f8481526020019081526020015f2090506001816008015f6101000a81548160ff0219169083151502179055505f8067ffffffffffffffff8111156101c0576101bf611135565b5b6040519080825280602002602001820160405280156101f357816020015b60608152602001906001900390816101de5790505b5090505f8067ffffffffffffffff81111561021157610210611135565b5b60405190808252806020026020018201604052801561024457816020015b606081526020019060019003908161022f5790505b5090507f1fe8e5675a70a8b87bd255d498cddff89cd0ecb7e93350e1c1d42ae1e50590688584600601848460405161027f9493929190611657565b60405180910390a1604051806060016040528060011515815260200186815260200184600601805480602002602001604051908101604052809291908181526020015f905b8282101561036c578382905f5260205f200180546102e190611490565b80601f016020809104026020016040519081016040528092919081815260200182805461030d90611490565b80156103585780601f1061032f57610100808354040283529160200191610358565b820191905f5260205f20905b81548152906001019060200180831161033b57829003601f168201915b5050505050815260200190600101906102c4565b505050508152509350505050919050565b610385610c5c565b5f808481526020019081526020015f2060080160019054906101000a900460ff166103e5576040517f08c379a00000000000000000000000000000000000000000000000000000000081526004016103dc906113c0565b60405180910390fd5b5f808381526020019081526020015f2060080160019054906101000a900460ff16610445576040517f08c379a000000000000000000000000000000000000000000000000000000000815260040161043c90611732565b60405180910390fd5b5f8067ffffffffffffffff8111156104605761045f611135565b5b60405190808252806020026020018201604052801561049357816020015b606081526020019060019003908161047e5790505b5090505f8067ffffffffffffffff8111156104b1576104b0611135565b5b6040519080825280602002602001820160405280156104e457816020015b60608152602001906001900390816104cf5790505b5090505f8067ffffffffffffffff81111561050257610501611135565b5b60405190808252806020026020018201604052801561053557816020015b60608152602001906001900390816105205790505b5090505f805f8881526020019081526020015f2090505f805f8881526020019081526020015f2090505f815f0160405160200161057291906117da565b60405160208183030381529060405280519060200120835f0160405160200161059b91906117da565b604051602081830303815290604052805190602001201415905080156106b557600167ffffffffffffffff8111156105d6576105d5611135565b5b60405190808252806020026020018201604052801561060957816020015b60608152602001906001900390816105f45790505b509350825f01805461061a90611490565b80601f016020809104026020016040519081016040528092919081815260200182805461064690611490565b80156106915780601f1061066857610100808354040283529160200191610691565b820191905f5260205f20905b81548152906001019060200180831161067457829003601f168201915b5050505050845f815181106106a9576106a86117f0565b5b60200260200101819052505b7fea70f77f40e00307778e08216331a357a7493c001c1f6deefad686e3a273fe5d8686866040516106e89392919061181d565b60405180910390a1604051806080016040528060011515815260200187815260200186815260200185815250965050505050505092915050565b61072a610c85565b5f808381526020019081526020015f2060080160019054906101000a900460ff1661078a576040517f08c379a0000000000000000000000000000000000000000000000000000000008152600401610781906113c0565b60405180910390fd5b5f805f8481526020019081526020015f20600501805480602002602001604051908101604052809291908181526020015f905b82821015610865578382905f5260205f200180546107da90611490565b80601f016020809104026020016040519081016040528092919081815260200182805461080690611490565b80156108515780601f1061082857610100808354040283529160200191610851565b820191905f5260205f20905b81548152906001019060200180831161083457829003601f168201915b5050505050815260200190600101906107bd565b5050505090507fa2fdc542c564c77b012a339de19669f923ff98e404e299c348395519ede9b7f7838260405161089c92919061187a565b60405180910390a1604051806060016040528060011515815260200184815260200182815250915050919050565b6108d2610ca9565b5f835111610915576040517f08c379a000000000000000000000000000000000000000000000000000000000815260040161090c90611905565b60405180910390fd5b5f825111610958576040517f08c379a000000000000000000000000000000000000000000000000000000000815260040161094f9061196d565b60405180910390fd5b5f83834260025f81548092919061096e906119c1565b919050556040516020016109859493929190611a58565b6040516020818303038152906040528051906020012090505f600190505f600190505f600190505f8067ffffffffffffffff8111156109c7576109c6611135565b5b6040519080825280602002602001820160405280156109fa57816020015b60608152602001906001900390816109e55790505b5090505f600167ffffffffffffffff811115610a1957610a18611135565b5b604051908082528060200260200182016040528015610a4c57816020015b6060815260200190600190039081610a375790505b50905088815f81518110610a6357610a626117f0565b5b60200260200101819052506040518061014001604052808a81526020018981526020018681526020018581526020018481526020018281526020018381526020014281526020015f15158152602001600115158152505f808881526020019081526020015f205f820151815f019081610adc9190611c28565b506020820151816001019081610af29190611c28565b5060408201518160020155606082015181600301556080820151816004015560a0820151816005019080519060200190610b2d929190610cd8565b5060c0820151816006019080519060200190610b4a929190610cd8565b5060e08201518160070155610100820151816008015f6101000a81548160ff0219169083151502179055506101208201518160080160016101000a81548160ff021916908315150217905550905050600186908060018154018082558091505060019003905f5260205f20015f90919091909150557f32187badf6c525988c11624fa7d3a4beda505077a9f85fdd2bfa4791c7139f78868686868687604051610bf896959493929190611d06565b60405180910390a16040518060a0016040528060011515815260200187815260200186815260200185815260200184815250965050505050505092915050565b60405180606001604052805f151581526020015f8019168152602001606081525090565b60405180608001604052805f151581526020016060815260200160608152602001606081525090565b60405180606001604052805f151581526020015f8019168152602001606081525090565b6040518060a001604052805f151581526020015f80191681526020015f81526020015f81526020015f81525090565b828054828255905f5260205f20908101928215610d1e579160200282015b82811115610d1d578251829081610d0d9190611c28565b5091602001919060010190610cf6565b5b509050610d2b9190610d2f565b5090565b5b80821115610d4e575f8181610d459190610d52565b50600101610d30565b5090565b508054610d5e90611490565b5f825580601f10610d6f5750610d8c565b601f0160209004905f5260205f2090810190610d8b9190610d8f565b5b50565b5b80821115610da6575f815f905550600101610d90565b5090565b5f604051905090565b5f80fd5b5f80fd5b5f819050919050565b610dcd81610dbb565b8114610dd7575f80fd5b50565b5f81359050610de881610dc4565b92915050565b5f60208284031215610e0357610e02610db3565b5b5f610e1084828501610dda565b91505092915050565b5f8115159050919050565b610e2d81610e19565b82525050565b610e3c81610dbb565b82525050565b5f81519050919050565b5f82825260208201905092915050565b5f819050602082019050919050565b5f81519050919050565b5f82825260208201905092915050565b5f5b83811015610ea2578082015181840152602081019050610e87565b5f8484015250505050565b5f601f19601f8301169050919050565b5f610ec782610e6b565b610ed18185610e75565b9350610ee1818560208601610e85565b610eea81610ead565b840191505092915050565b5f610f008383610ebd565b905092915050565b5f602082019050919050565b5f610f1e82610e42565b610f288185610e4c565b935083602082028501610f3a85610e5c565b805f5b85811015610f755784840389528151610f568582610ef5565b9450610f6183610f08565b925060208a01995050600181019050610f3d565b50829750879550505050505092915050565b5f606083015f830151610f9c5f860182610e24565b506020830151610faf6020860182610e33565b5060408301518482036040860152610fc78282610f14565b9150508091505092915050565b5f6020820190508181035f830152610fec8184610f87565b905092915050565b5f806040838503121561100a57611009610db3565b5b5f61101785828601610dda565b925050602061102885828601610dda565b9150509250929050565b5f608083015f8301516110475f860182610e24565b506020830151848203602086015261105f8282610f14565b915050604083015184820360408601526110798282610f14565b915050606083015184820360608601526110938282610f14565b9150508091505092915050565b5f6020820190508181035f8301526110b88184611032565b905092915050565b5f606083015f8301516110d55f860182610e24565b5060208301516110e86020860182610e33565b50604083015184820360408601526111008282610f14565b9150508091505092915050565b5f6020820190508181035f83015261112581846110c0565b905092915050565b5f80fd5b5f80fd5b7f4e487b71000000000000000000000000000000000000000000000000000000005f52604160045260245ffd5b61116b82610ead565b810181811067ffffffffffffffff8211171561118a57611189611135565b5b80604052505050565b5f61119c610daa565b90506111a88282611162565b919050565b5f67ffffffffffffffff8211156111c7576111c6611135565b5b6111d082610ead565b9050602081019050919050565b828183375f83830152505050565b5f6111fd6111f8846111ad565b611193565b90508281526020810184848401111561121957611218611131565b5b6112248482856111dd565b509392505050565b5f82601f8301126112405761123f61112d565b5b81356112508482602086016111eb565b91505092915050565b5f806040838503121561126f5761126e610db3565b5b5f83013567ffffffffffffffff81111561128c5761128b610db7565b5b6112988582860161122c565b925050602083013567ffffffffffffffff8111156112b9576112b8610db7565b5b6112c58582860161122c565b9150509250929050565b5f819050919050565b6112e1816112cf565b82525050565b60a082015f8201516112fb5f850182610e24565b50602082015161130e6020850182610e33565b50604082015161132160408501826112d8565b50606082015161133460608501826112d8565b50608082015161134760808501826112d8565b50505050565b5f60a0820190506113605f8301846112e7565b92915050565b5f82825260208201905092915050565b7f50726f6a656374696f6e20646f6573206e6f74206578697374000000000000005f82015250565b5f6113aa601983611366565b91506113b582611376565b602082019050919050565b5f6020820190508181035f8301526113d78161139e565b9050919050565b7f6f6b0000000000000000000000000000000000000000000000000000000000005f82015250565b5f611412600283611366565b915061141d826113de565b602082019050919050565b61143181610dbb565b82525050565b5f81549050919050565b5f82825260208201905092915050565b5f819050815f5260205f209050919050565b7f4e487b71000000000000000000000000000000000000000000000000000000005f52602260045260245ffd5b5f60028204905060018216806114a757607f821691505b6020821081036114ba576114b9611463565b5b50919050565b5f819050815f5260205f209050919050565b5f81546114de81611490565b6114e88186610e75565b9450600182165f811461150257600181146115185761154a565b60ff19831686528115156020028601935061154a565b611521856114c0565b5f5b8381101561154257815481890152600182019150602081019050611523565b808801955050505b50505092915050565b5f61155e83836114d2565b905092915050565b5f600182019050919050565b5f61157c82611437565b6115868185611441565b93508360208202850161159885611451565b805f5b858110156115d2578484038952816115b38582611553565b94506115be83611566565b925060208a0199505060018101905061159b565b50829750879550505050505092915050565b5f6115ee82610e42565b6115f88185611441565b93508360208202850161160a85610e5c565b805f5b8581101561164557848403895281516116268582610ef5565b945061163183610f08565b925060208a0199505060018101905061160d565b50829750879550505050505092915050565b5f60a0820190508181035f83015261166e81611406565b905061167d6020830187611428565b818103604083015261168f8186611572565b905081810360608301526116a381856115e4565b905081810360808301526116b781846115e4565b905095945050505050565b7f50726576696f75732070726f6a656374696f6e20646f6573206e6f74206578695f8201527f7374000000000000000000000000000000000000000000000000000000000000602082015250565b5f61171c602283611366565b9150611727826116c2565b604082019050919050565b5f6020820190508181035f83015261174981611710565b9050919050565b5f81905092915050565b5f815461176681611490565b6117708186611750565b9450600182165f811461178a576001811461179f576117d1565b60ff19831686528115158202860193506117d1565b6117a8856114c0565b5f5b838110156117c9578154818901526001820191506020810190506117aa565b838801955050505b50505092915050565b5f6117e5828461175a565b915081905092915050565b7f4e487b71000000000000000000000000000000000000000000000000000000005f52603260045260245ffd5b5f6080820190508181035f83015261183481611406565b9050818103602083015261184881866115e4565b9050818103604083015261185c81856115e4565b9050818103606083015261187081846115e4565b9050949350505050565b5f6060820190508181035f83015261189181611406565b90506118a06020830185611428565b81810360408301526118b281846115e4565b90509392505050565b7f4d616e6966657374206d757374206e6f7420626520656d7074790000000000005f82015250565b5f6118ef601a83611366565b91506118fa826118bb565b602082019050919050565b5f6020820190508181035f83015261191c816118e3565b9050919050565b7f416e6e6f746174696f6e73206d757374206e6f7420626520656d7074790000005f82015250565b5f611957601d83611366565b915061196282611923565b602082019050919050565b5f6020820190508181035f8301526119848161194b565b9050919050565b7f4e487b71000000000000000000000000000000000000000000000000000000005f52601160045260245ffd5b5f819050919050565b5f6119cb826119b8565b91507fffffffffffffffffffffffffffffffffffffffffffffffffffffffffffffffff82036119fd576119fc61198b565b5b600182019050919050565b5f611a1282610e6b565b611a1c8185611750565b9350611a2c818560208601610e85565b80840191505092915050565b5f819050919050565b611a52611a4d826119b8565b611a38565b82525050565b5f611a638287611a08565b9150611a6f8286611a08565b9150611a7b8285611a41565b602082019150611a8b8284611a41565b60208201915081905095945050505050565b5f6020601f8301049050919050565b5f82821b905092915050565b5f60088302611ae77fffffffffffffffffffffffffffffffffffffffffffffffffffffffffffffffff82611aac565b611af18683611aac565b95508019841693508086168417925050509392505050565b5f819050919050565b5f611b2c611b27611b22846119b8565b611b09565b6119b8565b9050919050565b5f819050919050565b611b4583611b12565b611b59611b5182611b33565b848454611ab8565b825550505050565b5f90565b611b6d611b61565b611b78818484611b3c565b505050565b5b81811015611b9b57611b905f82611b65565b600181019050611b7e565b5050565b601f821115611be057611bb1816114c0565b611bba84611a9d565b81016020851015611bc9578190505b611bdd611bd585611a9d565b830182611b7d565b50505b505050565b5f82821c905092915050565b5f611c005f1984600802611be5565b1980831691505092915050565b5f611c188383611bf1565b9150826002028217905092915050565b611c3182610e6b565b67ffffffffffffffff811115611c4a57611c49611135565b5b611c548254611490565b611c5f828285611b9f565b5f60209050601f831160018114611c90575f8415611c7e578287015190505b611c888582611c0d565b865550611cef565b601f198416611c9e866114c0565b5f5b82811015611cc557848901518255600182019150602085019450602081019050611ca0565b86831015611ce25784890151611cde601f891682611bf1565b8355505b6001600288020188555050505b505050505050565b611d00816112cf565b82525050565b5f60e0820190508181035f830152611d1d81611406565b9050611d2c6020830189611428565b611d396040830188611cf7565b611d466060830187611cf7565b611d536080830186611cf7565b81810360a0830152611d6581856115e4565b905081810360c0830152611d7981846115e4565b905097965050505050505056fea264697066735822122037c65d843fea7d7d7416f62f7f39b625368359f7a10c3ba4f75c85cec106dc1564736f6c63430008140033","linkReferences":{}},"methodIdentifiers":{"diff(bytes32,bytes32)":"64bf3679","inferResources(bytes32)":"6648bcb1","project(string,string)":"80e54f4d","validate(bytes32)":"2e012698"},"id":202}