{"abi":[{"type":"function","name":"generate","inputs":[{"name":"projection","type":"string","internalType":"string"},{"name":"language","type":"string","internalType":"string"},{"name":"config","type":"string","internalType":"string"}],"outputs":[{"name":"","type":"tuple","internalType":"struct Sdk.GenerateOkResult","components":[{"name":"success","type":"bool","internalType":"bool"},{"name":"package","type":"bytes32","internalType":"bytes32"},{"name":"files","type":"string[]","internalType":"string[]"},{"name":"packageJson","type":"string","internalType":"string"}]}],"stateMutability":"nonpayable"},{"type":"function","name":"publish","inputs":[{"name":"packageId","type":"bytes32","internalType":"bytes32"},{"name":"registry","type":"string","internalType":"string"}],"outputs":[{"name":"","type":"tuple","internalType":"struct Sdk.PublishOkResult","components":[{"name":"success","type":"bool","internalType":"bool"},{"name":"package","type":"bytes32","internalType":"bytes32"},{"name":"publishedVersion","type":"string","internalType":"string"}]}],"stateMutability":"nonpayable"},{"type":"event","name":"GenerateCompleted","inputs":[{"name":"variant","type":"string","indexed":false,"internalType":"string"},{"name":"package","type":"bytes32","indexed":false,"internalType":"bytes32"},{"name":"files","type":"string[]","indexed":false,"internalType":"string[]"}],"anonymous":false},{"type":"event","name":"PublishCompleted","inputs":[{"name":"variant","type":"string","indexed":false,"internalType":"string"},{"name":"package","type":"bytes32","indexed":false,"internalType":"bytes32"}],"anonymous":false}],"bytecode":{"object":"0x608060405234801561000f575f80fd5b506115a58061001d5f395ff3fe608060405234801561000f575f80fd5b5060043610610034575f3560e01c8063987b393914610038578063c98e984e14610068575b5f80fd5b610052600480360381019061004d9190610881565b610098565b60405161005f9190610af3565b60405180910390f35b610082600480360381019061007d9190610b3d565b610426565b60405161008f9190610be4565b60405180910390f35b6100a0610613565b5f8451116100e3576040517f08c379a00000000000000000000000000000000000000000000000000000000081526004016100da90610c5e565b60405180910390fd5b5f835111610126576040517f08c379a000000000000000000000000000000000000000000000000000000000815260040161011d90610cc6565b60405180910390fd5b5f84844260025f81548092919061013c90610d1a565b919050556040516020016101539493929190610dbb565b6040516020818303038152906040528051906020012090505f600267ffffffffffffffff8111156101875761018661075d565b5b6040519080825280602002602001820160405280156101ba57816020015b60608152602001906001900390816101a55790505b509050846040516020016101ce9190610e4a565b604051602081830303815290604052815f815181106101f0576101ef610e6b565b5b60200260200101819052508460405160200161020c9190610ee2565b6040516020818303038152906040528160018151811061022f5761022e610e6b565b5b60200260200101819052505f868660405160200161024e929190610fe1565b604051602081830303815290604052905060405180610120016040528088815260200187815260200186815260200183815260200182815260200160405180602001604052805f81525081526020015f15158152602001428152602001600115158152505f808581526020019081526020015f205f820151815f0190816102d5919061121f565b5060208201518160010190816102eb919061121f565b506040820151816002019081610301919061121f565b50606082015181600301908051906020019061031e92919061063e565b506080820151816004019081610334919061121f565b5060a082015181600501908161034a919061121f565b5060c0820151816006015f6101000a81548160ff02191690831515021790555060e08201518160070155610100820151816008015f6101000a81548160ff021916908315150217905550905050600183908060018154018082558091505060019003905f5260205f20015f90919091909150557f0da97dbf1aebb3e58f3b32b67a8ac71e19e73bb343e3d7daac7c1a8a432f6d1b83836040516103ee9291906113ca565b60405180910390a160405180608001604052806001151581526020018481526020018381526020018281525093505050509392505050565b61042e610695565b5f808481526020019081526020015f206008015f9054906101000a900460ff1661048d576040517f08c379a000000000000000000000000000000000000000000000000000000000815260040161048490611455565b60405180910390fd5b5f808481526020019081526020015f206006015f9054906101000a900460ff16156104ed576040517f08c379a00000000000000000000000000000000000000000000000000000000081526004016104e4906114bd565b60405180910390fd5b5f825111610530576040517f08c379a000000000000000000000000000000000000000000000000000000000815260040161052790611525565b60405180910390fd5b5f6040518060400160405280600581526020017f312e302e30000000000000000000000000000000000000000000000000000000815250905060015f808681526020019081526020015f206006015f6101000a81548160ff021916908315150217905550805f808681526020019081526020015f2060050190816105b4919061121f565b507f81165fcdb80daeb8cfc49f816dfa55af666cfa72641285ea5723ecb29d2b3fec846040516105e49190611543565b60405180910390a160405180606001604052806001151581526020018581526020018281525091505092915050565b60405180608001604052805f151581526020015f801916815260200160608152602001606081525090565b828054828255905f5260205f20908101928215610684579160200282015b82811115610683578251829081610673919061121f565b509160200191906001019061065c565b5b50905061069191906106b9565b5090565b60405180606001604052805f151581526020015f8019168152602001606081525090565b5b808211156106d8575f81816106cf91906106dc565b506001016106ba565b5090565b5080546106e890611052565b5f825580601f106106f95750610716565b601f0160209004905f5260205f20908101906107159190610719565b5b50565b5b80821115610730575f815f90555060010161071a565b5090565b5f604051905090565b5f80fd5b5f80fd5b5f80fd5b5f80fd5b5f601f19601f8301169050919050565b7f4e487b71000000000000000000000000000000000000000000000000000000005f52604160045260245ffd5b6107938261074d565b810181811067ffffffffffffffff821117156107b2576107b161075d565b5b80604052505050565b5f6107c4610734565b90506107d0828261078a565b919050565b5f67ffffffffffffffff8211156107ef576107ee61075d565b5b6107f88261074d565b9050602081019050919050565b828183375f83830152505050565b5f610825610820846107d5565b6107bb565b90508281526020810184848401111561084157610840610749565b5b61084c848285610805565b509392505050565b5f82601f83011261086857610867610745565b5b8135610878848260208601610813565b91505092915050565b5f805f606084860312156108985761089761073d565b5b5f84013567ffffffffffffffff8111156108b5576108b4610741565b5b6108c186828701610854565b935050602084013567ffffffffffffffff8111156108e2576108e1610741565b5b6108ee86828701610854565b925050604084013567ffffffffffffffff81111561090f5761090e610741565b5b61091b86828701610854565b9150509250925092565b5f8115159050919050565b61093981610925565b82525050565b5f819050919050565b6109518161093f565b82525050565b5f81519050919050565b5f82825260208201905092915050565b5f819050602082019050919050565b5f81519050919050565b5f82825260208201905092915050565b5f5b838110156109b757808201518184015260208101905061099c565b5f8484015250505050565b5f6109cc82610980565b6109d6818561098a565b93506109e681856020860161099a565b6109ef8161074d565b840191505092915050565b5f610a0583836109c2565b905092915050565b5f602082019050919050565b5f610a2382610957565b610a2d8185610961565b935083602082028501610a3f85610971565b805f5b85811015610a7a5784840389528151610a5b85826109fa565b9450610a6683610a0d565b925060208a01995050600181019050610a42565b50829750879550505050505092915050565b5f608083015f830151610aa15f860182610930565b506020830151610ab46020860182610948565b5060408301518482036040860152610acc8282610a19565b91505060608301518482036060860152610ae682826109c2565b9150508091505092915050565b5f6020820190508181035f830152610b0b8184610a8c565b905092915050565b610b1c8161093f565b8114610b26575f80fd5b50565b5f81359050610b3781610b13565b92915050565b5f8060408385031215610b5357610b5261073d565b5b5f610b6085828601610b29565b925050602083013567ffffffffffffffff811115610b8157610b80610741565b5b610b8d85828601610854565b9150509250929050565b5f606083015f830151610bac5f860182610930565b506020830151610bbf6020860182610948565b5060408301518482036040860152610bd782826109c2565b9150508091505092915050565b5f6020820190508181035f830152610bfc8184610b97565b905092915050565b5f82825260208201905092915050565b7f50726f6a656374696f6e206d757374206e6f7420626520656d707479000000005f82015250565b5f610c48601c83610c04565b9150610c5382610c14565b602082019050919050565b5f6020820190508181035f830152610c7581610c3c565b9050919050565b7f4c616e6775616765206d757374206e6f7420626520656d7074790000000000005f82015250565b5f610cb0601a83610c04565b9150610cbb82610c7c565b602082019050919050565b5f6020820190508181035f830152610cdd81610ca4565b9050919050565b7f4e487b71000000000000000000000000000000000000000000000000000000005f52601160045260245ffd5b5f819050919050565b5f610d2482610d11565b91507fffffffffffffffffffffffffffffffffffffffffffffffffffffffffffffffff8203610d5657610d55610ce4565b5b600182019050919050565b5f81905092915050565b5f610d7582610980565b610d7f8185610d61565b9350610d8f81856020860161099a565b80840191505092915050565b5f819050919050565b610db5610db082610d11565b610d9b565b82525050565b5f610dc68287610d6b565b9150610dd28286610d6b565b9150610dde8285610da4565b602082019150610dee8284610da4565b60208201915081905095945050505050565b7f696e6465782e00000000000000000000000000000000000000000000000000005f82015250565b5f610e34600683610d61565b9150610e3f82610e00565b600682019050919050565b5f610e5482610e28565b9150610e608284610d6b565b915081905092915050565b7f4e487b71000000000000000000000000000000000000000000000000000000005f52603260045260245ffd5b7f74797065732e00000000000000000000000000000000000000000000000000005f82015250565b5f610ecc600683610d61565b9150610ed782610e98565b600682019050919050565b5f610eec82610ec0565b9150610ef88284610d6b565b915081905092915050565b7f7b226e616d65223a2200000000000000000000000000000000000000000000005f82015250565b5f610f37600983610d61565b9150610f4282610f03565b600982019050919050565b7f2d73646b222c226c616e6775616765223a2200000000000000000000000000005f82015250565b5f610f81601283610d61565b9150610f8c82610f4d565b601282019050919050565b7f227d0000000000000000000000000000000000000000000000000000000000005f82015250565b5f610fcb600283610d61565b9150610fd682610f97565b600282019050919050565b5f610feb82610f2b565b9150610ff78285610d6b565b915061100282610f75565b915061100e8284610d6b565b915061101982610fbf565b91508190509392505050565b7f4e487b71000000000000000000000000000000000000000000000000000000005f52602260045260245ffd5b5f600282049050600182168061106957607f821691505b60208210810361107c5761107b611025565b5b50919050565b5f819050815f5260205f209050919050565b5f6020601f8301049050919050565b5f82821b905092915050565b5f600883026110de7fffffffffffffffffffffffffffffffffffffffffffffffffffffffffffffffff826110a3565b6110e886836110a3565b95508019841693508086168417925050509392505050565b5f819050919050565b5f61112361111e61111984610d11565b611100565b610d11565b9050919050565b5f819050919050565b61113c83611109565b6111506111488261112a565b8484546110af565b825550505050565b5f90565b611164611158565b61116f818484611133565b505050565b5b81811015611192576111875f8261115c565b600181019050611175565b5050565b601f8211156111d7576111a881611082565b6111b184611094565b810160208510156111c0578190505b6111d46111cc85611094565b830182611174565b50505b505050565b5f82821c905092915050565b5f6111f75f19846008026111dc565b1980831691505092915050565b5f61120f83836111e8565b9150826002028217905092915050565b61122882610980565b67ffffffffffffffff8111156112415761124061075d565b5b61124b8254611052565b611256828285611196565b5f60209050601f831160018114611287575f8415611275578287015190505b61127f8582611204565b8655506112e6565b601f19841661129586611082565b5f5b828110156112bc57848901518255600182019150602085019450602081019050611297565b868310156112d957848901516112d5601f8916826111e8565b8355505b6001600288020188555050505b505050505050565b7f6f6b0000000000000000000000000000000000000000000000000000000000005f82015250565b5f611322600283610c04565b915061132d826112ee565b602082019050919050565b6113418161093f565b82525050565b5f82825260208201905092915050565b5f61136182610957565b61136b8185611347565b93508360208202850161137d85610971565b805f5b858110156113b8578484038952815161139985826109fa565b94506113a483610a0d565b925060208a01995050600181019050611380565b50829750879550505050505092915050565b5f6060820190508181035f8301526113e181611316565b90506113f06020830185611338565b81810360408301526114028184611357565b90509392505050565b7f5061636b61676520646f6573206e6f74206578697374000000000000000000005f82015250565b5f61143f601683610c04565b915061144a8261140b565b602082019050919050565b5f6020820190508181035f83015261146c81611433565b9050919050565b7f5061636b61676520616c7265616479207075626c6973686564000000000000005f82015250565b5f6114a7601983610c04565b91506114b282611473565b602082019050919050565b5f6020820190508181035f8301526114d48161149b565b9050919050565b7f5265676973747279206d757374206e6f7420626520656d7074790000000000005f82015250565b5f61150f601a83610c04565b915061151a826114db565b602082019050919050565b5f6020820190508181035f83015261153c81611503565b9050919050565b5f6040820190508181035f83015261155a81611316565b90506115696020830184611338565b9291505056fea2646970667358221220ce702cd9cfc23a1d9f47516cf9b02de264ac65205a97f46349911a2087b9f18064736f6c63430008140033","linkReferences":{}},"methodIdentifiers":{"generate(string,string,string)":"987b3939","publish(bytes32,string)":"c98e984e"},"id":235}