{"abi":[{"type":"function","name":"getComponent","inputs":[{"name":"componentId","type":"bytes32","internalType":"bytes32"}],"outputs":[{"name":"","type":"tuple","internalType":"struct Component.ComponentData","components":[{"name":"config","type":"string","internalType":"string"},{"name":"exists","type":"bool","internalType":"bool"}]}],"stateMutability":"view"},{"type":"function","name":"getPlacement","inputs":[{"name":"placementId","type":"bytes32","internalType":"bytes32"}],"outputs":[{"name":"","type":"tuple","internalType":"struct Component.Placement","components":[{"name":"componentId","type":"bytes32","internalType":"bytes32"},{"name":"region","type":"string","internalType":"string"},{"name":"weight","type":"int256","internalType":"int256"},{"name":"conditions","type":"string","internalType":"string"},{"name":"exists","type":"bool","internalType":"bool"}]}],"stateMutability":"view"},{"type":"function","name":"place","inputs":[{"name":"placementId","type":"bytes32","internalType":"bytes32"},{"name":"componentId","type":"bytes32","internalType":"bytes32"},{"name":"region","type":"string","internalType":"string"},{"name":"weight","type":"int256","internalType":"int256"}],"outputs":[],"stateMutability":"nonpayable"},{"type":"function","name":"register","inputs":[{"name":"componentId","type":"bytes32","internalType":"bytes32"},{"name":"config","type":"string","internalType":"string"}],"outputs":[],"stateMutability":"nonpayable"},{"type":"function","name":"setVisibility","inputs":[{"name":"placementId","type":"bytes32","internalType":"bytes32"},{"name":"conditions","type":"string","internalType":"string"}],"outputs":[],"stateMutability":"nonpayable"},{"type":"event","name":"ComponentRegistered","inputs":[{"name":"componentId","type":"bytes32","indexed":true,"internalType":"bytes32"}],"anonymous":false},{"type":"event","name":"Placed","inputs":[{"name":"placementId","type":"bytes32","indexed":true,"internalType":"bytes32"},{"name":"componentId","type":"bytes32","indexed":true,"internalType":"bytes32"},{"name":"region","type":"string","indexed":false,"internalType":"string"}],"anonymous":false},{"type":"event","name":"VisibilitySet","inputs":[{"name":"placementId","type":"bytes32","indexed":true,"internalType":"bytes32"}],"anonymous":false}],"bytecode":{"object":"0x608060405234801561000f575f80fd5b5061131f8061001d5f395ff3fe608060405234801561000f575f80fd5b5060043610610055575f3560e01c806307c9b237146100595780637195377a1461008957806388d3042d146100a5578063c1637817146100d5578063cf2d31fb146100f1575b5f80fd5b610073600480360381019061006e91906108e1565b61010d565b6040516100809190610a51565b60405180910390f35b6100a3600480360381019061009e9190610afc565b6102e5565b005b6100bf60048036038101906100ba91906108e1565b6104fb565b6040516100cc9190610bba565b60405180910390f35b6100ef60048036038101906100ea9190610bda565b61062d565b005b61010b60048036038101906101069190610bda565b6106e3565b005b61011561085a565b60015f8381526020019081526020015f206004015f9054906101000a900460ff16610175576040517f08c379a000000000000000000000000000000000000000000000000000000000815260040161016c90610c91565b60405180910390fd5b60015f8381526020019081526020015f206040518060a00160405290815f82015481526020016001820180546101aa90610cdc565b80601f01602080910402602001604051908101604052809291908181526020018280546101d690610cdc565b80156102215780601f106101f857610100808354040283529160200191610221565b820191905f5260205f20905b81548152906001019060200180831161020457829003601f168201915b505050505081526020016002820154815260200160038201805461024490610cdc565b80601f016020809104026020016040519081016040528092919081815260200182805461027090610cdc565b80156102bb5780601f10610292576101008083540402835291602001916102bb565b820191905f5260205f20905b81548152906001019060200180831161029e57829003601f168201915b50505050508152602001600482015f9054906101000a900460ff1615151515815250509050919050565b5f801b8503610329576040517f08c379a000000000000000000000000000000000000000000000000000000000815260040161032090610d56565b60405180910390fd5b5f808581526020019081526020015f206001015f9054906101000a900460ff16610388576040517f08c379a000000000000000000000000000000000000000000000000000000000815260040161037f90610dbe565b60405180910390fd5b5f83839050116103cd576040517f08c379a00000000000000000000000000000000000000000000000000000000081526004016103c490610e26565b60405180910390fd5b6040518060a0016040528085815260200184848080601f0160208091040260200160405190810160405280939291908181526020018383808284375f81840152601f19601f82011690508083019250505050505050815260200182815260200160405180602001604052805f81525081526020016001151581525060015f8781526020019081526020015f205f820151815f015560208201518160010190816104769190611017565b506040820151816002015560608201518160030190816104969190611017565b506080820151816004015f6101000a81548160ff02191690831515021790555090505083857f4c33e11f37a388912093f7111c829ae77d873cc537e174451f3bd2708b15d5d485856040516104ec929190611120565b60405180910390a35050505050565b61050361088b565b5f808381526020019081526020015f206001015f9054906101000a900460ff16610562576040517f08c379a000000000000000000000000000000000000000000000000000000000815260040161055990610dbe565b60405180910390fd5b5f808381526020019081526020015f206040518060400160405290815f8201805461058c90610cdc565b80601f01602080910402602001604051908101604052809291908181526020018280546105b890610cdc565b80156106035780601f106105da57610100808354040283529160200191610603565b820191905f5260205f20905b8154815290600101906020018083116105e657829003601f168201915b50505050508152602001600182015f9054906101000a900460ff1615151515815250509050919050565b60015f8481526020019081526020015f206004015f9054906101000a900460ff1661068d576040517f08c379a000000000000000000000000000000000000000000000000000000000815260040161068490610c91565b60405180910390fd5b818160015f8681526020019081526020015f2060030191826106b092919061114c565b50827f5eb0939efe81b0929f2d3d0fd837d87f2b9dbdaf6c6214e533700c7dd17cad7860405160405180910390a2505050565b5f801b8303610727576040517f08c379a000000000000000000000000000000000000000000000000000000000815260040161071e90611263565b60405180910390fd5b5f808481526020019081526020015f206001015f9054906101000a900460ff1615610787576040517f08c379a000000000000000000000000000000000000000000000000000000000815260040161077e906112cb565b60405180910390fd5b604051806040016040528083838080601f0160208091040260200160405190810160405280939291908181526020018383808284375f81840152601f19601f820116905080830192505050505050508152602001600115158152505f808581526020019081526020015f205f820151815f0190816108059190611017565b506020820151816001015f6101000a81548160ff021916908315150217905550905050827ffb8284ce10095b80e86516ff3fe10d1028f04ec94250f9f92fad49709fb1b2d960405160405180910390a2505050565b6040518060a001604052805f8019168152602001606081526020015f8152602001606081526020015f151581525090565b6040518060400160405280606081526020015f151581525090565b5f80fd5b5f80fd5b5f819050919050565b6108c0816108ae565b81146108ca575f80fd5b50565b5f813590506108db816108b7565b92915050565b5f602082840312156108f6576108f56108a6565b5b5f610903848285016108cd565b91505092915050565b610915816108ae565b82525050565b5f81519050919050565b5f82825260208201905092915050565b5f5b83811015610952578082015181840152602081019050610937565b5f8484015250505050565b5f601f19601f8301169050919050565b5f6109778261091b565b6109818185610925565b9350610991818560208601610935565b61099a8161095d565b840191505092915050565b5f819050919050565b6109b7816109a5565b82525050565b5f8115159050919050565b6109d1816109bd565b82525050565b5f60a083015f8301516109ec5f86018261090c565b5060208301518482036020860152610a04828261096d565b9150506040830151610a1960408601826109ae565b5060608301518482036060860152610a31828261096d565b9150506080830151610a4660808601826109c8565b508091505092915050565b5f6020820190508181035f830152610a6981846109d7565b905092915050565b5f80fd5b5f80fd5b5f80fd5b5f8083601f840112610a9257610a91610a71565b5b8235905067ffffffffffffffff811115610aaf57610aae610a75565b5b602083019150836001820283011115610acb57610aca610a79565b5b9250929050565b610adb816109a5565b8114610ae5575f80fd5b50565b5f81359050610af681610ad2565b92915050565b5f805f805f60808688031215610b1557610b146108a6565b5b5f610b22888289016108cd565b9550506020610b33888289016108cd565b945050604086013567ffffffffffffffff811115610b5457610b536108aa565b5b610b6088828901610a7d565b93509350506060610b7388828901610ae8565b9150509295509295909350565b5f604083015f8301518482035f860152610b9a828261096d565b9150506020830151610baf60208601826109c8565b508091505092915050565b5f6020820190508181035f830152610bd28184610b80565b905092915050565b5f805f60408486031215610bf157610bf06108a6565b5b5f610bfe868287016108cd565b935050602084013567ffffffffffffffff811115610c1f57610c1e6108aa565b5b610c2b86828701610a7d565b92509250509250925092565b5f82825260208201905092915050565b7f506c6163656d656e74206e6f7420666f756e64000000000000000000000000005f82015250565b5f610c7b601383610c37565b9150610c8682610c47565b602082019050919050565b5f6020820190508181035f830152610ca881610c6f565b9050919050565b7f4e487b71000000000000000000000000000000000000000000000000000000005f52602260045260245ffd5b5f6002820490506001821680610cf357607f821691505b602082108103610d0657610d05610caf565b5b50919050565b7f506c6163656d656e742049442063616e6e6f74206265207a65726f00000000005f82015250565b5f610d40601b83610c37565b9150610d4b82610d0c565b602082019050919050565b5f6020820190508181035f830152610d6d81610d34565b9050919050565b7f436f6d706f6e656e74206e6f7420666f756e64000000000000000000000000005f82015250565b5f610da8601383610c37565b9150610db382610d74565b602082019050919050565b5f6020820190508181035f830152610dd581610d9c565b9050919050565b7f526567696f6e2063616e6e6f7420626520656d707479000000000000000000005f82015250565b5f610e10601683610c37565b9150610e1b82610ddc565b602082019050919050565b5f6020820190508181035f830152610e3d81610e04565b9050919050565b7f4e487b71000000000000000000000000000000000000000000000000000000005f52604160045260245ffd5b5f819050815f5260205f209050919050565b5f6020601f8301049050919050565b5f82821b905092915050565b5f60088302610ecd7fffffffffffffffffffffffffffffffffffffffffffffffffffffffffffffffff82610e92565b610ed78683610e92565b95508019841693508086168417925050509392505050565b5f819050919050565b5f819050919050565b5f610f1b610f16610f1184610eef565b610ef8565b610eef565b9050919050565b5f819050919050565b610f3483610f01565b610f48610f4082610f22565b848454610e9e565b825550505050565b5f90565b610f5c610f50565b610f67818484610f2b565b505050565b5b81811015610f8a57610f7f5f82610f54565b600181019050610f6d565b5050565b601f821115610fcf57610fa081610e71565b610fa984610e83565b81016020851015610fb8578190505b610fcc610fc485610e83565b830182610f6c565b50505b505050565b5f82821c905092915050565b5f610fef5f1984600802610fd4565b1980831691505092915050565b5f6110078383610fe0565b9150826002028217905092915050565b6110208261091b565b67ffffffffffffffff81111561103957611038610e44565b5b6110438254610cdc565b61104e828285610f8e565b5f60209050601f83116001811461107f575f841561106d578287015190505b6110778582610ffc565b8655506110de565b601f19841661108d86610e71565b5f5b828110156110b45784890151825560018201915060208501945060208101905061108f565b868310156110d157848901516110cd601f891682610fe0565b8355505b6001600288020188555050505b505050505050565b828183375f83830152505050565b5f6110ff8385610c37565b935061110c8385846110e6565b6111158361095d565b840190509392505050565b5f6020820190508181035f8301526111398184866110f4565b90509392505050565b5f82905092915050565b6111568383611142565b67ffffffffffffffff81111561116f5761116e610e44565b5b6111798254610cdc565b611184828285610f8e565b5f601f8311600181146111b1575f841561119f578287013590505b6111a98582610ffc565b865550611210565b601f1984166111bf86610e71565b5f5b828110156111e6578489013582556001820191506020850194506020810190506111c1565b8683101561120357848901356111ff601f891682610fe0565b8355505b6001600288020188555050505b50505050505050565b7f436f6d706f6e656e742049442063616e6e6f74206265207a65726f00000000005f82015250565b5f61124d601b83610c37565b915061125882611219565b602082019050919050565b5f6020820190508181035f83015261127a81611241565b9050919050565b7f436f6d706f6e656e7420616c72656164792065786973747300000000000000005f82015250565b5f6112b5601883610c37565b91506112c082611281565b602082019050919050565b5f6020820190508181035f8301526112e2816112a9565b905091905056fea2646970667358221220d03e7969696e11f855c61fd0c6cc31d76746d563ad43b8c785ea04da75581df464736f6c63430008140033","linkReferences":{}},"methodIdentifiers":{"getComponent(bytes32)":"88d3042d","getPlacement(bytes32)":"07c9b237","place(bytes32,bytes32,string,int256)":"7195377a","register(bytes32,string)":"cf2d31fb","setVisibility(bytes32,string)":"c1637817"},"id":65}