{"abi":[{"type":"function","name":"create","inputs":[{"name":"comment","type":"bytes32","internalType":"bytes32"},{"name":"body","type":"string","internalType":"string"},{"name":"target","type":"bytes32","internalType":"bytes32"},{"name":"author","type":"bytes32","internalType":"bytes32"}],"outputs":[],"stateMutability":"nonpayable"},{"type":"function","name":"deleteComment","inputs":[{"name":"comment","type":"bytes32","internalType":"bytes32"}],"outputs":[],"stateMutability":"nonpayable"},{"type":"function","name":"get","inputs":[{"name":"comment","type":"bytes32","internalType":"bytes32"}],"outputs":[{"name":"data","type":"tuple","internalType":"struct Comment.CommentData","components":[{"name":"body","type":"string","internalType":"string"},{"name":"target","type":"bytes32","internalType":"bytes32"},{"name":"author","type":"bytes32","internalType":"bytes32"},{"name":"createdAt","type":"uint256","internalType":"uint256"},{"name":"exists","type":"bool","internalType":"bool"}]}],"stateMutability":"view"},{"type":"function","name":"list","inputs":[{"name":"target","type":"bytes32","internalType":"bytes32"}],"outputs":[{"name":"result","type":"bytes32[]","internalType":"bytes32[]"}],"stateMutability":"view"},{"type":"event","name":"CommentCreated","inputs":[{"name":"comment","type":"bytes32","indexed":true,"internalType":"bytes32"},{"name":"target","type":"bytes32","indexed":true,"internalType":"bytes32"},{"name":"author","type":"bytes32","indexed":true,"internalType":"bytes32"}],"anonymous":false},{"type":"event","name":"CommentDeleted","inputs":[{"name":"comment","type":"bytes32","indexed":true,"internalType":"bytes32"}],"anonymous":false}],"bytecode":{"object":"0x608060405234801561000f575f80fd5b506112968061001d5f395ff3fe608060405234801561000f575f80fd5b506004361061004a575f3560e01c806313d49a8b1461004e57806358595ba41461007e5780638eaa6ac01461009a578063d58ccf23146100ca575b5f80fd5b610068600480360381019061006391906108b3565b6100e6565b6040516100759190610995565b60405180910390f35b610098600480360381019061009391906108b3565b610248565b005b6100b460048036038101906100af91906108b3565b6103e4565b6040516100c19190610ae4565b60405180910390f35b6100e460048036038101906100df9190610b65565b610534565b005b60605f805b60018054905081101561015057835f806001848154811061010f5761010e610be9565b5b905f5260205f20015481526020019081526020015f20600101540361013d57818061013990610c43565b9250505b808061014890610c43565b9150506100eb565b508067ffffffffffffffff81111561016b5761016a610c8a565b5b6040519080825280602002602001820160405280156101995781602001602082028036833780820191505090505b5091505f805b60018054905081101561024057845f80600184815481106101c3576101c2610be9565b5b905f5260205f20015481526020019081526020015f20600101540361022d57600181815481106101f6576101f5610be9565b5b905f5260205f20015484838151811061021257610211610be9565b5b602002602001018181525050818061022990610c43565b9250505b808061023890610c43565b91505061019f565b505050919050565b5f808281526020019081526020015f206004015f9054906101000a900460ff166102a7576040517f08c379a000000000000000000000000000000000000000000000000000000000815260040161029e90610d11565b60405180910390fd5b5f60025f8381526020019081526020015f205490505f600180805490506102ce9190610d2f565b9050808214610330575f600182815481106102ec576102eb610be9565b5b905f5260205f2001549050806001848154811061030c5761030b610be9565b5b905f5260205f2001819055508260025f8381526020019081526020015f2081905550505b600180548061034257610341610d62565b5b600190038181905f5260205f20015f9055905560025f8481526020019081526020015f205f90555f808481526020019081526020015f205f8082015f61038891906107ed565b600182015f9055600282015f9055600382015f9055600482015f6101000a81549060ff02191690555050827f226c727d84dbadffb3c3981226b7ba364f15f19cea08b7c9f3b5bedae5a84a9560405160405180910390a2505050565b6103ec61082a565b5f808381526020019081526020015f206004015f9054906101000a900460ff1661044b576040517f08c379a000000000000000000000000000000000000000000000000000000000815260040161044290610d11565b60405180910390fd5b5f808381526020019081526020015f206040518060a00160405290815f8201805461047590610dbc565b80601f01602080910402602001604051908101604052809291908181526020018280546104a190610dbc565b80156104ec5780601f106104c3576101008083540402835291602001916104ec565b820191905f5260205f20905b8154815290600101906020018083116104cf57829003601f168201915b50505050508152602001600182015481526020016002820154815260200160038201548152602001600482015f9054906101000a900460ff1615151515815250509050919050565b5f801b8503610578576040517f08c379a000000000000000000000000000000000000000000000000000000000815260040161056f90610e36565b60405180910390fd5b5f808681526020019081526020015f206004015f9054906101000a900460ff16156105d8576040517f08c379a00000000000000000000000000000000000000000000000000000000081526004016105cf90610e9e565b60405180910390fd5b5f848490501161061d576040517f08c379a000000000000000000000000000000000000000000000000000000000815260040161061490610f06565b60405180910390fd5b5f801b8203610661576040517f08c379a000000000000000000000000000000000000000000000000000000000815260040161065890610f6e565b60405180910390fd5b5f801b81036106a5576040517f08c379a000000000000000000000000000000000000000000000000000000000815260040161069c90610fd6565b60405180910390fd5b6040518060a0016040528085858080601f0160208091040260200160405190810160405280939291908181526020018383808284375f81840152601f19601f820116905080830192505050505050508152602001838152602001828152602001428152602001600115158152505f808781526020019081526020015f205f820151815f0190816107359190611191565b506020820151816001015560408201518160020155606082015181600301556080820151816004015f6101000a81548160ff02191690831515021790555090505060018054905060025f8781526020019081526020015f2081905550600185908060018154018082558091505060019003905f5260205f20015f90919091909150558082867fe8b86faa15993934320ff6af7bdb95a98d55394ae8fd96109ebac2784375481460405160405180910390a45050505050565b5080546107f990610dbc565b5f825580601f1061080a5750610827565b601f0160209004905f5260205f2090810190610826919061085d565b5b50565b6040518060a00160405280606081526020015f80191681526020015f80191681526020015f81526020015f151581525090565b5b80821115610874575f815f90555060010161085e565b5090565b5f80fd5b5f80fd5b5f819050919050565b61089281610880565b811461089c575f80fd5b50565b5f813590506108ad81610889565b92915050565b5f602082840312156108c8576108c7610878565b5b5f6108d58482850161089f565b91505092915050565b5f81519050919050565b5f82825260208201905092915050565b5f819050602082019050919050565b61091081610880565b82525050565b5f6109218383610907565b60208301905092915050565b5f602082019050919050565b5f610943826108de565b61094d81856108e8565b9350610958836108f8565b805f5b8381101561098857815161096f8882610916565b975061097a8361092d565b92505060018101905061095b565b5085935050505092915050565b5f6020820190508181035f8301526109ad8184610939565b905092915050565b5f81519050919050565b5f82825260208201905092915050565b5f5b838110156109ec5780820151818401526020810190506109d1565b5f8484015250505050565b5f601f19601f8301169050919050565b5f610a11826109b5565b610a1b81856109bf565b9350610a2b8185602086016109cf565b610a34816109f7565b840191505092915050565b5f819050919050565b610a5181610a3f565b82525050565b5f8115159050919050565b610a6b81610a57565b82525050565b5f60a083015f8301518482035f860152610a8b8282610a07565b9150506020830151610aa06020860182610907565b506040830151610ab36040860182610907565b506060830151610ac66060860182610a48565b506080830151610ad96080860182610a62565b508091505092915050565b5f6020820190508181035f830152610afc8184610a71565b905092915050565b5f80fd5b5f80fd5b5f80fd5b5f8083601f840112610b2557610b24610b04565b5b8235905067ffffffffffffffff811115610b4257610b41610b08565b5b602083019150836001820283011115610b5e57610b5d610b0c565b5b9250929050565b5f805f805f60808688031215610b7e57610b7d610878565b5b5f610b8b8882890161089f565b955050602086013567ffffffffffffffff811115610bac57610bab61087c565b5b610bb888828901610b10565b94509450506040610bcb8882890161089f565b9250506060610bdc8882890161089f565b9150509295509295909350565b7f4e487b71000000000000000000000000000000000000000000000000000000005f52603260045260245ffd5b7f4e487b71000000000000000000000000000000000000000000000000000000005f52601160045260245ffd5b5f610c4d82610a3f565b91507fffffffffffffffffffffffffffffffffffffffffffffffffffffffffffffffff8203610c7f57610c7e610c16565b5b600182019050919050565b7f4e487b71000000000000000000000000000000000000000000000000000000005f52604160045260245ffd5b5f82825260208201905092915050565b7f436f6d6d656e74206e6f7420666f756e640000000000000000000000000000005f82015250565b5f610cfb601183610cb7565b9150610d0682610cc7565b602082019050919050565b5f6020820190508181035f830152610d2881610cef565b9050919050565b5f610d3982610a3f565b9150610d4483610a3f565b9250828203905081811115610d5c57610d5b610c16565b5b92915050565b7f4e487b71000000000000000000000000000000000000000000000000000000005f52603160045260245ffd5b7f4e487b71000000000000000000000000000000000000000000000000000000005f52602260045260245ffd5b5f6002820490506001821680610dd357607f821691505b602082108103610de657610de5610d8f565b5b50919050565b7f436f6d6d656e742049442063616e6e6f74206265207a65726f000000000000005f82015250565b5f610e20601983610cb7565b9150610e2b82610dec565b602082019050919050565b5f6020820190508181035f830152610e4d81610e14565b9050919050565b7f436f6d6d656e7420616c726561647920657869737473000000000000000000005f82015250565b5f610e88601683610cb7565b9150610e9382610e54565b602082019050919050565b5f6020820190508181035f830152610eb581610e7c565b9050919050565b7f436f6d6d656e7420626f64792063616e6e6f7420626520656d707479000000005f82015250565b5f610ef0601c83610cb7565b9150610efb82610ebc565b602082019050919050565b5f6020820190508181035f830152610f1d81610ee4565b9050919050565b7f5461726765742063616e6e6f74206265207a65726f00000000000000000000005f82015250565b5f610f58601583610cb7565b9150610f6382610f24565b602082019050919050565b5f6020820190508181035f830152610f8581610f4c565b9050919050565b7f417574686f722063616e6e6f74206265207a65726f00000000000000000000005f82015250565b5f610fc0601583610cb7565b9150610fcb82610f8c565b602082019050919050565b5f6020820190508181035f830152610fed81610fb4565b9050919050565b5f819050815f5260205f209050919050565b5f6020601f8301049050919050565b5f82821b905092915050565b5f600883026110507fffffffffffffffffffffffffffffffffffffffffffffffffffffffffffffffff82611015565b61105a8683611015565b95508019841693508086168417925050509392505050565b5f819050919050565b5f61109561109061108b84610a3f565b611072565b610a3f565b9050919050565b5f819050919050565b6110ae8361107b565b6110c26110ba8261109c565b848454611021565b825550505050565b5f90565b6110d66110ca565b6110e18184846110a5565b505050565b5b81811015611104576110f95f826110ce565b6001810190506110e7565b5050565b601f8211156111495761111a81610ff4565b61112384611006565b81016020851015611132578190505b61114661113e85611006565b8301826110e6565b50505b505050565b5f82821c905092915050565b5f6111695f198460080261114e565b1980831691505092915050565b5f611181838361115a565b9150826002028217905092915050565b61119a826109b5565b67ffffffffffffffff8111156111b3576111b2610c8a565b5b6111bd8254610dbc565b6111c8828285611108565b5f60209050601f8311600181146111f9575f84156111e7578287015190505b6111f18582611176565b865550611258565b601f19841661120786610ff4565b5f5b8281101561122e57848901518255600182019150602085019450602081019050611209565b8683101561124b5784890151611247601f89168261115a565b8355505b6001600288020188555050505b50505050505056fea2646970667358221220de223127f66ae6bef2160f8891390066d9bbc33b50c8af8df1427b46bc5e70e364736f6c63430008140033","linkReferences":{}},"methodIdentifiers":{"create(bytes32,string,bytes32,bytes32)":"d58ccf23","deleteComment(bytes32)":"58595ba4","get(bytes32)":"8eaa6ac0","list(bytes32)":"13d49a8b"},"id":64}