{"abi":[{"type":"function","name":"inject","inputs":[{"name":"output","type":"string","internalType":"string"},{"name":"middlewares","type":"string[]","internalType":"string[]"},{"name":"target","type":"string","internalType":"string"}],"outputs":[{"name":"","type":"tuple","internalType":"struct Middleware.InjectOkResult","components":[{"name":"success","type":"bool","internalType":"bool"},{"name":"output","type":"string","internalType":"string"},{"name":"injectedCount","type":"int256","internalType":"int256"}]}],"stateMutability":"nonpayable"},{"type":"function","name":"register","inputs":[{"name":"traitName","type":"string","internalType":"string"},{"name":"target","type":"string","internalType":"string"},{"name":"implementation","type":"string","internalType":"string"},{"name":"position","type":"string","internalType":"string"}],"outputs":[{"name":"","type":"tuple","internalType":"struct Middleware.RegisterOkResult","components":[{"name":"success","type":"bool","internalType":"bool"},{"name":"middleware","type":"bytes32","internalType":"bytes32"}]}],"stateMutability":"nonpayable"},{"type":"function","name":"resolve","inputs":[{"name":"traits","type":"string[]","internalType":"string[]"},{"name":"target","type":"string","internalType":"string"}],"outputs":[{"name":"","type":"tuple","internalType":"struct Middleware.ResolveOkResult","components":[{"name":"success","type":"bool","internalType":"bool"},{"name":"middlewares","type":"string[]","internalType":"string[]"},{"name":"order","type":"int256[]","internalType":"int256[]"}]}],"stateMutability":"nonpayable"},{"type":"event","name":"InjectCompleted","inputs":[{"name":"variant","type":"string","indexed":false,"internalType":"string"},{"name":"injectedCount","type":"int256","indexed":false,"internalType":"int256"}],"anonymous":false},{"type":"event","name":"RegisterCompleted","inputs":[{"name":"variant","type":"string","indexed":false,"internalType":"string"},{"name":"middleware","type":"bytes32","indexed":false,"internalType":"bytes32"}],"anonymous":false},{"type":"event","name":"ResolveCompleted","inputs":[{"name":"variant","type":"string","indexed":false,"internalType":"string"},{"name":"middlewares","type":"string[]","indexed":false,"internalType":"string[]"},{"name":"order","type":"int256[]","indexed":false,"internalType":"int256[]"}],"anonymous":false}],"bytecode":{"object":"0x608060405234801561000f575f80fd5b50611b3b8061001d5f395ff3fe608060405234801561000f575f80fd5b506004361061003f575f3560e01c80630e24c52c1461004357806351ee56f6146100735780639a3a4fe4146100a3575b5f80fd5b61005d60048036038101906100589190610a78565b6100d3565b60405161006a9190610bab565b60405180910390f35b61008d60048036038101906100889190610ca6565b610438565b60405161009a9190610f65565b60405180910390f35b6100bd60048036038101906100b89190610f85565b610777565b6040516100ca9190611076565b60405180910390f35b6100db6108cb565b5f85511161011e576040517f08c379a0000000000000000000000000000000000000000000000000000000008152600401610115906110f0565b60405180910390fd5b5f845111610161576040517f08c379a000000000000000000000000000000000000000000000000000000000815260040161015890611158565b60405180910390fd5b5f8351116101a4576040517f08c379a000000000000000000000000000000000000000000000000000000000815260040161019b906111c0565b60405180910390fd5b5f8251116101e7576040517f08c379a00000000000000000000000000000000000000000000000000000000081526004016101de90611228565b60405180910390fd5b5f85856040516020016101fb929190611280565b60405160208183030381529060405280519060200120905060035f8281526020019081526020015f205f9054906101000a900460ff1615610271576040517f08c379a000000000000000000000000000000000000000000000000000000000815260040161026890611313565b60405180910390fd5b5f86864260045f81548092919061028790611367565b9190505560405160200161029e94939291906113ce565b6040516020818303038152906040528051906020012090506040518060c00160405280888152602001878152602001868152602001858152602001428152602001600115158152505f808381526020019081526020015f205f820151815f019081610309919061160d565b50602082015181600101908161031f919061160d565b506040820151816002019081610335919061160d565b50606082015181600301908161034b919061160d565b506080820151816004015560a0820151816005015f6101000a81548160ff021916908315150217905550905050600181908060018154018082558091505060019003905f5260205f20015f90919091909150558060025f8481526020019081526020015f2081905550600160035f8481526020019081526020015f205f6101000a81548160ff0219169083151502179055507f0402c886f5c1bb50afb826d1767a153123631152c678fbec8089e9e8ee3e49bf8160405161040c9190611735565b60405180910390a160405180604001604052806001151581526020018281525092505050949350505050565b6104406108e8565b5f835111610483576040517f08c379a000000000000000000000000000000000000000000000000000000000815260040161047a906117ab565b60405180910390fd5b5f8251116104c6576040517f08c379a00000000000000000000000000000000000000000000000000000000081526004016104bd90611158565b60405180910390fd5b5f835167ffffffffffffffff8111156104e2576104e1610954565b5b60405190808252806020026020018201604052801561051557816020015b60608152602001906001900390816105005790505b5090505f845167ffffffffffffffff81111561053457610533610954565b5b6040519080825280602002602001820160405280156105625781602001602082028036833780820191505090505b5090505f5b8551811015610715575f868281518110610584576105836117c9565b5b60200260200101518660405160200161059e929190611280565b60405160208183030381529060405280519060200120905060035f8281526020019081526020015f205f9054906101000a900460ff16610613576040517f08c379a000000000000000000000000000000000000000000000000000000000815260040161060a90611840565b60405180910390fd5b5f60025f8381526020019081526020015f205490505f808281526020019081526020015f20600201805461064690611440565b80601f016020809104026020016040519081016040528092919081815260200182805461067290611440565b80156106bd5780601f10610694576101008083540402835291602001916106bd565b820191905f5260205f20905b8154815290600101906020018083116106a057829003601f168201915b50505050508584815181106106d5576106d46117c9565b5b6020026020010181905250828484815181106106f4576106f36117c9565b5b6020026020010181815250505050808061070d90611367565b915050610567565b507fa58d0701f42f49a9209470415bffaf602ad780a9830c44324d8a2d7cd223cb79828260405161074792919061194d565b60405180910390a16040518060600160405280600115158152602001838152602001828152509250505092915050565b61077f61090a565b5f8451116107c2576040517f08c379a00000000000000000000000000000000000000000000000000000000081526004016107b9906119df565b60405180910390fd5b5f825111610805576040517f08c379a00000000000000000000000000000000000000000000000000000000081526004016107fc90611158565b60405180910390fd5b5f8490505f5b845181101561086557848181518110610827576108266117c9565b5b602002602001015182604051602001610841929190611a91565b6040516020818303038152906040529150808061085d90611367565b91505061080b565b505f845190507f800f81ec1aa99c4d82bee12c63c82a50bc8ddf1af8fbf2a54b48cd45f4a34b318160405161089a9190611ad9565b60405180910390a1604051806060016040528060011515815260200183815260200182815250925050509392505050565b60405180604001604052805f151581526020015f80191681525090565b60405180606001604052805f1515815260200160608152602001606081525090565b60405180606001604052805f15158152602001606081526020015f81525090565b5f604051905090565b5f80fd5b5f80fd5b5f80fd5b5f80fd5b5f601f19601f8301169050919050565b7f4e487b71000000000000000000000000000000000000000000000000000000005f52604160045260245ffd5b61098a82610944565b810181811067ffffffffffffffff821117156109a9576109a8610954565b5b80604052505050565b5f6109bb61092b565b90506109c78282610981565b919050565b5f67ffffffffffffffff8211156109e6576109e5610954565b5b6109ef82610944565b9050602081019050919050565b828183375f83830152505050565b5f610a1c610a17846109cc565b6109b2565b905082815260208101848484011115610a3857610a37610940565b5b610a438482856109fc565b509392505050565b5f82601f830112610a5f57610a5e61093c565b5b8135610a6f848260208601610a0a565b91505092915050565b5f805f8060808587031215610a9057610a8f610934565b5b5f85013567ffffffffffffffff811115610aad57610aac610938565b5b610ab987828801610a4b565b945050602085013567ffffffffffffffff811115610ada57610ad9610938565b5b610ae687828801610a4b565b935050604085013567ffffffffffffffff811115610b0757610b06610938565b5b610b1387828801610a4b565b925050606085013567ffffffffffffffff811115610b3457610b33610938565b5b610b4087828801610a4b565b91505092959194509250565b5f8115159050919050565b610b6081610b4c565b82525050565b5f819050919050565b610b7881610b66565b82525050565b604082015f820151610b925f850182610b57565b506020820151610ba56020850182610b6f565b50505050565b5f604082019050610bbe5f830184610b7e565b92915050565b5f67ffffffffffffffff821115610bde57610bdd610954565b5b602082029050602081019050919050565b5f80fd5b5f610c05610c0084610bc4565b6109b2565b90508083825260208201905060208402830185811115610c2857610c27610bef565b5b835b81811015610c6f57803567ffffffffffffffff811115610c4d57610c4c61093c565b5b808601610c5a8982610a4b565b85526020850194505050602081019050610c2a565b5050509392505050565b5f82601f830112610c8d57610c8c61093c565b5b8135610c9d848260208601610bf3565b91505092915050565b5f8060408385031215610cbc57610cbb610934565b5b5f83013567ffffffffffffffff811115610cd957610cd8610938565b5b610ce585828601610c79565b925050602083013567ffffffffffffffff811115610d0657610d05610938565b5b610d1285828601610a4b565b9150509250929050565b5f81519050919050565b5f82825260208201905092915050565b5f819050602082019050919050565b5f81519050919050565b5f82825260208201905092915050565b5f5b83811015610d7c578082015181840152602081019050610d61565b5f8484015250505050565b5f610d9182610d45565b610d9b8185610d4f565b9350610dab818560208601610d5f565b610db481610944565b840191505092915050565b5f610dca8383610d87565b905092915050565b5f602082019050919050565b5f610de882610d1c565b610df28185610d26565b935083602082028501610e0485610d36565b805f5b85811015610e3f5784840389528151610e208582610dbf565b9450610e2b83610dd2565b925060208a01995050600181019050610e07565b50829750879550505050505092915050565b5f81519050919050565b5f82825260208201905092915050565b5f819050602082019050919050565b5f819050919050565b610e8c81610e7a565b82525050565b5f610e9d8383610e83565b60208301905092915050565b5f602082019050919050565b5f610ebf82610e51565b610ec98185610e5b565b9350610ed483610e6b565b805f5b83811015610f04578151610eeb8882610e92565b9750610ef683610ea9565b925050600181019050610ed7565b5085935050505092915050565b5f606083015f830151610f265f860182610b57565b5060208301518482036020860152610f3e8282610dde565b91505060408301518482036040860152610f588282610eb5565b9150508091505092915050565b5f6020820190508181035f830152610f7d8184610f11565b905092915050565b5f805f60608486031215610f9c57610f9b610934565b5b5f84013567ffffffffffffffff811115610fb957610fb8610938565b5b610fc586828701610a4b565b935050602084013567ffffffffffffffff811115610fe657610fe5610938565b5b610ff286828701610c79565b925050604084013567ffffffffffffffff81111561101357611012610938565b5b61101f86828701610a4b565b9150509250925092565b5f606083015f83015161103e5f860182610b57565b50602083015184820360208601526110568282610d87565b915050604083015161106b6040860182610e83565b508091505092915050565b5f6020820190508181035f83015261108e8184611029565b905092915050565b5f82825260208201905092915050565b7f5472616974206d757374206e6f7420626520656d7074790000000000000000005f82015250565b5f6110da601783611096565b91506110e5826110a6565b602082019050919050565b5f6020820190508181035f830152611107816110ce565b9050919050565b7f546172676574206d757374206e6f7420626520656d70747900000000000000005f82015250565b5f611142601883611096565b915061114d8261110e565b602082019050919050565b5f6020820190508181035f83015261116f81611136565b9050919050565b7f496d706c656d656e746174696f6e206d757374206e6f7420626520656d7074795f82015250565b5f6111aa602083611096565b91506111b582611176565b602082019050919050565b5f6020820190508181035f8301526111d78161119e565b9050919050565b7f506f736974696f6e206d757374206e6f7420626520656d7074790000000000005f82015250565b5f611212601a83611096565b915061121d826111de565b602082019050919050565b5f6020820190508181035f83015261123f81611206565b9050919050565b5f81905092915050565b5f61125a82610d45565b6112648185611246565b9350611274818560208601610d5f565b80840191505092915050565b5f61128b8285611250565b91506112978284611250565b91508190509392505050565b7f4d6964646c657761726520616c7265616479207265676973746572656420666f5f8201527f72207468697320747261697420616e6420746172676574000000000000000000602082015250565b5f6112fd603783611096565b9150611308826112a3565b604082019050919050565b5f6020820190508181035f83015261132a816112f1565b9050919050565b7f4e487b71000000000000000000000000000000000000000000000000000000005f52601160045260245ffd5b5f819050919050565b5f6113718261135e565b91507fffffffffffffffffffffffffffffffffffffffffffffffffffffffffffffffff82036113a3576113a2611331565b5b600182019050919050565b5f819050919050565b6113c86113c38261135e565b6113ae565b82525050565b5f6113d98287611250565b91506113e58286611250565b91506113f182856113b7565b60208201915061140182846113b7565b60208201915081905095945050505050565b7f4e487b71000000000000000000000000000000000000000000000000000000005f52602260045260245ffd5b5f600282049050600182168061145757607f821691505b60208210810361146a57611469611413565b5b50919050565b5f819050815f5260205f209050919050565b5f6020601f8301049050919050565b5f82821b905092915050565b5f600883026114cc7fffffffffffffffffffffffffffffffffffffffffffffffffffffffffffffffff82611491565b6114d68683611491565b95508019841693508086168417925050509392505050565b5f819050919050565b5f61151161150c6115078461135e565b6114ee565b61135e565b9050919050565b5f819050919050565b61152a836114f7565b61153e61153682611518565b84845461149d565b825550505050565b5f90565b611552611546565b61155d818484611521565b505050565b5b81811015611580576115755f8261154a565b600181019050611563565b5050565b601f8211156115c55761159681611470565b61159f84611482565b810160208510156115ae578190505b6115c26115ba85611482565b830182611562565b50505b505050565b5f82821c905092915050565b5f6115e55f19846008026115ca565b1980831691505092915050565b5f6115fd83836115d6565b9150826002028217905092915050565b61161682610d45565b67ffffffffffffffff81111561162f5761162e610954565b5b6116398254611440565b611644828285611584565b5f60209050601f831160018114611675575f8415611663578287015190505b61166d85826115f2565b8655506116d4565b601f19841661168386611470565b5f5b828110156116aa57848901518255600182019150602085019450602081019050611685565b868310156116c757848901516116c3601f8916826115d6565b8355505b6001600288020188555050505b505050505050565b7f6f6b0000000000000000000000000000000000000000000000000000000000005f82015250565b5f611710600283611096565b915061171b826116dc565b602082019050919050565b61172f81610b66565b82525050565b5f6040820190508181035f83015261174c81611704565b905061175b6020830184611726565b92915050565b7f547261697473206d757374206e6f7420626520656d70747900000000000000005f82015250565b5f611795601883611096565b91506117a082611761565b602082019050919050565b5f6020820190508181035f8301526117c281611789565b9050919050565b7f4e487b71000000000000000000000000000000000000000000000000000000005f52603260045260245ffd5b7f4d697373696e6720696d706c656d656e746174696f6e20666f722074726169745f82015250565b5f61182a602083611096565b9150611835826117f6565b602082019050919050565b5f6020820190508181035f8301526118578161181e565b9050919050565b5f82825260208201905092915050565b5f61187882610d1c565b611882818561185e565b93508360208202850161189485610d36565b805f5b858110156118cf57848403895281516118b08582610dbf565b94506118bb83610dd2565b925060208a01995050600181019050611897565b50829750879550505050505092915050565b5f82825260208201905092915050565b5f6118fb82610e51565b61190581856118e1565b935061191083610e6b565b805f5b838110156119405781516119278882610e92565b975061193283610ea9565b925050600181019050611913565b5085935050505092915050565b5f6060820190508181035f83015261196481611704565b90508181036020830152611978818561186e565b9050818103604083015261198c81846118f1565b90509392505050565b7f4f7574707574206d757374206e6f7420626520656d70747900000000000000005f82015250565b5f6119c9601883611096565b91506119d482611995565b602082019050919050565b5f6020820190508181035f8301526119f6816119bd565b9050919050565b7f28000000000000000000000000000000000000000000000000000000000000005f82015250565b5f611a31600183611246565b9150611a3c826119fd565b600182019050919050565b7f29000000000000000000000000000000000000000000000000000000000000005f82015250565b5f611a7b600183611246565b9150611a8682611a47565b600182019050919050565b5f611a9c8285611250565b9150611aa782611a25565b9150611ab38284611250565b9150611abe82611a6f565b91508190509392505050565b611ad381610e7a565b82525050565b5f6040820190508181035f830152611af081611704565b9050611aff6020830184611aca565b9291505056fea2646970667358221220dc5506d7f3bf2548df0c1e81354f3400865f41368b721a0b58a0243f3e48053f64736f6c63430008140033","linkReferences":{}},"methodIdentifiers":{"inject(string,string[],string)":"9a3a4fe4","register(string,string,string,string)":"0e24c52c","resolve(string[],string)":"51ee56f6"},"id":170}