{"abi":[{"type":"function","name":"configure","inputs":[{"name":"transport","type":"bytes32","internalType":"bytes32"},{"name":"kind","type":"string","internalType":"string"},{"name":"baseUrl","type":"string","internalType":"string"},{"name":"auth","type":"string","internalType":"string"},{"name":"retryPolicy","type":"string","internalType":"string"}],"outputs":[{"name":"","type":"tuple","internalType":"struct Transport.ConfigureOkResult","components":[{"name":"success","type":"bool","internalType":"bool"},{"name":"transport","type":"bytes32","internalType":"bytes32"}]}],"stateMutability":"nonpayable"},{"type":"function","name":"fetch","inputs":[{"name":"transport","type":"bytes32","internalType":"bytes32"},{"name":"query","type":"string","internalType":"string"}],"outputs":[{"name":"","type":"tuple","internalType":"struct Transport.FetchOkResult","components":[{"name":"success","type":"bool","internalType":"bool"},{"name":"transport","type":"bytes32","internalType":"bytes32"},{"name":"data","type":"string","internalType":"string"}]}],"stateMutability":"nonpayable"},{"type":"function","name":"flushQueue","inputs":[{"name":"transport","type":"bytes32","internalType":"bytes32"}],"outputs":[{"name":"","type":"tuple","internalType":"struct Transport.FlushQueueOkResult","components":[{"name":"success","type":"bool","internalType":"bool"},{"name":"transport","type":"bytes32","internalType":"bytes32"},{"name":"flushed","type":"int256","internalType":"int256"}]}],"stateMutability":"nonpayable"},{"type":"function","name":"mutate","inputs":[{"name":"transport","type":"bytes32","internalType":"bytes32"},{"name":"action","type":"string","internalType":"string"},{"name":"input","type":"string","internalType":"string"}],"outputs":[{"name":"","type":"tuple","internalType":"struct Transport.MutateOkResult","components":[{"name":"success","type":"bool","internalType":"bool"},{"name":"transport","type":"bytes32","internalType":"bytes32"},{"name":"result","type":"string","internalType":"string"}]}],"stateMutability":"nonpayable"},{"type":"event","name":"ConfigureCompleted","inputs":[{"name":"variant","type":"string","indexed":false,"internalType":"string"},{"name":"transport","type":"bytes32","indexed":true,"internalType":"bytes32"}],"anonymous":false},{"type":"event","name":"FetchCompleted","inputs":[{"name":"variant","type":"string","indexed":false,"internalType":"string"},{"name":"transport","type":"bytes32","indexed":true,"internalType":"bytes32"}],"anonymous":false},{"type":"event","name":"FlushQueueCompleted","inputs":[{"name":"variant","type":"string","indexed":false,"internalType":"string"},{"name":"transport","type":"bytes32","indexed":true,"internalType":"bytes32"},{"name":"flushed","type":"int256","indexed":false,"internalType":"int256"}],"anonymous":false},{"type":"event","name":"MutateCompleted","inputs":[{"name":"variant","type":"string","indexed":false,"internalType":"string"},{"name":"transport","type":"bytes32","indexed":true,"internalType":"bytes32"}],"anonymous":false}],"bytecode":{"object":"0x608060405234801561000f575f80fd5b506112958061001d5f395ff3fe608060405234801561000f575f80fd5b506004361061004a575f3560e01c806364ddc0341461004e57806373a991081461007e5780639dc7b638146100ae578063d53ddf08146100de575b5f80fd5b61006860048036038101906100639190610912565b61010e565b6040516100759190610a8a565b60405180910390f35b61009860048036038101906100939190610aaa565b610234565b6040516100a59190610b2d565b60405180910390f35b6100c860048036038101906100c39190610b46565b61032b565b6040516100d59190610c5a565b60405180910390f35b6100f860048036038101906100f39190610c73565b6104fc565b6040516101059190610d1a565b60405180910390f35b610116610656565b60015f8581526020019081526020015f205f9054906101000a900460ff16610173576040517f08c379a000000000000000000000000000000000000000000000000000000000815260040161016a90610d94565b60405180910390fd5b5f808581526020019081526020015f206004015f9054906101000a900460ff166101d2576040517f08c379a00000000000000000000000000000000000000000000000000000000081526004016101c990610dfc565b60405180910390fd5b5f829050847f64d521bc36ec8cb1007ca0330b3e4ee8fefa4bb202cd5bec1ad19065712df97a60405161020490610e64565b60405180910390a26040518060600160405280600115158152602001868152602001828152509150509392505050565b61023c61067a565b60015f8381526020019081526020015f205f9054906101000a900460ff16610299576040517f08c379a000000000000000000000000000000000000000000000000000000000815260040161029090610d94565b60405180910390fd5b5f60025f8481526020019081526020015f2080549050905060025f8481526020019081526020015f205f6102cd919061069d565b827fdf5c26541850c7c0fd6524a2b33949c594b9294103dea0d6b639805a91318441826040516102fd9190610e91565b60405180910390a2604051806060016040528060011515815260200184815260200182815250915050919050565b6103336106be565b5f855111610376576040517f08c379a000000000000000000000000000000000000000000000000000000000815260040161036d90610f07565b60405180910390fd5b5f8451116103b9576040517f08c379a00000000000000000000000000000000000000000000000000000000081526004016103b090610f6f565b60405180910390fd5b6040518060c00160405280868152602001858152602001848152602001838152602001600115158152602001428152505f808881526020019081526020015f205f820151815f01908161040c9190611190565b5060208201518160010190816104229190611190565b5060408201518160020190816104389190611190565b50606082015181600301908161044e9190611190565b506080820151816004015f6101000a81548160ff02191690831515021790555060a082015181600501559050506001805f8881526020019081526020015f205f6101000a81548160ff021916908315150217905550857fb7bcb46622797dbe06547cfd3cd8251fc0eb7bea659719979a569818443bb18b6040516104d190610e64565b60405180910390a2604051806040016040528060011515815260200187815250905095945050505050565b6105046106db565b60015f8481526020019081526020015f205f9054906101000a900460ff16610561576040517f08c379a000000000000000000000000000000000000000000000000000000000815260040161055890610d94565b60405180910390fd5b5f808481526020019081526020015f206004015f9054906101000a900460ff166105c0576040517f08c379a00000000000000000000000000000000000000000000000000000000081526004016105b790610dfc565b60405180910390fd5b5f8290508060035f8681526020019081526020015f2090816105e29190611190565b504260045f8681526020019081526020015f2081905550837f16e049ed185d698809a86ebaffd18e02b3a66eaac066a1fc00eb680868aa6e3360405161062790610e64565b60405180910390a260405180606001604052806001151581526020018581526020018281525091505092915050565b60405180606001604052805f151581526020015f8019168152602001606081525090565b60405180606001604052805f151581526020015f80191681526020015f81525090565b5080545f8255600302905f5260205f20908101906106bb91906106ff565b50565b60405180604001604052805f151581526020015f80191681525090565b60405180606001604052805f151581526020015f8019168152602001606081525090565b5b80821115610736575f8082015f610717919061073a565b600182015f610726919061073a565b600282015f905550600301610700565b5090565b50805461074690610fba565b5f825580601f106107575750610774565b601f0160209004905f5260205f20908101906107739190610777565b5b50565b5b8082111561078e575f815f905550600101610778565b5090565b5f604051905090565b5f80fd5b5f80fd5b5f819050919050565b6107b5816107a3565b81146107bf575f80fd5b50565b5f813590506107d0816107ac565b92915050565b5f80fd5b5f80fd5b5f601f19601f8301169050919050565b7f4e487b71000000000000000000000000000000000000000000000000000000005f52604160045260245ffd5b610824826107de565b810181811067ffffffffffffffff82111715610843576108426107ee565b5b80604052505050565b5f610855610792565b9050610861828261081b565b919050565b5f67ffffffffffffffff8211156108805761087f6107ee565b5b610889826107de565b9050602081019050919050565b828183375f83830152505050565b5f6108b66108b184610866565b61084c565b9050828152602081018484840111156108d2576108d16107da565b5b6108dd848285610896565b509392505050565b5f82601f8301126108f9576108f86107d6565b5b81356109098482602086016108a4565b91505092915050565b5f805f606084860312156109295761092861079b565b5b5f610936868287016107c2565b935050602084013567ffffffffffffffff8111156109575761095661079f565b5b610963868287016108e5565b925050604084013567ffffffffffffffff8111156109845761098361079f565b5b610990868287016108e5565b9150509250925092565b5f8115159050919050565b6109ae8161099a565b82525050565b6109bd816107a3565b82525050565b5f81519050919050565b5f82825260208201905092915050565b5f5b838110156109fa5780820151818401526020810190506109df565b5f8484015250505050565b5f610a0f826109c3565b610a1981856109cd565b9350610a298185602086016109dd565b610a32816107de565b840191505092915050565b5f606083015f830151610a525f8601826109a5565b506020830151610a6560208601826109b4565b5060408301518482036040860152610a7d8282610a05565b9150508091505092915050565b5f6020820190508181035f830152610aa28184610a3d565b905092915050565b5f60208284031215610abf57610abe61079b565b5b5f610acc848285016107c2565b91505092915050565b5f819050919050565b610ae781610ad5565b82525050565b606082015f820151610b015f8501826109a5565b506020820151610b1460208501826109b4565b506040820151610b276040850182610ade565b50505050565b5f606082019050610b405f830184610aed565b92915050565b5f805f805f60a08688031215610b5f57610b5e61079b565b5b5f610b6c888289016107c2565b955050602086013567ffffffffffffffff811115610b8d57610b8c61079f565b5b610b99888289016108e5565b945050604086013567ffffffffffffffff811115610bba57610bb961079f565b5b610bc6888289016108e5565b935050606086013567ffffffffffffffff811115610be757610be661079f565b5b610bf3888289016108e5565b925050608086013567ffffffffffffffff811115610c1457610c1361079f565b5b610c20888289016108e5565b9150509295509295909350565b604082015f820151610c415f8501826109a5565b506020820151610c5460208501826109b4565b50505050565b5f604082019050610c6d5f830184610c2d565b92915050565b5f8060408385031215610c8957610c8861079b565b5b5f610c96858286016107c2565b925050602083013567ffffffffffffffff811115610cb757610cb661079f565b5b610cc3858286016108e5565b9150509250929050565b5f606083015f830151610ce25f8601826109a5565b506020830151610cf560208601826109b4565b5060408301518482036040860152610d0d8282610a05565b9150508091505092915050565b5f6020820190508181035f830152610d328184610ccd565b905092915050565b5f82825260208201905092915050565b7f5472616e73706f7274206e6f7420666f756e64000000000000000000000000005f82015250565b5f610d7e601383610d3a565b9150610d8982610d4a565b602082019050919050565b5f6020820190508181035f830152610dab81610d72565b9050919050565b7f5472616e73706f7274206e6f7420636f6e6669677572656400000000000000005f82015250565b5f610de6601883610d3a565b9150610df182610db2565b602082019050919050565b5f6020820190508181035f830152610e1381610dda565b9050919050565b7f6f6b0000000000000000000000000000000000000000000000000000000000005f82015250565b5f610e4e600283610d3a565b9150610e5982610e1a565b602082019050919050565b5f6020820190508181035f830152610e7b81610e42565b9050919050565b610e8b81610ad5565b82525050565b5f6040820190508181035f830152610ea881610e42565b9050610eb76020830184610e82565b92915050565b7f4b696e64207265717569726564000000000000000000000000000000000000005f82015250565b5f610ef1600d83610d3a565b9150610efc82610ebd565b602082019050919050565b5f6020820190508181035f830152610f1e81610ee5565b9050919050565b7f426173652055524c2072657175697265640000000000000000000000000000005f82015250565b5f610f59601183610d3a565b9150610f6482610f25565b602082019050919050565b5f6020820190508181035f830152610f8681610f4d565b9050919050565b7f4e487b71000000000000000000000000000000000000000000000000000000005f52602260045260245ffd5b5f6002820490506001821680610fd157607f821691505b602082108103610fe457610fe3610f8d565b5b50919050565b5f819050815f5260205f209050919050565b5f6020601f8301049050919050565b5f82821b905092915050565b5f600883026110467fffffffffffffffffffffffffffffffffffffffffffffffffffffffffffffffff8261100b565b611050868361100b565b95508019841693508086168417925050509392505050565b5f819050919050565b5f819050919050565b5f61109461108f61108a84611068565b611071565b611068565b9050919050565b5f819050919050565b6110ad8361107a565b6110c16110b98261109b565b848454611017565b825550505050565b5f90565b6110d56110c9565b6110e08184846110a4565b505050565b5b81811015611103576110f85f826110cd565b6001810190506110e6565b5050565b601f8211156111485761111981610fea565b61112284610ffc565b81016020851015611131578190505b61114561113d85610ffc565b8301826110e5565b50505b505050565b5f82821c905092915050565b5f6111685f198460080261114d565b1980831691505092915050565b5f6111808383611159565b9150826002028217905092915050565b611199826109c3565b67ffffffffffffffff8111156111b2576111b16107ee565b5b6111bc8254610fba565b6111c7828285611107565b5f60209050601f8311600181146111f8575f84156111e6578287015190505b6111f08582611175565b865550611257565b601f19841661120686610fea565b5f5b8281101561122d57848901518255600182019150602085019450602081019050611208565b8683101561124a5784890151611246601f891682611159565b8355505b6001600288020188555050505b50505050505056fea2646970667358221220407d982939d4c12b7e93975183fab287b953341ab52d1ad1cd33d7718f964ba964736f6c63430008140033","linkReferences":{}},"methodIdentifiers":{"configure(bytes32,string,string,string,string)":"9dc7b638","fetch(bytes32,string)":"d53ddf08","flushQueue(bytes32)":"73a99108","mutate(bytes32,string,string)":"64ddc034"},"id":297}