{"abi":[{"type":"function","name":"count","inputs":[{"name":"article","type":"bytes32","internalType":"bytes32"}],"outputs":[{"name":"","type":"uint256","internalType":"uint256"}],"stateMutability":"view"},{"type":"function","name":"favorite","inputs":[{"name":"user","type":"bytes32","internalType":"bytes32"},{"name":"article","type":"bytes32","internalType":"bytes32"}],"outputs":[],"stateMutability":"nonpayable"},{"type":"function","name":"getUserFavorites","inputs":[{"name":"user","type":"bytes32","internalType":"bytes32"}],"outputs":[{"name":"","type":"bytes32[]","internalType":"bytes32[]"}],"stateMutability":"view"},{"type":"function","name":"isFavorited","inputs":[{"name":"user","type":"bytes32","internalType":"bytes32"},{"name":"article","type":"bytes32","internalType":"bytes32"}],"outputs":[{"name":"","type":"bool","internalType":"bool"}],"stateMutability":"view"},{"type":"function","name":"unfavorite","inputs":[{"name":"user","type":"bytes32","internalType":"bytes32"},{"name":"article","type":"bytes32","internalType":"bytes32"}],"outputs":[],"stateMutability":"nonpayable"},{"type":"event","name":"Favorited","inputs":[{"name":"user","type":"bytes32","indexed":true,"internalType":"bytes32"},{"name":"article","type":"bytes32","indexed":true,"internalType":"bytes32"}],"anonymous":false},{"type":"event","name":"Unfavorited","inputs":[{"name":"user","type":"bytes32","indexed":true,"internalType":"bytes32"},{"name":"article","type":"bytes32","indexed":true,"internalType":"bytes32"}],"anonymous":false}],"bytecode":{"object":"0x608060405234801561000f575f80fd5b50610ad78061001d5f395ff3fe608060405234801561000f575f80fd5b5060043610610055575f3560e01c80630347683a146100595780636f844fbe146100755780637937354c14610091578063b957ea43146100c1578063ccfa2c8f146100f1575b5f80fd5b610073600480360381019061006e9190610625565b610121565b005b61008f600480360381019061008a9190610625565b610347565b005b6100ab60048036038101906100a69190610663565b610538565b6040516100b891906106a6565b60405180910390f35b6100db60048036038101906100d69190610663565b610552565b6040516100e89190610776565b60405180910390f35b61010b60048036038101906101069190610625565b6105b9565b60405161011891906107b0565b60405180910390f35b5f808381526020019081526020015f205f8281526020019081526020015f205f9054906101000a900460ff1661018c576040517f08c379a000000000000000000000000000000000000000000000000000000000815260040161018390610823565b60405180910390fd5b5f805f8481526020019081526020015f205f8381526020019081526020015f205f6101000a81548160ff0219169083151502179055505f60025f8481526020019081526020015f205f8381526020019081526020015f205490505f6001805f8681526020019081526020015f2080549050610207919061086e565b9050808214610296575f60015f8681526020019081526020015f208281548110610234576102336108a1565b5b905f5260205f20015490508060015f8781526020019081526020015f208481548110610263576102626108a1565b5b905f5260205f2001819055508260025f8781526020019081526020015f205f8381526020019081526020015f2081905550505b60015f8581526020019081526020015f208054806102b7576102b66108ce565b5b600190038181905f5260205f20015f9055905560025f8581526020019081526020015f205f8481526020019081526020015f205f905560035f8481526020019081526020015f205f81548092919061030e906108fb565b919050555082847f64442ffdb71023390477f58cd2e799f51326567b14761be04995f2ab0c37e72560405160405180910390a350505050565b5f801b820361038b576040517f08c379a00000000000000000000000000000000000000000000000000000000081526004016103829061096c565b60405180910390fd5b5f801b81036103cf576040517f08c379a00000000000000000000000000000000000000000000000000000000081526004016103c6906109d4565b60405180910390fd5b5f808381526020019081526020015f205f8281526020019081526020015f205f9054906101000a900460ff161561043b576040517f08c379a000000000000000000000000000000000000000000000000000000000815260040161043290610a3c565b60405180910390fd5b60015f808481526020019081526020015f205f8381526020019081526020015f205f6101000a81548160ff02191690831515021790555060015f8381526020019081526020015f208054905060025f8481526020019081526020015f205f8381526020019081526020015f208190555060015f8381526020019081526020015f2081908060018154018082558091505060019003905f5260205f20015f909190919091505560035f8281526020019081526020015f205f81548092919061050190610a5a565b919050555080827f573823ed17647ac38757be410454ccd2cc5e2b7f68fc17554017b8ab77241e6d60405160405180910390a35050565b5f60035f8381526020019081526020015f20549050919050565b606060015f8381526020019081526020015f208054806020026020016040519081016040528092919081815260200182805480156105ad57602002820191905f5260205f20905b815481526020019060010190808311610599575b50505050509050919050565b5f805f8481526020019081526020015f205f8381526020019081526020015f205f9054906101000a900460ff16905092915050565b5f80fd5b5f819050919050565b610604816105f2565b811461060e575f80fd5b50565b5f8135905061061f816105fb565b92915050565b5f806040838503121561063b5761063a6105ee565b5b5f61064885828601610611565b925050602061065985828601610611565b9150509250929050565b5f60208284031215610678576106776105ee565b5b5f61068584828501610611565b91505092915050565b5f819050919050565b6106a08161068e565b82525050565b5f6020820190506106b95f830184610697565b92915050565b5f81519050919050565b5f82825260208201905092915050565b5f819050602082019050919050565b6106f1816105f2565b82525050565b5f61070283836106e8565b60208301905092915050565b5f602082019050919050565b5f610724826106bf565b61072e81856106c9565b9350610739836106d9565b805f5b8381101561076957815161075088826106f7565b975061075b8361070e565b92505060018101905061073c565b5085935050505092915050565b5f6020820190508181035f83015261078e818461071a565b905092915050565b5f8115159050919050565b6107aa81610796565b82525050565b5f6020820190506107c35f8301846107a1565b92915050565b5f82825260208201905092915050565b7f4e6f74206661766f7269746564000000000000000000000000000000000000005f82015250565b5f61080d600d836107c9565b9150610818826107d9565b602082019050919050565b5f6020820190508181035f83015261083a81610801565b9050919050565b7f4e487b71000000000000000000000000000000000000000000000000000000005f52601160045260245ffd5b5f6108788261068e565b91506108838361068e565b925082820390508181111561089b5761089a610841565b5b92915050565b7f4e487b71000000000000000000000000000000000000000000000000000000005f52603260045260245ffd5b7f4e487b71000000000000000000000000000000000000000000000000000000005f52603160045260245ffd5b5f6109058261068e565b91505f820361091757610916610841565b5b600182039050919050565b7f557365722063616e6e6f74206265207a65726f000000000000000000000000005f82015250565b5f6109566013836107c9565b915061096182610922565b602082019050919050565b5f6020820190508181035f8301526109838161094a565b9050919050565b7f41727469636c652063616e6e6f74206265207a65726f000000000000000000005f82015250565b5f6109be6016836107c9565b91506109c98261098a565b602082019050919050565b5f6020820190508181035f8301526109eb816109b2565b9050919050565b7f416c7265616479206661766f72697465640000000000000000000000000000005f82015250565b5f610a266011836107c9565b9150610a31826109f2565b602082019050919050565b5f6020820190508181035f830152610a5381610a1a565b9050919050565b5f610a648261068e565b91507fffffffffffffffffffffffffffffffffffffffffffffffffffffffffffffffff8203610a9657610a95610841565b5b60018201905091905056fea264697066735822122029c8c80b54d9bb7bac11cd18e6e7562b7f0fc77fb2ab3e2abce1a09234a8e44164736f6c63430008140033","linkReferences":{}},"methodIdentifiers":{"count(bytes32)":"7937354c","favorite(bytes32,bytes32)":"6f844fbe","getUserFavorites(bytes32)":"b957ea43","isFavorited(bytes32,bytes32)":"ccfa2c8f","unfavorite(bytes32,bytes32)":"0347683a"},"id":118}