{"abi":[{"type":"function","name":"count","inputs":[{"name":"entityId","type":"bytes32","internalType":"bytes32"}],"outputs":[{"name":"","type":"uint256","internalType":"uint256"}],"stateMutability":"view"},{"type":"function","name":"getBacklinks","inputs":[{"name":"entityId","type":"bytes32","internalType":"bytes32"}],"outputs":[{"name":"","type":"bytes32[]","internalType":"bytes32[]"}],"stateMutability":"view"},{"type":"function","name":"index","inputs":[{"name":"targetId","type":"bytes32","internalType":"bytes32"},{"name":"sourceId","type":"bytes32","internalType":"bytes32"}],"outputs":[],"stateMutability":"nonpayable"},{"type":"function","name":"remove","inputs":[{"name":"targetId","type":"bytes32","internalType":"bytes32"},{"name":"sourceId","type":"bytes32","internalType":"bytes32"}],"outputs":[],"stateMutability":"nonpayable"},{"type":"event","name":"Indexed","inputs":[{"name":"targetId","type":"bytes32","indexed":true,"internalType":"bytes32"},{"name":"sourceId","type":"bytes32","indexed":false,"internalType":"bytes32"}],"anonymous":false},{"type":"event","name":"Removed","inputs":[{"name":"targetId","type":"bytes32","indexed":true,"internalType":"bytes32"},{"name":"sourceId","type":"bytes32","indexed":false,"internalType":"bytes32"}],"anonymous":false}],"bytecode":{"object":"0x608060405234801561000f575f80fd5b5061097b8061001d5f395ff3fe608060405234801561000f575f80fd5b506004361061004a575f3560e01c806376e260f31461004e5780637937354c1461007e5780639b1a175f146100ae578063b10e4172146100ca575b5f80fd5b610068600480360381019061006391906104fb565b6100e6565b60405161007591906105dd565b60405180910390f35b610098600480360381019061009391906104fb565b61014c565b6040516100a59190610615565b60405180910390f35b6100c860048036038101906100c3919061062e565b610168565b005b6100e460048036038101906100df919061062e565b610304565b005b60605f808381526020019081526020015f2080548060200260200160405190810160405280929190818152602001828054801561014057602002820191905f5260205f20905b81548152602001906001019080831161012c575b50505050509050919050565b5f805f8381526020019081526020015f20805490509050919050565b5f801b82036101ac576040517f08c379a00000000000000000000000000000000000000000000000000000000081526004016101a3906106c6565b60405180910390fd5b5f801b81036101f0576040517f08c379a00000000000000000000000000000000000000000000000000000000081526004016101e79061072e565b60405180910390fd5b60015f8381526020019081526020015f205f8281526020019081526020015f205f9054906101000a900460ff161561025d576040517f08c379a000000000000000000000000000000000000000000000000000000000815260040161025490610796565b60405180910390fd5b6001805f8481526020019081526020015f205f8381526020019081526020015f205f6101000a81548160ff0219169083151502179055505f808381526020019081526020015f2081908060018154018082558091505060019003905f5260205f20015f9091909190915055817f4ae7b9098f5a4e273aab59b250172486c2a9f52f85ecb3bb55868b50b6b226e8826040516102f891906107c3565b60405180910390a25050565b60015f8381526020019081526020015f205f8281526020019081526020015f205f9054906101000a900460ff16610370576040517f08c379a000000000000000000000000000000000000000000000000000000000815260040161036790610826565b60405180910390fd5b5f60015f8481526020019081526020015f205f8381526020019081526020015f205f6101000a81548160ff0219169083151502179055505f805f8481526020019081526020015f2090505f818054905090505f5b8181101561048557838382815481106103e0576103df610844565b5b905f5260205f20015403610472576001826103fb919061089e565b8114610449578260018361040f919061089e565b815481106104205761041f610844565b5b905f5260205f20015483828154811061043c5761043b610844565b5b905f5260205f2001819055505b8280548061045a576104596108d1565b5b600190038181905f5260205f20015f90559055610485565b808061047d906108fe565b9150506103c4565b50837f684c012eb6b930f25c2d0118e6669c6a76a92393c279d603bcc8060ccf304152846040516104b691906107c3565b60405180910390a250505050565b5f80fd5b5f819050919050565b6104da816104c8565b81146104e4575f80fd5b50565b5f813590506104f5816104d1565b92915050565b5f602082840312156105105761050f6104c4565b5b5f61051d848285016104e7565b91505092915050565b5f81519050919050565b5f82825260208201905092915050565b5f819050602082019050919050565b610558816104c8565b82525050565b5f610569838361054f565b60208301905092915050565b5f602082019050919050565b5f61058b82610526565b6105958185610530565b93506105a083610540565b805f5b838110156105d05781516105b7888261055e565b97506105c283610575565b9250506001810190506105a3565b5085935050505092915050565b5f6020820190508181035f8301526105f58184610581565b905092915050565b5f819050919050565b61060f816105fd565b82525050565b5f6020820190506106285f830184610606565b92915050565b5f8060408385031215610644576106436104c4565b5b5f610651858286016104e7565b9250506020610662858286016104e7565b9150509250929050565b5f82825260208201905092915050565b7f5461726765742049442063616e6e6f74206265207a65726f00000000000000005f82015250565b5f6106b060188361066c565b91506106bb8261067c565b602082019050919050565b5f6020820190508181035f8301526106dd816106a4565b9050919050565b7f536f757263652049442063616e6e6f74206265207a65726f00000000000000005f82015250565b5f61071860188361066c565b9150610723826106e4565b602082019050919050565b5f6020820190508181035f8301526107458161070c565b9050919050565b7f4261636b6c696e6b20616c726561647920696e646578656400000000000000005f82015250565b5f61078060188361066c565b915061078b8261074c565b602082019050919050565b5f6020820190508181035f8301526107ad81610774565b9050919050565b6107bd816104c8565b82525050565b5f6020820190506107d65f8301846107b4565b92915050565b7f4261636b6c696e6b206e6f7420666f756e6400000000000000000000000000005f82015250565b5f61081060128361066c565b915061081b826107dc565b602082019050919050565b5f6020820190508181035f83015261083d81610804565b9050919050565b7f4e487b71000000000000000000000000000000000000000000000000000000005f52603260045260245ffd5b7f4e487b71000000000000000000000000000000000000000000000000000000005f52601160045260245ffd5b5f6108a8826105fd565b91506108b3836105fd565b92508282039050818111156108cb576108ca610871565b5b92915050565b7f4e487b71000000000000000000000000000000000000000000000000000000005f52603160045260245ffd5b5f610908826105fd565b91507fffffffffffffffffffffffffffffffffffffffffffffffffffffffffffffffff820361093a57610939610871565b5b60018201905091905056fea26469706673582212209195c1862710639518be2a2e847fdc6b637b4743b8aef3ee4f6ce49239e3434064736f6c63430008140033","linkReferences":{}},"methodIdentifiers":{"count(bytes32)":"7937354c","getBacklinks(bytes32)":"76e260f3","index(bytes32,bytes32)":"9b1a175f","remove(bytes32,bytes32)":"b10e4172"},"id":40}