{"abi":[{"type":"function","name":"analyze","inputs":[{"name":"concept","type":"string","internalType":"string"},{"name":"window","type":"int256","internalType":"int256"},{"name":"criteria","type":"string","internalType":"string"}],"outputs":[{"name":"","type":"tuple","internalType":"struct Telemetry.AnalyzeOkResult","components":[{"name":"success","type":"bool","internalType":"bool"},{"name":"healthy","type":"bool","internalType":"bool"},{"name":"errorRate","type":"uint256","internalType":"uint256"},{"name":"latencyP99","type":"int256","internalType":"int256"},{"name":"sampleSize","type":"int256","internalType":"int256"}]}],"stateMutability":"nonpayable"},{"type":"function","name":"configure","inputs":[{"name":"concept","type":"string","internalType":"string"},{"name":"endpoint","type":"string","internalType":"string"},{"name":"samplingRate","type":"uint256","internalType":"uint256"}],"outputs":[{"name":"","type":"tuple","internalType":"struct Telemetry.ConfigureOkResult","components":[{"name":"success","type":"bool","internalType":"bool"},{"name":"config","type":"bytes32","internalType":"bytes32"}]}],"stateMutability":"nonpayable"},{"type":"function","name":"deployMarker","inputs":[{"name":"kit","type":"string","internalType":"string"},{"name":"version","type":"string","internalType":"string"},{"name":"environment","type":"string","internalType":"string"},{"name":"status","type":"string","internalType":"string"}],"outputs":[{"name":"","type":"tuple","internalType":"struct Telemetry.DeployMarkerOkResult","components":[{"name":"success","type":"bool","internalType":"bool"},{"name":"marker","type":"bytes32","internalType":"bytes32"}]}],"stateMutability":"nonpayable"},{"type":"event","name":"AnalyzeCompleted","inputs":[{"name":"variant","type":"string","indexed":false,"internalType":"string"},{"name":"healthy","type":"bool","indexed":false,"internalType":"bool"},{"name":"errorRate","type":"uint256","indexed":false,"internalType":"uint256"},{"name":"latencyP99","type":"int256","indexed":false,"internalType":"int256"},{"name":"sampleSize","type":"int256","indexed":false,"internalType":"int256"},{"name":"samplesFound","type":"int256","indexed":false,"internalType":"int256"},{"name":"samplesNeeded","type":"int256","indexed":false,"internalType":"int256"}],"anonymous":false},{"type":"event","name":"ConfigureCompleted","inputs":[{"name":"variant","type":"string","indexed":false,"internalType":"string"},{"name":"config","type":"bytes32","indexed":false,"internalType":"bytes32"}],"anonymous":false},{"type":"event","name":"DeployMarkerCompleted","inputs":[{"name":"variant","type":"string","indexed":false,"internalType":"string"},{"name":"marker","type":"bytes32","indexed":false,"internalType":"bytes32"}],"anonymous":false}],"bytecode":{"object":"0x608060405234801561000f575f80fd5b506116fa8061001d5f395ff3fe608060405234801561000f575f80fd5b506004361061003f575f3560e01c80631ec4ec44146100435780638cfaf89b14610073578063bebfacdf146100a3575b5f80fd5b61005d6004803603810190610058919061095b565b6100d3565b60405161006a9190610a42565b60405180910390f35b61008d60048036038101906100889190610a5b565b61033f565b60405161009a9190610b5c565b60405180910390f35b6100bd60048036038101906100b89190610ba8565b610526565b6040516100ca9190610cb4565b60405180910390f35b6100db610773565b5f84511161011e576040517f08c379a000000000000000000000000000000000000000000000000000000000815260040161011590610d27565b60405180910390fd5b5f835111610161576040517f08c379a000000000000000000000000000000000000000000000000000000000815260040161015890610d8f565b60405180910390fd5b5f82118015610171575060648211155b6101b0576040517f08c379a00000000000000000000000000000000000000000000000000000000081526004016101a790610e1d565b60405180910390fd5b5f846040516020016101c29190610ef1565b6040516020818303038152906040528051906020012090506040518060a00160405280868152602001858152602001848152602001428152602001600115158152505f808381526020019081526020015f205f820151815f019081610227919061110c565b50602082015181600101908161023d919061110c565b5060408201518160020155606082015181600301556080820151816004015f6101000a81548160ff02191690831515021790555090505060025f8281526020019081526020015f205f9054906101000a900460ff166102e657600160025f8381526020019081526020015f205f6101000a81548160ff021916908315150217905550600181908060018154018082558091505060019003905f5260205f20015f90919091909150555b7fb7bcb46622797dbe06547cfd3cd8251fc0eb7bea659719979a569818443bb18b816040516103159190611234565b60405180910390a16040518060400160405280600115158152602001828152509150509392505050565b610347610790565b5f85511161038a576040517f08c379a0000000000000000000000000000000000000000000000000000000008152600401610381906112aa565b60405180910390fd5b5f858585426040516020016103a294939291906112e8565b6040516020818303038152906040528051906020012090506040518060c001604052808781526020018681526020018581526020018481526020014281526020016001151581525060035f8381526020019081526020015f205f820151815f01908161040e919061110c565b506020820151816001019081610424919061110c565b50604082015181600201908161043a919061110c565b506060820151816003019081610450919061110c565b506080820151816004015560a0820151816005015f6101000a81548160ff021916908315150217905550905050600160055f8381526020019081526020015f205f6101000a81548160ff021916908315150217905550600481908060018154018082558091505060019003905f5260205f20015f90919091909150557f5e286744deb61e6d07b5a0392a5333e67e2207533ab9043e341e3c805d116d63816040516104fb9190611234565b60405180910390a1604051806040016040528060011515815260200182815250915050949350505050565b61052e6107ad565b5f845111610571576040517f08c379a000000000000000000000000000000000000000000000000000000000815260040161056890610d27565b60405180910390fd5b5f83136105b3576040517f08c379a00000000000000000000000000000000000000000000000000000000081526004016105aa90611373565b60405180910390fd5b5f846040516020016105c59190610ef1565b60405160208183030381529060405280519060200120905060025f8281526020019081526020015f205f9054906101000a900460ff1661063a576040517f08c379a000000000000000000000000000000000000000000000000000000000815260040161063190611401565b60405180910390fd5b5f805b6004805490508110156106ab5760055f600483815481106106615761066061141f565b5b905f5260205f20015481526020019081526020015f205f9054906101000a900460ff161561069857818061069490611479565b9250505b80806106a3906114c0565b91505061063d565b505f600190505f80600a60c88a8a6040516020016106ca929190611527565b604051602081830303815290604052805190602001205f1c6106ec919061157b565b6106f691906115ab565b90507f21002b2a98fe2fac6e7efac6a69aee8428d230b896d3c71191e06178233dca44838383875f8060405161073196959493929190611652565b60405180910390a16040518060a00160405280600115158152602001841515815260200183815260200182815260200185815250955050505050509392505050565b60405180604001604052805f151581526020015f80191681525090565b60405180604001604052805f151581526020015f80191681525090565b6040518060a001604052805f151581526020015f151581526020015f81526020015f81526020015f81525090565b5f604051905090565b5f80fd5b5f80fd5b5f80fd5b5f80fd5b5f601f19601f8301169050919050565b7f4e487b71000000000000000000000000000000000000000000000000000000005f52604160045260245ffd5b61083a826107f4565b810181811067ffffffffffffffff8211171561085957610858610804565b5b80604052505050565b5f61086b6107db565b90506108778282610831565b919050565b5f67ffffffffffffffff82111561089657610895610804565b5b61089f826107f4565b9050602081019050919050565b828183375f83830152505050565b5f6108cc6108c78461087c565b610862565b9050828152602081018484840111156108e8576108e76107f0565b5b6108f38482856108ac565b509392505050565b5f82601f83011261090f5761090e6107ec565b5b813561091f8482602086016108ba565b91505092915050565b5f819050919050565b61093a81610928565b8114610944575f80fd5b50565b5f8135905061095581610931565b92915050565b5f805f60608486031215610972576109716107e4565b5b5f84013567ffffffffffffffff81111561098f5761098e6107e8565b5b61099b868287016108fb565b935050602084013567ffffffffffffffff8111156109bc576109bb6107e8565b5b6109c8868287016108fb565b92505060406109d986828701610947565b9150509250925092565b5f8115159050919050565b6109f7816109e3565b82525050565b5f819050919050565b610a0f816109fd565b82525050565b604082015f820151610a295f8501826109ee565b506020820151610a3c6020850182610a06565b50505050565b5f604082019050610a555f830184610a15565b92915050565b5f805f8060808587031215610a7357610a726107e4565b5b5f85013567ffffffffffffffff811115610a9057610a8f6107e8565b5b610a9c878288016108fb565b945050602085013567ffffffffffffffff811115610abd57610abc6107e8565b5b610ac9878288016108fb565b935050604085013567ffffffffffffffff811115610aea57610ae96107e8565b5b610af6878288016108fb565b925050606085013567ffffffffffffffff811115610b1757610b166107e8565b5b610b23878288016108fb565b91505092959194509250565b604082015f820151610b435f8501826109ee565b506020820151610b566020850182610a06565b50505050565b5f604082019050610b6f5f830184610b2f565b92915050565b5f819050919050565b610b8781610b75565b8114610b91575f80fd5b50565b5f81359050610ba281610b7e565b92915050565b5f805f60608486031215610bbf57610bbe6107e4565b5b5f84013567ffffffffffffffff811115610bdc57610bdb6107e8565b5b610be8868287016108fb565b9350506020610bf986828701610b94565b925050604084013567ffffffffffffffff811115610c1a57610c196107e8565b5b610c26868287016108fb565b9150509250925092565b610c3981610928565b82525050565b610c4881610b75565b82525050565b60a082015f820151610c625f8501826109ee565b506020820151610c7560208501826109ee565b506040820151610c886040850182610c30565b506060820151610c9b6060850182610c3f565b506080820151610cae6080850182610c3f565b50505050565b5f60a082019050610cc75f830184610c4e565b92915050565b5f82825260208201905092915050565b7f436f6e63657074206d757374206e6f7420626520656d707479000000000000005f82015250565b5f610d11601983610ccd565b9150610d1c82610cdd565b602082019050919050565b5f6020820190508181035f830152610d3e81610d05565b9050919050565b7f456e64706f696e74206d757374206e6f7420626520656d7074790000000000005f82015250565b5f610d79601a83610ccd565b9150610d8482610d45565b602082019050919050565b5f6020820190508181035f830152610da681610d6d565b9050919050565b7f53616d706c696e672072617465206d757374206265206265747765656e2031205f8201527f616e642031303000000000000000000000000000000000000000000000000000602082015250565b5f610e07602783610ccd565b9150610e1282610dad565b604082019050919050565b5f6020820190508181035f830152610e3481610dfb565b9050919050565b5f81905092915050565b7f636f6e6669673a000000000000000000000000000000000000000000000000005f82015250565b5f610e79600783610e3b565b9150610e8482610e45565b600782019050919050565b5f81519050919050565b5f5b83811015610eb6578082015181840152602081019050610e9b565b5f8484015250505050565b5f610ecb82610e8f565b610ed58185610e3b565b9350610ee5818560208601610e99565b80840191505092915050565b5f610efb82610e6d565b9150610f078284610ec1565b915081905092915050565b7f4e487b71000000000000000000000000000000000000000000000000000000005f52602260045260245ffd5b5f6002820490506001821680610f5657607f821691505b602082108103610f6957610f68610f12565b5b50919050565b5f819050815f5260205f209050919050565b5f6020601f8301049050919050565b5f82821b905092915050565b5f60088302610fcb7fffffffffffffffffffffffffffffffffffffffffffffffffffffffffffffffff82610f90565b610fd58683610f90565b95508019841693508086168417925050509392505050565b5f819050919050565b5f61101061100b61100684610928565b610fed565b610928565b9050919050565b5f819050919050565b61102983610ff6565b61103d61103582611017565b848454610f9c565b825550505050565b5f90565b611051611045565b61105c818484611020565b505050565b5b8181101561107f576110745f82611049565b600181019050611062565b5050565b601f8211156110c45761109581610f6f565b61109e84610f81565b810160208510156110ad578190505b6110c16110b985610f81565b830182611061565b50505b505050565b5f82821c905092915050565b5f6110e45f19846008026110c9565b1980831691505092915050565b5f6110fc83836110d5565b9150826002028217905092915050565b61111582610e8f565b67ffffffffffffffff81111561112e5761112d610804565b5b6111388254610f3f565b611143828285611083565b5f60209050601f831160018114611174575f8415611162578287015190505b61116c85826110f1565b8655506111d3565b601f19841661118286610f6f565b5f5b828110156111a957848901518255600182019150602085019450602081019050611184565b868310156111c657848901516111c2601f8916826110d5565b8355505b6001600288020188555050505b505050505050565b7f6f6b0000000000000000000000000000000000000000000000000000000000005f82015250565b5f61120f600283610ccd565b915061121a826111db565b602082019050919050565b61122e816109fd565b82525050565b5f6040820190508181035f83015261124b81611203565b905061125a6020830184611225565b92915050565b7f4b6974206d757374206e6f7420626520656d70747900000000000000000000005f82015250565b5f611294601583610ccd565b915061129f82611260565b602082019050919050565b5f6020820190508181035f8301526112c181611288565b9050919050565b5f819050919050565b6112e26112dd82610928565b6112c8565b82525050565b5f6112f38287610ec1565b91506112ff8286610ec1565b915061130b8285610ec1565b915061131782846112d1565b60208201915081905095945050505050565b7f57696e646f77206d75737420626520706f7369746976650000000000000000005f82015250565b5f61135d601783610ccd565b915061136882611329565b602082019050919050565b5f6020820190508181035f83015261138a81611351565b9050919050565b7f54656c656d65747279206e6f7420636f6e6669677572656420666f7220636f6e5f8201527f6365707400000000000000000000000000000000000000000000000000000000602082015250565b5f6113eb602483610ccd565b91506113f682611391565b604082019050919050565b5f6020820190508181035f830152611418816113df565b9050919050565b7f4e487b71000000000000000000000000000000000000000000000000000000005f52603260045260245ffd5b7f4e487b71000000000000000000000000000000000000000000000000000000005f52601160045260245ffd5b5f61148382610b75565b91507f7fffffffffffffffffffffffffffffffffffffffffffffffffffffffffffffff82036114b5576114b461144c565b5b600182019050919050565b5f6114ca82610928565b91507fffffffffffffffffffffffffffffffffffffffffffffffffffffffffffffffff82036114fc576114fb61144c565b5b600182019050919050565b5f819050919050565b61152161151c82610b75565b611507565b82525050565b5f6115328285610ec1565b915061153e8284611510565b6020820191508190509392505050565b7f4e487b71000000000000000000000000000000000000000000000000000000005f52601260045260245ffd5b5f61158582610928565b915061159083610928565b9250826115a05761159f61154e565b5b828206905092915050565b5f6115b582610b75565b91506115c083610b75565b92508282019050828112155f8312168382125f8412151617156115e6576115e561144c565b5b92915050565b6115f5816109e3565b82525050565b61160481610928565b82525050565b61161381610b75565b82525050565b5f819050919050565b5f61163c61163761163284611619565b610fed565b610b75565b9050919050565b61164c81611622565b82525050565b5f60e0820190508181035f83015261166981611203565b905061167860208301896115ec565b61168560408301886115fb565b611692606083018761160a565b61169f608083018661160a565b6116ac60a0830185611643565b6116b960c0830184611643565b97965050505050505056fea264697066735822122022e4e3ece3d03c3444393933a93635b9d74f71ef727760c86b9bd9533cff626064736f6c63430008140033","linkReferences":{}},"methodIdentifiers":{"analyze(string,int256,string)":"bebfacdf","configure(string,string,uint256)":"1ec4ec44","deployMarker(string,string,string,string)":"8cfaf89b"},"id":282}