{"abi":[{"type":"function","name":"getVersion","inputs":[{"name":"entityId","type":"bytes32","internalType":"bytes32"},{"name":"versionId","type":"bytes32","internalType":"bytes32"}],"outputs":[{"name":"","type":"tuple","internalType":"struct Version.VersionEntry","components":[{"name":"snapshotData","type":"string","internalType":"string"},{"name":"author","type":"bytes32","internalType":"bytes32"},{"name":"timestamp","type":"uint256","internalType":"uint256"},{"name":"exists","type":"bool","internalType":"bool"}]}],"stateMutability":"view"},{"type":"function","name":"getVersionCount","inputs":[{"name":"entityId","type":"bytes32","internalType":"bytes32"}],"outputs":[{"name":"","type":"uint256","internalType":"uint256"}],"stateMutability":"view"},{"type":"function","name":"getVersionList","inputs":[{"name":"entityId","type":"bytes32","internalType":"bytes32"}],"outputs":[{"name":"","type":"bytes32[]","internalType":"bytes32[]"}],"stateMutability":"view"},{"type":"function","name":"rollback","inputs":[{"name":"entityId","type":"bytes32","internalType":"bytes32"},{"name":"versionId","type":"bytes32","internalType":"bytes32"}],"outputs":[],"stateMutability":"nonpayable"},{"type":"function","name":"snapshot","inputs":[{"name":"entityId","type":"bytes32","internalType":"bytes32"},{"name":"versionId","type":"bytes32","internalType":"bytes32"},{"name":"snapshotData","type":"string","internalType":"string"},{"name":"author","type":"bytes32","internalType":"bytes32"}],"outputs":[],"stateMutability":"nonpayable"},{"type":"event","name":"Rollback","inputs":[{"name":"entityId","type":"bytes32","indexed":true,"internalType":"bytes32"},{"name":"versionId","type":"bytes32","indexed":true,"internalType":"bytes32"}],"anonymous":false},{"type":"event","name":"Snapshot","inputs":[{"name":"entityId","type":"bytes32","indexed":true,"internalType":"bytes32"},{"name":"versionId","type":"bytes32","indexed":true,"internalType":"bytes32"}],"anonymous":false}],"bytecode":{"object":"0x608060405234801561000f575f80fd5b50610d4d8061001d5f395ff3fe608060405234801561000f575f80fd5b5060043610610055575f3560e01c806357bb3cd51461005957806363d8fe9814610075578063a92a15aa146100a5578063b8560fef146100d5578063de4920f4146100f1575b5f80fd5b610073600480360381019061006e91906105b8565b610121565b005b61008f600480360381019061008a91906105f6565b6101c1565b60405161009c91906106d8565b60405180910390f35b6100bf60048036038101906100ba91906105b8565b610228565b6040516100cc9190610814565b60405180910390f35b6100ef60048036038101906100ea9190610895565b61038d565b005b61010b600480360381019061010691906105f6565b610536565b6040516101189190610928565b60405180910390f35b5f808381526020019081526020015f205f8281526020019081526020015f206003015f9054906101000a900460ff1661018f576040517f08c379a00000000000000000000000000000000000000000000000000000000081526004016101869061099b565b60405180910390fd5b80827f70529379e95c982f8c76bd3cb8fd6486f67d629c1c6e0fa82fe12b8b3a1ae96860405160405180910390a35050565b606060015f8381526020019081526020015f2080548060200260200160405190810160405280929190818152602001828054801561021c57602002820191905f5260205f20905b815481526020019060010190808311610208575b50505050509050919050565b610230610553565b5f808481526020019081526020015f205f8381526020019081526020015f206003015f9054906101000a900460ff1661029e576040517f08c379a00000000000000000000000000000000000000000000000000000000081526004016102959061099b565b60405180910390fd5b5f808481526020019081526020015f205f8381526020019081526020015f206040518060800160405290815f820180546102d7906109e6565b80601f0160208091040260200160405190810160405280929190818152602001828054610303906109e6565b801561034e5780601f106103255761010080835404028352916020019161034e565b820191905f5260205f20905b81548152906001019060200180831161033157829003601f168201915b505050505081526020016001820154815260200160028201548152602001600382015f9054906101000a900460ff161515151581525050905092915050565b5f808681526020019081526020015f205f8581526020019081526020015f206003015f9054906101000a900460ff16156103fc576040517f08c379a00000000000000000000000000000000000000000000000000000000081526004016103f390610a60565b60405180910390fd5b604051806080016040528084848080601f0160208091040260200160405190810160405280939291908181526020018383808284375f81840152601f19601f820116905080830192505050505050508152602001828152602001428152602001600115158152505f808781526020019081526020015f205f8681526020019081526020015f205f820151815f0190816104959190610c48565b5060208201518160010155604082015181600201556060820151816003015f6101000a81548160ff02191690831515021790555090505060015f8681526020019081526020015f2084908060018154018082558091505060019003905f5260205f20015f909190919091505583857fbad3eed9815d3855dcfbf905666c775a176d56c3df5de3c716ca561f938283c660405160405180910390a35050505050565b5f60015f8381526020019081526020015f20805490509050919050565b6040518060800160405280606081526020015f80191681526020015f81526020015f151581525090565b5f80fd5b5f80fd5b5f819050919050565b61059781610585565b81146105a1575f80fd5b50565b5f813590506105b28161058e565b92915050565b5f80604083850312156105ce576105cd61057d565b5b5f6105db858286016105a4565b92505060206105ec858286016105a4565b9150509250929050565b5f6020828403121561060b5761060a61057d565b5b5f610618848285016105a4565b91505092915050565b5f81519050919050565b5f82825260208201905092915050565b5f819050602082019050919050565b61065381610585565b82525050565b5f610664838361064a565b60208301905092915050565b5f602082019050919050565b5f61068682610621565b610690818561062b565b935061069b8361063b565b805f5b838110156106cb5781516106b28882610659565b97506106bd83610670565b92505060018101905061069e565b5085935050505092915050565b5f6020820190508181035f8301526106f0818461067c565b905092915050565b5f81519050919050565b5f82825260208201905092915050565b5f5b8381101561072f578082015181840152602081019050610714565b5f8484015250505050565b5f601f19601f8301169050919050565b5f610754826106f8565b61075e8185610702565b935061076e818560208601610712565b6107778161073a565b840191505092915050565b5f819050919050565b61079481610782565b82525050565b5f8115159050919050565b6107ae8161079a565b82525050565b5f608083015f8301518482035f8601526107ce828261074a565b91505060208301516107e3602086018261064a565b5060408301516107f6604086018261078b565b50606083015161080960608601826107a5565b508091505092915050565b5f6020820190508181035f83015261082c81846107b4565b905092915050565b5f80fd5b5f80fd5b5f80fd5b5f8083601f84011261085557610854610834565b5b8235905067ffffffffffffffff81111561087257610871610838565b5b60208301915083600182028301111561088e5761088d61083c565b5b9250929050565b5f805f805f608086880312156108ae576108ad61057d565b5b5f6108bb888289016105a4565b95505060206108cc888289016105a4565b945050604086013567ffffffffffffffff8111156108ed576108ec610581565b5b6108f988828901610840565b9350935050606061090c888289016105a4565b9150509295509295909350565b61092281610782565b82525050565b5f60208201905061093b5f830184610919565b92915050565b5f82825260208201905092915050565b7f56657273696f6e20646f6573206e6f74206578697374000000000000000000005f82015250565b5f610985601683610941565b915061099082610951565b602082019050919050565b5f6020820190508181035f8301526109b281610979565b9050919050565b7f4e487b71000000000000000000000000000000000000000000000000000000005f52602260045260245ffd5b5f60028204905060018216806109fd57607f821691505b602082108103610a1057610a0f6109b9565b5b50919050565b7f56657273696f6e20616c726561647920657869737473000000000000000000005f82015250565b5f610a4a601683610941565b9150610a5582610a16565b602082019050919050565b5f6020820190508181035f830152610a7781610a3e565b9050919050565b7f4e487b71000000000000000000000000000000000000000000000000000000005f52604160045260245ffd5b5f819050815f5260205f209050919050565b5f6020601f8301049050919050565b5f82821b905092915050565b5f60088302610b077fffffffffffffffffffffffffffffffffffffffffffffffffffffffffffffffff82610acc565b610b118683610acc565b95508019841693508086168417925050509392505050565b5f819050919050565b5f610b4c610b47610b4284610782565b610b29565b610782565b9050919050565b5f819050919050565b610b6583610b32565b610b79610b7182610b53565b848454610ad8565b825550505050565b5f90565b610b8d610b81565b610b98818484610b5c565b505050565b5b81811015610bbb57610bb05f82610b85565b600181019050610b9e565b5050565b601f821115610c0057610bd181610aab565b610bda84610abd565b81016020851015610be9578190505b610bfd610bf585610abd565b830182610b9d565b50505b505050565b5f82821c905092915050565b5f610c205f1984600802610c05565b1980831691505092915050565b5f610c388383610c11565b9150826002028217905092915050565b610c51826106f8565b67ffffffffffffffff811115610c6a57610c69610a7e565b5b610c7482546109e6565b610c7f828285610bbf565b5f60209050601f831160018114610cb0575f8415610c9e578287015190505b610ca88582610c2d565b865550610d0f565b601f198416610cbe86610aab565b5f5b82811015610ce557848901518255600182019150602085019450602081019050610cc0565b86831015610d025784890151610cfe601f891682610c11565b8355505b6001600288020188555050505b50505050505056fea2646970667358221220435dcc8ff84fc8531c0a038fd37f0b310e9f5417b0a673831d20616feecfd33364736f6c63430008140033","linkReferences":{}},"methodIdentifiers":{"getVersion(bytes32,bytes32)":"a92a15aa","getVersionCount(bytes32)":"de4920f4","getVersionList(bytes32)":"63d8fe98","rollback(bytes32,bytes32)":"57bb3cd5","snapshot(bytes32,bytes32,string,bytes32)":"b8560fef"},"id":327}