{"abi":[{"type":"function","name":"getWidget","inputs":[{"name":"fieldType","type":"string","internalType":"string"}],"outputs":[{"name":"found","type":"bool","internalType":"bool"},{"name":"widgetId","type":"string","internalType":"string"}],"stateMutability":"view"},{"type":"function","name":"registerWidget","inputs":[{"name":"fieldType","type":"string","internalType":"string"},{"name":"widgetId","type":"string","internalType":"string"}],"outputs":[],"stateMutability":"nonpayable"},{"type":"event","name":"WidgetRegistered","inputs":[{"name":"fieldType","type":"string","indexed":false,"internalType":"string"},{"name":"widgetId","type":"string","indexed":false,"internalType":"string"}],"anonymous":false}],"bytecode":{"object":"0x608060405234801561000f575f80fd5b506109b58061001d5f395ff3fe608060405234801561000f575f80fd5b5060043610610034575f3560e01c80633c3808fa14610038578063829f40a114610054575b5f80fd5b610052600480360381019061004d919061035c565b610085565b005b61006e600480360381019061006991906103da565b610202565b60405161007c9291906104c9565b60405180910390f35b5f84849050116100ca576040517f08c379a00000000000000000000000000000000000000000000000000000000081526004016100c190610541565b60405180910390fd5b5f828290501161010f576040517f08c379a0000000000000000000000000000000000000000000000000000000008152600401610106906105a9565b60405180910390fd5b604051806040016040528083838080601f0160208091040260200160405190810160405280939291908181526020018383808284375f81840152601f19601f820116905080830192505050505050508152602001600115158152505f858560405161017b929190610603565b90815260200160405180910390205f820151815f01908161019c919061084b565b506020820151816001015f6101000a81548160ff0219169083151502179055509050507f195cecea4762cedc30d3b73a3926f264ee80bcdbf563cad8ec682e519cbcec90848484846040516101f49493929190610946565b60405180910390a150505050565b5f60605f808585604051610217929190610603565b90815260200160405180910390209050806001015f9054906101000a900460ff16156102d6576001815f0180805461024e90610675565b80601f016020809104026020016040519081016040528092919081815260200182805461027a90610675565b80156102c55780601f1061029c576101008083540402835291602001916102c5565b820191905f5260205f20905b8154815290600101906020018083116102a857829003601f168201915b5050505050905092509250506102ec565b5f60405180602001604052805f81525092509250505b9250929050565b5f80fd5b5f80fd5b5f80fd5b5f80fd5b5f80fd5b5f8083601f84011261031c5761031b6102fb565b5b8235905067ffffffffffffffff811115610339576103386102ff565b5b60208301915083600182028301111561035557610354610303565b5b9250929050565b5f805f8060408587031215610374576103736102f3565b5b5f85013567ffffffffffffffff811115610391576103906102f7565b5b61039d87828801610307565b9450945050602085013567ffffffffffffffff8111156103c0576103bf6102f7565b5b6103cc87828801610307565b925092505092959194509250565b5f80602083850312156103f0576103ef6102f3565b5b5f83013567ffffffffffffffff81111561040d5761040c6102f7565b5b61041985828601610307565b92509250509250929050565b5f8115159050919050565b61043981610425565b82525050565b5f81519050919050565b5f82825260208201905092915050565b5f5b8381101561047657808201518184015260208101905061045b565b5f8484015250505050565b5f601f19601f8301169050919050565b5f61049b8261043f565b6104a58185610449565b93506104b5818560208601610459565b6104be81610481565b840191505092915050565b5f6040820190506104dc5f830185610430565b81810360208301526104ee8184610491565b90509392505050565b7f4669656c6420747970652063616e6e6f7420626520656d7074790000000000005f82015250565b5f61052b601a83610449565b9150610536826104f7565b602082019050919050565b5f6020820190508181035f8301526105588161051f565b9050919050565b7f5769646765742049442063616e6e6f7420626520656d707479000000000000005f82015250565b5f610593601983610449565b915061059e8261055f565b602082019050919050565b5f6020820190508181035f8301526105c081610587565b9050919050565b5f81905092915050565b828183375f83830152505050565b5f6105ea83856105c7565b93506105f78385846105d1565b82840190509392505050565b5f61060f8284866105df565b91508190509392505050565b7f4e487b71000000000000000000000000000000000000000000000000000000005f52604160045260245ffd5b7f4e487b71000000000000000000000000000000000000000000000000000000005f52602260045260245ffd5b5f600282049050600182168061068c57607f821691505b60208210810361069f5761069e610648565b5b50919050565b5f819050815f5260205f209050919050565b5f6020601f8301049050919050565b5f82821b905092915050565b5f600883026107017fffffffffffffffffffffffffffffffffffffffffffffffffffffffffffffffff826106c6565b61070b86836106c6565b95508019841693508086168417925050509392505050565b5f819050919050565b5f819050919050565b5f61074f61074a61074584610723565b61072c565b610723565b9050919050565b5f819050919050565b61076883610735565b61077c61077482610756565b8484546106d2565b825550505050565b5f90565b610790610784565b61079b81848461075f565b505050565b5b818110156107be576107b35f82610788565b6001810190506107a1565b5050565b601f821115610803576107d4816106a5565b6107dd846106b7565b810160208510156107ec578190505b6108006107f8856106b7565b8301826107a0565b50505b505050565b5f82821c905092915050565b5f6108235f1984600802610808565b1980831691505092915050565b5f61083b8383610814565b9150826002028217905092915050565b6108548261043f565b67ffffffffffffffff81111561086d5761086c61061b565b5b6108778254610675565b6108828282856107c2565b5f60209050601f8311600181146108b3575f84156108a1578287015190505b6108ab8582610830565b865550610912565b601f1984166108c1866106a5565b5f5b828110156108e8578489015182556001820191506020850194506020810190506108c3565b868310156109055784890151610901601f891682610814565b8355505b6001600288020188555050505b505050505050565b5f6109258385610449565b93506109328385846105d1565b61093b83610481565b840190509392505050565b5f6040820190508181035f83015261095f81868861091a565b9050818103602083015261097481848661091a565b90509594505050505056fea2646970667358221220821096fc8f6ad451c2ebbd1424c1d1bb8825f1c8f1511f6d4a2cb05819ac234c64736f6c63430008140033","linkReferences":{}},"methodIdentifiers":{"getWidget(string)":"829f40a1","registerWidget(string,string)":"3c3808fa"},"id":126}