{"abi":[{"type":"function","name":"add","inputs":[{"name":"tag","type":"bytes32","internalType":"bytes32"},{"name":"article","type":"bytes32","internalType":"bytes32"}],"outputs":[],"stateMutability":"nonpayable"},{"type":"function","name":"articlesByTag","inputs":[{"name":"tag","type":"bytes32","internalType":"bytes32"}],"outputs":[{"name":"articles","type":"bytes32[]","internalType":"bytes32[]"}],"stateMutability":"view"},{"type":"function","name":"isTagged","inputs":[{"name":"tag","type":"bytes32","internalType":"bytes32"},{"name":"article","type":"bytes32","internalType":"bytes32"}],"outputs":[{"name":"","type":"bool","internalType":"bool"}],"stateMutability":"view"},{"type":"function","name":"list","inputs":[],"outputs":[{"name":"","type":"bytes32[]","internalType":"bytes32[]"}],"stateMutability":"view"},{"type":"function","name":"remove","inputs":[{"name":"tag","type":"bytes32","internalType":"bytes32"},{"name":"article","type":"bytes32","internalType":"bytes32"}],"outputs":[],"stateMutability":"nonpayable"},{"type":"event","name":"TagAdded","inputs":[{"name":"tag","type":"bytes32","indexed":true,"internalType":"bytes32"},{"name":"article","type":"bytes32","indexed":true,"internalType":"bytes32"}],"anonymous":false},{"type":"event","name":"TagRemoved","inputs":[{"name":"tag","type":"bytes32","indexed":true,"internalType":"bytes32"},{"name":"article","type":"bytes32","indexed":true,"internalType":"bytes32"}],"anonymous":false}],"bytecode":{"object":"0x608060405234801561000f575f80fd5b50610a918061001d5f395ff3fe608060405234801561000f575f80fd5b5060043610610055575f3560e01c80630f560cd714610059578063b10e417214610077578063b1b63e2314610093578063d1de592a146100c3578063f3bfd0da146100df575b5f80fd5b61006161010f565b60405161006e91906106fe565b60405180910390f35b610091600480360381019061008c919061074c565b610165565b005b6100ad60048036038101906100a8919061078a565b610365565b6040516100ba91906106fe565b60405180910390f35b6100dd60048036038101906100d8919061074c565b6103cc565b005b6100f960048036038101906100f4919061074c565b610609565b60405161010691906107cf565b60405180910390f35b6060600480548060200260200160405190810160405280929190818152602001828054801561015b57602002820191905f5260205f20905b815481526020019060010190808311610147575b5050505050905090565b5f808381526020019081526020015f205f8281526020019081526020015f205f9054906101000a900460ff166101d0576040517f08c379a00000000000000000000000000000000000000000000000000000000081526004016101c790610842565b60405180910390fd5b5f60025f8481526020019081526020015f205f8381526020019081526020015f205490505f6001805f8681526020019081526020015f20805490506102159190610896565b90508082146102a4575f60015f8681526020019081526020015f208281548110610242576102416108c9565b5b905f5260205f20015490508060015f8781526020019081526020015f208481548110610271576102706108c9565b5b905f5260205f2001819055508260025f8781526020019081526020015f205f8381526020019081526020015f2081905550505b60015f8581526020019081526020015f208054806102c5576102c46108f6565b5b600190038181905f5260205f20015f9055905560025f8581526020019081526020015f205f8481526020019081526020015f205f90555f805f8681526020019081526020015f205f8581526020019081526020015f205f6101000a81548160ff02191690831515021790555082847f88399d0f6efe8c6793970d7325c5097e8b438f1fbf1c9a26fe3afb1f03513cd960405160405180910390a350505050565b606060015f8381526020019081526020015f208054806020026020016040519081016040528092919081815260200182805480156103c057602002820191905f5260205f20905b8154815260200190600101908083116103ac575b50505050509050919050565b5f801b8203610410576040517f08c379a00000000000000000000000000000000000000000000000000000000081526004016104079061096d565b60405180910390fd5b5f801b8103610454576040517f08c379a000000000000000000000000000000000000000000000000000000000815260040161044b906109d5565b60405180910390fd5b5f808381526020019081526020015f205f8281526020019081526020015f205f9054906101000a900460ff16156104c0576040517f08c379a00000000000000000000000000000000000000000000000000000000081526004016104b790610a3d565b60405180910390fd5b60035f8381526020019081526020015f205f9054906101000a900460ff1661053257600160035f8481526020019081526020015f205f6101000a81548160ff021916908315150217905550600482908060018154018082558091505060019003905f5260205f20015f90919091909150555b60015f808481526020019081526020015f205f8381526020019081526020015f205f6101000a81548160ff02191690831515021790555060015f8381526020019081526020015f208054905060025f8481526020019081526020015f205f8381526020019081526020015f208190555060015f8381526020019081526020015f2081908060018154018082558091505060019003905f5260205f20015f909190919091505580827f451801e67f9c9ab1dc922ad72e79aa81f7b5c2bbbed1940b896cf97cbf43bc3960405160405180910390a35050565b5f805f8481526020019081526020015f205f8381526020019081526020015f205f9054906101000a900460ff16905092915050565b5f81519050919050565b5f82825260208201905092915050565b5f819050602082019050919050565b5f819050919050565b61067981610667565b82525050565b5f61068a8383610670565b60208301905092915050565b5f602082019050919050565b5f6106ac8261063e565b6106b68185610648565b93506106c183610658565b805f5b838110156106f15781516106d8888261067f565b97506106e383610696565b9250506001810190506106c4565b5085935050505092915050565b5f6020820190508181035f83015261071681846106a2565b905092915050565b5f80fd5b61072b81610667565b8114610735575f80fd5b50565b5f8135905061074681610722565b92915050565b5f80604083850312156107625761076161071e565b5b5f61076f85828601610738565b925050602061078085828601610738565b9150509250929050565b5f6020828403121561079f5761079e61071e565b5b5f6107ac84828501610738565b91505092915050565b5f8115159050919050565b6107c9816107b5565b82525050565b5f6020820190506107e25f8301846107c0565b92915050565b5f82825260208201905092915050565b7f41727469636c65206e6f742074616767656420776974682074686973207461675f82015250565b5f61082c6020836107e8565b9150610837826107f8565b602082019050919050565b5f6020820190508181035f83015261085981610820565b9050919050565b5f819050919050565b7f4e487b71000000000000000000000000000000000000000000000000000000005f52601160045260245ffd5b5f6108a082610860565b91506108ab83610860565b92508282039050818111156108c3576108c2610869565b5b92915050565b7f4e487b71000000000000000000000000000000000000000000000000000000005f52603260045260245ffd5b7f4e487b71000000000000000000000000000000000000000000000000000000005f52603160045260245ffd5b7f5461672063616e6e6f74206265207a65726f00000000000000000000000000005f82015250565b5f6109576012836107e8565b915061096282610923565b602082019050919050565b5f6020820190508181035f8301526109848161094b565b9050919050565b7f41727469636c652063616e6e6f74206265207a65726f000000000000000000005f82015250565b5f6109bf6016836107e8565b91506109ca8261098b565b602082019050919050565b5f6020820190508181035f8301526109ec816109b3565b9050919050565b7f41727469636c6520616c726561647920746167676564000000000000000000005f82015250565b5f610a276016836107e8565b9150610a32826109f3565b602082019050919050565b5f6020820190508181035f830152610a5481610a1b565b905091905056fea26469706673582212209e9e623d592b27fbf584373a8ea74be6aedda6db3e479eba25925412cf80376764736f6c63430008140033","linkReferences":{}},"methodIdentifiers":{"add(bytes32,bytes32)":"d1de592a","articlesByTag(bytes32)":"b1b63e23","isTagged(bytes32,bytes32)":"f3bfd0da","list()":"0f560cd7","remove(bytes32,bytes32)":"b10e4172"},"id":279}