{"abi":[{"type":"function","name":"createNote","inputs":[{"name":"dateHash","type":"bytes32","internalType":"bytes32"},{"name":"pageId","type":"bytes32","internalType":"bytes32"}],"outputs":[],"stateMutability":"nonpayable"},{"type":"function","name":"getNote","inputs":[{"name":"dateHash","type":"bytes32","internalType":"bytes32"}],"outputs":[{"name":"found","type":"bool","internalType":"bool"},{"name":"pageId","type":"bytes32","internalType":"bytes32"}],"stateMutability":"view"},{"type":"function","name":"noteCount","inputs":[],"outputs":[{"name":"","type":"uint256","internalType":"uint256"}],"stateMutability":"view"},{"type":"event","name":"NoteCreated","inputs":[{"name":"dateHash","type":"bytes32","indexed":true,"internalType":"bytes32"},{"name":"pageId","type":"bytes32","indexed":true,"internalType":"bytes32"}],"anonymous":false}],"bytecode":{"object":"0x608060405234801561000f575f80fd5b5061049d8061001d5f395ff3fe608060405234801561000f575f80fd5b506004361061003f575f3560e01c8063317a4c761461004357806398df3d0014610061578063ba03465214610092575b5f80fd5b61004b6100ae565b6040516100589190610258565b60405180910390f35b61007b600480360381019061007691906102a8565b6100ba565b6040516100899291906102fc565b60405180910390f35b6100ac60048036038101906100a79190610323565b610109565b005b5f600280549050905090565b5f8060015f8481526020019081526020015f205f9054906101000a900460ff16156100fb5760015f808581526020019081526020015f205491509150610104565b5f805f1b915091505b915091565b60015f8381526020019081526020015f205f9054906101000a900460ff1615610167576040517f08c379a000000000000000000000000000000000000000000000000000000000815260040161015e906103e1565b60405180910390fd5b5f801b81036101ab576040517f08c379a00000000000000000000000000000000000000000000000000000000081526004016101a290610449565b60405180910390fd5b805f808481526020019081526020015f20819055506001805f8481526020019081526020015f205f6101000a81548160ff021916908315150217905550600282908060018154018082558091505060019003905f5260205f20015f909190919091505580827f8031124762bf58d2cfe1e40c0c8902371b153a427fae9080cb939d5631ab8a7860405160405180910390a35050565b5f819050919050565b61025281610240565b82525050565b5f60208201905061026b5f830184610249565b92915050565b5f80fd5b5f819050919050565b61028781610275565b8114610291575f80fd5b50565b5f813590506102a28161027e565b92915050565b5f602082840312156102bd576102bc610271565b5b5f6102ca84828501610294565b91505092915050565b5f8115159050919050565b6102e7816102d3565b82525050565b6102f681610275565b82525050565b5f60408201905061030f5f8301856102de565b61031c60208301846102ed565b9392505050565b5f806040838503121561033957610338610271565b5b5f61034685828601610294565b925050602061035785828601610294565b9150509250929050565b5f82825260208201905092915050565b7f4e6f746520616c72656164792065786973747320666f722074686973206461745f8201527f6500000000000000000000000000000000000000000000000000000000000000602082015250565b5f6103cb602183610361565b91506103d682610371565b604082019050919050565b5f6020820190508181035f8301526103f8816103bf565b9050919050565b7f496e76616c6964207061676520494400000000000000000000000000000000005f82015250565b5f610433600f83610361565b915061043e826103ff565b602082019050919050565b5f6020820190508181035f83015261046081610427565b905091905056fea2646970667358221220ed807e200adc0d7e7412c5d34b91e6e4f9d0e5d39ef52917e2220d385f1cbd4d64736f6c63430008140033","linkReferences":{}},"methodIdentifiers":{"createNote(bytes32,bytes32)":"ba034652","getNote(bytes32)":"98df3d00","noteCount()":"317a4c76"},"id":86}