{"abi":[{"type":"function","name":"canDeploy","inputs":[{"name":"concept","type":"string","internalType":"string"},{"name":"language","type":"string","internalType":"string"}],"outputs":[{"name":"","type":"tuple","internalType":"struct ContractTest.CanDeployOkResult","components":[{"name":"success","type":"bool","internalType":"bool"},{"name":"safe","type":"bool","internalType":"bool"},{"name":"verifiedAgainst","type":"string[]","internalType":"string[]"}]}],"stateMutability":"nonpayable"},{"type":"function","name":"generate","inputs":[{"name":"concept","type":"string","internalType":"string"},{"name":"specPath","type":"string","internalType":"string"}],"outputs":[{"name":"","type":"tuple","internalType":"struct ContractTest.GenerateOkResult","components":[{"name":"success","type":"bool","internalType":"bool"},{"name":"contractId","type":"bytes32","internalType":"bytes32"},{"name":"definition","type":"bytes","internalType":"bytes"}]}],"stateMutability":"nonpayable"},{"type":"function","name":"matrix","inputs":[{"name":"concepts","type":"string[]","internalType":"string[]"}],"outputs":[{"name":"","type":"tuple","internalType":"struct ContractTest.MatrixOkResult","components":[{"name":"success","type":"bool","internalType":"bool"},{"name":"matrix","type":"bytes[]","internalType":"bytes[]"}]}],"stateMutability":"nonpayable"},{"type":"function","name":"verify","inputs":[{"name":"contractId","type":"bytes32","internalType":"bytes32"},{"name":"producerArtifact","type":"string","internalType":"string"},{"name":"producerLanguage","type":"string","internalType":"string"},{"name":"consumerArtifact","type":"string","internalType":"string"},{"name":"consumerLanguage","type":"string","internalType":"string"}],"outputs":[{"name":"","type":"tuple","internalType":"struct ContractTest.VerifyOkResult","components":[{"name":"success","type":"bool","internalType":"bool"},{"name":"contractId","type":"bytes32","internalType":"bytes32"},{"name":"passed","type":"int256","internalType":"int256"},{"name":"total","type":"int256","internalType":"int256"}]}],"stateMutability":"nonpayable"},{"type":"event","name":"CanDeployCompleted","inputs":[{"name":"variant","type":"string","indexed":false,"internalType":"string"},{"name":"safe","type":"bool","indexed":false,"internalType":"bool"},{"name":"verifiedAgainst","type":"string[]","indexed":false,"internalType":"string[]"},{"name":"missingPairs","type":"bytes[]","indexed":false,"internalType":"bytes[]"}],"anonymous":false},{"type":"event","name":"GenerateCompleted","inputs":[{"name":"variant","type":"string","indexed":false,"internalType":"string"},{"name":"contractId","type":"bytes32","indexed":false,"internalType":"bytes32"},{"name":"definition","type":"bytes","indexed":false,"internalType":"bytes"}],"anonymous":false},{"type":"event","name":"MatrixCompleted","inputs":[{"name":"variant","type":"string","indexed":false,"internalType":"string"},{"name":"matrix","type":"bytes[]","indexed":false,"internalType":"bytes[]"}],"anonymous":false},{"type":"event","name":"VerifyCompleted","inputs":[{"name":"variant","type":"string","indexed":false,"internalType":"string"},{"name":"contractId","type":"bytes32","indexed":false,"internalType":"bytes32"},{"name":"passed","type":"int256","indexed":false,"internalType":"int256"},{"name":"total","type":"int256","indexed":false,"internalType":"int256"},{"name":"failures","type":"bytes[]","indexed":false,"internalType":"bytes[]"}],"anonymous":false}],"bytecode":{"object":"0x608060405234801561000f575f80fd5b5061224b8061001d5f395ff3fe608060405234801561000f575f80fd5b506004361061004a575f3560e01c80632d371e741461004e578063632735ad1461007e57806377e2bf68146100ae578063fec3e77b146100de575b5f80fd5b61006860048036038101906100639190610e2f565b61010e565b6040516100759190611041565b60405180910390f35b61009860048036038101906100939190610e2f565b61058f565b6040516100a59190611118565b60405180910390f35b6100c860048036038101906100c3919061121a565b6107e7565b6040516100d59190611356565b60405180910390f35b6100f860048036038101906100f391906113a0565b6109ee565b60405161010591906114f2565b60405180910390f35b610116610c57565b5f835111610159576040517f08c379a000000000000000000000000000000000000000000000000000000000815260040161015090611565565b60405180910390fd5b5f805b60048054905081101561023a575f6004828154811061017e5761017d611583565b5b905f5260205f200154905060055f8281526020019081526020015f205f9054906101000a900460ff166101b15750610227565b5f60035f8381526020019081526020015f2090508580519060200120816001016040516101de91906116a9565b60405180910390201480610210575085805190602001208160020160405161020691906116a9565b6040518091039020145b15610224578380610220906116f5565b9450505b50505b8080610232906116f5565b91505061015c565b505f8167ffffffffffffffff81111561025657610255610d0b565b5b60405190808252806020026020018201604052801561028957816020015b60608152602001906001900390816102745790505b5090505f805b6004805490508110156104cf575f600482815481106102b1576102b0611583565b5b905f5260205f200154905060055f8281526020019081526020015f205f9054906101000a900460ff166102e457506104bc565b5f60035f8381526020019081526020015f20905087805190602001208160010160405161031191906116a9565b6040518091039020036103da5780600201805461032d906115dd565b80601f0160208091040260200160405190810160405280929190818152602001828054610359906115dd565b80156103a45780601f1061037b576101008083540402835291602001916103a4565b820191905f5260205f20905b81548152906001019060200180831161038757829003601f168201915b50505050508585815181106103bc576103bb611583565b5b602002602001018190525083806103d2906116f5565b9450506104b9565b8780519060200120816002016040516103f391906116a9565b6040518091039020036104b85780600101805461040f906115dd565b80601f016020809104026020016040519081016040528092919081815260200182805461043b906115dd565b80156104865780601f1061045d57610100808354040283529160200191610486565b820191905f5260205f20905b81548152906001019060200180831161046957829003601f168201915b505050505085858151811061049e5761049d611583565b5b602002602001018190525083806104b4906116f5565b9450505b5b50505b80806104c7906116f5565b91505061028f565b505f80841190505f8067ffffffffffffffff8111156104f1576104f0610d0b565b5b60405190808252806020026020018201604052801561052457816020015b606081526020019060019003908161050f5790505b5090507f84deedc287aa3f01b31acbdca3dc8d6be1c9793c9aef479b1b372fd3a7c88d9d82858360405161055a9392919061189b565b60405180910390a160405180606001604052806001151581526020018315158152602001858152509550505050505092915050565b610597610c7a565b5f8351116105da576040517f08c379a00000000000000000000000000000000000000000000000000000000081526004016105d190611565565b60405180910390fd5b5f82511161061d576040517f08c379a00000000000000000000000000000000000000000000000000000000081526004016106149061193b565b60405180910390fd5b5f83836040516020016106319291906119dd565b6040516020818303038152906040528051906020012090505f848460405160200161065d929190611b23565b60405160208183030381529060405290506040518060a00160405280868152602001858152602001828152602001428152602001600115158152505f808481526020019081526020015f205f820151815f0190816106bb9190611d1b565b5060208201518160010190816106d19190611d1b565b5060408201518160020190816106e79190611e42565b50606082015181600301556080820151816004015f6101000a81548160ff02191690831515021790555090505060025f8381526020019081526020015f205f9054906101000a900460ff1661078657600160025f8481526020019081526020015f205f6101000a81548160ff021916908315150217905550600182908060018154018082558091505060019003905f5260205f20015f90919091909150555b7fc6e8eb2f3a1bece91e24180b0e72051038bca1cc1df7cd2ffc9865b50776db8982826040516107b7929190611f68565b60405180910390a16040518060600160405280600115158152602001838152602001828152509250505092915050565b6107ef610c9e565b5f805b6004805490508110156108605760055f6004838154811061081657610815611583565b5b905f5260205f20015481526020019081526020015f205f9054906101000a900460ff161561084d578180610849906116f5565b9250505b8080610858906116f5565b9150506107f2565b505f8167ffffffffffffffff81111561087c5761087b610d0b565b5b6040519080825280602002602001820160405280156108af57816020015b606081526020019060019003908161089a5790505b5090505f805b600480549050811015610994575f600482815481106108d7576108d6611583565b5b905f5260205f200154905060055f8281526020019081526020015f205f9054906101000a900460ff1615610980575f60035f8381526020019081526020015f209050805f0154816001018260020183600301548460040154604051602001610943959493929190612039565b60405160208183030381529060405285858151811061096557610964611583565b5b6020026020010181905250838061097b906116f5565b945050505b50808061098c906116f5565b9150506108b5565b507fd8d20e2e64602c2bb310fd1f14d61986a0e0bbbd563eb4d7365448671636b4d7826040516109c49190612098565b60405180910390a16040518060400160405280600115158152602001838152509350505050919050565b6109f6610cb9565b60025f8781526020019081526020015f205f9054906101000a900460ff16610a53576040517f08c379a0000000000000000000000000000000000000000000000000000000008152600401610a4a90612115565b60405180910390fd5b5f600590505f8190505f88878642604051602001610a749493929190612173565b6040516020818303038152906040528051906020012090506040518060e001604052808a81526020018881526020018681526020018381526020018481526020014281526020016001151581525060035f8381526020019081526020015f205f820151815f01556020820151816001019081610af09190611d1b565b506040820151816002019081610b069190611d1b565b50606082015181600301556080820151816004015560a0820151816005015560c0820151816006015f6101000a81548160ff021916908315150217905550905050600160055f8381526020019081526020015f205f6101000a81548160ff021916908315150217905550600481908060018154018082558091505060019003905f5260205f20015f90919091909150555f8067ffffffffffffffff811115610bb157610bb0610d0b565b5b604051908082528060200260200182016040528015610be457816020015b6060815260200190600190039081610bcf5790505b5090507fb0f339f0f52830fcb8b02fac39ff082c5fbcbef611cbffad60228837ee8fb9398a848684604051610c1c94939291906121b8565b60405180910390a160405180608001604052806001151581526020018b81526020018481526020018581525094505050505095945050505050565b60405180606001604052805f151581526020015f15158152602001606081525090565b60405180606001604052805f151581526020015f8019168152602001606081525090565b60405180604001604052805f15158152602001606081525090565b60405180608001604052805f151581526020015f80191681526020015f81526020015f81525090565b5f604051905090565b5f80fd5b5f80fd5b5f80fd5b5f80fd5b5f601f19601f8301169050919050565b7f4e487b71000000000000000000000000000000000000000000000000000000005f52604160045260245ffd5b610d4182610cfb565b810181811067ffffffffffffffff82111715610d6057610d5f610d0b565b5b80604052505050565b5f610d72610ce2565b9050610d7e8282610d38565b919050565b5f67ffffffffffffffff821115610d9d57610d9c610d0b565b5b610da682610cfb565b9050602081019050919050565b828183375f83830152505050565b5f610dd3610dce84610d83565b610d69565b905082815260208101848484011115610def57610dee610cf7565b5b610dfa848285610db3565b509392505050565b5f82601f830112610e1657610e15610cf3565b5b8135610e26848260208601610dc1565b91505092915050565b5f8060408385031215610e4557610e44610ceb565b5b5f83013567ffffffffffffffff811115610e6257610e61610cef565b5b610e6e85828601610e02565b925050602083013567ffffffffffffffff811115610e8f57610e8e610cef565b5b610e9b85828601610e02565b9150509250929050565b5f8115159050919050565b610eb981610ea5565b82525050565b5f81519050919050565b5f82825260208201905092915050565b5f819050602082019050919050565b5f81519050919050565b5f82825260208201905092915050565b5f5b83811015610f1f578082015181840152602081019050610f04565b5f8484015250505050565b5f610f3482610ee8565b610f3e8185610ef2565b9350610f4e818560208601610f02565b610f5781610cfb565b840191505092915050565b5f610f6d8383610f2a565b905092915050565b5f602082019050919050565b5f610f8b82610ebf565b610f958185610ec9565b935083602082028501610fa785610ed9565b805f5b85811015610fe25784840389528151610fc38582610f62565b9450610fce83610f75565b925060208a01995050600181019050610faa565b50829750879550505050505092915050565b5f606083015f8301516110095f860182610eb0565b50602083015161101c6020860182610eb0565b50604083015184820360408601526110348282610f81565b9150508091505092915050565b5f6020820190508181035f8301526110598184610ff4565b905092915050565b5f819050919050565b61107381611061565b82525050565b5f81519050919050565b5f82825260208201905092915050565b5f61109d82611079565b6110a78185611083565b93506110b7818560208601610f02565b6110c081610cfb565b840191505092915050565b5f606083015f8301516110e05f860182610eb0565b5060208301516110f3602086018261106a565b506040830151848203604086015261110b8282611093565b9150508091505092915050565b5f6020820190508181035f83015261113081846110cb565b905092915050565b5f67ffffffffffffffff82111561115257611151610d0b565b5b602082029050602081019050919050565b5f80fd5b5f61117961117484611138565b610d69565b9050808382526020820190506020840283018581111561119c5761119b611163565b5b835b818110156111e357803567ffffffffffffffff8111156111c1576111c0610cf3565b5b8086016111ce8982610e02565b8552602085019450505060208101905061119e565b5050509392505050565b5f82601f83011261120157611200610cf3565b5b8135611211848260208601611167565b91505092915050565b5f6020828403121561122f5761122e610ceb565b5b5f82013567ffffffffffffffff81111561124c5761124b610cef565b5b611258848285016111ed565b91505092915050565b5f81519050919050565b5f82825260208201905092915050565b5f819050602082019050919050565b5f6112958383611093565b905092915050565b5f602082019050919050565b5f6112b382611261565b6112bd818561126b565b9350836020820285016112cf8561127b565b805f5b8581101561130a57848403895281516112eb858261128a565b94506112f68361129d565b925060208a019950506001810190506112d2565b50829750879550505050505092915050565b5f604083015f8301516113315f860182610eb0565b506020830151848203602086015261134982826112a9565b9150508091505092915050565b5f6020820190508181035f83015261136e818461131c565b905092915050565b61137f81611061565b8114611389575f80fd5b50565b5f8135905061139a81611376565b92915050565b5f805f805f60a086880312156113b9576113b8610ceb565b5b5f6113c68882890161138c565b955050602086013567ffffffffffffffff8111156113e7576113e6610cef565b5b6113f388828901610e02565b945050604086013567ffffffffffffffff81111561141457611413610cef565b5b61142088828901610e02565b935050606086013567ffffffffffffffff81111561144157611440610cef565b5b61144d88828901610e02565b925050608086013567ffffffffffffffff81111561146e5761146d610cef565b5b61147a88828901610e02565b9150509295509295909350565b5f819050919050565b61149981611487565b82525050565b608082015f8201516114b35f850182610eb0565b5060208201516114c6602085018261106a565b5060408201516114d96040850182611490565b5060608201516114ec6060850182611490565b50505050565b5f6080820190506115055f83018461149f565b92915050565b5f82825260208201905092915050565b7f436f6e63657074206d757374206e6f7420626520656d707479000000000000005f82015250565b5f61154f60198361150b565b915061155a8261151b565b602082019050919050565b5f6020820190508181035f83015261157c81611543565b9050919050565b7f4e487b71000000000000000000000000000000000000000000000000000000005f52603260045260245ffd5b7f4e487b71000000000000000000000000000000000000000000000000000000005f52602260045260245ffd5b5f60028204905060018216806115f457607f821691505b602082108103611607576116066115b0565b5b50919050565b5f81905092915050565b5f819050815f5260205f209050919050565b5f8154611635816115dd565b61163f818661160d565b9450600182165f8114611659576001811461166e576116a0565b60ff19831686528115158202860193506116a0565b61167785611617565b5f5b8381101561169857815481890152600182019150602081019050611679565b838801955050505b50505092915050565b5f6116b48284611629565b915081905092915050565b7f4e487b71000000000000000000000000000000000000000000000000000000005f52601160045260245ffd5b5f819050919050565b5f6116ff826116ec565b91507fffffffffffffffffffffffffffffffffffffffffffffffffffffffffffffffff8203611731576117306116bf565b5b600182019050919050565b7f6f6b0000000000000000000000000000000000000000000000000000000000005f82015250565b5f61177060028361150b565b915061177b8261173c565b602082019050919050565b61178f81610ea5565b82525050565b5f82825260208201905092915050565b5f6117af82610ebf565b6117b98185611795565b9350836020820285016117cb85610ed9565b805f5b8581101561180657848403895281516117e78582610f62565b94506117f283610f75565b925060208a019950506001810190506117ce565b50829750879550505050505092915050565b5f82825260208201905092915050565b5f61183282611261565b61183c8185611818565b93508360208202850161184e8561127b565b805f5b85811015611889578484038952815161186a858261128a565b94506118758361129d565b925060208a01995050600181019050611851565b50829750879550505050505092915050565b5f6080820190508181035f8301526118b281611764565b90506118c16020830186611786565b81810360408301526118d381856117a5565b905081810360608301526118e78184611828565b9050949350505050565b7f537065632070617468206d757374206e6f7420626520656d70747900000000005f82015250565b5f611925601b8361150b565b9150611930826118f1565b602082019050919050565b5f6020820190508181035f83015261195281611919565b9050919050565b5f81905092915050565b7f636f6e74726163743a00000000000000000000000000000000000000000000005f82015250565b5f611997600983611959565b91506119a282611963565b600982019050919050565b5f6119b782610ee8565b6119c18185611959565b93506119d1818560208601610f02565b80840191505092915050565b5f6119e78261198b565b91506119f382856119ad565b91506119ff82846119ad565b91508190509392505050565b5f611a1582610ee8565b611a1f818561150b565b9350611a2f818560208601610f02565b611a3881610cfb565b840191505092915050565b7f70726f6475636572206d757374207361746973667920616c6c207374617465205f8201527f696e76617269616e747300000000000000000000000000000000000000000000602082015250565b5f611a9d602a8361150b565b9150611aa882611a43565b604082019050919050565b7f636f6e73756d6572206d7573742068616e646c6520616c6c20726573756c74205f8201527f76617269616e7473000000000000000000000000000000000000000000000000602082015250565b5f611b0d60288361150b565b9150611b1882611ab3565b604082019050919050565b5f6080820190508181035f830152611b3b8185611a0b565b90508181036020830152611b4f8184611a0b565b90508181036040830152611b6281611a91565b90508181036060830152611b7581611b01565b90509392505050565b5f819050815f5260205f209050919050565b5f6020601f8301049050919050565b5f82821b905092915050565b5f60088302611bda7fffffffffffffffffffffffffffffffffffffffffffffffffffffffffffffffff82611b9f565b611be48683611b9f565b95508019841693508086168417925050509392505050565b5f819050919050565b5f611c1f611c1a611c15846116ec565b611bfc565b6116ec565b9050919050565b5f819050919050565b611c3883611c05565b611c4c611c4482611c26565b848454611bab565b825550505050565b5f90565b611c60611c54565b611c6b818484611c2f565b505050565b5b81811015611c8e57611c835f82611c58565b600181019050611c71565b5050565b601f821115611cd357611ca481611b7e565b611cad84611b90565b81016020851015611cbc578190505b611cd0611cc885611b90565b830182611c70565b50505b505050565b5f82821c905092915050565b5f611cf35f1984600802611cd8565b1980831691505092915050565b5f611d0b8383611ce4565b9150826002028217905092915050565b611d2482610ee8565b67ffffffffffffffff811115611d3d57611d3c610d0b565b5b611d4782546115dd565b611d52828285611c92565b5f60209050601f831160018114611d83575f8415611d71578287015190505b611d7b8582611d00565b865550611de2565b601f198416611d9186611b7e565b5f5b82811015611db857848901518255600182019150602085019450602081019050611d93565b86831015611dd55784890151611dd1601f891682611ce4565b8355505b6001600288020188555050505b505050505050565b5f819050815f5260205f209050919050565b601f821115611e3d57611e0e81611dea565b611e1784611b90565b81016020851015611e26578190505b611e3a611e3285611b90565b830182611c70565b50505b505050565b611e4b82611079565b67ffffffffffffffff811115611e6457611e63610d0b565b5b611e6e82546115dd565b611e79828285611dfc565b5f60209050601f831160018114611eaa575f8415611e98578287015190505b611ea28582611d00565b865550611f09565b601f198416611eb886611dea565b5f5b82811015611edf57848901518255600182019150602085019450602081019050611eba565b86831015611efc5784890151611ef8601f891682611ce4565b8355505b6001600288020188555050505b505050505050565b611f1a81611061565b82525050565b5f82825260208201905092915050565b5f611f3a82611079565b611f448185611f20565b9350611f54818560208601610f02565b611f5d81610cfb565b840191505092915050565b5f6060820190508181035f830152611f7f81611764565b9050611f8e6020830185611f11565b8181036040830152611fa08184611f30565b90509392505050565b5f8154611fb5816115dd565b611fbf818661150b565b9450600182165f8114611fd95760018114611fef57612021565b60ff198316865281151560200286019350612021565b611ff885611b7e565b5f5b8381101561201957815481890152600182019150602081019050611ffa565b808801955050505b50505092915050565b61203381611487565b82525050565b5f60a08201905061204c5f830188611f11565b818103602083015261205e8187611fa9565b905081810360408301526120728186611fa9565b9050612081606083018561202a565b61208e608083018461202a565b9695505050505050565b5f6040820190508181035f8301526120af81611764565b905081810360208301526120c38184611828565b905092915050565b7f436f6e7472616374206e6f7420666f756e6400000000000000000000000000005f82015250565b5f6120ff60128361150b565b915061210a826120cb565b602082019050919050565b5f6020820190508181035f83015261212c816120f3565b9050919050565b5f819050919050565b61214d61214882611061565b612133565b82525050565b5f819050919050565b61216d612168826116ec565b612153565b82525050565b5f61217e828761213c565b60208201915061218e82866119ad565b915061219a82856119ad565b91506121a6828461215c565b60208201915081905095945050505050565b5f60a0820190508181035f8301526121cf81611764565b90506121de6020830187611f11565b6121eb604083018661202a565b6121f8606083018561202a565b818103608083015261220a8184611828565b90509594505050505056fea2646970667358221220f18905bc7ae60e5c9d84e82b7a7dec9dfa2f88860d137e82bcef2d719b27c32264736f6c63430008140033","linkReferences":{}},"methodIdentifiers":{"canDeploy(string,string)":"2d371e74","generate(string,string)":"632735ad","matrix(string[])":"77e2bf68","verify(bytes32,string,string,string,string)":"fec3e77b"},"id":82}