{"abi":[{"type":"function","name":"attribute","inputs":[{"name":"contentRef","type":"bytes32","internalType":"bytes32"},{"name":"region","type":"bytes","internalType":"bytes"},{"name":"agent","type":"bytes32","internalType":"bytes32"},{"name":"changeRef","type":"bytes32","internalType":"bytes32"}],"outputs":[{"name":"attributionId","type":"bytes32","internalType":"bytes32"}],"stateMutability":"nonpayable"},{"type":"function","name":"blame","inputs":[{"name":"contentRef","type":"bytes32","internalType":"bytes32"}],"outputs":[{"name":"","type":"bytes32[]","internalType":"bytes32[]"}],"stateMutability":"view"},{"type":"function","name":"getAttribution","inputs":[{"name":"attributionId","type":"bytes32","internalType":"bytes32"}],"outputs":[{"name":"record","type":"tuple","internalType":"struct Attribution.AttributionRecord","components":[{"name":"contentRef","type":"bytes32","internalType":"bytes32"},{"name":"region","type":"bytes","internalType":"bytes"},{"name":"agent","type":"bytes32","internalType":"bytes32"},{"name":"changeRef","type":"bytes32","internalType":"bytes32"},{"name":"timestamp","type":"uint256","internalType":"uint256"},{"name":"exists","type":"bool","internalType":"bool"}]}],"stateMutability":"view"},{"type":"function","name":"getAttributionCount","inputs":[],"outputs":[{"name":"","type":"uint256","internalType":"uint256"}],"stateMutability":"view"},{"type":"function","name":"history","inputs":[{"name":"contentRef","type":"bytes32","internalType":"bytes32"},{"name":"regionFilter","type":"bytes","internalType":"bytes"}],"outputs":[{"name":"","type":"bytes32[]","internalType":"bytes32[]"}],"stateMutability":"view"},{"type":"function","name":"queryOwners","inputs":[{"name":"pattern","type":"bytes32","internalType":"bytes32"}],"outputs":[{"name":"","type":"bytes32[]","internalType":"bytes32[]"}],"stateMutability":"view"},{"type":"function","name":"setOwnership","inputs":[{"name":"pattern","type":"bytes32","internalType":"bytes32"},{"name":"owners","type":"bytes32[]","internalType":"bytes32[]"}],"outputs":[],"stateMutability":"nonpayable"},{"type":"event","name":"Attributed","inputs":[{"name":"attributionId","type":"bytes32","indexed":true,"internalType":"bytes32"},{"name":"contentRef","type":"bytes32","indexed":true,"internalType":"bytes32"},{"name":"agent","type":"bytes32","indexed":true,"internalType":"bytes32"}],"anonymous":false},{"type":"event","name":"OwnershipSet","inputs":[{"name":"pattern","type":"bytes32","indexed":true,"internalType":"bytes32"}],"anonymous":false}],"bytecode":{"object":"0x608060405234801561000f575f80fd5b5061174d8061001d5f395ff3fe608060405234801561000f575f80fd5b506004361061007b575f3560e01c80635f88012a116100595780635f88012a146100e9578063d31abbd314610119578063d4e6f64714610149578063fead2c61146101795761007b565b8063346fbbbe1461007f578063469771f8146100af57806348973c15146100cd575b5f80fd5b61009960048036038101906100949190610b2b565b6101a9565b6040516100a69190610bbe565b60405180910390f35b6100b76103b2565b6040516100c49190610bef565b60405180910390f35b6100e760048036038101906100e29190610c5d565b6103be565b005b61010360048036038101906100fe9190610cba565b61057b565b6040516101109190610e2d565b60405180910390f35b610133600480360381019061012e9190610e4d565b6106f1565b6040516101409190610f52565b60405180910390f35b610163600480360381019061015e9190610cba565b6108bc565b6040516101709190610f52565b60405180910390f35b610193600480360381019061018e9190610cba565b610923565b6040516101a09190610f52565b60405180910390f35b5f805f1b86036101ee576040517f08c379a00000000000000000000000000000000000000000000000000000000081526004016101e590610fcc565b60405180910390fd5b5f801b8303610232576040517f08c379a000000000000000000000000000000000000000000000000000000000815260040161022990611034565b60405180910390fd5b600a5f8154809291906102449061107f565b91905055508585858542600a5460405160200161026696959493929190611142565b60405160208183030381529060405280519060200120905060015f808381526020019081526020015f205f6101000a81548160ff0219169083151502179055508560015f8381526020019081526020015f2081905550848460025f8481526020019081526020015f2091826102dc9291906113cf565b508260035f8381526020019081526020015f20819055508160045f8381526020019081526020015f20819055504260055f8381526020019081526020015f208190555060065f8781526020019081526020015f2081908060018154018082558091505060019003905f5260205f20015f9091909190915055600781908060018154018082558091505060019003905f5260205f20015f90919091909150558286827f280eea4f22046448b5c25adb3ddff133b5ac3729b461a14517416372f0cfb51160405160405180910390a495945050505050565b5f600780549050905090565b5f801b8303610402576040517f08c379a00000000000000000000000000000000000000000000000000000000081526004016103f9906114e6565b60405180910390fd5b5f8282905011610447576040517f08c379a000000000000000000000000000000000000000000000000000000000815260040161043e9061154e565b60405180910390fd5b60085f8481526020019081526020015f206002015f9054906101000a900460ff1661049357600983908060018154018082558091505060019003905f5260205f20015f90919091909150555b60405180606001604052808481526020018383808060200260200160405190810160405280939291908181526020018383602002808284375f81840152601f19601f8201169050808301925050505050505081526020016001151581525060085f8581526020019081526020015f205f820151815f015560208201518160010190805190602001906105269291906109ed565b506040820151816002015f6101000a81548160ff021916908315150217905550905050827faa11f13ced245e2b4de1816ae60ac85d39efad595592547d82a6e9bb5929898e60405160405180910390a2505050565b610583610a38565b5f808381526020019081526020015f205f9054906101000a900460ff166105df576040517f08c379a00000000000000000000000000000000000000000000000000000000081526004016105d6906115b6565b60405180910390fd5b6040518060c0016040528060015f8581526020019081526020015f2054815260200160025f8581526020019081526020015f20805461061d90611202565b80601f016020809104026020016040519081016040528092919081815260200182805461064990611202565b80156106945780601f1061066b57610100808354040283529160200191610694565b820191905f5260205f20905b81548152906001019060200180831161067757829003601f168201915b5050505050815260200160035f8581526020019081526020015f2054815260200160045f8581526020019081526020015f2054815260200160055f8581526020019081526020015f20548152602001600115158152509050919050565b60605f60065f8681526020019081526020015f2090505f805b82805490508110156107965785856040516107269291906115d4565b604051809103902060025f858481548110610744576107436115ec565b5b905f5260205f20015481526020019081526020015f206040516107679190611699565b60405180910390200361078357818061077f9061107f565b9250505b808061078e9061107f565b91505061070a565b505f8167ffffffffffffffff8111156107b2576107b16111a8565b5b6040519080825280602002602001820160405280156107e05781602001602082028036833780820191505090505b5090505f805b84805490508110156108ad5787876040516108029291906115d4565b604051809103902060025f8784815481106108205761081f6115ec565b5b905f5260205f20015481526020019081526020015f206040516108439190611699565b60405180910390200361089a57848181548110610863576108626115ec565b5b905f5260205f20015483838151811061087f5761087e6115ec565b5b60200260200101818152505081806108969061107f565b9250505b80806108a59061107f565b9150506107e6565b50819450505050509392505050565b606060065f8381526020019081526020015f2080548060200260200160405190810160405280929190818152602001828054801561091757602002820191905f5260205f20905b815481526020019060010190808311610903575b50505050509050919050565b606060085f8381526020019081526020015f206002015f9054906101000a900460ff16610985576040517f08c379a000000000000000000000000000000000000000000000000000000000815260040161097c906116f9565b60405180910390fd5b60085f8381526020019081526020015f206001018054806020026020016040519081016040528092919081815260200182805480156109e157602002820191905f5260205f20905b8154815260200190600101908083116109cd575b50505050509050919050565b828054828255905f5260205f20908101928215610a27579160200282015b82811115610a26578251825591602001919060010190610a0b565b5b509050610a349190610a74565b5090565b6040518060c001604052805f8019168152602001606081526020015f80191681526020015f80191681526020015f81526020015f151581525090565b5b80821115610a8b575f815f905550600101610a75565b5090565b5f80fd5b5f80fd5b5f819050919050565b610aa981610a97565b8114610ab3575f80fd5b50565b5f81359050610ac481610aa0565b92915050565b5f80fd5b5f80fd5b5f80fd5b5f8083601f840112610aeb57610aea610aca565b5b8235905067ffffffffffffffff811115610b0857610b07610ace565b5b602083019150836001820283011115610b2457610b23610ad2565b5b9250929050565b5f805f805f60808688031215610b4457610b43610a8f565b5b5f610b5188828901610ab6565b955050602086013567ffffffffffffffff811115610b7257610b71610a93565b5b610b7e88828901610ad6565b94509450506040610b9188828901610ab6565b9250506060610ba288828901610ab6565b9150509295509295909350565b610bb881610a97565b82525050565b5f602082019050610bd15f830184610baf565b92915050565b5f819050919050565b610be981610bd7565b82525050565b5f602082019050610c025f830184610be0565b92915050565b5f8083601f840112610c1d57610c1c610aca565b5b8235905067ffffffffffffffff811115610c3a57610c39610ace565b5b602083019150836020820283011115610c5657610c55610ad2565b5b9250929050565b5f805f60408486031215610c7457610c73610a8f565b5b5f610c8186828701610ab6565b935050602084013567ffffffffffffffff811115610ca257610ca1610a93565b5b610cae86828701610c08565b92509250509250925092565b5f60208284031215610ccf57610cce610a8f565b5b5f610cdc84828501610ab6565b91505092915050565b610cee81610a97565b82525050565b5f81519050919050565b5f82825260208201905092915050565b5f5b83811015610d2b578082015181840152602081019050610d10565b5f8484015250505050565b5f601f19601f8301169050919050565b5f610d5082610cf4565b610d5a8185610cfe565b9350610d6a818560208601610d0e565b610d7381610d36565b840191505092915050565b610d8781610bd7565b82525050565b5f8115159050919050565b610da181610d8d565b82525050565b5f60c083015f830151610dbc5f860182610ce5565b5060208301518482036020860152610dd48282610d46565b9150506040830151610de96040860182610ce5565b506060830151610dfc6060860182610ce5565b506080830151610e0f6080860182610d7e565b5060a0830151610e2260a0860182610d98565b508091505092915050565b5f6020820190508181035f830152610e458184610da7565b905092915050565b5f805f60408486031215610e6457610e63610a8f565b5b5f610e7186828701610ab6565b935050602084013567ffffffffffffffff811115610e9257610e91610a93565b5b610e9e86828701610ad6565b92509250509250925092565b5f81519050919050565b5f82825260208201905092915050565b5f819050602082019050919050565b5f610ede8383610ce5565b60208301905092915050565b5f602082019050919050565b5f610f0082610eaa565b610f0a8185610eb4565b9350610f1583610ec4565b805f5b83811015610f45578151610f2c8882610ed3565b9750610f3783610eea565b925050600181019050610f18565b5085935050505092915050565b5f6020820190508181035f830152610f6a8184610ef6565b905092915050565b5f82825260208201905092915050565b7f436f6e74656e74207265662063616e6e6f74206265207a65726f0000000000005f82015250565b5f610fb6601a83610f72565b9150610fc182610f82565b602082019050919050565b5f6020820190508181035f830152610fe381610faa565b9050919050565b7f4167656e742063616e6e6f74206265207a65726f0000000000000000000000005f82015250565b5f61101e601483610f72565b915061102982610fea565b602082019050919050565b5f6020820190508181035f83015261104b81611012565b9050919050565b7f4e487b71000000000000000000000000000000000000000000000000000000005f52601160045260245ffd5b5f61108982610bd7565b91507fffffffffffffffffffffffffffffffffffffffffffffffffffffffffffffffff82036110bb576110ba611052565b5b600182019050919050565b5f819050919050565b6110e06110db82610a97565b6110c6565b82525050565b5f81905092915050565b828183375f83830152505050565b5f61110983856110e6565b93506111168385846110f0565b82840190509392505050565b5f819050919050565b61113c61113782610bd7565b611122565b82525050565b5f61114d82896110cf565b60208201915061115e8287896110fe565b915061116a82866110cf565b60208201915061117a828561112b565b60208201915061118a828461112b565b602082019150819050979650505050505050565b5f82905092915050565b7f4e487b71000000000000000000000000000000000000000000000000000000005f52604160045260245ffd5b7f4e487b71000000000000000000000000000000000000000000000000000000005f52602260045260245ffd5b5f600282049050600182168061121957607f821691505b60208210810361122c5761122b6111d5565b5b50919050565b5f819050815f5260205f209050919050565b5f6020601f8301049050919050565b5f82821b905092915050565b5f6008830261128e7fffffffffffffffffffffffffffffffffffffffffffffffffffffffffffffffff82611253565b6112988683611253565b95508019841693508086168417925050509392505050565b5f819050919050565b5f6112d36112ce6112c984610bd7565b6112b0565b610bd7565b9050919050565b5f819050919050565b6112ec836112b9565b6113006112f8826112da565b84845461125f565b825550505050565b5f90565b611314611308565b61131f8184846112e3565b505050565b5b81811015611342576113375f8261130c565b600181019050611325565b5050565b601f8211156113875761135881611232565b61136184611244565b81016020851015611370578190505b61138461137c85611244565b830182611324565b50505b505050565b5f82821c905092915050565b5f6113a75f198460080261138c565b1980831691505092915050565b5f6113bf8383611398565b9150826002028217905092915050565b6113d9838361119e565b67ffffffffffffffff8111156113f2576113f16111a8565b5b6113fc8254611202565b611407828285611346565b5f601f831160018114611434575f8415611422578287013590505b61142c85826113b4565b865550611493565b601f19841661144286611232565b5f5b8281101561146957848901358255600182019150602085019450602081019050611444565b868310156114865784890135611482601f891682611398565b8355505b6001600288020188555050505b50505050505050565b7f5061747465726e2063616e6e6f74206265207a65726f000000000000000000005f82015250565b5f6114d0601683610f72565b91506114db8261149c565b602082019050919050565b5f6020820190508181035f8301526114fd816114c4565b9050919050565b7f4f776e657273206c6973742063616e6e6f7420626520656d70747900000000005f82015250565b5f611538601b83610f72565b915061154382611504565b602082019050919050565b5f6020820190508181035f8301526115658161152c565b9050919050565b7f4174747269627574696f6e20646f6573206e6f742065786973740000000000005f82015250565b5f6115a0601a83610f72565b91506115ab8261156c565b602082019050919050565b5f6020820190508181035f8301526115cd81611594565b9050919050565b5f6115e08284866110fe565b91508190509392505050565b7f4e487b71000000000000000000000000000000000000000000000000000000005f52603260045260245ffd5b5f815461162581611202565b61162f81866110e6565b9450600182165f8114611649576001811461165e57611690565b60ff1983168652811515820286019350611690565b61166785611232565b5f5b8381101561168857815481890152600182019150602081019050611669565b838801955050505b50505092915050565b5f6116a48284611619565b915081905092915050565b7f4f776e657273686970206e6f742073657420666f72207061747465726e0000005f82015250565b5f6116e3601d83610f72565b91506116ee826116af565b602082019050919050565b5f6020820190508181035f830152611710816116d7565b905091905056fea264697066735822122073803a871748ed3887808b39d1190a051cbaf9d4f5d1dd5f3d81bee305df41ad64736f6c63430008140033","linkReferences":{}},"methodIdentifiers":{"attribute(bytes32,bytes,bytes32,bytes32)":"346fbbbe","blame(bytes32)":"d4e6f647","getAttribution(bytes32)":"5f88012a","getAttributionCount()":"469771f8","history(bytes32,bytes)":"d31abbd3","queryOwners(bytes32)":"fead2c61","setOwnership(bytes32,bytes32[])":"48973c15"},"id":35}