{"abi":[{"type":"function","name":"count","inputs":[],"outputs":[{"name":"","type":"uint256","internalType":"uint256"}],"stateMutability":"view"},{"type":"function","name":"create","inputs":[{"name":"article","type":"bytes32","internalType":"bytes32"},{"name":"title","type":"string","internalType":"string"},{"name":"description","type":"string","internalType":"string"},{"name":"body","type":"string","internalType":"string"},{"name":"author","type":"bytes32","internalType":"bytes32"}],"outputs":[],"stateMutability":"nonpayable"},{"type":"function","name":"deleteArticle","inputs":[{"name":"article","type":"bytes32","internalType":"bytes32"}],"outputs":[],"stateMutability":"nonpayable"},{"type":"function","name":"exists","inputs":[{"name":"article","type":"bytes32","internalType":"bytes32"}],"outputs":[{"name":"","type":"bool","internalType":"bool"}],"stateMutability":"view"},{"type":"function","name":"get","inputs":[{"name":"article","type":"bytes32","internalType":"bytes32"}],"outputs":[{"name":"data","type":"tuple","internalType":"struct Article.ArticleData","components":[{"name":"slug","type":"string","internalType":"string"},{"name":"title","type":"string","internalType":"string"},{"name":"description","type":"string","internalType":"string"},{"name":"body","type":"string","internalType":"string"},{"name":"author","type":"bytes32","internalType":"bytes32"},{"name":"createdAt","type":"uint256","internalType":"uint256"},{"name":"updatedAt","type":"uint256","internalType":"uint256"},{"name":"exists","type":"bool","internalType":"bool"}]}],"stateMutability":"view"},{"type":"function","name":"update","inputs":[{"name":"article","type":"bytes32","internalType":"bytes32"},{"name":"title","type":"string","internalType":"string"},{"name":"description","type":"string","internalType":"string"},{"name":"body","type":"string","internalType":"string"}],"outputs":[],"stateMutability":"nonpayable"},{"type":"event","name":"ArticleCreated","inputs":[{"name":"article","type":"bytes32","indexed":true,"internalType":"bytes32"},{"name":"slug","type":"string","indexed":false,"internalType":"string"},{"name":"author","type":"bytes32","indexed":true,"internalType":"bytes32"}],"anonymous":false},{"type":"event","name":"ArticleDeleted","inputs":[{"name":"article","type":"bytes32","indexed":true,"internalType":"bytes32"}],"anonymous":false},{"type":"event","name":"ArticleUpdated","inputs":[{"name":"article","type":"bytes32","indexed":true,"internalType":"bytes32"},{"name":"slug","type":"string","indexed":false,"internalType":"string"}],"anonymous":false}],"bytecode":{"object":"0x608060405234801561000f575f80fd5b50611df68061001d5f395ff3fe608060405234801561000f575f80fd5b5060043610610060575f3560e01c806306661abd1461006457806338a699a4146100825780635fa90723146100b25780636706e21e146100ce57806385bd07cb146100ea5780638eaa6ac014610106575b5f80fd5b61006c610136565b6040516100799190611133565b60405180910390f35b61009c60048036038101906100979190611187565b610142565b6040516100a991906111cc565b60405180910390f35b6100cc60048036038101906100c79190611246565b61016a565b005b6100e860048036038101906100e39190611187565b610306565b005b61010460048036038101906100ff919061130a565b6104cf565b005b610120600480360381019061011b9190611187565b61087c565b60405161012d919061155a565b60405180910390f35b5f600180549050905090565b5f805f8381526020019081526020015f206007015f9054906101000a900460ff169050919050565b5f808881526020019081526020015f206007015f9054906101000a900460ff166101c9576040517f08c379a00000000000000000000000000000000000000000000000000000000081526004016101c0906115d4565b60405180910390fd5b5f868690501161020e576040517f08c379a00000000000000000000000000000000000000000000000000000000081526004016102059061163c565b60405180910390fd5b5f805f8981526020019081526020015f209050868682600101918261023492919061188b565b50848482600201918261024892919061188b565b50828282600301918261025c92919061188b565b506102a987878080601f0160208091040260200160405190810160405280939291908181526020018383808284375f81840152601f19601f82011690508083019250505050505050610b7d565b815f0190816102b89190611958565b50428160060181905550877fe2ff63988422830e5cb1bfbd7c85412a299c059dfb3b2f3505e793e8425b93ef825f016040516102f49190611aa8565b60405180910390a25050505050505050565b5f808281526020019081526020015f206007015f9054906101000a900460ff16610365576040517f08c379a000000000000000000000000000000000000000000000000000000000815260040161035c906115d4565b60405180910390fd5b5f60025f8381526020019081526020015f205490505f6001808054905061038c9190611af5565b90508082146103ee575f600182815481106103aa576103a9611b28565b5b905f5260205f200154905080600184815481106103ca576103c9611b28565b5b905f5260205f2001819055508260025f8381526020019081526020015f2081905550505b6001805480610400576103ff611b55565b5b600190038181905f5260205f20015f9055905560025f8481526020019081526020015f205f90555f808481526020019081526020015f205f8082015f610446919061107d565b600182015f610455919061107d565b600282015f610464919061107d565b600382015f610473919061107d565b600482015f9055600582015f9055600682015f9055600782015f6101000a81549060ff02191690555050827f67e468ba2ce62b95938e56852367a5f1bb46cefa1d6e395188b3df346f1e1dbc60405160405180910390a2505050565b5f801b8803610513576040517f08c379a000000000000000000000000000000000000000000000000000000000815260040161050a90611bcc565b60405180910390fd5b5f808981526020019081526020015f206007015f9054906101000a900460ff1615610573576040517f08c379a000000000000000000000000000000000000000000000000000000000815260040161056a90611c34565b60405180910390fd5b5f87879050116105b8576040517f08c379a00000000000000000000000000000000000000000000000000000000081526004016105af9061163c565b60405180910390fd5b5f801b81036105fc576040517f08c379a00000000000000000000000000000000000000000000000000000000081526004016105f390611c9c565b60405180910390fd5b5f61064988888080601f0160208091040260200160405190810160405280939291908181526020018383808284375f81840152601f19601f82011690508083019250505050505050610b7d565b905060405180610100016040528082815260200189898080601f0160208091040260200160405190810160405280939291908181526020018383808284375f81840152601f19601f82011690508083019250505050505050815260200187878080601f0160208091040260200160405190810160405280939291908181526020018383808284375f81840152601f19601f82011690508083019250505050505050815260200185858080601f0160208091040260200160405190810160405280939291908181526020018383808284375f81840152601f19601f820116905080830192505050505050508152602001838152602001428152602001428152602001600115158152505f808b81526020019081526020015f205f820151815f0190816107749190611958565b50602082015181600101908161078a9190611958565b5060408201518160020190816107a09190611958565b5060608201518160030190816107b69190611958565b506080820151816004015560a0820151816005015560c0820151816006015560e0820151816007015f6101000a81548160ff02191690831515021790555090505060018054905060025f8b81526020019081526020015f2081905550600189908060018154018082558091505060019003905f5260205f20015f909190919091505581897f0b9e0f013a63cf101d74ca279a68f91d4e7e04ea79d76309ac0e60da4f606005836040516108699190611cf2565b60405180910390a3505050505050505050565b6108846110ba565b5f808381526020019081526020015f206007015f9054906101000a900460ff166108e3576040517f08c379a00000000000000000000000000000000000000000000000000000000081526004016108da906115d4565b60405180910390fd5b5f808381526020019081526020015f20604051806101000160405290815f8201805461090e906116be565b80601f016020809104026020016040519081016040528092919081815260200182805461093a906116be565b80156109855780601f1061095c57610100808354040283529160200191610985565b820191905f5260205f20905b81548152906001019060200180831161096857829003601f168201915b5050505050815260200160018201805461099e906116be565b80601f01602080910402602001604051908101604052809291908181526020018280546109ca906116be565b8015610a155780601f106109ec57610100808354040283529160200191610a15565b820191905f5260205f20905b8154815290600101906020018083116109f857829003601f168201915b50505050508152602001600282018054610a2e906116be565b80601f0160208091040260200160405190810160405280929190818152602001828054610a5a906116be565b8015610aa55780601f10610a7c57610100808354040283529160200191610aa5565b820191905f5260205f20905b815481529060010190602001808311610a8857829003601f168201915b50505050508152602001600382018054610abe906116be565b80601f0160208091040260200160405190810160405280929190818152602001828054610aea906116be565b8015610b355780601f10610b0c57610100808354040283529160200191610b35565b820191905f5260205f20905b815481529060010190602001808311610b1857829003601f168201915b50505050508152602001600482015481526020016005820154815260200160068201548152602001600782015f9054906101000a900460ff1615151515815250509050919050565b60605f8290505f815167ffffffffffffffff811115610b9f57610b9e611664565b5b6040519080825280601f01601f191660200182016040528015610bd15781602001600182028036833780820191505090505b5090505f805b8351811015610f32575f848281518110610bf457610bf3611b28565b5b602001015160f81c60f81b9050602060f81b817effffffffffffffffffffffffffffffffffffffffffffffffffffffffffffff191603610ceb575f83118015610c8c5750602d60f81b84600185610c4b9190611af5565b81518110610c5c57610c5b611b28565b5b602001015160f81c60f81b7effffffffffffffffffffffffffffffffffffffffffffffffffffffffffffff191614155b15610ce657602d60f81b848481518110610ca957610ca8611b28565b5b60200101907effffffffffffffffffffffffffffffffffffffffffffffffffffffffffffff191690815f1a9053508280610ce290611d12565b9350505b610f1e565b604160f81b817effffffffffffffffffffffffffffffffffffffffffffffffffffffffffffff191610158015610d475750605a60f81b817effffffffffffffffffffffffffffffffffffffffffffffffffffffffffffff191611155b15610db35760208160f81c610d5c9190611d65565b60f81b848481518110610d7257610d71611b28565b5b60200101907effffffffffffffffffffffffffffffffffffffffffffffffffffffffffffff191690815f1a9053508280610dab90611d12565b935050610f1d565b606160f81b817effffffffffffffffffffffffffffffffffffffffffffffffffffffffffffff191610158015610e0f5750607a60f81b817effffffffffffffffffffffffffffffffffffffffffffffffffffffffffffff191611155b15610e695780848481518110610e2857610e27611b28565b5b60200101907effffffffffffffffffffffffffffffffffffffffffffffffffffffffffffff191690815f1a9053508280610e6190611d12565b935050610f1c565b603060f81b817effffffffffffffffffffffffffffffffffffffffffffffffffffffffffffff191610158015610ec55750603960f81b817effffffffffffffffffffffffffffffffffffffffffffffffffffffffffffff191611155b15610f1b5780848481518110610ede57610edd611b28565b5b60200101907effffffffffffffffffffffffffffffffffffffffffffffffffffffffffffff191690815f1a9053508280610f1790611d12565b9350505b5b5b5b508080610f2a90611d12565b915050610bd7565b505f81118015610f905750602d60f81b82600183610f509190611af5565b81518110610f6157610f60611b28565b5b602001015160f81c60f81b7effffffffffffffffffffffffffffffffffffffffffffffffffffffffffffff1916145b15610fa4578080610fa090611d99565b9150505b5f8167ffffffffffffffff811115610fbf57610fbe611664565b5b6040519080825280601f01601f191660200182016040528015610ff15781602001600182028036833780820191505090505b5090505f5b828110156110705783818151811061101157611010611b28565b5b602001015160f81c60f81b82828151811061102f5761102e611b28565b5b60200101907effffffffffffffffffffffffffffffffffffffffffffffffffffffffffffff191690815f1a905350808061106890611d12565b915050610ff6565b5080945050505050919050565b508054611089906116be565b5f825580601f1061109a57506110b7565b601f0160209004905f5260205f20908101906110b69190611100565b5b50565b604051806101000160405280606081526020016060815260200160608152602001606081526020015f80191681526020015f81526020015f81526020015f151581525090565b5b80821115611117575f815f905550600101611101565b5090565b5f819050919050565b61112d8161111b565b82525050565b5f6020820190506111465f830184611124565b92915050565b5f80fd5b5f80fd5b5f819050919050565b61116681611154565b8114611170575f80fd5b50565b5f813590506111818161115d565b92915050565b5f6020828403121561119c5761119b61114c565b5b5f6111a984828501611173565b91505092915050565b5f8115159050919050565b6111c6816111b2565b82525050565b5f6020820190506111df5f8301846111bd565b92915050565b5f80fd5b5f80fd5b5f80fd5b5f8083601f840112611206576112056111e5565b5b8235905067ffffffffffffffff811115611223576112226111e9565b5b60208301915083600182028301111561123f5761123e6111ed565b5b9250929050565b5f805f805f805f6080888a0312156112615761126061114c565b5b5f61126e8a828b01611173565b975050602088013567ffffffffffffffff81111561128f5761128e611150565b5b61129b8a828b016111f1565b9650965050604088013567ffffffffffffffff8111156112be576112bd611150565b5b6112ca8a828b016111f1565b9450945050606088013567ffffffffffffffff8111156112ed576112ec611150565b5b6112f98a828b016111f1565b925092505092959891949750929550565b5f805f805f805f8060a0898b0312156113265761132561114c565b5b5f6113338b828c01611173565b985050602089013567ffffffffffffffff81111561135457611353611150565b5b6113608b828c016111f1565b9750975050604089013567ffffffffffffffff81111561138357611382611150565b5b61138f8b828c016111f1565b9550955050606089013567ffffffffffffffff8111156113b2576113b1611150565b5b6113be8b828c016111f1565b935093505060806113d18b828c01611173565b9150509295985092959890939650565b5f81519050919050565b5f82825260208201905092915050565b5f5b838110156114185780820151818401526020810190506113fd565b5f8484015250505050565b5f601f19601f8301169050919050565b5f61143d826113e1565b61144781856113eb565b93506114578185602086016113fb565b61146081611423565b840191505092915050565b61147481611154565b82525050565b6114838161111b565b82525050565b611492816111b2565b82525050565b5f61010083015f8301518482035f8601526114b38282611433565b915050602083015184820360208601526114cd8282611433565b915050604083015184820360408601526114e78282611433565b915050606083015184820360608601526115018282611433565b9150506080830151611516608086018261146b565b5060a083015161152960a086018261147a565b5060c083015161153c60c086018261147a565b5060e083015161154f60e0860182611489565b508091505092915050565b5f6020820190508181035f8301526115728184611498565b905092915050565b5f82825260208201905092915050565b7f41727469636c65206e6f7420666f756e640000000000000000000000000000005f82015250565b5f6115be60118361157a565b91506115c98261158a565b602082019050919050565b5f6020820190508181035f8301526115eb816115b2565b9050919050565b7f5469746c652063616e6e6f7420626520656d70747900000000000000000000005f82015250565b5f61162660158361157a565b9150611631826115f2565b602082019050919050565b5f6020820190508181035f8301526116538161161a565b9050919050565b5f82905092915050565b7f4e487b71000000000000000000000000000000000000000000000000000000005f52604160045260245ffd5b7f4e487b71000000000000000000000000000000000000000000000000000000005f52602260045260245ffd5b5f60028204905060018216806116d557607f821691505b6020821081036116e8576116e7611691565b5b50919050565b5f819050815f5260205f209050919050565b5f6020601f8301049050919050565b5f82821b905092915050565b5f6008830261174a7fffffffffffffffffffffffffffffffffffffffffffffffffffffffffffffffff8261170f565b611754868361170f565b95508019841693508086168417925050509392505050565b5f819050919050565b5f61178f61178a6117858461111b565b61176c565b61111b565b9050919050565b5f819050919050565b6117a883611775565b6117bc6117b482611796565b84845461171b565b825550505050565b5f90565b6117d06117c4565b6117db81848461179f565b505050565b5b818110156117fe576117f35f826117c8565b6001810190506117e1565b5050565b601f82111561184357611814816116ee565b61181d84611700565b8101602085101561182c578190505b61184061183885611700565b8301826117e0565b50505b505050565b5f82821c905092915050565b5f6118635f1984600802611848565b1980831691505092915050565b5f61187b8383611854565b9150826002028217905092915050565b611895838361165a565b67ffffffffffffffff8111156118ae576118ad611664565b5b6118b882546116be565b6118c3828285611802565b5f601f8311600181146118f0575f84156118de578287013590505b6118e88582611870565b86555061194f565b601f1984166118fe866116ee565b5f5b8281101561192557848901358255600182019150602085019450602081019050611900565b86831015611942578489013561193e601f891682611854565b8355505b6001600288020188555050505b50505050505050565b611961826113e1565b67ffffffffffffffff81111561197a57611979611664565b5b61198482546116be565b61198f828285611802565b5f60209050601f8311600181146119c0575f84156119ae578287015190505b6119b88582611870565b865550611a1f565b601f1984166119ce866116ee565b5f5b828110156119f5578489015182556001820191506020850194506020810190506119d0565b86831015611a125784890151611a0e601f891682611854565b8355505b6001600288020188555050505b505050505050565b5f8154611a33816116be565b611a3d818661157a565b9450600182165f8114611a575760018114611a6d57611a9f565b60ff198316865281151560200286019350611a9f565b611a76856116ee565b5f5b83811015611a9757815481890152600182019150602081019050611a78565b808801955050505b50505092915050565b5f6020820190508181035f830152611ac08184611a27565b905092915050565b7f4e487b71000000000000000000000000000000000000000000000000000000005f52601160045260245ffd5b5f611aff8261111b565b9150611b0a8361111b565b9250828203905081811115611b2257611b21611ac8565b5b92915050565b7f4e487b71000000000000000000000000000000000000000000000000000000005f52603260045260245ffd5b7f4e487b71000000000000000000000000000000000000000000000000000000005f52603160045260245ffd5b7f41727469636c652049442063616e6e6f74206265207a65726f000000000000005f82015250565b5f611bb660198361157a565b9150611bc182611b82565b602082019050919050565b5f6020820190508181035f830152611be381611baa565b9050919050565b7f41727469636c6520616c726561647920657869737473000000000000000000005f82015250565b5f611c1e60168361157a565b9150611c2982611bea565b602082019050919050565b5f6020820190508181035f830152611c4b81611c12565b9050919050565b7f417574686f722063616e6e6f74206265207a65726f00000000000000000000005f82015250565b5f611c8660158361157a565b9150611c9182611c52565b602082019050919050565b5f6020820190508181035f830152611cb381611c7a565b9050919050565b5f611cc4826113e1565b611cce818561157a565b9350611cde8185602086016113fb565b611ce781611423565b840191505092915050565b5f6020820190508181035f830152611d0a8184611cba565b905092915050565b5f611d1c8261111b565b91507fffffffffffffffffffffffffffffffffffffffffffffffffffffffffffffffff8203611d4e57611d4d611ac8565b5b600182019050919050565b5f60ff82169050919050565b5f611d6f82611d59565b9150611d7a83611d59565b9250828201905060ff811115611d9357611d92611ac8565b5b92915050565b5f611da38261111b565b91505f8203611db557611db4611ac8565b5b60018203905091905056fea26469706673582212206968a693235585ba1565457803013d8147f85a8bfe7d2d42a8b0ee450d7e3c6364736f6c63430008140033","linkReferences":{}},"methodIdentifiers":{"count()":"06661abd","create(bytes32,string,string,string,bytes32)":"85bd07cb","deleteArticle(bytes32)":"6706e21e","exists(bytes32)":"38a699a4","get(bytes32)":"8eaa6ac0","update(bytes32,string,string,string)":"5fa90723"},"id":32}