{"abi":[{"type":"function","name":"aggregate","inputs":[{"name":"symbol","type":"string","internalType":"string"},{"name":"window","type":"string","internalType":"string"}],"outputs":[{"name":"","type":"tuple","internalType":"struct PerformanceProfile.AggregateOkResult","components":[{"name":"success","type":"bool","internalType":"bool"},{"name":"profile","type":"bytes32","internalType":"bytes32"}]}],"stateMutability":"nonpayable"},{"type":"function","name":"compareWindows","inputs":[{"name":"symbol","type":"string","internalType":"string"},{"name":"windowA","type":"string","internalType":"string"},{"name":"windowB","type":"string","internalType":"string"}],"outputs":[{"name":"","type":"tuple","internalType":"struct PerformanceProfile.CompareWindowsOkResult","components":[{"name":"success","type":"bool","internalType":"bool"},{"name":"comparison","type":"string","internalType":"string"}]}],"stateMutability":"nonpayable"},{"type":"function","name":"get","inputs":[{"name":"profile","type":"bytes32","internalType":"bytes32"}],"outputs":[{"name":"","type":"tuple","internalType":"struct PerformanceProfile.GetOkResult","components":[{"name":"success","type":"bool","internalType":"bool"},{"name":"profile","type":"bytes32","internalType":"bytes32"},{"name":"entitySymbol","type":"string","internalType":"string"},{"name":"entityKind","type":"string","internalType":"string"},{"name":"invocationCount","type":"int256","internalType":"int256"},{"name":"errorRate","type":"string","internalType":"string"}]}],"stateMutability":"nonpayable"},{"type":"function","name":"hotspots","inputs":[{"name":"kind","type":"string","internalType":"string"},{"name":"metric","type":"string","internalType":"string"},{"name":"topN","type":"int256","internalType":"int256"}],"outputs":[{"name":"","type":"tuple","internalType":"struct PerformanceProfile.HotspotsOkResult","components":[{"name":"success","type":"bool","internalType":"bool"},{"name":"hotspots","type":"string","internalType":"string"}]}],"stateMutability":"nonpayable"},{"type":"function","name":"slowChains","inputs":[{"name":"thresholdMs","type":"int256","internalType":"int256"}],"outputs":[{"name":"","type":"tuple","internalType":"struct PerformanceProfile.SlowChainsOkResult","components":[{"name":"success","type":"bool","internalType":"bool"},{"name":"chains","type":"string","internalType":"string"}]}],"stateMutability":"nonpayable"},{"type":"event","name":"AggregateCompleted","inputs":[{"name":"variant","type":"string","indexed":false,"internalType":"string"},{"name":"profile","type":"bytes32","indexed":false,"internalType":"bytes32"},{"name":"count","type":"int256","indexed":false,"internalType":"int256"}],"anonymous":false},{"type":"event","name":"CompareWindowsCompleted","inputs":[{"name":"variant","type":"string","indexed":false,"internalType":"string"},{"name":"count","type":"int256","indexed":false,"internalType":"int256"}],"anonymous":false},{"type":"event","name":"GetCompleted","inputs":[{"name":"variant","type":"string","indexed":false,"internalType":"string"},{"name":"profile","type":"bytes32","indexed":false,"internalType":"bytes32"},{"name":"invocationCount","type":"int256","indexed":false,"internalType":"int256"}],"anonymous":false},{"type":"event","name":"HotspotsCompleted","inputs":[{"name":"variant","type":"string","indexed":false,"internalType":"string"}],"anonymous":false},{"type":"event","name":"SlowChainsCompleted","inputs":[{"name":"variant","type":"string","indexed":false,"internalType":"string"}],"anonymous":false}],"bytecode":{"object":"0x608060405234801561000f575f80fd5b50611f738061001d5f395ff3fe608060405234801561000f575f80fd5b5060043610610055575f3560e01c80630f94608f146100595780634035c688146100895780637d1ae137146100b95780638eaa6ac0146100e9578063a5da2e9214610119575b5f80fd5b610073600480360381019061006e9190610f15565b610149565b604051610080919061106b565b60405180910390f35b6100a3600480360381019061009e919061108b565b6102c0565b6040516100b091906110f0565b60405180910390f35b6100d360048036038101906100ce9190611110565b610437565b6040516100e091906111cb565b60405180910390f35b61010360048036038101906100fe919061120e565b6106fa565b60405161011091906112dc565b60405180910390f35b610133600480360381019061012e91906112fc565b6109a4565b60405161014091906113da565b60405180910390f35b610151610cef565b5f8213610193576040517f08c379a000000000000000000000000000000000000000000000000000000000815260040161018a90611454565b60405180910390fd5b5f60405180602001604052805f81525090505f808490505f5b600180549050811080156101bf57508183105b15610266575f805f600184815481106101db576101da611472565b5b905f5260205f20015481526020019081526020015f2090505f84111561021e578460405160200161020c9190611523565b60405160208183030381529060405294505b84815f01604051602001610233929190611633565b6040516020818303038152906040529450838061024f9061168c565b94505050808061025e9061168c565b9150506101ac565b507ff4f2405e35c6d14b357cbccb21e634023835b6aac3cc8acebee836ed55a7e8da6040516102949061171d565b60405180910390a160405180604001604052806001151581526020018481525093505050509392505050565b6102c8610d0a565b5f821361030a576040517f08c379a000000000000000000000000000000000000000000000000000000000815260040161030190611785565b60405180910390fd5b5f60405180602001604052805f81525090505f808490505f5b6001805490508110156103df575f805f6001848154811061034757610346611472565b5b905f5260205f20015481526020019081526020015f20905082816003015411156103cb575f84111561039657846040516020016103849190611523565b60405160208183030381529060405294505b84815f016040516020016103ab929190611633565b604051602081830303815290604052945083806103c79061168c565b9450505b5080806103d79061168c565b915050610323565b507f35154dfa52613ae99d4a0cfec75d19635c5333289ec0664d12490c6cc661707260405161040d9061171d565b60405180910390a16040518060400160405280600115158152602001848152509350505050919050565b61043f610d25565b5f835111610482576040517f08c379a0000000000000000000000000000000000000000000000000000000008152600401610479906117ed565b60405180910390fd5b5f8251116104c5576040517f08c379a00000000000000000000000000000000000000000000000000000000081526004016104bc90611855565b60405180910390fd5b60045f8154809291906104d79061168c565b91905055505f83836004546040516020016104f493929190611893565b6040516020818303038152906040528051906020012090506040518061010001604052808581526020016040518060400160405280600881526020017f66756e6374696f6e0000000000000000000000000000000000000000000000008152508152602001600181526020015f81526020015f8152602001848152602001428152602001600115158152505f808381526020019081526020015f205f820151815f0190816105a29190611a52565b5060208201518160010190816105b89190611a52565b5060408201518160020155606082015181600301556080820151816004015560a08201518160050190816105ec9190611a52565b5060c0820151816006015560e0820151816007015f6101000a81548160ff021916908315150217905550905050600181908060018154018082558091505060019003905f5260205f20015f90919091909150555f846040516020016106519190611b21565b60405160208183030381529060405280519060200120905060025f8281526020019081526020015f2082908060018154018082558091505060019003905f5260205f20015f90919091909150557ff5c58c47800ec3c626a8e35b2acade99077eb7c83df5fe6f706cb5eaab108eb38260016040516106d0929190611b7f565b60405180910390a16040518060400160405280600115158152602001838152509250505092915050565b610702610d42565b5f808381526020019081526020015f206007015f9054906101000a900460ff16610761576040517f08c379a000000000000000000000000000000000000000000000000000000000815260040161075890611c03565b60405180910390fd5b5f805f8481526020019081526020015f2090505f6040518060400160405280600281526020017f302500000000000000000000000000000000000000000000000000000000000081525090505f82600201541180156107c357505f8260040154115b15610817575f8260020154606484600401546107df9190611c21565b6107e99190611c8f565b90506107f481610b96565b6040516020016108049190611d09565b6040516020818303038152906040529150505b7f439aedebcdc35c8170cb744de81edb1979218095c66392eb713f5486de2b508a84836002015460405161084c929190611d39565b60405180910390a16040518060c00160405280600115158152602001858152602001835f01805461087c90611571565b80601f01602080910402602001604051908101604052809291908181526020018280546108a890611571565b80156108f35780601f106108ca576101008083540402835291602001916108f3565b820191905f5260205f20905b8154815290600101906020018083116108d657829003601f168201915b5050505050815260200183600101805461090c90611571565b80601f016020809104026020016040519081016040528092919081815260200182805461093890611571565b80156109835780601f1061095a57610100808354040283529160200191610983565b820191905f5260205f20905b81548152906001019060200180831161096657829003601f168201915b50505050508152602001836002015481526020018281525092505050919050565b6109ac610d7a565b5f846040516020016109be9190611b21565b6040516020818303038152906040528051906020012090505f60025f8381526020019081526020015f2090505f805f876040516020016109fe9190611b21565b6040516020818303038152906040528051906020012090505f87604051602001610a289190611b21565b6040516020818303038152906040528051906020012090505f5b8580549050811015610af2575f805f888481548110610a6457610a63611472565b5b905f5260205f20015481526020019081526020015f2090505f81600501604051602001610a919190611d73565b604051602081830303815290604052805190602001209050848103610ac357816002015487610ac09190611d89565b96505b838103610add57816002015486610ada9190611d89565b95505b50508080610aea9061168c565b915050610a42565b505f89610afe86610b96565b8a610b0887610b96565b604051602001610b1b9493929190611e50565b60405160208183030381529060405290507f2f9967faf384d4eb2db54718b53e5c2ca03f9b5f430d5003db61930600c51b4c8486610b599190611d89565b604051610b669190611eae565b60405180910390a16040518060400160405280600115158152602001828152509750505050505050509392505050565b60605f8203610bdc576040518060400160405280600181526020017f30000000000000000000000000000000000000000000000000000000000000008152509050610cea565b5f8290505f5b5f8214610c0b578080610bf49061168c565b915050600a82610c049190611c8f565b9150610be2565b5f8167ffffffffffffffff811115610c2657610c25610dbe565b5b6040519080825280601f01601f191660200182016040528015610c585781602001600182028036833780820191505090505b5090505b5f8514610ce357600182610c709190611eda565b9150600a85610c7f9190611f0d565b6030610c8b9190611d89565b60f81b818381518110610ca157610ca0611472565b5b60200101907effffffffffffffffffffffffffffffffffffffffffffffffffffffffffffff191690815f1a905350600a85610cdc9190611c8f565b9450610c5c565b8093505050505b919050565b60405180604001604052805f15158152602001606081525090565b60405180604001604052805f15158152602001606081525090565b60405180604001604052805f151581526020015f80191681525090565b6040518060c001604052805f151581526020015f801916815260200160608152602001606081526020015f8152602001606081525090565b60405180604001604052805f15158152602001606081525090565b5f604051905090565b5f80fd5b5f80fd5b5f80fd5b5f80fd5b5f601f19601f8301169050919050565b7f4e487b71000000000000000000000000000000000000000000000000000000005f52604160045260245ffd5b610df482610dae565b810181811067ffffffffffffffff82111715610e1357610e12610dbe565b5b80604052505050565b5f610e25610d95565b9050610e318282610deb565b919050565b5f67ffffffffffffffff821115610e5057610e4f610dbe565b5b610e5982610dae565b9050602081019050919050565b828183375f83830152505050565b5f610e86610e8184610e36565b610e1c565b905082815260208101848484011115610ea257610ea1610daa565b5b610ead848285610e66565b509392505050565b5f82601f830112610ec957610ec8610da6565b5b8135610ed9848260208601610e74565b91505092915050565b5f819050919050565b610ef481610ee2565b8114610efe575f80fd5b50565b5f81359050610f0f81610eeb565b92915050565b5f805f60608486031215610f2c57610f2b610d9e565b5b5f84013567ffffffffffffffff811115610f4957610f48610da2565b5b610f5586828701610eb5565b935050602084013567ffffffffffffffff811115610f7657610f75610da2565b5b610f8286828701610eb5565b9250506040610f9386828701610f01565b9150509250925092565b5f8115159050919050565b610fb181610f9d565b82525050565b5f81519050919050565b5f82825260208201905092915050565b5f5b83811015610fee578082015181840152602081019050610fd3565b5f8484015250505050565b5f61100382610fb7565b61100d8185610fc1565b935061101d818560208601610fd1565b61102681610dae565b840191505092915050565b5f604083015f8301516110465f860182610fa8565b506020830151848203602086015261105e8282610ff9565b9150508091505092915050565b5f6020820190508181035f8301526110838184611031565b905092915050565b5f602082840312156110a05761109f610d9e565b5b5f6110ad84828501610f01565b91505092915050565b5f604083015f8301516110cb5f860182610fa8565b50602083015184820360208601526110e38282610ff9565b9150508091505092915050565b5f6020820190508181035f83015261110881846110b6565b905092915050565b5f806040838503121561112657611125610d9e565b5b5f83013567ffffffffffffffff81111561114357611142610da2565b5b61114f85828601610eb5565b925050602083013567ffffffffffffffff8111156111705761116f610da2565b5b61117c85828601610eb5565b9150509250929050565b5f819050919050565b61119881611186565b82525050565b604082015f8201516111b25f850182610fa8565b5060208201516111c5602085018261118f565b50505050565b5f6040820190506111de5f83018461119e565b92915050565b6111ed81611186565b81146111f7575f80fd5b50565b5f81359050611208816111e4565b92915050565b5f6020828403121561122357611222610d9e565b5b5f611230848285016111fa565b91505092915050565b61124281610ee2565b82525050565b5f60c083015f83015161125d5f860182610fa8565b506020830151611270602086018261118f565b50604083015184820360408601526112888282610ff9565b915050606083015184820360608601526112a28282610ff9565b91505060808301516112b76080860182611239565b5060a083015184820360a08601526112cf8282610ff9565b9150508091505092915050565b5f6020820190508181035f8301526112f48184611248565b905092915050565b5f805f6060848603121561131357611312610d9e565b5b5f84013567ffffffffffffffff8111156113305761132f610da2565b5b61133c86828701610eb5565b935050602084013567ffffffffffffffff81111561135d5761135c610da2565b5b61136986828701610eb5565b925050604084013567ffffffffffffffff81111561138a57611389610da2565b5b61139686828701610eb5565b9150509250925092565b5f604083015f8301516113b55f860182610fa8565b50602083015184820360208601526113cd8282610ff9565b9150508091505092915050565b5f6020820190508181035f8301526113f281846113a0565b905092915050565b5f82825260208201905092915050565b7f746f704e206d75737420626520706f73697469766500000000000000000000005f82015250565b5f61143e6015836113fa565b91506114498261140a565b602082019050919050565b5f6020820190508181035f83015261146b81611432565b9050919050565b7f4e487b71000000000000000000000000000000000000000000000000000000005f52603260045260245ffd5b5f81905092915050565b5f6114b382610fb7565b6114bd818561149f565b93506114cd818560208601610fd1565b80840191505092915050565b7f2c000000000000000000000000000000000000000000000000000000000000005f82015250565b5f61150d60018361149f565b9150611518826114d9565b600182019050919050565b5f61152e82846114a9565b915061153982611501565b915081905092915050565b7f4e487b71000000000000000000000000000000000000000000000000000000005f52602260045260245ffd5b5f600282049050600182168061158857607f821691505b60208210810361159b5761159a611544565b5b50919050565b5f819050815f5260205f209050919050565b5f81546115bf81611571565b6115c9818661149f565b9450600182165f81146115e357600181146115f85761162a565b60ff198316865281151582028601935061162a565b611601856115a1565b5f5b8381101561162257815481890152600182019150602081019050611603565b838801955050505b50505092915050565b5f61163e82856114a9565b915061164a82846115b3565b91508190509392505050565b7f4e487b71000000000000000000000000000000000000000000000000000000005f52601160045260245ffd5b5f819050919050565b5f61169682611683565b91507fffffffffffffffffffffffffffffffffffffffffffffffffffffffffffffffff82036116c8576116c7611656565b5b600182019050919050565b7f6f6b0000000000000000000000000000000000000000000000000000000000005f82015250565b5f6117076002836113fa565b9150611712826116d3565b602082019050919050565b5f6020820190508181035f830152611734816116fb565b9050919050565b7f5468726573686f6c64206d75737420626520706f7369746976650000000000005f82015250565b5f61176f601a836113fa565b915061177a8261173b565b602082019050919050565b5f6020820190508181035f83015261179c81611763565b9050919050565b7f53796d626f6c206d757374206e6f7420626520656d70747900000000000000005f82015250565b5f6117d76018836113fa565b91506117e2826117a3565b602082019050919050565b5f6020820190508181035f830152611804816117cb565b9050919050565b7f57696e646f77206d757374206e6f7420626520656d70747900000000000000005f82015250565b5f61183f6018836113fa565b915061184a8261180b565b602082019050919050565b5f6020820190508181035f83015261186c81611833565b9050919050565b5f819050919050565b61188d61188882611683565b611873565b82525050565b5f61189e82866114a9565b91506118aa82856114a9565b91506118b6828461187c565b602082019150819050949350505050565b5f6020601f8301049050919050565b5f82821b905092915050565b5f600883026119117fffffffffffffffffffffffffffffffffffffffffffffffffffffffffffffffff826118d6565b61191b86836118d6565b95508019841693508086168417925050509392505050565b5f819050919050565b5f61195661195161194c84611683565b611933565b611683565b9050919050565b5f819050919050565b61196f8361193c565b61198361197b8261195d565b8484546118e2565b825550505050565b5f90565b61199761198b565b6119a2818484611966565b505050565b5b818110156119c5576119ba5f8261198f565b6001810190506119a8565b5050565b601f821115611a0a576119db816115a1565b6119e4846118c7565b810160208510156119f3578190505b611a076119ff856118c7565b8301826119a7565b50505b505050565b5f82821c905092915050565b5f611a2a5f1984600802611a0f565b1980831691505092915050565b5f611a428383611a1b565b9150826002028217905092915050565b611a5b82610fb7565b67ffffffffffffffff811115611a7457611a73610dbe565b5b611a7e8254611571565b611a898282856119c9565b5f60209050601f831160018114611aba575f8415611aa8578287015190505b611ab28582611a37565b865550611b19565b601f198416611ac8866115a1565b5f5b82811015611aef57848901518255600182019150602085019450602081019050611aca565b86831015611b0c5784890151611b08601f891682611a1b565b8355505b6001600288020188555050505b505050505050565b5f611b2c82846114a9565b915081905092915050565b611b4081611186565b82525050565b5f819050919050565b5f611b69611b64611b5f84611b46565b611933565b610ee2565b9050919050565b611b7981611b4f565b82525050565b5f6060820190508181035f830152611b96816116fb565b9050611ba56020830185611b37565b611bb26040830184611b70565b9392505050565b7f50726f66696c65206e6f7420666f756e640000000000000000000000000000005f82015250565b5f611bed6011836113fa565b9150611bf882611bb9565b602082019050919050565b5f6020820190508181035f830152611c1a81611be1565b9050919050565b5f611c2b82611683565b9150611c3683611683565b9250828202611c4481611683565b91508282048414831517611c5b57611c5a611656565b5b5092915050565b7f4e487b71000000000000000000000000000000000000000000000000000000005f52601260045260245ffd5b5f611c9982611683565b9150611ca483611683565b925082611cb457611cb3611c62565b5b828204905092915050565b7f25000000000000000000000000000000000000000000000000000000000000005f82015250565b5f611cf360018361149f565b9150611cfe82611cbf565b600182019050919050565b5f611d1482846114a9565b9150611d1f82611ce7565b915081905092915050565b611d3381610ee2565b82525050565b5f6060820190508181035f830152611d50816116fb565b9050611d5f6020830185611b37565b611d6c6040830184611d2a565b9392505050565b5f611d7e82846115b3565b915081905092915050565b5f611d9382611683565b9150611d9e83611683565b9250828201905080821115611db657611db5611656565b5b92915050565b7f3a000000000000000000000000000000000000000000000000000000000000005f82015250565b5f611df060018361149f565b9150611dfb82611dbc565b600182019050919050565b7f20767320000000000000000000000000000000000000000000000000000000005f82015250565b5f611e3a60048361149f565b9150611e4582611e06565b600482019050919050565b5f611e5b82876114a9565b9150611e6682611de4565b9150611e7282866114a9565b9150611e7d82611e2e565b9150611e8982856114a9565b9150611e9482611de4565b9150611ea082846114a9565b915081905095945050505050565b5f6040820190508181035f830152611ec5816116fb565b9050611ed46020830184611d2a565b92915050565b5f611ee482611683565b9150611eef83611683565b9250828203905081811115611f0757611f06611656565b5b92915050565b5f611f1782611683565b9150611f2283611683565b925082611f3257611f31611c62565b5b82820690509291505056fea26469706673582212204e225dac3bcb6ae9d57cdf28bbff5e4ec9e6758edd4da23a112cf5b2e105ab6664736f6c63430008140033","linkReferences":{}},"methodIdentifiers":{"aggregate(string,string)":"7d1ae137","compareWindows(string,string,string)":"a5da2e92","get(bytes32)":"8eaa6ac0","hotspots(string,string,int256)":"0f94608f","slowChains(int256)":"4035c688"},"id":194}