{"abi":[{"type":"function","name":"create","inputs":[{"name":"name","type":"string","internalType":"string"},{"name":"hash","type":"bytes32","internalType":"bytes32"}],"outputs":[{"name":"refId","type":"bytes32","internalType":"bytes32"}],"stateMutability":"nonpayable"},{"type":"function","name":"deleteRef","inputs":[{"name":"name","type":"string","internalType":"string"}],"outputs":[],"stateMutability":"nonpayable"},{"type":"function","name":"log","inputs":[{"name":"name","type":"string","internalType":"string"}],"outputs":[{"name":"entries","type":"tuple[]","internalType":"struct Ref.LogEntry[]","components":[{"name":"oldHash","type":"bytes32","internalType":"bytes32"},{"name":"newHash","type":"bytes32","internalType":"bytes32"},{"name":"timestamp","type":"uint256","internalType":"uint256"},{"name":"agent","type":"bytes32","internalType":"bytes32"}]}],"stateMutability":"view"},{"type":"function","name":"resolve","inputs":[{"name":"name","type":"string","internalType":"string"}],"outputs":[{"name":"hash","type":"bytes32","internalType":"bytes32"}],"stateMutability":"view"},{"type":"function","name":"update","inputs":[{"name":"name","type":"string","internalType":"string"},{"name":"newHash","type":"bytes32","internalType":"bytes32"},{"name":"expectedOldHash","type":"bytes32","internalType":"bytes32"}],"outputs":[],"stateMutability":"nonpayable"},{"type":"event","name":"RefCreated","inputs":[{"name":"nameHash","type":"bytes32","indexed":true,"internalType":"bytes32"},{"name":"target","type":"bytes32","indexed":true,"internalType":"bytes32"}],"anonymous":false},{"type":"event","name":"RefDeleted","inputs":[{"name":"nameHash","type":"bytes32","indexed":true,"internalType":"bytes32"}],"anonymous":false},{"type":"event","name":"RefUpdated","inputs":[{"name":"nameHash","type":"bytes32","indexed":true,"internalType":"bytes32"},{"name":"oldTarget","type":"bytes32","indexed":true,"internalType":"bytes32"},{"name":"newTarget","type":"bytes32","indexed":true,"internalType":"bytes32"}],"anonymous":false}],"bytecode":{"object":"0x608060405234801561000f575f80fd5b50610c9c8061001d5f395ff3fe608060405234801561000f575f80fd5b5060043610610055575f3560e01c80633ce6b2e0146100595780633dee0c501461007557806341304fac146100a5578063461a4478146100d55780635ae5df8f14610105575b5f80fd5b610073600480360381019061006e9190610821565b610121565b005b61008f600480360381019061008a9190610892565b6102d4565b60405161009c91906108fe565b60405180910390f35b6100bf60048036038101906100ba9190610917565b610481565b6040516100cc9190610a84565b60405180910390f35b6100ef60048036038101906100ea9190610917565b610543565b6040516100fc91906108fe565b60405180910390f35b61011f600480360381019061011a9190610917565b6105eb565b005b5f8484604051602001610135929190610ae0565b6040516020818303038152906040528051906020012090505f805f8381526020019081526020015f209050806001015f9054906101000a900460ff166101b0576040517f08c379a00000000000000000000000000000000000000000000000000000000081526004016101a790610b52565b60405180910390fd5b82815f0154146101f5576040517f08c379a00000000000000000000000000000000000000000000000000000000081526004016101ec90610be0565b60405180910390fd5b5f815f0154905084825f018190555060015f8481526020019081526020015f2060405180608001604052808381526020018781526020014281526020013373ffffffffffffffffffffffffffffffffffffffff165f1b815250908060018154018082558091505060019003905f5260205f2090600402015f909190919091505f820151815f015560208201518160010155604082015181600201556060820151816003015550508481847f480b185fbcb15bf5a9e8ea5ebd835f5f3f077dfb551ccee0036cf37f8ef197de60405160405180910390a450505050505050565b5f83836040516020016102e8929190610ae0565b6040516020818303038152906040528051906020012090505f808281526020019081526020015f206001015f9054906101000a900460ff1615610360576040517f08c379a000000000000000000000000000000000000000000000000000000000815260040161035790610c48565b60405180910390fd5b6040518060400160405280838152602001600115158152505f808381526020019081526020015f205f820151815f01556020820151816001015f6101000a81548160ff02191690831515021790555090505060015f8281526020019081526020015f2060405180608001604052805f801b81526020018481526020014281526020013373ffffffffffffffffffffffffffffffffffffffff165f1b815250908060018154018082558091505060019003905f5260205f2090600402015f909190919091505f820151815f0155602082015181600101556040820151816002015560608201518160030155505081817f85b9b1ff82915ccd2643d2d139da376317128a636f9b4db4eeed657558021a8560405160405180910390a39392505050565b60605f8383604051602001610497929190610ae0565b60405160208183030381529060405280519060200120905060015f8281526020019081526020015f20805480602002602001604051908101604052809291908181526020015f905b82821015610536578382905f5260205f2090600402016040518060800160405290815f82015481526020016001820154815260200160028201548152602001600382015481525050815260200190600101906104df565b5050505091505092915050565b5f808383604051602001610558929190610ae0565b6040516020818303038152906040528051906020012090505f808281526020019081526020015f206001015f9054906101000a900460ff166105cf576040517f08c379a00000000000000000000000000000000000000000000000000000000081526004016105c690610b52565b60405180910390fd5b5f808281526020019081526020015f205f015491505092915050565b5f82826040516020016105ff929190610ae0565b6040516020818303038152906040528051906020012090505f808281526020019081526020015f206001015f9054906101000a900460ff16610676576040517f08c379a000000000000000000000000000000000000000000000000000000000815260040161066d90610b52565b60405180910390fd5b5f805f8381526020019081526020015f205f015490505f808381526020019081526020015f205f8082015f9055600182015f6101000a81549060ff0219169055505060015f8381526020019081526020015f2060405180608001604052808381526020015f801b81526020014281526020013373ffffffffffffffffffffffffffffffffffffffff165f1b815250908060018154018082558091505060019003905f5260205f2090600402015f909190919091505f820151815f01556020820151816001015560408201518160020155606082015181600301555050817f699f2dabd4bd51ad39d129feed1ddeecf3c6fc0979e59f03f7d1e030e4c7c3d460405160405180910390a250505050565b5f80fd5b5f80fd5b5f80fd5b5f80fd5b5f80fd5b5f8083601f8401126107ae576107ad61078d565b5b8235905067ffffffffffffffff8111156107cb576107ca610791565b5b6020830191508360018202830111156107e7576107e6610795565b5b9250929050565b5f819050919050565b610800816107ee565b811461080a575f80fd5b50565b5f8135905061081b816107f7565b92915050565b5f805f806060858703121561083957610838610785565b5b5f85013567ffffffffffffffff81111561085657610855610789565b5b61086287828801610799565b945094505060206108758782880161080d565b92505060406108868782880161080d565b91505092959194509250565b5f805f604084860312156108a9576108a8610785565b5b5f84013567ffffffffffffffff8111156108c6576108c5610789565b5b6108d286828701610799565b935093505060206108e58682870161080d565b9150509250925092565b6108f8816107ee565b82525050565b5f6020820190506109115f8301846108ef565b92915050565b5f806020838503121561092d5761092c610785565b5b5f83013567ffffffffffffffff81111561094a57610949610789565b5b61095685828601610799565b92509250509250929050565b5f81519050919050565b5f82825260208201905092915050565b5f819050602082019050919050565b610994816107ee565b82525050565b5f819050919050565b6109ac8161099a565b82525050565b608082015f8201516109c65f85018261098b565b5060208201516109d9602085018261098b565b5060408201516109ec60408501826109a3565b5060608201516109ff606085018261098b565b50505050565b5f610a1083836109b2565b60808301905092915050565b5f602082019050919050565b5f610a3282610962565b610a3c818561096c565b9350610a478361097c565b805f5b83811015610a77578151610a5e8882610a05565b9750610a6983610a1c565b925050600181019050610a4a565b5085935050505092915050565b5f6020820190508181035f830152610a9c8184610a28565b905092915050565b5f81905092915050565b828183375f83830152505050565b5f610ac78385610aa4565b9350610ad4838584610aae565b82840190509392505050565b5f610aec828486610abc565b91508190509392505050565b5f82825260208201905092915050565b7f526566206e6f7420666f756e64000000000000000000000000000000000000005f82015250565b5f610b3c600d83610af8565b9150610b4782610b08565b602082019050919050565b5f6020820190508181035f830152610b6981610b30565b9050919050565b7f436f6e666c6963743a2063757272656e74206861736820646f6573206e6f74205f8201527f6d61746368206578706563746564000000000000000000000000000000000000602082015250565b5f610bca602e83610af8565b9150610bd582610b70565b604082019050919050565b5f6020820190508181035f830152610bf781610bbe565b9050919050565b7f52656620616c72656164792065786973747300000000000000000000000000005f82015250565b5f610c32601283610af8565b9150610c3d82610bfe565b602082019050919050565b5f6020820190508181035f830152610c5f81610c26565b905091905056fea264697066735822122079e0f6e60b69993c8d0ea4c82222c936a2fdd48d9ceea675f46bd8b011d2d6bf64736f6c63430008140033","linkReferences":{}},"methodIdentifiers":{"create(string,bytes32)":"3dee0c50","deleteRef(string)":"5ae5df8f","log(string)":"41304fac","resolve(string)":"461a4478","update(string,bytes32,bytes32)":"3ce6b2e0"},"id":213}