{"abi":[{"type":"function","name":"build","inputs":[{"name":"concept","type":"string","internalType":"string"},{"name":"spec","type":"string","internalType":"string"},{"name":"implementation","type":"string","internalType":"string"},{"name":"deps","type":"string[]","internalType":"string[]"}],"outputs":[{"name":"","type":"tuple","internalType":"struct Artifact.BuildOkResult","components":[{"name":"success","type":"bool","internalType":"bool"},{"name":"artifact","type":"bytes32","internalType":"bytes32"},{"name":"hash","type":"string","internalType":"string"},{"name":"sizeBytes","type":"int256","internalType":"int256"}]}],"stateMutability":"nonpayable"},{"type":"function","name":"gc","inputs":[{"name":"olderThan","type":"uint256","internalType":"uint256"},{"name":"keepVersions","type":"int256","internalType":"int256"}],"outputs":[{"name":"","type":"tuple","internalType":"struct Artifact.GcOkResult","components":[{"name":"success","type":"bool","internalType":"bool"},{"name":"removed","type":"int256","internalType":"int256"},{"name":"freedBytes","type":"int256","internalType":"int256"}]}],"stateMutability":"nonpayable"},{"type":"function","name":"resolve","inputs":[{"name":"hash","type":"string","internalType":"string"}],"outputs":[{"name":"","type":"tuple","internalType":"struct Artifact.ResolveOkResult","components":[{"name":"success","type":"bool","internalType":"bool"},{"name":"artifact","type":"bytes32","internalType":"bytes32"},{"name":"location","type":"string","internalType":"string"}]}],"stateMutability":"nonpayable"},{"type":"function","name":"store","inputs":[{"name":"hash","type":"string","internalType":"string"},{"name":"location","type":"string","internalType":"string"},{"name":"concept","type":"string","internalType":"string"},{"name":"language","type":"string","internalType":"string"},{"name":"platform","type":"string","internalType":"string"},{"name":"metadata","type":"bytes","internalType":"bytes"}],"outputs":[{"name":"","type":"tuple","internalType":"struct Artifact.StoreOkResult","components":[{"name":"success","type":"bool","internalType":"bool"},{"name":"artifact","type":"bytes32","internalType":"bytes32"}]}],"stateMutability":"nonpayable"},{"type":"event","name":"BuildCompleted","inputs":[{"name":"variant","type":"string","indexed":false,"internalType":"string"},{"name":"artifact","type":"bytes32","indexed":false,"internalType":"bytes32"},{"name":"sizeBytes","type":"int256","indexed":false,"internalType":"int256"},{"name":"errors","type":"string[]","indexed":false,"internalType":"string[]"}],"anonymous":false},{"type":"event","name":"GcCompleted","inputs":[{"name":"variant","type":"string","indexed":false,"internalType":"string"},{"name":"removed","type":"int256","indexed":false,"internalType":"int256"},{"name":"freedBytes","type":"int256","indexed":false,"internalType":"int256"}],"anonymous":false},{"type":"event","name":"ResolveCompleted","inputs":[{"name":"variant","type":"string","indexed":false,"internalType":"string"},{"name":"artifact","type":"bytes32","indexed":false,"internalType":"bytes32"}],"anonymous":false},{"type":"event","name":"StoreCompleted","inputs":[{"name":"variant","type":"string","indexed":false,"internalType":"string"},{"name":"artifact","type":"bytes32","indexed":false,"internalType":"bytes32"}],"anonymous":false}],"bytecode":{"object":"0x608060405234801561000f575f80fd5b50611ec58061001d5f395ff3fe608060405234801561000f575f80fd5b506004361061004a575f3560e01c8063461a44781461004e578063710f607a1461007e5780638c2b7d7e146100ae578063ab16373b146100de575b5f80fd5b61006860048036038101906100639190610d80565b61010e565b6040516100759190610ec0565b60405180910390f35b61009860048036038101906100939190610fc2565b610298565b6040516100a5919061110e565b60405180910390f35b6100c860048036038101906100c391906111cc565b6105a9565b6040516100d5919061132a565b60405180910390f35b6100f860048036038101906100f391906113a0565b61080e565b604051610105919061141e565b60405180910390f35b610116610ba8565b5f8260405160200161012891906114bb565b60405160208183030381529060405280519060200120905060025f8281526020019081526020015f205f9054906101000a900460ff1661019d576040517f08c379a00000000000000000000000000000000000000000000000000000000081526004016101949061155c565b60405180910390fd5b5f805f8381526020019081526020015f2090507feae6670cb45d870a20f6d709ca7212b23081cb581d2110b53b54e4d2d74225d4826040516101df91906115d3565b60405180910390a160405180606001604052806001151581526020018381526020018260010180546102109061162c565b80601f016020809104026020016040519081016040528092919081815260200182805461023c9061162c565b80156102875780601f1061025e57610100808354040283529160200191610287565b820191905f5260205f20905b81548152906001019060200180831161026a57829003601f168201915b505050505081525092505050919050565b6102a0610bcc565b5f8585856040516020016102b69392919061165c565b6040516020818303038152906040528051906020012090505f6102d8826109ad565b90505f816040516020016102ec91906114bb565b6040516020818303038152906040528051906020012090505f865188518a5161031591906116b9565b61031f91906116b9565b905060025f8381526020019081526020015f205f9054906101000a900460ff166104ea576040518061012001604052808481526020018a85604051602001610368929190611780565b60405160208183030381529060405281526020018a815260200160405180602001604052805f815250815260200160405180602001604052805f815250815260200160405180602001604052805f8152508152602001828152602001428152602001600115158152505f808481526020019081526020015f205f820151815f0190816103f49190611956565b50602082015181600101908161040a9190611956565b5060408201518160020190816104209190611956565b5060608201518160030190816104369190611956565b50608082015181600401908161044c9190611956565b5060a08201518160050190816104629190611a87565b5060c0820151816006015560e08201518160070155610100820151816008015f6101000a81548160ff021916908315150217905550905050600160025f8481526020019081526020015f205f6101000a81548160ff021916908315150217905550600182908060018154018082558091505060019003905f5260205f20015f90919091909150555b5f8067ffffffffffffffff81111561050557610504610c5c565b5b60405190808252806020026020018201604052801561053857816020015b60608152602001906001900390816105235790505b5090507f0ddab9ea9eed2215547cde21d88ed14bd11271e14b41ca1fa771e47d2a09d48183838360405161056e93929190611c20565b60405180910390a160405180608001604052806001151581526020018481526020018581526020018381525095505050505050949350505050565b6105b1610bf6565b5f876040516020016105c391906114bb565b60405160208183030381529060405280519060200120905060025f8281526020019081526020015f205f9054906101000a900460ff1615610655577fbaeab4da9a357f833fab07dae9fe9de990d7f73f50f9091977617e07e6b330c88160405161062d9190611cb9565b60405180910390a1604051806040016040528060011515815260200182815250915050610804565b60405180610120016040528089815260200188815260200187815260200186815260200185815260200184815260200184518152602001428152602001600115158152505f808381526020019081526020015f205f820151815f0190816106bc9190611956565b5060208201518160010190816106d29190611956565b5060408201518160020190816106e89190611956565b5060608201518160030190816106fe9190611956565b5060808201518160040190816107149190611956565b5060a082015181600501908161072a9190611a87565b5060c0820151816006015560e08201518160070155610100820151816008015f6101000a81548160ff021916908315150217905550905050600160025f8381526020019081526020015f205f6101000a81548160ff021916908315150217905550600181908060018154018082558091505060019003905f5260205f20015f90919091909150557fbaeab4da9a357f833fab07dae9fe9de990d7f73f50f9091977617e07e6b330c8816040516107e091906115d3565b60405180910390a16040518060400160405280600115158152602001828152509150505b9695505050505050565b610816610c13565b5f805f808513610826575f610828565b845b90505f60018054905090505f5b600180549050811015610949575f6001828154811061085757610856611ce5565b5b905f5260205f200154905060025f8281526020019081526020015f205f9054906101000a900460ff1661088a5750610936565b5f805f8381526020019081526020015f2090505f851180156108b757508487856108b49190611d12565b11155b156108c3575050610936565b8981600701541015610933578060060154866108df9190611d45565b95505f816008015f6101000a81548160ff0219169083151502179055505f60025f8481526020019081526020015f205f6101000a81548160ff021916908315150217905550868061092f90611d86565b9750505b50505b808061094190611dcd565b915050610835565b507f4815ecb6a71021237fee73ce42db1ecc515ed9f077caa340bb56120827589bde848460405161097b929190611e14565b60405180910390a160405180606001604052806001151581526020018581526020018481525094505050505092915050565b60605f6040518060400160405280601081526020017f303132333435363738396162636465660000000000000000000000000000000081525090505f604067ffffffffffffffff811115610a0457610a03610c5c565b5b6040519080825280601f01601f191660200182016040528015610a365781602001600182028036833780820191505090505b5090505f5b6020811015610b9d57826004868360208110610a5a57610a59611ce5565b5b1a60f81b7effffffffffffffffffffffffffffffffffffffffffffffffffffffffffffff1916901c60f81c60ff1681518110610a9957610a98611ce5565b5b602001015160f81c60f81b82600283610ab29190611e4e565b81518110610ac357610ac2611ce5565b5b60200101907effffffffffffffffffffffffffffffffffffffffffffffffffffffffffffff191690815f1a90535082600f60f81b868360208110610b0a57610b09611ce5565b5b1a60f81b1660f81c60ff1681518110610b2657610b25611ce5565b5b602001015160f81c60f81b82600283610b3f9190611e4e565b6001610b4b91906116b9565b81518110610b5c57610b5b611ce5565b5b60200101907effffffffffffffffffffffffffffffffffffffffffffffffffffffffffffff191690815f1a9053508080610b9590611dcd565b915050610a3b565b508092505050919050565b60405180606001604052805f151581526020015f8019168152602001606081525090565b60405180608001604052805f151581526020015f8019168152602001606081526020015f81525090565b60405180604001604052805f151581526020015f80191681525090565b60405180606001604052805f151581526020015f81526020015f81525090565b5f604051905090565b5f80fd5b5f80fd5b5f80fd5b5f80fd5b5f601f19601f8301169050919050565b7f4e487b71000000000000000000000000000000000000000000000000000000005f52604160045260245ffd5b610c9282610c4c565b810181811067ffffffffffffffff82111715610cb157610cb0610c5c565b5b80604052505050565b5f610cc3610c33565b9050610ccf8282610c89565b919050565b5f67ffffffffffffffff821115610cee57610ced610c5c565b5b610cf782610c4c565b9050602081019050919050565b828183375f83830152505050565b5f610d24610d1f84610cd4565b610cba565b905082815260208101848484011115610d4057610d3f610c48565b5b610d4b848285610d04565b509392505050565b5f82601f830112610d6757610d66610c44565b5b8135610d77848260208601610d12565b91505092915050565b5f60208284031215610d9557610d94610c3c565b5b5f82013567ffffffffffffffff811115610db257610db1610c40565b5b610dbe84828501610d53565b91505092915050565b5f8115159050919050565b610ddb81610dc7565b82525050565b5f819050919050565b610df381610de1565b82525050565b5f81519050919050565b5f82825260208201905092915050565b5f5b83811015610e30578082015181840152602081019050610e15565b5f8484015250505050565b5f610e4582610df9565b610e4f8185610e03565b9350610e5f818560208601610e13565b610e6881610c4c565b840191505092915050565b5f606083015f830151610e885f860182610dd2565b506020830151610e9b6020860182610dea565b5060408301518482036040860152610eb38282610e3b565b9150508091505092915050565b5f6020820190508181035f830152610ed88184610e73565b905092915050565b5f67ffffffffffffffff821115610efa57610ef9610c5c565b5b602082029050602081019050919050565b5f80fd5b5f610f21610f1c84610ee0565b610cba565b90508083825260208201905060208402830185811115610f4457610f43610f0b565b5b835b81811015610f8b57803567ffffffffffffffff811115610f6957610f68610c44565b5b808601610f768982610d53565b85526020850194505050602081019050610f46565b5050509392505050565b5f82601f830112610fa957610fa8610c44565b5b8135610fb9848260208601610f0f565b91505092915050565b5f805f8060808587031215610fda57610fd9610c3c565b5b5f85013567ffffffffffffffff811115610ff757610ff6610c40565b5b61100387828801610d53565b945050602085013567ffffffffffffffff81111561102457611023610c40565b5b61103087828801610d53565b935050604085013567ffffffffffffffff81111561105157611050610c40565b5b61105d87828801610d53565b925050606085013567ffffffffffffffff81111561107e5761107d610c40565b5b61108a87828801610f95565b91505092959194509250565b5f819050919050565b6110a881611096565b82525050565b5f608083015f8301516110c35f860182610dd2565b5060208301516110d66020860182610dea565b50604083015184820360408601526110ee8282610e3b565b9150506060830151611103606086018261109f565b508091505092915050565b5f6020820190508181035f83015261112681846110ae565b905092915050565b5f67ffffffffffffffff82111561114857611147610c5c565b5b61115182610c4c565b9050602081019050919050565b5f61117061116b8461112e565b610cba565b90508281526020810184848401111561118c5761118b610c48565b5b611197848285610d04565b509392505050565b5f82601f8301126111b3576111b2610c44565b5b81356111c384826020860161115e565b91505092915050565b5f805f805f8060c087890312156111e6576111e5610c3c565b5b5f87013567ffffffffffffffff81111561120357611202610c40565b5b61120f89828a01610d53565b965050602087013567ffffffffffffffff8111156112305761122f610c40565b5b61123c89828a01610d53565b955050604087013567ffffffffffffffff81111561125d5761125c610c40565b5b61126989828a01610d53565b945050606087013567ffffffffffffffff81111561128a57611289610c40565b5b61129689828a01610d53565b935050608087013567ffffffffffffffff8111156112b7576112b6610c40565b5b6112c389828a01610d53565b92505060a087013567ffffffffffffffff8111156112e4576112e3610c40565b5b6112f089828a0161119f565b9150509295509295509295565b604082015f8201516113115f850182610dd2565b5060208201516113246020850182610dea565b50505050565b5f60408201905061133d5f8301846112fd565b92915050565b5f819050919050565b61135581611343565b811461135f575f80fd5b50565b5f813590506113708161134c565b92915050565b61137f81611096565b8114611389575f80fd5b50565b5f8135905061139a81611376565b92915050565b5f80604083850312156113b6576113b5610c3c565b5b5f6113c385828601611362565b92505060206113d48582860161138c565b9150509250929050565b606082015f8201516113f25f850182610dd2565b506020820151611405602085018261109f565b506040820151611418604085018261109f565b50505050565b5f6060820190506114315f8301846113de565b92915050565b5f81905092915050565b7f61727469666163743a00000000000000000000000000000000000000000000005f82015250565b5f611475600983611437565b915061148082611441565b600982019050919050565b5f61149582610df9565b61149f8185611437565b93506114af818560208601610e13565b80840191505092915050565b5f6114c582611469565b91506114d1828461148b565b915081905092915050565b5f82825260208201905092915050565b7f4172746966616374206e6f7420666f756e6420666f7220676976656e206861735f8201527f6800000000000000000000000000000000000000000000000000000000000000602082015250565b5f6115466021836114dc565b9150611551826114ec565b604082019050919050565b5f6020820190508181035f8301526115738161153a565b9050919050565b7f6f6b0000000000000000000000000000000000000000000000000000000000005f82015250565b5f6115ae6002836114dc565b91506115b98261157a565b602082019050919050565b6115cd81610de1565b82525050565b5f6040820190508181035f8301526115ea816115a2565b90506115f960208301846115c4565b92915050565b7f4e487b71000000000000000000000000000000000000000000000000000000005f52602260045260245ffd5b5f600282049050600182168061164357607f821691505b602082108103611656576116556115ff565b5b50919050565b5f611667828661148b565b9150611673828561148b565b915061167f828461148b565b9150819050949350505050565b7f4e487b71000000000000000000000000000000000000000000000000000000005f52601160045260245ffd5b5f6116c382611343565b91506116ce83611343565b92508282019050808211156116e6576116e561168c565b5b92915050565b7f6172746966616374732f000000000000000000000000000000000000000000005f82015250565b5f611720600a83611437565b915061172b826116ec565b600a82019050919050565b7f2f000000000000000000000000000000000000000000000000000000000000005f82015250565b5f61176a600183611437565b915061177582611736565b600182019050919050565b5f61178a82611714565b9150611796828561148b565b91506117a18261175e565b91506117ad828461148b565b91508190509392505050565b5f819050815f5260205f209050919050565b5f6020601f8301049050919050565b5f82821b905092915050565b5f600883026118157fffffffffffffffffffffffffffffffffffffffffffffffffffffffffffffffff826117da565b61181f86836117da565b95508019841693508086168417925050509392505050565b5f819050919050565b5f61185a61185561185084611343565b611837565b611343565b9050919050565b5f819050919050565b61187383611840565b61188761187f82611861565b8484546117e6565b825550505050565b5f90565b61189b61188f565b6118a681848461186a565b505050565b5b818110156118c9576118be5f82611893565b6001810190506118ac565b5050565b601f82111561190e576118df816117b9565b6118e8846117cb565b810160208510156118f7578190505b61190b611903856117cb565b8301826118ab565b50505b505050565b5f82821c905092915050565b5f61192e5f1984600802611913565b1980831691505092915050565b5f611946838361191f565b9150826002028217905092915050565b61195f82610df9565b67ffffffffffffffff81111561197857611977610c5c565b5b611982825461162c565b61198d8282856118cd565b5f60209050601f8311600181146119be575f84156119ac578287015190505b6119b6858261193b565b865550611a1d565b601f1984166119cc866117b9565b5f5b828110156119f3578489015182556001820191506020850194506020810190506119ce565b86831015611a105784890151611a0c601f89168261191f565b8355505b6001600288020188555050505b505050505050565b5f81519050919050565b5f819050815f5260205f209050919050565b601f821115611a8257611a5381611a2f565b611a5c846117cb565b81016020851015611a6b578190505b611a7f611a77856117cb565b8301826118ab565b50505b505050565b611a9082611a25565b67ffffffffffffffff811115611aa957611aa8610c5c565b5b611ab3825461162c565b611abe828285611a41565b5f60209050601f831160018114611aef575f8415611add578287015190505b611ae7858261193b565b865550611b4e565b601f198416611afd86611a2f565b5f5b82811015611b2457848901518255600182019150602085019450602081019050611aff565b86831015611b415784890151611b3d601f89168261191f565b8355505b6001600288020188555050505b505050505050565b611b5f81611096565b82525050565b5f81519050919050565b5f82825260208201905092915050565b5f819050602082019050919050565b5f611b998383610e3b565b905092915050565b5f602082019050919050565b5f611bb782611b65565b611bc18185611b6f565b935083602082028501611bd385611b7f565b805f5b85811015611c0e5784840389528151611bef8582611b8e565b9450611bfa83611ba1565b925060208a01995050600181019050611bd6565b50829750879550505050505092915050565b5f6080820190508181035f830152611c37816115a2565b9050611c4660208301866115c4565b611c536040830185611b56565b8181036060830152611c658184611bad565b9050949350505050565b7f616c7265616479457869737473000000000000000000000000000000000000005f82015250565b5f611ca3600d836114dc565b9150611cae82611c6f565b602082019050919050565b5f6040820190508181035f830152611cd081611c97565b9050611cdf60208301846115c4565b92915050565b7f4e487b71000000000000000000000000000000000000000000000000000000005f52603260045260245ffd5b5f611d1c82611343565b9150611d2783611343565b9250828203905081811115611d3f57611d3e61168c565b5b92915050565b5f611d4f82611096565b9150611d5a83611096565b92508282019050828112155f8312168382125f841215161715611d8057611d7f61168c565b5b92915050565b5f611d9082611096565b91507f7fffffffffffffffffffffffffffffffffffffffffffffffffffffffffffffff8203611dc257611dc161168c565b5b600182019050919050565b5f611dd782611343565b91507fffffffffffffffffffffffffffffffffffffffffffffffffffffffffffffffff8203611e0957611e0861168c565b5b600182019050919050565b5f6060820190508181035f830152611e2b816115a2565b9050611e3a6020830185611b56565b611e476040830184611b56565b9392505050565b5f611e5882611343565b9150611e6383611343565b9250828202611e7181611343565b91508282048414831517611e8857611e8761168c565b5b509291505056fea2646970667358221220a00da62c17b43e7dc97e9225cca93210175840866b28df80a81f15b4a78e2a4464736f6c63430008140033","linkReferences":{}},"methodIdentifiers":{"build(string,string,string,string[])":"710f607a","gc(uint256,int256)":"ab16373b","resolve(string)":"461a4478","store(string,string,string,string,string,bytes)":"8c2b7d7e"},"id":33}