{"abi":[{"type":"function","name":"defineTemplate","inputs":[{"name":"templateId","type":"bytes32","internalType":"bytes32"},{"name":"blockTree","type":"string","internalType":"string"},{"name":"variables","type":"string","internalType":"string"}],"outputs":[],"stateMutability":"nonpayable"},{"type":"function","name":"getTemplate","inputs":[{"name":"templateId","type":"bytes32","internalType":"bytes32"}],"outputs":[{"name":"","type":"tuple","internalType":"struct Template.TemplateData","components":[{"name":"blockTree","type":"string","internalType":"string"},{"name":"variables","type":"string","internalType":"string"},{"name":"triggerCondition","type":"string","internalType":"string"},{"name":"exists","type":"bool","internalType":"bool"}]}],"stateMutability":"view"},{"type":"function","name":"registerTrigger","inputs":[{"name":"templateId","type":"bytes32","internalType":"bytes32"},{"name":"condition","type":"string","internalType":"string"}],"outputs":[],"stateMutability":"nonpayable"},{"type":"function","name":"templateExists","inputs":[{"name":"templateId","type":"bytes32","internalType":"bytes32"}],"outputs":[{"name":"","type":"bool","internalType":"bool"}],"stateMutability":"view"},{"type":"event","name":"TemplateDefined","inputs":[{"name":"templateId","type":"bytes32","indexed":true,"internalType":"bytes32"}],"anonymous":false},{"type":"event","name":"TriggerRegistered","inputs":[{"name":"templateId","type":"bytes32","indexed":true,"internalType":"bytes32"}],"anonymous":false}],"bytecode":{"object":"0x608060405234801561000f575f80fd5b50610df68061001d5f395ff3fe608060405234801561000f575f80fd5b506004361061004a575f3560e01c80638aaaa29e1461004e5780638dc955481461007e57806390c8e9711461009a5780639757739b146100b6575b5f80fd5b61006860048036038101906100639190610636565b6100e6565b604051610075919061067b565b60405180910390f35b610098600480360381019061009391906106f5565b61010e565b005b6100b460048036038101906100af9190610786565b6102cc565b005b6100d060048036038101906100cb9190610636565b610380565b6040516100dd91906108ea565b60405180910390f35b5f805f8381526020019081526020015f206003015f9054906101000a900460ff169050919050565b5f808681526020019081526020015f206003015f9054906101000a900460ff161561016e576040517f08c379a000000000000000000000000000000000000000000000000000000000815260040161016590610964565b60405180910390fd5b604051806080016040528085858080601f0160208091040260200160405190810160405280939291908181526020018383808284375f81840152601f19601f82011690508083019250505050505050815260200183838080601f0160208091040260200160405190810160405280939291908181526020018383808284375f81840152601f19601f82011690508083019250505050505050815260200160405180602001604052805f8152508152602001600115158152505f808781526020019081526020015f205f820151815f0190816102499190610bb2565b50602082015181600101908161025f9190610bb2565b5060408201518160020190816102759190610bb2565b506060820151816003015f6101000a81548160ff021916908315150217905550905050847f9ec61b5d7c769ee8faa246c0f7166d721fbcd24e5189b4971a6e63722da50a9b60405160405180910390a25050505050565b5f808481526020019081526020015f206003015f9054906101000a900460ff1661032b576040517f08c379a000000000000000000000000000000000000000000000000000000000815260040161032290610ccb565b60405180910390fd5b81815f808681526020019081526020015f20600201918261034d929190610cf3565b50827f06d7f2255737afef38916580532d7749eaa5cf1f1d90ae3fec8e28899066e10d60405160405180910390a2505050565b6103886105d2565b5f808381526020019081526020015f206003015f9054906101000a900460ff166103e7576040517f08c379a00000000000000000000000000000000000000000000000000000000081526004016103de90610ccb565b60405180910390fd5b5f808381526020019081526020015f206040518060800160405290815f82018054610411906109dc565b80601f016020809104026020016040519081016040528092919081815260200182805461043d906109dc565b80156104885780601f1061045f57610100808354040283529160200191610488565b820191905f5260205f20905b81548152906001019060200180831161046b57829003601f168201915b505050505081526020016001820180546104a1906109dc565b80601f01602080910402602001604051908101604052809291908181526020018280546104cd906109dc565b80156105185780601f106104ef57610100808354040283529160200191610518565b820191905f5260205f20905b8154815290600101906020018083116104fb57829003601f168201915b50505050508152602001600282018054610531906109dc565b80601f016020809104026020016040519081016040528092919081815260200182805461055d906109dc565b80156105a85780601f1061057f576101008083540402835291602001916105a8565b820191905f5260205f20905b81548152906001019060200180831161058b57829003601f168201915b50505050508152602001600382015f9054906101000a900460ff1615151515815250509050919050565b60405180608001604052806060815260200160608152602001606081526020015f151581525090565b5f80fd5b5f80fd5b5f819050919050565b61061581610603565b811461061f575f80fd5b50565b5f813590506106308161060c565b92915050565b5f6020828403121561064b5761064a6105fb565b5b5f61065884828501610622565b91505092915050565b5f8115159050919050565b61067581610661565b82525050565b5f60208201905061068e5f83018461066c565b92915050565b5f80fd5b5f80fd5b5f80fd5b5f8083601f8401126106b5576106b4610694565b5b8235905067ffffffffffffffff8111156106d2576106d1610698565b5b6020830191508360018202830111156106ee576106ed61069c565b5b9250929050565b5f805f805f6060868803121561070e5761070d6105fb565b5b5f61071b88828901610622565b955050602086013567ffffffffffffffff81111561073c5761073b6105ff565b5b610748888289016106a0565b9450945050604086013567ffffffffffffffff81111561076b5761076a6105ff565b5b610777888289016106a0565b92509250509295509295909350565b5f805f6040848603121561079d5761079c6105fb565b5b5f6107aa86828701610622565b935050602084013567ffffffffffffffff8111156107cb576107ca6105ff565b5b6107d7868287016106a0565b92509250509250925092565b5f81519050919050565b5f82825260208201905092915050565b5f5b8381101561081a5780820151818401526020810190506107ff565b5f8484015250505050565b5f601f19601f8301169050919050565b5f61083f826107e3565b61084981856107ed565b93506108598185602086016107fd565b61086281610825565b840191505092915050565b61087681610661565b82525050565b5f608083015f8301518482035f8601526108968282610835565b915050602083015184820360208601526108b08282610835565b915050604083015184820360408601526108ca8282610835565b91505060608301516108df606086018261086d565b508091505092915050565b5f6020820190508181035f830152610902818461087c565b905092915050565b5f82825260208201905092915050565b7f54656d706c61746520616c7265616479206578697374730000000000000000005f82015250565b5f61094e60178361090a565b91506109598261091a565b602082019050919050565b5f6020820190508181035f83015261097b81610942565b9050919050565b7f4e487b71000000000000000000000000000000000000000000000000000000005f52604160045260245ffd5b7f4e487b71000000000000000000000000000000000000000000000000000000005f52602260045260245ffd5b5f60028204905060018216806109f357607f821691505b602082108103610a0657610a056109af565b5b50919050565b5f819050815f5260205f209050919050565b5f6020601f8301049050919050565b5f82821b905092915050565b5f60088302610a687fffffffffffffffffffffffffffffffffffffffffffffffffffffffffffffffff82610a2d565b610a728683610a2d565b95508019841693508086168417925050509392505050565b5f819050919050565b5f819050919050565b5f610ab6610ab1610aac84610a8a565b610a93565b610a8a565b9050919050565b5f819050919050565b610acf83610a9c565b610ae3610adb82610abd565b848454610a39565b825550505050565b5f90565b610af7610aeb565b610b02818484610ac6565b505050565b5b81811015610b2557610b1a5f82610aef565b600181019050610b08565b5050565b601f821115610b6a57610b3b81610a0c565b610b4484610a1e565b81016020851015610b53578190505b610b67610b5f85610a1e565b830182610b07565b50505b505050565b5f82821c905092915050565b5f610b8a5f1984600802610b6f565b1980831691505092915050565b5f610ba28383610b7b565b9150826002028217905092915050565b610bbb826107e3565b67ffffffffffffffff811115610bd457610bd3610982565b5b610bde82546109dc565b610be9828285610b29565b5f60209050601f831160018114610c1a575f8415610c08578287015190505b610c128582610b97565b865550610c79565b601f198416610c2886610a0c565b5f5b82811015610c4f57848901518255600182019150602085019450602081019050610c2a565b86831015610c6c5784890151610c68601f891682610b7b565b8355505b6001600288020188555050505b505050505050565b7f54656d706c61746520646f6573206e6f742065786973740000000000000000005f82015250565b5f610cb560178361090a565b9150610cc082610c81565b602082019050919050565b5f6020820190508181035f830152610ce281610ca9565b9050919050565b5f82905092915050565b610cfd8383610ce9565b67ffffffffffffffff811115610d1657610d15610982565b5b610d2082546109dc565b610d2b828285610b29565b5f601f831160018114610d58575f8415610d46578287013590505b610d508582610b97565b865550610db7565b601f198416610d6686610a0c565b5f5b82811015610d8d57848901358255600182019150602085019450602081019050610d68565b86831015610daa5784890135610da6601f891682610b7b565b8355505b6001600288020188555050505b5050505050505056fea2646970667358221220aa1ec0db6e26720887d1c8ddaad2f0f6d5fdf91234c31e748d47f1f7335d0cc964736f6c63430008140033","linkReferences":{}},"methodIdentifiers":{"defineTemplate(bytes32,string,string)":"8dc95548","getTemplate(bytes32)":"9757739b","registerTrigger(bytes32,string)":"90c8e971","templateExists(bytes32)":"8aaaa29e"},"id":283}