{"abi":[{"type":"function","name":"getSession","inputs":[{"name":"session","type":"bytes32","internalType":"bytes32"}],"outputs":[{"name":"port","type":"int256","internalType":"int256"},{"name":"url","type":"string","internalType":"string"},{"name":"running","type":"bool","internalType":"bool"}],"stateMutability":"view"},{"type":"function","name":"sessionExists","inputs":[{"name":"session","type":"bytes32","internalType":"bytes32"}],"outputs":[{"name":"","type":"bool","internalType":"bool"}],"stateMutability":"view"},{"type":"function","name":"start","inputs":[{"name":"port","type":"int256","internalType":"int256"},{"name":"watchDirs","type":"string[]","internalType":"string[]"}],"outputs":[{"name":"result","type":"tuple","internalType":"struct DevServer.StartOkResult","components":[{"name":"success","type":"bool","internalType":"bool"},{"name":"session","type":"bytes32","internalType":"bytes32"},{"name":"port","type":"int256","internalType":"int256"},{"name":"url","type":"string","internalType":"string"}]}],"stateMutability":"nonpayable"},{"type":"function","name":"status","inputs":[{"name":"session","type":"bytes32","internalType":"bytes32"}],"outputs":[{"name":"running","type":"bool","internalType":"bool"}],"stateMutability":"nonpayable"},{"type":"function","name":"stop","inputs":[{"name":"session","type":"bytes32","internalType":"bytes32"}],"outputs":[{"name":"result","type":"tuple","internalType":"struct DevServer.StopOkResult","components":[{"name":"success","type":"bool","internalType":"bool"},{"name":"session","type":"bytes32","internalType":"bytes32"}]}],"stateMutability":"nonpayable"},{"type":"event","name":"StartCompleted","inputs":[{"name":"variant","type":"string","indexed":false,"internalType":"string"},{"name":"session","type":"bytes32","indexed":false,"internalType":"bytes32"},{"name":"port","type":"int256","indexed":false,"internalType":"int256"}],"anonymous":false},{"type":"event","name":"StatusCompleted","inputs":[{"name":"variant","type":"string","indexed":false,"internalType":"string"},{"name":"port","type":"int256","indexed":false,"internalType":"int256"},{"name":"uptime","type":"int256","indexed":false,"internalType":"int256"}],"anonymous":false},{"type":"event","name":"StopCompleted","inputs":[{"name":"variant","type":"string","indexed":false,"internalType":"string"},{"name":"session","type":"bytes32","indexed":false,"internalType":"bytes32"}],"anonymous":false}],"bytecode":{"object":"0x608060405234801561000f575f80fd5b506119a88061001d5f395ff3fe608060405234801561000f575f80fd5b5060043610610055575f3560e01c80632aebc7ef1461005957806339b240bd1461008957806352ad0d5e146100bb57806363c4f031146100eb578063e17732161461011b575b5f80fd5b610073600480360381019061006e9190610d95565b61014b565b6040516100809190610f0a565b60405180910390f35b6100a3600480360381019061009e9190610f54565b61043b565b6040516100b293929190610fe5565b60405180910390f35b6100d560048036038101906100d09190610f54565b610563565b6040516100e29190611021565b60405180910390f35b61010560048036038101906101009190610f54565b6106df565b6040516101129190611067565b60405180910390f35b61013560048036038101906101309190610f54565b610850565b6040516101429190611021565b60405180910390f35b610153610a1a565b5f8313610195576040517f08c379a000000000000000000000000000000000000000000000000000000000815260040161018c906110ca565b60405180910390fd5b5f8251116101d8576040517f08c379a00000000000000000000000000000000000000000000000000000000081526004016101cf90611132565b60405180910390fd5b5f60015f8581526020019081526020015f205490505f801b811415801561021b57505f808281526020019081526020015f206004015f9054906101000a900460ff165b1561025b576040517f08c379a00000000000000000000000000000000000000000000000000000000081526004016102529061119a565b60405180910390fd5b5f844260035460405160200161027393929190611201565b60405160208183030381529060405280519060200120905060035f81548092919061029d9061126a565b91905055505f6102ac86610879565b6040516020016102bc9190611335565b60405160208183030381529060405290506040518060c00160405280878152602001868152602001828152602001428152602001600115158152602001600115158152505f808481526020019081526020015f205f820151815f01556020820151816001019080519060200190610334929190610a44565b50604082015181600201908161034a9190611550565b50606082015181600301556080820151816004015f6101000a81548160ff02191690831515021790555060a08201518160040160016101000a81548160ff0219169083151502179055509050508160015f8881526020019081526020015f2081905550600282908060018154018082558091505060019003905f5260205f20015f909190919091505560405180608001604052806001151581526020018381526020018781526020018281525093507f20d572beddcf6bae8a5d5edb37d8b435e0efcc4ea56148a842fda85992de52cf828760405161042a929190611678565b60405180910390a150505092915050565b5f60605f805f8581526020019081526020015f2060040160019054906101000a900460ff1661049f576040517f08c379a0000000000000000000000000000000000000000000000000000000008152600401610496906116fc565b60405180910390fd5b5f805f8681526020019081526020015f209050805f015481600201826004015f9054906101000a900460ff168180546104d790611383565b80601f016020809104026020016040519081016040528092919081815260200182805461050390611383565b801561054e5780601f106105255761010080835404028352916020019161054e565b820191905f5260205f20905b81548152906001019060200180831161053157829003601f168201915b50505050509150935093509350509193909250565b5f805f8381526020019081526020015f2060040160019054906101000a900460ff166105c4576040517f08c379a00000000000000000000000000000000000000000000000000000000081526004016105bb906116fc565b60405180910390fd5b5f805f8481526020019081526020015f209050806004015f9054906101000a900460ff1691505f816004015f9054906101000a900460ff161561061457816003015442610611919061171a565b90505b7f5509fba0078decb166e9cfae40467cc8033eedc51a11a3a7197e4644a2162a72826004015f9054906101000a900460ff16610685576040518060400160405280600781526020017f73746f70706564000000000000000000000000000000000000000000000000008152506106bc565b6040518060400160405280600781526020017f72756e6e696e67000000000000000000000000000000000000000000000000008152505b835f0154836040516106d09392919061174d565b60405180910390a15050919050565b6106e7610a9b565b5f808381526020019081526020015f2060040160019054906101000a900460ff16610747576040517f08c379a000000000000000000000000000000000000000000000000000000000815260040161073e906116fc565b60405180910390fd5b5f808381526020019081526020015f206004015f9054906101000a900460ff166107a6576040517f08c379a000000000000000000000000000000000000000000000000000000000815260040161079d906117d3565b60405180910390fd5b5f805f8481526020019081526020015f206004015f6101000a81548160ff0219169083151502179055505f801b60015f805f8681526020019081526020015f205f015481526020019081526020015f208190555060405180604001604052806001151581526020018381525090507fc1ffe8d0e7fcf9c9cf142576bedb6aa61beab3ac0de8e0b7c9df097ecb2488f98260405161084391906117f1565b60405180910390a1919050565b5f805f8381526020019081526020015f2060040160019054906101000a900460ff169050919050565b60605f8212156108be576040517f08c379a00000000000000000000000000000000000000000000000000000000081526004016108b590611867565b60405180910390fd5b5f8203610902576040518060400160405280600181526020017f30000000000000000000000000000000000000000000000000000000000000008152509050610a15565b5f8290505f808290505b5f811461093557818061091e9061126a565b925050600a8161092e91906118b2565b905061090c565b5f8267ffffffffffffffff8111156109505761094f610b8b565b5b6040519080825280601f01601f1916602001820160405280156109825781602001600182028036833780820191505090505b5090505b5f8414610a0d5760018361099a919061171a565b9250600a846109a991906118e2565b60306109b59190611912565b60f81b8184815181106109cb576109ca611945565b5b60200101907effffffffffffffffffffffffffffffffffffffffffffffffffffffffffffff191690815f1a905350600a84610a0691906118b2565b9350610986565b809450505050505b919050565b60405180608001604052805f151581526020015f80191681526020015f8152602001606081525090565b828054828255905f5260205f20908101928215610a8a579160200282015b82811115610a89578251829081610a799190611550565b5091602001919060010190610a62565b5b509050610a979190610ab8565b5090565b60405180604001604052805f151581526020015f80191681525090565b5b80821115610ad7575f8181610ace9190610adb565b50600101610ab9565b5090565b508054610ae790611383565b5f825580601f10610af85750610b15565b601f0160209004905f5260205f2090810190610b149190610b18565b5b50565b5b80821115610b2f575f815f905550600101610b19565b5090565b5f604051905090565b5f80fd5b5f80fd5b5f819050919050565b610b5681610b44565b8114610b60575f80fd5b50565b5f81359050610b7181610b4d565b92915050565b5f80fd5b5f601f19601f8301169050919050565b7f4e487b71000000000000000000000000000000000000000000000000000000005f52604160045260245ffd5b610bc182610b7b565b810181811067ffffffffffffffff82111715610be057610bdf610b8b565b5b80604052505050565b5f610bf2610b33565b9050610bfe8282610bb8565b919050565b5f67ffffffffffffffff821115610c1d57610c1c610b8b565b5b602082029050602081019050919050565b5f80fd5b5f80fd5b5f67ffffffffffffffff821115610c5057610c4f610b8b565b5b610c5982610b7b565b9050602081019050919050565b828183375f83830152505050565b5f610c86610c8184610c36565b610be9565b905082815260208101848484011115610ca257610ca1610c32565b5b610cad848285610c66565b509392505050565b5f82601f830112610cc957610cc8610b77565b5b8135610cd9848260208601610c74565b91505092915050565b5f610cf4610cef84610c03565b610be9565b90508083825260208201905060208402830185811115610d1757610d16610c2e565b5b835b81811015610d5e57803567ffffffffffffffff811115610d3c57610d3b610b77565b5b808601610d498982610cb5565b85526020850194505050602081019050610d19565b5050509392505050565b5f82601f830112610d7c57610d7b610b77565b5b8135610d8c848260208601610ce2565b91505092915050565b5f8060408385031215610dab57610daa610b3c565b5b5f610db885828601610b63565b925050602083013567ffffffffffffffff811115610dd957610dd8610b40565b5b610de585828601610d68565b9150509250929050565b5f8115159050919050565b610e0381610def565b82525050565b5f819050919050565b610e1b81610e09565b82525050565b610e2a81610b44565b82525050565b5f81519050919050565b5f82825260208201905092915050565b5f5b83811015610e67578082015181840152602081019050610e4c565b5f8484015250505050565b5f610e7c82610e30565b610e868185610e3a565b9350610e96818560208601610e4a565b610e9f81610b7b565b840191505092915050565b5f608083015f830151610ebf5f860182610dfa565b506020830151610ed26020860182610e12565b506040830151610ee56040860182610e21565b5060608301518482036060860152610efd8282610e72565b9150508091505092915050565b5f6020820190508181035f830152610f228184610eaa565b905092915050565b610f3381610e09565b8114610f3d575f80fd5b50565b5f81359050610f4e81610f2a565b92915050565b5f60208284031215610f6957610f68610b3c565b5b5f610f7684828501610f40565b91505092915050565b610f8881610b44565b82525050565b5f82825260208201905092915050565b5f610fa882610e30565b610fb28185610f8e565b9350610fc2818560208601610e4a565b610fcb81610b7b565b840191505092915050565b610fdf81610def565b82525050565b5f606082019050610ff85f830186610f7f565b818103602083015261100a8185610f9e565b90506110196040830184610fd6565b949350505050565b5f6020820190506110345f830184610fd6565b92915050565b604082015f82015161104e5f850182610dfa565b5060208201516110616020850182610e12565b50505050565b5f60408201905061107a5f83018461103a565b92915050565b7f506f7274206d75737420626520706f73697469766500000000000000000000005f82015250565b5f6110b4601583610f8e565b91506110bf82611080565b602082019050919050565b5f6020820190508181035f8301526110e1816110a8565b9050919050565b7f576174636820646972732063616e6e6f7420626520656d7074790000000000005f82015250565b5f61111c601a83610f8e565b9150611127826110e8565b602082019050919050565b5f6020820190508181035f83015261114981611110565b9050919050565b7f506f727420616c726561647920696e20757365000000000000000000000000005f82015250565b5f611184601383610f8e565b915061118f82611150565b602082019050919050565b5f6020820190508181035f8301526111b181611178565b9050919050565b5f819050919050565b6111d26111cd82610b44565b6111b8565b82525050565b5f819050919050565b5f819050919050565b6111fb6111f6826111d8565b6111e1565b82525050565b5f61120c82866111c1565b60208201915061121c82856111ea565b60208201915061122c82846111ea565b602082019150819050949350505050565b7f4e487b71000000000000000000000000000000000000000000000000000000005f52601160045260245ffd5b5f611274826111d8565b91507fffffffffffffffffffffffffffffffffffffffffffffffffffffffffffffffff82036112a6576112a561123d565b5b600182019050919050565b5f81905092915050565b7f687474703a2f2f6c6f63616c686f73743a0000000000000000000000000000005f82015250565b5f6112ef6011836112b1565b91506112fa826112bb565b601182019050919050565b5f61130f82610e30565b61131981856112b1565b9350611329818560208601610e4a565b80840191505092915050565b5f61133f826112e3565b915061134b8284611305565b915081905092915050565b7f4e487b71000000000000000000000000000000000000000000000000000000005f52602260045260245ffd5b5f600282049050600182168061139a57607f821691505b6020821081036113ad576113ac611356565b5b50919050565b5f819050815f5260205f209050919050565b5f6020601f8301049050919050565b5f82821b905092915050565b5f6008830261140f7fffffffffffffffffffffffffffffffffffffffffffffffffffffffffffffffff826113d4565b61141986836113d4565b95508019841693508086168417925050509392505050565b5f819050919050565b5f61145461144f61144a846111d8565b611431565b6111d8565b9050919050565b5f819050919050565b61146d8361143a565b6114816114798261145b565b8484546113e0565b825550505050565b5f90565b611495611489565b6114a0818484611464565b505050565b5b818110156114c3576114b85f8261148d565b6001810190506114a6565b5050565b601f821115611508576114d9816113b3565b6114e2846113c5565b810160208510156114f1578190505b6115056114fd856113c5565b8301826114a5565b50505b505050565b5f82821c905092915050565b5f6115285f198460080261150d565b1980831691505092915050565b5f6115408383611519565b9150826002028217905092915050565b61155982610e30565b67ffffffffffffffff81111561157257611571610b8b565b5b61157c8254611383565b6115878282856114c7565b5f60209050601f8311600181146115b8575f84156115a6578287015190505b6115b08582611535565b865550611617565b601f1984166115c6866113b3565b5f5b828110156115ed578489015182556001820191506020850194506020810190506115c8565b8683101561160a5784890151611606601f891682611519565b8355505b6001600288020188555050505b505050505050565b7f6f6b0000000000000000000000000000000000000000000000000000000000005f82015250565b5f611653600283610f8e565b915061165e8261161f565b602082019050919050565b61167281610e09565b82525050565b5f6060820190508181035f83015261168f81611647565b905061169e6020830185611669565b6116ab6040830184610f7f565b9392505050565b7f53657373696f6e206e6f7420666f756e640000000000000000000000000000005f82015250565b5f6116e6601183610f8e565b91506116f1826116b2565b602082019050919050565b5f6020820190508181035f830152611713816116da565b9050919050565b5f611724826111d8565b915061172f836111d8565b92508282039050818111156117475761174661123d565b5b92915050565b5f6060820190508181035f8301526117658186610f9e565b90506117746020830185610f7f565b6117816040830184610f7f565b949350505050565b7f53657373696f6e206e6f742072756e6e696e67000000000000000000000000005f82015250565b5f6117bd601383610f8e565b91506117c882611789565b602082019050919050565b5f6020820190508181035f8301526117ea816117b1565b9050919050565b5f6040820190508181035f83015261180881611647565b90506118176020830184611669565b92915050565b7f4e656761746976652076616c756573206e6f7420737570706f727465640000005f82015250565b5f611851601d83610f8e565b915061185c8261181d565b602082019050919050565b5f6020820190508181035f83015261187e81611845565b9050919050565b7f4e487b71000000000000000000000000000000000000000000000000000000005f52601260045260245ffd5b5f6118bc826111d8565b91506118c7836111d8565b9250826118d7576118d6611885565b5b828204905092915050565b5f6118ec826111d8565b91506118f7836111d8565b92508261190757611906611885565b5b828206905092915050565b5f61191c826111d8565b9150611927836111d8565b925082820190508082111561193f5761193e61123d565b5b92915050565b7f4e487b71000000000000000000000000000000000000000000000000000000005f52603260045260245ffdfea2646970667358221220c3b82bbb0b8e8e948c3c4a7b003d18a95a57415998c9762fb384b5ba2212a73264736f6c63430008140033","linkReferences":{}},"methodIdentifiers":{"getSession(bytes32)":"39b240bd","sessionExists(bytes32)":"e1773216","start(int256,string[])":"2aebc7ef","status(bytes32)":"52ad0d5e","stop(bytes32)":"63c4f031"},"id":23}