{"abi":[{"type":"function","name":"applyStack","inputs":[{"name":"stack","type":"bytes32","internalType":"bytes32"}],"outputs":[{"name":"","type":"tuple","internalType":"struct PulumiProvider.ApplyOkResult","components":[{"name":"success","type":"bool","internalType":"bool"},{"name":"stack","type":"bytes32","internalType":"bytes32"},{"name":"created","type":"string[]","internalType":"string[]"},{"name":"updated","type":"string[]","internalType":"string[]"}]}],"stateMutability":"nonpayable"},{"type":"function","name":"generate","inputs":[{"name":"plan","type":"string","internalType":"string"}],"outputs":[{"name":"","type":"tuple","internalType":"struct PulumiProvider.GenerateOkResult","components":[{"name":"success","type":"bool","internalType":"bool"},{"name":"stack","type":"bytes32","internalType":"bytes32"},{"name":"files","type":"string[]","internalType":"string[]"}]}],"stateMutability":"nonpayable"},{"type":"function","name":"preview","inputs":[{"name":"stack","type":"bytes32","internalType":"bytes32"}],"outputs":[{"name":"","type":"tuple","internalType":"struct PulumiProvider.PreviewOkResult","components":[{"name":"success","type":"bool","internalType":"bool"},{"name":"stack","type":"bytes32","internalType":"bytes32"},{"name":"toCreate","type":"int256","internalType":"int256"},{"name":"toUpdate","type":"int256","internalType":"int256"},{"name":"toDelete","type":"int256","internalType":"int256"},{"name":"estimatedCost","type":"uint256","internalType":"uint256"}]}],"stateMutability":"nonpayable"},{"type":"function","name":"register","inputs":[],"outputs":[{"name":"name","type":"string","internalType":"string"},{"name":"category","type":"string","internalType":"string"},{"name":"capabilities","type":"string[]","internalType":"string[]"}],"stateMutability":"pure"},{"type":"function","name":"teardown","inputs":[{"name":"stack","type":"bytes32","internalType":"bytes32"}],"outputs":[{"name":"","type":"tuple","internalType":"struct PulumiProvider.TeardownOkResult","components":[{"name":"success","type":"bool","internalType":"bool"},{"name":"stack","type":"bytes32","internalType":"bytes32"},{"name":"destroyed","type":"string[]","internalType":"string[]"}]}],"stateMutability":"nonpayable"},{"type":"event","name":"ApplyCompleted","inputs":[{"name":"variant","type":"string","indexed":false,"internalType":"string"},{"name":"stack","type":"bytes32","indexed":false,"internalType":"bytes32"},{"name":"created","type":"string[]","indexed":false,"internalType":"string[]"},{"name":"updated","type":"string[]","indexed":false,"internalType":"string[]"},{"name":"pendingOps","type":"string[]","indexed":false,"internalType":"string[]"},{"name":"failed","type":"string[]","indexed":false,"internalType":"string[]"}],"anonymous":false},{"type":"event","name":"GenerateCompleted","inputs":[{"name":"variant","type":"string","indexed":false,"internalType":"string"},{"name":"stack","type":"bytes32","indexed":false,"internalType":"bytes32"},{"name":"files","type":"string[]","indexed":false,"internalType":"string[]"}],"anonymous":false},{"type":"event","name":"PreviewCompleted","inputs":[{"name":"variant","type":"string","indexed":false,"internalType":"string"},{"name":"stack","type":"bytes32","indexed":false,"internalType":"bytes32"},{"name":"toCreate","type":"int256","indexed":false,"internalType":"int256"},{"name":"toUpdate","type":"int256","indexed":false,"internalType":"int256"},{"name":"toDelete","type":"int256","indexed":false,"internalType":"int256"},{"name":"estimatedCost","type":"uint256","indexed":false,"internalType":"uint256"}],"anonymous":false},{"type":"event","name":"TeardownCompleted","inputs":[{"name":"variant","type":"string","indexed":false,"internalType":"string"},{"name":"stack","type":"bytes32","indexed":false,"internalType":"bytes32"},{"name":"destroyed","type":"string[]","indexed":false,"internalType":"string[]"}],"anonymous":false}],"bytecode":{"object":"0x608060405234801561000f575f80fd5b5061198e8061001d5f395ff3fe608060405234801561000f575f80fd5b5060043610610055575f3560e01c80631aa3a0081461005957806331a30ea01461007957806332752c85146100a957806349cd8061146100d9578063c3d670fe14610109575b5f80fd5b610061610139565b60405161007093929190610d54565b60405180910390f35b610093600480360381019061008e9190610de2565b610357565b6040516100a09190610edf565b60405180910390f35b6100c360048036038101906100be9190610de2565b610434565b6040516100d09190610fc8565b60405180910390f35b6100f360048036038101906100ee9190610de2565b610600565b604051610100919061104f565b60405180910390f35b610123600480360381019061011e919061119b565b610843565b604051610130919061122f565b60405180910390f35b60608060606040518060400160405280600681526020017f70756c756d69000000000000000000000000000000000000000000000000000081525092506040518060400160405280600381526020017f69616300000000000000000000000000000000000000000000000000000000008152509150600467ffffffffffffffff8111156101c9576101c8611077565b5b6040519080825280602002602001820160405280156101fc57816020015b60608152602001906001900390816101e75790505b5090506040518060400160405280600881526020017f67656e6572617465000000000000000000000000000000000000000000000000815250815f815181106102485761024761124f565b5b60200260200101819052506040518060400160405280600781526020017f70726576696577000000000000000000000000000000000000000000000000008152508160018151811061029d5761029c61124f565b5b60200260200101819052506040518060400160405280600581526020017f6170706c79000000000000000000000000000000000000000000000000000000815250816002815181106102f2576102f161124f565b5b60200260200101819052506040518060400160405280600881526020017f74656172646f776e000000000000000000000000000000000000000000000000815250816003815181106103475761034661124f565b5b6020026020010181905250909192565b61035f610ac7565b60015f8381526020019081526020015f205f9054906101000a900460ff166103bc576040517f08c379a00000000000000000000000000000000000000000000000000000000081526004016103b3906112c6565b60405180910390fd5b7fc1417030eb6e0db3e0d3c00adb5670af0c8db6f92c4e4c36f54d232042fac0d28260015f805f6040516103f495949392919061135b565b60405180910390a16040518060c00160405280600115158152602001838152602001600181526020015f81526020015f81526020015f8152509050919050565b61043c610afc565b60015f8381526020019081526020015f205f9054906101000a900460ff16610499576040517f08c379a000000000000000000000000000000000000000000000000000000000815260040161049090611409565b60405180910390fd5b5f600167ffffffffffffffff8111156104b5576104b4611077565b5b6040519080825280602002602001820160405280156104e857816020015b60608152602001906001900390816104d35790505b5090506040518060400160405280601381526020017f6177733a6c616d6264613a46756e6374696f6e00000000000000000000000000815250815f815181106105345761053361124f565b5b60200260200101819052505f60015f8581526020019081526020015f205f6101000a81548160ff0219169083151502179055505f808481526020019081526020015f205f6105829190610b20565b60035f8481526020019081526020015f205f6101000a81549060ff02191690557e6c8bc964aec81b5e6cfed49a4c2450aa85d712c84ac472fb04a6cec5bd076383826040516105d2929190611427565b60405180910390a1604051806060016040528060011515815260200184815260200182815250915050919050565b610608610b5d565b60015f8381526020019081526020015f205f9054906101000a900460ff16610665576040517f08c379a000000000000000000000000000000000000000000000000000000000815260040161065c906112c6565b60405180910390fd5b600160035f8481526020019081526020015f205f6101000a81548160ff0219169083151502179055505f600167ffffffffffffffff8111156106aa576106a9611077565b5b6040519080825280602002602001820160405280156106dd57816020015b60608152602001906001900390816106c85790505b5090506040518060400160405280601381526020017f6177733a6c616d6264613a46756e6374696f6e00000000000000000000000000815250815f815181106107295761072861124f565b5b60200260200101819052505f8067ffffffffffffffff81111561074f5761074e611077565b5b60405190808252806020026020018201604052801561078257816020015b606081526020019060019003908161076d5790505b5090505f8067ffffffffffffffff8111156107a05761079f611077565b5b6040519080825280602002602001820160405280156107d357816020015b60608152602001906001900390816107be5790505b5090507f0fbe444e044cd8372c708ea10261bfb372cdf04ac577e721b31790e84c29b6f7858484848560405161080d959493929190611468565b60405180910390a16040518060800160405280600115158152602001868152602001848152602001838152509350505050919050565b61084b610b88565b5f82511161088e576040517f08c379a000000000000000000000000000000000000000000000000000000000815260040161088590611532565b60405180910390fd5b5f8242336040516020016108a49392919061161f565b60405160208183030381529060405280519060200120905082426040516020016108cf929190611657565b6040516020818303038152906040525f808381526020019081526020015f2090816108fa9190611889565b5060015f8281526020019081526020015f205f9054906101000a900460ff1661096c576001805f8381526020019081526020015f205f6101000a81548160ff021916908315150217905550600281908060018154018082558091505060019003905f5260205f20015f90919091909150555b5f600267ffffffffffffffff81111561098857610987611077565b5b6040519080825280602002602001820160405280156109bb57816020015b60608152602001906001900390816109a65790505b5090506040518060400160405280600b81526020017f50756c756d692e79616d6c000000000000000000000000000000000000000000815250815f81518110610a0757610a0661124f565b5b60200260200101819052506040518060400160405280600881526020017f696e6465782e747300000000000000000000000000000000000000000000000081525081600181518110610a5c57610a5b61124f565b5b60200260200101819052507f0da97dbf1aebb3e58f3b32b67a8ac71e19e73bb343e3d7daac7c1a8a432f6d1b8282604051610a98929190611427565b60405180910390a160405180606001604052806001151581526020018381526020018281525092505050919050565b6040518060c001604052805f151581526020015f80191681526020015f81526020015f81526020015f81526020015f81525090565b60405180606001604052805f151581526020015f8019168152602001606081525090565b508054610b2c906116bc565b5f825580601f10610b3d5750610b5a565b601f0160209004905f5260205f2090810190610b599190610bac565b5b50565b60405180608001604052805f151581526020015f801916815260200160608152602001606081525090565b60405180606001604052805f151581526020015f8019168152602001606081525090565b5b80821115610bc3575f815f905550600101610bad565b5090565b5f81519050919050565b5f82825260208201905092915050565b5f5b83811015610bfe578082015181840152602081019050610be3565b5f8484015250505050565b5f601f19601f8301169050919050565b5f610c2382610bc7565b610c2d8185610bd1565b9350610c3d818560208601610be1565b610c4681610c09565b840191505092915050565b5f81519050919050565b5f82825260208201905092915050565b5f819050602082019050919050565b5f82825260208201905092915050565b5f610c9482610bc7565b610c9e8185610c7a565b9350610cae818560208601610be1565b610cb781610c09565b840191505092915050565b5f610ccd8383610c8a565b905092915050565b5f602082019050919050565b5f610ceb82610c51565b610cf58185610c5b565b935083602082028501610d0785610c6b565b805f5b85811015610d425784840389528151610d238582610cc2565b9450610d2e83610cd5565b925060208a01995050600181019050610d0a565b50829750879550505050505092915050565b5f6060820190508181035f830152610d6c8186610c19565b90508181036020830152610d808185610c19565b90508181036040830152610d948184610ce1565b9050949350505050565b5f604051905090565b5f80fd5b5f80fd5b5f819050919050565b610dc181610daf565b8114610dcb575f80fd5b50565b5f81359050610ddc81610db8565b92915050565b5f60208284031215610df757610df6610da7565b5b5f610e0484828501610dce565b91505092915050565b5f8115159050919050565b610e2181610e0d565b82525050565b610e3081610daf565b82525050565b5f819050919050565b610e4881610e36565b82525050565b5f819050919050565b610e6081610e4e565b82525050565b60c082015f820151610e7a5f850182610e18565b506020820151610e8d6020850182610e27565b506040820151610ea06040850182610e3f565b506060820151610eb36060850182610e3f565b506080820151610ec66080850182610e3f565b5060a0820151610ed960a0850182610e57565b50505050565b5f60c082019050610ef25f830184610e66565b92915050565b5f82825260208201905092915050565b5f610f1282610c51565b610f1c8185610ef8565b935083602082028501610f2e85610c6b565b805f5b85811015610f695784840389528151610f4a8582610cc2565b9450610f5583610cd5565b925060208a01995050600181019050610f31565b50829750879550505050505092915050565b5f606083015f830151610f905f860182610e18565b506020830151610fa36020860182610e27565b5060408301518482036040860152610fbb8282610f08565b9150508091505092915050565b5f6020820190508181035f830152610fe08184610f7b565b905092915050565b5f608083015f830151610ffd5f860182610e18565b5060208301516110106020860182610e27565b50604083015184820360408601526110288282610f08565b915050606083015184820360608601526110428282610f08565b9150508091505092915050565b5f6020820190508181035f8301526110678184610fe8565b905092915050565b5f80fd5b5f80fd5b7f4e487b71000000000000000000000000000000000000000000000000000000005f52604160045260245ffd5b6110ad82610c09565b810181811067ffffffffffffffff821117156110cc576110cb611077565b5b80604052505050565b5f6110de610d9e565b90506110ea82826110a4565b919050565b5f67ffffffffffffffff82111561110957611108611077565b5b61111282610c09565b9050602081019050919050565b828183375f83830152505050565b5f61113f61113a846110ef565b6110d5565b90508281526020810184848401111561115b5761115a611073565b5b61116684828561111f565b509392505050565b5f82601f8301126111825761118161106f565b5b813561119284826020860161112d565b91505092915050565b5f602082840312156111b0576111af610da7565b5b5f82013567ffffffffffffffff8111156111cd576111cc610dab565b5b6111d98482850161116e565b91505092915050565b5f606083015f8301516111f75f860182610e18565b50602083015161120a6020860182610e27565b50604083015184820360408601526112228282610f08565b9150508091505092915050565b5f6020820190508181035f83015261124781846111e2565b905092915050565b7f4e487b71000000000000000000000000000000000000000000000000000000005f52603260045260245ffd5b7f537461636b206e6f7420666f756e64202d2067656e65726174652066697273745f82015250565b5f6112b0602083610bd1565b91506112bb8261127c565b602082019050919050565b5f6020820190508181035f8301526112dd816112a4565b9050919050565b7f6f6b0000000000000000000000000000000000000000000000000000000000005f82015250565b5f611318600283610bd1565b9150611323826112e4565b602082019050919050565b61133781610daf565b82525050565b61134681610e36565b82525050565b61135581610e4e565b82525050565b5f60c0820190508181035f8301526113728161130c565b9050611381602083018861132e565b61138e604083018761133d565b61139b606083018661133d565b6113a8608083018561133d565b6113b560a083018461134c565b9695505050505050565b7f537461636b206e6f7420666f756e6400000000000000000000000000000000005f82015250565b5f6113f3600f83610bd1565b91506113fe826113bf565b602082019050919050565b5f6020820190508181035f830152611420816113e7565b9050919050565b5f6060820190508181035f83015261143e8161130c565b905061144d602083018561132e565b818103604083015261145f8184610ce1565b90509392505050565b5f60c0820190508181035f83015261147f8161130c565b905061148e602083018861132e565b81810360408301526114a08187610ce1565b905081810360608301526114b48186610ce1565b905081810360808301526114c88185610ce1565b905081810360a08301526114dc8184610ce1565b90509695505050505050565b7f506c616e206d757374206e6f7420626520656d707479000000000000000000005f82015250565b5f61151c601683610bd1565b9150611527826114e8565b602082019050919050565b5f6020820190508181035f83015261154981611510565b9050919050565b5f81905092915050565b5f61156482610bc7565b61156e8185611550565b935061157e818560208601610be1565b80840191505092915050565b5f819050919050565b6115a461159f82610e4e565b61158a565b82525050565b5f73ffffffffffffffffffffffffffffffffffffffff82169050919050565b5f6115d3826115aa565b9050919050565b5f8160601b9050919050565b5f6115f0826115da565b9050919050565b5f611601826115e6565b9050919050565b611619611614826115c9565b6115f7565b82525050565b5f61162a828661155a565b91506116368285611593565b6020820191506116468284611608565b601482019150819050949350505050565b5f6040820190508181035f83015261166f8185610c19565b905061167e602083018461134c565b9392505050565b5f81519050919050565b7f4e487b71000000000000000000000000000000000000000000000000000000005f52602260045260245ffd5b5f60028204905060018216806116d357607f821691505b6020821081036116e6576116e561168f565b5b50919050565b5f819050815f5260205f209050919050565b5f6020601f8301049050919050565b5f82821b905092915050565b5f600883026117487fffffffffffffffffffffffffffffffffffffffffffffffffffffffffffffffff8261170d565b611752868361170d565b95508019841693508086168417925050509392505050565b5f819050919050565b5f61178d61178861178384610e4e565b61176a565b610e4e565b9050919050565b5f819050919050565b6117a683611773565b6117ba6117b282611794565b848454611719565b825550505050565b5f90565b6117ce6117c2565b6117d981848461179d565b505050565b5b818110156117fc576117f15f826117c6565b6001810190506117df565b5050565b601f82111561184157611812816116ec565b61181b846116fe565b8101602085101561182a578190505b61183e611836856116fe565b8301826117de565b50505b505050565b5f82821c905092915050565b5f6118615f1984600802611846565b1980831691505092915050565b5f6118798383611852565b9150826002028217905092915050565b61189282611685565b67ffffffffffffffff8111156118ab576118aa611077565b5b6118b582546116bc565b6118c0828285611800565b5f60209050601f8311600181146118f1575f84156118df578287015190505b6118e9858261186e565b865550611950565b601f1984166118ff866116ec565b5f5b8281101561192657848901518255600182019150602085019450602081019050611901565b86831015611943578489015161193f601f891682611852565b8355505b6001600288020188555050505b50505050505056fea2646970667358221220501e36193d67bbeae5e6ab8f86fbf5f9d2d79b46f2da89972e6a0f4811bd14c664736f6c63430008140033","linkReferences":{}},"methodIdentifiers":{"applyStack(bytes32)":"49cd8061","generate(string)":"c3d670fe","preview(bytes32)":"31a30ea0","register()":"1aa3a008","teardown(bytes32)":"32752c85"},"id":205}