{"abi":[{"type":"function","name":"exists","inputs":[{"name":"typeId","type":"bytes32","internalType":"bytes32"}],"outputs":[{"name":"","type":"bool","internalType":"bool"}],"stateMutability":"view"},{"type":"function","name":"registerType","inputs":[{"name":"typeId","type":"bytes32","internalType":"bytes32"},{"name":"definition","type":"string","internalType":"string"},{"name":"constraints","type":"string","internalType":"string"}],"outputs":[],"stateMutability":"nonpayable"},{"type":"function","name":"resolve","inputs":[{"name":"typeId","type":"bytes32","internalType":"bytes32"}],"outputs":[{"name":"found","type":"bool","internalType":"bool"},{"name":"definition","type":"string","internalType":"string"}],"stateMutability":"view"},{"type":"event","name":"TypeRegistered","inputs":[{"name":"typeId","type":"bytes32","indexed":true,"internalType":"bytes32"}],"anonymous":false}],"bytecode":{"object":"0x608060405234801561000f575f80fd5b506109f08061001d5f395ff3fe608060405234801561000f575f80fd5b506004361061003f575f3560e01c806338a699a4146100435780635c23bdf514610073578063f26f1438146100a4575b5f80fd5b61005d600480360381019061005891906103e3565b6100c0565b60405161006a9190610428565b60405180910390f35b61008d600480360381019061008891906103e3565b6100e8565b60405161009b9291906104cb565b60405180910390f35b6100be60048036038101906100b9919061055a565b6101d0565b005b5f805f8381526020019081526020015f206002015f9054906101000a900460ff169050919050565b5f60605f808481526020019081526020015f206002015f9054906101000a900460ff16610128575f60405180602001604052805f815250915091506101cb565b60015f808581526020019081526020015f205f0180805461014890610618565b80601f016020809104026020016040519081016040528092919081815260200182805461017490610618565b80156101bf5780601f10610196576101008083540402835291602001916101bf565b820191905f5260205f20905b8154815290600101906020018083116101a257829003601f168201915b50505050509050915091505b915091565b5f801b8503610214576040517f08c379a000000000000000000000000000000000000000000000000000000000815260040161020b90610692565b60405180910390fd5b5f808681526020019081526020015f206002015f9054906101000a900460ff1615610274576040517f08c379a000000000000000000000000000000000000000000000000000000000815260040161026b906106fa565b60405180910390fd5b604051806060016040528085858080601f0160208091040260200160405190810160405280939291908181526020018383808284375f81840152601f19601f82011690508083019250505050505050815260200183838080601f0160208091040260200160405190810160405280939291908181526020018383808284375f81840152601f19601f820116905080830192505050505050508152602001600115158152505f808781526020019081526020015f205f820151815f01908161033b91906108eb565b50602082015181600101908161035191906108eb565b506040820151816002015f6101000a81548160ff021916908315150217905550905050847f8b76f4014d81bd71ff2a4ef276042c5b8d8072523ef28d9ee6a8abecd0e4b1cb60405160405180910390a25050505050565b5f80fd5b5f80fd5b5f819050919050565b6103c2816103b0565b81146103cc575f80fd5b50565b5f813590506103dd816103b9565b92915050565b5f602082840312156103f8576103f76103a8565b5b5f610405848285016103cf565b91505092915050565b5f8115159050919050565b6104228161040e565b82525050565b5f60208201905061043b5f830184610419565b92915050565b5f81519050919050565b5f82825260208201905092915050565b5f5b8381101561047857808201518184015260208101905061045d565b5f8484015250505050565b5f601f19601f8301169050919050565b5f61049d82610441565b6104a7818561044b565b93506104b781856020860161045b565b6104c081610483565b840191505092915050565b5f6040820190506104de5f830185610419565b81810360208301526104f08184610493565b90509392505050565b5f80fd5b5f80fd5b5f80fd5b5f8083601f84011261051a576105196104f9565b5b8235905067ffffffffffffffff811115610537576105366104fd565b5b60208301915083600182028301111561055357610552610501565b5b9250929050565b5f805f805f60608688031215610573576105726103a8565b5b5f610580888289016103cf565b955050602086013567ffffffffffffffff8111156105a1576105a06103ac565b5b6105ad88828901610505565b9450945050604086013567ffffffffffffffff8111156105d0576105cf6103ac565b5b6105dc88828901610505565b92509250509295509295909350565b7f4e487b71000000000000000000000000000000000000000000000000000000005f52602260045260245ffd5b5f600282049050600182168061062f57607f821691505b602082108103610642576106416105eb565b5b50919050565b7f547970652049442063616e6e6f74206265207a65726f000000000000000000005f82015250565b5f61067c60168361044b565b915061068782610648565b602082019050919050565b5f6020820190508181035f8301526106a981610670565b9050919050565b7f5479706520616c726561647920726567697374657265640000000000000000005f82015250565b5f6106e460178361044b565b91506106ef826106b0565b602082019050919050565b5f6020820190508181035f830152610711816106d8565b9050919050565b7f4e487b71000000000000000000000000000000000000000000000000000000005f52604160045260245ffd5b5f819050815f5260205f209050919050565b5f6020601f8301049050919050565b5f82821b905092915050565b5f600883026107a17fffffffffffffffffffffffffffffffffffffffffffffffffffffffffffffffff82610766565b6107ab8683610766565b95508019841693508086168417925050509392505050565b5f819050919050565b5f819050919050565b5f6107ef6107ea6107e5846107c3565b6107cc565b6107c3565b9050919050565b5f819050919050565b610808836107d5565b61081c610814826107f6565b848454610772565b825550505050565b5f90565b610830610824565b61083b8184846107ff565b505050565b5b8181101561085e576108535f82610828565b600181019050610841565b5050565b601f8211156108a35761087481610745565b61087d84610757565b8101602085101561088c578190505b6108a061089885610757565b830182610840565b50505b505050565b5f82821c905092915050565b5f6108c35f19846008026108a8565b1980831691505092915050565b5f6108db83836108b4565b9150826002028217905092915050565b6108f482610441565b67ffffffffffffffff81111561090d5761090c610718565b5b6109178254610618565b610922828285610862565b5f60209050601f831160018114610953575f8415610941578287015190505b61094b85826108d0565b8655506109b2565b601f19841661096186610745565b5f5b8281101561098857848901518255600182019150602085019450602081019050610963565b868310156109a557848901516109a1601f8916826108b4565b8355505b6001600288020188555050505b50505050505056fea2646970667358221220459858449bae54cc120426fdcab25e3a736a092b1e19723ea03199e32c741f2664736f6c63430008140033","linkReferences":{}},"methodIdentifiers":{"exists(bytes32)":"38a699a4","registerType(bytes32,string,string)":"f26f1438","resolve(bytes32)":"5c23bdf5"},"id":316}