{"abi":[{"type":"function","name":"emitManifests","inputs":[{"name":"plan","type":"string","internalType":"string"},{"name":"repo","type":"string","internalType":"string"},{"name":"path","type":"string","internalType":"string"}],"outputs":[{"name":"","type":"tuple","internalType":"struct FluxProvider.EmitOkResult","components":[{"name":"success","type":"bool","internalType":"bool"},{"name":"kustomization","type":"bytes32","internalType":"bytes32"},{"name":"files","type":"string[]","internalType":"string[]"}]}],"stateMutability":"nonpayable"},{"type":"function","name":"helmRelease","inputs":[{"name":"kustomization","type":"bytes32","internalType":"bytes32"},{"name":"chart","type":"string","internalType":"string"},{"name":"values","type":"string","internalType":"string"}],"outputs":[{"name":"","type":"tuple","internalType":"struct FluxProvider.HelmReleaseOkResult","components":[{"name":"success","type":"bool","internalType":"bool"},{"name":"kustomization","type":"bytes32","internalType":"bytes32"},{"name":"releaseName","type":"string","internalType":"string"}]}],"stateMutability":"nonpayable"},{"type":"function","name":"reconciliationStatus","inputs":[{"name":"kustomization","type":"bytes32","internalType":"bytes32"}],"outputs":[{"name":"","type":"tuple","internalType":"struct FluxProvider.ReconciliationStatusOkResult","components":[{"name":"success","type":"bool","internalType":"bool"},{"name":"kustomization","type":"bytes32","internalType":"bytes32"},{"name":"readyStatus","type":"string","internalType":"string"},{"name":"appliedRevision","type":"string","internalType":"string"},{"name":"reconciledAt","type":"uint256","internalType":"uint256"}]}],"stateMutability":"nonpayable"},{"type":"function","name":"register","inputs":[],"outputs":[{"name":"name","type":"string","internalType":"string"},{"name":"category","type":"string","internalType":"string"},{"name":"capabilities","type":"string[]","internalType":"string[]"}],"stateMutability":"pure"},{"type":"event","name":"EmitCompleted","inputs":[{"name":"variant","type":"string","indexed":false,"internalType":"string"},{"name":"kustomization","type":"bytes32","indexed":false,"internalType":"bytes32"},{"name":"files","type":"string[]","indexed":false,"internalType":"string[]"}],"anonymous":false},{"type":"event","name":"HelmReleaseCompleted","inputs":[{"name":"variant","type":"string","indexed":false,"internalType":"string"},{"name":"kustomization","type":"bytes32","indexed":false,"internalType":"bytes32"}],"anonymous":false},{"type":"event","name":"ReconciliationStatusCompleted","inputs":[{"name":"variant","type":"string","indexed":false,"internalType":"string"},{"name":"kustomization","type":"bytes32","indexed":false,"internalType":"bytes32"},{"name":"reconciledAt","type":"uint256","indexed":false,"internalType":"uint256"},{"name":"waitingOn","type":"string[]","indexed":false,"internalType":"string[]"}],"anonymous":false}],"bytecode":{"object":"0x608060405234801561000f575f80fd5b506118b18061001d5f395ff3fe608060405234801561000f575f80fd5b506004361061004a575f3560e01c80631aa3a0081461004e5780634b8bd9e11461006e578063bcd7d46e1461009e578063f5f24cc7146100ce575b5f80fd5b6100566100fe565b60405161006593929190610a44565b60405180910390f35b61008860048036038101906100839190610ad2565b6102c7565b6040516100959190610bb8565b60405180910390f35b6100b860048036038101906100b39190610d04565b610454565b6040516100c59190610e78565b60405180910390f35b6100e860048036038101906100e39190610e98565b6106f5565b6040516100f59190610f6d565b60405180910390f35b60608060606040518060400160405280600481526020017f666c75780000000000000000000000000000000000000000000000000000000081525092506040518060400160405280600681526020017f6769746f707300000000000000000000000000000000000000000000000000008152509150600367ffffffffffffffff81111561018e5761018d610be0565b5b6040519080825280602002602001820160405280156101c157816020015b60608152602001906001900390816101ac5790505b5090506040518060400160405280600481526020017f656d697400000000000000000000000000000000000000000000000000000000815250815f8151811061020d5761020c610f8d565b5b60200260200101819052506040518060400160405280601481526020017f7265636f6e63696c696174696f6e5374617475730000000000000000000000008152508160018151811061026257610261610f8d565b5b60200260200101819052506040518060400160405280600b81526020017f68656c6d52656c65617365000000000000000000000000000000000000000000815250816002815181106102b7576102b6610f8d565b5b6020026020010181905250909192565b6102cf61083e565b60015f8381526020019081526020015f205f9054906101000a900460ff1661032c576040517f08c379a000000000000000000000000000000000000000000000000000000000815260040161032390611004565b60405180910390fd5b5f8067ffffffffffffffff81111561034757610346610be0565b5b60405190808252806020026020018201604052801561037a57816020015b60608152602001906001900390816103655790505b5090507f2eec95e46edc9517db4493e6e1a078b43e5d52cd0b07ff324aa3e63a112db9a78342836040516103b09392919061108a565b60405180910390a16040518060a001604052806001151581526020018481526020016040518060400160405280600481526020017f547275650000000000000000000000000000000000000000000000000000000081525081526020016040518060400160405280601081526020017f6d61696e40736861313a6c617465737400000000000000000000000000000000815250815260200142815250915050919050565b61045c61086f565b5f84511161049f576040517f08c379a000000000000000000000000000000000000000000000000000000000815260040161049690611123565b60405180910390fd5b5f8351116104e2576040517f08c379a00000000000000000000000000000000000000000000000000000000081526004016104d99061118b565b60405180910390fd5b5f8484846040516020016104f8939291906111e3565b604051602081830303815290604052805190602001209050848484426040516020016105279493929190611213565b6040516020818303038152906040525f808381526020019081526020015f209081610552919061146f565b5060015f8281526020019081526020015f205f9054906101000a900460ff166105c4576001805f8381526020019081526020015f205f6101000a81548160ff021916908315150217905550600281908060018154018082558091505060019003905f5260205f20015f90919091909150555b5f600267ffffffffffffffff8111156105e0576105df610be0565b5b60405190808252806020026020018201604052801561061357816020015b60608152602001906001900390816105fe5790505b509050836040516020016106279190611588565b604051602081830303815290604052815f8151811061064957610648610f8d565b5b60200260200101819052508360405160200161066591906115f3565b6040516020818303038152906040528160018151811061068857610687610f8d565b5b60200260200101819052507fce30f66e6f64f7356dddc8155992ed0be062c00d5c543b668ee829db6e114e8c82826040516106c4929190611614565b60405180910390a1604051806060016040528060011515815260200183815260200182815250925050509392505050565b6106fd610893565b60015f8581526020019081526020015f205f9054906101000a900460ff1661075a576040517f08c379a000000000000000000000000000000000000000000000000000000000815260040161075190611004565b60405180910390fd5b5f83511161079d576040517f08c379a00000000000000000000000000000000000000000000000000000000081526004016107949061169f565b60405180910390fd5b5f836040516020016107af9190611707565b60405160208183030381529060405290508060035f8781526020019081526020015f2090816107de9190611780565b507fee005914331425d2f45118a95171ccb4efeb101425b690e379909387e67897e88560405161080e919061184f565b60405180910390a16040518060600160405280600115158152602001868152602001828152509150509392505050565b6040518060a001604052805f151581526020015f801916815260200160608152602001606081526020015f81525090565b60405180606001604052805f151581526020015f8019168152602001606081525090565b60405180606001604052805f151581526020015f8019168152602001606081525090565b5f81519050919050565b5f82825260208201905092915050565b5f5b838110156108ee5780820151818401526020810190506108d3565b5f8484015250505050565b5f601f19601f8301169050919050565b5f610913826108b7565b61091d81856108c1565b935061092d8185602086016108d1565b610936816108f9565b840191505092915050565b5f81519050919050565b5f82825260208201905092915050565b5f819050602082019050919050565b5f82825260208201905092915050565b5f610984826108b7565b61098e818561096a565b935061099e8185602086016108d1565b6109a7816108f9565b840191505092915050565b5f6109bd838361097a565b905092915050565b5f602082019050919050565b5f6109db82610941565b6109e5818561094b565b9350836020820285016109f78561095b565b805f5b85811015610a325784840389528151610a1385826109b2565b9450610a1e836109c5565b925060208a019950506001810190506109fa565b50829750879550505050505092915050565b5f6060820190508181035f830152610a5c8186610909565b90508181036020830152610a708185610909565b90508181036040830152610a8481846109d1565b9050949350505050565b5f604051905090565b5f80fd5b5f80fd5b5f819050919050565b610ab181610a9f565b8114610abb575f80fd5b50565b5f81359050610acc81610aa8565b92915050565b5f60208284031215610ae757610ae6610a97565b5b5f610af484828501610abe565b91505092915050565b5f8115159050919050565b610b1181610afd565b82525050565b610b2081610a9f565b82525050565b5f819050919050565b610b3881610b26565b82525050565b5f60a083015f830151610b535f860182610b08565b506020830151610b666020860182610b17565b5060408301518482036040860152610b7e828261097a565b91505060608301518482036060860152610b98828261097a565b9150506080830151610bad6080860182610b2f565b508091505092915050565b5f6020820190508181035f830152610bd08184610b3e565b905092915050565b5f80fd5b5f80fd5b7f4e487b71000000000000000000000000000000000000000000000000000000005f52604160045260245ffd5b610c16826108f9565b810181811067ffffffffffffffff82111715610c3557610c34610be0565b5b80604052505050565b5f610c47610a8e565b9050610c538282610c0d565b919050565b5f67ffffffffffffffff821115610c7257610c71610be0565b5b610c7b826108f9565b9050602081019050919050565b828183375f83830152505050565b5f610ca8610ca384610c58565b610c3e565b905082815260208101848484011115610cc457610cc3610bdc565b5b610ccf848285610c88565b509392505050565b5f82601f830112610ceb57610cea610bd8565b5b8135610cfb848260208601610c96565b91505092915050565b5f805f60608486031215610d1b57610d1a610a97565b5b5f84013567ffffffffffffffff811115610d3857610d37610a9b565b5b610d4486828701610cd7565b935050602084013567ffffffffffffffff811115610d6557610d64610a9b565b5b610d7186828701610cd7565b925050604084013567ffffffffffffffff811115610d9257610d91610a9b565b5b610d9e86828701610cd7565b9150509250925092565b5f82825260208201905092915050565b5f610dc282610941565b610dcc8185610da8565b935083602082028501610dde8561095b565b805f5b85811015610e195784840389528151610dfa85826109b2565b9450610e05836109c5565b925060208a01995050600181019050610de1565b50829750879550505050505092915050565b5f606083015f830151610e405f860182610b08565b506020830151610e536020860182610b17565b5060408301518482036040860152610e6b8282610db8565b9150508091505092915050565b5f6020820190508181035f830152610e908184610e2b565b905092915050565b5f805f60608486031215610eaf57610eae610a97565b5b5f610ebc86828701610abe565b935050602084013567ffffffffffffffff811115610edd57610edc610a9b565b5b610ee986828701610cd7565b925050604084013567ffffffffffffffff811115610f0a57610f09610a9b565b5b610f1686828701610cd7565b9150509250925092565b5f606083015f830151610f355f860182610b08565b506020830151610f486020860182610b17565b5060408301518482036040860152610f60828261097a565b9150508091505092915050565b5f6020820190508181035f830152610f858184610f20565b905092915050565b7f4e487b71000000000000000000000000000000000000000000000000000000005f52603260045260245ffd5b7f4b7573746f6d697a6174696f6e206e6f7420666f756e640000000000000000005f82015250565b5f610fee6017836108c1565b9150610ff982610fba565b602082019050919050565b5f6020820190508181035f83015261101b81610fe2565b9050919050565b7f6f6b0000000000000000000000000000000000000000000000000000000000005f82015250565b5f6110566002836108c1565b915061106182611022565b602082019050919050565b61107581610a9f565b82525050565b61108481610b26565b82525050565b5f6080820190508181035f8301526110a18161104a565b90506110b0602083018661106c565b6110bd604083018561107b565b81810360608301526110cf81846109d1565b9050949350505050565b7f506c616e206d757374206e6f7420626520656d707479000000000000000000005f82015250565b5f61110d6016836108c1565b9150611118826110d9565b602082019050919050565b5f6020820190508181035f83015261113a81611101565b9050919050565b7f5265706f206d757374206e6f7420626520656d707479000000000000000000005f82015250565b5f6111756016836108c1565b915061118082611141565b602082019050919050565b5f6020820190508181035f8301526111a281611169565b9050919050565b5f81905092915050565b5f6111bd826108b7565b6111c781856111a9565b93506111d78185602086016108d1565b80840191505092915050565b5f6111ee82866111b3565b91506111fa82856111b3565b915061120682846111b3565b9150819050949350505050565b5f6080820190508181035f83015261122b8187610909565b9050818103602083015261123f8186610909565b905081810360408301526112538185610909565b9050611262606083018461107b565b95945050505050565b5f81519050919050565b7f4e487b71000000000000000000000000000000000000000000000000000000005f52602260045260245ffd5b5f60028204905060018216806112b957607f821691505b6020821081036112cc576112cb611275565b5b50919050565b5f819050815f5260205f209050919050565b5f6020601f8301049050919050565b5f82821b905092915050565b5f6008830261132e7fffffffffffffffffffffffffffffffffffffffffffffffffffffffffffffffff826112f3565b61133886836112f3565b95508019841693508086168417925050509392505050565b5f819050919050565b5f61137361136e61136984610b26565b611350565b610b26565b9050919050565b5f819050919050565b61138c83611359565b6113a06113988261137a565b8484546112ff565b825550505050565b5f90565b6113b46113a8565b6113bf818484611383565b505050565b5b818110156113e2576113d75f826113ac565b6001810190506113c5565b5050565b601f821115611427576113f8816112d2565b611401846112e4565b81016020851015611410578190505b61142461141c856112e4565b8301826113c4565b50505b505050565b5f82821c905092915050565b5f6114475f198460080261142c565b1980831691505092915050565b5f61145f8383611438565b9150826002028217905092915050565b6114788261126b565b67ffffffffffffffff81111561149157611490610be0565b5b61149b82546112a2565b6114a68282856113e6565b5f60209050601f8311600181146114d7575f84156114c5578287015190505b6114cf8582611454565b865550611536565b601f1984166114e5866112d2565b5f5b8281101561150c578489015182556001820191506020850194506020810190506114e7565b868310156115295784890151611525601f891682611438565b8355505b6001600288020188555050505b505050505050565b7f2f6b7573746f6d697a6174696f6e2e79616d6c000000000000000000000000005f82015250565b5f6115726013836111a9565b915061157d8261153e565b601382019050919050565b5f61159382846111b3565b915061159e82611566565b915081905092915050565b7f2f676f746b2d636f6d706f6e656e74732e79616d6c00000000000000000000005f82015250565b5f6115dd6015836111a9565b91506115e8826115a9565b601582019050919050565b5f6115fe82846111b3565b9150611609826115d1565b915081905092915050565b5f6060820190508181035f83015261162b8161104a565b905061163a602083018561106c565b818103604083015261164c81846109d1565b90509392505050565b7f4368617274206d757374206e6f7420626520656d7074790000000000000000005f82015250565b5f6116896017836108c1565b915061169482611655565b602082019050919050565b5f6020820190508181035f8301526116b68161167d565b9050919050565b7f2d72656c656173650000000000000000000000000000000000000000000000005f82015250565b5f6116f16008836111a9565b91506116fc826116bd565b600882019050919050565b5f61171282846111b3565b915061171d826116e5565b915081905092915050565b5f819050815f5260205f209050919050565b601f82111561177b5761174c81611728565b611755846112e4565b81016020851015611764578190505b611778611770856112e4565b8301826113c4565b50505b505050565b611789826108b7565b67ffffffffffffffff8111156117a2576117a1610be0565b5b6117ac82546112a2565b6117b782828561173a565b5f60209050601f8311600181146117e8575f84156117d6578287015190505b6117e08582611454565b865550611847565b601f1984166117f686611728565b5f5b8281101561181d578489015182556001820191506020850194506020810190506117f8565b8683101561183a5784890151611836601f891682611438565b8355505b6001600288020188555050505b505050505050565b5f6040820190508181035f8301526118668161104a565b9050611875602083018461106c565b9291505056fea2646970667358221220d7f711281e7d54fbbd1791d322fcd4b038701bebc9b3bd3d115b30e8a1569f8664736f6c63430008140033","linkReferences":{}},"methodIdentifiers":{"emitManifests(string,string,string)":"bcd7d46e","helmRelease(bytes32,string,string)":"f5f24cc7","reconciliationStatus(bytes32)":"4b8bd9e1","register()":"1aa3a008"},"id":124}