{"abi":[{"type":"function","name":"execute","inputs":[{"name":"base","type":"bytes","internalType":"bytes"},{"name":"ours","type":"bytes","internalType":"bytes"},{"name":"theirs","type":"bytes","internalType":"bytes"}],"outputs":[{"name":"result","type":"bytes","internalType":"bytes"},{"name":"clean","type":"bool","internalType":"bool"}],"stateMutability":"nonpayable"},{"type":"function","name":"register","inputs":[],"outputs":[{"name":"name","type":"string","internalType":"string"},{"name":"category","type":"string","internalType":"string"},{"name":"contentTypes","type":"string[]","internalType":"string[]"}],"stateMutability":"pure"},{"type":"event","name":"MergeClean","inputs":[{"name":"resultHash","type":"bytes32","indexed":true,"internalType":"bytes32"}],"anonymous":false}],"bytecode":{"object":"0x608060405234801561000f575f80fd5b506106938061001d5f395ff3fe608060405234801561000f575f80fd5b5060043610610034575f3560e01c80631aa3a00814610038578063dc6ab7d414610058575b5f80fd5b610040610089565b60405161004f939291906103a3565b60405180910390f35b610072600480360381019061006d9190610456565b6101a8565b604051610080929190610572565b60405180910390f35b60608060606040518060400160405280600781526020017f6c6174746963650000000000000000000000000000000000000000000000000081525092506040518060400160405280600581526020017f6d657267650000000000000000000000000000000000000000000000000000008152509150600167ffffffffffffffff811115610119576101186105a0565b5b60405190808252806020026020018201604052801561014c57816020015b60608152602001906001900390816101375790505b5090506040518060400160405280601581526020017f6170706c69636174696f6e2f637264742b6a736f6e0000000000000000000000815250815f81518110610198576101976105cd565b5b6020026020010181905250909192565b60605f858585856040516020016101c29493929190610636565b60405160208183030381529060405291506001905081805190602001207f4498d66cbf34eccf4a18e0a78c9498bc001becc5a421689d8b070d10c724103260405160405180910390a2965096945050505050565b5f81519050919050565b5f82825260208201905092915050565b5f5b8381101561024d578082015181840152602081019050610232565b5f8484015250505050565b5f601f19601f8301169050919050565b5f61027282610216565b61027c8185610220565b935061028c818560208601610230565b61029581610258565b840191505092915050565b5f81519050919050565b5f82825260208201905092915050565b5f819050602082019050919050565b5f82825260208201905092915050565b5f6102e382610216565b6102ed81856102c9565b93506102fd818560208601610230565b61030681610258565b840191505092915050565b5f61031c83836102d9565b905092915050565b5f602082019050919050565b5f61033a826102a0565b61034481856102aa565b935083602082028501610356856102ba565b805f5b8581101561039157848403895281516103728582610311565b945061037d83610324565b925060208a01995050600181019050610359565b50829750879550505050505092915050565b5f6060820190508181035f8301526103bb8186610268565b905081810360208301526103cf8185610268565b905081810360408301526103e38184610330565b9050949350505050565b5f80fd5b5f80fd5b5f80fd5b5f80fd5b5f80fd5b5f8083601f840112610416576104156103f5565b5b8235905067ffffffffffffffff811115610433576104326103f9565b5b60208301915083600182028301111561044f5761044e6103fd565b5b9250929050565b5f805f805f80606087890312156104705761046f6103ed565b5b5f87013567ffffffffffffffff81111561048d5761048c6103f1565b5b61049989828a01610401565b9650965050602087013567ffffffffffffffff8111156104bc576104bb6103f1565b5b6104c889828a01610401565b9450945050604087013567ffffffffffffffff8111156104eb576104ea6103f1565b5b6104f789828a01610401565b92509250509295509295509295565b5f81519050919050565b5f82825260208201905092915050565b5f61052a82610506565b6105348185610510565b9350610544818560208601610230565b61054d81610258565b840191505092915050565b5f8115159050919050565b61056c81610558565b82525050565b5f6040820190508181035f83015261058a8185610520565b90506105996020830184610563565b9392505050565b7f4e487b71000000000000000000000000000000000000000000000000000000005f52604160045260245ffd5b7f4e487b71000000000000000000000000000000000000000000000000000000005f52603260045260245ffd5b5f81905092915050565b828183375f83830152505050565b5f61061d83856105fa565b935061062a838584610604565b82840190509392505050565b5f610642828688610612565b915061064f828486610612565b91508190509594505050505056fea2646970667358221220251ef78f1cae4e0296434cf68c3d6fdf21b3ebd4d6d49a31c0a7de58ad68e89f64736f6c63430008140033","linkReferences":{}},"methodIdentifiers":{"execute(bytes,bytes,bytes)":"dc6ab7d4","register()":"1aa3a008"},"id":162}