{"abi":[{"type":"function","name":"execute","inputs":[{"name":"pattern","type":"string","internalType":"string"},{"name":"tree","type":"string","internalType":"string"}],"outputs":[{"name":"queryId","type":"bytes32","internalType":"bytes32"},{"name":"matches","type":"string","internalType":"string"}],"stateMutability":"nonpayable"},{"type":"function","name":"initialize","inputs":[],"outputs":[{"name":"instance","type":"bytes32","internalType":"bytes32"}],"stateMutability":"nonpayable"},{"type":"function","name":"register","inputs":[],"outputs":[{"name":"name","type":"string","internalType":"string"},{"name":"category","type":"string","internalType":"string"}],"stateMutability":"pure"},{"type":"event","name":"Executed","inputs":[{"name":"queryId","type":"bytes32","indexed":true,"internalType":"bytes32"},{"name":"pattern","type":"string","indexed":false,"internalType":"string"}],"anonymous":false},{"type":"event","name":"Initialized","inputs":[{"name":"instance","type":"bytes32","indexed":false,"internalType":"bytes32"}],"anonymous":false},{"type":"event","name":"Registered","inputs":[{"name":"name","type":"string","indexed":false,"internalType":"string"},{"name":"category","type":"string","indexed":false,"internalType":"string"}],"anonymous":false}],"bytecode":{"object":"0x608060405234801561000f575f80fd5b50610d478061001d5f395ff3fe608060405234801561000f575f80fd5b506004361061003f575f3560e01c80631aa3a008146100435780638129fc1c146100625780638efdc15d14610080575b5f80fd5b61004b6100b1565b6040516100599291906103fb565b60405180910390f35b61006a610128565b6040516100779190610448565b60405180910390f35b61009a6004803603810190610095919061059e565b610213565b6040516100a8929190610614565b60405180910390f35b6060806040518060400160405280601181526020017f747265652d7369747465722d71756572790000000000000000000000000000008152506040518060400160405280600781526020017f7061747465726e00000000000000000000000000000000000000000000000000815250915091509091565b5f423360405160200161013c929190610734565b6040516020818303038152906040528051906020012090505f808281526020019081526020015f205f9054906101000a900460ff16156101b1576040517f08c379a00000000000000000000000000000000000000000000000000000000081526004016101a8906107b4565b60405180910390fd5b60015f808381526020019081526020015f205f6101000a81548160ff0219169083151502179055507fdc73717d728bcfa015e8117438a65319aa06e979ca324afa6e1ea645c28ea15d816040516102089190610448565b60405180910390a190565b5f60605f845111610259576040517f08c379a00000000000000000000000000000000000000000000000000000000081526004016102509061081c565b60405180910390fd5b5f83511161029c576040517f08c379a000000000000000000000000000000000000000000000000000000000815260040161029390610884565b60405180910390fd5b8383426040516020016102b1939291906108d2565b60405160208183030381529060405280519060200120915083836040516020016102dc9291906109e4565b60405160208183030381529060405290508060015f8481526020019081526020015f20908161030b9190610c22565b50600282908060018154018082558091505060019003905f5260205f20015f9091909190915055817f43ba30ef0572fb3cf8637bf7a0dd85a4bd41711b02d01c9880c14d5a7e972606856040516103629190610cf1565b60405180910390a29250929050565b5f81519050919050565b5f82825260208201905092915050565b5f5b838110156103a857808201518184015260208101905061038d565b5f8484015250505050565b5f601f19601f8301169050919050565b5f6103cd82610371565b6103d7818561037b565b93506103e781856020860161038b565b6103f0816103b3565b840191505092915050565b5f6040820190508181035f83015261041381856103c3565b9050818103602083015261042781846103c3565b90509392505050565b5f819050919050565b61044281610430565b82525050565b5f60208201905061045b5f830184610439565b92915050565b5f604051905090565b5f80fd5b5f80fd5b5f80fd5b5f80fd5b7f4e487b71000000000000000000000000000000000000000000000000000000005f52604160045260245ffd5b6104b0826103b3565b810181811067ffffffffffffffff821117156104cf576104ce61047a565b5b80604052505050565b5f6104e1610461565b90506104ed82826104a7565b919050565b5f67ffffffffffffffff82111561050c5761050b61047a565b5b610515826103b3565b9050602081019050919050565b828183375f83830152505050565b5f61054261053d846104f2565b6104d8565b90508281526020810184848401111561055e5761055d610476565b5b610569848285610522565b509392505050565b5f82601f83011261058557610584610472565b5b8135610595848260208601610530565b91505092915050565b5f80604083850312156105b4576105b361046a565b5b5f83013567ffffffffffffffff8111156105d1576105d061046e565b5b6105dd85828601610571565b925050602083013567ffffffffffffffff8111156105fe576105fd61046e565b5b61060a85828601610571565b9150509250929050565b5f6040820190506106275f830185610439565b818103602083015261063981846103c3565b90509392505050565b5f81905092915050565b7f747265652d7369747465722d71756572790000000000000000000000000000005f82015250565b5f610680601183610642565b915061068b8261064c565b601182019050919050565b5f819050919050565b5f819050919050565b6106b96106b482610696565b61069f565b82525050565b5f73ffffffffffffffffffffffffffffffffffffffff82169050919050565b5f6106e8826106bf565b9050919050565b5f8160601b9050919050565b5f610705826106ef565b9050919050565b5f610716826106fb565b9050919050565b61072e610729826106de565b61070c565b82525050565b5f61073e82610674565b915061074a82856106a8565b60208201915061075a828461071d565b6014820191508190509392505050565b7f496e7374616e636520616c7265616479206578697374730000000000000000005f82015250565b5f61079e60178361037b565b91506107a98261076a565b602082019050919050565b5f6020820190508181035f8301526107cb81610792565b9050919050565b7f5061747465726e2063616e6e6f7420626520656d7074790000000000000000005f82015250565b5f61080660178361037b565b9150610811826107d2565b602082019050919050565b5f6020820190508181035f830152610833816107fa565b9050919050565b7f547265652063616e6e6f7420626520656d7074790000000000000000000000005f82015250565b5f61086e60148361037b565b91506108798261083a565b602082019050919050565b5f6020820190508181035f83015261089b81610862565b9050919050565b5f6108ac82610371565b6108b68185610642565b93506108c681856020860161038b565b80840191505092915050565b5f6108dd82866108a2565b91506108e982856108a2565b91506108f582846106a8565b602082019150819050949350505050565b7f5b71756572793a000000000000000000000000000000000000000000000000005f82015250565b5f61093a600783610642565b915061094582610906565b600782019050919050565b7f2c747265653a00000000000000000000000000000000000000000000000000005f82015250565b5f610984600683610642565b915061098f82610950565b600682019050919050565b7f5d000000000000000000000000000000000000000000000000000000000000005f82015250565b5f6109ce600183610642565b91506109d98261099a565b600182019050919050565b5f6109ee8261092e565b91506109fa82856108a2565b9150610a0582610978565b9150610a1182846108a2565b9150610a1c826109c2565b91508190509392505050565b7f4e487b71000000000000000000000000000000000000000000000000000000005f52602260045260245ffd5b5f6002820490506001821680610a6c57607f821691505b602082108103610a7f57610a7e610a28565b5b50919050565b5f819050815f5260205f209050919050565b5f6020601f8301049050919050565b5f82821b905092915050565b5f60088302610ae17fffffffffffffffffffffffffffffffffffffffffffffffffffffffffffffffff82610aa6565b610aeb8683610aa6565b95508019841693508086168417925050509392505050565b5f819050919050565b5f610b26610b21610b1c84610696565b610b03565b610696565b9050919050565b5f819050919050565b610b3f83610b0c565b610b53610b4b82610b2d565b848454610ab2565b825550505050565b5f90565b610b67610b5b565b610b72818484610b36565b505050565b5b81811015610b9557610b8a5f82610b5f565b600181019050610b78565b5050565b601f821115610bda57610bab81610a85565b610bb484610a97565b81016020851015610bc3578190505b610bd7610bcf85610a97565b830182610b77565b50505b505050565b5f82821c905092915050565b5f610bfa5f1984600802610bdf565b1980831691505092915050565b5f610c128383610beb565b9150826002028217905092915050565b610c2b82610371565b67ffffffffffffffff811115610c4457610c4361047a565b5b610c4e8254610a55565b610c59828285610b99565b5f60209050601f831160018114610c8a575f8415610c78578287015190505b610c828582610c07565b865550610ce9565b601f198416610c9886610a85565b5f5b82811015610cbf57848901518255600182019150602085019450602081019050610c9a565b86831015610cdc5784890151610cd8601f891682610beb565b8355505b6001600288020188555050505b505050505050565b5f6020820190508181035f830152610d0981846103c3565b90509291505056fea2646970667358221220788ffb1b386f739cf985226973fa3f690e132d1b5145dfaac754c9105ba74e7064736f6c63430008140033","linkReferences":{}},"methodIdentifiers":{"execute(string,string)":"8efdc15d","initialize()":"8129fc1c","register()":"1aa3a008"},"id":302}