{"abi":[{"type":"function","name":"artifactExists","inputs":[{"name":"artifactId","type":"bytes32","internalType":"bytes32"}],"outputs":[{"name":"","type":"bool","internalType":"bool"}],"stateMutability":"view"},{"type":"function","name":"findByRole","inputs":[{"name":"role","type":"string","internalType":"string"}],"outputs":[{"name":"artifacts","type":"string","internalType":"string"}],"stateMutability":"view"},{"type":"function","name":"findGeneratedFrom","inputs":[{"name":"spec","type":"string","internalType":"string"}],"outputs":[{"name":"artifacts","type":"string","internalType":"string"}],"stateMutability":"view"},{"type":"function","name":"get","inputs":[{"name":"artifactId","type":"bytes32","internalType":"bytes32"}],"outputs":[{"name":"node","type":"string","internalType":"string"},{"name":"role","type":"string","internalType":"string"},{"name":"language","type":"string","internalType":"string"},{"name":"encoding","type":"string","internalType":"string"}],"stateMutability":"view"},{"type":"function","name":"register","inputs":[{"name":"node","type":"string","internalType":"string"},{"name":"role","type":"string","internalType":"string"},{"name":"language","type":"string","internalType":"string"}],"outputs":[{"name":"artifactId","type":"bytes32","internalType":"bytes32"}],"stateMutability":"nonpayable"},{"type":"function","name":"setProvenance","inputs":[{"name":"artifactId","type":"bytes32","internalType":"bytes32"},{"name":"spec","type":"string","internalType":"string"},{"name":"generator","type":"string","internalType":"string"}],"outputs":[],"stateMutability":"nonpayable"},{"type":"event","name":"FindByRoleCompleted","inputs":[{"name":"variant","type":"string","indexed":false,"internalType":"string"}],"anonymous":false},{"type":"event","name":"FindGeneratedFromCompleted","inputs":[{"name":"variant","type":"string","indexed":false,"internalType":"string"}],"anonymous":false},{"type":"event","name":"GetCompleted","inputs":[{"name":"variant","type":"string","indexed":false,"internalType":"string"},{"name":"artifact","type":"bytes32","indexed":false,"internalType":"bytes32"}],"anonymous":false},{"type":"event","name":"RegisterCompleted","inputs":[{"name":"variant","type":"string","indexed":false,"internalType":"string"},{"name":"artifact","type":"bytes32","indexed":false,"internalType":"bytes32"}],"anonymous":false},{"type":"event","name":"SetProvenanceCompleted","inputs":[{"name":"variant","type":"string","indexed":false,"internalType":"string"}],"anonymous":false}],"bytecode":{"object":"0x608060405234801561000f575f80fd5b506118e58061001d5f395ff3fe608060405234801561000f575f80fd5b5060043610610060575f3560e01c8063015c7130146100645780633dc10dc2146100945780634cd08d03146100c457806359868660146100f45780638eaa6ac014610110578063b2daca5c14610143575b5f80fd5b61007e60048036038101906100799190610c41565b610173565b60405161008b9190610d02565b60405180910390f35b6100ae60048036038101906100a99190610c41565b6102fa565b6040516100bb9190610d02565b60405180910390f35b6100de60048036038101906100d99190610d22565b610481565b6040516100eb9190610dde565b60405180910390f35b61010e60048036038101906101099190610e21565b610732565b005b61012a60048036038101906101259190610ea9565b61080d565b60405161013a9493929190610ed4565b60405180910390f35b61015d60048036038101906101589190610ea9565b610acc565b60405161016a9190610f4d565b60405180910390f35b60605f8251116101b8576040517f08c379a00000000000000000000000000000000000000000000000000000000081526004016101af90610fb0565b60405180910390fd5b5f8280519060200120905060605f805b6001805490508110156102cf575f600182815481106101ea576101e9610fce565b5b905f5260205f20015490505f808281526020019081526020015f206006015f9054906101000a900460ff1680156102475750845f808381526020019081526020015f2060040160405161023d91906110f4565b6040518091039020145b156102bb575f83111561027757836040516020016102659190611198565b60405160208183030381529060405293505b835f808381526020019081526020015f205f0160405160200161029b92919061124b565b604051602081830303815290604052935082806102b7906112a4565b9350505b5080806102c7906112a4565b9150506101c8565b50816040516020016102e1919061137f565b6040516020818303038152906040529350505050919050565b60605f82511161033f576040517f08c379a0000000000000000000000000000000000000000000000000000000008152600401610336906113f5565b60405180910390fd5b5f8280519060200120905060605f805b600180549050811015610456575f6001828154811061037157610370610fce565b5b905f5260205f20015490505f808281526020019081526020015f206006015f9054906101000a900460ff1680156103ce5750845f808381526020019081526020015f206001016040516103c491906110f4565b6040518091039020145b15610442575f8311156103fe57836040516020016103ec9190611198565b60405160208183030381529060405293505b835f808381526020019081526020015f205f0160405160200161042292919061124b565b6040516020818303038152906040529350828061043e906112a4565b9350505b50808061044e906112a4565b91505061034f565b5081604051602001610468919061137f565b6040516020818303038152906040529350505050919050565b5f808451116104c5576040517f08c379a00000000000000000000000000000000000000000000000000000000081526004016104bc9061145d565b60405180910390fd5b5f846040516020016104d791906114ab565b604051602081830303815290604052805190602001209050848484604051602001610504939291906114c1565b6040516020818303038152906040528051906020012091505f808381526020019081526020015f206006015f9054906101000a900460ff161561057c576040517f08c379a00000000000000000000000000000000000000000000000000000000081526004016105739061153b565b60405180910390fd5b6040518060e001604052808681526020018581526020018481526020016040518060400160405280600581526020017f7574662d38000000000000000000000000000000000000000000000000000000815250815260200160405180602001604052805f815250815260200160405180602001604052805f8152508152602001600115158152505f808481526020019081526020015f205f820151815f01908161062691906116e4565b50602082015181600101908161063c91906116e4565b50604082015181600201908161065291906116e4565b50606082015181600301908161066891906116e4565b50608082015181600401908161067e91906116e4565b5060a082015181600501908161069491906116e4565b5060c0820151816006015f6101000a81548160ff0219169083151502179055509050508160025f8381526020019081526020015f2081905550600182908060018154018082558091505060019003905f5260205f20015f90919091909150557f0402c886f5c1bb50afb826d1767a153123631152c678fbec8089e9e8ee3e49bf8260405161072291906117fd565b60405180910390a1509392505050565b5f808481526020019081526020015f206006015f9054906101000a900460ff16610791576040517f08c379a000000000000000000000000000000000000000000000000000000000815260040161078890611873565b60405180910390fd5b815f808581526020019081526020015f2060040190816107b191906116e4565b50805f808581526020019081526020015f2060050190816107d291906116e4565b507fef048e794157a0d11a6c12cebceca8a21c8aad894d8a585c3fafa2dd1b7340dc60405161080090611891565b60405180910390a1505050565b6060806060805f808681526020019081526020015f206006015f9054906101000a900460ff16610872576040517f08c379a000000000000000000000000000000000000000000000000000000000815260040161086990611873565b60405180910390fd5b5f805f8781526020019081526020015f209050805f018160010182600201836003018380546108a090611028565b80601f01602080910402602001604051908101604052809291908181526020018280546108cc90611028565b80156109175780601f106108ee57610100808354040283529160200191610917565b820191905f5260205f20905b8154815290600101906020018083116108fa57829003601f168201915b5050505050935082805461092a90611028565b80601f016020809104026020016040519081016040528092919081815260200182805461095690611028565b80156109a15780601f10610978576101008083540402835291602001916109a1565b820191905f5260205f20905b81548152906001019060200180831161098457829003601f168201915b505050505092508180546109b490611028565b80601f01602080910402602001604051908101604052809291908181526020018280546109e090611028565b8015610a2b5780601f10610a0257610100808354040283529160200191610a2b565b820191905f5260205f20905b815481529060010190602001808311610a0e57829003601f168201915b50505050509150808054610a3e90611028565b80601f0160208091040260200160405190810160405280929190818152602001828054610a6a90611028565b8015610ab55780601f10610a8c57610100808354040283529160200191610ab5565b820191905f5260205f20905b815481529060010190602001808311610a9857829003601f168201915b505050505090509450945094509450509193509193565b5f805f8381526020019081526020015f206006015f9054906101000a900460ff169050919050565b5f604051905090565b5f80fd5b5f80fd5b5f80fd5b5f80fd5b5f601f19601f8301169050919050565b7f4e487b71000000000000000000000000000000000000000000000000000000005f52604160045260245ffd5b610b5382610b0d565b810181811067ffffffffffffffff82111715610b7257610b71610b1d565b5b80604052505050565b5f610b84610af4565b9050610b908282610b4a565b919050565b5f67ffffffffffffffff821115610baf57610bae610b1d565b5b610bb882610b0d565b9050602081019050919050565b828183375f83830152505050565b5f610be5610be084610b95565b610b7b565b905082815260208101848484011115610c0157610c00610b09565b5b610c0c848285610bc5565b509392505050565b5f82601f830112610c2857610c27610b05565b5b8135610c38848260208601610bd3565b91505092915050565b5f60208284031215610c5657610c55610afd565b5b5f82013567ffffffffffffffff811115610c7357610c72610b01565b5b610c7f84828501610c14565b91505092915050565b5f81519050919050565b5f82825260208201905092915050565b5f5b83811015610cbf578082015181840152602081019050610ca4565b5f8484015250505050565b5f610cd482610c88565b610cde8185610c92565b9350610cee818560208601610ca2565b610cf781610b0d565b840191505092915050565b5f6020820190508181035f830152610d1a8184610cca565b905092915050565b5f805f60608486031215610d3957610d38610afd565b5b5f84013567ffffffffffffffff811115610d5657610d55610b01565b5b610d6286828701610c14565b935050602084013567ffffffffffffffff811115610d8357610d82610b01565b5b610d8f86828701610c14565b925050604084013567ffffffffffffffff811115610db057610daf610b01565b5b610dbc86828701610c14565b9150509250925092565b5f819050919050565b610dd881610dc6565b82525050565b5f602082019050610df15f830184610dcf565b92915050565b610e0081610dc6565b8114610e0a575f80fd5b50565b5f81359050610e1b81610df7565b92915050565b5f805f60608486031215610e3857610e37610afd565b5b5f610e4586828701610e0d565b935050602084013567ffffffffffffffff811115610e6657610e65610b01565b5b610e7286828701610c14565b925050604084013567ffffffffffffffff811115610e9357610e92610b01565b5b610e9f86828701610c14565b9150509250925092565b5f60208284031215610ebe57610ebd610afd565b5b5f610ecb84828501610e0d565b91505092915050565b5f6080820190508181035f830152610eec8187610cca565b90508181036020830152610f008186610cca565b90508181036040830152610f148185610cca565b90508181036060830152610f288184610cca565b905095945050505050565b5f8115159050919050565b610f4781610f33565b82525050565b5f602082019050610f605f830184610f3e565b92915050565b7f537065632063616e6e6f7420626520656d7074790000000000000000000000005f82015250565b5f610f9a601483610c92565b9150610fa582610f66565b602082019050919050565b5f6020820190508181035f830152610fc781610f8e565b9050919050565b7f4e487b71000000000000000000000000000000000000000000000000000000005f52603260045260245ffd5b7f4e487b71000000000000000000000000000000000000000000000000000000005f52602260045260245ffd5b5f600282049050600182168061103f57607f821691505b60208210810361105257611051610ffb565b5b50919050565b5f81905092915050565b5f819050815f5260205f209050919050565b5f815461108081611028565b61108a8186611058565b9450600182165f81146110a457600181146110b9576110eb565b60ff19831686528115158202860193506110eb565b6110c285611062565b5f5b838110156110e3578154818901526001820191506020810190506110c4565b838801955050505b50505092915050565b5f6110ff8284611074565b915081905092915050565b5f81519050919050565b5f61111e8261110a565b6111288185611058565b9350611138818560208601610ca2565b80840191505092915050565b5f81905092915050565b7f2c000000000000000000000000000000000000000000000000000000000000005f82015250565b5f611182600183611144565b915061118d8261114e565b600182019050919050565b5f6111a38284611114565b91506111ae82611176565b915081905092915050565b5f819050815f5260205f209050919050565b5f81546111d781611028565b6111e18186611144565b9450600182165f81146111fb576001811461121057611242565b60ff1983168652811515820286019350611242565b611219856111b9565b5f5b8381101561123a5781548189015260018201915060208101905061121b565b838801955050505b50505092915050565b5f6112568285611114565b915061126282846111cb565b91508190509392505050565b7f4e487b71000000000000000000000000000000000000000000000000000000005f52601160045260245ffd5b5f819050919050565b5f6112ae8261129b565b91507fffffffffffffffffffffffffffffffffffffffffffffffffffffffffffffffff82036112e0576112df61126e565b5b600182019050919050565b7f5b000000000000000000000000000000000000000000000000000000000000005f82015250565b5f61131f600183611144565b915061132a826112eb565b600182019050919050565b7f5d000000000000000000000000000000000000000000000000000000000000005f82015250565b5f611369600183611144565b915061137482611335565b600182019050919050565b5f61138982611313565b91506113958284611114565b91506113a08261135d565b915081905092915050565b7f526f6c652063616e6e6f7420626520656d7074790000000000000000000000005f82015250565b5f6113df601483610c92565b91506113ea826113ab565b602082019050919050565b5f6020820190508181035f83015261140c816113d3565b9050919050565b7f4e6f64652063616e6e6f7420626520656d7074790000000000000000000000005f82015250565b5f611447601483610c92565b915061145282611413565b602082019050919050565b5f6020820190508181035f8301526114748161143b565b9050919050565b5f61148582610c88565b61148f8185611144565b935061149f818560208601610ca2565b80840191505092915050565b5f6114b6828461147b565b915081905092915050565b5f6114cc828661147b565b91506114d8828561147b565b91506114e4828461147b565b9150819050949350505050565b7f417274696661637420616c7265616479207265676973746572656400000000005f82015250565b5f611525601b83610c92565b9150611530826114f1565b602082019050919050565b5f6020820190508181035f83015261155281611519565b9050919050565b5f6020601f8301049050919050565b5f82821b905092915050565b5f600883026115a37fffffffffffffffffffffffffffffffffffffffffffffffffffffffffffffffff82611568565b6115ad8683611568565b95508019841693508086168417925050509392505050565b5f819050919050565b5f6115e86115e36115de8461129b565b6115c5565b61129b565b9050919050565b5f819050919050565b611601836115ce565b61161561160d826115ef565b848454611574565b825550505050565b5f90565b61162961161d565b6116348184846115f8565b505050565b5b818110156116575761164c5f82611621565b60018101905061163a565b5050565b601f82111561169c5761166d816111b9565b61167684611559565b81016020851015611685578190505b61169961169185611559565b830182611639565b50505b505050565b5f82821c905092915050565b5f6116bc5f19846008026116a1565b1980831691505092915050565b5f6116d483836116ad565b9150826002028217905092915050565b6116ed82610c88565b67ffffffffffffffff81111561170657611705610b1d565b5b6117108254611028565b61171b82828561165b565b5f60209050601f83116001811461174c575f841561173a578287015190505b61174485826116c9565b8655506117ab565b601f19841661175a866111b9565b5f5b828110156117815784890151825560018201915060208501945060208101905061175c565b8683101561179e578489015161179a601f8916826116ad565b8355505b6001600288020188555050505b505050505050565b7f6f6b0000000000000000000000000000000000000000000000000000000000005f82015250565b5f6117e7600283610c92565b91506117f2826117b3565b602082019050919050565b5f6040820190508181035f830152611814816117db565b90506118236020830184610dcf565b92915050565b7f4172746966616374206e6f7420666f756e6400000000000000000000000000005f82015250565b5f61185d601283610c92565b915061186882611829565b602082019050919050565b5f6020820190508181035f83015261188a81611851565b9050919050565b5f6020820190508181035f8301526118a8816117db565b905091905056fea2646970667358221220daa6c5beeed1c3e84950c2d784a320342a3c79aae57874655b9784579b22da9164736f6c63430008140033","linkReferences":{}},"methodIdentifiers":{"artifactExists(bytes32)":"b2daca5c","findByRole(string)":"3dc10dc2","findGeneratedFrom(string)":"015c7130","get(bytes32)":"8eaa6ac0","register(string,string,string)":"4cd08d03","setProvenance(bytes32,string,string)":"59868660"},"id":120}