{"abi":[{"type":"function","name":"checkOverrides","inputs":[{"name":"path","type":"string","internalType":"string"}],"outputs":[{"name":"result","type":"tuple","internalType":"struct KitManager.CheckOverridesOkResult","components":[{"name":"success","type":"bool","internalType":"bool"},{"name":"valid","type":"int256","internalType":"int256"},{"name":"warnings","type":"string[]","internalType":"string[]"}]}],"stateMutability":"nonpayable"},{"type":"function","name":"getKit","inputs":[{"name":"kitId","type":"bytes32","internalType":"bytes32"}],"outputs":[{"name":"name","type":"string","internalType":"string"},{"name":"path","type":"string","internalType":"string"}],"stateMutability":"view"},{"type":"function","name":"init","inputs":[{"name":"name","type":"string","internalType":"string"}],"outputs":[{"name":"result","type":"tuple","internalType":"struct KitManager.InitOkResult","components":[{"name":"success","type":"bool","internalType":"bool"},{"name":"kit","type":"bytes32","internalType":"bytes32"},{"name":"path","type":"string","internalType":"string"}]}],"stateMutability":"nonpayable"},{"type":"function","name":"kitCount","inputs":[],"outputs":[{"name":"","type":"uint256","internalType":"uint256"}],"stateMutability":"view"},{"type":"function","name":"kitExists","inputs":[{"name":"name","type":"string","internalType":"string"}],"outputs":[{"name":"","type":"bool","internalType":"bool"}],"stateMutability":"view"},{"type":"function","name":"list","inputs":[],"outputs":[{"name":"result","type":"tuple","internalType":"struct KitManager.ListOkResult","components":[{"name":"success","type":"bool","internalType":"bool"},{"name":"suites","type":"string[]","internalType":"string[]"}]}],"stateMutability":"nonpayable"},{"type":"function","name":"runTests","inputs":[{"name":"path","type":"string","internalType":"string"}],"outputs":[{"name":"result","type":"tuple","internalType":"struct KitManager.TestOkResult","components":[{"name":"success","type":"bool","internalType":"bool"},{"name":"kit","type":"bytes32","internalType":"bytes32"},{"name":"passed","type":"int256","internalType":"int256"},{"name":"failed","type":"int256","internalType":"int256"}]}],"stateMutability":"nonpayable"},{"type":"function","name":"validate","inputs":[{"name":"path","type":"string","internalType":"string"}],"outputs":[{"name":"result","type":"tuple","internalType":"struct KitManager.ValidateOkResult","components":[{"name":"success","type":"bool","internalType":"bool"},{"name":"kit","type":"bytes32","internalType":"bytes32"},{"name":"concepts","type":"int256","internalType":"int256"},{"name":"syncs","type":"int256","internalType":"int256"}]}],"stateMutability":"nonpayable"},{"type":"event","name":"CheckOverridesCompleted","inputs":[{"name":"variant","type":"string","indexed":false,"internalType":"string"},{"name":"valid","type":"int256","indexed":false,"internalType":"int256"},{"name":"warnings","type":"string[]","indexed":false,"internalType":"string[]"}],"anonymous":false},{"type":"event","name":"InitCompleted","inputs":[{"name":"variant","type":"string","indexed":false,"internalType":"string"},{"name":"kit","type":"bytes32","indexed":false,"internalType":"bytes32"}],"anonymous":false},{"type":"event","name":"ListCompleted","inputs":[{"name":"variant","type":"string","indexed":false,"internalType":"string"},{"name":"suites","type":"string[]","indexed":false,"internalType":"string[]"}],"anonymous":false},{"type":"event","name":"TestCompleted","inputs":[{"name":"variant","type":"string","indexed":false,"internalType":"string"},{"name":"kit","type":"bytes32","indexed":false,"internalType":"bytes32"},{"name":"passed","type":"int256","indexed":false,"internalType":"int256"},{"name":"failed","type":"int256","indexed":false,"internalType":"int256"}],"anonymous":false},{"type":"event","name":"ValidateCompleted","inputs":[{"name":"variant","type":"string","indexed":false,"internalType":"string"},{"name":"kit","type":"bytes32","indexed":false,"internalType":"bytes32"},{"name":"concepts","type":"int256","indexed":false,"internalType":"int256"},{"name":"syncs","type":"int256","indexed":false,"internalType":"int256"}],"anonymous":false}],"bytecode":{"object":"0x608060405234801561000f575f80fd5b50611cde8061001d5f395ff3fe608060405234801561000f575f80fd5b5060043610610086575f3560e01c80637506ab54116100595780637506ab5414610139578063a32933d014610157578063d182b83b14610187578063f9fbdb9e146101b757610086565b80630f560cd71461008a5780632fc5244f146100a8578063646d4de8146100d85780636abfe4ca14610108575b5f80fd5b6100926101e7565b60405161009f9190610d92565b60405180910390f35b6100c260048036038101906100bd9190610eef565b610310565b6040516100cf9190610f9b565b60405180910390f35b6100f260048036038101906100ed9190610eef565b610450565b6040516100ff9190611026565b60405180910390f35b610122600480360381019061011d9190611069565b610573565b6040516101309291906110dc565b60405180910390f35b61014161070d565b60405161014e9190611129565b60405180910390f35b610171600480360381019061016c9190610eef565b610719565b60405161017e9190611151565b60405180910390f35b6101a1600480360381019061019c9190610eef565b610763565b6040516101ae91906111bd565b60405180910390f35b6101d160048036038101906101cc9190610eef565b61089c565b6040516101de9190611223565b60405180910390f35b6101ef610b47565b60405180604001604052806001151581526020016003805480602002602001604051908101604052809291908181526020015f905b828210156102cc578382905f5260205f2001805461024190611270565b80601f016020809104026020016040519081016040528092919081815260200182805461026d90611270565b80156102b85780601f1061028f576101008083540402835291602001916102b8565b820191905f5260205f20905b81548152906001019060200180831161029b57829003601f168201915b505050505081526020019060010190610224565b5050505081525090507f99a1d484152824ed0625cc71076e3803c850a7eb5bb1e3524b8f27044f7fd3cf6003604051610305919061143a565b60405180910390a190565b610318610b62565b5f82511161035b576040517f08c379a0000000000000000000000000000000000000000000000000000000008152600401610352906114b7565b60405180910390fd5b5f8067ffffffffffffffff81111561037657610375610dcb565b5b6040519080825280602002602001820160405280156103a957816020015b60608152602001906001900390816103945790505b5090505f6001600a856040516020016103c2919061150f565b604051602081830303815290604052805190602001205f1c6103e49190611552565b6103ee91906115af565b905060405180606001604052806001151581526020018281526020018381525092507f12599897dde29c18dbe06971e6d8c5578cca50b95b244dbfee3cc605cb93a7ec8183604051610441929190611672565b60405180910390a15050919050565b610458610b83565b5f82511161049b576040517f08c379a0000000000000000000000000000000000000000000000000000000008152600401610492906114b7565b60405180910390fd5b5f826040516020016104ad91906116fd565b6040516020818303038152906040528051906020012090505f60016032856040516020016104db919061150f565b604051602081830303815290604052805190602001205f1c6104fd9190611552565b61050791906115af565b90505f60405180608001604052806001151581526020018481526020018381526020018281525093507fb4360d7b86ee54d6f7b34565c2d8ae080b52f1787e239e194b41a5b5266497878383836040516105639392919061172d565b60405180910390a1505050919050565b6060805f808481526020019081526020015f206005015f9054906101000a900460ff166105d5576040517f08c379a00000000000000000000000000000000000000000000000000000000081526004016105cc906117bf565b60405180910390fd5b5f805f8581526020019081526020015f209050805f01816001018180546105fb90611270565b80601f016020809104026020016040519081016040528092919081815260200182805461062790611270565b80156106725780601f1061064957610100808354040283529160200191610672565b820191905f5260205f20905b81548152906001019060200180831161065557829003601f168201915b5050505050915080805461068590611270565b80601f01602080910402602001604051908101604052809291908181526020018280546106b190611270565b80156106fc5780601f106106d3576101008083540402835291602001916106fc565b820191905f5260205f20905b8154815290600101906020018083116106df57829003601f168201915b505050505090509250925050915091565b5f600280549050905090565b5f808260405160200161072c919061150f565b6040516020818303038152906040528051906020012090505f801b60015f8381526020019081526020015f20541415915050919050565b61076b610bac565b5f8251116107ae576040517f08c379a00000000000000000000000000000000000000000000000000000000081526004016107a5906114b7565b60405180910390fd5b5f826040516020016107c0919061150f565b6040516020818303038152906040528051906020012090505f836040516020016107ea9190611827565b6040516020818303038152906040528051906020012090505f60016014845f1c6108149190611552565b61081e91906115af565b90505f600a845f1c6108309190611552565b905060405180608001604052806001151581526020018481526020018381526020018281525094507f45486ba2fdc0071c79073bff10d2cc0a03f99d64b1602655edb8404151a136f583838360405161088b9392919061172d565b60405180910390a150505050919050565b6108a4610bd5565b5f8251116108e7576040517f08c379a00000000000000000000000000000000000000000000000000000000081526004016108de90611892565b60405180910390fd5b5f826040516020016108f9919061150f565b6040516020818303038152906040528051906020012090505f801b60015f8381526020019081526020015f205414610966576040517f08c379a000000000000000000000000000000000000000000000000000000000815260040161095d906118fa565b60405180910390fd5b5f834260045460405160200161097e93929190611938565b60405160208183030381529060405280519060200120905060045f8154809291906109a890611970565b91905055505f846040516020016109bf9190611a01565b60405160208183030381529060405290506040518060c001604052808681526020018281526020015f81526020015f8152602001428152602001600115158152505f808481526020019081526020015f205f820151815f019081610a239190611bad565b506020820151816001019081610a399190611bad565b5060408201518160020155606082015181600301556080820151816004015560a0820151816005015f6101000a81548160ff0219169083151502179055509050508160015f8581526020019081526020015f2081905550600282908060018154018082558091505060019003905f5260205f20015f9091909190915055600385908060018154018082558091505060019003905f5260205f20015f909190919091509081610ae79190611bad565b5060405180606001604052806001151581526020018381526020018281525093507f40653d1cd47893111df48722f6558adcb46c9f688377b3d31ee666a51cbe2ea682604051610b379190611c7c565b60405180910390a1505050919050565b60405180604001604052805f15158152602001606081525090565b60405180606001604052805f151581526020015f8152602001606081525090565b60405180608001604052805f151581526020015f80191681526020015f81526020015f81525090565b60405180608001604052805f151581526020015f80191681526020015f81526020015f81525090565b60405180606001604052805f151581526020015f8019168152602001606081525090565b5f8115159050919050565b610c0d81610bf9565b82525050565b5f81519050919050565b5f82825260208201905092915050565b5f819050602082019050919050565b5f81519050919050565b5f82825260208201905092915050565b5f5b83811015610c73578082015181840152602081019050610c58565b5f8484015250505050565b5f601f19601f8301169050919050565b5f610c9882610c3c565b610ca28185610c46565b9350610cb2818560208601610c56565b610cbb81610c7e565b840191505092915050565b5f610cd18383610c8e565b905092915050565b5f602082019050919050565b5f610cef82610c13565b610cf98185610c1d565b935083602082028501610d0b85610c2d565b805f5b85811015610d465784840389528151610d278582610cc6565b9450610d3283610cd9565b925060208a01995050600181019050610d0e565b50829750879550505050505092915050565b5f604083015f830151610d6d5f860182610c04565b5060208301518482036020860152610d858282610ce5565b9150508091505092915050565b5f6020820190508181035f830152610daa8184610d58565b905092915050565b5f604051905090565b5f80fd5b5f80fd5b5f80fd5b5f80fd5b7f4e487b71000000000000000000000000000000000000000000000000000000005f52604160045260245ffd5b610e0182610c7e565b810181811067ffffffffffffffff82111715610e2057610e1f610dcb565b5b80604052505050565b5f610e32610db2565b9050610e3e8282610df8565b919050565b5f67ffffffffffffffff821115610e5d57610e5c610dcb565b5b610e6682610c7e565b9050602081019050919050565b828183375f83830152505050565b5f610e93610e8e84610e43565b610e29565b905082815260208101848484011115610eaf57610eae610dc7565b5b610eba848285610e73565b509392505050565b5f82601f830112610ed657610ed5610dc3565b5b8135610ee6848260208601610e81565b91505092915050565b5f60208284031215610f0457610f03610dbb565b5b5f82013567ffffffffffffffff811115610f2157610f20610dbf565b5b610f2d84828501610ec2565b91505092915050565b5f819050919050565b610f4881610f36565b82525050565b5f606083015f830151610f635f860182610c04565b506020830151610f766020860182610f3f565b5060408301518482036040860152610f8e8282610ce5565b9150508091505092915050565b5f6020820190508181035f830152610fb38184610f4e565b905092915050565b5f819050919050565b610fcd81610fbb565b82525050565b608082015f820151610fe75f850182610c04565b506020820151610ffa6020850182610fc4565b50604082015161100d6040850182610f3f565b5060608201516110206060850182610f3f565b50505050565b5f6080820190506110395f830184610fd3565b92915050565b61104881610fbb565b8114611052575f80fd5b50565b5f813590506110638161103f565b92915050565b5f6020828403121561107e5761107d610dbb565b5b5f61108b84828501611055565b91505092915050565b5f82825260208201905092915050565b5f6110ae82610c3c565b6110b88185611094565b93506110c8818560208601610c56565b6110d181610c7e565b840191505092915050565b5f6040820190508181035f8301526110f481856110a4565b9050818103602083015261110881846110a4565b90509392505050565b5f819050919050565b61112381611111565b82525050565b5f60208201905061113c5f83018461111a565b92915050565b61114b81610bf9565b82525050565b5f6020820190506111645f830184611142565b92915050565b608082015f82015161117e5f850182610c04565b5060208201516111916020850182610fc4565b5060408201516111a46040850182610f3f565b5060608201516111b76060850182610f3f565b50505050565b5f6080820190506111d05f83018461116a565b92915050565b5f606083015f8301516111eb5f860182610c04565b5060208301516111fe6020860182610fc4565b50604083015184820360408601526112168282610c8e565b9150508091505092915050565b5f6020820190508181035f83015261123b81846111d6565b905092915050565b7f4e487b71000000000000000000000000000000000000000000000000000000005f52602260045260245ffd5b5f600282049050600182168061128757607f821691505b60208210810361129a57611299611243565b5b50919050565b7f6f6b0000000000000000000000000000000000000000000000000000000000005f82015250565b5f6112d4600283611094565b91506112df826112a0565b602082019050919050565b5f81549050919050565b5f82825260208201905092915050565b5f819050815f5260205f209050919050565b5f819050815f5260205f209050919050565b5f815461133481611270565b61133e8186610c46565b9450600182165f8114611358576001811461136e576113a0565b60ff1983168652811515602002860193506113a0565b61137785611316565b5f5b8381101561139857815481890152600182019150602081019050611379565b808801955050505b50505092915050565b5f6113b48383611328565b905092915050565b5f600182019050919050565b5f6113d2826112ea565b6113dc81856112f4565b9350836020820285016113ee85611304565b805f5b858110156114285784840389528161140985826113a9565b9450611414836113bc565b925060208a019950506001810190506113f1565b50829750879550505050505092915050565b5f6040820190508181035f830152611451816112c8565b9050818103602083015261146581846113c8565b905092915050565b7f506174682063616e6e6f7420626520656d7074790000000000000000000000005f82015250565b5f6114a1601483611094565b91506114ac8261146d565b602082019050919050565b5f6020820190508181035f8301526114ce81611495565b9050919050565b5f81905092915050565b5f6114e982610c3c565b6114f381856114d5565b9350611503818560208601610c56565b80840191505092915050565b5f61151a82846114df565b915081905092915050565b7f4e487b71000000000000000000000000000000000000000000000000000000005f52601260045260245ffd5b5f61155c82611111565b915061156783611111565b92508261157757611576611525565b5b828206905092915050565b7f4e487b71000000000000000000000000000000000000000000000000000000005f52601160045260245ffd5b5f6115b982610f36565b91506115c483610f36565b92508282019050828112155f8312168382125f8412151617156115ea576115e9611582565b5b92915050565b6115f981610f36565b82525050565b5f61160982610c13565b61161381856112f4565b93508360208202850161162585610c2d565b805f5b8581101561166057848403895281516116418582610cc6565b945061164c83610cd9565b925060208a01995050600181019050611628565b50829750879550505050505092915050565b5f6060820190508181035f830152611689816112c8565b905061169860208301856115f0565b81810360408301526116aa81846115ff565b90509392505050565b7f74657374000000000000000000000000000000000000000000000000000000005f82015250565b5f6116e76004836114d5565b91506116f2826116b3565b600482019050919050565b5f61170882846114df565b9150611713826116db565b915081905092915050565b61172781610fbb565b82525050565b5f6080820190508181035f830152611744816112c8565b9050611753602083018661171e565b61176060408301856115f0565b61176d60608301846115f0565b949350505050565b7f4b6974206e6f7420666f756e64000000000000000000000000000000000000005f82015250565b5f6117a9600d83611094565b91506117b482611775565b602082019050919050565b5f6020820190508181035f8301526117d68161179d565b9050919050565b7f76616c69646174650000000000000000000000000000000000000000000000005f82015250565b5f6118116008836114d5565b915061181c826117dd565b600882019050919050565b5f61183282846114df565b915061183d82611805565b915081905092915050565b7f4e616d652063616e6e6f7420626520656d7074790000000000000000000000005f82015250565b5f61187c601483611094565b915061188782611848565b602082019050919050565b5f6020820190508181035f8301526118a981611870565b9050919050565b7f4b697420616c72656164792065786973747300000000000000000000000000005f82015250565b5f6118e4601283611094565b91506118ef826118b0565b602082019050919050565b5f6020820190508181035f830152611911816118d8565b9050919050565b5f819050919050565b61193261192d82611111565b611918565b82525050565b5f61194382866114df565b915061194f8285611921565b60208201915061195f8284611921565b602082019150819050949350505050565b5f61197a82611111565b91507fffffffffffffffffffffffffffffffffffffffffffffffffffffffffffffffff82036119ac576119ab611582565b5b600182019050919050565b7f2e2f7375697465732f00000000000000000000000000000000000000000000005f82015250565b5f6119eb6009836114d5565b91506119f6826119b7565b600982019050919050565b5f611a0b826119df565b9150611a1782846114df565b915081905092915050565b5f6020601f8301049050919050565b5f82821b905092915050565b5f60088302611a6c7fffffffffffffffffffffffffffffffffffffffffffffffffffffffffffffffff82611a31565b611a768683611a31565b95508019841693508086168417925050509392505050565b5f819050919050565b5f611ab1611aac611aa784611111565b611a8e565b611111565b9050919050565b5f819050919050565b611aca83611a97565b611ade611ad682611ab8565b848454611a3d565b825550505050565b5f90565b611af2611ae6565b611afd818484611ac1565b505050565b5b81811015611b2057611b155f82611aea565b600181019050611b03565b5050565b601f821115611b6557611b3681611316565b611b3f84611a22565b81016020851015611b4e578190505b611b62611b5a85611a22565b830182611b02565b50505b505050565b5f82821c905092915050565b5f611b855f1984600802611b6a565b1980831691505092915050565b5f611b9d8383611b76565b9150826002028217905092915050565b611bb682610c3c565b67ffffffffffffffff811115611bcf57611bce610dcb565b5b611bd98254611270565b611be4828285611b24565b5f60209050601f831160018114611c15575f8415611c03578287015190505b611c0d8582611b92565b865550611c74565b601f198416611c2386611316565b5f5b82811015611c4a57848901518255600182019150602085019450602081019050611c25565b86831015611c675784890151611c63601f891682611b76565b8355505b6001600288020188555050505b505050505050565b5f6040820190508181035f830152611c93816112c8565b9050611ca2602083018461171e565b9291505056fea264697066735822122040ba73f8e83e2b49f5469cb8572e997d3276e14664400bd4d983017bac3784f464736f6c63430008140033","linkReferences":{}},"methodIdentifiers":{"checkOverrides(string)":"2fc5244f","getKit(bytes32)":"6abfe4ca","init(string)":"f9fbdb9e","kitCount()":"7506ab54","kitExists(string)":"a32933d0","list()":"0f560cd7","runTests(string)":"646d4de8","validate(string)":"d182b83b"},"id":21}