{"abi":[{"type":"function","name":"initialize","inputs":[],"outputs":[{"name":"","type":"tuple","internalType":"struct DatalogDependenceProvider.InitializeOkResult","components":[{"name":"success","type":"bool","internalType":"bool"},{"name":"instance","type":"bytes32","internalType":"bytes32"}]}],"stateMutability":"nonpayable"},{"type":"function","name":"register","inputs":[],"outputs":[{"name":"name","type":"string","internalType":"string"},{"name":"category","type":"string","internalType":"string"}],"stateMutability":"pure"},{"type":"event","name":"InitializeCompleted","inputs":[{"name":"variant","type":"string","indexed":false,"internalType":"string"},{"name":"instance","type":"bytes32","indexed":false,"internalType":"bytes32"}],"anonymous":false}],"bytecode":{"object":"0x608060405234801561000f575f80fd5b506104df8061001d5f395ff3fe608060405234801561000f575f80fd5b5060043610610034575f3560e01c80631aa3a008146100385780638129fc1c14610057575b5f80fd5b610040610075565b60405161004e92919061026f565b60405180910390f35b61005f6100ec565b60405161006c9190610303565b60405180910390f35b6060806040518060400160405280600781526020017f646174616c6f67000000000000000000000000000000000000000000000000008152506040518060400160405280600a81526020017f646570656e64656e636500000000000000000000000000000000000000000000815250915091509091565b6100f46101c8565b5f4260018054905060405160200161010d9291906103e3565b60405160208183030381529060405280519060200120905060015f808381526020019081526020015f205f6101000a81548160ff021916908315150217905550600181908060018154018082558091505060019003905f5260205f20015f90919091909150557f6f0ecaf1f0db840c4b94bdc86e7febd8c9ec46d7b4c4c60c01514ea1aa157c91816040516101a2919061047d565b60405180910390a160405180604001604052806001151581526020018281525091505090565b60405180604001604052805f151581526020015f80191681525090565b5f81519050919050565b5f82825260208201905092915050565b5f5b8381101561021c578082015181840152602081019050610201565b5f8484015250505050565b5f601f19601f8301169050919050565b5f610241826101e5565b61024b81856101ef565b935061025b8185602086016101ff565b61026481610227565b840191505092915050565b5f6040820190508181035f8301526102878185610237565b9050818103602083015261029b8184610237565b90509392505050565b5f8115159050919050565b6102b8816102a4565b82525050565b5f819050919050565b6102d0816102be565b82525050565b604082015f8201516102ea5f8501826102af565b5060208201516102fd60208501826102c7565b50505050565b5f6040820190506103165f8301846102d6565b92915050565b5f81905092915050565b7f646174616c6f67000000000000000000000000000000000000000000000000005f82015250565b5f61035a60078361031c565b915061036582610326565b600782019050919050565b7f646570656e64656e6365000000000000000000000000000000000000000000005f82015250565b5f6103a4600a8361031c565b91506103af82610370565b600a82019050919050565b5f819050919050565b5f819050919050565b6103dd6103d8826103ba565b6103c3565b82525050565b5f6103ed8261034e565b91506103f882610398565b915061040482856103cc565b60208201915061041482846103cc565b6020820191508190509392505050565b7f6f6b0000000000000000000000000000000000000000000000000000000000005f82015250565b5f6104586002836101ef565b915061046382610424565b602082019050919050565b610477816102be565b82525050565b5f6040820190508181035f8301526104948161044c565b90506104a3602083018461046e565b9291505056fea2646970667358221220e9b4183d1f3dfbc2bd63056a33c5178de473bb58ac763a71233ec02e05bc22fa64736f6c63430008140033","linkReferences":{}},"methodIdentifiers":{"initialize()":"8129fc1c","register()":"1aa3a008"},"id":91}