{"abi":[{"type":"function","name":"getLabel","inputs":[{"name":"addr","type":"address","internalType":"address"}],"outputs":[{"name":"label","type":"string","internalType":"string"}],"stateMutability":"view"},{"type":"function","name":"getNonce","inputs":[{"name":"addr","type":"address","internalType":"address"}],"outputs":[{"name":"nonce","type":"uint256","internalType":"uint256"}],"stateMutability":"view"},{"type":"function","name":"incrementNonce","inputs":[{"name":"addr","type":"address","internalType":"address"}],"outputs":[{"name":"newNonce","type":"uint256","internalType":"uint256"}],"stateMutability":"nonpayable"},{"type":"function","name":"isKnown","inputs":[{"name":"addr","type":"address","internalType":"address"}],"outputs":[{"name":"","type":"bool","internalType":"bool"}],"stateMutability":"view"},{"type":"function","name":"setLabel","inputs":[{"name":"addr","type":"address","internalType":"address"},{"name":"label","type":"string","internalType":"string"}],"outputs":[],"stateMutability":"nonpayable"},{"type":"function","name":"verify","inputs":[{"name":"claimed","type":"address","internalType":"address"},{"name":"messageHash","type":"bytes32","internalType":"bytes32"},{"name":"signature","type":"bytes","internalType":"bytes"}],"outputs":[{"name":"success","type":"bool","internalType":"bool"},{"name":"recovered","type":"address","internalType":"address"}],"stateMutability":"nonpayable"},{"type":"event","name":"NonceIncremented","inputs":[{"name":"addr","type":"address","indexed":true,"internalType":"address"},{"name":"newNonce","type":"uint256","indexed":false,"internalType":"uint256"}],"anonymous":false},{"type":"event","name":"Verified","inputs":[{"name":"claimed","type":"address","indexed":true,"internalType":"address"},{"name":"recovered","type":"address","indexed":true,"internalType":"address"},{"name":"success","type":"bool","indexed":false,"internalType":"bool"}],"anonymous":false}],"bytecode":{"object":"0x608060405234801561000f575f80fd5b506111558061001d5f395ff3fe608060405234801561000f575f80fd5b5060043610610060575f3560e01c80631a86b5501461006457806328a249b0146100955780632d0335ab146100c55780636e09999e146100f5578063d18232d914610125578063f5743c4c14610141575b5f80fd5b61007e600480360381019061007991906109aa565b610171565b60405161008c929190610a44565b60405180910390f35b6100af60048036038101906100aa9190610a6b565b6103f8565b6040516100bc9190610b20565b60405180910390f35b6100df60048036038101906100da9190610a6b565b6104c5565b6040516100ec9190610b58565b60405180910390f35b61010f600480360381019061010a9190610a6b565b61050a565b60405161011c9190610b71565b60405180910390f35b61013f600480360381019061013a9190610bdf565b61055c565b005b61015b60048036038101906101569190610a6b565b6106bf565b6040516101689190610b58565b60405180910390f35b5f80604184849050146101b9576040517f08c379a00000000000000000000000000000000000000000000000000000000081526004016101b090610c86565b60405180910390fd5b5f805f863592506020870135915060408701355f1a9050601b8160ff1610156101ec57601b816101e99190610cdd565b90505b6001888285856040515f815260200160405260405161020e9493929190610d2f565b6020604051602081039080840390855afa15801561022e573d5f803e3d5ffd5b5050506020604051035193508873ffffffffffffffffffffffffffffffffffffffff168473ffffffffffffffffffffffffffffffffffffffff161480156102a157505f73ffffffffffffffffffffffffffffffffffffffff168473ffffffffffffffffffffffffffffffffffffffff1614155b945060015f8a73ffffffffffffffffffffffffffffffffffffffff1673ffffffffffffffffffffffffffffffffffffffff1681526020019081526020015f205f9054906101000a900460ff16610387576001805f8b73ffffffffffffffffffffffffffffffffffffffff1673ffffffffffffffffffffffffffffffffffffffff1681526020019081526020015f205f6101000a81548160ff0219169083151502179055505f805f8b73ffffffffffffffffffffffffffffffffffffffff1673ffffffffffffffffffffffffffffffffffffffff1681526020019081526020015f20819055505b8373ffffffffffffffffffffffffffffffffffffffff168973ffffffffffffffffffffffffffffffffffffffff167f17db05a2cba7b77793d4acee970b02b2aff0e0306d9a1176b459853c00c76494876040516103e49190610b71565b60405180910390a350505094509492505050565b606060025f8373ffffffffffffffffffffffffffffffffffffffff1673ffffffffffffffffffffffffffffffffffffffff1681526020019081526020015f20805461044290610d9f565b80601f016020809104026020016040519081016040528092919081815260200182805461046e90610d9f565b80156104b95780601f10610490576101008083540402835291602001916104b9565b820191905f5260205f20905b81548152906001019060200180831161049c57829003601f168201915b50505050509050919050565b5f805f8373ffffffffffffffffffffffffffffffffffffffff1673ffffffffffffffffffffffffffffffffffffffff1681526020019081526020015f20549050919050565b5f60015f8373ffffffffffffffffffffffffffffffffffffffff1673ffffffffffffffffffffffffffffffffffffffff1681526020019081526020015f205f9054906101000a900460ff169050919050565b5f73ffffffffffffffffffffffffffffffffffffffff168373ffffffffffffffffffffffffffffffffffffffff16036105ca576040517f08c379a00000000000000000000000000000000000000000000000000000000081526004016105c190610e19565b60405180910390fd5b60015f8473ffffffffffffffffffffffffffffffffffffffff1673ffffffffffffffffffffffffffffffffffffffff1681526020019081526020015f205f9054906101000a900460ff1661066d576001805f8573ffffffffffffffffffffffffffffffffffffffff1673ffffffffffffffffffffffffffffffffffffffff1681526020019081526020015f205f6101000a81548160ff0219169083151502179055505b818160025f8673ffffffffffffffffffffffffffffffffffffffff1673ffffffffffffffffffffffffffffffffffffffff1681526020019081526020015f2091826106b992919061100b565b50505050565b5f8073ffffffffffffffffffffffffffffffffffffffff168273ffffffffffffffffffffffffffffffffffffffff160361072e576040517f08c379a000000000000000000000000000000000000000000000000000000000815260040161072590610e19565b60405180910390fd5b60015f8373ffffffffffffffffffffffffffffffffffffffff1673ffffffffffffffffffffffffffffffffffffffff1681526020019081526020015f205f9054906101000a900460ff166107d1576001805f8473ffffffffffffffffffffffffffffffffffffffff1673ffffffffffffffffffffffffffffffffffffffff1681526020019081526020015f205f6101000a81548160ff0219169083151502179055505b5f808373ffffffffffffffffffffffffffffffffffffffff1673ffffffffffffffffffffffffffffffffffffffff1681526020019081526020015f205f81548092919061081d906110d8565b91905055505f808373ffffffffffffffffffffffffffffffffffffffff1673ffffffffffffffffffffffffffffffffffffffff1681526020019081526020015f205490508173ffffffffffffffffffffffffffffffffffffffff167fa82a649bbd060c9099cd7b7326e2b0dc9e9af0836480e0f849dc9eaa79710b3b826040516108a79190610b58565b60405180910390a2919050565b5f80fd5b5f80fd5b5f73ffffffffffffffffffffffffffffffffffffffff82169050919050565b5f6108e5826108bc565b9050919050565b6108f5816108db565b81146108ff575f80fd5b50565b5f81359050610910816108ec565b92915050565b5f819050919050565b61092881610916565b8114610932575f80fd5b50565b5f813590506109438161091f565b92915050565b5f80fd5b5f80fd5b5f80fd5b5f8083601f84011261096a57610969610949565b5b8235905067ffffffffffffffff8111156109875761098661094d565b5b6020830191508360018202830111156109a3576109a2610951565b5b9250929050565b5f805f80606085870312156109c2576109c16108b4565b5b5f6109cf87828801610902565b94505060206109e087828801610935565b935050604085013567ffffffffffffffff811115610a0157610a006108b8565b5b610a0d87828801610955565b925092505092959194509250565b5f8115159050919050565b610a2f81610a1b565b82525050565b610a3e816108db565b82525050565b5f604082019050610a575f830185610a26565b610a646020830184610a35565b9392505050565b5f60208284031215610a8057610a7f6108b4565b5b5f610a8d84828501610902565b91505092915050565b5f81519050919050565b5f82825260208201905092915050565b5f5b83811015610acd578082015181840152602081019050610ab2565b5f8484015250505050565b5f601f19601f8301169050919050565b5f610af282610a96565b610afc8185610aa0565b9350610b0c818560208601610ab0565b610b1581610ad8565b840191505092915050565b5f6020820190508181035f830152610b388184610ae8565b905092915050565b5f819050919050565b610b5281610b40565b82525050565b5f602082019050610b6b5f830184610b49565b92915050565b5f602082019050610b845f830184610a26565b92915050565b5f8083601f840112610b9f57610b9e610949565b5b8235905067ffffffffffffffff811115610bbc57610bbb61094d565b5b602083019150836001820283011115610bd857610bd7610951565b5b9250929050565b5f805f60408486031215610bf657610bf56108b4565b5b5f610c0386828701610902565b935050602084013567ffffffffffffffff811115610c2457610c236108b8565b5b610c3086828701610b8a565b92509250509250925092565b7f496e76616c6964207369676e6174757265206c656e67746800000000000000005f82015250565b5f610c70601883610aa0565b9150610c7b82610c3c565b602082019050919050565b5f6020820190508181035f830152610c9d81610c64565b9050919050565b5f60ff82169050919050565b7f4e487b71000000000000000000000000000000000000000000000000000000005f52601160045260245ffd5b5f610ce782610ca4565b9150610cf283610ca4565b9250828201905060ff811115610d0b57610d0a610cb0565b5b92915050565b610d1a81610916565b82525050565b610d2981610ca4565b82525050565b5f608082019050610d425f830187610d11565b610d4f6020830186610d20565b610d5c6040830185610d11565b610d696060830184610d11565b95945050505050565b7f4e487b71000000000000000000000000000000000000000000000000000000005f52602260045260245ffd5b5f6002820490506001821680610db657607f821691505b602082108103610dc957610dc8610d72565b5b50919050565b7f416464726573732063616e6e6f74206265207a65726f000000000000000000005f82015250565b5f610e03601683610aa0565b9150610e0e82610dcf565b602082019050919050565b5f6020820190508181035f830152610e3081610df7565b9050919050565b5f82905092915050565b7f4e487b71000000000000000000000000000000000000000000000000000000005f52604160045260245ffd5b5f819050815f5260205f209050919050565b5f6020601f8301049050919050565b5f82821b905092915050565b5f60088302610eca7fffffffffffffffffffffffffffffffffffffffffffffffffffffffffffffffff82610e8f565b610ed48683610e8f565b95508019841693508086168417925050509392505050565b5f819050919050565b5f610f0f610f0a610f0584610b40565b610eec565b610b40565b9050919050565b5f819050919050565b610f2883610ef5565b610f3c610f3482610f16565b848454610e9b565b825550505050565b5f90565b610f50610f44565b610f5b818484610f1f565b505050565b5b81811015610f7e57610f735f82610f48565b600181019050610f61565b5050565b601f821115610fc357610f9481610e6e565b610f9d84610e80565b81016020851015610fac578190505b610fc0610fb885610e80565b830182610f60565b50505b505050565b5f82821c905092915050565b5f610fe35f1984600802610fc8565b1980831691505092915050565b5f610ffb8383610fd4565b9150826002028217905092915050565b6110158383610e37565b67ffffffffffffffff81111561102e5761102d610e41565b5b6110388254610d9f565b611043828285610f82565b5f601f831160018114611070575f841561105e578287013590505b6110688582610ff0565b8655506110cf565b601f19841661107e86610e6e565b5f5b828110156110a557848901358255600182019150602085019450602081019050611080565b868310156110c257848901356110be601f891682610fd4565b8355505b6001600288020188555050505b50505050505050565b5f6110e282610b40565b91507fffffffffffffffffffffffffffffffffffffffffffffffffffffffffffffffff820361111457611113610cb0565b5b60018201905091905056fea2646970667358221220d7fdacefff2f93ad8e5ad072b2cff66535bae2d4793e9c1a0a47c8f0538a045f64736f6c63430008140033","linkReferences":{}},"methodIdentifiers":{"getLabel(address)":"28a249b0","getNonce(address)":"2d0335ab","incrementNonce(address)":"f5743c4c","isKnown(address)":"6e09999e","setLabel(address,string)":"d18232d9","verify(address,bytes32,bytes)":"1a86b550"},"id":332}