{"abi":[{"type":"function","name":"acknowledge","inputs":[{"name":"consumer","type":"bytes32","internalType":"bytes32"},{"name":"offset","type":"uint256","internalType":"uint256"}],"outputs":[],"stateMutability":"nonpayable"},{"type":"function","name":"append","inputs":[{"name":"eventType","type":"string","internalType":"string"},{"name":"beforeState","type":"bytes","internalType":"bytes"},{"name":"afterState","type":"bytes","internalType":"bytes"},{"name":"source","type":"bytes32","internalType":"bytes32"}],"outputs":[{"name":"offset","type":"uint256","internalType":"uint256"},{"name":"eventId","type":"bytes32","internalType":"bytes32"}],"stateMutability":"nonpayable"},{"type":"function","name":"getConsumerOffset","inputs":[{"name":"consumer","type":"bytes32","internalType":"bytes32"}],"outputs":[{"name":"","type":"uint256","internalType":"uint256"}],"stateMutability":"view"},{"type":"function","name":"getNextOffset","inputs":[],"outputs":[{"name":"","type":"uint256","internalType":"uint256"}],"stateMutability":"view"},{"type":"function","name":"read","inputs":[{"name":"subscriptionId","type":"bytes32","internalType":"bytes32"},{"name":"maxCount","type":"uint256","internalType":"uint256"}],"outputs":[{"name":"events","type":"tuple[]","internalType":"struct ChangeStream.StreamEvent[]","components":[{"name":"eventType","type":"string","internalType":"string"},{"name":"beforeData","type":"bytes","internalType":"bytes"},{"name":"afterData","type":"bytes","internalType":"bytes"},{"name":"source","type":"bytes32","internalType":"bytes32"},{"name":"timestamp","type":"uint256","internalType":"uint256"},{"name":"offset","type":"uint256","internalType":"uint256"}]}],"stateMutability":"view"},{"type":"function","name":"replay","inputs":[{"name":"fromOffset","type":"uint256","internalType":"uint256"},{"name":"toOffset","type":"uint256","internalType":"uint256"}],"outputs":[{"name":"events","type":"tuple[]","internalType":"struct ChangeStream.StreamEvent[]","components":[{"name":"eventType","type":"string","internalType":"string"},{"name":"beforeData","type":"bytes","internalType":"bytes"},{"name":"afterData","type":"bytes","internalType":"bytes"},{"name":"source","type":"bytes32","internalType":"bytes32"},{"name":"timestamp","type":"uint256","internalType":"uint256"},{"name":"offset","type":"uint256","internalType":"uint256"}]}],"stateMutability":"view"},{"type":"function","name":"subscribe","inputs":[{"name":"fromOffset","type":"uint256","internalType":"uint256"}],"outputs":[{"name":"subscriptionId","type":"bytes32","internalType":"bytes32"}],"stateMutability":"nonpayable"},{"type":"event","name":"Acknowledged","inputs":[{"name":"consumer","type":"bytes32","indexed":true,"internalType":"bytes32"},{"name":"offset","type":"uint256","indexed":false,"internalType":"uint256"}],"anonymous":false},{"type":"event","name":"EventAppended","inputs":[{"name":"offset","type":"uint256","indexed":true,"internalType":"uint256"},{"name":"eventId","type":"bytes32","indexed":true,"internalType":"bytes32"},{"name":"eventType","type":"string","indexed":false,"internalType":"string"}],"anonymous":false},{"type":"event","name":"Subscribed","inputs":[{"name":"subscriptionId","type":"bytes32","indexed":true,"internalType":"bytes32"},{"name":"fromOffset","type":"uint256","indexed":false,"internalType":"uint256"}],"anonymous":false}],"bytecode":{"object":"0x608060405234801561000f575f80fd5b506119228061001d5f395ff3fe608060405234801561000f575f80fd5b506004361061007b575f3560e01c80635a44fb0c116100595780635a44fb0c146100fd57806387f755e61461012d5780638f8ec51f1461015e578063c81aa0661461018e5761007b565b80630f574ba71461007f5780633d301c91146100af5780633f3b6ed3146100df575b5f80fd5b61009960048036038101906100949190610bb2565b6101aa565b6040516100a69190610bf5565b60405180910390f35b6100c960048036038101906100c49190610c38565b610287565b6040516100d69190610ebf565b60405180910390f35b6100e761055f565b6040516100f49190610eee565b60405180910390f35b61011760048036038101906101129190610f07565b610568565b6040516101249190610ebf565b60405180910390f35b61014760048036038101906101429190610ffb565b610898565b6040516101559291906110bf565b60405180910390f35b610178600480360381019061017391906110e6565b610a91565b6040516101859190610eee565b60405180910390f35b6101a860048036038101906101a39190610c38565b610aab565b005b5f6001548211156101f0576040517f08c379a00000000000000000000000000000000000000000000000000000000081526004016101e79061116b565b60405180910390fd5b33824260045f815480929190610205906111b6565b9190505560405160200161021c9493929190611292565b6040516020818303038152906040528051906020012090508160035f8381526020019081526020015f2081905550807f79e58adb5a69df6e2afe675dbe2f9e68aff92a755b439a1c0e2193cfa26d642b8360405161027a9190610eee565b60405180910390a2919050565b60605f60035f8581526020019081526020015f205490505f81600154116102ae575f6102bd565b816001546102bc91906112df565b5b90505f8482106102cd57846102cf565b815b90508067ffffffffffffffff8111156102eb576102ea611312565b5b60405190808252806020026020018201604052801561032457816020015b610311610b41565b8152602001906001900390816103095790505b5093505f5b81811015610555575f80828661033f919061133f565b81526020019081526020015f206040518060c00160405290815f820180546103669061139f565b80601f01602080910402602001604051908101604052809291908181526020018280546103929061139f565b80156103dd5780601f106103b4576101008083540402835291602001916103dd565b820191905f5260205f20905b8154815290600101906020018083116103c057829003601f168201915b505050505081526020016001820180546103f69061139f565b80601f01602080910402602001604051908101604052809291908181526020018280546104229061139f565b801561046d5780601f106104445761010080835404028352916020019161046d565b820191905f5260205f20905b81548152906001019060200180831161045057829003601f168201915b505050505081526020016002820180546104869061139f565b80601f01602080910402602001604051908101604052809291908181526020018280546104b29061139f565b80156104fd5780601f106104d4576101008083540402835291602001916104fd565b820191905f5260205f20905b8154815290600101906020018083116104e057829003601f168201915b505050505081526020016003820154815260200160048201548152602001600582015481525050858281518110610537576105366113cf565b5b6020026020010181905250808061054d906111b6565b915050610329565b5050505092915050565b5f600154905090565b6060818311156105ad576040517f08c379a00000000000000000000000000000000000000000000000000000000081526004016105a490611446565b60405180910390fd5b60015482106105f1576040517f08c379a00000000000000000000000000000000000000000000000000000000081526004016105e89061116b565b60405180910390fd5b5f6001848461060091906112df565b61060a919061133f565b90508067ffffffffffffffff81111561062657610625611312565b5b60405190808252806020026020018201604052801561065f57816020015b61064c610b41565b8152602001906001900390816106445790505b5091505f5b81811015610890575f80828761067a919061133f565b81526020019081526020015f206040518060c00160405290815f820180546106a19061139f565b80601f01602080910402602001604051908101604052809291908181526020018280546106cd9061139f565b80156107185780601f106106ef57610100808354040283529160200191610718565b820191905f5260205f20905b8154815290600101906020018083116106fb57829003601f168201915b505050505081526020016001820180546107319061139f565b80601f016020809104026020016040519081016040528092919081815260200182805461075d9061139f565b80156107a85780601f1061077f576101008083540402835291602001916107a8565b820191905f5260205f20905b81548152906001019060200180831161078b57829003601f168201915b505050505081526020016002820180546107c19061139f565b80601f01602080910402602001604051908101604052809291908181526020018280546107ed9061139f565b80156108385780601f1061080f57610100808354040283529160200191610838565b820191905f5260205f20905b81548152906001019060200180831161081b57829003601f168201915b505050505081526020016003820154815260200160048201548152602001600582015481525050838281518110610872576108716113cf565b5b60200260200101819052508080610888906111b6565b915050610664565b505092915050565b5f8060015f8154809291906108ac906111b6565b91905055915088888442856040516020016108cb9594939291906114c0565b6040516020818303038152906040528051906020012090506040518060c001604052808a8a8080601f0160208091040260200160405190810160405280939291908181526020018383808284375f81840152601f19601f82011690508083019250505050505050815260200188888080601f0160208091040260200160405190810160405280939291908181526020018383808284375f81840152601f19601f82011690508083019250505050505050815260200186868080601f0160208091040260200160405190810160405280939291908181526020018383808284375f81840152601f19601f820116905080830192505050505050508152602001848152602001428152602001838152505f808481526020019081526020015f205f820151815f0190816109fc91906116a8565b506020820151816001019081610a1291906117cf565b506040820151816002019081610a2891906117cf565b50606082015181600301556080820151816004015560a0820151816005015590505080827fda56338a9efbdd5238415b0a4303b985035b02ee0471d7ac62b1a0e1b2d83a698b8b604051610a7d9291906118ca565b60405180910390a397509795505050505050565b5f60025f8381526020019081526020015f20549050919050565b6001548110610aef576040517f08c379a0000000000000000000000000000000000000000000000000000000008152600401610ae69061116b565b60405180910390fd5b8060025f8481526020019081526020015f2081905550817ffcb8047d6f289a9509a0a192a64485f8576eac78943eb96e7682e839f30384e082604051610b359190610eee565b60405180910390a25050565b6040518060c001604052806060815260200160608152602001606081526020015f80191681526020015f81526020015f81525090565b5f80fd5b5f80fd5b5f819050919050565b610b9181610b7f565b8114610b9b575f80fd5b50565b5f81359050610bac81610b88565b92915050565b5f60208284031215610bc757610bc6610b77565b5b5f610bd484828501610b9e565b91505092915050565b5f819050919050565b610bef81610bdd565b82525050565b5f602082019050610c085f830184610be6565b92915050565b610c1781610bdd565b8114610c21575f80fd5b50565b5f81359050610c3281610c0e565b92915050565b5f8060408385031215610c4e57610c4d610b77565b5b5f610c5b85828601610c24565b9250506020610c6c85828601610b9e565b9150509250929050565b5f81519050919050565b5f82825260208201905092915050565b5f819050602082019050919050565b5f81519050919050565b5f82825260208201905092915050565b5f5b83811015610cd6578082015181840152602081019050610cbb565b5f8484015250505050565b5f601f19601f8301169050919050565b5f610cfb82610c9f565b610d058185610ca9565b9350610d15818560208601610cb9565b610d1e81610ce1565b840191505092915050565b5f81519050919050565b5f82825260208201905092915050565b5f610d4d82610d29565b610d578185610d33565b9350610d67818560208601610cb9565b610d7081610ce1565b840191505092915050565b610d8481610bdd565b82525050565b610d9381610b7f565b82525050565b5f60c083015f8301518482035f860152610db38282610cf1565b91505060208301518482036020860152610dcd8282610d43565b91505060408301518482036040860152610de78282610d43565b9150506060830151610dfc6060860182610d7b565b506080830151610e0f6080860182610d8a565b5060a0830151610e2260a0860182610d8a565b508091505092915050565b5f610e388383610d99565b905092915050565b5f602082019050919050565b5f610e5682610c76565b610e608185610c80565b935083602082028501610e7285610c90565b805f5b85811015610ead5784840389528151610e8e8582610e2d565b9450610e9983610e40565b925060208a01995050600181019050610e75565b50829750879550505050505092915050565b5f6020820190508181035f830152610ed78184610e4c565b905092915050565b610ee881610b7f565b82525050565b5f602082019050610f015f830184610edf565b92915050565b5f8060408385031215610f1d57610f1c610b77565b5b5f610f2a85828601610b9e565b9250506020610f3b85828601610b9e565b9150509250929050565b5f80fd5b5f80fd5b5f80fd5b5f8083601f840112610f6657610f65610f45565b5b8235905067ffffffffffffffff811115610f8357610f82610f49565b5b602083019150836001820283011115610f9f57610f9e610f4d565b5b9250929050565b5f8083601f840112610fbb57610fba610f45565b5b8235905067ffffffffffffffff811115610fd857610fd7610f49565b5b602083019150836001820283011115610ff457610ff3610f4d565b5b9250929050565b5f805f805f805f6080888a03121561101657611015610b77565b5b5f88013567ffffffffffffffff81111561103357611032610b7b565b5b61103f8a828b01610f51565b9750975050602088013567ffffffffffffffff81111561106257611061610b7b565b5b61106e8a828b01610fa6565b9550955050604088013567ffffffffffffffff81111561109157611090610b7b565b5b61109d8a828b01610fa6565b935093505060606110b08a828b01610c24565b91505092959891949750929550565b5f6040820190506110d25f830185610edf565b6110df6020830184610be6565b9392505050565b5f602082840312156110fb576110fa610b77565b5b5f61110884828501610c24565b91505092915050565b5f82825260208201905092915050565b7f4f6666736574206f7574206f662072616e6765000000000000000000000000005f82015250565b5f611155601383611111565b915061116082611121565b602082019050919050565b5f6020820190508181035f83015261118281611149565b9050919050565b7f4e487b71000000000000000000000000000000000000000000000000000000005f52601160045260245ffd5b5f6111c082610b7f565b91507fffffffffffffffffffffffffffffffffffffffffffffffffffffffffffffffff82036111f2576111f1611189565b5b600182019050919050565b5f73ffffffffffffffffffffffffffffffffffffffff82169050919050565b5f611226826111fd565b9050919050565b5f8160601b9050919050565b5f6112438261122d565b9050919050565b5f61125482611239565b9050919050565b61126c6112678261121c565b61124a565b82525050565b5f819050919050565b61128c61128782610b7f565b611272565b82525050565b5f61129d828761125b565b6014820191506112ad828661127b565b6020820191506112bd828561127b565b6020820191506112cd828461127b565b60208201915081905095945050505050565b5f6112e982610b7f565b91506112f483610b7f565b925082820390508181111561130c5761130b611189565b5b92915050565b7f4e487b71000000000000000000000000000000000000000000000000000000005f52604160045260245ffd5b5f61134982610b7f565b915061135483610b7f565b925082820190508082111561136c5761136b611189565b5b92915050565b7f4e487b71000000000000000000000000000000000000000000000000000000005f52602260045260245ffd5b5f60028204905060018216806113b657607f821691505b6020821081036113c9576113c8611372565b5b50919050565b7f4e487b71000000000000000000000000000000000000000000000000000000005f52603260045260245ffd5b7f496e76616c69642072616e6765000000000000000000000000000000000000005f82015250565b5f611430600d83611111565b915061143b826113fc565b602082019050919050565b5f6020820190508181035f83015261145d81611424565b9050919050565b5f81905092915050565b828183375f83830152505050565b5f6114878385611464565b935061149483858461146e565b82840190509392505050565b5f819050919050565b6114ba6114b582610bdd565b6114a0565b82525050565b5f6114cc82878961147c565b91506114d882866114a9565b6020820191506114e8828561127b565b6020820191506114f8828461127b565b6020820191508190509695505050505050565b5f819050815f5260205f209050919050565b5f6020601f8301049050919050565b5f82821b905092915050565b5f600883026115677fffffffffffffffffffffffffffffffffffffffffffffffffffffffffffffffff8261152c565b611571868361152c565b95508019841693508086168417925050509392505050565b5f819050919050565b5f6115ac6115a76115a284610b7f565b611589565b610b7f565b9050919050565b5f819050919050565b6115c583611592565b6115d96115d1826115b3565b848454611538565b825550505050565b5f90565b6115ed6115e1565b6115f88184846115bc565b505050565b5b8181101561161b576116105f826115e5565b6001810190506115fe565b5050565b601f821115611660576116318161150b565b61163a8461151d565b81016020851015611649578190505b61165d6116558561151d565b8301826115fd565b50505b505050565b5f82821c905092915050565b5f6116805f1984600802611665565b1980831691505092915050565b5f6116988383611671565b9150826002028217905092915050565b6116b182610c9f565b67ffffffffffffffff8111156116ca576116c9611312565b5b6116d4825461139f565b6116df82828561161f565b5f60209050601f831160018114611710575f84156116fe578287015190505b611708858261168d565b86555061176f565b601f19841661171e8661150b565b5f5b8281101561174557848901518255600182019150602085019450602081019050611720565b86831015611762578489015161175e601f891682611671565b8355505b6001600288020188555050505b505050505050565b5f819050815f5260205f209050919050565b601f8211156117ca5761179b81611777565b6117a48461151d565b810160208510156117b3578190505b6117c76117bf8561151d565b8301826115fd565b50505b505050565b6117d882610d29565b67ffffffffffffffff8111156117f1576117f0611312565b5b6117fb825461139f565b611806828285611789565b5f60209050601f831160018114611837575f8415611825578287015190505b61182f858261168d565b865550611896565b601f19841661184586611777565b5f5b8281101561186c57848901518255600182019150602085019450602081019050611847565b868310156118895784890151611885601f891682611671565b8355505b6001600288020188555050505b505050505050565b5f6118a98385611111565b93506118b683858461146e565b6118bf83610ce1565b840190509392505050565b5f6020820190508181035f8301526118e381848661189e565b9050939250505056fea2646970667358221220d8532555cc88f38de2a929589a5320d9ef8ab3a0a2dfea1b4c626ed227d7d31764736f6c63430008140033","linkReferences":{}},"methodIdentifiers":{"acknowledge(bytes32,uint256)":"c81aa066","append(string,bytes,bytes,bytes32)":"87f755e6","getConsumerOffset(bytes32)":"8f8ec51f","getNextOffset()":"3f3b6ed3","read(bytes32,uint256)":"3d301c91","replay(uint256,uint256)":"5a44fb0c","subscribe(uint256)":"0f574ba7"},"id":52}