{"abi":[{"type":"function","name":"createEnvironment","inputs":[{"name":"name","type":"string","internalType":"string"}],"outputs":[{"name":"","type":"bytes32","internalType":"bytes32"}],"stateMutability":"nonpayable"},{"type":"function","name":"diff","inputs":[{"name":"envA","type":"bytes32","internalType":"bytes32"},{"name":"envB","type":"bytes32","internalType":"bytes32"}],"outputs":[{"name":"","type":"tuple","internalType":"struct Env.DiffOkResult","components":[{"name":"success","type":"bool","internalType":"bool"},{"name":"differences","type":"string[]","internalType":"string[]"}]}],"stateMutability":"nonpayable"},{"type":"function","name":"promote","inputs":[{"name":"fromEnv","type":"bytes32","internalType":"bytes32"},{"name":"toEnv","type":"bytes32","internalType":"bytes32"},{"name":"kitName","type":"string","internalType":"string"}],"outputs":[{"name":"","type":"tuple","internalType":"struct Env.PromoteOkResult","components":[{"name":"success","type":"bool","internalType":"bool"},{"name":"toEnv","type":"bytes32","internalType":"bytes32"},{"name":"version","type":"string","internalType":"string"}]}],"stateMutability":"nonpayable"},{"type":"function","name":"resolve","inputs":[{"name":"environment","type":"bytes32","internalType":"bytes32"}],"outputs":[{"name":"","type":"tuple","internalType":"struct Env.ResolveOkResult","components":[{"name":"success","type":"bool","internalType":"bool"},{"name":"environment","type":"bytes32","internalType":"bytes32"},{"name":"resolved","type":"string","internalType":"string"}]}],"stateMutability":"nonpayable"},{"type":"function","name":"setVar","inputs":[{"name":"environment","type":"bytes32","internalType":"bytes32"},{"name":"key","type":"string","internalType":"string"},{"name":"value","type":"string","internalType":"string"}],"outputs":[],"stateMutability":"nonpayable"},{"type":"event","name":"DiffCompleted","inputs":[{"name":"variant","type":"string","indexed":false,"internalType":"string"},{"name":"differences","type":"string[]","indexed":false,"internalType":"string[]"}],"anonymous":false},{"type":"event","name":"EnvironmentCreated","inputs":[{"name":"environment","type":"bytes32","indexed":true,"internalType":"bytes32"},{"name":"name","type":"string","indexed":false,"internalType":"string"}],"anonymous":false},{"type":"event","name":"PromoteCompleted","inputs":[{"name":"variant","type":"string","indexed":false,"internalType":"string"},{"name":"toEnv","type":"bytes32","indexed":false,"internalType":"bytes32"},{"name":"fromEnv","type":"bytes32","indexed":false,"internalType":"bytes32"}],"anonymous":false},{"type":"event","name":"ResolveCompleted","inputs":[{"name":"variant","type":"string","indexed":false,"internalType":"string"},{"name":"environment","type":"bytes32","indexed":false,"internalType":"bytes32"},{"name":"conflicts","type":"string[]","indexed":false,"internalType":"string[]"}],"anonymous":false},{"type":"event","name":"VarSet","inputs":[{"name":"environment","type":"bytes32","indexed":true,"internalType":"bytes32"},{"name":"key","type":"string","indexed":false,"internalType":"string"},{"name":"value","type":"string","indexed":false,"internalType":"string"}],"anonymous":false}],"bytecode":{"object":"0x608060405234801561000f575f80fd5b5061278e8061001d5f395ff3fe608060405234801561000f575f80fd5b5060043610610055575f3560e01c80631e99d2a2146100595780635c23bdf51461007557806364bf3679146100a55780638be9b996146100d557806394f5838314610105575b5f80fd5b610073600480360381019061006e9190611377565b610135565b005b61008f600480360381019061008a91906113ff565b6102cf565b60405161009c919061151a565b60405180910390f35b6100bf60048036038101906100ba919061153a565b61044c565b6040516100cc919061166d565b60405180910390f35b6100ef60048036038101906100ea919061168d565b610929565b6040516100fc9190611746565b60405180910390f35b61011f600480360381019061011a9190611766565b610cbe565b60405161012c91906117bc565b60405180910390f35b60025f8481526020019081526020015f205f9054906101000a900460ff16610192576040517f08c379a00000000000000000000000000000000000000000000000000000000081526004016101899061182f565b60405180910390fd5b5f805f8581526020019081526020015f2090505f836040516020016101b79190611887565b6040516020818303038152906040528051906020012090505f805b836002018054905081101561022257828460020182815481106101f8576101f761189d565b5b905f5260205f2001540361020f5760019150610222565b808061021a90611900565b9150506101d2565b5080610251578260020182908060018154018082558091505060019003905f5260205f20015f90919091909150555b83836001015f8481526020019081526020015f2090816102719190611b41565b505f836004015f6101000a81548160ff021916908315150217905550857fcd44b332416f5e3187d6a86839bf8c49fb699be3e6c83aaf8be2cdb9988ec8e386866040516102bf929190611c48565b60405180910390a2505050505050565b6102d7611194565b60025f8381526020019081526020015f205f9054906101000a900460ff16610334576040517f08c379a000000000000000000000000000000000000000000000000000000000815260040161032b9061182f565b60405180910390fd5b5f805f8481526020019081526020015f2090505f815f0160405160200161035b9190611d47565b60405160208183030381529060405290508082600301908161037d9190611b41565b506001826004015f6101000a81548160ff0219169083151502179055505f8067ffffffffffffffff8111156103b5576103b4611253565b5b6040519080825280602002602001820160405280156103e857816020015b60608152602001906001900390816103d35790505b5090507fa421c3e34612215bb5a529ff84d7e5c38a06166f84bbc19bc6119a488d9d984e858260405161041c929190611e35565b60405180910390a16040518060600160405280600115158152602001868152602001838152509350505050919050565b6104546111b8565b60025f8481526020019081526020015f205f9054906101000a900460ff166104b1576040517f08c379a00000000000000000000000000000000000000000000000000000000081526004016104a890611ec0565b60405180910390fd5b60025f8381526020019081526020015f205f9054906101000a900460ff1661050e576040517f08c379a000000000000000000000000000000000000000000000000000000000815260040161050590611f28565b60405180910390fd5b5f805f8581526020019081526020015f2090505f805f8581526020019081526020015f2090505f805b83600201805490508110156105e0575f84600201828154811061055d5761055c61189d565b5b905f5260205f2001549050836001015f8281526020019081526020015f206040516105889190611fe2565b6040518091039020856001015f8381526020019081526020015f206040516105b09190611fe2565b6040518091039020146105cc5782806105c890611900565b9350505b5080806105d890611900565b915050610537565b505f5b8260020180549050811015610691575f8360020182815481106106095761060861189d565b5b905f5260205f20015490505f805b8660020180549050811015610667578287600201828154811061063d5761063c61189d565b5b905f5260205f200154036106545760019150610667565b808061065f90611900565b915050610617565b508061067c57838061067890611900565b9450505b5050808061068990611900565b9150506105e3565b505f8167ffffffffffffffff8111156106ad576106ac611253565b5b6040519080825280602002602001820160405280156106e057816020015b60608152602001906001900390816106cb5790505b5090505f805b85600201805490508110156107d5575f86600201828154811061070c5761070b61189d565b5b905f5260205f2001549050856001015f8281526020019081526020015f206040516107379190611fe2565b6040518091039020876001015f8381526020019081526020015f2060405161075f9190611fe2565b6040518091039020146107c15761077581610e41565b6040516020016107859190612042565b6040516020818303038152906040528484815181106107a7576107a661189d565b5b602002602001018190525082806107bd90611900565b9350505b5080806107cd90611900565b9150506106e6565b505f5b84600201805490508110156108cc575f8560020182815481106107fe576107fd61189d565b5b905f5260205f20015490505f805b886002018054905081101561085c57828960020182815481106108325761083161189d565b5b905f5260205f20015403610849576001915061085c565b808061085490611900565b91505061080c565b50806108b75761086b82610e41565b60405160200161087b91906120ad565b60405160208183030381529060405285858151811061089d5761089c61189d565b5b602002602001018190525083806108b390611900565b9450505b505080806108c490611900565b9150506107d8565b507fb25a102511886f665a4bbf27808b89074c25afeff293c5a9c24e789930681590826040516108fc91906120ce565b60405180910390a16040518060400160405280600115158152602001838152509550505050505092915050565b6109316111d3565b60025f8581526020019081526020015f205f9054906101000a900460ff1661098e576040517f08c379a00000000000000000000000000000000000000000000000000000000081526004016109859061214b565b60405180910390fd5b60025f8481526020019081526020015f205f9054906101000a900460ff166109eb576040517f08c379a00000000000000000000000000000000000000000000000000000000081526004016109e2906121b3565b60405180910390fd5b5f805f8681526020019081526020015f209050806004015f9054906101000a900460ff16610a4e576040517f08c379a0000000000000000000000000000000000000000000000000000000008152600401610a4590612241565b60405180910390fd5b5f805f8681526020019081526020015f2090505f5b8260020180549050811015610b5e575f836002018281548110610a8957610a8861189d565b5b905f5260205f2001549050836001015f8281526020019081526020015f20836001015f8381526020019081526020015f209081610ac69190612286565b505f805b8460020180549050811015610b1a5782856002018281548110610af057610aef61189d565b5b905f5260205f20015403610b075760019150610b1a565b8080610b1290611900565b915050610aca565b5080610b49578360020182908060018154018082558091505060019003905f5260205f20015f90919091909150555b50508080610b5690611900565b915050610a63565b505f816004015f6101000a81548160ff0219169083151502179055505f84610b854261103c565b604051602001610b969291906123b5565b60405160208183030381529060405290505f87878742604051602001610bbf9493929190612423565b6040516020818303038152906040528051906020012090506040518060a001604052808981526020018881526020018781526020018381526020014281525060035f8381526020019081526020015f205f820151815f0155602082015181600101556040820151816002019081610c369190611b41565b506060820151816003019081610c4c9190611b41565b50608082015181600401559050507fd0298cba1537875103a8de486c4661e9024295d16bd9e871c0795301ca928a6e8789604051610c8b92919061246c565b60405180910390a16040518060600160405280600115158152602001888152602001838152509450505050509392505050565b5f80824233604051602001610cd593929190612565565b60405160208183030381529060405280519060200120905060025f8281526020019081526020015f205f9054906101000a900460ff1615610d4b576040517f08c379a0000000000000000000000000000000000000000000000000000000008152600401610d42906125f2565b60405180910390fd5b5f805f8381526020019081526020015f20905083815f019081610d6e9190611b41565b5060018160040160016101000a81548160ff0219169083151502179055505f816004015f6101000a81548160ff021916908315150217905550428160050181905550600160025f8481526020019081526020015f205f6101000a81548160ff021916908315150217905550600182908060018154018082558091505060019003905f5260205f20015f9091909190915055817f84aa12610b5df0d20d8d42916d59b377787b69d18c06d1a0801d114701fdcec885604051610e2f9190612610565b60405180910390a28192505050919050565b60605f6040518060400160405280601081526020017f303132333435363738396162636465660000000000000000000000000000000081525090505f600867ffffffffffffffff811115610e9857610e97611253565b5b6040519080825280601f01601f191660200182016040528015610eca5781602001600182028036833780820191505090505b5090505f5b600481101561103157826004868360208110610eee57610eed61189d565b5b1a60f81b7effffffffffffffffffffffffffffffffffffffffffffffffffffffffffffff1916901c60f81c60ff1681518110610f2d57610f2c61189d565b5b602001015160f81c60f81b82600283610f469190612630565b81518110610f5757610f5661189d565b5b60200101907effffffffffffffffffffffffffffffffffffffffffffffffffffffffffffff191690815f1a90535082600f60f81b868360208110610f9e57610f9d61189d565b5b1a60f81b1660f81c60ff1681518110610fba57610fb961189d565b5b602001015160f81c60f81b82600283610fd39190612630565b6001610fdf9190612671565b81518110610ff057610fef61189d565b5b60200101907effffffffffffffffffffffffffffffffffffffffffffffffffffffffffffff191690815f1a905350808061102990611900565b915050610ecf565b508092505050919050565b60605f8203611082576040518060400160405280600181526020017f3000000000000000000000000000000000000000000000000000000000000000815250905061118f565b5f8290505f5b5f82146110b157808061109a90611900565b915050600a826110aa91906126d1565b9150611088565b5f8167ffffffffffffffff8111156110cc576110cb611253565b5b6040519080825280601f01601f1916602001820160405280156110fe5781602001600182028036833780820191505090505b5090505b5f851461118857818061111490612701565b925050600a856111249190612728565b60306111309190612671565b60f81b8183815181106111465761114561189d565b5b60200101907effffffffffffffffffffffffffffffffffffffffffffffffffffffffffffff191690815f1a905350600a8561118191906126d1565b9450611102565b8093505050505b919050565b60405180606001604052805f151581526020015f8019168152602001606081525090565b60405180604001604052805f15158152602001606081525090565b60405180606001604052805f151581526020015f8019168152602001606081525090565b5f604051905090565b5f80fd5b5f80fd5b5f819050919050565b61121a81611208565b8114611224575f80fd5b50565b5f8135905061123581611211565b92915050565b5f80fd5b5f80fd5b5f601f19601f8301169050919050565b7f4e487b71000000000000000000000000000000000000000000000000000000005f52604160045260245ffd5b61128982611243565b810181811067ffffffffffffffff821117156112a8576112a7611253565b5b80604052505050565b5f6112ba6111f7565b90506112c68282611280565b919050565b5f67ffffffffffffffff8211156112e5576112e4611253565b5b6112ee82611243565b9050602081019050919050565b828183375f83830152505050565b5f61131b611316846112cb565b6112b1565b9050828152602081018484840111156113375761133661123f565b5b6113428482856112fb565b509392505050565b5f82601f83011261135e5761135d61123b565b5b813561136e848260208601611309565b91505092915050565b5f805f6060848603121561138e5761138d611200565b5b5f61139b86828701611227565b935050602084013567ffffffffffffffff8111156113bc576113bb611204565b5b6113c88682870161134a565b925050604084013567ffffffffffffffff8111156113e9576113e8611204565b5b6113f58682870161134a565b9150509250925092565b5f6020828403121561141457611413611200565b5b5f61142184828501611227565b91505092915050565b5f8115159050919050565b61143e8161142a565b82525050565b61144d81611208565b82525050565b5f81519050919050565b5f82825260208201905092915050565b5f5b8381101561148a57808201518184015260208101905061146f565b5f8484015250505050565b5f61149f82611453565b6114a9818561145d565b93506114b981856020860161146d565b6114c281611243565b840191505092915050565b5f606083015f8301516114e25f860182611435565b5060208301516114f56020860182611444565b506040830151848203604086015261150d8282611495565b9150508091505092915050565b5f6020820190508181035f83015261153281846114cd565b905092915050565b5f80604083850312156115505761154f611200565b5b5f61155d85828601611227565b925050602061156e85828601611227565b9150509250929050565b5f81519050919050565b5f82825260208201905092915050565b5f819050602082019050919050565b5f6115ac8383611495565b905092915050565b5f602082019050919050565b5f6115ca82611578565b6115d48185611582565b9350836020820285016115e685611592565b805f5b85811015611621578484038952815161160285826115a1565b945061160d836115b4565b925060208a019950506001810190506115e9565b50829750879550505050505092915050565b5f604083015f8301516116485f860182611435565b506020830151848203602086015261166082826115c0565b9150508091505092915050565b5f6020820190508181035f8301526116858184611633565b905092915050565b5f805f606084860312156116a4576116a3611200565b5b5f6116b186828701611227565b93505060206116c286828701611227565b925050604084013567ffffffffffffffff8111156116e3576116e2611204565b5b6116ef8682870161134a565b9150509250925092565b5f606083015f83015161170e5f860182611435565b5060208301516117216020860182611444565b50604083015184820360408601526117398282611495565b9150508091505092915050565b5f6020820190508181035f83015261175e81846116f9565b905092915050565b5f6020828403121561177b5761177a611200565b5b5f82013567ffffffffffffffff81111561179857611797611204565b5b6117a48482850161134a565b91505092915050565b6117b681611208565b82525050565b5f6020820190506117cf5f8301846117ad565b92915050565b5f82825260208201905092915050565b7f456e7669726f6e6d656e74206e6f7420666f756e6400000000000000000000005f82015250565b5f6118196015836117d5565b9150611824826117e5565b602082019050919050565b5f6020820190508181035f8301526118468161180d565b9050919050565b5f81905092915050565b5f61186182611453565b61186b818561184d565b935061187b81856020860161146d565b80840191505092915050565b5f6118928284611857565b915081905092915050565b7f4e487b71000000000000000000000000000000000000000000000000000000005f52603260045260245ffd5b7f4e487b71000000000000000000000000000000000000000000000000000000005f52601160045260245ffd5b5f819050919050565b5f61190a826118f7565b91507fffffffffffffffffffffffffffffffffffffffffffffffffffffffffffffffff820361193c5761193b6118ca565b5b600182019050919050565b7f4e487b71000000000000000000000000000000000000000000000000000000005f52602260045260245ffd5b5f600282049050600182168061198b57607f821691505b60208210810361199e5761199d611947565b5b50919050565b5f819050815f5260205f209050919050565b5f6020601f8301049050919050565b5f82821b905092915050565b5f60088302611a007fffffffffffffffffffffffffffffffffffffffffffffffffffffffffffffffff826119c5565b611a0a86836119c5565b95508019841693508086168417925050509392505050565b5f819050919050565b5f611a45611a40611a3b846118f7565b611a22565b6118f7565b9050919050565b5f819050919050565b611a5e83611a2b565b611a72611a6a82611a4c565b8484546119d1565b825550505050565b5f90565b611a86611a7a565b611a91818484611a55565b505050565b5b81811015611ab457611aa95f82611a7e565b600181019050611a97565b5050565b601f821115611af957611aca816119a4565b611ad3846119b6565b81016020851015611ae2578190505b611af6611aee856119b6565b830182611a96565b50505b505050565b5f82821c905092915050565b5f611b195f1984600802611afe565b1980831691505092915050565b5f611b318383611b0a565b9150826002028217905092915050565b611b4a82611453565b67ffffffffffffffff811115611b6357611b62611253565b5b611b6d8254611974565b611b78828285611ab8565b5f60209050601f831160018114611ba9575f8415611b97578287015190505b611ba18582611b26565b865550611c08565b601f198416611bb7866119a4565b5f5b82811015611bde57848901518255600182019150602085019450602081019050611bb9565b86831015611bfb5784890151611bf7601f891682611b0a565b8355505b6001600288020188555050505b505050505050565b5f611c1a82611453565b611c2481856117d5565b9350611c3481856020860161146d565b611c3d81611243565b840191505092915050565b5f6040820190508181035f830152611c608185611c10565b90508181036020830152611c748184611c10565b90509392505050565b7f7265736f6c7665643a00000000000000000000000000000000000000000000005f82015250565b5f611cb160098361184d565b9150611cbc82611c7d565b600982019050919050565b5f8154611cd381611974565b611cdd818661184d565b9450600182165f8114611cf75760018114611d0c57611d3e565b60ff1983168652811515820286019350611d3e565b611d15856119a4565b5f5b83811015611d3657815481890152600182019150602081019050611d17565b838801955050505b50505092915050565b5f611d5182611ca5565b9150611d5d8284611cc7565b915081905092915050565b7f6f6b0000000000000000000000000000000000000000000000000000000000005f82015250565b5f611d9c6002836117d5565b9150611da782611d68565b602082019050919050565b5f82825260208201905092915050565b5f611dcc82611578565b611dd68185611db2565b935083602082028501611de885611592565b805f5b85811015611e235784840389528151611e0485826115a1565b9450611e0f836115b4565b925060208a01995050600181019050611deb565b50829750879550505050505092915050565b5f6060820190508181035f830152611e4c81611d90565b9050611e5b60208301856117ad565b8181036040830152611e6d8184611dc2565b90509392505050565b7f456e7669726f6e6d656e742041206e6f7420666f756e640000000000000000005f82015250565b5f611eaa6017836117d5565b9150611eb582611e76565b602082019050919050565b5f6020820190508181035f830152611ed781611e9e565b9050919050565b7f456e7669726f6e6d656e742042206e6f7420666f756e640000000000000000005f82015250565b5f611f126017836117d5565b9150611f1d82611ede565b602082019050919050565b5f6020820190508181035f830152611f3f81611f06565b9050919050565b5f81905092915050565b5f819050815f5260205f209050919050565b5f8154611f6e81611974565b611f788186611f46565b9450600182165f8114611f925760018114611fa757611fd9565b60ff1983168652811515820286019350611fd9565b611fb085611f50565b5f5b83811015611fd157815481890152600182019150602081019050611fb2565b838801955050505b50505092915050565b5f611fed8284611f62565b915081905092915050565b7f6368616e6765643a6b65795f00000000000000000000000000000000000000005f82015250565b5f61202c600c8361184d565b915061203782611ff8565b600c82019050919050565b5f61204c82612020565b91506120588284611857565b915081905092915050565b7f61646465643a6b65795f000000000000000000000000000000000000000000005f82015250565b5f612097600a8361184d565b91506120a282612063565b600a82019050919050565b5f6120b78261208b565b91506120c38284611857565b915081905092915050565b5f6040820190508181035f8301526120e581611d90565b905081810360208301526120f98184611dc2565b905092915050565b7f536f7572636520656e7669726f6e6d656e74206e6f7420666f756e64000000005f82015250565b5f612135601c836117d5565b915061214082612101565b602082019050919050565b5f6020820190508181035f83015261216281612129565b9050919050565b7f54617267657420656e7669726f6e6d656e74206e6f7420666f756e64000000005f82015250565b5f61219d601c836117d5565b91506121a882612169565b602082019050919050565b5f6020820190508181035f8301526121ca81612191565b9050919050565b7f536f7572636520656e7669726f6e6d656e74206d757374206265207265736f6c5f8201527f766564206265666f72652070726f6d6f74696f6e000000000000000000000000602082015250565b5f61222b6034836117d5565b9150612236826121d1565b604082019050919050565b5f6020820190508181035f8301526122588161221f565b9050919050565b5f8154905061226d81611974565b9050919050565b5f819050815f5260205f209050919050565b818103612294575050612369565b61229d8261225f565b67ffffffffffffffff8111156122b6576122b5611253565b5b6122c08254611974565b6122cb828285611ab8565b5f601f8311600181146122f8575f84156122e6578287015490505b6122f08582611b26565b865550612362565b601f19841661230687612274565b9650612311866119a4565b5f5b8281101561233857848901548255600182019150600185019450602081019050612313565b868310156123555784890154612351601f891682611b0a565b8355505b6001600288020188555050505b5050505050505b565b7f40000000000000000000000000000000000000000000000000000000000000005f82015250565b5f61239f60018361184d565b91506123aa8261236b565b600182019050919050565b5f6123c08285611857565b91506123cb82612393565b91506123d78284611857565b91508190509392505050565b5f819050919050565b6123fd6123f882611208565b6123e3565b82525050565b5f819050919050565b61241d612418826118f7565b612403565b82525050565b5f61242e82876123ec565b60208201915061243e82866123ec565b60208201915061244e8285611857565b915061245a828461240c565b60208201915081905095945050505050565b5f6060820190508181035f83015261248381611d90565b905061249260208301856117ad565b61249f60408301846117ad565b9392505050565b7f656e763a000000000000000000000000000000000000000000000000000000005f82015250565b5f6124da60048361184d565b91506124e5826124a6565b600482019050919050565b5f73ffffffffffffffffffffffffffffffffffffffff82169050919050565b5f612519826124f0565b9050919050565b5f8160601b9050919050565b5f61253682612520565b9050919050565b5f6125478261252c565b9050919050565b61255f61255a8261250f565b61253d565b82525050565b5f61256f826124ce565b915061257b8286611857565b9150612587828561240c565b602082019150612597828461254e565b601482019150819050949350505050565b7f456e7669726f6e6d656e7420616c7265616479206578697374730000000000005f82015250565b5f6125dc601a836117d5565b91506125e7826125a8565b602082019050919050565b5f6020820190508181035f830152612609816125d0565b9050919050565b5f6020820190508181035f8301526126288184611c10565b905092915050565b5f61263a826118f7565b9150612645836118f7565b9250828202612653816118f7565b9150828204841483151761266a576126696118ca565b5b5092915050565b5f61267b826118f7565b9150612686836118f7565b925082820190508082111561269e5761269d6118ca565b5b92915050565b7f4e487b71000000000000000000000000000000000000000000000000000000005f52601260045260245ffd5b5f6126db826118f7565b91506126e6836118f7565b9250826126f6576126f56126a4565b5b828204905092915050565b5f61270b826118f7565b91505f820361271d5761271c6118ca565b5b600182039050919050565b5f612732826118f7565b915061273d836118f7565b92508261274d5761274c6126a4565b5b82820690509291505056fea264697066735822122072e619b81a112ea97882c8c225e411af2c74818190b6a8e3c30feb06e1d4a6b364736f6c63430008140033","linkReferences":{}},"methodIdentifiers":{"createEnvironment(string)":"94f58383","diff(bytes32,bytes32)":"64bf3679","promote(bytes32,bytes32,string)":"8be9b996","resolve(bytes32)":"5c23bdf5","setVar(bytes32,string,string)":"1e99d2a2"},"id":112}