{"abi":[{"type":"function","name":"cacheRender","inputs":[{"name":"elementId","type":"bytes32","internalType":"bytes32"},{"name":"output","type":"string","internalType":"string"},{"name":"tags","type":"string","internalType":"string"}],"outputs":[],"stateMutability":"nonpayable"},{"type":"function","name":"getCachedRender","inputs":[{"name":"elementId","type":"bytes32","internalType":"bytes32"}],"outputs":[{"name":"found","type":"bool","internalType":"bool"},{"name":"output","type":"string","internalType":"string"}],"stateMutability":"view"},{"type":"function","name":"invalidateCache","inputs":[{"name":"elementId","type":"bytes32","internalType":"bytes32"}],"outputs":[],"stateMutability":"nonpayable"},{"type":"event","name":"CacheInvalidated","inputs":[{"name":"elementId","type":"bytes32","indexed":true,"internalType":"bytes32"}],"anonymous":false},{"type":"event","name":"Rendered","inputs":[{"name":"elementId","type":"bytes32","indexed":true,"internalType":"bytes32"}],"anonymous":false}],"bytecode":{"object":"0x608060405234801561000f575f80fd5b506109c88061001d5f395ff3fe608060405234801561000f575f80fd5b506004361061003f575f3560e01c806323297754146100435780637575db0a1461005f578063dcedcbb81461007b575b5f80fd5b61005d6004803603810190610058919061049d565b6100ac565b005b6100796004803603810190610074919061052e565b6101f0565b005b6100956004803603810190610090919061052e565b6102c9565b6040516100a39291906105fd565b60405180910390f35b604051806080016040528085858080601f0160208091040260200160405190810160405280939291908181526020018383808284375f81840152601f19601f82011690508083019250505050505050815260200183838080601f0160208091040260200160405190810160405280939291908181526020018383808284375f81840152601f19601f820116905080830192505050505050508152602001428152602001600115158152505f808781526020019081526020015f205f820151815f019081610179919061085b565b50602082015181600101908161018f919061085b565b50604082015181600201556060820151816003015f6101000a81548160ff021916908315150217905550905050847f8e4e10bbdb37cad5f34d3b54301dfb0d16a065d2837a20a3cea74978113b83fa60405160405180910390a25050505050565b5f808281526020019081526020015f206003015f9054906101000a900460ff1661024f576040517f08c379a000000000000000000000000000000000000000000000000000000000815260040161024690610974565b60405180910390fd5b5f808281526020019081526020015f205f8082015f61026e91906103a9565b600182015f61027d91906103a9565b600282015f9055600382015f6101000a81549060ff02191690555050807ffbf73a88b9ff99eaa3d31a430f62209417d7ae9cfb79e3e1b254551cbc385a5460405160405180910390a250565b5f60605f805f8581526020019081526020015f209050806003015f9054906101000a900460ff161561038e576001815f0180805461030690610685565b80601f016020809104026020016040519081016040528092919081815260200182805461033290610685565b801561037d5780601f106103545761010080835404028352916020019161037d565b820191905f5260205f20905b81548152906001019060200180831161036057829003601f168201915b5050505050905092509250506103a4565b5f60405180602001604052805f81525092509250505b915091565b5080546103b590610685565b5f825580601f106103c657506103e3565b601f0160209004905f5260205f20908101906103e291906103e6565b5b50565b5b808211156103fd575f815f9055506001016103e7565b5090565b5f80fd5b5f80fd5b5f819050919050565b61041b81610409565b8114610425575f80fd5b50565b5f8135905061043681610412565b92915050565b5f80fd5b5f80fd5b5f80fd5b5f8083601f84011261045d5761045c61043c565b5b8235905067ffffffffffffffff81111561047a57610479610440565b5b60208301915083600182028301111561049657610495610444565b5b9250929050565b5f805f805f606086880312156104b6576104b5610401565b5b5f6104c388828901610428565b955050602086013567ffffffffffffffff8111156104e4576104e3610405565b5b6104f088828901610448565b9450945050604086013567ffffffffffffffff81111561051357610512610405565b5b61051f88828901610448565b92509250509295509295909350565b5f6020828403121561054357610542610401565b5b5f61055084828501610428565b91505092915050565b5f8115159050919050565b61056d81610559565b82525050565b5f81519050919050565b5f82825260208201905092915050565b5f5b838110156105aa57808201518184015260208101905061058f565b5f8484015250505050565b5f601f19601f8301169050919050565b5f6105cf82610573565b6105d9818561057d565b93506105e981856020860161058d565b6105f2816105b5565b840191505092915050565b5f6040820190506106105f830185610564565b818103602083015261062281846105c5565b90509392505050565b7f4e487b71000000000000000000000000000000000000000000000000000000005f52604160045260245ffd5b7f4e487b71000000000000000000000000000000000000000000000000000000005f52602260045260245ffd5b5f600282049050600182168061069c57607f821691505b6020821081036106af576106ae610658565b5b50919050565b5f819050815f5260205f209050919050565b5f6020601f8301049050919050565b5f82821b905092915050565b5f600883026107117fffffffffffffffffffffffffffffffffffffffffffffffffffffffffffffffff826106d6565b61071b86836106d6565b95508019841693508086168417925050509392505050565b5f819050919050565b5f819050919050565b5f61075f61075a61075584610733565b61073c565b610733565b9050919050565b5f819050919050565b61077883610745565b61078c61078482610766565b8484546106e2565b825550505050565b5f90565b6107a0610794565b6107ab81848461076f565b505050565b5b818110156107ce576107c35f82610798565b6001810190506107b1565b5050565b601f821115610813576107e4816106b5565b6107ed846106c7565b810160208510156107fc578190505b610810610808856106c7565b8301826107b0565b50505b505050565b5f82821c905092915050565b5f6108335f1984600802610818565b1980831691505092915050565b5f61084b8383610824565b9150826002028217905092915050565b61086482610573565b67ffffffffffffffff81111561087d5761087c61062b565b5b6108878254610685565b6108928282856107d2565b5f60209050601f8311600181146108c3575f84156108b1578287015190505b6108bb8582610840565b865550610922565b601f1984166108d1866106b5565b5f5b828110156108f8578489015182556001820191506020850194506020810190506108d3565b868310156109155784890151610911601f891682610824565b8355505b6001600288020188555050505b505050505050565b7f4e6f20636163686520656e7472792065786973747300000000000000000000005f82015250565b5f61095e60158361057d565b91506109698261092a565b602082019050919050565b5f6020820190508181035f83015261098b81610952565b905091905056fea26469706673582212203bf97a6f5e576c98ae9cbb921c8aa3bf50e5f098bc564e2c3748311ecd454d9364736f6c63430008140033","linkReferences":{}},"methodIdentifiers":{"cacheRender(bytes32,string,string)":"23297754","getCachedRender(bytes32)":"dcedcbb8","invalidateCache(bytes32)":"7575db0a"},"id":217}