{"abi":[{"type":"function","name":"getProject","inputs":[{"name":"projectId","type":"bytes32","internalType":"bytes32"}],"outputs":[{"name":"name","type":"string","internalType":"string"},{"name":"path","type":"string","internalType":"string"}],"stateMutability":"view"},{"type":"function","name":"list","inputs":[],"outputs":[{"name":"","type":"bytes32[]","internalType":"bytes32[]"}],"stateMutability":"view"},{"type":"function","name":"projectExists","inputs":[{"name":"name","type":"string","internalType":"string"}],"outputs":[{"name":"","type":"bool","internalType":"bool"}],"stateMutability":"view"},{"type":"function","name":"scaffold","inputs":[{"name":"name","type":"string","internalType":"string"}],"outputs":[{"name":"result","type":"tuple","internalType":"struct ProjectScaffold.ScaffoldOkResult","components":[{"name":"success","type":"bool","internalType":"bool"},{"name":"project","type":"bytes32","internalType":"bytes32"},{"name":"path","type":"string","internalType":"string"}]}],"stateMutability":"nonpayable"},{"type":"event","name":"ScaffoldCompleted","inputs":[{"name":"variant","type":"string","indexed":false,"internalType":"string"},{"name":"project","type":"bytes32","indexed":false,"internalType":"bytes32"}],"anonymous":false}],"bytecode":{"object":"0x608060405234801561000f575f80fd5b5061106f8061001d5f395ff3fe608060405234801561000f575f80fd5b506004361061004a575f3560e01c80630f560cd71461004e5780634b5f748a1461006c578063776f435f1461009d578063fcfa958e146100cd575b5f80fd5b6100566100fd565b6040516100639190610674565b60405180910390f35b610086600480360381019061008191906106cf565b610153565b604051610094929190610784565b60405180910390f35b6100b760048036038101906100b291906108e5565b6102ed565b6040516100c491906109db565b60405180910390f35b6100e760048036038101906100e291906108e5565b610546565b6040516100f49190610a0a565b60405180910390f35b6060600280548060200260200160405190810160405280929190818152602001828054801561014957602002820191905f5260205f20905b815481526020019060010190808311610135575b5050505050905090565b6060805f808481526020019081526020015f206003015f9054906101000a900460ff166101b5576040517f08c379a00000000000000000000000000000000000000000000000000000000081526004016101ac90610a6d565b60405180910390fd5b5f805f8581526020019081526020015f209050805f01816001018180546101db90610ab8565b80601f016020809104026020016040519081016040528092919081815260200182805461020790610ab8565b80156102525780601f1061022957610100808354040283529160200191610252565b820191905f5260205f20905b81548152906001019060200180831161023557829003601f168201915b5050505050915080805461026590610ab8565b80601f016020809104026020016040519081016040528092919081815260200182805461029190610ab8565b80156102dc5780601f106102b3576101008083540402835291602001916102dc565b820191905f5260205f20905b8154815290600101906020018083116102bf57829003601f168201915b505050505090509250925050915091565b6102f5610590565b5f825111610338576040517f08c379a000000000000000000000000000000000000000000000000000000000815260040161032f90610b32565b60405180910390fd5b5f8260405160200161034a9190610b8a565b6040516020818303038152906040528051906020012090505f801b60015f8381526020019081526020015f2054146103b7576040517f08c379a00000000000000000000000000000000000000000000000000000000081526004016103ae90610bea565b60405180910390fd5b5f83426003546040516020016103cf93929190610c31565b60405160208183030381529060405280519060200120905060035f8154809291906103f990610c96565b91905055505f846040516020016104109190610d27565b60405160208183030381529060405290506040518060800160405280868152602001828152602001428152602001600115158152505f808481526020019081526020015f205f820151815f0190816104689190610ee5565b50602082015181600101908161047e9190610ee5565b50604082015181600201556060820151816003015f6101000a81548160ff0219169083151502179055509050508160015f8581526020019081526020015f2081905550600282908060018154018082558091505060019003905f5260205f20015f909190919091505560405180606001604052806001151581526020018381526020018281525093507fb472aca849b9772540c925dbe244c54206e09a855e39eefaefc84a6e1b9a984082604051610536919061100d565b60405180910390a1505050919050565b5f80826040516020016105599190610b8a565b6040516020818303038152906040528051906020012090505f801b60015f8381526020019081526020015f20541415915050919050565b60405180606001604052805f151581526020015f8019168152602001606081525090565b5f81519050919050565b5f82825260208201905092915050565b5f819050602082019050919050565b5f819050919050565b6105ef816105dd565b82525050565b5f61060083836105e6565b60208301905092915050565b5f602082019050919050565b5f610622826105b4565b61062c81856105be565b9350610637836105ce565b805f5b8381101561066757815161064e88826105f5565b97506106598361060c565b92505060018101905061063a565b5085935050505092915050565b5f6020820190508181035f83015261068c8184610618565b905092915050565b5f604051905090565b5f80fd5b5f80fd5b6106ae816105dd565b81146106b8575f80fd5b50565b5f813590506106c9816106a5565b92915050565b5f602082840312156106e4576106e361069d565b5b5f6106f1848285016106bb565b91505092915050565b5f81519050919050565b5f82825260208201905092915050565b5f5b83811015610731578082015181840152602081019050610716565b5f8484015250505050565b5f601f19601f8301169050919050565b5f610756826106fa565b6107608185610704565b9350610770818560208601610714565b6107798161073c565b840191505092915050565b5f6040820190508181035f83015261079c818561074c565b905081810360208301526107b0818461074c565b90509392505050565b5f80fd5b5f80fd5b7f4e487b71000000000000000000000000000000000000000000000000000000005f52604160045260245ffd5b6107f78261073c565b810181811067ffffffffffffffff82111715610816576108156107c1565b5b80604052505050565b5f610828610694565b905061083482826107ee565b919050565b5f67ffffffffffffffff821115610853576108526107c1565b5b61085c8261073c565b9050602081019050919050565b828183375f83830152505050565b5f61088961088484610839565b61081f565b9050828152602081018484840111156108a5576108a46107bd565b5b6108b0848285610869565b509392505050565b5f82601f8301126108cc576108cb6107b9565b5b81356108dc848260208601610877565b91505092915050565b5f602082840312156108fa576108f961069d565b5b5f82013567ffffffffffffffff811115610917576109166106a1565b5b610923848285016108b8565b91505092915050565b5f8115159050919050565b6109408161092c565b82525050565b5f82825260208201905092915050565b5f610960826106fa565b61096a8185610946565b935061097a818560208601610714565b6109838161073c565b840191505092915050565b5f606083015f8301516109a35f860182610937565b5060208301516109b660208601826105e6565b50604083015184820360408601526109ce8282610956565b9150508091505092915050565b5f6020820190508181035f8301526109f3818461098e565b905092915050565b610a048161092c565b82525050565b5f602082019050610a1d5f8301846109fb565b92915050565b7f50726f6a656374206e6f7420666f756e640000000000000000000000000000005f82015250565b5f610a57601183610704565b9150610a6282610a23565b602082019050919050565b5f6020820190508181035f830152610a8481610a4b565b9050919050565b7f4e487b71000000000000000000000000000000000000000000000000000000005f52602260045260245ffd5b5f6002820490506001821680610acf57607f821691505b602082108103610ae257610ae1610a8b565b5b50919050565b7f4e616d652063616e6e6f7420626520656d7074790000000000000000000000005f82015250565b5f610b1c601483610704565b9150610b2782610ae8565b602082019050919050565b5f6020820190508181035f830152610b4981610b10565b9050919050565b5f81905092915050565b5f610b64826106fa565b610b6e8185610b50565b9350610b7e818560208601610714565b80840191505092915050565b5f610b958284610b5a565b915081905092915050565b7f50726f6a65637420616c726561647920657869737473000000000000000000005f82015250565b5f610bd4601683610704565b9150610bdf82610ba0565b602082019050919050565b5f6020820190508181035f830152610c0181610bc8565b9050919050565b5f819050919050565b5f819050919050565b610c2b610c2682610c08565b610c11565b82525050565b5f610c3c8286610b5a565b9150610c488285610c1a565b602082019150610c588284610c1a565b602082019150819050949350505050565b7f4e487b71000000000000000000000000000000000000000000000000000000005f52601160045260245ffd5b5f610ca082610c08565b91507fffffffffffffffffffffffffffffffffffffffffffffffffffffffffffffffff8203610cd257610cd1610c69565b5b600182019050919050565b7f2e2f0000000000000000000000000000000000000000000000000000000000005f82015250565b5f610d11600283610b50565b9150610d1c82610cdd565b600282019050919050565b5f610d3182610d05565b9150610d3d8284610b5a565b915081905092915050565b5f819050815f5260205f209050919050565b5f6020601f8301049050919050565b5f82821b905092915050565b5f60088302610da47fffffffffffffffffffffffffffffffffffffffffffffffffffffffffffffffff82610d69565b610dae8683610d69565b95508019841693508086168417925050509392505050565b5f819050919050565b5f610de9610de4610ddf84610c08565b610dc6565b610c08565b9050919050565b5f819050919050565b610e0283610dcf565b610e16610e0e82610df0565b848454610d75565b825550505050565b5f90565b610e2a610e1e565b610e35818484610df9565b505050565b5b81811015610e5857610e4d5f82610e22565b600181019050610e3b565b5050565b601f821115610e9d57610e6e81610d48565b610e7784610d5a565b81016020851015610e86578190505b610e9a610e9285610d5a565b830182610e3a565b50505b505050565b5f82821c905092915050565b5f610ebd5f1984600802610ea2565b1980831691505092915050565b5f610ed58383610eae565b9150826002028217905092915050565b610eee826106fa565b67ffffffffffffffff811115610f0757610f066107c1565b5b610f118254610ab8565b610f1c828285610e5c565b5f60209050601f831160018114610f4d575f8415610f3b578287015190505b610f458582610eca565b865550610fac565b601f198416610f5b86610d48565b5f5b82811015610f8257848901518255600182019150602085019450602081019050610f5d565b86831015610f9f5784890151610f9b601f891682610eae565b8355505b6001600288020188555050505b505050505050565b7f6f6b0000000000000000000000000000000000000000000000000000000000005f82015250565b5f610fe8600283610704565b9150610ff382610fb4565b602082019050919050565b611007816105dd565b82525050565b5f6040820190508181035f83015261102481610fdc565b90506110336020830184610ffe565b9291505056fea2646970667358221220871862aee1f26f5909266ec01ca66a2b7136065e7bf76a57bfffaf02613b083e64736f6c63430008140033","linkReferences":{}},"methodIdentifiers":{"getProject(bytes32)":"4b5f748a","list()":"0f560cd7","projectExists(string)":"fcfa958e","scaffold(string)":"776f435f"},"id":29}