{"abi":[{"type":"function","name":"emitSpec","inputs":[{"name":"projections","type":"string[]","internalType":"string[]"},{"name":"format","type":"string","internalType":"string"},{"name":"config","type":"string","internalType":"string"}],"outputs":[{"name":"","type":"tuple","internalType":"struct Spec.EmitOkResult","components":[{"name":"success","type":"bool","internalType":"bool"},{"name":"document","type":"bytes32","internalType":"bytes32"},{"name":"content","type":"string","internalType":"string"}]}],"stateMutability":"nonpayable"},{"type":"function","name":"validate","inputs":[{"name":"documentId","type":"bytes32","internalType":"bytes32"}],"outputs":[{"name":"","type":"tuple","internalType":"struct Spec.ValidateOkResult","components":[{"name":"success","type":"bool","internalType":"bool"},{"name":"document","type":"bytes32","internalType":"bytes32"}]}],"stateMutability":"nonpayable"},{"type":"event","name":"EmitCompleted","inputs":[{"name":"variant","type":"string","indexed":false,"internalType":"string"},{"name":"document","type":"bytes32","indexed":false,"internalType":"bytes32"}],"anonymous":false},{"type":"event","name":"ValidateCompleted","inputs":[{"name":"variant","type":"string","indexed":false,"internalType":"string"},{"name":"document","type":"bytes32","indexed":false,"internalType":"bytes32"},{"name":"errors","type":"string[]","indexed":false,"internalType":"string[]"}],"anonymous":false}],"bytecode":{"object":"0x608060405234801561000f575f80fd5b506113808061001d5f395ff3fe608060405234801561000f575f80fd5b5060043610610034575f3560e01c80632e01269814610038578063ffb142e814610068575b5f80fd5b610052600480360381019061004d919061069f565b610098565b60405161005f9190610720565b60405180910390f35b610082600480360381019061007d9190610957565b6101d4565b60405161008f9190610ac2565b60405180910390f35b6100a0610548565b5f808381526020019081526020015f206006015f9054906101000a900460ff166100ff576040517f08c379a00000000000000000000000000000000000000000000000000000000081526004016100f690610b3c565b60405180910390fd5b60015f808481526020019081526020015f206004015f6101000a81548160ff0219169083151502179055505f8067ffffffffffffffff8111156101455761014461074d565b5b60405190808252806020026020018201604052801561017857816020015b60608152602001906001900390816101635790505b5090507fcb7115e2f04936f42c4c3a9f9c24867c4719f91611e62e434e90720f447ada0283826040516101ac929190610c6e565b60405180910390a1604051806040016040528060011515815260200184815250915050919050565b6101dc610565565b5f84511161021f576040517f08c379a000000000000000000000000000000000000000000000000000000000815260040161021690610cf9565b60405180910390fd5b5f835111610262576040517f08c379a000000000000000000000000000000000000000000000000000000000815260040161025990610d61565b60405180910390fd5b5f83834260025f81548092919061027890610db5565b9190505560405160200161028f9493929190610e56565b6040516020818303038152906040528051906020012090505f846040516020016102b99190610f2f565b60405160208183030381529060405290505f5b865181101561032657818782815181106102e9576102e8610f5b565b5b602002602001015160405160200161030292919061101c565b6040516020818303038152906040529150808061031e90610db5565b9150506102cc565b505f865167ffffffffffffffff8111156103435761034261074d565b5b60405190808252806020026020018201604052801561037657816020015b60608152602001906001900390816103615790505b5090505f5b87518110156103d05787818151811061039757610396610f5b565b5b60200260200101518282815181106103b2576103b1610f5b565b5b602002602001018190525080806103c890610db5565b91505061037b565b506040518060e001604052808281526020018781526020018681526020018381526020015f15158152602001428152602001600115158152505f808581526020019081526020015f205f820151815f019080519060200190610433929190610589565b506020820151816001019081610449919061124f565b50604082015181600201908161045f919061124f565b506060820151816003019081610475919061124f565b506080820151816004015f6101000a81548160ff02191690831515021790555060a0820151816005015560c0820151816006015f6101000a81548160ff021916908315150217905550905050600183908060018154018082558091505060019003905f5260205f20015f90919091909150557f3b5c075f1118c6d64f2cd71336c845c5fc4a7dce25767d39b492a09d7e737c3a83604051610516919061131e565b60405180910390a160405180606001604052806001151581526020018481526020018381525093505050509392505050565b60405180604001604052805f151581526020015f80191681525090565b60405180606001604052805f151581526020015f8019168152602001606081525090565b828054828255905f5260205f209081019282156105cf579160200282015b828111156105ce5782518290816105be919061124f565b50916020019190600101906105a7565b5b5090506105dc91906105e0565b5090565b5b808211156105ff575f81816105f69190610603565b506001016105e1565b5090565b50805461060f90611082565b5f825580601f10610620575061063d565b601f0160209004905f5260205f209081019061063c9190610640565b5b50565b5b80821115610657575f815f905550600101610641565b5090565b5f604051905090565b5f80fd5b5f80fd5b5f819050919050565b61067e8161066c565b8114610688575f80fd5b50565b5f8135905061069981610675565b92915050565b5f602082840312156106b4576106b3610664565b5b5f6106c18482850161068b565b91505092915050565b5f8115159050919050565b6106de816106ca565b82525050565b6106ed8161066c565b82525050565b604082015f8201516107075f8501826106d5565b50602082015161071a60208501826106e4565b50505050565b5f6040820190506107335f8301846106f3565b92915050565b5f80fd5b5f601f19601f8301169050919050565b7f4e487b71000000000000000000000000000000000000000000000000000000005f52604160045260245ffd5b6107838261073d565b810181811067ffffffffffffffff821117156107a2576107a161074d565b5b80604052505050565b5f6107b461065b565b90506107c0828261077a565b919050565b5f67ffffffffffffffff8211156107df576107de61074d565b5b602082029050602081019050919050565b5f80fd5b5f80fd5b5f67ffffffffffffffff8211156108125761081161074d565b5b61081b8261073d565b9050602081019050919050565b828183375f83830152505050565b5f610848610843846107f8565b6107ab565b905082815260208101848484011115610864576108636107f4565b5b61086f848285610828565b509392505050565b5f82601f83011261088b5761088a610739565b5b813561089b848260208601610836565b91505092915050565b5f6108b66108b1846107c5565b6107ab565b905080838252602082019050602084028301858111156108d9576108d86107f0565b5b835b8181101561092057803567ffffffffffffffff8111156108fe576108fd610739565b5b80860161090b8982610877565b855260208501945050506020810190506108db565b5050509392505050565b5f82601f83011261093e5761093d610739565b5b813561094e8482602086016108a4565b91505092915050565b5f805f6060848603121561096e5761096d610664565b5b5f84013567ffffffffffffffff81111561098b5761098a610668565b5b6109978682870161092a565b935050602084013567ffffffffffffffff8111156109b8576109b7610668565b5b6109c486828701610877565b925050604084013567ffffffffffffffff8111156109e5576109e4610668565b5b6109f186828701610877565b9150509250925092565b5f81519050919050565b5f82825260208201905092915050565b5f5b83811015610a32578082015181840152602081019050610a17565b5f8484015250505050565b5f610a47826109fb565b610a518185610a05565b9350610a61818560208601610a15565b610a6a8161073d565b840191505092915050565b5f606083015f830151610a8a5f8601826106d5565b506020830151610a9d60208601826106e4565b5060408301518482036040860152610ab58282610a3d565b9150508091505092915050565b5f6020820190508181035f830152610ada8184610a75565b905092915050565b5f82825260208201905092915050565b7f446f63756d656e7420646f6573206e6f742065786973740000000000000000005f82015250565b5f610b26601783610ae2565b9150610b3182610af2565b602082019050919050565b5f6020820190508181035f830152610b5381610b1a565b9050919050565b7f6f6b0000000000000000000000000000000000000000000000000000000000005f82015250565b5f610b8e600283610ae2565b9150610b9982610b5a565b602082019050919050565b610bad8161066c565b82525050565b5f81519050919050565b5f82825260208201905092915050565b5f819050602082019050919050565b5f610be78383610a3d565b905092915050565b5f602082019050919050565b5f610c0582610bb3565b610c0f8185610bbd565b935083602082028501610c2185610bcd565b805f5b85811015610c5c5784840389528151610c3d8582610bdc565b9450610c4883610bef565b925060208a01995050600181019050610c24565b50829750879550505050505092915050565b5f6060820190508181035f830152610c8581610b82565b9050610c946020830185610ba4565b8181036040830152610ca68184610bfb565b90509392505050565b7f50726f6a656374696f6e73206d757374206e6f7420626520656d7074790000005f82015250565b5f610ce3601d83610ae2565b9150610cee82610caf565b602082019050919050565b5f6020820190508181035f830152610d1081610cd7565b9050919050565b7f466f726d6174206d757374206e6f7420626520656d70747900000000000000005f82015250565b5f610d4b601883610ae2565b9150610d5682610d17565b602082019050919050565b5f6020820190508181035f830152610d7881610d3f565b9050919050565b7f4e487b71000000000000000000000000000000000000000000000000000000005f52601160045260245ffd5b5f819050919050565b5f610dbf82610dac565b91507fffffffffffffffffffffffffffffffffffffffffffffffffffffffffffffffff8203610df157610df0610d7f565b5b600182019050919050565b5f81905092915050565b5f610e10826109fb565b610e1a8185610dfc565b9350610e2a818560208601610a15565b80840191505092915050565b5f819050919050565b610e50610e4b82610dac565b610e36565b82525050565b5f610e618287610e06565b9150610e6d8286610e06565b9150610e798285610e3f565b602082019150610e898284610e3f565b60208201915081905095945050505050565b7f2f2f2000000000000000000000000000000000000000000000000000000000005f82015250565b5f610ecf600383610dfc565b9150610eda82610e9b565b600382019050919050565b7f20737065630a00000000000000000000000000000000000000000000000000005f82015250565b5f610f19600683610dfc565b9150610f2482610ee5565b600682019050919050565b5f610f3982610ec3565b9150610f458284610e06565b9150610f5082610f0d565b915081905092915050565b7f4e487b71000000000000000000000000000000000000000000000000000000005f52603260045260245ffd5b7f2f2f2070726f6a656374696f6e3a2000000000000000000000000000000000005f82015250565b5f610fbc600f83610dfc565b9150610fc782610f88565b600f82019050919050565b7f0a000000000000000000000000000000000000000000000000000000000000005f82015250565b5f611006600183610dfc565b915061101182610fd2565b600182019050919050565b5f6110278285610e06565b915061103282610fb0565b915061103e8284610e06565b915061104982610ffa565b91508190509392505050565b7f4e487b71000000000000000000000000000000000000000000000000000000005f52602260045260245ffd5b5f600282049050600182168061109957607f821691505b6020821081036110ac576110ab611055565b5b50919050565b5f819050815f5260205f209050919050565b5f6020601f8301049050919050565b5f82821b905092915050565b5f6008830261110e7fffffffffffffffffffffffffffffffffffffffffffffffffffffffffffffffff826110d3565b61111886836110d3565b95508019841693508086168417925050509392505050565b5f819050919050565b5f61115361114e61114984610dac565b611130565b610dac565b9050919050565b5f819050919050565b61116c83611139565b6111806111788261115a565b8484546110df565b825550505050565b5f90565b611194611188565b61119f818484611163565b505050565b5b818110156111c2576111b75f8261118c565b6001810190506111a5565b5050565b601f821115611207576111d8816110b2565b6111e1846110c4565b810160208510156111f0578190505b6112046111fc856110c4565b8301826111a4565b50505b505050565b5f82821c905092915050565b5f6112275f198460080261120c565b1980831691505092915050565b5f61123f8383611218565b9150826002028217905092915050565b611258826109fb565b67ffffffffffffffff8111156112715761127061074d565b5b61127b8254611082565b6112868282856111c6565b5f60209050601f8311600181146112b7575f84156112a5578287015190505b6112af8582611234565b865550611316565b601f1984166112c5866110b2565b5f5b828110156112ec578489015182556001820191506020850194506020810190506112c7565b868310156113095784890151611305601f891682611218565b8355505b6001600288020188555050505b505050505050565b5f6040820190508181035f83015261133581610b82565b90506113446020830184610ba4565b9291505056fea2646970667358221220d4dd120c3bc8eb75487c79020dcefe3b31887507b4d0a4a2e23548bfb6dca26c64736f6c63430008140033","linkReferences":{}},"methodIdentifiers":{"emitSpec(string[],string,string)":"ffb142e8","validate(bytes32)":"2e012698"},"id":251}