{"abi":[{"type":"function","name":"get","inputs":[{"name":"path","type":"bytes32","internalType":"bytes32"}],"outputs":[{"name":"","type":"tuple","internalType":"struct DataFlowPath.GetOkResult","components":[{"name":"success","type":"bool","internalType":"bool"},{"name":"path","type":"bytes32","internalType":"bytes32"},{"name":"sourceSymbol","type":"string","internalType":"string"},{"name":"sinkSymbol","type":"string","internalType":"string"},{"name":"pathKind","type":"string","internalType":"string"},{"name":"stepCount","type":"int256","internalType":"int256"}]}],"stateMutability":"nonpayable"},{"type":"function","name":"trace","inputs":[{"name":"source","type":"string","internalType":"string"},{"name":"sink","type":"string","internalType":"string"}],"outputs":[{"name":"","type":"tuple","internalType":"struct DataFlowPath.TraceOkResult","components":[{"name":"success","type":"bool","internalType":"bool"},{"name":"paths","type":"string","internalType":"string"}]}],"stateMutability":"nonpayable"},{"type":"function","name":"traceFromConfig","inputs":[{"name":"configKey","type":"string","internalType":"string"}],"outputs":[{"name":"","type":"tuple","internalType":"struct DataFlowPath.TraceFromConfigOkResult","components":[{"name":"success","type":"bool","internalType":"bool"},{"name":"paths","type":"string","internalType":"string"}]}],"stateMutability":"nonpayable"},{"type":"function","name":"traceToOutput","inputs":[{"name":"output","type":"string","internalType":"string"}],"outputs":[{"name":"","type":"tuple","internalType":"struct DataFlowPath.TraceToOutputOkResult","components":[{"name":"success","type":"bool","internalType":"bool"},{"name":"paths","type":"string","internalType":"string"}]}],"stateMutability":"nonpayable"},{"type":"event","name":"GetCompleted","inputs":[{"name":"variant","type":"string","indexed":false,"internalType":"string"},{"name":"path","type":"bytes32","indexed":false,"internalType":"bytes32"},{"name":"stepCount","type":"int256","indexed":false,"internalType":"int256"}],"anonymous":false},{"type":"event","name":"TraceCompleted","inputs":[{"name":"variant","type":"string","indexed":false,"internalType":"string"}],"anonymous":false},{"type":"event","name":"TraceFromConfigCompleted","inputs":[{"name":"variant","type":"string","indexed":false,"internalType":"string"}],"anonymous":false},{"type":"event","name":"TraceToOutputCompleted","inputs":[{"name":"variant","type":"string","indexed":false,"internalType":"string"}],"anonymous":false}],"bytecode":{"object":"0x608060405234801561000f575f80fd5b506117128061001d5f395ff3fe608060405234801561000f575f80fd5b506004361061004a575f3560e01c806345141ab21461004e5780638eaa6ac01461007e5780639d731bb6146100ae578063ccb6433c146100de575b5f80fd5b61006860048036038101906100639190610bfe565b61010e565b6040516100759190610d13565b60405180910390f35b61009860048036038101906100939190610d66565b610349565b6040516100a59190610e4c565b60405180910390f35b6100c860048036038101906100c39190610e6c565b6105d9565b6040516100d59190610f1c565b60405180910390f35b6100f860048036038101906100f39190610bfe565b6107ed565b6040516101059190610f76565b60405180910390f35b610116610a28565b5f825111610159576040517f08c379a000000000000000000000000000000000000000000000000000000000815260040161015090610ff0565b60405180910390fd5b5f8260405160200161016b9190611048565b6040516020818303038152906040528051906020012090505f83426040516020016101979291906110d1565b6040516020818303038152906040528051906020012090506040518060a0016040528060405180602001604052805f81525081526020018581526020016040518060400160405280600681526020017f6f7574707574000000000000000000000000000000000000000000000000000081525081526020015f8152602001600115158152505f808381526020019081526020015f205f820151815f01908161023f91906112fd565b50602082015181600101908161025591906112fd565b50604082015181600201908161026b91906112fd565b50606082015181600301556080820151816004015f6101000a81548160ff021916908315150217905550905050600181908060018154018082558091505060019003905f5260205f20015f909190919091505560035f8381526020019081526020015f2081908060018154018082558091505060019003905f5260205f20015f90919091909150557fa5d46743ab40736befba079bc047f2c84eb09796fbe23dd96fef9ec87215253d60405161032090611416565b60405180910390a160405180604001604052806001151581526020018581525092505050919050565b610351610a43565b5f808381526020019081526020015f206004015f9054906101000a900460ff166103b0576040517f08c379a00000000000000000000000000000000000000000000000000000000081526004016103a79061147e565b60405180910390fd5b5f805f8481526020019081526020015f2090507f439aedebcdc35c8170cb744de81edb1979218095c66392eb713f5486de2b508a8382600301546040516103f89291906114ba565b60405180910390a16040518060c00160405280600115158152602001848152602001825f01805461042890611130565b80601f016020809104026020016040519081016040528092919081815260200182805461045490611130565b801561049f5780601f106104765761010080835404028352916020019161049f565b820191905f5260205f20905b81548152906001019060200180831161048257829003601f168201915b505050505081526020018260010180546104b890611130565b80601f01602080910402602001604051908101604052809291908181526020018280546104e490611130565b801561052f5780601f106105065761010080835404028352916020019161052f565b820191905f5260205f20905b81548152906001019060200180831161051257829003601f168201915b5050505050815260200182600201805461054890611130565b80601f016020809104026020016040519081016040528092919081815260200182805461057490611130565b80156105bf5780601f10610596576101008083540402835291602001916105bf565b820191905f5260205f20905b8154815290600101906020018083116105a257829003601f168201915b505050505081526020018260030154815250915050919050565b6105e1610a7b565b5f835111610624576040517f08c379a000000000000000000000000000000000000000000000000000000000815260040161061b9061153e565b60405180910390fd5b5f825111610667576040517f08c379a000000000000000000000000000000000000000000000000000000000815260040161065e906115a6565b60405180910390fd5b5f83834260405160200161067d939291906115c4565b6040516020818303038152906040528051906020012090506040518060a001604052808581526020018481526020016040518060400160405280600681526020017f6469726563740000000000000000000000000000000000000000000000000000815250815260200160018152602001600115158152505f808381526020019081526020015f205f820151815f01908161071891906112fd565b50602082015181600101908161072e91906112fd565b50604082015181600201908161074491906112fd565b50606082015181600301556080820151816004015f6101000a81548160ff021916908315150217905550905050600181908060018154018082558091505060019003905f5260205f20015f90919091909150557f9f68e4694f1f1daa645e914cc7bcb3e5cf78b9ef5918e98c56b4f510ece862806040516107c490611416565b60405180910390a160405180604001604052806001151581526020018581525091505092915050565b6107f5610a96565b5f825111610838576040517f08c379a000000000000000000000000000000000000000000000000000000000815260040161082f90611642565b60405180910390fd5b5f8260405160200161084a9190611048565b6040516020818303038152906040528051906020012090505f83426040516020016108769291906116aa565b6040516020818303038152906040528051906020012090506040518060a0016040528085815260200160405180602001604052805f81525081526020016040518060400160405280600681526020017f636f6e666967000000000000000000000000000000000000000000000000000081525081526020015f8152602001600115158152505f808381526020019081526020015f205f820151815f01908161091e91906112fd565b50602082015181600101908161093491906112fd565b50604082015181600201908161094a91906112fd565b50606082015181600301556080820151816004015f6101000a81548160ff021916908315150217905550905050600181908060018154018082558091505060019003905f5260205f20015f909190919091505560025f8381526020019081526020015f2081908060018154018082558091505060019003905f5260205f20015f90919091909150557f3a0418ff85f1967a9aed06302048958343e7ba0f55f678b63621ccfa204f2a836040516109ff90611416565b60405180910390a160405180604001604052806001151581526020018581525092505050919050565b60405180604001604052805f15158152602001606081525090565b6040518060c001604052805f151581526020015f80191681526020016060815260200160608152602001606081526020015f81525090565b60405180604001604052805f15158152602001606081525090565b60405180604001604052805f15158152602001606081525090565b5f604051905090565b5f80fd5b5f80fd5b5f80fd5b5f80fd5b5f601f19601f8301169050919050565b7f4e487b71000000000000000000000000000000000000000000000000000000005f52604160045260245ffd5b610b1082610aca565b810181811067ffffffffffffffff82111715610b2f57610b2e610ada565b5b80604052505050565b5f610b41610ab1565b9050610b4d8282610b07565b919050565b5f67ffffffffffffffff821115610b6c57610b6b610ada565b5b610b7582610aca565b9050602081019050919050565b828183375f83830152505050565b5f610ba2610b9d84610b52565b610b38565b905082815260208101848484011115610bbe57610bbd610ac6565b5b610bc9848285610b82565b509392505050565b5f82601f830112610be557610be4610ac2565b5b8135610bf5848260208601610b90565b91505092915050565b5f60208284031215610c1357610c12610aba565b5b5f82013567ffffffffffffffff811115610c3057610c2f610abe565b5b610c3c84828501610bd1565b91505092915050565b5f8115159050919050565b610c5981610c45565b82525050565b5f81519050919050565b5f82825260208201905092915050565b5f5b83811015610c96578082015181840152602081019050610c7b565b5f8484015250505050565b5f610cab82610c5f565b610cb58185610c69565b9350610cc5818560208601610c79565b610cce81610aca565b840191505092915050565b5f604083015f830151610cee5f860182610c50565b5060208301518482036020860152610d068282610ca1565b9150508091505092915050565b5f6020820190508181035f830152610d2b8184610cd9565b905092915050565b5f819050919050565b610d4581610d33565b8114610d4f575f80fd5b50565b5f81359050610d6081610d3c565b92915050565b5f60208284031215610d7b57610d7a610aba565b5b5f610d8884828501610d52565b91505092915050565b610d9a81610d33565b82525050565b5f819050919050565b610db281610da0565b82525050565b5f60c083015f830151610dcd5f860182610c50565b506020830151610de06020860182610d91565b5060408301518482036040860152610df88282610ca1565b91505060608301518482036060860152610e128282610ca1565b91505060808301518482036080860152610e2c8282610ca1565b91505060a0830151610e4160a0860182610da9565b508091505092915050565b5f6020820190508181035f830152610e648184610db8565b905092915050565b5f8060408385031215610e8257610e81610aba565b5b5f83013567ffffffffffffffff811115610e9f57610e9e610abe565b5b610eab85828601610bd1565b925050602083013567ffffffffffffffff811115610ecc57610ecb610abe565b5b610ed885828601610bd1565b9150509250929050565b5f604083015f830151610ef75f860182610c50565b5060208301518482036020860152610f0f8282610ca1565b9150508091505092915050565b5f6020820190508181035f830152610f348184610ee2565b905092915050565b5f604083015f830151610f515f860182610c50565b5060208301518482036020860152610f698282610ca1565b9150508091505092915050565b5f6020820190508181035f830152610f8e8184610f3c565b905092915050565b5f82825260208201905092915050565b7f4f7574707574206d757374206e6f7420626520656d70747900000000000000005f82015250565b5f610fda601883610f96565b9150610fe582610fa6565b602082019050919050565b5f6020820190508181035f83015261100781610fce565b9050919050565b5f81905092915050565b5f61102282610c5f565b61102c818561100e565b935061103c818560208601610c79565b80840191505092915050565b5f6110538284611018565b915081905092915050565b7f6f757470757400000000000000000000000000000000000000000000000000005f82015250565b5f61109260068361100e565b915061109d8261105e565b600682019050919050565b5f819050919050565b5f819050919050565b6110cb6110c6826110a8565b6110b1565b82525050565b5f6110db82611086565b91506110e78285611018565b91506110f382846110ba565b6020820191508190509392505050565b7f4e487b71000000000000000000000000000000000000000000000000000000005f52602260045260245ffd5b5f600282049050600182168061114757607f821691505b60208210810361115a57611159611103565b5b50919050565b5f819050815f5260205f209050919050565b5f6020601f8301049050919050565b5f82821b905092915050565b5f600883026111bc7fffffffffffffffffffffffffffffffffffffffffffffffffffffffffffffffff82611181565b6111c68683611181565b95508019841693508086168417925050509392505050565b5f819050919050565b5f6112016111fc6111f7846110a8565b6111de565b6110a8565b9050919050565b5f819050919050565b61121a836111e7565b61122e61122682611208565b84845461118d565b825550505050565b5f90565b611242611236565b61124d818484611211565b505050565b5b81811015611270576112655f8261123a565b600181019050611253565b5050565b601f8211156112b55761128681611160565b61128f84611172565b8101602085101561129e578190505b6112b26112aa85611172565b830182611252565b50505b505050565b5f82821c905092915050565b5f6112d55f19846008026112ba565b1980831691505092915050565b5f6112ed83836112c6565b9150826002028217905092915050565b61130682610c5f565b67ffffffffffffffff81111561131f5761131e610ada565b5b6113298254611130565b611334828285611274565b5f60209050601f831160018114611365575f8415611353578287015190505b61135d85826112e2565b8655506113c4565b601f19841661137386611160565b5f5b8281101561139a57848901518255600182019150602085019450602081019050611375565b868310156113b757848901516113b3601f8916826112c6565b8355505b6001600288020188555050505b505050505050565b7f6f6b0000000000000000000000000000000000000000000000000000000000005f82015250565b5f611400600283610f96565b915061140b826113cc565b602082019050919050565b5f6020820190508181035f83015261142d816113f4565b9050919050565b7f50617468206e6f7420666f756e640000000000000000000000000000000000005f82015250565b5f611468600e83610f96565b915061147382611434565b602082019050919050565b5f6020820190508181035f8301526114958161145c565b9050919050565b6114a581610d33565b82525050565b6114b481610da0565b82525050565b5f6060820190508181035f8301526114d1816113f4565b90506114e0602083018561149c565b6114ed60408301846114ab565b9392505050565b7f536f75726365206d757374206e6f7420626520656d70747900000000000000005f82015250565b5f611528601883610f96565b9150611533826114f4565b602082019050919050565b5f6020820190508181035f8301526115558161151c565b9050919050565b7f53696e6b206d757374206e6f7420626520656d707479000000000000000000005f82015250565b5f611590601683610f96565b915061159b8261155c565b602082019050919050565b5f6020820190508181035f8301526115bd81611584565b9050919050565b5f6115cf8286611018565b91506115db8285611018565b91506115e782846110ba565b602082019150819050949350505050565b7f436f6e666967206b6579206d757374206e6f7420626520656d707479000000005f82015250565b5f61162c601c83610f96565b9150611637826115f8565b602082019050919050565b5f6020820190508181035f83015261165981611620565b9050919050565b7f636f6e66696700000000000000000000000000000000000000000000000000005f82015250565b5f61169460068361100e565b915061169f82611660565b600682019050919050565b5f6116b482611688565b91506116c08285611018565b91506116cc82846110ba565b602082019150819050939250505056fea264697066735822122066137052ce145a135335cf1d196ad858b698cf55dc52a060731baabfbeba1a7c64736f6c63430008140033","linkReferences":{}},"methodIdentifiers":{"get(bytes32)":"8eaa6ac0","trace(string,string)":"9d731bb6","traceFromConfig(string)":"ccb6433c","traceToOutput(string)":"45141ab2"},"id":87}