{"abi":[{"type":"function","name":"compute","inputs":[{"name":"unit","type":"string","internalType":"string"},{"name":"model","type":"string","internalType":"string"}],"outputs":[{"name":"embeddingId","type":"bytes32","internalType":"bytes32"}],"stateMutability":"nonpayable"},{"type":"function","name":"get","inputs":[{"name":"embeddingId","type":"bytes32","internalType":"bytes32"}],"outputs":[{"name":"unit","type":"string","internalType":"string"},{"name":"model","type":"string","internalType":"string"},{"name":"dimensions","type":"int256","internalType":"int256"}],"stateMutability":"view"},{"type":"function","name":"searchNaturalLanguage","inputs":[{"name":"query","type":"string","internalType":"string"},{"name":"topK","type":"int256","internalType":"int256"}],"outputs":[{"name":"results","type":"string","internalType":"string"}],"stateMutability":"view"},{"type":"function","name":"searchSimilar","inputs":[{"name":"queryVector","type":"string","internalType":"string"},{"name":"topK","type":"int256","internalType":"int256"},{"name":"language","type":"string","internalType":"string"},{"name":"kind","type":"string","internalType":"string"}],"outputs":[{"name":"results","type":"string","internalType":"string"}],"stateMutability":"view"},{"type":"event","name":"ComputeCompleted","inputs":[{"name":"variant","type":"string","indexed":false,"internalType":"string"},{"name":"embedding","type":"bytes32","indexed":false,"internalType":"bytes32"}],"anonymous":false},{"type":"event","name":"GetCompleted","inputs":[{"name":"variant","type":"string","indexed":false,"internalType":"string"},{"name":"embedding","type":"bytes32","indexed":false,"internalType":"bytes32"},{"name":"dimensions","type":"int256","indexed":false,"internalType":"int256"}],"anonymous":false},{"type":"event","name":"SearchNaturalLanguageCompleted","inputs":[{"name":"variant","type":"string","indexed":false,"internalType":"string"}],"anonymous":false},{"type":"event","name":"SearchSimilarCompleted","inputs":[{"name":"variant","type":"string","indexed":false,"internalType":"string"}],"anonymous":false}],"bytecode":{"object":"0x608060405234801561000f575f80fd5b506118988061001d5f395ff3fe608060405234801561000f575f80fd5b506004361061004a575f3560e01c8063116cef981461004e578063262f37961461007e5780638eaa6ac0146100ae578063a00c9293146100e0575b5f80fd5b61006860048036038101906100639190610bf8565b610110565b6040516100759190610d2a565b60405180910390f35b61009860048036038101906100939190610d4a565b610272565b6040516100a59190610dd8565b60405180910390f35b6100c860048036038101906100c39190610e1b565b6104a8565b6040516100d793929190610e55565b60405180910390f35b6100fa60048036038101906100f59190610e98565b61064c565b6040516101079190610d2a565b60405180910390f35b60605f855111610155576040517f08c379a000000000000000000000000000000000000000000000000000000000815260040161014c90610f3c565b60405180910390fd5b5f8413610197576040517f08c379a000000000000000000000000000000000000000000000000000000000815260040161018e90610fa4565b60405180910390fd5b5f60018054905090505f8186136101ae57856101b0565b815b905060605f5b82811015610244575f8111156101e957816040516020016101d7919061105a565b60405160208183030381529060405291505b8161020f600183815481106102015761020061107b565b5b905f5260205f2001546107ac565b6040516020016102209291906110d8565b6040516020818303038152906040529150808061023c90611131565b9150506101b6565b5080604051602001610256919061120c565b6040516020818303038152906040529350505050949350505050565b5f808351116102b6576040517f08c379a00000000000000000000000000000000000000000000000000000000081526004016102ad90611282565b60405180910390fd5b5f8251116102f9576040517f08c379a00000000000000000000000000000000000000000000000000000000081526004016102f0906112ea565b60405180910390fd5b828260405160200161030c929190611308565b6040516020818303038152906040528051906020012090505f60406106008460405160200161033b919061132b565b604051602081830303815290604052805190602001205f1c61035d919061136e565b610367919061139e565b90506040518060a00160405280858152602001848152602001828152602001428152602001600115158152505f808481526020019081526020015f205f820151815f0190816103b691906115d9565b5060208201518160010190816103cc91906115d9565b5060408201518160020155606082015181600301556080820151816004015f6101000a81548160ff0219169083151502179055509050505f84604051602001610415919061132b565b6040516020818303038152906040528051906020012090508260025f8381526020019081526020015f2081905550600183908060018154018082558091505060019003905f5260205f20015f90919091909150557fb2780fe19a53d270ce611e3f27883713bfc3b47789c2231190ee5bbbfff3a2878360405161049891906116f2565b60405180910390a1505092915050565b6060805f805f8581526020019081526020015f206004015f9054906101000a900460ff1661050b576040517f08c379a000000000000000000000000000000000000000000000000000000000815260040161050290611768565b60405180910390fd5b5f805f8681526020019081526020015f209050805f018160010182600201548280546105369061140c565b80601f01602080910402602001604051908101604052809291908181526020018280546105629061140c565b80156105ad5780601f10610584576101008083540402835291602001916105ad565b820191905f5260205f20905b81548152906001019060200180831161059057829003601f168201915b505050505092508180546105c09061140c565b80601f01602080910402602001604051908101604052809291908181526020018280546105ec9061140c565b80156106375780601f1061060e57610100808354040283529160200191610637565b820191905f5260205f20905b81548152906001019060200180831161061a57829003601f168201915b50505050509150935093509350509193909250565b60605f835111610691576040517f08c379a0000000000000000000000000000000000000000000000000000000008152600401610688906117d0565b60405180910390fd5b5f82136106d3576040517f08c379a00000000000000000000000000000000000000000000000000000000081526004016106ca90610fa4565b60405180910390fd5b5f60018054905090505f8184136106ea57836106ec565b815b905060605f5b82811015610780575f8111156107255781604051602001610713919061105a565b60405160208183030381529060405291505b8161074b6001838154811061073d5761073c61107b565b5b905f5260205f2001546107ac565b60405160200161075c9291906110d8565b6040516020818303038152906040529150808061077890611131565b9150506106f2565b5080604051602001610792919061120c565b604051602081830303815290604052935050505092915050565b60605f6040518060400160405280601081526020017f303132333435363738396162636465660000000000000000000000000000000081525090505f604267ffffffffffffffff81111561080357610802610aa1565b5b6040519080825280601f01601f1916602001820160405280156108355781602001600182028036833780820191505090505b5090507f3000000000000000000000000000000000000000000000000000000000000000815f8151811061086c5761086b61107b565b5b60200101907effffffffffffffffffffffffffffffffffffffffffffffffffffffffffffff191690815f1a9053507f7800000000000000000000000000000000000000000000000000000000000000816001815181106108cf576108ce61107b565b5b60200101907effffffffffffffffffffffffffffffffffffffffffffffffffffffffffffff191690815f1a9053505f5b6020811015610a6d5782600486836020811061091e5761091d61107b565b5b1a60f81b7effffffffffffffffffffffffffffffffffffffffffffffffffffffffffffff1916901c60f81c60ff168151811061095d5761095c61107b565b5b602001015160f81c60f81b8260028361097691906117ee565b6002610982919061182f565b815181106109935761099261107b565b5b60200101907effffffffffffffffffffffffffffffffffffffffffffffffffffffffffffff191690815f1a90535082600f60f81b8683602081106109da576109d961107b565b5b1a60f81b1660f81c60ff16815181106109f6576109f561107b565b5b602001015160f81c60f81b82600283610a0f91906117ee565b6003610a1b919061182f565b81518110610a2c57610a2b61107b565b5b60200101907effffffffffffffffffffffffffffffffffffffffffffffffffffffffffffff191690815f1a9053508080610a6590611131565b9150506108ff565b508092505050919050565b5f604051905090565b5f80fd5b5f80fd5b5f80fd5b5f80fd5b5f601f19601f8301169050919050565b7f4e487b71000000000000000000000000000000000000000000000000000000005f52604160045260245ffd5b610ad782610a91565b810181811067ffffffffffffffff82111715610af657610af5610aa1565b5b80604052505050565b5f610b08610a78565b9050610b148282610ace565b919050565b5f67ffffffffffffffff821115610b3357610b32610aa1565b5b610b3c82610a91565b9050602081019050919050565b828183375f83830152505050565b5f610b69610b6484610b19565b610aff565b905082815260208101848484011115610b8557610b84610a8d565b5b610b90848285610b49565b509392505050565b5f82601f830112610bac57610bab610a89565b5b8135610bbc848260208601610b57565b91505092915050565b5f819050919050565b610bd781610bc5565b8114610be1575f80fd5b50565b5f81359050610bf281610bce565b92915050565b5f805f8060808587031215610c1057610c0f610a81565b5b5f85013567ffffffffffffffff811115610c2d57610c2c610a85565b5b610c3987828801610b98565b9450506020610c4a87828801610be4565b935050604085013567ffffffffffffffff811115610c6b57610c6a610a85565b5b610c7787828801610b98565b925050606085013567ffffffffffffffff811115610c9857610c97610a85565b5b610ca487828801610b98565b91505092959194509250565b5f81519050919050565b5f82825260208201905092915050565b5f5b83811015610ce7578082015181840152602081019050610ccc565b5f8484015250505050565b5f610cfc82610cb0565b610d068185610cba565b9350610d16818560208601610cca565b610d1f81610a91565b840191505092915050565b5f6020820190508181035f830152610d428184610cf2565b905092915050565b5f8060408385031215610d6057610d5f610a81565b5b5f83013567ffffffffffffffff811115610d7d57610d7c610a85565b5b610d8985828601610b98565b925050602083013567ffffffffffffffff811115610daa57610da9610a85565b5b610db685828601610b98565b9150509250929050565b5f819050919050565b610dd281610dc0565b82525050565b5f602082019050610deb5f830184610dc9565b92915050565b610dfa81610dc0565b8114610e04575f80fd5b50565b5f81359050610e1581610df1565b92915050565b5f60208284031215610e3057610e2f610a81565b5b5f610e3d84828501610e07565b91505092915050565b610e4f81610bc5565b82525050565b5f6060820190508181035f830152610e6d8186610cf2565b90508181036020830152610e818185610cf2565b9050610e906040830184610e46565b949350505050565b5f8060408385031215610eae57610ead610a81565b5b5f83013567ffffffffffffffff811115610ecb57610eca610a85565b5b610ed785828601610b98565b9250506020610ee885828601610be4565b9150509250929050565b7f517565727920766563746f722063616e6e6f7420626520656d707479000000005f82015250565b5f610f26601c83610cba565b9150610f3182610ef2565b602082019050919050565b5f6020820190508181035f830152610f5381610f1a565b9050919050565b7f746f704b206d75737420626520706f73697469766500000000000000000000005f82015250565b5f610f8e601583610cba565b9150610f9982610f5a565b602082019050919050565b5f6020820190508181035f830152610fbb81610f82565b9050919050565b5f81519050919050565b5f81905092915050565b5f610fe082610fc2565b610fea8185610fcc565b9350610ffa818560208601610cca565b80840191505092915050565b5f81905092915050565b7f2c000000000000000000000000000000000000000000000000000000000000005f82015250565b5f611044600183611006565b915061104f82611010565b600182019050919050565b5f6110658284610fd6565b915061107082611038565b915081905092915050565b7f4e487b71000000000000000000000000000000000000000000000000000000005f52603260045260245ffd5b5f6110b282610cb0565b6110bc8185611006565b93506110cc818560208601610cca565b80840191505092915050565b5f6110e38285610fd6565b91506110ef82846110a8565b91508190509392505050565b7f4e487b71000000000000000000000000000000000000000000000000000000005f52601160045260245ffd5b5f819050919050565b5f61113b82611128565b91507fffffffffffffffffffffffffffffffffffffffffffffffffffffffffffffffff820361116d5761116c6110fb565b5b600182019050919050565b7f5b000000000000000000000000000000000000000000000000000000000000005f82015250565b5f6111ac600183611006565b91506111b782611178565b600182019050919050565b7f5d000000000000000000000000000000000000000000000000000000000000005f82015250565b5f6111f6600183611006565b9150611201826111c2565b600182019050919050565b5f611216826111a0565b91506112228284610fd6565b915061122d826111ea565b915081905092915050565b7f556e69742063616e6e6f7420626520656d7074790000000000000000000000005f82015250565b5f61126c601483610cba565b915061127782611238565b602082019050919050565b5f6020820190508181035f83015261129981611260565b9050919050565b7f4d6f64656c2063616e6e6f7420626520656d70747900000000000000000000005f82015250565b5f6112d4601583610cba565b91506112df826112a0565b602082019050919050565b5f6020820190508181035f830152611301816112c8565b9050919050565b5f61131382856110a8565b915061131f82846110a8565b91508190509392505050565b5f61133682846110a8565b915081905092915050565b7f4e487b71000000000000000000000000000000000000000000000000000000005f52601260045260245ffd5b5f61137882611128565b915061138383611128565b92508261139357611392611341565b5b828206905092915050565b5f6113a882610bc5565b91506113b383610bc5565b92508282019050828112155f8312168382125f8412151617156113d9576113d86110fb565b5b92915050565b7f4e487b71000000000000000000000000000000000000000000000000000000005f52602260045260245ffd5b5f600282049050600182168061142357607f821691505b602082108103611436576114356113df565b5b50919050565b5f819050815f5260205f209050919050565b5f6020601f8301049050919050565b5f82821b905092915050565b5f600883026114987fffffffffffffffffffffffffffffffffffffffffffffffffffffffffffffffff8261145d565b6114a2868361145d565b95508019841693508086168417925050509392505050565b5f819050919050565b5f6114dd6114d86114d384611128565b6114ba565b611128565b9050919050565b5f819050919050565b6114f6836114c3565b61150a611502826114e4565b848454611469565b825550505050565b5f90565b61151e611512565b6115298184846114ed565b505050565b5b8181101561154c576115415f82611516565b60018101905061152f565b5050565b601f821115611591576115628161143c565b61156b8461144e565b8101602085101561157a578190505b61158e6115868561144e565b83018261152e565b50505b505050565b5f82821c905092915050565b5f6115b15f1984600802611596565b1980831691505092915050565b5f6115c983836115a2565b9150826002028217905092915050565b6115e282610cb0565b67ffffffffffffffff8111156115fb576115fa610aa1565b5b611605825461140c565b611610828285611550565b5f60209050601f831160018114611641575f841561162f578287015190505b61163985826115be565b8655506116a0565b601f19841661164f8661143c565b5f5b8281101561167657848901518255600182019150602085019450602081019050611651565b86831015611693578489015161168f601f8916826115a2565b8355505b6001600288020188555050505b505050505050565b7f6f6b0000000000000000000000000000000000000000000000000000000000005f82015250565b5f6116dc600283610cba565b91506116e7826116a8565b602082019050919050565b5f6040820190508181035f830152611709816116d0565b90506117186020830184610dc9565b92915050565b7f456d62656464696e67206e6f7420666f756e64000000000000000000000000005f82015250565b5f611752601383610cba565b915061175d8261171e565b602082019050919050565b5f6020820190508181035f83015261177f81611746565b9050919050565b7f51756572792063616e6e6f7420626520656d70747900000000000000000000005f82015250565b5f6117ba601583610cba565b91506117c582611786565b602082019050919050565b5f6020820190508181035f8301526117e7816117ae565b9050919050565b5f6117f882611128565b915061180383611128565b925082820261181181611128565b91508282048414831517611828576118276110fb565b5b5092915050565b5f61183982611128565b915061184483611128565b925082820190508082111561185c5761185b6110fb565b5b9291505056fea2646970667358221220742795946359917e7b4377f0f7aa32b8925ea528e7a03755f6c1d8351bbafc8964736f6c63430008140033","linkReferences":{}},"methodIdentifiers":{"compute(string,string)":"262f3796","get(bytes32)":"8eaa6ac0","searchNaturalLanguage(string,int256)":"a00c9293","searchSimilar(string,int256,string,string)":"116cef98"},"id":239}