{"abi":[{"type":"function","name":"defineGuide","inputs":[{"name":"concept","type":"string","internalType":"string"},{"name":"steps","type":"string[]","internalType":"string[]"},{"name":"content","type":"string","internalType":"string"}],"outputs":[{"name":"","type":"tuple","internalType":"struct ActionGuide.DefineOkResult","components":[{"name":"success","type":"bool","internalType":"bool"},{"name":"workflow","type":"bytes32","internalType":"bytes32"},{"name":"stepCount","type":"int256","internalType":"int256"}]}],"stateMutability":"nonpayable"},{"type":"function","name":"render","inputs":[{"name":"workflow","type":"bytes32","internalType":"bytes32"},{"name":"format","type":"string","internalType":"string"}],"outputs":[{"name":"","type":"tuple","internalType":"struct ActionGuide.RenderOkResult","components":[{"name":"success","type":"bool","internalType":"bool"},{"name":"content","type":"string","internalType":"string"}]}],"stateMutability":"nonpayable"},{"type":"event","name":"DefineCompleted","inputs":[{"name":"variant","type":"string","indexed":false,"internalType":"string"},{"name":"workflow","type":"bytes32","indexed":false,"internalType":"bytes32"},{"name":"stepCount","type":"int256","indexed":false,"internalType":"int256"}],"anonymous":false},{"type":"event","name":"RenderCompleted","inputs":[{"name":"variant","type":"string","indexed":false,"internalType":"string"}],"anonymous":false}],"bytecode":{"object":"0x608060405234801561000f575f80fd5b506112d18061001d5f395ff3fe608060405234801561000f575f80fd5b5060043610610034575f3560e01c806363c6fbbc14610038578063672b5d5a14610068575b5f80fd5b610052600480360381019061004d91906107cd565b610098565b60405161005f91906108fb565b60405180910390f35b610082600480360381019061007d919061093e565b61034e565b60405161008f9190610a4c565b60405180910390f35b6100a061048e565b5f8451116100e3576040517f08c379a00000000000000000000000000000000000000000000000000000000081526004016100da90610ac6565b60405180910390fd5b5f825111610126576040517f08c379a000000000000000000000000000000000000000000000000000000000815260040161011d90610b2e565b60405180910390fd5b5f844260025f81548092919061013b90610b82565b9190505560405160200161015193929190610c23565b6040516020818303038152906040528051906020012090505f845167ffffffffffffffff811115610185576101846105c7565b5b6040519080825280602002602001820160405280156101b857816020015b60608152602001906001900390816101a35790505b5090505f5b8551811015610212578581815181106101d9576101d8610c5b565b5b60200260200101518282815181106101f4576101f3610c5b565b5b6020026020010181905250808061020a90610b82565b9150506101bd565b506040518060a00160405280878152602001828152602001858152602001428152602001600115158152505f808481526020019081526020015f205f820151815f0190816102609190610e82565b50602082015181600101908051906020019061027d9291906104b1565b5060408201518160020190816102939190610e82565b50606082015181600301556080820151816004015f6101000a81548160ff021916908315150217905550905050600182908060018154018082558091505060019003905f5260205f20015f90919091909150555f855190507fabb9fdfb6ff5da2274fa0042dffad11c4be7bee9d9b60c289417ee46c63805ba838260405161031c929190610fb9565b60405180910390a160405180606001604052806001151581526020018481526020018281525093505050509392505050565b610356610508565b5f808481526020019081526020015f206004015f9054906101000a900460ff166103b5576040517f08c379a00000000000000000000000000000000000000000000000000000000081526004016103ac9061103d565b60405180910390fd5b5f8251116103f8576040517f08c379a00000000000000000000000000000000000000000000000000000000081526004016103ef906110a5565b60405180910390fd5b5f805f8581526020019081526020015f2090505f815f01848360020160405160200161042693929190611221565b60405160208183030381529060405290507ffabb89b27db015524cb9f88ed56778992b9045ee0c07415720148a6d5818901e6040516104649061127d565b60405180910390a16040518060400160405280600115158152602001828152509250505092915050565b60405180606001604052805f151581526020015f80191681526020015f81525090565b828054828255905f5260205f209081019282156104f7579160200282015b828111156104f65782518290816104e69190610e82565b50916020019190600101906104cf565b5b5090506105049190610523565b5090565b60405180604001604052805f15158152602001606081525090565b5b80821115610542575f81816105399190610546565b50600101610524565b5090565b50805461055290610cb5565b5f825580601f106105635750610580565b601f0160209004905f5260205f209081019061057f9190610583565b5b50565b5b8082111561059a575f815f905550600101610584565b5090565b5f604051905090565b5f80fd5b5f80fd5b5f80fd5b5f80fd5b5f601f19601f8301169050919050565b7f4e487b71000000000000000000000000000000000000000000000000000000005f52604160045260245ffd5b6105fd826105b7565b810181811067ffffffffffffffff8211171561061c5761061b6105c7565b5b80604052505050565b5f61062e61059e565b905061063a82826105f4565b919050565b5f67ffffffffffffffff821115610659576106586105c7565b5b610662826105b7565b9050602081019050919050565b828183375f83830152505050565b5f61068f61068a8461063f565b610625565b9050828152602081018484840111156106ab576106aa6105b3565b5b6106b684828561066f565b509392505050565b5f82601f8301126106d2576106d16105af565b5b81356106e284826020860161067d565b91505092915050565b5f67ffffffffffffffff821115610705576107046105c7565b5b602082029050602081019050919050565b5f80fd5b5f61072c610727846106eb565b610625565b9050808382526020820190506020840283018581111561074f5761074e610716565b5b835b8181101561079657803567ffffffffffffffff811115610774576107736105af565b5b80860161078189826106be565b85526020850194505050602081019050610751565b5050509392505050565b5f82601f8301126107b4576107b36105af565b5b81356107c484826020860161071a565b91505092915050565b5f805f606084860312156107e4576107e36105a7565b5b5f84013567ffffffffffffffff811115610801576108006105ab565b5b61080d868287016106be565b935050602084013567ffffffffffffffff81111561082e5761082d6105ab565b5b61083a868287016107a0565b925050604084013567ffffffffffffffff81111561085b5761085a6105ab565b5b610867868287016106be565b9150509250925092565b5f8115159050919050565b61088581610871565b82525050565b5f819050919050565b61089d8161088b565b82525050565b5f819050919050565b6108b5816108a3565b82525050565b606082015f8201516108cf5f85018261087c565b5060208201516108e26020850182610894565b5060408201516108f560408501826108ac565b50505050565b5f60608201905061090e5f8301846108bb565b92915050565b61091d8161088b565b8114610927575f80fd5b50565b5f8135905061093881610914565b92915050565b5f8060408385031215610954576109536105a7565b5b5f6109618582860161092a565b925050602083013567ffffffffffffffff811115610982576109816105ab565b5b61098e858286016106be565b9150509250929050565b5f81519050919050565b5f82825260208201905092915050565b5f5b838110156109cf5780820151818401526020810190506109b4565b5f8484015250505050565b5f6109e482610998565b6109ee81856109a2565b93506109fe8185602086016109b2565b610a07816105b7565b840191505092915050565b5f604083015f830151610a275f86018261087c565b5060208301518482036020860152610a3f82826109da565b9150508091505092915050565b5f6020820190508181035f830152610a648184610a12565b905092915050565b5f82825260208201905092915050565b7f436f6e63657074206e616d65206d757374206e6f7420626520656d70747900005f82015250565b5f610ab0601e83610a6c565b9150610abb82610a7c565b602082019050919050565b5f6020820190508181035f830152610add81610aa4565b9050919050565b7f436f6e74656e74206d757374206e6f7420626520656d707479000000000000005f82015250565b5f610b18601983610a6c565b9150610b2382610ae4565b602082019050919050565b5f6020820190508181035f830152610b4581610b0c565b9050919050565b7f4e487b71000000000000000000000000000000000000000000000000000000005f52601160045260245ffd5b5f819050919050565b5f610b8c82610b79565b91507fffffffffffffffffffffffffffffffffffffffffffffffffffffffffffffffff8203610bbe57610bbd610b4c565b5b600182019050919050565b5f81905092915050565b5f610bdd82610998565b610be78185610bc9565b9350610bf78185602086016109b2565b80840191505092915050565b5f819050919050565b610c1d610c1882610b79565b610c03565b82525050565b5f610c2e8286610bd3565b9150610c3a8285610c0c565b602082019150610c4a8284610c0c565b602082019150819050949350505050565b7f4e487b71000000000000000000000000000000000000000000000000000000005f52603260045260245ffd5b7f4e487b71000000000000000000000000000000000000000000000000000000005f52602260045260245ffd5b5f6002820490506001821680610ccc57607f821691505b602082108103610cdf57610cde610c88565b5b50919050565b5f819050815f5260205f209050919050565b5f6020601f8301049050919050565b5f82821b905092915050565b5f60088302610d417fffffffffffffffffffffffffffffffffffffffffffffffffffffffffffffffff82610d06565b610d4b8683610d06565b95508019841693508086168417925050509392505050565b5f819050919050565b5f610d86610d81610d7c84610b79565b610d63565b610b79565b9050919050565b5f819050919050565b610d9f83610d6c565b610db3610dab82610d8d565b848454610d12565b825550505050565b5f90565b610dc7610dbb565b610dd2818484610d96565b505050565b5b81811015610df557610dea5f82610dbf565b600181019050610dd8565b5050565b601f821115610e3a57610e0b81610ce5565b610e1484610cf7565b81016020851015610e23578190505b610e37610e2f85610cf7565b830182610dd7565b50505b505050565b5f82821c905092915050565b5f610e5a5f1984600802610e3f565b1980831691505092915050565b5f610e728383610e4b565b9150826002028217905092915050565b610e8b82610998565b67ffffffffffffffff811115610ea457610ea36105c7565b5b610eae8254610cb5565b610eb9828285610df9565b5f60209050601f831160018114610eea575f8415610ed8578287015190505b610ee28582610e67565b865550610f49565b601f198416610ef886610ce5565b5f5b82811015610f1f57848901518255600182019150602085019450602081019050610efa565b86831015610f3c5784890151610f38601f891682610e4b565b8355505b6001600288020188555050505b505050505050565b7f6f6b0000000000000000000000000000000000000000000000000000000000005f82015250565b5f610f85600283610a6c565b9150610f9082610f51565b602082019050919050565b610fa48161088b565b82525050565b610fb3816108a3565b82525050565b5f6060820190508181035f830152610fd081610f79565b9050610fdf6020830185610f9b565b610fec6040830184610faa565b9392505050565b7f576f726b666c6f7720646f6573206e6f742065786973740000000000000000005f82015250565b5f611027601783610a6c565b915061103282610ff3565b602082019050919050565b5f6020820190508181035f8301526110548161101b565b9050919050565b7f466f726d6174206d757374206e6f7420626520656d70747900000000000000005f82015250565b5f61108f601883610a6c565b915061109a8261105b565b602082019050919050565b5f6020820190508181035f8301526110bc81611083565b9050919050565b7f23200000000000000000000000000000000000000000000000000000000000005f82015250565b5f6110f7600283610bc9565b9150611102826110c3565b600282019050919050565b5f815461111981610cb5565b6111238186610bc9565b9450600182165f811461113d576001811461115257611184565b60ff1983168652811515820286019350611184565b61115b85610ce5565b5f5b8381101561117c5781548189015260018201915060208101905061115d565b838801955050505b50505092915050565b7f0a0a0000000000000000000000000000000000000000000000000000000000005f82015250565b5f6111c1600283610bc9565b91506111cc8261118d565b600282019050919050565b7f466f726d61743a200000000000000000000000000000000000000000000000005f82015250565b5f61120b600883610bc9565b9150611216826111d7565b600882019050919050565b5f61122b826110eb565b9150611237828661110d565b9150611242826111b5565b915061124d826111ff565b91506112598285610bd3565b9150611264826111b5565b9150611270828461110d565b9150819050949350505050565b5f6020820190508181035f83015261129481610f79565b905091905056fea264697066735822122003d2e353970ae72a2c00b1ee7eaae7803ca59396ab01ae322be73ca3f965fe8164736f6c63430008140033","linkReferences":{}},"methodIdentifiers":{"defineGuide(string,string[],string)":"63c6fbbc","render(bytes32,string)":"672b5d5a"},"id":21}