{"abi":[{"type":"function","name":"adapterExists","inputs":[{"name":"adapterId","type":"bytes32","internalType":"bytes32"}],"outputs":[{"name":"","type":"bool","internalType":"bool"}],"stateMutability":"view"},{"type":"function","name":"generate","inputs":[{"name":"name","type":"string","internalType":"string"},{"name":"protocol","type":"string","internalType":"string"}],"outputs":[{"name":"result","type":"tuple","internalType":"struct TransportAdapterScaffoldGen.GenerateOkResult","components":[{"name":"success","type":"bool","internalType":"bool"},{"name":"files","type":"bytes[]","internalType":"bytes[]"},{"name":"filesGenerated","type":"int256","internalType":"int256"}]}],"stateMutability":"nonpayable"},{"type":"function","name":"getAdapter","inputs":[{"name":"adapterId","type":"bytes32","internalType":"bytes32"}],"outputs":[{"name":"name","type":"string","internalType":"string"},{"name":"protocol","type":"string","internalType":"string"},{"name":"filesGenerated","type":"int256","internalType":"int256"}],"stateMutability":"view"},{"type":"function","name":"preview","inputs":[{"name":"name","type":"string","internalType":"string"},{"name":"protocol","type":"string","internalType":"string"}],"outputs":[{"name":"result","type":"tuple","internalType":"struct TransportAdapterScaffoldGen.PreviewOkResult","components":[{"name":"success","type":"bool","internalType":"bool"},{"name":"files","type":"bytes[]","internalType":"bytes[]"},{"name":"wouldWrite","type":"int256","internalType":"int256"},{"name":"wouldSkip","type":"int256","internalType":"int256"}]}],"stateMutability":"pure"},{"type":"function","name":"register","inputs":[],"outputs":[{"name":"result","type":"tuple","internalType":"struct TransportAdapterScaffoldGen.RegisterOkResult","components":[{"name":"success","type":"bool","internalType":"bool"},{"name":"name","type":"string","internalType":"string"},{"name":"inputKind","type":"string","internalType":"string"},{"name":"outputKind","type":"string","internalType":"string"},{"name":"capabilities","type":"string[]","internalType":"string[]"}]}],"stateMutability":"pure"},{"type":"event","name":"GenerateCompleted","inputs":[{"name":"variant","type":"string","indexed":false,"internalType":"string"},{"name":"files","type":"bytes[]","indexed":false,"internalType":"bytes[]"},{"name":"filesGenerated","type":"int256","indexed":false,"internalType":"int256"}],"anonymous":false},{"type":"event","name":"PreviewCompleted","inputs":[{"name":"variant","type":"string","indexed":false,"internalType":"string"},{"name":"files","type":"bytes[]","indexed":false,"internalType":"bytes[]"},{"name":"wouldWrite","type":"int256","indexed":false,"internalType":"int256"},{"name":"wouldSkip","type":"int256","indexed":false,"internalType":"int256"}],"anonymous":false},{"type":"event","name":"RegisterCompleted","inputs":[{"name":"variant","type":"string","indexed":false,"internalType":"string"},{"name":"capabilities","type":"string[]","indexed":false,"internalType":"string[]"}],"anonymous":false}],"bytecode":{"object":"0x608060405234801561000f575f80fd5b50611b3f8061001d5f395ff3fe608060405234801561000f575f80fd5b5060043610610055575f3560e01c80631aa3a00814610059578063632735ad146100775780637c0d3ca6146100a75780638272e138146100d7578063fd4862b714610109575b5f80fd5b610061610139565b60405161006e9190610c8b565b60405180910390f35b610091600480360381019061008c9190610de8565b61030b565b60405161009e9190610fd0565b60405180910390f35b6100c160048036038101906100bc9190610de8565b6105ff565b6040516100ce9190611050565b60405180910390f35b6100f160048036038101906100ec91906110a3565b61078e565b60405161010093929190611125565b60405180910390f35b610123600480360381019061011e91906110a3565b610932565b6040516101309190611177565b60405180910390f35b61014161095a565b5f600267ffffffffffffffff81111561015d5761015c610cc4565b5b60405190808252806020026020018201604052801561019057816020015b606081526020019060019003908161017b5790505b5090506040518060400160405280600981526020017f7472616e73706f72740000000000000000000000000000000000000000000000815250815f815181106101dc576101db611190565b5b60200260200101819052506040518060400160405280600781526020017f61646170746572000000000000000000000000000000000000000000000000008152508160018151811061023157610230611190565b5b60200260200101819052506040518060a001604052806001151581526020016040518060400160405280601e81526020017f7472616e73706f72742d616461707465722d73636166666f6c642d67656e000081525081526020016040518060400160405280600c81526020017f636f6e636570742d73706563000000000000000000000000000000000000000081525081526020016040518060400160405280601a81526020017f7472616e73706f72742d616461707465722d73636166666f6c6400000000000081525081526020018281525091505090565b61031361098a565b5f835111610356576040517f08c379a000000000000000000000000000000000000000000000000000000000815260040161034d90611207565b60405180910390fd5b5f825111610399576040517f08c379a00000000000000000000000000000000000000000000000000000000081526004016103909061126f565b60405180910390fd5b5f600267ffffffffffffffff8111156103b5576103b4610cc4565b5b6040519080825280602002602001820160405280156103e857816020015b60608152602001906001900390816103d35790505b50905083836040516020016103fe9291906113a5565b604051602081830303815290604052815f815181106104205761041f611190565b5b6020026020010181905250838360405160200161043e92919061147d565b6040516020818303038152906040528160018151811061046157610460611190565b5b60200260200101819052505f600290505f85854260025460405160200161048b94939291906114ea565b60405160208183030381529060405280519060200120905060025f8154809291906104b59061155c565b91905055506040518060c00160405280878152602001868152602001848152602001838152602001428152602001600115158152505f808381526020019081526020015f205f820151815f01908161050d919061179d565b506020820151816001019081610523919061179d565b5060408201518160020190805190602001906105409291906109ab565b50606082015181600301556080820151816004015560a0820151816005015f6101000a81548160ff021916908315150217905550905050600181908060018154018082558091505060019003905f5260205f20015f909190919091505560405180606001604052806001151581526020018481526020018381525093507f48bda0bee7ff8852f440265af654a83c61da2283be561d3abff07f7ae4ae9e0883836040516105ee929190611939565b60405180910390a150505092915050565b610607610a02565b5f83511161064a576040517f08c379a000000000000000000000000000000000000000000000000000000000815260040161064190611207565b60405180910390fd5b5f82511161068d576040517f08c379a00000000000000000000000000000000000000000000000000000000081526004016106849061126f565b60405180910390fd5b5f600267ffffffffffffffff8111156106a9576106a8610cc4565b5b6040519080825280602002602001820160405280156106dc57816020015b60608152602001906001900390816106c75790505b50905083836040516020016106f29291906113a5565b604051602081830303815290604052815f8151811061071457610713611190565b5b6020026020010181905250838360405160200161073292919061147d565b6040516020818303038152906040528160018151811061075557610754611190565b5b60200260200101819052506040518060800160405280600115158152602001828152602001600281526020015f81525091505092915050565b6060805f805f8581526020019081526020015f206005015f9054906101000a900460ff166107f1576040517f08c379a00000000000000000000000000000000000000000000000000000000081526004016107e8906119c4565b60405180910390fd5b5f805f8681526020019081526020015f209050805f0181600101826003015482805461081c906115d0565b80601f0160208091040260200160405190810160405280929190818152602001828054610848906115d0565b80156108935780601f1061086a57610100808354040283529160200191610893565b820191905f5260205f20905b81548152906001019060200180831161087657829003601f168201915b505050505092508180546108a6906115d0565b80601f01602080910402602001604051908101604052809291908181526020018280546108d2906115d0565b801561091d5780601f106108f45761010080835404028352916020019161091d565b820191905f5260205f20905b81548152906001019060200180831161090057829003601f168201915b50505050509150935093509350509193909250565b5f805f8381526020019081526020015f206005015f9054906101000a900460ff169050919050565b6040518060a001604052805f15158152602001606081526020016060815260200160608152602001606081525090565b60405180606001604052805f15158152602001606081526020015f81525090565b828054828255905f5260205f209081019282156109f1579160200282015b828111156109f05782518290816109e09190611a3a565b50916020019190600101906109c9565b5b5090506109fe9190610a29565b5090565b60405180608001604052805f15158152602001606081526020015f81526020015f81525090565b5b80821115610a48575f8181610a3f9190610a4c565b50600101610a2a565b5090565b508054610a58906115d0565b5f825580601f10610a695750610a86565b601f0160209004905f5260205f2090810190610a859190610a89565b5b50565b5b80821115610aa0575f815f905550600101610a8a565b5090565b5f8115159050919050565b610ab881610aa4565b82525050565b5f81519050919050565b5f82825260208201905092915050565b5f5b83811015610af5578082015181840152602081019050610ada565b5f8484015250505050565b5f601f19601f8301169050919050565b5f610b1a82610abe565b610b248185610ac8565b9350610b34818560208601610ad8565b610b3d81610b00565b840191505092915050565b5f81519050919050565b5f82825260208201905092915050565b5f819050602082019050919050565b5f610b7c8383610b10565b905092915050565b5f602082019050919050565b5f610b9a82610b48565b610ba48185610b52565b935083602082028501610bb685610b62565b805f5b85811015610bf15784840389528151610bd28582610b71565b9450610bdd83610b84565b925060208a01995050600181019050610bb9565b50829750879550505050505092915050565b5f60a083015f830151610c185f860182610aaf565b5060208301518482036020860152610c308282610b10565b91505060408301518482036040860152610c4a8282610b10565b91505060608301518482036060860152610c648282610b10565b91505060808301518482036080860152610c7e8282610b90565b9150508091505092915050565b5f6020820190508181035f830152610ca38184610c03565b905092915050565b5f604051905090565b5f80fd5b5f80fd5b5f80fd5b5f80fd5b7f4e487b71000000000000000000000000000000000000000000000000000000005f52604160045260245ffd5b610cfa82610b00565b810181811067ffffffffffffffff82111715610d1957610d18610cc4565b5b80604052505050565b5f610d2b610cab565b9050610d378282610cf1565b919050565b5f67ffffffffffffffff821115610d5657610d55610cc4565b5b610d5f82610b00565b9050602081019050919050565b828183375f83830152505050565b5f610d8c610d8784610d3c565b610d22565b905082815260208101848484011115610da857610da7610cc0565b5b610db3848285610d6c565b509392505050565b5f82601f830112610dcf57610dce610cbc565b5b8135610ddf848260208601610d7a565b91505092915050565b5f8060408385031215610dfe57610dfd610cb4565b5b5f83013567ffffffffffffffff811115610e1b57610e1a610cb8565b5b610e2785828601610dbb565b925050602083013567ffffffffffffffff811115610e4857610e47610cb8565b5b610e5485828601610dbb565b9150509250929050565b5f81519050919050565b5f82825260208201905092915050565b5f819050602082019050919050565b5f81519050919050565b5f82825260208201905092915050565b5f610eab82610e87565b610eb58185610e91565b9350610ec5818560208601610ad8565b610ece81610b00565b840191505092915050565b5f610ee48383610ea1565b905092915050565b5f602082019050919050565b5f610f0282610e5e565b610f0c8185610e68565b935083602082028501610f1e85610e78565b805f5b85811015610f595784840389528151610f3a8582610ed9565b9450610f4583610eec565b925060208a01995050600181019050610f21565b50829750879550505050505092915050565b5f819050919050565b610f7d81610f6b565b82525050565b5f606083015f830151610f985f860182610aaf565b5060208301518482036020860152610fb08282610ef8565b9150506040830151610fc56040860182610f74565b508091505092915050565b5f6020820190508181035f830152610fe88184610f83565b905092915050565b5f608083015f8301516110055f860182610aaf565b506020830151848203602086015261101d8282610ef8565b91505060408301516110326040860182610f74565b5060608301516110456060860182610f74565b508091505092915050565b5f6020820190508181035f8301526110688184610ff0565b905092915050565b5f819050919050565b61108281611070565b811461108c575f80fd5b50565b5f8135905061109d81611079565b92915050565b5f602082840312156110b8576110b7610cb4565b5b5f6110c58482850161108f565b91505092915050565b5f82825260208201905092915050565b5f6110e882610abe565b6110f281856110ce565b9350611102818560208601610ad8565b61110b81610b00565b840191505092915050565b61111f81610f6b565b82525050565b5f6060820190508181035f83015261113d81866110de565b9050818103602083015261115181856110de565b90506111606040830184611116565b949350505050565b61117181610aa4565b82525050565b5f60208201905061118a5f830184611168565b92915050565b7f4e487b71000000000000000000000000000000000000000000000000000000005f52603260045260245ffd5b7f4e616d652063616e6e6f7420626520656d7074790000000000000000000000005f82015250565b5f6111f16014836110ce565b91506111fc826111bd565b602082019050919050565b5f6020820190508181035f83015261121e816111e5565b9050919050565b7f50726f746f636f6c2063616e6e6f7420626520656d70747900000000000000005f82015250565b5f6112596018836110ce565b915061126482611225565b602082019050919050565b5f6020820190508181035f8301526112868161124d565b9050919050565b5f81905092915050565b7f2f2f205472616e73706f727420616461707465722073636166666f6c643a20005f82015250565b5f6112cb601f8361128d565b91506112d682611297565b601f82019050919050565b5f6112eb82610abe565b6112f5818561128d565b9350611305818560208601610ad8565b80840191505092915050565b7f0a2f2f2050726f746f636f6c3a200000000000000000000000000000000000005f82015250565b5f611345600e8361128d565b915061135082611311565b600e82019050919050565b7f0a2f2f20616461707465722e74730000000000000000000000000000000000005f82015250565b5f61138f600e8361128d565b915061139a8261135b565b600e82019050919050565b5f6113af826112bf565b91506113bb82856112e1565b91506113c682611339565b91506113d282846112e1565b91506113dd82611383565b91508190509392505050565b7f2f2f205472616e73706f7274206164617074657220636f6e6669673a200000005f82015250565b5f61141d601d8361128d565b9150611428826113e9565b601d82019050919050565b7f0a2f2f20636f6e6669672e7473000000000000000000000000000000000000005f82015250565b5f611467600d8361128d565b915061147282611433565b600d82019050919050565b5f61148782611411565b915061149382856112e1565b915061149e82611339565b91506114aa82846112e1565b91506114b58261145b565b91508190509392505050565b5f819050919050565b5f819050919050565b6114e46114df826114c1565b6114ca565b82525050565b5f6114f582876112e1565b915061150182866112e1565b915061150d82856114d3565b60208201915061151d82846114d3565b60208201915081905095945050505050565b7f4e487b71000000000000000000000000000000000000000000000000000000005f52601160045260245ffd5b5f611566826114c1565b91507fffffffffffffffffffffffffffffffffffffffffffffffffffffffffffffffff82036115985761159761152f565b5b600182019050919050565b7f4e487b71000000000000000000000000000000000000000000000000000000005f52602260045260245ffd5b5f60028204905060018216806115e757607f821691505b6020821081036115fa576115f96115a3565b5b50919050565b5f819050815f5260205f209050919050565b5f6020601f8301049050919050565b5f82821b905092915050565b5f6008830261165c7fffffffffffffffffffffffffffffffffffffffffffffffffffffffffffffffff82611621565b6116668683611621565b95508019841693508086168417925050509392505050565b5f819050919050565b5f6116a161169c611697846114c1565b61167e565b6114c1565b9050919050565b5f819050919050565b6116ba83611687565b6116ce6116c6826116a8565b84845461162d565b825550505050565b5f90565b6116e26116d6565b6116ed8184846116b1565b505050565b5b81811015611710576117055f826116da565b6001810190506116f3565b5050565b601f8211156117555761172681611600565b61172f84611612565b8101602085101561173e578190505b61175261174a85611612565b8301826116f2565b50505b505050565b5f82821c905092915050565b5f6117755f198460080261175a565b1980831691505092915050565b5f61178d8383611766565b9150826002028217905092915050565b6117a682610abe565b67ffffffffffffffff8111156117bf576117be610cc4565b5b6117c982546115d0565b6117d4828285611714565b5f60209050601f831160018114611805575f84156117f3578287015190505b6117fd8582611782565b865550611864565b601f19841661181386611600565b5f5b8281101561183a57848901518255600182019150602085019450602081019050611815565b868310156118575784890151611853601f891682611766565b8355505b6001600288020188555050505b505050505050565b7f6f6b0000000000000000000000000000000000000000000000000000000000005f82015250565b5f6118a06002836110ce565b91506118ab8261186c565b602082019050919050565b5f82825260208201905092915050565b5f6118d082610e5e565b6118da81856118b6565b9350836020820285016118ec85610e78565b805f5b8581101561192757848403895281516119088582610ed9565b945061191383610eec565b925060208a019950506001810190506118ef565b50829750879550505050505092915050565b5f6060820190508181035f83015261195081611894565b9050818103602083015261196481856118c6565b90506119736040830184611116565b9392505050565b7f416461707465722073636166666f6c64206e6f7420666f756e640000000000005f82015250565b5f6119ae601a836110ce565b91506119b98261197a565b602082019050919050565b5f6020820190508181035f8301526119db816119a2565b9050919050565b5f819050815f5260205f209050919050565b601f821115611a3557611a06816119e2565b611a0f84611612565b81016020851015611a1e578190505b611a32611a2a85611612565b8301826116f2565b50505b505050565b611a4382610e87565b67ffffffffffffffff811115611a5c57611a5b610cc4565b5b611a6682546115d0565b611a718282856119f4565b5f60209050601f831160018114611aa2575f8415611a90578287015190505b611a9a8582611782565b865550611b01565b601f198416611ab0866119e2565b5f5b82811015611ad757848901518255600182019150602085019450602081019050611ab2565b86831015611af45784890151611af0601f891682611766565b8355505b6001600288020188555050505b50505050505056fea264697066735822122034b85f51427865078de76fabd91cfbe846988a10a8fdd4d0afc78f9686beb7bc64736f6c63430008140033","linkReferences":{}},"methodIdentifiers":{"adapterExists(bytes32)":"fd4862b7","generate(string,string)":"632735ad","getAdapter(bytes32)":"8272e138","preview(string,string)":"7c0d3ca6","register()":"1aa3a008"},"id":32}