{"abi":[{"type":"function","name":"activate","inputs":[{"name":"theme","type":"bytes32","internalType":"bytes32"},{"name":"priority","type":"int256","internalType":"int256"}],"outputs":[{"name":"","type":"tuple","internalType":"struct Theme.ActivateOkResult","components":[{"name":"success","type":"bool","internalType":"bool"},{"name":"theme","type":"bytes32","internalType":"bytes32"}]}],"stateMutability":"nonpayable"},{"type":"function","name":"create","inputs":[{"name":"theme","type":"bytes32","internalType":"bytes32"},{"name":"name","type":"string","internalType":"string"},{"name":"overrides","type":"string","internalType":"string"}],"outputs":[{"name":"","type":"tuple","internalType":"struct Theme.CreateOkResult","components":[{"name":"success","type":"bool","internalType":"bool"},{"name":"theme","type":"bytes32","internalType":"bytes32"}]}],"stateMutability":"nonpayable"},{"type":"function","name":"deactivate","inputs":[{"name":"theme","type":"bytes32","internalType":"bytes32"}],"outputs":[{"name":"","type":"tuple","internalType":"struct Theme.DeactivateOkResult","components":[{"name":"success","type":"bool","internalType":"bool"},{"name":"theme","type":"bytes32","internalType":"bytes32"}]}],"stateMutability":"nonpayable"},{"type":"function","name":"extend","inputs":[{"name":"theme","type":"bytes32","internalType":"bytes32"},{"name":"base","type":"bytes32","internalType":"bytes32"},{"name":"overrides","type":"string","internalType":"string"}],"outputs":[{"name":"","type":"tuple","internalType":"struct Theme.ExtendOkResult","components":[{"name":"success","type":"bool","internalType":"bool"},{"name":"theme","type":"bytes32","internalType":"bytes32"}]}],"stateMutability":"nonpayable"},{"type":"function","name":"resolve","inputs":[{"name":"theme","type":"bytes32","internalType":"bytes32"}],"outputs":[{"name":"","type":"tuple","internalType":"struct Theme.ResolveOkResult","components":[{"name":"success","type":"bool","internalType":"bool"},{"name":"tokens","type":"string","internalType":"string"}]}],"stateMutability":"nonpayable"},{"type":"event","name":"ActivateCompleted","inputs":[{"name":"variant","type":"string","indexed":false,"internalType":"string"},{"name":"theme","type":"bytes32","indexed":true,"internalType":"bytes32"}],"anonymous":false},{"type":"event","name":"CreateCompleted","inputs":[{"name":"variant","type":"string","indexed":false,"internalType":"string"},{"name":"theme","type":"bytes32","indexed":true,"internalType":"bytes32"}],"anonymous":false},{"type":"event","name":"DeactivateCompleted","inputs":[{"name":"variant","type":"string","indexed":false,"internalType":"string"},{"name":"theme","type":"bytes32","indexed":true,"internalType":"bytes32"}],"anonymous":false},{"type":"event","name":"ExtendCompleted","inputs":[{"name":"variant","type":"string","indexed":false,"internalType":"string"},{"name":"theme","type":"bytes32","indexed":true,"internalType":"bytes32"}],"anonymous":false},{"type":"event","name":"ResolveCompleted","inputs":[{"name":"variant","type":"string","indexed":false,"internalType":"string"}],"anonymous":false}],"bytecode":{"object":"0x608060405234801561000f575f80fd5b5061170e8061001d5f395ff3fe608060405234801561000f575f80fd5b5060043610610055575f3560e01c806322eee84c1461005957806350e944bc146100895780635c23bdf5146100b957806370a37f22146100e9578063e501fe3c14610119575b5f80fd5b610073600480360381019061006e9190610afc565b610149565b6040516100809190610b7d565b60405180910390f35b6100a3600480360381019061009e9190610cd2565b61022e565b6040516100b09190610d6b565b60405180910390f35b6100d360048036038101906100ce9190610afc565b6104c7565b6040516100e09190610e38565b60405180910390f35b61010360048036038101906100fe9190610e8b565b610712565b6040516101109190610ef6565b60405180910390f35b610133600480360381019061012e9190610f0f565b610811565b6040516101409190610fc4565b60405180910390f35b610151610a29565b60015f8381526020019081526020015f205f9054906101000a900460ff166101ae576040517f08c379a00000000000000000000000000000000000000000000000000000000081526004016101a590611037565b60405180910390fd5b5f805f8481526020019081526020015f2060030160016101000a81548160ff021916908315150217905550817f3cf8d48ca59462449e029f6ecba21ec44dff007424d6f1e03978a715d586a9b96040516102079061109f565b60405180910390a26040518060400160405280600115158152602001838152509050919050565b610236610a46565b60015f8581526020019081526020015f205f9054906101000a900460ff1615610294576040517f08c379a000000000000000000000000000000000000000000000000000000000815260040161028b90611107565b60405180910390fd5b60015f8481526020019081526020015f205f9054906101000a900460ff166102f1576040517f08c379a00000000000000000000000000000000000000000000000000000000081526004016102e89061116f565b60405180910390fd5b5f805f8581526020019081526020015f2060050183604051602001610317929190611300565b60405160208183030381529060405290506040518061010001604052805f808781526020019081526020015f205f016040516020016103569190611378565b60405160208183030381529060405281526020018481526020018581526020016001151581526020015f151581526020015f8152602001828152602001428152505f808781526020019081526020015f205f820151815f0190816103ba919061152d565b5060208201518160010190816103d0919061152d565b50604082015181600201556060820151816003015f6101000a81548160ff02191690831515021790555060808201518160030160016101000a81548160ff02191690831515021790555060a0820151816004015560c0820151816005019081610439919061152d565b5060e082015181600601559050506001805f8781526020019081526020015f205f6101000a81548160ff021916908315150217905550847fbc920d17b5e41ee312e0f6afd8c411d3aefec640c75136c5ed6611f5e750d81560405161049d9061109f565b60405180910390a26040518060400160405280600115158152602001868152509150509392505050565b6104cf610a63565b60015f8381526020019081526020015f205f9054906101000a900460ff1661052c576040517f08c379a000000000000000000000000000000000000000000000000000000000815260040161052390611037565b60405180910390fd5b5f805f8481526020019081526020015f20600501805461054b906111ba565b80601f0160208091040260200160405190810160405280929190818152602001828054610577906111ba565b80156105c25780601f10610599576101008083540402835291602001916105c2565b820191905f5260205f20905b8154815290600101906020018083116105a557829003601f168201915b505050505090505f808481526020019081526020015f206003015f9054906101000a900460ff16156106bd575f805f8581526020019081526020015f206002015490505f5b60015f8381526020019081526020015f205f9054906101000a900460ff1680156106315750600a81105b156106ba575f808381526020019081526020015f206005018360405160200161065b929190611300565b60405160208183030381529060405292505f808381526020019081526020015f206003015f9054906101000a900460ff16156106ba575f808381526020019081526020015f2060020154915080806106b290611629565b915050610607565b50505b7f919ea9af5eba6044f1e6f293365094edf5efd10daa1d34600faf38abbd1b6edb6040516106ea9061109f565b60405180910390a1604051806040016040528060011515815260200182815250915050919050565b61071a610a7e565b60015f8481526020019081526020015f205f9054906101000a900460ff16610777576040517f08c379a000000000000000000000000000000000000000000000000000000000815260040161076e90611037565b60405180910390fd5b60015f808581526020019081526020015f2060030160016101000a81548160ff021916908315150217905550815f808581526020019081526020015f2060040181905550827f5f1adea0ffdd7dff42b69c6187b983331bea2f559fe5d133632f8b54d773745f6040516107e99061109f565b60405180910390a2604051806040016040528060011515815260200184815250905092915050565b610819610a9b565b60015f8581526020019081526020015f205f9054906101000a900460ff1615610877576040517f08c379a000000000000000000000000000000000000000000000000000000000815260040161086e90611107565b60405180910390fd5b5f8351116108ba576040517f08c379a00000000000000000000000000000000000000000000000000000000081526004016108b1906116ba565b60405180910390fd5b6040518061010001604052808481526020018381526020015f801b81526020015f151581526020015f151581526020015f8152602001838152602001428152505f808681526020019081526020015f205f820151815f01908161091d919061152d565b506020820151816001019081610933919061152d565b50604082015181600201556060820151816003015f6101000a81548160ff02191690831515021790555060808201518160030160016101000a81548160ff02191690831515021790555060a0820151816004015560c082015181600501908161099c919061152d565b5060e082015181600601559050506001805f8681526020019081526020015f205f6101000a81548160ff021916908315150217905550837f1c7208edfeacc49bb82962da7eeb2b2b4e4f5ba1dedc0499662f37cb87039d90604051610a009061109f565b60405180910390a260405180604001604052806001151581526020018581525090509392505050565b60405180604001604052805f151581526020015f80191681525090565b60405180604001604052805f151581526020015f80191681525090565b60405180604001604052805f15158152602001606081525090565b60405180604001604052805f151581526020015f80191681525090565b60405180604001604052805f151581526020015f80191681525090565b5f604051905090565b5f80fd5b5f80fd5b5f819050919050565b610adb81610ac9565b8114610ae5575f80fd5b50565b5f81359050610af681610ad2565b92915050565b5f60208284031215610b1157610b10610ac1565b5b5f610b1e84828501610ae8565b91505092915050565b5f8115159050919050565b610b3b81610b27565b82525050565b610b4a81610ac9565b82525050565b604082015f820151610b645f850182610b32565b506020820151610b776020850182610b41565b50505050565b5f604082019050610b905f830184610b50565b92915050565b5f80fd5b5f80fd5b5f601f19601f8301169050919050565b7f4e487b71000000000000000000000000000000000000000000000000000000005f52604160045260245ffd5b610be482610b9e565b810181811067ffffffffffffffff82111715610c0357610c02610bae565b5b80604052505050565b5f610c15610ab8565b9050610c218282610bdb565b919050565b5f67ffffffffffffffff821115610c4057610c3f610bae565b5b610c4982610b9e565b9050602081019050919050565b828183375f83830152505050565b5f610c76610c7184610c26565b610c0c565b905082815260208101848484011115610c9257610c91610b9a565b5b610c9d848285610c56565b509392505050565b5f82601f830112610cb957610cb8610b96565b5b8135610cc9848260208601610c64565b91505092915050565b5f805f60608486031215610ce957610ce8610ac1565b5b5f610cf686828701610ae8565b9350506020610d0786828701610ae8565b925050604084013567ffffffffffffffff811115610d2857610d27610ac5565b5b610d3486828701610ca5565b9150509250925092565b604082015f820151610d525f850182610b32565b506020820151610d656020850182610b41565b50505050565b5f604082019050610d7e5f830184610d3e565b92915050565b5f81519050919050565b5f82825260208201905092915050565b5f5b83811015610dbb578082015181840152602081019050610da0565b5f8484015250505050565b5f610dd082610d84565b610dda8185610d8e565b9350610dea818560208601610d9e565b610df381610b9e565b840191505092915050565b5f604083015f830151610e135f860182610b32565b5060208301518482036020860152610e2b8282610dc6565b9150508091505092915050565b5f6020820190508181035f830152610e508184610dfe565b905092915050565b5f819050919050565b610e6a81610e58565b8114610e74575f80fd5b50565b5f81359050610e8581610e61565b92915050565b5f8060408385031215610ea157610ea0610ac1565b5b5f610eae85828601610ae8565b9250506020610ebf85828601610e77565b9150509250929050565b604082015f820151610edd5f850182610b32565b506020820151610ef06020850182610b41565b50505050565b5f604082019050610f095f830184610ec9565b92915050565b5f805f60608486031215610f2657610f25610ac1565b5b5f610f3386828701610ae8565b935050602084013567ffffffffffffffff811115610f5457610f53610ac5565b5b610f6086828701610ca5565b925050604084013567ffffffffffffffff811115610f8157610f80610ac5565b5b610f8d86828701610ca5565b9150509250925092565b604082015f820151610fab5f850182610b32565b506020820151610fbe6020850182610b41565b50505050565b5f604082019050610fd75f830184610f97565b92915050565b5f82825260208201905092915050565b7f5468656d65206e6f7420666f756e6400000000000000000000000000000000005f82015250565b5f611021600f83610fdd565b915061102c82610fed565b602082019050919050565b5f6020820190508181035f83015261104e81611015565b9050919050565b7f6f6b0000000000000000000000000000000000000000000000000000000000005f82015250565b5f611089600283610fdd565b915061109482611055565b602082019050919050565b5f6020820190508181035f8301526110b68161107d565b9050919050565b7f5468656d6520616c7265616479206578697374730000000000000000000000005f82015250565b5f6110f1601483610fdd565b91506110fc826110bd565b602082019050919050565b5f6020820190508181035f83015261111e816110e5565b9050919050565b7f42617365207468656d65206e6f7420666f756e640000000000000000000000005f82015250565b5f611159601483610fdd565b915061116482611125565b602082019050919050565b5f6020820190508181035f8301526111868161114d565b9050919050565b7f4e487b71000000000000000000000000000000000000000000000000000000005f52602260045260245ffd5b5f60028204905060018216806111d157607f821691505b6020821081036111e4576111e361118d565b5b50919050565b5f81905092915050565b5f819050815f5260205f209050919050565b5f8154611212816111ba565b61121c81866111ea565b9450600182165f8114611236576001811461124b5761127d565b60ff198316865281151582028601935061127d565b611254856111f4565b5f5b8381101561127557815481890152600182019150602081019050611256565b838801955050505b50505092915050565b7f3b000000000000000000000000000000000000000000000000000000000000005f82015250565b5f6112ba6001836111ea565b91506112c582611286565b600182019050919050565b5f6112da82610d84565b6112e481856111ea565b93506112f4818560208601610d9e565b80840191505092915050565b5f61130b8285611206565b9150611316826112ae565b915061132282846112d0565b91508190509392505050565b7f2d657874656e64656400000000000000000000000000000000000000000000005f82015250565b5f6113626009836111ea565b915061136d8261132e565b600982019050919050565b5f6113838284611206565b915061138e82611356565b915081905092915050565b5f6020601f8301049050919050565b5f82821b905092915050565b5f600883026113e37fffffffffffffffffffffffffffffffffffffffffffffffffffffffffffffffff826113a8565b6113ed86836113a8565b95508019841693508086168417925050509392505050565b5f819050919050565b5f819050919050565b5f61143161142c61142784611405565b61140e565b611405565b9050919050565b5f819050919050565b61144a83611417565b61145e61145682611438565b8484546113b4565b825550505050565b5f90565b611472611466565b61147d818484611441565b505050565b5b818110156114a0576114955f8261146a565b600181019050611483565b5050565b601f8211156114e5576114b6816111f4565b6114bf84611399565b810160208510156114ce578190505b6114e26114da85611399565b830182611482565b50505b505050565b5f82821c905092915050565b5f6115055f19846008026114ea565b1980831691505092915050565b5f61151d83836114f6565b9150826002028217905092915050565b61153682610d84565b67ffffffffffffffff81111561154f5761154e610bae565b5b61155982546111ba565b6115648282856114a4565b5f60209050601f831160018114611595575f8415611583578287015190505b61158d8582611512565b8655506115f4565b601f1984166115a3866111f4565b5f5b828110156115ca578489015182556001820191506020850194506020810190506115a5565b868310156115e757848901516115e3601f8916826114f6565b8355505b6001600288020188555050505b505050505050565b7f4e487b71000000000000000000000000000000000000000000000000000000005f52601160045260245ffd5b5f61163382611405565b91507fffffffffffffffffffffffffffffffffffffffffffffffffffffffffffffffff8203611665576116646115fc565b5b600182019050919050565b7f4e616d65207265717569726564000000000000000000000000000000000000005f82015250565b5f6116a4600d83610fdd565b91506116af82611670565b602082019050919050565b5f6020820190508181035f8301526116d181611698565b905091905056fea264697066735822122053df8bd8aa239057e564985615454dd4b4ffc11aec717e1308f7662e1882d80f64736f6c63430008140033","linkReferences":{}},"methodIdentifiers":{"activate(bytes32,int256)":"70a37f22","create(bytes32,string,string)":"e501fe3c","deactivate(bytes32)":"22eee84c","extend(bytes32,bytes32,string)":"50e944bc","resolve(bytes32)":"5c23bdf5"},"id":288}