{"abi":[{"type":"function","name":"dispatch","inputs":[{"name":"eventTypeId","type":"bytes32","internalType":"bytes32"},{"name":"payload","type":"string","internalType":"string"}],"outputs":[{"name":"listenerCount","type":"uint256","internalType":"uint256"}],"stateMutability":"nonpayable"},{"type":"function","name":"eventTypeExists","inputs":[{"name":"eventTypeId","type":"bytes32","internalType":"bytes32"}],"outputs":[{"name":"","type":"bool","internalType":"bool"}],"stateMutability":"view"},{"type":"function","name":"getListenerCount","inputs":[{"name":"eventTypeId","type":"bytes32","internalType":"bytes32"}],"outputs":[{"name":"","type":"uint256","internalType":"uint256"}],"stateMutability":"view"},{"type":"function","name":"registerEventType","inputs":[{"name":"eventTypeId","type":"bytes32","internalType":"bytes32"},{"name":"payloadSchema","type":"string","internalType":"string"}],"outputs":[],"stateMutability":"nonpayable"},{"type":"function","name":"subscribe","inputs":[{"name":"eventTypeId","type":"bytes32","internalType":"bytes32"},{"name":"listenerId","type":"bytes32","internalType":"bytes32"},{"name":"priority","type":"int256","internalType":"int256"}],"outputs":[],"stateMutability":"nonpayable"},{"type":"function","name":"unsubscribe","inputs":[{"name":"eventTypeId","type":"bytes32","internalType":"bytes32"},{"name":"listenerId","type":"bytes32","internalType":"bytes32"}],"outputs":[],"stateMutability":"nonpayable"},{"type":"event","name":"Dispatched","inputs":[{"name":"eventTypeId","type":"bytes32","indexed":true,"internalType":"bytes32"},{"name":"listenerCount","type":"uint256","indexed":false,"internalType":"uint256"}],"anonymous":false},{"type":"event","name":"EventTypeRegistered","inputs":[{"name":"eventTypeId","type":"bytes32","indexed":true,"internalType":"bytes32"}],"anonymous":false},{"type":"event","name":"Subscribed","inputs":[{"name":"eventTypeId","type":"bytes32","indexed":true,"internalType":"bytes32"},{"name":"listenerId","type":"bytes32","indexed":true,"internalType":"bytes32"}],"anonymous":false},{"type":"event","name":"Unsubscribed","inputs":[{"name":"eventTypeId","type":"bytes32","indexed":true,"internalType":"bytes32"},{"name":"listenerId","type":"bytes32","indexed":true,"internalType":"bytes32"}],"anonymous":false}],"bytecode":{"object":"0x608060405234801561000f575f80fd5b506111418061001d5f395ff3fe608060405234801561000f575f80fd5b506004361061005f575f3560e01c8062589527146100635780634408110e1461007f5780635d1995f7146100af5780637ad9ad05146100cb5780637fb94e0d146100e7578063934edb6f14610117575b5f80fd5b61007d600480360381019061007891906108dd565b610147565b005b6100996004803603810190610094919061093a565b6102be565b6040516100a6919061097f565b60405180910390f35b6100c960048036038101906100c49190610998565b6102e6565b005b6100e560048036038101906100e09190610a09565b610554565b005b61010160048036038101906100fc919061093a565b610757565b60405161010e9190610a71565b60405180910390f35b610131600480360381019061012c91906108dd565b610774565b60405161013e9190610a71565b60405180910390f35b5f801b830361018b576040517f08c379a000000000000000000000000000000000000000000000000000000000815260040161018290610ae4565b60405180910390fd5b5f808481526020019081526020015f206001015f9054906101000a900460ff16156101eb576040517f08c379a00000000000000000000000000000000000000000000000000000000081526004016101e290610b4c565b60405180910390fd5b604051806040016040528083838080601f0160208091040260200160405190810160405280939291908181526020018383808284375f81840152601f19601f820116905080830192505050505050508152602001600115158152505f808581526020019081526020015f205f820151815f0190816102699190610d9b565b506020820151816001015f6101000a81548160ff021916908315150217905550905050827f3a60d50360847d0aeb7629ca32d5264c5a918628bbfb50331e0214e08629d1a960405160405180910390a2505050565b5f805f8381526020019081526020015f206001015f9054906101000a900460ff169050919050565b5f808381526020019081526020015f206001015f9054906101000a900460ff16610345576040517f08c379a000000000000000000000000000000000000000000000000000000000815260040161033c90610eb4565b60405180910390fd5b60025f8381526020019081526020015f205f8281526020019081526020015f205f9054906101000a900460ff166103b1576040517f08c379a00000000000000000000000000000000000000000000000000000000081526004016103a890610f1c565b60405180910390fd5b5f60015f8481526020019081526020015f2090505f5b81805490508110156104e957828282815481106103e7576103e6610f3a565b5b905f5260205f2090600302015f0154036104d657816001838054905061040d9190610f94565b8154811061041e5761041d610f3a565b5b905f5260205f20906003020182828154811061043d5761043c610f3a565b5b905f5260205f2090600302015f820154815f015560018201548160010155600282015f9054906101000a900460ff16816002015f6101000a81548160ff0219169083151502179055509050508180548061049a57610499610fc7565b5b600190038181905f5260205f2090600302015f8082015f9055600182015f9055600282015f6101000a81549060ff0219169055505090556104e9565b80806104e190610ff4565b9150506103c7565b505f60025f8581526020019081526020015f205f8481526020019081526020015f205f6101000a81548160ff02191690831515021790555081837f54fcfb68bc735208893d9120b9e7ac7e6c76487bd52b5fb4447b8c9e18347dbe60405160405180910390a3505050565b5f808481526020019081526020015f206001015f9054906101000a900460ff166105b3576040517f08c379a00000000000000000000000000000000000000000000000000000000081526004016105aa90610eb4565b60405180910390fd5b5f801b82036105f7576040517f08c379a00000000000000000000000000000000000000000000000000000000081526004016105ee90611085565b60405180910390fd5b60025f8481526020019081526020015f205f8381526020019081526020015f205f9054906101000a900460ff1615610664576040517f08c379a000000000000000000000000000000000000000000000000000000000815260040161065b906110ed565b60405180910390fd5b60015f8481526020019081526020015f20604051806060016040528084815260200183815260200160011515815250908060018154018082558091505060019003905f5260205f2090600302015f909190919091505f820151815f0155602082015181600101556040820151816002015f6101000a81548160ff0219169083151502179055505050600160025f8581526020019081526020015f205f8481526020019081526020015f205f6101000a81548160ff02191690831515021790555081837f8b09025f76af3b52a08897b6fa59ea5eaddd615c114a817daf646b5f6e30009a60405160405180910390a3505050565b5f60015f8381526020019081526020015f20805490509050919050565b5f805f8581526020019081526020015f206001015f9054906101000a900460ff166107d4576040517f08c379a00000000000000000000000000000000000000000000000000000000081526004016107cb90610eb4565b60405180910390fd5b60015f8581526020019081526020015f2080549050905060035f8154809291906107fd90610ff4565b9190505550837fa0b5bc158b22900a6dfa5e4f2a167641b427825dfc8ccd0952f06fe8dae3ae71826040516108329190610a71565b60405180910390a29392505050565b5f80fd5b5f80fd5b5f819050919050565b61085b81610849565b8114610865575f80fd5b50565b5f8135905061087681610852565b92915050565b5f80fd5b5f80fd5b5f80fd5b5f8083601f84011261089d5761089c61087c565b5b8235905067ffffffffffffffff8111156108ba576108b9610880565b5b6020830191508360018202830111156108d6576108d5610884565b5b9250929050565b5f805f604084860312156108f4576108f3610841565b5b5f61090186828701610868565b935050602084013567ffffffffffffffff81111561092257610921610845565b5b61092e86828701610888565b92509250509250925092565b5f6020828403121561094f5761094e610841565b5b5f61095c84828501610868565b91505092915050565b5f8115159050919050565b61097981610965565b82525050565b5f6020820190506109925f830184610970565b92915050565b5f80604083850312156109ae576109ad610841565b5b5f6109bb85828601610868565b92505060206109cc85828601610868565b9150509250929050565b5f819050919050565b6109e8816109d6565b81146109f2575f80fd5b50565b5f81359050610a03816109df565b92915050565b5f805f60608486031215610a2057610a1f610841565b5b5f610a2d86828701610868565b9350506020610a3e86828701610868565b9250506040610a4f868287016109f5565b9150509250925092565b5f819050919050565b610a6b81610a59565b82525050565b5f602082019050610a845f830184610a62565b92915050565b5f82825260208201905092915050565b7f4576656e7420747970652049442063616e6e6f74206265207a65726f000000005f82015250565b5f610ace601c83610a8a565b9150610ad982610a9a565b602082019050919050565b5f6020820190508181035f830152610afb81610ac2565b9050919050565b7f4576656e74207479706520616c726561647920657869737473000000000000005f82015250565b5f610b36601983610a8a565b9150610b4182610b02565b602082019050919050565b5f6020820190508181035f830152610b6381610b2a565b9050919050565b5f81519050919050565b7f4e487b71000000000000000000000000000000000000000000000000000000005f52604160045260245ffd5b7f4e487b71000000000000000000000000000000000000000000000000000000005f52602260045260245ffd5b5f6002820490506001821680610be557607f821691505b602082108103610bf857610bf7610ba1565b5b50919050565b5f819050815f5260205f209050919050565b5f6020601f8301049050919050565b5f82821b905092915050565b5f60088302610c5a7fffffffffffffffffffffffffffffffffffffffffffffffffffffffffffffffff82610c1f565b610c648683610c1f565b95508019841693508086168417925050509392505050565b5f819050919050565b5f610c9f610c9a610c9584610a59565b610c7c565b610a59565b9050919050565b5f819050919050565b610cb883610c85565b610ccc610cc482610ca6565b848454610c2b565b825550505050565b5f90565b610ce0610cd4565b610ceb818484610caf565b505050565b5b81811015610d0e57610d035f82610cd8565b600181019050610cf1565b5050565b601f821115610d5357610d2481610bfe565b610d2d84610c10565b81016020851015610d3c578190505b610d50610d4885610c10565b830182610cf0565b50505b505050565b5f82821c905092915050565b5f610d735f1984600802610d58565b1980831691505092915050565b5f610d8b8383610d64565b9150826002028217905092915050565b610da482610b6a565b67ffffffffffffffff811115610dbd57610dbc610b74565b5b610dc78254610bce565b610dd2828285610d12565b5f60209050601f831160018114610e03575f8415610df1578287015190505b610dfb8582610d80565b865550610e62565b601f198416610e1186610bfe565b5f5b82811015610e3857848901518255600182019150602085019450602081019050610e13565b86831015610e555784890151610e51601f891682610d64565b8355505b6001600288020188555050505b505050505050565b7f4576656e742074797065206e6f7420666f756e640000000000000000000000005f82015250565b5f610e9e601483610a8a565b9150610ea982610e6a565b602082019050919050565b5f6020820190508181035f830152610ecb81610e92565b9050919050565b7f4c697374656e6572206e6f7420737562736372696265640000000000000000005f82015250565b5f610f06601783610a8a565b9150610f1182610ed2565b602082019050919050565b5f6020820190508181035f830152610f3381610efa565b9050919050565b7f4e487b71000000000000000000000000000000000000000000000000000000005f52603260045260245ffd5b7f4e487b71000000000000000000000000000000000000000000000000000000005f52601160045260245ffd5b5f610f9e82610a59565b9150610fa983610a59565b9250828203905081811115610fc157610fc0610f67565b5b92915050565b7f4e487b71000000000000000000000000000000000000000000000000000000005f52603160045260245ffd5b5f610ffe82610a59565b91507fffffffffffffffffffffffffffffffffffffffffffffffffffffffffffffffff82036110305761102f610f67565b5b600182019050919050565b7f4c697374656e65722049442063616e6e6f74206265207a65726f0000000000005f82015250565b5f61106f601a83610a8a565b915061107a8261103b565b602082019050919050565b5f6020820190508181035f83015261109c81611063565b9050919050565b7f4c697374656e657220616c7265616479207375627363726962656400000000005f82015250565b5f6110d7601b83610a8a565b91506110e2826110a3565b602082019050919050565b5f6020820190508181035f830152611104816110cb565b905091905056fea2646970667358221220eefc1cff931391c2fa0c2c5ea7fd781c76b74d62a468ee651a3f20ad6c7878dd64736f6c63430008140033","linkReferences":{}},"methodIdentifiers":{"dispatch(bytes32,string)":"934edb6f","eventTypeExists(bytes32)":"4408110e","getListenerCount(bytes32)":"7fb94e0d","registerEventType(bytes32,string)":"00589527","subscribe(bytes32,bytes32,int256)":"7ad9ad05","unsubscribe(bytes32,bytes32)":"5d1995f7"},"id":115}