{"abi":[{"type":"function","name":"assignRole","inputs":[{"name":"userId","type":"bytes32","internalType":"bytes32"},{"name":"roleId","type":"bytes32","internalType":"bytes32"}],"outputs":[],"stateMutability":"nonpayable"},{"type":"function","name":"checkPermission","inputs":[{"name":"userId","type":"bytes32","internalType":"bytes32"},{"name":"permissionId","type":"bytes32","internalType":"bytes32"}],"outputs":[{"name":"allowed","type":"bool","internalType":"bool"}],"stateMutability":"view"},{"type":"function","name":"createRole","inputs":[{"name":"roleId","type":"bytes32","internalType":"bytes32"}],"outputs":[],"stateMutability":"nonpayable"},{"type":"function","name":"grantPermission","inputs":[{"name":"roleId","type":"bytes32","internalType":"bytes32"},{"name":"permissionId","type":"bytes32","internalType":"bytes32"}],"outputs":[],"stateMutability":"nonpayable"},{"type":"function","name":"revokePermission","inputs":[{"name":"roleId","type":"bytes32","internalType":"bytes32"},{"name":"permissionId","type":"bytes32","internalType":"bytes32"}],"outputs":[],"stateMutability":"nonpayable"},{"type":"event","name":"PermissionGranted","inputs":[{"name":"roleId","type":"bytes32","indexed":true,"internalType":"bytes32"},{"name":"permissionId","type":"bytes32","indexed":false,"internalType":"bytes32"}],"anonymous":false},{"type":"event","name":"PermissionRevoked","inputs":[{"name":"roleId","type":"bytes32","indexed":true,"internalType":"bytes32"},{"name":"permissionId","type":"bytes32","indexed":false,"internalType":"bytes32"}],"anonymous":false},{"type":"event","name":"RoleAssigned","inputs":[{"name":"userId","type":"bytes32","indexed":true,"internalType":"bytes32"},{"name":"roleId","type":"bytes32","indexed":false,"internalType":"bytes32"}],"anonymous":false}],"bytecode":{"object":"0x608060405234801561000f575f80fd5b50610a5a8061001d5f395ff3fe608060405234801561000f575f80fd5b5060043610610055575f3560e01c806303b0024c1461005957806316d9a676146100755780634fb95bc614610091578063872c6817146100c1578063c42994a2146100dd575b5f80fd5b610073600480360381019061006e9190610636565b6100f9565b005b61008f600480360381019061008a9190610636565b61020d565b005b6100ab60048036038101906100a69190610636565b6102dc565b6040516100b8919061068e565b60405180910390f35b6100db60048036038101906100d69190610636565b61037b565b005b6100f760048036038101906100f291906106a7565b610531565b005b60025f8381526020019081526020015f205f9054906101000a900460ff16610156576040517f08c379a000000000000000000000000000000000000000000000000000000000815260040161014d9061072c565b60405180910390fd5b5f801b810361019a576040517f08c379a000000000000000000000000000000000000000000000000000000000815260040161019190610794565b60405180910390fd5b60015f808481526020019081526020015f205f8381526020019081526020015f205f6101000a81548160ff021916908315150217905550817f603edcdb5772b68685410f95810a7ab484fd163ce884a4d817a48b39c46d46398260405161020191906107c1565b60405180910390a25050565b60025f8381526020019081526020015f205f9054906101000a900460ff1661026a576040517f08c379a00000000000000000000000000000000000000000000000000000000081526004016102619061072c565b60405180910390fd5b5f805f8481526020019081526020015f205f8381526020019081526020015f205f6101000a81548160ff021916908315150217905550817f4d66563a30787a045f5ac7a86e41adeb7b52d1e5afedcd8c235047054c4636ad826040516102d091906107c1565b60405180910390a25050565b5f8060035f8581526020019081526020015f2090505f818054905090505f5b8181101561036e575f80848381548110610318576103176107da565b5b905f5260205f20015481526020019081526020015f205f8681526020019081526020015f205f9054906101000a900460ff161561035b5760019350505050610375565b80806103669061083d565b9150506102fb565b505f925050505b92915050565b5f801b82036103bf576040517f08c379a00000000000000000000000000000000000000000000000000000000081526004016103b6906108ce565b60405180910390fd5b60025f8281526020019081526020015f205f9054906101000a900460ff1661041c576040517f08c379a00000000000000000000000000000000000000000000000000000000081526004016104139061072c565b60405180910390fd5b60015f8381526020019081526020015f205f8281526020019081526020015f205f9054906101000a900460ff1615610489576040517f08c379a000000000000000000000000000000000000000000000000000000000815260040161048090610936565b60405180910390fd5b6001805f8481526020019081526020015f205f8381526020019081526020015f205f6101000a81548160ff02191690831515021790555060035f8381526020019081526020015f2081908060018154018082558091505060019003905f5260205f20015f9091909190915055817f02abad62fdc4337b04d4713937655d8c951da3ebd245e446d83ecc6438b568118260405161052591906107c1565b60405180910390a25050565b5f801b8103610575576040517f08c379a000000000000000000000000000000000000000000000000000000000815260040161056c9061099e565b60405180910390fd5b60025f8281526020019081526020015f205f9054906101000a900460ff16156105d3576040517f08c379a00000000000000000000000000000000000000000000000000000000081526004016105ca90610a06565b60405180910390fd5b600160025f8381526020019081526020015f205f6101000a81548160ff02191690831515021790555050565b5f80fd5b5f819050919050565b61061581610603565b811461061f575f80fd5b50565b5f813590506106308161060c565b92915050565b5f806040838503121561064c5761064b6105ff565b5b5f61065985828601610622565b925050602061066a85828601610622565b9150509250929050565b5f8115159050919050565b61068881610674565b82525050565b5f6020820190506106a15f83018461067f565b92915050565b5f602082840312156106bc576106bb6105ff565b5b5f6106c984828501610622565b91505092915050565b5f82825260208201905092915050565b7f526f6c65206e6f7420666f756e640000000000000000000000000000000000005f82015250565b5f610716600e836106d2565b9150610721826106e2565b602082019050919050565b5f6020820190508181035f8301526107438161070a565b9050919050565b7f5065726d697373696f6e2049442063616e6e6f74206265207a65726f000000005f82015250565b5f61077e601c836106d2565b91506107898261074a565b602082019050919050565b5f6020820190508181035f8301526107ab81610772565b9050919050565b6107bb81610603565b82525050565b5f6020820190506107d45f8301846107b2565b92915050565b7f4e487b71000000000000000000000000000000000000000000000000000000005f52603260045260245ffd5b7f4e487b71000000000000000000000000000000000000000000000000000000005f52601160045260245ffd5b5f819050919050565b5f61084782610834565b91507fffffffffffffffffffffffffffffffffffffffffffffffffffffffffffffffff820361087957610878610807565b5b600182019050919050565b7f557365722049442063616e6e6f74206265207a65726f000000000000000000005f82015250565b5f6108b86016836106d2565b91506108c382610884565b602082019050919050565b5f6020820190508181035f8301526108e5816108ac565b9050919050565b7f526f6c6520616c72656164792061737369676e656400000000000000000000005f82015250565b5f6109206015836106d2565b915061092b826108ec565b602082019050919050565b5f6020820190508181035f83015261094d81610914565b9050919050565b7f526f6c652049442063616e6e6f74206265207a65726f000000000000000000005f82015250565b5f6109886016836106d2565b915061099382610954565b602082019050919050565b5f6020820190508181035f8301526109b58161097c565b9050919050565b7f526f6c6520616c726561647920657869737473000000000000000000000000005f82015250565b5f6109f06013836106d2565b91506109fb826109bc565b602082019050919050565b5f6020820190508181035f830152610a1d816109e4565b905091905056fea2646970667358221220cf5a08934ca86849ca52434c492bcb462a2d606a8ed1042ea07a54e8eeac8aa664736f6c63430008140033","linkReferences":{}},"methodIdentifiers":{"assignRole(bytes32,bytes32)":"872c6817","checkPermission(bytes32,bytes32)":"4fb95bc6","createRole(bytes32)":"c42994a2","grantPermission(bytes32,bytes32)":"03b0024c","revokePermission(bytes32,bytes32)":"16d9a676"},"id":37}