{"abi":[{"type":"function","name":"generate","inputs":[{"name":"projection","type":"string","internalType":"string"},{"name":"config","type":"string","internalType":"string"}],"outputs":[{"name":"","type":"tuple","internalType":"struct PySdkTarget.GenerateOkResult","components":[{"name":"success","type":"bool","internalType":"bool"},{"name":"package_","type":"bytes32","internalType":"bytes32"},{"name":"files","type":"string[]","internalType":"string[]"}]}],"stateMutability":"nonpayable"},{"type":"function","name":"register","inputs":[],"outputs":[{"name":"name","type":"string","internalType":"string"},{"name":"category","type":"string","internalType":"string"},{"name":"language","type":"string","internalType":"string"}],"stateMutability":"pure"},{"type":"event","name":"GenerateCompleted","inputs":[{"name":"variant","type":"string","indexed":false,"internalType":"string"},{"name":"package_","type":"bytes32","indexed":false,"internalType":"bytes32"},{"name":"files","type":"string[]","indexed":false,"internalType":"string[]"}],"anonymous":false}],"bytecode":{"object":"0x608060405234801561000f575f80fd5b50610fbe8061001d5f395ff3fe608060405234801561000f575f80fd5b5060043610610034575f3560e01c80631aa3a00814610038578063632735ad14610058575b5f80fd5b610040610088565b60405161004f939291906104b7565b60405180910390f35b610072600480360381019061006d919061063e565b61013a565b60405161007f9190610836565b60405180910390f35b60608060606040518060400160405280600681526020017f70792d73646b000000000000000000000000000000000000000000000000000081525092506040518060400160405280600a81526020017f73646b2d7461726765740000000000000000000000000000000000000000000081525091506040518060400160405280600681526020017f707974686f6e00000000000000000000000000000000000000000000000000008152509050909192565b610142610409565b5f835111610185576040517f08c379a000000000000000000000000000000000000000000000000000000000815260040161017c906108a0565b60405180910390fd5b5f838360035460405160200161019d93929190610921565b60405160208183030381529060405280519060200120905060035f8154809291906101c790610982565b91905055505f808281526020019081526020015f205f9054906101000a900460ff1661023c5760015f808381526020019081526020015f205f6101000a81548160ff021916908315150217905550600181908060018154018082558091505060019003905f5260205f20015f90919091909150555b8360025f8381526020019081526020015f20908161025a9190610bc3565b505f600467ffffffffffffffff8111156102775761027661051a565b5b6040519080825280602002602001820160405280156102aa57816020015b60608152602001906001900390816102955790505b509050846040516020016102be9190610cdc565b604051602081830303815290604052815f815181106102e0576102df610cfd565b5b6020026020010181905250846040516020016102fc9190610d74565b6040516020818303038152906040528160018151811061031f5761031e610cfd565b5b60200260200101819052508460405160200161033b9190610ddf565b6040516020818303038152906040528160028151811061035e5761035d610cfd565b5b60200260200101819052508460405160200161037a9190610e4a565b6040516020818303038152906040528160038151811061039d5761039c610cfd565b5b60200260200101819052507f0da97dbf1aebb3e58f3b32b67a8ac71e19e73bb343e3d7daac7c1a8a432f6d1b82826040516103d9929190610f47565b60405180910390a16040518060600160405280600115158152602001838152602001828152509250505092915050565b60405180606001604052805f151581526020015f8019168152602001606081525090565b5f81519050919050565b5f82825260208201905092915050565b5f5b83811015610464578082015181840152602081019050610449565b5f8484015250505050565b5f601f19601f8301169050919050565b5f6104898261042d565b6104938185610437565b93506104a3818560208601610447565b6104ac8161046f565b840191505092915050565b5f6060820190508181035f8301526104cf818661047f565b905081810360208301526104e3818561047f565b905081810360408301526104f7818461047f565b9050949350505050565b5f604051905090565b5f80fd5b5f80fd5b5f80fd5b5f80fd5b7f4e487b71000000000000000000000000000000000000000000000000000000005f52604160045260245ffd5b6105508261046f565b810181811067ffffffffffffffff8211171561056f5761056e61051a565b5b80604052505050565b5f610581610501565b905061058d8282610547565b919050565b5f67ffffffffffffffff8211156105ac576105ab61051a565b5b6105b58261046f565b9050602081019050919050565b828183375f83830152505050565b5f6105e26105dd84610592565b610578565b9050828152602081018484840111156105fe576105fd610516565b5b6106098482856105c2565b509392505050565b5f82601f83011261062557610624610512565b5b81356106358482602086016105d0565b91505092915050565b5f80604083850312156106545761065361050a565b5b5f83013567ffffffffffffffff8111156106715761067061050e565b5b61067d85828601610611565b925050602083013567ffffffffffffffff81111561069e5761069d61050e565b5b6106aa85828601610611565b9150509250929050565b5f8115159050919050565b6106c8816106b4565b82525050565b5f819050919050565b6106e0816106ce565b82525050565b5f81519050919050565b5f82825260208201905092915050565b5f819050602082019050919050565b5f82825260208201905092915050565b5f6107298261042d565b610733818561070f565b9350610743818560208601610447565b61074c8161046f565b840191505092915050565b5f610762838361071f565b905092915050565b5f602082019050919050565b5f610780826106e6565b61078a81856106f0565b93508360208202850161079c85610700565b805f5b858110156107d757848403895281516107b88582610757565b94506107c38361076a565b925060208a0199505060018101905061079f565b50829750879550505050505092915050565b5f606083015f8301516107fe5f8601826106bf565b50602083015161081160208601826106d7565b50604083015184820360408601526108298282610776565b9150508091505092915050565b5f6020820190508181035f83015261084e81846107e9565b905092915050565b7f50726f6a656374696f6e2063616e6e6f7420626520656d7074790000000000005f82015250565b5f61088a601a83610437565b915061089582610856565b602082019050919050565b5f6020820190508181035f8301526108b78161087e565b9050919050565b5f81905092915050565b5f6108d28261042d565b6108dc81856108be565b93506108ec818560208601610447565b80840191505092915050565b5f819050919050565b5f819050919050565b61091b610916826108f8565b610901565b82525050565b5f61092c82866108c8565b915061093882856108c8565b9150610944828461090a565b602082019150819050949350505050565b7f4e487b71000000000000000000000000000000000000000000000000000000005f52601160045260245ffd5b5f61098c826108f8565b91507fffffffffffffffffffffffffffffffffffffffffffffffffffffffffffffffff82036109be576109bd610955565b5b600182019050919050565b7f4e487b71000000000000000000000000000000000000000000000000000000005f52602260045260245ffd5b5f6002820490506001821680610a0d57607f821691505b602082108103610a2057610a1f6109c9565b5b50919050565b5f819050815f5260205f209050919050565b5f6020601f8301049050919050565b5f82821b905092915050565b5f60088302610a827fffffffffffffffffffffffffffffffffffffffffffffffffffffffffffffffff82610a47565b610a8c8683610a47565b95508019841693508086168417925050509392505050565b5f819050919050565b5f610ac7610ac2610abd846108f8565b610aa4565b6108f8565b9050919050565b5f819050919050565b610ae083610aad565b610af4610aec82610ace565b848454610a53565b825550505050565b5f90565b610b08610afc565b610b13818484610ad7565b505050565b5b81811015610b3657610b2b5f82610b00565b600181019050610b19565b5050565b601f821115610b7b57610b4c81610a26565b610b5584610a38565b81016020851015610b64578190505b610b78610b7085610a38565b830182610b18565b50505b505050565b5f82821c905092915050565b5f610b9b5f1984600802610b80565b1980831691505092915050565b5f610bb38383610b8c565b9150826002028217905092915050565b610bcc8261042d565b67ffffffffffffffff811115610be557610be461051a565b5b610bef82546109f6565b610bfa828285610b3a565b5f60209050601f831160018114610c2b575f8415610c19578287015190505b610c238582610ba8565b865550610c8a565b601f198416610c3986610a26565b5f5b82811015610c6057848901518255600182019150602085019450602081019050610c3b565b86831015610c7d5784890151610c79601f891682610b8c565b8355505b6001600288020188555050505b505050505050565b7f2f5f5f696e69745f5f2e707900000000000000000000000000000000000000005f82015250565b5f610cc6600c836108be565b9150610cd182610c92565b600c82019050919050565b5f610ce782846108c8565b9150610cf282610cba565b915081905092915050565b7f4e487b71000000000000000000000000000000000000000000000000000000005f52603260045260245ffd5b7f2f636c69656e742e7079000000000000000000000000000000000000000000005f82015250565b5f610d5e600a836108be565b9150610d6982610d2a565b600a82019050919050565b5f610d7f82846108c8565b9150610d8a82610d52565b915081905092915050565b7f2f6d6f64656c732e7079000000000000000000000000000000000000000000005f82015250565b5f610dc9600a836108be565b9150610dd482610d95565b600a82019050919050565b5f610dea82846108c8565b9150610df582610dbd565b915081905092915050565b7f2f73657475702e707900000000000000000000000000000000000000000000005f82015250565b5f610e346009836108be565b9150610e3f82610e00565b600982019050919050565b5f610e5582846108c8565b9150610e6082610e28565b915081905092915050565b7f6f6b0000000000000000000000000000000000000000000000000000000000005f82015250565b5f610e9f600283610437565b9150610eaa82610e6b565b602082019050919050565b610ebe816106ce565b82525050565b5f82825260208201905092915050565b5f610ede826106e6565b610ee88185610ec4565b935083602082028501610efa85610700565b805f5b85811015610f355784840389528151610f168582610757565b9450610f218361076a565b925060208a01995050600181019050610efd565b50829750879550505050505092915050565b5f6060820190508181035f830152610f5e81610e93565b9050610f6d6020830185610eb5565b8181036040830152610f7f8184610ed4565b9050939250505056fea2646970667358221220ad058d36da6dab92e9beaa87ef6daeff31dc4e2cb67602d3f05599b8715059e264736f6c63430008140033","linkReferences":{}},"methodIdentifiers":{"generate(string,string)":"632735ad","register()":"1aa3a008"},"id":206}