{"abi":[{"type":"function","name":"generate","inputs":[{"name":"projection","type":"string","internalType":"string"},{"name":"config","type":"string","internalType":"string"}],"outputs":[{"name":"","type":"tuple","internalType":"struct RestTarget.GenerateOkResult","components":[{"name":"success","type":"bool","internalType":"bool"},{"name":"routes","type":"string[]","internalType":"string[]"},{"name":"files","type":"string[]","internalType":"string[]"}]}],"stateMutability":"nonpayable"},{"type":"function","name":"listRoutes","inputs":[{"name":"concept","type":"string","internalType":"string"}],"outputs":[{"name":"","type":"tuple","internalType":"struct RestTarget.ListRoutesOkResult","components":[{"name":"success","type":"bool","internalType":"bool"},{"name":"routes","type":"string[]","internalType":"string[]"},{"name":"methods","type":"string[]","internalType":"string[]"}]}],"stateMutability":"nonpayable"},{"type":"function","name":"register","inputs":[],"outputs":[{"name":"name","type":"string","internalType":"string"},{"name":"category","type":"string","internalType":"string"},{"name":"formats","type":"string[]","internalType":"string[]"}],"stateMutability":"pure"},{"type":"function","name":"validate","inputs":[{"name":"route","type":"bytes32","internalType":"bytes32"}],"outputs":[{"name":"","type":"tuple","internalType":"struct RestTarget.ValidateOkResult","components":[{"name":"success","type":"bool","internalType":"bool"},{"name":"route","type":"bytes32","internalType":"bytes32"}]}],"stateMutability":"nonpayable"},{"type":"event","name":"GenerateCompleted","inputs":[{"name":"variant","type":"string","indexed":false,"internalType":"string"},{"name":"routes","type":"string[]","indexed":false,"internalType":"string[]"},{"name":"files","type":"string[]","indexed":false,"internalType":"string[]"}],"anonymous":false},{"type":"event","name":"ListRoutesCompleted","inputs":[{"name":"variant","type":"string","indexed":false,"internalType":"string"},{"name":"routes","type":"string[]","indexed":false,"internalType":"string[]"},{"name":"methods","type":"string[]","indexed":false,"internalType":"string[]"}],"anonymous":false},{"type":"event","name":"ValidateCompleted","inputs":[{"name":"variant","type":"string","indexed":false,"internalType":"string"},{"name":"route","type":"bytes32","indexed":false,"internalType":"bytes32"}],"anonymous":false}],"bytecode":{"object":"0x608060405234801561000f575f80fd5b506119f48061001d5f395ff3fe608060405234801561000f575f80fd5b506004361061004a575f3560e01c80631aa3a0081461004e5780632e0126981461006e578063632735ad1461009e578063c6090841146100ce575b5f80fd5b6100566100fe565b60405161006593929190610def565b60405180910390f35b61008860048036038101906100839190610e7d565b610272565b6040516100959190610efe565b60405180910390f35b6100b860048036038101906100b39190611043565b61032c565b6040516100c59190611190565b60405180910390f35b6100e860048036038101906100e391906111b0565b610835565b6040516100f5919061124b565b60405180910390f35b60608060606040518060400160405280600481526020017f726573740000000000000000000000000000000000000000000000000000000081525092506040518060400160405280601081526020017f696e746572666163652d746172676574000000000000000000000000000000008152509150600267ffffffffffffffff81111561018e5761018d610f1f565b5b6040519080825280602002602001820160405280156101c157816020015b60608152602001906001900390816101ac5790505b5090506040518060400160405280600a81526020017f7479706573637269707400000000000000000000000000000000000000000000815250815f8151811061020d5761020c61126b565b5b60200260200101819052506040518060400160405280600781526020017f6f70656e61706900000000000000000000000000000000000000000000000000815250816001815181106102625761026161126b565b5b6020026020010181905250909192565b61027a610b2f565b5f808381526020019081526020015f205f9054906101000a900460ff166102d6576040517f08c379a00000000000000000000000000000000000000000000000000000000081526004016102cd906112e2565b60405180910390fd5b7f431666eceddcbdcb27849a50bf6a540ef06c02dc0175e9f28d845a1d7c009012826040516103059190611359565b60405180910390a16040518060400160405280600115158152602001838152509050919050565b610334610b4c565b5f835111610377576040517f08c379a000000000000000000000000000000000000000000000000000000000815260040161036e906113cf565b60405180910390fd5b5f8360055460405160200161038d929190611450565b60405160208183030381529060405280519060200120905060055f8154809291906103b7906114a4565b91905055505f846040516020016103ce9190611535565b60405160208183030381529060405290505f808381526020019081526020015f205f9054906101000a900460ff1661044f5760015f808481526020019081526020015f205f6101000a81548160ff021916908315150217905550600182908060018154018082558091505060019003905f5260205f20015f90919091909150555b8060025f8481526020019081526020015f20908161046d9190611750565b505f600167ffffffffffffffff81111561048a57610489610f1f565b5b6040519080825280602002602001820160405280156104bd57816020015b60608152602001906001900390816104a85790505b50905081815f815181106104d4576104d361126b565b5b60200260200101819052505f600267ffffffffffffffff8111156104fb576104fa610f1f565b5b60405190808252806020026020018201604052801561052e57816020015b60608152602001906001900390816105195790505b509050866040516020016105429190611869565b604051602081830303815290604052815f815181106105645761056361126b565b5b60200260200101819052508660405160200161058091906118d4565b604051602081830303815290604052816001815181106105a3576105a261126b565b5b60200260200101819052505f876040516020016105c091906118f5565b6040516020818303038152906040528051906020012090505f600267ffffffffffffffff8111156105f4576105f3610f1f565b5b60405190808252806020026020018201604052801561062757816020015b60608152602001906001900390816106125790505b50905084815f8151811061063e5761063d61126b565b5b60200260200101819052508460405160200161065a9190611955565b6040516020818303038152906040528160018151811061067d5761067c61126b565b5b60200260200101819052505f600267ffffffffffffffff8111156106a4576106a3610f1f565b5b6040519080825280602002602001820160405280156106d757816020015b60608152602001906001900390816106c25790505b5090506040518060400160405280600881526020017f4745542c504f5354000000000000000000000000000000000000000000000000815250815f815181106107235761072261126b565b5b60200260200101819052506040518060400160405280600e81526020017f4745542c5055542c44454c455445000000000000000000000000000000000000815250816001815181106107785761077761126b565b5b60200260200101819052508160035f8581526020019081526020015f2090805190602001906107a8929190610b6e565b508060045f8581526020019081526020015f2090805190602001906107ce929190610b6e565b507f98e8722e367033a30eb92cae27f6bd707bbffe334ce250eed26515f1a97b81ee8585604051610800929190611976565b60405180910390a160405180606001604052806001151581526020018681526020018581525097505050505050505092915050565b61083d610bc5565b5f8260405160200161084f91906118f5565b6040516020818303038152906040528051906020012090505f60035f8381526020019081526020015f20805480602002602001604051908101604052809291908181526020015f905b82821015610940578382905f5260205f200180546108b590611583565b80601f01602080910402602001604051908101604052809291908181526020018280546108e190611583565b801561092c5780601f106109035761010080835404028352916020019161092c565b820191905f5260205f20905b81548152906001019060200180831161090f57829003601f168201915b505050505081526020019060010190610898565b5050505090505f60045f8481526020019081526020015f20805480602002602001604051908101604052809291908181526020015f905b82821015610a1f578382905f5260205f2001805461099490611583565b80601f01602080910402602001604051908101604052809291908181526020018280546109c090611583565b8015610a0b5780601f106109e257610100808354040283529160200191610a0b565b820191905f5260205f20905b8154815290600101906020018083116109ee57829003601f168201915b505050505081526020019060010190610977565b5050505090505f825103610ace575f67ffffffffffffffff811115610a4757610a46610f1f565b5b604051908082528060200260200182016040528015610a7a57816020015b6060815260200190600190039081610a655790505b5091505f67ffffffffffffffff811115610a9757610a96610f1f565b5b604051908082528060200260200182016040528015610aca57816020015b6060815260200190600190039081610ab55790505b5090505b7f80cec1e004f3930589d78306046ae4a66d3b46c34b4212d4b1df8aaf0b9d3d1f8282604051610aff929190611976565b60405180910390a16040518060600160405280600115158152602001838152602001828152509350505050919050565b60405180604001604052805f151581526020015f80191681525090565b60405180606001604052805f1515815260200160608152602001606081525090565b828054828255905f5260205f20908101928215610bb4579160200282015b82811115610bb3578251829081610ba39190611750565b5091602001919060010190610b8c565b5b509050610bc19190610be7565b5090565b60405180606001604052805f1515815260200160608152602001606081525090565b5b80821115610c06575f8181610bfd9190610c0a565b50600101610be8565b5090565b508054610c1690611583565b5f825580601f10610c275750610c44565b601f0160209004905f5260205f2090810190610c439190610c47565b5b50565b5b80821115610c5e575f815f905550600101610c48565b5090565b5f81519050919050565b5f82825260208201905092915050565b5f5b83811015610c99578082015181840152602081019050610c7e565b5f8484015250505050565b5f601f19601f8301169050919050565b5f610cbe82610c62565b610cc88185610c6c565b9350610cd8818560208601610c7c565b610ce181610ca4565b840191505092915050565b5f81519050919050565b5f82825260208201905092915050565b5f819050602082019050919050565b5f82825260208201905092915050565b5f610d2f82610c62565b610d398185610d15565b9350610d49818560208601610c7c565b610d5281610ca4565b840191505092915050565b5f610d688383610d25565b905092915050565b5f602082019050919050565b5f610d8682610cec565b610d908185610cf6565b935083602082028501610da285610d06565b805f5b85811015610ddd5784840389528151610dbe8582610d5d565b9450610dc983610d70565b925060208a01995050600181019050610da5565b50829750879550505050505092915050565b5f6060820190508181035f830152610e078186610cb4565b90508181036020830152610e1b8185610cb4565b90508181036040830152610e2f8184610d7c565b9050949350505050565b5f604051905090565b5f80fd5b5f80fd5b5f819050919050565b610e5c81610e4a565b8114610e66575f80fd5b50565b5f81359050610e7781610e53565b92915050565b5f60208284031215610e9257610e91610e42565b5b5f610e9f84828501610e69565b91505092915050565b5f8115159050919050565b610ebc81610ea8565b82525050565b610ecb81610e4a565b82525050565b604082015f820151610ee55f850182610eb3565b506020820151610ef86020850182610ec2565b50505050565b5f604082019050610f115f830184610ed1565b92915050565b5f80fd5b5f80fd5b7f4e487b71000000000000000000000000000000000000000000000000000000005f52604160045260245ffd5b610f5582610ca4565b810181811067ffffffffffffffff82111715610f7457610f73610f1f565b5b80604052505050565b5f610f86610e39565b9050610f928282610f4c565b919050565b5f67ffffffffffffffff821115610fb157610fb0610f1f565b5b610fba82610ca4565b9050602081019050919050565b828183375f83830152505050565b5f610fe7610fe284610f97565b610f7d565b90508281526020810184848401111561100357611002610f1b565b5b61100e848285610fc7565b509392505050565b5f82601f83011261102a57611029610f17565b5b813561103a848260208601610fd5565b91505092915050565b5f806040838503121561105957611058610e42565b5b5f83013567ffffffffffffffff81111561107657611075610e46565b5b61108285828601611016565b925050602083013567ffffffffffffffff8111156110a3576110a2610e46565b5b6110af85828601611016565b9150509250929050565b5f82825260208201905092915050565b5f6110d382610cec565b6110dd81856110b9565b9350836020820285016110ef85610d06565b805f5b8581101561112a578484038952815161110b8582610d5d565b945061111683610d70565b925060208a019950506001810190506110f2565b50829750879550505050505092915050565b5f606083015f8301516111515f860182610eb3565b506020830151848203602086015261116982826110c9565b9150506040830151848203604086015261118382826110c9565b9150508091505092915050565b5f6020820190508181035f8301526111a8818461113c565b905092915050565b5f602082840312156111c5576111c4610e42565b5b5f82013567ffffffffffffffff8111156111e2576111e1610e46565b5b6111ee84828501611016565b91505092915050565b5f606083015f83015161120c5f860182610eb3565b506020830151848203602086015261122482826110c9565b9150506040830151848203604086015261123e82826110c9565b9150508091505092915050565b5f6020820190508181035f83015261126381846111f7565b905092915050565b7f4e487b71000000000000000000000000000000000000000000000000000000005f52603260045260245ffd5b7f526f757465206e6f7420666f756e6400000000000000000000000000000000005f82015250565b5f6112cc600f83610c6c565b91506112d782611298565b602082019050919050565b5f6020820190508181035f8301526112f9816112c0565b9050919050565b7f6f6b0000000000000000000000000000000000000000000000000000000000005f82015250565b5f611334600283610c6c565b915061133f82611300565b602082019050919050565b61135381610e4a565b82525050565b5f6040820190508181035f83015261137081611328565b905061137f602083018461134a565b92915050565b7f50726f6a656374696f6e2063616e6e6f7420626520656d7074790000000000005f82015250565b5f6113b9601a83610c6c565b91506113c482611385565b602082019050919050565b5f6020820190508181035f8301526113e6816113ad565b9050919050565b5f81905092915050565b5f61140182610c62565b61140b81856113ed565b935061141b818560208601610c7c565b80840191505092915050565b5f819050919050565b5f819050919050565b61144a61144582611427565b611430565b82525050565b5f61145b82856113f7565b91506114678284611439565b6020820191508190509392505050565b7f4e487b71000000000000000000000000000000000000000000000000000000005f52601160045260245ffd5b5f6114ae82611427565b91507fffffffffffffffffffffffffffffffffffffffffffffffffffffffffffffffff82036114e0576114df611477565b5b600182019050919050565b7f2f000000000000000000000000000000000000000000000000000000000000005f82015250565b5f61151f6001836113ed565b915061152a826114eb565b600182019050919050565b5f61153f82611513565b915061154b82846113f7565b915081905092915050565b7f4e487b71000000000000000000000000000000000000000000000000000000005f52602260045260245ffd5b5f600282049050600182168061159a57607f821691505b6020821081036115ad576115ac611556565b5b50919050565b5f819050815f5260205f209050919050565b5f6020601f8301049050919050565b5f82821b905092915050565b5f6008830261160f7fffffffffffffffffffffffffffffffffffffffffffffffffffffffffffffffff826115d4565b61161986836115d4565b95508019841693508086168417925050509392505050565b5f819050919050565b5f61165461164f61164a84611427565b611631565b611427565b9050919050565b5f819050919050565b61166d8361163a565b6116816116798261165b565b8484546115e0565b825550505050565b5f90565b611695611689565b6116a0818484611664565b505050565b5b818110156116c3576116b85f8261168d565b6001810190506116a6565b5050565b601f821115611708576116d9816115b3565b6116e2846115c5565b810160208510156116f1578190505b6117056116fd856115c5565b8301826116a5565b50505b505050565b5f82821c905092915050565b5f6117285f198460080261170d565b1980831691505092915050565b5f6117408383611719565b9150826002028217905092915050565b61175982610c62565b67ffffffffffffffff81111561177257611771610f1f565b5b61177c8254611583565b6117878282856116c7565b5f60209050601f8311600181146117b8575f84156117a6578287015190505b6117b08582611735565b865550611817565b601f1984166117c6866115b3565b5f5b828110156117ed578489015182556001820191506020850194506020810190506117c8565b8683101561180a5784890151611806601f891682611719565b8355505b6001600288020188555050505b505050505050565b7f2e726f757465732e7473000000000000000000000000000000000000000000005f82015250565b5f611853600a836113ed565b915061185e8261181f565b600a82019050919050565b5f61187482846113f7565b915061187f82611847565b915081905092915050565b7f2e6f70656e6170692e79616d6c000000000000000000000000000000000000005f82015250565b5f6118be600d836113ed565b91506118c98261188a565b600d82019050919050565b5f6118df82846113f7565b91506118ea826118b2565b915081905092915050565b5f61190082846113f7565b915081905092915050565b7f2f3a6964000000000000000000000000000000000000000000000000000000005f82015250565b5f61193f6004836113ed565b915061194a8261190b565b600482019050919050565b5f61196082846113f7565b915061196b82611933565b915081905092915050565b5f6060820190508181035f83015261198d81611328565b905081810360208301526119a18185610d7c565b905081810360408301526119b58184610d7c565b9050939250505056fea2646970667358221220088ad28e3f2b4698c9382b59c4eaf6dd46260a259c3c759bd091275eb28a8ce664736f6c63430008140033","linkReferences":{}},"methodIdentifiers":{"generate(string,string)":"632735ad","listRoutes(string)":"c6090841","register()":"1aa3a008","validate(bytes32)":"2e012698"},"id":220}