{"abi":[{"type":"function","name":"generate","inputs":[{"name":"spec","type":"bytes32","internalType":"bytes32"},{"name":"ast","type":"bytes","internalType":"bytes"}],"outputs":[{"name":"result","type":"tuple","internalType":"struct SchemaGen.GenerateOkResult","components":[{"name":"success","type":"bool","internalType":"bool"},{"name":"manifest","type":"bytes","internalType":"bytes"}]}],"stateMutability":"nonpayable"},{"type":"function","name":"getSchema","inputs":[{"name":"spec","type":"bytes32","internalType":"bytes32"}],"outputs":[{"name":"manifest","type":"bytes","internalType":"bytes"}],"stateMutability":"view"},{"type":"function","name":"hasSchema","inputs":[{"name":"spec","type":"bytes32","internalType":"bytes32"}],"outputs":[{"name":"","type":"bool","internalType":"bool"}],"stateMutability":"view"},{"type":"function","name":"register","inputs":[],"outputs":[{"name":"metadata","type":"tuple","internalType":"struct SchemaGen.ProviderMetadata","components":[{"name":"name","type":"string","internalType":"string"},{"name":"category","type":"string","internalType":"string"}]}],"stateMutability":"pure"},{"type":"event","name":"GenerateCompleted","inputs":[{"name":"variant","type":"string","indexed":false,"internalType":"string"},{"name":"manifest","type":"bytes","indexed":false,"internalType":"bytes"}],"anonymous":false}],"bytecode":{"object":"0x608060405234801561000f575f80fd5b50610d408061001d5f395ff3fe608060405234801561000f575f80fd5b506004361061004a575f3560e01c806302d66fc21461004e5780631aa3a0081461007e5780631f31b11f1461009c578063a2ea7c6e146100cc575b5f80fd5b610068600480360381019061006391906104c9565b6100fc565b604051610075919061050e565b60405180910390f35b610086610124565b60405161009391906105f2565b60405180910390f35b6100b660048036038101906100b19190610673565b6101b0565b6040516100c3919061076b565b60405180910390f35b6100e660048036038101906100e191906104c9565b610358565b6040516100f391906107d3565b60405180910390f35b5f805f8381526020019081526020015f206002015f9054906101000a900460ff169050919050565b61012c610459565b60405180604001604052806040518060400160405280600a81526020017f736368656d612d67656e0000000000000000000000000000000000000000000081525081526020016040518060400160405280600e81526020017f636f64652d67656e657261746f72000000000000000000000000000000000000815250815250905090565b6101b8610473565b5f801b84036101fc576040517f08c379a00000000000000000000000000000000000000000000000000000000081526004016101f39061084d565b60405180910390fd5b5f8383905011610241576040517f08c379a0000000000000000000000000000000000000000000000000000000008152600401610238906108b5565b60405180910390fd5b5f84848490504260405160200161025a939291906108fa565b60405160208183030381529060405290506040518060600160405280828152602001428152602001600115158152505f808781526020019081526020015f205f820151815f0190816102ac9190610b56565b50602082015181600101556040820151816002015f6101000a81548160ff021916908315150217905550905050600185908060018154018082558091505060019003905f5260205f20015f909190919091505560405180604001604052806001151581526020018281525091507f729f839e1f4c867188175adf40adddfa8c89632b23ce5f2447813e1bf6a890e4816040516103489190610c6f565b60405180910390a1509392505050565b60605f808381526020019081526020015f206002015f9054906101000a900460ff166103b9576040517f08c379a00000000000000000000000000000000000000000000000000000000081526004016103b090610cec565b60405180910390fd5b5f808381526020019081526020015f205f0180546103d690610989565b80601f016020809104026020016040519081016040528092919081815260200182805461040290610989565b801561044d5780601f106104245761010080835404028352916020019161044d565b820191905f5260205f20905b81548152906001019060200180831161043057829003601f168201915b50505050509050919050565b604051806040016040528060608152602001606081525090565b60405180604001604052805f15158152602001606081525090565b5f80fd5b5f80fd5b5f819050919050565b6104a881610496565b81146104b2575f80fd5b50565b5f813590506104c38161049f565b92915050565b5f602082840312156104de576104dd61048e565b5b5f6104eb848285016104b5565b91505092915050565b5f8115159050919050565b610508816104f4565b82525050565b5f6020820190506105215f8301846104ff565b92915050565b5f81519050919050565b5f82825260208201905092915050565b5f5b8381101561055e578082015181840152602081019050610543565b5f8484015250505050565b5f601f19601f8301169050919050565b5f61058382610527565b61058d8185610531565b935061059d818560208601610541565b6105a681610569565b840191505092915050565b5f604083015f8301518482035f8601526105cb8282610579565b915050602083015184820360208601526105e58282610579565b9150508091505092915050565b5f6020820190508181035f83015261060a81846105b1565b905092915050565b5f80fd5b5f80fd5b5f80fd5b5f8083601f84011261063357610632610612565b5b8235905067ffffffffffffffff8111156106505761064f610616565b5b60208301915083600182028301111561066c5761066b61061a565b5b9250929050565b5f805f6040848603121561068a5761068961048e565b5b5f610697868287016104b5565b935050602084013567ffffffffffffffff8111156106b8576106b7610492565b5b6106c48682870161061e565b92509250509250925092565b6106d9816104f4565b82525050565b5f81519050919050565b5f82825260208201905092915050565b5f610703826106df565b61070d81856106e9565b935061071d818560208601610541565b61072681610569565b840191505092915050565b5f604083015f8301516107465f8601826106d0565b506020830151848203602086015261075e82826106f9565b9150508091505092915050565b5f6020820190508181035f8301526107838184610731565b905092915050565b5f82825260208201905092915050565b5f6107a5826106df565b6107af818561078b565b93506107bf818560208601610541565b6107c881610569565b840191505092915050565b5f6020820190508181035f8301526107eb818461079b565b905092915050565b5f82825260208201905092915050565b7f537065632049442063616e6e6f74206265207a65726f000000000000000000005f82015250565b5f6108376016836107f3565b915061084282610803565b602082019050919050565b5f6020820190508181035f8301526108648161082b565b9050919050565b7f4153542063616e6e6f7420626520656d707479000000000000000000000000005f82015250565b5f61089f6013836107f3565b91506108aa8261086b565b602082019050919050565b5f6020820190508181035f8301526108cc81610893565b9050919050565b6108dc81610496565b82525050565b5f819050919050565b6108f4816108e2565b82525050565b5f60608201905061090d5f8301866108d3565b61091a60208301856108eb565b61092760408301846108eb565b949350505050565b7f4e487b71000000000000000000000000000000000000000000000000000000005f52604160045260245ffd5b7f4e487b71000000000000000000000000000000000000000000000000000000005f52602260045260245ffd5b5f60028204905060018216806109a057607f821691505b6020821081036109b3576109b261095c565b5b50919050565b5f819050815f5260205f209050919050565b5f6020601f8301049050919050565b5f82821b905092915050565b5f60088302610a157fffffffffffffffffffffffffffffffffffffffffffffffffffffffffffffffff826109da565b610a1f86836109da565b95508019841693508086168417925050509392505050565b5f819050919050565b5f610a5a610a55610a50846108e2565b610a37565b6108e2565b9050919050565b5f819050919050565b610a7383610a40565b610a87610a7f82610a61565b8484546109e6565b825550505050565b5f90565b610a9b610a8f565b610aa6818484610a6a565b505050565b5b81811015610ac957610abe5f82610a93565b600181019050610aac565b5050565b601f821115610b0e57610adf816109b9565b610ae8846109cb565b81016020851015610af7578190505b610b0b610b03856109cb565b830182610aab565b50505b505050565b5f82821c905092915050565b5f610b2e5f1984600802610b13565b1980831691505092915050565b5f610b468383610b1f565b9150826002028217905092915050565b610b5f826106df565b67ffffffffffffffff811115610b7857610b7761092f565b5b610b828254610989565b610b8d828285610acd565b5f60209050601f831160018114610bbe575f8415610bac578287015190505b610bb68582610b3b565b865550610c1d565b601f198416610bcc866109b9565b5f5b82811015610bf357848901518255600182019150602085019450602081019050610bce565b86831015610c105784890151610c0c601f891682610b1f565b8355505b6001600288020188555050505b505050505050565b7f6f6b0000000000000000000000000000000000000000000000000000000000005f82015250565b5f610c596002836107f3565b9150610c6482610c25565b602082019050919050565b5f6040820190508181035f830152610c8681610c4d565b90508181036020830152610c9a818461079b565b905092915050565b7f4e6f20736368656d612067656e65726174656420666f722073706563000000005f82015250565b5f610cd6601c836107f3565b9150610ce182610ca2565b602082019050919050565b5f6020820190508181035f830152610d0381610cca565b905091905056fea26469706673582212205a03fedfbafb27851851bb0065ca4aad10e183c529bdb99df7f8659722940a2064736f6c63430008140033","linkReferences":{}},"methodIdentifiers":{"generate(bytes32,bytes)":"1f31b11f","getSchema(bytes32)":"a2ea7c6e","hasSchema(bytes32)":"02d66fc2","register()":"1aa3a008"},"id":232}