{"abi":[{"type":"function","name":"add","inputs":[{"name":"source","type":"string","internalType":"string"},{"name":"target","type":"string","internalType":"string"},{"name":"kind","type":"string","internalType":"string"}],"outputs":[{"name":"","type":"tuple","internalType":"struct SymbolRelationship.AddOkResult","components":[{"name":"success","type":"bool","internalType":"bool"},{"name":"relationship","type":"bytes32","internalType":"bytes32"}]}],"stateMutability":"nonpayable"},{"type":"function","name":"findFrom","inputs":[{"name":"source","type":"string","internalType":"string"},{"name":"kind","type":"string","internalType":"string"}],"outputs":[{"name":"","type":"tuple","internalType":"struct SymbolRelationship.FindFromOkResult","components":[{"name":"success","type":"bool","internalType":"bool"},{"name":"relationships","type":"string","internalType":"string"}]}],"stateMutability":"nonpayable"},{"type":"function","name":"findTo","inputs":[{"name":"target","type":"string","internalType":"string"},{"name":"kind","type":"string","internalType":"string"}],"outputs":[{"name":"","type":"tuple","internalType":"struct SymbolRelationship.FindToOkResult","components":[{"name":"success","type":"bool","internalType":"bool"},{"name":"relationships","type":"string","internalType":"string"}]}],"stateMutability":"nonpayable"},{"type":"function","name":"get","inputs":[{"name":"relationship","type":"bytes32","internalType":"bytes32"}],"outputs":[{"name":"","type":"tuple","internalType":"struct SymbolRelationship.GetOkResult","components":[{"name":"success","type":"bool","internalType":"bool"},{"name":"relationship","type":"bytes32","internalType":"bytes32"},{"name":"source","type":"string","internalType":"string"},{"name":"target","type":"string","internalType":"string"},{"name":"kind","type":"string","internalType":"string"},{"name":"metadata","type":"string","internalType":"string"}]}],"stateMutability":"nonpayable"},{"type":"function","name":"relationshipCount","inputs":[],"outputs":[{"name":"","type":"uint256","internalType":"uint256"}],"stateMutability":"view"},{"type":"function","name":"relationshipExists","inputs":[{"name":"relationship","type":"bytes32","internalType":"bytes32"}],"outputs":[{"name":"","type":"bool","internalType":"bool"}],"stateMutability":"view"},{"type":"function","name":"transitiveClosure","inputs":[{"name":"start","type":"string","internalType":"string"},{"name":"kind","type":"string","internalType":"string"},{"name":"direction","type":"string","internalType":"string"}],"outputs":[{"name":"","type":"tuple","internalType":"struct SymbolRelationship.TransitiveClosureOkResult","components":[{"name":"success","type":"bool","internalType":"bool"},{"name":"symbols","type":"string","internalType":"string"},{"name":"paths","type":"string","internalType":"string"}]}],"stateMutability":"nonpayable"},{"type":"event","name":"AddCompleted","inputs":[{"name":"variant","type":"string","indexed":false,"internalType":"string"},{"name":"relationship","type":"bytes32","indexed":false,"internalType":"bytes32"},{"name":"existing","type":"bytes32","indexed":false,"internalType":"bytes32"}],"anonymous":false},{"type":"event","name":"FindFromCompleted","inputs":[{"name":"variant","type":"string","indexed":false,"internalType":"string"}],"anonymous":false},{"type":"event","name":"FindToCompleted","inputs":[{"name":"variant","type":"string","indexed":false,"internalType":"string"}],"anonymous":false},{"type":"event","name":"GetCompleted","inputs":[{"name":"variant","type":"string","indexed":false,"internalType":"string"},{"name":"relationship","type":"bytes32","indexed":false,"internalType":"bytes32"}],"anonymous":false},{"type":"event","name":"TransitiveClosureCompleted","inputs":[{"name":"variant","type":"string","indexed":false,"internalType":"string"}],"anonymous":false}],"bytecode":{"object":"0x608060405234801561000f575f80fd5b506122678061001d5f395ff3fe608060405234801561000f575f80fd5b506004361061007b575f3560e01c806384566f8d1161005957806384566f8d146100fd5780638eaa6ac01461012d578063f034d6b11461015d578063f5f85cec1461018d5761007b565b8063297ab7101461007f57806340f329ca146100af57806361226dd1146100cd575b5f80fd5b61009960048036038101906100949190611407565b6101bd565b6040516100a6919061154b565b60405180910390f35b6100b7610474565b6040516100c49190611583565b60405180910390f35b6100e760048036038101906100e29190611407565b610480565b6040516100f491906115d6565b60405180910390f35b61011760048036038101906101129190611629565b610738565b6040516101249190611663565b60405180910390f35b61014760048036038101906101429190611629565b610760565b6040516101549190611726565b60405180910390f35b61017760048036038101906101729190611746565b610a70565b6040516101849190611817565b60405180910390f35b6101a760048036038101906101a29190611746565b610d84565b6040516101b49190611884565b60405180910390f35b6101c561120c565b5f835111610208576040517f08c379a00000000000000000000000000000000000000000000000000000000081526004016101ff906118fe565b60405180910390fd5b5f8360405160200161021a9190611956565b6040516020818303038152906040528051906020012090505f8084511190505f8460405160200161024b9190611956565b6040516020818303038152906040528051906020012090505f60405180602001604052805f81525090505f600190505f5b600280549050811015610419575f805f600284815481106102a05761029f61196c565b5b905f5260205f20015481526020019081526020015f209050806004015f9054906101000a900460ff1680156102fd575086816001016040516020016102e59190611a88565b60405160208183030381529060405280519060200120145b15610404578580156103385750848160020160405160200161031f9190611a88565b6040516020818303038152906040528051906020012014155b156103435750610406565b826103735783815f0160405160200161035d929190611ae8565b6040516020818303038152906040529350610403565b805f018054610381906119c6565b80601f01602080910402602001604051908101604052809291908181526020018280546103ad906119c6565b80156103f85780601f106103cf576101008083540402835291602001916103f8565b820191905f5260205f20905b8154815290600101906020018083116103db57829003601f168201915b505050505093505f92505b5b505b808061041190611b43565b91505061027c565b507f4a576ee05b795243acc1d9c182485b053c6952cb86aa28628b5d5eb4196dcd6960405161044790611bd4565b60405180910390a16040518060400160405280600115158152602001838152509550505050505092915050565b5f600280549050905090565b610488611227565b5f8351116104cb576040517f08c379a00000000000000000000000000000000000000000000000000000000081526004016104c290611c3c565b60405180910390fd5b5f836040516020016104dd9190611956565b6040516020818303038152906040528051906020012090505f8084511190505f8460405160200161050e9190611956565b6040516020818303038152906040528051906020012090505f60405180602001604052805f81525090505f600190505f5b6002805490508110156106dd575f805f600284815481106105635761056261196c565b5b905f5260205f20015481526020019081526020015f209050806004015f9054906101000a900460ff1680156105bf575086815f016040516020016105a79190611a88565b60405160208183030381529060405280519060200120145b156106c8578580156105fa575084816002016040516020016105e19190611a88565b6040516020818303038152906040528051906020012014155b1561060557506106ca565b82610636578381600101604051602001610620929190611ae8565b60405160208183030381529060405293506106c7565b806001018054610645906119c6565b80601f0160208091040260200160405190810160405280929190818152602001828054610671906119c6565b80156106bc5780601f10610693576101008083540402835291602001916106bc565b820191905f5260205f20905b81548152906001019060200180831161069f57829003601f168201915b505050505093505f92505b5b505b80806106d590611b43565b91505061053f565b507f3d5bce9d9bde23bfdc6b28d61b59b34ce95ba5c4916b8c272673aec7e43b60b160405161070b90611bd4565b60405180910390a16040518060400160405280600115158152602001838152509550505050505092915050565b5f805f8381526020019081526020015f206004015f9054906101000a900460ff169050919050565b610768611242565b5f808381526020019081526020015f206004015f9054906101000a900460ff166107c7576040517f08c379a00000000000000000000000000000000000000000000000000000000081526004016107be90611ca4565b60405180910390fd5b5f805f8481526020019081526020015f2090507fd45fe45dbfb310b00d5db432aa35f96282e16a8bb204b349e334de2cd5566f34836040516108099190611cd1565b60405180910390a16040518060c00160405280600115158152602001848152602001825f018054610839906119c6565b80601f0160208091040260200160405190810160405280929190818152602001828054610865906119c6565b80156108b05780601f10610887576101008083540402835291602001916108b0565b820191905f5260205f20905b81548152906001019060200180831161089357829003601f168201915b505050505081526020018260010180546108c9906119c6565b80601f01602080910402602001604051908101604052809291908181526020018280546108f5906119c6565b80156109405780601f1061091757610100808354040283529160200191610940565b820191905f5260205f20905b81548152906001019060200180831161092357829003601f168201915b50505050508152602001826002018054610959906119c6565b80601f0160208091040260200160405190810160405280929190818152602001828054610985906119c6565b80156109d05780601f106109a7576101008083540402835291602001916109d0565b820191905f5260205f20905b8154815290600101906020018083116109b357829003601f168201915b505050505081526020018260030180546109e9906119c6565b80601f0160208091040260200160405190810160405280929190818152602001828054610a15906119c6565b8015610a605780601f10610a3757610100808354040283529160200191610a60565b820191905f5260205f20905b815481529060010190602001808311610a4357829003601f168201915b5050505050815250915050919050565b610a7861127b565b5f845111610abb576040517f08c379a0000000000000000000000000000000000000000000000000000000008152600401610ab290611c3c565b60405180910390fd5b5f835111610afe576040517f08c379a0000000000000000000000000000000000000000000000000000000008152600401610af5906118fe565b60405180910390fd5b5f825111610b41576040517f08c379a0000000000000000000000000000000000000000000000000000000008152600401610b3890611d47565b60405180910390fd5b5f848484604051602001610b5793929190611d65565b6040516020818303038152906040528051906020012090505f60015f8381526020019081526020015f205490505f801b8114158015610bb257505f808281526020019081526020015f206004015f9054906101000a900460ff165b15610bf2576040517f08c379a0000000000000000000000000000000000000000000000000000000008152600401610be990611ddf565b60405180910390fd5b5f86868660028054905042604051602001610c11959493929190611e1d565b6040516020818303038152906040528051906020012090506040518060a0016040528088815260200187815260200186815260200160405180602001604052805f8152508152602001600115158152505f808381526020019081526020015f205f820151815f019081610c849190611ffa565b506020820151816001019081610c9a9190611ffa565b506040820151816002019081610cb09190611ffa565b506060820151816003019081610cc69190611ffa565b506080820151816004015f6101000a81548160ff0219169083151502179055509050508060015f8581526020019081526020015f2081905550600281908060018154018082558091505060019003905f5260205f20015f90919091909150557f6d46e0a32a698148d8257bb1264c2d469c094a4129e6f8f69433069d54499701815f801b604051610d589291906120c9565b60405180910390a160405180604001604052806001151581526020018281525093505050509392505050565b610d8c611298565b5f845111610dcf576040517f08c379a0000000000000000000000000000000000000000000000000000000008152600401610dc69061214d565b60405180910390fd5b5f835111610e12576040517f08c379a0000000000000000000000000000000000000000000000000000000008152600401610e0990611d47565b60405180910390fd5b5f825111610e55576040517f08c379a0000000000000000000000000000000000000000000000000000000008152600401610e4c906121b5565b60405180910390fd5b5f83604051602001610e679190611956565b6040516020818303038152906040528051906020012090505f604051602001610e8f9061221d565b6040516020818303038152906040528051906020012084604051602001610eb69190611956565b604051602081830303815290604052805190602001201490505f60405180602001604052805f81525090505f600190505f88604051602001610ef89190611956565b6040516020818303038152906040528051906020012090505f5b6002805490508110156111aa575f805f60028481548110610f3657610f3561196c565b5b905f5260205f20015481526020019081526020015f209050806004015f9054906101000a900460ff168015610f9357508681600201604051602001610f7b9190611a88565b60405160208183030381529060405280519060200120145b1561119657858015610fcc575082815f01604051602001610fb49190611a88565b60405160208183030381529060405280519060200120145b156110985783611002578481600101604051602001610fec929190611ae8565b6040516020818303038152906040529450611093565b806001018054611011906119c6565b80601f016020809104026020016040519081016040528092919081815260200182805461103d906119c6565b80156110885780601f1061105f57610100808354040283529160200191611088565b820191905f5260205f20905b81548152906001019060200180831161106b57829003601f168201915b505050505094505f93505b611195565b851580156110ce575082816001016040516020016110b69190611a88565b60405160208183030381529060405280519060200120145b1561119457836111035784815f016040516020016110ed929190611ae8565b6040516020818303038152906040529450611193565b805f018054611111906119c6565b80601f016020809104026020016040519081016040528092919081815260200182805461113d906119c6565b80156111885780601f1061115f57610100808354040283529160200191611188565b820191905f5260205f20905b81548152906001019060200180831161116b57829003601f168201915b505050505094505f93505b5b5b5b5080806111a290611b43565b915050610f12565b507f6e04e9a68df1c3d11cf8827226806bf2ffd7fec87968c4ac6727fccd8c7542ea6040516111d890611bd4565b60405180910390a160405180606001604052806001151581526020018481526020018a815250955050505050509392505050565b60405180604001604052805f15158152602001606081525090565b60405180604001604052805f15158152602001606081525090565b6040518060c001604052805f151581526020015f8019168152602001606081526020016060815260200160608152602001606081525090565b60405180604001604052805f151581526020015f80191681525090565b60405180606001604052805f1515815260200160608152602001606081525090565b5f604051905090565b5f80fd5b5f80fd5b5f80fd5b5f80fd5b5f601f19601f8301169050919050565b7f4e487b71000000000000000000000000000000000000000000000000000000005f52604160045260245ffd5b611319826112d3565b810181811067ffffffffffffffff82111715611338576113376112e3565b5b80604052505050565b5f61134a6112ba565b90506113568282611310565b919050565b5f67ffffffffffffffff821115611375576113746112e3565b5b61137e826112d3565b9050602081019050919050565b828183375f83830152505050565b5f6113ab6113a68461135b565b611341565b9050828152602081018484840111156113c7576113c66112cf565b5b6113d284828561138b565b509392505050565b5f82601f8301126113ee576113ed6112cb565b5b81356113fe848260208601611399565b91505092915050565b5f806040838503121561141d5761141c6112c3565b5b5f83013567ffffffffffffffff81111561143a576114396112c7565b5b611446858286016113da565b925050602083013567ffffffffffffffff811115611467576114666112c7565b5b611473858286016113da565b9150509250929050565b5f8115159050919050565b6114918161147d565b82525050565b5f81519050919050565b5f82825260208201905092915050565b5f5b838110156114ce5780820151818401526020810190506114b3565b5f8484015250505050565b5f6114e382611497565b6114ed81856114a1565b93506114fd8185602086016114b1565b611506816112d3565b840191505092915050565b5f604083015f8301516115265f860182611488565b506020830151848203602086015261153e82826114d9565b9150508091505092915050565b5f6020820190508181035f8301526115638184611511565b905092915050565b5f819050919050565b61157d8161156b565b82525050565b5f6020820190506115965f830184611574565b92915050565b5f604083015f8301516115b15f860182611488565b50602083015184820360208601526115c982826114d9565b9150508091505092915050565b5f6020820190508181035f8301526115ee818461159c565b905092915050565b5f819050919050565b611608816115f6565b8114611612575f80fd5b50565b5f81359050611623816115ff565b92915050565b5f6020828403121561163e5761163d6112c3565b5b5f61164b84828501611615565b91505092915050565b61165d8161147d565b82525050565b5f6020820190506116765f830184611654565b92915050565b611685816115f6565b82525050565b5f60c083015f8301516116a05f860182611488565b5060208301516116b3602086018261167c565b50604083015184820360408601526116cb82826114d9565b915050606083015184820360608601526116e582826114d9565b915050608083015184820360808601526116ff82826114d9565b91505060a083015184820360a086015261171982826114d9565b9150508091505092915050565b5f6020820190508181035f83015261173e818461168b565b905092915050565b5f805f6060848603121561175d5761175c6112c3565b5b5f84013567ffffffffffffffff81111561177a576117796112c7565b5b611786868287016113da565b935050602084013567ffffffffffffffff8111156117a7576117a66112c7565b5b6117b3868287016113da565b925050604084013567ffffffffffffffff8111156117d4576117d36112c7565b5b6117e0868287016113da565b9150509250925092565b604082015f8201516117fe5f850182611488565b506020820151611811602085018261167c565b50505050565b5f60408201905061182a5f8301846117ea565b92915050565b5f606083015f8301516118455f860182611488565b506020830151848203602086015261185d82826114d9565b9150506040830151848203604086015261187782826114d9565b9150508091505092915050565b5f6020820190508181035f83015261189c8184611830565b905092915050565b5f82825260208201905092915050565b7f5461726765742063616e6e6f7420626520656d707479000000000000000000005f82015250565b5f6118e86016836118a4565b91506118f3826118b4565b602082019050919050565b5f6020820190508181035f830152611915816118dc565b9050919050565b5f81905092915050565b5f61193082611497565b61193a818561191c565b935061194a8185602086016114b1565b80840191505092915050565b5f6119618284611926565b915081905092915050565b7f4e487b71000000000000000000000000000000000000000000000000000000005f52603260045260245ffd5b7f4e487b71000000000000000000000000000000000000000000000000000000005f52602260045260245ffd5b5f60028204905060018216806119dd57607f821691505b6020821081036119f0576119ef611999565b5b50919050565b5f819050815f5260205f209050919050565b5f8154611a14816119c6565b611a1e818661191c565b9450600182165f8114611a385760018114611a4d57611a7f565b60ff1983168652811515820286019350611a7f565b611a56856119f6565b5f5b83811015611a7757815481890152600182019150602081019050611a58565b838801955050505b50505092915050565b5f611a938284611a08565b915081905092915050565b7f2c000000000000000000000000000000000000000000000000000000000000005f82015250565b5f611ad260018361191c565b9150611add82611a9e565b600182019050919050565b5f611af38285611926565b9150611afe82611ac6565b9150611b0a8284611a08565b91508190509392505050565b7f4e487b71000000000000000000000000000000000000000000000000000000005f52601160045260245ffd5b5f611b4d8261156b565b91507fffffffffffffffffffffffffffffffffffffffffffffffffffffffffffffffff8203611b7f57611b7e611b16565b5b600182019050919050565b7f6f6b0000000000000000000000000000000000000000000000000000000000005f82015250565b5f611bbe6002836118a4565b9150611bc982611b8a565b602082019050919050565b5f6020820190508181035f830152611beb81611bb2565b9050919050565b7f536f757263652063616e6e6f7420626520656d707479000000000000000000005f82015250565b5f611c266016836118a4565b9150611c3182611bf2565b602082019050919050565b5f6020820190508181035f830152611c5381611c1a565b9050919050565b7f52656c6174696f6e73686970206e6f7420666f756e64000000000000000000005f82015250565b5f611c8e6016836118a4565b9150611c9982611c5a565b602082019050919050565b5f6020820190508181035f830152611cbb81611c82565b9050919050565b611ccb816115f6565b82525050565b5f6040820190508181035f830152611ce881611bb2565b9050611cf76020830184611cc2565b92915050565b7f4b696e642063616e6e6f7420626520656d7074790000000000000000000000005f82015250565b5f611d316014836118a4565b9150611d3c82611cfd565b602082019050919050565b5f6020820190508181035f830152611d5e81611d25565b9050919050565b5f611d708286611926565b9150611d7c8285611926565b9150611d888284611926565b9150819050949350505050565b7f52656c6174696f6e7368697020616c72656164792065786973747300000000005f82015250565b5f611dc9601b836118a4565b9150611dd482611d95565b602082019050919050565b5f6020820190508181035f830152611df681611dbd565b9050919050565b5f819050919050565b611e17611e128261156b565b611dfd565b82525050565b5f611e288288611926565b9150611e348287611926565b9150611e408286611926565b9150611e4c8285611e06565b602082019150611e5c8284611e06565b6020820191508190509695505050505050565b5f6020601f8301049050919050565b5f82821b905092915050565b5f60088302611eb97fffffffffffffffffffffffffffffffffffffffffffffffffffffffffffffffff82611e7e565b611ec38683611e7e565b95508019841693508086168417925050509392505050565b5f819050919050565b5f611efe611ef9611ef48461156b565b611edb565b61156b565b9050919050565b5f819050919050565b611f1783611ee4565b611f2b611f2382611f05565b848454611e8a565b825550505050565b5f90565b611f3f611f33565b611f4a818484611f0e565b505050565b5b81811015611f6d57611f625f82611f37565b600181019050611f50565b5050565b601f821115611fb257611f83816119f6565b611f8c84611e6f565b81016020851015611f9b578190505b611faf611fa785611e6f565b830182611f4f565b50505b505050565b5f82821c905092915050565b5f611fd25f1984600802611fb7565b1980831691505092915050565b5f611fea8383611fc3565b9150826002028217905092915050565b61200382611497565b67ffffffffffffffff81111561201c5761201b6112e3565b5b61202682546119c6565b612031828285611f71565b5f60209050601f831160018114612062575f8415612050578287015190505b61205a8582611fdf565b8655506120c1565b601f198416612070866119f6565b5f5b8281101561209757848901518255600182019150602085019450602081019050612072565b868310156120b457848901516120b0601f891682611fc3565b8355505b6001600288020188555050505b505050505050565b5f6060820190508181035f8301526120e081611bb2565b90506120ef6020830185611cc2565b6120fc6040830184611cc2565b9392505050565b7f53746172742063616e6e6f7420626520656d70747900000000000000000000005f82015250565b5f6121376015836118a4565b915061214282612103565b602082019050919050565b5f6020820190508181035f8301526121648161212b565b9050919050565b7f446972656374696f6e2063616e6e6f7420626520656d707479000000000000005f82015250565b5f61219f6019836118a4565b91506121aa8261216b565b602082019050919050565b5f6020820190508181035f8301526121cc81612193565b9050919050565b7f666f7277617264000000000000000000000000000000000000000000000000005f82015250565b5f61220760078361191c565b9150612212826121d3565b600782019050919050565b5f612227826121fb565b915081905091905056fea2646970667358221220fb9534cc1f4b05d0a2acd2363d09873df7e7e0994b013607a84fa59413f9bd6d64736f6c63430008140033","linkReferences":{}},"methodIdentifiers":{"add(string,string,string)":"f034d6b1","findFrom(string,string)":"61226dd1","findTo(string,string)":"297ab710","get(bytes32)":"8eaa6ac0","relationshipCount()":"40f329ca","relationshipExists(bytes32)":"84566f8d","transitiveClosure(string,string,string)":"f5f85cec"},"id":267}