{"abi":[{"type":"function","name":"build","inputs":[{"name":"source","type":"string","internalType":"string"},{"name":"toolchainPath","type":"string","internalType":"string"},{"name":"platform","type":"string","internalType":"string"},{"name":"config","type":"bytes","internalType":"bytes"}],"outputs":[{"name":"","type":"tuple","internalType":"struct SolidityBuilder.BuildOkResult","components":[{"name":"success","type":"bool","internalType":"bool"},{"name":"build","type":"bytes32","internalType":"bytes32"},{"name":"artifactPath","type":"string","internalType":"string"},{"name":"artifactHash","type":"string","internalType":"string"}]}],"stateMutability":"nonpayable"},{"type":"function","name":"package","inputs":[{"name":"buildId","type":"bytes32","internalType":"bytes32"},{"name":"format","type":"string","internalType":"string"}],"outputs":[{"name":"","type":"tuple","internalType":"struct SolidityBuilder.PackageOkResult","components":[{"name":"success","type":"bool","internalType":"bool"},{"name":"artifactPath","type":"string","internalType":"string"},{"name":"artifactHash","type":"string","internalType":"string"}]}],"stateMutability":"nonpayable"},{"type":"function","name":"register","inputs":[],"outputs":[{"name":"","type":"tuple","internalType":"struct SolidityBuilder.RegisterOkResult","components":[{"name":"success","type":"bool","internalType":"bool"},{"name":"name","type":"string","internalType":"string"},{"name":"language","type":"string","internalType":"string"},{"name":"capabilities","type":"string[]","internalType":"string[]"}]}],"stateMutability":"pure"},{"type":"function","name":"runTests","inputs":[{"name":"buildId","type":"bytes32","internalType":"bytes32"},{"name":"toolchainPath","type":"string","internalType":"string"},{"name":"invocation","type":"bytes","internalType":"bytes"},{"name":"testType","type":"string","internalType":"string"}],"outputs":[{"name":"","type":"tuple","internalType":"struct SolidityBuilder.TestOkResult","components":[{"name":"success","type":"bool","internalType":"bool"},{"name":"passed","type":"int256","internalType":"int256"},{"name":"failed","type":"int256","internalType":"int256"},{"name":"skipped","type":"int256","internalType":"int256"},{"name":"duration","type":"int256","internalType":"int256"},{"name":"testType","type":"string","internalType":"string"}]}],"stateMutability":"nonpayable"},{"type":"event","name":"BuildCompleted","inputs":[{"name":"variant","type":"string","indexed":false,"internalType":"string"},{"name":"build","type":"bytes32","indexed":false,"internalType":"bytes32"},{"name":"errors","type":"bytes[]","indexed":false,"internalType":"bytes[]"}],"anonymous":false},{"type":"event","name":"PackageCompleted","inputs":[{"name":"variant","type":"string","indexed":false,"internalType":"string"}],"anonymous":false},{"type":"event","name":"RegisterCompleted","inputs":[{"name":"variant","type":"string","indexed":false,"internalType":"string"},{"name":"capabilities","type":"string[]","indexed":false,"internalType":"string[]"}],"anonymous":false},{"type":"event","name":"TestCompleted","inputs":[{"name":"variant","type":"string","indexed":false,"internalType":"string"},{"name":"passed","type":"int256","indexed":false,"internalType":"int256"},{"name":"failed","type":"int256","indexed":false,"internalType":"int256"},{"name":"skipped","type":"int256","indexed":false,"internalType":"int256"},{"name":"duration","type":"int256","indexed":false,"internalType":"int256"},{"name":"failures","type":"bytes[]","indexed":false,"internalType":"bytes[]"}],"anonymous":false}],"bytecode":{"object":"0x608060405234801561000f575f80fd5b50611af08061001d5f395ff3fe608060405234801561000f575f80fd5b506004361061004a575f3560e01c80631aa3a0081461004e578063c2a6a7421461006c578063ef4c84971461009c578063efb486cb146100cc575b5f80fd5b6100566100fc565b6040516100639190610b23565b60405180910390f35b61008660048036038101906100819190610d1e565b610293565b6040516100939190610e71565b60405180910390f35b6100b660048036038101906100b19190610ebb565b61055c565b6040516100c39190611011565b60405180910390f35b6100e660048036038101906100e19190611031565b61065b565b6040516100f391906110df565b60405180910390f35b6101046108ad565b5f600267ffffffffffffffff8111156101205761011f610b5c565b5b60405190808252806020026020018201604052801561015357816020015b606081526020019060019003908161013e5790505b5090506040518060400160405280600581526020017f666f726765000000000000000000000000000000000000000000000000000000815250815f8151811061019f5761019e6110ff565b5b60200260200101819052506040518060400160405280600481526020017f736f6c6300000000000000000000000000000000000000000000000000000000815250816001815181106101f4576101f36110ff565b5b602002602001018190525060405180608001604052806001151581526020016040518060400160405280601081526020017f736f6c69646974792d6275696c6465720000000000000000000000000000000081525081526020016040518060400160405280600881526020017f736f6c696469747900000000000000000000000000000000000000000000000081525081526020018281525091505090565b61029b6108d6565b5f8551116102de576040517f08c379a00000000000000000000000000000000000000000000000000000000081526004016102d590611186565b60405180910390fd5b5f845111610321576040517f08c379a0000000000000000000000000000000000000000000000000000000008152600401610318906111ee565b60405180910390fd5b5f858585424360405160200161033b95949392919061126f565b6040516020818303038152906040528051906020012090505f86604051602001610365919061130b565b60405160208183030381529060405290505f82604051602001610388919061134c565b60405160208183030381529060405290506040518061010001604052808981526020018881526020018781526020018381526020018281526020016040518060400160405280600981526020017f636f6d706c6574656400000000000000000000000000000000000000000000008152508152602001428152602001600115158152505f808581526020019081526020015f205f820151815f01908161042e9190611560565b5060208201518160010190816104449190611560565b50604082015181600201908161045a9190611560565b5060608201518160030190816104709190611560565b5060808201518160040190816104869190611560565b5060a082015181600501908161049c9190611560565b5060c0820151816006015560e0820151816007015f6101000a81548160ff021916908315150217905550905050600183908060018154018082558091505060019003905f5260205f20015f909190919091505560607f30d08aa4eb56f8d590596acab7ef5101e35e648bd03fc20c01723bbcf63a06978482604051610522929190611795565b60405180910390a1604051806080016040528060011515815260200185815260200184815260200183815250945050505050949350505050565b610564610901565b5f808681526020019081526020015f206007015f9054906101000a900460ff166105c3576040517f08c379a00000000000000000000000000000000000000000000000000000000081526004016105ba90611820565b60405180910390fd5b5f600190505f805f6101f4426105d9919061186b565b905060607ffd4468e64050d82dbb5b9e8c368d8171d787a33de2bb9b3190db053fb216441c85858585856040516106149594939291906118aa565b60405180910390a16040518060c001604052806001151581526020018681526020018581526020018481526020018381526020018881525095505050505050949350505050565b610663610934565b5f808481526020019081526020015f206007015f9054906101000a900460ff166106c2576040517f08c379a00000000000000000000000000000000000000000000000000000000081526004016106b990611820565b60405180910390fd5b5f825111610705576040517f08c379a00000000000000000000000000000000000000000000000000000000081526004016106fc9061195f565b60405180910390fd5b5f805f8581526020019081526020015f2090505f816003018460405160200161072f929190611a47565b60405160208183030381529060405290505f8585604051602001610754929190611a75565b6040516020818303038152906040528051906020012060405160200161077a919061134c565b60405160208183030381529060405290505f868660405160200161079f929190611a75565b60405160208183030381529060405280519060200120905060405180608001604052808481526020018381526020018781526020016001151581525060025f8381526020019081526020015f205f820151815f0190816107ff9190611560565b5060208201518160010190816108159190611560565b50604082015181600201908161082b9190611560565b506060820151816003015f6101000a81548160ff0219169083151502179055509050507ff66672b8159d7c7065114756e78cdbcb26b06daed53cef146c6cade1bbad4ce160405161087b90611a9c565b60405180910390a160405180606001604052806001151581526020018481526020018381525094505050505092915050565b60405180608001604052805f151581526020016060815260200160608152602001606081525090565b60405180608001604052805f151581526020015f801916815260200160608152602001606081525090565b6040518060c001604052805f151581526020015f81526020015f81526020015f81526020015f8152602001606081525090565b60405180606001604052805f1515815260200160608152602001606081525090565b5f8115159050919050565b61096a81610956565b82525050565b5f81519050919050565b5f82825260208201905092915050565b5f5b838110156109a757808201518184015260208101905061098c565b5f8484015250505050565b5f601f19601f8301169050919050565b5f6109cc82610970565b6109d6818561097a565b93506109e681856020860161098a565b6109ef816109b2565b840191505092915050565b5f81519050919050565b5f82825260208201905092915050565b5f819050602082019050919050565b5f610a2e83836109c2565b905092915050565b5f602082019050919050565b5f610a4c826109fa565b610a568185610a04565b935083602082028501610a6885610a14565b805f5b85811015610aa35784840389528151610a848582610a23565b9450610a8f83610a36565b925060208a01995050600181019050610a6b565b50829750879550505050505092915050565b5f608083015f830151610aca5f860182610961565b5060208301518482036020860152610ae282826109c2565b91505060408301518482036040860152610afc82826109c2565b91505060608301518482036060860152610b168282610a42565b9150508091505092915050565b5f6020820190508181035f830152610b3b8184610ab5565b905092915050565b5f604051905090565b5f80fd5b5f80fd5b5f80fd5b5f80fd5b7f4e487b71000000000000000000000000000000000000000000000000000000005f52604160045260245ffd5b610b92826109b2565b810181811067ffffffffffffffff82111715610bb157610bb0610b5c565b5b80604052505050565b5f610bc3610b43565b9050610bcf8282610b89565b919050565b5f67ffffffffffffffff821115610bee57610bed610b5c565b5b610bf7826109b2565b9050602081019050919050565b828183375f83830152505050565b5f610c24610c1f84610bd4565b610bba565b905082815260208101848484011115610c4057610c3f610b58565b5b610c4b848285610c04565b509392505050565b5f82601f830112610c6757610c66610b54565b5b8135610c77848260208601610c12565b91505092915050565b5f67ffffffffffffffff821115610c9a57610c99610b5c565b5b610ca3826109b2565b9050602081019050919050565b5f610cc2610cbd84610c80565b610bba565b905082815260208101848484011115610cde57610cdd610b58565b5b610ce9848285610c04565b509392505050565b5f82601f830112610d0557610d04610b54565b5b8135610d15848260208601610cb0565b91505092915050565b5f805f8060808587031215610d3657610d35610b4c565b5b5f85013567ffffffffffffffff811115610d5357610d52610b50565b5b610d5f87828801610c53565b945050602085013567ffffffffffffffff811115610d8057610d7f610b50565b5b610d8c87828801610c53565b935050604085013567ffffffffffffffff811115610dad57610dac610b50565b5b610db987828801610c53565b925050606085013567ffffffffffffffff811115610dda57610dd9610b50565b5b610de687828801610cf1565b91505092959194509250565b5f819050919050565b610e0481610df2565b82525050565b5f608083015f830151610e1f5f860182610961565b506020830151610e326020860182610dfb565b5060408301518482036040860152610e4a82826109c2565b91505060608301518482036060860152610e6482826109c2565b9150508091505092915050565b5f6020820190508181035f830152610e898184610e0a565b905092915050565b610e9a81610df2565b8114610ea4575f80fd5b50565b5f81359050610eb581610e91565b92915050565b5f805f8060808587031215610ed357610ed2610b4c565b5b5f610ee087828801610ea7565b945050602085013567ffffffffffffffff811115610f0157610f00610b50565b5b610f0d87828801610c53565b935050604085013567ffffffffffffffff811115610f2e57610f2d610b50565b5b610f3a87828801610cf1565b925050606085013567ffffffffffffffff811115610f5b57610f5a610b50565b5b610f6787828801610c53565b91505092959194509250565b5f819050919050565b610f8581610f73565b82525050565b5f60c083015f830151610fa05f860182610961565b506020830151610fb36020860182610f7c565b506040830151610fc66040860182610f7c565b506060830151610fd96060860182610f7c565b506080830151610fec6080860182610f7c565b5060a083015184820360a086015261100482826109c2565b9150508091505092915050565b5f6020820190508181035f8301526110298184610f8b565b905092915050565b5f806040838503121561104757611046610b4c565b5b5f61105485828601610ea7565b925050602083013567ffffffffffffffff81111561107557611074610b50565b5b61108185828601610c53565b9150509250929050565b5f606083015f8301516110a05f860182610961565b50602083015184820360208601526110b882826109c2565b915050604083015184820360408601526110d282826109c2565b9150508091505092915050565b5f6020820190508181035f8301526110f7818461108b565b905092915050565b7f4e487b71000000000000000000000000000000000000000000000000000000005f52603260045260245ffd5b5f82825260208201905092915050565b7f536f75726365206d757374206e6f7420626520656d70747900000000000000005f82015250565b5f61117060188361112c565b915061117b8261113c565b602082019050919050565b5f6020820190508181035f83015261119d81611164565b9050919050565b7f546f6f6c636861696e2070617468206d757374206e6f7420626520656d7074795f82015250565b5f6111d860208361112c565b91506111e3826111a4565b602082019050919050565b5f6020820190508181035f830152611205816111cc565b9050919050565b5f81905092915050565b5f61122082610970565b61122a818561120c565b935061123a81856020860161098a565b80840191505092915050565b5f819050919050565b5f819050919050565b61126961126482611246565b61124f565b82525050565b5f61127a8288611216565b91506112868287611216565b91506112928286611216565b915061129e8285611258565b6020820191506112ae8284611258565b6020820191508190509695505050505050565b7f2f6f7574000000000000000000000000000000000000000000000000000000005f82015250565b5f6112f560048361120c565b9150611300826112c1565b600482019050919050565b5f6113168284611216565b9150611321826112e9565b915081905092915050565b5f819050919050565b61134661134182610df2565b61132c565b82525050565b5f6113578284611335565b60208201915081905092915050565b7f4e487b71000000000000000000000000000000000000000000000000000000005f52602260045260245ffd5b5f60028204905060018216806113aa57607f821691505b6020821081036113bd576113bc611366565b5b50919050565b5f819050815f5260205f209050919050565b5f6020601f8301049050919050565b5f82821b905092915050565b5f6008830261141f7fffffffffffffffffffffffffffffffffffffffffffffffffffffffffffffffff826113e4565b61142986836113e4565b95508019841693508086168417925050509392505050565b5f819050919050565b5f61146461145f61145a84611246565b611441565b611246565b9050919050565b5f819050919050565b61147d8361144a565b6114916114898261146b565b8484546113f0565b825550505050565b5f90565b6114a5611499565b6114b0818484611474565b505050565b5b818110156114d3576114c85f8261149d565b6001810190506114b6565b5050565b601f821115611518576114e9816113c3565b6114f2846113d5565b81016020851015611501578190505b61151561150d856113d5565b8301826114b5565b50505b505050565b5f82821c905092915050565b5f6115385f198460080261151d565b1980831691505092915050565b5f6115508383611529565b9150826002028217905092915050565b61156982610970565b67ffffffffffffffff81111561158257611581610b5c565b5b61158c8254611393565b6115978282856114d7565b5f60209050601f8311600181146115c8575f84156115b6578287015190505b6115c08582611545565b865550611627565b601f1984166115d6866113c3565b5f5b828110156115fd578489015182556001820191506020850194506020810190506115d8565b8683101561161a5784890151611616601f891682611529565b8355505b6001600288020188555050505b505050505050565b7f6f6b0000000000000000000000000000000000000000000000000000000000005f82015250565b5f61166360028361112c565b915061166e8261162f565b602082019050919050565b61168281610df2565b82525050565b5f81519050919050565b5f82825260208201905092915050565b5f819050602082019050919050565b5f81519050919050565b5f82825260208201905092915050565b5f6116d5826116b1565b6116df81856116bb565b93506116ef81856020860161098a565b6116f8816109b2565b840191505092915050565b5f61170e83836116cb565b905092915050565b5f602082019050919050565b5f61172c82611688565b6117368185611692565b935083602082028501611748856116a2565b805f5b8581101561178357848403895281516117648582611703565b945061176f83611716565b925060208a0199505060018101905061174b565b50829750879550505050505092915050565b5f6060820190508181035f8301526117ac81611657565b90506117bb6020830185611679565b81810360408301526117cd8184611722565b90509392505050565b7f4275696c64206e6f7420666f756e6400000000000000000000000000000000005f82015250565b5f61180a600f8361112c565b9150611815826117d6565b602082019050919050565b5f6020820190508181035f830152611837816117fe565b9050919050565b7f4e487b71000000000000000000000000000000000000000000000000000000005f52601260045260245ffd5b5f61187582611246565b915061188083611246565b9250826118905761188f61183e565b5b828206905092915050565b6118a481610f73565b82525050565b5f60c0820190508181035f8301526118c181611657565b90506118d0602083018861189b565b6118dd604083018761189b565b6118ea606083018661189b565b6118f7608083018561189b565b81810360a08301526119098184611722565b90509695505050505050565b7f466f726d6174206d757374206e6f7420626520656d70747900000000000000005f82015250565b5f61194960188361112c565b915061195482611915565b602082019050919050565b5f6020820190508181035f8301526119768161193d565b9050919050565b5f815461198981611393565b611993818661120c565b9450600182165f81146119ad57600181146119c2576119f4565b60ff19831686528115158202860193506119f4565b6119cb856113c3565b5f5b838110156119ec578154818901526001820191506020810190506119cd565b838801955050505b50505092915050565b7f2e000000000000000000000000000000000000000000000000000000000000005f82015250565b5f611a3160018361120c565b9150611a3c826119fd565b600182019050919050565b5f611a52828561197d565b9150611a5d82611a25565b9150611a698284611216565b91508190509392505050565b5f611a808285611335565b602082019150611a908284611216565b91508190509392505050565b5f6020820190508181035f830152611ab381611657565b905091905056fea264697066735822122055e6900e0416abae62c7c7c664da0373fdfd93f04667d3e049e9af3180474b7f64736f6c63430008140033","linkReferences":{}},"methodIdentifiers":{"build(string,string,string,bytes)":"c2a6a742","package(bytes32,string)":"efb486cb","register()":"1aa3a008","runTests(bytes32,string,bytes,string)":"ef4c8497"},"id":23}