{"abi":[{"type":"function","name":"addNode","inputs":[{"name":"nodeId","type":"bytes32","internalType":"bytes32"},{"name":"nodeType","type":"string","internalType":"string"},{"name":"posX","type":"int256","internalType":"int256"},{"name":"posY","type":"int256","internalType":"int256"},{"name":"content","type":"string","internalType":"string"}],"outputs":[],"stateMutability":"nonpayable"},{"type":"function","name":"connectNodes","inputs":[{"name":"edgeId","type":"bytes32","internalType":"bytes32"},{"name":"fromId","type":"bytes32","internalType":"bytes32"},{"name":"toId","type":"bytes32","internalType":"bytes32"},{"name":"label","type":"string","internalType":"string"}],"outputs":[],"stateMutability":"nonpayable"},{"type":"function","name":"getEdge","inputs":[{"name":"edgeId","type":"bytes32","internalType":"bytes32"}],"outputs":[{"name":"","type":"tuple","internalType":"struct Canvas.CanvasEdge","components":[{"name":"fromNode","type":"bytes32","internalType":"bytes32"},{"name":"toNode","type":"bytes32","internalType":"bytes32"},{"name":"label","type":"string","internalType":"string"},{"name":"exists","type":"bool","internalType":"bool"}]}],"stateMutability":"view"},{"type":"function","name":"getNode","inputs":[{"name":"nodeId","type":"bytes32","internalType":"bytes32"}],"outputs":[{"name":"","type":"tuple","internalType":"struct Canvas.CanvasNode","components":[{"name":"nodeType","type":"string","internalType":"string"},{"name":"posX","type":"int256","internalType":"int256"},{"name":"posY","type":"int256","internalType":"int256"},{"name":"width","type":"uint256","internalType":"uint256"},{"name":"height","type":"uint256","internalType":"uint256"},{"name":"content","type":"string","internalType":"string"},{"name":"exists","type":"bool","internalType":"bool"}]}],"stateMutability":"view"},{"type":"function","name":"moveNode","inputs":[{"name":"nodeId","type":"bytes32","internalType":"bytes32"},{"name":"newX","type":"int256","internalType":"int256"},{"name":"newY","type":"int256","internalType":"int256"}],"outputs":[],"stateMutability":"nonpayable"},{"type":"event","name":"NodeAdded","inputs":[{"name":"nodeId","type":"bytes32","indexed":true,"internalType":"bytes32"}],"anonymous":false},{"type":"event","name":"NodeMoved","inputs":[{"name":"nodeId","type":"bytes32","indexed":true,"internalType":"bytes32"}],"anonymous":false},{"type":"event","name":"NodesConnected","inputs":[{"name":"edgeId","type":"bytes32","indexed":true,"internalType":"bytes32"},{"name":"fromNode","type":"bytes32","indexed":true,"internalType":"bytes32"},{"name":"toNode","type":"bytes32","indexed":true,"internalType":"bytes32"}],"anonymous":false}],"bytecode":{"object":"0x608060405234801561000f575f80fd5b506113eb8061001d5f395ff3fe608060405234801561000f575f80fd5b5060043610610055575f3560e01c80631becb6e91461005957806328ef66fc1461007557806350c946fe14610091578063c73482f0146100c1578063fda2892e146100dd575b5f80fd5b610073600480360381019061006e9190610a3c565b61010d565b005b61008f600480360381019061008a9190610af3565b61034a565b005b6100ab60048036038101906100a69190610b43565b61040b565b6040516100b89190610cd9565b60405180910390f35b6100db60048036038101906100d69190610cf9565b6105f5565b005b6100f760048036038101906100f29190610b43565b6107f1565b6040516101049190610e1f565b60405180910390f35b60015f8681526020019081526020015f206003015f9054906101000a900460ff161561016e576040517f08c379a000000000000000000000000000000000000000000000000000000000815260040161016590610e99565b60405180910390fd5b5f808581526020019081526020015f206006015f9054906101000a900460ff166101cd576040517f08c379a00000000000000000000000000000000000000000000000000000000081526004016101c490610f01565b60405180910390fd5b5f808481526020019081526020015f206006015f9054906101000a900460ff1661022c576040517f08c379a000000000000000000000000000000000000000000000000000000000815260040161022390610f69565b60405180910390fd5b604051806080016040528085815260200184815260200183838080601f0160208091040260200160405190810160405280939291908181526020018383808284375f81840152601f19601f8201169050808301925050505050505081526020016001151581525060015f8781526020019081526020015f205f820151815f01556020820151816001015560408201518160020190816102cb91906111ae565b506060820151816003015f6101000a81548160ff021916908315150217905550905050600385908060018154018082558091505060019003905f5260205f20015f90919091909150558284867f315d0a25df6d72b4efca9a570686602e4c4321e7a465fe93ca99834d416cc68860405160405180910390a45050505050565b5f808481526020019081526020015f206006015f9054906101000a900460ff166103a9576040517f08c379a00000000000000000000000000000000000000000000000000000000081526004016103a0906112c7565b60405180910390fd5b815f808581526020019081526020015f2060010181905550805f808581526020019081526020015f2060020181905550827faa9cf98da413913f966c879cd3c68081271bb1f85f9ddbc9cbbcec66723aebe960405160405180910390a2505050565b610413610939565b5f808381526020019081526020015f206006015f9054906101000a900460ff16610472576040517f08c379a0000000000000000000000000000000000000000000000000000000008152600401610469906112c7565b60405180910390fd5b5f808381526020019081526020015f206040518060e00160405290815f8201805461049c90610fe1565b80601f01602080910402602001604051908101604052809291908181526020018280546104c890610fe1565b80156105135780601f106104ea57610100808354040283529160200191610513565b820191905f5260205f20905b8154815290600101906020018083116104f657829003601f168201915b505050505081526020016001820154815260200160028201548152602001600382015481526020016004820154815260200160058201805461055490610fe1565b80601f016020809104026020016040519081016040528092919081815260200182805461058090610fe1565b80156105cb5780601f106105a2576101008083540402835291602001916105cb565b820191905f5260205f20905b8154815290600101906020018083116105ae57829003601f168201915b50505050508152602001600682015f9054906101000a900460ff1615151515815250509050919050565b5f808881526020019081526020015f206006015f9054906101000a900460ff1615610655576040517f08c379a000000000000000000000000000000000000000000000000000000000815260040161064c9061132f565b60405180910390fd5b6040518060e0016040528087878080601f0160208091040260200160405190810160405280939291908181526020018383808284375f81840152601f19601f8201169050808301925050505050505081526020018581526020018481526020015f81526020015f815260200183838080601f0160208091040260200160405190810160405280939291908181526020018383808284375f81840152601f19601f820116905080830192505050505050508152602001600115158152505f808981526020019081526020015f205f820151815f01908161073491906111ae565b506020820151816001015560408201518160020155606082015181600301556080820151816004015560a082015181600501908161077291906111ae565b5060c0820151816006015f6101000a81548160ff021916908315150217905550905050600287908060018154018082558091505060019003905f5260205f20015f9091909190915055867f9789a7ebab1e3d4a74f1c22b0ae2a212125ac931a6227e44d5a5a7aaf30dda7560405160405180910390a250505050505050565b6107f9610973565b60015f8381526020019081526020015f206003015f9054906101000a900460ff16610859576040517f08c379a000000000000000000000000000000000000000000000000000000000815260040161085090611397565b60405180910390fd5b60015f8381526020019081526020015f206040518060800160405290815f82015481526020016001820154815260200160028201805461089890610fe1565b80601f01602080910402602001604051908101604052809291908181526020018280546108c490610fe1565b801561090f5780601f106108e65761010080835404028352916020019161090f565b820191905f5260205f20905b8154815290600101906020018083116108f257829003601f168201915b50505050508152602001600382015f9054906101000a900460ff1615151515815250509050919050565b6040518060e00160405280606081526020015f81526020015f81526020015f81526020015f8152602001606081526020015f151581525090565b60405180608001604052805f80191681526020015f8019168152602001606081526020015f151581525090565b5f80fd5b5f80fd5b5f819050919050565b6109ba816109a8565b81146109c4575f80fd5b50565b5f813590506109d5816109b1565b92915050565b5f80fd5b5f80fd5b5f80fd5b5f8083601f8401126109fc576109fb6109db565b5b8235905067ffffffffffffffff811115610a1957610a186109df565b5b602083019150836001820283011115610a3557610a346109e3565b5b9250929050565b5f805f805f60808688031215610a5557610a546109a0565b5b5f610a62888289016109c7565b9550506020610a73888289016109c7565b9450506040610a84888289016109c7565b935050606086013567ffffffffffffffff811115610aa557610aa46109a4565b5b610ab1888289016109e7565b92509250509295509295909350565b5f819050919050565b610ad281610ac0565b8114610adc575f80fd5b50565b5f81359050610aed81610ac9565b92915050565b5f805f60608486031215610b0a57610b096109a0565b5b5f610b17868287016109c7565b9350506020610b2886828701610adf565b9250506040610b3986828701610adf565b9150509250925092565b5f60208284031215610b5857610b576109a0565b5b5f610b65848285016109c7565b91505092915050565b5f81519050919050565b5f82825260208201905092915050565b5f5b83811015610ba5578082015181840152602081019050610b8a565b5f8484015250505050565b5f601f19601f8301169050919050565b5f610bca82610b6e565b610bd48185610b78565b9350610be4818560208601610b88565b610bed81610bb0565b840191505092915050565b610c0181610ac0565b82525050565b5f819050919050565b610c1981610c07565b82525050565b5f8115159050919050565b610c3381610c1f565b82525050565b5f60e083015f8301518482035f860152610c538282610bc0565b9150506020830151610c686020860182610bf8565b506040830151610c7b6040860182610bf8565b506060830151610c8e6060860182610c10565b506080830151610ca16080860182610c10565b5060a083015184820360a0860152610cb98282610bc0565b91505060c0830151610cce60c0860182610c2a565b508091505092915050565b5f6020820190508181035f830152610cf18184610c39565b905092915050565b5f805f805f805f60a0888a031215610d1457610d136109a0565b5b5f610d218a828b016109c7565b975050602088013567ffffffffffffffff811115610d4257610d416109a4565b5b610d4e8a828b016109e7565b96509650506040610d618a828b01610adf565b9450506060610d728a828b01610adf565b935050608088013567ffffffffffffffff811115610d9357610d926109a4565b5b610d9f8a828b016109e7565b925092505092959891949750929550565b610db9816109a8565b82525050565b5f608083015f830151610dd45f860182610db0565b506020830151610de76020860182610db0565b5060408301518482036040860152610dff8282610bc0565b9150506060830151610e146060860182610c2a565b508091505092915050565b5f6020820190508181035f830152610e378184610dbf565b905092915050565b5f82825260208201905092915050565b7f4564676520616c726561647920657869737473000000000000000000000000005f82015250565b5f610e83601383610e3f565b9150610e8e82610e4f565b602082019050919050565b5f6020820190508181035f830152610eb081610e77565b9050919050565b7f536f75726365206e6f646520646f6573206e6f742065786973740000000000005f82015250565b5f610eeb601a83610e3f565b9150610ef682610eb7565b602082019050919050565b5f6020820190508181035f830152610f1881610edf565b9050919050565b7f546172676574206e6f646520646f6573206e6f742065786973740000000000005f82015250565b5f610f53601a83610e3f565b9150610f5e82610f1f565b602082019050919050565b5f6020820190508181035f830152610f8081610f47565b9050919050565b7f4e487b71000000000000000000000000000000000000000000000000000000005f52604160045260245ffd5b7f4e487b71000000000000000000000000000000000000000000000000000000005f52602260045260245ffd5b5f6002820490506001821680610ff857607f821691505b60208210810361100b5761100a610fb4565b5b50919050565b5f819050815f5260205f209050919050565b5f6020601f8301049050919050565b5f82821b905092915050565b5f6008830261106d7fffffffffffffffffffffffffffffffffffffffffffffffffffffffffffffffff82611032565b6110778683611032565b95508019841693508086168417925050509392505050565b5f819050919050565b5f6110b26110ad6110a884610c07565b61108f565b610c07565b9050919050565b5f819050919050565b6110cb83611098565b6110df6110d7826110b9565b84845461103e565b825550505050565b5f90565b6110f36110e7565b6110fe8184846110c2565b505050565b5b81811015611121576111165f826110eb565b600181019050611104565b5050565b601f8211156111665761113781611011565b61114084611023565b8101602085101561114f578190505b61116361115b85611023565b830182611103565b50505b505050565b5f82821c905092915050565b5f6111865f198460080261116b565b1980831691505092915050565b5f61119e8383611177565b9150826002028217905092915050565b6111b782610b6e565b67ffffffffffffffff8111156111d0576111cf610f87565b5b6111da8254610fe1565b6111e5828285611125565b5f60209050601f831160018114611216575f8415611204578287015190505b61120e8582611193565b865550611275565b601f19841661122486611011565b5f5b8281101561124b57848901518255600182019150602085019450602081019050611226565b868310156112685784890151611264601f891682611177565b8355505b6001600288020188555050505b505050505050565b7f4e6f646520646f6573206e6f74206578697374000000000000000000000000005f82015250565b5f6112b1601383610e3f565b91506112bc8261127d565b602082019050919050565b5f6020820190508181035f8301526112de816112a5565b9050919050565b7f4e6f646520616c726561647920657869737473000000000000000000000000005f82015250565b5f611319601383610e3f565b9150611324826112e5565b602082019050919050565b5f6020820190508181035f8301526113468161130d565b9050919050565b7f4564676520646f6573206e6f74206578697374000000000000000000000000005f82015250565b5f611381601383610e3f565b915061138c8261134d565b602082019050919050565b5f6020820190508181035f8301526113ae81611375565b905091905056fea2646970667358221220007576b64fa8ad95e3d76c21b9099876c783d423dd141d8d7ad53c4806d01b8264736f6c63430008140033","linkReferences":{}},"methodIdentifiers":{"addNode(bytes32,string,int256,int256,string)":"c73482f0","connectNodes(bytes32,bytes32,bytes32,string)":"1becb6e9","getEdge(bytes32)":"fda2892e","getNode(bytes32)":"50c946fe","moveNode(bytes32,int256,int256)":"28ef66fc"},"id":48}