{"abi":[{"type":"function","name":"attemptResolve","inputs":[{"name":"base","type":"bytes","internalType":"bytes"},{"name":"v1","type":"bytes","internalType":"bytes"},{"name":"v2","type":"bytes","internalType":"bytes"},{"name":"context","type":"bytes","internalType":"bytes"}],"outputs":[{"name":"resolved","type":"bool","internalType":"bool"},{"name":"result","type":"bytes","internalType":"bytes"}],"stateMutability":"pure"},{"type":"function","name":"register","inputs":[],"outputs":[{"name":"name","type":"string","internalType":"string"},{"name":"category","type":"string","internalType":"string"},{"name":"priority","type":"uint256","internalType":"uint256"}],"stateMutability":"pure"},{"type":"event","name":"Registered","inputs":[{"name":"name","type":"string","indexed":false,"internalType":"string"},{"name":"category","type":"string","indexed":false,"internalType":"string"},{"name":"priority","type":"uint256","indexed":false,"internalType":"uint256"}],"anonymous":false},{"type":"event","name":"Resolved","inputs":[{"name":"result","type":"bytes","indexed":false,"internalType":"bytes"}],"anonymous":false}],"bytecode":{"object":"0x608060405234801561000f575f80fd5b506106c98061001d5f395ff3fe608060405234801561000f575f80fd5b5060043610610034575f3560e01c80631aa3a00814610038578063418f6d7814610058575b5f80fd5b610040610089565b60405161004f939291906102b4565b60405180910390f35b610072600480360381019061006d9190610369565b610108565b6040516100809291906104b9565b60405180910390f35b6060805f600a6040518060400160405280600381526020017f6c77770000000000000000000000000000000000000000000000000000000000815250906040518060400160405280601381526020017f636f6e666c6963742d7265736f6c7574696f6e0000000000000000000000000081525090925092509250909192565b5f60605f888881019061011b9190610639565b5090505f878781019061012e9190610639565b509050808203610153575f60405180602001604052805f815250935093505050610205565b808211156101b25760018a8a81818080601f0160208091040260200160405190810160405280939291908181526020018383808284375f81840152601f19601f8201169050808301925050505050505090509050935093505050610205565b6001888881818080601f0160208091040260200160405190810160405280939291908181526020018383808284375f81840152601f19601f82011690508083019250505050505050905090509350935050505b9850989650505050505050565b5f81519050919050565b5f82825260208201905092915050565b5f5b8381101561024957808201518184015260208101905061022e565b5f8484015250505050565b5f601f19601f8301169050919050565b5f61026e82610212565b610278818561021c565b935061028881856020860161022c565b61029181610254565b840191505092915050565b5f819050919050565b6102ae8161029c565b82525050565b5f6060820190508181035f8301526102cc8186610264565b905081810360208301526102e08185610264565b90506102ef60408301846102a5565b949350505050565b5f604051905090565b5f80fd5b5f80fd5b5f80fd5b5f80fd5b5f80fd5b5f8083601f84011261032957610328610308565b5b8235905067ffffffffffffffff8111156103465761034561030c565b5b60208301915083600182028301111561036257610361610310565b5b9250929050565b5f805f805f805f806080898b03121561038557610384610300565b5b5f89013567ffffffffffffffff8111156103a2576103a1610304565b5b6103ae8b828c01610314565b9850985050602089013567ffffffffffffffff8111156103d1576103d0610304565b5b6103dd8b828c01610314565b9650965050604089013567ffffffffffffffff811115610400576103ff610304565b5b61040c8b828c01610314565b9450945050606089013567ffffffffffffffff81111561042f5761042e610304565b5b61043b8b828c01610314565b92509250509295985092959890939650565b5f8115159050919050565b6104618161044d565b82525050565b5f81519050919050565b5f82825260208201905092915050565b5f61048b82610467565b6104958185610471565b93506104a581856020860161022c565b6104ae81610254565b840191505092915050565b5f6040820190506104cc5f830185610458565b81810360208301526104de8184610481565b90509392505050565b6104f08161029c565b81146104fa575f80fd5b50565b5f8135905061050b816104e7565b92915050565b5f80fd5b7f4e487b71000000000000000000000000000000000000000000000000000000005f52604160045260245ffd5b61054b82610254565b810181811067ffffffffffffffff8211171561056a57610569610515565b5b80604052505050565b5f61057c6102f7565b90506105888282610542565b919050565b5f67ffffffffffffffff8211156105a7576105a6610515565b5b6105b082610254565b9050602081019050919050565b828183375f83830152505050565b5f6105dd6105d88461058d565b610573565b9050828152602081018484840111156105f9576105f8610511565b5b6106048482856105bd565b509392505050565b5f82601f8301126106205761061f610308565b5b81356106308482602086016105cb565b91505092915050565b5f806040838503121561064f5761064e610300565b5b5f61065c858286016104fd565b925050602083013567ffffffffffffffff81111561067d5761067c610304565b5b6106898582860161060c565b915050925092905056fea2646970667358221220f8a8b40830ada75cf50b15ee9b05da8a06aba0b238d5238c77ce3886dd6a91ef64736f6c63430008140033","linkReferences":{}},"methodIdentifiers":{"attemptResolve(bytes,bytes,bytes,bytes)":"418f6d78","register()":"1aa3a008"},"id":159}