{"abi":[{"type":"function","name":"deploy","inputs":[{"name":"fnId","type":"bytes32","internalType":"bytes32"},{"name":"sourceArchive","type":"string","internalType":"string"}],"outputs":[{"name":"","type":"tuple","internalType":"struct GcfRuntime.DeployOkResult","components":[{"name":"success","type":"bool","internalType":"bool"},{"name":"fnId","type":"bytes32","internalType":"bytes32"},{"name":"version","type":"string","internalType":"string"}]}],"stateMutability":"nonpayable"},{"type":"function","name":"destroy","inputs":[{"name":"fnId","type":"bytes32","internalType":"bytes32"}],"outputs":[{"name":"","type":"tuple","internalType":"struct GcfRuntime.DestroyOkResult","components":[{"name":"success","type":"bool","internalType":"bool"},{"name":"fnId","type":"bytes32","internalType":"bytes32"}]}],"stateMutability":"nonpayable"},{"type":"function","name":"provision","inputs":[{"name":"concept","type":"string","internalType":"string"},{"name":"projectId","type":"string","internalType":"string"},{"name":"region","type":"string","internalType":"string"},{"name":"runtime","type":"string","internalType":"string"},{"name":"triggerType","type":"string","internalType":"string"}],"outputs":[{"name":"","type":"tuple","internalType":"struct GcfRuntime.ProvisionOkResult","components":[{"name":"success","type":"bool","internalType":"bool"},{"name":"fnId","type":"bytes32","internalType":"bytes32"},{"name":"endpoint","type":"string","internalType":"string"}]}],"stateMutability":"nonpayable"},{"type":"function","name":"register","inputs":[],"outputs":[{"name":"name","type":"string","internalType":"string"},{"name":"category","type":"string","internalType":"string"},{"name":"capabilities","type":"string[]","internalType":"string[]"}],"stateMutability":"pure"},{"type":"function","name":"rollback","inputs":[{"name":"fnId","type":"bytes32","internalType":"bytes32"},{"name":"targetVersion","type":"string","internalType":"string"}],"outputs":[{"name":"","type":"tuple","internalType":"struct GcfRuntime.RollbackOkResult","components":[{"name":"success","type":"bool","internalType":"bool"},{"name":"fnId","type":"bytes32","internalType":"bytes32"},{"name":"restoredVersion","type":"string","internalType":"string"}]}],"stateMutability":"nonpayable"},{"type":"function","name":"setTrafficWeight","inputs":[{"name":"fnId","type":"bytes32","internalType":"bytes32"},{"name":"weight","type":"int256","internalType":"int256"}],"outputs":[{"name":"","type":"tuple","internalType":"struct GcfRuntime.SetTrafficWeightOkResult","components":[{"name":"success","type":"bool","internalType":"bool"},{"name":"fnId","type":"bytes32","internalType":"bytes32"}]}],"stateMutability":"nonpayable"},{"type":"event","name":"DeployCompleted","inputs":[{"name":"variant","type":"string","indexed":false,"internalType":"string"},{"name":"fnId","type":"bytes32","indexed":false,"internalType":"bytes32"},{"name":"errors","type":"string[]","indexed":false,"internalType":"string[]"}],"anonymous":false},{"type":"event","name":"DestroyCompleted","inputs":[{"name":"variant","type":"string","indexed":false,"internalType":"string"},{"name":"fnId","type":"bytes32","indexed":false,"internalType":"bytes32"}],"anonymous":false},{"type":"event","name":"ProvisionCompleted","inputs":[{"name":"variant","type":"string","indexed":false,"internalType":"string"},{"name":"fnId","type":"bytes32","indexed":false,"internalType":"bytes32"}],"anonymous":false},{"type":"event","name":"RollbackCompleted","inputs":[{"name":"variant","type":"string","indexed":false,"internalType":"string"},{"name":"fnId","type":"bytes32","indexed":false,"internalType":"bytes32"}],"anonymous":false},{"type":"event","name":"SetTrafficWeightCompleted","inputs":[{"name":"variant","type":"string","indexed":false,"internalType":"string"},{"name":"fnId","type":"bytes32","indexed":false,"internalType":"bytes32"}],"anonymous":false}],"bytecode":{"object":"0x608060405234801561000f575f80fd5b506121dc8061001d5f395ff3fe608060405234801561000f575f80fd5b5060043610610060575f3560e01c80631aa3a008146100645780633fd55a92146100845780636e0bd282146100b45780637855131d146100e45780638388d22914610114578063c416a8cf14610144575b5f80fd5b61006c610174565b60405161007b93929190610fc4565b60405180910390f35b61009e6004803603810190610099919061114b565b6103e7565b6040516100ab91906112cd565b60405180910390f35b6100ce60048036038101906100c99190611317565b610611565b6040516100db919061136f565b60405180910390f35b6100fe60048036038101906100f99190611388565b61073f565b60405161010b919061142f565b60405180910390f35b61012e60048036038101906101299190611482565b610863565b60405161013b91906114ed565b60405180910390f35b61015e60048036038101906101599190611388565b610985565b60405161016b9190611553565b60405180910390f35b60608060606040518060400160405280600381526020017f676366000000000000000000000000000000000000000000000000000000000081525092506040518060400160405280600781526020017f72756e74696d65000000000000000000000000000000000000000000000000008152509150600567ffffffffffffffff81111561020457610203611027565b5b60405190808252806020026020018201604052801561023757816020015b60608152602001906001900390816102225790505b5090506040518060400160405280600981526020017f70726f766973696f6e0000000000000000000000000000000000000000000000815250815f8151811061028357610282611573565b5b60200260200101819052506040518060400160405280600681526020017f6465706c6f790000000000000000000000000000000000000000000000000000815250816001815181106102d8576102d7611573565b5b60200260200101819052506040518060400160405280601081526020017f73657454726166666963576569676874000000000000000000000000000000008152508160028151811061032d5761032c611573565b5b60200260200101819052506040518060400160405280600881526020017f726f6c6c6261636b0000000000000000000000000000000000000000000000008152508160038151811061038257610381611573565b5b60200260200101819052506040518060400160405280600781526020017f64657374726f7900000000000000000000000000000000000000000000000000815250816004815181106103d7576103d6611573565b5b6020026020010181905250909192565b6103ef610cfc565b5f865111610432576040517f08c379a0000000000000000000000000000000000000000000000000000000008152600401610429906115ea565b60405180910390fd5b5f855111610475576040517f08c379a000000000000000000000000000000000000000000000000000000000815260040161046c90611652565b60405180910390fd5b5f86868660405160200161048b939291906116aa565b6040516020818303038152906040528051906020012090508686868686426040516020016104be969594939291906116f2565b6040516020818303038152906040525f808381526020019081526020015f2090816104e99190611978565b5060015f8281526020019081526020015f205f9054906101000a900460ff16610588576001805f8381526020019081526020015f205f6101000a81548160ff021916908315150217905550600281908060018154018082558091505060019003905f5260205f20015f90919091909150555f60055f8381526020019081526020015f2081905550606460045f8381526020019081526020015f20819055505b5f85878960405160200161059e93929190611b25565b60405160208183030381529060405290507fe7ba298fd4b65faaecaa247132b454d0c8aac6d7bffe755ede2830a2108f8318826040516105de9190611bcf565b60405180910390a16040518060600160405280600115158152602001838152602001828152509250505095945050505050565b610619610d20565b60015f8381526020019081526020015f205f9054906101000a900460ff16610676576040517f08c379a000000000000000000000000000000000000000000000000000000000815260040161066d90611c45565b60405180910390fd5b5f60015f8481526020019081526020015f205f6101000a81548160ff0219169083151502179055505f808381526020019081526020015f205f6106b99190610d3d565b60035f8381526020019081526020015f205f6106d59190610d7a565b60045f8381526020019081526020015f205f90557f5f91d6f5b071e1c01422208aefdc94722551cb418c8c493cbd4fa563938bc5d0826040516107189190611bcf565b60405180910390a16040518060400160405280600115158152602001838152509050919050565b610747610db7565b60015f8481526020019081526020015f205f9054906101000a900460ff166107a4576040517f08c379a000000000000000000000000000000000000000000000000000000000815260040161079b90611c45565b60405180910390fd5b5f8251116107e7576040517f08c379a00000000000000000000000000000000000000000000000000000000081526004016107de90611cad565b60405180910390fd5b8160035f8581526020019081526020015f2090816108059190611d23565b507fd7216dc6f75dc5ba9c492a95dab64aa01aaf14ccb27b9a38cc0ea55b5980b34f836040516108359190611bcf565b60405180910390a1604051806060016040528060011515815260200184815260200183815250905092915050565b61086b610ddb565b60015f8481526020019081526020015f205f9054906101000a900460ff166108c8576040517f08c379a00000000000000000000000000000000000000000000000000000000081526004016108bf90611c45565b60405180910390fd5b5f82121580156108d9575060648213155b610918576040517f08c379a000000000000000000000000000000000000000000000000000000000815260040161090f90611e3c565b60405180910390fd5b8160045f8581526020019081526020015f20819055507fe3818c8f29f23fa7dae9a0884fe04d7bb4770020f95d48f6e3d93dc214eef7328360405161095d9190611bcf565b60405180910390a1604051806040016040528060011515815260200184815250905092915050565b61098d610df8565b60015f8481526020019081526020015f205f9054906101000a900460ff166109ea576040517f08c379a00000000000000000000000000000000000000000000000000000000081526004016109e190611eca565b60405180910390fd5b5f825111610a2d576040517f08c379a0000000000000000000000000000000000000000000000000000000008152600401610a2490611f32565b60405180910390fd5b600160055f8581526020019081526020015f205f828254610a4e9190611f7d565b925050819055505f610a7060055f8681526020019081526020015f2054610ba3565b604051602001610a809190611ffa565b60405160208183030381529060405290508060035f8681526020019081526020015f209081610aaf9190611d23565b50828142604051602001610ac59392919061201b565b6040516020818303038152906040525f808681526020019081526020015f209081610af09190611978565b505f8067ffffffffffffffff811115610b0c57610b0b611027565b5b604051908082528060200260200182016040528015610b3f57816020015b6060815260200190600190039081610b2a5790505b5090507f70e310fe0166551291d699e055f658113c805731994f69e39ad489a3328834278582604051610b7392919061205e565b60405180910390a16040518060600160405280600115158152602001868152602001838152509250505092915050565b60605f8203610be9576040518060400160405280600181526020017f30000000000000000000000000000000000000000000000000000000000000008152509050610cf7565b5f8290505f5b5f8214610c18578080610c019061209f565b915050600a82610c119190612113565b9150610bef565b5f8167ffffffffffffffff811115610c3357610c32611027565b5b6040519080825280601f01601f191660200182016040528015610c655781602001600182028036833780820191505090505b5090505b5f8514610cf057600182610c7d9190612143565b9150600a85610c8c9190612176565b6030610c989190611f7d565b60f81b818381518110610cae57610cad611573565b5b60200101907effffffffffffffffffffffffffffffffffffffffffffffffffffffffffffff191690815f1a905350600a85610ce99190612113565b9450610c69565b8093505050505b919050565b60405180606001604052805f151581526020015f8019168152602001606081525090565b60405180604001604052805f151581526020015f80191681525090565b508054610d49906117ab565b5f825580601f10610d5a5750610d77565b601f0160209004905f5260205f2090810190610d769190610e1c565b5b50565b508054610d86906117ab565b5f825580601f10610d975750610db4565b601f0160209004905f5260205f2090810190610db39190610e1c565b5b50565b60405180606001604052805f151581526020015f8019168152602001606081525090565b60405180604001604052805f151581526020015f80191681525090565b60405180606001604052805f151581526020015f8019168152602001606081525090565b5b80821115610e33575f815f905550600101610e1d565b5090565b5f81519050919050565b5f82825260208201905092915050565b5f5b83811015610e6e578082015181840152602081019050610e53565b5f8484015250505050565b5f601f19601f8301169050919050565b5f610e9382610e37565b610e9d8185610e41565b9350610ead818560208601610e51565b610eb681610e79565b840191505092915050565b5f81519050919050565b5f82825260208201905092915050565b5f819050602082019050919050565b5f82825260208201905092915050565b5f610f0482610e37565b610f0e8185610eea565b9350610f1e818560208601610e51565b610f2781610e79565b840191505092915050565b5f610f3d8383610efa565b905092915050565b5f602082019050919050565b5f610f5b82610ec1565b610f658185610ecb565b935083602082028501610f7785610edb565b805f5b85811015610fb25784840389528151610f938582610f32565b9450610f9e83610f45565b925060208a01995050600181019050610f7a565b50829750879550505050505092915050565b5f6060820190508181035f830152610fdc8186610e89565b90508181036020830152610ff08185610e89565b905081810360408301526110048184610f51565b9050949350505050565b5f604051905090565b5f80fd5b5f80fd5b5f80fd5b5f80fd5b7f4e487b71000000000000000000000000000000000000000000000000000000005f52604160045260245ffd5b61105d82610e79565b810181811067ffffffffffffffff8211171561107c5761107b611027565b5b80604052505050565b5f61108e61100e565b905061109a8282611054565b919050565b5f67ffffffffffffffff8211156110b9576110b8611027565b5b6110c282610e79565b9050602081019050919050565b828183375f83830152505050565b5f6110ef6110ea8461109f565b611085565b90508281526020810184848401111561110b5761110a611023565b5b6111168482856110cf565b509392505050565b5f82601f8301126111325761113161101f565b5b81356111428482602086016110dd565b91505092915050565b5f805f805f60a0868803121561116457611163611017565b5b5f86013567ffffffffffffffff8111156111815761118061101b565b5b61118d8882890161111e565b955050602086013567ffffffffffffffff8111156111ae576111ad61101b565b5b6111ba8882890161111e565b945050604086013567ffffffffffffffff8111156111db576111da61101b565b5b6111e78882890161111e565b935050606086013567ffffffffffffffff8111156112085761120761101b565b5b6112148882890161111e565b925050608086013567ffffffffffffffff8111156112355761123461101b565b5b6112418882890161111e565b9150509295509295909350565b5f8115159050919050565b6112628161124e565b82525050565b5f819050919050565b61127a81611268565b82525050565b5f606083015f8301516112955f860182611259565b5060208301516112a86020860182611271565b50604083015184820360408601526112c08282610efa565b9150508091505092915050565b5f6020820190508181035f8301526112e58184611280565b905092915050565b6112f681611268565b8114611300575f80fd5b50565b5f81359050611311816112ed565b92915050565b5f6020828403121561132c5761132b611017565b5b5f61133984828501611303565b91505092915050565b604082015f8201516113565f850182611259565b5060208201516113696020850182611271565b50505050565b5f6040820190506113825f830184611342565b92915050565b5f806040838503121561139e5761139d611017565b5b5f6113ab85828601611303565b925050602083013567ffffffffffffffff8111156113cc576113cb61101b565b5b6113d88582860161111e565b9150509250929050565b5f606083015f8301516113f75f860182611259565b50602083015161140a6020860182611271565b50604083015184820360408601526114228282610efa565b9150508091505092915050565b5f6020820190508181035f83015261144781846113e2565b905092915050565b5f819050919050565b6114618161144f565b811461146b575f80fd5b50565b5f8135905061147c81611458565b92915050565b5f806040838503121561149857611497611017565b5b5f6114a585828601611303565b92505060206114b68582860161146e565b9150509250929050565b604082015f8201516114d45f850182611259565b5060208201516114e76020850182611271565b50505050565b5f6040820190506115005f8301846114c0565b92915050565b5f606083015f83015161151b5f860182611259565b50602083015161152e6020860182611271565b50604083015184820360408601526115468282610efa565b9150508091505092915050565b5f6020820190508181035f83015261156b8184611506565b905092915050565b7f4e487b71000000000000000000000000000000000000000000000000000000005f52603260045260245ffd5b7f436f6e63657074206d757374206e6f7420626520656d707479000000000000005f82015250565b5f6115d4601983610e41565b91506115df826115a0565b602082019050919050565b5f6020820190508181035f830152611601816115c8565b9050919050565b7f50726f6a656374204944206d757374206e6f7420626520656d707479000000005f82015250565b5f61163c601c83610e41565b915061164782611608565b602082019050919050565b5f6020820190508181035f83015261166981611630565b9050919050565b5f81905092915050565b5f61168482610e37565b61168e8185611670565b935061169e818560208601610e51565b80840191505092915050565b5f6116b5828661167a565b91506116c1828561167a565b91506116cd828461167a565b9150819050949350505050565b5f819050919050565b6116ec816116da565b82525050565b5f60c0820190508181035f83015261170a8189610e89565b9050818103602083015261171e8188610e89565b905081810360408301526117328187610e89565b905081810360608301526117468186610e89565b9050818103608083015261175a8185610e89565b905061176960a08301846116e3565b979650505050505050565b5f81519050919050565b7f4e487b71000000000000000000000000000000000000000000000000000000005f52602260045260245ffd5b5f60028204905060018216806117c257607f821691505b6020821081036117d5576117d461177e565b5b50919050565b5f819050815f5260205f209050919050565b5f6020601f8301049050919050565b5f82821b905092915050565b5f600883026118377fffffffffffffffffffffffffffffffffffffffffffffffffffffffffffffffff826117fc565b61184186836117fc565b95508019841693508086168417925050509392505050565b5f819050919050565b5f61187c611877611872846116da565b611859565b6116da565b9050919050565b5f819050919050565b61189583611862565b6118a96118a182611883565b848454611808565b825550505050565b5f90565b6118bd6118b1565b6118c881848461188c565b505050565b5b818110156118eb576118e05f826118b5565b6001810190506118ce565b5050565b601f82111561193057611901816117db565b61190a846117ed565b81016020851015611919578190505b61192d611925856117ed565b8301826118cd565b50505b505050565b5f82821c905092915050565b5f6119505f1984600802611935565b1980831691505092915050565b5f6119688383611941565b9150826002028217905092915050565b61198182611774565b67ffffffffffffffff81111561199a57611999611027565b5b6119a482546117ab565b6119af8282856118ef565b5f60209050601f8311600181146119e0575f84156119ce578287015190505b6119d8858261195d565b865550611a3f565b601f1984166119ee866117db565b5f5b82811015611a15578489015182556001820191506020850194506020810190506119f0565b86831015611a325784890151611a2e601f891682611941565b8355505b6001600288020188555050505b505050505050565b7f68747470733a2f2f0000000000000000000000000000000000000000000000005f82015250565b5f611a7b600883611670565b9150611a8682611a47565b600882019050919050565b7f2d000000000000000000000000000000000000000000000000000000000000005f82015250565b5f611ac5600183611670565b9150611ad082611a91565b600182019050919050565b7f2e636c6f756466756e6374696f6e732e6e65742f0000000000000000000000005f82015250565b5f611b0f601483611670565b9150611b1a82611adb565b601482019050919050565b5f611b2f82611a6f565b9150611b3b828661167a565b9150611b4682611ab9565b9150611b52828561167a565b9150611b5d82611b03565b9150611b69828461167a565b9150819050949350505050565b7f6f6b0000000000000000000000000000000000000000000000000000000000005f82015250565b5f611baa600283610e41565b9150611bb582611b76565b602082019050919050565b611bc981611268565b82525050565b5f6040820190508181035f830152611be681611b9e565b9050611bf56020830184611bc0565b92915050565b7f46756e6374696f6e206e6f7420666f756e6400000000000000000000000000005f82015250565b5f611c2f601283610e41565b9150611c3a82611bfb565b602082019050919050565b5f6020820190508181035f830152611c5c81611c23565b9050919050565b7f5461726765742076657273696f6e206d757374206e6f7420626520656d7074795f82015250565b5f611c97602083610e41565b9150611ca282611c63565b602082019050919050565b5f6020820190508181035f830152611cc481611c8b565b9050919050565b5f819050815f5260205f209050919050565b601f821115611d1e57611cef81611ccb565b611cf8846117ed565b81016020851015611d07578190505b611d1b611d13856117ed565b8301826118cd565b50505b505050565b611d2c82610e37565b67ffffffffffffffff811115611d4557611d44611027565b5b611d4f82546117ab565b611d5a828285611cdd565b5f60209050601f831160018114611d8b575f8415611d79578287015190505b611d83858261195d565b865550611dea565b601f198416611d9986611ccb565b5f5b82811015611dc057848901518255600182019150602085019450602081019050611d9b565b86831015611ddd5784890151611dd9601f891682611941565b8355505b6001600288020188555050505b505050505050565b7f576569676874206d75737420626520302d3130300000000000000000000000005f82015250565b5f611e26601483610e41565b9150611e3182611df2565b602082019050919050565b5f6020820190508181035f830152611e5381611e1a565b9050919050565b7f46756e6374696f6e206e6f7420666f756e64202d2070726f766973696f6e20665f8201527f6972737400000000000000000000000000000000000000000000000000000000602082015250565b5f611eb4602483610e41565b9150611ebf82611e5a565b604082019050919050565b5f6020820190508181035f830152611ee181611ea8565b9050919050565b7f536f757263652061726368697665206d757374206e6f7420626520656d7074795f82015250565b5f611f1c602083610e41565b9150611f2782611ee8565b602082019050919050565b5f6020820190508181035f830152611f4981611f10565b9050919050565b7f4e487b71000000000000000000000000000000000000000000000000000000005f52601160045260245ffd5b5f611f87826116da565b9150611f92836116da565b9250828201905080821115611faa57611fa9611f50565b5b92915050565b7f76000000000000000000000000000000000000000000000000000000000000005f82015250565b5f611fe4600183611670565b9150611fef82611fb0565b600182019050919050565b5f61200482611fd8565b9150612010828461167a565b915081905092915050565b5f6060820190508181035f8301526120338186610e89565b905081810360208301526120478185610e89565b905061205660408301846116e3565b949350505050565b5f6060820190508181035f83015261207581611b9e565b90506120846020830185611bc0565b81810360408301526120968184610f51565b90509392505050565b5f6120a9826116da565b91507fffffffffffffffffffffffffffffffffffffffffffffffffffffffffffffffff82036120db576120da611f50565b5b600182019050919050565b7f4e487b71000000000000000000000000000000000000000000000000000000005f52601260045260245ffd5b5f61211d826116da565b9150612128836116da565b925082612138576121376120e6565b5b828204905092915050565b5f61214d826116da565b9150612158836116da565b92508282039050818111156121705761216f611f50565b5b92915050565b5f612180826116da565b915061218b836116da565b92508261219b5761219a6120e6565b5b82820690509291505056fea264697066735822122041f367699c2dfc8a736384bd049fc2d4705fde2732fa91df5b3a184d1c2b075264736f6c63430008140033","linkReferences":{}},"methodIdentifiers":{"deploy(bytes32,string)":"c416a8cf","destroy(bytes32)":"6e0bd282","provision(string,string,string,string,string)":"3fd55a92","register()":"1aa3a008","rollback(bytes32,string)":"7855131d","setTrafficWeight(bytes32,int256)":"8388d229"},"id":130}