{"abi":[{"type":"function","name":"generate","inputs":[{"name":"projections","type":"string[]","internalType":"string[]"},{"name":"syncSpecs","type":"string[]","internalType":"string[]"},{"name":"config","type":"string","internalType":"string"}],"outputs":[{"name":"","type":"tuple","internalType":"struct AsyncApiTarget.GenerateOkResult","components":[{"name":"success","type":"bool","internalType":"bool"},{"name":"spec","type":"bytes32","internalType":"bytes32"},{"name":"content","type":"string","internalType":"string"}]}],"stateMutability":"nonpayable"},{"type":"function","name":"register","inputs":[],"outputs":[{"name":"name","type":"string","internalType":"string"},{"name":"category","type":"string","internalType":"string"},{"name":"formats","type":"string[]","internalType":"string[]"}],"stateMutability":"pure"},{"type":"event","name":"GenerateCompleted","inputs":[{"name":"variant","type":"string","indexed":false,"internalType":"string"},{"name":"spec","type":"bytes32","indexed":false,"internalType":"bytes32"}],"anonymous":false}],"bytecode":{"object":"0x608060405234801561000f575f80fd5b506113288061001d5f395ff3fe608060405234801561000f575f80fd5b5060043610610034575f3560e01c80631aa3a008146100385780639f29a7f014610058575b5f80fd5b610040610088565b60405161004f939291906106e2565b60405180910390f35b610072600480360381019061006d919061094b565b6101fc565b60405161007f9190610a6e565b60405180910390f35b60608060606040518060400160405280600881526020017f6173796e6361706900000000000000000000000000000000000000000000000081525092506040518060400160405280600b81526020017f737065632d7461726765740000000000000000000000000000000000000000008152509150600267ffffffffffffffff81111561011857610117610741565b5b60405190808252806020026020018201604052801561014b57816020015b60608152602001906001900390816101365790505b5090506040518060400160405280600481526020017f79616d6c00000000000000000000000000000000000000000000000000000000815250815f8151811061019757610196610a8e565b5b60200260200101819052506040518060400160405280600481526020017f6a736f6e00000000000000000000000000000000000000000000000000000000815250816001815181106101ec576101eb610a8e565b5b6020026020010181905250909192565b610204610531565b5f845111610247576040517f08c379a000000000000000000000000000000000000000000000000000000000815260040161023e90610b05565b60405180910390fd5b5f84848460405160200161025d93929190610b23565b6040516020818303038152906040528051906020012090505f61028086516103d9565b61028a86516103d9565b60405160200161029b929190610cab565b60405160208183030381529060405290505f808381526020019081526020015f205f9054906101000a900460ff1661031c5760015f808481526020019081526020015f205f6101000a81548160ff021916908315150217905550600182908060018154018082558091505060019003905f5260205f20015f90919091909150555b8060025f8481526020019081526020015f20908161033a9190610ef2565b508560405160200161034c9190610fc1565b60405160208183030381529060405260035f8481526020019081526020015f2090816103789190611043565b507f0fd47883588af6121dd6816123cbebc8a6652dcbf34f3cbccbcf5c0743dca4b3826040516103a8919061116b565b60405180910390a1604051806060016040528060011515815260200183815260200182815250925050509392505050565b60605f820361041f576040518060400160405280600181526020017f3000000000000000000000000000000000000000000000000000000000000000815250905061052c565b5f8290505f5b5f821461044e578080610437906111c4565b915050600a826104479190611238565b9150610425565b5f8167ffffffffffffffff81111561046957610468610741565b5b6040519080825280601f01601f19166020018201604052801561049b5781602001600182028036833780820191505090505b5090505b5f85146105255781806104b190611268565b925050600a856104c1919061128f565b60306104cd91906112bf565b60f81b8183815181106104e3576104e2610a8e565b5b60200101907effffffffffffffffffffffffffffffffffffffffffffffffffffffffffffff191690815f1a905350600a8561051e9190611238565b945061049f565b8093505050505b919050565b60405180606001604052805f151581526020015f8019168152602001606081525090565b5f81519050919050565b5f82825260208201905092915050565b5f5b8381101561058c578082015181840152602081019050610571565b5f8484015250505050565b5f601f19601f8301169050919050565b5f6105b182610555565b6105bb818561055f565b93506105cb81856020860161056f565b6105d481610597565b840191505092915050565b5f81519050919050565b5f82825260208201905092915050565b5f819050602082019050919050565b5f82825260208201905092915050565b5f61062282610555565b61062c8185610608565b935061063c81856020860161056f565b61064581610597565b840191505092915050565b5f61065b8383610618565b905092915050565b5f602082019050919050565b5f610679826105df565b61068381856105e9565b935083602082028501610695856105f9565b805f5b858110156106d057848403895281516106b18582610650565b94506106bc83610663565b925060208a01995050600181019050610698565b50829750879550505050505092915050565b5f6060820190508181035f8301526106fa81866105a7565b9050818103602083015261070e81856105a7565b90508181036040830152610722818461066f565b9050949350505050565b5f604051905090565b5f80fd5b5f80fd5b5f80fd5b7f4e487b71000000000000000000000000000000000000000000000000000000005f52604160045260245ffd5b61077782610597565b810181811067ffffffffffffffff8211171561079657610795610741565b5b80604052505050565b5f6107a861072c565b90506107b4828261076e565b919050565b5f67ffffffffffffffff8211156107d3576107d2610741565b5b602082029050602081019050919050565b5f80fd5b5f80fd5b5f67ffffffffffffffff82111561080657610805610741565b5b61080f82610597565b9050602081019050919050565b828183375f83830152505050565b5f61083c610837846107ec565b61079f565b905082815260208101848484011115610858576108576107e8565b5b61086384828561081c565b509392505050565b5f82601f83011261087f5761087e61073d565b5b813561088f84826020860161082a565b91505092915050565b5f6108aa6108a5846107b9565b61079f565b905080838252602082019050602084028301858111156108cd576108cc6107e4565b5b835b8181101561091457803567ffffffffffffffff8111156108f2576108f161073d565b5b8086016108ff898261086b565b855260208501945050506020810190506108cf565b5050509392505050565b5f82601f8301126109325761093161073d565b5b8135610942848260208601610898565b91505092915050565b5f805f6060848603121561096257610961610735565b5b5f84013567ffffffffffffffff81111561097f5761097e610739565b5b61098b8682870161091e565b935050602084013567ffffffffffffffff8111156109ac576109ab610739565b5b6109b88682870161091e565b925050604084013567ffffffffffffffff8111156109d9576109d8610739565b5b6109e58682870161086b565b9150509250925092565b5f8115159050919050565b610a03816109ef565b82525050565b5f819050919050565b610a1b81610a09565b82525050565b5f606083015f830151610a365f8601826109fa565b506020830151610a496020860182610a12565b5060408301518482036040860152610a618282610618565b9150508091505092915050565b5f6020820190508181035f830152610a868184610a21565b905092915050565b7f4e487b71000000000000000000000000000000000000000000000000000000005f52603260045260245ffd5b7f4174206c65617374206f6e652070726f6a656374696f6e2072657175697265645f82015250565b5f610aef60208361055f565b9150610afa82610abb565b602082019050919050565b5f6020820190508181035f830152610b1c81610ae3565b9050919050565b5f6060820190508181035f830152610b3b818661066f565b90508181036020830152610b4f818561066f565b90508181036040830152610b6381846105a7565b9050949350505050565b5f81905092915050565b7f7b226173796e63617069223a22322e362e30222c2270726f6a656374696f6e735f8201527f223a000000000000000000000000000000000000000000000000000000000000602082015250565b5f610bd1602283610b6d565b9150610bdc82610b77565b602282019050919050565b5f610bf182610555565b610bfb8185610b6d565b9350610c0b81856020860161056f565b80840191505092915050565b7f2c2273796e635370656373223a000000000000000000000000000000000000005f82015250565b5f610c4b600d83610b6d565b9150610c5682610c17565b600d82019050919050565b7f7d000000000000000000000000000000000000000000000000000000000000005f82015250565b5f610c95600183610b6d565b9150610ca082610c61565b600182019050919050565b5f610cb582610bc5565b9150610cc18285610be7565b9150610ccc82610c3f565b9150610cd88284610be7565b9150610ce382610c89565b91508190509392505050565b7f4e487b71000000000000000000000000000000000000000000000000000000005f52602260045260245ffd5b5f6002820490506001821680610d3357607f821691505b602082108103610d4657610d45610cef565b5b50919050565b5f819050815f5260205f209050919050565b5f6020601f8301049050919050565b5f82821b905092915050565b5f60088302610da87fffffffffffffffffffffffffffffffffffffffffffffffffffffffffffffffff82610d6d565b610db28683610d6d565b95508019841693508086168417925050509392505050565b5f819050919050565b5f819050919050565b5f610df6610df1610dec84610dca565b610dd3565b610dca565b9050919050565b5f819050919050565b610e0f83610ddc565b610e23610e1b82610dfd565b848454610d79565b825550505050565b5f90565b610e37610e2b565b610e42818484610e06565b505050565b5b81811015610e6557610e5a5f82610e2f565b600181019050610e48565b5050565b601f821115610eaa57610e7b81610d4c565b610e8484610d5e565b81016020851015610e93578190505b610ea7610e9f85610d5e565b830182610e47565b50505b505050565b5f82821c905092915050565b5f610eca5f1984600802610eaf565b1980831691505092915050565b5f610ee28383610ebb565b9150826002028217905092915050565b610efb82610555565b67ffffffffffffffff811115610f1457610f13610741565b5b610f1e8254610d1c565b610f29828285610e69565b5f60209050601f831160018114610f5a575f8415610f48578287015190505b610f528582610ed7565b865550610fb9565b601f198416610f6886610d4c565b5f5b82811015610f8f57848901518255600182019150602085019450602081019050610f6a565b86831015610fac5784890151610fa8601f891682610ebb565b8355505b6001600288020188555050505b505050505050565b5f6020820190508181035f830152610fd9818461066f565b905092915050565b5f81519050919050565b5f819050815f5260205f209050919050565b601f82111561103e5761100f81610feb565b61101884610d5e565b81016020851015611027578190505b61103b61103385610d5e565b830182610e47565b50505b505050565b61104c82610fe1565b67ffffffffffffffff81111561106557611064610741565b5b61106f8254610d1c565b61107a828285610ffd565b5f60209050601f8311600181146110ab575f8415611099578287015190505b6110a38582610ed7565b86555061110a565b601f1984166110b986610feb565b5f5b828110156110e0578489015182556001820191506020850194506020810190506110bb565b868310156110fd57848901516110f9601f891682610ebb565b8355505b6001600288020188555050505b505050505050565b7f6f6b0000000000000000000000000000000000000000000000000000000000005f82015250565b5f61114660028361055f565b915061115182611112565b602082019050919050565b61116581610a09565b82525050565b5f6040820190508181035f8301526111828161113a565b9050611191602083018461115c565b92915050565b7f4e487b71000000000000000000000000000000000000000000000000000000005f52601160045260245ffd5b5f6111ce82610dca565b91507fffffffffffffffffffffffffffffffffffffffffffffffffffffffffffffffff8203611200576111ff611197565b5b600182019050919050565b7f4e487b71000000000000000000000000000000000000000000000000000000005f52601260045260245ffd5b5f61124282610dca565b915061124d83610dca565b92508261125d5761125c61120b565b5b828204905092915050565b5f61127282610dca565b91505f820361128457611283611197565b5b600182039050919050565b5f61129982610dca565b91506112a483610dca565b9250826112b4576112b361120b565b5b828206905092915050565b5f6112c982610dca565b91506112d483610dca565b92508282019050808211156112ec576112eb611197565b5b9291505056fea2646970667358221220a025310d182b17aabd292976c21433371b7ed7b0f0f0791fd6a81abe403bb8f964736f6c63430008140033","linkReferences":{}},"methodIdentifiers":{"generate(string[],string[],string)":"9f29a7f0","register()":"1aa3a008"},"id":34}