{"abi":[{"type":"function","name":"isRegistered","inputs":[{"name":"userId","type":"bytes32","internalType":"bytes32"}],"outputs":[{"name":"","type":"bool","internalType":"bool"}],"stateMutability":"view"},{"type":"function","name":"login","inputs":[{"name":"userId","type":"bytes32","internalType":"bytes32"},{"name":"credentialHash","type":"bytes32","internalType":"bytes32"}],"outputs":[{"name":"success","type":"bool","internalType":"bool"}],"stateMutability":"nonpayable"},{"type":"function","name":"logout","inputs":[{"name":"userId","type":"bytes32","internalType":"bytes32"}],"outputs":[],"stateMutability":"nonpayable"},{"type":"function","name":"register","inputs":[{"name":"userId","type":"bytes32","internalType":"bytes32"},{"name":"credentialHash","type":"bytes32","internalType":"bytes32"}],"outputs":[],"stateMutability":"nonpayable"},{"type":"function","name":"resetPassword","inputs":[{"name":"userId","type":"bytes32","internalType":"bytes32"},{"name":"newCredentialHash","type":"bytes32","internalType":"bytes32"}],"outputs":[],"stateMutability":"nonpayable"},{"type":"event","name":"LoggedIn","inputs":[{"name":"userId","type":"bytes32","indexed":true,"internalType":"bytes32"}],"anonymous":false},{"type":"event","name":"LoggedOut","inputs":[{"name":"userId","type":"bytes32","indexed":true,"internalType":"bytes32"}],"anonymous":false},{"type":"event","name":"PasswordReset","inputs":[{"name":"userId","type":"bytes32","indexed":true,"internalType":"bytes32"}],"anonymous":false},{"type":"event","name":"Registered","inputs":[{"name":"userId","type":"bytes32","indexed":true,"internalType":"bytes32"}],"anonymous":false}],"bytecode":{"object":"0x608060405234801561000f575f80fd5b5061080e8061001d5f395ff3fe608060405234801561000f575f80fd5b5060043610610055575f3560e01c80631fb9fb8e1461005957806327258b22146100755780632f926732146100a5578063383b10b4146100c1578063635a9f22146100dd575b5f80fd5b610073600480360381019061006e919061058c565b61010d565b005b61008f600480360381019061008a919061058c565b6101c7565b60405161009c91906105d1565b60405180910390f35b6100bf60048036038101906100ba91906105ea565b6101f0565b005b6100db60048036038101906100d691906105ea565b610384565b005b6100f760048036038101906100f291906105ea565b610470565b60405161010491906105d1565b60405180910390f35b5f808281526020019081526020015f2060010160019054906101000a900460ff1661016d576040517f08c379a000000000000000000000000000000000000000000000000000000000815260040161016490610682565b60405180910390fd5b5f805f8381526020019081526020015f206001015f6101000a81548160ff021916908315150217905550807fbd97a2d37fe3c957a632dc5a0aee496d9276d2810df4ebc54f734dc27a57213060405160405180910390a250565b5f805f8381526020019081526020015f2060010160019054906101000a900460ff169050919050565b5f801b8203610234576040517f08c379a000000000000000000000000000000000000000000000000000000000815260040161022b906106ea565b60405180910390fd5b5f801b8103610278576040517f08c379a000000000000000000000000000000000000000000000000000000000815260040161026f90610752565b60405180910390fd5b5f808381526020019081526020015f2060010160019054906101000a900460ff16156102d9576040517f08c379a00000000000000000000000000000000000000000000000000000000081526004016102d0906107ba565b60405180910390fd5b60405180606001604052808281526020015f15158152602001600115158152505f808481526020019081526020015f205f820151815f01556020820151816001015f6101000a81548160ff02191690831515021790555060408201518160010160016101000a81548160ff021916908315150217905550905050817f10906fae603eebfac53ddc0f103bee8a044dd7643c425c7a90f921dfa15ef62c60405160405180910390a25050565b5f808381526020019081526020015f2060010160019054906101000a900460ff166103e4576040517f08c379a00000000000000000000000000000000000000000000000000000000081526004016103db90610682565b60405180910390fd5b5f801b8103610428576040517f08c379a000000000000000000000000000000000000000000000000000000000815260040161041f90610752565b60405180910390fd5b805f808481526020019081526020015f205f0181905550817f4f4c9cbf2aba5090590719b4a6153ad0a5c302e3fe093948736f071f598c3b0560405160405180910390a25050565b5f805f8481526020019081526020015f2060010160019054906101000a900460ff166104d1576040517f08c379a00000000000000000000000000000000000000000000000000000000081526004016104c890610682565b60405180910390fd5b815f808581526020019081526020015f205f0154146104f2575f905061054f565b60015f808581526020019081526020015f206001015f6101000a81548160ff021916908315150217905550827f7be408cb374af8a080bbf44a42b900b7db348605594eee87597341aa4bf9889560405160405180910390a2600190505b92915050565b5f80fd5b5f819050919050565b61056b81610559565b8114610575575f80fd5b50565b5f8135905061058681610562565b92915050565b5f602082840312156105a1576105a0610555565b5b5f6105ae84828501610578565b91505092915050565b5f8115159050919050565b6105cb816105b7565b82525050565b5f6020820190506105e45f8301846105c2565b92915050565b5f8060408385031215610600576105ff610555565b5b5f61060d85828601610578565b925050602061061e85828601610578565b9150509250929050565b5f82825260208201905092915050565b7f4163636f756e74206e6f7420666f756e640000000000000000000000000000005f82015250565b5f61066c601183610628565b915061067782610638565b602082019050919050565b5f6020820190508181035f83015261069981610660565b9050919050565b7f557365722049442063616e6e6f74206265207a65726f000000000000000000005f82015250565b5f6106d4601683610628565b91506106df826106a0565b602082019050919050565b5f6020820190508181035f830152610701816106c8565b9050919050565b7f43726564656e7469616c20686173682063616e6e6f74206265207a65726f00005f82015250565b5f61073c601e83610628565b915061074782610708565b602082019050919050565b5f6020820190508181035f83015261076981610730565b9050919050565b7f4163636f756e7420616c726561647920726567697374657265640000000000005f82015250565b5f6107a4601a83610628565b91506107af82610770565b602082019050919050565b5f6020820190508181035f8301526107d181610798565b905091905056fea264697066735822122059a361fe838d22e9876f4f3b42a3981ba57429db1e3794aa5654e36d4726887c64736f6c63430008140033","linkReferences":{}},"methodIdentifiers":{"isRegistered(bytes32)":"27258b22","login(bytes32,bytes32)":"635a9f22","logout(bytes32)":"1fb9fb8e","register(bytes32,bytes32)":"2f926732","resetPassword(bytes32,bytes32)":"383b10b4"},"id":36}