{"abi":[{"type":"function","name":"asOf","inputs":[{"name":"systemTime","type":"uint256","internalType":"uint256"},{"name":"validTime","type":"uint256","internalType":"uint256"}],"outputs":[{"name":"versionId","type":"bytes32","internalType":"bytes32"},{"name":"contentHash","type":"bytes32","internalType":"bytes32"}],"stateMutability":"view"},{"type":"function","name":"between","inputs":[{"name":"start","type":"uint256","internalType":"uint256"},{"name":"end","type":"uint256","internalType":"uint256"},{"name":"dimension","type":"string","internalType":"string"}],"outputs":[{"name":"versionIds","type":"bytes32[]","internalType":"bytes32[]"}],"stateMutability":"view"},{"type":"function","name":"current","inputs":[],"outputs":[{"name":"versionId","type":"bytes32","internalType":"bytes32"},{"name":"contentHash","type":"bytes32","internalType":"bytes32"}],"stateMutability":"view"},{"type":"function","name":"getVersion","inputs":[{"name":"versionId","type":"bytes32","internalType":"bytes32"}],"outputs":[{"name":"","type":"tuple","internalType":"struct TemporalVersion.TemporalEntry","components":[{"name":"contentHash","type":"bytes32","internalType":"bytes32"},{"name":"systemFrom","type":"uint256","internalType":"uint256"},{"name":"systemTo","type":"uint256","internalType":"uint256"},{"name":"validFrom","type":"uint256","internalType":"uint256"},{"name":"validTo","type":"uint256","internalType":"uint256"},{"name":"metadata","type":"bytes","internalType":"bytes"},{"name":"exists","type":"bool","internalType":"bool"}]}],"stateMutability":"view"},{"type":"function","name":"record","inputs":[{"name":"contentHash","type":"bytes32","internalType":"bytes32"},{"name":"validFrom","type":"uint256","internalType":"uint256"},{"name":"validTo","type":"uint256","internalType":"uint256"},{"name":"metadata","type":"bytes","internalType":"bytes"}],"outputs":[{"name":"versionId","type":"bytes32","internalType":"bytes32"}],"stateMutability":"nonpayable"},{"type":"function","name":"supersede","inputs":[{"name":"versionId","type":"bytes32","internalType":"bytes32"},{"name":"contentHash","type":"bytes32","internalType":"bytes32"}],"outputs":[{"name":"newVersionId","type":"bytes32","internalType":"bytes32"}],"stateMutability":"nonpayable"},{"type":"function","name":"versionCount","inputs":[],"outputs":[{"name":"","type":"uint256","internalType":"uint256"}],"stateMutability":"view"},{"type":"event","name":"VersionRecorded","inputs":[{"name":"versionId","type":"bytes32","indexed":true,"internalType":"bytes32"},{"name":"contentHash","type":"bytes32","indexed":true,"internalType":"bytes32"},{"name":"validFrom","type":"uint256","indexed":false,"internalType":"uint256"},{"name":"validTo","type":"uint256","indexed":false,"internalType":"uint256"}],"anonymous":false},{"type":"event","name":"VersionSuperseded","inputs":[{"name":"oldVersionId","type":"bytes32","indexed":true,"internalType":"bytes32"},{"name":"newVersionId","type":"bytes32","indexed":true,"internalType":"bytes32"}],"anonymous":false}],"bytecode":{"object":"0x608060405234801561000f575f80fd5b506117b18061001d5f395ff3fe608060405234801561000f575f80fd5b506004361061007b575f3560e01c80638aad29e1116100595780638aad29e1146101105780639aaf9f081461012e5780639fa6a6e31461015e578063f13cb8cd1461017d5761007b565b8063159c06081461007f578063508fc08d146100af57806385fb342f146100e0575b5f80fd5b61009960048036038101906100949190610be9565b6101ad565b6040516100a69190610d1a565b60405180910390f35b6100c960048036038101906100c49190610d3a565b610408565b6040516100d7929190610d87565b60405180910390f35b6100fa60048036038101906100f59190610e2d565b610500565b6040516101079190610eb1565b60405180910390f35b6101186106c5565b6040516101259190610ed9565b60405180910390f35b61014860048036038101906101439190610ef2565b6106d1565b6040516101559190611069565b60405180910390f35b610166610835565b604051610174929190610d87565b60405180910390f35b61019760048036038101906101929190611089565b61089c565b6040516101a49190610eb1565b60405180910390f35b60605f6040516020016101bf9061111b565b6040516020818303038152906040528051906020012084846040516020016101e8929190611161565b604051602081830303815290604052805190602001201490505f805b6001805490508110156102b8575f805f6001848154811061022857610227611179565b5b905f5260205f20015481526020019081526020015f2090508315610277578781600101541115801561025e575088816002015410155b1561027257828061026e906111d3565b9350505b6102a4565b8781600301541115801561028f575088816004015410155b156102a357828061029f906111d3565b9350505b5b5080806102b0906111d3565b915050610204565b508067ffffffffffffffff8111156102d3576102d261121a565b5b6040519080825280602002602001820160405280156103015781602001602082028036833780820191505090505b5092505f805b6001805490508110156103fc575f6001828154811061032957610328611179565b5b905f5260205f20015490505f805f8381526020019081526020015f209050851561039c578981600101541115801561036557508a816002015410155b156103975781878580610377906111d3565b96508151811061038a57610389611179565b5b6020026020010181815250505b6103e7565b898160030154111580156103b457508a816004015410155b156103e657818785806103c6906111d3565b9650815181106103d9576103d8611179565b5b6020026020010181815250505b5b505080806103f4906111d3565b915050610307565b50505050949350505050565b5f805f60018054905090505b5f8111156104bd575f6001808361042b9190611247565b8154811061043c5761043b611179565b5b905f5260205f20015490505f805f8381526020019081526020015f20905086816001015411158015610472575080600201548711155b8015610482575085816003015411155b8015610492575080600401548611155b156104a85781815f0154945094505050506104f9565b505080806104b59061127a565b915050610414565b506040517f08c379a00000000000000000000000000000000000000000000000000000000081526004016104f090611321565b60405180910390fd5b9250929050565b5f858560035f815480929190610515906111d3565b9190505560405160200161052b9392919061137f565b6040516020818303038152906040528051906020012090506040518060e001604052808781526020014281526020017fffffffffffffffffffffffffffffffffffffffffffffffffffffffffffffffff815260200186815260200185815260200184848080601f0160208091040260200160405190810160405280939291908181526020018383808284375f81840152601f19601f820116905080830192505050505050508152602001600115158152505f808381526020019081526020015f205f820151815f01556020820151816001015560408201518160020155606082015181600301556080820151816004015560a082015181600501908161063191906115b5565b5060c0820151816006015f6101000a81548160ff021916908315150217905550905050600181908060018154018082558091505060019003905f5260205f20015f90919091909150558060028190555085817fb926d52252eb8d48d40e2a9532aaad48753866a1414aa595e0eb1aafd640d81e87876040516106b4929190611684565b60405180910390a395945050505050565b5f600180549050905090565b6106d9610b11565b5f808381526020019081526020015f206006015f9054906101000a900460ff16610738576040517f08c379a000000000000000000000000000000000000000000000000000000000815260040161072f906116f5565b60405180910390fd5b5f808381526020019081526020015f206040518060e00160405290815f820154815260200160018201548152602001600282015481526020016003820154815260200160048201548152602001600582018054610794906113e8565b80601f01602080910402602001604051908101604052809291908181526020018280546107c0906113e8565b801561080b5780601f106107e25761010080835404028352916020019161080b565b820191905f5260205f20905b8154815290600101906020018083116107ee57829003601f168201915b50505050508152602001600682015f9054906101000a900460ff1615151515815250509050919050565b5f805f6001805490501161087e576040517f08c379a00000000000000000000000000000000000000000000000000000000081526004016108759061175d565b60405180910390fd5b60025491505f808381526020019081526020015f205f015490509091565b5f805f808581526020019081526020015f209050806006015f9054906101000a900460ff16610900576040517f08c379a00000000000000000000000000000000000000000000000000000000081526004016108f7906116f5565b60405180910390fd5b42816002018190555082816003015460035f815480929190610921906111d3565b919050556040516020016109379392919061137f565b6040516020818303038152906040528051906020012091506040518060e001604052808481526020014281526020017fffffffffffffffffffffffffffffffffffffffffffffffffffffffffffffffff815260200182600301548152602001826004015481526020018260050180546109af906113e8565b80601f01602080910402602001604051908101604052809291908181526020018280546109db906113e8565b8015610a265780601f106109fd57610100808354040283529160200191610a26565b820191905f5260205f20905b815481529060010190602001808311610a0957829003601f168201915b50505050508152602001600115158152505f808481526020019081526020015f205f820151815f01556020820151816001015560408201518160020155606082015181600301556080820151816004015560a0820151816005019081610a8c91906115b5565b5060c0820151816006015f6101000a81548160ff021916908315150217905550905050600182908060018154018082558091505060019003905f5260205f20015f90919091909150558160028190555081847f78304236445097f05a951049dc4503e5164a28d3e7ec871a2ba2552bd866d13960405160405180910390a35092915050565b6040518060e001604052805f80191681526020015f81526020015f81526020015f81526020015f8152602001606081526020015f151581525090565b5f80fd5b5f80fd5b5f819050919050565b610b6781610b55565b8114610b71575f80fd5b50565b5f81359050610b8281610b5e565b92915050565b5f80fd5b5f80fd5b5f80fd5b5f8083601f840112610ba957610ba8610b88565b5b8235905067ffffffffffffffff811115610bc657610bc5610b8c565b5b602083019150836001820283011115610be257610be1610b90565b5b9250929050565b5f805f8060608587031215610c0157610c00610b4d565b5b5f610c0e87828801610b74565b9450506020610c1f87828801610b74565b935050604085013567ffffffffffffffff811115610c4057610c3f610b51565b5b610c4c87828801610b94565b925092505092959194509250565b5f81519050919050565b5f82825260208201905092915050565b5f819050602082019050919050565b5f819050919050565b610c9581610c83565b82525050565b5f610ca68383610c8c565b60208301905092915050565b5f602082019050919050565b5f610cc882610c5a565b610cd28185610c64565b9350610cdd83610c74565b805f5b83811015610d0d578151610cf48882610c9b565b9750610cff83610cb2565b925050600181019050610ce0565b5085935050505092915050565b5f6020820190508181035f830152610d328184610cbe565b905092915050565b5f8060408385031215610d5057610d4f610b4d565b5b5f610d5d85828601610b74565b9250506020610d6e85828601610b74565b9150509250929050565b610d8181610c83565b82525050565b5f604082019050610d9a5f830185610d78565b610da76020830184610d78565b9392505050565b610db781610c83565b8114610dc1575f80fd5b50565b5f81359050610dd281610dae565b92915050565b5f8083601f840112610ded57610dec610b88565b5b8235905067ffffffffffffffff811115610e0a57610e09610b8c565b5b602083019150836001820283011115610e2657610e25610b90565b5b9250929050565b5f805f805f60808688031215610e4657610e45610b4d565b5b5f610e5388828901610dc4565b9550506020610e6488828901610b74565b9450506040610e7588828901610b74565b935050606086013567ffffffffffffffff811115610e9657610e95610b51565b5b610ea288828901610dd8565b92509250509295509295909350565b5f602082019050610ec45f830184610d78565b92915050565b610ed381610b55565b82525050565b5f602082019050610eec5f830184610eca565b92915050565b5f60208284031215610f0757610f06610b4d565b5b5f610f1484828501610dc4565b91505092915050565b610f2681610b55565b82525050565b5f81519050919050565b5f82825260208201905092915050565b5f5b83811015610f63578082015181840152602081019050610f48565b5f8484015250505050565b5f601f19601f8301169050919050565b5f610f8882610f2c565b610f928185610f36565b9350610fa2818560208601610f46565b610fab81610f6e565b840191505092915050565b5f8115159050919050565b610fca81610fb6565b82525050565b5f60e083015f830151610fe55f860182610c8c565b506020830151610ff86020860182610f1d565b50604083015161100b6040860182610f1d565b50606083015161101e6060860182610f1d565b5060808301516110316080860182610f1d565b5060a083015184820360a08601526110498282610f7e565b91505060c083015161105e60c0860182610fc1565b508091505092915050565b5f6020820190508181035f8301526110818184610fd0565b905092915050565b5f806040838503121561109f5761109e610b4d565b5b5f6110ac85828601610dc4565b92505060206110bd85828601610dc4565b9150509250929050565b5f81905092915050565b7f73797374656d00000000000000000000000000000000000000000000000000005f82015250565b5f6111056006836110c7565b9150611110826110d1565b600682019050919050565b5f611125826110f9565b9150819050919050565b828183375f83830152505050565b5f61114883856110c7565b935061115583858461112f565b82840190509392505050565b5f61116d82848661113d565b91508190509392505050565b7f4e487b71000000000000000000000000000000000000000000000000000000005f52603260045260245ffd5b7f4e487b71000000000000000000000000000000000000000000000000000000005f52601160045260245ffd5b5f6111dd82610b55565b91507fffffffffffffffffffffffffffffffffffffffffffffffffffffffffffffffff820361120f5761120e6111a6565b5b600182019050919050565b7f4e487b71000000000000000000000000000000000000000000000000000000005f52604160045260245ffd5b5f61125182610b55565b915061125c83610b55565b9250828203905081811115611274576112736111a6565b5b92915050565b5f61128482610b55565b91505f8203611296576112956111a6565b5b600182039050919050565b5f82825260208201905092915050565b7f4e6f2076657273696f6e20666f756e6420666f7220676976656e2074696d65205f8201527f636f6f7264696e61746573000000000000000000000000000000000000000000602082015250565b5f61130b602b836112a1565b9150611316826112b1565b604082019050919050565b5f6020820190508181035f830152611338816112ff565b9050919050565b5f819050919050565b61135961135482610c83565b61133f565b82525050565b5f819050919050565b61137961137482610b55565b61135f565b82525050565b5f61138a8286611348565b60208201915061139a8285611368565b6020820191506113aa8284611368565b602082019150819050949350505050565b7f4e487b71000000000000000000000000000000000000000000000000000000005f52602260045260245ffd5b5f60028204905060018216806113ff57607f821691505b602082108103611412576114116113bb565b5b50919050565b5f819050815f5260205f209050919050565b5f6020601f8301049050919050565b5f82821b905092915050565b5f600883026114747fffffffffffffffffffffffffffffffffffffffffffffffffffffffffffffffff82611439565b61147e8683611439565b95508019841693508086168417925050509392505050565b5f819050919050565b5f6114b96114b46114af84610b55565b611496565b610b55565b9050919050565b5f819050919050565b6114d28361149f565b6114e66114de826114c0565b848454611445565b825550505050565b5f90565b6114fa6114ee565b6115058184846114c9565b505050565b5b818110156115285761151d5f826114f2565b60018101905061150b565b5050565b601f82111561156d5761153e81611418565b6115478461142a565b81016020851015611556578190505b61156a6115628561142a565b83018261150a565b50505b505050565b5f82821c905092915050565b5f61158d5f1984600802611572565b1980831691505092915050565b5f6115a5838361157e565b9150826002028217905092915050565b6115be82610f2c565b67ffffffffffffffff8111156115d7576115d661121a565b5b6115e182546113e8565b6115ec82828561152c565b5f60209050601f83116001811461161d575f841561160b578287015190505b611615858261159a565b86555061167c565b601f19841661162b86611418565b5f5b828110156116525784890151825560018201915060208501945060208101905061162d565b8683101561166f578489015161166b601f89168261157e565b8355505b6001600288020188555050505b505050505050565b5f6040820190506116975f830185610eca565b6116a46020830184610eca565b9392505050565b7f56657273696f6e206e6f7420666f756e640000000000000000000000000000005f82015250565b5f6116df6011836112a1565b91506116ea826116ab565b602082019050919050565b5f6020820190508181035f83015261170c816116d3565b9050919050565b7f4e6f2076657273696f6e73207265636f726465640000000000000000000000005f82015250565b5f6117476014836112a1565b915061175282611713565b602082019050919050565b5f6020820190508181035f8301526117748161173b565b905091905056fea2646970667358221220acf98ea3fd28d634e939654b195c8fbfddfc193dc1eac6b840b0955a293d7d3d64736f6c63430008140033","linkReferences":{}},"methodIdentifiers":{"asOf(uint256,uint256)":"508fc08d","between(uint256,uint256,string)":"159c0608","current()":"9fa6a6e3","getVersion(bytes32)":"9aaf9f08","record(bytes32,uint256,uint256,bytes)":"85fb342f","supersede(bytes32,bytes32)":"f13cb8cd","versionCount()":"8aad29e1"},"id":284}