{"abi":[{"type":"function","name":"getMessage","inputs":[{"name":"id","type":"bytes32","internalType":"bytes32"}],"outputs":[{"name":"","type":"string","internalType":"string"}],"stateMutability":"view"},{"type":"function","name":"send","inputs":[{"name":"id","type":"bytes32","internalType":"bytes32"},{"name":"text","type":"string","internalType":"string"}],"outputs":[{"name":"","type":"string","internalType":"string"}],"stateMutability":"nonpayable"},{"type":"event","name":"Echoed","inputs":[{"name":"id","type":"bytes32","indexed":true,"internalType":"bytes32"},{"name":"text","type":"string","indexed":false,"internalType":"string"}],"anonymous":false}],"bytecode":{"object":"0x608060405234801561000f575f80fd5b506108a18061001d5f395ff3fe608060405234801561000f575f80fd5b5060043610610034575f3560e01c80630139a221146100385780639f1c82bd14610068575b5f80fd5b610052600480360381019061004d91906102a5565b610098565b60405161005f919061035a565b60405180910390f35b610082600480360381019061007d91906103db565b610138565b60405161008f919061035a565b60405180910390f35b60605f808381526020019081526020015f2080546100b590610465565b80601f01602080910402602001604051908101604052809291908181526020018280546100e190610465565b801561012c5780601f106101035761010080835404028352916020019161012c565b820191905f5260205f20905b81548152906001019060200180831161010f57829003601f168201915b50505050509050919050565b60605f801b840361017e576040517f08c379a0000000000000000000000000000000000000000000000000000000008152600401610175906104df565b60405180910390fd5b5f83839050116101c3576040517f08c379a00000000000000000000000000000000000000000000000000000000081526004016101ba90610547565b60405180910390fd5b82825f808781526020019081526020015f2091826101e2929190610742565b50837f0cc2a8dda2e76e9248eed93cf32ecc543e1b77d8dfa99eb68abc1a986635807c8484604051610215929190610849565b60405180910390a282828080601f0160208091040260200160405190810160405280939291908181526020018383808284375f81840152601f19601f8201169050808301925050505050505090509392505050565b5f80fd5b5f80fd5b5f819050919050565b61028481610272565b811461028e575f80fd5b50565b5f8135905061029f8161027b565b92915050565b5f602082840312156102ba576102b961026a565b5b5f6102c784828501610291565b91505092915050565b5f81519050919050565b5f82825260208201905092915050565b5f5b838110156103075780820151818401526020810190506102ec565b5f8484015250505050565b5f601f19601f8301169050919050565b5f61032c826102d0565b61033681856102da565b93506103468185602086016102ea565b61034f81610312565b840191505092915050565b5f6020820190508181035f8301526103728184610322565b905092915050565b5f80fd5b5f80fd5b5f80fd5b5f8083601f84011261039b5761039a61037a565b5b8235905067ffffffffffffffff8111156103b8576103b761037e565b5b6020830191508360018202830111156103d4576103d3610382565b5b9250929050565b5f805f604084860312156103f2576103f161026a565b5b5f6103ff86828701610291565b935050602084013567ffffffffffffffff8111156104205761041f61026e565b5b61042c86828701610386565b92509250509250925092565b7f4e487b71000000000000000000000000000000000000000000000000000000005f52602260045260245ffd5b5f600282049050600182168061047c57607f821691505b60208210810361048f5761048e610438565b5b50919050565b7f49442063616e6e6f74206265207a65726f0000000000000000000000000000005f82015250565b5f6104c96011836102da565b91506104d482610495565b602082019050919050565b5f6020820190508181035f8301526104f6816104bd565b9050919050565b7f546578742063616e6e6f7420626520656d7074790000000000000000000000005f82015250565b5f6105316014836102da565b915061053c826104fd565b602082019050919050565b5f6020820190508181035f83015261055e81610525565b9050919050565b5f82905092915050565b7f4e487b71000000000000000000000000000000000000000000000000000000005f52604160045260245ffd5b5f819050815f5260205f209050919050565b5f6020601f8301049050919050565b5f82821b905092915050565b5f600883026105f87fffffffffffffffffffffffffffffffffffffffffffffffffffffffffffffffff826105bd565b61060286836105bd565b95508019841693508086168417925050509392505050565b5f819050919050565b5f819050919050565b5f61064661064161063c8461061a565b610623565b61061a565b9050919050565b5f819050919050565b61065f8361062c565b61067361066b8261064d565b8484546105c9565b825550505050565b5f90565b61068761067b565b610692818484610656565b505050565b5b818110156106b5576106aa5f8261067f565b600181019050610698565b5050565b601f8211156106fa576106cb8161059c565b6106d4846105ae565b810160208510156106e3578190505b6106f76106ef856105ae565b830182610697565b50505b505050565b5f82821c905092915050565b5f61071a5f19846008026106ff565b1980831691505092915050565b5f610732838361070b565b9150826002028217905092915050565b61074c8383610565565b67ffffffffffffffff8111156107655761076461056f565b5b61076f8254610465565b61077a8282856106b9565b5f601f8311600181146107a7575f8415610795578287013590505b61079f8582610727565b865550610806565b601f1984166107b58661059c565b5f5b828110156107dc578489013582556001820191506020850194506020810190506107b7565b868310156107f957848901356107f5601f89168261070b565b8355505b6001600288020188555050505b50505050505050565b828183375f83830152505050565b5f61082883856102da565b935061083583858461080f565b61083e83610312565b840190509392505050565b5f6020820190508181035f83015261086281848661081d565b9050939250505056fea2646970667358221220f660d025e828871fcb861f30ea62970783a13e6a903a95d2f40bfce46d51183a64736f6c63430008140033","linkReferences":{}},"methodIdentifiers":{"getMessage(bytes32)":"0139a221","send(bytes32,string)":"9f1c82bd"},"id":105}