{"abi":[{"type":"function","name":"generate","inputs":[{"name":"name","type":"string","internalType":"string"},{"name":"typeParam","type":"string","internalType":"string"},{"name":"purpose","type":"string","internalType":"string"},{"name":"stateFields","type":"bytes[]","internalType":"bytes[]"},{"name":"actions","type":"bytes[]","internalType":"bytes[]"}],"outputs":[{"name":"result","type":"tuple","internalType":"struct ConceptScaffoldGen.GenerateOkResult","components":[{"name":"success","type":"bool","internalType":"bool"},{"name":"files","type":"bytes[]","internalType":"bytes[]"},{"name":"filesGenerated","type":"int256","internalType":"int256"}]}],"stateMutability":"nonpayable"},{"type":"function","name":"hasSpec","inputs":[{"name":"name","type":"string","internalType":"string"}],"outputs":[{"name":"","type":"bool","internalType":"bool"}],"stateMutability":"view"},{"type":"function","name":"preview","inputs":[{"name":"name","type":"string","internalType":"string"},{"name":"typeParam","type":"string","internalType":"string"},{"name":"purpose","type":"string","internalType":"string"},{"name":"stateFields","type":"bytes[]","internalType":"bytes[]"},{"name":"actions","type":"bytes[]","internalType":"bytes[]"}],"outputs":[{"name":"result","type":"tuple","internalType":"struct ConceptScaffoldGen.PreviewOkResult","components":[{"name":"success","type":"bool","internalType":"bool"},{"name":"files","type":"bytes[]","internalType":"bytes[]"},{"name":"wouldWrite","type":"int256","internalType":"int256"},{"name":"wouldSkip","type":"int256","internalType":"int256"}]}],"stateMutability":"view"},{"type":"function","name":"register","inputs":[],"outputs":[{"name":"result","type":"tuple","internalType":"struct ConceptScaffoldGen.RegisterOkResult","components":[{"name":"success","type":"bool","internalType":"bool"},{"name":"name","type":"string","internalType":"string"},{"name":"inputKind","type":"string","internalType":"string"},{"name":"outputKind","type":"string","internalType":"string"},{"name":"capabilities","type":"string[]","internalType":"string[]"}]}],"stateMutability":"pure"},{"type":"function","name":"specCount","inputs":[],"outputs":[{"name":"","type":"uint256","internalType":"uint256"}],"stateMutability":"view"},{"type":"event","name":"GenerateCompleted","inputs":[{"name":"variant","type":"string","indexed":false,"internalType":"string"},{"name":"files","type":"bytes[]","indexed":false,"internalType":"bytes[]"},{"name":"filesGenerated","type":"int256","indexed":false,"internalType":"int256"}],"anonymous":false},{"type":"event","name":"PreviewCompleted","inputs":[{"name":"variant","type":"string","indexed":false,"internalType":"string"},{"name":"files","type":"bytes[]","indexed":false,"internalType":"bytes[]"},{"name":"wouldWrite","type":"int256","indexed":false,"internalType":"int256"},{"name":"wouldSkip","type":"int256","indexed":false,"internalType":"int256"}],"anonymous":false},{"type":"event","name":"RegisterCompleted","inputs":[{"name":"variant","type":"string","indexed":false,"internalType":"string"},{"name":"capabilities","type":"string[]","indexed":false,"internalType":"string[]"}],"anonymous":false}],"bytecode":{"object":"0x608060405234801561000f575f80fd5b50611d678061001d5f395ff3fe608060405234801561000f575f80fd5b5060043610610055575f3560e01c80631aa3a008146100595780633bdd6efe146100775780635ed83953146100a7578063d16480d9146100d7578063d99629a014610107575b5f80fd5b610061610125565b60405161006e9190610c49565b60405180910390f35b610091600480360381019061008c9190610da6565b61034c565b60405161009e9190610dfc565b60405180910390f35b6100c160048036038101906100bc9190610f95565b610398565b6040516100ce919061120a565b60405180910390f35b6100f160048036038101906100ec9190610f95565b610668565b6040516100fe919061128a565b60405180910390f35b61010f610885565b60405161011c91906112c2565b60405180910390f35b61012d6109ea565b5f600367ffffffffffffffff81111561014957610148610c82565b5b60405190808252806020026020018201604052801561017c57816020015b60608152602001906001900390816101675790505b5090506040518060400160405280600c81526020017f636f6e636570742d737065630000000000000000000000000000000000000000815250815f815181106101c8576101c76112db565b5b60200260200101819052506040518060400160405280600c81526020017f73746174652d6669656c647300000000000000000000000000000000000000008152508160018151811061021d5761021c6112db565b5b60200260200101819052506040518060400160405280601181526020017f616374696f6e2d7369676e61747572657300000000000000000000000000000081525081600281518110610272576102716112db565b5b60200260200101819052506040518060a001604052806001151581526020016040518060400160405280601481526020017f636f6e636570742d73636166666f6c642d67656e00000000000000000000000081525081526020016040518060400160405280601281526020017f636f6e636570742d646566696e6974696f6e000000000000000000000000000081525081526020016040518060400160405280600e81526020017f73636166666f6c642d66696c657300000000000000000000000000000000000081525081526020018281525091505090565b5f60015f836040516020016103619190611342565b6040516020818303038152906040528051906020012081526020019081526020015f205f9054906101000a900460ff169050919050565b6103a0610a1a565b5f8651116103e3576040517f08c379a00000000000000000000000000000000000000000000000000000000081526004016103da906113b2565b60405180910390fd5b5f845111610426576040517f08c379a000000000000000000000000000000000000000000000000000000000815260040161041d9061141a565b60405180910390fd5b5f866040516020016104389190611342565b6040516020818303038152906040528051906020012090505f600267ffffffffffffffff81111561046c5761046b610c82565b5b60405190808252806020026020018201604052801561049f57816020015b606081526020019060019003908161048a5790505b5090508787876104af8851610891565b6104b98851610891565b6040516020016104cd9594939291906115aa565b604051602081830303815290604052815f815181106104ef576104ee6112db565b5b6020026020010181905250876105058551610891565b6040516020016105169291906116bf565b60405160208183030381529060405281600181518110610539576105386112db565b5b6020026020010181905250878787875187514260405160200161056196959493929190611730565b6040516020818303038152906040525f808481526020019081526020015f20908161058c919061199e565b5060015f8381526020019081526020015f205f9054906101000a900460ff166105fe576001805f8481526020019081526020015f205f6101000a81548160ff021916908315150217905550600282908060018154018082558091505060019003905f5260205f20015f90919091909150555b5f6002905060405180606001604052806001151581526020018381526020018281525093507f48bda0bee7ff8852f440265af654a83c61da2283be561d3abff07f7ae4ae9e088282604051610654929190611b49565b60405180910390a150505095945050505050565b610670610a3b565b5f8651116106b3576040517f08c379a00000000000000000000000000000000000000000000000000000000081526004016106aa906113b2565b60405180910390fd5b5f8451116106f6576040517f08c379a00000000000000000000000000000000000000000000000000000000081526004016106ed9061141a565b60405180910390fd5b5f866040516020016107089190611342565b6040516020818303038152906040528051906020012090505f600267ffffffffffffffff81111561073c5761073b610c82565b5b60405190808252806020026020018201604052801561076f57816020015b606081526020019060019003908161075a5790505b50905087878761077f8851610891565b6107898851610891565b60405160200161079d9594939291906115aa565b604051602081830303815290604052815f815181106107bf576107be6112db565b5b6020026020010181905250876107d58551610891565b6040516020016107e69291906116bf565b60405160208183030381529060405281600181518110610809576108086112db565b5b60200260200101819052505f60015f8481526020019081526020015f205f9054906101000a900460ff1661083d575f610840565b60015b90505f8160026108509190611bb7565b905060405180608001604052806001151581526020018481526020018281526020018381525094505050505095945050505050565b5f600280549050905090565b60605f82036108d7576040518060400160405280600181526020017f300000000000000000000000000000000000000000000000000000000000000081525090506109e5565b5f8290505f5b5f82146109065780806108ef90611bf7565b915050600a826108ff9190611c6b565b91506108dd565b5f8167ffffffffffffffff81111561092157610920610c82565b5b6040519080825280601f01601f1916602001820160405280156109535781602001600182028036833780820191505090505b5090505b5f85146109de5760018261096b9190611c9b565b9150600a8561097a9190611cce565b60306109869190611cfe565b60f81b81838151811061099c5761099b6112db565b5b60200101907effffffffffffffffffffffffffffffffffffffffffffffffffffffffffffff191690815f1a905350600a856109d79190611c6b565b9450610957565b8093505050505b919050565b6040518060a001604052805f15158152602001606081526020016060815260200160608152602001606081525090565b60405180606001604052805f15158152602001606081526020015f81525090565b60405180608001604052805f15158152602001606081526020015f81526020015f81525090565b5f8115159050919050565b610a7681610a62565b82525050565b5f81519050919050565b5f82825260208201905092915050565b5f5b83811015610ab3578082015181840152602081019050610a98565b5f8484015250505050565b5f601f19601f8301169050919050565b5f610ad882610a7c565b610ae28185610a86565b9350610af2818560208601610a96565b610afb81610abe565b840191505092915050565b5f81519050919050565b5f82825260208201905092915050565b5f819050602082019050919050565b5f610b3a8383610ace565b905092915050565b5f602082019050919050565b5f610b5882610b06565b610b628185610b10565b935083602082028501610b7485610b20565b805f5b85811015610baf5784840389528151610b908582610b2f565b9450610b9b83610b42565b925060208a01995050600181019050610b77565b50829750879550505050505092915050565b5f60a083015f830151610bd65f860182610a6d565b5060208301518482036020860152610bee8282610ace565b91505060408301518482036040860152610c088282610ace565b91505060608301518482036060860152610c228282610ace565b91505060808301518482036080860152610c3c8282610b4e565b9150508091505092915050565b5f6020820190508181035f830152610c618184610bc1565b905092915050565b5f604051905090565b5f80fd5b5f80fd5b5f80fd5b5f80fd5b7f4e487b71000000000000000000000000000000000000000000000000000000005f52604160045260245ffd5b610cb882610abe565b810181811067ffffffffffffffff82111715610cd757610cd6610c82565b5b80604052505050565b5f610ce9610c69565b9050610cf58282610caf565b919050565b5f67ffffffffffffffff821115610d1457610d13610c82565b5b610d1d82610abe565b9050602081019050919050565b828183375f83830152505050565b5f610d4a610d4584610cfa565b610ce0565b905082815260208101848484011115610d6657610d65610c7e565b5b610d71848285610d2a565b509392505050565b5f82601f830112610d8d57610d8c610c7a565b5b8135610d9d848260208601610d38565b91505092915050565b5f60208284031215610dbb57610dba610c72565b5b5f82013567ffffffffffffffff811115610dd857610dd7610c76565b5b610de484828501610d79565b91505092915050565b610df681610a62565b82525050565b5f602082019050610e0f5f830184610ded565b92915050565b5f67ffffffffffffffff821115610e2f57610e2e610c82565b5b602082029050602081019050919050565b5f80fd5b5f67ffffffffffffffff821115610e5e57610e5d610c82565b5b610e6782610abe565b9050602081019050919050565b5f610e86610e8184610e44565b610ce0565b905082815260208101848484011115610ea257610ea1610c7e565b5b610ead848285610d2a565b509392505050565b5f82601f830112610ec957610ec8610c7a565b5b8135610ed9848260208601610e74565b91505092915050565b5f610ef4610eef84610e15565b610ce0565b90508083825260208201905060208402830185811115610f1757610f16610e40565b5b835b81811015610f5e57803567ffffffffffffffff811115610f3c57610f3b610c7a565b5b808601610f498982610eb5565b85526020850194505050602081019050610f19565b5050509392505050565b5f82601f830112610f7c57610f7b610c7a565b5b8135610f8c848260208601610ee2565b91505092915050565b5f805f805f60a08688031215610fae57610fad610c72565b5b5f86013567ffffffffffffffff811115610fcb57610fca610c76565b5b610fd788828901610d79565b955050602086013567ffffffffffffffff811115610ff857610ff7610c76565b5b61100488828901610d79565b945050604086013567ffffffffffffffff81111561102557611024610c76565b5b61103188828901610d79565b935050606086013567ffffffffffffffff81111561105257611051610c76565b5b61105e88828901610f68565b925050608086013567ffffffffffffffff81111561107f5761107e610c76565b5b61108b88828901610f68565b9150509295509295909350565b5f81519050919050565b5f82825260208201905092915050565b5f819050602082019050919050565b5f81519050919050565b5f82825260208201905092915050565b5f6110e5826110c1565b6110ef81856110cb565b93506110ff818560208601610a96565b61110881610abe565b840191505092915050565b5f61111e83836110db565b905092915050565b5f602082019050919050565b5f61113c82611098565b61114681856110a2565b935083602082028501611158856110b2565b805f5b8581101561119357848403895281516111748582611113565b945061117f83611126565b925060208a0199505060018101905061115b565b50829750879550505050505092915050565b5f819050919050565b6111b7816111a5565b82525050565b5f606083015f8301516111d25f860182610a6d565b50602083015184820360208601526111ea8282611132565b91505060408301516111ff60408601826111ae565b508091505092915050565b5f6020820190508181035f83015261122281846111bd565b905092915050565b5f608083015f83015161123f5f860182610a6d565b50602083015184820360208601526112578282611132565b915050604083015161126c60408601826111ae565b50606083015161127f60608601826111ae565b508091505092915050565b5f6020820190508181035f8301526112a2818461122a565b905092915050565b5f819050919050565b6112bc816112aa565b82525050565b5f6020820190506112d55f8301846112b3565b92915050565b7f4e487b71000000000000000000000000000000000000000000000000000000005f52603260045260245ffd5b5f81905092915050565b5f61131c82610a7c565b6113268185611308565b9350611336818560208601610a96565b80840191505092915050565b5f61134d8284611312565b915081905092915050565b5f82825260208201905092915050565b7f436f6e63657074206e616d652063616e6e6f7420626520656d707479000000005f82015250565b5f61139c601c83611358565b91506113a782611368565b602082019050919050565b5f6020820190508181035f8301526113c981611390565b9050919050565b7f507572706f73652063616e6e6f7420626520656d7074790000000000000000005f82015250565b5f611404601783611358565b915061140f826113d0565b602082019050919050565b5f6020820190508181035f830152611431816113f8565b9050919050565b7f2f2f20436f6e6365707420737065632073636166666f6c643a200000000000005f82015250565b5f61146c601a83611308565b915061147782611438565b601a82019050919050565b7f0a2f2f20547970653a20000000000000000000000000000000000000000000005f82015250565b5f6114b6600a83611308565b91506114c182611482565b600a82019050919050565b7f0a2f2f20507572706f73653a20000000000000000000000000000000000000005f82015250565b5f611500600d83611308565b915061150b826114cc565b600d82019050919050565b7f0a2f2f205374617465206669656c64733a2000000000000000000000000000005f82015250565b5f61154a601283611308565b915061155582611516565b601282019050919050565b7f0a2f2f20416374696f6e733a20000000000000000000000000000000000000005f82015250565b5f611594600d83611308565b915061159f82611560565b600d82019050919050565b5f6115b482611460565b91506115c08288611312565b91506115cb826114aa565b91506115d78287611312565b91506115e2826114f4565b91506115ee8286611312565b91506115f98261153e565b91506116058285611312565b915061161082611588565b915061161c8284611312565b91508190509695505050505050565b7f2f2f2048616e646c65722073636166666f6c643a2000000000000000000000005f82015250565b5f61165f601583611308565b915061166a8261162b565b601582019050919050565b7f0a2f2f20416374696f6e7320746f20696d706c656d656e743a200000000000005f82015250565b5f6116a9601a83611308565b91506116b482611675565b601a82019050919050565b5f6116c982611653565b91506116d58285611312565b91506116e08261169d565b91506116ec8284611312565b91508190509392505050565b5f61170282610a7c565b61170c8185611358565b935061171c818560208601610a96565b61172581610abe565b840191505092915050565b5f60c0820190508181035f83015261174881896116f8565b9050818103602083015261175c81886116f8565b9050818103604083015261177081876116f8565b905061177f60608301866112b3565b61178c60808301856112b3565b61179960a08301846112b3565b979650505050505050565b7f4e487b71000000000000000000000000000000000000000000000000000000005f52602260045260245ffd5b5f60028204905060018216806117e857607f821691505b6020821081036117fb576117fa6117a4565b5b50919050565b5f819050815f5260205f209050919050565b5f6020601f8301049050919050565b5f82821b905092915050565b5f6008830261185d7fffffffffffffffffffffffffffffffffffffffffffffffffffffffffffffffff82611822565b6118678683611822565b95508019841693508086168417925050509392505050565b5f819050919050565b5f6118a261189d611898846112aa565b61187f565b6112aa565b9050919050565b5f819050919050565b6118bb83611888565b6118cf6118c7826118a9565b84845461182e565b825550505050565b5f90565b6118e36118d7565b6118ee8184846118b2565b505050565b5b81811015611911576119065f826118db565b6001810190506118f4565b5050565b601f8211156119565761192781611801565b61193084611813565b8101602085101561193f578190505b61195361194b85611813565b8301826118f3565b50505b505050565b5f82821c905092915050565b5f6119765f198460080261195b565b1980831691505092915050565b5f61198e8383611967565b9150826002028217905092915050565b6119a7826110c1565b67ffffffffffffffff8111156119c0576119bf610c82565b5b6119ca82546117d1565b6119d5828285611915565b5f60209050601f831160018114611a06575f84156119f4578287015190505b6119fe8582611983565b865550611a65565b601f198416611a1486611801565b5f5b82811015611a3b57848901518255600182019150602085019450602081019050611a16565b86831015611a585784890151611a54601f891682611967565b8355505b6001600288020188555050505b505050505050565b7f6f6b0000000000000000000000000000000000000000000000000000000000005f82015250565b5f611aa1600283611358565b9150611aac82611a6d565b602082019050919050565b5f82825260208201905092915050565b5f611ad182611098565b611adb8185611ab7565b935083602082028501611aed856110b2565b805f5b85811015611b285784840389528151611b098582611113565b9450611b1483611126565b925060208a01995050600181019050611af0565b50829750879550505050505092915050565b611b43816111a5565b82525050565b5f6060820190508181035f830152611b6081611a95565b90508181036020830152611b748185611ac7565b9050611b836040830184611b3a565b9392505050565b7f4e487b71000000000000000000000000000000000000000000000000000000005f52601160045260245ffd5b5f611bc1826111a5565b9150611bcc836111a5565b925082820390508181125f8412168282135f851215161715611bf157611bf0611b8a565b5b92915050565b5f611c01826112aa565b91507fffffffffffffffffffffffffffffffffffffffffffffffffffffffffffffffff8203611c3357611c32611b8a565b5b600182019050919050565b7f4e487b71000000000000000000000000000000000000000000000000000000005f52601260045260245ffd5b5f611c75826112aa565b9150611c80836112aa565b925082611c9057611c8f611c3e565b5b828204905092915050565b5f611ca5826112aa565b9150611cb0836112aa565b9250828203905081811115611cc857611cc7611b8a565b5b92915050565b5f611cd8826112aa565b9150611ce3836112aa565b925082611cf357611cf2611c3e565b5b828206905092915050565b5f611d08826112aa565b9150611d13836112aa565b9250828201905080821115611d2b57611d2a611b8a565b5b9291505056fea264697066735822122023dd2c18bc4daac51bb55805226faa24d5e558a7ab0cbb3b5e9d597f62d7801464736f6c63430008140033","linkReferences":{}},"methodIdentifiers":{"generate(string,string,string,bytes[],bytes[])":"5ed83953","hasSpec(string)":"3bdd6efe","preview(string,string,string,bytes[],bytes[])":"d16480d9","register()":"1aa3a008","specCount()":"d99629a0"},"id":21}