{"abi":[{"type":"function","name":"count","inputs":[],"outputs":[{"name":"","type":"uint256","internalType":"uint256"}],"stateMutability":"view"},{"type":"function","name":"defineIntent","inputs":[{"name":"targetId","type":"bytes32","internalType":"bytes32"},{"name":"purpose","type":"string","internalType":"string"},{"name":"principles","type":"string","internalType":"string"},{"name":"description","type":"string","internalType":"string"}],"outputs":[],"stateMutability":"nonpayable"},{"type":"function","name":"exists","inputs":[{"name":"targetId","type":"bytes32","internalType":"bytes32"}],"outputs":[{"name":"","type":"bool","internalType":"bool"}],"stateMutability":"view"},{"type":"function","name":"get","inputs":[{"name":"targetId","type":"bytes32","internalType":"bytes32"}],"outputs":[{"name":"","type":"tuple","internalType":"struct Intent.IntentRecord","components":[{"name":"purpose","type":"string","internalType":"string"},{"name":"principles","type":"string","internalType":"string"},{"name":"description","type":"string","internalType":"string"},{"name":"createdAt","type":"uint256","internalType":"uint256"},{"name":"updatedAt","type":"uint256","internalType":"uint256"},{"name":"exists","type":"bool","internalType":"bool"}]}],"stateMutability":"view"},{"type":"function","name":"update","inputs":[{"name":"targetId","type":"bytes32","internalType":"bytes32"},{"name":"purpose","type":"string","internalType":"string"},{"name":"principles","type":"string","internalType":"string"},{"name":"description","type":"string","internalType":"string"}],"outputs":[],"stateMutability":"nonpayable"},{"type":"event","name":"Defined","inputs":[{"name":"targetId","type":"bytes32","indexed":true,"internalType":"bytes32"}],"anonymous":false},{"type":"event","name":"Updated","inputs":[{"name":"targetId","type":"bytes32","indexed":true,"internalType":"bytes32"}],"anonymous":false}],"bytecode":{"object":"0x608060405234801561000f575f80fd5b50610fe08061001d5f395ff3fe608060405234801561000f575f80fd5b5060043610610055575f3560e01c806306661abd1461005957806338a699a4146100775780635fa90723146100a75780638eaa6ac0146100c3578063e5936c10146100f3575b5f80fd5b61006161010f565b60405161006e9190610762565b60405180910390f35b610091600480360381019061008c91906107b6565b61011b565b60405161009e91906107fb565b60405180910390f35b6100c160048036038101906100bc9190610875565b610143565b005b6100dd60048036038101906100d891906107b6565b610230565b6040516100ea9190610a75565b60405180910390f35b61010d60048036038101906101089190610875565b610496565b005b5f600180549050905090565b5f805f8381526020019081526020015f206005015f9054906101000a900460ff169050919050565b5f808881526020019081526020015f206005015f9054906101000a900460ff166101a2576040517f08c379a000000000000000000000000000000000000000000000000000000000815260040161019990610aef565b60405180910390fd5b5f805f8981526020019081526020015f2090508686825f0191826101c7929190610d3e565b5084848260010191826101db929190610d3e565b5082828260020191826101ef929190610d3e565b50428160040181905550877fae7f59c2ef152eb4d4f56fcc655f53926d60b7e58e08ec8c79387e25adbf333160405160405180910390a25050505050505050565b610238610715565b5f808381526020019081526020015f206005015f9054906101000a900460ff16610297576040517f08c379a000000000000000000000000000000000000000000000000000000000815260040161028e90610aef565b60405180910390fd5b5f808381526020019081526020015f206040518060c00160405290815f820180546102c190610b71565b80601f01602080910402602001604051908101604052809291908181526020018280546102ed90610b71565b80156103385780601f1061030f57610100808354040283529160200191610338565b820191905f5260205f20905b81548152906001019060200180831161031b57829003601f168201915b5050505050815260200160018201805461035190610b71565b80601f016020809104026020016040519081016040528092919081815260200182805461037d90610b71565b80156103c85780601f1061039f576101008083540402835291602001916103c8565b820191905f5260205f20905b8154815290600101906020018083116103ab57829003601f168201915b505050505081526020016002820180546103e190610b71565b80601f016020809104026020016040519081016040528092919081815260200182805461040d90610b71565b80156104585780601f1061042f57610100808354040283529160200191610458565b820191905f5260205f20905b81548152906001019060200180831161043b57829003601f168201915b505050505081526020016003820154815260200160048201548152602001600582015f9054906101000a900460ff1615151515815250509050919050565b5f801b87036104da576040517f08c379a00000000000000000000000000000000000000000000000000000000081526004016104d190610e55565b60405180910390fd5b5f808881526020019081526020015f206005015f9054906101000a900460ff161561053a576040517f08c379a000000000000000000000000000000000000000000000000000000000815260040161053190610ebd565b60405180910390fd5b6040518060c0016040528087878080601f0160208091040260200160405190810160405280939291908181526020018383808284375f81840152601f19601f82011690508083019250505050505050815260200185858080601f0160208091040260200160405190810160405280939291908181526020018383808284375f81840152601f19601f82011690508083019250505050505050815260200183838080601f0160208091040260200160405190810160405280939291908181526020018383808284375f81840152601f19601f820116905080830192505050505050508152602001428152602001428152602001600115158152505f808981526020019081526020015f205f820151815f0190816106569190610edb565b50602082015181600101908161066c9190610edb565b5060408201518160020190816106829190610edb565b50606082015181600301556080820151816004015560a0820151816005015f6101000a81548160ff021916908315150217905550905050600187908060018154018082558091505060019003905f5260205f20015f9091909190915055867f931d511741085e8f861a138aa35025f5334a629f41f6dfef176c4e1efa62d9c860405160405180910390a250505050505050565b6040518060c001604052806060815260200160608152602001606081526020015f81526020015f81526020015f151581525090565b5f819050919050565b61075c8161074a565b82525050565b5f6020820190506107755f830184610753565b92915050565b5f80fd5b5f80fd5b5f819050919050565b61079581610783565b811461079f575f80fd5b50565b5f813590506107b08161078c565b92915050565b5f602082840312156107cb576107ca61077b565b5b5f6107d8848285016107a2565b91505092915050565b5f8115159050919050565b6107f5816107e1565b82525050565b5f60208201905061080e5f8301846107ec565b92915050565b5f80fd5b5f80fd5b5f80fd5b5f8083601f84011261083557610834610814565b5b8235905067ffffffffffffffff81111561085257610851610818565b5b60208301915083600182028301111561086e5761086d61081c565b5b9250929050565b5f805f805f805f6080888a0312156108905761088f61077b565b5b5f61089d8a828b016107a2565b975050602088013567ffffffffffffffff8111156108be576108bd61077f565b5b6108ca8a828b01610820565b9650965050604088013567ffffffffffffffff8111156108ed576108ec61077f565b5b6108f98a828b01610820565b9450945050606088013567ffffffffffffffff81111561091c5761091b61077f565b5b6109288a828b01610820565b925092505092959891949750929550565b5f81519050919050565b5f82825260208201905092915050565b5f5b83811015610970578082015181840152602081019050610955565b5f8484015250505050565b5f601f19601f8301169050919050565b5f61099582610939565b61099f8185610943565b93506109af818560208601610953565b6109b88161097b565b840191505092915050565b6109cc8161074a565b82525050565b6109db816107e1565b82525050565b5f60c083015f8301518482035f8601526109fb828261098b565b91505060208301518482036020860152610a15828261098b565b91505060408301518482036040860152610a2f828261098b565b9150506060830151610a4460608601826109c3565b506080830151610a5760808601826109c3565b5060a0830151610a6a60a08601826109d2565b508091505092915050565b5f6020820190508181035f830152610a8d81846109e1565b905092915050565b5f82825260208201905092915050565b7f496e74656e74206e6f7420666f756e64000000000000000000000000000000005f82015250565b5f610ad9601083610a95565b9150610ae482610aa5565b602082019050919050565b5f6020820190508181035f830152610b0681610acd565b9050919050565b5f82905092915050565b7f4e487b71000000000000000000000000000000000000000000000000000000005f52604160045260245ffd5b7f4e487b71000000000000000000000000000000000000000000000000000000005f52602260045260245ffd5b5f6002820490506001821680610b8857607f821691505b602082108103610b9b57610b9a610b44565b5b50919050565b5f819050815f5260205f209050919050565b5f6020601f8301049050919050565b5f82821b905092915050565b5f60088302610bfd7fffffffffffffffffffffffffffffffffffffffffffffffffffffffffffffffff82610bc2565b610c078683610bc2565b95508019841693508086168417925050509392505050565b5f819050919050565b5f610c42610c3d610c388461074a565b610c1f565b61074a565b9050919050565b5f819050919050565b610c5b83610c28565b610c6f610c6782610c49565b848454610bce565b825550505050565b5f90565b610c83610c77565b610c8e818484610c52565b505050565b5b81811015610cb157610ca65f82610c7b565b600181019050610c94565b5050565b601f821115610cf657610cc781610ba1565b610cd084610bb3565b81016020851015610cdf578190505b610cf3610ceb85610bb3565b830182610c93565b50505b505050565b5f82821c905092915050565b5f610d165f1984600802610cfb565b1980831691505092915050565b5f610d2e8383610d07565b9150826002028217905092915050565b610d488383610b0d565b67ffffffffffffffff811115610d6157610d60610b17565b5b610d6b8254610b71565b610d76828285610cb5565b5f601f831160018114610da3575f8415610d91578287013590505b610d9b8582610d23565b865550610e02565b601f198416610db186610ba1565b5f5b82811015610dd857848901358255600182019150602085019450602081019050610db3565b86831015610df55784890135610df1601f891682610d07565b8355505b6001600288020188555050505b50505050505050565b7f5461726765742049442063616e6e6f74206265207a65726f00000000000000005f82015250565b5f610e3f601883610a95565b9150610e4a82610e0b565b602082019050919050565b5f6020820190508181035f830152610e6c81610e33565b9050919050565b7f496e74656e7420616c726561647920646566696e6564000000000000000000005f82015250565b5f610ea7601683610a95565b9150610eb282610e73565b602082019050919050565b5f6020820190508181035f830152610ed481610e9b565b9050919050565b610ee482610939565b67ffffffffffffffff811115610efd57610efc610b17565b5b610f078254610b71565b610f12828285610cb5565b5f60209050601f831160018114610f43575f8415610f31578287015190505b610f3b8582610d23565b865550610fa2565b601f198416610f5186610ba1565b5f5b82811015610f7857848901518255600182019150602085019450602081019050610f53565b86831015610f955784890151610f91601f891682610d07565b8355505b6001600288020188555050505b50505050505056fea264697066735822122007bb9d60b81cefcbceb38c73252fed130e82ad2a2a6bb773963e23f8b724b36b64736f6c63430008140033","linkReferences":{}},"methodIdentifiers":{"count()":"06661abd","defineIntent(bytes32,string,string,string)":"e5936c10","exists(bytes32)":"38a699a4","get(bytes32)":"8eaa6ac0","update(bytes32,string,string,string)":"5fa90723"},"id":149}