{"abi":[{"type":"function","name":"connect","inputs":[{"name":"from","type":"bytes32","internalType":"bytes32"},{"name":"to","type":"bytes32","internalType":"bytes32"},{"name":"relation","type":"string","internalType":"string"},{"name":"transformName","type":"string","internalType":"string"}],"outputs":[{"name":"","type":"bool","internalType":"bool"}],"stateMutability":"nonpayable"},{"type":"function","name":"consumers","inputs":[{"name":"kind","type":"bytes32","internalType":"bytes32"}],"outputs":[{"name":"","type":"tuple","internalType":"struct KindSystem.ConsumersOkResult","components":[{"name":"success","type":"bool","internalType":"bool"},{"name":"transforms","type":"bytes[]","internalType":"bytes[]"}]}],"stateMutability":"nonpayable"},{"type":"function","name":"defineKind","inputs":[{"name":"name","type":"string","internalType":"string"},{"name":"category","type":"string","internalType":"string"}],"outputs":[{"name":"","type":"tuple","internalType":"struct KindSystem.DefineOkResult","components":[{"name":"success","type":"bool","internalType":"bool"},{"name":"kind","type":"bytes32","internalType":"bytes32"}]}],"stateMutability":"nonpayable"},{"type":"function","name":"dependents","inputs":[{"name":"kind","type":"bytes32","internalType":"bytes32"}],"outputs":[{"name":"","type":"tuple","internalType":"struct KindSystem.DependentsOkResult","components":[{"name":"success","type":"bool","internalType":"bool"},{"name":"downstream","type":"bytes32[]","internalType":"bytes32[]"}]}],"stateMutability":"nonpayable"},{"type":"function","name":"graph","inputs":[],"outputs":[{"name":"","type":"tuple","internalType":"struct KindSystem.GraphOkResult","components":[{"name":"success","type":"bool","internalType":"bool"},{"name":"kinds","type":"bytes[]","internalType":"bytes[]"},{"name":"edges","type":"bytes[]","internalType":"bytes[]"}]}],"stateMutability":"nonpayable"},{"type":"function","name":"producers","inputs":[{"name":"kind","type":"bytes32","internalType":"bytes32"}],"outputs":[{"name":"","type":"tuple","internalType":"struct KindSystem.ProducersOkResult","components":[{"name":"success","type":"bool","internalType":"bool"},{"name":"transforms","type":"bytes[]","internalType":"bytes[]"}]}],"stateMutability":"nonpayable"},{"type":"function","name":"route","inputs":[{"name":"from","type":"bytes32","internalType":"bytes32"},{"name":"to","type":"bytes32","internalType":"bytes32"}],"outputs":[{"name":"","type":"tuple","internalType":"struct KindSystem.RouteOkResult","components":[{"name":"success","type":"bool","internalType":"bool"},{"name":"path","type":"bytes[]","internalType":"bytes[]"}]}],"stateMutability":"nonpayable"},{"type":"function","name":"validate","inputs":[{"name":"from","type":"bytes32","internalType":"bytes32"},{"name":"to","type":"bytes32","internalType":"bytes32"}],"outputs":[{"name":"","type":"bool","internalType":"bool"}],"stateMutability":"nonpayable"},{"type":"event","name":"ConnectCompleted","inputs":[{"name":"variant","type":"string","indexed":false,"internalType":"string"}],"anonymous":false},{"type":"event","name":"ConsumersCompleted","inputs":[{"name":"variant","type":"string","indexed":false,"internalType":"string"},{"name":"transforms","type":"bytes[]","indexed":false,"internalType":"bytes[]"}],"anonymous":false},{"type":"event","name":"DefineCompleted","inputs":[{"name":"variant","type":"string","indexed":false,"internalType":"string"},{"name":"kind","type":"bytes32","indexed":false,"internalType":"bytes32"}],"anonymous":false},{"type":"event","name":"DependentsCompleted","inputs":[{"name":"variant","type":"string","indexed":false,"internalType":"string"},{"name":"downstream","type":"bytes32[]","indexed":false,"internalType":"bytes32[]"}],"anonymous":false},{"type":"event","name":"GraphCompleted","inputs":[{"name":"variant","type":"string","indexed":false,"internalType":"string"},{"name":"kinds","type":"bytes[]","indexed":false,"internalType":"bytes[]"},{"name":"edges","type":"bytes[]","indexed":false,"internalType":"bytes[]"}],"anonymous":false},{"type":"event","name":"ProducersCompleted","inputs":[{"name":"variant","type":"string","indexed":false,"internalType":"string"},{"name":"transforms","type":"bytes[]","indexed":false,"internalType":"bytes[]"}],"anonymous":false},{"type":"event","name":"RouteCompleted","inputs":[{"name":"variant","type":"string","indexed":false,"internalType":"string"},{"name":"path","type":"bytes[]","indexed":false,"internalType":"bytes[]"}],"anonymous":false},{"type":"event","name":"ValidateCompleted","inputs":[{"name":"variant","type":"string","indexed":false,"internalType":"string"}],"anonymous":false}],"bytecode":{"object":"0x608060405234801561000f575f80fd5b50612e408061001d5f395ff3fe608060405234801561000f575f80fd5b5060043610610086575f3560e01c80639b1c7543116100595780639b1c75431461014a5780639e12231b1461017a578063a09304c7146101aa578063bf20f502146101da57610086565b80630238120e1461008a57806341f23c47146100ba5780635220a472146100ea5780637035213f1461011a575b5f80fd5b6100a4600480360381019061009f9190611b67565b6101f8565b6040516100b19190611c9d565b60405180910390f35b6100d460048036038101906100cf9190611cbd565b610446565b6040516100e19190611d0a565b60405180910390f35b61010460048036038101906100ff9190611e5f565b610632565b6040516101119190611f02565b60405180910390f35b610134600480360381019061012f9190611f1b565b610853565b6040516101419190611d0a565b60405180910390f35b610164600480360381019061015f9190611b67565b610b99565b6040516101719190612126565b60405180910390f35b610194600480360381019061018f9190611cbd565b610e03565b6040516101a19190612180565b60405180910390f35b6101c460048036038101906101bf9190611b67565b611470565b6040516101d191906121da565b60405180910390f35b6101e26116d9565b6040516101ef919061224e565b60405180910390f35b610200611a78565b60025f8381526020019081526020015f205f9054906101000a900460ff1661025d576040517f08c379a0000000000000000000000000000000000000000000000000000000008152600401610254906122c8565b60405180910390fd5b5f60065f8481526020019081526020015f2090505f805b82805490508110156102e05760055f848381548110610296576102956122e6565b5b905f5260205f20015481526020019081526020015f205f9054906101000a900460ff16156102cd5781806102c990612349565b9250505b80806102d890612349565b915050610274565b505f8167ffffffffffffffff8111156102fc576102fb611d3b565b5b60405190808252806020026020018201604052801561032a5781602001602082028036833780820191505090505b5090505f805b84805490508110156103eb5760055f868381548110610352576103516122e6565b5b905f5260205f20015481526020019081526020015f205f9054906101000a900460ff16156103d85760035f8683815481106103905761038f6122e6565b5b905f5260205f20015481526020019081526020015f20600101548383815181106103bd576103bc6122e6565b5b60200260200101818152505081806103d490612349565b9250505b80806103e390612349565b915050610330565b507f299e57de516cc26faca3a59b1b7e3ccbc1a64080d36a44f3cfd54b2385d8104c8260405161041b9190612446565b60405180910390a1604051806040016040528060011515815260200183815250945050505050919050565b5f60025f8481526020019081526020015f205f9054906101000a900460ff166104a4576040517f08c379a000000000000000000000000000000000000000000000000000000000815260040161049b906124c3565b60405180910390fd5b60025f8381526020019081526020015f205f9054906101000a900460ff16610501576040517f08c379a00000000000000000000000000000000000000000000000000000000081526004016104f89061252b565b60405180910390fd5b5f60065f8581526020019081526020015f2090505f5b81805490508110156105f15760055f838381548110610539576105386122e6565b5b905f5260205f20015481526020019081526020015f205f9054906101000a900460ff16156105de575f60035f848481548110610578576105776122e6565b5b905f5260205f20015481526020019081526020015f209050848160010154036105dc577fcf6a624bd095331340939ed5145f1ed6ecc713d0a0a9e465a3962adac191830d6040516105c890612549565b60405180910390a16001935050505061062c565b505b80806105e990612349565b915050610517565b507fcf6a624bd095331340939ed5145f1ed6ecc713d0a0a9e465a3962adac191830d60405161061f906125b1565b60405180910390a15f9150505b92915050565b61063a611a93565b5f83511161067d576040517f08c379a000000000000000000000000000000000000000000000000000000000815260040161067490612619565b60405180910390fd5b5f8360405160200161068f91906126c5565b60405160208183030381529060405280519060200120905060025f8281526020019081526020015f205f9054906101000a900460ff1615610721577f0aee5310641eaf2eaf388fe3fda83de498f247bde5dd3f7477b273447e8b1629816040516106f9919061273f565b60405180910390a160405180604001604052806001151581526020018281525091505061084d565b6040518060800160405280858152602001848152602001428152602001600115158152505f808381526020019081526020015f205f820151815f0190816107689190612965565b50602082015181600101908161077e9190612965565b50604082015181600201556060820151816003015f6101000a81548160ff021916908315150217905550905050600160025f8381526020019081526020015f205f6101000a81548160ff021916908315150217905550600181908060018154018082558091505060019003905f5260205f20015f90919091909150557f0aee5310641eaf2eaf388fe3fda83de498f247bde5dd3f7477b273447e8b1629816040516108299190612a34565b60405180910390a16040518060400160405280600115158152602001828152509150505b92915050565b5f60025f8681526020019081526020015f205f9054906101000a900460ff166108b1576040517f08c379a00000000000000000000000000000000000000000000000000000000081526004016108a8906124c3565b60405180910390fd5b60025f8581526020019081526020015f205f9054906101000a900460ff1661090e576040517f08c379a00000000000000000000000000000000000000000000000000000000081526004016109059061252b565b60405180910390fd5b838503610950576040517f08c379a000000000000000000000000000000000000000000000000000000000815260040161094790612aaa565b60405180910390fd5b5f85858560405160200161096693929190612ae8565b60405160208183030381529060405280519060200120905060055f8281526020019081526020015f205f9054906101000a900460ff1615610a02578260035f8381526020019081526020015f2060030190816109c29190612965565b507f11adfbcbd3e69f07abca39142737de50c9b35d1bec1a675f7e66c7d21e6ddb6c6040516109f090612549565b60405180910390a16001915050610b91565b6040518060a001604052808781526020018681526020018581526020018481526020016001151581525060035f8381526020019081526020015f205f820151815f0155602082015181600101556040820151816002019081610a649190612965565b506060820151816003019081610a7a9190612965565b506080820151816004015f6101000a81548160ff021916908315150217905550905050600160055f8381526020019081526020015f205f6101000a81548160ff021916908315150217905550600481908060018154018082558091505060019003905f5260205f20015f909190919091505560065f8781526020019081526020015f2081908060018154018082558091505060019003905f5260205f20015f909190919091505560075f8681526020019081526020015f2081908060018154018082558091505060019003905f5260205f20015f90919091909150557f11adfbcbd3e69f07abca39142737de50c9b35d1bec1a675f7e66c7d21e6ddb6c604051610b8390612549565b60405180910390a160019150505b949350505050565b610ba1611ab0565b60025f8381526020019081526020015f205f9054906101000a900460ff16610bfe576040517f08c379a0000000000000000000000000000000000000000000000000000000008152600401610bf5906122c8565b60405180910390fd5b5f60065f8481526020019081526020015f2090505f805b8280549050811015610c815760055f848381548110610c3757610c366122e6565b5b905f5260205f20015481526020019081526020015f205f9054906101000a900460ff1615610c6e578180610c6a90612349565b9250505b8080610c7990612349565b915050610c15565b505f8167ffffffffffffffff811115610c9d57610c9c611d3b565b5b604051908082528060200260200182016040528015610cd057816020015b6060815260200190600190039081610cbb5790505b5090505f805b8480549050811015610da8575f858281548110610cf657610cf56122e6565b5b905f5260205f200154905060055f8281526020019081526020015f205f9054906101000a900460ff1615610d94575f60035f8381526020019081526020015f20905080600101548160030182600201604051602001610d5793929190612ba1565b604051602081830303815290604052858581518110610d7957610d786122e6565b5b60200260200101819052508380610d8f90612349565b945050505b508080610da090612349565b915050610cd6565b507f99c67f44cf54e4038b74d68313954d6e12b1c0af09edeefdd3507592147524ff82604051610dd89190612c67565b60405180910390a1604051806040016040528060011515815260200183815250945050505050919050565b610e0b611acb565b60025f8481526020019081526020015f205f9054906101000a900460ff16610e68576040517f08c379a0000000000000000000000000000000000000000000000000000000008152600401610e5f906124c3565b60405180910390fd5b60025f8381526020019081526020015f205f9054906101000a900460ff16610ec5576040517f08c379a0000000000000000000000000000000000000000000000000000000008152600401610ebc9061252b565b60405180910390fd5b818303610fb3575f600167ffffffffffffffff811115610ee857610ee7611d3b565b5b604051908082528060200260200182016040528015610f1b57816020015b6060815260200190600190039081610f065790505b50905083604051602001610f2f9190612c9a565b604051602081830303815290604052815f81518110610f5157610f506122e6565b5b60200260200101819052507fd67da7728a66cee111554473dc40b73a23879c375482b46a302bc0d6034cc8c581604051610f8b9190612c67565b60405180910390a160405180604001604052806001151581526020018281525091505061146a565b5f600a90505f6002600180549050610fcb9190612cb3565b67ffffffffffffffff811115610fe457610fe3611d3b565b5b6040519080825280602002602001820160405280156110125781602001602082028036833780820191505090505b5090505f60018054905067ffffffffffffffff81111561103557611034611d3b565b5b6040519080825280602002602001820160405280156110635781602001602082028036833780820191505090505b5090505f805f8885828061107690612349565b935081518110611089576110886122e6565b5b602002602001018181525050888484806110a290612349565b9550815181106110b5576110b46122e6565b5b6020026020010181815250505f5b81831080156110e15750600180549050876110de9190612cb3565b83105b1561128d575f8684806110f390612349565b955081518110611106576111056122e6565b5b602002602001015190505f60065f8381526020019081526020015f2090505f5b81805490508110156112785760055f838381548110611148576111476122e6565b5b905f5260205f20015481526020019081526020015f205f9054906101000a900460ff1615611265575f60035f848481548110611187576111866122e6565b5b905f5260205f20015481526020019081526020015f2090505f816001015490505f805b8a8110156111ef57828c82815181106111c6576111c56122e6565b5b6020026020010151036111dc57600191506111ef565b80806111e790612349565b9150506111aa565b508061126157818b8b8061120290612349565b9c5081518110611215576112146122e6565b5b602002602001018181525050818c898061122e90612349565b9a5081518110611241576112406122e6565b5b6020026020010181815250508e82036112605760019650505050611278565b5b5050505b808061127090612349565b915050611126565b50821561128657505061128d565b50506110c3565b80156113c0575f600267ffffffffffffffff8111156112af576112ae611d3b565b5b6040519080825280602002602001820160405280156112e257816020015b60608152602001906001900390816112cd5790505b5090508a6040516020016112f69190612c9a565b604051602081830303815290604052815f81518110611318576113176122e6565b5b6020026020010181905250896040516020016113349190612c9a565b60405160208183030381529060405281600181518110611357576113566122e6565b5b60200260200101819052507fd67da7728a66cee111554473dc40b73a23879c375482b46a302bc0d6034cc8c5816040516113919190612c67565b60405180910390a16040518060400160405280600115158152602001828152509850505050505050505061146a565b5f8067ffffffffffffffff8111156113db576113da611d3b565b5b60405190808252806020026020018201604052801561140e57816020015b60608152602001906001900390816113f95790505b5090507fd67da7728a66cee111554473dc40b73a23879c375482b46a302bc0d6034cc8c5816040516114409190612d3e565b60405180910390a160405180604001604052805f1515815260200182815250985050505050505050505b92915050565b611478611ae6565b60025f8381526020019081526020015f205f9054906101000a900460ff166114d5576040517f08c379a00000000000000000000000000000000000000000000000000000000081526004016114cc906122c8565b60405180910390fd5b5f60075f8481526020019081526020015f2090505f805b82805490508110156115585760055f84838154811061150e5761150d6122e6565b5b905f5260205f20015481526020019081526020015f205f9054906101000a900460ff161561154557818061154190612349565b9250505b808061155090612349565b9150506114ec565b505f8167ffffffffffffffff81111561157457611573611d3b565b5b6040519080825280602002602001820160405280156115a757816020015b60608152602001906001900390816115925790505b5090505f805b848054905081101561167e575f8582815481106115cd576115cc6122e6565b5b905f5260205f200154905060055f8281526020019081526020015f205f9054906101000a900460ff161561166a575f60035f8381526020019081526020015f209050805f0154816003018260020160405160200161162d93929190612ba1565b60405160208183030381529060405285858151811061164f5761164e6122e6565b5b6020026020010181905250838061166590612349565b945050505b50808061167690612349565b9150506115ad565b507f548836c3162e2372a01f86296fadb25436dfe16a724728db1566c162988c95cf826040516116ae9190612c67565b60405180910390a1604051806040016040528060011515815260200183815250945050505050919050565b6116e1611b01565b5f805b6001805490508110156117525760025f60018381548110611708576117076122e6565b5b905f5260205f20015481526020019081526020015f205f9054906101000a900460ff161561173f57818061173b90612349565b9250505b808061174a90612349565b9150506116e4565b505f805b6004805490508110156117c45760055f6004838154811061177a576117796122e6565b5b905f5260205f20015481526020019081526020015f205f9054906101000a900460ff16156117b15781806117ad90612349565b9250505b80806117bc90612349565b915050611756565b505f8267ffffffffffffffff8111156117e0576117df611d3b565b5b60405190808252806020026020018201604052801561181357816020015b60608152602001906001900390816117fe5790505b5090505f805b6001805490508110156118e7575f6001828154811061183b5761183a6122e6565b5b905f5260205f200154905060025f8281526020019081526020015f205f9054906101000a900460ff16156118d3575f805f8381526020019081526020015f20905081815f018260010160405160200161189693929190612ba1565b6040516020818303038152906040528585815181106118b8576118b76122e6565b5b602002602001018190525083806118ce90612349565b945050505b5080806118df90612349565b915050611819565b505f8367ffffffffffffffff81111561190357611902611d3b565b5b60405190808252806020026020018201604052801561193657816020015b60608152602001906001900390816119215790505b5090505f805b600480549050811015611a15575f6004828154811061195e5761195d6122e6565b5b905f5260205f200154905060055f8281526020019081526020015f205f9054906101000a900460ff1615611a01575f60035f8381526020019081526020015f209050805f0154816001015482600201836003016040516020016119c49493929190612d71565b6040516020818303038152906040528585815181106119e6576119e56122e6565b5b602002602001018190525083806119fc90612349565b945050505b508080611a0d90612349565b91505061193c565b507f201b33f35af7ae93d779c06f070df8c53285838fb6f9c6ef86fa45ef9d13b13b8483604051611a47929190612dc2565b60405180910390a1604051806060016040528060011515815260200185815260200183815250965050505050505090565b60405180604001604052805f15158152602001606081525090565b60405180604001604052805f151581526020015f80191681525090565b60405180604001604052805f15158152602001606081525090565b60405180604001604052805f15158152602001606081525090565b60405180604001604052805f15158152602001606081525090565b60405180606001604052805f1515815260200160608152602001606081525090565b5f604051905090565b5f80fd5b5f80fd5b5f819050919050565b611b4681611b34565b8114611b50575f80fd5b50565b5f81359050611b6181611b3d565b92915050565b5f60208284031215611b7c57611b7b611b2c565b5b5f611b8984828501611b53565b91505092915050565b5f8115159050919050565b611ba681611b92565b82525050565b5f81519050919050565b5f82825260208201905092915050565b5f819050602082019050919050565b611bde81611b34565b82525050565b5f611bef8383611bd5565b60208301905092915050565b5f602082019050919050565b5f611c1182611bac565b611c1b8185611bb6565b9350611c2683611bc6565b805f5b83811015611c56578151611c3d8882611be4565b9750611c4883611bfb565b925050600181019050611c29565b5085935050505092915050565b5f604083015f830151611c785f860182611b9d565b5060208301518482036020860152611c908282611c07565b9150508091505092915050565b5f6020820190508181035f830152611cb58184611c63565b905092915050565b5f8060408385031215611cd357611cd2611b2c565b5b5f611ce085828601611b53565b9250506020611cf185828601611b53565b9150509250929050565b611d0481611b92565b82525050565b5f602082019050611d1d5f830184611cfb565b92915050565b5f80fd5b5f80fd5b5f601f19601f8301169050919050565b7f4e487b71000000000000000000000000000000000000000000000000000000005f52604160045260245ffd5b611d7182611d2b565b810181811067ffffffffffffffff82111715611d9057611d8f611d3b565b5b80604052505050565b5f611da2611b23565b9050611dae8282611d68565b919050565b5f67ffffffffffffffff821115611dcd57611dcc611d3b565b5b611dd682611d2b565b9050602081019050919050565b828183375f83830152505050565b5f611e03611dfe84611db3565b611d99565b905082815260208101848484011115611e1f57611e1e611d27565b5b611e2a848285611de3565b509392505050565b5f82601f830112611e4657611e45611d23565b5b8135611e56848260208601611df1565b91505092915050565b5f8060408385031215611e7557611e74611b2c565b5b5f83013567ffffffffffffffff811115611e9257611e91611b30565b5b611e9e85828601611e32565b925050602083013567ffffffffffffffff811115611ebf57611ebe611b30565b5b611ecb85828601611e32565b9150509250929050565b604082015f820151611ee95f850182611b9d565b506020820151611efc6020850182611bd5565b50505050565b5f604082019050611f155f830184611ed5565b92915050565b5f805f8060808587031215611f3357611f32611b2c565b5b5f611f4087828801611b53565b9450506020611f5187828801611b53565b935050604085013567ffffffffffffffff811115611f7257611f71611b30565b5b611f7e87828801611e32565b925050606085013567ffffffffffffffff811115611f9f57611f9e611b30565b5b611fab87828801611e32565b91505092959194509250565b5f81519050919050565b5f82825260208201905092915050565b5f819050602082019050919050565b5f81519050919050565b5f82825260208201905092915050565b5f5b83811015612017578082015181840152602081019050611ffc565b5f8484015250505050565b5f61202c82611fe0565b6120368185611fea565b9350612046818560208601611ffa565b61204f81611d2b565b840191505092915050565b5f6120658383612022565b905092915050565b5f602082019050919050565b5f61208382611fb7565b61208d8185611fc1565b93508360208202850161209f85611fd1565b805f5b858110156120da57848403895281516120bb858261205a565b94506120c68361206d565b925060208a019950506001810190506120a2565b50829750879550505050505092915050565b5f604083015f8301516121015f860182611b9d565b50602083015184820360208601526121198282612079565b9150508091505092915050565b5f6020820190508181035f83015261213e81846120ec565b905092915050565b5f604083015f83015161215b5f860182611b9d565b50602083015184820360208601526121738282612079565b9150508091505092915050565b5f6020820190508181035f8301526121988184612146565b905092915050565b5f604083015f8301516121b55f860182611b9d565b50602083015184820360208601526121cd8282612079565b9150508091505092915050565b5f6020820190508181035f8301526121f281846121a0565b905092915050565b5f606083015f83015161220f5f860182611b9d565b50602083015184820360208601526122278282612079565b915050604083015184820360408601526122418282612079565b9150508091505092915050565b5f6020820190508181035f83015261226681846121fa565b905092915050565b5f82825260208201905092915050565b7f4b696e64206e6f7420666f756e640000000000000000000000000000000000005f82015250565b5f6122b2600e8361226e565b91506122bd8261227e565b602082019050919050565b5f6020820190508181035f8301526122df816122a6565b9050919050565b7f4e487b71000000000000000000000000000000000000000000000000000000005f52603260045260245ffd5b7f4e487b71000000000000000000000000000000000000000000000000000000005f52601160045260245ffd5b5f819050919050565b5f61235382612340565b91507fffffffffffffffffffffffffffffffffffffffffffffffffffffffffffffffff820361238557612384612313565b5b600182019050919050565b7f6f6b0000000000000000000000000000000000000000000000000000000000005f82015250565b5f6123c460028361226e565b91506123cf82612390565b602082019050919050565b5f82825260208201905092915050565b5f6123f482611bac565b6123fe81856123da565b935061240983611bc6565b805f5b838110156124395781516124208882611be4565b975061242b83611bfb565b92505060018101905061240c565b5085935050505092915050565b5f6040820190508181035f83015261245d816123b8565b9050818103602083015261247181846123ea565b905092915050565b7f536f75726365206b696e64206e6f7420666f756e6400000000000000000000005f82015250565b5f6124ad60158361226e565b91506124b882612479565b602082019050919050565b5f6020820190508181035f8301526124da816124a1565b9050919050565b7f546172676574206b696e64206e6f7420666f756e6400000000000000000000005f82015250565b5f61251560158361226e565b9150612520826124e1565b602082019050919050565b5f6020820190508181035f83015261254281612509565b9050919050565b5f6020820190508181035f830152612560816123b8565b9050919050565b7f696e76616c6964000000000000000000000000000000000000000000000000005f82015250565b5f61259b60078361226e565b91506125a682612567565b602082019050919050565b5f6020820190508181035f8301526125c88161258f565b9050919050565b7f4e616d65206d757374206e6f7420626520656d707479000000000000000000005f82015250565b5f61260360168361226e565b915061260e826125cf565b602082019050919050565b5f6020820190508181035f830152612630816125f7565b9050919050565b5f81905092915050565b7f6b696e643a0000000000000000000000000000000000000000000000000000005f82015250565b5f612675600583612637565b915061268082612641565b600582019050919050565b5f81519050919050565b5f61269f8261268b565b6126a98185612637565b93506126b9818560208601611ffa565b80840191505092915050565b5f6126cf82612669565b91506126db8284612695565b915081905092915050565b7f65786973747300000000000000000000000000000000000000000000000000005f82015250565b5f61271a60068361226e565b9150612725826126e6565b602082019050919050565b61273981611b34565b82525050565b5f6040820190508181035f8301526127568161270e565b90506127656020830184612730565b92915050565b7f4e487b71000000000000000000000000000000000000000000000000000000005f52602260045260245ffd5b5f60028204905060018216806127af57607f821691505b6020821081036127c2576127c161276b565b5b50919050565b5f819050815f5260205f209050919050565b5f6020601f8301049050919050565b5f82821b905092915050565b5f600883026128247fffffffffffffffffffffffffffffffffffffffffffffffffffffffffffffffff826127e9565b61282e86836127e9565b95508019841693508086168417925050509392505050565b5f819050919050565b5f61286961286461285f84612340565b612846565b612340565b9050919050565b5f819050919050565b6128828361284f565b61289661288e82612870565b8484546127f5565b825550505050565b5f90565b6128aa61289e565b6128b5818484612879565b505050565b5b818110156128d8576128cd5f826128a2565b6001810190506128bb565b5050565b601f82111561291d576128ee816127c8565b6128f7846127da565b81016020851015612906578190505b61291a612912856127da565b8301826128ba565b50505b505050565b5f82821c905092915050565b5f61293d5f1984600802612922565b1980831691505092915050565b5f612955838361292e565b9150826002028217905092915050565b61296e8261268b565b67ffffffffffffffff81111561298757612986611d3b565b5b6129918254612798565b61299c8282856128dc565b5f60209050601f8311600181146129cd575f84156129bb578287015190505b6129c5858261294a565b865550612a2c565b601f1984166129db866127c8565b5f5b82811015612a02578489015182556001820191506020850194506020810190506129dd565b86831015612a1f5784890151612a1b601f89168261292e565b8355505b6001600288020188555050505b505050505050565b5f6040820190508181035f830152612a4b816123b8565b9050612a5a6020830184612730565b92915050565b7f43616e6e6f7420636f6e6e6563742061206b696e6420746f20697473656c66005f82015250565b5f612a94601f8361226e565b9150612a9f82612a60565b602082019050919050565b5f6020820190508181035f830152612ac181612a88565b9050919050565b5f819050919050565b612ae2612add82611b34565b612ac8565b82525050565b5f612af38286612ad1565b602082019150612b038285612ad1565b602082019150612b138284612695565b9150819050949350505050565b5f8154612b2c81612798565b612b36818661226e565b9450600182165f8114612b505760018114612b6657612b98565b60ff198316865281151560200286019350612b98565b612b6f856127c8565b5f5b83811015612b9057815481890152600182019150602081019050612b71565b808801955050505b50505092915050565b5f606082019050612bb45f830186612730565b8181036020830152612bc68185612b20565b90508181036040830152612bda8184612b20565b9050949350505050565b5f82825260208201905092915050565b5f612bfe82611fb7565b612c088185612be4565b935083602082028501612c1a85611fd1565b805f5b85811015612c555784840389528151612c36858261205a565b9450612c418361206d565b925060208a01995050600181019050612c1d565b50829750879550505050505092915050565b5f6040820190508181035f830152612c7e816123b8565b90508181036020830152612c928184612bf4565b905092915050565b5f602082019050612cad5f830184612730565b92915050565b5f612cbd82612340565b9150612cc883612340565b9250828202612cd681612340565b91508282048414831517612ced57612cec612313565b5b5092915050565b7f756e726561636861626c650000000000000000000000000000000000000000005f82015250565b5f612d28600b8361226e565b9150612d3382612cf4565b602082019050919050565b5f6040820190508181035f830152612d5581612d1c565b90508181036020830152612d698184612bf4565b905092915050565b5f608082019050612d845f830187612730565b612d916020830186612730565b8181036040830152612da38185612b20565b90508181036060830152612db78184612b20565b905095945050505050565b5f6060820190508181035f830152612dd9816123b8565b90508181036020830152612ded8185612bf4565b90508181036040830152612e018184612bf4565b9050939250505056fea2646970667358221220c150a6ada94646db08ac776d5b2af44a29762c49622c7003089dd2d709172f3364736f6c63430008140033","linkReferences":{}},"methodIdentifiers":{"connect(bytes32,bytes32,string,string)":"7035213f","consumers(bytes32)":"9b1c7543","defineKind(string,string)":"5220a472","dependents(bytes32)":"0238120e","graph()":"bf20f502","producers(bytes32)":"a09304c7","route(bytes32,bytes32)":"9e12231b","validate(bytes32,bytes32)":"41f23c47"},"id":156}