{"abi":[{"type":"function","name":"compute","inputs":[{"name":"contentA","type":"bytes","internalType":"bytes"},{"name":"contentB","type":"bytes","internalType":"bytes"}],"outputs":[{"name":"editScript","type":"bytes","internalType":"bytes"},{"name":"distance","type":"uint256","internalType":"uint256"}],"stateMutability":"nonpayable"},{"type":"function","name":"register","inputs":[],"outputs":[{"name":"name","type":"string","internalType":"string"},{"name":"category","type":"string","internalType":"string"},{"name":"contentTypes","type":"string[]","internalType":"string[]"}],"stateMutability":"pure"},{"type":"event","name":"Computed","inputs":[{"name":"hashA","type":"bytes32","indexed":true,"internalType":"bytes32"},{"name":"hashB","type":"bytes32","indexed":true,"internalType":"bytes32"},{"name":"distance","type":"uint256","indexed":false,"internalType":"uint256"}],"anonymous":false}],"bytecode":{"object":"0x608060405234801561000f575f80fd5b506108558061001d5f395ff3fe608060405234801561000f575f80fd5b5060043610610034575f3560e01c80631aa3a008146100385780635f8f8a3c14610058575b5f80fd5b610040610089565b60405161004f939291906104db565b60405180910390f35b610072600480360381019061006d919061058e565b610252565b604051610080929190610676565b60405180910390f35b60608060606040518060400160405280600581526020017f6d7965727300000000000000000000000000000000000000000000000000000081525092506040518060400160405280600481526020017f64696666000000000000000000000000000000000000000000000000000000008152509150600367ffffffffffffffff811115610119576101186106a4565b5b60405190808252806020026020018201604052801561014c57816020015b60608152602001906001900390816101375790505b5090506040518060400160405280600a81526020017f746578742f706c61696e00000000000000000000000000000000000000000000815250815f81518110610198576101976106d1565b5b60200260200101819052506040518060400160405280600681526020017f746578742f2a0000000000000000000000000000000000000000000000000000815250816001815181106101ed576101ec6106d1565b5b60200260200101819052506040518060400160405280601881526020017f6170706c69636174696f6e2f6f637465742d73747265616d000000000000000081525081600281518110610242576102416106d1565b5b6020026020010181905250909192565b60605f80868660405161026692919061073a565b604051809103902090505f858560405161028192919061073a565b604051809103902090508082036102ae575f60405180602001604052805f81525090935093505050610345565b5f8888905090505f8787905090508082116102d45781816102cf919061077f565b6102e1565b80826102e0919061077f565b5b945083836040516020016102f69291906107db565b604051602081830303815290604052955082847f65b6624627b2809e78e020c22b5d0d71a1f0020cd803a361c2a4b65fcff59f46876040516103389190610806565b60405180910390a3505050505b94509492505050565b5f81519050919050565b5f82825260208201905092915050565b5f5b8381101561038557808201518184015260208101905061036a565b5f8484015250505050565b5f601f19601f8301169050919050565b5f6103aa8261034e565b6103b48185610358565b93506103c4818560208601610368565b6103cd81610390565b840191505092915050565b5f81519050919050565b5f82825260208201905092915050565b5f819050602082019050919050565b5f82825260208201905092915050565b5f61041b8261034e565b6104258185610401565b9350610435818560208601610368565b61043e81610390565b840191505092915050565b5f6104548383610411565b905092915050565b5f602082019050919050565b5f610472826103d8565b61047c81856103e2565b93508360208202850161048e856103f2565b805f5b858110156104c957848403895281516104aa8582610449565b94506104b58361045c565b925060208a01995050600181019050610491565b50829750879550505050505092915050565b5f6060820190508181035f8301526104f381866103a0565b9050818103602083015261050781856103a0565b9050818103604083015261051b8184610468565b9050949350505050565b5f80fd5b5f80fd5b5f80fd5b5f80fd5b5f80fd5b5f8083601f84011261054e5761054d61052d565b5b8235905067ffffffffffffffff81111561056b5761056a610531565b5b60208301915083600182028301111561058757610586610535565b5b9250929050565b5f805f80604085870312156105a6576105a5610525565b5b5f85013567ffffffffffffffff8111156105c3576105c2610529565b5b6105cf87828801610539565b9450945050602085013567ffffffffffffffff8111156105f2576105f1610529565b5b6105fe87828801610539565b925092505092959194509250565b5f81519050919050565b5f82825260208201905092915050565b5f6106308261060c565b61063a8185610616565b935061064a818560208601610368565b61065381610390565b840191505092915050565b5f819050919050565b6106708161065e565b82525050565b5f6040820190508181035f83015261068e8185610626565b905061069d6020830184610667565b9392505050565b7f4e487b71000000000000000000000000000000000000000000000000000000005f52604160045260245ffd5b7f4e487b71000000000000000000000000000000000000000000000000000000005f52603260045260245ffd5b5f81905092915050565b828183375f83830152505050565b5f61072183856106fe565b935061072e838584610708565b82840190509392505050565b5f610746828486610716565b91508190509392505050565b7f4e487b71000000000000000000000000000000000000000000000000000000005f52601160045260245ffd5b5f6107898261065e565b91506107948361065e565b92508282039050818111156107ac576107ab610752565b5b92915050565b5f819050919050565b5f819050919050565b6107d56107d0826107b2565b6107bb565b82525050565b5f6107e682856107c4565b6020820191506107f682846107c4565b6020820191508190509392505050565b5f6020820190506108195f830184610667565b9291505056fea264697066735822122070f51e8ec9e5cd699714b907cfc05e182ceb7145e51c03064ecf644026a2f45b64736f6c63430008140033","linkReferences":{}},"methodIdentifiers":{"compute(bytes,bytes)":"5f8f8a3c","register()":"1aa3a008"},"id":175}