{"abi":[{"type":"function","name":"conceptExists","inputs":[{"name":"conceptId","type":"bytes32","internalType":"bytes32"}],"outputs":[{"name":"","type":"bool","internalType":"bool"}],"stateMutability":"view"},{"type":"function","name":"deregister","inputs":[{"name":"uri","type":"string","internalType":"string"}],"outputs":[{"name":"","type":"bool","internalType":"bool"}],"stateMutability":"nonpayable"},{"type":"function","name":"get","inputs":[{"name":"conceptId","type":"bytes32","internalType":"bytes32"}],"outputs":[{"name":"","type":"tuple","internalType":"struct Registry.ConceptEntry","components":[{"name":"uri","type":"string","internalType":"string"},{"name":"transport","type":"bytes","internalType":"bytes"},{"name":"registeredAt","type":"uint256","internalType":"uint256"},{"name":"available","type":"bool","internalType":"bool"},{"name":"exists","type":"bool","internalType":"bool"}]}],"stateMutability":"view"},{"type":"function","name":"getByUri","inputs":[{"name":"uri","type":"string","internalType":"string"}],"outputs":[{"name":"","type":"tuple","internalType":"struct Registry.ConceptEntry","components":[{"name":"uri","type":"string","internalType":"string"},{"name":"transport","type":"bytes","internalType":"bytes"},{"name":"registeredAt","type":"uint256","internalType":"uint256"},{"name":"available","type":"bool","internalType":"bool"},{"name":"exists","type":"bool","internalType":"bool"}]}],"stateMutability":"view"},{"type":"function","name":"heartbeat","inputs":[{"name":"uri","type":"string","internalType":"string"}],"outputs":[{"name":"result","type":"tuple","internalType":"struct Registry.HeartbeatOkResult","components":[{"name":"success","type":"bool","internalType":"bool"},{"name":"available","type":"bool","internalType":"bool"}]}],"stateMutability":"nonpayable"},{"type":"function","name":"list","inputs":[],"outputs":[{"name":"","type":"bytes32[]","internalType":"bytes32[]"}],"stateMutability":"view"},{"type":"function","name":"register","inputs":[{"name":"uri","type":"string","internalType":"string"},{"name":"transport","type":"bytes","internalType":"bytes"}],"outputs":[{"name":"result","type":"tuple","internalType":"struct Registry.RegisterOkResult","components":[{"name":"success","type":"bool","internalType":"bool"},{"name":"concept","type":"bytes32","internalType":"bytes32"}]}],"stateMutability":"nonpayable"},{"type":"event","name":"DeregisterCompleted","inputs":[{"name":"variant","type":"string","indexed":false,"internalType":"string"}],"anonymous":false},{"type":"event","name":"HeartbeatCompleted","inputs":[{"name":"variant","type":"string","indexed":false,"internalType":"string"},{"name":"available","type":"bool","indexed":false,"internalType":"bool"}],"anonymous":false},{"type":"event","name":"RegisterCompleted","inputs":[{"name":"variant","type":"string","indexed":false,"internalType":"string"},{"name":"concept","type":"bytes32","indexed":false,"internalType":"bytes32"}],"anonymous":false}],"bytecode":{"object":"0x608060405234801561000f575f80fd5b506119b98061001d5f395ff3fe608060405234801561000f575f80fd5b506004361061007b575f3560e01c80638eaa6ac0116100595780638eaa6ac0146100fd578063b1d704eb1461012d578063ce2923471461015d578063e5b7afaa1461018d5761007b565b80630f560cd71461007f5780630fd6ff491461009d57806350db6b40146100cd575b5f80fd5b6100876101bd565b6040516100949190610d6d565b60405180910390f35b6100b760048036038101906100b29190610df6565b610213565b6040516100c49190610e88565b60405180910390f35b6100e760048036038101906100e29190610ef6565b610348565b6040516100f49190610fa1565b60405180910390f35b61011760048036038101906101129190610fe4565b61062f565b604051610124919061117d565b60405180910390f35b61014760048036038101906101429190610fe4565b610817565b60405161015491906111ac565b60405180910390f35b61017760048036038101906101729190610df6565b610840565b604051610184919061117d565b60405180910390f35b6101a760048036038101906101a29190610df6565b610ab0565b6040516101b491906111ac565b60405180910390f35b6060600280548060200260200160405190810160405280929190818152602001828054801561020957602002820191905f5260205f20905b8154815260200190600101908083116101f5575b5050505050905090565b61021b610c44565b5f838360405160200161022f929190611201565b6040516020818303038152906040528051906020012090505f60015f8381526020019081526020015f205490505f801b81036102a0576040517f08c379a000000000000000000000000000000000000000000000000000000000815260040161029790611273565b60405180910390fd5b5f805f8381526020019081526020015f2060030160019054906101000a900460ff1680156102ea57505f808381526020019081526020015f206003015f9054906101000a900460ff165b9050604051806040016040528060011515815260200182151581525093507fd5a26de44282ab4d5cab95fb202d92a93773304a0f7f52cb0b5b9a02a2f8506b8160405161033791906112db565b60405180910390a150505092915050565b610350610c60565b5f8585905011610395576040517f08c379a000000000000000000000000000000000000000000000000000000000815260040161038c90611351565b60405180910390fd5b5f85856040516020016103a9929190611201565b6040516020818303038152906040528051906020012090505f801b60015f8381526020019081526020015f205414610416576040517f08c379a000000000000000000000000000000000000000000000000000000000815260040161040d906113b9565b60405180910390fd5b5f86864260035460405160200161043094939291906113f7565b60405160208183030381529060405280519060200120905060035f81548092919061045a9061145e565b91905055506040518060a0016040528088888080601f0160208091040260200160405190810160405280939291908181526020018383808284375f81840152601f19601f82011690508083019250505050505050815260200186868080601f0160208091040260200160405190810160405280939291908181526020018383808284375f81840152601f19601f820116905080830192505050505050508152602001428152602001600115158152602001600115158152505f808381526020019081526020015f205f820151815f01908161053591906116cc565b50602082015181600101908161054b91906117f3565b50604082015181600201556060820151816003015f6101000a81548160ff02191690831515021790555060808201518160030160016101000a81548160ff0219169083151502179055509050508060015f8481526020019081526020015f2081905550600281908060018154018082558091505060019003905f5260205f20015f909190919091505560405180604001604052806001151581526020018281525092507f0402c886f5c1bb50afb826d1767a153123631152c678fbec8089e9e8ee3e49bf8160405161061d91906118d1565b60405180910390a15050949350505050565b610637610c7d565b5f808381526020019081526020015f2060030160019054906101000a900460ff16610697576040517f08c379a000000000000000000000000000000000000000000000000000000000815260040161068e90611947565b60405180910390fd5b5f808381526020019081526020015f206040518060a00160405290815f820180546106c1906114ff565b80601f01602080910402602001604051908101604052809291908181526020018280546106ed906114ff565b80156107385780601f1061070f57610100808354040283529160200191610738565b820191905f5260205f20905b81548152906001019060200180831161071b57829003601f168201915b50505050508152602001600182018054610751906114ff565b80601f016020809104026020016040519081016040528092919081815260200182805461077d906114ff565b80156107c85780601f1061079f576101008083540402835291602001916107c8565b820191905f5260205f20905b8154815290600101906020018083116107ab57829003601f168201915b5050505050815260200160028201548152602001600382015f9054906101000a900460ff161515151581526020016003820160019054906101000a900460ff1615151515815250509050919050565b5f805f8381526020019081526020015f2060030160019054906101000a900460ff169050919050565b610848610c7d565b5f838360405160200161085c929190611201565b6040516020818303038152906040528051906020012090505f60015f8381526020019081526020015f205490505f801b81036108cd576040517f08c379a00000000000000000000000000000000000000000000000000000000081526004016108c490611273565b60405180910390fd5b5f808281526020019081526020015f2060030160019054906101000a900460ff1661092d576040517f08c379a000000000000000000000000000000000000000000000000000000000815260040161092490611947565b60405180910390fd5b5f808281526020019081526020015f206040518060a00160405290815f82018054610957906114ff565b80601f0160208091040260200160405190810160405280929190818152602001828054610983906114ff565b80156109ce5780601f106109a5576101008083540402835291602001916109ce565b820191905f5260205f20905b8154815290600101906020018083116109b157829003601f168201915b505050505081526020016001820180546109e7906114ff565b80601f0160208091040260200160405190810160405280929190818152602001828054610a13906114ff565b8015610a5e5780601f10610a3557610100808354040283529160200191610a5e565b820191905f5260205f20905b815481529060010190602001808311610a4157829003601f168201915b5050505050815260200160028201548152602001600382015f9054906101000a900460ff161515151581526020016003820160019054906101000a900460ff1615151515815250509250505092915050565b5f808383604051602001610ac5929190611201565b6040516020818303038152906040528051906020012090505f60015f8381526020019081526020015f205490505f801b8103610b36576040517f08c379a0000000000000000000000000000000000000000000000000000000008152600401610b2d90611273565b60405180910390fd5b5f808281526020019081526020015f2060030160019054906101000a900460ff16610b96576040517f08c379a0000000000000000000000000000000000000000000000000000000008152600401610b8d90611947565b60405180910390fd5b5f805f8381526020019081526020015f2060030160016101000a81548160ff0219169083151502179055505f805f8381526020019081526020015f206003015f6101000a81548160ff0219169083151502179055505f801b60015f8481526020019081526020015f20819055507f31150963b58f501f3e01ccd00aaf837dd4051b7753af0c5014f62bc0998a6c53604051610c3090611965565b60405180910390a160019250505092915050565b60405180604001604052805f151581526020015f151581525090565b60405180604001604052805f151581526020015f80191681525090565b6040518060a0016040528060608152602001606081526020015f81526020015f151581526020015f151581525090565b5f81519050919050565b5f82825260208201905092915050565b5f819050602082019050919050565b5f819050919050565b610ce881610cd6565b82525050565b5f610cf98383610cdf565b60208301905092915050565b5f602082019050919050565b5f610d1b82610cad565b610d258185610cb7565b9350610d3083610cc7565b805f5b83811015610d60578151610d478882610cee565b9750610d5283610d05565b925050600181019050610d33565b5085935050505092915050565b5f6020820190508181035f830152610d858184610d11565b905092915050565b5f80fd5b5f80fd5b5f80fd5b5f80fd5b5f80fd5b5f8083601f840112610db657610db5610d95565b5b8235905067ffffffffffffffff811115610dd357610dd2610d99565b5b602083019150836001820283011115610def57610dee610d9d565b5b9250929050565b5f8060208385031215610e0c57610e0b610d8d565b5b5f83013567ffffffffffffffff811115610e2957610e28610d91565b5b610e3585828601610da1565b92509250509250929050565b5f8115159050919050565b610e5581610e41565b82525050565b604082015f820151610e6f5f850182610e4c565b506020820151610e826020850182610e4c565b50505050565b5f604082019050610e9b5f830184610e5b565b92915050565b5f8083601f840112610eb657610eb5610d95565b5b8235905067ffffffffffffffff811115610ed357610ed2610d99565b5b602083019150836001820283011115610eef57610eee610d9d565b5b9250929050565b5f805f8060408587031215610f0e57610f0d610d8d565b5b5f85013567ffffffffffffffff811115610f2b57610f2a610d91565b5b610f3787828801610da1565b9450945050602085013567ffffffffffffffff811115610f5a57610f59610d91565b5b610f6687828801610ea1565b925092505092959194509250565b604082015f820151610f885f850182610e4c565b506020820151610f9b6020850182610cdf565b50505050565b5f604082019050610fb45f830184610f74565b92915050565b610fc381610cd6565b8114610fcd575f80fd5b50565b5f81359050610fde81610fba565b92915050565b5f60208284031215610ff957610ff8610d8d565b5b5f61100684828501610fd0565b91505092915050565b5f81519050919050565b5f82825260208201905092915050565b5f5b8381101561104657808201518184015260208101905061102b565b5f8484015250505050565b5f601f19601f8301169050919050565b5f61106b8261100f565b6110758185611019565b9350611085818560208601611029565b61108e81611051565b840191505092915050565b5f81519050919050565b5f82825260208201905092915050565b5f6110bd82611099565b6110c781856110a3565b93506110d7818560208601611029565b6110e081611051565b840191505092915050565b5f819050919050565b6110fd816110eb565b82525050565b5f60a083015f8301518482035f86015261111d8282611061565b9150506020830151848203602086015261113782826110b3565b915050604083015161114c60408601826110f4565b50606083015161115f6060860182610e4c565b5060808301516111726080860182610e4c565b508091505092915050565b5f6020820190508181035f8301526111958184611103565b905092915050565b6111a681610e41565b82525050565b5f6020820190506111bf5f83018461119d565b92915050565b5f81905092915050565b828183375f83830152505050565b5f6111e883856111c5565b93506111f58385846111cf565b82840190509392505050565b5f61120d8284866111dd565b91508190509392505050565b5f82825260208201905092915050565b7f555249206e6f74207265676973746572656400000000000000000000000000005f82015250565b5f61125d601283611219565b915061126882611229565b602082019050919050565b5f6020820190508181035f83015261128a81611251565b9050919050565b7f6f6b0000000000000000000000000000000000000000000000000000000000005f82015250565b5f6112c5600283611219565b91506112d082611291565b602082019050919050565b5f6040820190508181035f8301526112f2816112b9565b9050611301602083018461119d565b92915050565b7f5552492063616e6e6f7420626520656d707479000000000000000000000000005f82015250565b5f61133b601383611219565b915061134682611307565b602082019050919050565b5f6020820190508181035f8301526113688161132f565b9050919050565b7f55524920616c72656164792072656769737465726564000000000000000000005f82015250565b5f6113a3601683611219565b91506113ae8261136f565b602082019050919050565b5f6020820190508181035f8301526113d081611397565b9050919050565b5f819050919050565b6113f16113ec826110eb565b6113d7565b82525050565b5f6114038286886111dd565b915061140f82856113e0565b60208201915061141f82846113e0565b60208201915081905095945050505050565b7f4e487b71000000000000000000000000000000000000000000000000000000005f52601160045260245ffd5b5f611468826110eb565b91507fffffffffffffffffffffffffffffffffffffffffffffffffffffffffffffffff820361149a57611499611431565b5b600182019050919050565b7f4e487b71000000000000000000000000000000000000000000000000000000005f52604160045260245ffd5b7f4e487b71000000000000000000000000000000000000000000000000000000005f52602260045260245ffd5b5f600282049050600182168061151657607f821691505b602082108103611529576115286114d2565b5b50919050565b5f819050815f5260205f209050919050565b5f6020601f8301049050919050565b5f82821b905092915050565b5f6008830261158b7fffffffffffffffffffffffffffffffffffffffffffffffffffffffffffffffff82611550565b6115958683611550565b95508019841693508086168417925050509392505050565b5f819050919050565b5f6115d06115cb6115c6846110eb565b6115ad565b6110eb565b9050919050565b5f819050919050565b6115e9836115b6565b6115fd6115f5826115d7565b84845461155c565b825550505050565b5f90565b611611611605565b61161c8184846115e0565b505050565b5b8181101561163f576116345f82611609565b600181019050611622565b5050565b601f821115611684576116558161152f565b61165e84611541565b8101602085101561166d578190505b61168161167985611541565b830182611621565b50505b505050565b5f82821c905092915050565b5f6116a45f1984600802611689565b1980831691505092915050565b5f6116bc8383611695565b9150826002028217905092915050565b6116d58261100f565b67ffffffffffffffff8111156116ee576116ed6114a5565b5b6116f882546114ff565b611703828285611643565b5f60209050601f831160018114611734575f8415611722578287015190505b61172c85826116b1565b865550611793565b601f1984166117428661152f565b5f5b8281101561176957848901518255600182019150602085019450602081019050611744565b868310156117865784890151611782601f891682611695565b8355505b6001600288020188555050505b505050505050565b5f819050815f5260205f209050919050565b601f8211156117ee576117bf8161179b565b6117c884611541565b810160208510156117d7578190505b6117eb6117e385611541565b830182611621565b50505b505050565b6117fc82611099565b67ffffffffffffffff811115611815576118146114a5565b5b61181f82546114ff565b61182a8282856117ad565b5f60209050601f83116001811461185b575f8415611849578287015190505b61185385826116b1565b8655506118ba565b601f1984166118698661179b565b5f5b828110156118905784890151825560018201915060208501945060208101905061186b565b868310156118ad57848901516118a9601f891682611695565b8355505b6001600288020188555050505b505050505050565b6118cb81610cd6565b82525050565b5f6040820190508181035f8301526118e8816112b9565b90506118f760208301846118c2565b92915050565b7f436f6e63657074206e6f7420666f756e640000000000000000000000000000005f82015250565b5f611931601183611219565b915061193c826118fd565b602082019050919050565b5f6020820190508181035f83015261195e81611925565b9050919050565b5f6020820190508181035f83015261197c816112b9565b905091905056fea2646970667358221220b14dc8b015c1932c95f3c79807643b528afe197db56d163ff1032c64bfbc15af64736f6c63430008140033","linkReferences":{}},"methodIdentifiers":{"conceptExists(bytes32)":"b1d704eb","deregister(string)":"e5b7afaa","get(bytes32)":"8eaa6ac0","getByUri(string)":"ce292347","heartbeat(string)":"0fd6ff49","list()":"0f560cd7","register(string,bytes)":"50db6b40"},"id":215}