{"abi":[{"type":"function","name":"defineType","inputs":[{"name":"key","type":"string","internalType":"string"},{"name":"propType","type":"string","internalType":"string"}],"outputs":[],"stateMutability":"nonpayable"},{"type":"function","name":"deleteProperty","inputs":[{"name":"nodeId","type":"bytes32","internalType":"bytes32"},{"name":"key","type":"string","internalType":"string"}],"outputs":[],"stateMutability":"nonpayable"},{"type":"function","name":"get","inputs":[{"name":"nodeId","type":"bytes32","internalType":"bytes32"},{"name":"key","type":"string","internalType":"string"}],"outputs":[{"name":"found","type":"bool","internalType":"bool"},{"name":"value","type":"string","internalType":"string"}],"stateMutability":"view"},{"type":"function","name":"listAll","inputs":[{"name":"nodeId","type":"bytes32","internalType":"bytes32"}],"outputs":[{"name":"keys","type":"string[]","internalType":"string[]"}],"stateMutability":"view"},{"type":"function","name":"set","inputs":[{"name":"nodeId","type":"bytes32","internalType":"bytes32"},{"name":"key","type":"string","internalType":"string"},{"name":"value","type":"string","internalType":"string"}],"outputs":[],"stateMutability":"nonpayable"},{"type":"event","name":"PropertyDeleted","inputs":[{"name":"nodeId","type":"bytes32","indexed":true,"internalType":"bytes32"},{"name":"key","type":"string","indexed":false,"internalType":"string"}],"anonymous":false},{"type":"event","name":"PropertySet","inputs":[{"name":"nodeId","type":"bytes32","indexed":true,"internalType":"bytes32"},{"name":"key","type":"string","indexed":false,"internalType":"string"}],"anonymous":false},{"type":"event","name":"TypeDefined","inputs":[{"name":"key","type":"string","indexed":false,"internalType":"string"},{"name":"propType","type":"string","indexed":false,"internalType":"string"}],"anonymous":false}],"bytecode":{"object":"0x608060405234801561000f575f80fd5b506114c98061001d5f395ff3fe608060405234801561000f575f80fd5b5060043610610055575f3560e01c806313e9d43c146100595780633885efd0146100755780638f617a8d146100a5578063a6f9617f146100c1578063c6af477c146100dd575b5f80fd5b610073600480360381019061006e91906108f2565b61010e565b005b61008f600480360381019061008a9190610983565b6102e8565b60405161009c9190610af3565b60405180910390f35b6100bf60048036038101906100ba9190610b13565b6103cd565b005b6100db60048036038101906100d69190610b70565b610623565b005b6100f760048036038101906100f29190610b13565b6106db565b604051610105929190610c50565b60405180910390f35b5f801b8503610152576040517f08c379a000000000000000000000000000000000000000000000000000000000815260040161014990610cc8565b60405180910390fd5b5f8484905011610197576040517f08c379a000000000000000000000000000000000000000000000000000000000815260040161018e90610d30565b60405180910390fd5b60025f8681526020019081526020015f2084846040516101b8929190610d8a565b90815260200160405180910390205f9054906101000a900460ff166102695760015f8681526020019081526020015f20848490918060018154018082558091505060019003905f5260205f20015f909192909192909192909192509182610220929190610fdc565b50600160025f8781526020019081526020015f208585604051610244929190610d8a565b90815260200160405180910390205f6101000a81548160ff0219169083151502179055505b81815f808881526020019081526020015f20868660405161028b929190610d8a565b908152602001604051809103902091826102a6929190610fdc565b50847fce854b3c0ffbb5ce5310beffba7e4a7855591f3e2437cfbcc7ed1d01aac58dba85856040516102d99291906110d5565b60405180910390a25050505050565b606060015f8381526020019081526020015f20805480602002602001604051908101604052809291908181526020015f905b828210156103c2578382905f5260205f2001805461033790610e06565b80601f016020809104026020016040519081016040528092919081815260200182805461036390610e06565b80156103ae5780601f10610385576101008083540402835291602001916103ae565b820191905f5260205f20905b81548152906001019060200180831161039157829003601f168201915b50505050508152602001906001019061031a565b505050509050919050565b60025f8481526020019081526020015f2082826040516103ee929190610d8a565b90815260200160405180910390205f9054906101000a900460ff16610448576040517f08c379a000000000000000000000000000000000000000000000000000000000815260040161043f90611141565b60405180910390fd5b5f808481526020019081526020015f208282604051610468929190610d8a565b90815260200160405180910390205f61048191906107fe565b5f60025f8581526020019081526020015f2083836040516104a3929190610d8a565b90815260200160405180910390205f6101000a81548160ff0219169083151502179055505f60015f8581526020019081526020015f2090505f818054905090505f5b818110156105e15784846040516104fd92919061118d565b6040518091039020838281548110610518576105176111a5565b5b905f5260205f200160405161052d9190611264565b6040518091039020036105ce5760018261054791906112a7565b811461059d578260018361055b91906112a7565b8154811061056c5761056b6111a5565b5b905f5260205f2001838281548110610587576105866111a5565b5b905f5260205f2001908161059b9190611301565b505b828054806105ae576105ad6113e6565b5b600190038181905f5260205f20015f6105c791906107fe565b90556105e1565b80806105d990611413565b9150506104e5565b50847f787d72ebfa4c323c01711ad5802531002c26cb7a4595f63ee1e3b8ad6d6b106a85856040516106149291906110d5565b60405180910390a25050505050565b5f8484905011610668576040517f08c379a000000000000000000000000000000000000000000000000000000000815260040161065f90610d30565b60405180910390fd5b81816003868660405161067c929190610d8a565b90815260200160405180910390209182610697929190610fdc565b507f4b40671cc1b8aa0a0ee238c3b165396d81a3214fb3353054d9d0e4874dc62a76848484846040516106cd949392919061145a565b60405180910390a150505050565b5f606060025f8681526020019081526020015f2084846040516106ff929190610d8a565b90815260200160405180910390205f9054906101000a900460ff16610737575f60405180602001604052805f815250915091506107f6565b60015f808781526020019081526020015f208585604051610759929190610d8a565b908152602001604051809103902080805461077390610e06565b80601f016020809104026020016040519081016040528092919081815260200182805461079f90610e06565b80156107ea5780601f106107c1576101008083540402835291602001916107ea565b820191905f5260205f20905b8154815290600101906020018083116107cd57829003601f168201915b50505050509050915091505b935093915050565b50805461080a90610e06565b5f825580601f1061081b5750610838565b601f0160209004905f5260205f2090810190610837919061083b565b5b50565b5b80821115610852575f815f90555060010161083c565b5090565b5f80fd5b5f80fd5b5f819050919050565b6108708161085e565b811461087a575f80fd5b50565b5f8135905061088b81610867565b92915050565b5f80fd5b5f80fd5b5f80fd5b5f8083601f8401126108b2576108b1610891565b5b8235905067ffffffffffffffff8111156108cf576108ce610895565b5b6020830191508360018202830111156108eb576108ea610899565b5b9250929050565b5f805f805f6060868803121561090b5761090a610856565b5b5f6109188882890161087d565b955050602086013567ffffffffffffffff8111156109395761093861085a565b5b6109458882890161089d565b9450945050604086013567ffffffffffffffff8111156109685761096761085a565b5b6109748882890161089d565b92509250509295509295909350565b5f6020828403121561099857610997610856565b5b5f6109a58482850161087d565b91505092915050565b5f81519050919050565b5f82825260208201905092915050565b5f819050602082019050919050565b5f81519050919050565b5f82825260208201905092915050565b5f5b83811015610a0e5780820151818401526020810190506109f3565b5f8484015250505050565b5f601f19601f8301169050919050565b5f610a33826109d7565b610a3d81856109e1565b9350610a4d8185602086016109f1565b610a5681610a19565b840191505092915050565b5f610a6c8383610a29565b905092915050565b5f602082019050919050565b5f610a8a826109ae565b610a9481856109b8565b935083602082028501610aa6856109c8565b805f5b85811015610ae15784840389528151610ac28582610a61565b9450610acd83610a74565b925060208a01995050600181019050610aa9565b50829750879550505050505092915050565b5f6020820190508181035f830152610b0b8184610a80565b905092915050565b5f805f60408486031215610b2a57610b29610856565b5b5f610b378682870161087d565b935050602084013567ffffffffffffffff811115610b5857610b5761085a565b5b610b648682870161089d565b92509250509250925092565b5f805f8060408587031215610b8857610b87610856565b5b5f85013567ffffffffffffffff811115610ba557610ba461085a565b5b610bb18782880161089d565b9450945050602085013567ffffffffffffffff811115610bd457610bd361085a565b5b610be08782880161089d565b925092505092959194509250565b5f8115159050919050565b610c0281610bee565b82525050565b5f82825260208201905092915050565b5f610c22826109d7565b610c2c8185610c08565b9350610c3c8185602086016109f1565b610c4581610a19565b840191505092915050565b5f604082019050610c635f830185610bf9565b8181036020830152610c758184610c18565b90509392505050565b7f4e6f64652049442063616e6e6f74206265207a65726f000000000000000000005f82015250565b5f610cb2601683610c08565b9150610cbd82610c7e565b602082019050919050565b5f6020820190508181035f830152610cdf81610ca6565b9050919050565b7f4b65792063616e6e6f7420626520656d707479000000000000000000000000005f82015250565b5f610d1a601383610c08565b9150610d2582610ce6565b602082019050919050565b5f6020820190508181035f830152610d4781610d0e565b9050919050565b5f81905092915050565b828183375f83830152505050565b5f610d718385610d4e565b9350610d7e838584610d58565b82840190509392505050565b5f610d96828486610d66565b91508190509392505050565b5f82905092915050565b7f4e487b71000000000000000000000000000000000000000000000000000000005f52604160045260245ffd5b7f4e487b71000000000000000000000000000000000000000000000000000000005f52602260045260245ffd5b5f6002820490506001821680610e1d57607f821691505b602082108103610e3057610e2f610dd9565b5b50919050565b5f819050815f5260205f209050919050565b5f6020601f8301049050919050565b5f82821b905092915050565b5f60088302610e927fffffffffffffffffffffffffffffffffffffffffffffffffffffffffffffffff82610e57565b610e9c8683610e57565b95508019841693508086168417925050509392505050565b5f819050919050565b5f819050919050565b5f610ee0610edb610ed684610eb4565b610ebd565b610eb4565b9050919050565b5f819050919050565b610ef983610ec6565b610f0d610f0582610ee7565b848454610e63565b825550505050565b5f90565b610f21610f15565b610f2c818484610ef0565b505050565b5b81811015610f4f57610f445f82610f19565b600181019050610f32565b5050565b601f821115610f9457610f6581610e36565b610f6e84610e48565b81016020851015610f7d578190505b610f91610f8985610e48565b830182610f31565b50505b505050565b5f82821c905092915050565b5f610fb45f1984600802610f99565b1980831691505092915050565b5f610fcc8383610fa5565b9150826002028217905092915050565b610fe68383610da2565b67ffffffffffffffff811115610fff57610ffe610dac565b5b6110098254610e06565b611014828285610f53565b5f601f831160018114611041575f841561102f578287013590505b6110398582610fc1565b8655506110a0565b601f19841661104f86610e36565b5f5b8281101561107657848901358255600182019150602085019450602081019050611051565b86831015611093578489013561108f601f891682610fa5565b8355505b6001600288020188555050505b50505050505050565b5f6110b48385610c08565b93506110c1838584610d58565b6110ca83610a19565b840190509392505050565b5f6020820190508181035f8301526110ee8184866110a9565b90509392505050565b7f50726f7065727479206e6f7420666f756e6400000000000000000000000000005f82015250565b5f61112b601283610c08565b9150611136826110f7565b602082019050919050565b5f6020820190508181035f8301526111588161111f565b9050919050565b5f81905092915050565b5f611174838561115f565b9350611181838584610d58565b82840190509392505050565b5f611199828486611169565b91508190509392505050565b7f4e487b71000000000000000000000000000000000000000000000000000000005f52603260045260245ffd5b5f819050815f5260205f209050919050565b5f81546111f081610e06565b6111fa818661115f565b9450600182165f811461121457600181146112295761125b565b60ff198316865281151582028601935061125b565b611232856111d2565b5f5b8381101561125357815481890152600182019150602081019050611234565b838801955050505b50505092915050565b5f61126f82846111e4565b915081905092915050565b7f4e487b71000000000000000000000000000000000000000000000000000000005f52601160045260245ffd5b5f6112b182610eb4565b91506112bc83610eb4565b92508282039050818111156112d4576112d361127a565b5b92915050565b5f815490506112e881610e06565b9050919050565b5f819050815f5260205f209050919050565b81810361130f5750506113e4565b611318826112da565b67ffffffffffffffff81111561133157611330610dac565b5b61133b8254610e06565b611346828285610f53565b5f601f831160018114611373575f8415611361578287015490505b61136b8582610fc1565b8655506113dd565b601f198416611381876112ef565b965061138c86610e36565b5f5b828110156113b35784890154825560018201915060018501945060208101905061138e565b868310156113d057848901546113cc601f891682610fa5565b8355505b6001600288020188555050505b5050505050505b565b7f4e487b71000000000000000000000000000000000000000000000000000000005f52603160045260245ffd5b5f61141d82610eb4565b91507fffffffffffffffffffffffffffffffffffffffffffffffffffffffffffffffff820361144f5761144e61127a565b5b600182019050919050565b5f6040820190508181035f8301526114738186886110a9565b905081810360208301526114888184866110a9565b90509594505050505056fea26469706673582212203825129071c25da46b0a5c25048025f8e7b7513cbba06d608f218c0f90b33e1f64736f6c63430008140033","linkReferences":{}},"methodIdentifiers":{"defineType(string,string)":"a6f9617f","deleteProperty(bytes32,string)":"8f617a8d","get(bytes32,string)":"c6af477c","listAll(bytes32)":"3885efd0","set(bytes32,string,string)":"13e9d43c"},"id":203}