{"abi":[{"type":"function","name":"advance","inputs":[{"name":"branchId","type":"bytes32","internalType":"bytes32"},{"name":"newNode","type":"bytes32","internalType":"bytes32"}],"outputs":[],"stateMutability":"nonpayable"},{"type":"function","name":"archive","inputs":[{"name":"branchId","type":"bytes32","internalType":"bytes32"}],"outputs":[],"stateMutability":"nonpayable"},{"type":"function","name":"create","inputs":[{"name":"name","type":"string","internalType":"string"},{"name":"fromNode","type":"bytes32","internalType":"bytes32"}],"outputs":[{"name":"branchId","type":"bytes32","internalType":"bytes32"}],"stateMutability":"nonpayable"},{"type":"function","name":"deleteBranch","inputs":[{"name":"branchId","type":"bytes32","internalType":"bytes32"}],"outputs":[],"stateMutability":"nonpayable"},{"type":"function","name":"getBranch","inputs":[{"name":"branchId","type":"bytes32","internalType":"bytes32"}],"outputs":[{"name":"","type":"tuple","internalType":"struct Branch.BranchInfo","components":[{"name":"name","type":"string","internalType":"string"},{"name":"head","type":"bytes32","internalType":"bytes32"},{"name":"isProtected","type":"bool","internalType":"bool"},{"name":"upstream","type":"bytes32","internalType":"bytes32"},{"name":"created","type":"uint256","internalType":"uint256"},{"name":"archived","type":"bool","internalType":"bool"},{"name":"exists","type":"bool","internalType":"bool"}]}],"stateMutability":"view"},{"type":"function","name":"protect","inputs":[{"name":"branchId","type":"bytes32","internalType":"bytes32"}],"outputs":[],"stateMutability":"nonpayable"},{"type":"function","name":"setUpstream","inputs":[{"name":"branchId","type":"bytes32","internalType":"bytes32"},{"name":"upstreamId","type":"bytes32","internalType":"bytes32"}],"outputs":[],"stateMutability":"nonpayable"},{"type":"event","name":"BranchAdvanced","inputs":[{"name":"branchId","type":"bytes32","indexed":true,"internalType":"bytes32"},{"name":"newHead","type":"bytes32","indexed":false,"internalType":"bytes32"}],"anonymous":false},{"type":"event","name":"BranchArchived","inputs":[{"name":"branchId","type":"bytes32","indexed":true,"internalType":"bytes32"}],"anonymous":false},{"type":"event","name":"BranchCreated","inputs":[{"name":"branchId","type":"bytes32","indexed":true,"internalType":"bytes32"},{"name":"name","type":"string","indexed":false,"internalType":"string"},{"name":"fromNode","type":"bytes32","indexed":false,"internalType":"bytes32"}],"anonymous":false},{"type":"event","name":"BranchDeleted","inputs":[{"name":"branchId","type":"bytes32","indexed":true,"internalType":"bytes32"}],"anonymous":false},{"type":"event","name":"BranchProtected","inputs":[{"name":"branchId","type":"bytes32","indexed":true,"internalType":"bytes32"}],"anonymous":false},{"type":"event","name":"UpstreamSet","inputs":[{"name":"branchId","type":"bytes32","indexed":true,"internalType":"bytes32"},{"name":"upstreamId","type":"bytes32","indexed":true,"internalType":"bytes32"}],"anonymous":false}],"bytecode":{"object":"0x608060405234801561000f575f80fd5b506114d48061001d5f395ff3fe608060405234801561000f575f80fd5b506004361061007b575f3560e01c80636e0610b9116100595780636e0610b9146100fb57806381fa738214610117578063a995db2614610133578063ba978b3d1461014f5761007b565b80633dee0c501461007f5780635b54e425146100af5780635f00c2a3146100cb575b5f80fd5b61009960048036038101906100949190610b41565b61016b565b6040516100a69190610bad565b60405180910390f35b6100c960048036038101906100c49190610bc6565b6103c9565b005b6100e560048036038101906100e09190610c04565b61053d565b6040516100f29190610d93565b60405180910390f35b61011560048036038101906101109190610bc6565b6106c3565b005b610131600480360381019061012c9190610c04565b61076d565b005b61014d60048036038101906101489190610c04565b610828565b005b61016960048036038101906101649190610c04565b6108e3565b005b5f808484604051602001610180929190610def565b60405160208183030381529060405280519060200120905060015f8281526020019081526020015f205f9054906101000a900460ff16156101f6576040517f08c379a00000000000000000000000000000000000000000000000000000000081526004016101ed90610e61565b60405180910390fd5b8484844260025f81548092919061020c90610eac565b91905055604051602001610224959493929190610f33565b6040516020818303038152906040528051906020012091506040518060e0016040528086868080601f0160208091040260200160405190810160405280939291908181526020018383808284375f81840152601f19601f8201169050808301925050505050505081526020018481526020015f151581526020015f801b81526020014281526020015f15158152602001600115158152505f808481526020019081526020015f205f820151815f0190816102de91906111a5565b50602082015181600101556040820151816002015f6101000a81548160ff021916908315150217905550606082015181600301556080820151816004015560a0820151816005015f6101000a81548160ff02191690831515021790555060c08201518160050160016101000a81548160ff0219169083151502179055509050506001805f8381526020019081526020015f205f6101000a81548160ff021916908315150217905550817e02daeced541a581e7f003de32e30e4904473291fc312700373c9e3a17c8ff68686866040516103b9939291906112a0565b60405180910390a2509392505050565b5f808381526020019081526020015f2060050160019054906101000a900460ff16610429576040517f08c379a00000000000000000000000000000000000000000000000000000000081526004016104209061131a565b60405180910390fd5b5f808381526020019081526020015f206002015f9054906101000a900460ff1615610489576040517f08c379a000000000000000000000000000000000000000000000000000000000815260040161048090611382565b60405180910390fd5b5f808381526020019081526020015f206005015f9054906101000a900460ff16156104e9576040517f08c379a00000000000000000000000000000000000000000000000000000000081526004016104e0906113ea565b60405180910390fd5b805f808481526020019081526020015f2060010181905550817fe30e7aea990c155ce92b17acaab429c286c81123ea9ac2da740f86cd037d712f826040516105319190610bad565b60405180910390a25050565b610545610a62565b5f808381526020019081526020015f2060050160019054906101000a900460ff166105a5576040517f08c379a000000000000000000000000000000000000000000000000000000000815260040161059c9061131a565b60405180910390fd5b5f808381526020019081526020015f206040518060e00160405290815f820180546105cf90610fd8565b80601f01602080910402602001604051908101604052809291908181526020018280546105fb90610fd8565b80156106465780601f1061061d57610100808354040283529160200191610646565b820191905f5260205f20905b81548152906001019060200180831161062957829003601f168201915b5050505050815260200160018201548152602001600282015f9054906101000a900460ff161515151581526020016003820154815260200160048201548152602001600582015f9054906101000a900460ff161515151581526020016005820160019054906101000a900460ff1615151515815250509050919050565b5f808381526020019081526020015f2060050160019054906101000a900460ff16610723576040517f08c379a000000000000000000000000000000000000000000000000000000000815260040161071a9061131a565b60405180910390fd5b805f808481526020019081526020015f206003018190555080827f098dcd93e9ce4726241fa38900580920c5290d4f23ab393d782bc83706b1596060405160405180910390a35050565b5f808281526020019081526020015f2060050160019054906101000a900460ff166107cd576040517f08c379a00000000000000000000000000000000000000000000000000000000081526004016107c49061131a565b60405180910390fd5b60015f808381526020019081526020015f206002015f6101000a81548160ff021916908315150217905550807f8ca1a94761375730aa292a57f3ad32a6f0609eae270ae654175ac23f44f2752260405160405180910390a250565b5f808281526020019081526020015f2060050160019054906101000a900460ff16610888576040517f08c379a000000000000000000000000000000000000000000000000000000000815260040161087f9061131a565b60405180910390fd5b60015f808381526020019081526020015f206005015f6101000a81548160ff021916908315150217905550807fec4dc3035df7ccba45b3cd39af2d4f3e5da047563460480de94028d1c031f35460405160405180910390a250565b5f808281526020019081526020015f2060050160019054906101000a900460ff16610943576040517f08c379a000000000000000000000000000000000000000000000000000000000815260040161093a9061131a565b60405180910390fd5b5f808281526020019081526020015f206002015f9054906101000a900460ff16156109a3576040517f08c379a000000000000000000000000000000000000000000000000000000000815260040161099a90611382565b60405180910390fd5b5f805f8381526020019081526020015f205f016040516020016109c69190611488565b6040516020818303038152906040528051906020012090505f60015f8381526020019081526020015f205f6101000a81548160ff0219169083151502179055505f805f8481526020019081526020015f2060050160016101000a81548160ff021916908315150217905550817f12d9f8dbd7feca10f00f8caa46bd1fa558fe2f0e36606f499aff5c9f46de156260405160405180910390a25050565b6040518060e00160405280606081526020015f80191681526020015f151581526020015f80191681526020015f81526020015f151581526020015f151581525090565b5f80fd5b5f80fd5b5f80fd5b5f80fd5b5f80fd5b5f8083601f840112610ace57610acd610aad565b5b8235905067ffffffffffffffff811115610aeb57610aea610ab1565b5b602083019150836001820283011115610b0757610b06610ab5565b5b9250929050565b5f819050919050565b610b2081610b0e565b8114610b2a575f80fd5b50565b5f81359050610b3b81610b17565b92915050565b5f805f60408486031215610b5857610b57610aa5565b5b5f84013567ffffffffffffffff811115610b7557610b74610aa9565b5b610b8186828701610ab9565b93509350506020610b9486828701610b2d565b9150509250925092565b610ba781610b0e565b82525050565b5f602082019050610bc05f830184610b9e565b92915050565b5f8060408385031215610bdc57610bdb610aa5565b5b5f610be985828601610b2d565b9250506020610bfa85828601610b2d565b9150509250929050565b5f60208284031215610c1957610c18610aa5565b5b5f610c2684828501610b2d565b91505092915050565b5f81519050919050565b5f82825260208201905092915050565b5f5b83811015610c66578082015181840152602081019050610c4b565b5f8484015250505050565b5f601f19601f8301169050919050565b5f610c8b82610c2f565b610c958185610c39565b9350610ca5818560208601610c49565b610cae81610c71565b840191505092915050565b610cc281610b0e565b82525050565b5f8115159050919050565b610cdc81610cc8565b82525050565b5f819050919050565b610cf481610ce2565b82525050565b5f60e083015f8301518482035f860152610d148282610c81565b9150506020830151610d296020860182610cb9565b506040830151610d3c6040860182610cd3565b506060830151610d4f6060860182610cb9565b506080830151610d626080860182610ceb565b5060a0830151610d7560a0860182610cd3565b5060c0830151610d8860c0860182610cd3565b508091505092915050565b5f6020820190508181035f830152610dab8184610cfa565b905092915050565b5f81905092915050565b828183375f83830152505050565b5f610dd68385610db3565b9350610de3838584610dbd565b82840190509392505050565b5f610dfb828486610dcb565b91508190509392505050565b5f82825260208201905092915050565b7f4272616e6368206e616d6520616c7265616479206578697374730000000000005f82015250565b5f610e4b601a83610e07565b9150610e5682610e17565b602082019050919050565b5f6020820190508181035f830152610e7881610e3f565b9050919050565b7f4e487b71000000000000000000000000000000000000000000000000000000005f52601160045260245ffd5b5f610eb682610ce2565b91507fffffffffffffffffffffffffffffffffffffffffffffffffffffffffffffffff8203610ee857610ee7610e7f565b5b600182019050919050565b5f819050919050565b610f0d610f0882610b0e565b610ef3565b82525050565b5f819050919050565b610f2d610f2882610ce2565b610f13565b82525050565b5f610f3f828789610dcb565b9150610f4b8286610efc565b602082019150610f5b8285610f1c565b602082019150610f6b8284610f1c565b6020820191508190509695505050505050565b7f4e487b71000000000000000000000000000000000000000000000000000000005f52604160045260245ffd5b7f4e487b71000000000000000000000000000000000000000000000000000000005f52602260045260245ffd5b5f6002820490506001821680610fef57607f821691505b60208210810361100257611001610fab565b5b50919050565b5f819050815f5260205f209050919050565b5f6020601f8301049050919050565b5f82821b905092915050565b5f600883026110647fffffffffffffffffffffffffffffffffffffffffffffffffffffffffffffffff82611029565b61106e8683611029565b95508019841693508086168417925050509392505050565b5f819050919050565b5f6110a96110a461109f84610ce2565b611086565b610ce2565b9050919050565b5f819050919050565b6110c28361108f565b6110d66110ce826110b0565b848454611035565b825550505050565b5f90565b6110ea6110de565b6110f58184846110b9565b505050565b5b818110156111185761110d5f826110e2565b6001810190506110fb565b5050565b601f82111561115d5761112e81611008565b6111378461101a565b81016020851015611146578190505b61115a6111528561101a565b8301826110fa565b50505b505050565b5f82821c905092915050565b5f61117d5f1984600802611162565b1980831691505092915050565b5f611195838361116e565b9150826002028217905092915050565b6111ae82610c2f565b67ffffffffffffffff8111156111c7576111c6610f7e565b5b6111d18254610fd8565b6111dc82828561111c565b5f60209050601f83116001811461120d575f84156111fb578287015190505b611205858261118a565b86555061126c565b601f19841661121b86611008565b5f5b828110156112425784890151825560018201915060208501945060208101905061121d565b8683101561125f578489015161125b601f89168261116e565b8355505b6001600288020188555050505b505050505050565b5f61127f8385610e07565b935061128c838584610dbd565b61129583610c71565b840190509392505050565b5f6040820190508181035f8301526112b9818587611274565b90506112c86020830184610b9e565b949350505050565b7f4272616e636820646f6573206e6f7420657869737400000000000000000000005f82015250565b5f611304601583610e07565b915061130f826112d0565b602082019050919050565b5f6020820190508181035f830152611331816112f8565b9050919050565b7f4272616e63682069732070726f746563746564000000000000000000000000005f82015250565b5f61136c601383610e07565b915061137782611338565b602082019050919050565b5f6020820190508181035f83015261139981611360565b9050919050565b7f4272616e636820697320617263686976656400000000000000000000000000005f82015250565b5f6113d4601283610e07565b91506113df826113a0565b602082019050919050565b5f6020820190508181035f830152611401816113c8565b9050919050565b5f815461141481610fd8565b61141e8186610db3565b9450600182165f8114611438576001811461144d5761147f565b60ff198316865281151582028601935061147f565b61145685611008565b5f5b8381101561147757815481890152600182019150602081019050611458565b838801955050505b50505092915050565b5f6114938284611408565b91508190509291505056fea2646970667358221220ffd0e7e9daa2fa0cfff4d07511acba7c2d85f9ed7273402118adeb2cef4c218364736f6c63430008140033","linkReferences":{}},"methodIdentifiers":{"advance(bytes32,bytes32)":"5b54e425","archive(bytes32)":"a995db26","create(string,bytes32)":"3dee0c50","deleteBranch(bytes32)":"ba978b3d","getBranch(bytes32)":"5f00c2a3","protect(bytes32)":"81fa7382","setUpstream(bytes32,bytes32)":"6e0610b9"},"id":43}