{"abi":[{"type":"function","name":"generate","inputs":[{"name":"spec","type":"bytes32","internalType":"bytes32"},{"name":"manifest","type":"bytes","internalType":"bytes"}],"outputs":[{"name":"result","type":"tuple","internalType":"struct SwiftGen.GenerateOkResult","components":[{"name":"success","type":"bool","internalType":"bool"},{"name":"files","type":"bytes[]","internalType":"bytes[]"}]}],"stateMutability":"nonpayable"},{"type":"function","name":"getGenerated","inputs":[{"name":"spec","type":"bytes32","internalType":"bytes32"}],"outputs":[{"name":"files","type":"bytes[]","internalType":"bytes[]"}],"stateMutability":"view"},{"type":"function","name":"hasGenerated","inputs":[{"name":"spec","type":"bytes32","internalType":"bytes32"}],"outputs":[{"name":"","type":"bool","internalType":"bool"}],"stateMutability":"view"},{"type":"function","name":"register","inputs":[],"outputs":[{"name":"metadata","type":"tuple","internalType":"struct SwiftGen.ProviderMetadata","components":[{"name":"name","type":"string","internalType":"string"},{"name":"category","type":"string","internalType":"string"},{"name":"language","type":"string","internalType":"string"}]}],"stateMutability":"pure"},{"type":"event","name":"GenerateCompleted","inputs":[{"name":"variant","type":"string","indexed":false,"internalType":"string"},{"name":"files","type":"bytes[]","indexed":false,"internalType":"bytes[]"}],"anonymous":false}],"bytecode":{"object":"0x608060405234801561000f575f80fd5b506111dd8061001d5f395ff3fe608060405234801561000f575f80fd5b506004361061004a575f3560e01c80630f60a2b41461004e5780631aa3a0081461007e5780631f31b11f1461009c578063c43d3824146100cc575b5f80fd5b610068600480360381019061006391906106d1565b6100fc565b6040516100759190610716565b60405180910390f35b610086610124565b6040516100939190610814565b60405180910390f35b6100b660048036038101906100b19190610895565b6101eb565b6040516100c39190610a48565b60405180910390f35b6100e660048036038101906100e191906106d1565b610443565b6040516100f39190610aeb565b60405180910390f35b5f805f8381526020019081526020015f206002015f9054906101000a900460ff169050919050565b61012c610588565b60405180606001604052806040518060400160405280600981526020017f73776966742d67656e000000000000000000000000000000000000000000000081525081526020016040518060400160405280600e81526020017f636f64652d67656e657261746f7200000000000000000000000000000000000081525081526020016040518060400160405280600581526020017f7377696674000000000000000000000000000000000000000000000000000000815250815250905090565b6101f36105a9565b5f801b8403610237576040517f08c379a000000000000000000000000000000000000000000000000000000000815260040161022e90610b65565b60405180910390fd5b5f838390501161027c576040517f08c379a000000000000000000000000000000000000000000000000000000000815260040161027390610bcd565b60405180910390fd5b5f600167ffffffffffffffff81111561029857610297610beb565b5b6040519080825280602002602001820160405280156102cb57816020015b60608152602001906001900390816102b65790505b509050846040516020016102df9190610c38565b604051602081830303815290604052848490506040516020016103029190610c7b565b604051602081830303815290604052604051602001610322929190610d93565b604051602081830303815290604052815f8151811061034457610343610dcc565b5b60200260200101819052506040518060600160405280828152602001428152602001600115158152505f808781526020019081526020015f205f820151815f0190805190602001906103979291906105c4565b50602082015181600101556040820151816002015f6101000a81548160ff021916908315150217905550905050600185908060018154018082558091505060019003905f5260205f20015f909190919091505560405180604001604052806001151581526020018281525091507ffe1f49883f6379fb07d8a980266cc36b9113433f284d0182a260b9d0ba5c8c43816040516104339190610e43565b60405180910390a1509392505050565b60605f808381526020019081526020015f206002015f9054906101000a900460ff166104a4576040517f08c379a000000000000000000000000000000000000000000000000000000000815260040161049b90610ec0565b60405180910390fd5b5f808381526020019081526020015f205f01805480602002602001604051908101604052809291908181526020015f905b8282101561057d578382905f5260205f200180546104f290610f0b565b80601f016020809104026020016040519081016040528092919081815260200182805461051e90610f0b565b80156105695780601f1061054057610100808354040283529160200191610569565b820191905f5260205f20905b81548152906001019060200180831161054c57829003601f168201915b5050505050815260200190600101906104d5565b505050509050919050565b60405180606001604052806060815260200160608152602001606081525090565b60405180604001604052805f15158152602001606081525090565b828054828255905f5260205f2090810192821561060a579160200282015b828111156106095782518290816105f991906110d8565b50916020019190600101906105e2565b5b509050610617919061061b565b5090565b5b8082111561063a575f8181610631919061063e565b5060010161061c565b5090565b50805461064a90610f0b565b5f825580601f1061065b5750610678565b601f0160209004905f5260205f2090810190610677919061067b565b5b50565b5b80821115610692575f815f90555060010161067c565b5090565b5f80fd5b5f80fd5b5f819050919050565b6106b08161069e565b81146106ba575f80fd5b50565b5f813590506106cb816106a7565b92915050565b5f602082840312156106e6576106e5610696565b5b5f6106f3848285016106bd565b91505092915050565b5f8115159050919050565b610710816106fc565b82525050565b5f6020820190506107295f830184610707565b92915050565b5f81519050919050565b5f82825260208201905092915050565b5f5b8381101561076657808201518184015260208101905061074b565b5f8484015250505050565b5f601f19601f8301169050919050565b5f61078b8261072f565b6107958185610739565b93506107a5818560208601610749565b6107ae81610771565b840191505092915050565b5f606083015f8301518482035f8601526107d38282610781565b915050602083015184820360208601526107ed8282610781565b915050604083015184820360408601526108078282610781565b9150508091505092915050565b5f6020820190508181035f83015261082c81846107b9565b905092915050565b5f80fd5b5f80fd5b5f80fd5b5f8083601f84011261085557610854610834565b5b8235905067ffffffffffffffff81111561087257610871610838565b5b60208301915083600182028301111561088e5761088d61083c565b5b9250929050565b5f805f604084860312156108ac576108ab610696565b5b5f6108b9868287016106bd565b935050602084013567ffffffffffffffff8111156108da576108d961069a565b5b6108e686828701610840565b92509250509250925092565b6108fb816106fc565b82525050565b5f81519050919050565b5f82825260208201905092915050565b5f819050602082019050919050565b5f81519050919050565b5f82825260208201905092915050565b5f61094e8261092a565b6109588185610934565b9350610968818560208601610749565b61097181610771565b840191505092915050565b5f6109878383610944565b905092915050565b5f602082019050919050565b5f6109a582610901565b6109af818561090b565b9350836020820285016109c18561091b565b805f5b858110156109fc57848403895281516109dd858261097c565b94506109e88361098f565b925060208a019950506001810190506109c4565b50829750879550505050505092915050565b5f604083015f830151610a235f8601826108f2565b5060208301518482036020860152610a3b828261099b565b9150508091505092915050565b5f6020820190508181035f830152610a608184610a0e565b905092915050565b5f82825260208201905092915050565b5f610a8282610901565b610a8c8185610a68565b935083602082028501610a9e8561091b565b805f5b85811015610ad95784840389528151610aba858261097c565b9450610ac58361098f565b925060208a01995050600181019050610aa1565b50829750879550505050505092915050565b5f6020820190508181035f830152610b038184610a78565b905092915050565b5f82825260208201905092915050565b7f537065632049442063616e6e6f74206265207a65726f000000000000000000005f82015250565b5f610b4f601683610b0b565b9150610b5a82610b1b565b602082019050919050565b5f6020820190508181035f830152610b7c81610b43565b9050919050565b7f4d616e69666573742063616e6e6f7420626520656d70747900000000000000005f82015250565b5f610bb7601883610b0b565b9150610bc282610b83565b602082019050919050565b5f6020820190508181035f830152610be481610bab565b9050919050565b7f4e487b71000000000000000000000000000000000000000000000000000000005f52604160045260245ffd5b5f819050919050565b610c32610c2d8261069e565b610c18565b82525050565b5f610c438284610c21565b60208201915081905092915050565b5f819050919050565b5f819050919050565b610c75610c7082610c52565b610c5b565b82525050565b5f610c868284610c64565b60208201915081905092915050565b5f81905092915050565b7f2f2f2047656e65726174656420537769667420636f646520666f7220737065635f8201527f3a20000000000000000000000000000000000000000000000000000000000000602082015250565b5f610cf9602283610c95565b9150610d0482610c9f565b602282019050919050565b5f81905092915050565b5f610d238261092a565b610d2d8185610d0f565b9350610d3d818560208601610749565b80840191505092915050565b7f0a2f2f204d616e69666573742073697a653a20000000000000000000000000005f82015250565b5f610d7d601383610c95565b9150610d8882610d49565b601382019050919050565b5f610d9d82610ced565b9150610da98285610d19565b9150610db482610d71565b9150610dc08284610d19565b91508190509392505050565b7f4e487b71000000000000000000000000000000000000000000000000000000005f52603260045260245ffd5b7f6f6b0000000000000000000000000000000000000000000000000000000000005f82015250565b5f610e2d600283610b0b565b9150610e3882610df9565b602082019050919050565b5f6040820190508181035f830152610e5a81610e21565b90508181036020830152610e6e8184610a78565b905092915050565b7f4e6f2067656e657261746564206f757470757420666f722073706563000000005f82015250565b5f610eaa601c83610b0b565b9150610eb582610e76565b602082019050919050565b5f6020820190508181035f830152610ed781610e9e565b9050919050565b7f4e487b71000000000000000000000000000000000000000000000000000000005f52602260045260245ffd5b5f6002820490506001821680610f2257607f821691505b602082108103610f3557610f34610ede565b5b50919050565b5f819050815f5260205f209050919050565b5f6020601f8301049050919050565b5f82821b905092915050565b5f60088302610f977fffffffffffffffffffffffffffffffffffffffffffffffffffffffffffffffff82610f5c565b610fa18683610f5c565b95508019841693508086168417925050509392505050565b5f819050919050565b5f610fdc610fd7610fd284610c52565b610fb9565b610c52565b9050919050565b5f819050919050565b610ff583610fc2565b61100961100182610fe3565b848454610f68565b825550505050565b5f90565b61101d611011565b611028818484610fec565b505050565b5b8181101561104b576110405f82611015565b60018101905061102e565b5050565b601f8211156110905761106181610f3b565b61106a84610f4d565b81016020851015611079578190505b61108d61108585610f4d565b83018261102d565b50505b505050565b5f82821c905092915050565b5f6110b05f1984600802611095565b1980831691505092915050565b5f6110c883836110a1565b9150826002028217905092915050565b6110e18261092a565b67ffffffffffffffff8111156110fa576110f9610beb565b5b6111048254610f0b565b61110f82828561104f565b5f60209050601f831160018114611140575f841561112e578287015190505b61113885826110bd565b86555061119f565b601f19841661114e86610f3b565b5f5b8281101561117557848901518255600182019150602085019450602081019050611150565b86831015611192578489015161118e601f8916826110a1565b8355505b6001600288020188555050505b50505050505056fea2646970667358221220c7e4ef0e57f2952bead2c3cb3b771496d2494ac6c04d8f1579dfbc1f2ddaff6164736f6c63430008140033","linkReferences":{}},"methodIdentifiers":{"generate(bytes32,bytes)":"1f31b11f","getGenerated(bytes32)":"c43d3824","hasGenerated(bytes32)":"0f60a2b4","register()":"1aa3a008"},"id":260}