{"abi":[{"type":"function","name":"defineRelation","inputs":[{"name":"relationId","type":"bytes32","internalType":"bytes32"},{"name":"name","type":"string","internalType":"string"},{"name":"sourceType","type":"string","internalType":"string"},{"name":"targetType","type":"string","internalType":"string"},{"name":"cardinality","type":"uint8","internalType":"uint8"},{"name":"bidirectional","type":"bool","internalType":"bool"}],"outputs":[],"stateMutability":"nonpayable"},{"type":"function","name":"getRelated","inputs":[{"name":"nodeId","type":"bytes32","internalType":"bytes32"},{"name":"relationId","type":"bytes32","internalType":"bytes32"}],"outputs":[{"name":"","type":"bytes32[]","internalType":"bytes32[]"}],"stateMutability":"view"},{"type":"function","name":"link","inputs":[{"name":"relationId","type":"bytes32","internalType":"bytes32"},{"name":"sourceId","type":"bytes32","internalType":"bytes32"},{"name":"targetId","type":"bytes32","internalType":"bytes32"}],"outputs":[],"stateMutability":"nonpayable"},{"type":"function","name":"unlink","inputs":[{"name":"relationId","type":"bytes32","internalType":"bytes32"},{"name":"sourceId","type":"bytes32","internalType":"bytes32"},{"name":"targetId","type":"bytes32","internalType":"bytes32"}],"outputs":[],"stateMutability":"nonpayable"},{"type":"event","name":"Linked","inputs":[{"name":"relationId","type":"bytes32","indexed":true,"internalType":"bytes32"},{"name":"sourceId","type":"bytes32","indexed":false,"internalType":"bytes32"},{"name":"targetId","type":"bytes32","indexed":false,"internalType":"bytes32"}],"anonymous":false},{"type":"event","name":"RelationDefined","inputs":[{"name":"relationId","type":"bytes32","indexed":true,"internalType":"bytes32"},{"name":"name","type":"string","indexed":false,"internalType":"string"}],"anonymous":false},{"type":"event","name":"Unlinked","inputs":[{"name":"relationId","type":"bytes32","indexed":true,"internalType":"bytes32"},{"name":"sourceId","type":"bytes32","indexed":false,"internalType":"bytes32"},{"name":"targetId","type":"bytes32","indexed":false,"internalType":"bytes32"}],"anonymous":false}],"bytecode":{"object":"0x608060405234801561000f575f80fd5b506115908061001d5f395ff3fe608060405234801561000f575f80fd5b506004361061004a575f3560e01c80630fa589e81461004e578063404ea78a1461007e578063550f7a121461009a578063b92b0ea5146100b6575b5f80fd5b61006860048036038101906100639190610b14565b6100d2565b6040516100759190610c09565b60405180910390f35b61009860048036038101906100939190610cf5565b6103f6565b005b6100b460048036038101906100af9190610dde565b610691565b005b6100d060048036038101906100cb9190610dde565b61092a565b005b60605f808381526020019081526020015f2060030160029054906101000a900460ff16610134576040517f08c379a000000000000000000000000000000000000000000000000000000000815260040161012b90610e88565b60405180910390fd5b5f60015f8481526020019081526020015f2090505f818054905090505f805f8681526020019081526020015f2060030160019054906101000a900460ff1690505f805b838110156102455784818154811061019257610191610ea6565b5b905f5260205f2090600302016002015f9054906101000a900460ff161561023257878582815481106101c7576101c6610ea6565b5b905f5260205f2090600302015f0154036101ee5781806101e690610f09565b925050610231565b82801561021c57508785828154811061020a57610209610ea6565b5b905f5260205f20906003020160010154145b1561023057818061022c90610f09565b9250505b5b5b808061023d90610f09565b915050610177565b505f8167ffffffffffffffff81111561026157610260610f50565b5b60405190808252806020026020018201604052801561028f5781602001602082028036833780820191505090505b5090505f805b858110156103e6578681815481106102b0576102af610ea6565b5b905f5260205f2090600302016002015f9054906101000a900460ff16156103d357898782815481106102e5576102e4610ea6565b5b905f5260205f2090600302015f01540361034e5786818154811061030c5761030b610ea6565b5b905f5260205f2090600302016001015483838151811061032f5761032e610ea6565b5b602002602001018181525050818061034690610f09565b9250506103d2565b84801561037c57508987828154811061036a57610369610ea6565b5b905f5260205f20906003020160010154145b156103d15786818154811061039457610393610ea6565b5b905f5260205f2090600302015f01548383815181106103b6576103b5610ea6565b5b60200260200101818152505081806103cd90610f09565b9250505b5b5b80806103de90610f09565b915050610295565b5081965050505050505092915050565b5f801b890361043a576040517f08c379a000000000000000000000000000000000000000000000000000000000815260040161043190610fc7565b60405180910390fd5b5f808a81526020019081526020015f2060030160029054906101000a900460ff161561049b576040517f08c379a00000000000000000000000000000000000000000000000000000000081526004016104929061102f565b60405180910390fd5b6040518060c0016040528089898080601f0160208091040260200160405190810160405280939291908181526020018383808284375f81840152601f19601f82011690508083019250505050505050815260200187878080601f0160208091040260200160405190810160405280939291908181526020018383808284375f81840152601f19601f82011690508083019250505050505050815260200185858080601f0160208091040260200160405190810160405280939291908181526020018383808284375f81840152601f19601f8201169050808301925050505050505081526020018360ff1681526020018215158152602001600115158152505f808b81526020019081526020015f205f820151815f0190816105bc9190611251565b5060208201518160010190816105d29190611251565b5060408201518160020190816105e89190611251565b506060820151816003015f6101000a81548160ff021916908360ff16021790555060808201518160030160016101000a81548160ff02191690831515021790555060a08201518160030160026101000a81548160ff021916908315150217905550905050887f98b6ac1405e742a2fd6db9cf61ce45885475205ed8e6f434d02f11e401502bd9898960405161067e92919061136a565b60405180910390a2505050505050505050565b5f808481526020019081526020015f2060030160029054906101000a900460ff166106f1576040517f08c379a00000000000000000000000000000000000000000000000000000000081526004016106e890610e88565b60405180910390fd5b5f60015f8581526020019081526020015f2090505f818054905090505f805b828110156108a7578584828154811061072c5761072b610ea6565b5b905f5260205f2090600302015f015414801561076957508484828154811061075757610756610ea6565b5b905f5260205f20906003020160010154145b80156107a0575083818154811061078357610782610ea6565b5b905f5260205f2090600302016002015f9054906101000a900460ff165b15610894576001836107b2919061138c565b811461084357836001846107c6919061138c565b815481106107d7576107d6610ea6565b5b905f5260205f2090600302018482815481106107f6576107f5610ea6565b5b905f5260205f2090600302015f820154815f015560018201548160010155600282015f9054906101000a900460ff16816002015f6101000a81548160ff0219169083151502179055509050505b83805480610854576108536113bf565b5b600190038181905f5260205f2090600302015f8082015f9055600182015f9055600282015f6101000a81549060ff021916905550509055600191506108a7565b808061089f90610f09565b915050610710565b50806108e8576040517f08c379a00000000000000000000000000000000000000000000000000000000081526004016108df90611436565b60405180910390fd5b857fef8235ecfcdb4f9fd9c23c393cea08ec1de01274e43640ee26bfce4c5662d311868660405161091a929190611463565b60405180910390a2505050505050565b5f808481526020019081526020015f2060030160029054906101000a900460ff1661098a576040517f08c379a000000000000000000000000000000000000000000000000000000000815260040161098190610e88565b60405180910390fd5b5f801b82036109ce576040517f08c379a00000000000000000000000000000000000000000000000000000000081526004016109c5906114d4565b60405180910390fd5b5f801b8103610a12576040517f08c379a0000000000000000000000000000000000000000000000000000000008152600401610a099061153c565b60405180910390fd5b60015f8481526020019081526020015f20604051806060016040528084815260200183815260200160011515815250908060018154018082558091505060019003905f5260205f2090600302015f909190919091505f820151815f0155602082015181600101556040820151816002015f6101000a81548160ff0219169083151502179055505050827f75a9b53a08c66295af7b59e0f93aa331239e288daf2f2463fda65973a02b27d28383604051610acc929190611463565b60405180910390a2505050565b5f80fd5b5f80fd5b5f819050919050565b610af381610ae1565b8114610afd575f80fd5b50565b5f81359050610b0e81610aea565b92915050565b5f8060408385031215610b2a57610b29610ad9565b5b5f610b3785828601610b00565b9250506020610b4885828601610b00565b9150509250929050565b5f81519050919050565b5f82825260208201905092915050565b5f819050602082019050919050565b610b8481610ae1565b82525050565b5f610b958383610b7b565b60208301905092915050565b5f602082019050919050565b5f610bb782610b52565b610bc18185610b5c565b9350610bcc83610b6c565b805f5b83811015610bfc578151610be38882610b8a565b9750610bee83610ba1565b925050600181019050610bcf565b5085935050505092915050565b5f6020820190508181035f830152610c218184610bad565b905092915050565b5f80fd5b5f80fd5b5f80fd5b5f8083601f840112610c4a57610c49610c29565b5b8235905067ffffffffffffffff811115610c6757610c66610c2d565b5b602083019150836001820283011115610c8357610c82610c31565b5b9250929050565b5f60ff82169050919050565b610c9f81610c8a565b8114610ca9575f80fd5b50565b5f81359050610cba81610c96565b92915050565b5f8115159050919050565b610cd481610cc0565b8114610cde575f80fd5b50565b5f81359050610cef81610ccb565b92915050565b5f805f805f805f805f60c08a8c031215610d1257610d11610ad9565b5b5f610d1f8c828d01610b00565b99505060208a013567ffffffffffffffff811115610d4057610d3f610add565b5b610d4c8c828d01610c35565b985098505060408a013567ffffffffffffffff811115610d6f57610d6e610add565b5b610d7b8c828d01610c35565b965096505060608a013567ffffffffffffffff811115610d9e57610d9d610add565b5b610daa8c828d01610c35565b94509450506080610dbd8c828d01610cac565b92505060a0610dce8c828d01610ce1565b9150509295985092959850929598565b5f805f60608486031215610df557610df4610ad9565b5b5f610e0286828701610b00565b9350506020610e1386828701610b00565b9250506040610e2486828701610b00565b9150509250925092565b5f82825260208201905092915050565b7f52656c6174696f6e206e6f7420666f756e6400000000000000000000000000005f82015250565b5f610e72601283610e2e565b9150610e7d82610e3e565b602082019050919050565b5f6020820190508181035f830152610e9f81610e66565b9050919050565b7f4e487b71000000000000000000000000000000000000000000000000000000005f52603260045260245ffd5b7f4e487b71000000000000000000000000000000000000000000000000000000005f52601160045260245ffd5b5f819050919050565b5f610f1382610f00565b91507fffffffffffffffffffffffffffffffffffffffffffffffffffffffffffffffff8203610f4557610f44610ed3565b5b600182019050919050565b7f4e487b71000000000000000000000000000000000000000000000000000000005f52604160045260245ffd5b7f52656c6174696f6e2049442063616e6e6f74206265207a65726f0000000000005f82015250565b5f610fb1601a83610e2e565b9150610fbc82610f7d565b602082019050919050565b5f6020820190508181035f830152610fde81610fa5565b9050919050565b7f52656c6174696f6e20616c726561647920646566696e656400000000000000005f82015250565b5f611019601883610e2e565b915061102482610fe5565b602082019050919050565b5f6020820190508181035f8301526110468161100d565b9050919050565b5f81519050919050565b7f4e487b71000000000000000000000000000000000000000000000000000000005f52602260045260245ffd5b5f600282049050600182168061109b57607f821691505b6020821081036110ae576110ad611057565b5b50919050565b5f819050815f5260205f209050919050565b5f6020601f8301049050919050565b5f82821b905092915050565b5f600883026111107fffffffffffffffffffffffffffffffffffffffffffffffffffffffffffffffff826110d5565b61111a86836110d5565b95508019841693508086168417925050509392505050565b5f819050919050565b5f61115561115061114b84610f00565b611132565b610f00565b9050919050565b5f819050919050565b61116e8361113b565b61118261117a8261115c565b8484546110e1565b825550505050565b5f90565b61119661118a565b6111a1818484611165565b505050565b5b818110156111c4576111b95f8261118e565b6001810190506111a7565b5050565b601f821115611209576111da816110b4565b6111e3846110c6565b810160208510156111f2578190505b6112066111fe856110c6565b8301826111a6565b50505b505050565b5f82821c905092915050565b5f6112295f198460080261120e565b1980831691505092915050565b5f611241838361121a565b9150826002028217905092915050565b61125a8261104d565b67ffffffffffffffff81111561127357611272610f50565b5b61127d8254611084565b6112888282856111c8565b5f60209050601f8311600181146112b9575f84156112a7578287015190505b6112b18582611236565b865550611318565b601f1984166112c7866110b4565b5f5b828110156112ee578489015182556001820191506020850194506020810190506112c9565b8683101561130b5784890151611307601f89168261121a565b8355505b6001600288020188555050505b505050505050565b828183375f83830152505050565b5f601f19601f8301169050919050565b5f6113498385610e2e565b9350611356838584611320565b61135f8361132e565b840190509392505050565b5f6020820190508181035f83015261138381848661133e565b90509392505050565b5f61139682610f00565b91506113a183610f00565b92508282039050818111156113b9576113b8610ed3565b5b92915050565b7f4e487b71000000000000000000000000000000000000000000000000000000005f52603160045260245ffd5b7f4c696e6b206e6f7420666f756e640000000000000000000000000000000000005f82015250565b5f611420600e83610e2e565b915061142b826113ec565b602082019050919050565b5f6020820190508181035f83015261144d81611414565b9050919050565b61145d81610ae1565b82525050565b5f6040820190506114765f830185611454565b6114836020830184611454565b9392505050565b7f536f757263652049442063616e6e6f74206265207a65726f00000000000000005f82015250565b5f6114be601883610e2e565b91506114c98261148a565b602082019050919050565b5f6020820190508181035f8301526114eb816114b2565b9050919050565b7f5461726765742049442063616e6e6f74206265207a65726f00000000000000005f82015250565b5f611526601883610e2e565b9150611531826114f2565b602082019050919050565b5f6020820190508181035f8301526115538161151a565b905091905056fea26469706673582212208cb0c3913193fa6d745d5e74b44a7dddd61f32389ff437f48d68a2ffd8310d5b64736f6c63430008140033","linkReferences":{}},"methodIdentifiers":{"defineRelation(bytes32,string,string,string,uint8,bool)":"404ea78a","getRelated(bytes32,bytes32)":"0fa589e8","link(bytes32,bytes32,bytes32)":"b92b0ea5","unlink(bytes32,bytes32,bytes32)":"550f7a12"},"id":216}