{"abi":[{"type":"function","name":"applyTransform","inputs":[{"name":"transformId","type":"bytes32","internalType":"bytes32"},{"name":"value","type":"string","internalType":"string"}],"outputs":[{"name":"result","type":"string","internalType":"string"}],"stateMutability":"nonpayable"},{"type":"function","name":"chain","inputs":[{"name":"value","type":"string","internalType":"string"},{"name":"transformIds","type":"bytes32[]","internalType":"bytes32[]"}],"outputs":[{"name":"result","type":"string","internalType":"string"}],"stateMutability":"nonpayable"},{"type":"function","name":"getTransform","inputs":[{"name":"transformId","type":"bytes32","internalType":"bytes32"}],"outputs":[{"name":"","type":"tuple","internalType":"struct Transform.TransformEntry","components":[{"name":"name","type":"string","internalType":"string"},{"name":"pluginId","type":"bytes32","internalType":"bytes32"},{"name":"config","type":"string","internalType":"string"},{"name":"exists","type":"bool","internalType":"bool"}]}],"stateMutability":"view"},{"type":"function","name":"register","inputs":[{"name":"transformId","type":"bytes32","internalType":"bytes32"},{"name":"name","type":"string","internalType":"string"},{"name":"pluginId","type":"bytes32","internalType":"bytes32"},{"name":"config","type":"string","internalType":"string"}],"outputs":[],"stateMutability":"nonpayable"},{"type":"function","name":"transformExists","inputs":[{"name":"transformId","type":"bytes32","internalType":"bytes32"}],"outputs":[{"name":"","type":"bool","internalType":"bool"}],"stateMutability":"view"},{"type":"event","name":"ChainCompleted","inputs":[{"name":"chainLength","type":"uint256","indexed":false,"internalType":"uint256"}],"anonymous":false},{"type":"event","name":"TransformApplied","inputs":[{"name":"transformId","type":"bytes32","indexed":true,"internalType":"bytes32"},{"name":"value","type":"string","indexed":false,"internalType":"string"}],"anonymous":false},{"type":"event","name":"TransformRegistered","inputs":[{"name":"transformId","type":"bytes32","indexed":true,"internalType":"bytes32"},{"name":"name","type":"string","indexed":false,"internalType":"string"}],"anonymous":false}],"bytecode":{"object":"0x608060405234801561000f575f80fd5b5061130d8061001d5f395ff3fe608060405234801561000f575f80fd5b5060043610610055575f3560e01c8063112995f1146100595780632434db65146100895780632b49f5aa146100a557806347836789146100d55780635287e31114610105575b5f80fd5b610073600480360381019061006e919061081a565b610135565b604051610080919061095f565b60405180910390f35b6100a3600480360381019061009e91906109e0565b610301565b005b6100bf60048036038101906100ba9190610a83565b61053c565b6040516100cc9190610b28565b60405180910390f35b6100ef60048036038101906100ea919061081a565b610624565b6040516100fc9190610b57565b60405180910390f35b61011f600480360381019061011a9190610bc5565b61064c565b60405161012c9190610b28565b60405180910390f35b61013d6107b4565b5f808381526020019081526020015f206003015f9054906101000a900460ff1661019c576040517f08c379a000000000000000000000000000000000000000000000000000000000815260040161019390610c8d565b60405180910390fd5b5f808381526020019081526020015f206040518060800160405290815f820180546101c690610cd8565b80601f01602080910402602001604051908101604052809291908181526020018280546101f290610cd8565b801561023d5780601f106102145761010080835404028352916020019161023d565b820191905f5260205f20905b81548152906001019060200180831161022057829003601f168201915b505050505081526020016001820154815260200160028201805461026090610cd8565b80601f016020809104026020016040519081016040528092919081815260200182805461028c90610cd8565b80156102d75780601f106102ae576101008083540402835291602001916102d7565b820191905f5260205f20905b8154815290600101906020018083116102ba57829003601f168201915b50505050508152602001600382015f9054906101000a900460ff1615151515815250509050919050565b5f801b8603610345576040517f08c379a000000000000000000000000000000000000000000000000000000000815260040161033c90610d52565b60405180910390fd5b5f808781526020019081526020015f206003015f9054906101000a900460ff16156103a5576040517f08c379a000000000000000000000000000000000000000000000000000000000815260040161039c90610dba565b60405180910390fd5b5f85859050116103ea576040517f08c379a00000000000000000000000000000000000000000000000000000000081526004016103e190610e22565b60405180910390fd5b604051806080016040528086868080601f0160208091040260200160405190810160405280939291908181526020018383808284375f81840152601f19601f82011690508083019250505050505050815260200184815260200183838080601f0160208091040260200160405190810160405280939291908181526020018383808284375f81840152601f19601f820116905080830192505050505050508152602001600115158152505f808881526020019081526020015f205f820151815f0190816104b79190611013565b506020820151816001015560408201518160020190816104d79190611013565b506060820151816003015f6101000a81548160ff021916908315150217905550905050857f2086ef73f22e27514593ece32f0197f49d336caccbe1db4db38362365ffa3dcc868660405161052c92919061111c565b60405180910390a2505050505050565b60605f808581526020019081526020015f206003015f9054906101000a900460ff1661059d576040517f08c379a000000000000000000000000000000000000000000000000000000000815260040161059490610c8d565b60405180910390fd5b837f4c7901f2d3a207075990e341b86bb62077c5cb43c926a779f3dffa98001231b384846040516105cf92919061111c565b60405180910390a282828080601f0160208091040260200160405190810160405280939291908181526020018383808284375f81840152601f19601f8201169050808301925050505050505090509392505050565b5f805f8381526020019081526020015f206003015f9054906101000a900460ff169050919050565b60605f8383905011610693576040517f08c379a000000000000000000000000000000000000000000000000000000000815260040161068a90611188565b60405180910390fd5b5f5b8383905081101561072b575f808585848181106106b5576106b46111a6565b5b9050602002013581526020019081526020015f206003015f9054906101000a900460ff16610718576040517f08c379a000000000000000000000000000000000000000000000000000000000815260040161070f9061121d565b60405180910390fd5b808061072390611268565b915050610695565b507fe4681a20adc4c9edec955e7a4205983a53758917dbd7eba49df2d434c3d5a45e8383905060405161075e91906112be565b60405180910390a184848080601f0160208091040260200160405190810160405280939291908181526020018383808284375f81840152601f19601f820116905080830192505050505050509050949350505050565b6040518060800160405280606081526020015f8019168152602001606081526020015f151581525090565b5f80fd5b5f80fd5b5f819050919050565b6107f9816107e7565b8114610803575f80fd5b50565b5f81359050610814816107f0565b92915050565b5f6020828403121561082f5761082e6107df565b5b5f61083c84828501610806565b91505092915050565b5f81519050919050565b5f82825260208201905092915050565b5f5b8381101561087c578082015181840152602081019050610861565b5f8484015250505050565b5f601f19601f8301169050919050565b5f6108a182610845565b6108ab818561084f565b93506108bb81856020860161085f565b6108c481610887565b840191505092915050565b6108d8816107e7565b82525050565b5f8115159050919050565b6108f2816108de565b82525050565b5f608083015f8301518482035f8601526109128282610897565b915050602083015161092760208601826108cf565b506040830151848203604086015261093f8282610897565b915050606083015161095460608601826108e9565b508091505092915050565b5f6020820190508181035f83015261097781846108f8565b905092915050565b5f80fd5b5f80fd5b5f80fd5b5f8083601f8401126109a05761099f61097f565b5b8235905067ffffffffffffffff8111156109bd576109bc610983565b5b6020830191508360018202830111156109d9576109d8610987565b5b9250929050565b5f805f805f80608087890312156109fa576109f96107df565b5b5f610a0789828a01610806565b965050602087013567ffffffffffffffff811115610a2857610a276107e3565b5b610a3489828a0161098b565b95509550506040610a4789828a01610806565b935050606087013567ffffffffffffffff811115610a6857610a676107e3565b5b610a7489828a0161098b565b92509250509295509295509295565b5f805f60408486031215610a9a57610a996107df565b5b5f610aa786828701610806565b935050602084013567ffffffffffffffff811115610ac857610ac76107e3565b5b610ad48682870161098b565b92509250509250925092565b5f82825260208201905092915050565b5f610afa82610845565b610b048185610ae0565b9350610b1481856020860161085f565b610b1d81610887565b840191505092915050565b5f6020820190508181035f830152610b408184610af0565b905092915050565b610b51816108de565b82525050565b5f602082019050610b6a5f830184610b48565b92915050565b5f8083601f840112610b8557610b8461097f565b5b8235905067ffffffffffffffff811115610ba257610ba1610983565b5b602083019150836020820283011115610bbe57610bbd610987565b5b9250929050565b5f805f8060408587031215610bdd57610bdc6107df565b5b5f85013567ffffffffffffffff811115610bfa57610bf96107e3565b5b610c068782880161098b565b9450945050602085013567ffffffffffffffff811115610c2957610c286107e3565b5b610c3587828801610b70565b925092505092959194509250565b7f5472616e73666f726d206e6f7420666f756e64000000000000000000000000005f82015250565b5f610c77601383610ae0565b9150610c8282610c43565b602082019050919050565b5f6020820190508181035f830152610ca481610c6b565b9050919050565b7f4e487b71000000000000000000000000000000000000000000000000000000005f52602260045260245ffd5b5f6002820490506001821680610cef57607f821691505b602082108103610d0257610d01610cab565b5b50919050565b7f5472616e73666f726d2049442063616e6e6f74206265207a65726f00000000005f82015250565b5f610d3c601b83610ae0565b9150610d4782610d08565b602082019050919050565b5f6020820190508181035f830152610d6981610d30565b9050919050565b7f5472616e73666f726d20616c72656164792065786973747300000000000000005f82015250565b5f610da4601883610ae0565b9150610daf82610d70565b602082019050919050565b5f6020820190508181035f830152610dd181610d98565b9050919050565b7f4e616d652063616e6e6f7420626520656d7074790000000000000000000000005f82015250565b5f610e0c601483610ae0565b9150610e1782610dd8565b602082019050919050565b5f6020820190508181035f830152610e3981610e00565b9050919050565b7f4e487b71000000000000000000000000000000000000000000000000000000005f52604160045260245ffd5b5f819050815f5260205f209050919050565b5f6020601f8301049050919050565b5f82821b905092915050565b5f60088302610ec97fffffffffffffffffffffffffffffffffffffffffffffffffffffffffffffffff82610e8e565b610ed38683610e8e565b95508019841693508086168417925050509392505050565b5f819050919050565b5f819050919050565b5f610f17610f12610f0d84610eeb565b610ef4565b610eeb565b9050919050565b5f819050919050565b610f3083610efd565b610f44610f3c82610f1e565b848454610e9a565b825550505050565b5f90565b610f58610f4c565b610f63818484610f27565b505050565b5b81811015610f8657610f7b5f82610f50565b600181019050610f69565b5050565b601f821115610fcb57610f9c81610e6d565b610fa584610e7f565b81016020851015610fb4578190505b610fc8610fc085610e7f565b830182610f68565b50505b505050565b5f82821c905092915050565b5f610feb5f1984600802610fd0565b1980831691505092915050565b5f6110038383610fdc565b9150826002028217905092915050565b61101c82610845565b67ffffffffffffffff81111561103557611034610e40565b5b61103f8254610cd8565b61104a828285610f8a565b5f60209050601f83116001811461107b575f8415611069578287015190505b6110738582610ff8565b8655506110da565b601f19841661108986610e6d565b5f5b828110156110b05784890151825560018201915060208501945060208101905061108b565b868310156110cd57848901516110c9601f891682610fdc565b8355505b6001600288020188555050505b505050505050565b828183375f83830152505050565b5f6110fb8385610ae0565b93506111088385846110e2565b61111183610887565b840190509392505050565b5f6020820190508181035f8301526111358184866110f0565b90509392505050565b7f5472616e73666f726d20636861696e2063616e6e6f7420626520656d707479005f82015250565b5f611172601f83610ae0565b915061117d8261113e565b602082019050919050565b5f6020820190508181035f83015261119f81611166565b9050919050565b7f4e487b71000000000000000000000000000000000000000000000000000000005f52603260045260245ffd5b7f5472616e73666f726d20696e20636861696e206e6f7420666f756e64000000005f82015250565b5f611207601c83610ae0565b9150611212826111d3565b602082019050919050565b5f6020820190508181035f830152611234816111fb565b9050919050565b7f4e487b71000000000000000000000000000000000000000000000000000000005f52601160045260245ffd5b5f61127282610eeb565b91507fffffffffffffffffffffffffffffffffffffffffffffffffffffffffffffffff82036112a4576112a361123b565b5b600182019050919050565b6112b881610eeb565b82525050565b5f6020820190506112d15f8301846112af565b9291505056fea2646970667358221220176bb93e5187f5ab3c34463d9b99291b5eb8b0e3f0cc8d58dea3fbb31c1c81c564736f6c63430008140033","linkReferences":{}},"methodIdentifiers":{"applyTransform(bytes32,string)":"2b49f5aa","chain(string,bytes32[])":"5287e311","getTransform(bytes32)":"112995f1","register(bytes32,string,bytes32,string)":"2434db65","transformExists(bytes32)":"47836789"},"id":296}