{"abi":[{"type":"function","name":"awaitFinality","inputs":[{"name":"txHash","type":"bytes32","internalType":"bytes32"},{"name":"chainId","type":"uint256","internalType":"uint256"},{"name":"blockNumber","type":"uint256","internalType":"uint256"},{"name":"requiredConfirmations","type":"uint256","internalType":"uint256"}],"outputs":[],"stateMutability":"nonpayable"},{"type":"function","name":"getPendingFinality","inputs":[{"name":"txHash","type":"bytes32","internalType":"bytes32"}],"outputs":[{"name":"exists","type":"bool","internalType":"bool"},{"name":"currentConfirmations","type":"uint256","internalType":"uint256"},{"name":"requiredConfirmations","type":"uint256","internalType":"uint256"},{"name":"resolved","type":"bool","internalType":"bool"}],"stateMutability":"view"},{"type":"function","name":"getSubscription","inputs":[{"name":"chainId","type":"uint256","internalType":"uint256"}],"outputs":[{"name":"active","type":"bool","internalType":"bool"},{"name":"rpcUrl","type":"string","internalType":"string"},{"name":"latestBlock","type":"uint256","internalType":"uint256"},{"name":"latestHash","type":"bytes32","internalType":"bytes32"}],"stateMutability":"view"},{"type":"function","name":"onBlock","inputs":[{"name":"chainId","type":"uint256","internalType":"uint256"},{"name":"blockNumber","type":"uint256","internalType":"uint256"},{"name":"blockHash","type":"bytes32","internalType":"bytes32"}],"outputs":[{"name":"reorged","type":"bool","internalType":"bool"}],"stateMutability":"nonpayable"},{"type":"function","name":"subscribe","inputs":[{"name":"chainId","type":"uint256","internalType":"uint256"},{"name":"rpcUrl","type":"string","internalType":"string"}],"outputs":[],"stateMutability":"nonpayable"},{"type":"event","name":"BlockReceived","inputs":[{"name":"chainId","type":"uint256","indexed":true,"internalType":"uint256"},{"name":"blockNumber","type":"uint256","indexed":false,"internalType":"uint256"},{"name":"blockHash","type":"bytes32","indexed":false,"internalType":"bytes32"}],"anonymous":false},{"type":"event","name":"FinalityReached","inputs":[{"name":"txHash","type":"bytes32","indexed":true,"internalType":"bytes32"},{"name":"confirmations","type":"uint256","indexed":false,"internalType":"uint256"}],"anonymous":false},{"type":"event","name":"Reorged","inputs":[{"name":"chainId","type":"uint256","indexed":true,"internalType":"uint256"},{"name":"oldBlock","type":"uint256","indexed":false,"internalType":"uint256"},{"name":"oldHash","type":"bytes32","indexed":false,"internalType":"bytes32"},{"name":"newBlock","type":"uint256","indexed":false,"internalType":"uint256"},{"name":"newHash","type":"bytes32","indexed":false,"internalType":"bytes32"}],"anonymous":false},{"type":"event","name":"Subscribed","inputs":[{"name":"chainId","type":"uint256","indexed":true,"internalType":"uint256"},{"name":"rpcUrl","type":"string","indexed":false,"internalType":"string"}],"anonymous":false}],"bytecode":{"object":"0x608060405234801561000f575f80fd5b506116628061001d5f395ff3fe608060405234801561000f575f80fd5b5060043610610055575f3560e01c80630bde69e61461005957806386d4fbd314610089578063d0f45d95146100a5578063dc311dd3146100d8578063fb9fd5f21461010b575b5f80fd5b610073600480360381019061006e9190610a5f565b610127565b6040516100809190610ac9565b60405180910390f35b6100a3600480360381019061009e9190610b43565b6103c2565b005b6100bf60048036038101906100ba9190610ba0565b6105bb565b6040516100cf9493929190610bda565b60405180910390f35b6100f260048036038101906100ed9190610c1d565b61061f565b6040516101029493929190610ce1565b60405180910390f35b61012560048036038101906101209190610d2b565b6106f0565b005b5f805f808681526020019081526020015f209050806004015f9054906101000a900460ff1661018b576040517f08c379a000000000000000000000000000000000000000000000000000000000815260040161018290610dd9565b60405180910390fd5b5f801b83036101cf576040517f08c379a00000000000000000000000000000000000000000000000000000000081526004016101c690610e41565b60405180910390fd5b806002015484111580156101e657505f8160020154115b1561023657847f18603bcb648f01de6751db26393eeb61596f7322a90757b59de64b829a952b3f8260020154836003015487876040516102299493929190610e5f565b60405180910390a2600191505b5f81600201549050848260020181905550838260030181905550857f589cc6ef454602d12dcd073fd290fb249b179339ca5b3c4246262bb46c0cf4208686604051610282929190610ea2565b60405180910390a25f5b6003805490508110156103b8575f600382815481106102ae576102ad610ec9565b5b905f5260205f20015490505f60015f8381526020019081526020015f209050806004015f9054906101000a900460ff16156102ea5750506103a5565b8860025f8481526020019081526020015f2054146103095750506103a5565b80600101548811801561031b57508388115b1561033a57806003015f81548092919061033490610f23565b91905055505b80600201548160030154106103a2576001816004015f6101000a81548160ff021916908315150217905550817fd39b73dd3c2ba3a6b8aee97d46293f6b8c31f59fc8044cc7f5f6c1d38099206382600301546040516103999190610f6a565b60405180910390a25b50505b80806103b090610f23565b91505061028c565b5050509392505050565b5f8303610404576040517f08c379a00000000000000000000000000000000000000000000000000000000081526004016103fb90610fcd565b60405180910390fd5b5f8282905011610449576040517f08c379a000000000000000000000000000000000000000000000000000000000815260040161044090611035565b60405180910390fd5b5f808481526020019081526020015f206004015f9054906101000a900460ff16156104a9576040517f08c379a00000000000000000000000000000000000000000000000000000000081526004016104a09061109d565b60405180910390fd5b6040518060a0016040528084815260200183838080601f0160208091040260200160405190810160405280939291908181526020018383808284375f81840152601f19601f8201169050808301925050505050505081526020015f81526020015f801b8152602001600115158152505f808581526020019081526020015f205f820151815f0155602082015181600101908161054591906112e2565b5060408201518160020155606082015181600301556080820151816004015f6101000a81548160ff021916908315150217905550905050827f855b4fe6b1b0447b7048cc4e3d6bcc5f02f2e1c1d55d35903f39a9fa64b3936883836040516105ae9291906113eb565b60405180910390a2505050565b5f805f805f60015f8781526020019081526020015f2090505f801b815f0154036105f1575f805f80945094509450945050610618565b600181600301548260020154836004015f9054906101000a900460ff169450945094509450505b9193509193565b5f60605f805f805f8781526020019081526020015f209050806004015f9054906101000a900460ff16816001018260020154836003015482805461066290611115565b80601f016020809104026020016040519081016040528092919081815260200182805461068e90611115565b80156106d95780601f106106b0576101008083540402835291602001916106d9565b820191905f5260205f20905b8154815290600101906020018083116106bc57829003601f168201915b505050505092509450945094509450509193509193565b5f801b8403610734576040517f08c379a000000000000000000000000000000000000000000000000000000000815260040161072b90611457565b60405180910390fd5b5f808481526020019081526020015f206004015f9054906101000a900460ff16610793576040517f08c379a000000000000000000000000000000000000000000000000000000000815260040161078a90610dd9565b60405180910390fd5b5f81116107d5576040517f08c379a00000000000000000000000000000000000000000000000000000000081526004016107cc906114e5565b60405180910390fd5b60015f8581526020019081526020015f206004015f9054906101000a900460ff1615610836576040517f08c379a000000000000000000000000000000000000000000000000000000000815260040161082d9061154d565b60405180910390fd5b5f801b60015f8681526020019081526020015f205f01541461088d576040517f08c379a0000000000000000000000000000000000000000000000000000000008152600401610884906115db565b60405180910390fd5b5f80805f8681526020019081526020015f20905083816002015411156108c0578381600201546108bd91906115f9565b91505b6040518060a001604052808781526020018581526020018481526020018381526020015f151581525060015f8881526020019081526020015f205f820151815f01556020820151816001015560408201518160020155606082015181600301556080820151816004015f6101000a81548160ff0219169083151502179055509050508460025f8881526020019081526020015f2081905550600386908060018154018082558091505060019003905f5260205f20015f90919091909150558282106109e9576001805f8881526020019081526020015f206004015f6101000a81548160ff021916908315150217905550857fd39b73dd3c2ba3a6b8aee97d46293f6b8c31f59fc8044cc7f5f6c1d380992063836040516109e09190610f6a565b60405180910390a25b505050505050565b5f80fd5b5f80fd5b5f819050919050565b610a0b816109f9565b8114610a15575f80fd5b50565b5f81359050610a2681610a02565b92915050565b5f819050919050565b610a3e81610a2c565b8114610a48575f80fd5b50565b5f81359050610a5981610a35565b92915050565b5f805f60608486031215610a7657610a756109f1565b5b5f610a8386828701610a18565b9350506020610a9486828701610a18565b9250506040610aa586828701610a4b565b9150509250925092565b5f8115159050919050565b610ac381610aaf565b82525050565b5f602082019050610adc5f830184610aba565b92915050565b5f80fd5b5f80fd5b5f80fd5b5f8083601f840112610b0357610b02610ae2565b5b8235905067ffffffffffffffff811115610b2057610b1f610ae6565b5b602083019150836001820283011115610b3c57610b3b610aea565b5b9250929050565b5f805f60408486031215610b5a57610b596109f1565b5b5f610b6786828701610a18565b935050602084013567ffffffffffffffff811115610b8857610b876109f5565b5b610b9486828701610aee565b92509250509250925092565b5f60208284031215610bb557610bb46109f1565b5b5f610bc284828501610a4b565b91505092915050565b610bd4816109f9565b82525050565b5f608082019050610bed5f830187610aba565b610bfa6020830186610bcb565b610c076040830185610bcb565b610c146060830184610aba565b95945050505050565b5f60208284031215610c3257610c316109f1565b5b5f610c3f84828501610a18565b91505092915050565b5f81519050919050565b5f82825260208201905092915050565b5f5b83811015610c7f578082015181840152602081019050610c64565b5f8484015250505050565b5f601f19601f8301169050919050565b5f610ca482610c48565b610cae8185610c52565b9350610cbe818560208601610c62565b610cc781610c8a565b840191505092915050565b610cdb81610a2c565b82525050565b5f608082019050610cf45f830187610aba565b8181036020830152610d068186610c9a565b9050610d156040830185610bcb565b610d226060830184610cd2565b95945050505050565b5f805f8060808587031215610d4357610d426109f1565b5b5f610d5087828801610a4b565b9450506020610d6187828801610a18565b9350506040610d7287828801610a18565b9250506060610d8387828801610a18565b91505092959194509250565b7f436861696e206e6f7420737562736372696265640000000000000000000000005f82015250565b5f610dc3601483610c52565b9150610dce82610d8f565b602082019050919050565b5f6020820190508181035f830152610df081610db7565b9050919050565b7f426c6f636b20686173682063616e6e6f74206265207a65726f000000000000005f82015250565b5f610e2b601983610c52565b9150610e3682610df7565b602082019050919050565b5f6020820190508181035f830152610e5881610e1f565b9050919050565b5f608082019050610e725f830187610bcb565b610e7f6020830186610cd2565b610e8c6040830185610bcb565b610e996060830184610cd2565b95945050505050565b5f604082019050610eb55f830185610bcb565b610ec26020830184610cd2565b9392505050565b7f4e487b71000000000000000000000000000000000000000000000000000000005f52603260045260245ffd5b7f4e487b71000000000000000000000000000000000000000000000000000000005f52601160045260245ffd5b5f610f2d826109f9565b91507fffffffffffffffffffffffffffffffffffffffffffffffffffffffffffffffff8203610f5f57610f5e610ef6565b5b600182019050919050565b5f602082019050610f7d5f830184610bcb565b92915050565b7f436861696e2049442063616e6e6f74206265207a65726f0000000000000000005f82015250565b5f610fb7601783610c52565b9150610fc282610f83565b602082019050919050565b5f6020820190508181035f830152610fe481610fab565b9050919050565b7f5250432055524c2063616e6e6f7420626520656d7074790000000000000000005f82015250565b5f61101f601783610c52565b915061102a82610feb565b602082019050919050565b5f6020820190508181035f83015261104c81611013565b9050919050565b7f436861696e20616c7265616479207375627363726962656400000000000000005f82015250565b5f611087601883610c52565b915061109282611053565b602082019050919050565b5f6020820190508181035f8301526110b48161107b565b9050919050565b7f4e487b71000000000000000000000000000000000000000000000000000000005f52604160045260245ffd5b7f4e487b71000000000000000000000000000000000000000000000000000000005f52602260045260245ffd5b5f600282049050600182168061112c57607f821691505b60208210810361113f5761113e6110e8565b5b50919050565b5f819050815f5260205f209050919050565b5f6020601f8301049050919050565b5f82821b905092915050565b5f600883026111a17fffffffffffffffffffffffffffffffffffffffffffffffffffffffffffffffff82611166565b6111ab8683611166565b95508019841693508086168417925050509392505050565b5f819050919050565b5f6111e66111e16111dc846109f9565b6111c3565b6109f9565b9050919050565b5f819050919050565b6111ff836111cc565b61121361120b826111ed565b848454611172565b825550505050565b5f90565b61122761121b565b6112328184846111f6565b505050565b5b818110156112555761124a5f8261121f565b600181019050611238565b5050565b601f82111561129a5761126b81611145565b61127484611157565b81016020851015611283578190505b61129761128f85611157565b830182611237565b50505b505050565b5f82821c905092915050565b5f6112ba5f198460080261129f565b1980831691505092915050565b5f6112d283836112ab565b9150826002028217905092915050565b6112eb82610c48565b67ffffffffffffffff811115611304576113036110bb565b5b61130e8254611115565b611319828285611259565b5f60209050601f83116001811461134a575f8415611338578287015190505b61134285826112c7565b8655506113a9565b601f19841661135886611145565b5f5b8281101561137f5784890151825560018201915060208501945060208101905061135a565b8683101561139c5784890151611398601f8916826112ab565b8355505b6001600288020188555050505b505050505050565b828183375f83830152505050565b5f6113ca8385610c52565b93506113d78385846113b1565b6113e083610c8a565b840190509392505050565b5f6020820190508181035f8301526114048184866113bf565b90509392505050565b7f547820686173682063616e6e6f74206265207a65726f000000000000000000005f82015250565b5f611441601683610c52565b915061144c8261140d565b602082019050919050565b5f6020820190508181035f83015261146e81611435565b9050919050565b7f526571756972656420636f6e6669726d6174696f6e73206d757374206265203e5f8201527f2030000000000000000000000000000000000000000000000000000000000000602082015250565b5f6114cf602283610c52565b91506114da82611475565b604082019050919050565b5f6020820190508181035f8301526114fc816114c3565b9050919050565b7f46696e616c69747920616c7265616479207265736f6c766564000000000000005f82015250565b5f611537601983610c52565b915061154282611503565b602082019050919050565b5f6020820190508181035f8301526115648161152b565b9050919050565b7f416c7265616479206177616974696e672066696e616c69747920666f722074685f8201527f6973207478000000000000000000000000000000000000000000000000000000602082015250565b5f6115c5602583610c52565b91506115d08261156b565b604082019050919050565b5f6020820190508181035f8301526115f2816115b9565b9050919050565b5f611603826109f9565b915061160e836109f9565b925082820390508181111561162657611625610ef6565b5b9291505056fea264697066735822122029d50c7ed8d975e8d33e37157a465cacd2ac90d3b10a2a1ae4605e2f70bf307a64736f6c63430008140033","linkReferences":{}},"methodIdentifiers":{"awaitFinality(bytes32,uint256,uint256,uint256)":"fb9fd5f2","getPendingFinality(bytes32)":"d0f45d95","getSubscription(uint256)":"dc311dd3","onBlock(uint256,uint256,bytes32)":"0bde69e6","subscribe(uint256,string)":"86d4fbd3"},"id":51}