{"abi":[{"type":"function","name":"generate","inputs":[{"name":"planId","type":"bytes32","internalType":"bytes32"}],"outputs":[{"name":"","type":"tuple","internalType":"struct Generator.GenerateOkResult","components":[{"name":"success","type":"bool","internalType":"bool"},{"name":"plan","type":"bytes32","internalType":"bytes32"},{"name":"filesGenerated","type":"int256","internalType":"int256"},{"name":"filesUnchanged","type":"int256","internalType":"int256"},{"name":"duration","type":"int256","internalType":"int256"}]}],"stateMutability":"nonpayable"},{"type":"function","name":"plan","inputs":[{"name":"kit","type":"string","internalType":"string"},{"name":"interfaceManifest","type":"string","internalType":"string"}],"outputs":[{"name":"","type":"tuple","internalType":"struct Generator.PlanOkResult","components":[{"name":"success","type":"bool","internalType":"bool"},{"name":"plan","type":"bytes32","internalType":"bytes32"},{"name":"targets","type":"string[]","internalType":"string[]"},{"name":"concepts","type":"string[]","internalType":"string[]"},{"name":"estimatedFiles","type":"int256","internalType":"int256"}]}],"stateMutability":"nonpayable"},{"type":"function","name":"regenerate","inputs":[{"name":"planId","type":"bytes32","internalType":"bytes32"},{"name":"targets","type":"string[]","internalType":"string[]"}],"outputs":[{"name":"","type":"tuple","internalType":"struct Generator.RegenerateOkResult","components":[{"name":"success","type":"bool","internalType":"bool"},{"name":"plan","type":"bytes32","internalType":"bytes32"},{"name":"filesRegenerated","type":"int256","internalType":"int256"}]}],"stateMutability":"nonpayable"},{"type":"event","name":"GenerateCompleted","inputs":[{"name":"variant","type":"string","indexed":false,"internalType":"string"},{"name":"plan","type":"bytes32","indexed":false,"internalType":"bytes32"},{"name":"filesGenerated","type":"int256","indexed":false,"internalType":"int256"},{"name":"filesUnchanged","type":"int256","indexed":false,"internalType":"int256"},{"name":"duration","type":"int256","indexed":false,"internalType":"int256"},{"name":"generated","type":"string[]","indexed":false,"internalType":"string[]"},{"name":"failed","type":"string[]","indexed":false,"internalType":"string[]"},{"name":"breakingChanges","type":"string[]","indexed":false,"internalType":"string[]"}],"anonymous":false},{"type":"event","name":"PlanCompleted","inputs":[{"name":"variant","type":"string","indexed":false,"internalType":"string"},{"name":"plan","type":"bytes32","indexed":false,"internalType":"bytes32"},{"name":"targets","type":"string[]","indexed":false,"internalType":"string[]"},{"name":"concepts","type":"string[]","indexed":false,"internalType":"string[]"},{"name":"estimatedFiles","type":"int256","indexed":false,"internalType":"int256"}],"anonymous":false},{"type":"event","name":"RegenerateCompleted","inputs":[{"name":"variant","type":"string","indexed":false,"internalType":"string"},{"name":"plan","type":"bytes32","indexed":false,"internalType":"bytes32"},{"name":"filesRegenerated","type":"int256","indexed":false,"internalType":"int256"}],"anonymous":false}],"bytecode":{"object":"0x608060405234801561000f575f80fd5b506118fd8061001d5f395ff3fe608060405234801561000f575f80fd5b506004361061003f575f3560e01c806312a6f5f414610043578063732340ee14610073578063b9eee6ee146100a3575b5f80fd5b61005d6004803603810190610058919061097b565b6100d3565b60405161006a9190610a4d565b60405180910390f35b61008d60048036038101906100889190610c84565b6102c1565b60405161009a9190610d1e565b60405180910390f35b6100bd60048036038101906100b89190610d37565b610465565b6040516100ca9190610f5c565b60405180910390f35b6100db6107e2565b5f808381526020019081526020015f206009015f9054906101000a900460ff1661013a576040517f08c379a000000000000000000000000000000000000000000000000000000000815260040161013190610fd6565b60405180910390fd5b5f808381526020019081526020015f206005015f9054906101000a900460ff161561019a576040517f08c379a00000000000000000000000000000000000000000000000000000000081526004016101919061103e565b60405180910390fd5b5f805f8481526020019081526020015f2090505f816004015490505f808360080154426101c79190611092565b90506001846005015f6101000a81548160ff0219169083151502179055508284600601819055508184600701819055505f8067ffffffffffffffff81111561021257610211610a7a565b5b60405190808252806020026020018201604052801561024557816020015b60608152602001906001900390816102305790505b5090507f84213fbe0f03323c81b0ccf6e856eacfc79d7906c440ca1a4c27e1d2e246e1848785858585868760405161028397969594939291906111b0565b60405180910390a16040518060a001604052806001151581526020018881526020018581526020018481526020018381525095505050505050919050565b6102c9610811565b5f808481526020019081526020015f206009015f9054906101000a900460ff16610328576040517f08c379a000000000000000000000000000000000000000000000000000000000815260040161031f90610fd6565b60405180910390fd5b5f808481526020019081526020015f206005015f9054906101000a900460ff16610387576040517f08c379a000000000000000000000000000000000000000000000000000000000815260040161037e90611290565b60405180910390fd5b5f8251116103ca576040517f08c379a00000000000000000000000000000000000000000000000000000000081526004016103c1906112f8565b60405180910390fd5b5f82519050805f808681526020019081526020015f20600601546103ee9190611316565b5f808681526020019081526020015f20600601819055507f7f7275d6b67a55d41b68918290678d427d5c15b81a6fa8fd194dffd689dad2348482604051610436929190611357565b60405180910390a160405180606001604052806001151581526020018581526020018281525091505092915050565b61046d610834565b5f8351116104b0576040517f08c379a00000000000000000000000000000000000000000000000000000000081526004016104a7906113db565b60405180910390fd5b5f8251116104f3576040517f08c379a00000000000000000000000000000000000000000000000000000000081526004016104ea90611469565b60405180910390fd5b5f83834260025f81548092919061050990611487565b919050556040516020016105209493929190611528565b6040516020818303038152906040528051906020012090505f600167ffffffffffffffff81111561055457610553610a7a565b5b60405190808252806020026020018201604052801561058757816020015b60608152602001906001900390816105725790505b50905084815f8151811061059e5761059d61156d565b5b60200260200101819052505f600167ffffffffffffffff8111156105c5576105c4610a7a565b5b6040519080825280602002602001820160405280156105f857816020015b60608152602001906001900390816105e35790505b50905084815f8151811061060f5761060e61156d565b5b60200260200101819052505f600190506040518061014001604052808881526020018781526020018481526020018381526020018281526020015f151581526020015f81526020015f8152602001428152602001600115158152505f808681526020019081526020015f205f820151815f01908161068d9190611794565b5060208201518160010190816106a39190611794565b5060408201518160020190805190602001906106c0929190610865565b5060608201518160030190805190602001906106dd929190610865565b506080820151816004015560a0820151816005015f6101000a81548160ff02191690831515021790555060c0820151816006015560e082015181600701556101008201518160080155610120820151816009015f6101000a81548160ff021916908315150217905550905050600184908060018154018082558091505060019003905f5260205f20015f90919091909150557facb3692b1cde894425a2dbdcfac74f0477875c7fe79bd73072b1aef4f5b58d5b848484846040516107a49493929190611863565b60405180910390a16040518060a001604052806001151581526020018581526020018481526020018381526020018281525094505050505092915050565b6040518060a001604052805f151581526020015f80191681526020015f81526020015f81526020015f81525090565b60405180606001604052805f151581526020015f80191681526020015f81525090565b6040518060a001604052805f151581526020015f801916815260200160608152602001606081526020015f81525090565b828054828255905f5260205f209081019282156108ab579160200282015b828111156108aa57825182908161089a9190611794565b5091602001919060010190610883565b5b5090506108b891906108bc565b5090565b5b808211156108db575f81816108d291906108df565b506001016108bd565b5090565b5080546108eb906115c7565b5f825580601f106108fc5750610919565b601f0160209004905f5260205f2090810190610918919061091c565b5b50565b5b80821115610933575f815f90555060010161091d565b5090565b5f604051905090565b5f80fd5b5f80fd5b5f819050919050565b61095a81610948565b8114610964575f80fd5b50565b5f8135905061097581610951565b92915050565b5f602082840312156109905761098f610940565b5b5f61099d84828501610967565b91505092915050565b5f8115159050919050565b6109ba816109a6565b82525050565b6109c981610948565b82525050565b5f819050919050565b6109e1816109cf565b82525050565b60a082015f8201516109fb5f8501826109b1565b506020820151610a0e60208501826109c0565b506040820151610a2160408501826109d8565b506060820151610a3460608501826109d8565b506080820151610a4760808501826109d8565b50505050565b5f60a082019050610a605f8301846109e7565b92915050565b5f80fd5b5f601f19601f8301169050919050565b7f4e487b71000000000000000000000000000000000000000000000000000000005f52604160045260245ffd5b610ab082610a6a565b810181811067ffffffffffffffff82111715610acf57610ace610a7a565b5b80604052505050565b5f610ae1610937565b9050610aed8282610aa7565b919050565b5f67ffffffffffffffff821115610b0c57610b0b610a7a565b5b602082029050602081019050919050565b5f80fd5b5f80fd5b5f67ffffffffffffffff821115610b3f57610b3e610a7a565b5b610b4882610a6a565b9050602081019050919050565b828183375f83830152505050565b5f610b75610b7084610b25565b610ad8565b905082815260208101848484011115610b9157610b90610b21565b5b610b9c848285610b55565b509392505050565b5f82601f830112610bb857610bb7610a66565b5b8135610bc8848260208601610b63565b91505092915050565b5f610be3610bde84610af2565b610ad8565b90508083825260208201905060208402830185811115610c0657610c05610b1d565b5b835b81811015610c4d57803567ffffffffffffffff811115610c2b57610c2a610a66565b5b808601610c388982610ba4565b85526020850194505050602081019050610c08565b5050509392505050565b5f82601f830112610c6b57610c6a610a66565b5b8135610c7b848260208601610bd1565b91505092915050565b5f8060408385031215610c9a57610c99610940565b5b5f610ca785828601610967565b925050602083013567ffffffffffffffff811115610cc857610cc7610944565b5b610cd485828601610c57565b9150509250929050565b606082015f820151610cf25f8501826109b1565b506020820151610d0560208501826109c0565b506040820151610d1860408501826109d8565b50505050565b5f606082019050610d315f830184610cde565b92915050565b5f8060408385031215610d4d57610d4c610940565b5b5f83013567ffffffffffffffff811115610d6a57610d69610944565b5b610d7685828601610ba4565b925050602083013567ffffffffffffffff811115610d9757610d96610944565b5b610da385828601610ba4565b9150509250929050565b5f81519050919050565b5f82825260208201905092915050565b5f819050602082019050919050565b5f81519050919050565b5f82825260208201905092915050565b5f5b83811015610e0d578082015181840152602081019050610df2565b5f8484015250505050565b5f610e2282610dd6565b610e2c8185610de0565b9350610e3c818560208601610df0565b610e4581610a6a565b840191505092915050565b5f610e5b8383610e18565b905092915050565b5f602082019050919050565b5f610e7982610dad565b610e838185610db7565b935083602082028501610e9585610dc7565b805f5b85811015610ed05784840389528151610eb18582610e50565b9450610ebc83610e63565b925060208a01995050600181019050610e98565b50829750879550505050505092915050565b5f60a083015f830151610ef75f8601826109b1565b506020830151610f0a60208601826109c0565b5060408301518482036040860152610f228282610e6f565b91505060608301518482036060860152610f3c8282610e6f565b9150506080830151610f5160808601826109d8565b508091505092915050565b5f6020820190508181035f830152610f748184610ee2565b905092915050565b5f82825260208201905092915050565b7f506c616e20646f6573206e6f74206578697374000000000000000000000000005f82015250565b5f610fc0601383610f7c565b9150610fcb82610f8c565b602082019050919050565b5f6020820190508181035f830152610fed81610fb4565b9050919050565b7f506c616e20616c72656164792067656e657261746564000000000000000000005f82015250565b5f611028601683610f7c565b915061103382610ff4565b602082019050919050565b5f6020820190508181035f8301526110558161101c565b9050919050565b5f819050919050565b7f4e487b71000000000000000000000000000000000000000000000000000000005f52601160045260245ffd5b5f61109c8261105c565b91506110a78361105c565b92508282039050818111156110bf576110be611065565b5b92915050565b7f6f6b0000000000000000000000000000000000000000000000000000000000005f82015250565b5f6110f9600283610f7c565b9150611104826110c5565b602082019050919050565b61111881610948565b82525050565b611127816109cf565b82525050565b5f82825260208201905092915050565b5f61114782610dad565b611151818561112d565b93508360208202850161116385610dc7565b805f5b8581101561119e578484038952815161117f8582610e50565b945061118a83610e63565b925060208a01995050600181019050611166565b50829750879550505050505092915050565b5f610100820190508181035f8301526111c8816110ed565b90506111d7602083018a61110f565b6111e4604083018961111e565b6111f1606083018861111e565b6111fe608083018761111e565b81810360a0830152611210818661113d565b905081810360c0830152611224818561113d565b905081810360e0830152611238818461113d565b905098975050505050505050565b7f506c616e20686173206e6f74206265656e2067656e65726174656420796574005f82015250565b5f61127a601f83610f7c565b915061128582611246565b602082019050919050565b5f6020820190508181035f8301526112a78161126e565b9050919050565b7f54617267657473206d757374206e6f7420626520656d707479000000000000005f82015250565b5f6112e2601983610f7c565b91506112ed826112ae565b602082019050919050565b5f6020820190508181035f83015261130f816112d6565b9050919050565b5f611320826109cf565b915061132b836109cf565b92508282019050828112155f8312168382125f84121516171561135157611350611065565b5b92915050565b5f6060820190508181035f83015261136e816110ed565b905061137d602083018561110f565b61138a604083018461111e565b9392505050565b7f4b6974206d757374206e6f7420626520656d70747900000000000000000000005f82015250565b5f6113c5601583610f7c565b91506113d082611391565b602082019050919050565b5f6020820190508181035f8301526113f2816113b9565b9050919050565b7f496e74657266616365206d616e6966657374206d757374206e6f7420626520655f8201527f6d70747900000000000000000000000000000000000000000000000000000000602082015250565b5f611453602483610f7c565b915061145e826113f9565b604082019050919050565b5f6020820190508181035f83015261148081611447565b9050919050565b5f6114918261105c565b91507fffffffffffffffffffffffffffffffffffffffffffffffffffffffffffffffff82036114c3576114c2611065565b5b600182019050919050565b5f81905092915050565b5f6114e282610dd6565b6114ec81856114ce565b93506114fc818560208601610df0565b80840191505092915050565b5f819050919050565b61152261151d8261105c565b611508565b82525050565b5f61153382876114d8565b915061153f82866114d8565b915061154b8285611511565b60208201915061155b8284611511565b60208201915081905095945050505050565b7f4e487b71000000000000000000000000000000000000000000000000000000005f52603260045260245ffd5b7f4e487b71000000000000000000000000000000000000000000000000000000005f52602260045260245ffd5b5f60028204905060018216806115de57607f821691505b6020821081036115f1576115f061159a565b5b50919050565b5f819050815f5260205f209050919050565b5f6020601f8301049050919050565b5f82821b905092915050565b5f600883026116537fffffffffffffffffffffffffffffffffffffffffffffffffffffffffffffffff82611618565b61165d8683611618565b95508019841693508086168417925050509392505050565b5f819050919050565b5f61169861169361168e8461105c565b611675565b61105c565b9050919050565b5f819050919050565b6116b18361167e565b6116c56116bd8261169f565b848454611624565b825550505050565b5f90565b6116d96116cd565b6116e48184846116a8565b505050565b5b81811015611707576116fc5f826116d1565b6001810190506116ea565b5050565b601f82111561174c5761171d816115f7565b61172684611609565b81016020851015611735578190505b61174961174185611609565b8301826116e9565b50505b505050565b5f82821c905092915050565b5f61176c5f1984600802611751565b1980831691505092915050565b5f611784838361175d565b9150826002028217905092915050565b61179d82610dd6565b67ffffffffffffffff8111156117b6576117b5610a7a565b5b6117c082546115c7565b6117cb82828561170b565b5f60209050601f8311600181146117fc575f84156117ea578287015190505b6117f48582611779565b86555061185b565b601f19841661180a866115f7565b5f5b828110156118315784890151825560018201915060208501945060208101905061180c565b8683101561184e578489015161184a601f89168261175d565b8355505b6001600288020188555050505b505050505050565b5f60a0820190508181035f83015261187a816110ed565b9050611889602083018761110f565b818103604083015261189b818661113d565b905081810360608301526118af818561113d565b90506118be608083018461111e565b9594505050505056fea2646970667358221220624ebdadd3e7e0027f69e3eb748008ffa258d61ae1e5c906fcfc5a685997495a64736f6c63430008140033","linkReferences":{}},"methodIdentifiers":{"generate(bytes32)":"12a6f5f4","plan(string,string)":"b9eee6ee","regenerate(bytes32,string[])":"732340ee"},"id":133}