{"abi":[{"type":"function","name":"applyPatch","inputs":[{"name":"patchId","type":"bytes32","internalType":"bytes32"},{"name":"content","type":"bytes32","internalType":"bytes32"}],"outputs":[],"stateMutability":"nonpayable"},{"type":"function","name":"commute","inputs":[{"name":"p1","type":"bytes32","internalType":"bytes32"},{"name":"p2","type":"bytes32","internalType":"bytes32"}],"outputs":[{"name":"p1Prime","type":"bytes32","internalType":"bytes32"},{"name":"p2Prime","type":"bytes32","internalType":"bytes32"}],"stateMutability":"nonpayable"},{"type":"function","name":"compose","inputs":[{"name":"first","type":"bytes32","internalType":"bytes32"},{"name":"second","type":"bytes32","internalType":"bytes32"}],"outputs":[{"name":"composedId","type":"bytes32","internalType":"bytes32"}],"stateMutability":"nonpayable"},{"type":"function","name":"create","inputs":[{"name":"base","type":"bytes32","internalType":"bytes32"},{"name":"target","type":"bytes32","internalType":"bytes32"},{"name":"effect","type":"bytes","internalType":"bytes"}],"outputs":[{"name":"patchId","type":"bytes32","internalType":"bytes32"}],"stateMutability":"nonpayable"},{"type":"function","name":"getPatch","inputs":[{"name":"patchId","type":"bytes32","internalType":"bytes32"}],"outputs":[{"name":"","type":"tuple","internalType":"struct Patch.PatchRecord","components":[{"name":"base","type":"bytes32","internalType":"bytes32"},{"name":"target","type":"bytes32","internalType":"bytes32"},{"name":"effect","type":"bytes","internalType":"bytes"},{"name":"created","type":"uint256","internalType":"uint256"},{"name":"exists","type":"bool","internalType":"bool"}]}],"stateMutability":"view"},{"type":"function","name":"invert","inputs":[{"name":"patchId","type":"bytes32","internalType":"bytes32"}],"outputs":[{"name":"inversePatchId","type":"bytes32","internalType":"bytes32"}],"stateMutability":"nonpayable"},{"type":"event","name":"PatchApplied","inputs":[{"name":"patchId","type":"bytes32","indexed":true,"internalType":"bytes32"},{"name":"content","type":"bytes32","indexed":false,"internalType":"bytes32"}],"anonymous":false},{"type":"event","name":"PatchCommuted","inputs":[{"name":"p1","type":"bytes32","indexed":true,"internalType":"bytes32"},{"name":"p2","type":"bytes32","indexed":true,"internalType":"bytes32"},{"name":"p1Prime","type":"bytes32","indexed":false,"internalType":"bytes32"},{"name":"p2Prime","type":"bytes32","indexed":false,"internalType":"bytes32"}],"anonymous":false},{"type":"event","name":"PatchComposed","inputs":[{"name":"firstId","type":"bytes32","indexed":true,"internalType":"bytes32"},{"name":"secondId","type":"bytes32","indexed":true,"internalType":"bytes32"},{"name":"composedId","type":"bytes32","indexed":true,"internalType":"bytes32"}],"anonymous":false},{"type":"event","name":"PatchCreated","inputs":[{"name":"patchId","type":"bytes32","indexed":true,"internalType":"bytes32"},{"name":"base","type":"bytes32","indexed":true,"internalType":"bytes32"},{"name":"target","type":"bytes32","indexed":true,"internalType":"bytes32"}],"anonymous":false},{"type":"event","name":"PatchInverted","inputs":[{"name":"originalId","type":"bytes32","indexed":true,"internalType":"bytes32"},{"name":"inverseId","type":"bytes32","indexed":true,"internalType":"bytes32"}],"anonymous":false}],"bytecode":{"object":"0x608060405234801561000f575f80fd5b5061179a8061001d5f395ff3fe608060405234801561000f575f80fd5b5060043610610060575f3560e01c80634de9fa23146100645780638c8e618f14610094578063918b8760146100b05780639c4d535b146100e1578063a8d8706714610111578063f156c32d14610141575b5f80fd5b61007e60048036038101906100799190610d85565b610171565b60405161008b9190610eee565b60405180910390f35b6100ae60048036038101906100a99190610f0e565b6102c1565b005b6100ca60048036038101906100c59190610f0e565b61035c565b6040516100d8929190610f5b565b60405180910390f35b6100fb60048036038101906100f69190610fe3565b610780565b6040516101089190611054565b60405180910390f35b61012b60048036038101906101269190610f0e565b6108cb565b6040516101389190611054565b60405180910390f35b61015b60048036038101906101569190610d85565b610b17565b6040516101689190611054565b60405180910390f35b610179610d17565b5f808381526020019081526020015f206004015f9054906101000a900460ff166101d8576040517f08c379a00000000000000000000000000000000000000000000000000000000081526004016101cf906110c7565b60405180910390fd5b5f808381526020019081526020015f206040518060a00160405290815f82015481526020016001820154815260200160028201805461021690611112565b80601f016020809104026020016040519081016040528092919081815260200182805461024290611112565b801561028d5780601f106102645761010080835404028352916020019161028d565b820191905f5260205f20905b81548152906001019060200180831161027057829003601f168201915b5050505050815260200160038201548152602001600482015f9054906101000a900460ff1615151515815250509050919050565b5f808381526020019081526020015f206004015f9054906101000a900460ff16610320576040517f08c379a0000000000000000000000000000000000000000000000000000000008152600401610317906110c7565b60405180910390fd5b817f8c727c06b63e796c563a8903c4f5e8fa63903c96265e8da8d9220ef0e9b606bc826040516103509190611054565b60405180910390a25050565b5f805f805f8681526020019081526020015f2090505f805f8681526020019081526020015f209050816004015f9054906101000a900460ff166103d4576040517f08c379a00000000000000000000000000000000000000000000000000000000081526004016103cb9061118c565b60405180910390fd5b806004015f9054906101000a900460ff16610424576040517f08c379a000000000000000000000000000000000000000000000000000000000815260040161041b906111f4565b60405180910390fd5b805f0154825f01540361046c576040517f08c379a000000000000000000000000000000000000000000000000000000000815260040161046390611282565b60405180910390fd5b8060010154826001015460015f815480929190610488906112cd565b9190505560405160200161049e93929190611354565b6040516020818303038152906040528051906020012093506040518060a0016040528082600101548152602001836001015481526020018360020180546104e490611112565b80601f016020809104026020016040519081016040528092919081815260200182805461051090611112565b801561055b5780601f106105325761010080835404028352916020019161055b565b820191905f5260205f20905b81548152906001019060200180831161053e57829003601f168201915b50505050508152602001428152602001600115158152505f808681526020019081526020015f205f820151815f01556020820151816001015560408201518160020190816105a9919061155a565b50606082015181600301556080820151816004015f6101000a81548160ff021916908315150217905550905050815f0154815f015460015f8154809291906105f0906112cd565b9190505560405160200161060693929190611354565b6040516020818303038152906040528051906020012092506040518060a00160405280835f01548152602001825f0154815260200182600201805461064a90611112565b80601f016020809104026020016040519081016040528092919081815260200182805461067690611112565b80156106c15780601f10610698576101008083540402835291602001916106c1565b820191905f5260205f20905b8154815290600101906020018083116106a457829003601f168201915b50505050508152602001428152602001600115158152505f808581526020019081526020015f205f820151815f015560208201518160010155604082015181600201908161070f919061155a565b50606082015181600301556080820151816004015f6101000a81548160ff02191690831515021790555090505084867f46be4dcb5e7758b9e2c74befcfd778c18d9fbda5a0342f8684eea100a72dc9df868660405161076f929190610f5b565b60405180910390a350509250929050565b5f848460015f815480929190610795906112cd565b919050556040516020016107ab93929190611354565b6040516020818303038152906040528051906020012090506040518060a0016040528086815260200185815260200184848080601f0160208091040260200160405190810160405280939291908181526020018383808284375f81840152601f19601f820116905080830192505050505050508152602001428152602001600115158152505f808381526020019081526020015f205f820151815f0155602082015181600101556040820151816002019081610867919061155a565b50606082015181600301556080820151816004015f6101000a81548160ff0219169083151502179055509050508385827fbd761698f8a68dc646cf6db1ea0be54799d5c5350704572ce0ec13715108e58e60405160405180910390a4949350505050565b5f805f808581526020019081526020015f2090505f805f8581526020019081526020015f209050816004015f9054906101000a900460ff16610942576040517f08c379a00000000000000000000000000000000000000000000000000000000081526004016109399061118c565b60405180910390fd5b806004015f9054906101000a900460ff16610992576040517f08c379a0000000000000000000000000000000000000000000000000000000008152600401610989906111f4565b60405180910390fd5b805f01548260010154146109db576040517f08c379a00000000000000000000000000000000000000000000000000000000081526004016109d290611699565b60405180910390fd5b815f0154816001015460015f8154809291906109f6906112cd565b91905055604051602001610a0c93929190611354565b6040516020818303038152906040528051906020012092506040518060a00160405280835f01548152602001826001015481526020018360020183600201604051602001610a5b929190611741565b6040516020818303038152906040528152602001428152602001600115158152505f808581526020019081526020015f205f820151815f0155602082015181600101556040820151816002019081610ab3919061155a565b50606082015181600301556080820151816004015f6101000a81548160ff0219169083151502179055509050508284867f5309b38d5d85338c3a6b839944d5a48fd8718058f05c44f3507f0ca0b8015d5a60405160405180910390a4505092915050565b5f805f808481526020019081526020015f209050806004015f9054906101000a900460ff16610b7b576040517f08c379a0000000000000000000000000000000000000000000000000000000008152600401610b72906110c7565b60405180910390fd5b8060010154815f015460015f815480929190610b96906112cd565b91905055604051602001610bac93929190611354565b6040516020818303038152906040528051906020012091506040518060a0016040528082600101548152602001825f01548152602001826002018054610bf190611112565b80601f0160208091040260200160405190810160405280929190818152602001828054610c1d90611112565b8015610c685780601f10610c3f57610100808354040283529160200191610c68565b820191905f5260205f20905b815481529060010190602001808311610c4b57829003601f168201915b50505050508152602001428152602001600115158152505f808481526020019081526020015f205f820151815f0155602082015181600101556040820151816002019081610cb6919061155a565b50606082015181600301556080820151816004015f6101000a81548160ff02191690831515021790555090505081837f59bcff1cd80726ca58c7ae8f5bded5de4d8cf0aa06a01cd94287b2b10bc723b260405160405180910390a350919050565b6040518060a001604052805f80191681526020015f8019168152602001606081526020015f81526020015f151581525090565b5f80fd5b5f80fd5b5f819050919050565b610d6481610d52565b8114610d6e575f80fd5b50565b5f81359050610d7f81610d5b565b92915050565b5f60208284031215610d9a57610d99610d4a565b5b5f610da784828501610d71565b91505092915050565b610db981610d52565b82525050565b5f81519050919050565b5f82825260208201905092915050565b5f5b83811015610df6578082015181840152602081019050610ddb565b5f8484015250505050565b5f601f19601f8301169050919050565b5f610e1b82610dbf565b610e258185610dc9565b9350610e35818560208601610dd9565b610e3e81610e01565b840191505092915050565b5f819050919050565b610e5b81610e49565b82525050565b5f8115159050919050565b610e7581610e61565b82525050565b5f60a083015f830151610e905f860182610db0565b506020830151610ea36020860182610db0565b5060408301518482036040860152610ebb8282610e11565b9150506060830151610ed06060860182610e52565b506080830151610ee36080860182610e6c565b508091505092915050565b5f6020820190508181035f830152610f068184610e7b565b905092915050565b5f8060408385031215610f2457610f23610d4a565b5b5f610f3185828601610d71565b9250506020610f4285828601610d71565b9150509250929050565b610f5581610d52565b82525050565b5f604082019050610f6e5f830185610f4c565b610f7b6020830184610f4c565b9392505050565b5f80fd5b5f80fd5b5f80fd5b5f8083601f840112610fa357610fa2610f82565b5b8235905067ffffffffffffffff811115610fc057610fbf610f86565b5b602083019150836001820283011115610fdc57610fdb610f8a565b5b9250929050565b5f805f8060608587031215610ffb57610ffa610d4a565b5b5f61100887828801610d71565b945050602061101987828801610d71565b935050604085013567ffffffffffffffff81111561103a57611039610d4e565b5b61104687828801610f8e565b925092505092959194509250565b5f6020820190506110675f830184610f4c565b92915050565b5f82825260208201905092915050565b7f5061746368206e6f7420666f756e6400000000000000000000000000000000005f82015250565b5f6110b1600f8361106d565b91506110bc8261107d565b602082019050919050565b5f6020820190508181035f8301526110de816110a5565b9050919050565b7f4e487b71000000000000000000000000000000000000000000000000000000005f52602260045260245ffd5b5f600282049050600182168061112957607f821691505b60208210810361113c5761113b6110e5565b5b50919050565b7f4669727374207061746368206e6f7420666f756e6400000000000000000000005f82015250565b5f61117660158361106d565b915061118182611142565b602082019050919050565b5f6020820190508181035f8301526111a38161116a565b9050919050565b7f5365636f6e64207061746368206e6f7420666f756e64000000000000000000005f82015250565b5f6111de60168361106d565b91506111e9826111aa565b602082019050919050565b5f6020820190508181035f83015261120b816111d2565b9050919050565b7f43616e6e6f7420636f6d6d75746520706174636865732077697468206964656e5f8201527f746963616c206261736573000000000000000000000000000000000000000000602082015250565b5f61126c602b8361106d565b915061127782611212565b604082019050919050565b5f6020820190508181035f83015261129981611260565b9050919050565b7f4e487b71000000000000000000000000000000000000000000000000000000005f52601160045260245ffd5b5f6112d782610e49565b91507fffffffffffffffffffffffffffffffffffffffffffffffffffffffffffffffff8203611309576113086112a0565b5b600182019050919050565b5f819050919050565b61132e61132982610d52565b611314565b82525050565b5f819050919050565b61134e61134982610e49565b611334565b82525050565b5f61135f828661131d565b60208201915061136f828561131d565b60208201915061137f828461133d565b602082019150819050949350505050565b7f4e487b71000000000000000000000000000000000000000000000000000000005f52604160045260245ffd5b5f819050815f5260205f209050919050565b5f6020601f8301049050919050565b5f82821b905092915050565b5f600883026114197fffffffffffffffffffffffffffffffffffffffffffffffffffffffffffffffff826113de565b61142386836113de565b95508019841693508086168417925050509392505050565b5f819050919050565b5f61145e61145961145484610e49565b61143b565b610e49565b9050919050565b5f819050919050565b61147783611444565b61148b61148382611465565b8484546113ea565b825550505050565b5f90565b61149f611493565b6114aa81848461146e565b505050565b5b818110156114cd576114c25f82611497565b6001810190506114b0565b5050565b601f821115611512576114e3816113bd565b6114ec846113cf565b810160208510156114fb578190505b61150f611507856113cf565b8301826114af565b50505b505050565b5f82821c905092915050565b5f6115325f1984600802611517565b1980831691505092915050565b5f61154a8383611523565b9150826002028217905092915050565b61156382610dbf565b67ffffffffffffffff81111561157c5761157b611390565b5b6115868254611112565b6115918282856114d1565b5f60209050601f8311600181146115c2575f84156115b0578287015190505b6115ba858261153f565b865550611621565b601f1984166115d0866113bd565b5f5b828110156115f7578489015182556001820191506020850194506020810190506115d2565b868310156116145784890151611610601f891682611523565b8355505b6001600288020188555050505b505050505050565b7f4e6f6e2d73657175656e7469616c20706174636865733a2066697273742e74615f8201527f72676574206d75737420657175616c207365636f6e642e626173650000000000602082015250565b5f611683603b8361106d565b915061168e82611629565b604082019050919050565b5f6020820190508181035f8301526116b081611677565b9050919050565b5f81905092915050565b5f81546116cd81611112565b6116d781866116b7565b9450600182165f81146116f1576001811461170657611738565b60ff1983168652811515820286019350611738565b61170f856113bd565b5f5b8381101561173057815481890152600182019150602081019050611711565b838801955050505b50505092915050565b5f61174c82856116c1565b915061175882846116c1565b9150819050939250505056fea26469706673582212204419296e9c595745a8ba3cb3da2299485fe9c82d8224544e46ce69489316d8ae64736f6c63430008140033","linkReferences":{}},"methodIdentifiers":{"applyPatch(bytes32,bytes32)":"8c8e618f","commute(bytes32,bytes32)":"918b8760","compose(bytes32,bytes32)":"a8d87067","create(bytes32,bytes32,bytes)":"9c4d535b","getPatch(bytes32)":"4de9fa23","invert(bytes32)":"f156c32d"},"id":190}