{"abi":[{"type":"function","name":"classify","inputs":[{"name":"interactor","type":"bytes32","internalType":"bytes32"},{"name":"fieldType","type":"string","internalType":"string"},{"name":"constraints","type":"string","internalType":"string"},{"name":"intent","type":"string","internalType":"string"}],"outputs":[{"name":"","type":"tuple","internalType":"struct Interactor.ClassifyOkResult","components":[{"name":"success","type":"bool","internalType":"bool"},{"name":"interactor","type":"bytes32","internalType":"bytes32"},{"name":"confidence","type":"uint256","internalType":"uint256"}]}],"stateMutability":"nonpayable"},{"type":"function","name":"defineInteractor","inputs":[{"name":"interactor","type":"bytes32","internalType":"bytes32"},{"name":"name","type":"string","internalType":"string"},{"name":"category","type":"string","internalType":"string"},{"name":"properties","type":"string","internalType":"string"}],"outputs":[{"name":"","type":"tuple","internalType":"struct Interactor.DefineOkResult","components":[{"name":"success","type":"bool","internalType":"bool"},{"name":"interactor","type":"bytes32","internalType":"bytes32"}]}],"stateMutability":"nonpayable"},{"type":"function","name":"get","inputs":[{"name":"interactor","type":"bytes32","internalType":"bytes32"}],"outputs":[{"name":"","type":"tuple","internalType":"struct Interactor.GetOkResult","components":[{"name":"success","type":"bool","internalType":"bool"},{"name":"interactor","type":"bytes32","internalType":"bytes32"},{"name":"name","type":"string","internalType":"string"},{"name":"category","type":"string","internalType":"string"},{"name":"properties","type":"string","internalType":"string"}]}],"stateMutability":"nonpayable"},{"type":"function","name":"list","inputs":[{"name":"category","type":"string","internalType":"string"}],"outputs":[{"name":"","type":"tuple","internalType":"struct Interactor.ListOkResult","components":[{"name":"success","type":"bool","internalType":"bool"},{"name":"interactors","type":"string","internalType":"string"}]}],"stateMutability":"nonpayable"},{"type":"event","name":"ClassifyCompleted","inputs":[{"name":"variant","type":"string","indexed":false,"internalType":"string"},{"name":"interactor","type":"bytes32","indexed":true,"internalType":"bytes32"},{"name":"confidence","type":"uint256","indexed":false,"internalType":"uint256"}],"anonymous":false},{"type":"event","name":"DefineCompleted","inputs":[{"name":"variant","type":"string","indexed":false,"internalType":"string"},{"name":"interactor","type":"bytes32","indexed":true,"internalType":"bytes32"}],"anonymous":false},{"type":"event","name":"GetCompleted","inputs":[{"name":"variant","type":"string","indexed":false,"internalType":"string"},{"name":"interactor","type":"bytes32","indexed":true,"internalType":"bytes32"}],"anonymous":false},{"type":"event","name":"ListCompleted","inputs":[{"name":"variant","type":"string","indexed":false,"internalType":"string"}],"anonymous":false}],"bytecode":{"object":"0x608060405234801561000f575f80fd5b506115b78061001d5f395ff3fe608060405234801561000f575f80fd5b506004361061004a575f3560e01c80638eaa6ac01461004e578063b055d7091461007e578063fd27287e146100ae578063fe42bf1a146100de575b5f80fd5b610068600480360381019061006391906108e9565b61010e565b6040516100759190610a48565b60405180910390f35b61009860048036038101906100939190610b94565b61038b565b6040516100a59190610ca4565b60405180910390f35b6100c860048036038101906100c39190610b94565b6104b6565b6040516100d59190610cea565b60405180910390f35b6100f860048036038101906100f39190610d03565b610683565b6040516101059190610d84565b60405180910390f35b610116610818565b60015f8381526020019081526020015f205f9054906101000a900460ff16610173576040517f08c379a000000000000000000000000000000000000000000000000000000000815260040161016a90610dfe565b60405180910390fd5b5f805f8481526020019081526020015f209050827fd45fe45dbfb310b00d5db432aa35f96282e16a8bb204b349e334de2cd5566f346040516101b490610e66565b60405180910390a26040518060a00160405280600115158152602001848152602001825f0180546101e490610eb1565b80601f016020809104026020016040519081016040528092919081815260200182805461021090610eb1565b801561025b5780601f106102325761010080835404028352916020019161025b565b820191905f5260205f20905b81548152906001019060200180831161023e57829003601f168201915b5050505050815260200182600101805461027490610eb1565b80601f01602080910402602001604051908101604052809291908181526020018280546102a090610eb1565b80156102eb5780601f106102c2576101008083540402835291602001916102eb565b820191905f5260205f20905b8154815290600101906020018083116102ce57829003601f168201915b5050505050815260200182600201805461030490610eb1565b80601f016020809104026020016040519081016040528092919081815260200182805461033090610eb1565b801561037b5780601f106103525761010080835404028352916020019161037b565b820191905f5260205f20905b81548152906001019060200180831161035e57829003601f168201915b5050505050815250915050919050565b61039361084a565b5f805f1b90505f805b60028054905081101561040d575f600282815481106103be576103bd610ee1565b5b905f5260205f200154905060015f8281526020019081526020015f205f9054906101000a900460ff16156103f957809350600192505061040d565b50808061040590610f3b565b91505061039c565b508061044e576040517f08c379a000000000000000000000000000000000000000000000000000000000815260040161044590610ff2565b60405180910390fd5b5f60509050827f0bb065a06f19ddeb93c227681a2783b98fb67163196d84054f1f7e052361e35282604051610483919061101f565b60405180910390a26040518060600160405280600115158152602001848152602001828152509350505050949350505050565b6104be61086d565b60015f8681526020019081526020015f205f9054906101000a900460ff161561051c576040517f08c379a000000000000000000000000000000000000000000000000000000000815260040161051390611095565b60405180910390fd5b5f84511161055f576040517f08c379a0000000000000000000000000000000000000000000000000000000008152600401610556906110fd565b60405180910390fd5b6040518060800160405280858152602001848152602001838152602001428152505f808781526020019081526020015f205f820151815f0190816105a391906112b8565b5060208201518160010190816105b991906112b8565b5060408201518160020190816105cf91906112b8565b50606082015181600301559050506001805f8781526020019081526020015f205f6101000a81548160ff021916908315150217905550600285908060018154018082558091505060019003905f5260205f20015f9091909190915055847f0aee5310641eaf2eaf388fe3fda83de498f247bde5dd3f7477b273447e8b162960405161065990610e66565b60405180910390a26040518060400160405280600115158152602001868152509050949350505050565b61068b61088a565b5f60405180602001604052805f81525090505f600190505f848051906020012090505f8086511190505f5b6002805490508110156107bf575f600282815481106106d8576106d7610ee1565b5b905f5260205f200154905060015f8281526020019081526020015f205f9054906101000a900460ff1661070b57506107ac565b82801561073f5750835f808381526020019081526020015f206001016040516107349190611423565b604051809103902014155b1561074a57506107ac565b84610772578560405160200161076091906114bd565b60405160208183030381529060405295505b855f808381526020019081526020015f205f0160405160200161079692919061155e565b60405160208183030381529060405295505f9450505b80806107b790610f3b565b9150506106b6565b507f84f539fe291ca432b55c0e0628d8a7ae8d2897119d793329eb14e61e99bd79d36040516107ed90610e66565b60405180910390a1604051806040016040528060011515815260200185815250945050505050919050565b6040518060a001604052805f151581526020015f80191681526020016060815260200160608152602001606081525090565b60405180606001604052805f151581526020015f80191681526020015f81525090565b60405180604001604052805f151581526020015f80191681525090565b60405180604001604052805f15158152602001606081525090565b5f604051905090565b5f80fd5b5f80fd5b5f819050919050565b6108c8816108b6565b81146108d2575f80fd5b50565b5f813590506108e3816108bf565b92915050565b5f602082840312156108fe576108fd6108ae565b5b5f61090b848285016108d5565b91505092915050565b5f8115159050919050565b61092881610914565b82525050565b610937816108b6565b82525050565b5f81519050919050565b5f82825260208201905092915050565b5f5b83811015610974578082015181840152602081019050610959565b5f8484015250505050565b5f601f19601f8301169050919050565b5f6109998261093d565b6109a38185610947565b93506109b3818560208601610957565b6109bc8161097f565b840191505092915050565b5f60a083015f8301516109dc5f86018261091f565b5060208301516109ef602086018261092e565b5060408301518482036040860152610a07828261098f565b91505060608301518482036060860152610a21828261098f565b91505060808301518482036080860152610a3b828261098f565b9150508091505092915050565b5f6020820190508181035f830152610a6081846109c7565b905092915050565b5f80fd5b5f80fd5b7f4e487b71000000000000000000000000000000000000000000000000000000005f52604160045260245ffd5b610aa68261097f565b810181811067ffffffffffffffff82111715610ac557610ac4610a70565b5b80604052505050565b5f610ad76108a5565b9050610ae38282610a9d565b919050565b5f67ffffffffffffffff821115610b0257610b01610a70565b5b610b0b8261097f565b9050602081019050919050565b828183375f83830152505050565b5f610b38610b3384610ae8565b610ace565b905082815260208101848484011115610b5457610b53610a6c565b5b610b5f848285610b18565b509392505050565b5f82601f830112610b7b57610b7a610a68565b5b8135610b8b848260208601610b26565b91505092915050565b5f805f8060808587031215610bac57610bab6108ae565b5b5f610bb9878288016108d5565b945050602085013567ffffffffffffffff811115610bda57610bd96108b2565b5b610be687828801610b67565b935050604085013567ffffffffffffffff811115610c0757610c066108b2565b5b610c1387828801610b67565b925050606085013567ffffffffffffffff811115610c3457610c336108b2565b5b610c4087828801610b67565b91505092959194509250565b5f819050919050565b610c5e81610c4c565b82525050565b606082015f820151610c785f85018261091f565b506020820151610c8b602085018261092e565b506040820151610c9e6040850182610c55565b50505050565b5f606082019050610cb75f830184610c64565b92915050565b604082015f820151610cd15f85018261091f565b506020820151610ce4602085018261092e565b50505050565b5f604082019050610cfd5f830184610cbd565b92915050565b5f60208284031215610d1857610d176108ae565b5b5f82013567ffffffffffffffff811115610d3557610d346108b2565b5b610d4184828501610b67565b91505092915050565b5f604083015f830151610d5f5f86018261091f565b5060208301518482036020860152610d77828261098f565b9150508091505092915050565b5f6020820190508181035f830152610d9c8184610d4a565b905092915050565b5f82825260208201905092915050565b7f496e7465726163746f72206e6f7420666f756e640000000000000000000000005f82015250565b5f610de8601483610da4565b9150610df382610db4565b602082019050919050565b5f6020820190508181035f830152610e1581610ddc565b9050919050565b7f6f6b0000000000000000000000000000000000000000000000000000000000005f82015250565b5f610e50600283610da4565b9150610e5b82610e1c565b602082019050919050565b5f6020820190508181035f830152610e7d81610e44565b9050919050565b7f4e487b71000000000000000000000000000000000000000000000000000000005f52602260045260245ffd5b5f6002820490506001821680610ec857607f821691505b602082108103610edb57610eda610e84565b5b50919050565b7f4e487b71000000000000000000000000000000000000000000000000000000005f52603260045260245ffd5b7f4e487b71000000000000000000000000000000000000000000000000000000005f52601160045260245ffd5b5f610f4582610c4c565b91507fffffffffffffffffffffffffffffffffffffffffffffffffffffffffffffffff8203610f7757610f76610f0e565b5b600182019050919050565b7f4e6f20696e7465726163746f727320646566696e656420666f7220636c6173735f8201527f696669636174696f6e0000000000000000000000000000000000000000000000602082015250565b5f610fdc602983610da4565b9150610fe782610f82565b604082019050919050565b5f6020820190508181035f83015261100981610fd0565b9050919050565b61101981610c4c565b82525050565b5f6040820190508181035f83015261103681610e44565b90506110456020830184611010565b92915050565b7f496e7465726163746f7220616c726561647920646566696e65640000000000005f82015250565b5f61107f601a83610da4565b915061108a8261104b565b602082019050919050565b5f6020820190508181035f8301526110ac81611073565b9050919050565b7f4e616d65207265717569726564000000000000000000000000000000000000005f82015250565b5f6110e7600d83610da4565b91506110f2826110b3565b602082019050919050565b5f6020820190508181035f830152611114816110db565b9050919050565b5f819050815f5260205f209050919050565b5f6020601f8301049050919050565b5f82821b905092915050565b5f600883026111777fffffffffffffffffffffffffffffffffffffffffffffffffffffffffffffffff8261113c565b611181868361113c565b95508019841693508086168417925050509392505050565b5f819050919050565b5f6111bc6111b76111b284610c4c565b611199565b610c4c565b9050919050565b5f819050919050565b6111d5836111a2565b6111e96111e1826111c3565b848454611148565b825550505050565b5f90565b6111fd6111f1565b6112088184846111cc565b505050565b5b8181101561122b576112205f826111f5565b60018101905061120e565b5050565b601f821115611270576112418161111b565b61124a8461112d565b81016020851015611259578190505b61126d6112658561112d565b83018261120d565b50505b505050565b5f82821c905092915050565b5f6112905f1984600802611275565b1980831691505092915050565b5f6112a88383611281565b9150826002028217905092915050565b6112c18261093d565b67ffffffffffffffff8111156112da576112d9610a70565b5b6112e48254610eb1565b6112ef82828561122f565b5f60209050601f831160018114611320575f841561130e578287015190505b611318858261129d565b86555061137f565b601f19841661132e8661111b565b5f5b8281101561135557848901518255600182019150602085019450602081019050611330565b86831015611372578489015161136e601f891682611281565b8355505b6001600288020188555050505b505050505050565b5f81905092915050565b5f819050815f5260205f209050919050565b5f81546113af81610eb1565b6113b98186611387565b9450600182165f81146113d357600181146113e85761141a565b60ff198316865281151582028601935061141a565b6113f185611391565b5f5b83811015611412578154818901526001820191506020810190506113f3565b838801955050505b50505092915050565b5f61142e82846113a3565b915081905092915050565b5f81905092915050565b5f61144d8261093d565b6114578185611439565b9350611467818560208601610957565b80840191505092915050565b7f2c000000000000000000000000000000000000000000000000000000000000005f82015250565b5f6114a7600183611439565b91506114b282611473565b600182019050919050565b5f6114c88284611443565b91506114d38261149b565b915081905092915050565b5f81546114ea81610eb1565b6114f48186611439565b9450600182165f811461150e576001811461152357611555565b60ff1983168652811515820286019350611555565b61152c8561111b565b5f5b8381101561154d5781548189015260018201915060208101905061152e565b838801955050505b50505092915050565b5f6115698285611443565b915061157582846114de565b9150819050939250505056fea26469706673582212204773ad3c6c56e72cbfc30bbdc9d08c9da937a6737f5261d6d7e93a1559e5850f64736f6c63430008140033","linkReferences":{}},"methodIdentifiers":{"classify(bytes32,string,string,string)":"b055d709","defineInteractor(bytes32,string,string,string)":"fd27287e","get(bytes32)":"8eaa6ac0","list(string)":"fe42bf1a"},"id":150}