{"abi":[{"type":"function","name":"configure","inputs":[{"name":"connectorId","type":"bytes32","internalType":"bytes32"},{"name":"sourceId","type":"bytes32","internalType":"bytes32"},{"name":"protocolId","type":"bytes32","internalType":"bytes32"},{"name":"config","type":"string","internalType":"string"}],"outputs":[],"stateMutability":"nonpayable"},{"type":"function","name":"connectorExists","inputs":[{"name":"connectorId","type":"bytes32","internalType":"bytes32"}],"outputs":[{"name":"","type":"bool","internalType":"bool"}],"stateMutability":"view"},{"type":"function","name":"discover","inputs":[{"name":"connectorId","type":"bytes32","internalType":"bytes32"}],"outputs":[{"name":"status","type":"string","internalType":"string"}],"stateMutability":"view"},{"type":"function","name":"getConnector","inputs":[{"name":"connectorId","type":"bytes32","internalType":"bytes32"}],"outputs":[{"name":"","type":"tuple","internalType":"struct Connector.ConnectorEntry","components":[{"name":"sourceId","type":"bytes32","internalType":"bytes32"},{"name":"protocolId","type":"bytes32","internalType":"bytes32"},{"name":"config","type":"string","internalType":"string"},{"name":"status","type":"string","internalType":"string"},{"name":"exists","type":"bool","internalType":"bool"}]}],"stateMutability":"view"},{"type":"function","name":"read","inputs":[{"name":"connectorId","type":"bytes32","internalType":"bytes32"},{"name":"query","type":"string","internalType":"string"}],"outputs":[{"name":"result","type":"string","internalType":"string"}],"stateMutability":"nonpayable"},{"type":"function","name":"runTests","inputs":[{"name":"connectorId","type":"bytes32","internalType":"bytes32"}],"outputs":[],"stateMutability":"nonpayable"},{"type":"function","name":"write","inputs":[{"name":"connectorId","type":"bytes32","internalType":"bytes32"},{"name":"data","type":"string","internalType":"string"}],"outputs":[],"stateMutability":"nonpayable"},{"type":"event","name":"ConnectorConfigured","inputs":[{"name":"connectorId","type":"bytes32","indexed":true,"internalType":"bytes32"},{"name":"sourceId","type":"bytes32","indexed":true,"internalType":"bytes32"},{"name":"protocolId","type":"bytes32","indexed":false,"internalType":"bytes32"}],"anonymous":false},{"type":"event","name":"ConnectorRead","inputs":[{"name":"connectorId","type":"bytes32","indexed":true,"internalType":"bytes32"},{"name":"query","type":"string","indexed":false,"internalType":"string"}],"anonymous":false},{"type":"event","name":"ConnectorWritten","inputs":[{"name":"connectorId","type":"bytes32","indexed":true,"internalType":"bytes32"}],"anonymous":false}],"bytecode":{"object":"0x608060405234801561000f575f80fd5b506112118061001d5f395ff3fe608060405234801561000f575f80fd5b506004361061007b575f3560e01c80638035fc5f116100595780638035fc5f146100fb578063aed2f60414610117578063da815abf14610147578063fd958483146101775761007b565b80630f9b5d1f1461007f57806314799df1146100af578063393f5fbc146100df575b5f80fd5b6100996004803603810190610094919061096e565b610193565b6040516100a69190610a23565b60405180910390f35b6100c960048036038101906100c49190610aa4565b610295565b6040516100d69190610a23565b60405180910390f35b6100f960048036038101906100f49190610aa4565b61037d565b005b61011560048036038101906101109190610b01565b610453565b005b610131600480360381019061012c919061096e565b610649565b60405161013e9190610c70565b60405180910390f35b610161600480360381019061015c919061096e565b61081f565b60405161016e9190610c9f565b60405180910390f35b610191600480360381019061018c919061096e565b610847565b005b60605f808381526020019081526020015f206004015f9054906101000a900460ff166101f4576040517f08c379a00000000000000000000000000000000000000000000000000000000081526004016101eb90610d02565b60405180910390fd5b5f808381526020019081526020015f20600301805461021290610d4d565b80601f016020809104026020016040519081016040528092919081815260200182805461023e90610d4d565b80156102895780601f1061026057610100808354040283529160200191610289565b820191905f5260205f20905b81548152906001019060200180831161026c57829003601f168201915b50505050509050919050565b60605f808581526020019081526020015f206004015f9054906101000a900460ff166102f6576040517f08c379a00000000000000000000000000000000000000000000000000000000081526004016102ed90610d02565b60405180910390fd5b837f75fa0fc5cee4c77179f447f10d5f2a47a02ab1ac5683efcbc50a5595ea59364b8484604051610328929190610db7565b60405180910390a282828080601f0160208091040260200160405190810160405280939291908181526020018383808284375f81840152601f19601f8201169050808301925050505050505090509392505050565b5f808481526020019081526020015f206004015f9054906101000a900460ff166103dc576040517f08c379a00000000000000000000000000000000000000000000000000000000081526004016103d390610d02565b60405180910390fd5b5f8282905011610421576040517f08c379a000000000000000000000000000000000000000000000000000000000815260040161041890610e23565b60405180910390fd5b827f2df845fc7515d97aaff694da9936eba0fc0e59974b29a689bb9eabec9418cd6160405160405180910390a2505050565b5f801b8503610497576040517f08c379a000000000000000000000000000000000000000000000000000000000815260040161048e90610e8b565b60405180910390fd5b5f808681526020019081526020015f206004015f9054906101000a900460ff16156104f7576040517f08c379a00000000000000000000000000000000000000000000000000000000081526004016104ee90610ef3565b60405180910390fd5b6040518060a0016040528085815260200184815260200183838080601f0160208091040260200160405190810160405280939291908181526020018383808284375f81840152601f19601f8201169050808301925050505050505081526020016040518060400160405280600a81526020017f636f6e66696775726564000000000000000000000000000000000000000000008152508152602001600115158152505f808781526020019081526020015f205f820151815f01556020820151816001015560408201518160020190816105d091906110e4565b5060608201518160030190816105e691906110e4565b506080820151816004015f6101000a81548160ff02191690831515021790555090505083857f15452b193735ca44701ea317cf54925519e065f350ecb1cd5bded790513aea178560405161063a91906111c2565b60405180910390a35050505050565b6106516108ff565b5f808381526020019081526020015f206004015f9054906101000a900460ff166106b0576040517f08c379a00000000000000000000000000000000000000000000000000000000081526004016106a790610d02565b60405180910390fd5b5f808381526020019081526020015f206040518060a00160405290815f8201548152602001600182015481526020016002820180546106ee90610d4d565b80601f016020809104026020016040519081016040528092919081815260200182805461071a90610d4d565b80156107655780601f1061073c57610100808354040283529160200191610765565b820191905f5260205f20905b81548152906001019060200180831161074857829003601f168201915b5050505050815260200160038201805461077e90610d4d565b80601f01602080910402602001604051908101604052809291908181526020018280546107aa90610d4d565b80156107f55780601f106107cc576101008083540402835291602001916107f5565b820191905f5260205f20905b8154815290600101906020018083116107d857829003601f168201915b50505050508152602001600482015f9054906101000a900460ff1615151515815250509050919050565b5f805f8381526020019081526020015f206004015f9054906101000a900460ff169050919050565b5f808281526020019081526020015f206004015f9054906101000a900460ff166108a6576040517f08c379a000000000000000000000000000000000000000000000000000000000815260040161089d90610d02565b60405180910390fd5b6040518060400160405280600681526020017f74657374656400000000000000000000000000000000000000000000000000008152505f808381526020019081526020015f2060030190816108fb91906110e4565b5050565b6040518060a001604052805f80191681526020015f801916815260200160608152602001606081526020015f151581525090565b5f80fd5b5f80fd5b5f819050919050565b61094d8161093b565b8114610957575f80fd5b50565b5f8135905061096881610944565b92915050565b5f6020828403121561098357610982610933565b5b5f6109908482850161095a565b91505092915050565b5f81519050919050565b5f82825260208201905092915050565b5f5b838110156109d05780820151818401526020810190506109b5565b5f8484015250505050565b5f601f19601f8301169050919050565b5f6109f582610999565b6109ff81856109a3565b9350610a0f8185602086016109b3565b610a18816109db565b840191505092915050565b5f6020820190508181035f830152610a3b81846109eb565b905092915050565b5f80fd5b5f80fd5b5f80fd5b5f8083601f840112610a6457610a63610a43565b5b8235905067ffffffffffffffff811115610a8157610a80610a47565b5b602083019150836001820283011115610a9d57610a9c610a4b565b5b9250929050565b5f805f60408486031215610abb57610aba610933565b5b5f610ac88682870161095a565b935050602084013567ffffffffffffffff811115610ae957610ae8610937565b5b610af586828701610a4f565b92509250509250925092565b5f805f805f60808688031215610b1a57610b19610933565b5b5f610b278882890161095a565b9550506020610b388882890161095a565b9450506040610b498882890161095a565b935050606086013567ffffffffffffffff811115610b6a57610b69610937565b5b610b7688828901610a4f565b92509250509295509295909350565b610b8e8161093b565b82525050565b5f82825260208201905092915050565b5f610bae82610999565b610bb88185610b94565b9350610bc88185602086016109b3565b610bd1816109db565b840191505092915050565b5f8115159050919050565b610bf081610bdc565b82525050565b5f60a083015f830151610c0b5f860182610b85565b506020830151610c1e6020860182610b85565b5060408301518482036040860152610c368282610ba4565b91505060608301518482036060860152610c508282610ba4565b9150506080830151610c656080860182610be7565b508091505092915050565b5f6020820190508181035f830152610c888184610bf6565b905092915050565b610c9981610bdc565b82525050565b5f602082019050610cb25f830184610c90565b92915050565b7f436f6e6e6563746f72206e6f7420666f756e64000000000000000000000000005f82015250565b5f610cec6013836109a3565b9150610cf782610cb8565b602082019050919050565b5f6020820190508181035f830152610d1981610ce0565b9050919050565b7f4e487b71000000000000000000000000000000000000000000000000000000005f52602260045260245ffd5b5f6002820490506001821680610d6457607f821691505b602082108103610d7757610d76610d20565b5b50919050565b828183375f83830152505050565b5f610d9683856109a3565b9350610da3838584610d7d565b610dac836109db565b840190509392505050565b5f6020820190508181035f830152610dd0818486610d8b565b90509392505050565b7f446174612063616e6e6f7420626520656d7074790000000000000000000000005f82015250565b5f610e0d6014836109a3565b9150610e1882610dd9565b602082019050919050565b5f6020820190508181035f830152610e3a81610e01565b9050919050565b7f436f6e6e6563746f722049442063616e6e6f74206265207a65726f00000000005f82015250565b5f610e75601b836109a3565b9150610e8082610e41565b602082019050919050565b5f6020820190508181035f830152610ea281610e69565b9050919050565b7f436f6e6e6563746f7220616c72656164792065786973747300000000000000005f82015250565b5f610edd6018836109a3565b9150610ee882610ea9565b602082019050919050565b5f6020820190508181035f830152610f0a81610ed1565b9050919050565b7f4e487b71000000000000000000000000000000000000000000000000000000005f52604160045260245ffd5b5f819050815f5260205f209050919050565b5f6020601f8301049050919050565b5f82821b905092915050565b5f60088302610f9a7fffffffffffffffffffffffffffffffffffffffffffffffffffffffffffffffff82610f5f565b610fa48683610f5f565b95508019841693508086168417925050509392505050565b5f819050919050565b5f819050919050565b5f610fe8610fe3610fde84610fbc565b610fc5565b610fbc565b9050919050565b5f819050919050565b61100183610fce565b61101561100d82610fef565b848454610f6b565b825550505050565b5f90565b61102961101d565b611034818484610ff8565b505050565b5b818110156110575761104c5f82611021565b60018101905061103a565b5050565b601f82111561109c5761106d81610f3e565b61107684610f50565b81016020851015611085578190505b61109961109185610f50565b830182611039565b50505b505050565b5f82821c905092915050565b5f6110bc5f19846008026110a1565b1980831691505092915050565b5f6110d483836110ad565b9150826002028217905092915050565b6110ed82610999565b67ffffffffffffffff81111561110657611105610f11565b5b6111108254610d4d565b61111b82828561105b565b5f60209050601f83116001811461114c575f841561113a578287015190505b61114485826110c9565b8655506111ab565b601f19841661115a86610f3e565b5f5b828110156111815784890151825560018201915060208501945060208101905061115c565b8683101561119e578489015161119a601f8916826110ad565b8355505b6001600288020188555050505b505050505050565b6111bc8161093b565b82525050565b5f6020820190506111d55f8301846111b3565b9291505056fea2646970667358221220f7e36f2f00449d6cab7943df6c3d956f08d01f115bb901487325b1193a947ff064736f6c63430008140033","linkReferences":{}},"methodIdentifiers":{"configure(bytes32,bytes32,bytes32,string)":"8035fc5f","connectorExists(bytes32)":"da815abf","discover(bytes32)":"0f9b5d1f","getConnector(bytes32)":"aed2f604","read(bytes32,string)":"14799df1","runTests(bytes32)":"fd958483","write(bytes32,string)":"393f5fbc"},"id":20}