{"abi":[{"type":"function","name":"fetch","inputs":[{"name":"path","type":"string","internalType":"string"}],"outputs":[{"name":"","type":"tuple","internalType":"struct VaultProvider.FetchOkResult","components":[{"name":"success","type":"bool","internalType":"bool"},{"name":"value","type":"string","internalType":"string"},{"name":"leaseId","type":"string","internalType":"string"},{"name":"leaseDuration","type":"int256","internalType":"int256"}]}],"stateMutability":"nonpayable"},{"type":"function","name":"register","inputs":[],"outputs":[{"name":"name","type":"string","internalType":"string"},{"name":"category","type":"string","internalType":"string"},{"name":"capabilities","type":"string[]","internalType":"string[]"}],"stateMutability":"pure"},{"type":"function","name":"renewLease","inputs":[{"name":"leaseId","type":"string","internalType":"string"}],"outputs":[{"name":"","type":"tuple","internalType":"struct VaultProvider.RenewLeaseOkResult","components":[{"name":"success","type":"bool","internalType":"bool"},{"name":"leaseId","type":"string","internalType":"string"},{"name":"newDuration","type":"int256","internalType":"int256"}]}],"stateMutability":"nonpayable"},{"type":"function","name":"rotate","inputs":[{"name":"path","type":"string","internalType":"string"}],"outputs":[{"name":"","type":"tuple","internalType":"struct VaultProvider.RotateOkResult","components":[{"name":"success","type":"bool","internalType":"bool"},{"name":"newVersion","type":"int256","internalType":"int256"}]}],"stateMutability":"nonpayable"},{"type":"event","name":"FetchCompleted","inputs":[{"name":"variant","type":"string","indexed":false,"internalType":"string"},{"name":"leaseDuration","type":"int256","indexed":false,"internalType":"int256"}],"anonymous":false},{"type":"event","name":"RenewLeaseCompleted","inputs":[{"name":"variant","type":"string","indexed":false,"internalType":"string"},{"name":"newDuration","type":"int256","indexed":false,"internalType":"int256"}],"anonymous":false},{"type":"event","name":"RotateCompleted","inputs":[{"name":"variant","type":"string","indexed":false,"internalType":"string"},{"name":"newVersion","type":"int256","indexed":false,"internalType":"int256"}],"anonymous":false}],"bytecode":{"object":"0x608060405234801561000f575f80fd5b506116578061001d5f395ff3fe608060405234801561000f575f80fd5b506004361061004a575f3560e01c80631aa3a0081461004e5780632f26a6441461006e5780635a2415221461009e578063d246d0b9146100ce575b5f80fd5b6100566100fe565b60405161006593929190610b71565b60405180910390f35b61008860048036038101906100839190610cf8565b6102c7565b6040516100959190610dbe565b60405180910390f35b6100b860048036038101906100b39190610cf8565b6103fc565b6040516100c59190610e0b565b60405180910390f35b6100e860048036038101906100e39190610cf8565b610561565b6040516100f59190610e8b565b60405180910390f35b60608060606040518060400160405280600581526020017f7661756c7400000000000000000000000000000000000000000000000000000081525092506040518060400160405280600681526020017f73656372657400000000000000000000000000000000000000000000000000008152509150600367ffffffffffffffff81111561018e5761018d610bd4565b5b6040519080825280602002602001820160405280156101c157816020015b60608152602001906001900390816101ac5790505b5090506040518060400160405280600581526020017f6665746368000000000000000000000000000000000000000000000000000000815250815f8151811061020d5761020c610eab565b5b60200260200101819052506040518060400160405280600a81526020017f72656e65774c65617365000000000000000000000000000000000000000000008152508160018151811061026257610261610eab565b5b60200260200101819052506040518060400160405280600681526020017f726f746174650000000000000000000000000000000000000000000000000000815250816002815181106102b7576102b6610eab565b5b6020026020010181905250909192565b6102cf610981565b5f826040516020016102e19190610f12565b60405160208183030381529060405280519060200120905060045f8281526020019081526020015f205f9054906101000a900460ff16610356576040517f08c379a000000000000000000000000000000000000000000000000000000000815260040161034d90610f72565b60405180910390fd5b5f610e10905083814260405160200161037193929190610fb7565b60405160208183030381529060405260035f8481526020019081526020015f20908161039d91906111f7565b507f6acd6c9670e68478a68b86dcae7447695be593c70380b3d4334eaaf84e4f929c816040516103cd9190611310565b60405180910390a160405180606001604052806001151581526020018581526020018281525092505050919050565b6104046109a2565b5f826040516020016104169190610f12565b60405160208183030381529060405280519060200120905060015f8281526020019081526020015f205f9054906101000a900460ff1661048b576040517f08c379a000000000000000000000000000000000000000000000000000000000815260040161048290611386565b60405180910390fd5b600160055f8381526020019081526020015f205f8282546104ac91906113d1565b925050819055505f60055f8381526020019081526020015f205490508381426040516020016104dd93929190610fb7565b6040516020818303038152906040525f808481526020019081526020015f20908161050891906111f7565b507ffca9c60906e455c94b78a31bb39d09461cfbd321406f3d38793ef7a64e3fa3e5816040516105389190611310565b60405180910390a160405180604001604052806001151581526020018281525092505050919050565b6105696109bc565b5f8251116105ac576040517f08c379a00000000000000000000000000000000000000000000000000000000081526004016105a39061144e565b60405180910390fd5b5f826040516020016105be9190610f12565b60405160208183030381529060405280519060200120905060015f8281526020019081526020015f205f9054906101000a900460ff16610674576001805f8381526020019081526020015f205f6101000a81548160ff021916908315150217905550600281908060018154018082558091505060019003905f5260205f20015f9091909190915055600160055f8381526020019081526020015f20819055505f60065f8381526020019081526020015f20819055505b600160065f8381526020019081526020015f205f82825461069591906113d1565b925050819055505f6106b760065f8481526020019081526020015f2054610828565b6040516020016106c791906114b6565b60405160208183030381529060405290505f610e1090505f826040516020016106f09190610f12565b60405160208183030381529060405280519060200120905085824260405160200161071d93929190610fb7565b60405160208183030381529060405260035f8381526020019081526020015f20908161074991906111f7565b50600160045f8381526020019081526020015f205f6101000a81548160ff021916908315150217905550858342604051602001610788939291906114d7565b6040516020818303038152906040525f808681526020019081526020015f2090816107b391906111f7565b507f4b9f92030c03f723bb67263f50bc31c43a1a043c2ca902c8cf0df29c7b479467826040516107e39190611310565b60405180910390a1604051806080016040528060011515815260200160405180602001604052805f815250815260200184815260200183815250945050505050919050565b60605f820361086e576040518060400160405280600181526020017f3000000000000000000000000000000000000000000000000000000000000000815250905061097c565b5f8290505f5b5f821461089d5780806108869061151a565b915050600a82610896919061158e565b9150610874565b5f8167ffffffffffffffff8111156108b8576108b7610bd4565b5b6040519080825280601f01601f1916602001820160405280156108ea5781602001600182028036833780820191505090505b5090505b5f85146109755760018261090291906115be565b9150600a8561091191906115f1565b603061091d91906113d1565b60f81b81838151811061093357610932610eab565b5b60200101907effffffffffffffffffffffffffffffffffffffffffffffffffffffffffffff191690815f1a905350600a8561096e919061158e565b94506108ee565b8093505050505b919050565b60405180606001604052805f15158152602001606081526020015f81525090565b60405180604001604052805f151581526020015f81525090565b60405180608001604052805f1515815260200160608152602001606081526020015f81525090565b5f81519050919050565b5f82825260208201905092915050565b5f5b83811015610a1b578082015181840152602081019050610a00565b5f8484015250505050565b5f601f19601f8301169050919050565b5f610a40826109e4565b610a4a81856109ee565b9350610a5a8185602086016109fe565b610a6381610a26565b840191505092915050565b5f81519050919050565b5f82825260208201905092915050565b5f819050602082019050919050565b5f82825260208201905092915050565b5f610ab1826109e4565b610abb8185610a97565b9350610acb8185602086016109fe565b610ad481610a26565b840191505092915050565b5f610aea8383610aa7565b905092915050565b5f602082019050919050565b5f610b0882610a6e565b610b128185610a78565b935083602082028501610b2485610a88565b805f5b85811015610b5f5784840389528151610b408582610adf565b9450610b4b83610af2565b925060208a01995050600181019050610b27565b50829750879550505050505092915050565b5f6060820190508181035f830152610b898186610a36565b90508181036020830152610b9d8185610a36565b90508181036040830152610bb18184610afe565b9050949350505050565b5f604051905090565b5f80fd5b5f80fd5b5f80fd5b5f80fd5b7f4e487b71000000000000000000000000000000000000000000000000000000005f52604160045260245ffd5b610c0a82610a26565b810181811067ffffffffffffffff82111715610c2957610c28610bd4565b5b80604052505050565b5f610c3b610bbb565b9050610c478282610c01565b919050565b5f67ffffffffffffffff821115610c6657610c65610bd4565b5b610c6f82610a26565b9050602081019050919050565b828183375f83830152505050565b5f610c9c610c9784610c4c565b610c32565b905082815260208101848484011115610cb857610cb7610bd0565b5b610cc3848285610c7c565b509392505050565b5f82601f830112610cdf57610cde610bcc565b5b8135610cef848260208601610c8a565b91505092915050565b5f60208284031215610d0d57610d0c610bc4565b5b5f82013567ffffffffffffffff811115610d2a57610d29610bc8565b5b610d3684828501610ccb565b91505092915050565b5f8115159050919050565b610d5381610d3f565b82525050565b5f819050919050565b610d6b81610d59565b82525050565b5f606083015f830151610d865f860182610d4a565b5060208301518482036020860152610d9e8282610aa7565b9150506040830151610db36040860182610d62565b508091505092915050565b5f6020820190508181035f830152610dd68184610d71565b905092915050565b604082015f820151610df25f850182610d4a565b506020820151610e056020850182610d62565b50505050565b5f604082019050610e1e5f830184610dde565b92915050565b5f608083015f830151610e395f860182610d4a565b5060208301518482036020860152610e518282610aa7565b91505060408301518482036040860152610e6b8282610aa7565b9150506060830151610e806060860182610d62565b508091505092915050565b5f6020820190508181035f830152610ea38184610e24565b905092915050565b7f4e487b71000000000000000000000000000000000000000000000000000000005f52603260045260245ffd5b5f81905092915050565b5f610eec826109e4565b610ef68185610ed8565b9350610f068185602086016109fe565b80840191505092915050565b5f610f1d8284610ee2565b915081905092915050565b7f4c65617365206e6f7420666f756e64202d2066657463682066697273740000005f82015250565b5f610f5c601d836109ee565b9150610f6782610f28565b602082019050919050565b5f6020820190508181035f830152610f8981610f50565b9050919050565b610f9981610d59565b82525050565b5f819050919050565b610fb181610f9f565b82525050565b5f6060820190508181035f830152610fcf8186610a36565b9050610fde6020830185610f90565b610feb6040830184610fa8565b949350505050565b5f81519050919050565b7f4e487b71000000000000000000000000000000000000000000000000000000005f52602260045260245ffd5b5f600282049050600182168061104157607f821691505b60208210810361105457611053610ffd565b5b50919050565b5f819050815f5260205f209050919050565b5f6020601f8301049050919050565b5f82821b905092915050565b5f600883026110b67fffffffffffffffffffffffffffffffffffffffffffffffffffffffffffffffff8261107b565b6110c0868361107b565b95508019841693508086168417925050509392505050565b5f819050919050565b5f6110fb6110f66110f184610f9f565b6110d8565b610f9f565b9050919050565b5f819050919050565b611114836110e1565b61112861112082611102565b848454611087565b825550505050565b5f90565b61113c611130565b61114781848461110b565b505050565b5b8181101561116a5761115f5f82611134565b60018101905061114d565b5050565b601f8211156111af576111808161105a565b6111898461106c565b81016020851015611198578190505b6111ac6111a48561106c565b83018261114c565b50505b505050565b5f82821c905092915050565b5f6111cf5f19846008026111b4565b1980831691505092915050565b5f6111e783836111c0565b9150826002028217905092915050565b61120082610ff3565b67ffffffffffffffff81111561121957611218610bd4565b5b611223825461102a565b61122e82828561116e565b5f60209050601f83116001811461125f575f841561124d578287015190505b61125785826111dc565b8655506112be565b601f19841661126d8661105a565b5f5b828110156112945784890151825560018201915060208501945060208101905061126f565b868310156112b157848901516112ad601f8916826111c0565b8355505b6001600288020188555050505b505050505050565b7f6f6b0000000000000000000000000000000000000000000000000000000000005f82015250565b5f6112fa6002836109ee565b9150611305826112c6565b602082019050919050565b5f6040820190508181035f830152611327816112ee565b90506113366020830184610f90565b92915050565b7f50617468206e6f7420666f756e64202d206665746368206669727374000000005f82015250565b5f611370601c836109ee565b915061137b8261133c565b602082019050919050565b5f6020820190508181035f83015261139d81611364565b9050919050565b7f4e487b71000000000000000000000000000000000000000000000000000000005f52601160045260245ffd5b5f6113db82610f9f565b91506113e683610f9f565b92508282019050808211156113fe576113fd6113a4565b5b92915050565b7f50617468206d757374206e6f7420626520656d707479000000000000000000005f82015250565b5f6114386016836109ee565b915061144382611404565b602082019050919050565b5f6020820190508181035f8301526114658161142c565b9050919050565b7f6c656173652d00000000000000000000000000000000000000000000000000005f82015250565b5f6114a0600683610ed8565b91506114ab8261146c565b600682019050919050565b5f6114c082611494565b91506114cc8284610ee2565b915081905092915050565b5f6060820190508181035f8301526114ef8186610a36565b905081810360208301526115038185610a36565b90506115126040830184610fa8565b949350505050565b5f61152482610f9f565b91507fffffffffffffffffffffffffffffffffffffffffffffffffffffffffffffffff8203611556576115556113a4565b5b600182019050919050565b7f4e487b71000000000000000000000000000000000000000000000000000000005f52601260045260245ffd5b5f61159882610f9f565b91506115a383610f9f565b9250826115b3576115b2611561565b5b828204905092915050565b5f6115c882610f9f565b91506115d383610f9f565b92508282039050818111156115eb576115ea6113a4565b5b92915050565b5f6115fb82610f9f565b915061160683610f9f565b92508261161657611615611561565b5b82820690509291505056fea2646970667358221220a2600627312c49af023c19438f0a48d1fb88dcf8b659642d395e758646307cc264736f6c63430008140033","linkReferences":{}},"methodIdentifiers":{"fetch(string)":"d246d0b9","register()":"1aa3a008","renewLease(string)":"2f26a644","rotate(string)":"5a241522"},"id":325}