{"abi":[{"type":"function","name":"getManifest","inputs":[{"name":"manifestId","type":"bytes32","internalType":"bytes32"}],"outputs":[{"name":"data","type":"bytes","internalType":"bytes"}],"stateMutability":"view"},{"type":"function","name":"getRule","inputs":[{"name":"ruleId","type":"bytes32","internalType":"bytes32"}],"outputs":[{"name":"","type":"tuple","internalType":"struct DeploymentValidator.ValidationRule","components":[{"name":"name","type":"string","internalType":"string"},{"name":"description","type":"string","internalType":"string"},{"name":"config","type":"bytes","internalType":"bytes"},{"name":"exists","type":"bool","internalType":"bool"}]}],"stateMutability":"view"},{"type":"function","name":"list","inputs":[],"outputs":[{"name":"","type":"bytes32[]","internalType":"bytes32[]"}],"stateMutability":"view"},{"type":"function","name":"manifestExists","inputs":[{"name":"manifestId","type":"bytes32","internalType":"bytes32"}],"outputs":[{"name":"","type":"bool","internalType":"bool"}],"stateMutability":"view"},{"type":"function","name":"parse","inputs":[{"name":"raw","type":"string","internalType":"string"}],"outputs":[{"name":"result","type":"tuple","internalType":"struct DeploymentValidator.ParseOkResult","components":[{"name":"success","type":"bool","internalType":"bool"},{"name":"manifest","type":"bytes32","internalType":"bytes32"}]}],"stateMutability":"nonpayable"},{"type":"function","name":"register","inputs":[{"name":"name","type":"string","internalType":"string"},{"name":"description","type":"string","internalType":"string"},{"name":"config","type":"bytes","internalType":"bytes"}],"outputs":[{"name":"ruleId","type":"bytes32","internalType":"bytes32"}],"stateMutability":"nonpayable"},{"type":"function","name":"report","inputs":[{"name":"manifest","type":"bytes32","internalType":"bytes32"}],"outputs":[{"name":"plan","type":"bytes","internalType":"bytes"},{"name":"ruleCount","type":"uint256","internalType":"uint256"}],"stateMutability":"view"},{"type":"function","name":"validate","inputs":[{"name":"manifest","type":"bytes32","internalType":"bytes32"},{"name":"concepts","type":"bytes[]","internalType":"bytes[]"},{"name":"syncs","type":"bytes[]","internalType":"bytes[]"}],"outputs":[{"name":"result","type":"tuple","internalType":"struct DeploymentValidator.ValidateOkResult","components":[{"name":"success","type":"bool","internalType":"bool"},{"name":"plan","type":"bytes","internalType":"bytes"}]}],"stateMutability":"nonpayable"},{"type":"event","name":"ParseCompleted","inputs":[{"name":"variant","type":"string","indexed":false,"internalType":"string"},{"name":"manifest","type":"bytes32","indexed":false,"internalType":"bytes32"}],"anonymous":false},{"type":"event","name":"RuleRegistered","inputs":[{"name":"ruleId","type":"bytes32","indexed":true,"internalType":"bytes32"},{"name":"name","type":"string","indexed":false,"internalType":"string"}],"anonymous":false},{"type":"event","name":"ValidateCompleted","inputs":[{"name":"variant","type":"string","indexed":false,"internalType":"string"},{"name":"plan","type":"bytes","indexed":false,"internalType":"bytes"},{"name":"issues","type":"string[]","indexed":false,"internalType":"string[]"}],"anonymous":false}],"bytecode":{"object":"0x608060405234801561000f575f80fd5b50611d348061001d5f395ff3fe608060405234801561000f575f80fd5b5060043610610086575f3560e01c80637858c268116100595780637858c26814610139578063bc62d8d814610169578063f77f272b14610199578063f7cab847146101c957610086565b80630f560cd71461008a57806326030a34146100a857806348e8f30d146100d95780636376cad114610109575b5f80fd5b6100926101f9565b60405161009f9190610d4a565b60405180910390f35b6100c260048036038101906100bd9190610d9c565b61024f565b6040516100d0929190610e69565b60405180910390f35b6100f360048036038101906100ee9190610d9c565b6102e9565b6040516101009190610eb1565b60405180910390f35b610123600480360381019061011e9190610f2b565b610311565b604051610130919061104d565b60405180910390f35b610153600480360381019061014e9190610d9c565b610456565b604051610160919061106d565b60405180910390f35b610183600480360381019061017e91906110e2565b610557565b604051610190919061115a565b60405180910390f35b6101b360048036038101906101ae91906111c8565b61071c565b6040516101c09190611287565b60405180910390f35b6101e360048036038101906101de9190610d9c565b6109d5565b6040516101f09190611360565b60405180910390f35b6060600380548060200260200160405190810160405280929190818152602001828054801561024557602002820191905f5260205f20905b815481526020019060010190808311610231575b5050505050905090565b60605f805f8481526020019081526020015f206002015f9054906101000a900460ff166102b1576040517f08c379a00000000000000000000000000000000000000000000000000000000081526004016102a8906113da565b60405180910390fd5b82600380549050426040516020016102cb939291906113f8565b60405160208183030381529060405291506003805490509050915091565b5f805f8381526020019081526020015f206002015f9054906101000a900460ff169050919050565b610319610c29565b5f808781526020019081526020015f206002015f9054906101000a900460ff16610378576040517f08c379a000000000000000000000000000000000000000000000000000000000815260040161036f906113da565b60405180910390fd5b5f86868690508585905042604051602001610396949392919061142d565b60405160208183030381529060405290505f8067ffffffffffffffff8111156103c2576103c1611470565b5b6040519080825280602002602001820160405280156103f557816020015b60608152602001906001900390816103e05790505b50905060405180604001604052806001151581526020018381525092507f94e5f66fb1355545d4009fa0e431da669d01cbe5b6337fbb586c949df4beba0982826040516104439291906115a2565b60405180910390a1505095945050505050565b60605f808381526020019081526020015f206002015f9054906101000a900460ff166104b7576040517f08c379a00000000000000000000000000000000000000000000000000000000081526004016104ae906113da565b60405180910390fd5b5f808381526020019081526020015f205f0180546104d490611617565b80601f016020809104026020016040519081016040528092919081815260200182805461050090611617565b801561054b5780601f106105225761010080835404028352916020019161054b565b820191905f5260205f20905b81548152906001019060200180831161052e57829003601f168201915b50505050509050919050565b61055f610c44565b5f83839050116105a4576040517f08c379a000000000000000000000000000000000000000000000000000000000815260040161059b90611691565b60405180910390fd5b5f8383426004546040516020016105be949392919061170b565b60405160208183030381529060405280519060200120905060045f8154809291906105e890611772565b9190505550604051806060016040528085858080601f0160208091040260200160405190810160405280939291908181526020018383808284375f81840152601f19601f820116905080830192505050505050508152602001428152602001600115158152505f808381526020019081526020015f205f820151815f0190816106719190611956565b50602082015181600101556040820151816002015f6101000a81548160ff021916908315150217905550905050600181908060018154018082558091505060019003905f5260205f20015f909190919091505560405180604001604052806001151581526020018281525091507fa2b9c2f5fe04334b551566ec92aba2292cfb8bb5ca68689dd80c0e8189dfb35e8160405161070d9190611a25565b60405180910390a15092915050565b5f808787905011610762576040517f08c379a000000000000000000000000000000000000000000000000000000000815260040161075990611a9b565b60405180910390fd5b86864260045460405160200161077b949392919061170b565b60405160208183030381529060405280519060200120905060045f8154809291906107a590611772565b919050555060025f8281526020019081526020015f206003015f9054906101000a900460ff161561080b576040517f08c379a000000000000000000000000000000000000000000000000000000000815260040161080290611b03565b60405180910390fd5b604051806080016040528088888080601f0160208091040260200160405190810160405280939291908181526020018383808284375f81840152601f19601f82011690508083019250505050505050815260200186868080601f0160208091040260200160405190810160405280939291908181526020018383808284375f81840152601f19601f82011690508083019250505050505050815260200184848080601f0160208091040260200160405190810160405280939291908181526020018383808284375f81840152601f19601f8201169050808301925050505050505081526020016001151581525060025f8381526020019081526020015f205f820151815f01908161091c9190611b79565b5060208201518160010190816109329190611b79565b5060408201518160020190816109489190611956565b506060820151816003015f6101000a81548160ff021916908315150217905550905050600381908060018154018082558091505060019003905f5260205f20015f9091909190915055807f067225dd0ceb5fc8f6bb9bec4c94b490a226fd1bcb07dcc9be8f2e46dadad39f88886040516109c3929190611c74565b60405180910390a29695505050505050565b6109dd610c61565b60025f8381526020019081526020015f206003015f9054906101000a900460ff16610a3d576040517f08c379a0000000000000000000000000000000000000000000000000000000008152600401610a3490611ce0565b60405180910390fd5b60025f8381526020019081526020015f206040518060800160405290815f82018054610a6890611617565b80601f0160208091040260200160405190810160405280929190818152602001828054610a9490611617565b8015610adf5780601f10610ab657610100808354040283529160200191610adf565b820191905f5260205f20905b815481529060010190602001808311610ac257829003601f168201915b50505050508152602001600182018054610af890611617565b80601f0160208091040260200160405190810160405280929190818152602001828054610b2490611617565b8015610b6f5780601f10610b4657610100808354040283529160200191610b6f565b820191905f5260205f20905b815481529060010190602001808311610b5257829003601f168201915b50505050508152602001600282018054610b8890611617565b80601f0160208091040260200160405190810160405280929190818152602001828054610bb490611617565b8015610bff5780601f10610bd657610100808354040283529160200191610bff565b820191905f5260205f20905b815481529060010190602001808311610be257829003601f168201915b50505050508152602001600382015f9054906101000a900460ff1615151515815250509050919050565b60405180604001604052805f15158152602001606081525090565b60405180604001604052805f151581526020015f80191681525090565b60405180608001604052806060815260200160608152602001606081526020015f151581525090565b5f81519050919050565b5f82825260208201905092915050565b5f819050602082019050919050565b5f819050919050565b610cc581610cb3565b82525050565b5f610cd68383610cbc565b60208301905092915050565b5f602082019050919050565b5f610cf882610c8a565b610d028185610c94565b9350610d0d83610ca4565b805f5b83811015610d3d578151610d248882610ccb565b9750610d2f83610ce2565b925050600181019050610d10565b5085935050505092915050565b5f6020820190508181035f830152610d628184610cee565b905092915050565b5f80fd5b5f80fd5b610d7b81610cb3565b8114610d85575f80fd5b50565b5f81359050610d9681610d72565b92915050565b5f60208284031215610db157610db0610d6a565b5b5f610dbe84828501610d88565b91505092915050565b5f81519050919050565b5f82825260208201905092915050565b5f5b83811015610dfe578082015181840152602081019050610de3565b5f8484015250505050565b5f601f19601f8301169050919050565b5f610e2382610dc7565b610e2d8185610dd1565b9350610e3d818560208601610de1565b610e4681610e09565b840191505092915050565b5f819050919050565b610e6381610e51565b82525050565b5f6040820190508181035f830152610e818185610e19565b9050610e906020830184610e5a565b9392505050565b5f8115159050919050565b610eab81610e97565b82525050565b5f602082019050610ec45f830184610ea2565b92915050565b5f80fd5b5f80fd5b5f80fd5b5f8083601f840112610eeb57610eea610eca565b5b8235905067ffffffffffffffff811115610f0857610f07610ece565b5b602083019150836020820283011115610f2457610f23610ed2565b5b9250929050565b5f805f805f60608688031215610f4457610f43610d6a565b5b5f610f5188828901610d88565b955050602086013567ffffffffffffffff811115610f7257610f71610d6e565b5b610f7e88828901610ed6565b9450945050604086013567ffffffffffffffff811115610fa157610fa0610d6e565b5b610fad88828901610ed6565b92509250509295509295909350565b610fc581610e97565b82525050565b5f82825260208201905092915050565b5f610fe582610dc7565b610fef8185610fcb565b9350610fff818560208601610de1565b61100881610e09565b840191505092915050565b5f604083015f8301516110285f860182610fbc565b50602083015184820360208601526110408282610fdb565b9150508091505092915050565b5f6020820190508181035f8301526110658184611013565b905092915050565b5f6020820190508181035f8301526110858184610e19565b905092915050565b5f8083601f8401126110a2576110a1610eca565b5b8235905067ffffffffffffffff8111156110bf576110be610ece565b5b6020830191508360018202830111156110db576110da610ed2565b5b9250929050565b5f80602083850312156110f8576110f7610d6a565b5b5f83013567ffffffffffffffff81111561111557611114610d6e565b5b6111218582860161108d565b92509250509250929050565b604082015f8201516111415f850182610fbc565b5060208201516111546020850182610cbc565b50505050565b5f60408201905061116d5f83018461112d565b92915050565b5f8083601f84011261118857611187610eca565b5b8235905067ffffffffffffffff8111156111a5576111a4610ece565b5b6020830191508360018202830111156111c1576111c0610ed2565b5b9250929050565b5f805f805f80606087890312156111e2576111e1610d6a565b5b5f87013567ffffffffffffffff8111156111ff576111fe610d6e565b5b61120b89828a0161108d565b9650965050602087013567ffffffffffffffff81111561122e5761122d610d6e565b5b61123a89828a0161108d565b9450945050604087013567ffffffffffffffff81111561125d5761125c610d6e565b5b61126989828a01611173565b92509250509295509295509295565b61128181610cb3565b82525050565b5f60208201905061129a5f830184611278565b92915050565b5f81519050919050565b5f82825260208201905092915050565b5f6112c4826112a0565b6112ce81856112aa565b93506112de818560208601610de1565b6112e781610e09565b840191505092915050565b5f608083015f8301518482035f86015261130c82826112ba565b9150506020830151848203602086015261132682826112ba565b915050604083015184820360408601526113408282610fdb565b91505060608301516113556060860182610fbc565b508091505092915050565b5f6020820190508181035f83015261137881846112f2565b905092915050565b5f82825260208201905092915050565b7f4d616e6966657374206e6f7420666f756e6400000000000000000000000000005f82015250565b5f6113c4601283611380565b91506113cf82611390565b602082019050919050565b5f6020820190508181035f8301526113f1816113b8565b9050919050565b5f60608201905061140b5f830186611278565b6114186020830185610e5a565b6114256040830184610e5a565b949350505050565b5f6080820190506114405f830187611278565b61144d6020830186610e5a565b61145a6040830185610e5a565b6114676060830184610e5a565b95945050505050565b7f4e487b71000000000000000000000000000000000000000000000000000000005f52604160045260245ffd5b7f6f6b0000000000000000000000000000000000000000000000000000000000005f82015250565b5f6114d1600283611380565b91506114dc8261149d565b602082019050919050565b5f81519050919050565b5f82825260208201905092915050565b5f819050602082019050919050565b5f61151b83836112ba565b905092915050565b5f602082019050919050565b5f611539826114e7565b61154381856114f1565b93508360208202850161155585611501565b805f5b8581101561159057848403895281516115718582611510565b945061157c83611523565b925060208a01995050600181019050611558565b50829750879550505050505092915050565b5f6060820190508181035f8301526115b9816114c5565b905081810360208301526115cd8185610e19565b905081810360408301526115e1818461152f565b90509392505050565b7f4e487b71000000000000000000000000000000000000000000000000000000005f52602260045260245ffd5b5f600282049050600182168061162e57607f821691505b602082108103611641576116406115ea565b5b50919050565b7f52617720636f6e6669672063616e6e6f7420626520656d7074790000000000005f82015250565b5f61167b601a83611380565b915061168682611647565b602082019050919050565b5f6020820190508181035f8301526116a88161166f565b9050919050565b5f81905092915050565b828183375f83830152505050565b5f6116d283856116af565b93506116df8385846116b9565b82840190509392505050565b5f819050919050565b61170561170082610e51565b6116eb565b82525050565b5f6117178286886116c7565b915061172382856116f4565b60208201915061173382846116f4565b60208201915081905095945050505050565b7f4e487b71000000000000000000000000000000000000000000000000000000005f52601160045260245ffd5b5f61177c82610e51565b91507fffffffffffffffffffffffffffffffffffffffffffffffffffffffffffffffff82036117ae576117ad611745565b5b600182019050919050565b5f819050815f5260205f209050919050565b5f6020601f8301049050919050565b5f82821b905092915050565b5f600883026118157fffffffffffffffffffffffffffffffffffffffffffffffffffffffffffffffff826117da565b61181f86836117da565b95508019841693508086168417925050509392505050565b5f819050919050565b5f61185a61185561185084610e51565b611837565b610e51565b9050919050565b5f819050919050565b61187383611840565b61188761187f82611861565b8484546117e6565b825550505050565b5f90565b61189b61188f565b6118a681848461186a565b505050565b5b818110156118c9576118be5f82611893565b6001810190506118ac565b5050565b601f82111561190e576118df816117b9565b6118e8846117cb565b810160208510156118f7578190505b61190b611903856117cb565b8301826118ab565b50505b505050565b5f82821c905092915050565b5f61192e5f1984600802611913565b1980831691505092915050565b5f611946838361191f565b9150826002028217905092915050565b61195f82610dc7565b67ffffffffffffffff81111561197857611977611470565b5b6119828254611617565b61198d8282856118cd565b5f60209050601f8311600181146119be575f84156119ac578287015190505b6119b6858261193b565b865550611a1d565b601f1984166119cc866117b9565b5f5b828110156119f3578489015182556001820191506020850194506020810190506119ce565b86831015611a105784890151611a0c601f89168261191f565b8355505b6001600288020188555050505b505050505050565b5f6040820190508181035f830152611a3c816114c5565b9050611a4b6020830184611278565b92915050565b7f52756c65206e616d652063616e6e6f7420626520656d707479000000000000005f82015250565b5f611a85601983611380565b9150611a9082611a51565b602082019050919050565b5f6020820190508181035f830152611ab281611a79565b9050919050565b7f52756c6520616c726561647920657869737473000000000000000000000000005f82015250565b5f611aed601383611380565b9150611af882611ab9565b602082019050919050565b5f6020820190508181035f830152611b1a81611ae1565b9050919050565b5f819050815f5260205f209050919050565b601f821115611b7457611b4581611b21565b611b4e846117cb565b81016020851015611b5d578190505b611b71611b69856117cb565b8301826118ab565b50505b505050565b611b82826112a0565b67ffffffffffffffff811115611b9b57611b9a611470565b5b611ba58254611617565b611bb0828285611b33565b5f60209050601f831160018114611be1575f8415611bcf578287015190505b611bd9858261193b565b865550611c40565b601f198416611bef86611b21565b5f5b82811015611c1657848901518255600182019150602085019450602081019050611bf1565b86831015611c335784890151611c2f601f89168261191f565b8355505b6001600288020188555050505b505050505050565b5f611c538385611380565b9350611c608385846116b9565b611c6983610e09565b840190509392505050565b5f6020820190508181035f830152611c8d818486611c48565b90509392505050565b7f52756c65206e6f7420666f756e640000000000000000000000000000000000005f82015250565b5f611cca600e83611380565b9150611cd582611c96565b602082019050919050565b5f6020820190508181035f830152611cf781611cbe565b905091905056fea2646970667358221220f199a51d71b8609c75eb0a1bb95ee2ef356a9511a056441315f85daca6539dde64736f6c63430008140033","linkReferences":{}},"methodIdentifiers":{"getManifest(bytes32)":"7858c268","getRule(bytes32)":"f7cab847","list()":"0f560cd7","manifestExists(bytes32)":"48e8f30d","parse(string)":"bc62d8d8","register(string,string,bytes)":"f77f272b","report(bytes32)":"26030a34","validate(bytes32,bytes[],bytes[])":"6376cad1"},"id":96}