{"abi":[{"type":"function","name":"compile","inputs":[{"name":"sync","type":"bytes32","internalType":"bytes32"},{"name":"ast","type":"bytes","internalType":"bytes"}],"outputs":[{"name":"result","type":"tuple","internalType":"struct SyncCompiler.CompileOkResult","components":[{"name":"success","type":"bool","internalType":"bool"},{"name":"compiled","type":"bytes","internalType":"bytes"}]}],"stateMutability":"nonpayable"},{"type":"function","name":"getCompiled","inputs":[{"name":"sync","type":"bytes32","internalType":"bytes32"}],"outputs":[{"name":"compiled","type":"bytes","internalType":"bytes"}],"stateMutability":"view"},{"type":"function","name":"hasCompiled","inputs":[{"name":"sync","type":"bytes32","internalType":"bytes32"}],"outputs":[{"name":"","type":"bool","internalType":"bool"}],"stateMutability":"view"},{"type":"function","name":"listCompiled","inputs":[],"outputs":[{"name":"","type":"bytes32[]","internalType":"bytes32[]"}],"stateMutability":"view"},{"type":"function","name":"register","inputs":[],"outputs":[{"name":"metadata","type":"tuple","internalType":"struct SyncCompiler.ProviderMetadata","components":[{"name":"name","type":"string","internalType":"string"},{"name":"category","type":"string","internalType":"string"}]}],"stateMutability":"pure"},{"type":"event","name":"CompileCompleted","inputs":[{"name":"variant","type":"string","indexed":false,"internalType":"string"},{"name":"compiled","type":"bytes","indexed":false,"internalType":"bytes"}],"anonymous":false}],"bytecode":{"object":"0x608060405234801561000f575f80fd5b50610e968061001d5f395ff3fe608060405234801561000f575f80fd5b5060043610610055575f3560e01c80631aa3a0081461005957806386ad273f1461007757806395680db114610095578063edf83946146100c5578063f0bc44d7146100f5575b5f80fd5b610061610125565b60405161006e91906105d8565b60405180910390f35b61007f6101b1565b60405161008c91906106b8565b60405180910390f35b6100af60048036038101906100aa919061076b565b610207565b6040516100bc919061086e565b60405180910390f35b6100df60048036038101906100da919061088e565b6103af565b6040516100ec9190610901565b60405180910390f35b61010f600480360381019061010a919061088e565b6104b0565b60405161011c9190610930565b60405180910390f35b61012d6104d8565b60405180604001604052806040518060400160405280600d81526020017f73796e632d636f6d70696c65720000000000000000000000000000000000000081525081526020016040518060400160405280600881526020017f636f6d70696c6572000000000000000000000000000000000000000000000000815250815250905090565b606060018054806020026020016040519081016040528092919081815260200182805480156101fd57602002820191905f5260205f20905b8154815260200190600101908083116101e9575b5050505050905090565b61020f6104f2565b5f801b8403610253576040517f08c379a000000000000000000000000000000000000000000000000000000000815260040161024a906109a3565b60405180910390fd5b5f8383905011610298576040517f08c379a000000000000000000000000000000000000000000000000000000000815260040161028f90610a0b565b60405180910390fd5b5f8484849050426040516020016102b193929190610a50565b60405160208183030381529060405290506040518060600160405280828152602001428152602001600115158152505f808781526020019081526020015f205f820151815f0190816103039190610cac565b50602082015181600101556040820151816002015f6101000a81548160ff021916908315150217905550905050600185908060018154018082558091505060019003905f5260205f20015f909190919091505560405180604001604052806001151581526020018281525091507f2b7eb7c1d45125aea64441afce04212dfbbd54efcf9735932eed2bf3481aa0f88160405161039f9190610dc5565b60405180910390a1509392505050565b60605f808381526020019081526020015f206002015f9054906101000a900460ff16610410576040517f08c379a000000000000000000000000000000000000000000000000000000000815260040161040790610e42565b60405180910390fd5b5f808381526020019081526020015f205f01805461042d90610adf565b80601f016020809104026020016040519081016040528092919081815260200182805461045990610adf565b80156104a45780601f1061047b576101008083540402835291602001916104a4565b820191905f5260205f20905b81548152906001019060200180831161048757829003601f168201915b50505050509050919050565b5f805f8381526020019081526020015f206002015f9054906101000a900460ff169050919050565b604051806040016040528060608152602001606081525090565b60405180604001604052805f15158152602001606081525090565b5f81519050919050565b5f82825260208201905092915050565b5f5b83811015610544578082015181840152602081019050610529565b5f8484015250505050565b5f601f19601f8301169050919050565b5f6105698261050d565b6105738185610517565b9350610583818560208601610527565b61058c8161054f565b840191505092915050565b5f604083015f8301518482035f8601526105b1828261055f565b915050602083015184820360208601526105cb828261055f565b9150508091505092915050565b5f6020820190508181035f8301526105f08184610597565b905092915050565b5f81519050919050565b5f82825260208201905092915050565b5f819050602082019050919050565b5f819050919050565b61063381610621565b82525050565b5f610644838361062a565b60208301905092915050565b5f602082019050919050565b5f610666826105f8565b6106708185610602565b935061067b83610612565b805f5b838110156106ab5781516106928882610639565b975061069d83610650565b92505060018101905061067e565b5085935050505092915050565b5f6020820190508181035f8301526106d0818461065c565b905092915050565b5f80fd5b5f80fd5b6106e981610621565b81146106f3575f80fd5b50565b5f81359050610704816106e0565b92915050565b5f80fd5b5f80fd5b5f80fd5b5f8083601f84011261072b5761072a61070a565b5b8235905067ffffffffffffffff8111156107485761074761070e565b5b60208301915083600182028301111561076457610763610712565b5b9250929050565b5f805f60408486031215610782576107816106d8565b5b5f61078f868287016106f6565b935050602084013567ffffffffffffffff8111156107b0576107af6106dc565b5b6107bc86828701610716565b92509250509250925092565b5f8115159050919050565b6107dc816107c8565b82525050565b5f81519050919050565b5f82825260208201905092915050565b5f610806826107e2565b61081081856107ec565b9350610820818560208601610527565b6108298161054f565b840191505092915050565b5f604083015f8301516108495f8601826107d3565b506020830151848203602086015261086182826107fc565b9150508091505092915050565b5f6020820190508181035f8301526108868184610834565b905092915050565b5f602082840312156108a3576108a26106d8565b5b5f6108b0848285016106f6565b91505092915050565b5f82825260208201905092915050565b5f6108d3826107e2565b6108dd81856108b9565b93506108ed818560208601610527565b6108f68161054f565b840191505092915050565b5f6020820190508181035f83015261091981846108c9565b905092915050565b61092a816107c8565b82525050565b5f6020820190506109435f830184610921565b92915050565b5f82825260208201905092915050565b7f53796e632049442063616e6e6f74206265207a65726f000000000000000000005f82015250565b5f61098d601683610949565b915061099882610959565b602082019050919050565b5f6020820190508181035f8301526109ba81610981565b9050919050565b7f4153542063616e6e6f7420626520656d707479000000000000000000000000005f82015250565b5f6109f5601383610949565b9150610a00826109c1565b602082019050919050565b5f6020820190508181035f830152610a22816109e9565b9050919050565b610a3281610621565b82525050565b5f819050919050565b610a4a81610a38565b82525050565b5f606082019050610a635f830186610a29565b610a706020830185610a41565b610a7d6040830184610a41565b949350505050565b7f4e487b71000000000000000000000000000000000000000000000000000000005f52604160045260245ffd5b7f4e487b71000000000000000000000000000000000000000000000000000000005f52602260045260245ffd5b5f6002820490506001821680610af657607f821691505b602082108103610b0957610b08610ab2565b5b50919050565b5f819050815f5260205f209050919050565b5f6020601f8301049050919050565b5f82821b905092915050565b5f60088302610b6b7fffffffffffffffffffffffffffffffffffffffffffffffffffffffffffffffff82610b30565b610b758683610b30565b95508019841693508086168417925050509392505050565b5f819050919050565b5f610bb0610bab610ba684610a38565b610b8d565b610a38565b9050919050565b5f819050919050565b610bc983610b96565b610bdd610bd582610bb7565b848454610b3c565b825550505050565b5f90565b610bf1610be5565b610bfc818484610bc0565b505050565b5b81811015610c1f57610c145f82610be9565b600181019050610c02565b5050565b601f821115610c6457610c3581610b0f565b610c3e84610b21565b81016020851015610c4d578190505b610c61610c5985610b21565b830182610c01565b50505b505050565b5f82821c905092915050565b5f610c845f1984600802610c69565b1980831691505092915050565b5f610c9c8383610c75565b9150826002028217905092915050565b610cb5826107e2565b67ffffffffffffffff811115610cce57610ccd610a85565b5b610cd88254610adf565b610ce3828285610c23565b5f60209050601f831160018114610d14575f8415610d02578287015190505b610d0c8582610c91565b865550610d73565b601f198416610d2286610b0f565b5f5b82811015610d4957848901518255600182019150602085019450602081019050610d24565b86831015610d665784890151610d62601f891682610c75565b8355505b6001600288020188555050505b505050505050565b7f6f6b0000000000000000000000000000000000000000000000000000000000005f82015250565b5f610daf600283610949565b9150610dba82610d7b565b602082019050919050565b5f6040820190508181035f830152610ddc81610da3565b90508181036020830152610df081846108c9565b905092915050565b7f4e6f20636f6d70696c6564206f757470757420666f722073796e6300000000005f82015250565b5f610e2c601b83610949565b9150610e3782610df8565b602082019050919050565b5f6020820190508181035f830152610e5981610e20565b905091905056fea2646970667358221220b6869c8cdd402add4e0f1859ef4043221ce4b0e667c61d6dc9cb20ec417e0cf464736f6c63430008140033","linkReferences":{}},"methodIdentifiers":{"compile(bytes32,bytes)":"95680db1","getCompiled(bytes32)":"edf83946","hasCompiled(bytes32)":"f0bc44d7","listCompiled()":"86ad273f","register()":"1aa3a008"},"id":268}