{"abi":[{"type":"function","name":"generate","inputs":[{"name":"projection","type":"string","internalType":"string"},{"name":"config","type":"string","internalType":"string"}],"outputs":[{"name":"","type":"tuple","internalType":"struct NextjsTarget.GenerateOkResult","components":[{"name":"success","type":"bool","internalType":"bool"},{"name":"routes","type":"string[]","internalType":"string[]"},{"name":"files","type":"string[]","internalType":"string[]"}]}],"stateMutability":"nonpayable"},{"type":"function","name":"listRoutes","inputs":[{"name":"concept","type":"string","internalType":"string"}],"outputs":[{"name":"","type":"tuple","internalType":"struct NextjsTarget.ListRoutesOkResult","components":[{"name":"success","type":"bool","internalType":"bool"},{"name":"routes","type":"string[]","internalType":"string[]"},{"name":"methods","type":"string[]","internalType":"string[]"}]}],"stateMutability":"nonpayable"},{"type":"function","name":"register","inputs":[],"outputs":[{"name":"name","type":"string","internalType":"string"},{"name":"category","type":"string","internalType":"string"},{"name":"formats","type":"string[]","internalType":"string[]"}],"stateMutability":"pure"},{"type":"function","name":"validate","inputs":[{"name":"route","type":"bytes32","internalType":"bytes32"}],"outputs":[{"name":"","type":"tuple","internalType":"struct NextjsTarget.ValidateOkResult","components":[{"name":"success","type":"bool","internalType":"bool"},{"name":"route","type":"bytes32","internalType":"bytes32"}]}],"stateMutability":"nonpayable"},{"type":"event","name":"GenerateCompleted","inputs":[{"name":"variant","type":"string","indexed":false,"internalType":"string"},{"name":"routes","type":"string[]","indexed":false,"internalType":"string[]"},{"name":"files","type":"string[]","indexed":false,"internalType":"string[]"}],"anonymous":false},{"type":"event","name":"ListRoutesCompleted","inputs":[{"name":"variant","type":"string","indexed":false,"internalType":"string"},{"name":"routes","type":"string[]","indexed":false,"internalType":"string[]"},{"name":"methods","type":"string[]","indexed":false,"internalType":"string[]"}],"anonymous":false},{"type":"event","name":"ValidateCompleted","inputs":[{"name":"variant","type":"string","indexed":false,"internalType":"string"},{"name":"route","type":"bytes32","indexed":false,"internalType":"bytes32"}],"anonymous":false}],"bytecode":{"object":"0x608060405234801561000f575f80fd5b506119ff8061001d5f395ff3fe608060405234801561000f575f80fd5b506004361061004a575f3560e01c80631aa3a0081461004e5780632e0126981461006e578063632735ad1461009e578063c6090841146100ce575b5f80fd5b6100566100fe565b60405161006593929190610d9a565b60405180910390f35b61008860048036038101906100839190610e28565b61021d565b6040516100959190610ea9565b60405180910390f35b6100b860048036038101906100b39190610fee565b6102d7565b6040516100c5919061113b565b60405180910390f35b6100e860048036038101906100e3919061115b565b6107e0565b6040516100f591906111f6565b60405180910390f35b60608060606040518060400160405280600681526020017f6e6578746a73000000000000000000000000000000000000000000000000000081525092506040518060400160405280601081526020017f696e746572666163652d746172676574000000000000000000000000000000008152509150600167ffffffffffffffff81111561018e5761018d610eca565b5b6040519080825280602002602001820160405280156101c157816020015b60608152602001906001900390816101ac5790505b5090506040518060400160405280600a81526020017f7479706573637269707400000000000000000000000000000000000000000000815250815f8151811061020d5761020c611216565b5b6020026020010181905250909192565b610225610ada565b5f808381526020019081526020015f205f9054906101000a900460ff16610281576040517f08c379a00000000000000000000000000000000000000000000000000000000081526004016102789061128d565b60405180910390fd5b7f431666eceddcbdcb27849a50bf6a540ef06c02dc0175e9f28d845a1d7c009012826040516102b09190611304565b60405180910390a16040518060400160405280600115158152602001838152509050919050565b6102df610af7565b5f835111610322576040517f08c379a00000000000000000000000000000000000000000000000000000000081526004016103199061137a565b60405180910390fd5b5f836005546040516020016103389291906113fb565b60405160208183030381529060405280519060200120905060055f8154809291906103629061144f565b91905055505f8460405160200161037991906114e0565b60405160208183030381529060405290505f808381526020019081526020015f205f9054906101000a900460ff166103fa5760015f808481526020019081526020015f205f6101000a81548160ff021916908315150217905550600182908060018154018082558091505060019003905f5260205f20015f90919091909150555b8060025f8481526020019081526020015f20908161041891906116fb565b505f600167ffffffffffffffff81111561043557610434610eca565b5b60405190808252806020026020018201604052801561046857816020015b60608152602001906001900390816104535790505b50905081815f8151811061047f5761047e611216565b5b60200260200101819052505f600267ffffffffffffffff8111156104a6576104a5610eca565b5b6040519080825280602002602001820160405280156104d957816020015b60608152602001906001900390816104c45790505b509050866040516020016104ed919061185e565b604051602081830303815290604052815f8151811061050f5761050e611216565b5b60200260200101819052508660405160200161052b91906118d4565b6040516020818303038152906040528160018151811061054e5761054d611216565b5b60200260200101819052505f8760405160200161056b9190611900565b6040516020818303038152906040528051906020012090505f600267ffffffffffffffff81111561059f5761059e610eca565b5b6040519080825280602002602001820160405280156105d257816020015b60608152602001906001900390816105bd5790505b50905084815f815181106105e9576105e8611216565b5b6020026020010181905250846040516020016106059190611960565b6040516020818303038152906040528160018151811061062857610627611216565b5b60200260200101819052505f600267ffffffffffffffff81111561064f5761064e610eca565b5b60405190808252806020026020018201604052801561068257816020015b606081526020019060019003908161066d5790505b5090506040518060400160405280600881526020017f4745542c504f5354000000000000000000000000000000000000000000000000815250815f815181106106ce576106cd611216565b5b60200260200101819052506040518060400160405280600e81526020017f4745542c5055542c44454c4554450000000000000000000000000000000000008152508160018151811061072357610722611216565b5b60200260200101819052508160035f8581526020019081526020015f209080519060200190610753929190610b19565b508060045f8581526020019081526020015f209080519060200190610779929190610b19565b507f98e8722e367033a30eb92cae27f6bd707bbffe334ce250eed26515f1a97b81ee85856040516107ab929190611981565b60405180910390a160405180606001604052806001151581526020018681526020018581525097505050505050505092915050565b6107e8610b70565b5f826040516020016107fa9190611900565b6040516020818303038152906040528051906020012090505f60035f8381526020019081526020015f20805480602002602001604051908101604052809291908181526020015f905b828210156108eb578382905f5260205f200180546108609061152e565b80601f016020809104026020016040519081016040528092919081815260200182805461088c9061152e565b80156108d75780601f106108ae576101008083540402835291602001916108d7565b820191905f5260205f20905b8154815290600101906020018083116108ba57829003601f168201915b505050505081526020019060010190610843565b5050505090505f60045f8481526020019081526020015f20805480602002602001604051908101604052809291908181526020015f905b828210156109ca578382905f5260205f2001805461093f9061152e565b80601f016020809104026020016040519081016040528092919081815260200182805461096b9061152e565b80156109b65780601f1061098d576101008083540402835291602001916109b6565b820191905f5260205f20905b81548152906001019060200180831161099957829003601f168201915b505050505081526020019060010190610922565b5050505090505f825103610a79575f67ffffffffffffffff8111156109f2576109f1610eca565b5b604051908082528060200260200182016040528015610a2557816020015b6060815260200190600190039081610a105790505b5091505f67ffffffffffffffff811115610a4257610a41610eca565b5b604051908082528060200260200182016040528015610a7557816020015b6060815260200190600190039081610a605790505b5090505b7f80cec1e004f3930589d78306046ae4a66d3b46c34b4212d4b1df8aaf0b9d3d1f8282604051610aaa929190611981565b60405180910390a16040518060600160405280600115158152602001838152602001828152509350505050919050565b60405180604001604052805f151581526020015f80191681525090565b60405180606001604052805f1515815260200160608152602001606081525090565b828054828255905f5260205f20908101928215610b5f579160200282015b82811115610b5e578251829081610b4e91906116fb565b5091602001919060010190610b37565b5b509050610b6c9190610b92565b5090565b60405180606001604052805f1515815260200160608152602001606081525090565b5b80821115610bb1575f8181610ba89190610bb5565b50600101610b93565b5090565b508054610bc19061152e565b5f825580601f10610bd25750610bef565b601f0160209004905f5260205f2090810190610bee9190610bf2565b5b50565b5b80821115610c09575f815f905550600101610bf3565b5090565b5f81519050919050565b5f82825260208201905092915050565b5f5b83811015610c44578082015181840152602081019050610c29565b5f8484015250505050565b5f601f19601f8301169050919050565b5f610c6982610c0d565b610c738185610c17565b9350610c83818560208601610c27565b610c8c81610c4f565b840191505092915050565b5f81519050919050565b5f82825260208201905092915050565b5f819050602082019050919050565b5f82825260208201905092915050565b5f610cda82610c0d565b610ce48185610cc0565b9350610cf4818560208601610c27565b610cfd81610c4f565b840191505092915050565b5f610d138383610cd0565b905092915050565b5f602082019050919050565b5f610d3182610c97565b610d3b8185610ca1565b935083602082028501610d4d85610cb1565b805f5b85811015610d885784840389528151610d698582610d08565b9450610d7483610d1b565b925060208a01995050600181019050610d50565b50829750879550505050505092915050565b5f6060820190508181035f830152610db28186610c5f565b90508181036020830152610dc68185610c5f565b90508181036040830152610dda8184610d27565b9050949350505050565b5f604051905090565b5f80fd5b5f80fd5b5f819050919050565b610e0781610df5565b8114610e11575f80fd5b50565b5f81359050610e2281610dfe565b92915050565b5f60208284031215610e3d57610e3c610ded565b5b5f610e4a84828501610e14565b91505092915050565b5f8115159050919050565b610e6781610e53565b82525050565b610e7681610df5565b82525050565b604082015f820151610e905f850182610e5e565b506020820151610ea36020850182610e6d565b50505050565b5f604082019050610ebc5f830184610e7c565b92915050565b5f80fd5b5f80fd5b7f4e487b71000000000000000000000000000000000000000000000000000000005f52604160045260245ffd5b610f0082610c4f565b810181811067ffffffffffffffff82111715610f1f57610f1e610eca565b5b80604052505050565b5f610f31610de4565b9050610f3d8282610ef7565b919050565b5f67ffffffffffffffff821115610f5c57610f5b610eca565b5b610f6582610c4f565b9050602081019050919050565b828183375f83830152505050565b5f610f92610f8d84610f42565b610f28565b905082815260208101848484011115610fae57610fad610ec6565b5b610fb9848285610f72565b509392505050565b5f82601f830112610fd557610fd4610ec2565b5b8135610fe5848260208601610f80565b91505092915050565b5f806040838503121561100457611003610ded565b5b5f83013567ffffffffffffffff81111561102157611020610df1565b5b61102d85828601610fc1565b925050602083013567ffffffffffffffff81111561104e5761104d610df1565b5b61105a85828601610fc1565b9150509250929050565b5f82825260208201905092915050565b5f61107e82610c97565b6110888185611064565b93508360208202850161109a85610cb1565b805f5b858110156110d557848403895281516110b68582610d08565b94506110c183610d1b565b925060208a0199505060018101905061109d565b50829750879550505050505092915050565b5f606083015f8301516110fc5f860182610e5e565b50602083015184820360208601526111148282611074565b9150506040830151848203604086015261112e8282611074565b9150508091505092915050565b5f6020820190508181035f83015261115381846110e7565b905092915050565b5f602082840312156111705761116f610ded565b5b5f82013567ffffffffffffffff81111561118d5761118c610df1565b5b61119984828501610fc1565b91505092915050565b5f606083015f8301516111b75f860182610e5e565b50602083015184820360208601526111cf8282611074565b915050604083015184820360408601526111e98282611074565b9150508091505092915050565b5f6020820190508181035f83015261120e81846111a2565b905092915050565b7f4e487b71000000000000000000000000000000000000000000000000000000005f52603260045260245ffd5b7f526f757465206e6f7420666f756e6400000000000000000000000000000000005f82015250565b5f611277600f83610c17565b915061128282611243565b602082019050919050565b5f6020820190508181035f8301526112a48161126b565b9050919050565b7f6f6b0000000000000000000000000000000000000000000000000000000000005f82015250565b5f6112df600283610c17565b91506112ea826112ab565b602082019050919050565b6112fe81610df5565b82525050565b5f6040820190508181035f83015261131b816112d3565b905061132a60208301846112f5565b92915050565b7f50726f6a656374696f6e2063616e6e6f7420626520656d7074790000000000005f82015250565b5f611364601a83610c17565b915061136f82611330565b602082019050919050565b5f6020820190508181035f83015261139181611358565b9050919050565b5f81905092915050565b5f6113ac82610c0d565b6113b68185611398565b93506113c6818560208601610c27565b80840191505092915050565b5f819050919050565b5f819050919050565b6113f56113f0826113d2565b6113db565b82525050565b5f61140682856113a2565b915061141282846113e4565b6020820191508190509392505050565b7f4e487b71000000000000000000000000000000000000000000000000000000005f52601160045260245ffd5b5f611459826113d2565b91507fffffffffffffffffffffffffffffffffffffffffffffffffffffffffffffffff820361148b5761148a611422565b5b600182019050919050565b7f2f6170692f0000000000000000000000000000000000000000000000000000005f82015250565b5f6114ca600583611398565b91506114d582611496565b600582019050919050565b5f6114ea826114be565b91506114f682846113a2565b915081905092915050565b7f4e487b71000000000000000000000000000000000000000000000000000000005f52602260045260245ffd5b5f600282049050600182168061154557607f821691505b60208210810361155857611557611501565b5b50919050565b5f819050815f5260205f209050919050565b5f6020601f8301049050919050565b5f82821b905092915050565b5f600883026115ba7fffffffffffffffffffffffffffffffffffffffffffffffffffffffffffffffff8261157f565b6115c4868361157f565b95508019841693508086168417925050509392505050565b5f819050919050565b5f6115ff6115fa6115f5846113d2565b6115dc565b6113d2565b9050919050565b5f819050919050565b611618836115e5565b61162c61162482611606565b84845461158b565b825550505050565b5f90565b611640611634565b61164b81848461160f565b505050565b5b8181101561166e576116635f82611638565b600181019050611651565b5050565b601f8211156116b3576116848161155e565b61168d84611570565b8101602085101561169c578190505b6116b06116a885611570565b830182611650565b50505b505050565b5f82821c905092915050565b5f6116d35f19846008026116b8565b1980831691505092915050565b5f6116eb83836116c4565b9150826002028217905092915050565b61170482610c0d565b67ffffffffffffffff81111561171d5761171c610eca565b5b611727825461152e565b611732828285611672565b5f60209050601f831160018114611763575f8415611751578287015190505b61175b85826116e0565b8655506117c2565b601f1984166117718661155e565b5f5b8281101561179857848901518255600182019150602085019450602081019050611773565b868310156117b557848901516117b1601f8916826116c4565b8355505b6001600288020188555050505b505050505050565b7f6170702f6170692f0000000000000000000000000000000000000000000000005f82015250565b5f6117fe600883611398565b9150611809826117ca565b600882019050919050565b7f2f726f7574652e747300000000000000000000000000000000000000000000005f82015250565b5f611848600983611398565b915061185382611814565b600982019050919050565b5f611868826117f2565b915061187482846113a2565b915061187f8261183c565b915081905092915050565b7f2f5b69645d2f726f7574652e74730000000000000000000000000000000000005f82015250565b5f6118be600e83611398565b91506118c98261188a565b600e82019050919050565b5f6118de826117f2565b91506118ea82846113a2565b91506118f5826118b2565b915081905092915050565b5f61190b82846113a2565b915081905092915050565b7f2f5b69645d0000000000000000000000000000000000000000000000000000005f82015250565b5f61194a600583611398565b915061195582611916565b600582019050919050565b5f61196b82846113a2565b91506119768261193e565b915081905092915050565b5f6060820190508181035f830152611998816112d3565b905081810360208301526119ac8185610d27565b905081810360408301526119c08184610d27565b9050939250505056fea2646970667358221220f2422ac5e78d2df1a11d4c2b2950edd566a6496079b34ac48e2d86e7dba6b1b764736f6c63430008140033","linkReferences":{}},"methodIdentifiers":{"generate(string,string)":"632735ad","listRoutes(string)":"c6090841","register()":"1aa3a008","validate(bytes32)":"2e012698"},"id":181}